{
	"Receiver.sol": {
		"Client": {
			"abi": [
				{
					"inputs": [],
					"name": "EVM_EXTRA_ARGS_V1_TAG",
					"outputs": [
						{
							"internalType": "bytes4",
							"name": "",
							"type": "bytes4"
						}
					],
					"stateMutability": "view",
					"type": "function"
				}
			],
			"devdoc": {
				"kind": "dev",
				"methods": {},
				"version": 1
			},
			"evm": {
				"assembly": "    /* \"Receiver.sol\":195:1570  library Client {... */\n  dataSize(sub_0)\n  dataOffset(sub_0)\n  0x0b\n  dup3\n  dup3\n  dup3\n  codecopy\n  dup1\n  mload\n  0x00\n  byte\n  0x73\n  eq\n  tag_1\n  jumpi\n  mstore(0x00, 0x4e487b7100000000000000000000000000000000000000000000000000000000)\n  mstore(0x04, 0x00)\n  revert(0x00, 0x24)\ntag_1:\n  mstore(0x00, address)\n  0x73\n  dup2\n  mstore8\n  dup3\n  dup2\n  return\nstop\n\nsub_0: assembly {\n        /* \"Receiver.sol\":195:1570  library Client {... */\n      eq(address, deployTimeAddress())\n      mstore(0x40, 0x80)\n      jumpi(tag_1, lt(calldatasize, 0x04))\n      shr(0xe0, calldataload(0x00))\n      dup1\n      0x3ab8c0d0\n      eq\n      tag_2\n      jumpi\n    tag_1:\n      0x00\n      dup1\n      revert\n        /* \"Receiver.sol\":1284:1341  bytes4 public constant EVM_EXTRA_ARGS_V1_TAG = 0x97a657c9 */\n    tag_2:\n      tag_3\n      tag_4\n      jump\t// in\n    tag_3:\n      mload(0x40)\n      tag_5\n      swap2\n      swap1\n      tag_6\n      jump\t// in\n    tag_5:\n      mload(0x40)\n      dup1\n      swap2\n      sub\n      swap1\n      return\n    tag_4:\n        /* \"Receiver.sol\":1331:1341  0x97a657c9 */\n      0x97a657c9\n        /* \"Receiver.sol\":1284:1341  bytes4 public constant EVM_EXTRA_ARGS_V1_TAG = 0x97a657c9 */\n      0xe0\n      shl\n      dup2\n      jump\t// out\n        /* \"#utility.yul\":7:156   */\n    tag_7:\n        /* \"#utility.yul\":43:50   */\n      0x00\n        /* \"#utility.yul\":83:149   */\n      0xffffffff00000000000000000000000000000000000000000000000000000000\n        /* \"#utility.yul\":76:81   */\n      dup3\n        /* \"#utility.yul\":72:150   */\n      and\n        /* \"#utility.yul\":61:150   */\n      swap1\n      pop\n        /* \"#utility.yul\":7:156   */\n      swap2\n      swap1\n      pop\n      jump\t// out\n        /* \"#utility.yul\":162:285   */\n    tag_8:\n        /* \"#utility.yul\":255:278   */\n      tag_12\n        /* \"#utility.yul\":272:277   */\n      dup2\n        /* \"#utility.yul\":255:278   */\n      tag_7\n      jump\t// in\n    tag_12:\n        /* \"#utility.yul\":250:253   */\n      dup3\n        /* \"#utility.yul\":243:279   */\n      mstore\n        /* \"#utility.yul\":162:285   */\n      pop\n      pop\n      jump\t// out\n        /* \"#utility.yul\":291:525   */\n    tag_6:\n        /* \"#utility.yul\":390:394   */\n      0x00\n        /* \"#utility.yul\":428:430   */\n      0x20\n        /* \"#utility.yul\":417:426   */\n      dup3\n        /* \"#utility.yul\":413:431   */\n      add\n        /* \"#utility.yul\":405:431   */\n      swap1\n      pop\n        /* \"#utility.yul\":441:518   */\n      tag_14\n        /* \"#utility.yul\":515:516   */\n      0x00\n        /* \"#utility.yul\":504:513   */\n      dup4\n        /* \"#utility.yul\":500:517   */\n      add\n        /* \"#utility.yul\":491:497   */\n      dup5\n        /* \"#utility.yul\":441:518   */\n      tag_8\n      jump\t// in\n    tag_14:\n        /* \"#utility.yul\":291:525   */\n      swap3\n      swap2\n      pop\n      pop\n      jump\t// out\n\n    auxdata: 0xa26469706673582212200bda6628f1b1861fc780f69553610bf6a381b7731b7232935ba8f96dd787977464736f6c63430008130033\n}\n",
				"bytecode": {
					"linkReferences": {},
					"object": "60e5610052600b82828239805160001a607314610045577f4e487b7100000000000000000000000000000000000000000000000000000000600052600060045260246000fd5b30600052607381538281f3fe730000000000000000000000000000000000000000301460806040526004361060335760003560e01c80633ab8c0d0146038575b600080fd5b603e6052565b604051604991906096565b60405180910390f35b6397a657c960e01b81565b60007fffffffff0000000000000000000000000000000000000000000000000000000082169050919050565b609081605d565b82525050565b600060208201905060a960008301846089565b9291505056fea26469706673582212200bda6628f1b1861fc780f69553610bf6a381b7731b7232935ba8f96dd787977464736f6c63430008130033",
					"opcodes": "PUSH1 0xE5 PUSH2 0x52 PUSH1 0xB DUP3 DUP3 DUP3 CODECOPY DUP1 MLOAD PUSH1 0x0 BYTE PUSH1 0x73 EQ PUSH2 0x45 JUMPI PUSH32 0x4E487B7100000000000000000000000000000000000000000000000000000000 PUSH1 0x0 MSTORE PUSH1 0x0 PUSH1 0x4 MSTORE PUSH1 0x24 PUSH1 0x0 REVERT JUMPDEST ADDRESS PUSH1 0x0 MSTORE PUSH1 0x73 DUP2 MSTORE8 DUP3 DUP2 RETURN INVALID PUSH20 0x0 ADDRESS EQ PUSH1 0x80 PUSH1 0x40 MSTORE PUSH1 0x4 CALLDATASIZE LT PUSH1 0x33 JUMPI PUSH1 0x0 CALLDATALOAD PUSH1 0xE0 SHR DUP1 PUSH4 0x3AB8C0D0 EQ PUSH1 0x38 JUMPI JUMPDEST PUSH1 0x0 DUP1 REVERT JUMPDEST PUSH1 0x3E PUSH1 0x52 JUMP JUMPDEST PUSH1 0x40 MLOAD PUSH1 0x49 SWAP2 SWAP1 PUSH1 0x96 JUMP JUMPDEST PUSH1 0x40 MLOAD DUP1 SWAP2 SUB SWAP1 RETURN JUMPDEST PUSH4 0x97A657C9 PUSH1 0xE0 SHL DUP2 JUMP JUMPDEST PUSH1 0x0 PUSH32 0xFFFFFFFF00000000000000000000000000000000000000000000000000000000 DUP3 AND SWAP1 POP SWAP2 SWAP1 POP JUMP JUMPDEST PUSH1 0x90 DUP2 PUSH1 0x5D JUMP JUMPDEST DUP3 MSTORE POP POP JUMP JUMPDEST PUSH1 0x0 PUSH1 0x20 DUP3 ADD SWAP1 POP PUSH1 0xA9 PUSH1 0x0 DUP4 ADD DUP5 PUSH1 0x89 JUMP JUMPDEST SWAP3 SWAP2 POP POP JUMP INVALID LOG2 PUSH5 0x6970667358 0x22 SLT KECCAK256 SIGNEXTEND 0xDA PUSH7 0x28F1B1861FC780 0xF6 SWAP6 MSTORE8 PUSH2 0xBF6 LOG3 DUP2 0xB7 PUSH20 0x1B7232935BA8F96DD787977464736F6C63430008 SGT STOP CALLER "
				},
				"gasEstimates": {
					"creation": {
						"codeDepositCost": "45800",
						"executionCost": "124",
						"totalCost": "45924"
					},
					"external": {
						"EVM_EXTRA_ARGS_V1_TAG()": "303"
					},
					"internal": {
						"_argsToBytes(struct Client.EVMExtraArgsV1 memory)": "infinite"
					}
				},
				"methodIdentifiers": {
					"EVM_EXTRA_ARGS_V1_TAG()": "3ab8c0d0"
				}
			},
			"storageLayout": {
				"storage": [],
				"types": null
			},
			"userdoc": {
				"kind": "user",
				"methods": {},
				"version": 1
			}
		}
	}
}