{
	"ZKGameClient.sol": {
		"ZKGameClient": {
			"abi": [
				{
					"inputs": [
						{
							"internalType": "uint256",
							"name": "_currentChainSelectorIndex",
							"type": "uint256"
						}
					],
					"stateMutability": "nonpayable",
					"type": "constructor"
				},
				{
					"inputs": [
						{
							"internalType": "address",
							"name": "router",
							"type": "address"
						}
					],
					"name": "InvalidRouter",
					"type": "error"
				},
				{
					"inputs": [
						{
							"internalType": "uint256",
							"name": "currentBalance",
							"type": "uint256"
						},
						{
							"internalType": "uint256",
							"name": "calculatedFees",
							"type": "uint256"
						}
					],
					"name": "NotEnoughBalance",
					"type": "error"
				},
				{
					"anonymous": false,
					"inputs": [
						{
							"indexed": true,
							"internalType": "bytes32",
							"name": "messageId",
							"type": "bytes32"
						},
						{
							"indexed": true,
							"internalType": "uint64",
							"name": "sourceChainSelector",
							"type": "uint64"
						},
						{
							"indexed": false,
							"internalType": "address",
							"name": "sender",
							"type": "address"
						},
						{
							"components": [
								{
									"internalType": "address",
									"name": "player",
									"type": "address"
								},
								{
									"internalType": "uint256",
									"name": "time",
									"type": "uint256"
								},
								{
									"internalType": "uint256",
									"name": "chainIndex",
									"type": "uint256"
								}
							],
							"indexed": false,
							"internalType": "struct ZKGameClient.MessageItem",
							"name": "messageItem",
							"type": "tuple"
						}
					],
					"name": "MessageReceived",
					"type": "event"
				},
				{
					"anonymous": false,
					"inputs": [
						{
							"indexed": true,
							"internalType": "bytes32",
							"name": "messageId",
							"type": "bytes32"
						},
						{
							"indexed": true,
							"internalType": "uint64",
							"name": "destinationChainSelector",
							"type": "uint64"
						},
						{
							"indexed": false,
							"internalType": "address",
							"name": "receiver",
							"type": "address"
						},
						{
							"components": [
								{
									"internalType": "address",
									"name": "player",
									"type": "address"
								},
								{
									"internalType": "uint256",
									"name": "time",
									"type": "uint256"
								},
								{
									"internalType": "uint256",
									"name": "chainIndex",
									"type": "uint256"
								}
							],
							"indexed": false,
							"internalType": "struct ZKGameClient.MessageItem",
							"name": "messageItem",
							"type": "tuple"
						},
						{
							"indexed": false,
							"internalType": "address",
							"name": "feeToken",
							"type": "address"
						},
						{
							"indexed": false,
							"internalType": "uint256",
							"name": "fees",
							"type": "uint256"
						}
					],
					"name": "MessageSent",
					"type": "event"
				},
				{
					"anonymous": false,
					"inputs": [
						{
							"indexed": true,
							"internalType": "address",
							"name": "from",
							"type": "address"
						},
						{
							"indexed": true,
							"internalType": "address",
							"name": "to",
							"type": "address"
						}
					],
					"name": "OwnershipTransferRequested",
					"type": "event"
				},
				{
					"anonymous": false,
					"inputs": [
						{
							"indexed": true,
							"internalType": "address",
							"name": "from",
							"type": "address"
						},
						{
							"indexed": true,
							"internalType": "address",
							"name": "to",
							"type": "address"
						}
					],
					"name": "OwnershipTransferred",
					"type": "event"
				},
				{
					"inputs": [],
					"name": "acceptOwnership",
					"outputs": [],
					"stateMutability": "nonpayable",
					"type": "function"
				},
				{
					"inputs": [
						{
							"components": [
								{
									"internalType": "bytes32",
									"name": "messageId",
									"type": "bytes32"
								},
								{
									"internalType": "uint64",
									"name": "sourceChainSelector",
									"type": "uint64"
								},
								{
									"internalType": "bytes",
									"name": "sender",
									"type": "bytes"
								},
								{
									"internalType": "bytes",
									"name": "data",
									"type": "bytes"
								},
								{
									"components": [
										{
											"internalType": "address",
											"name": "token",
											"type": "address"
										},
										{
											"internalType": "uint256",
											"name": "amount",
											"type": "uint256"
										}
									],
									"internalType": "struct Client.EVMTokenAmount[]",
									"name": "destTokenAmounts",
									"type": "tuple[]"
								}
							],
							"internalType": "struct Client.Any2EVMMessage",
							"name": "message",
							"type": "tuple"
						}
					],
					"name": "ccipReceive",
					"outputs": [],
					"stateMutability": "nonpayable",
					"type": "function"
				},
				{
					"inputs": [
						{
							"internalType": "uint256",
							"name": "",
							"type": "uint256"
						}
					],
					"name": "chainSelectors",
					"outputs": [
						{
							"internalType": "uint64",
							"name": "",
							"type": "uint64"
						}
					],
					"stateMutability": "view",
					"type": "function"
				},
				{
					"inputs": [],
					"name": "currentChainSelectorIndex",
					"outputs": [
						{
							"internalType": "uint256",
							"name": "",
							"type": "uint256"
						}
					],
					"stateMutability": "view",
					"type": "function"
				},
				{
					"inputs": [],
					"name": "currentMessageItem",
					"outputs": [
						{
							"internalType": "address",
							"name": "player",
							"type": "address"
						},
						{
							"internalType": "uint256",
							"name": "time",
							"type": "uint256"
						},
						{
							"internalType": "uint256",
							"name": "chainIndex",
							"type": "uint256"
						}
					],
					"stateMutability": "view",
					"type": "function"
				},
				{
					"inputs": [],
					"name": "getTopGradeList",
					"outputs": [
						{
							"internalType": "uint256[10]",
							"name": "",
							"type": "uint256[10]"
						},
						{
							"internalType": "uint256[10]",
							"name": "",
							"type": "uint256[10]"
						},
						{
							"internalType": "address[10]",
							"name": "",
							"type": "address[10]"
						}
					],
					"stateMutability": "view",
					"type": "function"
				},
				{
					"inputs": [
						{
							"internalType": "uint256",
							"name": "",
							"type": "uint256"
						}
					],
					"name": "linkTokens",
					"outputs": [
						{
							"internalType": "address",
							"name": "",
							"type": "address"
						}
					],
					"stateMutability": "view",
					"type": "function"
				},
				{
					"inputs": [],
					"name": "owner",
					"outputs": [
						{
							"internalType": "address",
							"name": "",
							"type": "address"
						}
					],
					"stateMutability": "view",
					"type": "function"
				},
				{
					"inputs": [
						{
							"internalType": "uint256",
							"name": "",
							"type": "uint256"
						}
					],
					"name": "receivers",
					"outputs": [
						{
							"internalType": "address",
							"name": "",
							"type": "address"
						}
					],
					"stateMutability": "view",
					"type": "function"
				},
				{
					"inputs": [
						{
							"internalType": "uint256",
							"name": "",
							"type": "uint256"
						}
					],
					"name": "routers",
					"outputs": [
						{
							"internalType": "address",
							"name": "",
							"type": "address"
						}
					],
					"stateMutability": "view",
					"type": "function"
				},
				{
					"inputs": [
						{
							"internalType": "uint256",
							"name": "time",
							"type": "uint256"
						}
					],
					"name": "submitData",
					"outputs": [],
					"stateMutability": "nonpayable",
					"type": "function"
				},
				{
					"inputs": [
						{
							"internalType": "bytes4",
							"name": "interfaceId",
							"type": "bytes4"
						}
					],
					"name": "supportsInterface",
					"outputs": [
						{
							"internalType": "bool",
							"name": "",
							"type": "bool"
						}
					],
					"stateMutability": "pure",
					"type": "function"
				},
				{
					"inputs": [
						{
							"internalType": "uint256",
							"name": "",
							"type": "uint256"
						}
					],
					"name": "topChainIndex",
					"outputs": [
						{
							"internalType": "uint256",
							"name": "",
							"type": "uint256"
						}
					],
					"stateMutability": "view",
					"type": "function"
				},
				{
					"inputs": [
						{
							"internalType": "uint256",
							"name": "",
							"type": "uint256"
						}
					],
					"name": "topGradeList",
					"outputs": [
						{
							"internalType": "uint256",
							"name": "",
							"type": "uint256"
						}
					],
					"stateMutability": "view",
					"type": "function"
				},
				{
					"inputs": [
						{
							"internalType": "uint256",
							"name": "",
							"type": "uint256"
						}
					],
					"name": "topPlayerList",
					"outputs": [
						{
							"internalType": "address",
							"name": "",
							"type": "address"
						}
					],
					"stateMutability": "view",
					"type": "function"
				},
				{
					"inputs": [
						{
							"internalType": "address",
							"name": "to",
							"type": "address"
						}
					],
					"name": "transferOwnership",
					"outputs": [],
					"stateMutability": "nonpayable",
					"type": "function"
				},
				{
					"inputs": [
						{
							"internalType": "address[]",
							"name": "receiverList",
							"type": "address[]"
						}
					],
					"name": "updateReceivers",
					"outputs": [],
					"stateMutability": "nonpayable",
					"type": "function"
				}
			],
			"devdoc": {
				"kind": "dev",
				"methods": {},
				"version": 1
			},
			"evm": {
				"assembly": "    /* \"ZKGameClient.sol\":796:9118  contract ZKGameClient is OwnerIsCreator {... */\n  mstore(0x40, 0x80)\n    /* \"ZKGameClient.sol\":2243:2244  0 */\n  0x00\n    /* \"ZKGameClient.sol\":2203:2244  uint public currentChainSelectorIndex = 0 */\n  0x02\n  sstore\n    /* \"ZKGameClient.sol\":2729:3737  constructor(uint _currentChainSelectorIndex) {... */\n  callvalue\n  dup1\n  iszero\n  tag_1\n  jumpi\n  0x00\n  dup1\n  revert\ntag_1:\n  pop\n  mload(0x40)\n  sub(codesize, bytecodeSize)\n  dup1\n  bytecodeSize\n  dup4\n  codecopy\n  dup2\n  dup2\n  add\n  0x40\n  mstore\n  dup2\n  add\n  swap1\n  tag_2\n  swap2\n  swap1\n  tag_3\n  jump\t// in\ntag_2:\n    /* \"@chainlink/contracts-ccip@1.4.0/src/v0.8/shared/access/OwnerIsCreator.sol\":291:301  msg.sender */\n  caller\n    /* \"@chainlink/contracts-ccip@1.4.0/src/v0.8/shared/access/ConfirmedOwner.sol\":355:363  newOwner */\n  dup1\n    /* \"@chainlink/contracts-ccip@1.4.0/src/v0.8/shared/access/ConfirmedOwner.sol\":373:374  0 */\n  0x00\n    /* \"@chainlink/contracts-ccip@1.4.0/src/v0.8/shared/access/ConfirmedOwnerWithProposal.sol\":614:615  0 */\n  dup1\n    /* \"@chainlink/contracts-ccip@1.4.0/src/v0.8/shared/access/ConfirmedOwnerWithProposal.sol\":594:616  newOwner != address(0) */\n  0xffffffffffffffffffffffffffffffffffffffff\n  and\n    /* \"@chainlink/contracts-ccip@1.4.0/src/v0.8/shared/access/ConfirmedOwnerWithProposal.sol\":594:602  newOwner */\n  dup3\n    /* \"@chainlink/contracts-ccip@1.4.0/src/v0.8/shared/access/ConfirmedOwnerWithProposal.sol\":594:616  newOwner != address(0) */\n  0xffffffffffffffffffffffffffffffffffffffff\n  and\n  sub\n    /* \"@chainlink/contracts-ccip@1.4.0/src/v0.8/shared/access/ConfirmedOwnerWithProposal.sol\":586:645  require(newOwner != address(0), \"Cannot set owner to zero\") */\n  tag_9\n  jumpi\n  mload(0x40)\n  0x08c379a000000000000000000000000000000000000000000000000000000000\n  dup2\n  mstore\n  0x04\n  add\n  tag_10\n  swap1\n  tag_11\n  jump\t// in\ntag_10:\n  mload(0x40)\n  dup1\n  swap2\n  sub\n  swap1\n  revert\ntag_9:\n    /* \"@chainlink/contracts-ccip@1.4.0/src/v0.8/shared/access/ConfirmedOwnerWithProposal.sol\":662:670  newOwner */\n  dup2\n    /* \"@chainlink/contracts-ccip@1.4.0/src/v0.8/shared/access/ConfirmedOwnerWithProposal.sol\":652:659  s_owner */\n  0x00\n  dup1\n    /* \"@chainlink/contracts-ccip@1.4.0/src/v0.8/shared/access/ConfirmedOwnerWithProposal.sol\":652:670  s_owner = newOwner */\n  0x0100\n  exp\n  dup2\n  sload\n  dup2\n  0xffffffffffffffffffffffffffffffffffffffff\n  mul\n  not\n  and\n  swap1\n  dup4\n  0xffffffffffffffffffffffffffffffffffffffff\n  and\n  mul\n  or\n  swap1\n  sstore\n  pop\n    /* \"@chainlink/contracts-ccip@1.4.0/src/v0.8/shared/access/ConfirmedOwnerWithProposal.sol\":704:705  0 */\n  0x00\n    /* \"@chainlink/contracts-ccip@1.4.0/src/v0.8/shared/access/ConfirmedOwnerWithProposal.sol\":680:706  pendingOwner != address(0) */\n  0xffffffffffffffffffffffffffffffffffffffff\n  and\n    /* \"@chainlink/contracts-ccip@1.4.0/src/v0.8/shared/access/ConfirmedOwnerWithProposal.sol\":680:692  pendingOwner */\n  dup2\n    /* \"@chainlink/contracts-ccip@1.4.0/src/v0.8/shared/access/ConfirmedOwnerWithProposal.sol\":680:706  pendingOwner != address(0) */\n  0xffffffffffffffffffffffffffffffffffffffff\n  and\n  eq\n    /* \"@chainlink/contracts-ccip@1.4.0/src/v0.8/shared/access/ConfirmedOwnerWithProposal.sol\":676:755  if (pendingOwner != address(0)) {... */\n  tag_12\n  jumpi\n    /* \"@chainlink/contracts-ccip@1.4.0/src/v0.8/shared/access/ConfirmedOwnerWithProposal.sol\":716:748  _transferOwnership(pendingOwner) */\n  tag_13\n    /* \"@chainlink/contracts-ccip@1.4.0/src/v0.8/shared/access/ConfirmedOwnerWithProposal.sol\":735:747  pendingOwner */\n  dup2\n    /* \"@chainlink/contracts-ccip@1.4.0/src/v0.8/shared/access/ConfirmedOwnerWithProposal.sol\":716:734  _transferOwnership */\n  shl(0x20, tag_14)\n    /* \"@chainlink/contracts-ccip@1.4.0/src/v0.8/shared/access/ConfirmedOwnerWithProposal.sol\":716:748  _transferOwnership(pendingOwner) */\n  0x20\n  shr\n  jump\t// in\ntag_13:\n    /* \"@chainlink/contracts-ccip@1.4.0/src/v0.8/shared/access/ConfirmedOwnerWithProposal.sol\":676:755  if (pendingOwner != address(0)) {... */\ntag_12:\n    /* \"@chainlink/contracts-ccip@1.4.0/src/v0.8/shared/access/ConfirmedOwnerWithProposal.sol\":481:759  constructor(address newOwner, address pendingOwner) {... */\n  pop\n  pop\n    /* \"@chainlink/contracts-ccip@1.4.0/src/v0.8/shared/access/ConfirmedOwner.sol\":298:379  constructor(address newOwner) ConfirmedOwnerWithProposal(newOwner, address(0)) {} */\n  pop\n    /* \"ZKGameClient.sol\":2815:2822  routers */\n  0x03\n    /* \"ZKGameClient.sol\":2828:2870  0x0BF3dE8c5D3e8A2B34D2BEeB17ABfCeBaf363A59 */\n  0x0bf3de8c5d3e8a2b34d2beeb17abfcebaf363a59\n    /* \"ZKGameClient.sol\":2815:2871  routers.push(0x0BF3dE8c5D3e8A2B34D2BEeB17ABfCeBaf363A59) */\n  swap1\n  dup1\n  0x01\n  dup2\n  sload\n  add\n  dup1\n  dup3\n  sstore\n  dup1\n  swap2\n  pop\n  pop\n  0x01\n  swap1\n  sub\n  swap1\n  0x00\n  mstore\n  keccak256(0x00, 0x20)\n  add\n  0x00\n  swap1\n  swap2\n  swap1\n  swap2\n  swap1\n  swap2\n  0x0100\n  exp\n  dup2\n  sload\n  dup2\n  0xffffffffffffffffffffffffffffffffffffffff\n  mul\n  not\n  and\n  swap1\n  dup4\n  0xffffffffffffffffffffffffffffffffffffffff\n  and\n  mul\n  or\n  swap1\n  sstore\n  pop\n    /* \"ZKGameClient.sol\":2909:2916  routers */\n  0x03\n    /* \"ZKGameClient.sol\":2922:2964  0xF694E193200268f9a4868e4Aa017A0118C9a8177 */\n  0xf694e193200268f9a4868e4aa017a0118c9a8177\n    /* \"ZKGameClient.sol\":2909:2965  routers.push(0xF694E193200268f9a4868e4Aa017A0118C9a8177) */\n  swap1\n  dup1\n  0x01\n  dup2\n  sload\n  add\n  dup1\n  dup3\n  sstore\n  dup1\n  swap2\n  pop\n  pop\n  0x01\n  swap1\n  sub\n  swap1\n  0x00\n  mstore\n  keccak256(0x00, 0x20)\n  add\n  0x00\n  swap1\n  swap2\n  swap1\n  swap2\n  swap1\n  swap2\n  0x0100\n  exp\n  dup2\n  sload\n  dup2\n  0xffffffffffffffffffffffffffffffffffffffff\n  mul\n  not\n  and\n  swap1\n  dup4\n  0xffffffffffffffffffffffffffffffffffffffff\n  and\n  mul\n  or\n  swap1\n  sstore\n  pop\n    /* \"ZKGameClient.sol\":3001:3008  routers */\n  0x03\n    /* \"ZKGameClient.sol\":3014:3056  0x9C32fCB86BF0f4a1A8921a9Fe46de3198bb884B2 */\n  0x9c32fcb86bf0f4a1a8921a9fe46de3198bb884b2\n    /* \"ZKGameClient.sol\":3001:3057  routers.push(0x9C32fCB86BF0f4a1A8921a9Fe46de3198bb884B2) */\n  swap1\n  dup1\n  0x01\n  dup2\n  sload\n  add\n  dup1\n  dup3\n  sstore\n  dup1\n  swap2\n  pop\n  pop\n  0x01\n  swap1\n  sub\n  swap1\n  0x00\n  mstore\n  keccak256(0x00, 0x20)\n  add\n  0x00\n  swap1\n  swap2\n  swap1\n  swap2\n  swap1\n  swap2\n  0x0100\n  exp\n  dup2\n  sload\n  dup2\n  0xffffffffffffffffffffffffffffffffffffffff\n  mul\n  not\n  and\n  swap1\n  dup4\n  0xffffffffffffffffffffffffffffffffffffffff\n  and\n  mul\n  or\n  swap1\n  sstore\n  pop\n    /* \"ZKGameClient.sol\":3127:3137  linkTokens */\n  0x04\n    /* \"ZKGameClient.sol\":3143:3185  0x779877A7B0D9E8603169DdbD7836e478b4624789 */\n  0x779877a7b0d9e8603169ddbd7836e478b4624789\n    /* \"ZKGameClient.sol\":3127:3186  linkTokens.push(0x779877A7B0D9E8603169DdbD7836e478b4624789) */\n  swap1\n  dup1\n  0x01\n  dup2\n  sload\n  add\n  dup1\n  dup3\n  sstore\n  dup1\n  swap2\n  pop\n  pop\n  0x01\n  swap1\n  sub\n  swap1\n  0x00\n  mstore\n  keccak256(0x00, 0x20)\n  add\n  0x00\n  swap1\n  swap2\n  swap1\n  swap2\n  swap1\n  swap2\n  0x0100\n  exp\n  dup2\n  sload\n  dup2\n  0xffffffffffffffffffffffffffffffffffffffff\n  mul\n  not\n  and\n  swap1\n  dup4\n  0xffffffffffffffffffffffffffffffffffffffff\n  and\n  mul\n  or\n  swap1\n  sstore\n  pop\n    /* \"ZKGameClient.sol\":3224:3234  linkTokens */\n  0x04\n    /* \"ZKGameClient.sol\":3240:3282  0x0b9d5D9136855f6FEc3c0993feE6E9CE8a297846 */\n  0x0b9d5d9136855f6fec3c0993fee6e9ce8a297846\n    /* \"ZKGameClient.sol\":3224:3283  linkTokens.push(0x0b9d5D9136855f6FEc3c0993feE6E9CE8a297846) */\n  swap1\n  dup1\n  0x01\n  dup2\n  sload\n  add\n  dup1\n  dup3\n  sstore\n  dup1\n  swap2\n  pop\n  pop\n  0x01\n  swap1\n  sub\n  swap1\n  0x00\n  mstore\n  keccak256(0x00, 0x20)\n  add\n  0x00\n  swap1\n  swap2\n  swap1\n  swap2\n  swap1\n  swap2\n  0x0100\n  exp\n  dup2\n  sload\n  dup2\n  0xffffffffffffffffffffffffffffffffffffffff\n  mul\n  not\n  and\n  swap1\n  dup4\n  0xffffffffffffffffffffffffffffffffffffffff\n  and\n  mul\n  or\n  swap1\n  sstore\n  pop\n    /* \"ZKGameClient.sol\":3319:3329  linkTokens */\n  0x04\n    /* \"ZKGameClient.sol\":3335:3377  0x0Fd9e8d3aF1aaee056EB9e802c3A762a667b1904 */\n  0x0fd9e8d3af1aaee056eb9e802c3a762a667b1904\n    /* \"ZKGameClient.sol\":3319:3378  linkTokens.push(0x0Fd9e8d3aF1aaee056EB9e802c3A762a667b1904) */\n  swap1\n  dup1\n  0x01\n  dup2\n  sload\n  add\n  dup1\n  dup3\n  sstore\n  dup1\n  swap2\n  pop\n  pop\n  0x01\n  swap1\n  sub\n  swap1\n  0x00\n  mstore\n  keccak256(0x00, 0x20)\n  add\n  0x00\n  swap1\n  swap2\n  swap1\n  swap2\n  swap1\n  swap2\n  0x0100\n  exp\n  dup2\n  sload\n  dup2\n  0xffffffffffffffffffffffffffffffffffffffff\n  mul\n  not\n  and\n  swap1\n  dup4\n  0xffffffffffffffffffffffffffffffffffffffff\n  and\n  mul\n  or\n  swap1\n  sstore\n  pop\n    /* \"ZKGameClient.sol\":3444:3458  chainSelectors */\n  0x05\n    /* \"ZKGameClient.sol\":3464:3484  16015286601757825753 */\n  0xde41ba4fc9d91ad9\n    /* \"ZKGameClient.sol\":3444:3485  chainSelectors.push(16015286601757825753) */\n  swap1\n  dup1\n  0x01\n  dup2\n  sload\n  add\n  dup1\n  dup3\n  sstore\n  dup1\n  swap2\n  pop\n  pop\n  0x01\n  swap1\n  sub\n  swap1\n  0x00\n  mstore\n  keccak256(0x00, 0x20)\n  swap1\n  0x04\n  swap2\n  dup3\n  dup3\n  div\n  add\n  swap2\n  swap1\n  mod\n  0x08\n  mul\n  swap1\n  swap2\n  swap1\n  swap2\n  swap1\n  swap2\n  0x0100\n  exp\n  dup2\n  sload\n  dup2\n  0xffffffffffffffff\n  mul\n  not\n  and\n  swap1\n  dup4\n  0xffffffffffffffff\n  and\n  mul\n  or\n  swap1\n  sstore\n  pop\n    /* \"ZKGameClient.sol\":3523:3537  chainSelectors */\n  0x05\n    /* \"ZKGameClient.sol\":3543:3563  14767482510784806043 */\n  0xccf0a31a221f3c9b\n    /* \"ZKGameClient.sol\":3523:3564  chainSelectors.push(14767482510784806043) */\n  swap1\n  dup1\n  0x01\n  dup2\n  sload\n  add\n  dup1\n  dup3\n  sstore\n  dup1\n  swap2\n  pop\n  pop\n  0x01\n  swap1\n  sub\n  swap1\n  0x00\n  mstore\n  keccak256(0x00, 0x20)\n  swap1\n  0x04\n  swap2\n  dup3\n  dup3\n  div\n  add\n  swap2\n  swap1\n  mod\n  0x08\n  mul\n  swap1\n  swap2\n  swap1\n  swap2\n  swap1\n  swap2\n  0x0100\n  exp\n  dup2\n  sload\n  dup2\n  0xffffffffffffffff\n  mul\n  not\n  and\n  swap1\n  dup4\n  0xffffffffffffffff\n  and\n  mul\n  or\n  swap1\n  sstore\n  pop\n    /* \"ZKGameClient.sol\":3600:3614  chainSelectors */\n  0x05\n    /* \"ZKGameClient.sol\":3620:3640  16281711391670634445 */\n  0xe1f4423f1bf587cd\n    /* \"ZKGameClient.sol\":3600:3641  chainSelectors.push(16281711391670634445) */\n  swap1\n  dup1\n  0x01\n  dup2\n  sload\n  add\n  dup1\n  dup3\n  sstore\n  dup1\n  swap2\n  pop\n  pop\n  0x01\n  swap1\n  sub\n  swap1\n  0x00\n  mstore\n  keccak256(0x00, 0x20)\n  swap1\n  0x04\n  swap2\n  dup3\n  dup3\n  div\n  add\n  swap2\n  swap1\n  mod\n  0x08\n  mul\n  swap1\n  swap2\n  swap1\n  swap2\n  swap1\n  swap2\n  0x0100\n  exp\n  dup2\n  sload\n  dup2\n  0xffffffffffffffff\n  mul\n  not\n  and\n  swap1\n  dup4\n  0xffffffffffffffff\n  and\n  mul\n  or\n  swap1\n  sstore\n  pop\n    /* \"ZKGameClient.sol\":3704:3730  _currentChainSelectorIndex */\n  dup1\n    /* \"ZKGameClient.sol\":3676:3701  currentChainSelectorIndex */\n  0x02\n    /* \"ZKGameClient.sol\":3676:3730  currentChainSelectorIndex = _currentChainSelectorIndex */\n  dup2\n  swap1\n  sstore\n  pop\n    /* \"ZKGameClient.sol\":2729:3737  constructor(uint _currentChainSelectorIndex) {... */\n  pop\n    /* \"ZKGameClient.sol\":796:9118  contract ZKGameClient is OwnerIsCreator {... */\n  jump(tag_27)\n    /* \"@chainlink/contracts-ccip@1.4.0/src/v0.8/shared/access/ConfirmedOwnerWithProposal.sol\":1528:1763  function _transferOwnership(address to) private {... */\ntag_14:\n    /* \"@chainlink/contracts-ccip@1.4.0/src/v0.8/shared/access/ConfirmedOwnerWithProposal.sol\":1643:1653  msg.sender */\n  caller\n    /* \"@chainlink/contracts-ccip@1.4.0/src/v0.8/shared/access/ConfirmedOwnerWithProposal.sol\":1637:1653  to != msg.sender */\n  0xffffffffffffffffffffffffffffffffffffffff\n  and\n    /* \"@chainlink/contracts-ccip@1.4.0/src/v0.8/shared/access/ConfirmedOwnerWithProposal.sol\":1637:1639  to */\n  dup2\n    /* \"@chainlink/contracts-ccip@1.4.0/src/v0.8/shared/access/ConfirmedOwnerWithProposal.sol\":1637:1653  to != msg.sender */\n  0xffffffffffffffffffffffffffffffffffffffff\n  and\n  sub\n    /* \"@chainlink/contracts-ccip@1.4.0/src/v0.8/shared/access/ConfirmedOwnerWithProposal.sol\":1629:1681  require(to != msg.sender, \"Cannot transfer to self\") */\n  tag_29\n  jumpi\n  mload(0x40)\n  0x08c379a000000000000000000000000000000000000000000000000000000000\n  dup2\n  mstore\n  0x04\n  add\n  tag_30\n  swap1\n  tag_31\n  jump\t// in\ntag_30:\n  mload(0x40)\n  dup1\n  swap2\n  sub\n  swap1\n  revert\ntag_29:\n    /* \"@chainlink/contracts-ccip@1.4.0/src/v0.8/shared/access/ConfirmedOwnerWithProposal.sol\":1705:1707  to */\n  dup1\n    /* \"@chainlink/contracts-ccip@1.4.0/src/v0.8/shared/access/ConfirmedOwnerWithProposal.sol\":1688:1702  s_pendingOwner */\n  0x01\n  0x00\n    /* \"@chainlink/contracts-ccip@1.4.0/src/v0.8/shared/access/ConfirmedOwnerWithProposal.sol\":1688:1707  s_pendingOwner = to */\n  0x0100\n  exp\n  dup2\n  sload\n  dup2\n  0xffffffffffffffffffffffffffffffffffffffff\n  mul\n  not\n  and\n  swap1\n  dup4\n  0xffffffffffffffffffffffffffffffffffffffff\n  and\n  mul\n  or\n  swap1\n  sstore\n  pop\n    /* \"@chainlink/contracts-ccip@1.4.0/src/v0.8/shared/access/ConfirmedOwnerWithProposal.sol\":1755:1757  to */\n  dup1\n    /* \"@chainlink/contracts-ccip@1.4.0/src/v0.8/shared/access/ConfirmedOwnerWithProposal.sol\":1719:1758  OwnershipTransferRequested(s_owner, to) */\n  0xffffffffffffffffffffffffffffffffffffffff\n  and\n    /* \"@chainlink/contracts-ccip@1.4.0/src/v0.8/shared/access/ConfirmedOwnerWithProposal.sol\":1746:1753  s_owner */\n  0x00\n  dup1\n  sload\n  swap1\n  0x0100\n  exp\n  swap1\n  div\n  0xffffffffffffffffffffffffffffffffffffffff\n  and\n    /* \"@chainlink/contracts-ccip@1.4.0/src/v0.8/shared/access/ConfirmedOwnerWithProposal.sol\":1719:1758  OwnershipTransferRequested(s_owner, to) */\n  0xffffffffffffffffffffffffffffffffffffffff\n  and\n  0xed8889f560326eb138920d842192f0eb3dd22b4f139c87a2c57538e05bae1278\n  mload(0x40)\n  mload(0x40)\n  dup1\n  swap2\n  sub\n  swap1\n  log3\n    /* \"@chainlink/contracts-ccip@1.4.0/src/v0.8/shared/access/ConfirmedOwnerWithProposal.sol\":1528:1763  function _transferOwnership(address to) private {... */\n  pop\n  jump\t// out\n    /* \"#utility.yul\":88:205   */\ntag_33:\n    /* \"#utility.yul\":197:198   */\n  0x00\n    /* \"#utility.yul\":194:195   */\n  dup1\n    /* \"#utility.yul\":187:199   */\n  revert\n    /* \"#utility.yul\":334:411   */\ntag_35:\n    /* \"#utility.yul\":371:378   */\n  0x00\n    /* \"#utility.yul\":400:405   */\n  dup2\n    /* \"#utility.yul\":389:405   */\n  swap1\n  pop\n    /* \"#utility.yul\":334:411   */\n  swap2\n  swap1\n  pop\n  jump\t// out\n    /* \"#utility.yul\":417:539   */\ntag_36:\n    /* \"#utility.yul\":490:514   */\n  tag_49\n    /* \"#utility.yul\":508:513   */\n  dup2\n    /* \"#utility.yul\":490:514   */\n  tag_35\n  jump\t// in\ntag_49:\n    /* \"#utility.yul\":483:488   */\n  dup2\n    /* \"#utility.yul\":480:515   */\n  eq\n    /* \"#utility.yul\":470:533   */\n  tag_50\n  jumpi\n    /* \"#utility.yul\":529:530   */\n  0x00\n    /* \"#utility.yul\":526:527   */\n  dup1\n    /* \"#utility.yul\":519:531   */\n  revert\n    /* \"#utility.yul\":470:533   */\ntag_50:\n    /* \"#utility.yul\":417:539   */\n  pop\n  jump\t// out\n    /* \"#utility.yul\":545:688   */\ntag_37:\n    /* \"#utility.yul\":602:607   */\n  0x00\n    /* \"#utility.yul\":633:639   */\n  dup2\n    /* \"#utility.yul\":627:640   */\n  mload\n    /* \"#utility.yul\":618:640   */\n  swap1\n  pop\n    /* \"#utility.yul\":649:682   */\n  tag_52\n    /* \"#utility.yul\":676:681   */\n  dup2\n    /* \"#utility.yul\":649:682   */\n  tag_36\n  jump\t// in\ntag_52:\n    /* \"#utility.yul\":545:688   */\n  swap3\n  swap2\n  pop\n  pop\n  jump\t// out\n    /* \"#utility.yul\":694:1045   */\ntag_3:\n    /* \"#utility.yul\":764:770   */\n  0x00\n    /* \"#utility.yul\":813:815   */\n  0x20\n    /* \"#utility.yul\":801:810   */\n  dup3\n    /* \"#utility.yul\":792:799   */\n  dup5\n    /* \"#utility.yul\":788:811   */\n  sub\n    /* \"#utility.yul\":784:816   */\n  slt\n    /* \"#utility.yul\":781:900   */\n  iszero\n  tag_54\n  jumpi\n    /* \"#utility.yul\":819:898   */\n  tag_55\n  tag_33\n  jump\t// in\ntag_55:\n    /* \"#utility.yul\":781:900   */\ntag_54:\n    /* \"#utility.yul\":939:940   */\n  0x00\n    /* \"#utility.yul\":964:1028   */\n  tag_56\n    /* \"#utility.yul\":1020:1027   */\n  dup5\n    /* \"#utility.yul\":1011:1017   */\n  dup3\n    /* \"#utility.yul\":1000:1009   */\n  dup6\n    /* \"#utility.yul\":996:1018   */\n  add\n    /* \"#utility.yul\":964:1028   */\n  tag_37\n  jump\t// in\ntag_56:\n    /* \"#utility.yul\":954:1028   */\n  swap2\n  pop\n    /* \"#utility.yul\":910:1038   */\n  pop\n    /* \"#utility.yul\":694:1045   */\n  swap3\n  swap2\n  pop\n  pop\n  jump\t// out\n    /* \"#utility.yul\":1051:1220   */\ntag_38:\n    /* \"#utility.yul\":1135:1146   */\n  0x00\n    /* \"#utility.yul\":1169:1175   */\n  dup3\n    /* \"#utility.yul\":1164:1167   */\n  dup3\n    /* \"#utility.yul\":1157:1176   */\n  mstore\n    /* \"#utility.yul\":1209:1213   */\n  0x20\n    /* \"#utility.yul\":1204:1207   */\n  dup3\n    /* \"#utility.yul\":1200:1214   */\n  add\n    /* \"#utility.yul\":1185:1214   */\n  swap1\n  pop\n    /* \"#utility.yul\":1051:1220   */\n  swap3\n  swap2\n  pop\n  pop\n  jump\t// out\n    /* \"#utility.yul\":1226:1400   */\ntag_39:\n    /* \"#utility.yul\":1366:1392   */\n  0x43616e6e6f7420736574206f776e657220746f207a65726f0000000000000000\n    /* \"#utility.yul\":1362:1363   */\n  0x00\n    /* \"#utility.yul\":1354:1360   */\n  dup3\n    /* \"#utility.yul\":1350:1364   */\n  add\n    /* \"#utility.yul\":1343:1393   */\n  mstore\n    /* \"#utility.yul\":1226:1400   */\n  pop\n  jump\t// out\n    /* \"#utility.yul\":1406:1772   */\ntag_40:\n    /* \"#utility.yul\":1548:1551   */\n  0x00\n    /* \"#utility.yul\":1569:1636   */\n  tag_60\n    /* \"#utility.yul\":1633:1635   */\n  0x18\n    /* \"#utility.yul\":1628:1631   */\n  dup4\n    /* \"#utility.yul\":1569:1636   */\n  tag_38\n  jump\t// in\ntag_60:\n    /* \"#utility.yul\":1562:1636   */\n  swap2\n  pop\n    /* \"#utility.yul\":1645:1738   */\n  tag_61\n    /* \"#utility.yul\":1734:1737   */\n  dup3\n    /* \"#utility.yul\":1645:1738   */\n  tag_39\n  jump\t// in\ntag_61:\n    /* \"#utility.yul\":1763:1765   */\n  0x20\n    /* \"#utility.yul\":1758:1761   */\n  dup3\n    /* \"#utility.yul\":1754:1766   */\n  add\n    /* \"#utility.yul\":1747:1766   */\n  swap1\n  pop\n    /* \"#utility.yul\":1406:1772   */\n  swap2\n  swap1\n  pop\n  jump\t// out\n    /* \"#utility.yul\":1778:2197   */\ntag_11:\n    /* \"#utility.yul\":1944:1948   */\n  0x00\n    /* \"#utility.yul\":1982:1984   */\n  0x20\n    /* \"#utility.yul\":1971:1980   */\n  dup3\n    /* \"#utility.yul\":1967:1985   */\n  add\n    /* \"#utility.yul\":1959:1985   */\n  swap1\n  pop\n    /* \"#utility.yul\":2031:2040   */\n  dup2\n    /* \"#utility.yul\":2025:2029   */\n  dup2\n    /* \"#utility.yul\":2021:2041   */\n  sub\n    /* \"#utility.yul\":2017:2018   */\n  0x00\n    /* \"#utility.yul\":2006:2015   */\n  dup4\n    /* \"#utility.yul\":2002:2019   */\n  add\n    /* \"#utility.yul\":1995:2042   */\n  mstore\n    /* \"#utility.yul\":2059:2190   */\n  tag_63\n    /* \"#utility.yul\":2185:2189   */\n  dup2\n    /* \"#utility.yul\":2059:2190   */\n  tag_40\n  jump\t// in\ntag_63:\n    /* \"#utility.yul\":2051:2190   */\n  swap1\n  pop\n    /* \"#utility.yul\":1778:2197   */\n  swap2\n  swap1\n  pop\n  jump\t// out\n    /* \"#utility.yul\":2203:2376   */\ntag_41:\n    /* \"#utility.yul\":2343:2368   */\n  0x43616e6e6f74207472616e7366657220746f2073656c66000000000000000000\n    /* \"#utility.yul\":2339:2340   */\n  0x00\n    /* \"#utility.yul\":2331:2337   */\n  dup3\n    /* \"#utility.yul\":2327:2341   */\n  add\n    /* \"#utility.yul\":2320:2369   */\n  mstore\n    /* \"#utility.yul\":2203:2376   */\n  pop\n  jump\t// out\n    /* \"#utility.yul\":2382:2748   */\ntag_42:\n    /* \"#utility.yul\":2524:2527   */\n  0x00\n    /* \"#utility.yul\":2545:2612   */\n  tag_66\n    /* \"#utility.yul\":2609:2611   */\n  0x17\n    /* \"#utility.yul\":2604:2607   */\n  dup4\n    /* \"#utility.yul\":2545:2612   */\n  tag_38\n  jump\t// in\ntag_66:\n    /* \"#utility.yul\":2538:2612   */\n  swap2\n  pop\n    /* \"#utility.yul\":2621:2714   */\n  tag_67\n    /* \"#utility.yul\":2710:2713   */\n  dup3\n    /* \"#utility.yul\":2621:2714   */\n  tag_41\n  jump\t// in\ntag_67:\n    /* \"#utility.yul\":2739:2741   */\n  0x20\n    /* \"#utility.yul\":2734:2737   */\n  dup3\n    /* \"#utility.yul\":2730:2742   */\n  add\n    /* \"#utility.yul\":2723:2742   */\n  swap1\n  pop\n    /* \"#utility.yul\":2382:2748   */\n  swap2\n  swap1\n  pop\n  jump\t// out\n    /* \"#utility.yul\":2754:3173   */\ntag_31:\n    /* \"#utility.yul\":2920:2924   */\n  0x00\n    /* \"#utility.yul\":2958:2960   */\n  0x20\n    /* \"#utility.yul\":2947:2956   */\n  dup3\n    /* \"#utility.yul\":2943:2961   */\n  add\n    /* \"#utility.yul\":2935:2961   */\n  swap1\n  pop\n    /* \"#utility.yul\":3007:3016   */\n  dup2\n    /* \"#utility.yul\":3001:3005   */\n  dup2\n    /* \"#utility.yul\":2997:3017   */\n  sub\n    /* \"#utility.yul\":2993:2994   */\n  0x00\n    /* \"#utility.yul\":2982:2991   */\n  dup4\n    /* \"#utility.yul\":2978:2995   */\n  add\n    /* \"#utility.yul\":2971:3018   */\n  mstore\n    /* \"#utility.yul\":3035:3166   */\n  tag_69\n    /* \"#utility.yul\":3161:3165   */\n  dup2\n    /* \"#utility.yul\":3035:3166   */\n  tag_42\n  jump\t// in\ntag_69:\n    /* \"#utility.yul\":3027:3166   */\n  swap1\n  pop\n    /* \"#utility.yul\":2754:3173   */\n  swap2\n  swap1\n  pop\n  jump\t// out\n    /* \"ZKGameClient.sol\":796:9118  contract ZKGameClient is OwnerIsCreator {... */\ntag_27:\n  dataSize(sub_0)\n  dup1\n  dataOffset(sub_0)\n  0x00\n  codecopy\n  0x00\n  return\nstop\n\nsub_0: assembly {\n        /* \"ZKGameClient.sol\":796:9118  contract ZKGameClient is OwnerIsCreator {... */\n      mstore(0x40, 0x80)\n      callvalue\n      dup1\n      iszero\n      tag_1\n      jumpi\n      0x00\n      dup1\n      revert\n    tag_1:\n      pop\n      jumpi(tag_2, lt(calldatasize, 0x04))\n      shr(0xe0, calldataload(0x00))\n      dup1\n      0xb0e23518\n      gt\n      tag_20\n      jumpi\n      dup1\n      0xd252682d\n      gt\n      tag_21\n      jumpi\n      dup1\n      0xd252682d\n      eq\n      tag_15\n      jumpi\n      dup1\n      0xdf758706\n      eq\n      tag_16\n      jumpi\n      dup1\n      0xe8af8c0d\n      eq\n      tag_17\n      jumpi\n      dup1\n      0xea029701\n      eq\n      tag_18\n      jumpi\n      dup1\n      0xf2fde38b\n      eq\n      tag_19\n      jumpi\n      jump(tag_2)\n    tag_21:\n      dup1\n      0xb0e23518\n      eq\n      tag_11\n      jumpi\n      dup1\n      0xb76ee4a8\n      eq\n      tag_12\n      jumpi\n      dup1\n      0xbfd772fc\n      eq\n      tag_13\n      jumpi\n      dup1\n      0xcdc7bc87\n      eq\n      tag_14\n      jumpi\n      jump(tag_2)\n    tag_20:\n      dup1\n      0x4e9c1118\n      gt\n      tag_22\n      jumpi\n      dup1\n      0x4e9c1118\n      eq\n      tag_7\n      jumpi\n      dup1\n      0x79ba5097\n      eq\n      tag_8\n      jumpi\n      dup1\n      0x85572ffb\n      eq\n      tag_9\n      jumpi\n      dup1\n      0x8da5cb5b\n      eq\n      tag_10\n      jumpi\n      jump(tag_2)\n    tag_22:\n      dup1\n      0x01ffc9a7\n      eq\n      tag_3\n      jumpi\n      dup1\n      0x11b7aad5\n      eq\n      tag_4\n      jumpi\n      dup1\n      0x2bf34fbd\n      eq\n      tag_5\n      jumpi\n      dup1\n      0x49c9d17a\n      eq\n      tag_6\n      jumpi\n    tag_2:\n      0x00\n      dup1\n      revert\n        /* \"ZKGameClient.sol\":3743:3941  function supportsInterface(bytes4 interfaceId) public pure returns (bool) {... */\n    tag_3:\n      tag_23\n      0x04\n      dup1\n      calldatasize\n      sub\n      dup2\n      add\n      swap1\n      tag_24\n      swap2\n      swap1\n      tag_25\n      jump\t// in\n    tag_24:\n      tag_26\n      jump\t// in\n    tag_23:\n      mload(0x40)\n      tag_27\n      swap2\n      swap1\n      tag_28\n      jump\t// in\n    tag_27:\n      mload(0x40)\n      dup1\n      swap2\n      sub\n      swap1\n      return\n        /* \"ZKGameClient.sol\":2203:2244  uint public currentChainSelectorIndex = 0 */\n    tag_4:\n      tag_29\n      tag_30\n      jump\t// in\n    tag_29:\n      mload(0x40)\n      tag_31\n      swap2\n      swap1\n      tag_32\n      jump\t// in\n    tag_31:\n      mload(0x40)\n      dup1\n      swap2\n      sub\n      swap1\n      return\n        /* \"ZKGameClient.sol\":2359:2389  uint64[] public chainSelectors */\n    tag_5:\n      tag_33\n      0x04\n      dup1\n      calldatasize\n      sub\n      dup2\n      add\n      swap1\n      tag_34\n      swap2\n      swap1\n      tag_35\n      jump\t// in\n    tag_34:\n      tag_36\n      jump\t// in\n    tag_33:\n      mload(0x40)\n      tag_37\n      swap2\n      swap1\n      tag_38\n      jump\t// in\n    tag_37:\n      mload(0x40)\n      dup1\n      swap2\n      sub\n      swap1\n      return\n        /* \"ZKGameClient.sol\":3964:4239  function updateReceivers(address[] memory receiverList) external onlyOwner {... */\n    tag_6:\n      tag_39\n      0x04\n      dup1\n      calldatasize\n      sub\n      dup2\n      add\n      swap1\n      tag_40\n      swap2\n      swap1\n      tag_41\n      jump\t// in\n    tag_40:\n      tag_42\n      jump\t// in\n    tag_39:\n      stop\n        /* \"ZKGameClient.sol\":2251:2275  address[] public routers */\n    tag_7:\n      tag_43\n      0x04\n      dup1\n      calldatasize\n      sub\n      dup2\n      add\n      swap1\n      tag_44\n      swap2\n      swap1\n      tag_35\n      jump\t// in\n    tag_44:\n      tag_45\n      jump\t// in\n    tag_43:\n      mload(0x40)\n      tag_46\n      swap2\n      swap1\n      tag_47\n      jump\t// in\n    tag_46:\n      mload(0x40)\n      dup1\n      swap2\n      sub\n      swap1\n      return\n        /* \"@chainlink/contracts-ccip@1.4.0/src/v0.8/shared/access/ConfirmedOwnerWithProposal.sol\":1022:1334  function acceptOwnership() external override {... */\n    tag_8:\n      tag_48\n      tag_49\n      jump\t// in\n    tag_48:\n      stop\n        /* \"ZKGameClient.sol\":5246:5365  function ccipReceive(Client.Any2EVMMessage calldata message) external onlyRouter {... */\n    tag_9:\n      tag_50\n      0x04\n      dup1\n      calldatasize\n      sub\n      dup2\n      add\n      swap1\n      tag_51\n      swap2\n      swap1\n      tag_52\n      jump\t// in\n    tag_51:\n      tag_53\n      jump\t// in\n    tag_50:\n      stop\n        /* \"@chainlink/contracts-ccip@1.4.0/src/v0.8/shared/access/ConfirmedOwnerWithProposal.sol\":1374:1455  function owner() public view override returns (address) {... */\n    tag_10:\n      tag_54\n      tag_55\n      jump\t// in\n    tag_54:\n      mload(0x40)\n      tag_56\n      swap2\n      swap1\n      tag_47\n      jump\t// in\n    tag_56:\n      mload(0x40)\n      dup1\n      swap2\n      sub\n      swap1\n      return\n        /* \"ZKGameClient.sol\":4246:5089  function submitData(uint time) external {... */\n    tag_11:\n      tag_57\n      0x04\n      dup1\n      calldatasize\n      sub\n      dup2\n      add\n      swap1\n      tag_58\n      swap2\n      swap1\n      tag_35\n      jump\t// in\n    tag_58:\n      tag_59\n      jump\t// in\n    tag_57:\n      stop\n        /* \"ZKGameClient.sol\":2522:2550  uint[10] public topGradeList */\n    tag_12:\n      tag_60\n      0x04\n      dup1\n      calldatasize\n      sub\n      dup2\n      add\n      swap1\n      tag_61\n      swap2\n      swap1\n      tag_35\n      jump\t// in\n    tag_61:\n      tag_62\n      jump\t// in\n    tag_60:\n      mload(0x40)\n      tag_63\n      swap2\n      swap1\n      tag_32\n      jump\t// in\n    tag_63:\n      mload(0x40)\n      dup1\n      swap2\n      sub\n      swap1\n      return\n        /* \"ZKGameClient.sol\":2418:2445  address[3] public receivers */\n    tag_13:\n      tag_64\n      0x04\n      dup1\n      calldatasize\n      sub\n      dup2\n      add\n      swap1\n      tag_65\n      swap2\n      swap1\n      tag_35\n      jump\t// in\n    tag_65:\n      tag_66\n      jump\t// in\n    tag_64:\n      mload(0x40)\n      tag_67\n      swap2\n      swap1\n      tag_47\n      jump\t// in\n    tag_67:\n      mload(0x40)\n      dup1\n      swap2\n      sub\n      swap1\n      return\n        /* \"ZKGameClient.sol\":2478:2515  MessageItem public currentMessageItem */\n    tag_14:\n      tag_68\n      tag_69\n      jump\t// in\n    tag_68:\n      mload(0x40)\n      tag_70\n      swap4\n      swap3\n      swap2\n      swap1\n      tag_71\n      jump\t// in\n    tag_70:\n      mload(0x40)\n      dup1\n      swap2\n      sub\n      swap1\n      return\n        /* \"ZKGameClient.sol\":2588:2620  address[10] public topPlayerList */\n    tag_15:\n      tag_72\n      0x04\n      dup1\n      calldatasize\n      sub\n      dup2\n      add\n      swap1\n      tag_73\n      swap2\n      swap1\n      tag_35\n      jump\t// in\n    tag_73:\n      tag_74\n      jump\t// in\n    tag_72:\n      mload(0x40)\n      tag_75\n      swap2\n      swap1\n      tag_47\n      jump\t// in\n    tag_75:\n      mload(0x40)\n      dup1\n      swap2\n      sub\n      swap1\n      return\n        /* \"ZKGameClient.sol\":8946:9116  function getTopGradeList() public view returns (uint[10] memory, uint[10] memory, address[10] memory) {... */\n    tag_16:\n      tag_76\n      tag_77\n      jump\t// in\n    tag_76:\n      mload(0x40)\n      tag_78\n      swap4\n      swap3\n      swap2\n      swap1\n      tag_79\n      jump\t// in\n    tag_78:\n      mload(0x40)\n      dup1\n      swap2\n      sub\n      swap1\n      return\n        /* \"ZKGameClient.sol\":2657:2686  uint[10] public topChainIndex */\n    tag_17:\n      tag_80\n      0x04\n      dup1\n      calldatasize\n      sub\n      dup2\n      add\n      swap1\n      tag_81\n      swap2\n      swap1\n      tag_35\n      jump\t// in\n    tag_81:\n      tag_82\n      jump\t// in\n    tag_80:\n      mload(0x40)\n      tag_83\n      swap2\n      swap1\n      tag_32\n      jump\t// in\n    tag_83:\n      mload(0x40)\n      dup1\n      swap2\n      sub\n      swap1\n      return\n        /* \"ZKGameClient.sol\":2304:2331  address[] public linkTokens */\n    tag_18:\n      tag_84\n      0x04\n      dup1\n      calldatasize\n      sub\n      dup2\n      add\n      swap1\n      tag_85\n      swap2\n      swap1\n      tag_35\n      jump\t// in\n    tag_85:\n      tag_86\n      jump\t// in\n    tag_84:\n      mload(0x40)\n      tag_87\n      swap2\n      swap1\n      tag_47\n      jump\t// in\n    tag_87:\n      mload(0x40)\n      dup1\n      swap2\n      sub\n      swap1\n      return\n        /* \"@chainlink/contracts-ccip@1.4.0/src/v0.8/shared/access/ConfirmedOwnerWithProposal.sol\":843:941  function transferOwnership(address to) public override onlyOwner {... */\n    tag_19:\n      tag_88\n      0x04\n      dup1\n      calldatasize\n      sub\n      dup2\n      add\n      swap1\n      tag_89\n      swap2\n      swap1\n      tag_90\n      jump\t// in\n    tag_89:\n      tag_91\n      jump\t// in\n    tag_88:\n      stop\n        /* \"ZKGameClient.sol\":3743:3941  function supportsInterface(bytes4 interfaceId) public pure returns (bool) {... */\n    tag_26:\n        /* \"ZKGameClient.sol\":3811:3815  bool */\n      0x00\n        /* \"ZKGameClient.sol\":3849:3890  type(IAny2EVMMessageReceiver).interfaceId */\n      0x85572ffb00000000000000000000000000000000000000000000000000000000\n        /* \"ZKGameClient.sol\":3834:3890  interfaceId == type(IAny2EVMMessageReceiver).interfaceId */\n      not(0xffffffffffffffffffffffffffffffffffffffffffffffffffffffff)\n      and\n        /* \"ZKGameClient.sol\":3834:3845  interfaceId */\n      dup3\n        /* \"ZKGameClient.sol\":3834:3890  interfaceId == type(IAny2EVMMessageReceiver).interfaceId */\n      not(0xffffffffffffffffffffffffffffffffffffffffffffffffffffffff)\n      and\n      eq\n        /* \"ZKGameClient.sol\":3834:3934  interfaceId == type(IAny2EVMMessageReceiver).interfaceId || interfaceId == type(IERC165).interfaceId */\n      dup1\n      tag_93\n      jumpi\n      pop\n        /* \"ZKGameClient.sol\":3909:3934  type(IERC165).interfaceId */\n      0x01ffc9a700000000000000000000000000000000000000000000000000000000\n        /* \"ZKGameClient.sol\":3894:3934  interfaceId == type(IERC165).interfaceId */\n      not(0xffffffffffffffffffffffffffffffffffffffffffffffffffffffff)\n      and\n        /* \"ZKGameClient.sol\":3894:3905  interfaceId */\n      dup3\n        /* \"ZKGameClient.sol\":3894:3934  interfaceId == type(IERC165).interfaceId */\n      not(0xffffffffffffffffffffffffffffffffffffffffffffffffffffffff)\n      and\n      eq\n        /* \"ZKGameClient.sol\":3834:3934  interfaceId == type(IAny2EVMMessageReceiver).interfaceId || interfaceId == type(IERC165).interfaceId */\n    tag_93:\n        /* \"ZKGameClient.sol\":3827:3934  return interfaceId == type(IAny2EVMMessageReceiver).interfaceId || interfaceId == type(IERC165).interfaceId */\n      swap1\n      pop\n        /* \"ZKGameClient.sol\":3743:3941  function supportsInterface(bytes4 interfaceId) public pure returns (bool) {... */\n      swap2\n      swap1\n      pop\n      jump\t// out\n        /* \"ZKGameClient.sol\":2203:2244  uint public currentChainSelectorIndex = 0 */\n    tag_30:\n      sload(0x02)\n      dup2\n      jump\t// out\n        /* \"ZKGameClient.sol\":2359:2389  uint64[] public chainSelectors */\n    tag_36:\n      0x05\n      dup2\n      dup2\n      sload\n      dup2\n      lt\n      tag_94\n      jumpi\n      0x00\n      dup1\n      revert\n    tag_94:\n      swap1\n      0x00\n      mstore\n      keccak256(0x00, 0x20)\n      swap1\n      0x04\n      swap2\n      dup3\n      dup3\n      div\n      add\n      swap2\n      swap1\n      mod\n      0x08\n      mul\n      swap2\n      pop\n      sload\n      swap1\n      0x0100\n      exp\n      swap1\n      div\n      0xffffffffffffffff\n      and\n      dup2\n      jump\t// out\n        /* \"ZKGameClient.sol\":3964:4239  function updateReceivers(address[] memory receiverList) external onlyOwner {... */\n    tag_42:\n        /* \"@chainlink/contracts-ccip@1.4.0/src/v0.8/shared/access/ConfirmedOwnerWithProposal.sol\":2059:2079  _validateOwnership() */\n      tag_97\n        /* \"@chainlink/contracts-ccip@1.4.0/src/v0.8/shared/access/ConfirmedOwnerWithProposal.sol\":2059:2077  _validateOwnership */\n      tag_98\n        /* \"@chainlink/contracts-ccip@1.4.0/src/v0.8/shared/access/ConfirmedOwnerWithProposal.sol\":2059:2079  _validateOwnership() */\n      jump\t// in\n    tag_97:\n        /* \"ZKGameClient.sol\":4080:4096  receivers.length */\n      0x03\n        /* \"ZKGameClient.sol\":4057:4069  receiverList */\n      dup2\n        /* \"ZKGameClient.sol\":4057:4076  receiverList.length */\n      mload\n        /* \"ZKGameClient.sol\":4057:4096  receiverList.length == receivers.length */\n      eq\n        /* \"ZKGameClient.sol\":4049:4126  require(receiverList.length == receivers.length, \"receiverList is not valid\") */\n      tag_100\n      jumpi\n      mload(0x40)\n      0x08c379a000000000000000000000000000000000000000000000000000000000\n      dup2\n      mstore\n      0x04\n      add\n      tag_101\n      swap1\n      tag_102\n      jump\t// in\n    tag_101:\n      mload(0x40)\n      dup1\n      swap2\n      sub\n      swap1\n      revert\n    tag_100:\n        /* \"ZKGameClient.sol\":4140:4146  uint i */\n      0x00\n        /* \"ZKGameClient.sol\":4136:4233  for(uint i=0; i<receiverList.length; i++) {... */\n    tag_103:\n        /* \"ZKGameClient.sol\":4152:4164  receiverList */\n      dup2\n        /* \"ZKGameClient.sol\":4152:4171  receiverList.length */\n      mload\n        /* \"ZKGameClient.sol\":4150:4151  i */\n      dup2\n        /* \"ZKGameClient.sol\":4150:4171  i<receiverList.length */\n      lt\n        /* \"ZKGameClient.sol\":4136:4233  for(uint i=0; i<receiverList.length; i++) {... */\n      iszero\n      tag_104\n      jumpi\n        /* \"ZKGameClient.sol\":4207:4219  receiverList */\n      dup2\n        /* \"ZKGameClient.sol\":4220:4221  i */\n      dup2\n        /* \"ZKGameClient.sol\":4207:4222  receiverList[i] */\n      dup2\n      mload\n      dup2\n      lt\n      tag_106\n      jumpi\n      tag_107\n      tag_108\n      jump\t// in\n    tag_107:\n    tag_106:\n      0x20\n      mul\n      0x20\n      add\n      add\n      mload\n        /* \"ZKGameClient.sol\":4192:4201  receivers */\n      0x06\n        /* \"ZKGameClient.sol\":4202:4203  i */\n      dup3\n        /* \"ZKGameClient.sol\":4192:4204  receivers[i] */\n      0x03\n      dup2\n      lt\n      tag_109\n      jumpi\n      tag_110\n      tag_108\n      jump\t// in\n    tag_110:\n    tag_109:\n      add\n      0x00\n        /* \"ZKGameClient.sol\":4192:4222  receivers[i] = receiverList[i] */\n      0x0100\n      exp\n      dup2\n      sload\n      dup2\n      0xffffffffffffffffffffffffffffffffffffffff\n      mul\n      not\n      and\n      swap1\n      dup4\n      0xffffffffffffffffffffffffffffffffffffffff\n      and\n      mul\n      or\n      swap1\n      sstore\n      pop\n        /* \"ZKGameClient.sol\":4173:4176  i++ */\n      dup1\n      dup1\n      tag_112\n      swap1\n      tag_113\n      jump\t// in\n    tag_112:\n      swap2\n      pop\n      pop\n        /* \"ZKGameClient.sol\":4136:4233  for(uint i=0; i<receiverList.length; i++) {... */\n      jump(tag_103)\n    tag_104:\n      pop\n        /* \"ZKGameClient.sol\":3964:4239  function updateReceivers(address[] memory receiverList) external onlyOwner {... */\n      pop\n      jump\t// out\n        /* \"ZKGameClient.sol\":2251:2275  address[] public routers */\n    tag_45:\n      0x03\n      dup2\n      dup2\n      sload\n      dup2\n      lt\n      tag_114\n      jumpi\n      0x00\n      dup1\n      revert\n    tag_114:\n      swap1\n      0x00\n      mstore\n      keccak256(0x00, 0x20)\n      add\n      0x00\n      swap2\n      pop\n      sload\n      swap1\n      0x0100\n      exp\n      swap1\n      div\n      0xffffffffffffffffffffffffffffffffffffffff\n      and\n      dup2\n      jump\t// out\n        /* \"@chainlink/contracts-ccip@1.4.0/src/v0.8/shared/access/ConfirmedOwnerWithProposal.sol\":1022:1334  function acceptOwnership() external override {... */\n    tag_49:\n        /* \"@chainlink/contracts-ccip@1.4.0/src/v0.8/shared/access/ConfirmedOwnerWithProposal.sol\":1142:1156  s_pendingOwner */\n      0x01\n      0x00\n      swap1\n      sload\n      swap1\n      0x0100\n      exp\n      swap1\n      div\n      0xffffffffffffffffffffffffffffffffffffffff\n      and\n        /* \"@chainlink/contracts-ccip@1.4.0/src/v0.8/shared/access/ConfirmedOwnerWithProposal.sol\":1128:1156  msg.sender == s_pendingOwner */\n      0xffffffffffffffffffffffffffffffffffffffff\n      and\n        /* \"@chainlink/contracts-ccip@1.4.0/src/v0.8/shared/access/ConfirmedOwnerWithProposal.sol\":1128:1138  msg.sender */\n      caller\n        /* \"@chainlink/contracts-ccip@1.4.0/src/v0.8/shared/access/ConfirmedOwnerWithProposal.sol\":1128:1156  msg.sender == s_pendingOwner */\n      0xffffffffffffffffffffffffffffffffffffffff\n      and\n      eq\n        /* \"@chainlink/contracts-ccip@1.4.0/src/v0.8/shared/access/ConfirmedOwnerWithProposal.sol\":1120:1183  require(msg.sender == s_pendingOwner, \"Must be proposed owner\") */\n      tag_117\n      jumpi\n      mload(0x40)\n      0x08c379a000000000000000000000000000000000000000000000000000000000\n      dup2\n      mstore\n      0x04\n      add\n      tag_118\n      swap1\n      tag_119\n      jump\t// in\n    tag_118:\n      mload(0x40)\n      dup1\n      swap2\n      sub\n      swap1\n      revert\n    tag_117:\n        /* \"@chainlink/contracts-ccip@1.4.0/src/v0.8/shared/access/ConfirmedOwnerWithProposal.sol\":1190:1206  address oldOwner */\n      0x00\n        /* \"@chainlink/contracts-ccip@1.4.0/src/v0.8/shared/access/ConfirmedOwnerWithProposal.sol\":1209:1216  s_owner */\n      dup1\n      0x00\n      swap1\n      sload\n      swap1\n      0x0100\n      exp\n      swap1\n      div\n      0xffffffffffffffffffffffffffffffffffffffff\n      and\n        /* \"@chainlink/contracts-ccip@1.4.0/src/v0.8/shared/access/ConfirmedOwnerWithProposal.sol\":1190:1216  address oldOwner = s_owner */\n      swap1\n      pop\n        /* \"@chainlink/contracts-ccip@1.4.0/src/v0.8/shared/access/ConfirmedOwnerWithProposal.sol\":1232:1242  msg.sender */\n      caller\n        /* \"@chainlink/contracts-ccip@1.4.0/src/v0.8/shared/access/ConfirmedOwnerWithProposal.sol\":1222:1229  s_owner */\n      0x00\n      dup1\n        /* \"@chainlink/contracts-ccip@1.4.0/src/v0.8/shared/access/ConfirmedOwnerWithProposal.sol\":1222:1242  s_owner = msg.sender */\n      0x0100\n      exp\n      dup2\n      sload\n      dup2\n      0xffffffffffffffffffffffffffffffffffffffff\n      mul\n      not\n      and\n      swap1\n      dup4\n      0xffffffffffffffffffffffffffffffffffffffff\n      and\n      mul\n      or\n      swap1\n      sstore\n      pop\n        /* \"@chainlink/contracts-ccip@1.4.0/src/v0.8/shared/access/ConfirmedOwnerWithProposal.sol\":1273:1274  0 */\n      0x00\n        /* \"@chainlink/contracts-ccip@1.4.0/src/v0.8/shared/access/ConfirmedOwnerWithProposal.sol\":1248:1262  s_pendingOwner */\n      0x01\n      0x00\n        /* \"@chainlink/contracts-ccip@1.4.0/src/v0.8/shared/access/ConfirmedOwnerWithProposal.sol\":1248:1275  s_pendingOwner = address(0) */\n      0x0100\n      exp\n      dup2\n      sload\n      dup2\n      0xffffffffffffffffffffffffffffffffffffffff\n      mul\n      not\n      and\n      swap1\n      dup4\n      0xffffffffffffffffffffffffffffffffffffffff\n      and\n      mul\n      or\n      swap1\n      sstore\n      pop\n        /* \"@chainlink/contracts-ccip@1.4.0/src/v0.8/shared/access/ConfirmedOwnerWithProposal.sol\":1318:1328  msg.sender */\n      caller\n        /* \"@chainlink/contracts-ccip@1.4.0/src/v0.8/shared/access/ConfirmedOwnerWithProposal.sol\":1287:1329  OwnershipTransferred(oldOwner, msg.sender) */\n      0xffffffffffffffffffffffffffffffffffffffff\n      and\n        /* \"@chainlink/contracts-ccip@1.4.0/src/v0.8/shared/access/ConfirmedOwnerWithProposal.sol\":1308:1316  oldOwner */\n      dup2\n        /* \"@chainlink/contracts-ccip@1.4.0/src/v0.8/shared/access/ConfirmedOwnerWithProposal.sol\":1287:1329  OwnershipTransferred(oldOwner, msg.sender) */\n      0xffffffffffffffffffffffffffffffffffffffff\n      and\n      0x8be0079c531659141344cd1fd0a4f28419497f9722a3daafe3b4186f6b6457e0\n      mload(0x40)\n      mload(0x40)\n      dup1\n      swap2\n      sub\n      swap1\n      log3\n        /* \"@chainlink/contracts-ccip@1.4.0/src/v0.8/shared/access/ConfirmedOwnerWithProposal.sol\":1067:1334  {... */\n      pop\n        /* \"@chainlink/contracts-ccip@1.4.0/src/v0.8/shared/access/ConfirmedOwnerWithProposal.sol\":1022:1334  function acceptOwnership() external override {... */\n      jump\t// out\n        /* \"ZKGameClient.sol\":5246:5365  function ccipReceive(Client.Any2EVMMessage calldata message) external onlyRouter {... */\n    tag_53:\n        /* \"ZKGameClient.sol\":5153:5160  routers */\n      0x03\n        /* \"ZKGameClient.sol\":5161:5186  currentChainSelectorIndex */\n      sload(0x02)\n        /* \"ZKGameClient.sol\":5153:5187  routers[currentChainSelectorIndex] */\n      dup2\n      sload\n      dup2\n      lt\n      tag_121\n      jumpi\n      tag_122\n      tag_108\n      jump\t// in\n    tag_122:\n    tag_121:\n      swap1\n      0x00\n      mstore\n      keccak256(0x00, 0x20)\n      add\n      0x00\n      swap1\n      sload\n      swap1\n      0x0100\n      exp\n      swap1\n      div\n      0xffffffffffffffffffffffffffffffffffffffff\n      and\n        /* \"ZKGameClient.sol\":5131:5188  msg.sender != address(routers[currentChainSelectorIndex]) */\n      0xffffffffffffffffffffffffffffffffffffffff\n      and\n        /* \"ZKGameClient.sol\":5131:5141  msg.sender */\n      caller\n        /* \"ZKGameClient.sol\":5131:5188  msg.sender != address(routers[currentChainSelectorIndex]) */\n      0xffffffffffffffffffffffffffffffffffffffff\n      and\n      eq\n        /* \"ZKGameClient.sol\":5127:5222  if (msg.sender != address(routers[currentChainSelectorIndex])) revert InvalidRouter(msg.sender) */\n      tag_124\n      jumpi\n        /* \"ZKGameClient.sol\":5211:5221  msg.sender */\n      caller\n        /* \"ZKGameClient.sol\":5197:5222  InvalidRouter(msg.sender) */\n      mload(0x40)\n      0xd7f7333400000000000000000000000000000000000000000000000000000000\n      dup2\n      mstore\n      0x04\n      add\n      tag_125\n      swap2\n      swap1\n      tag_47\n      jump\t// in\n    tag_125:\n      mload(0x40)\n      dup1\n      swap2\n      sub\n      swap1\n      revert\n        /* \"ZKGameClient.sol\":5127:5222  if (msg.sender != address(routers[currentChainSelectorIndex])) revert InvalidRouter(msg.sender) */\n    tag_124:\n        /* \"ZKGameClient.sol\":5337:5358  _ccipReceive(message) */\n      tag_127\n        /* \"ZKGameClient.sol\":5350:5357  message */\n      dup2\n        /* \"ZKGameClient.sol\":5337:5358  _ccipReceive(message) */\n      tag_128\n      swap1\n      tag_129\n      jump\t// in\n    tag_128:\n        /* \"ZKGameClient.sol\":5337:5349  _ccipReceive */\n      tag_130\n        /* \"ZKGameClient.sol\":5337:5358  _ccipReceive(message) */\n      jump\t// in\n    tag_127:\n        /* \"ZKGameClient.sol\":5246:5365  function ccipReceive(Client.Any2EVMMessage calldata message) external onlyRouter {... */\n      pop\n      jump\t// out\n        /* \"@chainlink/contracts-ccip@1.4.0/src/v0.8/shared/access/ConfirmedOwnerWithProposal.sol\":1374:1455  function owner() public view override returns (address) {... */\n    tag_55:\n        /* \"@chainlink/contracts-ccip@1.4.0/src/v0.8/shared/access/ConfirmedOwnerWithProposal.sol\":1421:1428  address */\n      0x00\n        /* \"@chainlink/contracts-ccip@1.4.0/src/v0.8/shared/access/ConfirmedOwnerWithProposal.sol\":1443:1450  s_owner */\n      dup1\n      0x00\n      swap1\n      sload\n      swap1\n      0x0100\n      exp\n      swap1\n      div\n      0xffffffffffffffffffffffffffffffffffffffff\n      and\n        /* \"@chainlink/contracts-ccip@1.4.0/src/v0.8/shared/access/ConfirmedOwnerWithProposal.sol\":1436:1450  return s_owner */\n      swap1\n      pop\n        /* \"@chainlink/contracts-ccip@1.4.0/src/v0.8/shared/access/ConfirmedOwnerWithProposal.sol\":1374:1455  function owner() public view override returns (address) {... */\n      swap1\n      jump\t// out\n        /* \"ZKGameClient.sol\":4246:5089  function submitData(uint time) external {... */\n    tag_59:\n        /* \"ZKGameClient.sol\":4422:4496  pushDataToTopList(MessageItem(msg.sender,time, currentChainSelectorIndex)) */\n      tag_133\n        /* \"ZKGameClient.sol\":4440:4495  MessageItem(msg.sender,time, currentChainSelectorIndex) */\n      mload(0x40)\n      dup1\n      0x60\n      add\n      0x40\n      mstore\n      dup1\n        /* \"ZKGameClient.sol\":4452:4462  msg.sender */\n      caller\n        /* \"ZKGameClient.sol\":4440:4495  MessageItem(msg.sender,time, currentChainSelectorIndex) */\n      0xffffffffffffffffffffffffffffffffffffffff\n      and\n      dup2\n      mstore\n      0x20\n      add\n        /* \"ZKGameClient.sol\":4463:4467  time */\n      dup4\n        /* \"ZKGameClient.sol\":4440:4495  MessageItem(msg.sender,time, currentChainSelectorIndex) */\n      dup2\n      mstore\n      0x20\n      add\n        /* \"ZKGameClient.sol\":4469:4494  currentChainSelectorIndex */\n      sload(0x02)\n        /* \"ZKGameClient.sol\":4440:4495  MessageItem(msg.sender,time, currentChainSelectorIndex) */\n      dup2\n      mstore\n      pop\n        /* \"ZKGameClient.sol\":4422:4439  pushDataToTopList */\n      tag_134\n        /* \"ZKGameClient.sol\":4422:4496  pushDataToTopList(MessageItem(msg.sender,time, currentChainSelectorIndex)) */\n      jump\t// in\n    tag_133:\n        /* \"ZKGameClient.sol\":4550:4556  uint i */\n      0x00\n        /* \"ZKGameClient.sol\":4546:5083  for(uint i=0; i<chainSelectors.length; i++) {... */\n    tag_135:\n        /* \"ZKGameClient.sol\":4562:4576  chainSelectors */\n      0x05\n        /* \"ZKGameClient.sol\":4562:4583  chainSelectors.length */\n      dup1\n      sload\n      swap1\n      pop\n        /* \"ZKGameClient.sol\":4560:4561  i */\n      dup2\n        /* \"ZKGameClient.sol\":4560:4583  i<chainSelectors.length */\n      lt\n        /* \"ZKGameClient.sol\":4546:5083  for(uint i=0; i<chainSelectors.length; i++) {... */\n      iszero\n      tag_136\n      jumpi\n        /* \"ZKGameClient.sol\":4604:4624  uint64 chainSelector */\n      0x00\n        /* \"ZKGameClient.sol\":4627:4641  chainSelectors */\n      0x05\n        /* \"ZKGameClient.sol\":4642:4643  i */\n      dup3\n        /* \"ZKGameClient.sol\":4627:4644  chainSelectors[i] */\n      dup2\n      sload\n      dup2\n      lt\n      tag_138\n      jumpi\n      tag_139\n      tag_108\n      jump\t// in\n    tag_139:\n    tag_138:\n      swap1\n      0x00\n      mstore\n      keccak256(0x00, 0x20)\n      swap1\n      0x04\n      swap2\n      dup3\n      dup3\n      div\n      add\n      swap2\n      swap1\n      mod\n      0x08\n      mul\n      swap1\n      sload\n      swap1\n      0x0100\n      exp\n      swap1\n      div\n      0xffffffffffffffff\n      and\n        /* \"ZKGameClient.sol\":4604:4644  uint64 chainSelector = chainSelectors[i] */\n      swap1\n      pop\n        /* \"ZKGameClient.sol\":4658:4674  address receiver */\n      0x00\n        /* \"ZKGameClient.sol\":4677:4686  receivers */\n      0x06\n        /* \"ZKGameClient.sol\":4687:4688  i */\n      dup4\n        /* \"ZKGameClient.sol\":4677:4689  receivers[i] */\n      0x03\n      dup2\n      lt\n      tag_141\n      jumpi\n      tag_142\n      tag_108\n      jump\t// in\n    tag_142:\n    tag_141:\n      add\n      0x00\n      swap1\n      sload\n      swap1\n      0x0100\n      exp\n      swap1\n      div\n      0xffffffffffffffffffffffffffffffffffffffff\n      and\n        /* \"ZKGameClient.sol\":4658:4689  address receiver = receivers[i] */\n      swap1\n      pop\n        /* \"ZKGameClient.sol\":4751:4764  chainSelector */\n      dup2\n        /* \"ZKGameClient.sol\":4706:4764  chainSelectors[currentChainSelectorIndex] != chainSelector */\n      0xffffffffffffffff\n      and\n        /* \"ZKGameClient.sol\":4706:4720  chainSelectors */\n      0x05\n        /* \"ZKGameClient.sol\":4721:4746  currentChainSelectorIndex */\n      sload(0x02)\n        /* \"ZKGameClient.sol\":4706:4747  chainSelectors[currentChainSelectorIndex] */\n      dup2\n      sload\n      dup2\n      lt\n      tag_144\n      jumpi\n      tag_145\n      tag_108\n      jump\t// in\n    tag_145:\n    tag_144:\n      swap1\n      0x00\n      mstore\n      keccak256(0x00, 0x20)\n      swap1\n      0x04\n      swap2\n      dup3\n      dup3\n      div\n      add\n      swap2\n      swap1\n      mod\n      0x08\n      mul\n      swap1\n      sload\n      swap1\n      0x0100\n      exp\n      swap1\n      div\n      0xffffffffffffffff\n      and\n        /* \"ZKGameClient.sol\":4706:4764  chainSelectors[currentChainSelectorIndex] != chainSelector */\n      0xffffffffffffffff\n      and\n      eq\n      iszero\n        /* \"ZKGameClient.sol\":4706:4790  chainSelectors[currentChainSelectorIndex] != chainSelector && receiver != address(0) */\n      dup1\n      iszero\n      tag_147\n      jumpi\n      pop\n        /* \"ZKGameClient.sol\":4788:4789  0 */\n      0x00\n        /* \"ZKGameClient.sol\":4768:4790  receiver != address(0) */\n      0xffffffffffffffffffffffffffffffffffffffff\n      and\n        /* \"ZKGameClient.sol\":4768:4776  receiver */\n      dup2\n        /* \"ZKGameClient.sol\":4768:4790  receiver != address(0) */\n      0xffffffffffffffffffffffffffffffffffffffff\n      and\n      eq\n      iszero\n        /* \"ZKGameClient.sol\":4706:4790  chainSelectors[currentChainSelectorIndex] != chainSelector && receiver != address(0) */\n    tag_147:\n        /* \"ZKGameClient.sol\":4703:5073  if(chainSelectors[currentChainSelectorIndex] != chainSelector && receiver != address(0)) {... */\n      iszero\n      tag_148\n      jumpi\n        /* \"ZKGameClient.sol\":4810:5058  _sendMessage(chainSelector, receiver, linkTokens[currentChainSelectorIndex], routers[currentChainSelectorIndex], MessageItem(... */\n      tag_149\n        /* \"ZKGameClient.sol\":4823:4836  chainSelector */\n      dup3\n        /* \"ZKGameClient.sol\":4838:4846  receiver */\n      dup3\n        /* \"ZKGameClient.sol\":4848:4858  linkTokens */\n      0x04\n        /* \"ZKGameClient.sol\":4859:4884  currentChainSelectorIndex */\n      sload(0x02)\n        /* \"ZKGameClient.sol\":4848:4885  linkTokens[currentChainSelectorIndex] */\n      dup2\n      sload\n      dup2\n      lt\n      tag_150\n      jumpi\n      tag_151\n      tag_108\n      jump\t// in\n    tag_151:\n    tag_150:\n      swap1\n      0x00\n      mstore\n      keccak256(0x00, 0x20)\n      add\n      0x00\n      swap1\n      sload\n      swap1\n      0x0100\n      exp\n      swap1\n      div\n      0xffffffffffffffffffffffffffffffffffffffff\n      and\n        /* \"ZKGameClient.sol\":4887:4894  routers */\n      0x03\n        /* \"ZKGameClient.sol\":4895:4920  currentChainSelectorIndex */\n      sload(0x02)\n        /* \"ZKGameClient.sol\":4887:4921  routers[currentChainSelectorIndex] */\n      dup2\n      sload\n      dup2\n      lt\n      tag_153\n      jumpi\n      tag_154\n      tag_108\n      jump\t// in\n    tag_154:\n    tag_153:\n      swap1\n      0x00\n      mstore\n      keccak256(0x00, 0x20)\n      add\n      0x00\n      swap1\n      sload\n      swap1\n      0x0100\n      exp\n      swap1\n      div\n      0xffffffffffffffffffffffffffffffffffffffff\n      and\n        /* \"ZKGameClient.sol\":4923:5057  MessageItem(... */\n      mload(0x40)\n      dup1\n      0x60\n      add\n      0x40\n      mstore\n      dup1\n        /* \"ZKGameClient.sol\":4956:4966  msg.sender */\n      caller\n        /* \"ZKGameClient.sol\":4923:5057  MessageItem(... */\n      0xffffffffffffffffffffffffffffffffffffffff\n      and\n      dup2\n      mstore\n      0x20\n      add\n        /* \"ZKGameClient.sol\":4988:4992  time */\n      dup11\n        /* \"ZKGameClient.sol\":4923:5057  MessageItem(... */\n      dup2\n      mstore\n      0x20\n      add\n        /* \"ZKGameClient.sol\":5014:5039  currentChainSelectorIndex */\n      sload(0x02)\n        /* \"ZKGameClient.sol\":4923:5057  MessageItem(... */\n      dup2\n      mstore\n      pop\n        /* \"ZKGameClient.sol\":4810:4822  _sendMessage */\n      tag_156\n        /* \"ZKGameClient.sol\":4810:5058  _sendMessage(chainSelector, receiver, linkTokens[currentChainSelectorIndex], routers[currentChainSelectorIndex], MessageItem(... */\n      jump\t// in\n    tag_149:\n      pop\n        /* \"ZKGameClient.sol\":4703:5073  if(chainSelectors[currentChainSelectorIndex] != chainSelector && receiver != address(0)) {... */\n    tag_148:\n        /* \"ZKGameClient.sol\":4590:5083  {... */\n      pop\n      pop\n        /* \"ZKGameClient.sol\":4585:4588  i++ */\n      dup1\n      dup1\n      tag_157\n      swap1\n      tag_113\n      jump\t// in\n    tag_157:\n      swap2\n      pop\n      pop\n        /* \"ZKGameClient.sol\":4546:5083  for(uint i=0; i<chainSelectors.length; i++) {... */\n      jump(tag_135)\n    tag_136:\n      pop\n        /* \"ZKGameClient.sol\":4246:5089  function submitData(uint time) external {... */\n      pop\n      jump\t// out\n        /* \"ZKGameClient.sol\":2522:2550  uint[10] public topGradeList */\n    tag_62:\n      0x0c\n      dup2\n      0x0a\n      dup2\n      lt\n      tag_158\n      jumpi\n      0x00\n      dup1\n      revert\n    tag_158:\n      add\n      0x00\n      swap2\n      pop\n      swap1\n      pop\n      sload\n      dup2\n      jump\t// out\n        /* \"ZKGameClient.sol\":2418:2445  address[3] public receivers */\n    tag_66:\n      0x06\n      dup2\n      0x03\n      dup2\n      lt\n      tag_160\n      jumpi\n      0x00\n      dup1\n      revert\n    tag_160:\n      add\n      0x00\n      swap2\n      pop\n      sload\n      swap1\n      0x0100\n      exp\n      swap1\n      div\n      0xffffffffffffffffffffffffffffffffffffffff\n      and\n      dup2\n      jump\t// out\n        /* \"ZKGameClient.sol\":2478:2515  MessageItem public currentMessageItem */\n    tag_69:\n      0x09\n      dup1\n      0x00\n      add\n      0x00\n      swap1\n      sload\n      swap1\n      0x0100\n      exp\n      swap1\n      div\n      0xffffffffffffffffffffffffffffffffffffffff\n      and\n      swap1\n      dup1\n      0x01\n      add\n      sload\n      swap1\n      dup1\n      0x02\n      add\n      sload\n      swap1\n      pop\n      dup4\n      jump\t// out\n        /* \"ZKGameClient.sol\":2588:2620  address[10] public topPlayerList */\n    tag_74:\n      0x16\n      dup2\n      0x0a\n      dup2\n      lt\n      tag_162\n      jumpi\n      0x00\n      dup1\n      revert\n    tag_162:\n      add\n      0x00\n      swap2\n      pop\n      sload\n      swap1\n      0x0100\n      exp\n      swap1\n      div\n      0xffffffffffffffffffffffffffffffffffffffff\n      and\n      dup2\n      jump\t// out\n        /* \"ZKGameClient.sol\":8946:9116  function getTopGradeList() public view returns (uint[10] memory, uint[10] memory, address[10] memory) {... */\n    tag_77:\n        /* \"ZKGameClient.sol\":8994:9009  uint[10] memory */\n      tag_164\n      tag_165\n      jump\t// in\n    tag_164:\n        /* \"ZKGameClient.sol\":9011:9026  uint[10] memory */\n      tag_166\n      tag_165\n      jump\t// in\n    tag_166:\n        /* \"ZKGameClient.sol\":9028:9046  address[10] memory */\n      tag_167\n      tag_168\n      jump\t// in\n    tag_167:\n        /* \"ZKGameClient.sol\":9066:9078  topGradeList */\n      0x0c\n        /* \"ZKGameClient.sol\":9080:9093  topChainIndex */\n      0x20\n        /* \"ZKGameClient.sol\":9095:9108  topPlayerList */\n      0x16\n        /* \"ZKGameClient.sol\":9058:9109  return (topGradeList, topChainIndex, topPlayerList) */\n      dup3\n      0x0a\n      dup1\n      0x20\n      mul\n      mload(0x40)\n      swap1\n      dup2\n      add\n      0x40\n      mstore\n      dup1\n      swap3\n      swap2\n      swap1\n      dup3\n      0x0a\n      dup1\n      iszero\n      tag_170\n      jumpi\n      0x20\n      mul\n      dup3\n      add\n      swap2\n    tag_171:\n      dup2\n      sload\n      dup2\n      mstore\n      0x20\n      add\n      swap1\n      0x01\n      add\n      swap1\n      dup1\n      dup4\n      gt\n      tag_171\n      jumpi\n    tag_170:\n      pop\n      pop\n      pop\n      pop\n      pop\n      swap3\n      pop\n      dup2\n      0x0a\n      dup1\n      0x20\n      mul\n      mload(0x40)\n      swap1\n      dup2\n      add\n      0x40\n      mstore\n      dup1\n      swap3\n      swap2\n      swap1\n      dup3\n      0x0a\n      dup1\n      iszero\n      tag_172\n      jumpi\n      0x20\n      mul\n      dup3\n      add\n      swap2\n    tag_173:\n      dup2\n      sload\n      dup2\n      mstore\n      0x20\n      add\n      swap1\n      0x01\n      add\n      swap1\n      dup1\n      dup4\n      gt\n      tag_173\n      jumpi\n    tag_172:\n      pop\n      pop\n      pop\n      pop\n      pop\n      swap2\n      pop\n      dup1\n      0x0a\n      dup1\n      0x20\n      mul\n      mload(0x40)\n      swap1\n      dup2\n      add\n      0x40\n      mstore\n      dup1\n      swap3\n      swap2\n      swap1\n      dup3\n      0x0a\n      dup1\n      iszero\n      tag_174\n      jumpi\n      0x20\n      mul\n      dup3\n      add\n      swap2\n    tag_175:\n      dup2\n      0x00\n      swap1\n      sload\n      swap1\n      0x0100\n      exp\n      swap1\n      div\n      0xffffffffffffffffffffffffffffffffffffffff\n      and\n      0xffffffffffffffffffffffffffffffffffffffff\n      and\n      dup2\n      mstore\n      0x20\n      add\n      swap1\n      0x01\n      add\n      swap1\n      dup1\n      dup4\n      gt\n      tag_175\n      jumpi\n    tag_174:\n      pop\n      pop\n      pop\n      pop\n      pop\n      swap1\n      pop\n      swap3\n      pop\n      swap3\n      pop\n      swap3\n      pop\n        /* \"ZKGameClient.sol\":8946:9116  function getTopGradeList() public view returns (uint[10] memory, uint[10] memory, address[10] memory) {... */\n      swap1\n      swap2\n      swap3\n      jump\t// out\n        /* \"ZKGameClient.sol\":2657:2686  uint[10] public topChainIndex */\n    tag_82:\n      0x20\n      dup2\n      0x0a\n      dup2\n      lt\n      tag_176\n      jumpi\n      0x00\n      dup1\n      revert\n    tag_176:\n      add\n      0x00\n      swap2\n      pop\n      swap1\n      pop\n      sload\n      dup2\n      jump\t// out\n        /* \"ZKGameClient.sol\":2304:2331  address[] public linkTokens */\n    tag_86:\n      0x04\n      dup2\n      dup2\n      sload\n      dup2\n      lt\n      tag_178\n      jumpi\n      0x00\n      dup1\n      revert\n    tag_178:\n      swap1\n      0x00\n      mstore\n      keccak256(0x00, 0x20)\n      add\n      0x00\n      swap2\n      pop\n      sload\n      swap1\n      0x0100\n      exp\n      swap1\n      div\n      0xffffffffffffffffffffffffffffffffffffffff\n      and\n      dup2\n      jump\t// out\n        /* \"@chainlink/contracts-ccip@1.4.0/src/v0.8/shared/access/ConfirmedOwnerWithProposal.sol\":843:941  function transferOwnership(address to) public override onlyOwner {... */\n    tag_91:\n        /* \"@chainlink/contracts-ccip@1.4.0/src/v0.8/shared/access/ConfirmedOwnerWithProposal.sol\":2059:2079  _validateOwnership() */\n      tag_181\n        /* \"@chainlink/contracts-ccip@1.4.0/src/v0.8/shared/access/ConfirmedOwnerWithProposal.sol\":2059:2077  _validateOwnership */\n      tag_98\n        /* \"@chainlink/contracts-ccip@1.4.0/src/v0.8/shared/access/ConfirmedOwnerWithProposal.sol\":2059:2079  _validateOwnership() */\n      jump\t// in\n    tag_181:\n        /* \"@chainlink/contracts-ccip@1.4.0/src/v0.8/shared/access/ConfirmedOwnerWithProposal.sol\":914:936  _transferOwnership(to) */\n      tag_183\n        /* \"@chainlink/contracts-ccip@1.4.0/src/v0.8/shared/access/ConfirmedOwnerWithProposal.sol\":933:935  to */\n      dup2\n        /* \"@chainlink/contracts-ccip@1.4.0/src/v0.8/shared/access/ConfirmedOwnerWithProposal.sol\":914:932  _transferOwnership */\n      tag_184\n        /* \"@chainlink/contracts-ccip@1.4.0/src/v0.8/shared/access/ConfirmedOwnerWithProposal.sol\":914:936  _transferOwnership(to) */\n      jump\t// in\n    tag_183:\n        /* \"@chainlink/contracts-ccip@1.4.0/src/v0.8/shared/access/ConfirmedOwnerWithProposal.sol\":843:941  function transferOwnership(address to) public override onlyOwner {... */\n      pop\n      jump\t// out\n        /* \"@chainlink/contracts-ccip@1.4.0/src/v0.8/shared/access/ConfirmedOwnerWithProposal.sol\":1797:1955  function _validateOwnership() internal view {... */\n    tag_98:\n        /* \"@chainlink/contracts-ccip@1.4.0/src/v0.8/shared/access/ConfirmedOwnerWithProposal.sol\":1916:1923  s_owner */\n      0x00\n      dup1\n      sload\n      swap1\n      0x0100\n      exp\n      swap1\n      div\n      0xffffffffffffffffffffffffffffffffffffffff\n      and\n        /* \"@chainlink/contracts-ccip@1.4.0/src/v0.8/shared/access/ConfirmedOwnerWithProposal.sol\":1902:1923  msg.sender == s_owner */\n      0xffffffffffffffffffffffffffffffffffffffff\n      and\n        /* \"@chainlink/contracts-ccip@1.4.0/src/v0.8/shared/access/ConfirmedOwnerWithProposal.sol\":1902:1912  msg.sender */\n      caller\n        /* \"@chainlink/contracts-ccip@1.4.0/src/v0.8/shared/access/ConfirmedOwnerWithProposal.sol\":1902:1923  msg.sender == s_owner */\n      0xffffffffffffffffffffffffffffffffffffffff\n      and\n      eq\n        /* \"@chainlink/contracts-ccip@1.4.0/src/v0.8/shared/access/ConfirmedOwnerWithProposal.sol\":1894:1950  require(msg.sender == s_owner, \"Only callable by owner\") */\n      tag_186\n      jumpi\n      mload(0x40)\n      0x08c379a000000000000000000000000000000000000000000000000000000000\n      dup2\n      mstore\n      0x04\n      add\n      tag_187\n      swap1\n      tag_188\n      jump\t// in\n    tag_187:\n      mload(0x40)\n      dup1\n      swap2\n      sub\n      swap1\n      revert\n    tag_186:\n        /* \"@chainlink/contracts-ccip@1.4.0/src/v0.8/shared/access/ConfirmedOwnerWithProposal.sol\":1797:1955  function _validateOwnership() internal view {... */\n      jump\t// out\n        /* \"ZKGameClient.sol\":7330:7892  function _ccipReceive(... */\n    tag_130:\n        /* \"ZKGameClient.sol\":7461:7475  any2EvmMessage */\n      dup1\n        /* \"ZKGameClient.sol\":7461:7480  any2EvmMessage.data */\n      0x60\n      add\n      mload\n        /* \"ZKGameClient.sol\":7450:7496  abi.decode(any2EvmMessage.data, (MessageItem)) */\n      dup1\n      0x20\n      add\n      swap1\n      mload\n      dup2\n      add\n      swap1\n      tag_190\n      swap2\n      swap1\n      tag_191\n      jump\t// in\n    tag_190:\n        /* \"ZKGameClient.sol\":7429:7447  currentMessageItem */\n      0x09\n        /* \"ZKGameClient.sol\":7429:7496  currentMessageItem = abi.decode(any2EvmMessage.data, (MessageItem)) */\n      0x00\n      dup3\n      add\n      mload\n      dup2\n      0x00\n      add\n      exp(0x0100, 0x00)\n      dup2\n      sload\n      dup2\n      0xffffffffffffffffffffffffffffffffffffffff\n      mul\n      not\n      and\n      swap1\n      dup4\n      0xffffffffffffffffffffffffffffffffffffffff\n      and\n      mul\n      or\n      swap1\n      sstore\n      pop\n      0x20\n      dup3\n      add\n      mload\n      dup2\n      0x01\n      add\n      sstore\n      0x40\n      dup3\n      add\n      mload\n      dup2\n      0x02\n      add\n      sstore\n      swap1\n      pop\n      pop\n        /* \"ZKGameClient.sol\":7540:7577  pushDataToTopList(currentMessageItem) */\n      tag_192\n        /* \"ZKGameClient.sol\":7558:7576  currentMessageItem */\n      0x09\n        /* \"ZKGameClient.sol\":7540:7577  pushDataToTopList(currentMessageItem) */\n      mload(0x40)\n      dup1\n      0x60\n      add\n      0x40\n      mstore\n      swap1\n      dup2\n      0x00\n      dup3\n      add\n      0x00\n      swap1\n      sload\n      swap1\n      0x0100\n      exp\n      swap1\n      div\n      0xffffffffffffffffffffffffffffffffffffffff\n      and\n      0xffffffffffffffffffffffffffffffffffffffff\n      and\n      0xffffffffffffffffffffffffffffffffffffffff\n      and\n      dup2\n      mstore\n      0x20\n      add\n      0x01\n      dup3\n      add\n      sload\n      dup2\n      mstore\n      0x20\n      add\n      0x02\n      dup3\n      add\n      sload\n      dup2\n      mstore\n      pop\n      pop\n        /* \"ZKGameClient.sol\":7540:7557  pushDataToTopList */\n      tag_134\n        /* \"ZKGameClient.sol\":7540:7577  pushDataToTopList(currentMessageItem) */\n      jump\t// in\n    tag_192:\n        /* \"ZKGameClient.sol\":7660:7674  any2EvmMessage */\n      dup1\n        /* \"ZKGameClient.sol\":7660:7694  any2EvmMessage.sourceChainSelector */\n      0x20\n      add\n      mload\n        /* \"ZKGameClient.sol\":7593:7885  MessageReceived(... */\n      0xffffffffffffffff\n      and\n        /* \"ZKGameClient.sol\":7622:7636  any2EvmMessage */\n      dup2\n        /* \"ZKGameClient.sol\":7622:7646  any2EvmMessage.messageId */\n      0x00\n      add\n      mload\n        /* \"ZKGameClient.sol\":7593:7885  MessageReceived(... */\n      0xaa5cbdcf4f25939d41be3032075952cfd5f51f978a501d2f801d671061623f1d\n        /* \"ZKGameClient.sol\":7771:7785  any2EvmMessage */\n      dup4\n        /* \"ZKGameClient.sol\":7771:7792  any2EvmMessage.sender */\n      0x40\n      add\n      mload\n        /* \"ZKGameClient.sol\":7760:7804  abi.decode(any2EvmMessage.sender, (address)) */\n      dup1\n      0x20\n      add\n      swap1\n      mload\n      dup2\n      add\n      swap1\n      tag_193\n      swap2\n      swap1\n      tag_194\n      jump\t// in\n    tag_193:\n        /* \"ZKGameClient.sol\":7857:7875  currentMessageItem */\n      0x09\n        /* \"ZKGameClient.sol\":7593:7885  MessageReceived(... */\n      mload(0x40)\n      tag_195\n      swap3\n      swap2\n      swap1\n      tag_196\n      jump\t// in\n    tag_195:\n      mload(0x40)\n      dup1\n      swap2\n      sub\n      swap1\n      log3\n        /* \"ZKGameClient.sol\":7330:7892  function _ccipReceive(... */\n      pop\n      jump\t// out\n        /* \"ZKGameClient.sol\":7934:8940  function pushDataToTopList(MessageItem memory messageItem) internal {... */\n    tag_134:\n        /* \"ZKGameClient.sol\":8012:8021  uint time */\n      0x00\n        /* \"ZKGameClient.sol\":8024:8035  messageItem */\n      dup2\n        /* \"ZKGameClient.sol\":8024:8040  messageItem.time */\n      0x20\n      add\n      mload\n        /* \"ZKGameClient.sol\":8012:8040  uint time = messageItem.time */\n      swap1\n      pop\n        /* \"ZKGameClient.sol\":8050:8064  address player */\n      0x00\n        /* \"ZKGameClient.sol\":8067:8078  messageItem */\n      dup3\n        /* \"ZKGameClient.sol\":8067:8085  messageItem.player */\n      0x00\n      add\n      mload\n        /* \"ZKGameClient.sol\":8050:8085  address player = messageItem.player */\n      swap1\n      pop\n        /* \"ZKGameClient.sol\":8095:8110  uint chainIndex */\n      0x00\n        /* \"ZKGameClient.sol\":8113:8124  messageItem */\n      dup4\n        /* \"ZKGameClient.sol\":8113:8135  messageItem.chainIndex */\n      0x40\n      add\n      mload\n        /* \"ZKGameClient.sol\":8095:8135  uint chainIndex = messageItem.chainIndex */\n      swap1\n      pop\n        /* \"ZKGameClient.sol\":8188:8192  time */\n      dup3\n        /* \"ZKGameClient.sol\":8149:8161  topGradeList */\n      0x0c\n        /* \"ZKGameClient.sol\":8183:8184  1 */\n      0x01\n        /* \"ZKGameClient.sol\":8162:8181  topGradeList.length */\n      0x0a\n        /* \"ZKGameClient.sol\":8162:8184  topGradeList.length -1 */\n      tag_198\n      swap2\n      swap1\n      tag_199\n      jump\t// in\n    tag_198:\n        /* \"ZKGameClient.sol\":8149:8185  topGradeList[topGradeList.length -1] */\n      0x0a\n      dup2\n      lt\n      tag_200\n      jumpi\n      tag_201\n      tag_108\n      jump\t// in\n    tag_201:\n    tag_200:\n      add\n      sload\n        /* \"ZKGameClient.sol\":8149:8192  topGradeList[topGradeList.length -1] < time */\n      lt\n        /* \"ZKGameClient.sol\":8146:8934  if(topGradeList[topGradeList.length -1] < time) {... */\n      iszero\n      tag_203\n      jumpi\n        /* \"ZKGameClient.sol\":8208:8217  uint left */\n      0x00\n        /* \"ZKGameClient.sol\":8235:8245  uint right */\n      dup1\n        /* \"ZKGameClient.sol\":8270:8271  1 */\n      0x01\n        /* \"ZKGameClient.sol\":8248:8267  topGradeList.length */\n      0x0a\n        /* \"ZKGameClient.sol\":8248:8271  topGradeList.length - 1 */\n      tag_204\n      swap2\n      swap1\n      tag_199\n      jump\t// in\n    tag_204:\n        /* \"ZKGameClient.sol\":8235:8271  uint right = topGradeList.length - 1 */\n      swap1\n      pop\n        /* \"ZKGameClient.sol\":8285:8293  uint mid */\n      0x00\n        /* \"ZKGameClient.sol\":8308:8546  while (left < right) {... */\n    tag_205:\n        /* \"ZKGameClient.sol\":8322:8327  right */\n      dup2\n        /* \"ZKGameClient.sol\":8315:8319  left */\n      dup4\n        /* \"ZKGameClient.sol\":8315:8327  left < right */\n      lt\n        /* \"ZKGameClient.sol\":8308:8546  while (left < right) {... */\n      iszero\n      tag_206\n      jumpi\n        /* \"ZKGameClient.sol\":8370:8371  2 */\n      0x02\n        /* \"ZKGameClient.sol\":8361:8366  right */\n      dup3\n        /* \"ZKGameClient.sol\":8354:8358  left */\n      dup5\n        /* \"ZKGameClient.sol\":8354:8366  left + right */\n      tag_207\n      swap2\n      swap1\n      tag_208\n      jump\t// in\n    tag_207:\n        /* \"ZKGameClient.sol\":8353:8371  (left + right) / 2 */\n      tag_209\n      swap2\n      swap1\n      tag_210\n      jump\t// in\n    tag_209:\n        /* \"ZKGameClient.sol\":8347:8371  mid = (left + right) / 2 */\n      swap1\n      pop\n        /* \"ZKGameClient.sol\":8413:8417  time */\n      dup6\n        /* \"ZKGameClient.sol\":8393:8405  topGradeList */\n      0x0c\n        /* \"ZKGameClient.sol\":8406:8409  mid */\n      dup3\n        /* \"ZKGameClient.sol\":8393:8410  topGradeList[mid] */\n      0x0a\n      dup2\n      lt\n      tag_211\n      jumpi\n      tag_212\n      tag_108\n      jump\t// in\n    tag_212:\n    tag_211:\n      add\n      sload\n        /* \"ZKGameClient.sol\":8393:8417  topGradeList[mid] < time */\n      lt\n        /* \"ZKGameClient.sol\":8389:8532  if (topGradeList[mid] < time) {... */\n      iszero\n      tag_214\n      jumpi\n        /* \"ZKGameClient.sol\":8449:8452  mid */\n      dup1\n        /* \"ZKGameClient.sol\":8441:8452  right = mid */\n      swap2\n      pop\n        /* \"ZKGameClient.sol\":8389:8532  if (topGradeList[mid] < time) {... */\n      jump(tag_215)\n    tag_214:\n        /* \"ZKGameClient.sol\":8512:8513  1 */\n      0x01\n        /* \"ZKGameClient.sol\":8506:8509  mid */\n      dup2\n        /* \"ZKGameClient.sol\":8506:8513  mid + 1 */\n      tag_216\n      swap2\n      swap1\n      tag_208\n      jump\t// in\n    tag_216:\n        /* \"ZKGameClient.sol\":8499:8513  left = mid + 1 */\n      swap3\n      pop\n        /* \"ZKGameClient.sol\":8389:8532  if (topGradeList[mid] < time) {... */\n    tag_215:\n        /* \"ZKGameClient.sol\":8308:8546  while (left < right) {... */\n      jump(tag_205)\n    tag_206:\n        /* \"ZKGameClient.sol\":8564:8570  uint i */\n      0x00\n        /* \"ZKGameClient.sol\":8595:8596  1 */\n      0x01\n        /* \"ZKGameClient.sol\":8573:8592  topGradeList.length */\n      0x0a\n        /* \"ZKGameClient.sol\":8573:8596  topGradeList.length - 1 */\n      tag_220\n      swap2\n      swap1\n      tag_199\n      jump\t// in\n    tag_220:\n        /* \"ZKGameClient.sol\":8564:8596  uint i = topGradeList.length - 1 */\n      swap1\n      pop\n        /* \"ZKGameClient.sol\":8560:8797  for(uint i = topGradeList.length - 1; i > left; i--) {... */\n    tag_217:\n        /* \"ZKGameClient.sol\":8602:8606  left */\n      dup4\n        /* \"ZKGameClient.sol\":8598:8599  i */\n      dup2\n        /* \"ZKGameClient.sol\":8598:8606  i > left */\n      gt\n        /* \"ZKGameClient.sol\":8560:8797  for(uint i = topGradeList.length - 1; i > left; i--) {... */\n      iszero\n      tag_218\n      jumpi\n        /* \"ZKGameClient.sol\":8649:8661  topGradeList */\n      0x0c\n        /* \"ZKGameClient.sol\":8666:8667  1 */\n      0x01\n        /* \"ZKGameClient.sol\":8662:8663  i */\n      dup3\n        /* \"ZKGameClient.sol\":8662:8667  i - 1 */\n      tag_221\n      swap2\n      swap1\n      tag_199\n      jump\t// in\n    tag_221:\n        /* \"ZKGameClient.sol\":8649:8668  topGradeList[i - 1] */\n      0x0a\n      dup2\n      lt\n      tag_222\n      jumpi\n      tag_223\n      tag_108\n      jump\t// in\n    tag_223:\n    tag_222:\n      add\n      sload\n        /* \"ZKGameClient.sol\":8631:8643  topGradeList */\n      0x0c\n        /* \"ZKGameClient.sol\":8644:8645  i */\n      dup3\n        /* \"ZKGameClient.sol\":8631:8646  topGradeList[i] */\n      0x0a\n      dup2\n      lt\n      tag_225\n      jumpi\n      tag_226\n      tag_108\n      jump\t// in\n    tag_226:\n    tag_225:\n      add\n        /* \"ZKGameClient.sol\":8631:8668  topGradeList[i] = topGradeList[i - 1] */\n      dup2\n      swap1\n      sstore\n      pop\n        /* \"ZKGameClient.sol\":8705:8718  topPlayerList */\n      0x16\n        /* \"ZKGameClient.sol\":8723:8724  1 */\n      0x01\n        /* \"ZKGameClient.sol\":8719:8720  i */\n      dup3\n        /* \"ZKGameClient.sol\":8719:8724  i - 1 */\n      tag_228\n      swap2\n      swap1\n      tag_199\n      jump\t// in\n    tag_228:\n        /* \"ZKGameClient.sol\":8705:8725  topPlayerList[i - 1] */\n      0x0a\n      dup2\n      lt\n      tag_229\n      jumpi\n      tag_230\n      tag_108\n      jump\t// in\n    tag_230:\n    tag_229:\n      add\n      0x00\n      swap1\n      sload\n      swap1\n      0x0100\n      exp\n      swap1\n      div\n      0xffffffffffffffffffffffffffffffffffffffff\n      and\n        /* \"ZKGameClient.sol\":8686:8699  topPlayerList */\n      0x16\n        /* \"ZKGameClient.sol\":8700:8701  i */\n      dup3\n        /* \"ZKGameClient.sol\":8686:8702  topPlayerList[i] */\n      0x0a\n      dup2\n      lt\n      tag_232\n      jumpi\n      tag_233\n      tag_108\n      jump\t// in\n    tag_233:\n    tag_232:\n      add\n      0x00\n        /* \"ZKGameClient.sol\":8686:8725  topPlayerList[i] = topPlayerList[i - 1] */\n      0x0100\n      exp\n      dup2\n      sload\n      dup2\n      0xffffffffffffffffffffffffffffffffffffffff\n      mul\n      not\n      and\n      swap1\n      dup4\n      0xffffffffffffffffffffffffffffffffffffffff\n      and\n      mul\n      or\n      swap1\n      sstore\n      pop\n        /* \"ZKGameClient.sol\":8762:8775  topChainIndex */\n      0x20\n        /* \"ZKGameClient.sol\":8780:8781  1 */\n      0x01\n        /* \"ZKGameClient.sol\":8776:8777  i */\n      dup3\n        /* \"ZKGameClient.sol\":8776:8781  i - 1 */\n      tag_235\n      swap2\n      swap1\n      tag_199\n      jump\t// in\n    tag_235:\n        /* \"ZKGameClient.sol\":8762:8782  topChainIndex[i - 1] */\n      0x0a\n      dup2\n      lt\n      tag_236\n      jumpi\n      tag_237\n      tag_108\n      jump\t// in\n    tag_237:\n    tag_236:\n      add\n      sload\n        /* \"ZKGameClient.sol\":8743:8756  topChainIndex */\n      0x20\n        /* \"ZKGameClient.sol\":8757:8758  i */\n      dup3\n        /* \"ZKGameClient.sol\":8743:8759  topChainIndex[i] */\n      0x0a\n      dup2\n      lt\n      tag_239\n      jumpi\n      tag_240\n      tag_108\n      jump\t// in\n    tag_240:\n    tag_239:\n      add\n        /* \"ZKGameClient.sol\":8743:8782  topChainIndex[i] = topChainIndex[i - 1] */\n      dup2\n      swap1\n      sstore\n      pop\n        /* \"ZKGameClient.sol\":8608:8611  i-- */\n      dup1\n      dup1\n      tag_242\n      swap1\n      tag_243\n      jump\t// in\n    tag_242:\n      swap2\n      pop\n      pop\n        /* \"ZKGameClient.sol\":8560:8797  for(uint i = topGradeList.length - 1; i > left; i--) {... */\n      jump(tag_217)\n    tag_218:\n      pop\n        /* \"ZKGameClient.sol\":8831:8835  time */\n      dup6\n        /* \"ZKGameClient.sol\":8810:8822  topGradeList */\n      0x0c\n        /* \"ZKGameClient.sol\":8823:8827  left */\n      dup5\n        /* \"ZKGameClient.sol\":8810:8828  topGradeList[left] */\n      0x0a\n      dup2\n      lt\n      tag_244\n      jumpi\n      tag_245\n      tag_108\n      jump\t// in\n    tag_245:\n    tag_244:\n      add\n        /* \"ZKGameClient.sol\":8810:8835  topGradeList[left] = time */\n      dup2\n      swap1\n      sstore\n      pop\n        /* \"ZKGameClient.sol\":8871:8877  player */\n      dup5\n        /* \"ZKGameClient.sol\":8849:8862  topPlayerList */\n      0x16\n        /* \"ZKGameClient.sol\":8863:8867  left */\n      dup5\n        /* \"ZKGameClient.sol\":8849:8868  topPlayerList[left] */\n      0x0a\n      dup2\n      lt\n      tag_247\n      jumpi\n      tag_248\n      tag_108\n      jump\t// in\n    tag_248:\n    tag_247:\n      add\n      0x00\n        /* \"ZKGameClient.sol\":8849:8877  topPlayerList[left] = player */\n      0x0100\n      exp\n      dup2\n      sload\n      dup2\n      0xffffffffffffffffffffffffffffffffffffffff\n      mul\n      not\n      and\n      swap1\n      dup4\n      0xffffffffffffffffffffffffffffffffffffffff\n      and\n      mul\n      or\n      swap1\n      sstore\n      pop\n        /* \"ZKGameClient.sol\":8913:8923  chainIndex */\n      dup4\n        /* \"ZKGameClient.sol\":8891:8904  topChainIndex */\n      0x20\n        /* \"ZKGameClient.sol\":8905:8909  left */\n      dup5\n        /* \"ZKGameClient.sol\":8891:8910  topChainIndex[left] */\n      0x0a\n      dup2\n      lt\n      tag_250\n      jumpi\n      tag_251\n      tag_108\n      jump\t// in\n    tag_251:\n    tag_250:\n      add\n        /* \"ZKGameClient.sol\":8891:8923  topChainIndex[left] = chainIndex */\n      dup2\n      swap1\n      sstore\n      pop\n        /* \"ZKGameClient.sol\":8194:8934  {... */\n      pop\n      pop\n      pop\n        /* \"ZKGameClient.sol\":8146:8934  if(topGradeList[topGradeList.length -1] < time) {... */\n    tag_203:\n        /* \"ZKGameClient.sol\":8002:8940  {... */\n      pop\n      pop\n      pop\n        /* \"ZKGameClient.sol\":7934:8940  function pushDataToTopList(MessageItem memory messageItem) internal {... */\n      pop\n      jump\t// out\n        /* \"ZKGameClient.sol\":5371:7324  function _sendMessage(... */\n    tag_156:\n        /* \"ZKGameClient.sol\":5575:5592  bytes32 messageId */\n      0x00\n        /* \"ZKGameClient.sol\":5604:5634  LinkTokenInterface s_linkToken */\n      dup1\n        /* \"ZKGameClient.sol\":5656:5665  linkToken */\n      dup5\n        /* \"ZKGameClient.sol\":5604:5666  LinkTokenInterface s_linkToken = LinkTokenInterface(linkToken) */\n      swap1\n      pop\n        /* \"ZKGameClient.sol\":5676:5698  IRouterClient s_router */\n      0x00\n        /* \"ZKGameClient.sol\":5715:5721  router */\n      dup5\n        /* \"ZKGameClient.sol\":5676:5722  IRouterClient s_router = IRouterClient(router) */\n      swap1\n      pop\n        /* \"ZKGameClient.sol\":5847:5890  Client.EVM2AnyMessage memory evm2AnyMessage */\n      0x00\n        /* \"ZKGameClient.sol\":5893:6471  Client.EVM2AnyMessage({... */\n      mload(0x40)\n      dup1\n      0xa0\n      add\n      0x40\n      mstore\n      dup1\n        /* \"ZKGameClient.sol\":5950:5958  receiver */\n      dup10\n        /* \"ZKGameClient.sol\":5939:5959  abi.encode(receiver) */\n      add(0x20, mload(0x40))\n      tag_254\n      swap2\n      swap1\n      tag_47\n      jump\t// in\n    tag_254:\n      mload(0x40)\n      0x20\n      dup2\n      dup4\n      sub\n      sub\n      dup2\n      mstore\n      swap1\n      0x40\n      mstore\n        /* \"ZKGameClient.sol\":5893:6471  Client.EVM2AnyMessage({... */\n      dup2\n      mstore\n      0x20\n      add\n        /* \"ZKGameClient.sol\":6022:6033  messageItem */\n      dup7\n        /* \"ZKGameClient.sol\":6011:6034  abi.encode(messageItem) */\n      add(0x20, mload(0x40))\n      tag_255\n      swap2\n      swap1\n      tag_256\n      jump\t// in\n    tag_255:\n      mload(0x40)\n      0x20\n      dup2\n      dup4\n      sub\n      sub\n      dup2\n      mstore\n      swap1\n      0x40\n      mstore\n        /* \"ZKGameClient.sol\":5893:6471  Client.EVM2AnyMessage({... */\n      dup2\n      mstore\n      0x20\n      add\n        /* \"ZKGameClient.sol\":6117:6118  0 */\n      0x00\n        /* \"ZKGameClient.sol\":6089:6119  new Client.EVMTokenAmount[](0) */\n      0xffffffffffffffff\n      dup2\n      gt\n      iszero\n      tag_257\n      jumpi\n      tag_258\n      tag_259\n      jump\t// in\n    tag_258:\n    tag_257:\n      mload(0x40)\n      swap1\n      dup1\n      dup3\n      mstore\n      dup1\n      0x20\n      mul\n      0x20\n      add\n      dup3\n      add\n      0x40\n      mstore\n      dup1\n      iszero\n      tag_260\n      jumpi\n      dup2\n      0x20\n      add\n    tag_261:\n      tag_262\n      tag_263\n      jump\t// in\n    tag_262:\n      dup2\n      mstore\n      0x20\n      add\n      swap1\n      0x01\n      swap1\n      sub\n      swap1\n      dup2\n      tag_261\n      jumpi\n      swap1\n      pop\n    tag_260:\n      pop\n        /* \"ZKGameClient.sol\":5893:6471  Client.EVM2AnyMessage({... */\n      dup2\n      mstore\n      0x20\n      add\n        /* \"ZKGameClient.sol\":6451:6460  linkToken */\n      dup9\n        /* \"ZKGameClient.sol\":5893:6471  Client.EVM2AnyMessage({... */\n      0xffffffffffffffffffffffffffffffffffffffff\n      and\n      dup2\n      mstore\n      0x20\n      add\n        /* \"ZKGameClient.sol\":6195:6347  Client._argsToBytes(... */\n      tag_264\n        /* \"ZKGameClient.sol\":6291:6333  Client.EVMExtraArgsV1({gasLimit: 200_000}) */\n      mload(0x40)\n      dup1\n      0x20\n      add\n      0x40\n      mstore\n      dup1\n        /* \"ZKGameClient.sol\":6324:6331  200_000 */\n      0x030d40\n        /* \"ZKGameClient.sol\":6291:6333  Client.EVMExtraArgsV1({gasLimit: 200_000}) */\n      dup2\n      mstore\n      pop\n        /* \"ZKGameClient.sol\":6195:6214  Client._argsToBytes */\n      tag_265\n        /* \"ZKGameClient.sol\":6195:6347  Client._argsToBytes(... */\n      jump\t// in\n    tag_264:\n        /* \"ZKGameClient.sol\":5893:6471  Client.EVM2AnyMessage({... */\n      dup2\n      mstore\n      pop\n        /* \"ZKGameClient.sol\":5847:6471  Client.EVM2AnyMessage memory evm2AnyMessage = Client.EVM2AnyMessage({... */\n      swap1\n      pop\n        /* \"ZKGameClient.sol\":6534:6546  uint256 fees */\n      0x00\n        /* \"ZKGameClient.sol\":6549:6557  s_router */\n      dup3\n        /* \"ZKGameClient.sol\":6549:6564  s_router.getFee */\n      0xffffffffffffffffffffffffffffffffffffffff\n      and\n      0x20487ded\n        /* \"ZKGameClient.sol\":6578:6602  destinationChainSelector */\n      dup12\n        /* \"ZKGameClient.sol\":6616:6630  evm2AnyMessage */\n      dup5\n        /* \"ZKGameClient.sol\":6549:6640  s_router.getFee(... */\n      mload(0x40)\n      dup4\n      0xffffffff\n      and\n      0xe0\n      shl\n      dup2\n      mstore\n      0x04\n      add\n      tag_266\n      swap3\n      swap2\n      swap1\n      tag_267\n      jump\t// in\n    tag_266:\n      0x20\n      mload(0x40)\n      dup1\n      dup4\n      sub\n      dup2\n      dup7\n      gas\n      staticcall\n      iszero\n      dup1\n      iszero\n      tag_269\n      jumpi\n      returndatasize\n      0x00\n      dup1\n      returndatacopy\n      revert(0x00, returndatasize)\n    tag_269:\n      pop\n      pop\n      pop\n      pop\n      mload(0x40)\n      returndatasize\n      not(0x1f)\n      0x1f\n      dup3\n      add\n      and\n      dup3\n      add\n      dup1\n      0x40\n      mstore\n      pop\n      dup2\n      add\n      swap1\n      tag_270\n      swap2\n      swap1\n      tag_271\n      jump\t// in\n    tag_270:\n        /* \"ZKGameClient.sol\":6534:6640  uint256 fees = s_router.getFee(... */\n      swap1\n      pop\n        /* \"ZKGameClient.sol\":6662:6673  s_linkToken */\n      dup4\n        /* \"ZKGameClient.sol\":6662:6683  s_linkToken.balanceOf */\n      0xffffffffffffffffffffffffffffffffffffffff\n      and\n      0x70a08231\n        /* \"ZKGameClient.sol\":6692:6696  this */\n      address\n        /* \"ZKGameClient.sol\":6662:6698  s_linkToken.balanceOf(address(this)) */\n      mload(0x40)\n      dup3\n      0xffffffff\n      and\n      0xe0\n      shl\n      dup2\n      mstore\n      0x04\n      add\n      tag_272\n      swap2\n      swap1\n      tag_47\n      jump\t// in\n    tag_272:\n      0x20\n      mload(0x40)\n      dup1\n      dup4\n      sub\n      dup2\n      dup7\n      gas\n      staticcall\n      iszero\n      dup1\n      iszero\n      tag_274\n      jumpi\n      returndatasize\n      0x00\n      dup1\n      returndatacopy\n      revert(0x00, returndatasize)\n    tag_274:\n      pop\n      pop\n      pop\n      pop\n      mload(0x40)\n      returndatasize\n      not(0x1f)\n      0x1f\n      dup3\n      add\n      and\n      dup3\n      add\n      dup1\n      0x40\n      mstore\n      pop\n      dup2\n      add\n      swap1\n      tag_275\n      swap2\n      swap1\n      tag_271\n      jump\t// in\n    tag_275:\n        /* \"ZKGameClient.sol\":6655:6659  fees */\n      dup2\n        /* \"ZKGameClient.sol\":6655:6698  fees > s_linkToken.balanceOf(address(this)) */\n      gt\n        /* \"ZKGameClient.sol\":6651:6779  if (fees > s_linkToken.balanceOf(address(this)))... */\n      iszero\n      tag_276\n      jumpi\n        /* \"ZKGameClient.sol\":6736:6747  s_linkToken */\n      dup4\n        /* \"ZKGameClient.sol\":6736:6757  s_linkToken.balanceOf */\n      0xffffffffffffffffffffffffffffffffffffffff\n      and\n      0x70a08231\n        /* \"ZKGameClient.sol\":6766:6770  this */\n      address\n        /* \"ZKGameClient.sol\":6736:6772  s_linkToken.balanceOf(address(this)) */\n      mload(0x40)\n      dup3\n      0xffffffff\n      and\n      0xe0\n      shl\n      dup2\n      mstore\n      0x04\n      add\n      tag_277\n      swap2\n      swap1\n      tag_47\n      jump\t// in\n    tag_277:\n      0x20\n      mload(0x40)\n      dup1\n      dup4\n      sub\n      dup2\n      dup7\n      gas\n      staticcall\n      iszero\n      dup1\n      iszero\n      tag_279\n      jumpi\n      returndatasize\n      0x00\n      dup1\n      returndatacopy\n      revert(0x00, returndatasize)\n    tag_279:\n      pop\n      pop\n      pop\n      pop\n      mload(0x40)\n      returndatasize\n      not(0x1f)\n      0x1f\n      dup3\n      add\n      and\n      dup3\n      add\n      dup1\n      0x40\n      mstore\n      pop\n      dup2\n      add\n      swap1\n      tag_280\n      swap2\n      swap1\n      tag_271\n      jump\t// in\n    tag_280:\n        /* \"ZKGameClient.sol\":6774:6778  fees */\n      dup2\n        /* \"ZKGameClient.sol\":6719:6779  NotEnoughBalance(s_linkToken.balanceOf(address(this)), fees) */\n      mload(0x40)\n      0x8f0f420600000000000000000000000000000000000000000000000000000000\n      dup2\n      mstore\n      0x04\n      add\n      tag_281\n      swap3\n      swap2\n      swap1\n      tag_282\n      jump\t// in\n    tag_281:\n      mload(0x40)\n      dup1\n      swap2\n      sub\n      swap1\n      revert\n        /* \"ZKGameClient.sol\":6651:6779  if (fees > s_linkToken.balanceOf(address(this)))... */\n    tag_276:\n        /* \"ZKGameClient.sol\":6897:6908  s_linkToken */\n      dup4\n        /* \"ZKGameClient.sol\":6897:6916  s_linkToken.approve */\n      0xffffffffffffffffffffffffffffffffffffffff\n      and\n      0x095ea7b3\n        /* \"ZKGameClient.sol\":6925:6933  s_router */\n      dup5\n        /* \"ZKGameClient.sol\":6936:6940  fees */\n      dup4\n        /* \"ZKGameClient.sol\":6897:6941  s_linkToken.approve(address(s_router), fees) */\n      mload(0x40)\n      dup4\n      0xffffffff\n      and\n      0xe0\n      shl\n      dup2\n      mstore\n      0x04\n      add\n      tag_283\n      swap3\n      swap2\n      swap1\n      tag_284\n      jump\t// in\n    tag_283:\n      0x20\n      mload(0x40)\n      dup1\n      dup4\n      sub\n      dup2\n      0x00\n      dup8\n      gas\n      call\n      iszero\n      dup1\n      iszero\n      tag_286\n      jumpi\n      returndatasize\n      0x00\n      dup1\n      returndatacopy\n      revert(0x00, returndatasize)\n    tag_286:\n      pop\n      pop\n      pop\n      pop\n      mload(0x40)\n      returndatasize\n      not(0x1f)\n      0x1f\n      dup3\n      add\n      and\n      dup3\n      add\n      dup1\n      0x40\n      mstore\n      pop\n      dup2\n      add\n      swap1\n      tag_287\n      swap2\n      swap1\n      tag_288\n      jump\t// in\n    tag_287:\n      pop\n        /* \"ZKGameClient.sol\":7045:7053  s_router */\n      dup3\n        /* \"ZKGameClient.sol\":7045:7062  s_router.ccipSend */\n      0xffffffffffffffffffffffffffffffffffffffff\n      and\n      0x96f4e9f9\n        /* \"ZKGameClient.sol\":7063:7087  destinationChainSelector */\n      dup12\n        /* \"ZKGameClient.sol\":7089:7103  evm2AnyMessage */\n      dup5\n        /* \"ZKGameClient.sol\":7045:7104  s_router.ccipSend(destinationChainSelector, evm2AnyMessage) */\n      mload(0x40)\n      dup4\n      0xffffffff\n      and\n      0xe0\n      shl\n      dup2\n      mstore\n      0x04\n      add\n      tag_289\n      swap3\n      swap2\n      swap1\n      tag_267\n      jump\t// in\n    tag_289:\n      0x20\n      mload(0x40)\n      dup1\n      dup4\n      sub\n      dup2\n      0x00\n      dup8\n      gas\n      call\n      iszero\n      dup1\n      iszero\n      tag_291\n      jumpi\n      returndatasize\n      0x00\n      dup1\n      returndatacopy\n      revert(0x00, returndatasize)\n    tag_291:\n      pop\n      pop\n      pop\n      pop\n      mload(0x40)\n      returndatasize\n      not(0x1f)\n      0x1f\n      dup3\n      add\n      and\n      dup3\n      add\n      dup1\n      0x40\n      mstore\n      pop\n      dup2\n      add\n      swap1\n      tag_292\n      swap2\n      swap1\n      tag_293\n      jump\t// in\n    tag_292:\n        /* \"ZKGameClient.sol\":7033:7104  messageId = s_router.ccipSend(destinationChainSelector, evm2AnyMessage) */\n      swap5\n      pop\n        /* \"ZKGameClient.sol\":7168:7192  destinationChainSelector */\n      dup10\n        /* \"ZKGameClient.sol\":7120:7290  MessageSent(... */\n      0xffffffffffffffff\n      and\n        /* \"ZKGameClient.sol\":7145:7154  messageId */\n      dup6\n        /* \"ZKGameClient.sol\":7120:7290  MessageSent(... */\n      0xd0d85f1cc5ab17f712b6074d702edd6281031e603c5cf76890a85b1170045b3a\n        /* \"ZKGameClient.sol\":7206:7214  receiver */\n      dup12\n        /* \"ZKGameClient.sol\":7228:7239  messageItem */\n      dup10\n        /* \"ZKGameClient.sol\":7253:7262  linkToken */\n      dup13\n        /* \"ZKGameClient.sol\":7276:7280  fees */\n      dup7\n        /* \"ZKGameClient.sol\":7120:7290  MessageSent(... */\n      mload(0x40)\n      tag_294\n      swap5\n      swap4\n      swap3\n      swap2\n      swap1\n      tag_295\n      jump\t// in\n    tag_294:\n      mload(0x40)\n      dup1\n      swap2\n      sub\n      swap1\n      log3\n        /* \"ZKGameClient.sol\":7301:7317  return messageId */\n      pop\n      pop\n      pop\n      pop\n        /* \"ZKGameClient.sol\":5371:7324  function _sendMessage(... */\n      swap6\n      swap5\n      pop\n      pop\n      pop\n      pop\n      pop\n      jump\t// out\n        /* \"@chainlink/contracts-ccip@1.4.0/src/v0.8/shared/access/ConfirmedOwnerWithProposal.sol\":1528:1763  function _transferOwnership(address to) private {... */\n    tag_184:\n        /* \"@chainlink/contracts-ccip@1.4.0/src/v0.8/shared/access/ConfirmedOwnerWithProposal.sol\":1643:1653  msg.sender */\n      caller\n        /* \"@chainlink/contracts-ccip@1.4.0/src/v0.8/shared/access/ConfirmedOwnerWithProposal.sol\":1637:1653  to != msg.sender */\n      0xffffffffffffffffffffffffffffffffffffffff\n      and\n        /* \"@chainlink/contracts-ccip@1.4.0/src/v0.8/shared/access/ConfirmedOwnerWithProposal.sol\":1637:1639  to */\n      dup2\n        /* \"@chainlink/contracts-ccip@1.4.0/src/v0.8/shared/access/ConfirmedOwnerWithProposal.sol\":1637:1653  to != msg.sender */\n      0xffffffffffffffffffffffffffffffffffffffff\n      and\n      sub\n        /* \"@chainlink/contracts-ccip@1.4.0/src/v0.8/shared/access/ConfirmedOwnerWithProposal.sol\":1629:1681  require(to != msg.sender, \"Cannot transfer to self\") */\n      tag_297\n      jumpi\n      mload(0x40)\n      0x08c379a000000000000000000000000000000000000000000000000000000000\n      dup2\n      mstore\n      0x04\n      add\n      tag_298\n      swap1\n      tag_299\n      jump\t// in\n    tag_298:\n      mload(0x40)\n      dup1\n      swap2\n      sub\n      swap1\n      revert\n    tag_297:\n        /* \"@chainlink/contracts-ccip@1.4.0/src/v0.8/shared/access/ConfirmedOwnerWithProposal.sol\":1705:1707  to */\n      dup1\n        /* \"@chainlink/contracts-ccip@1.4.0/src/v0.8/shared/access/ConfirmedOwnerWithProposal.sol\":1688:1702  s_pendingOwner */\n      0x01\n      0x00\n        /* \"@chainlink/contracts-ccip@1.4.0/src/v0.8/shared/access/ConfirmedOwnerWithProposal.sol\":1688:1707  s_pendingOwner = to */\n      0x0100\n      exp\n      dup2\n      sload\n      dup2\n      0xffffffffffffffffffffffffffffffffffffffff\n      mul\n      not\n      and\n      swap1\n      dup4\n      0xffffffffffffffffffffffffffffffffffffffff\n      and\n      mul\n      or\n      swap1\n      sstore\n      pop\n        /* \"@chainlink/contracts-ccip@1.4.0/src/v0.8/shared/access/ConfirmedOwnerWithProposal.sol\":1755:1757  to */\n      dup1\n        /* \"@chainlink/contracts-ccip@1.4.0/src/v0.8/shared/access/ConfirmedOwnerWithProposal.sol\":1719:1758  OwnershipTransferRequested(s_owner, to) */\n      0xffffffffffffffffffffffffffffffffffffffff\n      and\n        /* \"@chainlink/contracts-ccip@1.4.0/src/v0.8/shared/access/ConfirmedOwnerWithProposal.sol\":1746:1753  s_owner */\n      0x00\n      dup1\n      sload\n      swap1\n      0x0100\n      exp\n      swap1\n      div\n      0xffffffffffffffffffffffffffffffffffffffff\n      and\n        /* \"@chainlink/contracts-ccip@1.4.0/src/v0.8/shared/access/ConfirmedOwnerWithProposal.sol\":1719:1758  OwnershipTransferRequested(s_owner, to) */\n      0xffffffffffffffffffffffffffffffffffffffff\n      and\n      0xed8889f560326eb138920d842192f0eb3dd22b4f139c87a2c57538e05bae1278\n      mload(0x40)\n      mload(0x40)\n      dup1\n      swap2\n      sub\n      swap1\n      log3\n        /* \"@chainlink/contracts-ccip@1.4.0/src/v0.8/shared/access/ConfirmedOwnerWithProposal.sol\":1528:1763  function _transferOwnership(address to) private {... */\n      pop\n      jump\t// out\n        /* \"@chainlink/contracts-ccip@1.4.0/src/v0.8/ccip/libraries/Client.sol\":1285:1455  function _argsToBytes(EVMExtraArgsV1 memory extraArgs) internal pure returns (bytes memory bts) {... */\n    tag_265:\n        /* \"@chainlink/contracts-ccip@1.4.0/src/v0.8/ccip/libraries/Client.sol\":1363:1379  bytes memory bts */\n      0x60\n        /* \"@chainlink/contracts-ccip@1.4.0/src/v0.8/ccip/libraries/Client.sol\":1218:1228  0x97a657c9 */\n      0x97a657c9\n        /* \"@chainlink/contracts-ccip@1.4.0/src/v0.8/ccip/libraries/Client.sol\":1417:1438  EVM_EXTRA_ARGS_V1_TAG */\n      0xe0\n      shl\n        /* \"@chainlink/contracts-ccip@1.4.0/src/v0.8/ccip/libraries/Client.sol\":1440:1449  extraArgs */\n      dup3\n        /* \"@chainlink/contracts-ccip@1.4.0/src/v0.8/ccip/libraries/Client.sol\":1394:1450  abi.encodeWithSelector(EVM_EXTRA_ARGS_V1_TAG, extraArgs) */\n      add(0x24, mload(0x40))\n      tag_301\n      swap2\n      swap1\n      tag_302\n      jump\t// in\n    tag_301:\n      mload(0x40)\n      0x20\n      dup2\n      dup4\n      sub\n      sub\n      dup2\n      mstore\n      swap1\n      0x40\n      mstore\n      swap1\n      not(0xffffffffffffffffffffffffffffffffffffffffffffffffffffffff)\n      and\n      0x20\n      dup3\n      add\n      dup1\n      mload\n      0xffffffffffffffffffffffffffffffffffffffffffffffffffffffff\n      dup4\n      dup2\n      dup4\n      and\n      or\n      dup4\n      mstore\n      pop\n      pop\n      pop\n      pop\n        /* \"@chainlink/contracts-ccip@1.4.0/src/v0.8/ccip/libraries/Client.sol\":1387:1450  return abi.encodeWithSelector(EVM_EXTRA_ARGS_V1_TAG, extraArgs) */\n      swap1\n      pop\n        /* \"@chainlink/contracts-ccip@1.4.0/src/v0.8/ccip/libraries/Client.sol\":1285:1455  function _argsToBytes(EVMExtraArgsV1 memory extraArgs) internal pure returns (bytes memory bts) {... */\n      swap2\n      swap1\n      pop\n      jump\t// out\n    tag_165:\n      mload(0x40)\n      dup1\n      0x0140\n      add\n      0x40\n      mstore\n      dup1\n      0x0a\n      swap1\n      0x20\n      dup3\n      mul\n      dup1\n      calldatasize\n      dup4\n      calldatacopy\n      dup1\n      dup3\n      add\n      swap2\n      pop\n      pop\n      swap1\n      pop\n      pop\n      swap1\n      jump\t// out\n    tag_168:\n      mload(0x40)\n      dup1\n      0x0140\n      add\n      0x40\n      mstore\n      dup1\n      0x0a\n      swap1\n      0x20\n      dup3\n      mul\n      dup1\n      calldatasize\n      dup4\n      calldatacopy\n      dup1\n      dup3\n      add\n      swap2\n      pop\n      pop\n      swap1\n      pop\n      pop\n      swap1\n      jump\t// out\n    tag_263:\n      mload(0x40)\n      dup1\n      0x40\n      add\n      0x40\n      mstore\n      dup1\n      and(0xffffffffffffffffffffffffffffffffffffffff, 0x00)\n      dup2\n      mstore\n      0x20\n      add\n      0x00\n      dup2\n      mstore\n      pop\n      swap1\n      jump\t// out\n        /* \"#utility.yul\":7:82   */\n    tag_303:\n        /* \"#utility.yul\":40:46   */\n      0x00\n        /* \"#utility.yul\":73:75   */\n      0x40\n        /* \"#utility.yul\":67:76   */\n      mload\n        /* \"#utility.yul\":57:76   */\n      swap1\n      pop\n        /* \"#utility.yul\":7:82   */\n      swap1\n      jump\t// out\n        /* \"#utility.yul\":88:205   */\n    tag_304:\n        /* \"#utility.yul\":197:198   */\n      0x00\n        /* \"#utility.yul\":194:195   */\n      dup1\n        /* \"#utility.yul\":187:199   */\n      revert\n        /* \"#utility.yul\":211:328   */\n    tag_305:\n        /* \"#utility.yul\":320:321   */\n      0x00\n        /* \"#utility.yul\":317:318   */\n      dup1\n        /* \"#utility.yul\":310:322   */\n      revert\n        /* \"#utility.yul\":334:483   */\n    tag_306:\n        /* \"#utility.yul\":370:377   */\n      0x00\n        /* \"#utility.yul\":410:476   */\n      0xffffffff00000000000000000000000000000000000000000000000000000000\n        /* \"#utility.yul\":403:408   */\n      dup3\n        /* \"#utility.yul\":399:477   */\n      and\n        /* \"#utility.yul\":388:477   */\n      swap1\n      pop\n        /* \"#utility.yul\":334:483   */\n      swap2\n      swap1\n      pop\n      jump\t// out\n        /* \"#utility.yul\":489:609   */\n    tag_307:\n        /* \"#utility.yul\":561:584   */\n      tag_414\n        /* \"#utility.yul\":578:583   */\n      dup2\n        /* \"#utility.yul\":561:584   */\n      tag_306\n      jump\t// in\n    tag_414:\n        /* \"#utility.yul\":554:559   */\n      dup2\n        /* \"#utility.yul\":551:585   */\n      eq\n        /* \"#utility.yul\":541:603   */\n      tag_415\n      jumpi\n        /* \"#utility.yul\":599:600   */\n      0x00\n        /* \"#utility.yul\":596:597   */\n      dup1\n        /* \"#utility.yul\":589:601   */\n      revert\n        /* \"#utility.yul\":541:603   */\n    tag_415:\n        /* \"#utility.yul\":489:609   */\n      pop\n      jump\t// out\n        /* \"#utility.yul\":615:752   */\n    tag_308:\n        /* \"#utility.yul\":660:665   */\n      0x00\n        /* \"#utility.yul\":698:704   */\n      dup2\n        /* \"#utility.yul\":685:705   */\n      calldataload\n        /* \"#utility.yul\":676:705   */\n      swap1\n      pop\n        /* \"#utility.yul\":714:746   */\n      tag_417\n        /* \"#utility.yul\":740:745   */\n      dup2\n        /* \"#utility.yul\":714:746   */\n      tag_307\n      jump\t// in\n    tag_417:\n        /* \"#utility.yul\":615:752   */\n      swap3\n      swap2\n      pop\n      pop\n      jump\t// out\n        /* \"#utility.yul\":758:1085   */\n    tag_25:\n        /* \"#utility.yul\":816:822   */\n      0x00\n        /* \"#utility.yul\":865:867   */\n      0x20\n        /* \"#utility.yul\":853:862   */\n      dup3\n        /* \"#utility.yul\":844:851   */\n      dup5\n        /* \"#utility.yul\":840:863   */\n      sub\n        /* \"#utility.yul\":836:868   */\n      slt\n        /* \"#utility.yul\":833:952   */\n      iszero\n      tag_419\n      jumpi\n        /* \"#utility.yul\":871:950   */\n      tag_420\n      tag_304\n      jump\t// in\n    tag_420:\n        /* \"#utility.yul\":833:952   */\n    tag_419:\n        /* \"#utility.yul\":991:992   */\n      0x00\n        /* \"#utility.yul\":1016:1068   */\n      tag_421\n        /* \"#utility.yul\":1060:1067   */\n      dup5\n        /* \"#utility.yul\":1051:1057   */\n      dup3\n        /* \"#utility.yul\":1040:1049   */\n      dup6\n        /* \"#utility.yul\":1036:1058   */\n      add\n        /* \"#utility.yul\":1016:1068   */\n      tag_308\n      jump\t// in\n    tag_421:\n        /* \"#utility.yul\":1006:1068   */\n      swap2\n      pop\n        /* \"#utility.yul\":962:1078   */\n      pop\n        /* \"#utility.yul\":758:1085   */\n      swap3\n      swap2\n      pop\n      pop\n      jump\t// out\n        /* \"#utility.yul\":1091:1181   */\n    tag_309:\n        /* \"#utility.yul\":1125:1132   */\n      0x00\n        /* \"#utility.yul\":1168:1173   */\n      dup2\n        /* \"#utility.yul\":1161:1174   */\n      iszero\n        /* \"#utility.yul\":1154:1175   */\n      iszero\n        /* \"#utility.yul\":1143:1175   */\n      swap1\n      pop\n        /* \"#utility.yul\":1091:1181   */\n      swap2\n      swap1\n      pop\n      jump\t// out\n        /* \"#utility.yul\":1187:1296   */\n    tag_310:\n        /* \"#utility.yul\":1268:1289   */\n      tag_424\n        /* \"#utility.yul\":1283:1288   */\n      dup2\n        /* \"#utility.yul\":1268:1289   */\n      tag_309\n      jump\t// in\n    tag_424:\n        /* \"#utility.yul\":1263:1266   */\n      dup3\n        /* \"#utility.yul\":1256:1290   */\n      mstore\n        /* \"#utility.yul\":1187:1296   */\n      pop\n      pop\n      jump\t// out\n        /* \"#utility.yul\":1302:1512   */\n    tag_28:\n        /* \"#utility.yul\":1389:1393   */\n      0x00\n        /* \"#utility.yul\":1427:1429   */\n      0x20\n        /* \"#utility.yul\":1416:1425   */\n      dup3\n        /* \"#utility.yul\":1412:1430   */\n      add\n        /* \"#utility.yul\":1404:1430   */\n      swap1\n      pop\n        /* \"#utility.yul\":1440:1505   */\n      tag_426\n        /* \"#utility.yul\":1502:1503   */\n      0x00\n        /* \"#utility.yul\":1491:1500   */\n      dup4\n        /* \"#utility.yul\":1487:1504   */\n      add\n        /* \"#utility.yul\":1478:1484   */\n      dup5\n        /* \"#utility.yul\":1440:1505   */\n      tag_310\n      jump\t// in\n    tag_426:\n        /* \"#utility.yul\":1302:1512   */\n      swap3\n      swap2\n      pop\n      pop\n      jump\t// out\n        /* \"#utility.yul\":1518:1595   */\n    tag_311:\n        /* \"#utility.yul\":1555:1562   */\n      0x00\n        /* \"#utility.yul\":1584:1589   */\n      dup2\n        /* \"#utility.yul\":1573:1589   */\n      swap1\n      pop\n        /* \"#utility.yul\":1518:1595   */\n      swap2\n      swap1\n      pop\n      jump\t// out\n        /* \"#utility.yul\":1601:1719   */\n    tag_312:\n        /* \"#utility.yul\":1688:1712   */\n      tag_429\n        /* \"#utility.yul\":1706:1711   */\n      dup2\n        /* \"#utility.yul\":1688:1712   */\n      tag_311\n      jump\t// in\n    tag_429:\n        /* \"#utility.yul\":1683:1686   */\n      dup3\n        /* \"#utility.yul\":1676:1713   */\n      mstore\n        /* \"#utility.yul\":1601:1719   */\n      pop\n      pop\n      jump\t// out\n        /* \"#utility.yul\":1725:1947   */\n    tag_32:\n        /* \"#utility.yul\":1818:1822   */\n      0x00\n        /* \"#utility.yul\":1856:1858   */\n      0x20\n        /* \"#utility.yul\":1845:1854   */\n      dup3\n        /* \"#utility.yul\":1841:1859   */\n      add\n        /* \"#utility.yul\":1833:1859   */\n      swap1\n      pop\n        /* \"#utility.yul\":1869:1940   */\n      tag_431\n        /* \"#utility.yul\":1937:1938   */\n      0x00\n        /* \"#utility.yul\":1926:1935   */\n      dup4\n        /* \"#utility.yul\":1922:1939   */\n      add\n        /* \"#utility.yul\":1913:1919   */\n      dup5\n        /* \"#utility.yul\":1869:1940   */\n      tag_312\n      jump\t// in\n    tag_431:\n        /* \"#utility.yul\":1725:1947   */\n      swap3\n      swap2\n      pop\n      pop\n      jump\t// out\n        /* \"#utility.yul\":1953:2075   */\n    tag_313:\n        /* \"#utility.yul\":2026:2050   */\n      tag_433\n        /* \"#utility.yul\":2044:2049   */\n      dup2\n        /* \"#utility.yul\":2026:2050   */\n      tag_311\n      jump\t// in\n    tag_433:\n        /* \"#utility.yul\":2019:2024   */\n      dup2\n        /* \"#utility.yul\":2016:2051   */\n      eq\n        /* \"#utility.yul\":2006:2069   */\n      tag_434\n      jumpi\n        /* \"#utility.yul\":2065:2066   */\n      0x00\n        /* \"#utility.yul\":2062:2063   */\n      dup1\n        /* \"#utility.yul\":2055:2067   */\n      revert\n        /* \"#utility.yul\":2006:2069   */\n    tag_434:\n        /* \"#utility.yul\":1953:2075   */\n      pop\n      jump\t// out\n        /* \"#utility.yul\":2081:2220   */\n    tag_314:\n        /* \"#utility.yul\":2127:2132   */\n      0x00\n        /* \"#utility.yul\":2165:2171   */\n      dup2\n        /* \"#utility.yul\":2152:2172   */\n      calldataload\n        /* \"#utility.yul\":2143:2172   */\n      swap1\n      pop\n        /* \"#utility.yul\":2181:2214   */\n      tag_436\n        /* \"#utility.yul\":2208:2213   */\n      dup2\n        /* \"#utility.yul\":2181:2214   */\n      tag_313\n      jump\t// in\n    tag_436:\n        /* \"#utility.yul\":2081:2220   */\n      swap3\n      swap2\n      pop\n      pop\n      jump\t// out\n        /* \"#utility.yul\":2226:2555   */\n    tag_35:\n        /* \"#utility.yul\":2285:2291   */\n      0x00\n        /* \"#utility.yul\":2334:2336   */\n      0x20\n        /* \"#utility.yul\":2322:2331   */\n      dup3\n        /* \"#utility.yul\":2313:2320   */\n      dup5\n        /* \"#utility.yul\":2309:2332   */\n      sub\n        /* \"#utility.yul\":2305:2337   */\n      slt\n        /* \"#utility.yul\":2302:2421   */\n      iszero\n      tag_438\n      jumpi\n        /* \"#utility.yul\":2340:2419   */\n      tag_439\n      tag_304\n      jump\t// in\n    tag_439:\n        /* \"#utility.yul\":2302:2421   */\n    tag_438:\n        /* \"#utility.yul\":2460:2461   */\n      0x00\n        /* \"#utility.yul\":2485:2538   */\n      tag_440\n        /* \"#utility.yul\":2530:2537   */\n      dup5\n        /* \"#utility.yul\":2521:2527   */\n      dup3\n        /* \"#utility.yul\":2510:2519   */\n      dup6\n        /* \"#utility.yul\":2506:2528   */\n      add\n        /* \"#utility.yul\":2485:2538   */\n      tag_314\n      jump\t// in\n    tag_440:\n        /* \"#utility.yul\":2475:2538   */\n      swap2\n      pop\n        /* \"#utility.yul\":2431:2548   */\n      pop\n        /* \"#utility.yul\":2226:2555   */\n      swap3\n      swap2\n      pop\n      pop\n      jump\t// out\n        /* \"#utility.yul\":2561:2662   */\n    tag_315:\n        /* \"#utility.yul\":2597:2604   */\n      0x00\n        /* \"#utility.yul\":2637:2655   */\n      0xffffffffffffffff\n        /* \"#utility.yul\":2630:2635   */\n      dup3\n        /* \"#utility.yul\":2626:2656   */\n      and\n        /* \"#utility.yul\":2615:2656   */\n      swap1\n      pop\n        /* \"#utility.yul\":2561:2662   */\n      swap2\n      swap1\n      pop\n      jump\t// out\n        /* \"#utility.yul\":2668:2783   */\n    tag_316:\n        /* \"#utility.yul\":2753:2776   */\n      tag_443\n        /* \"#utility.yul\":2770:2775   */\n      dup2\n        /* \"#utility.yul\":2753:2776   */\n      tag_315\n      jump\t// in\n    tag_443:\n        /* \"#utility.yul\":2748:2751   */\n      dup3\n        /* \"#utility.yul\":2741:2777   */\n      mstore\n        /* \"#utility.yul\":2668:2783   */\n      pop\n      pop\n      jump\t// out\n        /* \"#utility.yul\":2789:3007   */\n    tag_38:\n        /* \"#utility.yul\":2880:2884   */\n      0x00\n        /* \"#utility.yul\":2918:2920   */\n      0x20\n        /* \"#utility.yul\":2907:2916   */\n      dup3\n        /* \"#utility.yul\":2903:2921   */\n      add\n        /* \"#utility.yul\":2895:2921   */\n      swap1\n      pop\n        /* \"#utility.yul\":2931:3000   */\n      tag_445\n        /* \"#utility.yul\":2997:2998   */\n      0x00\n        /* \"#utility.yul\":2986:2995   */\n      dup4\n        /* \"#utility.yul\":2982:2999   */\n      add\n        /* \"#utility.yul\":2973:2979   */\n      dup5\n        /* \"#utility.yul\":2931:3000   */\n      tag_316\n      jump\t// in\n    tag_445:\n        /* \"#utility.yul\":2789:3007   */\n      swap3\n      swap2\n      pop\n      pop\n      jump\t// out\n        /* \"#utility.yul\":3013:3130   */\n    tag_317:\n        /* \"#utility.yul\":3122:3123   */\n      0x00\n        /* \"#utility.yul\":3119:3120   */\n      dup1\n        /* \"#utility.yul\":3112:3124   */\n      revert\n        /* \"#utility.yul\":3136:3238   */\n    tag_318:\n        /* \"#utility.yul\":3177:3183   */\n      0x00\n        /* \"#utility.yul\":3228:3230   */\n      0x1f\n        /* \"#utility.yul\":3224:3231   */\n      not\n        /* \"#utility.yul\":3219:3221   */\n      0x1f\n        /* \"#utility.yul\":3212:3217   */\n      dup4\n        /* \"#utility.yul\":3208:3222   */\n      add\n        /* \"#utility.yul\":3204:3232   */\n      and\n        /* \"#utility.yul\":3194:3232   */\n      swap1\n      pop\n        /* \"#utility.yul\":3136:3238   */\n      swap2\n      swap1\n      pop\n      jump\t// out\n        /* \"#utility.yul\":3244:3424   */\n    tag_259:\n        /* \"#utility.yul\":3292:3369   */\n      0x4e487b7100000000000000000000000000000000000000000000000000000000\n        /* \"#utility.yul\":3289:3290   */\n      0x00\n        /* \"#utility.yul\":3282:3370   */\n      mstore\n        /* \"#utility.yul\":3389:3393   */\n      0x41\n        /* \"#utility.yul\":3386:3387   */\n      0x04\n        /* \"#utility.yul\":3379:3394   */\n      mstore\n        /* \"#utility.yul\":3413:3417   */\n      0x24\n        /* \"#utility.yul\":3410:3411   */\n      0x00\n        /* \"#utility.yul\":3403:3418   */\n      revert\n        /* \"#utility.yul\":3430:3711   */\n    tag_319:\n        /* \"#utility.yul\":3513:3540   */\n      tag_450\n        /* \"#utility.yul\":3535:3539   */\n      dup3\n        /* \"#utility.yul\":3513:3540   */\n      tag_318\n      jump\t// in\n    tag_450:\n        /* \"#utility.yul\":3505:3511   */\n      dup2\n        /* \"#utility.yul\":3501:3541   */\n      add\n        /* \"#utility.yul\":3643:3649   */\n      dup2\n        /* \"#utility.yul\":3631:3641   */\n      dup2\n        /* \"#utility.yul\":3628:3650   */\n      lt\n        /* \"#utility.yul\":3607:3625   */\n      0xffffffffffffffff\n        /* \"#utility.yul\":3595:3605   */\n      dup3\n        /* \"#utility.yul\":3592:3626   */\n      gt\n        /* \"#utility.yul\":3589:3651   */\n      or\n        /* \"#utility.yul\":3586:3674   */\n      iszero\n      tag_451\n      jumpi\n        /* \"#utility.yul\":3654:3672   */\n      tag_452\n      tag_259\n      jump\t// in\n    tag_452:\n        /* \"#utility.yul\":3586:3674   */\n    tag_451:\n        /* \"#utility.yul\":3694:3704   */\n      dup1\n        /* \"#utility.yul\":3690:3692   */\n      0x40\n        /* \"#utility.yul\":3683:3705   */\n      mstore\n        /* \"#utility.yul\":3473:3711   */\n      pop\n        /* \"#utility.yul\":3430:3711   */\n      pop\n      pop\n      jump\t// out\n        /* \"#utility.yul\":3717:3846   */\n    tag_320:\n        /* \"#utility.yul\":3751:3757   */\n      0x00\n        /* \"#utility.yul\":3778:3798   */\n      tag_454\n      tag_303\n      jump\t// in\n    tag_454:\n        /* \"#utility.yul\":3768:3798   */\n      swap1\n      pop\n        /* \"#utility.yul\":3807:3840   */\n      tag_455\n        /* \"#utility.yul\":3835:3839   */\n      dup3\n        /* \"#utility.yul\":3827:3833   */\n      dup3\n        /* \"#utility.yul\":3807:3840   */\n      tag_319\n      jump\t// in\n    tag_455:\n        /* \"#utility.yul\":3717:3846   */\n      swap2\n      swap1\n      pop\n      jump\t// out\n        /* \"#utility.yul\":3852:4163   */\n    tag_321:\n        /* \"#utility.yul\":3929:3933   */\n      0x00\n        /* \"#utility.yul\":4019:4037   */\n      0xffffffffffffffff\n        /* \"#utility.yul\":4011:4017   */\n      dup3\n        /* \"#utility.yul\":4008:4038   */\n      gt\n        /* \"#utility.yul\":4005:4061   */\n      iszero\n      tag_457\n      jumpi\n        /* \"#utility.yul\":4041:4059   */\n      tag_458\n      tag_259\n      jump\t// in\n    tag_458:\n        /* \"#utility.yul\":4005:4061   */\n    tag_457:\n        /* \"#utility.yul\":4091:4095   */\n      0x20\n        /* \"#utility.yul\":4083:4089   */\n      dup3\n        /* \"#utility.yul\":4079:4096   */\n      mul\n        /* \"#utility.yul\":4071:4096   */\n      swap1\n      pop\n        /* \"#utility.yul\":4151:4155   */\n      0x20\n        /* \"#utility.yul\":4145:4149   */\n      dup2\n        /* \"#utility.yul\":4141:4156   */\n      add\n        /* \"#utility.yul\":4133:4156   */\n      swap1\n      pop\n        /* \"#utility.yul\":3852:4163   */\n      swap2\n      swap1\n      pop\n      jump\t// out\n        /* \"#utility.yul\":4169:4286   */\n    tag_322:\n        /* \"#utility.yul\":4278:4279   */\n      0x00\n        /* \"#utility.yul\":4275:4276   */\n      dup1\n        /* \"#utility.yul\":4268:4280   */\n      revert\n        /* \"#utility.yul\":4292:4418   */\n    tag_323:\n        /* \"#utility.yul\":4329:4336   */\n      0x00\n        /* \"#utility.yul\":4369:4411   */\n      0xffffffffffffffffffffffffffffffffffffffff\n        /* \"#utility.yul\":4362:4367   */\n      dup3\n        /* \"#utility.yul\":4358:4412   */\n      and\n        /* \"#utility.yul\":4347:4412   */\n      swap1\n      pop\n        /* \"#utility.yul\":4292:4418   */\n      swap2\n      swap1\n      pop\n      jump\t// out\n        /* \"#utility.yul\":4424:4520   */\n    tag_324:\n        /* \"#utility.yul\":4461:4468   */\n      0x00\n        /* \"#utility.yul\":4490:4514   */\n      tag_462\n        /* \"#utility.yul\":4508:4513   */\n      dup3\n        /* \"#utility.yul\":4490:4514   */\n      tag_323\n      jump\t// in\n    tag_462:\n        /* \"#utility.yul\":4479:4514   */\n      swap1\n      pop\n        /* \"#utility.yul\":4424:4520   */\n      swap2\n      swap1\n      pop\n      jump\t// out\n        /* \"#utility.yul\":4526:4648   */\n    tag_325:\n        /* \"#utility.yul\":4599:4623   */\n      tag_464\n        /* \"#utility.yul\":4617:4622   */\n      dup2\n        /* \"#utility.yul\":4599:4623   */\n      tag_324\n      jump\t// in\n    tag_464:\n        /* \"#utility.yul\":4592:4597   */\n      dup2\n        /* \"#utility.yul\":4589:4624   */\n      eq\n        /* \"#utility.yul\":4579:4642   */\n      tag_465\n      jumpi\n        /* \"#utility.yul\":4638:4639   */\n      0x00\n        /* \"#utility.yul\":4635:4636   */\n      dup1\n        /* \"#utility.yul\":4628:4640   */\n      revert\n        /* \"#utility.yul\":4579:4642   */\n    tag_465:\n        /* \"#utility.yul\":4526:4648   */\n      pop\n      jump\t// out\n        /* \"#utility.yul\":4654:4793   */\n    tag_326:\n        /* \"#utility.yul\":4700:4705   */\n      0x00\n        /* \"#utility.yul\":4738:4744   */\n      dup2\n        /* \"#utility.yul\":4725:4745   */\n      calldataload\n        /* \"#utility.yul\":4716:4745   */\n      swap1\n      pop\n        /* \"#utility.yul\":4754:4787   */\n      tag_467\n        /* \"#utility.yul\":4781:4786   */\n      dup2\n        /* \"#utility.yul\":4754:4787   */\n      tag_325\n      jump\t// in\n    tag_467:\n        /* \"#utility.yul\":4654:4793   */\n      swap3\n      swap2\n      pop\n      pop\n      jump\t// out\n        /* \"#utility.yul\":4816:5526   */\n    tag_327:\n        /* \"#utility.yul\":4912:4917   */\n      0x00\n        /* \"#utility.yul\":4937:5018   */\n      tag_469\n        /* \"#utility.yul\":4953:5017   */\n      tag_470\n        /* \"#utility.yul\":5010:5016   */\n      dup5\n        /* \"#utility.yul\":4953:5017   */\n      tag_321\n      jump\t// in\n    tag_470:\n        /* \"#utility.yul\":4937:5018   */\n      tag_320\n      jump\t// in\n    tag_469:\n        /* \"#utility.yul\":4928:5018   */\n      swap1\n      pop\n        /* \"#utility.yul\":5038:5043   */\n      dup1\n        /* \"#utility.yul\":5067:5073   */\n      dup4\n        /* \"#utility.yul\":5060:5065   */\n      dup3\n        /* \"#utility.yul\":5053:5074   */\n      mstore\n        /* \"#utility.yul\":5101:5105   */\n      0x20\n        /* \"#utility.yul\":5094:5099   */\n      dup3\n        /* \"#utility.yul\":5090:5106   */\n      add\n        /* \"#utility.yul\":5083:5106   */\n      swap1\n      pop\n        /* \"#utility.yul\":5154:5158   */\n      0x20\n        /* \"#utility.yul\":5146:5152   */\n      dup5\n        /* \"#utility.yul\":5142:5159   */\n      mul\n        /* \"#utility.yul\":5134:5140   */\n      dup4\n        /* \"#utility.yul\":5130:5160   */\n      add\n        /* \"#utility.yul\":5183:5186   */\n      dup6\n        /* \"#utility.yul\":5175:5181   */\n      dup2\n        /* \"#utility.yul\":5172:5187   */\n      gt\n        /* \"#utility.yul\":5169:5291   */\n      iszero\n      tag_471\n      jumpi\n        /* \"#utility.yul\":5202:5281   */\n      tag_472\n      tag_322\n      jump\t// in\n    tag_472:\n        /* \"#utility.yul\":5169:5291   */\n    tag_471:\n        /* \"#utility.yul\":5317:5323   */\n      dup4\n        /* \"#utility.yul\":5300:5520   */\n    tag_473:\n        /* \"#utility.yul\":5334:5340   */\n      dup2\n        /* \"#utility.yul\":5329:5332   */\n      dup2\n        /* \"#utility.yul\":5326:5341   */\n      lt\n        /* \"#utility.yul\":5300:5520   */\n      iszero\n      tag_475\n      jumpi\n        /* \"#utility.yul\":5409:5412   */\n      dup1\n        /* \"#utility.yul\":5438:5475   */\n      tag_476\n        /* \"#utility.yul\":5471:5474   */\n      dup9\n        /* \"#utility.yul\":5459:5469   */\n      dup3\n        /* \"#utility.yul\":5438:5475   */\n      tag_326\n      jump\t// in\n    tag_476:\n        /* \"#utility.yul\":5433:5436   */\n      dup5\n        /* \"#utility.yul\":5426:5476   */\n      mstore\n        /* \"#utility.yul\":5505:5509   */\n      0x20\n        /* \"#utility.yul\":5500:5503   */\n      dup5\n        /* \"#utility.yul\":5496:5510   */\n      add\n        /* \"#utility.yul\":5489:5510   */\n      swap4\n      pop\n        /* \"#utility.yul\":5376:5520   */\n      pop\n        /* \"#utility.yul\":5360:5364   */\n      0x20\n        /* \"#utility.yul\":5355:5358   */\n      dup2\n        /* \"#utility.yul\":5351:5365   */\n      add\n        /* \"#utility.yul\":5344:5365   */\n      swap1\n      pop\n        /* \"#utility.yul\":5300:5520   */\n      jump(tag_473)\n    tag_475:\n        /* \"#utility.yul\":5304:5325   */\n      pop\n        /* \"#utility.yul\":4918:5526   */\n      pop\n      pop\n        /* \"#utility.yul\":4816:5526   */\n      swap4\n      swap3\n      pop\n      pop\n      pop\n      jump\t// out\n        /* \"#utility.yul\":5549:5919   */\n    tag_328:\n        /* \"#utility.yul\":5620:5625   */\n      0x00\n        /* \"#utility.yul\":5669:5672   */\n      dup3\n        /* \"#utility.yul\":5662:5666   */\n      0x1f\n        /* \"#utility.yul\":5654:5660   */\n      dup4\n        /* \"#utility.yul\":5650:5667   */\n      add\n        /* \"#utility.yul\":5646:5673   */\n      slt\n        /* \"#utility.yul\":5636:5758   */\n      tag_478\n      jumpi\n        /* \"#utility.yul\":5677:5756   */\n      tag_479\n      tag_317\n      jump\t// in\n    tag_479:\n        /* \"#utility.yul\":5636:5758   */\n    tag_478:\n        /* \"#utility.yul\":5794:5800   */\n      dup2\n        /* \"#utility.yul\":5781:5801   */\n      calldataload\n        /* \"#utility.yul\":5819:5913   */\n      tag_480\n        /* \"#utility.yul\":5909:5912   */\n      dup5\n        /* \"#utility.yul\":5901:5907   */\n      dup3\n        /* \"#utility.yul\":5894:5898   */\n      0x20\n        /* \"#utility.yul\":5886:5892   */\n      dup7\n        /* \"#utility.yul\":5882:5899   */\n      add\n        /* \"#utility.yul\":5819:5913   */\n      tag_327\n      jump\t// in\n    tag_480:\n        /* \"#utility.yul\":5810:5913   */\n      swap2\n      pop\n        /* \"#utility.yul\":5626:5919   */\n      pop\n        /* \"#utility.yul\":5549:5919   */\n      swap3\n      swap2\n      pop\n      pop\n      jump\t// out\n        /* \"#utility.yul\":5925:6464   */\n    tag_41:\n        /* \"#utility.yul\":6009:6015   */\n      0x00\n        /* \"#utility.yul\":6058:6060   */\n      0x20\n        /* \"#utility.yul\":6046:6055   */\n      dup3\n        /* \"#utility.yul\":6037:6044   */\n      dup5\n        /* \"#utility.yul\":6033:6056   */\n      sub\n        /* \"#utility.yul\":6029:6061   */\n      slt\n        /* \"#utility.yul\":6026:6145   */\n      iszero\n      tag_482\n      jumpi\n        /* \"#utility.yul\":6064:6143   */\n      tag_483\n      tag_304\n      jump\t// in\n    tag_483:\n        /* \"#utility.yul\":6026:6145   */\n    tag_482:\n        /* \"#utility.yul\":6212:6213   */\n      0x00\n        /* \"#utility.yul\":6201:6210   */\n      dup3\n        /* \"#utility.yul\":6197:6214   */\n      add\n        /* \"#utility.yul\":6184:6215   */\n      calldataload\n        /* \"#utility.yul\":6242:6260   */\n      0xffffffffffffffff\n        /* \"#utility.yul\":6234:6240   */\n      dup2\n        /* \"#utility.yul\":6231:6261   */\n      gt\n        /* \"#utility.yul\":6228:6345   */\n      iszero\n      tag_484\n      jumpi\n        /* \"#utility.yul\":6264:6343   */\n      tag_485\n      tag_305\n      jump\t// in\n    tag_485:\n        /* \"#utility.yul\":6228:6345   */\n    tag_484:\n        /* \"#utility.yul\":6369:6447   */\n      tag_486\n        /* \"#utility.yul\":6439:6446   */\n      dup5\n        /* \"#utility.yul\":6430:6436   */\n      dup3\n        /* \"#utility.yul\":6419:6428   */\n      dup6\n        /* \"#utility.yul\":6415:6437   */\n      add\n        /* \"#utility.yul\":6369:6447   */\n      tag_328\n      jump\t// in\n    tag_486:\n        /* \"#utility.yul\":6359:6447   */\n      swap2\n      pop\n        /* \"#utility.yul\":6155:6457   */\n      pop\n        /* \"#utility.yul\":5925:6464   */\n      swap3\n      swap2\n      pop\n      pop\n      jump\t// out\n        /* \"#utility.yul\":6470:6588   */\n    tag_329:\n        /* \"#utility.yul\":6557:6581   */\n      tag_488\n        /* \"#utility.yul\":6575:6580   */\n      dup2\n        /* \"#utility.yul\":6557:6581   */\n      tag_324\n      jump\t// in\n    tag_488:\n        /* \"#utility.yul\":6552:6555   */\n      dup3\n        /* \"#utility.yul\":6545:6582   */\n      mstore\n        /* \"#utility.yul\":6470:6588   */\n      pop\n      pop\n      jump\t// out\n        /* \"#utility.yul\":6594:6816   */\n    tag_47:\n        /* \"#utility.yul\":6687:6691   */\n      0x00\n        /* \"#utility.yul\":6725:6727   */\n      0x20\n        /* \"#utility.yul\":6714:6723   */\n      dup3\n        /* \"#utility.yul\":6710:6728   */\n      add\n        /* \"#utility.yul\":6702:6728   */\n      swap1\n      pop\n        /* \"#utility.yul\":6738:6809   */\n      tag_490\n        /* \"#utility.yul\":6806:6807   */\n      0x00\n        /* \"#utility.yul\":6795:6804   */\n      dup4\n        /* \"#utility.yul\":6791:6808   */\n      add\n        /* \"#utility.yul\":6782:6788   */\n      dup5\n        /* \"#utility.yul\":6738:6809   */\n      tag_329\n      jump\t// in\n    tag_490:\n        /* \"#utility.yul\":6594:6816   */\n      swap3\n      swap2\n      pop\n      pop\n      jump\t// out\n        /* \"#utility.yul\":6822:6939   */\n    tag_330:\n        /* \"#utility.yul\":6931:6932   */\n      0x00\n        /* \"#utility.yul\":6928:6929   */\n      dup1\n        /* \"#utility.yul\":6921:6933   */\n      revert\n        /* \"#utility.yul\":6981:7219   */\n    tag_331:\n        /* \"#utility.yul\":7060:7065   */\n      0x00\n        /* \"#utility.yul\":7101:7104   */\n      0xa0\n        /* \"#utility.yul\":7092:7098   */\n      dup3\n        /* \"#utility.yul\":7087:7090   */\n      dup5\n        /* \"#utility.yul\":7083:7099   */\n      sub\n        /* \"#utility.yul\":7079:7105   */\n      slt\n        /* \"#utility.yul\":7076:7189   */\n      iszero\n      tag_493\n      jumpi\n        /* \"#utility.yul\":7108:7187   */\n      tag_494\n      tag_330\n      jump\t// in\n    tag_494:\n        /* \"#utility.yul\":7076:7189   */\n    tag_493:\n        /* \"#utility.yul\":7207:7213   */\n      dup2\n        /* \"#utility.yul\":7198:7213   */\n      swap1\n      pop\n        /* \"#utility.yul\":6981:7219   */\n      swap3\n      swap2\n      pop\n      pop\n      jump\t// out\n        /* \"#utility.yul\":7225:7780   */\n    tag_52:\n        /* \"#utility.yul\":7317:7323   */\n      0x00\n        /* \"#utility.yul\":7366:7368   */\n      0x20\n        /* \"#utility.yul\":7354:7363   */\n      dup3\n        /* \"#utility.yul\":7345:7352   */\n      dup5\n        /* \"#utility.yul\":7341:7364   */\n      sub\n        /* \"#utility.yul\":7337:7369   */\n      slt\n        /* \"#utility.yul\":7334:7453   */\n      iszero\n      tag_496\n      jumpi\n        /* \"#utility.yul\":7372:7451   */\n      tag_497\n      tag_304\n      jump\t// in\n    tag_497:\n        /* \"#utility.yul\":7334:7453   */\n    tag_496:\n        /* \"#utility.yul\":7520:7521   */\n      0x00\n        /* \"#utility.yul\":7509:7518   */\n      dup3\n        /* \"#utility.yul\":7505:7522   */\n      add\n        /* \"#utility.yul\":7492:7523   */\n      calldataload\n        /* \"#utility.yul\":7550:7568   */\n      0xffffffffffffffff\n        /* \"#utility.yul\":7542:7548   */\n      dup2\n        /* \"#utility.yul\":7539:7569   */\n      gt\n        /* \"#utility.yul\":7536:7653   */\n      iszero\n      tag_498\n      jumpi\n        /* \"#utility.yul\":7572:7651   */\n      tag_499\n      tag_305\n      jump\t// in\n    tag_499:\n        /* \"#utility.yul\":7536:7653   */\n    tag_498:\n        /* \"#utility.yul\":7677:7763   */\n      tag_500\n        /* \"#utility.yul\":7755:7762   */\n      dup5\n        /* \"#utility.yul\":7746:7752   */\n      dup3\n        /* \"#utility.yul\":7735:7744   */\n      dup6\n        /* \"#utility.yul\":7731:7753   */\n      add\n        /* \"#utility.yul\":7677:7763   */\n      tag_331\n      jump\t// in\n    tag_500:\n        /* \"#utility.yul\":7667:7763   */\n      swap2\n      pop\n        /* \"#utility.yul\":7463:7773   */\n      pop\n        /* \"#utility.yul\":7225:7780   */\n      swap3\n      swap2\n      pop\n      pop\n      jump\t// out\n        /* \"#utility.yul\":7786:8228   */\n    tag_71:\n        /* \"#utility.yul\":7935:7939   */\n      0x00\n        /* \"#utility.yul\":7973:7975   */\n      0x60\n        /* \"#utility.yul\":7962:7971   */\n      dup3\n        /* \"#utility.yul\":7958:7976   */\n      add\n        /* \"#utility.yul\":7950:7976   */\n      swap1\n      pop\n        /* \"#utility.yul\":7986:8057   */\n      tag_502\n        /* \"#utility.yul\":8054:8055   */\n      0x00\n        /* \"#utility.yul\":8043:8052   */\n      dup4\n        /* \"#utility.yul\":8039:8056   */\n      add\n        /* \"#utility.yul\":8030:8036   */\n      dup7\n        /* \"#utility.yul\":7986:8057   */\n      tag_329\n      jump\t// in\n    tag_502:\n        /* \"#utility.yul\":8067:8139   */\n      tag_503\n        /* \"#utility.yul\":8135:8137   */\n      0x20\n        /* \"#utility.yul\":8124:8133   */\n      dup4\n        /* \"#utility.yul\":8120:8138   */\n      add\n        /* \"#utility.yul\":8111:8117   */\n      dup6\n        /* \"#utility.yul\":8067:8139   */\n      tag_312\n      jump\t// in\n    tag_503:\n        /* \"#utility.yul\":8149:8221   */\n      tag_504\n        /* \"#utility.yul\":8217:8219   */\n      0x40\n        /* \"#utility.yul\":8206:8215   */\n      dup4\n        /* \"#utility.yul\":8202:8220   */\n      add\n        /* \"#utility.yul\":8193:8199   */\n      dup5\n        /* \"#utility.yul\":8149:8221   */\n      tag_312\n      jump\t// in\n    tag_504:\n        /* \"#utility.yul\":7786:8228   */\n      swap5\n      swap4\n      pop\n      pop\n      pop\n      pop\n      jump\t// out\n        /* \"#utility.yul\":8234:8339   */\n    tag_332:\n        /* \"#utility.yul\":8300:8306   */\n      0x00\n        /* \"#utility.yul\":8328:8332   */\n      0x0a\n        /* \"#utility.yul\":8318:8332   */\n      swap1\n      pop\n        /* \"#utility.yul\":8234:8339   */\n      swap2\n      swap1\n      pop\n      jump\t// out\n        /* \"#utility.yul\":8345:8489   */\n    tag_333:\n        /* \"#utility.yul\":8443:8454   */\n      0x00\n        /* \"#utility.yul\":8480:8483   */\n      dup2\n        /* \"#utility.yul\":8465:8483   */\n      swap1\n      pop\n        /* \"#utility.yul\":8345:8489   */\n      swap3\n      swap2\n      pop\n      pop\n      jump\t// out\n        /* \"#utility.yul\":8495:8594   */\n    tag_334:\n        /* \"#utility.yul\":8561:8565   */\n      0x00\n        /* \"#utility.yul\":8584:8587   */\n      dup2\n        /* \"#utility.yul\":8576:8587   */\n      swap1\n      pop\n        /* \"#utility.yul\":8495:8594   */\n      swap2\n      swap1\n      pop\n      jump\t// out\n        /* \"#utility.yul\":8600:8708   */\n    tag_335:\n        /* \"#utility.yul\":8677:8701   */\n      tag_509\n        /* \"#utility.yul\":8695:8700   */\n      dup2\n        /* \"#utility.yul\":8677:8701   */\n      tag_311\n      jump\t// in\n    tag_509:\n        /* \"#utility.yul\":8672:8675   */\n      dup3\n        /* \"#utility.yul\":8665:8702   */\n      mstore\n        /* \"#utility.yul\":8600:8708   */\n      pop\n      pop\n      jump\t// out\n        /* \"#utility.yul\":8714:8893   */\n    tag_336:\n        /* \"#utility.yul\":8783:8793   */\n      0x00\n        /* \"#utility.yul\":8804:8850   */\n      tag_511\n        /* \"#utility.yul\":8846:8849   */\n      dup4\n        /* \"#utility.yul\":8838:8844   */\n      dup4\n        /* \"#utility.yul\":8804:8850   */\n      tag_335\n      jump\t// in\n    tag_511:\n        /* \"#utility.yul\":8882:8886   */\n      0x20\n        /* \"#utility.yul\":8877:8880   */\n      dup4\n        /* \"#utility.yul\":8873:8887   */\n      add\n        /* \"#utility.yul\":8859:8887   */\n      swap1\n      pop\n        /* \"#utility.yul\":8714:8893   */\n      swap3\n      swap2\n      pop\n      pop\n      jump\t// out\n        /* \"#utility.yul\":8899:9011   */\n    tag_337:\n        /* \"#utility.yul\":8968:8972   */\n      0x00\n        /* \"#utility.yul\":9000:9004   */\n      0x20\n        /* \"#utility.yul\":8995:8998   */\n      dup3\n        /* \"#utility.yul\":8991:9005   */\n      add\n        /* \"#utility.yul\":8983:9005   */\n      swap1\n      pop\n        /* \"#utility.yul\":8899:9011   */\n      swap2\n      swap1\n      pop\n      jump\t// out\n        /* \"#utility.yul\":9051:9751   */\n    tag_338:\n        /* \"#utility.yul\":9189:9242   */\n      tag_514\n        /* \"#utility.yul\":9236:9241   */\n      dup2\n        /* \"#utility.yul\":9189:9242   */\n      tag_332\n      jump\t// in\n    tag_514:\n        /* \"#utility.yul\":9258:9343   */\n      tag_515\n        /* \"#utility.yul\":9336:9342   */\n      dup2\n        /* \"#utility.yul\":9331:9334   */\n      dup5\n        /* \"#utility.yul\":9258:9343   */\n      tag_333\n      jump\t// in\n    tag_515:\n        /* \"#utility.yul\":9251:9343   */\n      swap3\n      pop\n        /* \"#utility.yul\":9367:9422   */\n      tag_516\n        /* \"#utility.yul\":9416:9421   */\n      dup3\n        /* \"#utility.yul\":9367:9422   */\n      tag_334\n      jump\t// in\n    tag_516:\n        /* \"#utility.yul\":9445:9452   */\n      dup1\n        /* \"#utility.yul\":9476:9477   */\n      0x00\n        /* \"#utility.yul\":9461:9744   */\n    tag_517:\n        /* \"#utility.yul\":9486:9492   */\n      dup4\n        /* \"#utility.yul\":9483:9484   */\n      dup2\n        /* \"#utility.yul\":9480:9493   */\n      lt\n        /* \"#utility.yul\":9461:9744   */\n      iszero\n      tag_519\n      jumpi\n        /* \"#utility.yul\":9562:9568   */\n      dup2\n        /* \"#utility.yul\":9556:9569   */\n      mload\n        /* \"#utility.yul\":9589:9652   */\n      tag_520\n        /* \"#utility.yul\":9648:9651   */\n      dup8\n        /* \"#utility.yul\":9633:9646   */\n      dup3\n        /* \"#utility.yul\":9589:9652   */\n      tag_336\n      jump\t// in\n    tag_520:\n        /* \"#utility.yul\":9582:9652   */\n      swap7\n      pop\n        /* \"#utility.yul\":9675:9734   */\n      tag_521\n        /* \"#utility.yul\":9727:9733   */\n      dup4\n        /* \"#utility.yul\":9675:9734   */\n      tag_337\n      jump\t// in\n    tag_521:\n        /* \"#utility.yul\":9665:9734   */\n      swap3\n      pop\n        /* \"#utility.yul\":9521:9744   */\n      pop\n        /* \"#utility.yul\":9508:9509   */\n      0x01\n        /* \"#utility.yul\":9505:9506   */\n      dup2\n        /* \"#utility.yul\":9501:9510   */\n      add\n        /* \"#utility.yul\":9496:9510   */\n      swap1\n      pop\n        /* \"#utility.yul\":9461:9744   */\n      jump(tag_517)\n    tag_519:\n        /* \"#utility.yul\":9465:9479   */\n      pop\n        /* \"#utility.yul\":9165:9751   */\n      pop\n      pop\n      pop\n        /* \"#utility.yul\":9051:9751   */\n      pop\n      pop\n      jump\t// out\n        /* \"#utility.yul\":9757:9862   */\n    tag_339:\n        /* \"#utility.yul\":9823:9829   */\n      0x00\n        /* \"#utility.yul\":9851:9855   */\n      0x0a\n        /* \"#utility.yul\":9841:9855   */\n      swap1\n      pop\n        /* \"#utility.yul\":9757:9862   */\n      swap2\n      swap1\n      pop\n      jump\t// out\n        /* \"#utility.yul\":9868:10012   */\n    tag_340:\n        /* \"#utility.yul\":9966:9977   */\n      0x00\n        /* \"#utility.yul\":10003:10006   */\n      dup2\n        /* \"#utility.yul\":9988:10006   */\n      swap1\n      pop\n        /* \"#utility.yul\":9868:10012   */\n      swap3\n      swap2\n      pop\n      pop\n      jump\t// out\n        /* \"#utility.yul\":10018:10117   */\n    tag_341:\n        /* \"#utility.yul\":10084:10088   */\n      0x00\n        /* \"#utility.yul\":10107:10110   */\n      dup2\n        /* \"#utility.yul\":10099:10110   */\n      swap1\n      pop\n        /* \"#utility.yul\":10018:10117   */\n      swap2\n      swap1\n      pop\n      jump\t// out\n        /* \"#utility.yul\":10123:10231   */\n    tag_342:\n        /* \"#utility.yul\":10200:10224   */\n      tag_526\n        /* \"#utility.yul\":10218:10223   */\n      dup2\n        /* \"#utility.yul\":10200:10224   */\n      tag_324\n      jump\t// in\n    tag_526:\n        /* \"#utility.yul\":10195:10198   */\n      dup3\n        /* \"#utility.yul\":10188:10225   */\n      mstore\n        /* \"#utility.yul\":10123:10231   */\n      pop\n      pop\n      jump\t// out\n        /* \"#utility.yul\":10237:10416   */\n    tag_343:\n        /* \"#utility.yul\":10306:10316   */\n      0x00\n        /* \"#utility.yul\":10327:10373   */\n      tag_528\n        /* \"#utility.yul\":10369:10372   */\n      dup4\n        /* \"#utility.yul\":10361:10367   */\n      dup4\n        /* \"#utility.yul\":10327:10373   */\n      tag_342\n      jump\t// in\n    tag_528:\n        /* \"#utility.yul\":10405:10409   */\n      0x20\n        /* \"#utility.yul\":10400:10403   */\n      dup4\n        /* \"#utility.yul\":10396:10410   */\n      add\n        /* \"#utility.yul\":10382:10410   */\n      swap1\n      pop\n        /* \"#utility.yul\":10237:10416   */\n      swap3\n      swap2\n      pop\n      pop\n      jump\t// out\n        /* \"#utility.yul\":10422:10534   */\n    tag_344:\n        /* \"#utility.yul\":10491:10495   */\n      0x00\n        /* \"#utility.yul\":10523:10527   */\n      0x20\n        /* \"#utility.yul\":10518:10521   */\n      dup3\n        /* \"#utility.yul\":10514:10528   */\n      add\n        /* \"#utility.yul\":10506:10528   */\n      swap1\n      pop\n        /* \"#utility.yul\":10422:10534   */\n      swap2\n      swap1\n      pop\n      jump\t// out\n        /* \"#utility.yul\":10574:11274   */\n    tag_345:\n        /* \"#utility.yul\":10712:10765   */\n      tag_531\n        /* \"#utility.yul\":10759:10764   */\n      dup2\n        /* \"#utility.yul\":10712:10765   */\n      tag_339\n      jump\t// in\n    tag_531:\n        /* \"#utility.yul\":10781:10866   */\n      tag_532\n        /* \"#utility.yul\":10859:10865   */\n      dup2\n        /* \"#utility.yul\":10854:10857   */\n      dup5\n        /* \"#utility.yul\":10781:10866   */\n      tag_340\n      jump\t// in\n    tag_532:\n        /* \"#utility.yul\":10774:10866   */\n      swap3\n      pop\n        /* \"#utility.yul\":10890:10945   */\n      tag_533\n        /* \"#utility.yul\":10939:10944   */\n      dup3\n        /* \"#utility.yul\":10890:10945   */\n      tag_341\n      jump\t// in\n    tag_533:\n        /* \"#utility.yul\":10968:10975   */\n      dup1\n        /* \"#utility.yul\":10999:11000   */\n      0x00\n        /* \"#utility.yul\":10984:11267   */\n    tag_534:\n        /* \"#utility.yul\":11009:11015   */\n      dup4\n        /* \"#utility.yul\":11006:11007   */\n      dup2\n        /* \"#utility.yul\":11003:11016   */\n      lt\n        /* \"#utility.yul\":10984:11267   */\n      iszero\n      tag_536\n      jumpi\n        /* \"#utility.yul\":11085:11091   */\n      dup2\n        /* \"#utility.yul\":11079:11092   */\n      mload\n        /* \"#utility.yul\":11112:11175   */\n      tag_537\n        /* \"#utility.yul\":11171:11174   */\n      dup8\n        /* \"#utility.yul\":11156:11169   */\n      dup3\n        /* \"#utility.yul\":11112:11175   */\n      tag_343\n      jump\t// in\n    tag_537:\n        /* \"#utility.yul\":11105:11175   */\n      swap7\n      pop\n        /* \"#utility.yul\":11198:11257   */\n      tag_538\n        /* \"#utility.yul\":11250:11256   */\n      dup4\n        /* \"#utility.yul\":11198:11257   */\n      tag_344\n      jump\t// in\n    tag_538:\n        /* \"#utility.yul\":11188:11257   */\n      swap3\n      pop\n        /* \"#utility.yul\":11044:11267   */\n      pop\n        /* \"#utility.yul\":11031:11032   */\n      0x01\n        /* \"#utility.yul\":11028:11029   */\n      dup2\n        /* \"#utility.yul\":11024:11033   */\n      add\n        /* \"#utility.yul\":11019:11033   */\n      swap1\n      pop\n        /* \"#utility.yul\":10984:11267   */\n      jump(tag_534)\n    tag_536:\n        /* \"#utility.yul\":10988:11002   */\n      pop\n        /* \"#utility.yul\":10688:11274   */\n      pop\n      pop\n      pop\n        /* \"#utility.yul\":10574:11274   */\n      pop\n      pop\n      jump\t// out\n        /* \"#utility.yul\":11280:12013   */\n    tag_79:\n        /* \"#utility.yul\":11573:11577   */\n      0x00\n        /* \"#utility.yul\":11611:11614   */\n      0x03c0\n        /* \"#utility.yul\":11600:11609   */\n      dup3\n        /* \"#utility.yul\":11596:11615   */\n      add\n        /* \"#utility.yul\":11588:11615   */\n      swap1\n      pop\n        /* \"#utility.yul\":11625:11744   */\n      tag_540\n        /* \"#utility.yul\":11741:11742   */\n      0x00\n        /* \"#utility.yul\":11730:11739   */\n      dup4\n        /* \"#utility.yul\":11726:11743   */\n      add\n        /* \"#utility.yul\":11717:11723   */\n      dup7\n        /* \"#utility.yul\":11625:11744   */\n      tag_338\n      jump\t// in\n    tag_540:\n        /* \"#utility.yul\":11754:11875   */\n      tag_541\n        /* \"#utility.yul\":11870:11873   */\n      0x0140\n        /* \"#utility.yul\":11859:11868   */\n      dup4\n        /* \"#utility.yul\":11855:11874   */\n      add\n        /* \"#utility.yul\":11846:11852   */\n      dup6\n        /* \"#utility.yul\":11754:11875   */\n      tag_338\n      jump\t// in\n    tag_541:\n        /* \"#utility.yul\":11885:12006   */\n      tag_542\n        /* \"#utility.yul\":12001:12004   */\n      0x0280\n        /* \"#utility.yul\":11990:11999   */\n      dup4\n        /* \"#utility.yul\":11986:12005   */\n      add\n        /* \"#utility.yul\":11977:11983   */\n      dup5\n        /* \"#utility.yul\":11885:12006   */\n      tag_345\n      jump\t// in\n    tag_542:\n        /* \"#utility.yul\":11280:12013   */\n      swap5\n      swap4\n      pop\n      pop\n      pop\n      pop\n      jump\t// out\n        /* \"#utility.yul\":12019:12348   */\n    tag_90:\n        /* \"#utility.yul\":12078:12084   */\n      0x00\n        /* \"#utility.yul\":12127:12129   */\n      0x20\n        /* \"#utility.yul\":12115:12124   */\n      dup3\n        /* \"#utility.yul\":12106:12113   */\n      dup5\n        /* \"#utility.yul\":12102:12125   */\n      sub\n        /* \"#utility.yul\":12098:12130   */\n      slt\n        /* \"#utility.yul\":12095:12214   */\n      iszero\n      tag_544\n      jumpi\n        /* \"#utility.yul\":12133:12212   */\n      tag_545\n      tag_304\n      jump\t// in\n    tag_545:\n        /* \"#utility.yul\":12095:12214   */\n    tag_544:\n        /* \"#utility.yul\":12253:12254   */\n      0x00\n        /* \"#utility.yul\":12278:12331   */\n      tag_546\n        /* \"#utility.yul\":12323:12330   */\n      dup5\n        /* \"#utility.yul\":12314:12320   */\n      dup3\n        /* \"#utility.yul\":12303:12312   */\n      dup6\n        /* \"#utility.yul\":12299:12321   */\n      add\n        /* \"#utility.yul\":12278:12331   */\n      tag_326\n      jump\t// in\n    tag_546:\n        /* \"#utility.yul\":12268:12331   */\n      swap2\n      pop\n        /* \"#utility.yul\":12224:12341   */\n      pop\n        /* \"#utility.yul\":12019:12348   */\n      swap3\n      swap2\n      pop\n      pop\n      jump\t// out\n        /* \"#utility.yul\":12354:12523   */\n    tag_346:\n        /* \"#utility.yul\":12438:12449   */\n      0x00\n        /* \"#utility.yul\":12472:12478   */\n      dup3\n        /* \"#utility.yul\":12467:12470   */\n      dup3\n        /* \"#utility.yul\":12460:12479   */\n      mstore\n        /* \"#utility.yul\":12512:12516   */\n      0x20\n        /* \"#utility.yul\":12507:12510   */\n      dup3\n        /* \"#utility.yul\":12503:12517   */\n      add\n        /* \"#utility.yul\":12488:12517   */\n      swap1\n      pop\n        /* \"#utility.yul\":12354:12523   */\n      swap3\n      swap2\n      pop\n      pop\n      jump\t// out\n        /* \"#utility.yul\":12529:12704   */\n    tag_347:\n        /* \"#utility.yul\":12669:12696   */\n      0x72656365697665724c697374206973206e6f742076616c696400000000000000\n        /* \"#utility.yul\":12665:12666   */\n      0x00\n        /* \"#utility.yul\":12657:12663   */\n      dup3\n        /* \"#utility.yul\":12653:12667   */\n      add\n        /* \"#utility.yul\":12646:12697   */\n      mstore\n        /* \"#utility.yul\":12529:12704   */\n      pop\n      jump\t// out\n        /* \"#utility.yul\":12710:13076   */\n    tag_348:\n        /* \"#utility.yul\":12852:12855   */\n      0x00\n        /* \"#utility.yul\":12873:12940   */\n      tag_550\n        /* \"#utility.yul\":12937:12939   */\n      0x19\n        /* \"#utility.yul\":12932:12935   */\n      dup4\n        /* \"#utility.yul\":12873:12940   */\n      tag_346\n      jump\t// in\n    tag_550:\n        /* \"#utility.yul\":12866:12940   */\n      swap2\n      pop\n        /* \"#utility.yul\":12949:13042   */\n      tag_551\n        /* \"#utility.yul\":13038:13041   */\n      dup3\n        /* \"#utility.yul\":12949:13042   */\n      tag_347\n      jump\t// in\n    tag_551:\n        /* \"#utility.yul\":13067:13069   */\n      0x20\n        /* \"#utility.yul\":13062:13065   */\n      dup3\n        /* \"#utility.yul\":13058:13070   */\n      add\n        /* \"#utility.yul\":13051:13070   */\n      swap1\n      pop\n        /* \"#utility.yul\":12710:13076   */\n      swap2\n      swap1\n      pop\n      jump\t// out\n        /* \"#utility.yul\":13082:13501   */\n    tag_102:\n        /* \"#utility.yul\":13248:13252   */\n      0x00\n        /* \"#utility.yul\":13286:13288   */\n      0x20\n        /* \"#utility.yul\":13275:13284   */\n      dup3\n        /* \"#utility.yul\":13271:13289   */\n      add\n        /* \"#utility.yul\":13263:13289   */\n      swap1\n      pop\n        /* \"#utility.yul\":13335:13344   */\n      dup2\n        /* \"#utility.yul\":13329:13333   */\n      dup2\n        /* \"#utility.yul\":13325:13345   */\n      sub\n        /* \"#utility.yul\":13321:13322   */\n      0x00\n        /* \"#utility.yul\":13310:13319   */\n      dup4\n        /* \"#utility.yul\":13306:13323   */\n      add\n        /* \"#utility.yul\":13299:13346   */\n      mstore\n        /* \"#utility.yul\":13363:13494   */\n      tag_553\n        /* \"#utility.yul\":13489:13493   */\n      dup2\n        /* \"#utility.yul\":13363:13494   */\n      tag_348\n      jump\t// in\n    tag_553:\n        /* \"#utility.yul\":13355:13494   */\n      swap1\n      pop\n        /* \"#utility.yul\":13082:13501   */\n      swap2\n      swap1\n      pop\n      jump\t// out\n        /* \"#utility.yul\":13507:13687   */\n    tag_108:\n        /* \"#utility.yul\":13555:13632   */\n      0x4e487b7100000000000000000000000000000000000000000000000000000000\n        /* \"#utility.yul\":13552:13553   */\n      0x00\n        /* \"#utility.yul\":13545:13633   */\n      mstore\n        /* \"#utility.yul\":13652:13656   */\n      0x32\n        /* \"#utility.yul\":13649:13650   */\n      0x04\n        /* \"#utility.yul\":13642:13657   */\n      mstore\n        /* \"#utility.yul\":13676:13680   */\n      0x24\n        /* \"#utility.yul\":13673:13674   */\n      0x00\n        /* \"#utility.yul\":13666:13681   */\n      revert\n        /* \"#utility.yul\":13693:13873   */\n    tag_349:\n        /* \"#utility.yul\":13741:13818   */\n      0x4e487b7100000000000000000000000000000000000000000000000000000000\n        /* \"#utility.yul\":13738:13739   */\n      0x00\n        /* \"#utility.yul\":13731:13819   */\n      mstore\n        /* \"#utility.yul\":13838:13842   */\n      0x11\n        /* \"#utility.yul\":13835:13836   */\n      0x04\n        /* \"#utility.yul\":13828:13843   */\n      mstore\n        /* \"#utility.yul\":13862:13866   */\n      0x24\n        /* \"#utility.yul\":13859:13860   */\n      0x00\n        /* \"#utility.yul\":13852:13867   */\n      revert\n        /* \"#utility.yul\":13879:14112   */\n    tag_113:\n        /* \"#utility.yul\":13918:13921   */\n      0x00\n        /* \"#utility.yul\":13941:13965   */\n      tag_557\n        /* \"#utility.yul\":13959:13964   */\n      dup3\n        /* \"#utility.yul\":13941:13965   */\n      tag_311\n      jump\t// in\n    tag_557:\n        /* \"#utility.yul\":13932:13965   */\n      swap2\n      pop\n        /* \"#utility.yul\":13987:14053   */\n      0xffffffffffffffffffffffffffffffffffffffffffffffffffffffffffffffff\n        /* \"#utility.yul\":13980:13985   */\n      dup3\n        /* \"#utility.yul\":13977:14054   */\n      sub\n        /* \"#utility.yul\":13974:14077   */\n      tag_558\n      jumpi\n        /* \"#utility.yul\":14057:14075   */\n      tag_559\n      tag_349\n      jump\t// in\n    tag_559:\n        /* \"#utility.yul\":13974:14077   */\n    tag_558:\n        /* \"#utility.yul\":14104:14105   */\n      0x01\n        /* \"#utility.yul\":14097:14102   */\n      dup3\n        /* \"#utility.yul\":14093:14106   */\n      add\n        /* \"#utility.yul\":14086:14106   */\n      swap1\n      pop\n        /* \"#utility.yul\":13879:14112   */\n      swap2\n      swap1\n      pop\n      jump\t// out\n        /* \"#utility.yul\":14118:14290   */\n    tag_350:\n        /* \"#utility.yul\":14258:14282   */\n      0x4d7573742062652070726f706f736564206f776e657200000000000000000000\n        /* \"#utility.yul\":14254:14255   */\n      0x00\n        /* \"#utility.yul\":14246:14252   */\n      dup3\n        /* \"#utility.yul\":14242:14256   */\n      add\n        /* \"#utility.yul\":14235:14283   */\n      mstore\n        /* \"#utility.yul\":14118:14290   */\n      pop\n      jump\t// out\n        /* \"#utility.yul\":14296:14662   */\n    tag_351:\n        /* \"#utility.yul\":14438:14441   */\n      0x00\n        /* \"#utility.yul\":14459:14526   */\n      tag_562\n        /* \"#utility.yul\":14523:14525   */\n      0x16\n        /* \"#utility.yul\":14518:14521   */\n      dup4\n        /* \"#utility.yul\":14459:14526   */\n      tag_346\n      jump\t// in\n    tag_562:\n        /* \"#utility.yul\":14452:14526   */\n      swap2\n      pop\n        /* \"#utility.yul\":14535:14628   */\n      tag_563\n        /* \"#utility.yul\":14624:14627   */\n      dup3\n        /* \"#utility.yul\":14535:14628   */\n      tag_350\n      jump\t// in\n    tag_563:\n        /* \"#utility.yul\":14653:14655   */\n      0x20\n        /* \"#utility.yul\":14648:14651   */\n      dup3\n        /* \"#utility.yul\":14644:14656   */\n      add\n        /* \"#utility.yul\":14637:14656   */\n      swap1\n      pop\n        /* \"#utility.yul\":14296:14662   */\n      swap2\n      swap1\n      pop\n      jump\t// out\n        /* \"#utility.yul\":14668:15087   */\n    tag_119:\n        /* \"#utility.yul\":14834:14838   */\n      0x00\n        /* \"#utility.yul\":14872:14874   */\n      0x20\n        /* \"#utility.yul\":14861:14870   */\n      dup3\n        /* \"#utility.yul\":14857:14875   */\n      add\n        /* \"#utility.yul\":14849:14875   */\n      swap1\n      pop\n        /* \"#utility.yul\":14921:14930   */\n      dup2\n        /* \"#utility.yul\":14915:14919   */\n      dup2\n        /* \"#utility.yul\":14911:14931   */\n      sub\n        /* \"#utility.yul\":14907:14908   */\n      0x00\n        /* \"#utility.yul\":14896:14905   */\n      dup4\n        /* \"#utility.yul\":14892:14909   */\n      add\n        /* \"#utility.yul\":14885:14932   */\n      mstore\n        /* \"#utility.yul\":14949:15080   */\n      tag_565\n        /* \"#utility.yul\":15075:15079   */\n      dup2\n        /* \"#utility.yul\":14949:15080   */\n      tag_351\n      jump\t// in\n    tag_565:\n        /* \"#utility.yul\":14941:15080   */\n      swap1\n      pop\n        /* \"#utility.yul\":14668:15087   */\n      swap2\n      swap1\n      pop\n      jump\t// out\n        /* \"#utility.yul\":15093:15210   */\n    tag_352:\n        /* \"#utility.yul\":15202:15203   */\n      0x00\n        /* \"#utility.yul\":15199:15200   */\n      dup1\n        /* \"#utility.yul\":15192:15204   */\n      revert\n        /* \"#utility.yul\":15216:15333   */\n    tag_353:\n        /* \"#utility.yul\":15325:15326   */\n      0x00\n        /* \"#utility.yul\":15322:15323   */\n      dup1\n        /* \"#utility.yul\":15315:15327   */\n      revert\n        /* \"#utility.yul\":15339:15416   */\n    tag_354:\n        /* \"#utility.yul\":15376:15383   */\n      0x00\n        /* \"#utility.yul\":15405:15410   */\n      dup2\n        /* \"#utility.yul\":15394:15410   */\n      swap1\n      pop\n        /* \"#utility.yul\":15339:15416   */\n      swap2\n      swap1\n      pop\n      jump\t// out\n        /* \"#utility.yul\":15422:15544   */\n    tag_355:\n        /* \"#utility.yul\":15495:15519   */\n      tag_570\n        /* \"#utility.yul\":15513:15518   */\n      dup2\n        /* \"#utility.yul\":15495:15519   */\n      tag_354\n      jump\t// in\n    tag_570:\n        /* \"#utility.yul\":15488:15493   */\n      dup2\n        /* \"#utility.yul\":15485:15520   */\n      eq\n        /* \"#utility.yul\":15475:15538   */\n      tag_571\n      jumpi\n        /* \"#utility.yul\":15534:15535   */\n      0x00\n        /* \"#utility.yul\":15531:15532   */\n      dup1\n        /* \"#utility.yul\":15524:15536   */\n      revert\n        /* \"#utility.yul\":15475:15538   */\n    tag_571:\n        /* \"#utility.yul\":15422:15544   */\n      pop\n      jump\t// out\n        /* \"#utility.yul\":15550:15689   */\n    tag_356:\n        /* \"#utility.yul\":15596:15601   */\n      0x00\n        /* \"#utility.yul\":15634:15640   */\n      dup2\n        /* \"#utility.yul\":15621:15641   */\n      calldataload\n        /* \"#utility.yul\":15612:15641   */\n      swap1\n      pop\n        /* \"#utility.yul\":15650:15683   */\n      tag_573\n        /* \"#utility.yul\":15677:15682   */\n      dup2\n        /* \"#utility.yul\":15650:15683   */\n      tag_355\n      jump\t// in\n    tag_573:\n        /* \"#utility.yul\":15550:15689   */\n      swap3\n      swap2\n      pop\n      pop\n      jump\t// out\n        /* \"#utility.yul\":15695:15815   */\n    tag_357:\n        /* \"#utility.yul\":15767:15790   */\n      tag_575\n        /* \"#utility.yul\":15784:15789   */\n      dup2\n        /* \"#utility.yul\":15767:15790   */\n      tag_315\n      jump\t// in\n    tag_575:\n        /* \"#utility.yul\":15760:15765   */\n      dup2\n        /* \"#utility.yul\":15757:15791   */\n      eq\n        /* \"#utility.yul\":15747:15809   */\n      tag_576\n      jumpi\n        /* \"#utility.yul\":15805:15806   */\n      0x00\n        /* \"#utility.yul\":15802:15803   */\n      dup1\n        /* \"#utility.yul\":15795:15807   */\n      revert\n        /* \"#utility.yul\":15747:15809   */\n    tag_576:\n        /* \"#utility.yul\":15695:15815   */\n      pop\n      jump\t// out\n        /* \"#utility.yul\":15821:15958   */\n    tag_358:\n        /* \"#utility.yul\":15866:15871   */\n      0x00\n        /* \"#utility.yul\":15904:15910   */\n      dup2\n        /* \"#utility.yul\":15891:15911   */\n      calldataload\n        /* \"#utility.yul\":15882:15911   */\n      swap1\n      pop\n        /* \"#utility.yul\":15920:15952   */\n      tag_578\n        /* \"#utility.yul\":15946:15951   */\n      dup2\n        /* \"#utility.yul\":15920:15952   */\n      tag_357\n      jump\t// in\n    tag_578:\n        /* \"#utility.yul\":15821:15958   */\n      swap3\n      swap2\n      pop\n      pop\n      jump\t// out\n        /* \"#utility.yul\":15964:16081   */\n    tag_359:\n        /* \"#utility.yul\":16073:16074   */\n      0x00\n        /* \"#utility.yul\":16070:16071   */\n      dup1\n        /* \"#utility.yul\":16063:16075   */\n      revert\n        /* \"#utility.yul\":16087:16394   */\n    tag_360:\n        /* \"#utility.yul\":16148:16152   */\n      0x00\n        /* \"#utility.yul\":16238:16256   */\n      0xffffffffffffffff\n        /* \"#utility.yul\":16230:16236   */\n      dup3\n        /* \"#utility.yul\":16227:16257   */\n      gt\n        /* \"#utility.yul\":16224:16280   */\n      iszero\n      tag_581\n      jumpi\n        /* \"#utility.yul\":16260:16278   */\n      tag_582\n      tag_259\n      jump\t// in\n    tag_582:\n        /* \"#utility.yul\":16224:16280   */\n    tag_581:\n        /* \"#utility.yul\":16298:16327   */\n      tag_583\n        /* \"#utility.yul\":16320:16326   */\n      dup3\n        /* \"#utility.yul\":16298:16327   */\n      tag_318\n      jump\t// in\n    tag_583:\n        /* \"#utility.yul\":16290:16327   */\n      swap1\n      pop\n        /* \"#utility.yul\":16382:16386   */\n      0x20\n        /* \"#utility.yul\":16376:16380   */\n      dup2\n        /* \"#utility.yul\":16372:16387   */\n      add\n        /* \"#utility.yul\":16364:16387   */\n      swap1\n      pop\n        /* \"#utility.yul\":16087:16394   */\n      swap2\n      swap1\n      pop\n      jump\t// out\n        /* \"#utility.yul\":16400:16546   */\n    tag_361:\n        /* \"#utility.yul\":16497:16503   */\n      dup3\n        /* \"#utility.yul\":16492:16495   */\n      dup2\n        /* \"#utility.yul\":16487:16490   */\n      dup4\n        /* \"#utility.yul\":16474:16504   */\n      calldatacopy\n        /* \"#utility.yul\":16538:16539   */\n      0x00\n        /* \"#utility.yul\":16529:16535   */\n      dup4\n        /* \"#utility.yul\":16524:16527   */\n      dup4\n        /* \"#utility.yul\":16520:16536   */\n      add\n        /* \"#utility.yul\":16513:16540   */\n      mstore\n        /* \"#utility.yul\":16400:16546   */\n      pop\n      pop\n      pop\n      jump\t// out\n        /* \"#utility.yul\":16552:16975   */\n    tag_362:\n        /* \"#utility.yul\":16629:16634   */\n      0x00\n        /* \"#utility.yul\":16654:16719   */\n      tag_586\n        /* \"#utility.yul\":16670:16718   */\n      tag_587\n        /* \"#utility.yul\":16711:16717   */\n      dup5\n        /* \"#utility.yul\":16670:16718   */\n      tag_360\n      jump\t// in\n    tag_587:\n        /* \"#utility.yul\":16654:16719   */\n      tag_320\n      jump\t// in\n    tag_586:\n        /* \"#utility.yul\":16645:16719   */\n      swap1\n      pop\n        /* \"#utility.yul\":16742:16748   */\n      dup3\n        /* \"#utility.yul\":16735:16740   */\n      dup2\n        /* \"#utility.yul\":16728:16749   */\n      mstore\n        /* \"#utility.yul\":16780:16784   */\n      0x20\n        /* \"#utility.yul\":16773:16778   */\n      dup2\n        /* \"#utility.yul\":16769:16785   */\n      add\n        /* \"#utility.yul\":16818:16821   */\n      dup5\n        /* \"#utility.yul\":16809:16815   */\n      dup5\n        /* \"#utility.yul\":16804:16807   */\n      dup5\n        /* \"#utility.yul\":16800:16816   */\n      add\n        /* \"#utility.yul\":16797:16822   */\n      gt\n        /* \"#utility.yul\":16794:16906   */\n      iszero\n      tag_588\n      jumpi\n        /* \"#utility.yul\":16825:16904   */\n      tag_589\n      tag_359\n      jump\t// in\n    tag_589:\n        /* \"#utility.yul\":16794:16906   */\n    tag_588:\n        /* \"#utility.yul\":16915:16969   */\n      tag_590\n        /* \"#utility.yul\":16962:16968   */\n      dup5\n        /* \"#utility.yul\":16957:16960   */\n      dup3\n        /* \"#utility.yul\":16952:16955   */\n      dup6\n        /* \"#utility.yul\":16915:16969   */\n      tag_361\n      jump\t// in\n    tag_590:\n        /* \"#utility.yul\":16635:16975   */\n      pop\n        /* \"#utility.yul\":16552:16975   */\n      swap4\n      swap3\n      pop\n      pop\n      pop\n      jump\t// out\n        /* \"#utility.yul\":16994:17332   */\n    tag_363:\n        /* \"#utility.yul\":17049:17054   */\n      0x00\n        /* \"#utility.yul\":17098:17101   */\n      dup3\n        /* \"#utility.yul\":17091:17095   */\n      0x1f\n        /* \"#utility.yul\":17083:17089   */\n      dup4\n        /* \"#utility.yul\":17079:17096   */\n      add\n        /* \"#utility.yul\":17075:17102   */\n      slt\n        /* \"#utility.yul\":17065:17187   */\n      tag_592\n      jumpi\n        /* \"#utility.yul\":17106:17185   */\n      tag_593\n      tag_317\n      jump\t// in\n    tag_593:\n        /* \"#utility.yul\":17065:17187   */\n    tag_592:\n        /* \"#utility.yul\":17223:17229   */\n      dup2\n        /* \"#utility.yul\":17210:17230   */\n      calldataload\n        /* \"#utility.yul\":17248:17326   */\n      tag_594\n        /* \"#utility.yul\":17322:17325   */\n      dup5\n        /* \"#utility.yul\":17314:17320   */\n      dup3\n        /* \"#utility.yul\":17307:17311   */\n      0x20\n        /* \"#utility.yul\":17299:17305   */\n      dup7\n        /* \"#utility.yul\":17295:17312   */\n      add\n        /* \"#utility.yul\":17248:17326   */\n      tag_362\n      jump\t// in\n    tag_594:\n        /* \"#utility.yul\":17239:17326   */\n      swap2\n      pop\n        /* \"#utility.yul\":17055:17332   */\n      pop\n        /* \"#utility.yul\":16994:17332   */\n      swap3\n      swap2\n      pop\n      pop\n      jump\t// out\n        /* \"#utility.yul\":17338:17680   */\n    tag_364:\n        /* \"#utility.yul\":17446:17450   */\n      0x00\n        /* \"#utility.yul\":17536:17554   */\n      0xffffffffffffffff\n        /* \"#utility.yul\":17528:17534   */\n      dup3\n        /* \"#utility.yul\":17525:17555   */\n      gt\n        /* \"#utility.yul\":17522:17578   */\n      iszero\n      tag_596\n      jumpi\n        /* \"#utility.yul\":17558:17576   */\n      tag_597\n      tag_259\n      jump\t// in\n    tag_597:\n        /* \"#utility.yul\":17522:17578   */\n    tag_596:\n        /* \"#utility.yul\":17608:17612   */\n      0x20\n        /* \"#utility.yul\":17600:17606   */\n      dup3\n        /* \"#utility.yul\":17596:17613   */\n      mul\n        /* \"#utility.yul\":17588:17613   */\n      swap1\n      pop\n        /* \"#utility.yul\":17668:17672   */\n      0x20\n        /* \"#utility.yul\":17662:17666   */\n      dup2\n        /* \"#utility.yul\":17658:17673   */\n      add\n        /* \"#utility.yul\":17650:17673   */\n      swap1\n      pop\n        /* \"#utility.yul\":17338:17680   */\n      swap2\n      swap1\n      pop\n      jump\t// out\n        /* \"#utility.yul\":17722:18305   */\n    tag_365:\n        /* \"#utility.yul\":17802:17807   */\n      0x00\n        /* \"#utility.yul\":17846:17850   */\n      0x40\n        /* \"#utility.yul\":17834:17843   */\n      dup3\n        /* \"#utility.yul\":17829:17832   */\n      dup5\n        /* \"#utility.yul\":17825:17844   */\n      sub\n        /* \"#utility.yul\":17821:17851   */\n      slt\n        /* \"#utility.yul\":17818:17935   */\n      iszero\n      tag_599\n      jumpi\n        /* \"#utility.yul\":17854:17933   */\n      tag_600\n      tag_352\n      jump\t// in\n    tag_600:\n        /* \"#utility.yul\":17818:17935   */\n    tag_599:\n        /* \"#utility.yul\":17953:17974   */\n      tag_601\n        /* \"#utility.yul\":17969:17973   */\n      0x40\n        /* \"#utility.yul\":17953:17974   */\n      tag_320\n      jump\t// in\n    tag_601:\n        /* \"#utility.yul\":17944:17974   */\n      swap1\n      pop\n        /* \"#utility.yul\":18034:18035   */\n      0x00\n        /* \"#utility.yul\":18074:18123   */\n      tag_602\n        /* \"#utility.yul\":18119:18122   */\n      dup5\n        /* \"#utility.yul\":18110:18116   */\n      dup3\n        /* \"#utility.yul\":18099:18108   */\n      dup6\n        /* \"#utility.yul\":18095:18117   */\n      add\n        /* \"#utility.yul\":18074:18123   */\n      tag_326\n      jump\t// in\n    tag_602:\n        /* \"#utility.yul\":18067:18071   */\n      0x00\n        /* \"#utility.yul\":18060:18065   */\n      dup4\n        /* \"#utility.yul\":18056:18072   */\n      add\n        /* \"#utility.yul\":18049:18124   */\n      mstore\n        /* \"#utility.yul\":17984:18135   */\n      pop\n        /* \"#utility.yul\":18196:18198   */\n      0x20\n        /* \"#utility.yul\":18237:18286   */\n      tag_603\n        /* \"#utility.yul\":18282:18285   */\n      dup5\n        /* \"#utility.yul\":18273:18279   */\n      dup3\n        /* \"#utility.yul\":18262:18271   */\n      dup6\n        /* \"#utility.yul\":18258:18280   */\n      add\n        /* \"#utility.yul\":18237:18286   */\n      tag_314\n      jump\t// in\n    tag_603:\n        /* \"#utility.yul\":18230:18234   */\n      0x20\n        /* \"#utility.yul\":18223:18228   */\n      dup4\n        /* \"#utility.yul\":18219:18235   */\n      add\n        /* \"#utility.yul\":18212:18287   */\n      mstore\n        /* \"#utility.yul\":18145:18298   */\n      pop\n        /* \"#utility.yul\":17722:18305   */\n      swap3\n      swap2\n      pop\n      pop\n      jump\t// out\n        /* \"#utility.yul\":18349:19152   */\n    tag_366:\n        /* \"#utility.yul\":18476:18481   */\n      0x00\n        /* \"#utility.yul\":18501:18613   */\n      tag_605\n        /* \"#utility.yul\":18517:18612   */\n      tag_606\n        /* \"#utility.yul\":18605:18611   */\n      dup5\n        /* \"#utility.yul\":18517:18612   */\n      tag_364\n      jump\t// in\n    tag_606:\n        /* \"#utility.yul\":18501:18613   */\n      tag_320\n      jump\t// in\n    tag_605:\n        /* \"#utility.yul\":18492:18613   */\n      swap1\n      pop\n        /* \"#utility.yul\":18633:18638   */\n      dup1\n        /* \"#utility.yul\":18662:18668   */\n      dup4\n        /* \"#utility.yul\":18655:18660   */\n      dup3\n        /* \"#utility.yul\":18648:18669   */\n      mstore\n        /* \"#utility.yul\":18696:18700   */\n      0x20\n        /* \"#utility.yul\":18689:18694   */\n      dup3\n        /* \"#utility.yul\":18685:18701   */\n      add\n        /* \"#utility.yul\":18678:18701   */\n      swap1\n      pop\n        /* \"#utility.yul\":18749:18753   */\n      0x40\n        /* \"#utility.yul\":18741:18747   */\n      dup5\n        /* \"#utility.yul\":18737:18754   */\n      mul\n        /* \"#utility.yul\":18729:18735   */\n      dup4\n        /* \"#utility.yul\":18725:18755   */\n      add\n        /* \"#utility.yul\":18778:18781   */\n      dup6\n        /* \"#utility.yul\":18770:18776   */\n      dup2\n        /* \"#utility.yul\":18767:18782   */\n      gt\n        /* \"#utility.yul\":18764:18886   */\n      iszero\n      tag_607\n      jumpi\n        /* \"#utility.yul\":18797:18876   */\n      tag_608\n      tag_322\n      jump\t// in\n    tag_608:\n        /* \"#utility.yul\":18764:18886   */\n    tag_607:\n        /* \"#utility.yul\":18912:18918   */\n      dup4\n        /* \"#utility.yul\":18895:19146   */\n    tag_609:\n        /* \"#utility.yul\":18929:18935   */\n      dup2\n        /* \"#utility.yul\":18924:18927   */\n      dup2\n        /* \"#utility.yul\":18921:18936   */\n      lt\n        /* \"#utility.yul\":18895:19146   */\n      iszero\n      tag_611\n      jumpi\n        /* \"#utility.yul\":19004:19007   */\n      dup1\n        /* \"#utility.yul\":19033:19101   */\n      tag_612\n        /* \"#utility.yul\":19097:19100   */\n      dup9\n        /* \"#utility.yul\":19085:19095   */\n      dup3\n        /* \"#utility.yul\":19033:19101   */\n      tag_365\n      jump\t// in\n    tag_612:\n        /* \"#utility.yul\":19028:19031   */\n      dup5\n        /* \"#utility.yul\":19021:19102   */\n      mstore\n        /* \"#utility.yul\":19131:19135   */\n      0x20\n        /* \"#utility.yul\":19126:19129   */\n      dup5\n        /* \"#utility.yul\":19122:19136   */\n      add\n        /* \"#utility.yul\":19115:19136   */\n      swap4\n      pop\n        /* \"#utility.yul\":18971:19146   */\n      pop\n        /* \"#utility.yul\":18955:18959   */\n      0x40\n        /* \"#utility.yul\":18950:18953   */\n      dup2\n        /* \"#utility.yul\":18946:18960   */\n      add\n        /* \"#utility.yul\":18939:18960   */\n      swap1\n      pop\n        /* \"#utility.yul\":18895:19146   */\n      jump(tag_609)\n    tag_611:\n        /* \"#utility.yul\":18899:18920   */\n      pop\n        /* \"#utility.yul\":18482:19152   */\n      pop\n      pop\n        /* \"#utility.yul\":18349:19152   */\n      swap4\n      swap3\n      pop\n      pop\n      pop\n      jump\t// out\n        /* \"#utility.yul\":19196:19628   */\n    tag_367:\n        /* \"#utility.yul\":19298:19303   */\n      0x00\n        /* \"#utility.yul\":19347:19350   */\n      dup3\n        /* \"#utility.yul\":19340:19344   */\n      0x1f\n        /* \"#utility.yul\":19332:19338   */\n      dup4\n        /* \"#utility.yul\":19328:19345   */\n      add\n        /* \"#utility.yul\":19324:19351   */\n      slt\n        /* \"#utility.yul\":19314:19436   */\n      tag_614\n      jumpi\n        /* \"#utility.yul\":19355:19434   */\n      tag_615\n      tag_317\n      jump\t// in\n    tag_615:\n        /* \"#utility.yul\":19314:19436   */\n    tag_614:\n        /* \"#utility.yul\":19472:19478   */\n      dup2\n        /* \"#utility.yul\":19459:19479   */\n      calldataload\n        /* \"#utility.yul\":19497:19622   */\n      tag_616\n        /* \"#utility.yul\":19618:19621   */\n      dup5\n        /* \"#utility.yul\":19610:19616   */\n      dup3\n        /* \"#utility.yul\":19603:19607   */\n      0x20\n        /* \"#utility.yul\":19595:19601   */\n      dup7\n        /* \"#utility.yul\":19591:19608   */\n      add\n        /* \"#utility.yul\":19497:19622   */\n      tag_366\n      jump\t// in\n    tag_616:\n        /* \"#utility.yul\":19488:19622   */\n      swap2\n      pop\n        /* \"#utility.yul\":19304:19628   */\n      pop\n        /* \"#utility.yul\":19196:19628   */\n      swap3\n      swap2\n      pop\n      pop\n      jump\t// out\n        /* \"#utility.yul\":19670:21321   */\n    tag_368:\n        /* \"#utility.yul\":19750:19755   */\n      0x00\n        /* \"#utility.yul\":19794:19798   */\n      0xa0\n        /* \"#utility.yul\":19782:19791   */\n      dup3\n        /* \"#utility.yul\":19777:19780   */\n      dup5\n        /* \"#utility.yul\":19773:19792   */\n      sub\n        /* \"#utility.yul\":19769:19799   */\n      slt\n        /* \"#utility.yul\":19766:19883   */\n      iszero\n      tag_618\n      jumpi\n        /* \"#utility.yul\":19802:19881   */\n      tag_619\n      tag_352\n      jump\t// in\n    tag_619:\n        /* \"#utility.yul\":19766:19883   */\n    tag_618:\n        /* \"#utility.yul\":19901:19922   */\n      tag_620\n        /* \"#utility.yul\":19917:19921   */\n      0xa0\n        /* \"#utility.yul\":19901:19922   */\n      tag_320\n      jump\t// in\n    tag_620:\n        /* \"#utility.yul\":19892:19922   */\n      swap1\n      pop\n        /* \"#utility.yul\":19986:19987   */\n      0x00\n        /* \"#utility.yul\":20026:20075   */\n      tag_621\n        /* \"#utility.yul\":20071:20074   */\n      dup5\n        /* \"#utility.yul\":20062:20068   */\n      dup3\n        /* \"#utility.yul\":20051:20060   */\n      dup6\n        /* \"#utility.yul\":20047:20069   */\n      add\n        /* \"#utility.yul\":20026:20075   */\n      tag_356\n      jump\t// in\n    tag_621:\n        /* \"#utility.yul\":20019:20023   */\n      0x00\n        /* \"#utility.yul\":20012:20017   */\n      dup4\n        /* \"#utility.yul\":20008:20024   */\n      add\n        /* \"#utility.yul\":20001:20076   */\n      mstore\n        /* \"#utility.yul\":19932:20087   */\n      pop\n        /* \"#utility.yul\":20161:20163   */\n      0x20\n        /* \"#utility.yul\":20202:20250   */\n      tag_622\n        /* \"#utility.yul\":20246:20249   */\n      dup5\n        /* \"#utility.yul\":20237:20243   */\n      dup3\n        /* \"#utility.yul\":20226:20235   */\n      dup6\n        /* \"#utility.yul\":20222:20244   */\n      add\n        /* \"#utility.yul\":20202:20250   */\n      tag_358\n      jump\t// in\n    tag_622:\n        /* \"#utility.yul\":20195:20199   */\n      0x20\n        /* \"#utility.yul\":20188:20193   */\n      dup4\n        /* \"#utility.yul\":20184:20200   */\n      add\n        /* \"#utility.yul\":20177:20251   */\n      mstore\n        /* \"#utility.yul\":20097:20262   */\n      pop\n        /* \"#utility.yul\":20351:20353   */\n      0x40\n        /* \"#utility.yul\":20340:20349   */\n      dup3\n        /* \"#utility.yul\":20336:20354   */\n      add\n        /* \"#utility.yul\":20323:20355   */\n      calldataload\n        /* \"#utility.yul\":20382:20400   */\n      0xffffffffffffffff\n        /* \"#utility.yul\":20374:20380   */\n      dup2\n        /* \"#utility.yul\":20371:20401   */\n      gt\n        /* \"#utility.yul\":20368:20485   */\n      iszero\n      tag_623\n      jumpi\n        /* \"#utility.yul\":20404:20483   */\n      tag_624\n      tag_353\n      jump\t// in\n    tag_624:\n        /* \"#utility.yul\":20368:20485   */\n    tag_623:\n        /* \"#utility.yul\":20524:20582   */\n      tag_625\n        /* \"#utility.yul\":20578:20581   */\n      dup5\n        /* \"#utility.yul\":20569:20575   */\n      dup3\n        /* \"#utility.yul\":20558:20567   */\n      dup6\n        /* \"#utility.yul\":20554:20576   */\n      add\n        /* \"#utility.yul\":20524:20582   */\n      tag_363\n      jump\t// in\n    tag_625:\n        /* \"#utility.yul\":20517:20521   */\n      0x40\n        /* \"#utility.yul\":20510:20515   */\n      dup4\n        /* \"#utility.yul\":20506:20522   */\n      add\n        /* \"#utility.yul\":20499:20583   */\n      mstore\n        /* \"#utility.yul\":20272:20594   */\n      pop\n        /* \"#utility.yul\":20681:20683   */\n      0x60\n        /* \"#utility.yul\":20670:20679   */\n      dup3\n        /* \"#utility.yul\":20666:20684   */\n      add\n        /* \"#utility.yul\":20653:20685   */\n      calldataload\n        /* \"#utility.yul\":20712:20730   */\n      0xffffffffffffffff\n        /* \"#utility.yul\":20704:20710   */\n      dup2\n        /* \"#utility.yul\":20701:20731   */\n      gt\n        /* \"#utility.yul\":20698:20815   */\n      iszero\n      tag_626\n      jumpi\n        /* \"#utility.yul\":20734:20813   */\n      tag_627\n      tag_353\n      jump\t// in\n    tag_627:\n        /* \"#utility.yul\":20698:20815   */\n    tag_626:\n        /* \"#utility.yul\":20854:20912   */\n      tag_628\n        /* \"#utility.yul\":20908:20911   */\n      dup5\n        /* \"#utility.yul\":20899:20905   */\n      dup3\n        /* \"#utility.yul\":20888:20897   */\n      dup6\n        /* \"#utility.yul\":20884:20906   */\n      add\n        /* \"#utility.yul\":20854:20912   */\n      tag_363\n      jump\t// in\n    tag_628:\n        /* \"#utility.yul\":20847:20851   */\n      0x60\n        /* \"#utility.yul\":20840:20845   */\n      dup4\n        /* \"#utility.yul\":20836:20852   */\n      add\n        /* \"#utility.yul\":20829:20913   */\n      mstore\n        /* \"#utility.yul\":20604:20924   */\n      pop\n        /* \"#utility.yul\":21023:21026   */\n      0x80\n        /* \"#utility.yul\":21012:21021   */\n      dup3\n        /* \"#utility.yul\":21008:21027   */\n      add\n        /* \"#utility.yul\":20995:21028   */\n      calldataload\n        /* \"#utility.yul\":21055:21073   */\n      0xffffffffffffffff\n        /* \"#utility.yul\":21047:21053   */\n      dup2\n        /* \"#utility.yul\":21044:21074   */\n      gt\n        /* \"#utility.yul\":21041:21158   */\n      iszero\n      tag_629\n      jumpi\n        /* \"#utility.yul\":21077:21156   */\n      tag_630\n      tag_353\n      jump\t// in\n    tag_630:\n        /* \"#utility.yul\":21041:21158   */\n    tag_629:\n        /* \"#utility.yul\":21197:21302   */\n      tag_631\n        /* \"#utility.yul\":21298:21301   */\n      dup5\n        /* \"#utility.yul\":21289:21295   */\n      dup3\n        /* \"#utility.yul\":21278:21287   */\n      dup6\n        /* \"#utility.yul\":21274:21296   */\n      add\n        /* \"#utility.yul\":21197:21302   */\n      tag_367\n      jump\t// in\n    tag_631:\n        /* \"#utility.yul\":21190:21194   */\n      0x80\n        /* \"#utility.yul\":21183:21188   */\n      dup4\n        /* \"#utility.yul\":21179:21195   */\n      add\n        /* \"#utility.yul\":21172:21303   */\n      mstore\n        /* \"#utility.yul\":20934:21314   */\n      pop\n        /* \"#utility.yul\":19670:21321   */\n      swap3\n      swap2\n      pop\n      pop\n      jump\t// out\n        /* \"#utility.yul\":21327:21556   */\n    tag_129:\n        /* \"#utility.yul\":21441:21450   */\n      0x00\n        /* \"#utility.yul\":21475:21549   */\n      tag_633\n        /* \"#utility.yul\":21534:21548   */\n      calldatasize\n        /* \"#utility.yul\":21527:21532   */\n      dup4\n        /* \"#utility.yul\":21475:21549   */\n      tag_368\n      jump\t// in\n    tag_633:\n        /* \"#utility.yul\":21462:21549   */\n      swap1\n      pop\n        /* \"#utility.yul\":21327:21556   */\n      swap2\n      swap1\n      pop\n      jump\t// out\n        /* \"#utility.yul\":21562:21734   */\n    tag_369:\n        /* \"#utility.yul\":21702:21726   */\n      0x4f6e6c792063616c6c61626c65206279206f776e657200000000000000000000\n        /* \"#utility.yul\":21698:21699   */\n      0x00\n        /* \"#utility.yul\":21690:21696   */\n      dup3\n        /* \"#utility.yul\":21686:21700   */\n      add\n        /* \"#utility.yul\":21679:21727   */\n      mstore\n        /* \"#utility.yul\":21562:21734   */\n      pop\n      jump\t// out\n        /* \"#utility.yul\":21740:22106   */\n    tag_370:\n        /* \"#utility.yul\":21882:21885   */\n      0x00\n        /* \"#utility.yul\":21903:21970   */\n      tag_636\n        /* \"#utility.yul\":21967:21969   */\n      0x16\n        /* \"#utility.yul\":21962:21965   */\n      dup4\n        /* \"#utility.yul\":21903:21970   */\n      tag_346\n      jump\t// in\n    tag_636:\n        /* \"#utility.yul\":21896:21970   */\n      swap2\n      pop\n        /* \"#utility.yul\":21979:22072   */\n      tag_637\n        /* \"#utility.yul\":22068:22071   */\n      dup3\n        /* \"#utility.yul\":21979:22072   */\n      tag_369\n      jump\t// in\n    tag_637:\n        /* \"#utility.yul\":22097:22099   */\n      0x20\n        /* \"#utility.yul\":22092:22095   */\n      dup3\n        /* \"#utility.yul\":22088:22100   */\n      add\n        /* \"#utility.yul\":22081:22100   */\n      swap1\n      pop\n        /* \"#utility.yul\":21740:22106   */\n      swap2\n      swap1\n      pop\n      jump\t// out\n        /* \"#utility.yul\":22112:22531   */\n    tag_188:\n        /* \"#utility.yul\":22278:22282   */\n      0x00\n        /* \"#utility.yul\":22316:22318   */\n      0x20\n        /* \"#utility.yul\":22305:22314   */\n      dup3\n        /* \"#utility.yul\":22301:22319   */\n      add\n        /* \"#utility.yul\":22293:22319   */\n      swap1\n      pop\n        /* \"#utility.yul\":22365:22374   */\n      dup2\n        /* \"#utility.yul\":22359:22363   */\n      dup2\n        /* \"#utility.yul\":22355:22375   */\n      sub\n        /* \"#utility.yul\":22351:22352   */\n      0x00\n        /* \"#utility.yul\":22340:22349   */\n      dup4\n        /* \"#utility.yul\":22336:22353   */\n      add\n        /* \"#utility.yul\":22329:22376   */\n      mstore\n        /* \"#utility.yul\":22393:22524   */\n      tag_639\n        /* \"#utility.yul\":22519:22523   */\n      dup2\n        /* \"#utility.yul\":22393:22524   */\n      tag_370\n      jump\t// in\n    tag_639:\n        /* \"#utility.yul\":22385:22524   */\n      swap1\n      pop\n        /* \"#utility.yul\":22112:22531   */\n      swap2\n      swap1\n      pop\n      jump\t// out\n        /* \"#utility.yul\":22537:22680   */\n    tag_371:\n        /* \"#utility.yul\":22594:22599   */\n      0x00\n        /* \"#utility.yul\":22625:22631   */\n      dup2\n        /* \"#utility.yul\":22619:22632   */\n      mload\n        /* \"#utility.yul\":22610:22632   */\n      swap1\n      pop\n        /* \"#utility.yul\":22641:22674   */\n      tag_641\n        /* \"#utility.yul\":22668:22673   */\n      dup2\n        /* \"#utility.yul\":22641:22674   */\n      tag_325\n      jump\t// in\n    tag_641:\n        /* \"#utility.yul\":22537:22680   */\n      swap3\n      swap2\n      pop\n      pop\n      jump\t// out\n        /* \"#utility.yul\":22686:22829   */\n    tag_372:\n        /* \"#utility.yul\":22743:22748   */\n      0x00\n        /* \"#utility.yul\":22774:22780   */\n      dup2\n        /* \"#utility.yul\":22768:22781   */\n      mload\n        /* \"#utility.yul\":22759:22781   */\n      swap1\n      pop\n        /* \"#utility.yul\":22790:22823   */\n      tag_643\n        /* \"#utility.yul\":22817:22822   */\n      dup2\n        /* \"#utility.yul\":22790:22823   */\n      tag_313\n      jump\t// in\n    tag_643:\n        /* \"#utility.yul\":22686:22829   */\n      swap3\n      swap2\n      pop\n      pop\n      jump\t// out\n        /* \"#utility.yul\":22874:23664   */\n    tag_373:\n        /* \"#utility.yul\":22962:22967   */\n      0x00\n        /* \"#utility.yul\":23006:23010   */\n      0x60\n        /* \"#utility.yul\":22994:23003   */\n      dup3\n        /* \"#utility.yul\":22989:22992   */\n      dup5\n        /* \"#utility.yul\":22985:23004   */\n      sub\n        /* \"#utility.yul\":22981:23011   */\n      slt\n        /* \"#utility.yul\":22978:23095   */\n      iszero\n      tag_645\n      jumpi\n        /* \"#utility.yul\":23014:23093   */\n      tag_646\n      tag_352\n      jump\t// in\n    tag_646:\n        /* \"#utility.yul\":22978:23095   */\n    tag_645:\n        /* \"#utility.yul\":23113:23134   */\n      tag_647\n        /* \"#utility.yul\":23129:23133   */\n      0x60\n        /* \"#utility.yul\":23113:23134   */\n      tag_320\n      jump\t// in\n    tag_647:\n        /* \"#utility.yul\":23104:23134   */\n      swap1\n      pop\n        /* \"#utility.yul\":23195:23196   */\n      0x00\n        /* \"#utility.yul\":23235:23295   */\n      tag_648\n        /* \"#utility.yul\":23291:23294   */\n      dup5\n        /* \"#utility.yul\":23282:23288   */\n      dup3\n        /* \"#utility.yul\":23271:23280   */\n      dup6\n        /* \"#utility.yul\":23267:23289   */\n      add\n        /* \"#utility.yul\":23235:23295   */\n      tag_371\n      jump\t// in\n    tag_648:\n        /* \"#utility.yul\":23228:23232   */\n      0x00\n        /* \"#utility.yul\":23221:23226   */\n      dup4\n        /* \"#utility.yul\":23217:23233   */\n      add\n        /* \"#utility.yul\":23210:23296   */\n      mstore\n        /* \"#utility.yul\":23144:23307   */\n      pop\n        /* \"#utility.yul\":23366:23368   */\n      0x20\n        /* \"#utility.yul\":23407:23467   */\n      tag_649\n        /* \"#utility.yul\":23463:23466   */\n      dup5\n        /* \"#utility.yul\":23454:23460   */\n      dup3\n        /* \"#utility.yul\":23443:23452   */\n      dup6\n        /* \"#utility.yul\":23439:23461   */\n      add\n        /* \"#utility.yul\":23407:23467   */\n      tag_372\n      jump\t// in\n    tag_649:\n        /* \"#utility.yul\":23400:23404   */\n      0x20\n        /* \"#utility.yul\":23393:23398   */\n      dup4\n        /* \"#utility.yul\":23389:23405   */\n      add\n        /* \"#utility.yul\":23382:23468   */\n      mstore\n        /* \"#utility.yul\":23317:23479   */\n      pop\n        /* \"#utility.yul\":23544:23546   */\n      0x40\n        /* \"#utility.yul\":23585:23645   */\n      tag_650\n        /* \"#utility.yul\":23641:23644   */\n      dup5\n        /* \"#utility.yul\":23632:23638   */\n      dup3\n        /* \"#utility.yul\":23621:23630   */\n      dup6\n        /* \"#utility.yul\":23617:23639   */\n      add\n        /* \"#utility.yul\":23585:23645   */\n      tag_372\n      jump\t// in\n    tag_650:\n        /* \"#utility.yul\":23578:23582   */\n      0x40\n        /* \"#utility.yul\":23571:23576   */\n      dup4\n        /* \"#utility.yul\":23567:23583   */\n      add\n        /* \"#utility.yul\":23560:23646   */\n      mstore\n        /* \"#utility.yul\":23489:23657   */\n      pop\n        /* \"#utility.yul\":22874:23664   */\n      swap3\n      swap2\n      pop\n      pop\n      jump\t// out\n        /* \"#utility.yul\":23670:24077   */\n    tag_191:\n        /* \"#utility.yul\":23768:23774   */\n      0x00\n        /* \"#utility.yul\":23817:23819   */\n      0x60\n        /* \"#utility.yul\":23805:23814   */\n      dup3\n        /* \"#utility.yul\":23796:23803   */\n      dup5\n        /* \"#utility.yul\":23792:23815   */\n      sub\n        /* \"#utility.yul\":23788:23820   */\n      slt\n        /* \"#utility.yul\":23785:23904   */\n      iszero\n      tag_652\n      jumpi\n        /* \"#utility.yul\":23823:23902   */\n      tag_653\n      tag_304\n      jump\t// in\n    tag_653:\n        /* \"#utility.yul\":23785:23904   */\n    tag_652:\n        /* \"#utility.yul\":23943:23944   */\n      0x00\n        /* \"#utility.yul\":23968:24060   */\n      tag_654\n        /* \"#utility.yul\":24052:24059   */\n      dup5\n        /* \"#utility.yul\":24043:24049   */\n      dup3\n        /* \"#utility.yul\":24032:24041   */\n      dup6\n        /* \"#utility.yul\":24028:24050   */\n      add\n        /* \"#utility.yul\":23968:24060   */\n      tag_373\n      jump\t// in\n    tag_654:\n        /* \"#utility.yul\":23958:24060   */\n      swap2\n      pop\n        /* \"#utility.yul\":23914:24070   */\n      pop\n        /* \"#utility.yul\":23670:24077   */\n      swap3\n      swap2\n      pop\n      pop\n      jump\t// out\n        /* \"#utility.yul\":24083:24187   */\n    tag_374:\n        /* \"#utility.yul\":24128:24135   */\n      0x00\n        /* \"#utility.yul\":24157:24181   */\n      tag_656\n        /* \"#utility.yul\":24175:24180   */\n      dup3\n        /* \"#utility.yul\":24157:24181   */\n      tag_323\n      jump\t// in\n    tag_656:\n        /* \"#utility.yul\":24146:24181   */\n      swap1\n      pop\n        /* \"#utility.yul\":24083:24187   */\n      swap2\n      swap1\n      pop\n      jump\t// out\n        /* \"#utility.yul\":24193:24331   */\n    tag_375:\n        /* \"#utility.yul\":24274:24306   */\n      tag_658\n        /* \"#utility.yul\":24300:24305   */\n      dup2\n        /* \"#utility.yul\":24274:24306   */\n      tag_374\n      jump\t// in\n    tag_658:\n        /* \"#utility.yul\":24267:24272   */\n      dup2\n        /* \"#utility.yul\":24264:24307   */\n      eq\n        /* \"#utility.yul\":24254:24325   */\n      tag_659\n      jumpi\n        /* \"#utility.yul\":24321:24322   */\n      0x00\n        /* \"#utility.yul\":24318:24319   */\n      dup1\n        /* \"#utility.yul\":24311:24323   */\n      revert\n        /* \"#utility.yul\":24254:24325   */\n    tag_659:\n        /* \"#utility.yul\":24193:24331   */\n      pop\n      jump\t// out\n        /* \"#utility.yul\":24337:24496   */\n    tag_376:\n        /* \"#utility.yul\":24402:24407   */\n      0x00\n        /* \"#utility.yul\":24433:24439   */\n      dup2\n        /* \"#utility.yul\":24427:24440   */\n      mload\n        /* \"#utility.yul\":24418:24440   */\n      swap1\n      pop\n        /* \"#utility.yul\":24449:24490   */\n      tag_661\n        /* \"#utility.yul\":24484:24489   */\n      dup2\n        /* \"#utility.yul\":24449:24490   */\n      tag_375\n      jump\t// in\n    tag_661:\n        /* \"#utility.yul\":24337:24496   */\n      swap3\n      swap2\n      pop\n      pop\n      jump\t// out\n        /* \"#utility.yul\":24502:24869   */\n    tag_194:\n        /* \"#utility.yul\":24580:24586   */\n      0x00\n        /* \"#utility.yul\":24629:24631   */\n      0x20\n        /* \"#utility.yul\":24617:24626   */\n      dup3\n        /* \"#utility.yul\":24608:24615   */\n      dup5\n        /* \"#utility.yul\":24604:24627   */\n      sub\n        /* \"#utility.yul\":24600:24632   */\n      slt\n        /* \"#utility.yul\":24597:24716   */\n      iszero\n      tag_663\n      jumpi\n        /* \"#utility.yul\":24635:24714   */\n      tag_664\n      tag_304\n      jump\t// in\n    tag_664:\n        /* \"#utility.yul\":24597:24716   */\n    tag_663:\n        /* \"#utility.yul\":24755:24756   */\n      0x00\n        /* \"#utility.yul\":24780:24852   */\n      tag_665\n        /* \"#utility.yul\":24844:24851   */\n      dup5\n        /* \"#utility.yul\":24835:24841   */\n      dup3\n        /* \"#utility.yul\":24824:24833   */\n      dup6\n        /* \"#utility.yul\":24820:24842   */\n      add\n        /* \"#utility.yul\":24780:24852   */\n      tag_376\n      jump\t// in\n    tag_665:\n        /* \"#utility.yul\":24770:24852   */\n      swap2\n      pop\n        /* \"#utility.yul\":24726:24862   */\n      pop\n        /* \"#utility.yul\":24502:24869   */\n      swap3\n      swap2\n      pop\n      pop\n      jump\t// out\n        /* \"#utility.yul\":24875:24935   */\n    tag_377:\n        /* \"#utility.yul\":24903:24906   */\n      0x00\n        /* \"#utility.yul\":24924:24929   */\n      dup2\n        /* \"#utility.yul\":24917:24929   */\n      swap1\n      pop\n        /* \"#utility.yul\":24875:24935   */\n      swap2\n      swap1\n      pop\n      jump\t// out\n        /* \"#utility.yul\":24941:25083   */\n    tag_378:\n        /* \"#utility.yul\":24991:25000   */\n      0x00\n        /* \"#utility.yul\":25024:25077   */\n      tag_668\n        /* \"#utility.yul\":25042:25076   */\n      tag_669\n        /* \"#utility.yul\":25051:25075   */\n      tag_670\n        /* \"#utility.yul\":25069:25074   */\n      dup5\n        /* \"#utility.yul\":25051:25075   */\n      tag_323\n      jump\t// in\n    tag_670:\n        /* \"#utility.yul\":25042:25076   */\n      tag_377\n      jump\t// in\n    tag_669:\n        /* \"#utility.yul\":25024:25077   */\n      tag_323\n      jump\t// in\n    tag_668:\n        /* \"#utility.yul\":25011:25077   */\n      swap1\n      pop\n        /* \"#utility.yul\":24941:25083   */\n      swap2\n      swap1\n      pop\n      jump\t// out\n        /* \"#utility.yul\":25089:25215   */\n    tag_379:\n        /* \"#utility.yul\":25139:25148   */\n      0x00\n        /* \"#utility.yul\":25172:25209   */\n      tag_672\n        /* \"#utility.yul\":25203:25208   */\n      dup3\n        /* \"#utility.yul\":25172:25209   */\n      tag_378\n      jump\t// in\n    tag_672:\n        /* \"#utility.yul\":25159:25209   */\n      swap1\n      pop\n        /* \"#utility.yul\":25089:25215   */\n      swap2\n      swap1\n      pop\n      jump\t// out\n        /* \"#utility.yul\":25221:25355   */\n    tag_380:\n        /* \"#utility.yul\":25279:25288   */\n      0x00\n        /* \"#utility.yul\":25312:25349   */\n      tag_674\n        /* \"#utility.yul\":25343:25348   */\n      dup3\n        /* \"#utility.yul\":25312:25349   */\n      tag_379\n      jump\t// in\n    tag_674:\n        /* \"#utility.yul\":25299:25349   */\n      swap1\n      pop\n        /* \"#utility.yul\":25221:25355   */\n      swap2\n      swap1\n      pop\n      jump\t// out\n        /* \"#utility.yul\":25361:25508   */\n    tag_381:\n        /* \"#utility.yul\":25456:25501   */\n      tag_676\n        /* \"#utility.yul\":25495:25500   */\n      dup2\n        /* \"#utility.yul\":25456:25501   */\n      tag_380\n      jump\t// in\n    tag_676:\n        /* \"#utility.yul\":25451:25454   */\n      dup3\n        /* \"#utility.yul\":25444:25502   */\n      mstore\n        /* \"#utility.yul\":25361:25508   */\n      pop\n      pop\n      jump\t// out\n        /* \"#utility.yul\":25514:25616   */\n    tag_382:\n        /* \"#utility.yul\":25556:25564   */\n      0x00\n        /* \"#utility.yul\":25603:25608   */\n      dup2\n        /* \"#utility.yul\":25600:25601   */\n      0x00\n        /* \"#utility.yul\":25596:25609   */\n      shr\n        /* \"#utility.yul\":25575:25609   */\n      swap1\n      pop\n        /* \"#utility.yul\":25514:25616   */\n      swap2\n      swap1\n      pop\n      jump\t// out\n        /* \"#utility.yul\":25622:25761   */\n    tag_383:\n        /* \"#utility.yul\":25672:25679   */\n      0x00\n        /* \"#utility.yul\":25712:25754   */\n      0xffffffffffffffffffffffffffffffffffffffff\n        /* \"#utility.yul\":25705:25710   */\n      dup3\n        /* \"#utility.yul\":25701:25755   */\n      and\n        /* \"#utility.yul\":25690:25755   */\n      swap1\n      pop\n        /* \"#utility.yul\":25622:25761   */\n      swap2\n      swap1\n      pop\n      jump\t// out\n        /* \"#utility.yul\":25767:25933   */\n    tag_384:\n        /* \"#utility.yul\":25836:25841   */\n      0x00\n        /* \"#utility.yul\":25861:25927   */\n      tag_680\n        /* \"#utility.yul\":25892:25926   */\n      tag_681\n        /* \"#utility.yul\":25915:25925   */\n      dup4\n        /* \"#utility.yul\":25892:25926   */\n      tag_382\n      jump\t// in\n    tag_681:\n        /* \"#utility.yul\":25861:25927   */\n      tag_383\n      jump\t// in\n    tag_680:\n        /* \"#utility.yul\":25852:25927   */\n      swap1\n      pop\n        /* \"#utility.yul\":25767:25933   */\n      swap2\n      swap1\n      pop\n      jump\t// out\n        /* \"#utility.yul\":25939:26029   */\n    tag_385:\n        /* \"#utility.yul\":25989:25996   */\n      0x00\n        /* \"#utility.yul\":26018:26023   */\n      dup2\n        /* \"#utility.yul\":26007:26023   */\n      swap1\n      pop\n        /* \"#utility.yul\":25939:26029   */\n      swap2\n      swap1\n      pop\n      jump\t// out\n        /* \"#utility.yul\":26035:26201   */\n    tag_386:\n        /* \"#utility.yul\":26104:26109   */\n      0x00\n        /* \"#utility.yul\":26129:26195   */\n      tag_684\n        /* \"#utility.yul\":26160:26194   */\n      tag_685\n        /* \"#utility.yul\":26183:26193   */\n      dup4\n        /* \"#utility.yul\":26160:26194   */\n      tag_382\n      jump\t// in\n    tag_685:\n        /* \"#utility.yul\":26129:26195   */\n      tag_385\n      jump\t// in\n    tag_684:\n        /* \"#utility.yul\":26120:26195   */\n      swap1\n      pop\n        /* \"#utility.yul\":26035:26201   */\n      swap2\n      swap1\n      pop\n      jump\t// out\n        /* \"#utility.yul\":26281:27240   */\n    tag_387:\n        /* \"#utility.yul\":26431:26435   */\n      0x60\n        /* \"#utility.yul\":26426:26429   */\n      dup3\n        /* \"#utility.yul\":26422:26436   */\n      add\n        /* \"#utility.yul\":26462:26463   */\n      0x00\n        /* \"#utility.yul\":26539:26543   */\n      dup1\n        /* \"#utility.yul\":26532:26537   */\n      dup4\n        /* \"#utility.yul\":26528:26544   */\n      add\n        /* \"#utility.yul\":26522:26545   */\n      sload\n        /* \"#utility.yul\":26509:26545   */\n      swap1\n      pop\n        /* \"#utility.yul\":26578:26633   */\n      tag_687\n        /* \"#utility.yul\":26623:26632   */\n      dup2\n        /* \"#utility.yul\":26578:26633   */\n      tag_384\n      jump\t// in\n    tag_687:\n        /* \"#utility.yul\":26646:26709   */\n      tag_688\n        /* \"#utility.yul\":26703:26707   */\n      0x00\n        /* \"#utility.yul\":26698:26701   */\n      dup7\n        /* \"#utility.yul\":26694:26708   */\n      add\n        /* \"#utility.yul\":26680:26692   */\n      dup3\n        /* \"#utility.yul\":26646:26709   */\n      tag_342\n      jump\t// in\n    tag_688:\n        /* \"#utility.yul\":26473:26719   */\n      pop\n        /* \"#utility.yul\":26793:26797   */\n      0x01\n        /* \"#utility.yul\":26786:26791   */\n      dup4\n        /* \"#utility.yul\":26782:26798   */\n      add\n        /* \"#utility.yul\":26776:26799   */\n      sload\n        /* \"#utility.yul\":26763:26799   */\n      swap1\n      pop\n        /* \"#utility.yul\":26832:26887   */\n      tag_689\n        /* \"#utility.yul\":26877:26886   */\n      dup2\n        /* \"#utility.yul\":26832:26887   */\n      tag_386\n      jump\t// in\n    tag_689:\n        /* \"#utility.yul\":26900:26963   */\n      tag_690\n        /* \"#utility.yul\":26957:26961   */\n      0x20\n        /* \"#utility.yul\":26952:26955   */\n      dup7\n        /* \"#utility.yul\":26948:26962   */\n      add\n        /* \"#utility.yul\":26934:26946   */\n      dup3\n        /* \"#utility.yul\":26900:26963   */\n      tag_335\n      jump\t// in\n    tag_690:\n        /* \"#utility.yul\":26729:26973   */\n      pop\n        /* \"#utility.yul\":27053:27057   */\n      0x02\n        /* \"#utility.yul\":27046:27051   */\n      dup4\n        /* \"#utility.yul\":27042:27058   */\n      add\n        /* \"#utility.yul\":27036:27059   */\n      sload\n        /* \"#utility.yul\":27023:27059   */\n      swap1\n      pop\n        /* \"#utility.yul\":27092:27147   */\n      tag_691\n        /* \"#utility.yul\":27137:27146   */\n      dup2\n        /* \"#utility.yul\":27092:27147   */\n      tag_386\n      jump\t// in\n    tag_691:\n        /* \"#utility.yul\":27160:27223   */\n      tag_692\n        /* \"#utility.yul\":27217:27221   */\n      0x40\n        /* \"#utility.yul\":27212:27215   */\n      dup7\n        /* \"#utility.yul\":27208:27222   */\n      add\n        /* \"#utility.yul\":27194:27206   */\n      dup3\n        /* \"#utility.yul\":27160:27223   */\n      tag_335\n      jump\t// in\n    tag_692:\n        /* \"#utility.yul\":26983:27233   */\n      pop\n        /* \"#utility.yul\":26400:27240   */\n      pop\n      pop\n        /* \"#utility.yul\":26281:27240   */\n      pop\n      pop\n      jump\t// out\n        /* \"#utility.yul\":27246:27701   */\n    tag_196:\n        /* \"#utility.yul\":27428:27432   */\n      0x00\n        /* \"#utility.yul\":27466:27469   */\n      0x80\n        /* \"#utility.yul\":27455:27464   */\n      dup3\n        /* \"#utility.yul\":27451:27470   */\n      add\n        /* \"#utility.yul\":27443:27470   */\n      swap1\n      pop\n        /* \"#utility.yul\":27480:27559   */\n      tag_694\n        /* \"#utility.yul\":27556:27557   */\n      0x00\n        /* \"#utility.yul\":27545:27554   */\n      dup4\n        /* \"#utility.yul\":27541:27558   */\n      add\n        /* \"#utility.yul\":27532:27538   */\n      dup6\n        /* \"#utility.yul\":27480:27559   */\n      tag_381\n      jump\t// in\n    tag_694:\n        /* \"#utility.yul\":27569:27694   */\n      tag_695\n        /* \"#utility.yul\":27690:27692   */\n      0x20\n        /* \"#utility.yul\":27679:27688   */\n      dup4\n        /* \"#utility.yul\":27675:27693   */\n      add\n        /* \"#utility.yul\":27666:27672   */\n      dup5\n        /* \"#utility.yul\":27569:27694   */\n      tag_387\n      jump\t// in\n    tag_695:\n        /* \"#utility.yul\":27246:27701   */\n      swap4\n      swap3\n      pop\n      pop\n      pop\n      jump\t// out\n        /* \"#utility.yul\":27707:27901   */\n    tag_199:\n        /* \"#utility.yul\":27747:27751   */\n      0x00\n        /* \"#utility.yul\":27767:27787   */\n      tag_697\n        /* \"#utility.yul\":27785:27786   */\n      dup3\n        /* \"#utility.yul\":27767:27787   */\n      tag_311\n      jump\t// in\n    tag_697:\n        /* \"#utility.yul\":27762:27787   */\n      swap2\n      pop\n        /* \"#utility.yul\":27801:27821   */\n      tag_698\n        /* \"#utility.yul\":27819:27820   */\n      dup4\n        /* \"#utility.yul\":27801:27821   */\n      tag_311\n      jump\t// in\n    tag_698:\n        /* \"#utility.yul\":27796:27821   */\n      swap3\n      pop\n        /* \"#utility.yul\":27845:27846   */\n      dup3\n        /* \"#utility.yul\":27842:27843   */\n      dup3\n        /* \"#utility.yul\":27838:27847   */\n      sub\n        /* \"#utility.yul\":27830:27847   */\n      swap1\n      pop\n        /* \"#utility.yul\":27869:27870   */\n      dup2\n        /* \"#utility.yul\":27863:27867   */\n      dup2\n        /* \"#utility.yul\":27860:27871   */\n      gt\n        /* \"#utility.yul\":27857:27894   */\n      iszero\n      tag_699\n      jumpi\n        /* \"#utility.yul\":27874:27892   */\n      tag_700\n      tag_349\n      jump\t// in\n    tag_700:\n        /* \"#utility.yul\":27857:27894   */\n    tag_699:\n        /* \"#utility.yul\":27707:27901   */\n      swap3\n      swap2\n      pop\n      pop\n      jump\t// out\n        /* \"#utility.yul\":27907:28098   */\n    tag_208:\n        /* \"#utility.yul\":27947:27950   */\n      0x00\n        /* \"#utility.yul\":27966:27986   */\n      tag_702\n        /* \"#utility.yul\":27984:27985   */\n      dup3\n        /* \"#utility.yul\":27966:27986   */\n      tag_311\n      jump\t// in\n    tag_702:\n        /* \"#utility.yul\":27961:27986   */\n      swap2\n      pop\n        /* \"#utility.yul\":28000:28020   */\n      tag_703\n        /* \"#utility.yul\":28018:28019   */\n      dup4\n        /* \"#utility.yul\":28000:28020   */\n      tag_311\n      jump\t// in\n    tag_703:\n        /* \"#utility.yul\":27995:28020   */\n      swap3\n      pop\n        /* \"#utility.yul\":28043:28044   */\n      dup3\n        /* \"#utility.yul\":28040:28041   */\n      dup3\n        /* \"#utility.yul\":28036:28045   */\n      add\n        /* \"#utility.yul\":28029:28045   */\n      swap1\n      pop\n        /* \"#utility.yul\":28064:28067   */\n      dup1\n        /* \"#utility.yul\":28061:28062   */\n      dup3\n        /* \"#utility.yul\":28058:28068   */\n      gt\n        /* \"#utility.yul\":28055:28091   */\n      iszero\n      tag_704\n      jumpi\n        /* \"#utility.yul\":28071:28089   */\n      tag_705\n      tag_349\n      jump\t// in\n    tag_705:\n        /* \"#utility.yul\":28055:28091   */\n    tag_704:\n        /* \"#utility.yul\":27907:28098   */\n      swap3\n      swap2\n      pop\n      pop\n      jump\t// out\n        /* \"#utility.yul\":28104:28284   */\n    tag_388:\n        /* \"#utility.yul\":28152:28229   */\n      0x4e487b7100000000000000000000000000000000000000000000000000000000\n        /* \"#utility.yul\":28149:28150   */\n      0x00\n        /* \"#utility.yul\":28142:28230   */\n      mstore\n        /* \"#utility.yul\":28249:28253   */\n      0x12\n        /* \"#utility.yul\":28246:28247   */\n      0x04\n        /* \"#utility.yul\":28239:28254   */\n      mstore\n        /* \"#utility.yul\":28273:28277   */\n      0x24\n        /* \"#utility.yul\":28270:28271   */\n      0x00\n        /* \"#utility.yul\":28263:28278   */\n      revert\n        /* \"#utility.yul\":28290:28475   */\n    tag_210:\n        /* \"#utility.yul\":28330:28331   */\n      0x00\n        /* \"#utility.yul\":28347:28367   */\n      tag_708\n        /* \"#utility.yul\":28365:28366   */\n      dup3\n        /* \"#utility.yul\":28347:28367   */\n      tag_311\n      jump\t// in\n    tag_708:\n        /* \"#utility.yul\":28342:28367   */\n      swap2\n      pop\n        /* \"#utility.yul\":28381:28401   */\n      tag_709\n        /* \"#utility.yul\":28399:28400   */\n      dup4\n        /* \"#utility.yul\":28381:28401   */\n      tag_311\n      jump\t// in\n    tag_709:\n        /* \"#utility.yul\":28376:28401   */\n      swap3\n      pop\n        /* \"#utility.yul\":28420:28421   */\n      dup3\n        /* \"#utility.yul\":28410:28445   */\n      tag_710\n      jumpi\n        /* \"#utility.yul\":28425:28443   */\n      tag_711\n      tag_388\n      jump\t// in\n    tag_711:\n        /* \"#utility.yul\":28410:28445   */\n    tag_710:\n        /* \"#utility.yul\":28467:28468   */\n      dup3\n        /* \"#utility.yul\":28464:28465   */\n      dup3\n        /* \"#utility.yul\":28460:28469   */\n      div\n        /* \"#utility.yul\":28455:28469   */\n      swap1\n      pop\n        /* \"#utility.yul\":28290:28475   */\n      swap3\n      swap2\n      pop\n      pop\n      jump\t// out\n        /* \"#utility.yul\":28481:28652   */\n    tag_243:\n        /* \"#utility.yul\":28520:28523   */\n      0x00\n        /* \"#utility.yul\":28543:28567   */\n      tag_713\n        /* \"#utility.yul\":28561:28566   */\n      dup3\n        /* \"#utility.yul\":28543:28567   */\n      tag_311\n      jump\t// in\n    tag_713:\n        /* \"#utility.yul\":28534:28567   */\n      swap2\n      pop\n        /* \"#utility.yul\":28589:28593   */\n      0x00\n        /* \"#utility.yul\":28582:28587   */\n      dup3\n        /* \"#utility.yul\":28579:28594   */\n      sub\n        /* \"#utility.yul\":28576:28617   */\n      tag_714\n      jumpi\n        /* \"#utility.yul\":28597:28615   */\n      tag_715\n      tag_349\n      jump\t// in\n    tag_715:\n        /* \"#utility.yul\":28576:28617   */\n    tag_714:\n        /* \"#utility.yul\":28644:28645   */\n      0x01\n        /* \"#utility.yul\":28637:28642   */\n      dup3\n        /* \"#utility.yul\":28633:28646   */\n      sub\n        /* \"#utility.yul\":28626:28646   */\n      swap1\n      pop\n        /* \"#utility.yul\":28481:28652   */\n      swap2\n      swap1\n      pop\n      jump\t// out\n        /* \"#utility.yul\":28732:29427   */\n    tag_389:\n        /* \"#utility.yul\":28885:28889   */\n      0x60\n        /* \"#utility.yul\":28880:28883   */\n      dup3\n        /* \"#utility.yul\":28876:28890   */\n      add\n        /* \"#utility.yul\":28974:28978   */\n      0x00\n        /* \"#utility.yul\":28967:28972   */\n      dup3\n        /* \"#utility.yul\":28963:28979   */\n      add\n        /* \"#utility.yul\":28957:28980   */\n      mload\n        /* \"#utility.yul\":28993:29056   */\n      tag_717\n        /* \"#utility.yul\":29050:29054   */\n      0x00\n        /* \"#utility.yul\":29045:29048   */\n      dup6\n        /* \"#utility.yul\":29041:29055   */\n      add\n        /* \"#utility.yul\":29027:29039   */\n      dup3\n        /* \"#utility.yul\":28993:29056   */\n      tag_342\n      jump\t// in\n    tag_717:\n        /* \"#utility.yul\":28900:29066   */\n      pop\n        /* \"#utility.yul\":29148:29152   */\n      0x20\n        /* \"#utility.yul\":29141:29146   */\n      dup3\n        /* \"#utility.yul\":29137:29153   */\n      add\n        /* \"#utility.yul\":29131:29154   */\n      mload\n        /* \"#utility.yul\":29167:29230   */\n      tag_718\n        /* \"#utility.yul\":29224:29228   */\n      0x20\n        /* \"#utility.yul\":29219:29222   */\n      dup6\n        /* \"#utility.yul\":29215:29229   */\n      add\n        /* \"#utility.yul\":29201:29213   */\n      dup3\n        /* \"#utility.yul\":29167:29230   */\n      tag_335\n      jump\t// in\n    tag_718:\n        /* \"#utility.yul\":29076:29240   */\n      pop\n        /* \"#utility.yul\":29328:29332   */\n      0x40\n        /* \"#utility.yul\":29321:29326   */\n      dup3\n        /* \"#utility.yul\":29317:29333   */\n      add\n        /* \"#utility.yul\":29311:29334   */\n      mload\n        /* \"#utility.yul\":29347:29410   */\n      tag_719\n        /* \"#utility.yul\":29404:29408   */\n      0x40\n        /* \"#utility.yul\":29399:29402   */\n      dup6\n        /* \"#utility.yul\":29395:29409   */\n      add\n        /* \"#utility.yul\":29381:29393   */\n      dup3\n        /* \"#utility.yul\":29347:29410   */\n      tag_335\n      jump\t// in\n    tag_719:\n        /* \"#utility.yul\":29250:29420   */\n      pop\n        /* \"#utility.yul\":28854:29427   */\n      pop\n        /* \"#utility.yul\":28732:29427   */\n      pop\n      pop\n      jump\t// out\n        /* \"#utility.yul\":29433:29767   */\n    tag_256:\n        /* \"#utility.yul\":29582:29586   */\n      0x00\n        /* \"#utility.yul\":29620:29622   */\n      0x60\n        /* \"#utility.yul\":29609:29618   */\n      dup3\n        /* \"#utility.yul\":29605:29623   */\n      add\n        /* \"#utility.yul\":29597:29623   */\n      swap1\n      pop\n        /* \"#utility.yul\":29633:29760   */\n      tag_721\n        /* \"#utility.yul\":29757:29758   */\n      0x00\n        /* \"#utility.yul\":29746:29755   */\n      dup4\n        /* \"#utility.yul\":29742:29759   */\n      add\n        /* \"#utility.yul\":29733:29739   */\n      dup5\n        /* \"#utility.yul\":29633:29760   */\n      tag_389\n      jump\t// in\n    tag_721:\n        /* \"#utility.yul\":29433:29767   */\n      swap3\n      swap2\n      pop\n      pop\n      jump\t// out\n        /* \"#utility.yul\":29773:29871   */\n    tag_390:\n        /* \"#utility.yul\":29824:29830   */\n      0x00\n        /* \"#utility.yul\":29858:29863   */\n      dup2\n        /* \"#utility.yul\":29852:29864   */\n      mload\n        /* \"#utility.yul\":29842:29864   */\n      swap1\n      pop\n        /* \"#utility.yul\":29773:29871   */\n      swap2\n      swap1\n      pop\n      jump\t// out\n        /* \"#utility.yul\":29877:30035   */\n    tag_391:\n        /* \"#utility.yul\":29950:29961   */\n      0x00\n        /* \"#utility.yul\":29984:29990   */\n      dup3\n        /* \"#utility.yul\":29979:29982   */\n      dup3\n        /* \"#utility.yul\":29972:29991   */\n      mstore\n        /* \"#utility.yul\":30024:30028   */\n      0x20\n        /* \"#utility.yul\":30019:30022   */\n      dup3\n        /* \"#utility.yul\":30015:30029   */\n      add\n        /* \"#utility.yul\":30000:30029   */\n      swap1\n      pop\n        /* \"#utility.yul\":29877:30035   */\n      swap3\n      swap2\n      pop\n      pop\n      jump\t// out\n        /* \"#utility.yul\":30041:30287   */\n    tag_392:\n        /* \"#utility.yul\":30122:30123   */\n      0x00\n        /* \"#utility.yul\":30132:30245   */\n    tag_725:\n        /* \"#utility.yul\":30146:30152   */\n      dup4\n        /* \"#utility.yul\":30143:30144   */\n      dup2\n        /* \"#utility.yul\":30140:30153   */\n      lt\n        /* \"#utility.yul\":30132:30245   */\n      iszero\n      tag_727\n      jumpi\n        /* \"#utility.yul\":30231:30232   */\n      dup1\n        /* \"#utility.yul\":30226:30229   */\n      dup3\n        /* \"#utility.yul\":30222:30233   */\n      add\n        /* \"#utility.yul\":30216:30234   */\n      mload\n        /* \"#utility.yul\":30212:30213   */\n      dup2\n        /* \"#utility.yul\":30207:30210   */\n      dup5\n        /* \"#utility.yul\":30203:30214   */\n      add\n        /* \"#utility.yul\":30196:30235   */\n      mstore\n        /* \"#utility.yul\":30168:30170   */\n      0x20\n        /* \"#utility.yul\":30165:30166   */\n      dup2\n        /* \"#utility.yul\":30161:30171   */\n      add\n        /* \"#utility.yul\":30156:30171   */\n      swap1\n      pop\n        /* \"#utility.yul\":30132:30245   */\n      jump(tag_725)\n    tag_727:\n        /* \"#utility.yul\":30279:30280   */\n      0x00\n        /* \"#utility.yul\":30270:30276   */\n      dup5\n        /* \"#utility.yul\":30265:30268   */\n      dup5\n        /* \"#utility.yul\":30261:30277   */\n      add\n        /* \"#utility.yul\":30254:30281   */\n      mstore\n        /* \"#utility.yul\":30103:30287   */\n      pop\n        /* \"#utility.yul\":30041:30287   */\n      pop\n      pop\n      pop\n      jump\t// out\n        /* \"#utility.yul\":30293:30646   */\n    tag_393:\n        /* \"#utility.yul\":30369:30372   */\n      0x00\n        /* \"#utility.yul\":30397:30435   */\n      tag_729\n        /* \"#utility.yul\":30429:30434   */\n      dup3\n        /* \"#utility.yul\":30397:30435   */\n      tag_390\n      jump\t// in\n    tag_729:\n        /* \"#utility.yul\":30451:30511   */\n      tag_730\n        /* \"#utility.yul\":30504:30510   */\n      dup2\n        /* \"#utility.yul\":30499:30502   */\n      dup6\n        /* \"#utility.yul\":30451:30511   */\n      tag_391\n      jump\t// in\n    tag_730:\n        /* \"#utility.yul\":30444:30511   */\n      swap4\n      pop\n        /* \"#utility.yul\":30520:30585   */\n      tag_731\n        /* \"#utility.yul\":30578:30584   */\n      dup2\n        /* \"#utility.yul\":30573:30576   */\n      dup6\n        /* \"#utility.yul\":30566:30570   */\n      0x20\n        /* \"#utility.yul\":30559:30564   */\n      dup7\n        /* \"#utility.yul\":30555:30571   */\n      add\n        /* \"#utility.yul\":30520:30585   */\n      tag_392\n      jump\t// in\n    tag_731:\n        /* \"#utility.yul\":30610:30639   */\n      tag_732\n        /* \"#utility.yul\":30632:30638   */\n      dup2\n        /* \"#utility.yul\":30610:30639   */\n      tag_318\n      jump\t// in\n    tag_732:\n        /* \"#utility.yul\":30605:30608   */\n      dup5\n        /* \"#utility.yul\":30601:30640   */\n      add\n        /* \"#utility.yul\":30594:30640   */\n      swap2\n      pop\n        /* \"#utility.yul\":30373:30646   */\n      pop\n        /* \"#utility.yul\":30293:30646   */\n      swap3\n      swap2\n      pop\n      pop\n      jump\t// out\n        /* \"#utility.yul\":30652:30797   */\n    tag_394:\n        /* \"#utility.yul\":30750:30756   */\n      0x00\n        /* \"#utility.yul\":30784:30789   */\n      dup2\n        /* \"#utility.yul\":30778:30790   */\n      mload\n        /* \"#utility.yul\":30768:30790   */\n      swap1\n      pop\n        /* \"#utility.yul\":30652:30797   */\n      swap2\n      swap1\n      pop\n      jump\t// out\n        /* \"#utility.yul\":30803:31008   */\n    tag_395:\n        /* \"#utility.yul\":30923:30934   */\n      0x00\n        /* \"#utility.yul\":30957:30963   */\n      dup3\n        /* \"#utility.yul\":30952:30955   */\n      dup3\n        /* \"#utility.yul\":30945:30964   */\n      mstore\n        /* \"#utility.yul\":30997:31001   */\n      0x20\n        /* \"#utility.yul\":30992:30995   */\n      dup3\n        /* \"#utility.yul\":30988:31002   */\n      add\n        /* \"#utility.yul\":30973:31002   */\n      swap1\n      pop\n        /* \"#utility.yul\":30803:31008   */\n      swap3\n      swap2\n      pop\n      pop\n      jump\t// out\n        /* \"#utility.yul\":31014:31177   */\n    tag_396:\n        /* \"#utility.yul\":31112:31116   */\n      0x00\n        /* \"#utility.yul\":31135:31138   */\n      dup2\n        /* \"#utility.yul\":31127:31138   */\n      swap1\n      pop\n        /* \"#utility.yul\":31165:31169   */\n      0x20\n        /* \"#utility.yul\":31160:31163   */\n      dup3\n        /* \"#utility.yul\":31156:31170   */\n      add\n        /* \"#utility.yul\":31148:31170   */\n      swap1\n      pop\n        /* \"#utility.yul\":31014:31177   */\n      swap2\n      swap1\n      pop\n      jump\t// out\n        /* \"#utility.yul\":31251:31763   */\n    tag_397:\n        /* \"#utility.yul\":31400:31404   */\n      0x40\n        /* \"#utility.yul\":31395:31398   */\n      dup3\n        /* \"#utility.yul\":31391:31405   */\n      add\n        /* \"#utility.yul\":31488:31492   */\n      0x00\n        /* \"#utility.yul\":31481:31486   */\n      dup3\n        /* \"#utility.yul\":31477:31493   */\n      add\n        /* \"#utility.yul\":31471:31494   */\n      mload\n        /* \"#utility.yul\":31507:31570   */\n      tag_737\n        /* \"#utility.yul\":31564:31568   */\n      0x00\n        /* \"#utility.yul\":31559:31562   */\n      dup6\n        /* \"#utility.yul\":31555:31569   */\n      add\n        /* \"#utility.yul\":31541:31553   */\n      dup3\n        /* \"#utility.yul\":31507:31570   */\n      tag_342\n      jump\t// in\n    tag_737:\n        /* \"#utility.yul\":31415:31580   */\n      pop\n        /* \"#utility.yul\":31664:31668   */\n      0x20\n        /* \"#utility.yul\":31657:31662   */\n      dup3\n        /* \"#utility.yul\":31653:31669   */\n      add\n        /* \"#utility.yul\":31647:31670   */\n      mload\n        /* \"#utility.yul\":31683:31746   */\n      tag_738\n        /* \"#utility.yul\":31740:31744   */\n      0x20\n        /* \"#utility.yul\":31735:31738   */\n      dup6\n        /* \"#utility.yul\":31731:31745   */\n      add\n        /* \"#utility.yul\":31717:31729   */\n      dup3\n        /* \"#utility.yul\":31683:31746   */\n      tag_335\n      jump\t// in\n    tag_738:\n        /* \"#utility.yul\":31590:31756   */\n      pop\n        /* \"#utility.yul\":31369:31763   */\n      pop\n        /* \"#utility.yul\":31251:31763   */\n      pop\n      pop\n      jump\t// out\n        /* \"#utility.yul\":31769:32072   */\n    tag_398:\n        /* \"#utility.yul\":31900:31910   */\n      0x00\n        /* \"#utility.yul\":31921:32029   */\n      tag_740\n        /* \"#utility.yul\":32025:32028   */\n      dup4\n        /* \"#utility.yul\":32017:32023   */\n      dup4\n        /* \"#utility.yul\":31921:32029   */\n      tag_397\n      jump\t// in\n    tag_740:\n        /* \"#utility.yul\":32061:32065   */\n      0x40\n        /* \"#utility.yul\":32056:32059   */\n      dup4\n        /* \"#utility.yul\":32052:32066   */\n      add\n        /* \"#utility.yul\":32038:32066   */\n      swap1\n      pop\n        /* \"#utility.yul\":31769:32072   */\n      swap3\n      swap2\n      pop\n      pop\n      jump\t// out\n        /* \"#utility.yul\":32078:32222   */\n    tag_399:\n        /* \"#utility.yul\":32179:32183   */\n      0x00\n        /* \"#utility.yul\":32211:32215   */\n      0x20\n        /* \"#utility.yul\":32206:32209   */\n      dup3\n        /* \"#utility.yul\":32202:32216   */\n      add\n        /* \"#utility.yul\":32194:32216   */\n      swap1\n      pop\n        /* \"#utility.yul\":32078:32222   */\n      swap2\n      swap1\n      pop\n      jump\t// out\n        /* \"#utility.yul\":32300:33260   */\n    tag_400:\n        /* \"#utility.yul\":32471:32474   */\n      0x00\n        /* \"#utility.yul\":32500:32585   */\n      tag_743\n        /* \"#utility.yul\":32579:32584   */\n      dup3\n        /* \"#utility.yul\":32500:32585   */\n      tag_394\n      jump\t// in\n    tag_743:\n        /* \"#utility.yul\":32601:32708   */\n      tag_744\n        /* \"#utility.yul\":32701:32707   */\n      dup2\n        /* \"#utility.yul\":32696:32699   */\n      dup6\n        /* \"#utility.yul\":32601:32708   */\n      tag_395\n      jump\t// in\n    tag_744:\n        /* \"#utility.yul\":32594:32708   */\n      swap4\n      pop\n        /* \"#utility.yul\":32732:32819   */\n      tag_745\n        /* \"#utility.yul\":32813:32818   */\n      dup4\n        /* \"#utility.yul\":32732:32819   */\n      tag_396\n      jump\t// in\n    tag_745:\n        /* \"#utility.yul\":32842:32849   */\n      dup1\n        /* \"#utility.yul\":32873:32874   */\n      0x00\n        /* \"#utility.yul\":32858:33235   */\n    tag_746:\n        /* \"#utility.yul\":32883:32889   */\n      dup4\n        /* \"#utility.yul\":32880:32881   */\n      dup2\n        /* \"#utility.yul\":32877:32890   */\n      lt\n        /* \"#utility.yul\":32858:33235   */\n      iszero\n      tag_748\n      jumpi\n        /* \"#utility.yul\":32959:32965   */\n      dup2\n        /* \"#utility.yul\":32953:32966   */\n      mload\n        /* \"#utility.yul\":32986:33111   */\n      tag_749\n        /* \"#utility.yul\":33107:33110   */\n      dup9\n        /* \"#utility.yul\":33092:33105   */\n      dup3\n        /* \"#utility.yul\":32986:33111   */\n      tag_398\n      jump\t// in\n    tag_749:\n        /* \"#utility.yul\":32979:33111   */\n      swap8\n      pop\n        /* \"#utility.yul\":33134:33225   */\n      tag_750\n        /* \"#utility.yul\":33218:33224   */\n      dup4\n        /* \"#utility.yul\":33134:33225   */\n      tag_399\n      jump\t// in\n    tag_750:\n        /* \"#utility.yul\":33124:33225   */\n      swap3\n      pop\n        /* \"#utility.yul\":32918:33235   */\n      pop\n        /* \"#utility.yul\":32905:32906   */\n      0x01\n        /* \"#utility.yul\":32902:32903   */\n      dup2\n        /* \"#utility.yul\":32898:32907   */\n      add\n        /* \"#utility.yul\":32893:32907   */\n      swap1\n      pop\n        /* \"#utility.yul\":32858:33235   */\n      jump(tag_746)\n    tag_748:\n        /* \"#utility.yul\":32862:32876   */\n      pop\n        /* \"#utility.yul\":33251:33254   */\n      dup6\n        /* \"#utility.yul\":33244:33254   */\n      swap4\n      pop\n        /* \"#utility.yul\":32476:33260   */\n      pop\n      pop\n      pop\n        /* \"#utility.yul\":32300:33260   */\n      swap3\n      swap2\n      pop\n      pop\n      jump\t// out\n        /* \"#utility.yul\":33334:34794   */\n    tag_401:\n        /* \"#utility.yul\":33465:33468   */\n      0x00\n        /* \"#utility.yul\":33501:33505   */\n      0xa0\n        /* \"#utility.yul\":33496:33499   */\n      dup4\n        /* \"#utility.yul\":33492:33506   */\n      add\n        /* \"#utility.yul\":33592:33596   */\n      0x00\n        /* \"#utility.yul\":33585:33590   */\n      dup4\n        /* \"#utility.yul\":33581:33597   */\n      add\n        /* \"#utility.yul\":33575:33598   */\n      mload\n        /* \"#utility.yul\":33645:33648   */\n      dup5\n        /* \"#utility.yul\":33639:33643   */\n      dup3\n        /* \"#utility.yul\":33635:33649   */\n      sub\n        /* \"#utility.yul\":33628:33632   */\n      0x00\n        /* \"#utility.yul\":33623:33626   */\n      dup7\n        /* \"#utility.yul\":33619:33633   */\n      add\n        /* \"#utility.yul\":33612:33650   */\n      mstore\n        /* \"#utility.yul\":33671:33742   */\n      tag_752\n        /* \"#utility.yul\":33737:33741   */\n      dup3\n        /* \"#utility.yul\":33723:33735   */\n      dup3\n        /* \"#utility.yul\":33671:33742   */\n      tag_393\n      jump\t// in\n    tag_752:\n        /* \"#utility.yul\":33663:33742   */\n      swap2\n      pop\n        /* \"#utility.yul\":33516:33753   */\n      pop\n        /* \"#utility.yul\":33835:33839   */\n      0x20\n        /* \"#utility.yul\":33828:33833   */\n      dup4\n        /* \"#utility.yul\":33824:33840   */\n      add\n        /* \"#utility.yul\":33818:33841   */\n      mload\n        /* \"#utility.yul\":33888:33891   */\n      dup5\n        /* \"#utility.yul\":33882:33886   */\n      dup3\n        /* \"#utility.yul\":33878:33892   */\n      sub\n        /* \"#utility.yul\":33871:33875   */\n      0x20\n        /* \"#utility.yul\":33866:33869   */\n      dup7\n        /* \"#utility.yul\":33862:33876   */\n      add\n        /* \"#utility.yul\":33855:33893   */\n      mstore\n        /* \"#utility.yul\":33914:33985   */\n      tag_753\n        /* \"#utility.yul\":33980:33984   */\n      dup3\n        /* \"#utility.yul\":33966:33978   */\n      dup3\n        /* \"#utility.yul\":33914:33985   */\n      tag_393\n      jump\t// in\n    tag_753:\n        /* \"#utility.yul\":33906:33985   */\n      swap2\n      pop\n        /* \"#utility.yul\":33763:33996   */\n      pop\n        /* \"#utility.yul\":34086:34090   */\n      0x40\n        /* \"#utility.yul\":34079:34084   */\n      dup4\n        /* \"#utility.yul\":34075:34091   */\n      add\n        /* \"#utility.yul\":34069:34092   */\n      mload\n        /* \"#utility.yul\":34139:34142   */\n      dup5\n        /* \"#utility.yul\":34133:34137   */\n      dup3\n        /* \"#utility.yul\":34129:34143   */\n      sub\n        /* \"#utility.yul\":34122:34126   */\n      0x40\n        /* \"#utility.yul\":34117:34120   */\n      dup7\n        /* \"#utility.yul\":34113:34127   */\n      add\n        /* \"#utility.yul\":34106:34144   */\n      mstore\n        /* \"#utility.yul\":34165:34330   */\n      tag_754\n        /* \"#utility.yul\":34325:34329   */\n      dup3\n        /* \"#utility.yul\":34311:34323   */\n      dup3\n        /* \"#utility.yul\":34165:34330   */\n      tag_400\n      jump\t// in\n    tag_754:\n        /* \"#utility.yul\":34157:34330   */\n      swap2\n      pop\n        /* \"#utility.yul\":34006:34341   */\n      pop\n        /* \"#utility.yul\":34427:34431   */\n      0x60\n        /* \"#utility.yul\":34420:34425   */\n      dup4\n        /* \"#utility.yul\":34416:34432   */\n      add\n        /* \"#utility.yul\":34410:34433   */\n      mload\n        /* \"#utility.yul\":34446:34509   */\n      tag_755\n        /* \"#utility.yul\":34503:34507   */\n      0x60\n        /* \"#utility.yul\":34498:34501   */\n      dup7\n        /* \"#utility.yul\":34494:34508   */\n      add\n        /* \"#utility.yul\":34480:34492   */\n      dup3\n        /* \"#utility.yul\":34446:34509   */\n      tag_342\n      jump\t// in\n    tag_755:\n        /* \"#utility.yul\":34351:34519   */\n      pop\n        /* \"#utility.yul\":34606:34610   */\n      0x80\n        /* \"#utility.yul\":34599:34604   */\n      dup4\n        /* \"#utility.yul\":34595:34611   */\n      add\n        /* \"#utility.yul\":34589:34612   */\n      mload\n        /* \"#utility.yul\":34659:34662   */\n      dup5\n        /* \"#utility.yul\":34653:34657   */\n      dup3\n        /* \"#utility.yul\":34649:34663   */\n      sub\n        /* \"#utility.yul\":34642:34646   */\n      0x80\n        /* \"#utility.yul\":34637:34640   */\n      dup7\n        /* \"#utility.yul\":34633:34647   */\n      add\n        /* \"#utility.yul\":34626:34664   */\n      mstore\n        /* \"#utility.yul\":34685:34756   */\n      tag_756\n        /* \"#utility.yul\":34751:34755   */\n      dup3\n        /* \"#utility.yul\":34737:34749   */\n      dup3\n        /* \"#utility.yul\":34685:34756   */\n      tag_393\n      jump\t// in\n    tag_756:\n        /* \"#utility.yul\":34677:34756   */\n      swap2\n      pop\n        /* \"#utility.yul\":34529:34767   */\n      pop\n        /* \"#utility.yul\":34784:34788   */\n      dup1\n        /* \"#utility.yul\":34777:34788   */\n      swap2\n      pop\n        /* \"#utility.yul\":33470:34794   */\n      pop\n        /* \"#utility.yul\":33334:34794   */\n      swap3\n      swap2\n      pop\n      pop\n      jump\t// out\n        /* \"#utility.yul\":34800:35303   */\n    tag_267:\n        /* \"#utility.yul\":34981:34985   */\n      0x00\n        /* \"#utility.yul\":35019:35021   */\n      0x40\n        /* \"#utility.yul\":35008:35017   */\n      dup3\n        /* \"#utility.yul\":35004:35022   */\n      add\n        /* \"#utility.yul\":34996:35022   */\n      swap1\n      pop\n        /* \"#utility.yul\":35032:35101   */\n      tag_758\n        /* \"#utility.yul\":35098:35099   */\n      0x00\n        /* \"#utility.yul\":35087:35096   */\n      dup4\n        /* \"#utility.yul\":35083:35100   */\n      add\n        /* \"#utility.yul\":35074:35080   */\n      dup6\n        /* \"#utility.yul\":35032:35101   */\n      tag_316\n      jump\t// in\n    tag_758:\n        /* \"#utility.yul\":35148:35157   */\n      dup2\n        /* \"#utility.yul\":35142:35146   */\n      dup2\n        /* \"#utility.yul\":35138:35158   */\n      sub\n        /* \"#utility.yul\":35133:35135   */\n      0x20\n        /* \"#utility.yul\":35122:35131   */\n      dup4\n        /* \"#utility.yul\":35118:35136   */\n      add\n        /* \"#utility.yul\":35111:35159   */\n      mstore\n        /* \"#utility.yul\":35176:35296   */\n      tag_759\n        /* \"#utility.yul\":35291:35295   */\n      dup2\n        /* \"#utility.yul\":35282:35288   */\n      dup5\n        /* \"#utility.yul\":35176:35296   */\n      tag_401\n      jump\t// in\n    tag_759:\n        /* \"#utility.yul\":35168:35296   */\n      swap1\n      pop\n        /* \"#utility.yul\":34800:35303   */\n      swap4\n      swap3\n      pop\n      pop\n      pop\n      jump\t// out\n        /* \"#utility.yul\":35309:35660   */\n    tag_271:\n        /* \"#utility.yul\":35379:35385   */\n      0x00\n        /* \"#utility.yul\":35428:35430   */\n      0x20\n        /* \"#utility.yul\":35416:35425   */\n      dup3\n        /* \"#utility.yul\":35407:35414   */\n      dup5\n        /* \"#utility.yul\":35403:35426   */\n      sub\n        /* \"#utility.yul\":35399:35431   */\n      slt\n        /* \"#utility.yul\":35396:35515   */\n      iszero\n      tag_761\n      jumpi\n        /* \"#utility.yul\":35434:35513   */\n      tag_762\n      tag_304\n      jump\t// in\n    tag_762:\n        /* \"#utility.yul\":35396:35515   */\n    tag_761:\n        /* \"#utility.yul\":35554:35555   */\n      0x00\n        /* \"#utility.yul\":35579:35643   */\n      tag_763\n        /* \"#utility.yul\":35635:35642   */\n      dup5\n        /* \"#utility.yul\":35626:35632   */\n      dup3\n        /* \"#utility.yul\":35615:35624   */\n      dup6\n        /* \"#utility.yul\":35611:35633   */\n      add\n        /* \"#utility.yul\":35579:35643   */\n      tag_372\n      jump\t// in\n    tag_763:\n        /* \"#utility.yul\":35569:35643   */\n      swap2\n      pop\n        /* \"#utility.yul\":35525:35653   */\n      pop\n        /* \"#utility.yul\":35309:35660   */\n      swap3\n      swap2\n      pop\n      pop\n      jump\t// out\n        /* \"#utility.yul\":35666:35998   */\n    tag_282:\n        /* \"#utility.yul\":35787:35791   */\n      0x00\n        /* \"#utility.yul\":35825:35827   */\n      0x40\n        /* \"#utility.yul\":35814:35823   */\n      dup3\n        /* \"#utility.yul\":35810:35828   */\n      add\n        /* \"#utility.yul\":35802:35828   */\n      swap1\n      pop\n        /* \"#utility.yul\":35838:35909   */\n      tag_765\n        /* \"#utility.yul\":35906:35907   */\n      0x00\n        /* \"#utility.yul\":35895:35904   */\n      dup4\n        /* \"#utility.yul\":35891:35908   */\n      add\n        /* \"#utility.yul\":35882:35888   */\n      dup6\n        /* \"#utility.yul\":35838:35909   */\n      tag_312\n      jump\t// in\n    tag_765:\n        /* \"#utility.yul\":35919:35991   */\n      tag_766\n        /* \"#utility.yul\":35987:35989   */\n      0x20\n        /* \"#utility.yul\":35976:35985   */\n      dup4\n        /* \"#utility.yul\":35972:35990   */\n      add\n        /* \"#utility.yul\":35963:35969   */\n      dup5\n        /* \"#utility.yul\":35919:35991   */\n      tag_312\n      jump\t// in\n    tag_766:\n        /* \"#utility.yul\":35666:35998   */\n      swap4\n      swap3\n      pop\n      pop\n      pop\n      jump\t// out\n        /* \"#utility.yul\":36004:36336   */\n    tag_284:\n        /* \"#utility.yul\":36125:36129   */\n      0x00\n        /* \"#utility.yul\":36163:36165   */\n      0x40\n        /* \"#utility.yul\":36152:36161   */\n      dup3\n        /* \"#utility.yul\":36148:36166   */\n      add\n        /* \"#utility.yul\":36140:36166   */\n      swap1\n      pop\n        /* \"#utility.yul\":36176:36247   */\n      tag_768\n        /* \"#utility.yul\":36244:36245   */\n      0x00\n        /* \"#utility.yul\":36233:36242   */\n      dup4\n        /* \"#utility.yul\":36229:36246   */\n      add\n        /* \"#utility.yul\":36220:36226   */\n      dup6\n        /* \"#utility.yul\":36176:36247   */\n      tag_329\n      jump\t// in\n    tag_768:\n        /* \"#utility.yul\":36257:36329   */\n      tag_769\n        /* \"#utility.yul\":36325:36327   */\n      0x20\n        /* \"#utility.yul\":36314:36323   */\n      dup4\n        /* \"#utility.yul\":36310:36328   */\n      add\n        /* \"#utility.yul\":36301:36307   */\n      dup5\n        /* \"#utility.yul\":36257:36329   */\n      tag_312\n      jump\t// in\n    tag_769:\n        /* \"#utility.yul\":36004:36336   */\n      swap4\n      swap3\n      pop\n      pop\n      pop\n      jump\t// out\n        /* \"#utility.yul\":36342:36458   */\n    tag_402:\n        /* \"#utility.yul\":36412:36433   */\n      tag_771\n        /* \"#utility.yul\":36427:36432   */\n      dup2\n        /* \"#utility.yul\":36412:36433   */\n      tag_309\n      jump\t// in\n    tag_771:\n        /* \"#utility.yul\":36405:36410   */\n      dup2\n        /* \"#utility.yul\":36402:36434   */\n      eq\n        /* \"#utility.yul\":36392:36452   */\n      tag_772\n      jumpi\n        /* \"#utility.yul\":36448:36449   */\n      0x00\n        /* \"#utility.yul\":36445:36446   */\n      dup1\n        /* \"#utility.yul\":36438:36450   */\n      revert\n        /* \"#utility.yul\":36392:36452   */\n    tag_772:\n        /* \"#utility.yul\":36342:36458   */\n      pop\n      jump\t// out\n        /* \"#utility.yul\":36464:36601   */\n    tag_403:\n        /* \"#utility.yul\":36518:36523   */\n      0x00\n        /* \"#utility.yul\":36549:36555   */\n      dup2\n        /* \"#utility.yul\":36543:36556   */\n      mload\n        /* \"#utility.yul\":36534:36556   */\n      swap1\n      pop\n        /* \"#utility.yul\":36565:36595   */\n      tag_774\n        /* \"#utility.yul\":36589:36594   */\n      dup2\n        /* \"#utility.yul\":36565:36595   */\n      tag_402\n      jump\t// in\n    tag_774:\n        /* \"#utility.yul\":36464:36601   */\n      swap3\n      swap2\n      pop\n      pop\n      jump\t// out\n        /* \"#utility.yul\":36607:36952   */\n    tag_288:\n        /* \"#utility.yul\":36674:36680   */\n      0x00\n        /* \"#utility.yul\":36723:36725   */\n      0x20\n        /* \"#utility.yul\":36711:36720   */\n      dup3\n        /* \"#utility.yul\":36702:36709   */\n      dup5\n        /* \"#utility.yul\":36698:36721   */\n      sub\n        /* \"#utility.yul\":36694:36726   */\n      slt\n        /* \"#utility.yul\":36691:36810   */\n      iszero\n      tag_776\n      jumpi\n        /* \"#utility.yul\":36729:36808   */\n      tag_777\n      tag_304\n      jump\t// in\n    tag_777:\n        /* \"#utility.yul\":36691:36810   */\n    tag_776:\n        /* \"#utility.yul\":36849:36850   */\n      0x00\n        /* \"#utility.yul\":36874:36935   */\n      tag_778\n        /* \"#utility.yul\":36927:36934   */\n      dup5\n        /* \"#utility.yul\":36918:36924   */\n      dup3\n        /* \"#utility.yul\":36907:36916   */\n      dup6\n        /* \"#utility.yul\":36903:36925   */\n      add\n        /* \"#utility.yul\":36874:36935   */\n      tag_403\n      jump\t// in\n    tag_778:\n        /* \"#utility.yul\":36864:36935   */\n      swap2\n      pop\n        /* \"#utility.yul\":36820:36945   */\n      pop\n        /* \"#utility.yul\":36607:36952   */\n      swap3\n      swap2\n      pop\n      pop\n      jump\t// out\n        /* \"#utility.yul\":36958:37101   */\n    tag_404:\n        /* \"#utility.yul\":37015:37020   */\n      0x00\n        /* \"#utility.yul\":37046:37052   */\n      dup2\n        /* \"#utility.yul\":37040:37053   */\n      mload\n        /* \"#utility.yul\":37031:37053   */\n      swap1\n      pop\n        /* \"#utility.yul\":37062:37095   */\n      tag_780\n        /* \"#utility.yul\":37089:37094   */\n      dup2\n        /* \"#utility.yul\":37062:37095   */\n      tag_355\n      jump\t// in\n    tag_780:\n        /* \"#utility.yul\":36958:37101   */\n      swap3\n      swap2\n      pop\n      pop\n      jump\t// out\n        /* \"#utility.yul\":37107:37458   */\n    tag_293:\n        /* \"#utility.yul\":37177:37183   */\n      0x00\n        /* \"#utility.yul\":37226:37228   */\n      0x20\n        /* \"#utility.yul\":37214:37223   */\n      dup3\n        /* \"#utility.yul\":37205:37212   */\n      dup5\n        /* \"#utility.yul\":37201:37224   */\n      sub\n        /* \"#utility.yul\":37197:37229   */\n      slt\n        /* \"#utility.yul\":37194:37313   */\n      iszero\n      tag_782\n      jumpi\n        /* \"#utility.yul\":37232:37311   */\n      tag_783\n      tag_304\n      jump\t// in\n    tag_783:\n        /* \"#utility.yul\":37194:37313   */\n    tag_782:\n        /* \"#utility.yul\":37352:37353   */\n      0x00\n        /* \"#utility.yul\":37377:37441   */\n      tag_784\n        /* \"#utility.yul\":37433:37440   */\n      dup5\n        /* \"#utility.yul\":37424:37430   */\n      dup3\n        /* \"#utility.yul\":37413:37422   */\n      dup6\n        /* \"#utility.yul\":37409:37431   */\n      add\n        /* \"#utility.yul\":37377:37441   */\n      tag_404\n      jump\t// in\n    tag_784:\n        /* \"#utility.yul\":37367:37441   */\n      swap2\n      pop\n        /* \"#utility.yul\":37323:37451   */\n      pop\n        /* \"#utility.yul\":37107:37458   */\n      swap3\n      swap2\n      pop\n      pop\n      jump\t// out\n        /* \"#utility.yul\":37464:38131   */\n    tag_295:\n        /* \"#utility.yul\":37697:37701   */\n      0x00\n        /* \"#utility.yul\":37735:37738   */\n      0xc0\n        /* \"#utility.yul\":37724:37733   */\n      dup3\n        /* \"#utility.yul\":37720:37739   */\n      add\n        /* \"#utility.yul\":37712:37739   */\n      swap1\n      pop\n        /* \"#utility.yul\":37749:37820   */\n      tag_786\n        /* \"#utility.yul\":37817:37818   */\n      0x00\n        /* \"#utility.yul\":37806:37815   */\n      dup4\n        /* \"#utility.yul\":37802:37819   */\n      add\n        /* \"#utility.yul\":37793:37799   */\n      dup8\n        /* \"#utility.yul\":37749:37820   */\n      tag_329\n      jump\t// in\n    tag_786:\n        /* \"#utility.yul\":37830:37958   */\n      tag_787\n        /* \"#utility.yul\":37954:37956   */\n      0x20\n        /* \"#utility.yul\":37943:37952   */\n      dup4\n        /* \"#utility.yul\":37939:37957   */\n      add\n        /* \"#utility.yul\":37930:37936   */\n      dup7\n        /* \"#utility.yul\":37830:37958   */\n      tag_389\n      jump\t// in\n    tag_787:\n        /* \"#utility.yul\":37968:38041   */\n      tag_788\n        /* \"#utility.yul\":38036:38039   */\n      0x80\n        /* \"#utility.yul\":38025:38034   */\n      dup4\n        /* \"#utility.yul\":38021:38040   */\n      add\n        /* \"#utility.yul\":38012:38018   */\n      dup6\n        /* \"#utility.yul\":37968:38041   */\n      tag_329\n      jump\t// in\n    tag_788:\n        /* \"#utility.yul\":38051:38124   */\n      tag_789\n        /* \"#utility.yul\":38119:38122   */\n      0xa0\n        /* \"#utility.yul\":38108:38117   */\n      dup4\n        /* \"#utility.yul\":38104:38123   */\n      add\n        /* \"#utility.yul\":38095:38101   */\n      dup5\n        /* \"#utility.yul\":38051:38124   */\n      tag_312\n      jump\t// in\n    tag_789:\n        /* \"#utility.yul\":37464:38131   */\n      swap6\n      swap5\n      pop\n      pop\n      pop\n      pop\n      pop\n      jump\t// out\n        /* \"#utility.yul\":38137:38310   */\n    tag_405:\n        /* \"#utility.yul\":38277:38302   */\n      0x43616e6e6f74207472616e7366657220746f2073656c66000000000000000000\n        /* \"#utility.yul\":38273:38274   */\n      0x00\n        /* \"#utility.yul\":38265:38271   */\n      dup3\n        /* \"#utility.yul\":38261:38275   */\n      add\n        /* \"#utility.yul\":38254:38303   */\n      mstore\n        /* \"#utility.yul\":38137:38310   */\n      pop\n      jump\t// out\n        /* \"#utility.yul\":38316:38682   */\n    tag_406:\n        /* \"#utility.yul\":38458:38461   */\n      0x00\n        /* \"#utility.yul\":38479:38546   */\n      tag_792\n        /* \"#utility.yul\":38543:38545   */\n      0x17\n        /* \"#utility.yul\":38538:38541   */\n      dup4\n        /* \"#utility.yul\":38479:38546   */\n      tag_346\n      jump\t// in\n    tag_792:\n        /* \"#utility.yul\":38472:38546   */\n      swap2\n      pop\n        /* \"#utility.yul\":38555:38648   */\n      tag_793\n        /* \"#utility.yul\":38644:38647   */\n      dup3\n        /* \"#utility.yul\":38555:38648   */\n      tag_405\n      jump\t// in\n    tag_793:\n        /* \"#utility.yul\":38673:38675   */\n      0x20\n        /* \"#utility.yul\":38668:38671   */\n      dup3\n        /* \"#utility.yul\":38664:38676   */\n      add\n        /* \"#utility.yul\":38657:38676   */\n      swap1\n      pop\n        /* \"#utility.yul\":38316:38682   */\n      swap2\n      swap1\n      pop\n      jump\t// out\n        /* \"#utility.yul\":38688:39107   */\n    tag_299:\n        /* \"#utility.yul\":38854:38858   */\n      0x00\n        /* \"#utility.yul\":38892:38894   */\n      0x20\n        /* \"#utility.yul\":38881:38890   */\n      dup3\n        /* \"#utility.yul\":38877:38895   */\n      add\n        /* \"#utility.yul\":38869:38895   */\n      swap1\n      pop\n        /* \"#utility.yul\":38941:38950   */\n      dup2\n        /* \"#utility.yul\":38935:38939   */\n      dup2\n        /* \"#utility.yul\":38931:38951   */\n      sub\n        /* \"#utility.yul\":38927:38928   */\n      0x00\n        /* \"#utility.yul\":38916:38925   */\n      dup4\n        /* \"#utility.yul\":38912:38929   */\n      add\n        /* \"#utility.yul\":38905:38952   */\n      mstore\n        /* \"#utility.yul\":38969:39100   */\n      tag_795\n        /* \"#utility.yul\":39095:39099   */\n      dup2\n        /* \"#utility.yul\":38969:39100   */\n      tag_406\n      jump\t// in\n    tag_795:\n        /* \"#utility.yul\":38961:39100   */\n      swap1\n      pop\n        /* \"#utility.yul\":38688:39107   */\n      swap2\n      swap1\n      pop\n      jump\t// out\n        /* \"#utility.yul\":39181:39530   */\n    tag_407:\n        /* \"#utility.yul\":39340:39344   */\n      0x20\n        /* \"#utility.yul\":39335:39338   */\n      dup3\n        /* \"#utility.yul\":39331:39345   */\n      add\n        /* \"#utility.yul\":39431:39435   */\n      0x00\n        /* \"#utility.yul\":39424:39429   */\n      dup3\n        /* \"#utility.yul\":39420:39436   */\n      add\n        /* \"#utility.yul\":39414:39437   */\n      mload\n        /* \"#utility.yul\":39450:39513   */\n      tag_797\n        /* \"#utility.yul\":39507:39511   */\n      0x00\n        /* \"#utility.yul\":39502:39505   */\n      dup6\n        /* \"#utility.yul\":39498:39512   */\n      add\n        /* \"#utility.yul\":39484:39496   */\n      dup3\n        /* \"#utility.yul\":39450:39513   */\n      tag_335\n      jump\t// in\n    tag_797:\n        /* \"#utility.yul\":39355:39523   */\n      pop\n        /* \"#utility.yul\":39309:39530   */\n      pop\n        /* \"#utility.yul\":39181:39530   */\n      pop\n      pop\n      jump\t// out\n        /* \"#utility.yul\":39536:39882   */\n    tag_302:\n        /* \"#utility.yul\":39691:39695   */\n      0x00\n        /* \"#utility.yul\":39729:39731   */\n      0x20\n        /* \"#utility.yul\":39718:39727   */\n      dup3\n        /* \"#utility.yul\":39714:39732   */\n      add\n        /* \"#utility.yul\":39706:39732   */\n      swap1\n      pop\n        /* \"#utility.yul\":39742:39875   */\n      tag_799\n        /* \"#utility.yul\":39872:39873   */\n      0x00\n        /* \"#utility.yul\":39861:39870   */\n      dup4\n        /* \"#utility.yul\":39857:39874   */\n      add\n        /* \"#utility.yul\":39848:39854   */\n      dup5\n        /* \"#utility.yul\":39742:39875   */\n      tag_407\n      jump\t// in\n    tag_799:\n        /* \"#utility.yul\":39536:39882   */\n      swap3\n      swap2\n      pop\n      pop\n      jump\t// out\n\n    auxdata: 0xa2646970667358221220ee07d46aaedbfaaaaaf2eefd6220e7bc0b9f050b838719794fe432e91f801d8164736f6c63430008130033\n}\n",
				"bytecode": {
					"linkReferences": {},
					"object": "608060405260006002553480156200001657600080fd5b50604051620032883803806200328883398181016040528101906200003c91906200069c565b338060008073ffffffffffffffffffffffffffffffffffffffff168273ffffffffffffffffffffffffffffffffffffffff1603620000b1576040517f08c379a0000000000000000000000000000000000000000000000000000000008152600401620000a8906200072f565b60405180910390fd5b816000806101000a81548173ffffffffffffffffffffffffffffffffffffffff021916908373ffffffffffffffffffffffffffffffffffffffff160217905550600073ffffffffffffffffffffffffffffffffffffffff168173ffffffffffffffffffffffffffffffffffffffff1614620001385762000137816200052d60201b60201c565b5b5050506003730bf3de8c5d3e8a2b34d2beeb17abfcebaf363a599080600181540180825580915050600190039060005260206000200160009091909190916101000a81548173ffffffffffffffffffffffffffffffffffffffff021916908373ffffffffffffffffffffffffffffffffffffffff160217905550600373f694e193200268f9a4868e4aa017a0118c9a81779080600181540180825580915050600190039060005260206000200160009091909190916101000a81548173ffffffffffffffffffffffffffffffffffffffff021916908373ffffffffffffffffffffffffffffffffffffffff1602179055506003739c32fcb86bf0f4a1a8921a9fe46de3198bb884b29080600181540180825580915050600190039060005260206000200160009091909190916101000a81548173ffffffffffffffffffffffffffffffffffffffff021916908373ffffffffffffffffffffffffffffffffffffffff160217905550600473779877a7b0d9e8603169ddbd7836e478b46247899080600181540180825580915050600190039060005260206000200160009091909190916101000a81548173ffffffffffffffffffffffffffffffffffffffff021916908373ffffffffffffffffffffffffffffffffffffffff1602179055506004730b9d5d9136855f6fec3c0993fee6e9ce8a2978469080600181540180825580915050600190039060005260206000200160009091909190916101000a81548173ffffffffffffffffffffffffffffffffffffffff021916908373ffffffffffffffffffffffffffffffffffffffff1602179055506004730fd9e8d3af1aaee056eb9e802c3a762a667b19049080600181540180825580915050600190039060005260206000200160009091909190916101000a81548173ffffffffffffffffffffffffffffffffffffffff021916908373ffffffffffffffffffffffffffffffffffffffff160217905550600567de41ba4fc9d91ad990806001815401808255809150506001900390600052602060002090600491828204019190066008029091909190916101000a81548167ffffffffffffffff021916908367ffffffffffffffff160217905550600567ccf0a31a221f3c9b90806001815401808255809150506001900390600052602060002090600491828204019190066008029091909190916101000a81548167ffffffffffffffff021916908367ffffffffffffffff160217905550600567e1f4423f1bf587cd90806001815401808255809150506001900390600052602060002090600491828204019190066008029091909190916101000a81548167ffffffffffffffff021916908367ffffffffffffffff1602179055508060028190555050620007c3565b3373ffffffffffffffffffffffffffffffffffffffff168173ffffffffffffffffffffffffffffffffffffffff16036200059e576040517f08c379a00000000000000000000000000000000000000000000000000000000081526004016200059590620007a1565b60405180910390fd5b80600160006101000a81548173ffffffffffffffffffffffffffffffffffffffff021916908373ffffffffffffffffffffffffffffffffffffffff1602179055508073ffffffffffffffffffffffffffffffffffffffff1660008054906101000a900473ffffffffffffffffffffffffffffffffffffffff1673ffffffffffffffffffffffffffffffffffffffff167fed8889f560326eb138920d842192f0eb3dd22b4f139c87a2c57538e05bae127860405160405180910390a350565b600080fd5b6000819050919050565b620006768162000661565b81146200068257600080fd5b50565b60008151905062000696816200066b565b92915050565b600060208284031215620006b557620006b46200065c565b5b6000620006c58482850162000685565b91505092915050565b600082825260208201905092915050565b7f43616e6e6f7420736574206f776e657220746f207a65726f0000000000000000600082015250565b600062000717601883620006ce565b91506200072482620006df565b602082019050919050565b600060208201905081810360008301526200074a8162000708565b9050919050565b7f43616e6e6f74207472616e7366657220746f2073656c66000000000000000000600082015250565b600062000789601783620006ce565b9150620007968262000751565b602082019050919050565b60006020820190508181036000830152620007bc816200077a565b9050919050565b612ab580620007d36000396000f3fe608060405234801561001057600080fd5b506004361061010b5760003560e01c8063b0e23518116100a2578063d252682d11610071578063d252682d146102ba578063df758706146102ea578063e8af8c0d1461030a578063ea0297011461033a578063f2fde38b1461036a5761010b565b8063b0e235181461021e578063b76ee4a81461023a578063bfd772fc1461026a578063cdc7bc871461029a5761010b565b80634e9c1118116100de5780634e9c1118146101aa57806379ba5097146101da57806385572ffb146101e45780638da5cb5b146102005761010b565b806301ffc9a71461011057806311b7aad5146101405780632bf34fbd1461015e57806349c9d17a1461018e575b600080fd5b61012a600480360381019061012591906117be565b610386565b6040516101379190611806565b60405180910390f35b610148610458565b604051610155919061183a565b60405180910390f35b61017860048036038101906101739190611881565b61045e565b60405161018591906118d1565b60405180910390f35b6101a860048036038101906101a39190611aa3565b61049c565b005b6101c460048036038101906101bf9190611881565b610579565b6040516101d19190611afb565b60405180910390f35b6101e26105b8565b005b6101fe60048036038101906101f99190611b3a565b61074d565b005b610208610812565b6040516102159190611afb565b60405180910390f35b61023860048036038101906102339190611881565b61083b565b005b610254600480360381019061024f9190611881565b610a71565b604051610261919061183a565b60405180910390f35b610284600480360381019061027f9190611881565b610a8c565b6040516102919190611afb565b60405180910390f35b6102a2610ac2565b6040516102b193929190611b83565b60405180910390f35b6102d460048036038101906102cf9190611881565b610afa565b6040516102e19190611afb565b60405180910390f35b6102f2610b30565b60405161030193929190611d10565b60405180910390f35b610324600480360381019061031f9190611881565b610c4c565b604051610331919061183a565b60405180910390f35b610354600480360381019061034f9190611881565b610c67565b6040516103619190611afb565b60405180910390f35b610384600480360381019061037f9190611d4a565b610ca6565b005b60007f85572ffb000000000000000000000000000000000000000000000000000000007bffffffffffffffffffffffffffffffffffffffffffffffffffffffff1916827bffffffffffffffffffffffffffffffffffffffffffffffffffffffff1916148061045157507f01ffc9a7000000000000000000000000000000000000000000000000000000007bffffffffffffffffffffffffffffffffffffffffffffffffffffffff1916827bffffffffffffffffffffffffffffffffffffffffffffffffffffffff1916145b9050919050565b60025481565b6005818154811061046e57600080fd5b9060005260206000209060049182820401919006600802915054906101000a900467ffffffffffffffff1681565b6104a4610cba565b60038151146104e8576040517f08c379a00000000000000000000000000000000000000000000000000000000081526004016104df90611dd4565b60405180910390fd5b60005b81518110156105755781818151811061050757610506611df4565b5b60200260200101516006826003811061052357610522611df4565b5b0160006101000a81548173ffffffffffffffffffffffffffffffffffffffff021916908373ffffffffffffffffffffffffffffffffffffffff160217905550808061056d90611e52565b9150506104eb565b5050565b6003818154811061058957600080fd5b906000526020600020016000915054906101000a900473ffffffffffffffffffffffffffffffffffffffff1681565b600160009054906101000a900473ffffffffffffffffffffffffffffffffffffffff1673ffffffffffffffffffffffffffffffffffffffff163373ffffffffffffffffffffffffffffffffffffffff1614610648576040517f08c379a000000000000000000000000000000000000000000000000000000000815260040161063f90611ee6565b60405180910390fd5b60008060009054906101000a900473ffffffffffffffffffffffffffffffffffffffff169050336000806101000a81548173ffffffffffffffffffffffffffffffffffffffff021916908373ffffffffffffffffffffffffffffffffffffffff1602179055506000600160006101000a81548173ffffffffffffffffffffffffffffffffffffffff021916908373ffffffffffffffffffffffffffffffffffffffff1602179055503373ffffffffffffffffffffffffffffffffffffffff168173ffffffffffffffffffffffffffffffffffffffff167f8be0079c531659141344cd1fd0a4f28419497f9722a3daafe3b4186f6b6457e060405160405180910390a350565b60036002548154811061076357610762611df4565b5b9060005260206000200160009054906101000a900473ffffffffffffffffffffffffffffffffffffffff1673ffffffffffffffffffffffffffffffffffffffff163373ffffffffffffffffffffffffffffffffffffffff16146107fd57336040517fd7f733340000000000000000000000000000000000000000000000000000000081526004016107f49190611afb565b60405180910390fd5b61080f8161080a9061221a565b610d4a565b50565b60008060009054906101000a900473ffffffffffffffffffffffffffffffffffffffff16905090565b61087660405180606001604052803373ffffffffffffffffffffffffffffffffffffffff168152602001838152602001600254815250610ea9565b60005b600580549050811015610a6d5760006005828154811061089c5761089b611df4565b5b90600052602060002090600491828204019190066008029054906101000a900467ffffffffffffffff1690506000600683600381106108de576108dd611df4565b5b0160009054906101000a900473ffffffffffffffffffffffffffffffffffffffff1690508167ffffffffffffffff1660056002548154811061092357610922611df4565b5b90600052602060002090600491828204019190066008029054906101000a900467ffffffffffffffff1667ffffffffffffffff16141580156109925750600073ffffffffffffffffffffffffffffffffffffffff168173ffffffffffffffffffffffffffffffffffffffff1614155b15610a5857610a5682826004600254815481106109b2576109b1611df4565b5b9060005260206000200160009054906101000a900473ffffffffffffffffffffffffffffffffffffffff166003600254815481106109f3576109f2611df4565b5b9060005260206000200160009054906101000a900473ffffffffffffffffffffffffffffffffffffffff1660405180606001604052803373ffffffffffffffffffffffffffffffffffffffff1681526020018a815260200160025481525061112c565b505b50508080610a6590611e52565b915050610879565b5050565b600c81600a8110610a8157600080fd5b016000915090505481565b60068160038110610a9c57600080fd5b016000915054906101000a900473ffffffffffffffffffffffffffffffffffffffff1681565b60098060000160009054906101000a900473ffffffffffffffffffffffffffffffffffffffff16908060010154908060020154905083565b601681600a8110610b0a57600080fd5b016000915054906101000a900473ffffffffffffffffffffffffffffffffffffffff1681565b610b386116dc565b610b406116dc565b610b486116ff565b600c6020601682600a806020026040519081016040528092919082600a8015610b86576020028201915b815481526020019060010190808311610b72575b5050505050925081600a806020026040519081016040528092919082600a8015610bc5576020028201915b815481526020019060010190808311610bb1575b5050505050915080600a806020026040519081016040528092919082600a8015610c3a576020028201915b8160009054906101000a900473ffffffffffffffffffffffffffffffffffffffff1673ffffffffffffffffffffffffffffffffffffffff1681526020019060010190808311610bf0575b50505050509050925092509250909192565b602081600a8110610c5c57600080fd5b016000915090505481565b60048181548110610c7757600080fd5b906000526020600020016000915054906101000a900473ffffffffffffffffffffffffffffffffffffffff1681565b610cae610cba565b610cb781611531565b50565b60008054906101000a900473ffffffffffffffffffffffffffffffffffffffff1673ffffffffffffffffffffffffffffffffffffffff163373ffffffffffffffffffffffffffffffffffffffff1614610d48576040517f08c379a0000000000000000000000000000000000000000000000000000000008152600401610d3f90612279565b60405180910390fd5b565b8060600151806020019051810190610d629190612327565b600960008201518160000160006101000a81548173ffffffffffffffffffffffffffffffffffffffff021916908373ffffffffffffffffffffffffffffffffffffffff1602179055506020820151816001015560408201518160020155905050610e4160096040518060600160405290816000820160009054906101000a900473ffffffffffffffffffffffffffffffffffffffff1673ffffffffffffffffffffffffffffffffffffffff1673ffffffffffffffffffffffffffffffffffffffff16815260200160018201548152602001600282015481525050610ea9565b806020015167ffffffffffffffff1681600001517faa5cbdcf4f25939d41be3032075952cfd5f51f978a501d2f801d671061623f1d8360400151806020019051810190610e8e9190612392565b6009604051610e9e9291906124ee565b60405180910390a350565b60008160200151905060008260000151905060008360400151905082600c6001600a610ed59190612517565b600a8110610ee657610ee5611df4565b5b01541015611126576000806001600a610eff9190612517565b905060005b81831015610f605760028284610f1a919061254b565b610f2491906125ae565b905085600c82600a8110610f3b57610f3a611df4565b5b01541015610f4b57809150610f5b565b600181610f58919061254b565b92505b610f04565b60006001600a610f709190612517565b90505b8381111561109957600c600182610f8a9190612517565b600a8110610f9b57610f9a611df4565b5b0154600c82600a8110610fb157610fb0611df4565b5b01819055506016600182610fc59190612517565b600a8110610fd657610fd5611df4565b5b0160009054906101000a900473ffffffffffffffffffffffffffffffffffffffff16601682600a811061100c5761100b611df4565b5b0160006101000a81548173ffffffffffffffffffffffffffffffffffffffff021916908373ffffffffffffffffffffffffffffffffffffffff160217905550602060018261105a9190612517565b600a811061106b5761106a611df4565b5b0154602082600a811061108157611080611df4565b5b01819055508080611091906125df565b915050610f73565b5085600c84600a81106110af576110ae611df4565b5b018190555084601684600a81106110c9576110c8611df4565b5b0160006101000a81548173ffffffffffffffffffffffffffffffffffffffff021916908373ffffffffffffffffffffffffffffffffffffffff16021790555083602084600a811061111d5761111c611df4565b5b01819055505050505b50505050565b600080849050600084905060006040518060a00160405280896040516020016111559190611afb565b60405160208183030381529060405281526020018660405160200161117a919061264a565b6040516020818303038152906040528152602001600067ffffffffffffffff8111156111a9576111a8611902565b5b6040519080825280602002602001820160405280156111e257816020015b6111cf611722565b8152602001906001900390816111c75790505b5081526020018873ffffffffffffffffffffffffffffffffffffffff16815260200161121e604051806020016040528062030d4081525061165d565b815250905060008273ffffffffffffffffffffffffffffffffffffffff166320487ded8b846040518363ffffffff1660e01b815260040161126092919061284d565b602060405180830381865afa15801561127d573d6000803e3d6000fd5b505050506040513d601f19601f820116820180604052508101906112a1919061287d565b90508373ffffffffffffffffffffffffffffffffffffffff166370a08231306040518263ffffffff1660e01b81526004016112dc9190611afb565b602060405180830381865afa1580156112f9573d6000803e3d6000fd5b505050506040513d601f19601f8201168201806040525081019061131d919061287d565b8111156113dc578373ffffffffffffffffffffffffffffffffffffffff166370a08231306040518263ffffffff1660e01b815260040161135d9190611afb565b602060405180830381865afa15801561137a573d6000803e3d6000fd5b505050506040513d601f19601f8201168201806040525081019061139e919061287d565b816040517f8f0f42060000000000000000000000000000000000000000000000000000000081526004016113d39291906128aa565b60405180910390fd5b8373ffffffffffffffffffffffffffffffffffffffff1663095ea7b384836040518363ffffffff1660e01b81526004016114179291906128d3565b6020604051808303816000875af1158015611436573d6000803e3d6000fd5b505050506040513d601f19601f8201168201806040525081019061145a9190612928565b508273ffffffffffffffffffffffffffffffffffffffff166396f4e9f98b846040518363ffffffff1660e01b815260040161149692919061284d565b6020604051808303816000875af11580156114b5573d6000803e3d6000fd5b505050506040513d601f19601f820116820180604052508101906114d9919061296a565b94508967ffffffffffffffff16857fd0d85f1cc5ab17f712b6074d702edd6281031e603c5cf76890a85b1170045b3a8b898c8660405161151c9493929190612997565b60405180910390a35050505095945050505050565b3373ffffffffffffffffffffffffffffffffffffffff168173ffffffffffffffffffffffffffffffffffffffff160361159f576040517f08c379a000000000000000000000000000000000000000000000000000000000815260040161159690612a28565b60405180910390fd5b80600160006101000a81548173ffffffffffffffffffffffffffffffffffffffff021916908373ffffffffffffffffffffffffffffffffffffffff1602179055508073ffffffffffffffffffffffffffffffffffffffff1660008054906101000a900473ffffffffffffffffffffffffffffffffffffffff1673ffffffffffffffffffffffffffffffffffffffff167fed8889f560326eb138920d842192f0eb3dd22b4f139c87a2c57538e05bae127860405160405180910390a350565b60606397a657c960e01b826040516024016116789190612a64565b604051602081830303815290604052907bffffffffffffffffffffffffffffffffffffffffffffffffffffffff19166020820180517bffffffffffffffffffffffffffffffffffffffffffffffffffffffff83818316178352505050509050919050565b604051806101400160405280600a90602082028036833780820191505090505090565b604051806101400160405280600a90602082028036833780820191505090505090565b6040518060400160405280600073ffffffffffffffffffffffffffffffffffffffff168152602001600081525090565b6000604051905090565b600080fd5b600080fd5b60007fffffffff0000000000000000000000000000000000000000000000000000000082169050919050565b61179b81611766565b81146117a657600080fd5b50565b6000813590506117b881611792565b92915050565b6000602082840312156117d4576117d361175c565b5b60006117e2848285016117a9565b91505092915050565b60008115159050919050565b611800816117eb565b82525050565b600060208201905061181b60008301846117f7565b92915050565b6000819050919050565b61183481611821565b82525050565b600060208201905061184f600083018461182b565b92915050565b61185e81611821565b811461186957600080fd5b50565b60008135905061187b81611855565b92915050565b6000602082840312156118975761189661175c565b5b60006118a58482850161186c565b91505092915050565b600067ffffffffffffffff82169050919050565b6118cb816118ae565b82525050565b60006020820190506118e660008301846118c2565b92915050565b600080fd5b6000601f19601f8301169050919050565b7f4e487b7100000000000000000000000000000000000000000000000000000000600052604160045260246000fd5b61193a826118f1565b810181811067ffffffffffffffff8211171561195957611958611902565b5b80604052505050565b600061196c611752565b90506119788282611931565b919050565b600067ffffffffffffffff82111561199857611997611902565b5b602082029050602081019050919050565b600080fd5b600073ffffffffffffffffffffffffffffffffffffffff82169050919050565b60006119d9826119ae565b9050919050565b6119e9816119ce565b81146119f457600080fd5b50565b600081359050611a06816119e0565b92915050565b6000611a1f611a1a8461197d565b611962565b90508083825260208201905060208402830185811115611a4257611a416119a9565b5b835b81811015611a6b5780611a5788826119f7565b845260208401935050602081019050611a44565b5050509392505050565b600082601f830112611a8a57611a896118ec565b5b8135611a9a848260208601611a0c565b91505092915050565b600060208284031215611ab957611ab861175c565b5b600082013567ffffffffffffffff811115611ad757611ad6611761565b5b611ae384828501611a75565b91505092915050565b611af5816119ce565b82525050565b6000602082019050611b106000830184611aec565b92915050565b600080fd5b600060a08284031215611b3157611b30611b16565b5b81905092915050565b600060208284031215611b5057611b4f61175c565b5b600082013567ffffffffffffffff811115611b6e57611b6d611761565b5b611b7a84828501611b1b565b91505092915050565b6000606082019050611b986000830186611aec565b611ba5602083018561182b565b611bb2604083018461182b565b949350505050565b6000600a9050919050565b600081905092915050565b6000819050919050565b611be381611821565b82525050565b6000611bf58383611bda565b60208301905092915050565b6000602082019050919050565b611c1781611bba565b611c218184611bc5565b9250611c2c82611bd0565b8060005b83811015611c5d578151611c448782611be9565b9650611c4f83611c01565b925050600181019050611c30565b505050505050565b6000600a9050919050565b600081905092915050565b6000819050919050565b611c8e816119ce565b82525050565b6000611ca08383611c85565b60208301905092915050565b6000602082019050919050565b611cc281611c65565b611ccc8184611c70565b9250611cd782611c7b565b8060005b83811015611d08578151611cef8782611c94565b9650611cfa83611cac565b925050600181019050611cdb565b505050505050565b60006103c082019050611d266000830186611c0e565b611d34610140830185611c0e565b611d42610280830184611cb9565b949350505050565b600060208284031215611d6057611d5f61175c565b5b6000611d6e848285016119f7565b91505092915050565b600082825260208201905092915050565b7f72656365697665724c697374206973206e6f742076616c696400000000000000600082015250565b6000611dbe601983611d77565b9150611dc982611d88565b602082019050919050565b60006020820190508181036000830152611ded81611db1565b9050919050565b7f4e487b7100000000000000000000000000000000000000000000000000000000600052603260045260246000fd5b7f4e487b7100000000000000000000000000000000000000000000000000000000600052601160045260246000fd5b6000611e5d82611821565b91507fffffffffffffffffffffffffffffffffffffffffffffffffffffffffffffffff8203611e8f57611e8e611e23565b5b600182019050919050565b7f4d7573742062652070726f706f736564206f776e657200000000000000000000600082015250565b6000611ed0601683611d77565b9150611edb82611e9a565b602082019050919050565b60006020820190508181036000830152611eff81611ec3565b9050919050565b600080fd5b600080fd5b6000819050919050565b611f2381611f10565b8114611f2e57600080fd5b50565b600081359050611f4081611f1a565b92915050565b611f4f816118ae565b8114611f5a57600080fd5b50565b600081359050611f6c81611f46565b92915050565b600080fd5b600067ffffffffffffffff821115611f9257611f91611902565b5b611f9b826118f1565b9050602081019050919050565b82818337600083830152505050565b6000611fca611fc584611f77565b611962565b905082815260208101848484011115611fe657611fe5611f72565b5b611ff1848285611fa8565b509392505050565b600082601f83011261200e5761200d6118ec565b5b813561201e848260208601611fb7565b91505092915050565b600067ffffffffffffffff82111561204257612041611902565b5b602082029050602081019050919050565b60006040828403121561206957612068611f06565b5b6120736040611962565b90506000612083848285016119f7565b60008301525060206120978482850161186c565b60208301525092915050565b60006120b66120b184612027565b611962565b905080838252602082019050604084028301858111156120d9576120d86119a9565b5b835b8181101561210257806120ee8882612053565b8452602084019350506040810190506120db565b5050509392505050565b600082601f830112612121576121206118ec565b5b81356121318482602086016120a3565b91505092915050565b600060a082840312156121505761214f611f06565b5b61215a60a0611962565b9050600061216a84828501611f31565b600083015250602061217e84828501611f5d565b602083015250604082013567ffffffffffffffff8111156121a2576121a1611f0b565b5b6121ae84828501611ff9565b604083015250606082013567ffffffffffffffff8111156121d2576121d1611f0b565b5b6121de84828501611ff9565b606083015250608082013567ffffffffffffffff81111561220257612201611f0b565b5b61220e8482850161210c565b60808301525092915050565b6000612226368361213a565b9050919050565b7f4f6e6c792063616c6c61626c65206279206f776e657200000000000000000000600082015250565b6000612263601683611d77565b915061226e8261222d565b602082019050919050565b6000602082019050818103600083015261229281612256565b9050919050565b6000815190506122a8816119e0565b92915050565b6000815190506122bd81611855565b92915050565b6000606082840312156122d9576122d8611f06565b5b6122e36060611962565b905060006122f384828501612299565b6000830152506020612307848285016122ae565b602083015250604061231b848285016122ae565b60408301525092915050565b60006060828403121561233d5761233c61175c565b5b600061234b848285016122c3565b91505092915050565b600061235f826119ae565b9050919050565b61236f81612354565b811461237a57600080fd5b50565b60008151905061238c81612366565b92915050565b6000602082840312156123a8576123a761175c565b5b60006123b68482850161237d565b91505092915050565b6000819050919050565b60006123e46123df6123da846119ae565b6123bf565b6119ae565b9050919050565b60006123f6826123c9565b9050919050565b6000612408826123eb565b9050919050565b612418816123fd565b82525050565b60008160001c9050919050565b600073ffffffffffffffffffffffffffffffffffffffff82169050919050565b600061245e6124598361241e565b61242b565b9050919050565b6000819050919050565b600061248261247d8361241e565b612465565b9050919050565b60608201600080830154905061249e8161244b565b6124ab6000860182611c85565b50600183015490506124bc8161246f565b6124c96020860182611bda565b50600283015490506124da8161246f565b6124e76040860182611bda565b5050505050565b6000608082019050612503600083018561240f565b6125106020830184612489565b9392505050565b600061252282611821565b915061252d83611821565b925082820390508181111561254557612544611e23565b5b92915050565b600061255682611821565b915061256183611821565b925082820190508082111561257957612578611e23565b5b92915050565b7f4e487b7100000000000000000000000000000000000000000000000000000000600052601260045260246000fd5b60006125b982611821565b91506125c483611821565b9250826125d4576125d361257f565b5b828204905092915050565b60006125ea82611821565b9150600082036125fd576125fc611e23565b5b600182039050919050565b60608201600082015161261e6000850182611c85565b5060208201516126316020850182611bda565b5060408201516126446040850182611bda565b50505050565b600060608201905061265f6000830184612608565b92915050565b600081519050919050565b600082825260208201905092915050565b60005b8381101561269f578082015181840152602081019050612684565b60008484015250505050565b60006126b682612665565b6126c08185612670565b93506126d0818560208601612681565b6126d9816118f1565b840191505092915050565b600081519050919050565b600082825260208201905092915050565b6000819050602082019050919050565b6040820160008201516127266000850182611c85565b5060208201516127396020850182611bda565b50505050565b600061274b8383612710565b60408301905092915050565b6000602082019050919050565b600061276f826126e4565b61277981856126ef565b935061278483612700565b8060005b838110156127b557815161279c888261273f565b97506127a783612757565b925050600181019050612788565b5085935050505092915050565b600060a08301600083015184820360008601526127df82826126ab565b915050602083015184820360208601526127f982826126ab565b915050604083015184820360408601526128138282612764565b91505060608301516128286060860182611c85565b506080830151848203608086015261284082826126ab565b9150508091505092915050565b600060408201905061286260008301856118c2565b818103602083015261287481846127c2565b90509392505050565b6000602082840312156128935761289261175c565b5b60006128a1848285016122ae565b91505092915050565b60006040820190506128bf600083018561182b565b6128cc602083018461182b565b9392505050565b60006040820190506128e86000830185611aec565b6128f5602083018461182b565b9392505050565b612905816117eb565b811461291057600080fd5b50565b600081519050612922816128fc565b92915050565b60006020828403121561293e5761293d61175c565b5b600061294c84828501612913565b91505092915050565b60008151905061296481611f1a565b92915050565b6000602082840312156129805761297f61175c565b5b600061298e84828501612955565b91505092915050565b600060c0820190506129ac6000830187611aec565b6129b96020830186612608565b6129c66080830185611aec565b6129d360a083018461182b565b95945050505050565b7f43616e6e6f74207472616e7366657220746f2073656c66000000000000000000600082015250565b6000612a12601783611d77565b9150612a1d826129dc565b602082019050919050565b60006020820190508181036000830152612a4181612a05565b9050919050565b602082016000820151612a5e6000850182611bda565b50505050565b6000602082019050612a796000830184612a48565b9291505056fea2646970667358221220ee07d46aaedbfaaaaaf2eefd6220e7bc0b9f050b838719794fe432e91f801d8164736f6c63430008130033",
					"opcodes": "PUSH1 0x80 PUSH1 0x40 MSTORE PUSH1 0x0 PUSH1 0x2 SSTORE CALLVALUE DUP1 ISZERO PUSH3 0x16 JUMPI PUSH1 0x0 DUP1 REVERT JUMPDEST POP PUSH1 0x40 MLOAD PUSH3 0x3288 CODESIZE SUB DUP1 PUSH3 0x3288 DUP4 CODECOPY DUP2 DUP2 ADD PUSH1 0x40 MSTORE DUP2 ADD SWAP1 PUSH3 0x3C SWAP2 SWAP1 PUSH3 0x69C JUMP JUMPDEST CALLER DUP1 PUSH1 0x0 DUP1 PUSH20 0xFFFFFFFFFFFFFFFFFFFFFFFFFFFFFFFFFFFFFFFF AND DUP3 PUSH20 0xFFFFFFFFFFFFFFFFFFFFFFFFFFFFFFFFFFFFFFFF AND SUB PUSH3 0xB1 JUMPI PUSH1 0x40 MLOAD PUSH32 0x8C379A000000000000000000000000000000000000000000000000000000000 DUP2 MSTORE PUSH1 0x4 ADD PUSH3 0xA8 SWAP1 PUSH3 0x72F JUMP JUMPDEST PUSH1 0x40 MLOAD DUP1 SWAP2 SUB SWAP1 REVERT JUMPDEST DUP2 PUSH1 0x0 DUP1 PUSH2 0x100 EXP DUP2 SLOAD DUP2 PUSH20 0xFFFFFFFFFFFFFFFFFFFFFFFFFFFFFFFFFFFFFFFF MUL NOT AND SWAP1 DUP4 PUSH20 0xFFFFFFFFFFFFFFFFFFFFFFFFFFFFFFFFFFFFFFFF AND MUL OR SWAP1 SSTORE POP PUSH1 0x0 PUSH20 0xFFFFFFFFFFFFFFFFFFFFFFFFFFFFFFFFFFFFFFFF AND DUP2 PUSH20 0xFFFFFFFFFFFFFFFFFFFFFFFFFFFFFFFFFFFFFFFF AND EQ PUSH3 0x138 JUMPI PUSH3 0x137 DUP2 PUSH3 0x52D PUSH1 0x20 SHL PUSH1 0x20 SHR JUMP JUMPDEST JUMPDEST POP POP POP PUSH1 0x3 PUSH20 0xBF3DE8C5D3E8A2B34D2BEEB17ABFCEBAF363A59 SWAP1 DUP1 PUSH1 0x1 DUP2 SLOAD ADD DUP1 DUP3 SSTORE DUP1 SWAP2 POP POP PUSH1 0x1 SWAP1 SUB SWAP1 PUSH1 0x0 MSTORE PUSH1 0x20 PUSH1 0x0 KECCAK256 ADD PUSH1 0x0 SWAP1 SWAP2 SWAP1 SWAP2 SWAP1 SWAP2 PUSH2 0x100 EXP DUP2 SLOAD DUP2 PUSH20 0xFFFFFFFFFFFFFFFFFFFFFFFFFFFFFFFFFFFFFFFF MUL NOT AND SWAP1 DUP4 PUSH20 0xFFFFFFFFFFFFFFFFFFFFFFFFFFFFFFFFFFFFFFFF AND MUL OR SWAP1 SSTORE POP PUSH1 0x3 PUSH20 0xF694E193200268F9A4868E4AA017A0118C9A8177 SWAP1 DUP1 PUSH1 0x1 DUP2 SLOAD ADD DUP1 DUP3 SSTORE DUP1 SWAP2 POP POP PUSH1 0x1 SWAP1 SUB SWAP1 PUSH1 0x0 MSTORE PUSH1 0x20 PUSH1 0x0 KECCAK256 ADD PUSH1 0x0 SWAP1 SWAP2 SWAP1 SWAP2 SWAP1 SWAP2 PUSH2 0x100 EXP DUP2 SLOAD DUP2 PUSH20 0xFFFFFFFFFFFFFFFFFFFFFFFFFFFFFFFFFFFFFFFF MUL NOT AND SWAP1 DUP4 PUSH20 0xFFFFFFFFFFFFFFFFFFFFFFFFFFFFFFFFFFFFFFFF AND MUL OR SWAP1 SSTORE POP PUSH1 0x3 PUSH20 0x9C32FCB86BF0F4A1A8921A9FE46DE3198BB884B2 SWAP1 DUP1 PUSH1 0x1 DUP2 SLOAD ADD DUP1 DUP3 SSTORE DUP1 SWAP2 POP POP PUSH1 0x1 SWAP1 SUB SWAP1 PUSH1 0x0 MSTORE PUSH1 0x20 PUSH1 0x0 KECCAK256 ADD PUSH1 0x0 SWAP1 SWAP2 SWAP1 SWAP2 SWAP1 SWAP2 PUSH2 0x100 EXP DUP2 SLOAD DUP2 PUSH20 0xFFFFFFFFFFFFFFFFFFFFFFFFFFFFFFFFFFFFFFFF MUL NOT AND SWAP1 DUP4 PUSH20 0xFFFFFFFFFFFFFFFFFFFFFFFFFFFFFFFFFFFFFFFF AND MUL OR SWAP1 SSTORE POP PUSH1 0x4 PUSH20 0x779877A7B0D9E8603169DDBD7836E478B4624789 SWAP1 DUP1 PUSH1 0x1 DUP2 SLOAD ADD DUP1 DUP3 SSTORE DUP1 SWAP2 POP POP PUSH1 0x1 SWAP1 SUB SWAP1 PUSH1 0x0 MSTORE PUSH1 0x20 PUSH1 0x0 KECCAK256 ADD PUSH1 0x0 SWAP1 SWAP2 SWAP1 SWAP2 SWAP1 SWAP2 PUSH2 0x100 EXP DUP2 SLOAD DUP2 PUSH20 0xFFFFFFFFFFFFFFFFFFFFFFFFFFFFFFFFFFFFFFFF MUL NOT AND SWAP1 DUP4 PUSH20 0xFFFFFFFFFFFFFFFFFFFFFFFFFFFFFFFFFFFFFFFF AND MUL OR SWAP1 SSTORE POP PUSH1 0x4 PUSH20 0xB9D5D9136855F6FEC3C0993FEE6E9CE8A297846 SWAP1 DUP1 PUSH1 0x1 DUP2 SLOAD ADD DUP1 DUP3 SSTORE DUP1 SWAP2 POP POP PUSH1 0x1 SWAP1 SUB SWAP1 PUSH1 0x0 MSTORE PUSH1 0x20 PUSH1 0x0 KECCAK256 ADD PUSH1 0x0 SWAP1 SWAP2 SWAP1 SWAP2 SWAP1 SWAP2 PUSH2 0x100 EXP DUP2 SLOAD DUP2 PUSH20 0xFFFFFFFFFFFFFFFFFFFFFFFFFFFFFFFFFFFFFFFF MUL NOT AND SWAP1 DUP4 PUSH20 0xFFFFFFFFFFFFFFFFFFFFFFFFFFFFFFFFFFFFFFFF AND MUL OR SWAP1 SSTORE POP PUSH1 0x4 PUSH20 0xFD9E8D3AF1AAEE056EB9E802C3A762A667B1904 SWAP1 DUP1 PUSH1 0x1 DUP2 SLOAD ADD DUP1 DUP3 SSTORE DUP1 SWAP2 POP POP PUSH1 0x1 SWAP1 SUB SWAP1 PUSH1 0x0 MSTORE PUSH1 0x20 PUSH1 0x0 KECCAK256 ADD PUSH1 0x0 SWAP1 SWAP2 SWAP1 SWAP2 SWAP1 SWAP2 PUSH2 0x100 EXP DUP2 SLOAD DUP2 PUSH20 0xFFFFFFFFFFFFFFFFFFFFFFFFFFFFFFFFFFFFFFFF MUL NOT AND SWAP1 DUP4 PUSH20 0xFFFFFFFFFFFFFFFFFFFFFFFFFFFFFFFFFFFFFFFF AND MUL OR SWAP1 SSTORE POP PUSH1 0x5 PUSH8 0xDE41BA4FC9D91AD9 SWAP1 DUP1 PUSH1 0x1 DUP2 SLOAD ADD DUP1 DUP3 SSTORE DUP1 SWAP2 POP POP PUSH1 0x1 SWAP1 SUB SWAP1 PUSH1 0x0 MSTORE PUSH1 0x20 PUSH1 0x0 KECCAK256 SWAP1 PUSH1 0x4 SWAP2 DUP3 DUP3 DIV ADD SWAP2 SWAP1 MOD PUSH1 0x8 MUL SWAP1 SWAP2 SWAP1 SWAP2 SWAP1 SWAP2 PUSH2 0x100 EXP DUP2 SLOAD DUP2 PUSH8 0xFFFFFFFFFFFFFFFF MUL NOT AND SWAP1 DUP4 PUSH8 0xFFFFFFFFFFFFFFFF AND MUL OR SWAP1 SSTORE POP PUSH1 0x5 PUSH8 0xCCF0A31A221F3C9B SWAP1 DUP1 PUSH1 0x1 DUP2 SLOAD ADD DUP1 DUP3 SSTORE DUP1 SWAP2 POP POP PUSH1 0x1 SWAP1 SUB SWAP1 PUSH1 0x0 MSTORE PUSH1 0x20 PUSH1 0x0 KECCAK256 SWAP1 PUSH1 0x4 SWAP2 DUP3 DUP3 DIV ADD SWAP2 SWAP1 MOD PUSH1 0x8 MUL SWAP1 SWAP2 SWAP1 SWAP2 SWAP1 SWAP2 PUSH2 0x100 EXP DUP2 SLOAD DUP2 PUSH8 0xFFFFFFFFFFFFFFFF MUL NOT AND SWAP1 DUP4 PUSH8 0xFFFFFFFFFFFFFFFF AND MUL OR SWAP1 SSTORE POP PUSH1 0x5 PUSH8 0xE1F4423F1BF587CD SWAP1 DUP1 PUSH1 0x1 DUP2 SLOAD ADD DUP1 DUP3 SSTORE DUP1 SWAP2 POP POP PUSH1 0x1 SWAP1 SUB SWAP1 PUSH1 0x0 MSTORE PUSH1 0x20 PUSH1 0x0 KECCAK256 SWAP1 PUSH1 0x4 SWAP2 DUP3 DUP3 DIV ADD SWAP2 SWAP1 MOD PUSH1 0x8 MUL SWAP1 SWAP2 SWAP1 SWAP2 SWAP1 SWAP2 PUSH2 0x100 EXP DUP2 SLOAD DUP2 PUSH8 0xFFFFFFFFFFFFFFFF MUL NOT AND SWAP1 DUP4 PUSH8 0xFFFFFFFFFFFFFFFF AND MUL OR SWAP1 SSTORE POP DUP1 PUSH1 0x2 DUP2 SWAP1 SSTORE POP POP PUSH3 0x7C3 JUMP JUMPDEST CALLER PUSH20 0xFFFFFFFFFFFFFFFFFFFFFFFFFFFFFFFFFFFFFFFF AND DUP2 PUSH20 0xFFFFFFFFFFFFFFFFFFFFFFFFFFFFFFFFFFFFFFFF AND SUB PUSH3 0x59E JUMPI PUSH1 0x40 MLOAD PUSH32 0x8C379A000000000000000000000000000000000000000000000000000000000 DUP2 MSTORE PUSH1 0x4 ADD PUSH3 0x595 SWAP1 PUSH3 0x7A1 JUMP JUMPDEST PUSH1 0x40 MLOAD DUP1 SWAP2 SUB SWAP1 REVERT JUMPDEST DUP1 PUSH1 0x1 PUSH1 0x0 PUSH2 0x100 EXP DUP2 SLOAD DUP2 PUSH20 0xFFFFFFFFFFFFFFFFFFFFFFFFFFFFFFFFFFFFFFFF MUL NOT AND SWAP1 DUP4 PUSH20 0xFFFFFFFFFFFFFFFFFFFFFFFFFFFFFFFFFFFFFFFF AND MUL OR SWAP1 SSTORE POP DUP1 PUSH20 0xFFFFFFFFFFFFFFFFFFFFFFFFFFFFFFFFFFFFFFFF AND PUSH1 0x0 DUP1 SLOAD SWAP1 PUSH2 0x100 EXP SWAP1 DIV PUSH20 0xFFFFFFFFFFFFFFFFFFFFFFFFFFFFFFFFFFFFFFFF AND PUSH20 0xFFFFFFFFFFFFFFFFFFFFFFFFFFFFFFFFFFFFFFFF AND PUSH32 0xED8889F560326EB138920D842192F0EB3DD22B4F139C87A2C57538E05BAE1278 PUSH1 0x40 MLOAD PUSH1 0x40 MLOAD DUP1 SWAP2 SUB SWAP1 LOG3 POP JUMP JUMPDEST PUSH1 0x0 DUP1 REVERT JUMPDEST PUSH1 0x0 DUP2 SWAP1 POP SWAP2 SWAP1 POP JUMP JUMPDEST PUSH3 0x676 DUP2 PUSH3 0x661 JUMP JUMPDEST DUP2 EQ PUSH3 0x682 JUMPI PUSH1 0x0 DUP1 REVERT JUMPDEST POP JUMP JUMPDEST PUSH1 0x0 DUP2 MLOAD SWAP1 POP PUSH3 0x696 DUP2 PUSH3 0x66B JUMP JUMPDEST SWAP3 SWAP2 POP POP JUMP JUMPDEST PUSH1 0x0 PUSH1 0x20 DUP3 DUP5 SUB SLT ISZERO PUSH3 0x6B5 JUMPI PUSH3 0x6B4 PUSH3 0x65C JUMP JUMPDEST JUMPDEST PUSH1 0x0 PUSH3 0x6C5 DUP5 DUP3 DUP6 ADD PUSH3 0x685 JUMP JUMPDEST SWAP2 POP POP SWAP3 SWAP2 POP POP JUMP JUMPDEST PUSH1 0x0 DUP3 DUP3 MSTORE PUSH1 0x20 DUP3 ADD SWAP1 POP SWAP3 SWAP2 POP POP JUMP JUMPDEST PUSH32 0x43616E6E6F7420736574206F776E657220746F207A65726F0000000000000000 PUSH1 0x0 DUP3 ADD MSTORE POP JUMP JUMPDEST PUSH1 0x0 PUSH3 0x717 PUSH1 0x18 DUP4 PUSH3 0x6CE JUMP JUMPDEST SWAP2 POP PUSH3 0x724 DUP3 PUSH3 0x6DF JUMP JUMPDEST PUSH1 0x20 DUP3 ADD SWAP1 POP SWAP2 SWAP1 POP JUMP JUMPDEST PUSH1 0x0 PUSH1 0x20 DUP3 ADD SWAP1 POP DUP2 DUP2 SUB PUSH1 0x0 DUP4 ADD MSTORE PUSH3 0x74A DUP2 PUSH3 0x708 JUMP JUMPDEST SWAP1 POP SWAP2 SWAP1 POP JUMP JUMPDEST PUSH32 0x43616E6E6F74207472616E7366657220746F2073656C66000000000000000000 PUSH1 0x0 DUP3 ADD MSTORE POP JUMP JUMPDEST PUSH1 0x0 PUSH3 0x789 PUSH1 0x17 DUP4 PUSH3 0x6CE JUMP JUMPDEST SWAP2 POP PUSH3 0x796 DUP3 PUSH3 0x751 JUMP JUMPDEST PUSH1 0x20 DUP3 ADD SWAP1 POP SWAP2 SWAP1 POP JUMP JUMPDEST PUSH1 0x0 PUSH1 0x20 DUP3 ADD SWAP1 POP DUP2 DUP2 SUB PUSH1 0x0 DUP4 ADD MSTORE PUSH3 0x7BC DUP2 PUSH3 0x77A JUMP JUMPDEST SWAP1 POP SWAP2 SWAP1 POP JUMP JUMPDEST PUSH2 0x2AB5 DUP1 PUSH3 0x7D3 PUSH1 0x0 CODECOPY PUSH1 0x0 RETURN INVALID PUSH1 0x80 PUSH1 0x40 MSTORE CALLVALUE DUP1 ISZERO PUSH2 0x10 JUMPI PUSH1 0x0 DUP1 REVERT JUMPDEST POP PUSH1 0x4 CALLDATASIZE LT PUSH2 0x10B JUMPI PUSH1 0x0 CALLDATALOAD PUSH1 0xE0 SHR DUP1 PUSH4 0xB0E23518 GT PUSH2 0xA2 JUMPI DUP1 PUSH4 0xD252682D GT PUSH2 0x71 JUMPI DUP1 PUSH4 0xD252682D EQ PUSH2 0x2BA JUMPI DUP1 PUSH4 0xDF758706 EQ PUSH2 0x2EA JUMPI DUP1 PUSH4 0xE8AF8C0D EQ PUSH2 0x30A JUMPI DUP1 PUSH4 0xEA029701 EQ PUSH2 0x33A JUMPI DUP1 PUSH4 0xF2FDE38B EQ PUSH2 0x36A JUMPI PUSH2 0x10B JUMP JUMPDEST DUP1 PUSH4 0xB0E23518 EQ PUSH2 0x21E JUMPI DUP1 PUSH4 0xB76EE4A8 EQ PUSH2 0x23A JUMPI DUP1 PUSH4 0xBFD772FC EQ PUSH2 0x26A JUMPI DUP1 PUSH4 0xCDC7BC87 EQ PUSH2 0x29A JUMPI PUSH2 0x10B JUMP JUMPDEST DUP1 PUSH4 0x4E9C1118 GT PUSH2 0xDE JUMPI DUP1 PUSH4 0x4E9C1118 EQ PUSH2 0x1AA JUMPI DUP1 PUSH4 0x79BA5097 EQ PUSH2 0x1DA JUMPI DUP1 PUSH4 0x85572FFB EQ PUSH2 0x1E4 JUMPI DUP1 PUSH4 0x8DA5CB5B EQ PUSH2 0x200 JUMPI PUSH2 0x10B JUMP JUMPDEST DUP1 PUSH4 0x1FFC9A7 EQ PUSH2 0x110 JUMPI DUP1 PUSH4 0x11B7AAD5 EQ PUSH2 0x140 JUMPI DUP1 PUSH4 0x2BF34FBD EQ PUSH2 0x15E JUMPI DUP1 PUSH4 0x49C9D17A EQ PUSH2 0x18E JUMPI JUMPDEST PUSH1 0x0 DUP1 REVERT JUMPDEST PUSH2 0x12A PUSH1 0x4 DUP1 CALLDATASIZE SUB DUP2 ADD SWAP1 PUSH2 0x125 SWAP2 SWAP1 PUSH2 0x17BE JUMP JUMPDEST PUSH2 0x386 JUMP JUMPDEST PUSH1 0x40 MLOAD PUSH2 0x137 SWAP2 SWAP1 PUSH2 0x1806 JUMP JUMPDEST PUSH1 0x40 MLOAD DUP1 SWAP2 SUB SWAP1 RETURN JUMPDEST PUSH2 0x148 PUSH2 0x458 JUMP JUMPDEST PUSH1 0x40 MLOAD PUSH2 0x155 SWAP2 SWAP1 PUSH2 0x183A JUMP JUMPDEST PUSH1 0x40 MLOAD DUP1 SWAP2 SUB SWAP1 RETURN JUMPDEST PUSH2 0x178 PUSH1 0x4 DUP1 CALLDATASIZE SUB DUP2 ADD SWAP1 PUSH2 0x173 SWAP2 SWAP1 PUSH2 0x1881 JUMP JUMPDEST PUSH2 0x45E JUMP JUMPDEST PUSH1 0x40 MLOAD PUSH2 0x185 SWAP2 SWAP1 PUSH2 0x18D1 JUMP JUMPDEST PUSH1 0x40 MLOAD DUP1 SWAP2 SUB SWAP1 RETURN JUMPDEST PUSH2 0x1A8 PUSH1 0x4 DUP1 CALLDATASIZE SUB DUP2 ADD SWAP1 PUSH2 0x1A3 SWAP2 SWAP1 PUSH2 0x1AA3 JUMP JUMPDEST PUSH2 0x49C JUMP JUMPDEST STOP JUMPDEST PUSH2 0x1C4 PUSH1 0x4 DUP1 CALLDATASIZE SUB DUP2 ADD SWAP1 PUSH2 0x1BF SWAP2 SWAP1 PUSH2 0x1881 JUMP JUMPDEST PUSH2 0x579 JUMP JUMPDEST PUSH1 0x40 MLOAD PUSH2 0x1D1 SWAP2 SWAP1 PUSH2 0x1AFB JUMP JUMPDEST PUSH1 0x40 MLOAD DUP1 SWAP2 SUB SWAP1 RETURN JUMPDEST PUSH2 0x1E2 PUSH2 0x5B8 JUMP JUMPDEST STOP JUMPDEST PUSH2 0x1FE PUSH1 0x4 DUP1 CALLDATASIZE SUB DUP2 ADD SWAP1 PUSH2 0x1F9 SWAP2 SWAP1 PUSH2 0x1B3A JUMP JUMPDEST PUSH2 0x74D JUMP JUMPDEST STOP JUMPDEST PUSH2 0x208 PUSH2 0x812 JUMP JUMPDEST PUSH1 0x40 MLOAD PUSH2 0x215 SWAP2 SWAP1 PUSH2 0x1AFB JUMP JUMPDEST PUSH1 0x40 MLOAD DUP1 SWAP2 SUB SWAP1 RETURN JUMPDEST PUSH2 0x238 PUSH1 0x4 DUP1 CALLDATASIZE SUB DUP2 ADD SWAP1 PUSH2 0x233 SWAP2 SWAP1 PUSH2 0x1881 JUMP JUMPDEST PUSH2 0x83B JUMP JUMPDEST STOP JUMPDEST PUSH2 0x254 PUSH1 0x4 DUP1 CALLDATASIZE SUB DUP2 ADD SWAP1 PUSH2 0x24F SWAP2 SWAP1 PUSH2 0x1881 JUMP JUMPDEST PUSH2 0xA71 JUMP JUMPDEST PUSH1 0x40 MLOAD PUSH2 0x261 SWAP2 SWAP1 PUSH2 0x183A JUMP JUMPDEST PUSH1 0x40 MLOAD DUP1 SWAP2 SUB SWAP1 RETURN JUMPDEST PUSH2 0x284 PUSH1 0x4 DUP1 CALLDATASIZE SUB DUP2 ADD SWAP1 PUSH2 0x27F SWAP2 SWAP1 PUSH2 0x1881 JUMP JUMPDEST PUSH2 0xA8C JUMP JUMPDEST PUSH1 0x40 MLOAD PUSH2 0x291 SWAP2 SWAP1 PUSH2 0x1AFB JUMP JUMPDEST PUSH1 0x40 MLOAD DUP1 SWAP2 SUB SWAP1 RETURN JUMPDEST PUSH2 0x2A2 PUSH2 0xAC2 JUMP JUMPDEST PUSH1 0x40 MLOAD PUSH2 0x2B1 SWAP4 SWAP3 SWAP2 SWAP1 PUSH2 0x1B83 JUMP JUMPDEST PUSH1 0x40 MLOAD DUP1 SWAP2 SUB SWAP1 RETURN JUMPDEST PUSH2 0x2D4 PUSH1 0x4 DUP1 CALLDATASIZE SUB DUP2 ADD SWAP1 PUSH2 0x2CF SWAP2 SWAP1 PUSH2 0x1881 JUMP JUMPDEST PUSH2 0xAFA JUMP JUMPDEST PUSH1 0x40 MLOAD PUSH2 0x2E1 SWAP2 SWAP1 PUSH2 0x1AFB JUMP JUMPDEST PUSH1 0x40 MLOAD DUP1 SWAP2 SUB SWAP1 RETURN JUMPDEST PUSH2 0x2F2 PUSH2 0xB30 JUMP JUMPDEST PUSH1 0x40 MLOAD PUSH2 0x301 SWAP4 SWAP3 SWAP2 SWAP1 PUSH2 0x1D10 JUMP JUMPDEST PUSH1 0x40 MLOAD DUP1 SWAP2 SUB SWAP1 RETURN JUMPDEST PUSH2 0x324 PUSH1 0x4 DUP1 CALLDATASIZE SUB DUP2 ADD SWAP1 PUSH2 0x31F SWAP2 SWAP1 PUSH2 0x1881 JUMP JUMPDEST PUSH2 0xC4C JUMP JUMPDEST PUSH1 0x40 MLOAD PUSH2 0x331 SWAP2 SWAP1 PUSH2 0x183A JUMP JUMPDEST PUSH1 0x40 MLOAD DUP1 SWAP2 SUB SWAP1 RETURN JUMPDEST PUSH2 0x354 PUSH1 0x4 DUP1 CALLDATASIZE SUB DUP2 ADD SWAP1 PUSH2 0x34F SWAP2 SWAP1 PUSH2 0x1881 JUMP JUMPDEST PUSH2 0xC67 JUMP JUMPDEST PUSH1 0x40 MLOAD PUSH2 0x361 SWAP2 SWAP1 PUSH2 0x1AFB JUMP JUMPDEST PUSH1 0x40 MLOAD DUP1 SWAP2 SUB SWAP1 RETURN JUMPDEST PUSH2 0x384 PUSH1 0x4 DUP1 CALLDATASIZE SUB DUP2 ADD SWAP1 PUSH2 0x37F SWAP2 SWAP1 PUSH2 0x1D4A JUMP JUMPDEST PUSH2 0xCA6 JUMP JUMPDEST STOP JUMPDEST PUSH1 0x0 PUSH32 0x85572FFB00000000000000000000000000000000000000000000000000000000 PUSH28 0xFFFFFFFFFFFFFFFFFFFFFFFFFFFFFFFFFFFFFFFFFFFFFFFFFFFFFFFF NOT AND DUP3 PUSH28 0xFFFFFFFFFFFFFFFFFFFFFFFFFFFFFFFFFFFFFFFFFFFFFFFFFFFFFFFF NOT AND EQ DUP1 PUSH2 0x451 JUMPI POP PUSH32 0x1FFC9A700000000000000000000000000000000000000000000000000000000 PUSH28 0xFFFFFFFFFFFFFFFFFFFFFFFFFFFFFFFFFFFFFFFFFFFFFFFFFFFFFFFF NOT AND DUP3 PUSH28 0xFFFFFFFFFFFFFFFFFFFFFFFFFFFFFFFFFFFFFFFFFFFFFFFFFFFFFFFF NOT AND EQ JUMPDEST SWAP1 POP SWAP2 SWAP1 POP JUMP JUMPDEST PUSH1 0x2 SLOAD DUP2 JUMP JUMPDEST PUSH1 0x5 DUP2 DUP2 SLOAD DUP2 LT PUSH2 0x46E JUMPI PUSH1 0x0 DUP1 REVERT JUMPDEST SWAP1 PUSH1 0x0 MSTORE PUSH1 0x20 PUSH1 0x0 KECCAK256 SWAP1 PUSH1 0x4 SWAP2 DUP3 DUP3 DIV ADD SWAP2 SWAP1 MOD PUSH1 0x8 MUL SWAP2 POP SLOAD SWAP1 PUSH2 0x100 EXP SWAP1 DIV PUSH8 0xFFFFFFFFFFFFFFFF AND DUP2 JUMP JUMPDEST PUSH2 0x4A4 PUSH2 0xCBA JUMP JUMPDEST PUSH1 0x3 DUP2 MLOAD EQ PUSH2 0x4E8 JUMPI PUSH1 0x40 MLOAD PUSH32 0x8C379A000000000000000000000000000000000000000000000000000000000 DUP2 MSTORE PUSH1 0x4 ADD PUSH2 0x4DF SWAP1 PUSH2 0x1DD4 JUMP JUMPDEST PUSH1 0x40 MLOAD DUP1 SWAP2 SUB SWAP1 REVERT JUMPDEST PUSH1 0x0 JUMPDEST DUP2 MLOAD DUP2 LT ISZERO PUSH2 0x575 JUMPI DUP2 DUP2 DUP2 MLOAD DUP2 LT PUSH2 0x507 JUMPI PUSH2 0x506 PUSH2 0x1DF4 JUMP JUMPDEST JUMPDEST PUSH1 0x20 MUL PUSH1 0x20 ADD ADD MLOAD PUSH1 0x6 DUP3 PUSH1 0x3 DUP2 LT PUSH2 0x523 JUMPI PUSH2 0x522 PUSH2 0x1DF4 JUMP JUMPDEST JUMPDEST ADD PUSH1 0x0 PUSH2 0x100 EXP DUP2 SLOAD DUP2 PUSH20 0xFFFFFFFFFFFFFFFFFFFFFFFFFFFFFFFFFFFFFFFF MUL NOT AND SWAP1 DUP4 PUSH20 0xFFFFFFFFFFFFFFFFFFFFFFFFFFFFFFFFFFFFFFFF AND MUL OR SWAP1 SSTORE POP DUP1 DUP1 PUSH2 0x56D SWAP1 PUSH2 0x1E52 JUMP JUMPDEST SWAP2 POP POP PUSH2 0x4EB JUMP JUMPDEST POP POP JUMP JUMPDEST PUSH1 0x3 DUP2 DUP2 SLOAD DUP2 LT PUSH2 0x589 JUMPI PUSH1 0x0 DUP1 REVERT JUMPDEST SWAP1 PUSH1 0x0 MSTORE PUSH1 0x20 PUSH1 0x0 KECCAK256 ADD PUSH1 0x0 SWAP2 POP SLOAD SWAP1 PUSH2 0x100 EXP SWAP1 DIV PUSH20 0xFFFFFFFFFFFFFFFFFFFFFFFFFFFFFFFFFFFFFFFF AND DUP2 JUMP JUMPDEST PUSH1 0x1 PUSH1 0x0 SWAP1 SLOAD SWAP1 PUSH2 0x100 EXP SWAP1 DIV PUSH20 0xFFFFFFFFFFFFFFFFFFFFFFFFFFFFFFFFFFFFFFFF AND PUSH20 0xFFFFFFFFFFFFFFFFFFFFFFFFFFFFFFFFFFFFFFFF AND CALLER PUSH20 0xFFFFFFFFFFFFFFFFFFFFFFFFFFFFFFFFFFFFFFFF AND EQ PUSH2 0x648 JUMPI PUSH1 0x40 MLOAD PUSH32 0x8C379A000000000000000000000000000000000000000000000000000000000 DUP2 MSTORE PUSH1 0x4 ADD PUSH2 0x63F SWAP1 PUSH2 0x1EE6 JUMP JUMPDEST PUSH1 0x40 MLOAD DUP1 SWAP2 SUB SWAP1 REVERT JUMPDEST PUSH1 0x0 DUP1 PUSH1 0x0 SWAP1 SLOAD SWAP1 PUSH2 0x100 EXP SWAP1 DIV PUSH20 0xFFFFFFFFFFFFFFFFFFFFFFFFFFFFFFFFFFFFFFFF AND SWAP1 POP CALLER PUSH1 0x0 DUP1 PUSH2 0x100 EXP DUP2 SLOAD DUP2 PUSH20 0xFFFFFFFFFFFFFFFFFFFFFFFFFFFFFFFFFFFFFFFF MUL NOT AND SWAP1 DUP4 PUSH20 0xFFFFFFFFFFFFFFFFFFFFFFFFFFFFFFFFFFFFFFFF AND MUL OR SWAP1 SSTORE POP PUSH1 0x0 PUSH1 0x1 PUSH1 0x0 PUSH2 0x100 EXP DUP2 SLOAD DUP2 PUSH20 0xFFFFFFFFFFFFFFFFFFFFFFFFFFFFFFFFFFFFFFFF MUL NOT AND SWAP1 DUP4 PUSH20 0xFFFFFFFFFFFFFFFFFFFFFFFFFFFFFFFFFFFFFFFF AND MUL OR SWAP1 SSTORE POP CALLER PUSH20 0xFFFFFFFFFFFFFFFFFFFFFFFFFFFFFFFFFFFFFFFF AND DUP2 PUSH20 0xFFFFFFFFFFFFFFFFFFFFFFFFFFFFFFFFFFFFFFFF AND PUSH32 0x8BE0079C531659141344CD1FD0A4F28419497F9722A3DAAFE3B4186F6B6457E0 PUSH1 0x40 MLOAD PUSH1 0x40 MLOAD DUP1 SWAP2 SUB SWAP1 LOG3 POP JUMP JUMPDEST PUSH1 0x3 PUSH1 0x2 SLOAD DUP2 SLOAD DUP2 LT PUSH2 0x763 JUMPI PUSH2 0x762 PUSH2 0x1DF4 JUMP JUMPDEST JUMPDEST SWAP1 PUSH1 0x0 MSTORE PUSH1 0x20 PUSH1 0x0 KECCAK256 ADD PUSH1 0x0 SWAP1 SLOAD SWAP1 PUSH2 0x100 EXP SWAP1 DIV PUSH20 0xFFFFFFFFFFFFFFFFFFFFFFFFFFFFFFFFFFFFFFFF AND PUSH20 0xFFFFFFFFFFFFFFFFFFFFFFFFFFFFFFFFFFFFFFFF AND CALLER PUSH20 0xFFFFFFFFFFFFFFFFFFFFFFFFFFFFFFFFFFFFFFFF AND EQ PUSH2 0x7FD JUMPI CALLER PUSH1 0x40 MLOAD PUSH32 0xD7F7333400000000000000000000000000000000000000000000000000000000 DUP2 MSTORE PUSH1 0x4 ADD PUSH2 0x7F4 SWAP2 SWAP1 PUSH2 0x1AFB JUMP JUMPDEST PUSH1 0x40 MLOAD DUP1 SWAP2 SUB SWAP1 REVERT JUMPDEST PUSH2 0x80F DUP2 PUSH2 0x80A SWAP1 PUSH2 0x221A JUMP JUMPDEST PUSH2 0xD4A JUMP JUMPDEST POP JUMP JUMPDEST PUSH1 0x0 DUP1 PUSH1 0x0 SWAP1 SLOAD SWAP1 PUSH2 0x100 EXP SWAP1 DIV PUSH20 0xFFFFFFFFFFFFFFFFFFFFFFFFFFFFFFFFFFFFFFFF AND SWAP1 POP SWAP1 JUMP JUMPDEST PUSH2 0x876 PUSH1 0x40 MLOAD DUP1 PUSH1 0x60 ADD PUSH1 0x40 MSTORE DUP1 CALLER PUSH20 0xFFFFFFFFFFFFFFFFFFFFFFFFFFFFFFFFFFFFFFFF AND DUP2 MSTORE PUSH1 0x20 ADD DUP4 DUP2 MSTORE PUSH1 0x20 ADD PUSH1 0x2 SLOAD DUP2 MSTORE POP PUSH2 0xEA9 JUMP JUMPDEST PUSH1 0x0 JUMPDEST PUSH1 0x5 DUP1 SLOAD SWAP1 POP DUP2 LT ISZERO PUSH2 0xA6D JUMPI PUSH1 0x0 PUSH1 0x5 DUP3 DUP2 SLOAD DUP2 LT PUSH2 0x89C JUMPI PUSH2 0x89B PUSH2 0x1DF4 JUMP JUMPDEST JUMPDEST SWAP1 PUSH1 0x0 MSTORE PUSH1 0x20 PUSH1 0x0 KECCAK256 SWAP1 PUSH1 0x4 SWAP2 DUP3 DUP3 DIV ADD SWAP2 SWAP1 MOD PUSH1 0x8 MUL SWAP1 SLOAD SWAP1 PUSH2 0x100 EXP SWAP1 DIV PUSH8 0xFFFFFFFFFFFFFFFF AND SWAP1 POP PUSH1 0x0 PUSH1 0x6 DUP4 PUSH1 0x3 DUP2 LT PUSH2 0x8DE JUMPI PUSH2 0x8DD PUSH2 0x1DF4 JUMP JUMPDEST JUMPDEST ADD PUSH1 0x0 SWAP1 SLOAD SWAP1 PUSH2 0x100 EXP SWAP1 DIV PUSH20 0xFFFFFFFFFFFFFFFFFFFFFFFFFFFFFFFFFFFFFFFF AND SWAP1 POP DUP2 PUSH8 0xFFFFFFFFFFFFFFFF AND PUSH1 0x5 PUSH1 0x2 SLOAD DUP2 SLOAD DUP2 LT PUSH2 0x923 JUMPI PUSH2 0x922 PUSH2 0x1DF4 JUMP JUMPDEST JUMPDEST SWAP1 PUSH1 0x0 MSTORE PUSH1 0x20 PUSH1 0x0 KECCAK256 SWAP1 PUSH1 0x4 SWAP2 DUP3 DUP3 DIV ADD SWAP2 SWAP1 MOD PUSH1 0x8 MUL SWAP1 SLOAD SWAP1 PUSH2 0x100 EXP SWAP1 DIV PUSH8 0xFFFFFFFFFFFFFFFF AND PUSH8 0xFFFFFFFFFFFFFFFF AND EQ ISZERO DUP1 ISZERO PUSH2 0x992 JUMPI POP PUSH1 0x0 PUSH20 0xFFFFFFFFFFFFFFFFFFFFFFFFFFFFFFFFFFFFFFFF AND DUP2 PUSH20 0xFFFFFFFFFFFFFFFFFFFFFFFFFFFFFFFFFFFFFFFF AND EQ ISZERO JUMPDEST ISZERO PUSH2 0xA58 JUMPI PUSH2 0xA56 DUP3 DUP3 PUSH1 0x4 PUSH1 0x2 SLOAD DUP2 SLOAD DUP2 LT PUSH2 0x9B2 JUMPI PUSH2 0x9B1 PUSH2 0x1DF4 JUMP JUMPDEST JUMPDEST SWAP1 PUSH1 0x0 MSTORE PUSH1 0x20 PUSH1 0x0 KECCAK256 ADD PUSH1 0x0 SWAP1 SLOAD SWAP1 PUSH2 0x100 EXP SWAP1 DIV PUSH20 0xFFFFFFFFFFFFFFFFFFFFFFFFFFFFFFFFFFFFFFFF AND PUSH1 0x3 PUSH1 0x2 SLOAD DUP2 SLOAD DUP2 LT PUSH2 0x9F3 JUMPI PUSH2 0x9F2 PUSH2 0x1DF4 JUMP JUMPDEST JUMPDEST SWAP1 PUSH1 0x0 MSTORE PUSH1 0x20 PUSH1 0x0 KECCAK256 ADD PUSH1 0x0 SWAP1 SLOAD SWAP1 PUSH2 0x100 EXP SWAP1 DIV PUSH20 0xFFFFFFFFFFFFFFFFFFFFFFFFFFFFFFFFFFFFFFFF AND PUSH1 0x40 MLOAD DUP1 PUSH1 0x60 ADD PUSH1 0x40 MSTORE DUP1 CALLER PUSH20 0xFFFFFFFFFFFFFFFFFFFFFFFFFFFFFFFFFFFFFFFF AND DUP2 MSTORE PUSH1 0x20 ADD DUP11 DUP2 MSTORE PUSH1 0x20 ADD PUSH1 0x2 SLOAD DUP2 MSTORE POP PUSH2 0x112C JUMP JUMPDEST POP JUMPDEST POP POP DUP1 DUP1 PUSH2 0xA65 SWAP1 PUSH2 0x1E52 JUMP JUMPDEST SWAP2 POP POP PUSH2 0x879 JUMP JUMPDEST POP POP JUMP JUMPDEST PUSH1 0xC DUP2 PUSH1 0xA DUP2 LT PUSH2 0xA81 JUMPI PUSH1 0x0 DUP1 REVERT JUMPDEST ADD PUSH1 0x0 SWAP2 POP SWAP1 POP SLOAD DUP2 JUMP JUMPDEST PUSH1 0x6 DUP2 PUSH1 0x3 DUP2 LT PUSH2 0xA9C JUMPI PUSH1 0x0 DUP1 REVERT JUMPDEST ADD PUSH1 0x0 SWAP2 POP SLOAD SWAP1 PUSH2 0x100 EXP SWAP1 DIV PUSH20 0xFFFFFFFFFFFFFFFFFFFFFFFFFFFFFFFFFFFFFFFF AND DUP2 JUMP JUMPDEST PUSH1 0x9 DUP1 PUSH1 0x0 ADD PUSH1 0x0 SWAP1 SLOAD SWAP1 PUSH2 0x100 EXP SWAP1 DIV PUSH20 0xFFFFFFFFFFFFFFFFFFFFFFFFFFFFFFFFFFFFFFFF AND SWAP1 DUP1 PUSH1 0x1 ADD SLOAD SWAP1 DUP1 PUSH1 0x2 ADD SLOAD SWAP1 POP DUP4 JUMP JUMPDEST PUSH1 0x16 DUP2 PUSH1 0xA DUP2 LT PUSH2 0xB0A JUMPI PUSH1 0x0 DUP1 REVERT JUMPDEST ADD PUSH1 0x0 SWAP2 POP SLOAD SWAP1 PUSH2 0x100 EXP SWAP1 DIV PUSH20 0xFFFFFFFFFFFFFFFFFFFFFFFFFFFFFFFFFFFFFFFF AND DUP2 JUMP JUMPDEST PUSH2 0xB38 PUSH2 0x16DC JUMP JUMPDEST PUSH2 0xB40 PUSH2 0x16DC JUMP JUMPDEST PUSH2 0xB48 PUSH2 0x16FF JUMP JUMPDEST PUSH1 0xC PUSH1 0x20 PUSH1 0x16 DUP3 PUSH1 0xA DUP1 PUSH1 0x20 MUL PUSH1 0x40 MLOAD SWAP1 DUP2 ADD PUSH1 0x40 MSTORE DUP1 SWAP3 SWAP2 SWAP1 DUP3 PUSH1 0xA DUP1 ISZERO PUSH2 0xB86 JUMPI PUSH1 0x20 MUL DUP3 ADD SWAP2 JUMPDEST DUP2 SLOAD DUP2 MSTORE PUSH1 0x20 ADD SWAP1 PUSH1 0x1 ADD SWAP1 DUP1 DUP4 GT PUSH2 0xB72 JUMPI JUMPDEST POP POP POP POP POP SWAP3 POP DUP2 PUSH1 0xA DUP1 PUSH1 0x20 MUL PUSH1 0x40 MLOAD SWAP1 DUP2 ADD PUSH1 0x40 MSTORE DUP1 SWAP3 SWAP2 SWAP1 DUP3 PUSH1 0xA DUP1 ISZERO PUSH2 0xBC5 JUMPI PUSH1 0x20 MUL DUP3 ADD SWAP2 JUMPDEST DUP2 SLOAD DUP2 MSTORE PUSH1 0x20 ADD SWAP1 PUSH1 0x1 ADD SWAP1 DUP1 DUP4 GT PUSH2 0xBB1 JUMPI JUMPDEST POP POP POP POP POP SWAP2 POP DUP1 PUSH1 0xA DUP1 PUSH1 0x20 MUL PUSH1 0x40 MLOAD SWAP1 DUP2 ADD PUSH1 0x40 MSTORE DUP1 SWAP3 SWAP2 SWAP1 DUP3 PUSH1 0xA DUP1 ISZERO PUSH2 0xC3A JUMPI PUSH1 0x20 MUL DUP3 ADD SWAP2 JUMPDEST DUP2 PUSH1 0x0 SWAP1 SLOAD SWAP1 PUSH2 0x100 EXP SWAP1 DIV PUSH20 0xFFFFFFFFFFFFFFFFFFFFFFFFFFFFFFFFFFFFFFFF AND PUSH20 0xFFFFFFFFFFFFFFFFFFFFFFFFFFFFFFFFFFFFFFFF AND DUP2 MSTORE PUSH1 0x20 ADD SWAP1 PUSH1 0x1 ADD SWAP1 DUP1 DUP4 GT PUSH2 0xBF0 JUMPI JUMPDEST POP POP POP POP POP SWAP1 POP SWAP3 POP SWAP3 POP SWAP3 POP SWAP1 SWAP2 SWAP3 JUMP JUMPDEST PUSH1 0x20 DUP2 PUSH1 0xA DUP2 LT PUSH2 0xC5C JUMPI PUSH1 0x0 DUP1 REVERT JUMPDEST ADD PUSH1 0x0 SWAP2 POP SWAP1 POP SLOAD DUP2 JUMP JUMPDEST PUSH1 0x4 DUP2 DUP2 SLOAD DUP2 LT PUSH2 0xC77 JUMPI PUSH1 0x0 DUP1 REVERT JUMPDEST SWAP1 PUSH1 0x0 MSTORE PUSH1 0x20 PUSH1 0x0 KECCAK256 ADD PUSH1 0x0 SWAP2 POP SLOAD SWAP1 PUSH2 0x100 EXP SWAP1 DIV PUSH20 0xFFFFFFFFFFFFFFFFFFFFFFFFFFFFFFFFFFFFFFFF AND DUP2 JUMP JUMPDEST PUSH2 0xCAE PUSH2 0xCBA JUMP JUMPDEST PUSH2 0xCB7 DUP2 PUSH2 0x1531 JUMP JUMPDEST POP JUMP JUMPDEST PUSH1 0x0 DUP1 SLOAD SWAP1 PUSH2 0x100 EXP SWAP1 DIV PUSH20 0xFFFFFFFFFFFFFFFFFFFFFFFFFFFFFFFFFFFFFFFF AND PUSH20 0xFFFFFFFFFFFFFFFFFFFFFFFFFFFFFFFFFFFFFFFF AND CALLER PUSH20 0xFFFFFFFFFFFFFFFFFFFFFFFFFFFFFFFFFFFFFFFF AND EQ PUSH2 0xD48 JUMPI PUSH1 0x40 MLOAD PUSH32 0x8C379A000000000000000000000000000000000000000000000000000000000 DUP2 MSTORE PUSH1 0x4 ADD PUSH2 0xD3F SWAP1 PUSH2 0x2279 JUMP JUMPDEST PUSH1 0x40 MLOAD DUP1 SWAP2 SUB SWAP1 REVERT JUMPDEST JUMP JUMPDEST DUP1 PUSH1 0x60 ADD MLOAD DUP1 PUSH1 0x20 ADD SWAP1 MLOAD DUP2 ADD SWAP1 PUSH2 0xD62 SWAP2 SWAP1 PUSH2 0x2327 JUMP JUMPDEST PUSH1 0x9 PUSH1 0x0 DUP3 ADD MLOAD DUP2 PUSH1 0x0 ADD PUSH1 0x0 PUSH2 0x100 EXP DUP2 SLOAD DUP2 PUSH20 0xFFFFFFFFFFFFFFFFFFFFFFFFFFFFFFFFFFFFFFFF MUL NOT AND SWAP1 DUP4 PUSH20 0xFFFFFFFFFFFFFFFFFFFFFFFFFFFFFFFFFFFFFFFF AND MUL OR SWAP1 SSTORE POP PUSH1 0x20 DUP3 ADD MLOAD DUP2 PUSH1 0x1 ADD SSTORE PUSH1 0x40 DUP3 ADD MLOAD DUP2 PUSH1 0x2 ADD SSTORE SWAP1 POP POP PUSH2 0xE41 PUSH1 0x9 PUSH1 0x40 MLOAD DUP1 PUSH1 0x60 ADD PUSH1 0x40 MSTORE SWAP1 DUP2 PUSH1 0x0 DUP3 ADD PUSH1 0x0 SWAP1 SLOAD SWAP1 PUSH2 0x100 EXP SWAP1 DIV PUSH20 0xFFFFFFFFFFFFFFFFFFFFFFFFFFFFFFFFFFFFFFFF AND PUSH20 0xFFFFFFFFFFFFFFFFFFFFFFFFFFFFFFFFFFFFFFFF AND PUSH20 0xFFFFFFFFFFFFFFFFFFFFFFFFFFFFFFFFFFFFFFFF AND DUP2 MSTORE PUSH1 0x20 ADD PUSH1 0x1 DUP3 ADD SLOAD DUP2 MSTORE PUSH1 0x20 ADD PUSH1 0x2 DUP3 ADD SLOAD DUP2 MSTORE POP POP PUSH2 0xEA9 JUMP JUMPDEST DUP1 PUSH1 0x20 ADD MLOAD PUSH8 0xFFFFFFFFFFFFFFFF AND DUP2 PUSH1 0x0 ADD MLOAD PUSH32 0xAA5CBDCF4F25939D41BE3032075952CFD5F51F978A501D2F801D671061623F1D DUP4 PUSH1 0x40 ADD MLOAD DUP1 PUSH1 0x20 ADD SWAP1 MLOAD DUP2 ADD SWAP1 PUSH2 0xE8E SWAP2 SWAP1 PUSH2 0x2392 JUMP JUMPDEST PUSH1 0x9 PUSH1 0x40 MLOAD PUSH2 0xE9E SWAP3 SWAP2 SWAP1 PUSH2 0x24EE JUMP JUMPDEST PUSH1 0x40 MLOAD DUP1 SWAP2 SUB SWAP1 LOG3 POP JUMP JUMPDEST PUSH1 0x0 DUP2 PUSH1 0x20 ADD MLOAD SWAP1 POP PUSH1 0x0 DUP3 PUSH1 0x0 ADD MLOAD SWAP1 POP PUSH1 0x0 DUP4 PUSH1 0x40 ADD MLOAD SWAP1 POP DUP3 PUSH1 0xC PUSH1 0x1 PUSH1 0xA PUSH2 0xED5 SWAP2 SWAP1 PUSH2 0x2517 JUMP JUMPDEST PUSH1 0xA DUP2 LT PUSH2 0xEE6 JUMPI PUSH2 0xEE5 PUSH2 0x1DF4 JUMP JUMPDEST JUMPDEST ADD SLOAD LT ISZERO PUSH2 0x1126 JUMPI PUSH1 0x0 DUP1 PUSH1 0x1 PUSH1 0xA PUSH2 0xEFF SWAP2 SWAP1 PUSH2 0x2517 JUMP JUMPDEST SWAP1 POP PUSH1 0x0 JUMPDEST DUP2 DUP4 LT ISZERO PUSH2 0xF60 JUMPI PUSH1 0x2 DUP3 DUP5 PUSH2 0xF1A SWAP2 SWAP1 PUSH2 0x254B JUMP JUMPDEST PUSH2 0xF24 SWAP2 SWAP1 PUSH2 0x25AE JUMP JUMPDEST SWAP1 POP DUP6 PUSH1 0xC DUP3 PUSH1 0xA DUP2 LT PUSH2 0xF3B JUMPI PUSH2 0xF3A PUSH2 0x1DF4 JUMP JUMPDEST JUMPDEST ADD SLOAD LT ISZERO PUSH2 0xF4B JUMPI DUP1 SWAP2 POP PUSH2 0xF5B JUMP JUMPDEST PUSH1 0x1 DUP2 PUSH2 0xF58 SWAP2 SWAP1 PUSH2 0x254B JUMP JUMPDEST SWAP3 POP JUMPDEST PUSH2 0xF04 JUMP JUMPDEST PUSH1 0x0 PUSH1 0x1 PUSH1 0xA PUSH2 0xF70 SWAP2 SWAP1 PUSH2 0x2517 JUMP JUMPDEST SWAP1 POP JUMPDEST DUP4 DUP2 GT ISZERO PUSH2 0x1099 JUMPI PUSH1 0xC PUSH1 0x1 DUP3 PUSH2 0xF8A SWAP2 SWAP1 PUSH2 0x2517 JUMP JUMPDEST PUSH1 0xA DUP2 LT PUSH2 0xF9B JUMPI PUSH2 0xF9A PUSH2 0x1DF4 JUMP JUMPDEST JUMPDEST ADD SLOAD PUSH1 0xC DUP3 PUSH1 0xA DUP2 LT PUSH2 0xFB1 JUMPI PUSH2 0xFB0 PUSH2 0x1DF4 JUMP JUMPDEST JUMPDEST ADD DUP2 SWAP1 SSTORE POP PUSH1 0x16 PUSH1 0x1 DUP3 PUSH2 0xFC5 SWAP2 SWAP1 PUSH2 0x2517 JUMP JUMPDEST PUSH1 0xA DUP2 LT PUSH2 0xFD6 JUMPI PUSH2 0xFD5 PUSH2 0x1DF4 JUMP JUMPDEST JUMPDEST ADD PUSH1 0x0 SWAP1 SLOAD SWAP1 PUSH2 0x100 EXP SWAP1 DIV PUSH20 0xFFFFFFFFFFFFFFFFFFFFFFFFFFFFFFFFFFFFFFFF AND PUSH1 0x16 DUP3 PUSH1 0xA DUP2 LT PUSH2 0x100C JUMPI PUSH2 0x100B PUSH2 0x1DF4 JUMP JUMPDEST JUMPDEST ADD PUSH1 0x0 PUSH2 0x100 EXP DUP2 SLOAD DUP2 PUSH20 0xFFFFFFFFFFFFFFFFFFFFFFFFFFFFFFFFFFFFFFFF MUL NOT AND SWAP1 DUP4 PUSH20 0xFFFFFFFFFFFFFFFFFFFFFFFFFFFFFFFFFFFFFFFF AND MUL OR SWAP1 SSTORE POP PUSH1 0x20 PUSH1 0x1 DUP3 PUSH2 0x105A SWAP2 SWAP1 PUSH2 0x2517 JUMP JUMPDEST PUSH1 0xA DUP2 LT PUSH2 0x106B JUMPI PUSH2 0x106A PUSH2 0x1DF4 JUMP JUMPDEST JUMPDEST ADD SLOAD PUSH1 0x20 DUP3 PUSH1 0xA DUP2 LT PUSH2 0x1081 JUMPI PUSH2 0x1080 PUSH2 0x1DF4 JUMP JUMPDEST JUMPDEST ADD DUP2 SWAP1 SSTORE POP DUP1 DUP1 PUSH2 0x1091 SWAP1 PUSH2 0x25DF JUMP JUMPDEST SWAP2 POP POP PUSH2 0xF73 JUMP JUMPDEST POP DUP6 PUSH1 0xC DUP5 PUSH1 0xA DUP2 LT PUSH2 0x10AF JUMPI PUSH2 0x10AE PUSH2 0x1DF4 JUMP JUMPDEST JUMPDEST ADD DUP2 SWAP1 SSTORE POP DUP5 PUSH1 0x16 DUP5 PUSH1 0xA DUP2 LT PUSH2 0x10C9 JUMPI PUSH2 0x10C8 PUSH2 0x1DF4 JUMP JUMPDEST JUMPDEST ADD PUSH1 0x0 PUSH2 0x100 EXP DUP2 SLOAD DUP2 PUSH20 0xFFFFFFFFFFFFFFFFFFFFFFFFFFFFFFFFFFFFFFFF MUL NOT AND SWAP1 DUP4 PUSH20 0xFFFFFFFFFFFFFFFFFFFFFFFFFFFFFFFFFFFFFFFF AND MUL OR SWAP1 SSTORE POP DUP4 PUSH1 0x20 DUP5 PUSH1 0xA DUP2 LT PUSH2 0x111D JUMPI PUSH2 0x111C PUSH2 0x1DF4 JUMP JUMPDEST JUMPDEST ADD DUP2 SWAP1 SSTORE POP POP POP POP JUMPDEST POP POP POP POP JUMP JUMPDEST PUSH1 0x0 DUP1 DUP5 SWAP1 POP PUSH1 0x0 DUP5 SWAP1 POP PUSH1 0x0 PUSH1 0x40 MLOAD DUP1 PUSH1 0xA0 ADD PUSH1 0x40 MSTORE DUP1 DUP10 PUSH1 0x40 MLOAD PUSH1 0x20 ADD PUSH2 0x1155 SWAP2 SWAP1 PUSH2 0x1AFB JUMP JUMPDEST PUSH1 0x40 MLOAD PUSH1 0x20 DUP2 DUP4 SUB SUB DUP2 MSTORE SWAP1 PUSH1 0x40 MSTORE DUP2 MSTORE PUSH1 0x20 ADD DUP7 PUSH1 0x40 MLOAD PUSH1 0x20 ADD PUSH2 0x117A SWAP2 SWAP1 PUSH2 0x264A JUMP JUMPDEST PUSH1 0x40 MLOAD PUSH1 0x20 DUP2 DUP4 SUB SUB DUP2 MSTORE SWAP1 PUSH1 0x40 MSTORE DUP2 MSTORE PUSH1 0x20 ADD PUSH1 0x0 PUSH8 0xFFFFFFFFFFFFFFFF DUP2 GT ISZERO PUSH2 0x11A9 JUMPI PUSH2 0x11A8 PUSH2 0x1902 JUMP JUMPDEST JUMPDEST PUSH1 0x40 MLOAD SWAP1 DUP1 DUP3 MSTORE DUP1 PUSH1 0x20 MUL PUSH1 0x20 ADD DUP3 ADD PUSH1 0x40 MSTORE DUP1 ISZERO PUSH2 0x11E2 JUMPI DUP2 PUSH1 0x20 ADD JUMPDEST PUSH2 0x11CF PUSH2 0x1722 JUMP JUMPDEST DUP2 MSTORE PUSH1 0x20 ADD SWAP1 PUSH1 0x1 SWAP1 SUB SWAP1 DUP2 PUSH2 0x11C7 JUMPI SWAP1 POP JUMPDEST POP DUP2 MSTORE PUSH1 0x20 ADD DUP9 PUSH20 0xFFFFFFFFFFFFFFFFFFFFFFFFFFFFFFFFFFFFFFFF AND DUP2 MSTORE PUSH1 0x20 ADD PUSH2 0x121E PUSH1 0x40 MLOAD DUP1 PUSH1 0x20 ADD PUSH1 0x40 MSTORE DUP1 PUSH3 0x30D40 DUP2 MSTORE POP PUSH2 0x165D JUMP JUMPDEST DUP2 MSTORE POP SWAP1 POP PUSH1 0x0 DUP3 PUSH20 0xFFFFFFFFFFFFFFFFFFFFFFFFFFFFFFFFFFFFFFFF AND PUSH4 0x20487DED DUP12 DUP5 PUSH1 0x40 MLOAD DUP4 PUSH4 0xFFFFFFFF AND PUSH1 0xE0 SHL DUP2 MSTORE PUSH1 0x4 ADD PUSH2 0x1260 SWAP3 SWAP2 SWAP1 PUSH2 0x284D JUMP JUMPDEST PUSH1 0x20 PUSH1 0x40 MLOAD DUP1 DUP4 SUB DUP2 DUP7 GAS STATICCALL ISZERO DUP1 ISZERO PUSH2 0x127D JUMPI RETURNDATASIZE PUSH1 0x0 DUP1 RETURNDATACOPY RETURNDATASIZE PUSH1 0x0 REVERT JUMPDEST POP POP POP POP PUSH1 0x40 MLOAD RETURNDATASIZE PUSH1 0x1F NOT PUSH1 0x1F DUP3 ADD AND DUP3 ADD DUP1 PUSH1 0x40 MSTORE POP DUP2 ADD SWAP1 PUSH2 0x12A1 SWAP2 SWAP1 PUSH2 0x287D JUMP JUMPDEST SWAP1 POP DUP4 PUSH20 0xFFFFFFFFFFFFFFFFFFFFFFFFFFFFFFFFFFFFFFFF AND PUSH4 0x70A08231 ADDRESS PUSH1 0x40 MLOAD DUP3 PUSH4 0xFFFFFFFF AND PUSH1 0xE0 SHL DUP2 MSTORE PUSH1 0x4 ADD PUSH2 0x12DC SWAP2 SWAP1 PUSH2 0x1AFB JUMP JUMPDEST PUSH1 0x20 PUSH1 0x40 MLOAD DUP1 DUP4 SUB DUP2 DUP7 GAS STATICCALL ISZERO DUP1 ISZERO PUSH2 0x12F9 JUMPI RETURNDATASIZE PUSH1 0x0 DUP1 RETURNDATACOPY RETURNDATASIZE PUSH1 0x0 REVERT JUMPDEST POP POP POP POP PUSH1 0x40 MLOAD RETURNDATASIZE PUSH1 0x1F NOT PUSH1 0x1F DUP3 ADD AND DUP3 ADD DUP1 PUSH1 0x40 MSTORE POP DUP2 ADD SWAP1 PUSH2 0x131D SWAP2 SWAP1 PUSH2 0x287D JUMP JUMPDEST DUP2 GT ISZERO PUSH2 0x13DC JUMPI DUP4 PUSH20 0xFFFFFFFFFFFFFFFFFFFFFFFFFFFFFFFFFFFFFFFF AND PUSH4 0x70A08231 ADDRESS PUSH1 0x40 MLOAD DUP3 PUSH4 0xFFFFFFFF AND PUSH1 0xE0 SHL DUP2 MSTORE PUSH1 0x4 ADD PUSH2 0x135D SWAP2 SWAP1 PUSH2 0x1AFB JUMP JUMPDEST PUSH1 0x20 PUSH1 0x40 MLOAD DUP1 DUP4 SUB DUP2 DUP7 GAS STATICCALL ISZERO DUP1 ISZERO PUSH2 0x137A JUMPI RETURNDATASIZE PUSH1 0x0 DUP1 RETURNDATACOPY RETURNDATASIZE PUSH1 0x0 REVERT JUMPDEST POP POP POP POP PUSH1 0x40 MLOAD RETURNDATASIZE PUSH1 0x1F NOT PUSH1 0x1F DUP3 ADD AND DUP3 ADD DUP1 PUSH1 0x40 MSTORE POP DUP2 ADD SWAP1 PUSH2 0x139E SWAP2 SWAP1 PUSH2 0x287D JUMP JUMPDEST DUP2 PUSH1 0x40 MLOAD PUSH32 0x8F0F420600000000000000000000000000000000000000000000000000000000 DUP2 MSTORE PUSH1 0x4 ADD PUSH2 0x13D3 SWAP3 SWAP2 SWAP1 PUSH2 0x28AA JUMP JUMPDEST PUSH1 0x40 MLOAD DUP1 SWAP2 SUB SWAP1 REVERT JUMPDEST DUP4 PUSH20 0xFFFFFFFFFFFFFFFFFFFFFFFFFFFFFFFFFFFFFFFF AND PUSH4 0x95EA7B3 DUP5 DUP4 PUSH1 0x40 MLOAD DUP4 PUSH4 0xFFFFFFFF AND PUSH1 0xE0 SHL DUP2 MSTORE PUSH1 0x4 ADD PUSH2 0x1417 SWAP3 SWAP2 SWAP1 PUSH2 0x28D3 JUMP JUMPDEST PUSH1 0x20 PUSH1 0x40 MLOAD DUP1 DUP4 SUB DUP2 PUSH1 0x0 DUP8 GAS CALL ISZERO DUP1 ISZERO PUSH2 0x1436 JUMPI RETURNDATASIZE PUSH1 0x0 DUP1 RETURNDATACOPY RETURNDATASIZE PUSH1 0x0 REVERT JUMPDEST POP POP POP POP PUSH1 0x40 MLOAD RETURNDATASIZE PUSH1 0x1F NOT PUSH1 0x1F DUP3 ADD AND DUP3 ADD DUP1 PUSH1 0x40 MSTORE POP DUP2 ADD SWAP1 PUSH2 0x145A SWAP2 SWAP1 PUSH2 0x2928 JUMP JUMPDEST POP DUP3 PUSH20 0xFFFFFFFFFFFFFFFFFFFFFFFFFFFFFFFFFFFFFFFF AND PUSH4 0x96F4E9F9 DUP12 DUP5 PUSH1 0x40 MLOAD DUP4 PUSH4 0xFFFFFFFF AND PUSH1 0xE0 SHL DUP2 MSTORE PUSH1 0x4 ADD PUSH2 0x1496 SWAP3 SWAP2 SWAP1 PUSH2 0x284D JUMP JUMPDEST PUSH1 0x20 PUSH1 0x40 MLOAD DUP1 DUP4 SUB DUP2 PUSH1 0x0 DUP8 GAS CALL ISZERO DUP1 ISZERO PUSH2 0x14B5 JUMPI RETURNDATASIZE PUSH1 0x0 DUP1 RETURNDATACOPY RETURNDATASIZE PUSH1 0x0 REVERT JUMPDEST POP POP POP POP PUSH1 0x40 MLOAD RETURNDATASIZE PUSH1 0x1F NOT PUSH1 0x1F DUP3 ADD AND DUP3 ADD DUP1 PUSH1 0x40 MSTORE POP DUP2 ADD SWAP1 PUSH2 0x14D9 SWAP2 SWAP1 PUSH2 0x296A JUMP JUMPDEST SWAP5 POP DUP10 PUSH8 0xFFFFFFFFFFFFFFFF AND DUP6 PUSH32 0xD0D85F1CC5AB17F712B6074D702EDD6281031E603C5CF76890A85B1170045B3A DUP12 DUP10 DUP13 DUP7 PUSH1 0x40 MLOAD PUSH2 0x151C SWAP5 SWAP4 SWAP3 SWAP2 SWAP1 PUSH2 0x2997 JUMP JUMPDEST PUSH1 0x40 MLOAD DUP1 SWAP2 SUB SWAP1 LOG3 POP POP POP POP SWAP6 SWAP5 POP POP POP POP POP JUMP JUMPDEST CALLER PUSH20 0xFFFFFFFFFFFFFFFFFFFFFFFFFFFFFFFFFFFFFFFF AND DUP2 PUSH20 0xFFFFFFFFFFFFFFFFFFFFFFFFFFFFFFFFFFFFFFFF AND SUB PUSH2 0x159F JUMPI PUSH1 0x40 MLOAD PUSH32 0x8C379A000000000000000000000000000000000000000000000000000000000 DUP2 MSTORE PUSH1 0x4 ADD PUSH2 0x1596 SWAP1 PUSH2 0x2A28 JUMP JUMPDEST PUSH1 0x40 MLOAD DUP1 SWAP2 SUB SWAP1 REVERT JUMPDEST DUP1 PUSH1 0x1 PUSH1 0x0 PUSH2 0x100 EXP DUP2 SLOAD DUP2 PUSH20 0xFFFFFFFFFFFFFFFFFFFFFFFFFFFFFFFFFFFFFFFF MUL NOT AND SWAP1 DUP4 PUSH20 0xFFFFFFFFFFFFFFFFFFFFFFFFFFFFFFFFFFFFFFFF AND MUL OR SWAP1 SSTORE POP DUP1 PUSH20 0xFFFFFFFFFFFFFFFFFFFFFFFFFFFFFFFFFFFFFFFF AND PUSH1 0x0 DUP1 SLOAD SWAP1 PUSH2 0x100 EXP SWAP1 DIV PUSH20 0xFFFFFFFFFFFFFFFFFFFFFFFFFFFFFFFFFFFFFFFF AND PUSH20 0xFFFFFFFFFFFFFFFFFFFFFFFFFFFFFFFFFFFFFFFF AND PUSH32 0xED8889F560326EB138920D842192F0EB3DD22B4F139C87A2C57538E05BAE1278 PUSH1 0x40 MLOAD PUSH1 0x40 MLOAD DUP1 SWAP2 SUB SWAP1 LOG3 POP JUMP JUMPDEST PUSH1 0x60 PUSH4 0x97A657C9 PUSH1 0xE0 SHL DUP3 PUSH1 0x40 MLOAD PUSH1 0x24 ADD PUSH2 0x1678 SWAP2 SWAP1 PUSH2 0x2A64 JUMP JUMPDEST PUSH1 0x40 MLOAD PUSH1 0x20 DUP2 DUP4 SUB SUB DUP2 MSTORE SWAP1 PUSH1 0x40 MSTORE SWAP1 PUSH28 0xFFFFFFFFFFFFFFFFFFFFFFFFFFFFFFFFFFFFFFFFFFFFFFFFFFFFFFFF NOT AND PUSH1 0x20 DUP3 ADD DUP1 MLOAD PUSH28 0xFFFFFFFFFFFFFFFFFFFFFFFFFFFFFFFFFFFFFFFFFFFFFFFFFFFFFFFF DUP4 DUP2 DUP4 AND OR DUP4 MSTORE POP POP POP POP SWAP1 POP SWAP2 SWAP1 POP JUMP JUMPDEST PUSH1 0x40 MLOAD DUP1 PUSH2 0x140 ADD PUSH1 0x40 MSTORE DUP1 PUSH1 0xA SWAP1 PUSH1 0x20 DUP3 MUL DUP1 CALLDATASIZE DUP4 CALLDATACOPY DUP1 DUP3 ADD SWAP2 POP POP SWAP1 POP POP SWAP1 JUMP JUMPDEST PUSH1 0x40 MLOAD DUP1 PUSH2 0x140 ADD PUSH1 0x40 MSTORE DUP1 PUSH1 0xA SWAP1 PUSH1 0x20 DUP3 MUL DUP1 CALLDATASIZE DUP4 CALLDATACOPY DUP1 DUP3 ADD SWAP2 POP POP SWAP1 POP POP SWAP1 JUMP JUMPDEST PUSH1 0x40 MLOAD DUP1 PUSH1 0x40 ADD PUSH1 0x40 MSTORE DUP1 PUSH1 0x0 PUSH20 0xFFFFFFFFFFFFFFFFFFFFFFFFFFFFFFFFFFFFFFFF AND DUP2 MSTORE PUSH1 0x20 ADD PUSH1 0x0 DUP2 MSTORE POP SWAP1 JUMP JUMPDEST PUSH1 0x0 PUSH1 0x40 MLOAD SWAP1 POP SWAP1 JUMP JUMPDEST PUSH1 0x0 DUP1 REVERT JUMPDEST PUSH1 0x0 DUP1 REVERT JUMPDEST PUSH1 0x0 PUSH32 0xFFFFFFFF00000000000000000000000000000000000000000000000000000000 DUP3 AND SWAP1 POP SWAP2 SWAP1 POP JUMP JUMPDEST PUSH2 0x179B DUP2 PUSH2 0x1766 JUMP JUMPDEST DUP2 EQ PUSH2 0x17A6 JUMPI PUSH1 0x0 DUP1 REVERT JUMPDEST POP JUMP JUMPDEST PUSH1 0x0 DUP2 CALLDATALOAD SWAP1 POP PUSH2 0x17B8 DUP2 PUSH2 0x1792 JUMP JUMPDEST SWAP3 SWAP2 POP POP JUMP JUMPDEST PUSH1 0x0 PUSH1 0x20 DUP3 DUP5 SUB SLT ISZERO PUSH2 0x17D4 JUMPI PUSH2 0x17D3 PUSH2 0x175C JUMP JUMPDEST JUMPDEST PUSH1 0x0 PUSH2 0x17E2 DUP5 DUP3 DUP6 ADD PUSH2 0x17A9 JUMP JUMPDEST SWAP2 POP POP SWAP3 SWAP2 POP POP JUMP JUMPDEST PUSH1 0x0 DUP2 ISZERO ISZERO SWAP1 POP SWAP2 SWAP1 POP JUMP JUMPDEST PUSH2 0x1800 DUP2 PUSH2 0x17EB JUMP JUMPDEST DUP3 MSTORE POP POP JUMP JUMPDEST PUSH1 0x0 PUSH1 0x20 DUP3 ADD SWAP1 POP PUSH2 0x181B PUSH1 0x0 DUP4 ADD DUP5 PUSH2 0x17F7 JUMP JUMPDEST SWAP3 SWAP2 POP POP JUMP JUMPDEST PUSH1 0x0 DUP2 SWAP1 POP SWAP2 SWAP1 POP JUMP JUMPDEST PUSH2 0x1834 DUP2 PUSH2 0x1821 JUMP JUMPDEST DUP3 MSTORE POP POP JUMP JUMPDEST PUSH1 0x0 PUSH1 0x20 DUP3 ADD SWAP1 POP PUSH2 0x184F PUSH1 0x0 DUP4 ADD DUP5 PUSH2 0x182B JUMP JUMPDEST SWAP3 SWAP2 POP POP JUMP JUMPDEST PUSH2 0x185E DUP2 PUSH2 0x1821 JUMP JUMPDEST DUP2 EQ PUSH2 0x1869 JUMPI PUSH1 0x0 DUP1 REVERT JUMPDEST POP JUMP JUMPDEST PUSH1 0x0 DUP2 CALLDATALOAD SWAP1 POP PUSH2 0x187B DUP2 PUSH2 0x1855 JUMP JUMPDEST SWAP3 SWAP2 POP POP JUMP JUMPDEST PUSH1 0x0 PUSH1 0x20 DUP3 DUP5 SUB SLT ISZERO PUSH2 0x1897 JUMPI PUSH2 0x1896 PUSH2 0x175C JUMP JUMPDEST JUMPDEST PUSH1 0x0 PUSH2 0x18A5 DUP5 DUP3 DUP6 ADD PUSH2 0x186C JUMP JUMPDEST SWAP2 POP POP SWAP3 SWAP2 POP POP JUMP JUMPDEST PUSH1 0x0 PUSH8 0xFFFFFFFFFFFFFFFF DUP3 AND SWAP1 POP SWAP2 SWAP1 POP JUMP JUMPDEST PUSH2 0x18CB DUP2 PUSH2 0x18AE JUMP JUMPDEST DUP3 MSTORE POP POP JUMP JUMPDEST PUSH1 0x0 PUSH1 0x20 DUP3 ADD SWAP1 POP PUSH2 0x18E6 PUSH1 0x0 DUP4 ADD DUP5 PUSH2 0x18C2 JUMP JUMPDEST SWAP3 SWAP2 POP POP JUMP JUMPDEST PUSH1 0x0 DUP1 REVERT JUMPDEST PUSH1 0x0 PUSH1 0x1F NOT PUSH1 0x1F DUP4 ADD AND SWAP1 POP SWAP2 SWAP1 POP JUMP JUMPDEST PUSH32 0x4E487B7100000000000000000000000000000000000000000000000000000000 PUSH1 0x0 MSTORE PUSH1 0x41 PUSH1 0x4 MSTORE PUSH1 0x24 PUSH1 0x0 REVERT JUMPDEST PUSH2 0x193A DUP3 PUSH2 0x18F1 JUMP JUMPDEST DUP2 ADD DUP2 DUP2 LT PUSH8 0xFFFFFFFFFFFFFFFF DUP3 GT OR ISZERO PUSH2 0x1959 JUMPI PUSH2 0x1958 PUSH2 0x1902 JUMP JUMPDEST JUMPDEST DUP1 PUSH1 0x40 MSTORE POP POP POP JUMP JUMPDEST PUSH1 0x0 PUSH2 0x196C PUSH2 0x1752 JUMP JUMPDEST SWAP1 POP PUSH2 0x1978 DUP3 DUP3 PUSH2 0x1931 JUMP JUMPDEST SWAP2 SWAP1 POP JUMP JUMPDEST PUSH1 0x0 PUSH8 0xFFFFFFFFFFFFFFFF DUP3 GT ISZERO PUSH2 0x1998 JUMPI PUSH2 0x1997 PUSH2 0x1902 JUMP JUMPDEST JUMPDEST PUSH1 0x20 DUP3 MUL SWAP1 POP PUSH1 0x20 DUP2 ADD SWAP1 POP SWAP2 SWAP1 POP JUMP JUMPDEST PUSH1 0x0 DUP1 REVERT JUMPDEST PUSH1 0x0 PUSH20 0xFFFFFFFFFFFFFFFFFFFFFFFFFFFFFFFFFFFFFFFF DUP3 AND SWAP1 POP SWAP2 SWAP1 POP JUMP JUMPDEST PUSH1 0x0 PUSH2 0x19D9 DUP3 PUSH2 0x19AE JUMP JUMPDEST SWAP1 POP SWAP2 SWAP1 POP JUMP JUMPDEST PUSH2 0x19E9 DUP2 PUSH2 0x19CE JUMP JUMPDEST DUP2 EQ PUSH2 0x19F4 JUMPI PUSH1 0x0 DUP1 REVERT JUMPDEST POP JUMP JUMPDEST PUSH1 0x0 DUP2 CALLDATALOAD SWAP1 POP PUSH2 0x1A06 DUP2 PUSH2 0x19E0 JUMP JUMPDEST SWAP3 SWAP2 POP POP JUMP JUMPDEST PUSH1 0x0 PUSH2 0x1A1F PUSH2 0x1A1A DUP5 PUSH2 0x197D JUMP JUMPDEST PUSH2 0x1962 JUMP JUMPDEST SWAP1 POP DUP1 DUP4 DUP3 MSTORE PUSH1 0x20 DUP3 ADD SWAP1 POP PUSH1 0x20 DUP5 MUL DUP4 ADD DUP6 DUP2 GT ISZERO PUSH2 0x1A42 JUMPI PUSH2 0x1A41 PUSH2 0x19A9 JUMP JUMPDEST JUMPDEST DUP4 JUMPDEST DUP2 DUP2 LT ISZERO PUSH2 0x1A6B JUMPI DUP1 PUSH2 0x1A57 DUP9 DUP3 PUSH2 0x19F7 JUMP JUMPDEST DUP5 MSTORE PUSH1 0x20 DUP5 ADD SWAP4 POP POP PUSH1 0x20 DUP2 ADD SWAP1 POP PUSH2 0x1A44 JUMP JUMPDEST POP POP POP SWAP4 SWAP3 POP POP POP JUMP JUMPDEST PUSH1 0x0 DUP3 PUSH1 0x1F DUP4 ADD SLT PUSH2 0x1A8A JUMPI PUSH2 0x1A89 PUSH2 0x18EC JUMP JUMPDEST JUMPDEST DUP2 CALLDATALOAD PUSH2 0x1A9A DUP5 DUP3 PUSH1 0x20 DUP7 ADD PUSH2 0x1A0C JUMP JUMPDEST SWAP2 POP POP SWAP3 SWAP2 POP POP JUMP JUMPDEST PUSH1 0x0 PUSH1 0x20 DUP3 DUP5 SUB SLT ISZERO PUSH2 0x1AB9 JUMPI PUSH2 0x1AB8 PUSH2 0x175C JUMP JUMPDEST JUMPDEST PUSH1 0x0 DUP3 ADD CALLDATALOAD PUSH8 0xFFFFFFFFFFFFFFFF DUP2 GT ISZERO PUSH2 0x1AD7 JUMPI PUSH2 0x1AD6 PUSH2 0x1761 JUMP JUMPDEST JUMPDEST PUSH2 0x1AE3 DUP5 DUP3 DUP6 ADD PUSH2 0x1A75 JUMP JUMPDEST SWAP2 POP POP SWAP3 SWAP2 POP POP JUMP JUMPDEST PUSH2 0x1AF5 DUP2 PUSH2 0x19CE JUMP JUMPDEST DUP3 MSTORE POP POP JUMP JUMPDEST PUSH1 0x0 PUSH1 0x20 DUP3 ADD SWAP1 POP PUSH2 0x1B10 PUSH1 0x0 DUP4 ADD DUP5 PUSH2 0x1AEC JUMP JUMPDEST SWAP3 SWAP2 POP POP JUMP JUMPDEST PUSH1 0x0 DUP1 REVERT JUMPDEST PUSH1 0x0 PUSH1 0xA0 DUP3 DUP5 SUB SLT ISZERO PUSH2 0x1B31 JUMPI PUSH2 0x1B30 PUSH2 0x1B16 JUMP JUMPDEST JUMPDEST DUP2 SWAP1 POP SWAP3 SWAP2 POP POP JUMP JUMPDEST PUSH1 0x0 PUSH1 0x20 DUP3 DUP5 SUB SLT ISZERO PUSH2 0x1B50 JUMPI PUSH2 0x1B4F PUSH2 0x175C JUMP JUMPDEST JUMPDEST PUSH1 0x0 DUP3 ADD CALLDATALOAD PUSH8 0xFFFFFFFFFFFFFFFF DUP2 GT ISZERO PUSH2 0x1B6E JUMPI PUSH2 0x1B6D PUSH2 0x1761 JUMP JUMPDEST JUMPDEST PUSH2 0x1B7A DUP5 DUP3 DUP6 ADD PUSH2 0x1B1B JUMP JUMPDEST SWAP2 POP POP SWAP3 SWAP2 POP POP JUMP JUMPDEST PUSH1 0x0 PUSH1 0x60 DUP3 ADD SWAP1 POP PUSH2 0x1B98 PUSH1 0x0 DUP4 ADD DUP7 PUSH2 0x1AEC JUMP JUMPDEST PUSH2 0x1BA5 PUSH1 0x20 DUP4 ADD DUP6 PUSH2 0x182B JUMP JUMPDEST PUSH2 0x1BB2 PUSH1 0x40 DUP4 ADD DUP5 PUSH2 0x182B JUMP JUMPDEST SWAP5 SWAP4 POP POP POP POP JUMP JUMPDEST PUSH1 0x0 PUSH1 0xA SWAP1 POP SWAP2 SWAP1 POP JUMP JUMPDEST PUSH1 0x0 DUP2 SWAP1 POP SWAP3 SWAP2 POP POP JUMP JUMPDEST PUSH1 0x0 DUP2 SWAP1 POP SWAP2 SWAP1 POP JUMP JUMPDEST PUSH2 0x1BE3 DUP2 PUSH2 0x1821 JUMP JUMPDEST DUP3 MSTORE POP POP JUMP JUMPDEST PUSH1 0x0 PUSH2 0x1BF5 DUP4 DUP4 PUSH2 0x1BDA JUMP JUMPDEST PUSH1 0x20 DUP4 ADD SWAP1 POP SWAP3 SWAP2 POP POP JUMP JUMPDEST PUSH1 0x0 PUSH1 0x20 DUP3 ADD SWAP1 POP SWAP2 SWAP1 POP JUMP JUMPDEST PUSH2 0x1C17 DUP2 PUSH2 0x1BBA JUMP JUMPDEST PUSH2 0x1C21 DUP2 DUP5 PUSH2 0x1BC5 JUMP JUMPDEST SWAP3 POP PUSH2 0x1C2C DUP3 PUSH2 0x1BD0 JUMP JUMPDEST DUP1 PUSH1 0x0 JUMPDEST DUP4 DUP2 LT ISZERO PUSH2 0x1C5D JUMPI DUP2 MLOAD PUSH2 0x1C44 DUP8 DUP3 PUSH2 0x1BE9 JUMP JUMPDEST SWAP7 POP PUSH2 0x1C4F DUP4 PUSH2 0x1C01 JUMP JUMPDEST SWAP3 POP POP PUSH1 0x1 DUP2 ADD SWAP1 POP PUSH2 0x1C30 JUMP JUMPDEST POP POP POP POP POP POP JUMP JUMPDEST PUSH1 0x0 PUSH1 0xA SWAP1 POP SWAP2 SWAP1 POP JUMP JUMPDEST PUSH1 0x0 DUP2 SWAP1 POP SWAP3 SWAP2 POP POP JUMP JUMPDEST PUSH1 0x0 DUP2 SWAP1 POP SWAP2 SWAP1 POP JUMP JUMPDEST PUSH2 0x1C8E DUP2 PUSH2 0x19CE JUMP JUMPDEST DUP3 MSTORE POP POP JUMP JUMPDEST PUSH1 0x0 PUSH2 0x1CA0 DUP4 DUP4 PUSH2 0x1C85 JUMP JUMPDEST PUSH1 0x20 DUP4 ADD SWAP1 POP SWAP3 SWAP2 POP POP JUMP JUMPDEST PUSH1 0x0 PUSH1 0x20 DUP3 ADD SWAP1 POP SWAP2 SWAP1 POP JUMP JUMPDEST PUSH2 0x1CC2 DUP2 PUSH2 0x1C65 JUMP JUMPDEST PUSH2 0x1CCC DUP2 DUP5 PUSH2 0x1C70 JUMP JUMPDEST SWAP3 POP PUSH2 0x1CD7 DUP3 PUSH2 0x1C7B JUMP JUMPDEST DUP1 PUSH1 0x0 JUMPDEST DUP4 DUP2 LT ISZERO PUSH2 0x1D08 JUMPI DUP2 MLOAD PUSH2 0x1CEF DUP8 DUP3 PUSH2 0x1C94 JUMP JUMPDEST SWAP7 POP PUSH2 0x1CFA DUP4 PUSH2 0x1CAC JUMP JUMPDEST SWAP3 POP POP PUSH1 0x1 DUP2 ADD SWAP1 POP PUSH2 0x1CDB JUMP JUMPDEST POP POP POP POP POP POP JUMP JUMPDEST PUSH1 0x0 PUSH2 0x3C0 DUP3 ADD SWAP1 POP PUSH2 0x1D26 PUSH1 0x0 DUP4 ADD DUP7 PUSH2 0x1C0E JUMP JUMPDEST PUSH2 0x1D34 PUSH2 0x140 DUP4 ADD DUP6 PUSH2 0x1C0E JUMP JUMPDEST PUSH2 0x1D42 PUSH2 0x280 DUP4 ADD DUP5 PUSH2 0x1CB9 JUMP JUMPDEST SWAP5 SWAP4 POP POP POP POP JUMP JUMPDEST PUSH1 0x0 PUSH1 0x20 DUP3 DUP5 SUB SLT ISZERO PUSH2 0x1D60 JUMPI PUSH2 0x1D5F PUSH2 0x175C JUMP JUMPDEST JUMPDEST PUSH1 0x0 PUSH2 0x1D6E DUP5 DUP3 DUP6 ADD PUSH2 0x19F7 JUMP JUMPDEST SWAP2 POP POP SWAP3 SWAP2 POP POP JUMP JUMPDEST PUSH1 0x0 DUP3 DUP3 MSTORE PUSH1 0x20 DUP3 ADD SWAP1 POP SWAP3 SWAP2 POP POP JUMP JUMPDEST PUSH32 0x72656365697665724C697374206973206E6F742076616C696400000000000000 PUSH1 0x0 DUP3 ADD MSTORE POP JUMP JUMPDEST PUSH1 0x0 PUSH2 0x1DBE PUSH1 0x19 DUP4 PUSH2 0x1D77 JUMP JUMPDEST SWAP2 POP PUSH2 0x1DC9 DUP3 PUSH2 0x1D88 JUMP JUMPDEST PUSH1 0x20 DUP3 ADD SWAP1 POP SWAP2 SWAP1 POP JUMP JUMPDEST PUSH1 0x0 PUSH1 0x20 DUP3 ADD SWAP1 POP DUP2 DUP2 SUB PUSH1 0x0 DUP4 ADD MSTORE PUSH2 0x1DED DUP2 PUSH2 0x1DB1 JUMP JUMPDEST SWAP1 POP SWAP2 SWAP1 POP JUMP JUMPDEST PUSH32 0x4E487B7100000000000000000000000000000000000000000000000000000000 PUSH1 0x0 MSTORE PUSH1 0x32 PUSH1 0x4 MSTORE PUSH1 0x24 PUSH1 0x0 REVERT JUMPDEST PUSH32 0x4E487B7100000000000000000000000000000000000000000000000000000000 PUSH1 0x0 MSTORE PUSH1 0x11 PUSH1 0x4 MSTORE PUSH1 0x24 PUSH1 0x0 REVERT JUMPDEST PUSH1 0x0 PUSH2 0x1E5D DUP3 PUSH2 0x1821 JUMP JUMPDEST SWAP2 POP PUSH32 0xFFFFFFFFFFFFFFFFFFFFFFFFFFFFFFFFFFFFFFFFFFFFFFFFFFFFFFFFFFFFFFFF DUP3 SUB PUSH2 0x1E8F JUMPI PUSH2 0x1E8E PUSH2 0x1E23 JUMP JUMPDEST JUMPDEST PUSH1 0x1 DUP3 ADD SWAP1 POP SWAP2 SWAP1 POP JUMP JUMPDEST PUSH32 0x4D7573742062652070726F706F736564206F776E657200000000000000000000 PUSH1 0x0 DUP3 ADD MSTORE POP JUMP JUMPDEST PUSH1 0x0 PUSH2 0x1ED0 PUSH1 0x16 DUP4 PUSH2 0x1D77 JUMP JUMPDEST SWAP2 POP PUSH2 0x1EDB DUP3 PUSH2 0x1E9A JUMP JUMPDEST PUSH1 0x20 DUP3 ADD SWAP1 POP SWAP2 SWAP1 POP JUMP JUMPDEST PUSH1 0x0 PUSH1 0x20 DUP3 ADD SWAP1 POP DUP2 DUP2 SUB PUSH1 0x0 DUP4 ADD MSTORE PUSH2 0x1EFF DUP2 PUSH2 0x1EC3 JUMP JUMPDEST SWAP1 POP SWAP2 SWAP1 POP JUMP JUMPDEST PUSH1 0x0 DUP1 REVERT JUMPDEST PUSH1 0x0 DUP1 REVERT JUMPDEST PUSH1 0x0 DUP2 SWAP1 POP SWAP2 SWAP1 POP JUMP JUMPDEST PUSH2 0x1F23 DUP2 PUSH2 0x1F10 JUMP JUMPDEST DUP2 EQ PUSH2 0x1F2E JUMPI PUSH1 0x0 DUP1 REVERT JUMPDEST POP JUMP JUMPDEST PUSH1 0x0 DUP2 CALLDATALOAD SWAP1 POP PUSH2 0x1F40 DUP2 PUSH2 0x1F1A JUMP JUMPDEST SWAP3 SWAP2 POP POP JUMP JUMPDEST PUSH2 0x1F4F DUP2 PUSH2 0x18AE JUMP JUMPDEST DUP2 EQ PUSH2 0x1F5A JUMPI PUSH1 0x0 DUP1 REVERT JUMPDEST POP JUMP JUMPDEST PUSH1 0x0 DUP2 CALLDATALOAD SWAP1 POP PUSH2 0x1F6C DUP2 PUSH2 0x1F46 JUMP JUMPDEST SWAP3 SWAP2 POP POP JUMP JUMPDEST PUSH1 0x0 DUP1 REVERT JUMPDEST PUSH1 0x0 PUSH8 0xFFFFFFFFFFFFFFFF DUP3 GT ISZERO PUSH2 0x1F92 JUMPI PUSH2 0x1F91 PUSH2 0x1902 JUMP JUMPDEST JUMPDEST PUSH2 0x1F9B DUP3 PUSH2 0x18F1 JUMP JUMPDEST SWAP1 POP PUSH1 0x20 DUP2 ADD SWAP1 POP SWAP2 SWAP1 POP JUMP JUMPDEST DUP3 DUP2 DUP4 CALLDATACOPY PUSH1 0x0 DUP4 DUP4 ADD MSTORE POP POP POP JUMP JUMPDEST PUSH1 0x0 PUSH2 0x1FCA PUSH2 0x1FC5 DUP5 PUSH2 0x1F77 JUMP JUMPDEST PUSH2 0x1962 JUMP JUMPDEST SWAP1 POP DUP3 DUP2 MSTORE PUSH1 0x20 DUP2 ADD DUP5 DUP5 DUP5 ADD GT ISZERO PUSH2 0x1FE6 JUMPI PUSH2 0x1FE5 PUSH2 0x1F72 JUMP JUMPDEST JUMPDEST PUSH2 0x1FF1 DUP5 DUP3 DUP6 PUSH2 0x1FA8 JUMP JUMPDEST POP SWAP4 SWAP3 POP POP POP JUMP JUMPDEST PUSH1 0x0 DUP3 PUSH1 0x1F DUP4 ADD SLT PUSH2 0x200E JUMPI PUSH2 0x200D PUSH2 0x18EC JUMP JUMPDEST JUMPDEST DUP2 CALLDATALOAD PUSH2 0x201E DUP5 DUP3 PUSH1 0x20 DUP7 ADD PUSH2 0x1FB7 JUMP JUMPDEST SWAP2 POP POP SWAP3 SWAP2 POP POP JUMP JUMPDEST PUSH1 0x0 PUSH8 0xFFFFFFFFFFFFFFFF DUP3 GT ISZERO PUSH2 0x2042 JUMPI PUSH2 0x2041 PUSH2 0x1902 JUMP JUMPDEST JUMPDEST PUSH1 0x20 DUP3 MUL SWAP1 POP PUSH1 0x20 DUP2 ADD SWAP1 POP SWAP2 SWAP1 POP JUMP JUMPDEST PUSH1 0x0 PUSH1 0x40 DUP3 DUP5 SUB SLT ISZERO PUSH2 0x2069 JUMPI PUSH2 0x2068 PUSH2 0x1F06 JUMP JUMPDEST JUMPDEST PUSH2 0x2073 PUSH1 0x40 PUSH2 0x1962 JUMP JUMPDEST SWAP1 POP PUSH1 0x0 PUSH2 0x2083 DUP5 DUP3 DUP6 ADD PUSH2 0x19F7 JUMP JUMPDEST PUSH1 0x0 DUP4 ADD MSTORE POP PUSH1 0x20 PUSH2 0x2097 DUP5 DUP3 DUP6 ADD PUSH2 0x186C JUMP JUMPDEST PUSH1 0x20 DUP4 ADD MSTORE POP SWAP3 SWAP2 POP POP JUMP JUMPDEST PUSH1 0x0 PUSH2 0x20B6 PUSH2 0x20B1 DUP5 PUSH2 0x2027 JUMP JUMPDEST PUSH2 0x1962 JUMP JUMPDEST SWAP1 POP DUP1 DUP4 DUP3 MSTORE PUSH1 0x20 DUP3 ADD SWAP1 POP PUSH1 0x40 DUP5 MUL DUP4 ADD DUP6 DUP2 GT ISZERO PUSH2 0x20D9 JUMPI PUSH2 0x20D8 PUSH2 0x19A9 JUMP JUMPDEST JUMPDEST DUP4 JUMPDEST DUP2 DUP2 LT ISZERO PUSH2 0x2102 JUMPI DUP1 PUSH2 0x20EE DUP9 DUP3 PUSH2 0x2053 JUMP JUMPDEST DUP5 MSTORE PUSH1 0x20 DUP5 ADD SWAP4 POP POP PUSH1 0x40 DUP2 ADD SWAP1 POP PUSH2 0x20DB JUMP JUMPDEST POP POP POP SWAP4 SWAP3 POP POP POP JUMP JUMPDEST PUSH1 0x0 DUP3 PUSH1 0x1F DUP4 ADD SLT PUSH2 0x2121 JUMPI PUSH2 0x2120 PUSH2 0x18EC JUMP JUMPDEST JUMPDEST DUP2 CALLDATALOAD PUSH2 0x2131 DUP5 DUP3 PUSH1 0x20 DUP7 ADD PUSH2 0x20A3 JUMP JUMPDEST SWAP2 POP POP SWAP3 SWAP2 POP POP JUMP JUMPDEST PUSH1 0x0 PUSH1 0xA0 DUP3 DUP5 SUB SLT ISZERO PUSH2 0x2150 JUMPI PUSH2 0x214F PUSH2 0x1F06 JUMP JUMPDEST JUMPDEST PUSH2 0x215A PUSH1 0xA0 PUSH2 0x1962 JUMP JUMPDEST SWAP1 POP PUSH1 0x0 PUSH2 0x216A DUP5 DUP3 DUP6 ADD PUSH2 0x1F31 JUMP JUMPDEST PUSH1 0x0 DUP4 ADD MSTORE POP PUSH1 0x20 PUSH2 0x217E DUP5 DUP3 DUP6 ADD PUSH2 0x1F5D JUMP JUMPDEST PUSH1 0x20 DUP4 ADD MSTORE POP PUSH1 0x40 DUP3 ADD CALLDATALOAD PUSH8 0xFFFFFFFFFFFFFFFF DUP2 GT ISZERO PUSH2 0x21A2 JUMPI PUSH2 0x21A1 PUSH2 0x1F0B JUMP JUMPDEST JUMPDEST PUSH2 0x21AE DUP5 DUP3 DUP6 ADD PUSH2 0x1FF9 JUMP JUMPDEST PUSH1 0x40 DUP4 ADD MSTORE POP PUSH1 0x60 DUP3 ADD CALLDATALOAD PUSH8 0xFFFFFFFFFFFFFFFF DUP2 GT ISZERO PUSH2 0x21D2 JUMPI PUSH2 0x21D1 PUSH2 0x1F0B JUMP JUMPDEST JUMPDEST PUSH2 0x21DE DUP5 DUP3 DUP6 ADD PUSH2 0x1FF9 JUMP JUMPDEST PUSH1 0x60 DUP4 ADD MSTORE POP PUSH1 0x80 DUP3 ADD CALLDATALOAD PUSH8 0xFFFFFFFFFFFFFFFF DUP2 GT ISZERO PUSH2 0x2202 JUMPI PUSH2 0x2201 PUSH2 0x1F0B JUMP JUMPDEST JUMPDEST PUSH2 0x220E DUP5 DUP3 DUP6 ADD PUSH2 0x210C JUMP JUMPDEST PUSH1 0x80 DUP4 ADD MSTORE POP SWAP3 SWAP2 POP POP JUMP JUMPDEST PUSH1 0x0 PUSH2 0x2226 CALLDATASIZE DUP4 PUSH2 0x213A JUMP JUMPDEST SWAP1 POP SWAP2 SWAP1 POP JUMP JUMPDEST PUSH32 0x4F6E6C792063616C6C61626C65206279206F776E657200000000000000000000 PUSH1 0x0 DUP3 ADD MSTORE POP JUMP JUMPDEST PUSH1 0x0 PUSH2 0x2263 PUSH1 0x16 DUP4 PUSH2 0x1D77 JUMP JUMPDEST SWAP2 POP PUSH2 0x226E DUP3 PUSH2 0x222D JUMP JUMPDEST PUSH1 0x20 DUP3 ADD SWAP1 POP SWAP2 SWAP1 POP JUMP JUMPDEST PUSH1 0x0 PUSH1 0x20 DUP3 ADD SWAP1 POP DUP2 DUP2 SUB PUSH1 0x0 DUP4 ADD MSTORE PUSH2 0x2292 DUP2 PUSH2 0x2256 JUMP JUMPDEST SWAP1 POP SWAP2 SWAP1 POP JUMP JUMPDEST PUSH1 0x0 DUP2 MLOAD SWAP1 POP PUSH2 0x22A8 DUP2 PUSH2 0x19E0 JUMP JUMPDEST SWAP3 SWAP2 POP POP JUMP JUMPDEST PUSH1 0x0 DUP2 MLOAD SWAP1 POP PUSH2 0x22BD DUP2 PUSH2 0x1855 JUMP JUMPDEST SWAP3 SWAP2 POP POP JUMP JUMPDEST PUSH1 0x0 PUSH1 0x60 DUP3 DUP5 SUB SLT ISZERO PUSH2 0x22D9 JUMPI PUSH2 0x22D8 PUSH2 0x1F06 JUMP JUMPDEST JUMPDEST PUSH2 0x22E3 PUSH1 0x60 PUSH2 0x1962 JUMP JUMPDEST SWAP1 POP PUSH1 0x0 PUSH2 0x22F3 DUP5 DUP3 DUP6 ADD PUSH2 0x2299 JUMP JUMPDEST PUSH1 0x0 DUP4 ADD MSTORE POP PUSH1 0x20 PUSH2 0x2307 DUP5 DUP3 DUP6 ADD PUSH2 0x22AE JUMP JUMPDEST PUSH1 0x20 DUP4 ADD MSTORE POP PUSH1 0x40 PUSH2 0x231B DUP5 DUP3 DUP6 ADD PUSH2 0x22AE JUMP JUMPDEST PUSH1 0x40 DUP4 ADD MSTORE POP SWAP3 SWAP2 POP POP JUMP JUMPDEST PUSH1 0x0 PUSH1 0x60 DUP3 DUP5 SUB SLT ISZERO PUSH2 0x233D JUMPI PUSH2 0x233C PUSH2 0x175C JUMP JUMPDEST JUMPDEST PUSH1 0x0 PUSH2 0x234B DUP5 DUP3 DUP6 ADD PUSH2 0x22C3 JUMP JUMPDEST SWAP2 POP POP SWAP3 SWAP2 POP POP JUMP JUMPDEST PUSH1 0x0 PUSH2 0x235F DUP3 PUSH2 0x19AE JUMP JUMPDEST SWAP1 POP SWAP2 SWAP1 POP JUMP JUMPDEST PUSH2 0x236F DUP2 PUSH2 0x2354 JUMP JUMPDEST DUP2 EQ PUSH2 0x237A JUMPI PUSH1 0x0 DUP1 REVERT JUMPDEST POP JUMP JUMPDEST PUSH1 0x0 DUP2 MLOAD SWAP1 POP PUSH2 0x238C DUP2 PUSH2 0x2366 JUMP JUMPDEST SWAP3 SWAP2 POP POP JUMP JUMPDEST PUSH1 0x0 PUSH1 0x20 DUP3 DUP5 SUB SLT ISZERO PUSH2 0x23A8 JUMPI PUSH2 0x23A7 PUSH2 0x175C JUMP JUMPDEST JUMPDEST PUSH1 0x0 PUSH2 0x23B6 DUP5 DUP3 DUP6 ADD PUSH2 0x237D JUMP JUMPDEST SWAP2 POP POP SWAP3 SWAP2 POP POP JUMP JUMPDEST PUSH1 0x0 DUP2 SWAP1 POP SWAP2 SWAP1 POP JUMP JUMPDEST PUSH1 0x0 PUSH2 0x23E4 PUSH2 0x23DF PUSH2 0x23DA DUP5 PUSH2 0x19AE JUMP JUMPDEST PUSH2 0x23BF JUMP JUMPDEST PUSH2 0x19AE JUMP JUMPDEST SWAP1 POP SWAP2 SWAP1 POP JUMP JUMPDEST PUSH1 0x0 PUSH2 0x23F6 DUP3 PUSH2 0x23C9 JUMP JUMPDEST SWAP1 POP SWAP2 SWAP1 POP JUMP JUMPDEST PUSH1 0x0 PUSH2 0x2408 DUP3 PUSH2 0x23EB JUMP JUMPDEST SWAP1 POP SWAP2 SWAP1 POP JUMP JUMPDEST PUSH2 0x2418 DUP2 PUSH2 0x23FD JUMP JUMPDEST DUP3 MSTORE POP POP JUMP JUMPDEST PUSH1 0x0 DUP2 PUSH1 0x0 SHR SWAP1 POP SWAP2 SWAP1 POP JUMP JUMPDEST PUSH1 0x0 PUSH20 0xFFFFFFFFFFFFFFFFFFFFFFFFFFFFFFFFFFFFFFFF DUP3 AND SWAP1 POP SWAP2 SWAP1 POP JUMP JUMPDEST PUSH1 0x0 PUSH2 0x245E PUSH2 0x2459 DUP4 PUSH2 0x241E JUMP JUMPDEST PUSH2 0x242B JUMP JUMPDEST SWAP1 POP SWAP2 SWAP1 POP JUMP JUMPDEST PUSH1 0x0 DUP2 SWAP1 POP SWAP2 SWAP1 POP JUMP JUMPDEST PUSH1 0x0 PUSH2 0x2482 PUSH2 0x247D DUP4 PUSH2 0x241E JUMP JUMPDEST PUSH2 0x2465 JUMP JUMPDEST SWAP1 POP SWAP2 SWAP1 POP JUMP JUMPDEST PUSH1 0x60 DUP3 ADD PUSH1 0x0 DUP1 DUP4 ADD SLOAD SWAP1 POP PUSH2 0x249E DUP2 PUSH2 0x244B JUMP JUMPDEST PUSH2 0x24AB PUSH1 0x0 DUP7 ADD DUP3 PUSH2 0x1C85 JUMP JUMPDEST POP PUSH1 0x1 DUP4 ADD SLOAD SWAP1 POP PUSH2 0x24BC DUP2 PUSH2 0x246F JUMP JUMPDEST PUSH2 0x24C9 PUSH1 0x20 DUP7 ADD DUP3 PUSH2 0x1BDA JUMP JUMPDEST POP PUSH1 0x2 DUP4 ADD SLOAD SWAP1 POP PUSH2 0x24DA DUP2 PUSH2 0x246F JUMP JUMPDEST PUSH2 0x24E7 PUSH1 0x40 DUP7 ADD DUP3 PUSH2 0x1BDA JUMP JUMPDEST POP POP POP POP POP JUMP JUMPDEST PUSH1 0x0 PUSH1 0x80 DUP3 ADD SWAP1 POP PUSH2 0x2503 PUSH1 0x0 DUP4 ADD DUP6 PUSH2 0x240F JUMP JUMPDEST PUSH2 0x2510 PUSH1 0x20 DUP4 ADD DUP5 PUSH2 0x2489 JUMP JUMPDEST SWAP4 SWAP3 POP POP POP JUMP JUMPDEST PUSH1 0x0 PUSH2 0x2522 DUP3 PUSH2 0x1821 JUMP JUMPDEST SWAP2 POP PUSH2 0x252D DUP4 PUSH2 0x1821 JUMP JUMPDEST SWAP3 POP DUP3 DUP3 SUB SWAP1 POP DUP2 DUP2 GT ISZERO PUSH2 0x2545 JUMPI PUSH2 0x2544 PUSH2 0x1E23 JUMP JUMPDEST JUMPDEST SWAP3 SWAP2 POP POP JUMP JUMPDEST PUSH1 0x0 PUSH2 0x2556 DUP3 PUSH2 0x1821 JUMP JUMPDEST SWAP2 POP PUSH2 0x2561 DUP4 PUSH2 0x1821 JUMP JUMPDEST SWAP3 POP DUP3 DUP3 ADD SWAP1 POP DUP1 DUP3 GT ISZERO PUSH2 0x2579 JUMPI PUSH2 0x2578 PUSH2 0x1E23 JUMP JUMPDEST JUMPDEST SWAP3 SWAP2 POP POP JUMP JUMPDEST PUSH32 0x4E487B7100000000000000000000000000000000000000000000000000000000 PUSH1 0x0 MSTORE PUSH1 0x12 PUSH1 0x4 MSTORE PUSH1 0x24 PUSH1 0x0 REVERT JUMPDEST PUSH1 0x0 PUSH2 0x25B9 DUP3 PUSH2 0x1821 JUMP JUMPDEST SWAP2 POP PUSH2 0x25C4 DUP4 PUSH2 0x1821 JUMP JUMPDEST SWAP3 POP DUP3 PUSH2 0x25D4 JUMPI PUSH2 0x25D3 PUSH2 0x257F JUMP JUMPDEST JUMPDEST DUP3 DUP3 DIV SWAP1 POP SWAP3 SWAP2 POP POP JUMP JUMPDEST PUSH1 0x0 PUSH2 0x25EA DUP3 PUSH2 0x1821 JUMP JUMPDEST SWAP2 POP PUSH1 0x0 DUP3 SUB PUSH2 0x25FD JUMPI PUSH2 0x25FC PUSH2 0x1E23 JUMP JUMPDEST JUMPDEST PUSH1 0x1 DUP3 SUB SWAP1 POP SWAP2 SWAP1 POP JUMP JUMPDEST PUSH1 0x60 DUP3 ADD PUSH1 0x0 DUP3 ADD MLOAD PUSH2 0x261E PUSH1 0x0 DUP6 ADD DUP3 PUSH2 0x1C85 JUMP JUMPDEST POP PUSH1 0x20 DUP3 ADD MLOAD PUSH2 0x2631 PUSH1 0x20 DUP6 ADD DUP3 PUSH2 0x1BDA JUMP JUMPDEST POP PUSH1 0x40 DUP3 ADD MLOAD PUSH2 0x2644 PUSH1 0x40 DUP6 ADD DUP3 PUSH2 0x1BDA JUMP JUMPDEST POP POP POP POP JUMP JUMPDEST PUSH1 0x0 PUSH1 0x60 DUP3 ADD SWAP1 POP PUSH2 0x265F PUSH1 0x0 DUP4 ADD DUP5 PUSH2 0x2608 JUMP JUMPDEST SWAP3 SWAP2 POP POP JUMP JUMPDEST PUSH1 0x0 DUP2 MLOAD SWAP1 POP SWAP2 SWAP1 POP JUMP JUMPDEST PUSH1 0x0 DUP3 DUP3 MSTORE PUSH1 0x20 DUP3 ADD SWAP1 POP SWAP3 SWAP2 POP POP JUMP JUMPDEST PUSH1 0x0 JUMPDEST DUP4 DUP2 LT ISZERO PUSH2 0x269F JUMPI DUP1 DUP3 ADD MLOAD DUP2 DUP5 ADD MSTORE PUSH1 0x20 DUP2 ADD SWAP1 POP PUSH2 0x2684 JUMP JUMPDEST PUSH1 0x0 DUP5 DUP5 ADD MSTORE POP POP POP POP JUMP JUMPDEST PUSH1 0x0 PUSH2 0x26B6 DUP3 PUSH2 0x2665 JUMP JUMPDEST PUSH2 0x26C0 DUP2 DUP6 PUSH2 0x2670 JUMP JUMPDEST SWAP4 POP PUSH2 0x26D0 DUP2 DUP6 PUSH1 0x20 DUP7 ADD PUSH2 0x2681 JUMP JUMPDEST PUSH2 0x26D9 DUP2 PUSH2 0x18F1 JUMP JUMPDEST DUP5 ADD SWAP2 POP POP SWAP3 SWAP2 POP POP JUMP JUMPDEST PUSH1 0x0 DUP2 MLOAD SWAP1 POP SWAP2 SWAP1 POP JUMP JUMPDEST PUSH1 0x0 DUP3 DUP3 MSTORE PUSH1 0x20 DUP3 ADD SWAP1 POP SWAP3 SWAP2 POP POP JUMP JUMPDEST PUSH1 0x0 DUP2 SWAP1 POP PUSH1 0x20 DUP3 ADD SWAP1 POP SWAP2 SWAP1 POP JUMP JUMPDEST PUSH1 0x40 DUP3 ADD PUSH1 0x0 DUP3 ADD MLOAD PUSH2 0x2726 PUSH1 0x0 DUP6 ADD DUP3 PUSH2 0x1C85 JUMP JUMPDEST POP PUSH1 0x20 DUP3 ADD MLOAD PUSH2 0x2739 PUSH1 0x20 DUP6 ADD DUP3 PUSH2 0x1BDA JUMP JUMPDEST POP POP POP POP JUMP JUMPDEST PUSH1 0x0 PUSH2 0x274B DUP4 DUP4 PUSH2 0x2710 JUMP JUMPDEST PUSH1 0x40 DUP4 ADD SWAP1 POP SWAP3 SWAP2 POP POP JUMP JUMPDEST PUSH1 0x0 PUSH1 0x20 DUP3 ADD SWAP1 POP SWAP2 SWAP1 POP JUMP JUMPDEST PUSH1 0x0 PUSH2 0x276F DUP3 PUSH2 0x26E4 JUMP JUMPDEST PUSH2 0x2779 DUP2 DUP6 PUSH2 0x26EF JUMP JUMPDEST SWAP4 POP PUSH2 0x2784 DUP4 PUSH2 0x2700 JUMP JUMPDEST DUP1 PUSH1 0x0 JUMPDEST DUP4 DUP2 LT ISZERO PUSH2 0x27B5 JUMPI DUP2 MLOAD PUSH2 0x279C DUP9 DUP3 PUSH2 0x273F JUMP JUMPDEST SWAP8 POP PUSH2 0x27A7 DUP4 PUSH2 0x2757 JUMP JUMPDEST SWAP3 POP POP PUSH1 0x1 DUP2 ADD SWAP1 POP PUSH2 0x2788 JUMP JUMPDEST POP DUP6 SWAP4 POP POP POP POP SWAP3 SWAP2 POP POP JUMP JUMPDEST PUSH1 0x0 PUSH1 0xA0 DUP4 ADD PUSH1 0x0 DUP4 ADD MLOAD DUP5 DUP3 SUB PUSH1 0x0 DUP7 ADD MSTORE PUSH2 0x27DF DUP3 DUP3 PUSH2 0x26AB JUMP JUMPDEST SWAP2 POP POP PUSH1 0x20 DUP4 ADD MLOAD DUP5 DUP3 SUB PUSH1 0x20 DUP7 ADD MSTORE PUSH2 0x27F9 DUP3 DUP3 PUSH2 0x26AB JUMP JUMPDEST SWAP2 POP POP PUSH1 0x40 DUP4 ADD MLOAD DUP5 DUP3 SUB PUSH1 0x40 DUP7 ADD MSTORE PUSH2 0x2813 DUP3 DUP3 PUSH2 0x2764 JUMP JUMPDEST SWAP2 POP POP PUSH1 0x60 DUP4 ADD MLOAD PUSH2 0x2828 PUSH1 0x60 DUP7 ADD DUP3 PUSH2 0x1C85 JUMP JUMPDEST POP PUSH1 0x80 DUP4 ADD MLOAD DUP5 DUP3 SUB PUSH1 0x80 DUP7 ADD MSTORE PUSH2 0x2840 DUP3 DUP3 PUSH2 0x26AB JUMP JUMPDEST SWAP2 POP POP DUP1 SWAP2 POP POP SWAP3 SWAP2 POP POP JUMP JUMPDEST PUSH1 0x0 PUSH1 0x40 DUP3 ADD SWAP1 POP PUSH2 0x2862 PUSH1 0x0 DUP4 ADD DUP6 PUSH2 0x18C2 JUMP JUMPDEST DUP2 DUP2 SUB PUSH1 0x20 DUP4 ADD MSTORE PUSH2 0x2874 DUP2 DUP5 PUSH2 0x27C2 JUMP JUMPDEST SWAP1 POP SWAP4 SWAP3 POP POP POP JUMP JUMPDEST PUSH1 0x0 PUSH1 0x20 DUP3 DUP5 SUB SLT ISZERO PUSH2 0x2893 JUMPI PUSH2 0x2892 PUSH2 0x175C JUMP JUMPDEST JUMPDEST PUSH1 0x0 PUSH2 0x28A1 DUP5 DUP3 DUP6 ADD PUSH2 0x22AE JUMP JUMPDEST SWAP2 POP POP SWAP3 SWAP2 POP POP JUMP JUMPDEST PUSH1 0x0 PUSH1 0x40 DUP3 ADD SWAP1 POP PUSH2 0x28BF PUSH1 0x0 DUP4 ADD DUP6 PUSH2 0x182B JUMP JUMPDEST PUSH2 0x28CC PUSH1 0x20 DUP4 ADD DUP5 PUSH2 0x182B JUMP JUMPDEST SWAP4 SWAP3 POP POP POP JUMP JUMPDEST PUSH1 0x0 PUSH1 0x40 DUP3 ADD SWAP1 POP PUSH2 0x28E8 PUSH1 0x0 DUP4 ADD DUP6 PUSH2 0x1AEC JUMP JUMPDEST PUSH2 0x28F5 PUSH1 0x20 DUP4 ADD DUP5 PUSH2 0x182B JUMP JUMPDEST SWAP4 SWAP3 POP POP POP JUMP JUMPDEST PUSH2 0x2905 DUP2 PUSH2 0x17EB JUMP JUMPDEST DUP2 EQ PUSH2 0x2910 JUMPI PUSH1 0x0 DUP1 REVERT JUMPDEST POP JUMP JUMPDEST PUSH1 0x0 DUP2 MLOAD SWAP1 POP PUSH2 0x2922 DUP2 PUSH2 0x28FC JUMP JUMPDEST SWAP3 SWAP2 POP POP JUMP JUMPDEST PUSH1 0x0 PUSH1 0x20 DUP3 DUP5 SUB SLT ISZERO PUSH2 0x293E JUMPI PUSH2 0x293D PUSH2 0x175C JUMP JUMPDEST JUMPDEST PUSH1 0x0 PUSH2 0x294C DUP5 DUP3 DUP6 ADD PUSH2 0x2913 JUMP JUMPDEST SWAP2 POP POP SWAP3 SWAP2 POP POP JUMP JUMPDEST PUSH1 0x0 DUP2 MLOAD SWAP1 POP PUSH2 0x2964 DUP2 PUSH2 0x1F1A JUMP JUMPDEST SWAP3 SWAP2 POP POP JUMP JUMPDEST PUSH1 0x0 PUSH1 0x20 DUP3 DUP5 SUB SLT ISZERO PUSH2 0x2980 JUMPI PUSH2 0x297F PUSH2 0x175C JUMP JUMPDEST JUMPDEST PUSH1 0x0 PUSH2 0x298E DUP5 DUP3 DUP6 ADD PUSH2 0x2955 JUMP JUMPDEST SWAP2 POP POP SWAP3 SWAP2 POP POP JUMP JUMPDEST PUSH1 0x0 PUSH1 0xC0 DUP3 ADD SWAP1 POP PUSH2 0x29AC PUSH1 0x0 DUP4 ADD DUP8 PUSH2 0x1AEC JUMP JUMPDEST PUSH2 0x29B9 PUSH1 0x20 DUP4 ADD DUP7 PUSH2 0x2608 JUMP JUMPDEST PUSH2 0x29C6 PUSH1 0x80 DUP4 ADD DUP6 PUSH2 0x1AEC JUMP JUMPDEST PUSH2 0x29D3 PUSH1 0xA0 DUP4 ADD DUP5 PUSH2 0x182B JUMP JUMPDEST SWAP6 SWAP5 POP POP POP POP POP JUMP JUMPDEST PUSH32 0x43616E6E6F74207472616E7366657220746F2073656C66000000000000000000 PUSH1 0x0 DUP3 ADD MSTORE POP JUMP JUMPDEST PUSH1 0x0 PUSH2 0x2A12 PUSH1 0x17 DUP4 PUSH2 0x1D77 JUMP JUMPDEST SWAP2 POP PUSH2 0x2A1D DUP3 PUSH2 0x29DC JUMP JUMPDEST PUSH1 0x20 DUP3 ADD SWAP1 POP SWAP2 SWAP1 POP JUMP JUMPDEST PUSH1 0x0 PUSH1 0x20 DUP3 ADD SWAP1 POP DUP2 DUP2 SUB PUSH1 0x0 DUP4 ADD MSTORE PUSH2 0x2A41 DUP2 PUSH2 0x2A05 JUMP JUMPDEST SWAP1 POP SWAP2 SWAP1 POP JUMP JUMPDEST PUSH1 0x20 DUP3 ADD PUSH1 0x0 DUP3 ADD MLOAD PUSH2 0x2A5E PUSH1 0x0 DUP6 ADD DUP3 PUSH2 0x1BDA JUMP JUMPDEST POP POP POP POP JUMP JUMPDEST PUSH1 0x0 PUSH1 0x20 DUP3 ADD SWAP1 POP PUSH2 0x2A79 PUSH1 0x0 DUP4 ADD DUP5 PUSH2 0x2A48 JUMP JUMPDEST SWAP3 SWAP2 POP POP JUMP INVALID LOG2 PUSH5 0x6970667358 0x22 SLT KECCAK256 0xEE SMOD 0xD4 PUSH11 0xAEDBFAAAAAF2EEFD6220E7 0xBC SIGNEXTEND SWAP16 SDIV SIGNEXTEND DUP4 DUP8 NOT PUSH26 0x4FE432E91F801D8164736F6C6343000813003300000000000000 "
				},
				"gasEstimates": {
					"creation": {
						"codeDepositCost": "2186600",
						"executionCost": "infinite",
						"totalCost": "infinite"
					},
					"external": {
						"acceptOwnership()": "54585",
						"ccipReceive((bytes32,uint64,bytes,bytes,(address,uint256)[]))": "infinite",
						"chainSelectors(uint256)": "6617",
						"currentChainSelectorIndex()": "2475",
						"currentMessageItem()": "infinite",
						"getTopGradeList()": "infinite",
						"linkTokens(uint256)": "5044",
						"owner()": "2611",
						"receivers(uint256)": "2872",
						"routers(uint256)": "4979",
						"submitData(uint256)": "infinite",
						"supportsInterface(bytes4)": "708",
						"topChainIndex(uint256)": "infinite",
						"topGradeList(uint256)": "infinite",
						"topPlayerList(uint256)": "2827",
						"transferOwnership(address)": "30764",
						"updateReceivers(address[])": "infinite"
					},
					"internal": {
						"_ccipReceive(struct Client.Any2EVMMessage memory)": "infinite",
						"_sendMessage(uint64,address,address,address,struct ZKGameClient.MessageItem memory)": "infinite",
						"pushDataToTopList(struct ZKGameClient.MessageItem memory)": "infinite"
					}
				},
				"methodIdentifiers": {
					"acceptOwnership()": "79ba5097",
					"ccipReceive((bytes32,uint64,bytes,bytes,(address,uint256)[]))": "85572ffb",
					"chainSelectors(uint256)": "2bf34fbd",
					"currentChainSelectorIndex()": "11b7aad5",
					"currentMessageItem()": "cdc7bc87",
					"getTopGradeList()": "df758706",
					"linkTokens(uint256)": "ea029701",
					"owner()": "8da5cb5b",
					"receivers(uint256)": "bfd772fc",
					"routers(uint256)": "4e9c1118",
					"submitData(uint256)": "b0e23518",
					"supportsInterface(bytes4)": "01ffc9a7",
					"topChainIndex(uint256)": "e8af8c0d",
					"topGradeList(uint256)": "b76ee4a8",
					"topPlayerList(uint256)": "d252682d",
					"transferOwnership(address)": "f2fde38b",
					"updateReceivers(address[])": "49c9d17a"
				}
			},
			"storageLayout": {
				"storage": [
					{
						"astId": 269,
						"contract": "ZKGameClient.sol:ZKGameClient",
						"label": "s_owner",
						"offset": 0,
						"slot": "0",
						"type": "t_address"
					},
					{
						"astId": 271,
						"contract": "ZKGameClient.sol:ZKGameClient",
						"label": "s_pendingOwner",
						"offset": 0,
						"slot": "1",
						"type": "t_address"
					},
					{
						"astId": 637,
						"contract": "ZKGameClient.sol:ZKGameClient",
						"label": "currentChainSelectorIndex",
						"offset": 0,
						"slot": "2",
						"type": "t_uint256"
					},
					{
						"astId": 640,
						"contract": "ZKGameClient.sol:ZKGameClient",
						"label": "routers",
						"offset": 0,
						"slot": "3",
						"type": "t_array(t_address)dyn_storage"
					},
					{
						"astId": 643,
						"contract": "ZKGameClient.sol:ZKGameClient",
						"label": "linkTokens",
						"offset": 0,
						"slot": "4",
						"type": "t_array(t_address)dyn_storage"
					},
					{
						"astId": 646,
						"contract": "ZKGameClient.sol:ZKGameClient",
						"label": "chainSelectors",
						"offset": 0,
						"slot": "5",
						"type": "t_array(t_uint64)dyn_storage"
					},
					{
						"astId": 650,
						"contract": "ZKGameClient.sol:ZKGameClient",
						"label": "receivers",
						"offset": 0,
						"slot": "6",
						"type": "t_array(t_address)3_storage"
					},
					{
						"astId": 653,
						"contract": "ZKGameClient.sol:ZKGameClient",
						"label": "currentMessageItem",
						"offset": 0,
						"slot": "9",
						"type": "t_struct(MessageItem)598_storage"
					},
					{
						"astId": 657,
						"contract": "ZKGameClient.sol:ZKGameClient",
						"label": "topGradeList",
						"offset": 0,
						"slot": "12",
						"type": "t_array(t_uint256)10_storage"
					},
					{
						"astId": 661,
						"contract": "ZKGameClient.sol:ZKGameClient",
						"label": "topPlayerList",
						"offset": 0,
						"slot": "22",
						"type": "t_array(t_address)10_storage"
					},
					{
						"astId": 665,
						"contract": "ZKGameClient.sol:ZKGameClient",
						"label": "topChainIndex",
						"offset": 0,
						"slot": "32",
						"type": "t_array(t_uint256)10_storage"
					}
				],
				"types": {
					"t_address": {
						"encoding": "inplace",
						"label": "address",
						"numberOfBytes": "20"
					},
					"t_array(t_address)10_storage": {
						"base": "t_address",
						"encoding": "inplace",
						"label": "address[10]",
						"numberOfBytes": "320"
					},
					"t_array(t_address)3_storage": {
						"base": "t_address",
						"encoding": "inplace",
						"label": "address[3]",
						"numberOfBytes": "96"
					},
					"t_array(t_address)dyn_storage": {
						"base": "t_address",
						"encoding": "dynamic_array",
						"label": "address[]",
						"numberOfBytes": "32"
					},
					"t_array(t_uint256)10_storage": {
						"base": "t_uint256",
						"encoding": "inplace",
						"label": "uint256[10]",
						"numberOfBytes": "320"
					},
					"t_array(t_uint64)dyn_storage": {
						"base": "t_uint64",
						"encoding": "dynamic_array",
						"label": "uint64[]",
						"numberOfBytes": "32"
					},
					"t_struct(MessageItem)598_storage": {
						"encoding": "inplace",
						"label": "struct ZKGameClient.MessageItem",
						"members": [
							{
								"astId": 593,
								"contract": "ZKGameClient.sol:ZKGameClient",
								"label": "player",
								"offset": 0,
								"slot": "0",
								"type": "t_address"
							},
							{
								"astId": 595,
								"contract": "ZKGameClient.sol:ZKGameClient",
								"label": "time",
								"offset": 0,
								"slot": "1",
								"type": "t_uint256"
							},
							{
								"astId": 597,
								"contract": "ZKGameClient.sol:ZKGameClient",
								"label": "chainIndex",
								"offset": 0,
								"slot": "2",
								"type": "t_uint256"
							}
						],
						"numberOfBytes": "96"
					},
					"t_uint256": {
						"encoding": "inplace",
						"label": "uint256",
						"numberOfBytes": "32"
					},
					"t_uint64": {
						"encoding": "inplace",
						"label": "uint64",
						"numberOfBytes": "8"
					}
				}
			},
			"userdoc": {
				"kind": "user",
				"methods": {
					"acceptOwnership()": {
						"notice": "Allows an ownership transfer to be completed by the recipient."
					},
					"owner()": {
						"notice": "Get the current owner"
					},
					"transferOwnership(address)": {
						"notice": "Allows an owner to begin transferring ownership to a new address."
					}
				},
				"version": 1
			}
		}
	}
}