{
	"ZKGameClient.sol": {
		"ZKGameClient": {
			"abi": [
				{
					"inputs": [
						{
							"internalType": "uint256",
							"name": "_currentChainSelectorIndex",
							"type": "uint256"
						}
					],
					"stateMutability": "nonpayable",
					"type": "constructor"
				},
				{
					"inputs": [
						{
							"internalType": "address",
							"name": "router",
							"type": "address"
						}
					],
					"name": "InvalidRouter",
					"type": "error"
				},
				{
					"inputs": [
						{
							"internalType": "uint256",
							"name": "currentBalance",
							"type": "uint256"
						},
						{
							"internalType": "uint256",
							"name": "calculatedFees",
							"type": "uint256"
						}
					],
					"name": "NotEnoughBalance",
					"type": "error"
				},
				{
					"anonymous": false,
					"inputs": [
						{
							"indexed": true,
							"internalType": "bytes32",
							"name": "messageId",
							"type": "bytes32"
						},
						{
							"indexed": true,
							"internalType": "uint64",
							"name": "sourceChainSelector",
							"type": "uint64"
						},
						{
							"indexed": false,
							"internalType": "address",
							"name": "sender",
							"type": "address"
						},
						{
							"components": [
								{
									"internalType": "address",
									"name": "player",
									"type": "address"
								},
								{
									"internalType": "uint256",
									"name": "time",
									"type": "uint256"
								},
								{
									"internalType": "uint256",
									"name": "chainIndex",
									"type": "uint256"
								}
							],
							"indexed": false,
							"internalType": "struct ZKGameClient.MessageItem",
							"name": "messageItem",
							"type": "tuple"
						}
					],
					"name": "MessageReceived",
					"type": "event"
				},
				{
					"anonymous": false,
					"inputs": [
						{
							"indexed": true,
							"internalType": "bytes32",
							"name": "messageId",
							"type": "bytes32"
						},
						{
							"indexed": true,
							"internalType": "uint64",
							"name": "destinationChainSelector",
							"type": "uint64"
						},
						{
							"indexed": false,
							"internalType": "address",
							"name": "receiver",
							"type": "address"
						},
						{
							"components": [
								{
									"internalType": "address",
									"name": "player",
									"type": "address"
								},
								{
									"internalType": "uint256",
									"name": "time",
									"type": "uint256"
								},
								{
									"internalType": "uint256",
									"name": "chainIndex",
									"type": "uint256"
								}
							],
							"indexed": false,
							"internalType": "struct ZKGameClient.MessageItem",
							"name": "messageItem",
							"type": "tuple"
						},
						{
							"indexed": false,
							"internalType": "address",
							"name": "feeToken",
							"type": "address"
						},
						{
							"indexed": false,
							"internalType": "uint256",
							"name": "fees",
							"type": "uint256"
						}
					],
					"name": "MessageSent",
					"type": "event"
				},
				{
					"anonymous": false,
					"inputs": [
						{
							"indexed": true,
							"internalType": "address",
							"name": "from",
							"type": "address"
						},
						{
							"indexed": true,
							"internalType": "address",
							"name": "to",
							"type": "address"
						}
					],
					"name": "OwnershipTransferRequested",
					"type": "event"
				},
				{
					"anonymous": false,
					"inputs": [
						{
							"indexed": true,
							"internalType": "address",
							"name": "from",
							"type": "address"
						},
						{
							"indexed": true,
							"internalType": "address",
							"name": "to",
							"type": "address"
						}
					],
					"name": "OwnershipTransferred",
					"type": "event"
				},
				{
					"inputs": [],
					"name": "acceptOwnership",
					"outputs": [],
					"stateMutability": "nonpayable",
					"type": "function"
				},
				{
					"inputs": [
						{
							"components": [
								{
									"internalType": "bytes32",
									"name": "messageId",
									"type": "bytes32"
								},
								{
									"internalType": "uint64",
									"name": "sourceChainSelector",
									"type": "uint64"
								},
								{
									"internalType": "bytes",
									"name": "sender",
									"type": "bytes"
								},
								{
									"internalType": "bytes",
									"name": "data",
									"type": "bytes"
								},
								{
									"components": [
										{
											"internalType": "address",
											"name": "token",
											"type": "address"
										},
										{
											"internalType": "uint256",
											"name": "amount",
											"type": "uint256"
										}
									],
									"internalType": "struct Client.EVMTokenAmount[]",
									"name": "destTokenAmounts",
									"type": "tuple[]"
								}
							],
							"internalType": "struct Client.Any2EVMMessage",
							"name": "message",
							"type": "tuple"
						}
					],
					"name": "ccipReceive",
					"outputs": [],
					"stateMutability": "nonpayable",
					"type": "function"
				},
				{
					"inputs": [
						{
							"internalType": "uint256",
							"name": "",
							"type": "uint256"
						}
					],
					"name": "chainSelectors",
					"outputs": [
						{
							"internalType": "uint64",
							"name": "",
							"type": "uint64"
						}
					],
					"stateMutability": "view",
					"type": "function"
				},
				{
					"inputs": [],
					"name": "currentChainSelectorIndex",
					"outputs": [
						{
							"internalType": "uint256",
							"name": "",
							"type": "uint256"
						}
					],
					"stateMutability": "view",
					"type": "function"
				},
				{
					"inputs": [],
					"name": "currentMessageItem",
					"outputs": [
						{
							"internalType": "address",
							"name": "player",
							"type": "address"
						},
						{
							"internalType": "uint256",
							"name": "time",
							"type": "uint256"
						},
						{
							"internalType": "uint256",
							"name": "chainIndex",
							"type": "uint256"
						}
					],
					"stateMutability": "view",
					"type": "function"
				},
				{
					"inputs": [],
					"name": "getTopListInfo",
					"outputs": [
						{
							"internalType": "uint256[10]",
							"name": "",
							"type": "uint256[10]"
						},
						{
							"internalType": "uint256[10]",
							"name": "",
							"type": "uint256[10]"
						},
						{
							"internalType": "address[10]",
							"name": "",
							"type": "address[10]"
						},
						{
							"internalType": "uint256",
							"name": "",
							"type": "uint256"
						}
					],
					"stateMutability": "view",
					"type": "function"
				},
				{
					"inputs": [],
					"name": "lastUpdateTime",
					"outputs": [
						{
							"internalType": "uint256",
							"name": "",
							"type": "uint256"
						}
					],
					"stateMutability": "view",
					"type": "function"
				},
				{
					"inputs": [
						{
							"internalType": "uint256",
							"name": "",
							"type": "uint256"
						}
					],
					"name": "linkTokens",
					"outputs": [
						{
							"internalType": "address",
							"name": "",
							"type": "address"
						}
					],
					"stateMutability": "view",
					"type": "function"
				},
				{
					"inputs": [],
					"name": "owner",
					"outputs": [
						{
							"internalType": "address",
							"name": "",
							"type": "address"
						}
					],
					"stateMutability": "view",
					"type": "function"
				},
				{
					"inputs": [
						{
							"internalType": "uint256",
							"name": "",
							"type": "uint256"
						}
					],
					"name": "receivers",
					"outputs": [
						{
							"internalType": "address",
							"name": "",
							"type": "address"
						}
					],
					"stateMutability": "view",
					"type": "function"
				},
				{
					"inputs": [
						{
							"internalType": "uint256",
							"name": "",
							"type": "uint256"
						}
					],
					"name": "routers",
					"outputs": [
						{
							"internalType": "address",
							"name": "",
							"type": "address"
						}
					],
					"stateMutability": "view",
					"type": "function"
				},
				{
					"inputs": [
						{
							"internalType": "uint256",
							"name": "time",
							"type": "uint256"
						}
					],
					"name": "submitData",
					"outputs": [],
					"stateMutability": "nonpayable",
					"type": "function"
				},
				{
					"inputs": [
						{
							"internalType": "bytes4",
							"name": "interfaceId",
							"type": "bytes4"
						}
					],
					"name": "supportsInterface",
					"outputs": [
						{
							"internalType": "bool",
							"name": "",
							"type": "bool"
						}
					],
					"stateMutability": "pure",
					"type": "function"
				},
				{
					"inputs": [
						{
							"internalType": "uint256",
							"name": "",
							"type": "uint256"
						}
					],
					"name": "topChainIndex",
					"outputs": [
						{
							"internalType": "uint256",
							"name": "",
							"type": "uint256"
						}
					],
					"stateMutability": "view",
					"type": "function"
				},
				{
					"inputs": [
						{
							"internalType": "uint256",
							"name": "",
							"type": "uint256"
						}
					],
					"name": "topGradeList",
					"outputs": [
						{
							"internalType": "uint256",
							"name": "",
							"type": "uint256"
						}
					],
					"stateMutability": "view",
					"type": "function"
				},
				{
					"inputs": [
						{
							"internalType": "uint256",
							"name": "",
							"type": "uint256"
						}
					],
					"name": "topPlayerList",
					"outputs": [
						{
							"internalType": "address",
							"name": "",
							"type": "address"
						}
					],
					"stateMutability": "view",
					"type": "function"
				},
				{
					"inputs": [
						{
							"internalType": "address",
							"name": "to",
							"type": "address"
						}
					],
					"name": "transferOwnership",
					"outputs": [],
					"stateMutability": "nonpayable",
					"type": "function"
				},
				{
					"inputs": [
						{
							"internalType": "address[]",
							"name": "receiverList",
							"type": "address[]"
						}
					],
					"name": "updateReceivers",
					"outputs": [],
					"stateMutability": "nonpayable",
					"type": "function"
				}
			],
			"devdoc": {
				"kind": "dev",
				"methods": {},
				"version": 1
			},
			"evm": {
				"assembly": "    /* \"ZKGameClient.sol\":796:9245  contract ZKGameClient is OwnerIsCreator {... */\n  mstore(0x40, 0x80)\n    /* \"ZKGameClient.sol\":2243:2244  0 */\n  0x00\n    /* \"ZKGameClient.sol\":2203:2244  uint public currentChainSelectorIndex = 0 */\n  0x02\n  sstore\n    /* \"ZKGameClient.sol\":2792:3800  constructor(uint _currentChainSelectorIndex) {... */\n  callvalue\n  dup1\n  iszero\n  tag_1\n  jumpi\n  0x00\n  dup1\n  revert\ntag_1:\n  pop\n  mload(0x40)\n  sub(codesize, bytecodeSize)\n  dup1\n  bytecodeSize\n  dup4\n  codecopy\n  dup2\n  dup2\n  add\n  0x40\n  mstore\n  dup2\n  add\n  swap1\n  tag_2\n  swap2\n  swap1\n  tag_3\n  jump\t// in\ntag_2:\n    /* \"@chainlink/contracts-ccip@1.4.0/src/v0.8/shared/access/OwnerIsCreator.sol\":291:301  msg.sender */\n  caller\n    /* \"@chainlink/contracts-ccip@1.4.0/src/v0.8/shared/access/ConfirmedOwner.sol\":355:363  newOwner */\n  dup1\n    /* \"@chainlink/contracts-ccip@1.4.0/src/v0.8/shared/access/ConfirmedOwner.sol\":373:374  0 */\n  0x00\n    /* \"@chainlink/contracts-ccip@1.4.0/src/v0.8/shared/access/ConfirmedOwnerWithProposal.sol\":614:615  0 */\n  dup1\n    /* \"@chainlink/contracts-ccip@1.4.0/src/v0.8/shared/access/ConfirmedOwnerWithProposal.sol\":594:616  newOwner != address(0) */\n  0xffffffffffffffffffffffffffffffffffffffff\n  and\n    /* \"@chainlink/contracts-ccip@1.4.0/src/v0.8/shared/access/ConfirmedOwnerWithProposal.sol\":594:602  newOwner */\n  dup3\n    /* \"@chainlink/contracts-ccip@1.4.0/src/v0.8/shared/access/ConfirmedOwnerWithProposal.sol\":594:616  newOwner != address(0) */\n  0xffffffffffffffffffffffffffffffffffffffff\n  and\n  sub\n    /* \"@chainlink/contracts-ccip@1.4.0/src/v0.8/shared/access/ConfirmedOwnerWithProposal.sol\":586:645  require(newOwner != address(0), \"Cannot set owner to zero\") */\n  tag_9\n  jumpi\n  mload(0x40)\n  0x08c379a000000000000000000000000000000000000000000000000000000000\n  dup2\n  mstore\n  0x04\n  add\n  tag_10\n  swap1\n  tag_11\n  jump\t// in\ntag_10:\n  mload(0x40)\n  dup1\n  swap2\n  sub\n  swap1\n  revert\ntag_9:\n    /* \"@chainlink/contracts-ccip@1.4.0/src/v0.8/shared/access/ConfirmedOwnerWithProposal.sol\":662:670  newOwner */\n  dup2\n    /* \"@chainlink/contracts-ccip@1.4.0/src/v0.8/shared/access/ConfirmedOwnerWithProposal.sol\":652:659  s_owner */\n  0x00\n  dup1\n    /* \"@chainlink/contracts-ccip@1.4.0/src/v0.8/shared/access/ConfirmedOwnerWithProposal.sol\":652:670  s_owner = newOwner */\n  0x0100\n  exp\n  dup2\n  sload\n  dup2\n  0xffffffffffffffffffffffffffffffffffffffff\n  mul\n  not\n  and\n  swap1\n  dup4\n  0xffffffffffffffffffffffffffffffffffffffff\n  and\n  mul\n  or\n  swap1\n  sstore\n  pop\n    /* \"@chainlink/contracts-ccip@1.4.0/src/v0.8/shared/access/ConfirmedOwnerWithProposal.sol\":704:705  0 */\n  0x00\n    /* \"@chainlink/contracts-ccip@1.4.0/src/v0.8/shared/access/ConfirmedOwnerWithProposal.sol\":680:706  pendingOwner != address(0) */\n  0xffffffffffffffffffffffffffffffffffffffff\n  and\n    /* \"@chainlink/contracts-ccip@1.4.0/src/v0.8/shared/access/ConfirmedOwnerWithProposal.sol\":680:692  pendingOwner */\n  dup2\n    /* \"@chainlink/contracts-ccip@1.4.0/src/v0.8/shared/access/ConfirmedOwnerWithProposal.sol\":680:706  pendingOwner != address(0) */\n  0xffffffffffffffffffffffffffffffffffffffff\n  and\n  eq\n    /* \"@chainlink/contracts-ccip@1.4.0/src/v0.8/shared/access/ConfirmedOwnerWithProposal.sol\":676:755  if (pendingOwner != address(0)) {... */\n  tag_12\n  jumpi\n    /* \"@chainlink/contracts-ccip@1.4.0/src/v0.8/shared/access/ConfirmedOwnerWithProposal.sol\":716:748  _transferOwnership(pendingOwner) */\n  tag_13\n    /* \"@chainlink/contracts-ccip@1.4.0/src/v0.8/shared/access/ConfirmedOwnerWithProposal.sol\":735:747  pendingOwner */\n  dup2\n    /* \"@chainlink/contracts-ccip@1.4.0/src/v0.8/shared/access/ConfirmedOwnerWithProposal.sol\":716:734  _transferOwnership */\n  shl(0x20, tag_14)\n    /* \"@chainlink/contracts-ccip@1.4.0/src/v0.8/shared/access/ConfirmedOwnerWithProposal.sol\":716:748  _transferOwnership(pendingOwner) */\n  0x20\n  shr\n  jump\t// in\ntag_13:\n    /* \"@chainlink/contracts-ccip@1.4.0/src/v0.8/shared/access/ConfirmedOwnerWithProposal.sol\":676:755  if (pendingOwner != address(0)) {... */\ntag_12:\n    /* \"@chainlink/contracts-ccip@1.4.0/src/v0.8/shared/access/ConfirmedOwnerWithProposal.sol\":481:759  constructor(address newOwner, address pendingOwner) {... */\n  pop\n  pop\n    /* \"@chainlink/contracts-ccip@1.4.0/src/v0.8/shared/access/ConfirmedOwner.sol\":298:379  constructor(address newOwner) ConfirmedOwnerWithProposal(newOwner, address(0)) {} */\n  pop\n    /* \"ZKGameClient.sol\":2878:2885  routers */\n  0x03\n    /* \"ZKGameClient.sol\":2891:2933  0x0BF3dE8c5D3e8A2B34D2BEeB17ABfCeBaf363A59 */\n  0x0bf3de8c5d3e8a2b34d2beeb17abfcebaf363a59\n    /* \"ZKGameClient.sol\":2878:2934  routers.push(0x0BF3dE8c5D3e8A2B34D2BEeB17ABfCeBaf363A59) */\n  swap1\n  dup1\n  0x01\n  dup2\n  sload\n  add\n  dup1\n  dup3\n  sstore\n  dup1\n  swap2\n  pop\n  pop\n  0x01\n  swap1\n  sub\n  swap1\n  0x00\n  mstore\n  keccak256(0x00, 0x20)\n  add\n  0x00\n  swap1\n  swap2\n  swap1\n  swap2\n  swap1\n  swap2\n  0x0100\n  exp\n  dup2\n  sload\n  dup2\n  0xffffffffffffffffffffffffffffffffffffffff\n  mul\n  not\n  and\n  swap1\n  dup4\n  0xffffffffffffffffffffffffffffffffffffffff\n  and\n  mul\n  or\n  swap1\n  sstore\n  pop\n    /* \"ZKGameClient.sol\":2972:2979  routers */\n  0x03\n    /* \"ZKGameClient.sol\":2985:3027  0xF694E193200268f9a4868e4Aa017A0118C9a8177 */\n  0xf694e193200268f9a4868e4aa017a0118c9a8177\n    /* \"ZKGameClient.sol\":2972:3028  routers.push(0xF694E193200268f9a4868e4Aa017A0118C9a8177) */\n  swap1\n  dup1\n  0x01\n  dup2\n  sload\n  add\n  dup1\n  dup3\n  sstore\n  dup1\n  swap2\n  pop\n  pop\n  0x01\n  swap1\n  sub\n  swap1\n  0x00\n  mstore\n  keccak256(0x00, 0x20)\n  add\n  0x00\n  swap1\n  swap2\n  swap1\n  swap2\n  swap1\n  swap2\n  0x0100\n  exp\n  dup2\n  sload\n  dup2\n  0xffffffffffffffffffffffffffffffffffffffff\n  mul\n  not\n  and\n  swap1\n  dup4\n  0xffffffffffffffffffffffffffffffffffffffff\n  and\n  mul\n  or\n  swap1\n  sstore\n  pop\n    /* \"ZKGameClient.sol\":3064:3071  routers */\n  0x03\n    /* \"ZKGameClient.sol\":3077:3119  0x9C32fCB86BF0f4a1A8921a9Fe46de3198bb884B2 */\n  0x9c32fcb86bf0f4a1a8921a9fe46de3198bb884b2\n    /* \"ZKGameClient.sol\":3064:3120  routers.push(0x9C32fCB86BF0f4a1A8921a9Fe46de3198bb884B2) */\n  swap1\n  dup1\n  0x01\n  dup2\n  sload\n  add\n  dup1\n  dup3\n  sstore\n  dup1\n  swap2\n  pop\n  pop\n  0x01\n  swap1\n  sub\n  swap1\n  0x00\n  mstore\n  keccak256(0x00, 0x20)\n  add\n  0x00\n  swap1\n  swap2\n  swap1\n  swap2\n  swap1\n  swap2\n  0x0100\n  exp\n  dup2\n  sload\n  dup2\n  0xffffffffffffffffffffffffffffffffffffffff\n  mul\n  not\n  and\n  swap1\n  dup4\n  0xffffffffffffffffffffffffffffffffffffffff\n  and\n  mul\n  or\n  swap1\n  sstore\n  pop\n    /* \"ZKGameClient.sol\":3190:3200  linkTokens */\n  0x04\n    /* \"ZKGameClient.sol\":3206:3248  0x779877A7B0D9E8603169DdbD7836e478b4624789 */\n  0x779877a7b0d9e8603169ddbd7836e478b4624789\n    /* \"ZKGameClient.sol\":3190:3249  linkTokens.push(0x779877A7B0D9E8603169DdbD7836e478b4624789) */\n  swap1\n  dup1\n  0x01\n  dup2\n  sload\n  add\n  dup1\n  dup3\n  sstore\n  dup1\n  swap2\n  pop\n  pop\n  0x01\n  swap1\n  sub\n  swap1\n  0x00\n  mstore\n  keccak256(0x00, 0x20)\n  add\n  0x00\n  swap1\n  swap2\n  swap1\n  swap2\n  swap1\n  swap2\n  0x0100\n  exp\n  dup2\n  sload\n  dup2\n  0xffffffffffffffffffffffffffffffffffffffff\n  mul\n  not\n  and\n  swap1\n  dup4\n  0xffffffffffffffffffffffffffffffffffffffff\n  and\n  mul\n  or\n  swap1\n  sstore\n  pop\n    /* \"ZKGameClient.sol\":3287:3297  linkTokens */\n  0x04\n    /* \"ZKGameClient.sol\":3303:3345  0x0b9d5D9136855f6FEc3c0993feE6E9CE8a297846 */\n  0x0b9d5d9136855f6fec3c0993fee6e9ce8a297846\n    /* \"ZKGameClient.sol\":3287:3346  linkTokens.push(0x0b9d5D9136855f6FEc3c0993feE6E9CE8a297846) */\n  swap1\n  dup1\n  0x01\n  dup2\n  sload\n  add\n  dup1\n  dup3\n  sstore\n  dup1\n  swap2\n  pop\n  pop\n  0x01\n  swap1\n  sub\n  swap1\n  0x00\n  mstore\n  keccak256(0x00, 0x20)\n  add\n  0x00\n  swap1\n  swap2\n  swap1\n  swap2\n  swap1\n  swap2\n  0x0100\n  exp\n  dup2\n  sload\n  dup2\n  0xffffffffffffffffffffffffffffffffffffffff\n  mul\n  not\n  and\n  swap1\n  dup4\n  0xffffffffffffffffffffffffffffffffffffffff\n  and\n  mul\n  or\n  swap1\n  sstore\n  pop\n    /* \"ZKGameClient.sol\":3382:3392  linkTokens */\n  0x04\n    /* \"ZKGameClient.sol\":3398:3440  0x0Fd9e8d3aF1aaee056EB9e802c3A762a667b1904 */\n  0x0fd9e8d3af1aaee056eb9e802c3a762a667b1904\n    /* \"ZKGameClient.sol\":3382:3441  linkTokens.push(0x0Fd9e8d3aF1aaee056EB9e802c3A762a667b1904) */\n  swap1\n  dup1\n  0x01\n  dup2\n  sload\n  add\n  dup1\n  dup3\n  sstore\n  dup1\n  swap2\n  pop\n  pop\n  0x01\n  swap1\n  sub\n  swap1\n  0x00\n  mstore\n  keccak256(0x00, 0x20)\n  add\n  0x00\n  swap1\n  swap2\n  swap1\n  swap2\n  swap1\n  swap2\n  0x0100\n  exp\n  dup2\n  sload\n  dup2\n  0xffffffffffffffffffffffffffffffffffffffff\n  mul\n  not\n  and\n  swap1\n  dup4\n  0xffffffffffffffffffffffffffffffffffffffff\n  and\n  mul\n  or\n  swap1\n  sstore\n  pop\n    /* \"ZKGameClient.sol\":3507:3521  chainSelectors */\n  0x05\n    /* \"ZKGameClient.sol\":3527:3547  16015286601757825753 */\n  0xde41ba4fc9d91ad9\n    /* \"ZKGameClient.sol\":3507:3548  chainSelectors.push(16015286601757825753) */\n  swap1\n  dup1\n  0x01\n  dup2\n  sload\n  add\n  dup1\n  dup3\n  sstore\n  dup1\n  swap2\n  pop\n  pop\n  0x01\n  swap1\n  sub\n  swap1\n  0x00\n  mstore\n  keccak256(0x00, 0x20)\n  swap1\n  0x04\n  swap2\n  dup3\n  dup3\n  div\n  add\n  swap2\n  swap1\n  mod\n  0x08\n  mul\n  swap1\n  swap2\n  swap1\n  swap2\n  swap1\n  swap2\n  0x0100\n  exp\n  dup2\n  sload\n  dup2\n  0xffffffffffffffff\n  mul\n  not\n  and\n  swap1\n  dup4\n  0xffffffffffffffff\n  and\n  mul\n  or\n  swap1\n  sstore\n  pop\n    /* \"ZKGameClient.sol\":3586:3600  chainSelectors */\n  0x05\n    /* \"ZKGameClient.sol\":3606:3626  14767482510784806043 */\n  0xccf0a31a221f3c9b\n    /* \"ZKGameClient.sol\":3586:3627  chainSelectors.push(14767482510784806043) */\n  swap1\n  dup1\n  0x01\n  dup2\n  sload\n  add\n  dup1\n  dup3\n  sstore\n  dup1\n  swap2\n  pop\n  pop\n  0x01\n  swap1\n  sub\n  swap1\n  0x00\n  mstore\n  keccak256(0x00, 0x20)\n  swap1\n  0x04\n  swap2\n  dup3\n  dup3\n  div\n  add\n  swap2\n  swap1\n  mod\n  0x08\n  mul\n  swap1\n  swap2\n  swap1\n  swap2\n  swap1\n  swap2\n  0x0100\n  exp\n  dup2\n  sload\n  dup2\n  0xffffffffffffffff\n  mul\n  not\n  and\n  swap1\n  dup4\n  0xffffffffffffffff\n  and\n  mul\n  or\n  swap1\n  sstore\n  pop\n    /* \"ZKGameClient.sol\":3663:3677  chainSelectors */\n  0x05\n    /* \"ZKGameClient.sol\":3683:3703  16281711391670634445 */\n  0xe1f4423f1bf587cd\n    /* \"ZKGameClient.sol\":3663:3704  chainSelectors.push(16281711391670634445) */\n  swap1\n  dup1\n  0x01\n  dup2\n  sload\n  add\n  dup1\n  dup3\n  sstore\n  dup1\n  swap2\n  pop\n  pop\n  0x01\n  swap1\n  sub\n  swap1\n  0x00\n  mstore\n  keccak256(0x00, 0x20)\n  swap1\n  0x04\n  swap2\n  dup3\n  dup3\n  div\n  add\n  swap2\n  swap1\n  mod\n  0x08\n  mul\n  swap1\n  swap2\n  swap1\n  swap2\n  swap1\n  swap2\n  0x0100\n  exp\n  dup2\n  sload\n  dup2\n  0xffffffffffffffff\n  mul\n  not\n  and\n  swap1\n  dup4\n  0xffffffffffffffff\n  and\n  mul\n  or\n  swap1\n  sstore\n  pop\n    /* \"ZKGameClient.sol\":3767:3793  _currentChainSelectorIndex */\n  dup1\n    /* \"ZKGameClient.sol\":3739:3764  currentChainSelectorIndex */\n  0x02\n    /* \"ZKGameClient.sol\":3739:3793  currentChainSelectorIndex = _currentChainSelectorIndex */\n  dup2\n  swap1\n  sstore\n  pop\n    /* \"ZKGameClient.sol\":2792:3800  constructor(uint _currentChainSelectorIndex) {... */\n  pop\n    /* \"ZKGameClient.sol\":796:9245  contract ZKGameClient is OwnerIsCreator {... */\n  jump(tag_27)\n    /* \"@chainlink/contracts-ccip@1.4.0/src/v0.8/shared/access/ConfirmedOwnerWithProposal.sol\":1528:1763  function _transferOwnership(address to) private {... */\ntag_14:\n    /* \"@chainlink/contracts-ccip@1.4.0/src/v0.8/shared/access/ConfirmedOwnerWithProposal.sol\":1643:1653  msg.sender */\n  caller\n    /* \"@chainlink/contracts-ccip@1.4.0/src/v0.8/shared/access/ConfirmedOwnerWithProposal.sol\":1637:1653  to != msg.sender */\n  0xffffffffffffffffffffffffffffffffffffffff\n  and\n    /* \"@chainlink/contracts-ccip@1.4.0/src/v0.8/shared/access/ConfirmedOwnerWithProposal.sol\":1637:1639  to */\n  dup2\n    /* \"@chainlink/contracts-ccip@1.4.0/src/v0.8/shared/access/ConfirmedOwnerWithProposal.sol\":1637:1653  to != msg.sender */\n  0xffffffffffffffffffffffffffffffffffffffff\n  and\n  sub\n    /* \"@chainlink/contracts-ccip@1.4.0/src/v0.8/shared/access/ConfirmedOwnerWithProposal.sol\":1629:1681  require(to != msg.sender, \"Cannot transfer to self\") */\n  tag_29\n  jumpi\n  mload(0x40)\n  0x08c379a000000000000000000000000000000000000000000000000000000000\n  dup2\n  mstore\n  0x04\n  add\n  tag_30\n  swap1\n  tag_31\n  jump\t// in\ntag_30:\n  mload(0x40)\n  dup1\n  swap2\n  sub\n  swap1\n  revert\ntag_29:\n    /* \"@chainlink/contracts-ccip@1.4.0/src/v0.8/shared/access/ConfirmedOwnerWithProposal.sol\":1705:1707  to */\n  dup1\n    /* \"@chainlink/contracts-ccip@1.4.0/src/v0.8/shared/access/ConfirmedOwnerWithProposal.sol\":1688:1702  s_pendingOwner */\n  0x01\n  0x00\n    /* \"@chainlink/contracts-ccip@1.4.0/src/v0.8/shared/access/ConfirmedOwnerWithProposal.sol\":1688:1707  s_pendingOwner = to */\n  0x0100\n  exp\n  dup2\n  sload\n  dup2\n  0xffffffffffffffffffffffffffffffffffffffff\n  mul\n  not\n  and\n  swap1\n  dup4\n  0xffffffffffffffffffffffffffffffffffffffff\n  and\n  mul\n  or\n  swap1\n  sstore\n  pop\n    /* \"@chainlink/contracts-ccip@1.4.0/src/v0.8/shared/access/ConfirmedOwnerWithProposal.sol\":1755:1757  to */\n  dup1\n    /* \"@chainlink/contracts-ccip@1.4.0/src/v0.8/shared/access/ConfirmedOwnerWithProposal.sol\":1719:1758  OwnershipTransferRequested(s_owner, to) */\n  0xffffffffffffffffffffffffffffffffffffffff\n  and\n    /* \"@chainlink/contracts-ccip@1.4.0/src/v0.8/shared/access/ConfirmedOwnerWithProposal.sol\":1746:1753  s_owner */\n  0x00\n  dup1\n  sload\n  swap1\n  0x0100\n  exp\n  swap1\n  div\n  0xffffffffffffffffffffffffffffffffffffffff\n  and\n    /* \"@chainlink/contracts-ccip@1.4.0/src/v0.8/shared/access/ConfirmedOwnerWithProposal.sol\":1719:1758  OwnershipTransferRequested(s_owner, to) */\n  0xffffffffffffffffffffffffffffffffffffffff\n  and\n  0xed8889f560326eb138920d842192f0eb3dd22b4f139c87a2c57538e05bae1278\n  mload(0x40)\n  mload(0x40)\n  dup1\n  swap2\n  sub\n  swap1\n  log3\n    /* \"@chainlink/contracts-ccip@1.4.0/src/v0.8/shared/access/ConfirmedOwnerWithProposal.sol\":1528:1763  function _transferOwnership(address to) private {... */\n  pop\n  jump\t// out\n    /* \"#utility.yul\":88:205   */\ntag_33:\n    /* \"#utility.yul\":197:198   */\n  0x00\n    /* \"#utility.yul\":194:195   */\n  dup1\n    /* \"#utility.yul\":187:199   */\n  revert\n    /* \"#utility.yul\":334:411   */\ntag_35:\n    /* \"#utility.yul\":371:378   */\n  0x00\n    /* \"#utility.yul\":400:405   */\n  dup2\n    /* \"#utility.yul\":389:405   */\n  swap1\n  pop\n    /* \"#utility.yul\":334:411   */\n  swap2\n  swap1\n  pop\n  jump\t// out\n    /* \"#utility.yul\":417:539   */\ntag_36:\n    /* \"#utility.yul\":490:514   */\n  tag_49\n    /* \"#utility.yul\":508:513   */\n  dup2\n    /* \"#utility.yul\":490:514   */\n  tag_35\n  jump\t// in\ntag_49:\n    /* \"#utility.yul\":483:488   */\n  dup2\n    /* \"#utility.yul\":480:515   */\n  eq\n    /* \"#utility.yul\":470:533   */\n  tag_50\n  jumpi\n    /* \"#utility.yul\":529:530   */\n  0x00\n    /* \"#utility.yul\":526:527   */\n  dup1\n    /* \"#utility.yul\":519:531   */\n  revert\n    /* \"#utility.yul\":470:533   */\ntag_50:\n    /* \"#utility.yul\":417:539   */\n  pop\n  jump\t// out\n    /* \"#utility.yul\":545:688   */\ntag_37:\n    /* \"#utility.yul\":602:607   */\n  0x00\n    /* \"#utility.yul\":633:639   */\n  dup2\n    /* \"#utility.yul\":627:640   */\n  mload\n    /* \"#utility.yul\":618:640   */\n  swap1\n  pop\n    /* \"#utility.yul\":649:682   */\n  tag_52\n    /* \"#utility.yul\":676:681   */\n  dup2\n    /* \"#utility.yul\":649:682   */\n  tag_36\n  jump\t// in\ntag_52:\n    /* \"#utility.yul\":545:688   */\n  swap3\n  swap2\n  pop\n  pop\n  jump\t// out\n    /* \"#utility.yul\":694:1045   */\ntag_3:\n    /* \"#utility.yul\":764:770   */\n  0x00\n    /* \"#utility.yul\":813:815   */\n  0x20\n    /* \"#utility.yul\":801:810   */\n  dup3\n    /* \"#utility.yul\":792:799   */\n  dup5\n    /* \"#utility.yul\":788:811   */\n  sub\n    /* \"#utility.yul\":784:816   */\n  slt\n    /* \"#utility.yul\":781:900   */\n  iszero\n  tag_54\n  jumpi\n    /* \"#utility.yul\":819:898   */\n  tag_55\n  tag_33\n  jump\t// in\ntag_55:\n    /* \"#utility.yul\":781:900   */\ntag_54:\n    /* \"#utility.yul\":939:940   */\n  0x00\n    /* \"#utility.yul\":964:1028   */\n  tag_56\n    /* \"#utility.yul\":1020:1027   */\n  dup5\n    /* \"#utility.yul\":1011:1017   */\n  dup3\n    /* \"#utility.yul\":1000:1009   */\n  dup6\n    /* \"#utility.yul\":996:1018   */\n  add\n    /* \"#utility.yul\":964:1028   */\n  tag_37\n  jump\t// in\ntag_56:\n    /* \"#utility.yul\":954:1028   */\n  swap2\n  pop\n    /* \"#utility.yul\":910:1038   */\n  pop\n    /* \"#utility.yul\":694:1045   */\n  swap3\n  swap2\n  pop\n  pop\n  jump\t// out\n    /* \"#utility.yul\":1051:1220   */\ntag_38:\n    /* \"#utility.yul\":1135:1146   */\n  0x00\n    /* \"#utility.yul\":1169:1175   */\n  dup3\n    /* \"#utility.yul\":1164:1167   */\n  dup3\n    /* \"#utility.yul\":1157:1176   */\n  mstore\n    /* \"#utility.yul\":1209:1213   */\n  0x20\n    /* \"#utility.yul\":1204:1207   */\n  dup3\n    /* \"#utility.yul\":1200:1214   */\n  add\n    /* \"#utility.yul\":1185:1214   */\n  swap1\n  pop\n    /* \"#utility.yul\":1051:1220   */\n  swap3\n  swap2\n  pop\n  pop\n  jump\t// out\n    /* \"#utility.yul\":1226:1400   */\ntag_39:\n    /* \"#utility.yul\":1366:1392   */\n  0x43616e6e6f7420736574206f776e657220746f207a65726f0000000000000000\n    /* \"#utility.yul\":1362:1363   */\n  0x00\n    /* \"#utility.yul\":1354:1360   */\n  dup3\n    /* \"#utility.yul\":1350:1364   */\n  add\n    /* \"#utility.yul\":1343:1393   */\n  mstore\n    /* \"#utility.yul\":1226:1400   */\n  pop\n  jump\t// out\n    /* \"#utility.yul\":1406:1772   */\ntag_40:\n    /* \"#utility.yul\":1548:1551   */\n  0x00\n    /* \"#utility.yul\":1569:1636   */\n  tag_60\n    /* \"#utility.yul\":1633:1635   */\n  0x18\n    /* \"#utility.yul\":1628:1631   */\n  dup4\n    /* \"#utility.yul\":1569:1636   */\n  tag_38\n  jump\t// in\ntag_60:\n    /* \"#utility.yul\":1562:1636   */\n  swap2\n  pop\n    /* \"#utility.yul\":1645:1738   */\n  tag_61\n    /* \"#utility.yul\":1734:1737   */\n  dup3\n    /* \"#utility.yul\":1645:1738   */\n  tag_39\n  jump\t// in\ntag_61:\n    /* \"#utility.yul\":1763:1765   */\n  0x20\n    /* \"#utility.yul\":1758:1761   */\n  dup3\n    /* \"#utility.yul\":1754:1766   */\n  add\n    /* \"#utility.yul\":1747:1766   */\n  swap1\n  pop\n    /* \"#utility.yul\":1406:1772   */\n  swap2\n  swap1\n  pop\n  jump\t// out\n    /* \"#utility.yul\":1778:2197   */\ntag_11:\n    /* \"#utility.yul\":1944:1948   */\n  0x00\n    /* \"#utility.yul\":1982:1984   */\n  0x20\n    /* \"#utility.yul\":1971:1980   */\n  dup3\n    /* \"#utility.yul\":1967:1985   */\n  add\n    /* \"#utility.yul\":1959:1985   */\n  swap1\n  pop\n    /* \"#utility.yul\":2031:2040   */\n  dup2\n    /* \"#utility.yul\":2025:2029   */\n  dup2\n    /* \"#utility.yul\":2021:2041   */\n  sub\n    /* \"#utility.yul\":2017:2018   */\n  0x00\n    /* \"#utility.yul\":2006:2015   */\n  dup4\n    /* \"#utility.yul\":2002:2019   */\n  add\n    /* \"#utility.yul\":1995:2042   */\n  mstore\n    /* \"#utility.yul\":2059:2190   */\n  tag_63\n    /* \"#utility.yul\":2185:2189   */\n  dup2\n    /* \"#utility.yul\":2059:2190   */\n  tag_40\n  jump\t// in\ntag_63:\n    /* \"#utility.yul\":2051:2190   */\n  swap1\n  pop\n    /* \"#utility.yul\":1778:2197   */\n  swap2\n  swap1\n  pop\n  jump\t// out\n    /* \"#utility.yul\":2203:2376   */\ntag_41:\n    /* \"#utility.yul\":2343:2368   */\n  0x43616e6e6f74207472616e7366657220746f2073656c66000000000000000000\n    /* \"#utility.yul\":2339:2340   */\n  0x00\n    /* \"#utility.yul\":2331:2337   */\n  dup3\n    /* \"#utility.yul\":2327:2341   */\n  add\n    /* \"#utility.yul\":2320:2369   */\n  mstore\n    /* \"#utility.yul\":2203:2376   */\n  pop\n  jump\t// out\n    /* \"#utility.yul\":2382:2748   */\ntag_42:\n    /* \"#utility.yul\":2524:2527   */\n  0x00\n    /* \"#utility.yul\":2545:2612   */\n  tag_66\n    /* \"#utility.yul\":2609:2611   */\n  0x17\n    /* \"#utility.yul\":2604:2607   */\n  dup4\n    /* \"#utility.yul\":2545:2612   */\n  tag_38\n  jump\t// in\ntag_66:\n    /* \"#utility.yul\":2538:2612   */\n  swap2\n  pop\n    /* \"#utility.yul\":2621:2714   */\n  tag_67\n    /* \"#utility.yul\":2710:2713   */\n  dup3\n    /* \"#utility.yul\":2621:2714   */\n  tag_41\n  jump\t// in\ntag_67:\n    /* \"#utility.yul\":2739:2741   */\n  0x20\n    /* \"#utility.yul\":2734:2737   */\n  dup3\n    /* \"#utility.yul\":2730:2742   */\n  add\n    /* \"#utility.yul\":2723:2742   */\n  swap1\n  pop\n    /* \"#utility.yul\":2382:2748   */\n  swap2\n  swap1\n  pop\n  jump\t// out\n    /* \"#utility.yul\":2754:3173   */\ntag_31:\n    /* \"#utility.yul\":2920:2924   */\n  0x00\n    /* \"#utility.yul\":2958:2960   */\n  0x20\n    /* \"#utility.yul\":2947:2956   */\n  dup3\n    /* \"#utility.yul\":2943:2961   */\n  add\n    /* \"#utility.yul\":2935:2961   */\n  swap1\n  pop\n    /* \"#utility.yul\":3007:3016   */\n  dup2\n    /* \"#utility.yul\":3001:3005   */\n  dup2\n    /* \"#utility.yul\":2997:3017   */\n  sub\n    /* \"#utility.yul\":2993:2994   */\n  0x00\n    /* \"#utility.yul\":2982:2991   */\n  dup4\n    /* \"#utility.yul\":2978:2995   */\n  add\n    /* \"#utility.yul\":2971:3018   */\n  mstore\n    /* \"#utility.yul\":3035:3166   */\n  tag_69\n    /* \"#utility.yul\":3161:3165   */\n  dup2\n    /* \"#utility.yul\":3035:3166   */\n  tag_42\n  jump\t// in\ntag_69:\n    /* \"#utility.yul\":3027:3166   */\n  swap1\n  pop\n    /* \"#utility.yul\":2754:3173   */\n  swap2\n  swap1\n  pop\n  jump\t// out\n    /* \"ZKGameClient.sol\":796:9245  contract ZKGameClient is OwnerIsCreator {... */\ntag_27:\n  dataSize(sub_0)\n  dup1\n  dataOffset(sub_0)\n  0x00\n  codecopy\n  0x00\n  return\nstop\n\nsub_0: assembly {\n        /* \"ZKGameClient.sol\":796:9245  contract ZKGameClient is OwnerIsCreator {... */\n      mstore(0x40, 0x80)\n      callvalue\n      dup1\n      iszero\n      tag_1\n      jumpi\n      0x00\n      dup1\n      revert\n    tag_1:\n      pop\n      jumpi(tag_2, lt(calldatasize, 0x04))\n      shr(0xe0, calldataload(0x00))\n      dup1\n      0xb76ee4a8\n      gt\n      tag_21\n      jumpi\n      dup1\n      0xd0d5117e\n      gt\n      tag_22\n      jumpi\n      dup1\n      0xd0d5117e\n      eq\n      tag_16\n      jumpi\n      dup1\n      0xd252682d\n      eq\n      tag_17\n      jumpi\n      dup1\n      0xe8af8c0d\n      eq\n      tag_18\n      jumpi\n      dup1\n      0xea029701\n      eq\n      tag_19\n      jumpi\n      dup1\n      0xf2fde38b\n      eq\n      tag_20\n      jumpi\n      jump(tag_2)\n    tag_22:\n      dup1\n      0xb76ee4a8\n      eq\n      tag_12\n      jumpi\n      dup1\n      0xbfd772fc\n      eq\n      tag_13\n      jumpi\n      dup1\n      0xc8f33c91\n      eq\n      tag_14\n      jumpi\n      dup1\n      0xcdc7bc87\n      eq\n      tag_15\n      jumpi\n      jump(tag_2)\n    tag_21:\n      dup1\n      0x4e9c1118\n      gt\n      tag_23\n      jumpi\n      dup1\n      0x4e9c1118\n      eq\n      tag_7\n      jumpi\n      dup1\n      0x79ba5097\n      eq\n      tag_8\n      jumpi\n      dup1\n      0x85572ffb\n      eq\n      tag_9\n      jumpi\n      dup1\n      0x8da5cb5b\n      eq\n      tag_10\n      jumpi\n      dup1\n      0xb0e23518\n      eq\n      tag_11\n      jumpi\n      jump(tag_2)\n    tag_23:\n      dup1\n      0x01ffc9a7\n      eq\n      tag_3\n      jumpi\n      dup1\n      0x11b7aad5\n      eq\n      tag_4\n      jumpi\n      dup1\n      0x2bf34fbd\n      eq\n      tag_5\n      jumpi\n      dup1\n      0x49c9d17a\n      eq\n      tag_6\n      jumpi\n    tag_2:\n      0x00\n      dup1\n      revert\n        /* \"ZKGameClient.sol\":3806:4004  function supportsInterface(bytes4 interfaceId) public pure returns (bool) {... */\n    tag_3:\n      tag_24\n      0x04\n      dup1\n      calldatasize\n      sub\n      dup2\n      add\n      swap1\n      tag_25\n      swap2\n      swap1\n      tag_26\n      jump\t// in\n    tag_25:\n      tag_27\n      jump\t// in\n    tag_24:\n      mload(0x40)\n      tag_28\n      swap2\n      swap1\n      tag_29\n      jump\t// in\n    tag_28:\n      mload(0x40)\n      dup1\n      swap2\n      sub\n      swap1\n      return\n        /* \"ZKGameClient.sol\":2203:2244  uint public currentChainSelectorIndex = 0 */\n    tag_4:\n      tag_30\n      tag_31\n      jump\t// in\n    tag_30:\n      mload(0x40)\n      tag_32\n      swap2\n      swap1\n      tag_33\n      jump\t// in\n    tag_32:\n      mload(0x40)\n      dup1\n      swap2\n      sub\n      swap1\n      return\n        /* \"ZKGameClient.sol\":2359:2389  uint64[] public chainSelectors */\n    tag_5:\n      tag_34\n      0x04\n      dup1\n      calldatasize\n      sub\n      dup2\n      add\n      swap1\n      tag_35\n      swap2\n      swap1\n      tag_36\n      jump\t// in\n    tag_35:\n      tag_37\n      jump\t// in\n    tag_34:\n      mload(0x40)\n      tag_38\n      swap2\n      swap1\n      tag_39\n      jump\t// in\n    tag_38:\n      mload(0x40)\n      dup1\n      swap2\n      sub\n      swap1\n      return\n        /* \"ZKGameClient.sol\":4027:4302  function updateReceivers(address[] memory receiverList) external onlyOwner {... */\n    tag_6:\n      tag_40\n      0x04\n      dup1\n      calldatasize\n      sub\n      dup2\n      add\n      swap1\n      tag_41\n      swap2\n      swap1\n      tag_42\n      jump\t// in\n    tag_41:\n      tag_43\n      jump\t// in\n    tag_40:\n      stop\n        /* \"ZKGameClient.sol\":2251:2275  address[] public routers */\n    tag_7:\n      tag_44\n      0x04\n      dup1\n      calldatasize\n      sub\n      dup2\n      add\n      swap1\n      tag_45\n      swap2\n      swap1\n      tag_36\n      jump\t// in\n    tag_45:\n      tag_46\n      jump\t// in\n    tag_44:\n      mload(0x40)\n      tag_47\n      swap2\n      swap1\n      tag_48\n      jump\t// in\n    tag_47:\n      mload(0x40)\n      dup1\n      swap2\n      sub\n      swap1\n      return\n        /* \"@chainlink/contracts-ccip@1.4.0/src/v0.8/shared/access/ConfirmedOwnerWithProposal.sol\":1022:1334  function acceptOwnership() external override {... */\n    tag_8:\n      tag_49\n      tag_50\n      jump\t// in\n    tag_49:\n      stop\n        /* \"ZKGameClient.sol\":5309:5428  function ccipReceive(Client.Any2EVMMessage calldata message) external onlyRouter {... */\n    tag_9:\n      tag_51\n      0x04\n      dup1\n      calldatasize\n      sub\n      dup2\n      add\n      swap1\n      tag_52\n      swap2\n      swap1\n      tag_53\n      jump\t// in\n    tag_52:\n      tag_54\n      jump\t// in\n    tag_51:\n      stop\n        /* \"@chainlink/contracts-ccip@1.4.0/src/v0.8/shared/access/ConfirmedOwnerWithProposal.sol\":1374:1455  function owner() public view override returns (address) {... */\n    tag_10:\n      tag_55\n      tag_56\n      jump\t// in\n    tag_55:\n      mload(0x40)\n      tag_57\n      swap2\n      swap1\n      tag_48\n      jump\t// in\n    tag_57:\n      mload(0x40)\n      dup1\n      swap2\n      sub\n      swap1\n      return\n        /* \"ZKGameClient.sol\":4309:5152  function submitData(uint time) external {... */\n    tag_11:\n      tag_58\n      0x04\n      dup1\n      calldatasize\n      sub\n      dup2\n      add\n      swap1\n      tag_59\n      swap2\n      swap1\n      tag_36\n      jump\t// in\n    tag_59:\n      tag_60\n      jump\t// in\n    tag_58:\n      stop\n        /* \"ZKGameClient.sol\":2522:2550  uint[10] public topGradeList */\n    tag_12:\n      tag_61\n      0x04\n      dup1\n      calldatasize\n      sub\n      dup2\n      add\n      swap1\n      tag_62\n      swap2\n      swap1\n      tag_36\n      jump\t// in\n    tag_62:\n      tag_63\n      jump\t// in\n    tag_61:\n      mload(0x40)\n      tag_64\n      swap2\n      swap1\n      tag_33\n      jump\t// in\n    tag_64:\n      mload(0x40)\n      dup1\n      swap2\n      sub\n      swap1\n      return\n        /* \"ZKGameClient.sol\":2418:2445  address[3] public receivers */\n    tag_13:\n      tag_65\n      0x04\n      dup1\n      calldatasize\n      sub\n      dup2\n      add\n      swap1\n      tag_66\n      swap2\n      swap1\n      tag_36\n      jump\t// in\n    tag_66:\n      tag_67\n      jump\t// in\n    tag_65:\n      mload(0x40)\n      tag_68\n      swap2\n      swap1\n      tag_48\n      jump\t// in\n    tag_68:\n      mload(0x40)\n      dup1\n      swap2\n      sub\n      swap1\n      return\n        /* \"ZKGameClient.sol\":2727:2753  uint public lastUpdateTime */\n    tag_14:\n      tag_69\n      tag_70\n      jump\t// in\n    tag_69:\n      mload(0x40)\n      tag_71\n      swap2\n      swap1\n      tag_33\n      jump\t// in\n    tag_71:\n      mload(0x40)\n      dup1\n      swap2\n      sub\n      swap1\n      return\n        /* \"ZKGameClient.sol\":2478:2515  MessageItem public currentMessageItem */\n    tag_15:\n      tag_72\n      tag_73\n      jump\t// in\n    tag_72:\n      mload(0x40)\n      tag_74\n      swap4\n      swap3\n      swap2\n      swap1\n      tag_75\n      jump\t// in\n    tag_74:\n      mload(0x40)\n      dup1\n      swap2\n      sub\n      swap1\n      return\n        /* \"ZKGameClient.sol\":9052:9243  function getTopListInfo() public view returns (uint[10] memory, uint[10] memory, address[10] memory, uint) {... */\n    tag_16:\n      tag_76\n      tag_77\n      jump\t// in\n    tag_76:\n      mload(0x40)\n      tag_78\n      swap5\n      swap4\n      swap3\n      swap2\n      swap1\n      tag_79\n      jump\t// in\n    tag_78:\n      mload(0x40)\n      dup1\n      swap2\n      sub\n      swap1\n      return\n        /* \"ZKGameClient.sol\":2588:2620  address[10] public topPlayerList */\n    tag_17:\n      tag_80\n      0x04\n      dup1\n      calldatasize\n      sub\n      dup2\n      add\n      swap1\n      tag_81\n      swap2\n      swap1\n      tag_36\n      jump\t// in\n    tag_81:\n      tag_82\n      jump\t// in\n    tag_80:\n      mload(0x40)\n      tag_83\n      swap2\n      swap1\n      tag_48\n      jump\t// in\n    tag_83:\n      mload(0x40)\n      dup1\n      swap2\n      sub\n      swap1\n      return\n        /* \"ZKGameClient.sol\":2657:2686  uint[10] public topChainIndex */\n    tag_18:\n      tag_84\n      0x04\n      dup1\n      calldatasize\n      sub\n      dup2\n      add\n      swap1\n      tag_85\n      swap2\n      swap1\n      tag_36\n      jump\t// in\n    tag_85:\n      tag_86\n      jump\t// in\n    tag_84:\n      mload(0x40)\n      tag_87\n      swap2\n      swap1\n      tag_33\n      jump\t// in\n    tag_87:\n      mload(0x40)\n      dup1\n      swap2\n      sub\n      swap1\n      return\n        /* \"ZKGameClient.sol\":2304:2331  address[] public linkTokens */\n    tag_19:\n      tag_88\n      0x04\n      dup1\n      calldatasize\n      sub\n      dup2\n      add\n      swap1\n      tag_89\n      swap2\n      swap1\n      tag_36\n      jump\t// in\n    tag_89:\n      tag_90\n      jump\t// in\n    tag_88:\n      mload(0x40)\n      tag_91\n      swap2\n      swap1\n      tag_48\n      jump\t// in\n    tag_91:\n      mload(0x40)\n      dup1\n      swap2\n      sub\n      swap1\n      return\n        /* \"@chainlink/contracts-ccip@1.4.0/src/v0.8/shared/access/ConfirmedOwnerWithProposal.sol\":843:941  function transferOwnership(address to) public override onlyOwner {... */\n    tag_20:\n      tag_92\n      0x04\n      dup1\n      calldatasize\n      sub\n      dup2\n      add\n      swap1\n      tag_93\n      swap2\n      swap1\n      tag_94\n      jump\t// in\n    tag_93:\n      tag_95\n      jump\t// in\n    tag_92:\n      stop\n        /* \"ZKGameClient.sol\":3806:4004  function supportsInterface(bytes4 interfaceId) public pure returns (bool) {... */\n    tag_27:\n        /* \"ZKGameClient.sol\":3874:3878  bool */\n      0x00\n        /* \"ZKGameClient.sol\":3912:3953  type(IAny2EVMMessageReceiver).interfaceId */\n      0x85572ffb00000000000000000000000000000000000000000000000000000000\n        /* \"ZKGameClient.sol\":3897:3953  interfaceId == type(IAny2EVMMessageReceiver).interfaceId */\n      not(0xffffffffffffffffffffffffffffffffffffffffffffffffffffffff)\n      and\n        /* \"ZKGameClient.sol\":3897:3908  interfaceId */\n      dup3\n        /* \"ZKGameClient.sol\":3897:3953  interfaceId == type(IAny2EVMMessageReceiver).interfaceId */\n      not(0xffffffffffffffffffffffffffffffffffffffffffffffffffffffff)\n      and\n      eq\n        /* \"ZKGameClient.sol\":3897:3997  interfaceId == type(IAny2EVMMessageReceiver).interfaceId || interfaceId == type(IERC165).interfaceId */\n      dup1\n      tag_97\n      jumpi\n      pop\n        /* \"ZKGameClient.sol\":3972:3997  type(IERC165).interfaceId */\n      0x01ffc9a700000000000000000000000000000000000000000000000000000000\n        /* \"ZKGameClient.sol\":3957:3997  interfaceId == type(IERC165).interfaceId */\n      not(0xffffffffffffffffffffffffffffffffffffffffffffffffffffffff)\n      and\n        /* \"ZKGameClient.sol\":3957:3968  interfaceId */\n      dup3\n        /* \"ZKGameClient.sol\":3957:3997  interfaceId == type(IERC165).interfaceId */\n      not(0xffffffffffffffffffffffffffffffffffffffffffffffffffffffff)\n      and\n      eq\n        /* \"ZKGameClient.sol\":3897:3997  interfaceId == type(IAny2EVMMessageReceiver).interfaceId || interfaceId == type(IERC165).interfaceId */\n    tag_97:\n        /* \"ZKGameClient.sol\":3890:3997  return interfaceId == type(IAny2EVMMessageReceiver).interfaceId || interfaceId == type(IERC165).interfaceId */\n      swap1\n      pop\n        /* \"ZKGameClient.sol\":3806:4004  function supportsInterface(bytes4 interfaceId) public pure returns (bool) {... */\n      swap2\n      swap1\n      pop\n      jump\t// out\n        /* \"ZKGameClient.sol\":2203:2244  uint public currentChainSelectorIndex = 0 */\n    tag_31:\n      sload(0x02)\n      dup2\n      jump\t// out\n        /* \"ZKGameClient.sol\":2359:2389  uint64[] public chainSelectors */\n    tag_37:\n      0x05\n      dup2\n      dup2\n      sload\n      dup2\n      lt\n      tag_98\n      jumpi\n      0x00\n      dup1\n      revert\n    tag_98:\n      swap1\n      0x00\n      mstore\n      keccak256(0x00, 0x20)\n      swap1\n      0x04\n      swap2\n      dup3\n      dup3\n      div\n      add\n      swap2\n      swap1\n      mod\n      0x08\n      mul\n      swap2\n      pop\n      sload\n      swap1\n      0x0100\n      exp\n      swap1\n      div\n      0xffffffffffffffff\n      and\n      dup2\n      jump\t// out\n        /* \"ZKGameClient.sol\":4027:4302  function updateReceivers(address[] memory receiverList) external onlyOwner {... */\n    tag_43:\n        /* \"@chainlink/contracts-ccip@1.4.0/src/v0.8/shared/access/ConfirmedOwnerWithProposal.sol\":2059:2079  _validateOwnership() */\n      tag_101\n        /* \"@chainlink/contracts-ccip@1.4.0/src/v0.8/shared/access/ConfirmedOwnerWithProposal.sol\":2059:2077  _validateOwnership */\n      tag_102\n        /* \"@chainlink/contracts-ccip@1.4.0/src/v0.8/shared/access/ConfirmedOwnerWithProposal.sol\":2059:2079  _validateOwnership() */\n      jump\t// in\n    tag_101:\n        /* \"ZKGameClient.sol\":4143:4159  receivers.length */\n      0x03\n        /* \"ZKGameClient.sol\":4120:4132  receiverList */\n      dup2\n        /* \"ZKGameClient.sol\":4120:4139  receiverList.length */\n      mload\n        /* \"ZKGameClient.sol\":4120:4159  receiverList.length == receivers.length */\n      eq\n        /* \"ZKGameClient.sol\":4112:4189  require(receiverList.length == receivers.length, \"receiverList is not valid\") */\n      tag_104\n      jumpi\n      mload(0x40)\n      0x08c379a000000000000000000000000000000000000000000000000000000000\n      dup2\n      mstore\n      0x04\n      add\n      tag_105\n      swap1\n      tag_106\n      jump\t// in\n    tag_105:\n      mload(0x40)\n      dup1\n      swap2\n      sub\n      swap1\n      revert\n    tag_104:\n        /* \"ZKGameClient.sol\":4203:4209  uint i */\n      0x00\n        /* \"ZKGameClient.sol\":4199:4296  for(uint i=0; i<receiverList.length; i++) {... */\n    tag_107:\n        /* \"ZKGameClient.sol\":4215:4227  receiverList */\n      dup2\n        /* \"ZKGameClient.sol\":4215:4234  receiverList.length */\n      mload\n        /* \"ZKGameClient.sol\":4213:4214  i */\n      dup2\n        /* \"ZKGameClient.sol\":4213:4234  i<receiverList.length */\n      lt\n        /* \"ZKGameClient.sol\":4199:4296  for(uint i=0; i<receiverList.length; i++) {... */\n      iszero\n      tag_108\n      jumpi\n        /* \"ZKGameClient.sol\":4270:4282  receiverList */\n      dup2\n        /* \"ZKGameClient.sol\":4283:4284  i */\n      dup2\n        /* \"ZKGameClient.sol\":4270:4285  receiverList[i] */\n      dup2\n      mload\n      dup2\n      lt\n      tag_110\n      jumpi\n      tag_111\n      tag_112\n      jump\t// in\n    tag_111:\n    tag_110:\n      0x20\n      mul\n      0x20\n      add\n      add\n      mload\n        /* \"ZKGameClient.sol\":4255:4264  receivers */\n      0x06\n        /* \"ZKGameClient.sol\":4265:4266  i */\n      dup3\n        /* \"ZKGameClient.sol\":4255:4267  receivers[i] */\n      0x03\n      dup2\n      lt\n      tag_113\n      jumpi\n      tag_114\n      tag_112\n      jump\t// in\n    tag_114:\n    tag_113:\n      add\n      0x00\n        /* \"ZKGameClient.sol\":4255:4285  receivers[i] = receiverList[i] */\n      0x0100\n      exp\n      dup2\n      sload\n      dup2\n      0xffffffffffffffffffffffffffffffffffffffff\n      mul\n      not\n      and\n      swap1\n      dup4\n      0xffffffffffffffffffffffffffffffffffffffff\n      and\n      mul\n      or\n      swap1\n      sstore\n      pop\n        /* \"ZKGameClient.sol\":4236:4239  i++ */\n      dup1\n      dup1\n      tag_116\n      swap1\n      tag_117\n      jump\t// in\n    tag_116:\n      swap2\n      pop\n      pop\n        /* \"ZKGameClient.sol\":4199:4296  for(uint i=0; i<receiverList.length; i++) {... */\n      jump(tag_107)\n    tag_108:\n      pop\n        /* \"ZKGameClient.sol\":4027:4302  function updateReceivers(address[] memory receiverList) external onlyOwner {... */\n      pop\n      jump\t// out\n        /* \"ZKGameClient.sol\":2251:2275  address[] public routers */\n    tag_46:\n      0x03\n      dup2\n      dup2\n      sload\n      dup2\n      lt\n      tag_118\n      jumpi\n      0x00\n      dup1\n      revert\n    tag_118:\n      swap1\n      0x00\n      mstore\n      keccak256(0x00, 0x20)\n      add\n      0x00\n      swap2\n      pop\n      sload\n      swap1\n      0x0100\n      exp\n      swap1\n      div\n      0xffffffffffffffffffffffffffffffffffffffff\n      and\n      dup2\n      jump\t// out\n        /* \"@chainlink/contracts-ccip@1.4.0/src/v0.8/shared/access/ConfirmedOwnerWithProposal.sol\":1022:1334  function acceptOwnership() external override {... */\n    tag_50:\n        /* \"@chainlink/contracts-ccip@1.4.0/src/v0.8/shared/access/ConfirmedOwnerWithProposal.sol\":1142:1156  s_pendingOwner */\n      0x01\n      0x00\n      swap1\n      sload\n      swap1\n      0x0100\n      exp\n      swap1\n      div\n      0xffffffffffffffffffffffffffffffffffffffff\n      and\n        /* \"@chainlink/contracts-ccip@1.4.0/src/v0.8/shared/access/ConfirmedOwnerWithProposal.sol\":1128:1156  msg.sender == s_pendingOwner */\n      0xffffffffffffffffffffffffffffffffffffffff\n      and\n        /* \"@chainlink/contracts-ccip@1.4.0/src/v0.8/shared/access/ConfirmedOwnerWithProposal.sol\":1128:1138  msg.sender */\n      caller\n        /* \"@chainlink/contracts-ccip@1.4.0/src/v0.8/shared/access/ConfirmedOwnerWithProposal.sol\":1128:1156  msg.sender == s_pendingOwner */\n      0xffffffffffffffffffffffffffffffffffffffff\n      and\n      eq\n        /* \"@chainlink/contracts-ccip@1.4.0/src/v0.8/shared/access/ConfirmedOwnerWithProposal.sol\":1120:1183  require(msg.sender == s_pendingOwner, \"Must be proposed owner\") */\n      tag_121\n      jumpi\n      mload(0x40)\n      0x08c379a000000000000000000000000000000000000000000000000000000000\n      dup2\n      mstore\n      0x04\n      add\n      tag_122\n      swap1\n      tag_123\n      jump\t// in\n    tag_122:\n      mload(0x40)\n      dup1\n      swap2\n      sub\n      swap1\n      revert\n    tag_121:\n        /* \"@chainlink/contracts-ccip@1.4.0/src/v0.8/shared/access/ConfirmedOwnerWithProposal.sol\":1190:1206  address oldOwner */\n      0x00\n        /* \"@chainlink/contracts-ccip@1.4.0/src/v0.8/shared/access/ConfirmedOwnerWithProposal.sol\":1209:1216  s_owner */\n      dup1\n      0x00\n      swap1\n      sload\n      swap1\n      0x0100\n      exp\n      swap1\n      div\n      0xffffffffffffffffffffffffffffffffffffffff\n      and\n        /* \"@chainlink/contracts-ccip@1.4.0/src/v0.8/shared/access/ConfirmedOwnerWithProposal.sol\":1190:1216  address oldOwner = s_owner */\n      swap1\n      pop\n        /* \"@chainlink/contracts-ccip@1.4.0/src/v0.8/shared/access/ConfirmedOwnerWithProposal.sol\":1232:1242  msg.sender */\n      caller\n        /* \"@chainlink/contracts-ccip@1.4.0/src/v0.8/shared/access/ConfirmedOwnerWithProposal.sol\":1222:1229  s_owner */\n      0x00\n      dup1\n        /* \"@chainlink/contracts-ccip@1.4.0/src/v0.8/shared/access/ConfirmedOwnerWithProposal.sol\":1222:1242  s_owner = msg.sender */\n      0x0100\n      exp\n      dup2\n      sload\n      dup2\n      0xffffffffffffffffffffffffffffffffffffffff\n      mul\n      not\n      and\n      swap1\n      dup4\n      0xffffffffffffffffffffffffffffffffffffffff\n      and\n      mul\n      or\n      swap1\n      sstore\n      pop\n        /* \"@chainlink/contracts-ccip@1.4.0/src/v0.8/shared/access/ConfirmedOwnerWithProposal.sol\":1273:1274  0 */\n      0x00\n        /* \"@chainlink/contracts-ccip@1.4.0/src/v0.8/shared/access/ConfirmedOwnerWithProposal.sol\":1248:1262  s_pendingOwner */\n      0x01\n      0x00\n        /* \"@chainlink/contracts-ccip@1.4.0/src/v0.8/shared/access/ConfirmedOwnerWithProposal.sol\":1248:1275  s_pendingOwner = address(0) */\n      0x0100\n      exp\n      dup2\n      sload\n      dup2\n      0xffffffffffffffffffffffffffffffffffffffff\n      mul\n      not\n      and\n      swap1\n      dup4\n      0xffffffffffffffffffffffffffffffffffffffff\n      and\n      mul\n      or\n      swap1\n      sstore\n      pop\n        /* \"@chainlink/contracts-ccip@1.4.0/src/v0.8/shared/access/ConfirmedOwnerWithProposal.sol\":1318:1328  msg.sender */\n      caller\n        /* \"@chainlink/contracts-ccip@1.4.0/src/v0.8/shared/access/ConfirmedOwnerWithProposal.sol\":1287:1329  OwnershipTransferred(oldOwner, msg.sender) */\n      0xffffffffffffffffffffffffffffffffffffffff\n      and\n        /* \"@chainlink/contracts-ccip@1.4.0/src/v0.8/shared/access/ConfirmedOwnerWithProposal.sol\":1308:1316  oldOwner */\n      dup2\n        /* \"@chainlink/contracts-ccip@1.4.0/src/v0.8/shared/access/ConfirmedOwnerWithProposal.sol\":1287:1329  OwnershipTransferred(oldOwner, msg.sender) */\n      0xffffffffffffffffffffffffffffffffffffffff\n      and\n      0x8be0079c531659141344cd1fd0a4f28419497f9722a3daafe3b4186f6b6457e0\n      mload(0x40)\n      mload(0x40)\n      dup1\n      swap2\n      sub\n      swap1\n      log3\n        /* \"@chainlink/contracts-ccip@1.4.0/src/v0.8/shared/access/ConfirmedOwnerWithProposal.sol\":1067:1334  {... */\n      pop\n        /* \"@chainlink/contracts-ccip@1.4.0/src/v0.8/shared/access/ConfirmedOwnerWithProposal.sol\":1022:1334  function acceptOwnership() external override {... */\n      jump\t// out\n        /* \"ZKGameClient.sol\":5309:5428  function ccipReceive(Client.Any2EVMMessage calldata message) external onlyRouter {... */\n    tag_54:\n        /* \"ZKGameClient.sol\":5216:5223  routers */\n      0x03\n        /* \"ZKGameClient.sol\":5224:5249  currentChainSelectorIndex */\n      sload(0x02)\n        /* \"ZKGameClient.sol\":5216:5250  routers[currentChainSelectorIndex] */\n      dup2\n      sload\n      dup2\n      lt\n      tag_125\n      jumpi\n      tag_126\n      tag_112\n      jump\t// in\n    tag_126:\n    tag_125:\n      swap1\n      0x00\n      mstore\n      keccak256(0x00, 0x20)\n      add\n      0x00\n      swap1\n      sload\n      swap1\n      0x0100\n      exp\n      swap1\n      div\n      0xffffffffffffffffffffffffffffffffffffffff\n      and\n        /* \"ZKGameClient.sol\":5194:5251  msg.sender != address(routers[currentChainSelectorIndex]) */\n      0xffffffffffffffffffffffffffffffffffffffff\n      and\n        /* \"ZKGameClient.sol\":5194:5204  msg.sender */\n      caller\n        /* \"ZKGameClient.sol\":5194:5251  msg.sender != address(routers[currentChainSelectorIndex]) */\n      0xffffffffffffffffffffffffffffffffffffffff\n      and\n      eq\n        /* \"ZKGameClient.sol\":5190:5285  if (msg.sender != address(routers[currentChainSelectorIndex])) revert InvalidRouter(msg.sender) */\n      tag_128\n      jumpi\n        /* \"ZKGameClient.sol\":5274:5284  msg.sender */\n      caller\n        /* \"ZKGameClient.sol\":5260:5285  InvalidRouter(msg.sender) */\n      mload(0x40)\n      0xd7f7333400000000000000000000000000000000000000000000000000000000\n      dup2\n      mstore\n      0x04\n      add\n      tag_129\n      swap2\n      swap1\n      tag_48\n      jump\t// in\n    tag_129:\n      mload(0x40)\n      dup1\n      swap2\n      sub\n      swap1\n      revert\n        /* \"ZKGameClient.sol\":5190:5285  if (msg.sender != address(routers[currentChainSelectorIndex])) revert InvalidRouter(msg.sender) */\n    tag_128:\n        /* \"ZKGameClient.sol\":5400:5421  _ccipReceive(message) */\n      tag_131\n        /* \"ZKGameClient.sol\":5413:5420  message */\n      dup2\n        /* \"ZKGameClient.sol\":5400:5421  _ccipReceive(message) */\n      tag_132\n      swap1\n      tag_133\n      jump\t// in\n    tag_132:\n        /* \"ZKGameClient.sol\":5400:5412  _ccipReceive */\n      tag_134\n        /* \"ZKGameClient.sol\":5400:5421  _ccipReceive(message) */\n      jump\t// in\n    tag_131:\n        /* \"ZKGameClient.sol\":5309:5428  function ccipReceive(Client.Any2EVMMessage calldata message) external onlyRouter {... */\n      pop\n      jump\t// out\n        /* \"@chainlink/contracts-ccip@1.4.0/src/v0.8/shared/access/ConfirmedOwnerWithProposal.sol\":1374:1455  function owner() public view override returns (address) {... */\n    tag_56:\n        /* \"@chainlink/contracts-ccip@1.4.0/src/v0.8/shared/access/ConfirmedOwnerWithProposal.sol\":1421:1428  address */\n      0x00\n        /* \"@chainlink/contracts-ccip@1.4.0/src/v0.8/shared/access/ConfirmedOwnerWithProposal.sol\":1443:1450  s_owner */\n      dup1\n      0x00\n      swap1\n      sload\n      swap1\n      0x0100\n      exp\n      swap1\n      div\n      0xffffffffffffffffffffffffffffffffffffffff\n      and\n        /* \"@chainlink/contracts-ccip@1.4.0/src/v0.8/shared/access/ConfirmedOwnerWithProposal.sol\":1436:1450  return s_owner */\n      swap1\n      pop\n        /* \"@chainlink/contracts-ccip@1.4.0/src/v0.8/shared/access/ConfirmedOwnerWithProposal.sol\":1374:1455  function owner() public view override returns (address) {... */\n      swap1\n      jump\t// out\n        /* \"ZKGameClient.sol\":4309:5152  function submitData(uint time) external {... */\n    tag_60:\n        /* \"ZKGameClient.sol\":4485:4559  pushDataToTopList(MessageItem(msg.sender,time, currentChainSelectorIndex)) */\n      tag_137\n        /* \"ZKGameClient.sol\":4503:4558  MessageItem(msg.sender,time, currentChainSelectorIndex) */\n      mload(0x40)\n      dup1\n      0x60\n      add\n      0x40\n      mstore\n      dup1\n        /* \"ZKGameClient.sol\":4515:4525  msg.sender */\n      caller\n        /* \"ZKGameClient.sol\":4503:4558  MessageItem(msg.sender,time, currentChainSelectorIndex) */\n      0xffffffffffffffffffffffffffffffffffffffff\n      and\n      dup2\n      mstore\n      0x20\n      add\n        /* \"ZKGameClient.sol\":4526:4530  time */\n      dup4\n        /* \"ZKGameClient.sol\":4503:4558  MessageItem(msg.sender,time, currentChainSelectorIndex) */\n      dup2\n      mstore\n      0x20\n      add\n        /* \"ZKGameClient.sol\":4532:4557  currentChainSelectorIndex */\n      sload(0x02)\n        /* \"ZKGameClient.sol\":4503:4558  MessageItem(msg.sender,time, currentChainSelectorIndex) */\n      dup2\n      mstore\n      pop\n        /* \"ZKGameClient.sol\":4485:4502  pushDataToTopList */\n      tag_138\n        /* \"ZKGameClient.sol\":4485:4559  pushDataToTopList(MessageItem(msg.sender,time, currentChainSelectorIndex)) */\n      jump\t// in\n    tag_137:\n        /* \"ZKGameClient.sol\":4613:4619  uint i */\n      0x00\n        /* \"ZKGameClient.sol\":4609:5146  for(uint i=0; i<chainSelectors.length; i++) {... */\n    tag_139:\n        /* \"ZKGameClient.sol\":4625:4639  chainSelectors */\n      0x05\n        /* \"ZKGameClient.sol\":4625:4646  chainSelectors.length */\n      dup1\n      sload\n      swap1\n      pop\n        /* \"ZKGameClient.sol\":4623:4624  i */\n      dup2\n        /* \"ZKGameClient.sol\":4623:4646  i<chainSelectors.length */\n      lt\n        /* \"ZKGameClient.sol\":4609:5146  for(uint i=0; i<chainSelectors.length; i++) {... */\n      iszero\n      tag_140\n      jumpi\n        /* \"ZKGameClient.sol\":4667:4687  uint64 chainSelector */\n      0x00\n        /* \"ZKGameClient.sol\":4690:4704  chainSelectors */\n      0x05\n        /* \"ZKGameClient.sol\":4705:4706  i */\n      dup3\n        /* \"ZKGameClient.sol\":4690:4707  chainSelectors[i] */\n      dup2\n      sload\n      dup2\n      lt\n      tag_142\n      jumpi\n      tag_143\n      tag_112\n      jump\t// in\n    tag_143:\n    tag_142:\n      swap1\n      0x00\n      mstore\n      keccak256(0x00, 0x20)\n      swap1\n      0x04\n      swap2\n      dup3\n      dup3\n      div\n      add\n      swap2\n      swap1\n      mod\n      0x08\n      mul\n      swap1\n      sload\n      swap1\n      0x0100\n      exp\n      swap1\n      div\n      0xffffffffffffffff\n      and\n        /* \"ZKGameClient.sol\":4667:4707  uint64 chainSelector = chainSelectors[i] */\n      swap1\n      pop\n        /* \"ZKGameClient.sol\":4721:4737  address receiver */\n      0x00\n        /* \"ZKGameClient.sol\":4740:4749  receivers */\n      0x06\n        /* \"ZKGameClient.sol\":4750:4751  i */\n      dup4\n        /* \"ZKGameClient.sol\":4740:4752  receivers[i] */\n      0x03\n      dup2\n      lt\n      tag_145\n      jumpi\n      tag_146\n      tag_112\n      jump\t// in\n    tag_146:\n    tag_145:\n      add\n      0x00\n      swap1\n      sload\n      swap1\n      0x0100\n      exp\n      swap1\n      div\n      0xffffffffffffffffffffffffffffffffffffffff\n      and\n        /* \"ZKGameClient.sol\":4721:4752  address receiver = receivers[i] */\n      swap1\n      pop\n        /* \"ZKGameClient.sol\":4814:4827  chainSelector */\n      dup2\n        /* \"ZKGameClient.sol\":4769:4827  chainSelectors[currentChainSelectorIndex] != chainSelector */\n      0xffffffffffffffff\n      and\n        /* \"ZKGameClient.sol\":4769:4783  chainSelectors */\n      0x05\n        /* \"ZKGameClient.sol\":4784:4809  currentChainSelectorIndex */\n      sload(0x02)\n        /* \"ZKGameClient.sol\":4769:4810  chainSelectors[currentChainSelectorIndex] */\n      dup2\n      sload\n      dup2\n      lt\n      tag_148\n      jumpi\n      tag_149\n      tag_112\n      jump\t// in\n    tag_149:\n    tag_148:\n      swap1\n      0x00\n      mstore\n      keccak256(0x00, 0x20)\n      swap1\n      0x04\n      swap2\n      dup3\n      dup3\n      div\n      add\n      swap2\n      swap1\n      mod\n      0x08\n      mul\n      swap1\n      sload\n      swap1\n      0x0100\n      exp\n      swap1\n      div\n      0xffffffffffffffff\n      and\n        /* \"ZKGameClient.sol\":4769:4827  chainSelectors[currentChainSelectorIndex] != chainSelector */\n      0xffffffffffffffff\n      and\n      eq\n      iszero\n        /* \"ZKGameClient.sol\":4769:4853  chainSelectors[currentChainSelectorIndex] != chainSelector && receiver != address(0) */\n      dup1\n      iszero\n      tag_151\n      jumpi\n      pop\n        /* \"ZKGameClient.sol\":4851:4852  0 */\n      0x00\n        /* \"ZKGameClient.sol\":4831:4853  receiver != address(0) */\n      0xffffffffffffffffffffffffffffffffffffffff\n      and\n        /* \"ZKGameClient.sol\":4831:4839  receiver */\n      dup2\n        /* \"ZKGameClient.sol\":4831:4853  receiver != address(0) */\n      0xffffffffffffffffffffffffffffffffffffffff\n      and\n      eq\n      iszero\n        /* \"ZKGameClient.sol\":4769:4853  chainSelectors[currentChainSelectorIndex] != chainSelector && receiver != address(0) */\n    tag_151:\n        /* \"ZKGameClient.sol\":4766:5136  if(chainSelectors[currentChainSelectorIndex] != chainSelector && receiver != address(0)) {... */\n      iszero\n      tag_152\n      jumpi\n        /* \"ZKGameClient.sol\":4873:5121  _sendMessage(chainSelector, receiver, linkTokens[currentChainSelectorIndex], routers[currentChainSelectorIndex], MessageItem(... */\n      tag_153\n        /* \"ZKGameClient.sol\":4886:4899  chainSelector */\n      dup3\n        /* \"ZKGameClient.sol\":4901:4909  receiver */\n      dup3\n        /* \"ZKGameClient.sol\":4911:4921  linkTokens */\n      0x04\n        /* \"ZKGameClient.sol\":4922:4947  currentChainSelectorIndex */\n      sload(0x02)\n        /* \"ZKGameClient.sol\":4911:4948  linkTokens[currentChainSelectorIndex] */\n      dup2\n      sload\n      dup2\n      lt\n      tag_154\n      jumpi\n      tag_155\n      tag_112\n      jump\t// in\n    tag_155:\n    tag_154:\n      swap1\n      0x00\n      mstore\n      keccak256(0x00, 0x20)\n      add\n      0x00\n      swap1\n      sload\n      swap1\n      0x0100\n      exp\n      swap1\n      div\n      0xffffffffffffffffffffffffffffffffffffffff\n      and\n        /* \"ZKGameClient.sol\":4950:4957  routers */\n      0x03\n        /* \"ZKGameClient.sol\":4958:4983  currentChainSelectorIndex */\n      sload(0x02)\n        /* \"ZKGameClient.sol\":4950:4984  routers[currentChainSelectorIndex] */\n      dup2\n      sload\n      dup2\n      lt\n      tag_157\n      jumpi\n      tag_158\n      tag_112\n      jump\t// in\n    tag_158:\n    tag_157:\n      swap1\n      0x00\n      mstore\n      keccak256(0x00, 0x20)\n      add\n      0x00\n      swap1\n      sload\n      swap1\n      0x0100\n      exp\n      swap1\n      div\n      0xffffffffffffffffffffffffffffffffffffffff\n      and\n        /* \"ZKGameClient.sol\":4986:5120  MessageItem(... */\n      mload(0x40)\n      dup1\n      0x60\n      add\n      0x40\n      mstore\n      dup1\n        /* \"ZKGameClient.sol\":5019:5029  msg.sender */\n      caller\n        /* \"ZKGameClient.sol\":4986:5120  MessageItem(... */\n      0xffffffffffffffffffffffffffffffffffffffff\n      and\n      dup2\n      mstore\n      0x20\n      add\n        /* \"ZKGameClient.sol\":5051:5055  time */\n      dup11\n        /* \"ZKGameClient.sol\":4986:5120  MessageItem(... */\n      dup2\n      mstore\n      0x20\n      add\n        /* \"ZKGameClient.sol\":5077:5102  currentChainSelectorIndex */\n      sload(0x02)\n        /* \"ZKGameClient.sol\":4986:5120  MessageItem(... */\n      dup2\n      mstore\n      pop\n        /* \"ZKGameClient.sol\":4873:4885  _sendMessage */\n      tag_160\n        /* \"ZKGameClient.sol\":4873:5121  _sendMessage(chainSelector, receiver, linkTokens[currentChainSelectorIndex], routers[currentChainSelectorIndex], MessageItem(... */\n      jump\t// in\n    tag_153:\n      pop\n        /* \"ZKGameClient.sol\":4766:5136  if(chainSelectors[currentChainSelectorIndex] != chainSelector && receiver != address(0)) {... */\n    tag_152:\n        /* \"ZKGameClient.sol\":4653:5146  {... */\n      pop\n      pop\n        /* \"ZKGameClient.sol\":4648:4651  i++ */\n      dup1\n      dup1\n      tag_161\n      swap1\n      tag_117\n      jump\t// in\n    tag_161:\n      swap2\n      pop\n      pop\n        /* \"ZKGameClient.sol\":4609:5146  for(uint i=0; i<chainSelectors.length; i++) {... */\n      jump(tag_139)\n    tag_140:\n      pop\n        /* \"ZKGameClient.sol\":4309:5152  function submitData(uint time) external {... */\n      pop\n      jump\t// out\n        /* \"ZKGameClient.sol\":2522:2550  uint[10] public topGradeList */\n    tag_63:\n      0x0c\n      dup2\n      0x0a\n      dup2\n      lt\n      tag_162\n      jumpi\n      0x00\n      dup1\n      revert\n    tag_162:\n      add\n      0x00\n      swap2\n      pop\n      swap1\n      pop\n      sload\n      dup2\n      jump\t// out\n        /* \"ZKGameClient.sol\":2418:2445  address[3] public receivers */\n    tag_67:\n      0x06\n      dup2\n      0x03\n      dup2\n      lt\n      tag_164\n      jumpi\n      0x00\n      dup1\n      revert\n    tag_164:\n      add\n      0x00\n      swap2\n      pop\n      sload\n      swap1\n      0x0100\n      exp\n      swap1\n      div\n      0xffffffffffffffffffffffffffffffffffffffff\n      and\n      dup2\n      jump\t// out\n        /* \"ZKGameClient.sol\":2727:2753  uint public lastUpdateTime */\n    tag_70:\n      sload(0x2a)\n      dup2\n      jump\t// out\n        /* \"ZKGameClient.sol\":2478:2515  MessageItem public currentMessageItem */\n    tag_73:\n      0x09\n      dup1\n      0x00\n      add\n      0x00\n      swap1\n      sload\n      swap1\n      0x0100\n      exp\n      swap1\n      div\n      0xffffffffffffffffffffffffffffffffffffffff\n      and\n      swap1\n      dup1\n      0x01\n      add\n      sload\n      swap1\n      dup1\n      0x02\n      add\n      sload\n      swap1\n      pop\n      dup4\n      jump\t// out\n        /* \"ZKGameClient.sol\":9052:9243  function getTopListInfo() public view returns (uint[10] memory, uint[10] memory, address[10] memory, uint) {... */\n    tag_77:\n        /* \"ZKGameClient.sol\":9099:9114  uint[10] memory */\n      tag_166\n      tag_167\n      jump\t// in\n    tag_166:\n        /* \"ZKGameClient.sol\":9116:9131  uint[10] memory */\n      tag_168\n      tag_167\n      jump\t// in\n    tag_168:\n        /* \"ZKGameClient.sol\":9133:9151  address[10] memory */\n      tag_169\n      tag_170\n      jump\t// in\n    tag_169:\n        /* \"ZKGameClient.sol\":9153:9157  uint */\n      0x00\n        /* \"ZKGameClient.sol\":9177:9189  topGradeList */\n      0x0c\n        /* \"ZKGameClient.sol\":9191:9204  topChainIndex */\n      0x20\n        /* \"ZKGameClient.sol\":9206:9219  topPlayerList */\n      0x16\n        /* \"ZKGameClient.sol\":9221:9235  lastUpdateTime */\n      sload(0x2a)\n        /* \"ZKGameClient.sol\":9169:9236  return (topGradeList, topChainIndex, topPlayerList, lastUpdateTime) */\n      dup4\n      0x0a\n      dup1\n      0x20\n      mul\n      mload(0x40)\n      swap1\n      dup2\n      add\n      0x40\n      mstore\n      dup1\n      swap3\n      swap2\n      swap1\n      dup3\n      0x0a\n      dup1\n      iszero\n      tag_172\n      jumpi\n      0x20\n      mul\n      dup3\n      add\n      swap2\n    tag_173:\n      dup2\n      sload\n      dup2\n      mstore\n      0x20\n      add\n      swap1\n      0x01\n      add\n      swap1\n      dup1\n      dup4\n      gt\n      tag_173\n      jumpi\n    tag_172:\n      pop\n      pop\n      pop\n      pop\n      pop\n      swap4\n      pop\n      dup3\n      0x0a\n      dup1\n      0x20\n      mul\n      mload(0x40)\n      swap1\n      dup2\n      add\n      0x40\n      mstore\n      dup1\n      swap3\n      swap2\n      swap1\n      dup3\n      0x0a\n      dup1\n      iszero\n      tag_174\n      jumpi\n      0x20\n      mul\n      dup3\n      add\n      swap2\n    tag_175:\n      dup2\n      sload\n      dup2\n      mstore\n      0x20\n      add\n      swap1\n      0x01\n      add\n      swap1\n      dup1\n      dup4\n      gt\n      tag_175\n      jumpi\n    tag_174:\n      pop\n      pop\n      pop\n      pop\n      pop\n      swap3\n      pop\n      dup2\n      0x0a\n      dup1\n      0x20\n      mul\n      mload(0x40)\n      swap1\n      dup2\n      add\n      0x40\n      mstore\n      dup1\n      swap3\n      swap2\n      swap1\n      dup3\n      0x0a\n      dup1\n      iszero\n      tag_176\n      jumpi\n      0x20\n      mul\n      dup3\n      add\n      swap2\n    tag_177:\n      dup2\n      0x00\n      swap1\n      sload\n      swap1\n      0x0100\n      exp\n      swap1\n      div\n      0xffffffffffffffffffffffffffffffffffffffff\n      and\n      0xffffffffffffffffffffffffffffffffffffffff\n      and\n      dup2\n      mstore\n      0x20\n      add\n      swap1\n      0x01\n      add\n      swap1\n      dup1\n      dup4\n      gt\n      tag_177\n      jumpi\n    tag_176:\n      pop\n      pop\n      pop\n      pop\n      pop\n      swap2\n      pop\n      swap4\n      pop\n      swap4\n      pop\n      swap4\n      pop\n      swap4\n      pop\n        /* \"ZKGameClient.sol\":9052:9243  function getTopListInfo() public view returns (uint[10] memory, uint[10] memory, address[10] memory, uint) {... */\n      swap1\n      swap2\n      swap3\n      swap4\n      jump\t// out\n        /* \"ZKGameClient.sol\":2588:2620  address[10] public topPlayerList */\n    tag_82:\n      0x16\n      dup2\n      0x0a\n      dup2\n      lt\n      tag_178\n      jumpi\n      0x00\n      dup1\n      revert\n    tag_178:\n      add\n      0x00\n      swap2\n      pop\n      sload\n      swap1\n      0x0100\n      exp\n      swap1\n      div\n      0xffffffffffffffffffffffffffffffffffffffff\n      and\n      dup2\n      jump\t// out\n        /* \"ZKGameClient.sol\":2657:2686  uint[10] public topChainIndex */\n    tag_86:\n      0x20\n      dup2\n      0x0a\n      dup2\n      lt\n      tag_180\n      jumpi\n      0x00\n      dup1\n      revert\n    tag_180:\n      add\n      0x00\n      swap2\n      pop\n      swap1\n      pop\n      sload\n      dup2\n      jump\t// out\n        /* \"ZKGameClient.sol\":2304:2331  address[] public linkTokens */\n    tag_90:\n      0x04\n      dup2\n      dup2\n      sload\n      dup2\n      lt\n      tag_182\n      jumpi\n      0x00\n      dup1\n      revert\n    tag_182:\n      swap1\n      0x00\n      mstore\n      keccak256(0x00, 0x20)\n      add\n      0x00\n      swap2\n      pop\n      sload\n      swap1\n      0x0100\n      exp\n      swap1\n      div\n      0xffffffffffffffffffffffffffffffffffffffff\n      and\n      dup2\n      jump\t// out\n        /* \"@chainlink/contracts-ccip@1.4.0/src/v0.8/shared/access/ConfirmedOwnerWithProposal.sol\":843:941  function transferOwnership(address to) public override onlyOwner {... */\n    tag_95:\n        /* \"@chainlink/contracts-ccip@1.4.0/src/v0.8/shared/access/ConfirmedOwnerWithProposal.sol\":2059:2079  _validateOwnership() */\n      tag_185\n        /* \"@chainlink/contracts-ccip@1.4.0/src/v0.8/shared/access/ConfirmedOwnerWithProposal.sol\":2059:2077  _validateOwnership */\n      tag_102\n        /* \"@chainlink/contracts-ccip@1.4.0/src/v0.8/shared/access/ConfirmedOwnerWithProposal.sol\":2059:2079  _validateOwnership() */\n      jump\t// in\n    tag_185:\n        /* \"@chainlink/contracts-ccip@1.4.0/src/v0.8/shared/access/ConfirmedOwnerWithProposal.sol\":914:936  _transferOwnership(to) */\n      tag_187\n        /* \"@chainlink/contracts-ccip@1.4.0/src/v0.8/shared/access/ConfirmedOwnerWithProposal.sol\":933:935  to */\n      dup2\n        /* \"@chainlink/contracts-ccip@1.4.0/src/v0.8/shared/access/ConfirmedOwnerWithProposal.sol\":914:932  _transferOwnership */\n      tag_188\n        /* \"@chainlink/contracts-ccip@1.4.0/src/v0.8/shared/access/ConfirmedOwnerWithProposal.sol\":914:936  _transferOwnership(to) */\n      jump\t// in\n    tag_187:\n        /* \"@chainlink/contracts-ccip@1.4.0/src/v0.8/shared/access/ConfirmedOwnerWithProposal.sol\":843:941  function transferOwnership(address to) public override onlyOwner {... */\n      pop\n      jump\t// out\n        /* \"@chainlink/contracts-ccip@1.4.0/src/v0.8/shared/access/ConfirmedOwnerWithProposal.sol\":1797:1955  function _validateOwnership() internal view {... */\n    tag_102:\n        /* \"@chainlink/contracts-ccip@1.4.0/src/v0.8/shared/access/ConfirmedOwnerWithProposal.sol\":1916:1923  s_owner */\n      0x00\n      dup1\n      sload\n      swap1\n      0x0100\n      exp\n      swap1\n      div\n      0xffffffffffffffffffffffffffffffffffffffff\n      and\n        /* \"@chainlink/contracts-ccip@1.4.0/src/v0.8/shared/access/ConfirmedOwnerWithProposal.sol\":1902:1923  msg.sender == s_owner */\n      0xffffffffffffffffffffffffffffffffffffffff\n      and\n        /* \"@chainlink/contracts-ccip@1.4.0/src/v0.8/shared/access/ConfirmedOwnerWithProposal.sol\":1902:1912  msg.sender */\n      caller\n        /* \"@chainlink/contracts-ccip@1.4.0/src/v0.8/shared/access/ConfirmedOwnerWithProposal.sol\":1902:1923  msg.sender == s_owner */\n      0xffffffffffffffffffffffffffffffffffffffff\n      and\n      eq\n        /* \"@chainlink/contracts-ccip@1.4.0/src/v0.8/shared/access/ConfirmedOwnerWithProposal.sol\":1894:1950  require(msg.sender == s_owner, \"Only callable by owner\") */\n      tag_190\n      jumpi\n      mload(0x40)\n      0x08c379a000000000000000000000000000000000000000000000000000000000\n      dup2\n      mstore\n      0x04\n      add\n      tag_191\n      swap1\n      tag_192\n      jump\t// in\n    tag_191:\n      mload(0x40)\n      dup1\n      swap2\n      sub\n      swap1\n      revert\n    tag_190:\n        /* \"@chainlink/contracts-ccip@1.4.0/src/v0.8/shared/access/ConfirmedOwnerWithProposal.sol\":1797:1955  function _validateOwnership() internal view {... */\n      jump\t// out\n        /* \"ZKGameClient.sol\":7393:7955  function _ccipReceive(... */\n    tag_134:\n        /* \"ZKGameClient.sol\":7524:7538  any2EvmMessage */\n      dup1\n        /* \"ZKGameClient.sol\":7524:7543  any2EvmMessage.data */\n      0x60\n      add\n      mload\n        /* \"ZKGameClient.sol\":7513:7559  abi.decode(any2EvmMessage.data, (MessageItem)) */\n      dup1\n      0x20\n      add\n      swap1\n      mload\n      dup2\n      add\n      swap1\n      tag_194\n      swap2\n      swap1\n      tag_195\n      jump\t// in\n    tag_194:\n        /* \"ZKGameClient.sol\":7492:7510  currentMessageItem */\n      0x09\n        /* \"ZKGameClient.sol\":7492:7559  currentMessageItem = abi.decode(any2EvmMessage.data, (MessageItem)) */\n      0x00\n      dup3\n      add\n      mload\n      dup2\n      0x00\n      add\n      exp(0x0100, 0x00)\n      dup2\n      sload\n      dup2\n      0xffffffffffffffffffffffffffffffffffffffff\n      mul\n      not\n      and\n      swap1\n      dup4\n      0xffffffffffffffffffffffffffffffffffffffff\n      and\n      mul\n      or\n      swap1\n      sstore\n      pop\n      0x20\n      dup3\n      add\n      mload\n      dup2\n      0x01\n      add\n      sstore\n      0x40\n      dup3\n      add\n      mload\n      dup2\n      0x02\n      add\n      sstore\n      swap1\n      pop\n      pop\n        /* \"ZKGameClient.sol\":7603:7640  pushDataToTopList(currentMessageItem) */\n      tag_196\n        /* \"ZKGameClient.sol\":7621:7639  currentMessageItem */\n      0x09\n        /* \"ZKGameClient.sol\":7603:7640  pushDataToTopList(currentMessageItem) */\n      mload(0x40)\n      dup1\n      0x60\n      add\n      0x40\n      mstore\n      swap1\n      dup2\n      0x00\n      dup3\n      add\n      0x00\n      swap1\n      sload\n      swap1\n      0x0100\n      exp\n      swap1\n      div\n      0xffffffffffffffffffffffffffffffffffffffff\n      and\n      0xffffffffffffffffffffffffffffffffffffffff\n      and\n      0xffffffffffffffffffffffffffffffffffffffff\n      and\n      dup2\n      mstore\n      0x20\n      add\n      0x01\n      dup3\n      add\n      sload\n      dup2\n      mstore\n      0x20\n      add\n      0x02\n      dup3\n      add\n      sload\n      dup2\n      mstore\n      pop\n      pop\n        /* \"ZKGameClient.sol\":7603:7620  pushDataToTopList */\n      tag_138\n        /* \"ZKGameClient.sol\":7603:7640  pushDataToTopList(currentMessageItem) */\n      jump\t// in\n    tag_196:\n        /* \"ZKGameClient.sol\":7723:7737  any2EvmMessage */\n      dup1\n        /* \"ZKGameClient.sol\":7723:7757  any2EvmMessage.sourceChainSelector */\n      0x20\n      add\n      mload\n        /* \"ZKGameClient.sol\":7656:7948  MessageReceived(... */\n      0xffffffffffffffff\n      and\n        /* \"ZKGameClient.sol\":7685:7699  any2EvmMessage */\n      dup2\n        /* \"ZKGameClient.sol\":7685:7709  any2EvmMessage.messageId */\n      0x00\n      add\n      mload\n        /* \"ZKGameClient.sol\":7656:7948  MessageReceived(... */\n      0xaa5cbdcf4f25939d41be3032075952cfd5f51f978a501d2f801d671061623f1d\n        /* \"ZKGameClient.sol\":7834:7848  any2EvmMessage */\n      dup4\n        /* \"ZKGameClient.sol\":7834:7855  any2EvmMessage.sender */\n      0x40\n      add\n      mload\n        /* \"ZKGameClient.sol\":7823:7867  abi.decode(any2EvmMessage.sender, (address)) */\n      dup1\n      0x20\n      add\n      swap1\n      mload\n      dup2\n      add\n      swap1\n      tag_197\n      swap2\n      swap1\n      tag_198\n      jump\t// in\n    tag_197:\n        /* \"ZKGameClient.sol\":7920:7938  currentMessageItem */\n      0x09\n        /* \"ZKGameClient.sol\":7656:7948  MessageReceived(... */\n      mload(0x40)\n      tag_199\n      swap3\n      swap2\n      swap1\n      tag_200\n      jump\t// in\n    tag_199:\n      mload(0x40)\n      dup1\n      swap2\n      sub\n      swap1\n      log3\n        /* \"ZKGameClient.sol\":7393:7955  function _ccipReceive(... */\n      pop\n      jump\t// out\n        /* \"ZKGameClient.sol\":7997:9046  function pushDataToTopList(MessageItem memory messageItem) internal {... */\n    tag_138:\n        /* \"ZKGameClient.sol\":8075:8084  uint time */\n      0x00\n        /* \"ZKGameClient.sol\":8087:8098  messageItem */\n      dup2\n        /* \"ZKGameClient.sol\":8087:8103  messageItem.time */\n      0x20\n      add\n      mload\n        /* \"ZKGameClient.sol\":8075:8103  uint time = messageItem.time */\n      swap1\n      pop\n        /* \"ZKGameClient.sol\":8113:8127  address player */\n      0x00\n        /* \"ZKGameClient.sol\":8130:8141  messageItem */\n      dup3\n        /* \"ZKGameClient.sol\":8130:8148  messageItem.player */\n      0x00\n      add\n      mload\n        /* \"ZKGameClient.sol\":8113:8148  address player = messageItem.player */\n      swap1\n      pop\n        /* \"ZKGameClient.sol\":8158:8173  uint chainIndex */\n      0x00\n        /* \"ZKGameClient.sol\":8176:8187  messageItem */\n      dup4\n        /* \"ZKGameClient.sol\":8176:8198  messageItem.chainIndex */\n      0x40\n      add\n      mload\n        /* \"ZKGameClient.sol\":8158:8198  uint chainIndex = messageItem.chainIndex */\n      swap1\n      pop\n        /* \"ZKGameClient.sol\":8251:8255  time */\n      dup3\n        /* \"ZKGameClient.sol\":8212:8224  topGradeList */\n      0x0c\n        /* \"ZKGameClient.sol\":8246:8247  1 */\n      0x01\n        /* \"ZKGameClient.sol\":8225:8244  topGradeList.length */\n      0x0a\n        /* \"ZKGameClient.sol\":8225:8247  topGradeList.length -1 */\n      tag_202\n      swap2\n      swap1\n      tag_203\n      jump\t// in\n    tag_202:\n        /* \"ZKGameClient.sol\":8212:8248  topGradeList[topGradeList.length -1] */\n      0x0a\n      dup2\n      lt\n      tag_204\n      jumpi\n      tag_205\n      tag_112\n      jump\t// in\n    tag_205:\n    tag_204:\n      add\n      sload\n        /* \"ZKGameClient.sol\":8212:8255  topGradeList[topGradeList.length -1] < time */\n      lt\n        /* \"ZKGameClient.sol\":8209:8997  if(topGradeList[topGradeList.length -1] < time) {... */\n      iszero\n      tag_207\n      jumpi\n        /* \"ZKGameClient.sol\":8271:8280  uint left */\n      0x00\n        /* \"ZKGameClient.sol\":8298:8308  uint right */\n      dup1\n        /* \"ZKGameClient.sol\":8333:8334  1 */\n      0x01\n        /* \"ZKGameClient.sol\":8311:8330  topGradeList.length */\n      0x0a\n        /* \"ZKGameClient.sol\":8311:8334  topGradeList.length - 1 */\n      tag_208\n      swap2\n      swap1\n      tag_203\n      jump\t// in\n    tag_208:\n        /* \"ZKGameClient.sol\":8298:8334  uint right = topGradeList.length - 1 */\n      swap1\n      pop\n        /* \"ZKGameClient.sol\":8348:8356  uint mid */\n      0x00\n        /* \"ZKGameClient.sol\":8371:8609  while (left < right) {... */\n    tag_209:\n        /* \"ZKGameClient.sol\":8385:8390  right */\n      dup2\n        /* \"ZKGameClient.sol\":8378:8382  left */\n      dup4\n        /* \"ZKGameClient.sol\":8378:8390  left < right */\n      lt\n        /* \"ZKGameClient.sol\":8371:8609  while (left < right) {... */\n      iszero\n      tag_210\n      jumpi\n        /* \"ZKGameClient.sol\":8433:8434  2 */\n      0x02\n        /* \"ZKGameClient.sol\":8424:8429  right */\n      dup3\n        /* \"ZKGameClient.sol\":8417:8421  left */\n      dup5\n        /* \"ZKGameClient.sol\":8417:8429  left + right */\n      tag_211\n      swap2\n      swap1\n      tag_212\n      jump\t// in\n    tag_211:\n        /* \"ZKGameClient.sol\":8416:8434  (left + right) / 2 */\n      tag_213\n      swap2\n      swap1\n      tag_214\n      jump\t// in\n    tag_213:\n        /* \"ZKGameClient.sol\":8410:8434  mid = (left + right) / 2 */\n      swap1\n      pop\n        /* \"ZKGameClient.sol\":8476:8480  time */\n      dup6\n        /* \"ZKGameClient.sol\":8456:8468  topGradeList */\n      0x0c\n        /* \"ZKGameClient.sol\":8469:8472  mid */\n      dup3\n        /* \"ZKGameClient.sol\":8456:8473  topGradeList[mid] */\n      0x0a\n      dup2\n      lt\n      tag_215\n      jumpi\n      tag_216\n      tag_112\n      jump\t// in\n    tag_216:\n    tag_215:\n      add\n      sload\n        /* \"ZKGameClient.sol\":8456:8480  topGradeList[mid] < time */\n      lt\n        /* \"ZKGameClient.sol\":8452:8595  if (topGradeList[mid] < time) {... */\n      iszero\n      tag_218\n      jumpi\n        /* \"ZKGameClient.sol\":8512:8515  mid */\n      dup1\n        /* \"ZKGameClient.sol\":8504:8515  right = mid */\n      swap2\n      pop\n        /* \"ZKGameClient.sol\":8452:8595  if (topGradeList[mid] < time) {... */\n      jump(tag_219)\n    tag_218:\n        /* \"ZKGameClient.sol\":8575:8576  1 */\n      0x01\n        /* \"ZKGameClient.sol\":8569:8572  mid */\n      dup2\n        /* \"ZKGameClient.sol\":8569:8576  mid + 1 */\n      tag_220\n      swap2\n      swap1\n      tag_212\n      jump\t// in\n    tag_220:\n        /* \"ZKGameClient.sol\":8562:8576  left = mid + 1 */\n      swap3\n      pop\n        /* \"ZKGameClient.sol\":8452:8595  if (topGradeList[mid] < time) {... */\n    tag_219:\n        /* \"ZKGameClient.sol\":8371:8609  while (left < right) {... */\n      jump(tag_209)\n    tag_210:\n        /* \"ZKGameClient.sol\":8627:8633  uint i */\n      0x00\n        /* \"ZKGameClient.sol\":8658:8659  1 */\n      0x01\n        /* \"ZKGameClient.sol\":8636:8655  topGradeList.length */\n      0x0a\n        /* \"ZKGameClient.sol\":8636:8659  topGradeList.length - 1 */\n      tag_224\n      swap2\n      swap1\n      tag_203\n      jump\t// in\n    tag_224:\n        /* \"ZKGameClient.sol\":8627:8659  uint i = topGradeList.length - 1 */\n      swap1\n      pop\n        /* \"ZKGameClient.sol\":8623:8860  for(uint i = topGradeList.length - 1; i > left; i--) {... */\n    tag_221:\n        /* \"ZKGameClient.sol\":8665:8669  left */\n      dup4\n        /* \"ZKGameClient.sol\":8661:8662  i */\n      dup2\n        /* \"ZKGameClient.sol\":8661:8669  i > left */\n      gt\n        /* \"ZKGameClient.sol\":8623:8860  for(uint i = topGradeList.length - 1; i > left; i--) {... */\n      iszero\n      tag_222\n      jumpi\n        /* \"ZKGameClient.sol\":8712:8724  topGradeList */\n      0x0c\n        /* \"ZKGameClient.sol\":8729:8730  1 */\n      0x01\n        /* \"ZKGameClient.sol\":8725:8726  i */\n      dup3\n        /* \"ZKGameClient.sol\":8725:8730  i - 1 */\n      tag_225\n      swap2\n      swap1\n      tag_203\n      jump\t// in\n    tag_225:\n        /* \"ZKGameClient.sol\":8712:8731  topGradeList[i - 1] */\n      0x0a\n      dup2\n      lt\n      tag_226\n      jumpi\n      tag_227\n      tag_112\n      jump\t// in\n    tag_227:\n    tag_226:\n      add\n      sload\n        /* \"ZKGameClient.sol\":8694:8706  topGradeList */\n      0x0c\n        /* \"ZKGameClient.sol\":8707:8708  i */\n      dup3\n        /* \"ZKGameClient.sol\":8694:8709  topGradeList[i] */\n      0x0a\n      dup2\n      lt\n      tag_229\n      jumpi\n      tag_230\n      tag_112\n      jump\t// in\n    tag_230:\n    tag_229:\n      add\n        /* \"ZKGameClient.sol\":8694:8731  topGradeList[i] = topGradeList[i - 1] */\n      dup2\n      swap1\n      sstore\n      pop\n        /* \"ZKGameClient.sol\":8768:8781  topPlayerList */\n      0x16\n        /* \"ZKGameClient.sol\":8786:8787  1 */\n      0x01\n        /* \"ZKGameClient.sol\":8782:8783  i */\n      dup3\n        /* \"ZKGameClient.sol\":8782:8787  i - 1 */\n      tag_232\n      swap2\n      swap1\n      tag_203\n      jump\t// in\n    tag_232:\n        /* \"ZKGameClient.sol\":8768:8788  topPlayerList[i - 1] */\n      0x0a\n      dup2\n      lt\n      tag_233\n      jumpi\n      tag_234\n      tag_112\n      jump\t// in\n    tag_234:\n    tag_233:\n      add\n      0x00\n      swap1\n      sload\n      swap1\n      0x0100\n      exp\n      swap1\n      div\n      0xffffffffffffffffffffffffffffffffffffffff\n      and\n        /* \"ZKGameClient.sol\":8749:8762  topPlayerList */\n      0x16\n        /* \"ZKGameClient.sol\":8763:8764  i */\n      dup3\n        /* \"ZKGameClient.sol\":8749:8765  topPlayerList[i] */\n      0x0a\n      dup2\n      lt\n      tag_236\n      jumpi\n      tag_237\n      tag_112\n      jump\t// in\n    tag_237:\n    tag_236:\n      add\n      0x00\n        /* \"ZKGameClient.sol\":8749:8788  topPlayerList[i] = topPlayerList[i - 1] */\n      0x0100\n      exp\n      dup2\n      sload\n      dup2\n      0xffffffffffffffffffffffffffffffffffffffff\n      mul\n      not\n      and\n      swap1\n      dup4\n      0xffffffffffffffffffffffffffffffffffffffff\n      and\n      mul\n      or\n      swap1\n      sstore\n      pop\n        /* \"ZKGameClient.sol\":8825:8838  topChainIndex */\n      0x20\n        /* \"ZKGameClient.sol\":8843:8844  1 */\n      0x01\n        /* \"ZKGameClient.sol\":8839:8840  i */\n      dup3\n        /* \"ZKGameClient.sol\":8839:8844  i - 1 */\n      tag_239\n      swap2\n      swap1\n      tag_203\n      jump\t// in\n    tag_239:\n        /* \"ZKGameClient.sol\":8825:8845  topChainIndex[i - 1] */\n      0x0a\n      dup2\n      lt\n      tag_240\n      jumpi\n      tag_241\n      tag_112\n      jump\t// in\n    tag_241:\n    tag_240:\n      add\n      sload\n        /* \"ZKGameClient.sol\":8806:8819  topChainIndex */\n      0x20\n        /* \"ZKGameClient.sol\":8820:8821  i */\n      dup3\n        /* \"ZKGameClient.sol\":8806:8822  topChainIndex[i] */\n      0x0a\n      dup2\n      lt\n      tag_243\n      jumpi\n      tag_244\n      tag_112\n      jump\t// in\n    tag_244:\n    tag_243:\n      add\n        /* \"ZKGameClient.sol\":8806:8845  topChainIndex[i] = topChainIndex[i - 1] */\n      dup2\n      swap1\n      sstore\n      pop\n        /* \"ZKGameClient.sol\":8671:8674  i-- */\n      dup1\n      dup1\n      tag_246\n      swap1\n      tag_247\n      jump\t// in\n    tag_246:\n      swap2\n      pop\n      pop\n        /* \"ZKGameClient.sol\":8623:8860  for(uint i = topGradeList.length - 1; i > left; i--) {... */\n      jump(tag_221)\n    tag_222:\n      pop\n        /* \"ZKGameClient.sol\":8894:8898  time */\n      dup6\n        /* \"ZKGameClient.sol\":8873:8885  topGradeList */\n      0x0c\n        /* \"ZKGameClient.sol\":8886:8890  left */\n      dup5\n        /* \"ZKGameClient.sol\":8873:8891  topGradeList[left] */\n      0x0a\n      dup2\n      lt\n      tag_248\n      jumpi\n      tag_249\n      tag_112\n      jump\t// in\n    tag_249:\n    tag_248:\n      add\n        /* \"ZKGameClient.sol\":8873:8898  topGradeList[left] = time */\n      dup2\n      swap1\n      sstore\n      pop\n        /* \"ZKGameClient.sol\":8934:8940  player */\n      dup5\n        /* \"ZKGameClient.sol\":8912:8925  topPlayerList */\n      0x16\n        /* \"ZKGameClient.sol\":8926:8930  left */\n      dup5\n        /* \"ZKGameClient.sol\":8912:8931  topPlayerList[left] */\n      0x0a\n      dup2\n      lt\n      tag_251\n      jumpi\n      tag_252\n      tag_112\n      jump\t// in\n    tag_252:\n    tag_251:\n      add\n      0x00\n        /* \"ZKGameClient.sol\":8912:8940  topPlayerList[left] = player */\n      0x0100\n      exp\n      dup2\n      sload\n      dup2\n      0xffffffffffffffffffffffffffffffffffffffff\n      mul\n      not\n      and\n      swap1\n      dup4\n      0xffffffffffffffffffffffffffffffffffffffff\n      and\n      mul\n      or\n      swap1\n      sstore\n      pop\n        /* \"ZKGameClient.sol\":8976:8986  chainIndex */\n      dup4\n        /* \"ZKGameClient.sol\":8954:8967  topChainIndex */\n      0x20\n        /* \"ZKGameClient.sol\":8968:8972  left */\n      dup5\n        /* \"ZKGameClient.sol\":8954:8973  topChainIndex[left] */\n      0x0a\n      dup2\n      lt\n      tag_254\n      jumpi\n      tag_255\n      tag_112\n      jump\t// in\n    tag_255:\n    tag_254:\n      add\n        /* \"ZKGameClient.sol\":8954:8986  topChainIndex[left] = chainIndex */\n      dup2\n      swap1\n      sstore\n      pop\n        /* \"ZKGameClient.sol\":8257:8997  {... */\n      pop\n      pop\n      pop\n        /* \"ZKGameClient.sol\":8209:8997  if(topGradeList[topGradeList.length -1] < time) {... */\n    tag_207:\n        /* \"ZKGameClient.sol\":9024:9039  block.timestamp */\n      timestamp\n        /* \"ZKGameClient.sol\":9007:9021  lastUpdateTime */\n      0x2a\n        /* \"ZKGameClient.sol\":9007:9039  lastUpdateTime = block.timestamp */\n      dup2\n      swap1\n      sstore\n      pop\n        /* \"ZKGameClient.sol\":8065:9046  {... */\n      pop\n      pop\n      pop\n        /* \"ZKGameClient.sol\":7997:9046  function pushDataToTopList(MessageItem memory messageItem) internal {... */\n      pop\n      jump\t// out\n        /* \"ZKGameClient.sol\":5434:7387  function _sendMessage(... */\n    tag_160:\n        /* \"ZKGameClient.sol\":5638:5655  bytes32 messageId */\n      0x00\n        /* \"ZKGameClient.sol\":5667:5697  LinkTokenInterface s_linkToken */\n      dup1\n        /* \"ZKGameClient.sol\":5719:5728  linkToken */\n      dup5\n        /* \"ZKGameClient.sol\":5667:5729  LinkTokenInterface s_linkToken = LinkTokenInterface(linkToken) */\n      swap1\n      pop\n        /* \"ZKGameClient.sol\":5739:5761  IRouterClient s_router */\n      0x00\n        /* \"ZKGameClient.sol\":5778:5784  router */\n      dup5\n        /* \"ZKGameClient.sol\":5739:5785  IRouterClient s_router = IRouterClient(router) */\n      swap1\n      pop\n        /* \"ZKGameClient.sol\":5910:5953  Client.EVM2AnyMessage memory evm2AnyMessage */\n      0x00\n        /* \"ZKGameClient.sol\":5956:6534  Client.EVM2AnyMessage({... */\n      mload(0x40)\n      dup1\n      0xa0\n      add\n      0x40\n      mstore\n      dup1\n        /* \"ZKGameClient.sol\":6013:6021  receiver */\n      dup10\n        /* \"ZKGameClient.sol\":6002:6022  abi.encode(receiver) */\n      add(0x20, mload(0x40))\n      tag_258\n      swap2\n      swap1\n      tag_48\n      jump\t// in\n    tag_258:\n      mload(0x40)\n      0x20\n      dup2\n      dup4\n      sub\n      sub\n      dup2\n      mstore\n      swap1\n      0x40\n      mstore\n        /* \"ZKGameClient.sol\":5956:6534  Client.EVM2AnyMessage({... */\n      dup2\n      mstore\n      0x20\n      add\n        /* \"ZKGameClient.sol\":6085:6096  messageItem */\n      dup7\n        /* \"ZKGameClient.sol\":6074:6097  abi.encode(messageItem) */\n      add(0x20, mload(0x40))\n      tag_259\n      swap2\n      swap1\n      tag_260\n      jump\t// in\n    tag_259:\n      mload(0x40)\n      0x20\n      dup2\n      dup4\n      sub\n      sub\n      dup2\n      mstore\n      swap1\n      0x40\n      mstore\n        /* \"ZKGameClient.sol\":5956:6534  Client.EVM2AnyMessage({... */\n      dup2\n      mstore\n      0x20\n      add\n        /* \"ZKGameClient.sol\":6180:6181  0 */\n      0x00\n        /* \"ZKGameClient.sol\":6152:6182  new Client.EVMTokenAmount[](0) */\n      0xffffffffffffffff\n      dup2\n      gt\n      iszero\n      tag_261\n      jumpi\n      tag_262\n      tag_263\n      jump\t// in\n    tag_262:\n    tag_261:\n      mload(0x40)\n      swap1\n      dup1\n      dup3\n      mstore\n      dup1\n      0x20\n      mul\n      0x20\n      add\n      dup3\n      add\n      0x40\n      mstore\n      dup1\n      iszero\n      tag_264\n      jumpi\n      dup2\n      0x20\n      add\n    tag_265:\n      tag_266\n      tag_267\n      jump\t// in\n    tag_266:\n      dup2\n      mstore\n      0x20\n      add\n      swap1\n      0x01\n      swap1\n      sub\n      swap1\n      dup2\n      tag_265\n      jumpi\n      swap1\n      pop\n    tag_264:\n      pop\n        /* \"ZKGameClient.sol\":5956:6534  Client.EVM2AnyMessage({... */\n      dup2\n      mstore\n      0x20\n      add\n        /* \"ZKGameClient.sol\":6514:6523  linkToken */\n      dup9\n        /* \"ZKGameClient.sol\":5956:6534  Client.EVM2AnyMessage({... */\n      0xffffffffffffffffffffffffffffffffffffffff\n      and\n      dup2\n      mstore\n      0x20\n      add\n        /* \"ZKGameClient.sol\":6258:6410  Client._argsToBytes(... */\n      tag_268\n        /* \"ZKGameClient.sol\":6354:6396  Client.EVMExtraArgsV1({gasLimit: 200_000}) */\n      mload(0x40)\n      dup1\n      0x20\n      add\n      0x40\n      mstore\n      dup1\n        /* \"ZKGameClient.sol\":6387:6394  200_000 */\n      0x030d40\n        /* \"ZKGameClient.sol\":6354:6396  Client.EVMExtraArgsV1({gasLimit: 200_000}) */\n      dup2\n      mstore\n      pop\n        /* \"ZKGameClient.sol\":6258:6277  Client._argsToBytes */\n      tag_269\n        /* \"ZKGameClient.sol\":6258:6410  Client._argsToBytes(... */\n      jump\t// in\n    tag_268:\n        /* \"ZKGameClient.sol\":5956:6534  Client.EVM2AnyMessage({... */\n      dup2\n      mstore\n      pop\n        /* \"ZKGameClient.sol\":5910:6534  Client.EVM2AnyMessage memory evm2AnyMessage = Client.EVM2AnyMessage({... */\n      swap1\n      pop\n        /* \"ZKGameClient.sol\":6597:6609  uint256 fees */\n      0x00\n        /* \"ZKGameClient.sol\":6612:6620  s_router */\n      dup3\n        /* \"ZKGameClient.sol\":6612:6627  s_router.getFee */\n      0xffffffffffffffffffffffffffffffffffffffff\n      and\n      0x20487ded\n        /* \"ZKGameClient.sol\":6641:6665  destinationChainSelector */\n      dup12\n        /* \"ZKGameClient.sol\":6679:6693  evm2AnyMessage */\n      dup5\n        /* \"ZKGameClient.sol\":6612:6703  s_router.getFee(... */\n      mload(0x40)\n      dup4\n      0xffffffff\n      and\n      0xe0\n      shl\n      dup2\n      mstore\n      0x04\n      add\n      tag_270\n      swap3\n      swap2\n      swap1\n      tag_271\n      jump\t// in\n    tag_270:\n      0x20\n      mload(0x40)\n      dup1\n      dup4\n      sub\n      dup2\n      dup7\n      gas\n      staticcall\n      iszero\n      dup1\n      iszero\n      tag_273\n      jumpi\n      returndatasize\n      0x00\n      dup1\n      returndatacopy\n      revert(0x00, returndatasize)\n    tag_273:\n      pop\n      pop\n      pop\n      pop\n      mload(0x40)\n      returndatasize\n      not(0x1f)\n      0x1f\n      dup3\n      add\n      and\n      dup3\n      add\n      dup1\n      0x40\n      mstore\n      pop\n      dup2\n      add\n      swap1\n      tag_274\n      swap2\n      swap1\n      tag_275\n      jump\t// in\n    tag_274:\n        /* \"ZKGameClient.sol\":6597:6703  uint256 fees = s_router.getFee(... */\n      swap1\n      pop\n        /* \"ZKGameClient.sol\":6725:6736  s_linkToken */\n      dup4\n        /* \"ZKGameClient.sol\":6725:6746  s_linkToken.balanceOf */\n      0xffffffffffffffffffffffffffffffffffffffff\n      and\n      0x70a08231\n        /* \"ZKGameClient.sol\":6755:6759  this */\n      address\n        /* \"ZKGameClient.sol\":6725:6761  s_linkToken.balanceOf(address(this)) */\n      mload(0x40)\n      dup3\n      0xffffffff\n      and\n      0xe0\n      shl\n      dup2\n      mstore\n      0x04\n      add\n      tag_276\n      swap2\n      swap1\n      tag_48\n      jump\t// in\n    tag_276:\n      0x20\n      mload(0x40)\n      dup1\n      dup4\n      sub\n      dup2\n      dup7\n      gas\n      staticcall\n      iszero\n      dup1\n      iszero\n      tag_278\n      jumpi\n      returndatasize\n      0x00\n      dup1\n      returndatacopy\n      revert(0x00, returndatasize)\n    tag_278:\n      pop\n      pop\n      pop\n      pop\n      mload(0x40)\n      returndatasize\n      not(0x1f)\n      0x1f\n      dup3\n      add\n      and\n      dup3\n      add\n      dup1\n      0x40\n      mstore\n      pop\n      dup2\n      add\n      swap1\n      tag_279\n      swap2\n      swap1\n      tag_275\n      jump\t// in\n    tag_279:\n        /* \"ZKGameClient.sol\":6718:6722  fees */\n      dup2\n        /* \"ZKGameClient.sol\":6718:6761  fees > s_linkToken.balanceOf(address(this)) */\n      gt\n        /* \"ZKGameClient.sol\":6714:6842  if (fees > s_linkToken.balanceOf(address(this)))... */\n      iszero\n      tag_280\n      jumpi\n        /* \"ZKGameClient.sol\":6799:6810  s_linkToken */\n      dup4\n        /* \"ZKGameClient.sol\":6799:6820  s_linkToken.balanceOf */\n      0xffffffffffffffffffffffffffffffffffffffff\n      and\n      0x70a08231\n        /* \"ZKGameClient.sol\":6829:6833  this */\n      address\n        /* \"ZKGameClient.sol\":6799:6835  s_linkToken.balanceOf(address(this)) */\n      mload(0x40)\n      dup3\n      0xffffffff\n      and\n      0xe0\n      shl\n      dup2\n      mstore\n      0x04\n      add\n      tag_281\n      swap2\n      swap1\n      tag_48\n      jump\t// in\n    tag_281:\n      0x20\n      mload(0x40)\n      dup1\n      dup4\n      sub\n      dup2\n      dup7\n      gas\n      staticcall\n      iszero\n      dup1\n      iszero\n      tag_283\n      jumpi\n      returndatasize\n      0x00\n      dup1\n      returndatacopy\n      revert(0x00, returndatasize)\n    tag_283:\n      pop\n      pop\n      pop\n      pop\n      mload(0x40)\n      returndatasize\n      not(0x1f)\n      0x1f\n      dup3\n      add\n      and\n      dup3\n      add\n      dup1\n      0x40\n      mstore\n      pop\n      dup2\n      add\n      swap1\n      tag_284\n      swap2\n      swap1\n      tag_275\n      jump\t// in\n    tag_284:\n        /* \"ZKGameClient.sol\":6837:6841  fees */\n      dup2\n        /* \"ZKGameClient.sol\":6782:6842  NotEnoughBalance(s_linkToken.balanceOf(address(this)), fees) */\n      mload(0x40)\n      0x8f0f420600000000000000000000000000000000000000000000000000000000\n      dup2\n      mstore\n      0x04\n      add\n      tag_285\n      swap3\n      swap2\n      swap1\n      tag_286\n      jump\t// in\n    tag_285:\n      mload(0x40)\n      dup1\n      swap2\n      sub\n      swap1\n      revert\n        /* \"ZKGameClient.sol\":6714:6842  if (fees > s_linkToken.balanceOf(address(this)))... */\n    tag_280:\n        /* \"ZKGameClient.sol\":6960:6971  s_linkToken */\n      dup4\n        /* \"ZKGameClient.sol\":6960:6979  s_linkToken.approve */\n      0xffffffffffffffffffffffffffffffffffffffff\n      and\n      0x095ea7b3\n        /* \"ZKGameClient.sol\":6988:6996  s_router */\n      dup5\n        /* \"ZKGameClient.sol\":6999:7003  fees */\n      dup4\n        /* \"ZKGameClient.sol\":6960:7004  s_linkToken.approve(address(s_router), fees) */\n      mload(0x40)\n      dup4\n      0xffffffff\n      and\n      0xe0\n      shl\n      dup2\n      mstore\n      0x04\n      add\n      tag_287\n      swap3\n      swap2\n      swap1\n      tag_288\n      jump\t// in\n    tag_287:\n      0x20\n      mload(0x40)\n      dup1\n      dup4\n      sub\n      dup2\n      0x00\n      dup8\n      gas\n      call\n      iszero\n      dup1\n      iszero\n      tag_290\n      jumpi\n      returndatasize\n      0x00\n      dup1\n      returndatacopy\n      revert(0x00, returndatasize)\n    tag_290:\n      pop\n      pop\n      pop\n      pop\n      mload(0x40)\n      returndatasize\n      not(0x1f)\n      0x1f\n      dup3\n      add\n      and\n      dup3\n      add\n      dup1\n      0x40\n      mstore\n      pop\n      dup2\n      add\n      swap1\n      tag_291\n      swap2\n      swap1\n      tag_292\n      jump\t// in\n    tag_291:\n      pop\n        /* \"ZKGameClient.sol\":7108:7116  s_router */\n      dup3\n        /* \"ZKGameClient.sol\":7108:7125  s_router.ccipSend */\n      0xffffffffffffffffffffffffffffffffffffffff\n      and\n      0x96f4e9f9\n        /* \"ZKGameClient.sol\":7126:7150  destinationChainSelector */\n      dup12\n        /* \"ZKGameClient.sol\":7152:7166  evm2AnyMessage */\n      dup5\n        /* \"ZKGameClient.sol\":7108:7167  s_router.ccipSend(destinationChainSelector, evm2AnyMessage) */\n      mload(0x40)\n      dup4\n      0xffffffff\n      and\n      0xe0\n      shl\n      dup2\n      mstore\n      0x04\n      add\n      tag_293\n      swap3\n      swap2\n      swap1\n      tag_271\n      jump\t// in\n    tag_293:\n      0x20\n      mload(0x40)\n      dup1\n      dup4\n      sub\n      dup2\n      0x00\n      dup8\n      gas\n      call\n      iszero\n      dup1\n      iszero\n      tag_295\n      jumpi\n      returndatasize\n      0x00\n      dup1\n      returndatacopy\n      revert(0x00, returndatasize)\n    tag_295:\n      pop\n      pop\n      pop\n      pop\n      mload(0x40)\n      returndatasize\n      not(0x1f)\n      0x1f\n      dup3\n      add\n      and\n      dup3\n      add\n      dup1\n      0x40\n      mstore\n      pop\n      dup2\n      add\n      swap1\n      tag_296\n      swap2\n      swap1\n      tag_297\n      jump\t// in\n    tag_296:\n        /* \"ZKGameClient.sol\":7096:7167  messageId = s_router.ccipSend(destinationChainSelector, evm2AnyMessage) */\n      swap5\n      pop\n        /* \"ZKGameClient.sol\":7231:7255  destinationChainSelector */\n      dup10\n        /* \"ZKGameClient.sol\":7183:7353  MessageSent(... */\n      0xffffffffffffffff\n      and\n        /* \"ZKGameClient.sol\":7208:7217  messageId */\n      dup6\n        /* \"ZKGameClient.sol\":7183:7353  MessageSent(... */\n      0xd0d85f1cc5ab17f712b6074d702edd6281031e603c5cf76890a85b1170045b3a\n        /* \"ZKGameClient.sol\":7269:7277  receiver */\n      dup12\n        /* \"ZKGameClient.sol\":7291:7302  messageItem */\n      dup10\n        /* \"ZKGameClient.sol\":7316:7325  linkToken */\n      dup13\n        /* \"ZKGameClient.sol\":7339:7343  fees */\n      dup7\n        /* \"ZKGameClient.sol\":7183:7353  MessageSent(... */\n      mload(0x40)\n      tag_298\n      swap5\n      swap4\n      swap3\n      swap2\n      swap1\n      tag_299\n      jump\t// in\n    tag_298:\n      mload(0x40)\n      dup1\n      swap2\n      sub\n      swap1\n      log3\n        /* \"ZKGameClient.sol\":7364:7380  return messageId */\n      pop\n      pop\n      pop\n      pop\n        /* \"ZKGameClient.sol\":5434:7387  function _sendMessage(... */\n      swap6\n      swap5\n      pop\n      pop\n      pop\n      pop\n      pop\n      jump\t// out\n        /* \"@chainlink/contracts-ccip@1.4.0/src/v0.8/shared/access/ConfirmedOwnerWithProposal.sol\":1528:1763  function _transferOwnership(address to) private {... */\n    tag_188:\n        /* \"@chainlink/contracts-ccip@1.4.0/src/v0.8/shared/access/ConfirmedOwnerWithProposal.sol\":1643:1653  msg.sender */\n      caller\n        /* \"@chainlink/contracts-ccip@1.4.0/src/v0.8/shared/access/ConfirmedOwnerWithProposal.sol\":1637:1653  to != msg.sender */\n      0xffffffffffffffffffffffffffffffffffffffff\n      and\n        /* \"@chainlink/contracts-ccip@1.4.0/src/v0.8/shared/access/ConfirmedOwnerWithProposal.sol\":1637:1639  to */\n      dup2\n        /* \"@chainlink/contracts-ccip@1.4.0/src/v0.8/shared/access/ConfirmedOwnerWithProposal.sol\":1637:1653  to != msg.sender */\n      0xffffffffffffffffffffffffffffffffffffffff\n      and\n      sub\n        /* \"@chainlink/contracts-ccip@1.4.0/src/v0.8/shared/access/ConfirmedOwnerWithProposal.sol\":1629:1681  require(to != msg.sender, \"Cannot transfer to self\") */\n      tag_301\n      jumpi\n      mload(0x40)\n      0x08c379a000000000000000000000000000000000000000000000000000000000\n      dup2\n      mstore\n      0x04\n      add\n      tag_302\n      swap1\n      tag_303\n      jump\t// in\n    tag_302:\n      mload(0x40)\n      dup1\n      swap2\n      sub\n      swap1\n      revert\n    tag_301:\n        /* \"@chainlink/contracts-ccip@1.4.0/src/v0.8/shared/access/ConfirmedOwnerWithProposal.sol\":1705:1707  to */\n      dup1\n        /* \"@chainlink/contracts-ccip@1.4.0/src/v0.8/shared/access/ConfirmedOwnerWithProposal.sol\":1688:1702  s_pendingOwner */\n      0x01\n      0x00\n        /* \"@chainlink/contracts-ccip@1.4.0/src/v0.8/shared/access/ConfirmedOwnerWithProposal.sol\":1688:1707  s_pendingOwner = to */\n      0x0100\n      exp\n      dup2\n      sload\n      dup2\n      0xffffffffffffffffffffffffffffffffffffffff\n      mul\n      not\n      and\n      swap1\n      dup4\n      0xffffffffffffffffffffffffffffffffffffffff\n      and\n      mul\n      or\n      swap1\n      sstore\n      pop\n        /* \"@chainlink/contracts-ccip@1.4.0/src/v0.8/shared/access/ConfirmedOwnerWithProposal.sol\":1755:1757  to */\n      dup1\n        /* \"@chainlink/contracts-ccip@1.4.0/src/v0.8/shared/access/ConfirmedOwnerWithProposal.sol\":1719:1758  OwnershipTransferRequested(s_owner, to) */\n      0xffffffffffffffffffffffffffffffffffffffff\n      and\n        /* \"@chainlink/contracts-ccip@1.4.0/src/v0.8/shared/access/ConfirmedOwnerWithProposal.sol\":1746:1753  s_owner */\n      0x00\n      dup1\n      sload\n      swap1\n      0x0100\n      exp\n      swap1\n      div\n      0xffffffffffffffffffffffffffffffffffffffff\n      and\n        /* \"@chainlink/contracts-ccip@1.4.0/src/v0.8/shared/access/ConfirmedOwnerWithProposal.sol\":1719:1758  OwnershipTransferRequested(s_owner, to) */\n      0xffffffffffffffffffffffffffffffffffffffff\n      and\n      0xed8889f560326eb138920d842192f0eb3dd22b4f139c87a2c57538e05bae1278\n      mload(0x40)\n      mload(0x40)\n      dup1\n      swap2\n      sub\n      swap1\n      log3\n        /* \"@chainlink/contracts-ccip@1.4.0/src/v0.8/shared/access/ConfirmedOwnerWithProposal.sol\":1528:1763  function _transferOwnership(address to) private {... */\n      pop\n      jump\t// out\n        /* \"@chainlink/contracts-ccip@1.4.0/src/v0.8/ccip/libraries/Client.sol\":1285:1455  function _argsToBytes(EVMExtraArgsV1 memory extraArgs) internal pure returns (bytes memory bts) {... */\n    tag_269:\n        /* \"@chainlink/contracts-ccip@1.4.0/src/v0.8/ccip/libraries/Client.sol\":1363:1379  bytes memory bts */\n      0x60\n        /* \"@chainlink/contracts-ccip@1.4.0/src/v0.8/ccip/libraries/Client.sol\":1218:1228  0x97a657c9 */\n      0x97a657c9\n        /* \"@chainlink/contracts-ccip@1.4.0/src/v0.8/ccip/libraries/Client.sol\":1417:1438  EVM_EXTRA_ARGS_V1_TAG */\n      0xe0\n      shl\n        /* \"@chainlink/contracts-ccip@1.4.0/src/v0.8/ccip/libraries/Client.sol\":1440:1449  extraArgs */\n      dup3\n        /* \"@chainlink/contracts-ccip@1.4.0/src/v0.8/ccip/libraries/Client.sol\":1394:1450  abi.encodeWithSelector(EVM_EXTRA_ARGS_V1_TAG, extraArgs) */\n      add(0x24, mload(0x40))\n      tag_305\n      swap2\n      swap1\n      tag_306\n      jump\t// in\n    tag_305:\n      mload(0x40)\n      0x20\n      dup2\n      dup4\n      sub\n      sub\n      dup2\n      mstore\n      swap1\n      0x40\n      mstore\n      swap1\n      not(0xffffffffffffffffffffffffffffffffffffffffffffffffffffffff)\n      and\n      0x20\n      dup3\n      add\n      dup1\n      mload\n      0xffffffffffffffffffffffffffffffffffffffffffffffffffffffff\n      dup4\n      dup2\n      dup4\n      and\n      or\n      dup4\n      mstore\n      pop\n      pop\n      pop\n      pop\n        /* \"@chainlink/contracts-ccip@1.4.0/src/v0.8/ccip/libraries/Client.sol\":1387:1450  return abi.encodeWithSelector(EVM_EXTRA_ARGS_V1_TAG, extraArgs) */\n      swap1\n      pop\n        /* \"@chainlink/contracts-ccip@1.4.0/src/v0.8/ccip/libraries/Client.sol\":1285:1455  function _argsToBytes(EVMExtraArgsV1 memory extraArgs) internal pure returns (bytes memory bts) {... */\n      swap2\n      swap1\n      pop\n      jump\t// out\n    tag_167:\n      mload(0x40)\n      dup1\n      0x0140\n      add\n      0x40\n      mstore\n      dup1\n      0x0a\n      swap1\n      0x20\n      dup3\n      mul\n      dup1\n      calldatasize\n      dup4\n      calldatacopy\n      dup1\n      dup3\n      add\n      swap2\n      pop\n      pop\n      swap1\n      pop\n      pop\n      swap1\n      jump\t// out\n    tag_170:\n      mload(0x40)\n      dup1\n      0x0140\n      add\n      0x40\n      mstore\n      dup1\n      0x0a\n      swap1\n      0x20\n      dup3\n      mul\n      dup1\n      calldatasize\n      dup4\n      calldatacopy\n      dup1\n      dup3\n      add\n      swap2\n      pop\n      pop\n      swap1\n      pop\n      pop\n      swap1\n      jump\t// out\n    tag_267:\n      mload(0x40)\n      dup1\n      0x40\n      add\n      0x40\n      mstore\n      dup1\n      and(0xffffffffffffffffffffffffffffffffffffffff, 0x00)\n      dup2\n      mstore\n      0x20\n      add\n      0x00\n      dup2\n      mstore\n      pop\n      swap1\n      jump\t// out\n        /* \"#utility.yul\":7:82   */\n    tag_307:\n        /* \"#utility.yul\":40:46   */\n      0x00\n        /* \"#utility.yul\":73:75   */\n      0x40\n        /* \"#utility.yul\":67:76   */\n      mload\n        /* \"#utility.yul\":57:76   */\n      swap1\n      pop\n        /* \"#utility.yul\":7:82   */\n      swap1\n      jump\t// out\n        /* \"#utility.yul\":88:205   */\n    tag_308:\n        /* \"#utility.yul\":197:198   */\n      0x00\n        /* \"#utility.yul\":194:195   */\n      dup1\n        /* \"#utility.yul\":187:199   */\n      revert\n        /* \"#utility.yul\":211:328   */\n    tag_309:\n        /* \"#utility.yul\":320:321   */\n      0x00\n        /* \"#utility.yul\":317:318   */\n      dup1\n        /* \"#utility.yul\":310:322   */\n      revert\n        /* \"#utility.yul\":334:483   */\n    tag_310:\n        /* \"#utility.yul\":370:377   */\n      0x00\n        /* \"#utility.yul\":410:476   */\n      0xffffffff00000000000000000000000000000000000000000000000000000000\n        /* \"#utility.yul\":403:408   */\n      dup3\n        /* \"#utility.yul\":399:477   */\n      and\n        /* \"#utility.yul\":388:477   */\n      swap1\n      pop\n        /* \"#utility.yul\":334:483   */\n      swap2\n      swap1\n      pop\n      jump\t// out\n        /* \"#utility.yul\":489:609   */\n    tag_311:\n        /* \"#utility.yul\":561:584   */\n      tag_418\n        /* \"#utility.yul\":578:583   */\n      dup2\n        /* \"#utility.yul\":561:584   */\n      tag_310\n      jump\t// in\n    tag_418:\n        /* \"#utility.yul\":554:559   */\n      dup2\n        /* \"#utility.yul\":551:585   */\n      eq\n        /* \"#utility.yul\":541:603   */\n      tag_419\n      jumpi\n        /* \"#utility.yul\":599:600   */\n      0x00\n        /* \"#utility.yul\":596:597   */\n      dup1\n        /* \"#utility.yul\":589:601   */\n      revert\n        /* \"#utility.yul\":541:603   */\n    tag_419:\n        /* \"#utility.yul\":489:609   */\n      pop\n      jump\t// out\n        /* \"#utility.yul\":615:752   */\n    tag_312:\n        /* \"#utility.yul\":660:665   */\n      0x00\n        /* \"#utility.yul\":698:704   */\n      dup2\n        /* \"#utility.yul\":685:705   */\n      calldataload\n        /* \"#utility.yul\":676:705   */\n      swap1\n      pop\n        /* \"#utility.yul\":714:746   */\n      tag_421\n        /* \"#utility.yul\":740:745   */\n      dup2\n        /* \"#utility.yul\":714:746   */\n      tag_311\n      jump\t// in\n    tag_421:\n        /* \"#utility.yul\":615:752   */\n      swap3\n      swap2\n      pop\n      pop\n      jump\t// out\n        /* \"#utility.yul\":758:1085   */\n    tag_26:\n        /* \"#utility.yul\":816:822   */\n      0x00\n        /* \"#utility.yul\":865:867   */\n      0x20\n        /* \"#utility.yul\":853:862   */\n      dup3\n        /* \"#utility.yul\":844:851   */\n      dup5\n        /* \"#utility.yul\":840:863   */\n      sub\n        /* \"#utility.yul\":836:868   */\n      slt\n        /* \"#utility.yul\":833:952   */\n      iszero\n      tag_423\n      jumpi\n        /* \"#utility.yul\":871:950   */\n      tag_424\n      tag_308\n      jump\t// in\n    tag_424:\n        /* \"#utility.yul\":833:952   */\n    tag_423:\n        /* \"#utility.yul\":991:992   */\n      0x00\n        /* \"#utility.yul\":1016:1068   */\n      tag_425\n        /* \"#utility.yul\":1060:1067   */\n      dup5\n        /* \"#utility.yul\":1051:1057   */\n      dup3\n        /* \"#utility.yul\":1040:1049   */\n      dup6\n        /* \"#utility.yul\":1036:1058   */\n      add\n        /* \"#utility.yul\":1016:1068   */\n      tag_312\n      jump\t// in\n    tag_425:\n        /* \"#utility.yul\":1006:1068   */\n      swap2\n      pop\n        /* \"#utility.yul\":962:1078   */\n      pop\n        /* \"#utility.yul\":758:1085   */\n      swap3\n      swap2\n      pop\n      pop\n      jump\t// out\n        /* \"#utility.yul\":1091:1181   */\n    tag_313:\n        /* \"#utility.yul\":1125:1132   */\n      0x00\n        /* \"#utility.yul\":1168:1173   */\n      dup2\n        /* \"#utility.yul\":1161:1174   */\n      iszero\n        /* \"#utility.yul\":1154:1175   */\n      iszero\n        /* \"#utility.yul\":1143:1175   */\n      swap1\n      pop\n        /* \"#utility.yul\":1091:1181   */\n      swap2\n      swap1\n      pop\n      jump\t// out\n        /* \"#utility.yul\":1187:1296   */\n    tag_314:\n        /* \"#utility.yul\":1268:1289   */\n      tag_428\n        /* \"#utility.yul\":1283:1288   */\n      dup2\n        /* \"#utility.yul\":1268:1289   */\n      tag_313\n      jump\t// in\n    tag_428:\n        /* \"#utility.yul\":1263:1266   */\n      dup3\n        /* \"#utility.yul\":1256:1290   */\n      mstore\n        /* \"#utility.yul\":1187:1296   */\n      pop\n      pop\n      jump\t// out\n        /* \"#utility.yul\":1302:1512   */\n    tag_29:\n        /* \"#utility.yul\":1389:1393   */\n      0x00\n        /* \"#utility.yul\":1427:1429   */\n      0x20\n        /* \"#utility.yul\":1416:1425   */\n      dup3\n        /* \"#utility.yul\":1412:1430   */\n      add\n        /* \"#utility.yul\":1404:1430   */\n      swap1\n      pop\n        /* \"#utility.yul\":1440:1505   */\n      tag_430\n        /* \"#utility.yul\":1502:1503   */\n      0x00\n        /* \"#utility.yul\":1491:1500   */\n      dup4\n        /* \"#utility.yul\":1487:1504   */\n      add\n        /* \"#utility.yul\":1478:1484   */\n      dup5\n        /* \"#utility.yul\":1440:1505   */\n      tag_314\n      jump\t// in\n    tag_430:\n        /* \"#utility.yul\":1302:1512   */\n      swap3\n      swap2\n      pop\n      pop\n      jump\t// out\n        /* \"#utility.yul\":1518:1595   */\n    tag_315:\n        /* \"#utility.yul\":1555:1562   */\n      0x00\n        /* \"#utility.yul\":1584:1589   */\n      dup2\n        /* \"#utility.yul\":1573:1589   */\n      swap1\n      pop\n        /* \"#utility.yul\":1518:1595   */\n      swap2\n      swap1\n      pop\n      jump\t// out\n        /* \"#utility.yul\":1601:1719   */\n    tag_316:\n        /* \"#utility.yul\":1688:1712   */\n      tag_433\n        /* \"#utility.yul\":1706:1711   */\n      dup2\n        /* \"#utility.yul\":1688:1712   */\n      tag_315\n      jump\t// in\n    tag_433:\n        /* \"#utility.yul\":1683:1686   */\n      dup3\n        /* \"#utility.yul\":1676:1713   */\n      mstore\n        /* \"#utility.yul\":1601:1719   */\n      pop\n      pop\n      jump\t// out\n        /* \"#utility.yul\":1725:1947   */\n    tag_33:\n        /* \"#utility.yul\":1818:1822   */\n      0x00\n        /* \"#utility.yul\":1856:1858   */\n      0x20\n        /* \"#utility.yul\":1845:1854   */\n      dup3\n        /* \"#utility.yul\":1841:1859   */\n      add\n        /* \"#utility.yul\":1833:1859   */\n      swap1\n      pop\n        /* \"#utility.yul\":1869:1940   */\n      tag_435\n        /* \"#utility.yul\":1937:1938   */\n      0x00\n        /* \"#utility.yul\":1926:1935   */\n      dup4\n        /* \"#utility.yul\":1922:1939   */\n      add\n        /* \"#utility.yul\":1913:1919   */\n      dup5\n        /* \"#utility.yul\":1869:1940   */\n      tag_316\n      jump\t// in\n    tag_435:\n        /* \"#utility.yul\":1725:1947   */\n      swap3\n      swap2\n      pop\n      pop\n      jump\t// out\n        /* \"#utility.yul\":1953:2075   */\n    tag_317:\n        /* \"#utility.yul\":2026:2050   */\n      tag_437\n        /* \"#utility.yul\":2044:2049   */\n      dup2\n        /* \"#utility.yul\":2026:2050   */\n      tag_315\n      jump\t// in\n    tag_437:\n        /* \"#utility.yul\":2019:2024   */\n      dup2\n        /* \"#utility.yul\":2016:2051   */\n      eq\n        /* \"#utility.yul\":2006:2069   */\n      tag_438\n      jumpi\n        /* \"#utility.yul\":2065:2066   */\n      0x00\n        /* \"#utility.yul\":2062:2063   */\n      dup1\n        /* \"#utility.yul\":2055:2067   */\n      revert\n        /* \"#utility.yul\":2006:2069   */\n    tag_438:\n        /* \"#utility.yul\":1953:2075   */\n      pop\n      jump\t// out\n        /* \"#utility.yul\":2081:2220   */\n    tag_318:\n        /* \"#utility.yul\":2127:2132   */\n      0x00\n        /* \"#utility.yul\":2165:2171   */\n      dup2\n        /* \"#utility.yul\":2152:2172   */\n      calldataload\n        /* \"#utility.yul\":2143:2172   */\n      swap1\n      pop\n        /* \"#utility.yul\":2181:2214   */\n      tag_440\n        /* \"#utility.yul\":2208:2213   */\n      dup2\n        /* \"#utility.yul\":2181:2214   */\n      tag_317\n      jump\t// in\n    tag_440:\n        /* \"#utility.yul\":2081:2220   */\n      swap3\n      swap2\n      pop\n      pop\n      jump\t// out\n        /* \"#utility.yul\":2226:2555   */\n    tag_36:\n        /* \"#utility.yul\":2285:2291   */\n      0x00\n        /* \"#utility.yul\":2334:2336   */\n      0x20\n        /* \"#utility.yul\":2322:2331   */\n      dup3\n        /* \"#utility.yul\":2313:2320   */\n      dup5\n        /* \"#utility.yul\":2309:2332   */\n      sub\n        /* \"#utility.yul\":2305:2337   */\n      slt\n        /* \"#utility.yul\":2302:2421   */\n      iszero\n      tag_442\n      jumpi\n        /* \"#utility.yul\":2340:2419   */\n      tag_443\n      tag_308\n      jump\t// in\n    tag_443:\n        /* \"#utility.yul\":2302:2421   */\n    tag_442:\n        /* \"#utility.yul\":2460:2461   */\n      0x00\n        /* \"#utility.yul\":2485:2538   */\n      tag_444\n        /* \"#utility.yul\":2530:2537   */\n      dup5\n        /* \"#utility.yul\":2521:2527   */\n      dup3\n        /* \"#utility.yul\":2510:2519   */\n      dup6\n        /* \"#utility.yul\":2506:2528   */\n      add\n        /* \"#utility.yul\":2485:2538   */\n      tag_318\n      jump\t// in\n    tag_444:\n        /* \"#utility.yul\":2475:2538   */\n      swap2\n      pop\n        /* \"#utility.yul\":2431:2548   */\n      pop\n        /* \"#utility.yul\":2226:2555   */\n      swap3\n      swap2\n      pop\n      pop\n      jump\t// out\n        /* \"#utility.yul\":2561:2662   */\n    tag_319:\n        /* \"#utility.yul\":2597:2604   */\n      0x00\n        /* \"#utility.yul\":2637:2655   */\n      0xffffffffffffffff\n        /* \"#utility.yul\":2630:2635   */\n      dup3\n        /* \"#utility.yul\":2626:2656   */\n      and\n        /* \"#utility.yul\":2615:2656   */\n      swap1\n      pop\n        /* \"#utility.yul\":2561:2662   */\n      swap2\n      swap1\n      pop\n      jump\t// out\n        /* \"#utility.yul\":2668:2783   */\n    tag_320:\n        /* \"#utility.yul\":2753:2776   */\n      tag_447\n        /* \"#utility.yul\":2770:2775   */\n      dup2\n        /* \"#utility.yul\":2753:2776   */\n      tag_319\n      jump\t// in\n    tag_447:\n        /* \"#utility.yul\":2748:2751   */\n      dup3\n        /* \"#utility.yul\":2741:2777   */\n      mstore\n        /* \"#utility.yul\":2668:2783   */\n      pop\n      pop\n      jump\t// out\n        /* \"#utility.yul\":2789:3007   */\n    tag_39:\n        /* \"#utility.yul\":2880:2884   */\n      0x00\n        /* \"#utility.yul\":2918:2920   */\n      0x20\n        /* \"#utility.yul\":2907:2916   */\n      dup3\n        /* \"#utility.yul\":2903:2921   */\n      add\n        /* \"#utility.yul\":2895:2921   */\n      swap1\n      pop\n        /* \"#utility.yul\":2931:3000   */\n      tag_449\n        /* \"#utility.yul\":2997:2998   */\n      0x00\n        /* \"#utility.yul\":2986:2995   */\n      dup4\n        /* \"#utility.yul\":2982:2999   */\n      add\n        /* \"#utility.yul\":2973:2979   */\n      dup5\n        /* \"#utility.yul\":2931:3000   */\n      tag_320\n      jump\t// in\n    tag_449:\n        /* \"#utility.yul\":2789:3007   */\n      swap3\n      swap2\n      pop\n      pop\n      jump\t// out\n        /* \"#utility.yul\":3013:3130   */\n    tag_321:\n        /* \"#utility.yul\":3122:3123   */\n      0x00\n        /* \"#utility.yul\":3119:3120   */\n      dup1\n        /* \"#utility.yul\":3112:3124   */\n      revert\n        /* \"#utility.yul\":3136:3238   */\n    tag_322:\n        /* \"#utility.yul\":3177:3183   */\n      0x00\n        /* \"#utility.yul\":3228:3230   */\n      0x1f\n        /* \"#utility.yul\":3224:3231   */\n      not\n        /* \"#utility.yul\":3219:3221   */\n      0x1f\n        /* \"#utility.yul\":3212:3217   */\n      dup4\n        /* \"#utility.yul\":3208:3222   */\n      add\n        /* \"#utility.yul\":3204:3232   */\n      and\n        /* \"#utility.yul\":3194:3232   */\n      swap1\n      pop\n        /* \"#utility.yul\":3136:3238   */\n      swap2\n      swap1\n      pop\n      jump\t// out\n        /* \"#utility.yul\":3244:3424   */\n    tag_263:\n        /* \"#utility.yul\":3292:3369   */\n      0x4e487b7100000000000000000000000000000000000000000000000000000000\n        /* \"#utility.yul\":3289:3290   */\n      0x00\n        /* \"#utility.yul\":3282:3370   */\n      mstore\n        /* \"#utility.yul\":3389:3393   */\n      0x41\n        /* \"#utility.yul\":3386:3387   */\n      0x04\n        /* \"#utility.yul\":3379:3394   */\n      mstore\n        /* \"#utility.yul\":3413:3417   */\n      0x24\n        /* \"#utility.yul\":3410:3411   */\n      0x00\n        /* \"#utility.yul\":3403:3418   */\n      revert\n        /* \"#utility.yul\":3430:3711   */\n    tag_323:\n        /* \"#utility.yul\":3513:3540   */\n      tag_454\n        /* \"#utility.yul\":3535:3539   */\n      dup3\n        /* \"#utility.yul\":3513:3540   */\n      tag_322\n      jump\t// in\n    tag_454:\n        /* \"#utility.yul\":3505:3511   */\n      dup2\n        /* \"#utility.yul\":3501:3541   */\n      add\n        /* \"#utility.yul\":3643:3649   */\n      dup2\n        /* \"#utility.yul\":3631:3641   */\n      dup2\n        /* \"#utility.yul\":3628:3650   */\n      lt\n        /* \"#utility.yul\":3607:3625   */\n      0xffffffffffffffff\n        /* \"#utility.yul\":3595:3605   */\n      dup3\n        /* \"#utility.yul\":3592:3626   */\n      gt\n        /* \"#utility.yul\":3589:3651   */\n      or\n        /* \"#utility.yul\":3586:3674   */\n      iszero\n      tag_455\n      jumpi\n        /* \"#utility.yul\":3654:3672   */\n      tag_456\n      tag_263\n      jump\t// in\n    tag_456:\n        /* \"#utility.yul\":3586:3674   */\n    tag_455:\n        /* \"#utility.yul\":3694:3704   */\n      dup1\n        /* \"#utility.yul\":3690:3692   */\n      0x40\n        /* \"#utility.yul\":3683:3705   */\n      mstore\n        /* \"#utility.yul\":3473:3711   */\n      pop\n        /* \"#utility.yul\":3430:3711   */\n      pop\n      pop\n      jump\t// out\n        /* \"#utility.yul\":3717:3846   */\n    tag_324:\n        /* \"#utility.yul\":3751:3757   */\n      0x00\n        /* \"#utility.yul\":3778:3798   */\n      tag_458\n      tag_307\n      jump\t// in\n    tag_458:\n        /* \"#utility.yul\":3768:3798   */\n      swap1\n      pop\n        /* \"#utility.yul\":3807:3840   */\n      tag_459\n        /* \"#utility.yul\":3835:3839   */\n      dup3\n        /* \"#utility.yul\":3827:3833   */\n      dup3\n        /* \"#utility.yul\":3807:3840   */\n      tag_323\n      jump\t// in\n    tag_459:\n        /* \"#utility.yul\":3717:3846   */\n      swap2\n      swap1\n      pop\n      jump\t// out\n        /* \"#utility.yul\":3852:4163   */\n    tag_325:\n        /* \"#utility.yul\":3929:3933   */\n      0x00\n        /* \"#utility.yul\":4019:4037   */\n      0xffffffffffffffff\n        /* \"#utility.yul\":4011:4017   */\n      dup3\n        /* \"#utility.yul\":4008:4038   */\n      gt\n        /* \"#utility.yul\":4005:4061   */\n      iszero\n      tag_461\n      jumpi\n        /* \"#utility.yul\":4041:4059   */\n      tag_462\n      tag_263\n      jump\t// in\n    tag_462:\n        /* \"#utility.yul\":4005:4061   */\n    tag_461:\n        /* \"#utility.yul\":4091:4095   */\n      0x20\n        /* \"#utility.yul\":4083:4089   */\n      dup3\n        /* \"#utility.yul\":4079:4096   */\n      mul\n        /* \"#utility.yul\":4071:4096   */\n      swap1\n      pop\n        /* \"#utility.yul\":4151:4155   */\n      0x20\n        /* \"#utility.yul\":4145:4149   */\n      dup2\n        /* \"#utility.yul\":4141:4156   */\n      add\n        /* \"#utility.yul\":4133:4156   */\n      swap1\n      pop\n        /* \"#utility.yul\":3852:4163   */\n      swap2\n      swap1\n      pop\n      jump\t// out\n        /* \"#utility.yul\":4169:4286   */\n    tag_326:\n        /* \"#utility.yul\":4278:4279   */\n      0x00\n        /* \"#utility.yul\":4275:4276   */\n      dup1\n        /* \"#utility.yul\":4268:4280   */\n      revert\n        /* \"#utility.yul\":4292:4418   */\n    tag_327:\n        /* \"#utility.yul\":4329:4336   */\n      0x00\n        /* \"#utility.yul\":4369:4411   */\n      0xffffffffffffffffffffffffffffffffffffffff\n        /* \"#utility.yul\":4362:4367   */\n      dup3\n        /* \"#utility.yul\":4358:4412   */\n      and\n        /* \"#utility.yul\":4347:4412   */\n      swap1\n      pop\n        /* \"#utility.yul\":4292:4418   */\n      swap2\n      swap1\n      pop\n      jump\t// out\n        /* \"#utility.yul\":4424:4520   */\n    tag_328:\n        /* \"#utility.yul\":4461:4468   */\n      0x00\n        /* \"#utility.yul\":4490:4514   */\n      tag_466\n        /* \"#utility.yul\":4508:4513   */\n      dup3\n        /* \"#utility.yul\":4490:4514   */\n      tag_327\n      jump\t// in\n    tag_466:\n        /* \"#utility.yul\":4479:4514   */\n      swap1\n      pop\n        /* \"#utility.yul\":4424:4520   */\n      swap2\n      swap1\n      pop\n      jump\t// out\n        /* \"#utility.yul\":4526:4648   */\n    tag_329:\n        /* \"#utility.yul\":4599:4623   */\n      tag_468\n        /* \"#utility.yul\":4617:4622   */\n      dup2\n        /* \"#utility.yul\":4599:4623   */\n      tag_328\n      jump\t// in\n    tag_468:\n        /* \"#utility.yul\":4592:4597   */\n      dup2\n        /* \"#utility.yul\":4589:4624   */\n      eq\n        /* \"#utility.yul\":4579:4642   */\n      tag_469\n      jumpi\n        /* \"#utility.yul\":4638:4639   */\n      0x00\n        /* \"#utility.yul\":4635:4636   */\n      dup1\n        /* \"#utility.yul\":4628:4640   */\n      revert\n        /* \"#utility.yul\":4579:4642   */\n    tag_469:\n        /* \"#utility.yul\":4526:4648   */\n      pop\n      jump\t// out\n        /* \"#utility.yul\":4654:4793   */\n    tag_330:\n        /* \"#utility.yul\":4700:4705   */\n      0x00\n        /* \"#utility.yul\":4738:4744   */\n      dup2\n        /* \"#utility.yul\":4725:4745   */\n      calldataload\n        /* \"#utility.yul\":4716:4745   */\n      swap1\n      pop\n        /* \"#utility.yul\":4754:4787   */\n      tag_471\n        /* \"#utility.yul\":4781:4786   */\n      dup2\n        /* \"#utility.yul\":4754:4787   */\n      tag_329\n      jump\t// in\n    tag_471:\n        /* \"#utility.yul\":4654:4793   */\n      swap3\n      swap2\n      pop\n      pop\n      jump\t// out\n        /* \"#utility.yul\":4816:5526   */\n    tag_331:\n        /* \"#utility.yul\":4912:4917   */\n      0x00\n        /* \"#utility.yul\":4937:5018   */\n      tag_473\n        /* \"#utility.yul\":4953:5017   */\n      tag_474\n        /* \"#utility.yul\":5010:5016   */\n      dup5\n        /* \"#utility.yul\":4953:5017   */\n      tag_325\n      jump\t// in\n    tag_474:\n        /* \"#utility.yul\":4937:5018   */\n      tag_324\n      jump\t// in\n    tag_473:\n        /* \"#utility.yul\":4928:5018   */\n      swap1\n      pop\n        /* \"#utility.yul\":5038:5043   */\n      dup1\n        /* \"#utility.yul\":5067:5073   */\n      dup4\n        /* \"#utility.yul\":5060:5065   */\n      dup3\n        /* \"#utility.yul\":5053:5074   */\n      mstore\n        /* \"#utility.yul\":5101:5105   */\n      0x20\n        /* \"#utility.yul\":5094:5099   */\n      dup3\n        /* \"#utility.yul\":5090:5106   */\n      add\n        /* \"#utility.yul\":5083:5106   */\n      swap1\n      pop\n        /* \"#utility.yul\":5154:5158   */\n      0x20\n        /* \"#utility.yul\":5146:5152   */\n      dup5\n        /* \"#utility.yul\":5142:5159   */\n      mul\n        /* \"#utility.yul\":5134:5140   */\n      dup4\n        /* \"#utility.yul\":5130:5160   */\n      add\n        /* \"#utility.yul\":5183:5186   */\n      dup6\n        /* \"#utility.yul\":5175:5181   */\n      dup2\n        /* \"#utility.yul\":5172:5187   */\n      gt\n        /* \"#utility.yul\":5169:5291   */\n      iszero\n      tag_475\n      jumpi\n        /* \"#utility.yul\":5202:5281   */\n      tag_476\n      tag_326\n      jump\t// in\n    tag_476:\n        /* \"#utility.yul\":5169:5291   */\n    tag_475:\n        /* \"#utility.yul\":5317:5323   */\n      dup4\n        /* \"#utility.yul\":5300:5520   */\n    tag_477:\n        /* \"#utility.yul\":5334:5340   */\n      dup2\n        /* \"#utility.yul\":5329:5332   */\n      dup2\n        /* \"#utility.yul\":5326:5341   */\n      lt\n        /* \"#utility.yul\":5300:5520   */\n      iszero\n      tag_479\n      jumpi\n        /* \"#utility.yul\":5409:5412   */\n      dup1\n        /* \"#utility.yul\":5438:5475   */\n      tag_480\n        /* \"#utility.yul\":5471:5474   */\n      dup9\n        /* \"#utility.yul\":5459:5469   */\n      dup3\n        /* \"#utility.yul\":5438:5475   */\n      tag_330\n      jump\t// in\n    tag_480:\n        /* \"#utility.yul\":5433:5436   */\n      dup5\n        /* \"#utility.yul\":5426:5476   */\n      mstore\n        /* \"#utility.yul\":5505:5509   */\n      0x20\n        /* \"#utility.yul\":5500:5503   */\n      dup5\n        /* \"#utility.yul\":5496:5510   */\n      add\n        /* \"#utility.yul\":5489:5510   */\n      swap4\n      pop\n        /* \"#utility.yul\":5376:5520   */\n      pop\n        /* \"#utility.yul\":5360:5364   */\n      0x20\n        /* \"#utility.yul\":5355:5358   */\n      dup2\n        /* \"#utility.yul\":5351:5365   */\n      add\n        /* \"#utility.yul\":5344:5365   */\n      swap1\n      pop\n        /* \"#utility.yul\":5300:5520   */\n      jump(tag_477)\n    tag_479:\n        /* \"#utility.yul\":5304:5325   */\n      pop\n        /* \"#utility.yul\":4918:5526   */\n      pop\n      pop\n        /* \"#utility.yul\":4816:5526   */\n      swap4\n      swap3\n      pop\n      pop\n      pop\n      jump\t// out\n        /* \"#utility.yul\":5549:5919   */\n    tag_332:\n        /* \"#utility.yul\":5620:5625   */\n      0x00\n        /* \"#utility.yul\":5669:5672   */\n      dup3\n        /* \"#utility.yul\":5662:5666   */\n      0x1f\n        /* \"#utility.yul\":5654:5660   */\n      dup4\n        /* \"#utility.yul\":5650:5667   */\n      add\n        /* \"#utility.yul\":5646:5673   */\n      slt\n        /* \"#utility.yul\":5636:5758   */\n      tag_482\n      jumpi\n        /* \"#utility.yul\":5677:5756   */\n      tag_483\n      tag_321\n      jump\t// in\n    tag_483:\n        /* \"#utility.yul\":5636:5758   */\n    tag_482:\n        /* \"#utility.yul\":5794:5800   */\n      dup2\n        /* \"#utility.yul\":5781:5801   */\n      calldataload\n        /* \"#utility.yul\":5819:5913   */\n      tag_484\n        /* \"#utility.yul\":5909:5912   */\n      dup5\n        /* \"#utility.yul\":5901:5907   */\n      dup3\n        /* \"#utility.yul\":5894:5898   */\n      0x20\n        /* \"#utility.yul\":5886:5892   */\n      dup7\n        /* \"#utility.yul\":5882:5899   */\n      add\n        /* \"#utility.yul\":5819:5913   */\n      tag_331\n      jump\t// in\n    tag_484:\n        /* \"#utility.yul\":5810:5913   */\n      swap2\n      pop\n        /* \"#utility.yul\":5626:5919   */\n      pop\n        /* \"#utility.yul\":5549:5919   */\n      swap3\n      swap2\n      pop\n      pop\n      jump\t// out\n        /* \"#utility.yul\":5925:6464   */\n    tag_42:\n        /* \"#utility.yul\":6009:6015   */\n      0x00\n        /* \"#utility.yul\":6058:6060   */\n      0x20\n        /* \"#utility.yul\":6046:6055   */\n      dup3\n        /* \"#utility.yul\":6037:6044   */\n      dup5\n        /* \"#utility.yul\":6033:6056   */\n      sub\n        /* \"#utility.yul\":6029:6061   */\n      slt\n        /* \"#utility.yul\":6026:6145   */\n      iszero\n      tag_486\n      jumpi\n        /* \"#utility.yul\":6064:6143   */\n      tag_487\n      tag_308\n      jump\t// in\n    tag_487:\n        /* \"#utility.yul\":6026:6145   */\n    tag_486:\n        /* \"#utility.yul\":6212:6213   */\n      0x00\n        /* \"#utility.yul\":6201:6210   */\n      dup3\n        /* \"#utility.yul\":6197:6214   */\n      add\n        /* \"#utility.yul\":6184:6215   */\n      calldataload\n        /* \"#utility.yul\":6242:6260   */\n      0xffffffffffffffff\n        /* \"#utility.yul\":6234:6240   */\n      dup2\n        /* \"#utility.yul\":6231:6261   */\n      gt\n        /* \"#utility.yul\":6228:6345   */\n      iszero\n      tag_488\n      jumpi\n        /* \"#utility.yul\":6264:6343   */\n      tag_489\n      tag_309\n      jump\t// in\n    tag_489:\n        /* \"#utility.yul\":6228:6345   */\n    tag_488:\n        /* \"#utility.yul\":6369:6447   */\n      tag_490\n        /* \"#utility.yul\":6439:6446   */\n      dup5\n        /* \"#utility.yul\":6430:6436   */\n      dup3\n        /* \"#utility.yul\":6419:6428   */\n      dup6\n        /* \"#utility.yul\":6415:6437   */\n      add\n        /* \"#utility.yul\":6369:6447   */\n      tag_332\n      jump\t// in\n    tag_490:\n        /* \"#utility.yul\":6359:6447   */\n      swap2\n      pop\n        /* \"#utility.yul\":6155:6457   */\n      pop\n        /* \"#utility.yul\":5925:6464   */\n      swap3\n      swap2\n      pop\n      pop\n      jump\t// out\n        /* \"#utility.yul\":6470:6588   */\n    tag_333:\n        /* \"#utility.yul\":6557:6581   */\n      tag_492\n        /* \"#utility.yul\":6575:6580   */\n      dup2\n        /* \"#utility.yul\":6557:6581   */\n      tag_328\n      jump\t// in\n    tag_492:\n        /* \"#utility.yul\":6552:6555   */\n      dup3\n        /* \"#utility.yul\":6545:6582   */\n      mstore\n        /* \"#utility.yul\":6470:6588   */\n      pop\n      pop\n      jump\t// out\n        /* \"#utility.yul\":6594:6816   */\n    tag_48:\n        /* \"#utility.yul\":6687:6691   */\n      0x00\n        /* \"#utility.yul\":6725:6727   */\n      0x20\n        /* \"#utility.yul\":6714:6723   */\n      dup3\n        /* \"#utility.yul\":6710:6728   */\n      add\n        /* \"#utility.yul\":6702:6728   */\n      swap1\n      pop\n        /* \"#utility.yul\":6738:6809   */\n      tag_494\n        /* \"#utility.yul\":6806:6807   */\n      0x00\n        /* \"#utility.yul\":6795:6804   */\n      dup4\n        /* \"#utility.yul\":6791:6808   */\n      add\n        /* \"#utility.yul\":6782:6788   */\n      dup5\n        /* \"#utility.yul\":6738:6809   */\n      tag_333\n      jump\t// in\n    tag_494:\n        /* \"#utility.yul\":6594:6816   */\n      swap3\n      swap2\n      pop\n      pop\n      jump\t// out\n        /* \"#utility.yul\":6822:6939   */\n    tag_334:\n        /* \"#utility.yul\":6931:6932   */\n      0x00\n        /* \"#utility.yul\":6928:6929   */\n      dup1\n        /* \"#utility.yul\":6921:6933   */\n      revert\n        /* \"#utility.yul\":6981:7219   */\n    tag_335:\n        /* \"#utility.yul\":7060:7065   */\n      0x00\n        /* \"#utility.yul\":7101:7104   */\n      0xa0\n        /* \"#utility.yul\":7092:7098   */\n      dup3\n        /* \"#utility.yul\":7087:7090   */\n      dup5\n        /* \"#utility.yul\":7083:7099   */\n      sub\n        /* \"#utility.yul\":7079:7105   */\n      slt\n        /* \"#utility.yul\":7076:7189   */\n      iszero\n      tag_497\n      jumpi\n        /* \"#utility.yul\":7108:7187   */\n      tag_498\n      tag_334\n      jump\t// in\n    tag_498:\n        /* \"#utility.yul\":7076:7189   */\n    tag_497:\n        /* \"#utility.yul\":7207:7213   */\n      dup2\n        /* \"#utility.yul\":7198:7213   */\n      swap1\n      pop\n        /* \"#utility.yul\":6981:7219   */\n      swap3\n      swap2\n      pop\n      pop\n      jump\t// out\n        /* \"#utility.yul\":7225:7780   */\n    tag_53:\n        /* \"#utility.yul\":7317:7323   */\n      0x00\n        /* \"#utility.yul\":7366:7368   */\n      0x20\n        /* \"#utility.yul\":7354:7363   */\n      dup3\n        /* \"#utility.yul\":7345:7352   */\n      dup5\n        /* \"#utility.yul\":7341:7364   */\n      sub\n        /* \"#utility.yul\":7337:7369   */\n      slt\n        /* \"#utility.yul\":7334:7453   */\n      iszero\n      tag_500\n      jumpi\n        /* \"#utility.yul\":7372:7451   */\n      tag_501\n      tag_308\n      jump\t// in\n    tag_501:\n        /* \"#utility.yul\":7334:7453   */\n    tag_500:\n        /* \"#utility.yul\":7520:7521   */\n      0x00\n        /* \"#utility.yul\":7509:7518   */\n      dup3\n        /* \"#utility.yul\":7505:7522   */\n      add\n        /* \"#utility.yul\":7492:7523   */\n      calldataload\n        /* \"#utility.yul\":7550:7568   */\n      0xffffffffffffffff\n        /* \"#utility.yul\":7542:7548   */\n      dup2\n        /* \"#utility.yul\":7539:7569   */\n      gt\n        /* \"#utility.yul\":7536:7653   */\n      iszero\n      tag_502\n      jumpi\n        /* \"#utility.yul\":7572:7651   */\n      tag_503\n      tag_309\n      jump\t// in\n    tag_503:\n        /* \"#utility.yul\":7536:7653   */\n    tag_502:\n        /* \"#utility.yul\":7677:7763   */\n      tag_504\n        /* \"#utility.yul\":7755:7762   */\n      dup5\n        /* \"#utility.yul\":7746:7752   */\n      dup3\n        /* \"#utility.yul\":7735:7744   */\n      dup6\n        /* \"#utility.yul\":7731:7753   */\n      add\n        /* \"#utility.yul\":7677:7763   */\n      tag_335\n      jump\t// in\n    tag_504:\n        /* \"#utility.yul\":7667:7763   */\n      swap2\n      pop\n        /* \"#utility.yul\":7463:7773   */\n      pop\n        /* \"#utility.yul\":7225:7780   */\n      swap3\n      swap2\n      pop\n      pop\n      jump\t// out\n        /* \"#utility.yul\":7786:8228   */\n    tag_75:\n        /* \"#utility.yul\":7935:7939   */\n      0x00\n        /* \"#utility.yul\":7973:7975   */\n      0x60\n        /* \"#utility.yul\":7962:7971   */\n      dup3\n        /* \"#utility.yul\":7958:7976   */\n      add\n        /* \"#utility.yul\":7950:7976   */\n      swap1\n      pop\n        /* \"#utility.yul\":7986:8057   */\n      tag_506\n        /* \"#utility.yul\":8054:8055   */\n      0x00\n        /* \"#utility.yul\":8043:8052   */\n      dup4\n        /* \"#utility.yul\":8039:8056   */\n      add\n        /* \"#utility.yul\":8030:8036   */\n      dup7\n        /* \"#utility.yul\":7986:8057   */\n      tag_333\n      jump\t// in\n    tag_506:\n        /* \"#utility.yul\":8067:8139   */\n      tag_507\n        /* \"#utility.yul\":8135:8137   */\n      0x20\n        /* \"#utility.yul\":8124:8133   */\n      dup4\n        /* \"#utility.yul\":8120:8138   */\n      add\n        /* \"#utility.yul\":8111:8117   */\n      dup6\n        /* \"#utility.yul\":8067:8139   */\n      tag_316\n      jump\t// in\n    tag_507:\n        /* \"#utility.yul\":8149:8221   */\n      tag_508\n        /* \"#utility.yul\":8217:8219   */\n      0x40\n        /* \"#utility.yul\":8206:8215   */\n      dup4\n        /* \"#utility.yul\":8202:8220   */\n      add\n        /* \"#utility.yul\":8193:8199   */\n      dup5\n        /* \"#utility.yul\":8149:8221   */\n      tag_316\n      jump\t// in\n    tag_508:\n        /* \"#utility.yul\":7786:8228   */\n      swap5\n      swap4\n      pop\n      pop\n      pop\n      pop\n      jump\t// out\n        /* \"#utility.yul\":8234:8339   */\n    tag_336:\n        /* \"#utility.yul\":8300:8306   */\n      0x00\n        /* \"#utility.yul\":8328:8332   */\n      0x0a\n        /* \"#utility.yul\":8318:8332   */\n      swap1\n      pop\n        /* \"#utility.yul\":8234:8339   */\n      swap2\n      swap1\n      pop\n      jump\t// out\n        /* \"#utility.yul\":8345:8489   */\n    tag_337:\n        /* \"#utility.yul\":8443:8454   */\n      0x00\n        /* \"#utility.yul\":8480:8483   */\n      dup2\n        /* \"#utility.yul\":8465:8483   */\n      swap1\n      pop\n        /* \"#utility.yul\":8345:8489   */\n      swap3\n      swap2\n      pop\n      pop\n      jump\t// out\n        /* \"#utility.yul\":8495:8594   */\n    tag_338:\n        /* \"#utility.yul\":8561:8565   */\n      0x00\n        /* \"#utility.yul\":8584:8587   */\n      dup2\n        /* \"#utility.yul\":8576:8587   */\n      swap1\n      pop\n        /* \"#utility.yul\":8495:8594   */\n      swap2\n      swap1\n      pop\n      jump\t// out\n        /* \"#utility.yul\":8600:8708   */\n    tag_339:\n        /* \"#utility.yul\":8677:8701   */\n      tag_513\n        /* \"#utility.yul\":8695:8700   */\n      dup2\n        /* \"#utility.yul\":8677:8701   */\n      tag_315\n      jump\t// in\n    tag_513:\n        /* \"#utility.yul\":8672:8675   */\n      dup3\n        /* \"#utility.yul\":8665:8702   */\n      mstore\n        /* \"#utility.yul\":8600:8708   */\n      pop\n      pop\n      jump\t// out\n        /* \"#utility.yul\":8714:8893   */\n    tag_340:\n        /* \"#utility.yul\":8783:8793   */\n      0x00\n        /* \"#utility.yul\":8804:8850   */\n      tag_515\n        /* \"#utility.yul\":8846:8849   */\n      dup4\n        /* \"#utility.yul\":8838:8844   */\n      dup4\n        /* \"#utility.yul\":8804:8850   */\n      tag_339\n      jump\t// in\n    tag_515:\n        /* \"#utility.yul\":8882:8886   */\n      0x20\n        /* \"#utility.yul\":8877:8880   */\n      dup4\n        /* \"#utility.yul\":8873:8887   */\n      add\n        /* \"#utility.yul\":8859:8887   */\n      swap1\n      pop\n        /* \"#utility.yul\":8714:8893   */\n      swap3\n      swap2\n      pop\n      pop\n      jump\t// out\n        /* \"#utility.yul\":8899:9011   */\n    tag_341:\n        /* \"#utility.yul\":8968:8972   */\n      0x00\n        /* \"#utility.yul\":9000:9004   */\n      0x20\n        /* \"#utility.yul\":8995:8998   */\n      dup3\n        /* \"#utility.yul\":8991:9005   */\n      add\n        /* \"#utility.yul\":8983:9005   */\n      swap1\n      pop\n        /* \"#utility.yul\":8899:9011   */\n      swap2\n      swap1\n      pop\n      jump\t// out\n        /* \"#utility.yul\":9051:9751   */\n    tag_342:\n        /* \"#utility.yul\":9189:9242   */\n      tag_518\n        /* \"#utility.yul\":9236:9241   */\n      dup2\n        /* \"#utility.yul\":9189:9242   */\n      tag_336\n      jump\t// in\n    tag_518:\n        /* \"#utility.yul\":9258:9343   */\n      tag_519\n        /* \"#utility.yul\":9336:9342   */\n      dup2\n        /* \"#utility.yul\":9331:9334   */\n      dup5\n        /* \"#utility.yul\":9258:9343   */\n      tag_337\n      jump\t// in\n    tag_519:\n        /* \"#utility.yul\":9251:9343   */\n      swap3\n      pop\n        /* \"#utility.yul\":9367:9422   */\n      tag_520\n        /* \"#utility.yul\":9416:9421   */\n      dup3\n        /* \"#utility.yul\":9367:9422   */\n      tag_338\n      jump\t// in\n    tag_520:\n        /* \"#utility.yul\":9445:9452   */\n      dup1\n        /* \"#utility.yul\":9476:9477   */\n      0x00\n        /* \"#utility.yul\":9461:9744   */\n    tag_521:\n        /* \"#utility.yul\":9486:9492   */\n      dup4\n        /* \"#utility.yul\":9483:9484   */\n      dup2\n        /* \"#utility.yul\":9480:9493   */\n      lt\n        /* \"#utility.yul\":9461:9744   */\n      iszero\n      tag_523\n      jumpi\n        /* \"#utility.yul\":9562:9568   */\n      dup2\n        /* \"#utility.yul\":9556:9569   */\n      mload\n        /* \"#utility.yul\":9589:9652   */\n      tag_524\n        /* \"#utility.yul\":9648:9651   */\n      dup8\n        /* \"#utility.yul\":9633:9646   */\n      dup3\n        /* \"#utility.yul\":9589:9652   */\n      tag_340\n      jump\t// in\n    tag_524:\n        /* \"#utility.yul\":9582:9652   */\n      swap7\n      pop\n        /* \"#utility.yul\":9675:9734   */\n      tag_525\n        /* \"#utility.yul\":9727:9733   */\n      dup4\n        /* \"#utility.yul\":9675:9734   */\n      tag_341\n      jump\t// in\n    tag_525:\n        /* \"#utility.yul\":9665:9734   */\n      swap3\n      pop\n        /* \"#utility.yul\":9521:9744   */\n      pop\n        /* \"#utility.yul\":9508:9509   */\n      0x01\n        /* \"#utility.yul\":9505:9506   */\n      dup2\n        /* \"#utility.yul\":9501:9510   */\n      add\n        /* \"#utility.yul\":9496:9510   */\n      swap1\n      pop\n        /* \"#utility.yul\":9461:9744   */\n      jump(tag_521)\n    tag_523:\n        /* \"#utility.yul\":9465:9479   */\n      pop\n        /* \"#utility.yul\":9165:9751   */\n      pop\n      pop\n      pop\n        /* \"#utility.yul\":9051:9751   */\n      pop\n      pop\n      jump\t// out\n        /* \"#utility.yul\":9757:9862   */\n    tag_343:\n        /* \"#utility.yul\":9823:9829   */\n      0x00\n        /* \"#utility.yul\":9851:9855   */\n      0x0a\n        /* \"#utility.yul\":9841:9855   */\n      swap1\n      pop\n        /* \"#utility.yul\":9757:9862   */\n      swap2\n      swap1\n      pop\n      jump\t// out\n        /* \"#utility.yul\":9868:10012   */\n    tag_344:\n        /* \"#utility.yul\":9966:9977   */\n      0x00\n        /* \"#utility.yul\":10003:10006   */\n      dup2\n        /* \"#utility.yul\":9988:10006   */\n      swap1\n      pop\n        /* \"#utility.yul\":9868:10012   */\n      swap3\n      swap2\n      pop\n      pop\n      jump\t// out\n        /* \"#utility.yul\":10018:10117   */\n    tag_345:\n        /* \"#utility.yul\":10084:10088   */\n      0x00\n        /* \"#utility.yul\":10107:10110   */\n      dup2\n        /* \"#utility.yul\":10099:10110   */\n      swap1\n      pop\n        /* \"#utility.yul\":10018:10117   */\n      swap2\n      swap1\n      pop\n      jump\t// out\n        /* \"#utility.yul\":10123:10231   */\n    tag_346:\n        /* \"#utility.yul\":10200:10224   */\n      tag_530\n        /* \"#utility.yul\":10218:10223   */\n      dup2\n        /* \"#utility.yul\":10200:10224   */\n      tag_328\n      jump\t// in\n    tag_530:\n        /* \"#utility.yul\":10195:10198   */\n      dup3\n        /* \"#utility.yul\":10188:10225   */\n      mstore\n        /* \"#utility.yul\":10123:10231   */\n      pop\n      pop\n      jump\t// out\n        /* \"#utility.yul\":10237:10416   */\n    tag_347:\n        /* \"#utility.yul\":10306:10316   */\n      0x00\n        /* \"#utility.yul\":10327:10373   */\n      tag_532\n        /* \"#utility.yul\":10369:10372   */\n      dup4\n        /* \"#utility.yul\":10361:10367   */\n      dup4\n        /* \"#utility.yul\":10327:10373   */\n      tag_346\n      jump\t// in\n    tag_532:\n        /* \"#utility.yul\":10405:10409   */\n      0x20\n        /* \"#utility.yul\":10400:10403   */\n      dup4\n        /* \"#utility.yul\":10396:10410   */\n      add\n        /* \"#utility.yul\":10382:10410   */\n      swap1\n      pop\n        /* \"#utility.yul\":10237:10416   */\n      swap3\n      swap2\n      pop\n      pop\n      jump\t// out\n        /* \"#utility.yul\":10422:10534   */\n    tag_348:\n        /* \"#utility.yul\":10491:10495   */\n      0x00\n        /* \"#utility.yul\":10523:10527   */\n      0x20\n        /* \"#utility.yul\":10518:10521   */\n      dup3\n        /* \"#utility.yul\":10514:10528   */\n      add\n        /* \"#utility.yul\":10506:10528   */\n      swap1\n      pop\n        /* \"#utility.yul\":10422:10534   */\n      swap2\n      swap1\n      pop\n      jump\t// out\n        /* \"#utility.yul\":10574:11274   */\n    tag_349:\n        /* \"#utility.yul\":10712:10765   */\n      tag_535\n        /* \"#utility.yul\":10759:10764   */\n      dup2\n        /* \"#utility.yul\":10712:10765   */\n      tag_343\n      jump\t// in\n    tag_535:\n        /* \"#utility.yul\":10781:10866   */\n      tag_536\n        /* \"#utility.yul\":10859:10865   */\n      dup2\n        /* \"#utility.yul\":10854:10857   */\n      dup5\n        /* \"#utility.yul\":10781:10866   */\n      tag_344\n      jump\t// in\n    tag_536:\n        /* \"#utility.yul\":10774:10866   */\n      swap3\n      pop\n        /* \"#utility.yul\":10890:10945   */\n      tag_537\n        /* \"#utility.yul\":10939:10944   */\n      dup3\n        /* \"#utility.yul\":10890:10945   */\n      tag_345\n      jump\t// in\n    tag_537:\n        /* \"#utility.yul\":10968:10975   */\n      dup1\n        /* \"#utility.yul\":10999:11000   */\n      0x00\n        /* \"#utility.yul\":10984:11267   */\n    tag_538:\n        /* \"#utility.yul\":11009:11015   */\n      dup4\n        /* \"#utility.yul\":11006:11007   */\n      dup2\n        /* \"#utility.yul\":11003:11016   */\n      lt\n        /* \"#utility.yul\":10984:11267   */\n      iszero\n      tag_540\n      jumpi\n        /* \"#utility.yul\":11085:11091   */\n      dup2\n        /* \"#utility.yul\":11079:11092   */\n      mload\n        /* \"#utility.yul\":11112:11175   */\n      tag_541\n        /* \"#utility.yul\":11171:11174   */\n      dup8\n        /* \"#utility.yul\":11156:11169   */\n      dup3\n        /* \"#utility.yul\":11112:11175   */\n      tag_347\n      jump\t// in\n    tag_541:\n        /* \"#utility.yul\":11105:11175   */\n      swap7\n      pop\n        /* \"#utility.yul\":11198:11257   */\n      tag_542\n        /* \"#utility.yul\":11250:11256   */\n      dup4\n        /* \"#utility.yul\":11198:11257   */\n      tag_348\n      jump\t// in\n    tag_542:\n        /* \"#utility.yul\":11188:11257   */\n      swap3\n      pop\n        /* \"#utility.yul\":11044:11267   */\n      pop\n        /* \"#utility.yul\":11031:11032   */\n      0x01\n        /* \"#utility.yul\":11028:11029   */\n      dup2\n        /* \"#utility.yul\":11024:11033   */\n      add\n        /* \"#utility.yul\":11019:11033   */\n      swap1\n      pop\n        /* \"#utility.yul\":10984:11267   */\n      jump(tag_538)\n    tag_540:\n        /* \"#utility.yul\":10988:11002   */\n      pop\n        /* \"#utility.yul\":10688:11274   */\n      pop\n      pop\n      pop\n        /* \"#utility.yul\":10574:11274   */\n      pop\n      pop\n      jump\t// out\n        /* \"#utility.yul\":11280:12124   */\n    tag_79:\n        /* \"#utility.yul\":11601:11605   */\n      0x00\n        /* \"#utility.yul\":11639:11642   */\n      0x03e0\n        /* \"#utility.yul\":11628:11637   */\n      dup3\n        /* \"#utility.yul\":11624:11643   */\n      add\n        /* \"#utility.yul\":11616:11643   */\n      swap1\n      pop\n        /* \"#utility.yul\":11653:11772   */\n      tag_544\n        /* \"#utility.yul\":11769:11770   */\n      0x00\n        /* \"#utility.yul\":11758:11767   */\n      dup4\n        /* \"#utility.yul\":11754:11771   */\n      add\n        /* \"#utility.yul\":11745:11751   */\n      dup8\n        /* \"#utility.yul\":11653:11772   */\n      tag_342\n      jump\t// in\n    tag_544:\n        /* \"#utility.yul\":11782:11903   */\n      tag_545\n        /* \"#utility.yul\":11898:11901   */\n      0x0140\n        /* \"#utility.yul\":11887:11896   */\n      dup4\n        /* \"#utility.yul\":11883:11902   */\n      add\n        /* \"#utility.yul\":11874:11880   */\n      dup7\n        /* \"#utility.yul\":11782:11903   */\n      tag_342\n      jump\t// in\n    tag_545:\n        /* \"#utility.yul\":11913:12034   */\n      tag_546\n        /* \"#utility.yul\":12029:12032   */\n      0x0280\n        /* \"#utility.yul\":12018:12027   */\n      dup4\n        /* \"#utility.yul\":12014:12033   */\n      add\n        /* \"#utility.yul\":12005:12011   */\n      dup6\n        /* \"#utility.yul\":11913:12034   */\n      tag_349\n      jump\t// in\n    tag_546:\n        /* \"#utility.yul\":12044:12117   */\n      tag_547\n        /* \"#utility.yul\":12112:12115   */\n      0x03c0\n        /* \"#utility.yul\":12101:12110   */\n      dup4\n        /* \"#utility.yul\":12097:12116   */\n      add\n        /* \"#utility.yul\":12088:12094   */\n      dup5\n        /* \"#utility.yul\":12044:12117   */\n      tag_316\n      jump\t// in\n    tag_547:\n        /* \"#utility.yul\":11280:12124   */\n      swap6\n      swap5\n      pop\n      pop\n      pop\n      pop\n      pop\n      jump\t// out\n        /* \"#utility.yul\":12130:12459   */\n    tag_94:\n        /* \"#utility.yul\":12189:12195   */\n      0x00\n        /* \"#utility.yul\":12238:12240   */\n      0x20\n        /* \"#utility.yul\":12226:12235   */\n      dup3\n        /* \"#utility.yul\":12217:12224   */\n      dup5\n        /* \"#utility.yul\":12213:12236   */\n      sub\n        /* \"#utility.yul\":12209:12241   */\n      slt\n        /* \"#utility.yul\":12206:12325   */\n      iszero\n      tag_549\n      jumpi\n        /* \"#utility.yul\":12244:12323   */\n      tag_550\n      tag_308\n      jump\t// in\n    tag_550:\n        /* \"#utility.yul\":12206:12325   */\n    tag_549:\n        /* \"#utility.yul\":12364:12365   */\n      0x00\n        /* \"#utility.yul\":12389:12442   */\n      tag_551\n        /* \"#utility.yul\":12434:12441   */\n      dup5\n        /* \"#utility.yul\":12425:12431   */\n      dup3\n        /* \"#utility.yul\":12414:12423   */\n      dup6\n        /* \"#utility.yul\":12410:12432   */\n      add\n        /* \"#utility.yul\":12389:12442   */\n      tag_330\n      jump\t// in\n    tag_551:\n        /* \"#utility.yul\":12379:12442   */\n      swap2\n      pop\n        /* \"#utility.yul\":12335:12452   */\n      pop\n        /* \"#utility.yul\":12130:12459   */\n      swap3\n      swap2\n      pop\n      pop\n      jump\t// out\n        /* \"#utility.yul\":12465:12634   */\n    tag_350:\n        /* \"#utility.yul\":12549:12560   */\n      0x00\n        /* \"#utility.yul\":12583:12589   */\n      dup3\n        /* \"#utility.yul\":12578:12581   */\n      dup3\n        /* \"#utility.yul\":12571:12590   */\n      mstore\n        /* \"#utility.yul\":12623:12627   */\n      0x20\n        /* \"#utility.yul\":12618:12621   */\n      dup3\n        /* \"#utility.yul\":12614:12628   */\n      add\n        /* \"#utility.yul\":12599:12628   */\n      swap1\n      pop\n        /* \"#utility.yul\":12465:12634   */\n      swap3\n      swap2\n      pop\n      pop\n      jump\t// out\n        /* \"#utility.yul\":12640:12815   */\n    tag_351:\n        /* \"#utility.yul\":12780:12807   */\n      0x72656365697665724c697374206973206e6f742076616c696400000000000000\n        /* \"#utility.yul\":12776:12777   */\n      0x00\n        /* \"#utility.yul\":12768:12774   */\n      dup3\n        /* \"#utility.yul\":12764:12778   */\n      add\n        /* \"#utility.yul\":12757:12808   */\n      mstore\n        /* \"#utility.yul\":12640:12815   */\n      pop\n      jump\t// out\n        /* \"#utility.yul\":12821:13187   */\n    tag_352:\n        /* \"#utility.yul\":12963:12966   */\n      0x00\n        /* \"#utility.yul\":12984:13051   */\n      tag_555\n        /* \"#utility.yul\":13048:13050   */\n      0x19\n        /* \"#utility.yul\":13043:13046   */\n      dup4\n        /* \"#utility.yul\":12984:13051   */\n      tag_350\n      jump\t// in\n    tag_555:\n        /* \"#utility.yul\":12977:13051   */\n      swap2\n      pop\n        /* \"#utility.yul\":13060:13153   */\n      tag_556\n        /* \"#utility.yul\":13149:13152   */\n      dup3\n        /* \"#utility.yul\":13060:13153   */\n      tag_351\n      jump\t// in\n    tag_556:\n        /* \"#utility.yul\":13178:13180   */\n      0x20\n        /* \"#utility.yul\":13173:13176   */\n      dup3\n        /* \"#utility.yul\":13169:13181   */\n      add\n        /* \"#utility.yul\":13162:13181   */\n      swap1\n      pop\n        /* \"#utility.yul\":12821:13187   */\n      swap2\n      swap1\n      pop\n      jump\t// out\n        /* \"#utility.yul\":13193:13612   */\n    tag_106:\n        /* \"#utility.yul\":13359:13363   */\n      0x00\n        /* \"#utility.yul\":13397:13399   */\n      0x20\n        /* \"#utility.yul\":13386:13395   */\n      dup3\n        /* \"#utility.yul\":13382:13400   */\n      add\n        /* \"#utility.yul\":13374:13400   */\n      swap1\n      pop\n        /* \"#utility.yul\":13446:13455   */\n      dup2\n        /* \"#utility.yul\":13440:13444   */\n      dup2\n        /* \"#utility.yul\":13436:13456   */\n      sub\n        /* \"#utility.yul\":13432:13433   */\n      0x00\n        /* \"#utility.yul\":13421:13430   */\n      dup4\n        /* \"#utility.yul\":13417:13434   */\n      add\n        /* \"#utility.yul\":13410:13457   */\n      mstore\n        /* \"#utility.yul\":13474:13605   */\n      tag_558\n        /* \"#utility.yul\":13600:13604   */\n      dup2\n        /* \"#utility.yul\":13474:13605   */\n      tag_352\n      jump\t// in\n    tag_558:\n        /* \"#utility.yul\":13466:13605   */\n      swap1\n      pop\n        /* \"#utility.yul\":13193:13612   */\n      swap2\n      swap1\n      pop\n      jump\t// out\n        /* \"#utility.yul\":13618:13798   */\n    tag_112:\n        /* \"#utility.yul\":13666:13743   */\n      0x4e487b7100000000000000000000000000000000000000000000000000000000\n        /* \"#utility.yul\":13663:13664   */\n      0x00\n        /* \"#utility.yul\":13656:13744   */\n      mstore\n        /* \"#utility.yul\":13763:13767   */\n      0x32\n        /* \"#utility.yul\":13760:13761   */\n      0x04\n        /* \"#utility.yul\":13753:13768   */\n      mstore\n        /* \"#utility.yul\":13787:13791   */\n      0x24\n        /* \"#utility.yul\":13784:13785   */\n      0x00\n        /* \"#utility.yul\":13777:13792   */\n      revert\n        /* \"#utility.yul\":13804:13984   */\n    tag_353:\n        /* \"#utility.yul\":13852:13929   */\n      0x4e487b7100000000000000000000000000000000000000000000000000000000\n        /* \"#utility.yul\":13849:13850   */\n      0x00\n        /* \"#utility.yul\":13842:13930   */\n      mstore\n        /* \"#utility.yul\":13949:13953   */\n      0x11\n        /* \"#utility.yul\":13946:13947   */\n      0x04\n        /* \"#utility.yul\":13939:13954   */\n      mstore\n        /* \"#utility.yul\":13973:13977   */\n      0x24\n        /* \"#utility.yul\":13970:13971   */\n      0x00\n        /* \"#utility.yul\":13963:13978   */\n      revert\n        /* \"#utility.yul\":13990:14223   */\n    tag_117:\n        /* \"#utility.yul\":14029:14032   */\n      0x00\n        /* \"#utility.yul\":14052:14076   */\n      tag_562\n        /* \"#utility.yul\":14070:14075   */\n      dup3\n        /* \"#utility.yul\":14052:14076   */\n      tag_315\n      jump\t// in\n    tag_562:\n        /* \"#utility.yul\":14043:14076   */\n      swap2\n      pop\n        /* \"#utility.yul\":14098:14164   */\n      0xffffffffffffffffffffffffffffffffffffffffffffffffffffffffffffffff\n        /* \"#utility.yul\":14091:14096   */\n      dup3\n        /* \"#utility.yul\":14088:14165   */\n      sub\n        /* \"#utility.yul\":14085:14188   */\n      tag_563\n      jumpi\n        /* \"#utility.yul\":14168:14186   */\n      tag_564\n      tag_353\n      jump\t// in\n    tag_564:\n        /* \"#utility.yul\":14085:14188   */\n    tag_563:\n        /* \"#utility.yul\":14215:14216   */\n      0x01\n        /* \"#utility.yul\":14208:14213   */\n      dup3\n        /* \"#utility.yul\":14204:14217   */\n      add\n        /* \"#utility.yul\":14197:14217   */\n      swap1\n      pop\n        /* \"#utility.yul\":13990:14223   */\n      swap2\n      swap1\n      pop\n      jump\t// out\n        /* \"#utility.yul\":14229:14401   */\n    tag_354:\n        /* \"#utility.yul\":14369:14393   */\n      0x4d7573742062652070726f706f736564206f776e657200000000000000000000\n        /* \"#utility.yul\":14365:14366   */\n      0x00\n        /* \"#utility.yul\":14357:14363   */\n      dup3\n        /* \"#utility.yul\":14353:14367   */\n      add\n        /* \"#utility.yul\":14346:14394   */\n      mstore\n        /* \"#utility.yul\":14229:14401   */\n      pop\n      jump\t// out\n        /* \"#utility.yul\":14407:14773   */\n    tag_355:\n        /* \"#utility.yul\":14549:14552   */\n      0x00\n        /* \"#utility.yul\":14570:14637   */\n      tag_567\n        /* \"#utility.yul\":14634:14636   */\n      0x16\n        /* \"#utility.yul\":14629:14632   */\n      dup4\n        /* \"#utility.yul\":14570:14637   */\n      tag_350\n      jump\t// in\n    tag_567:\n        /* \"#utility.yul\":14563:14637   */\n      swap2\n      pop\n        /* \"#utility.yul\":14646:14739   */\n      tag_568\n        /* \"#utility.yul\":14735:14738   */\n      dup3\n        /* \"#utility.yul\":14646:14739   */\n      tag_354\n      jump\t// in\n    tag_568:\n        /* \"#utility.yul\":14764:14766   */\n      0x20\n        /* \"#utility.yul\":14759:14762   */\n      dup3\n        /* \"#utility.yul\":14755:14767   */\n      add\n        /* \"#utility.yul\":14748:14767   */\n      swap1\n      pop\n        /* \"#utility.yul\":14407:14773   */\n      swap2\n      swap1\n      pop\n      jump\t// out\n        /* \"#utility.yul\":14779:15198   */\n    tag_123:\n        /* \"#utility.yul\":14945:14949   */\n      0x00\n        /* \"#utility.yul\":14983:14985   */\n      0x20\n        /* \"#utility.yul\":14972:14981   */\n      dup3\n        /* \"#utility.yul\":14968:14986   */\n      add\n        /* \"#utility.yul\":14960:14986   */\n      swap1\n      pop\n        /* \"#utility.yul\":15032:15041   */\n      dup2\n        /* \"#utility.yul\":15026:15030   */\n      dup2\n        /* \"#utility.yul\":15022:15042   */\n      sub\n        /* \"#utility.yul\":15018:15019   */\n      0x00\n        /* \"#utility.yul\":15007:15016   */\n      dup4\n        /* \"#utility.yul\":15003:15020   */\n      add\n        /* \"#utility.yul\":14996:15043   */\n      mstore\n        /* \"#utility.yul\":15060:15191   */\n      tag_570\n        /* \"#utility.yul\":15186:15190   */\n      dup2\n        /* \"#utility.yul\":15060:15191   */\n      tag_355\n      jump\t// in\n    tag_570:\n        /* \"#utility.yul\":15052:15191   */\n      swap1\n      pop\n        /* \"#utility.yul\":14779:15198   */\n      swap2\n      swap1\n      pop\n      jump\t// out\n        /* \"#utility.yul\":15204:15321   */\n    tag_356:\n        /* \"#utility.yul\":15313:15314   */\n      0x00\n        /* \"#utility.yul\":15310:15311   */\n      dup1\n        /* \"#utility.yul\":15303:15315   */\n      revert\n        /* \"#utility.yul\":15327:15444   */\n    tag_357:\n        /* \"#utility.yul\":15436:15437   */\n      0x00\n        /* \"#utility.yul\":15433:15434   */\n      dup1\n        /* \"#utility.yul\":15426:15438   */\n      revert\n        /* \"#utility.yul\":15450:15527   */\n    tag_358:\n        /* \"#utility.yul\":15487:15494   */\n      0x00\n        /* \"#utility.yul\":15516:15521   */\n      dup2\n        /* \"#utility.yul\":15505:15521   */\n      swap1\n      pop\n        /* \"#utility.yul\":15450:15527   */\n      swap2\n      swap1\n      pop\n      jump\t// out\n        /* \"#utility.yul\":15533:15655   */\n    tag_359:\n        /* \"#utility.yul\":15606:15630   */\n      tag_575\n        /* \"#utility.yul\":15624:15629   */\n      dup2\n        /* \"#utility.yul\":15606:15630   */\n      tag_358\n      jump\t// in\n    tag_575:\n        /* \"#utility.yul\":15599:15604   */\n      dup2\n        /* \"#utility.yul\":15596:15631   */\n      eq\n        /* \"#utility.yul\":15586:15649   */\n      tag_576\n      jumpi\n        /* \"#utility.yul\":15645:15646   */\n      0x00\n        /* \"#utility.yul\":15642:15643   */\n      dup1\n        /* \"#utility.yul\":15635:15647   */\n      revert\n        /* \"#utility.yul\":15586:15649   */\n    tag_576:\n        /* \"#utility.yul\":15533:15655   */\n      pop\n      jump\t// out\n        /* \"#utility.yul\":15661:15800   */\n    tag_360:\n        /* \"#utility.yul\":15707:15712   */\n      0x00\n        /* \"#utility.yul\":15745:15751   */\n      dup2\n        /* \"#utility.yul\":15732:15752   */\n      calldataload\n        /* \"#utility.yul\":15723:15752   */\n      swap1\n      pop\n        /* \"#utility.yul\":15761:15794   */\n      tag_578\n        /* \"#utility.yul\":15788:15793   */\n      dup2\n        /* \"#utility.yul\":15761:15794   */\n      tag_359\n      jump\t// in\n    tag_578:\n        /* \"#utility.yul\":15661:15800   */\n      swap3\n      swap2\n      pop\n      pop\n      jump\t// out\n        /* \"#utility.yul\":15806:15926   */\n    tag_361:\n        /* \"#utility.yul\":15878:15901   */\n      tag_580\n        /* \"#utility.yul\":15895:15900   */\n      dup2\n        /* \"#utility.yul\":15878:15901   */\n      tag_319\n      jump\t// in\n    tag_580:\n        /* \"#utility.yul\":15871:15876   */\n      dup2\n        /* \"#utility.yul\":15868:15902   */\n      eq\n        /* \"#utility.yul\":15858:15920   */\n      tag_581\n      jumpi\n        /* \"#utility.yul\":15916:15917   */\n      0x00\n        /* \"#utility.yul\":15913:15914   */\n      dup1\n        /* \"#utility.yul\":15906:15918   */\n      revert\n        /* \"#utility.yul\":15858:15920   */\n    tag_581:\n        /* \"#utility.yul\":15806:15926   */\n      pop\n      jump\t// out\n        /* \"#utility.yul\":15932:16069   */\n    tag_362:\n        /* \"#utility.yul\":15977:15982   */\n      0x00\n        /* \"#utility.yul\":16015:16021   */\n      dup2\n        /* \"#utility.yul\":16002:16022   */\n      calldataload\n        /* \"#utility.yul\":15993:16022   */\n      swap1\n      pop\n        /* \"#utility.yul\":16031:16063   */\n      tag_583\n        /* \"#utility.yul\":16057:16062   */\n      dup2\n        /* \"#utility.yul\":16031:16063   */\n      tag_361\n      jump\t// in\n    tag_583:\n        /* \"#utility.yul\":15932:16069   */\n      swap3\n      swap2\n      pop\n      pop\n      jump\t// out\n        /* \"#utility.yul\":16075:16192   */\n    tag_363:\n        /* \"#utility.yul\":16184:16185   */\n      0x00\n        /* \"#utility.yul\":16181:16182   */\n      dup1\n        /* \"#utility.yul\":16174:16186   */\n      revert\n        /* \"#utility.yul\":16198:16505   */\n    tag_364:\n        /* \"#utility.yul\":16259:16263   */\n      0x00\n        /* \"#utility.yul\":16349:16367   */\n      0xffffffffffffffff\n        /* \"#utility.yul\":16341:16347   */\n      dup3\n        /* \"#utility.yul\":16338:16368   */\n      gt\n        /* \"#utility.yul\":16335:16391   */\n      iszero\n      tag_586\n      jumpi\n        /* \"#utility.yul\":16371:16389   */\n      tag_587\n      tag_263\n      jump\t// in\n    tag_587:\n        /* \"#utility.yul\":16335:16391   */\n    tag_586:\n        /* \"#utility.yul\":16409:16438   */\n      tag_588\n        /* \"#utility.yul\":16431:16437   */\n      dup3\n        /* \"#utility.yul\":16409:16438   */\n      tag_322\n      jump\t// in\n    tag_588:\n        /* \"#utility.yul\":16401:16438   */\n      swap1\n      pop\n        /* \"#utility.yul\":16493:16497   */\n      0x20\n        /* \"#utility.yul\":16487:16491   */\n      dup2\n        /* \"#utility.yul\":16483:16498   */\n      add\n        /* \"#utility.yul\":16475:16498   */\n      swap1\n      pop\n        /* \"#utility.yul\":16198:16505   */\n      swap2\n      swap1\n      pop\n      jump\t// out\n        /* \"#utility.yul\":16511:16657   */\n    tag_365:\n        /* \"#utility.yul\":16608:16614   */\n      dup3\n        /* \"#utility.yul\":16603:16606   */\n      dup2\n        /* \"#utility.yul\":16598:16601   */\n      dup4\n        /* \"#utility.yul\":16585:16615   */\n      calldatacopy\n        /* \"#utility.yul\":16649:16650   */\n      0x00\n        /* \"#utility.yul\":16640:16646   */\n      dup4\n        /* \"#utility.yul\":16635:16638   */\n      dup4\n        /* \"#utility.yul\":16631:16647   */\n      add\n        /* \"#utility.yul\":16624:16651   */\n      mstore\n        /* \"#utility.yul\":16511:16657   */\n      pop\n      pop\n      pop\n      jump\t// out\n        /* \"#utility.yul\":16663:17086   */\n    tag_366:\n        /* \"#utility.yul\":16740:16745   */\n      0x00\n        /* \"#utility.yul\":16765:16830   */\n      tag_591\n        /* \"#utility.yul\":16781:16829   */\n      tag_592\n        /* \"#utility.yul\":16822:16828   */\n      dup5\n        /* \"#utility.yul\":16781:16829   */\n      tag_364\n      jump\t// in\n    tag_592:\n        /* \"#utility.yul\":16765:16830   */\n      tag_324\n      jump\t// in\n    tag_591:\n        /* \"#utility.yul\":16756:16830   */\n      swap1\n      pop\n        /* \"#utility.yul\":16853:16859   */\n      dup3\n        /* \"#utility.yul\":16846:16851   */\n      dup2\n        /* \"#utility.yul\":16839:16860   */\n      mstore\n        /* \"#utility.yul\":16891:16895   */\n      0x20\n        /* \"#utility.yul\":16884:16889   */\n      dup2\n        /* \"#utility.yul\":16880:16896   */\n      add\n        /* \"#utility.yul\":16929:16932   */\n      dup5\n        /* \"#utility.yul\":16920:16926   */\n      dup5\n        /* \"#utility.yul\":16915:16918   */\n      dup5\n        /* \"#utility.yul\":16911:16927   */\n      add\n        /* \"#utility.yul\":16908:16933   */\n      gt\n        /* \"#utility.yul\":16905:17017   */\n      iszero\n      tag_593\n      jumpi\n        /* \"#utility.yul\":16936:17015   */\n      tag_594\n      tag_363\n      jump\t// in\n    tag_594:\n        /* \"#utility.yul\":16905:17017   */\n    tag_593:\n        /* \"#utility.yul\":17026:17080   */\n      tag_595\n        /* \"#utility.yul\":17073:17079   */\n      dup5\n        /* \"#utility.yul\":17068:17071   */\n      dup3\n        /* \"#utility.yul\":17063:17066   */\n      dup6\n        /* \"#utility.yul\":17026:17080   */\n      tag_365\n      jump\t// in\n    tag_595:\n        /* \"#utility.yul\":16746:17086   */\n      pop\n        /* \"#utility.yul\":16663:17086   */\n      swap4\n      swap3\n      pop\n      pop\n      pop\n      jump\t// out\n        /* \"#utility.yul\":17105:17443   */\n    tag_367:\n        /* \"#utility.yul\":17160:17165   */\n      0x00\n        /* \"#utility.yul\":17209:17212   */\n      dup3\n        /* \"#utility.yul\":17202:17206   */\n      0x1f\n        /* \"#utility.yul\":17194:17200   */\n      dup4\n        /* \"#utility.yul\":17190:17207   */\n      add\n        /* \"#utility.yul\":17186:17213   */\n      slt\n        /* \"#utility.yul\":17176:17298   */\n      tag_597\n      jumpi\n        /* \"#utility.yul\":17217:17296   */\n      tag_598\n      tag_321\n      jump\t// in\n    tag_598:\n        /* \"#utility.yul\":17176:17298   */\n    tag_597:\n        /* \"#utility.yul\":17334:17340   */\n      dup2\n        /* \"#utility.yul\":17321:17341   */\n      calldataload\n        /* \"#utility.yul\":17359:17437   */\n      tag_599\n        /* \"#utility.yul\":17433:17436   */\n      dup5\n        /* \"#utility.yul\":17425:17431   */\n      dup3\n        /* \"#utility.yul\":17418:17422   */\n      0x20\n        /* \"#utility.yul\":17410:17416   */\n      dup7\n        /* \"#utility.yul\":17406:17423   */\n      add\n        /* \"#utility.yul\":17359:17437   */\n      tag_366\n      jump\t// in\n    tag_599:\n        /* \"#utility.yul\":17350:17437   */\n      swap2\n      pop\n        /* \"#utility.yul\":17166:17443   */\n      pop\n        /* \"#utility.yul\":17105:17443   */\n      swap3\n      swap2\n      pop\n      pop\n      jump\t// out\n        /* \"#utility.yul\":17449:17791   */\n    tag_368:\n        /* \"#utility.yul\":17557:17561   */\n      0x00\n        /* \"#utility.yul\":17647:17665   */\n      0xffffffffffffffff\n        /* \"#utility.yul\":17639:17645   */\n      dup3\n        /* \"#utility.yul\":17636:17666   */\n      gt\n        /* \"#utility.yul\":17633:17689   */\n      iszero\n      tag_601\n      jumpi\n        /* \"#utility.yul\":17669:17687   */\n      tag_602\n      tag_263\n      jump\t// in\n    tag_602:\n        /* \"#utility.yul\":17633:17689   */\n    tag_601:\n        /* \"#utility.yul\":17719:17723   */\n      0x20\n        /* \"#utility.yul\":17711:17717   */\n      dup3\n        /* \"#utility.yul\":17707:17724   */\n      mul\n        /* \"#utility.yul\":17699:17724   */\n      swap1\n      pop\n        /* \"#utility.yul\":17779:17783   */\n      0x20\n        /* \"#utility.yul\":17773:17777   */\n      dup2\n        /* \"#utility.yul\":17769:17784   */\n      add\n        /* \"#utility.yul\":17761:17784   */\n      swap1\n      pop\n        /* \"#utility.yul\":17449:17791   */\n      swap2\n      swap1\n      pop\n      jump\t// out\n        /* \"#utility.yul\":17833:18416   */\n    tag_369:\n        /* \"#utility.yul\":17913:17918   */\n      0x00\n        /* \"#utility.yul\":17957:17961   */\n      0x40\n        /* \"#utility.yul\":17945:17954   */\n      dup3\n        /* \"#utility.yul\":17940:17943   */\n      dup5\n        /* \"#utility.yul\":17936:17955   */\n      sub\n        /* \"#utility.yul\":17932:17962   */\n      slt\n        /* \"#utility.yul\":17929:18046   */\n      iszero\n      tag_604\n      jumpi\n        /* \"#utility.yul\":17965:18044   */\n      tag_605\n      tag_356\n      jump\t// in\n    tag_605:\n        /* \"#utility.yul\":17929:18046   */\n    tag_604:\n        /* \"#utility.yul\":18064:18085   */\n      tag_606\n        /* \"#utility.yul\":18080:18084   */\n      0x40\n        /* \"#utility.yul\":18064:18085   */\n      tag_324\n      jump\t// in\n    tag_606:\n        /* \"#utility.yul\":18055:18085   */\n      swap1\n      pop\n        /* \"#utility.yul\":18145:18146   */\n      0x00\n        /* \"#utility.yul\":18185:18234   */\n      tag_607\n        /* \"#utility.yul\":18230:18233   */\n      dup5\n        /* \"#utility.yul\":18221:18227   */\n      dup3\n        /* \"#utility.yul\":18210:18219   */\n      dup6\n        /* \"#utility.yul\":18206:18228   */\n      add\n        /* \"#utility.yul\":18185:18234   */\n      tag_330\n      jump\t// in\n    tag_607:\n        /* \"#utility.yul\":18178:18182   */\n      0x00\n        /* \"#utility.yul\":18171:18176   */\n      dup4\n        /* \"#utility.yul\":18167:18183   */\n      add\n        /* \"#utility.yul\":18160:18235   */\n      mstore\n        /* \"#utility.yul\":18095:18246   */\n      pop\n        /* \"#utility.yul\":18307:18309   */\n      0x20\n        /* \"#utility.yul\":18348:18397   */\n      tag_608\n        /* \"#utility.yul\":18393:18396   */\n      dup5\n        /* \"#utility.yul\":18384:18390   */\n      dup3\n        /* \"#utility.yul\":18373:18382   */\n      dup6\n        /* \"#utility.yul\":18369:18391   */\n      add\n        /* \"#utility.yul\":18348:18397   */\n      tag_318\n      jump\t// in\n    tag_608:\n        /* \"#utility.yul\":18341:18345   */\n      0x20\n        /* \"#utility.yul\":18334:18339   */\n      dup4\n        /* \"#utility.yul\":18330:18346   */\n      add\n        /* \"#utility.yul\":18323:18398   */\n      mstore\n        /* \"#utility.yul\":18256:18409   */\n      pop\n        /* \"#utility.yul\":17833:18416   */\n      swap3\n      swap2\n      pop\n      pop\n      jump\t// out\n        /* \"#utility.yul\":18460:19263   */\n    tag_370:\n        /* \"#utility.yul\":18587:18592   */\n      0x00\n        /* \"#utility.yul\":18612:18724   */\n      tag_610\n        /* \"#utility.yul\":18628:18723   */\n      tag_611\n        /* \"#utility.yul\":18716:18722   */\n      dup5\n        /* \"#utility.yul\":18628:18723   */\n      tag_368\n      jump\t// in\n    tag_611:\n        /* \"#utility.yul\":18612:18724   */\n      tag_324\n      jump\t// in\n    tag_610:\n        /* \"#utility.yul\":18603:18724   */\n      swap1\n      pop\n        /* \"#utility.yul\":18744:18749   */\n      dup1\n        /* \"#utility.yul\":18773:18779   */\n      dup4\n        /* \"#utility.yul\":18766:18771   */\n      dup3\n        /* \"#utility.yul\":18759:18780   */\n      mstore\n        /* \"#utility.yul\":18807:18811   */\n      0x20\n        /* \"#utility.yul\":18800:18805   */\n      dup3\n        /* \"#utility.yul\":18796:18812   */\n      add\n        /* \"#utility.yul\":18789:18812   */\n      swap1\n      pop\n        /* \"#utility.yul\":18860:18864   */\n      0x40\n        /* \"#utility.yul\":18852:18858   */\n      dup5\n        /* \"#utility.yul\":18848:18865   */\n      mul\n        /* \"#utility.yul\":18840:18846   */\n      dup4\n        /* \"#utility.yul\":18836:18866   */\n      add\n        /* \"#utility.yul\":18889:18892   */\n      dup6\n        /* \"#utility.yul\":18881:18887   */\n      dup2\n        /* \"#utility.yul\":18878:18893   */\n      gt\n        /* \"#utility.yul\":18875:18997   */\n      iszero\n      tag_612\n      jumpi\n        /* \"#utility.yul\":18908:18987   */\n      tag_613\n      tag_326\n      jump\t// in\n    tag_613:\n        /* \"#utility.yul\":18875:18997   */\n    tag_612:\n        /* \"#utility.yul\":19023:19029   */\n      dup4\n        /* \"#utility.yul\":19006:19257   */\n    tag_614:\n        /* \"#utility.yul\":19040:19046   */\n      dup2\n        /* \"#utility.yul\":19035:19038   */\n      dup2\n        /* \"#utility.yul\":19032:19047   */\n      lt\n        /* \"#utility.yul\":19006:19257   */\n      iszero\n      tag_616\n      jumpi\n        /* \"#utility.yul\":19115:19118   */\n      dup1\n        /* \"#utility.yul\":19144:19212   */\n      tag_617\n        /* \"#utility.yul\":19208:19211   */\n      dup9\n        /* \"#utility.yul\":19196:19206   */\n      dup3\n        /* \"#utility.yul\":19144:19212   */\n      tag_369\n      jump\t// in\n    tag_617:\n        /* \"#utility.yul\":19139:19142   */\n      dup5\n        /* \"#utility.yul\":19132:19213   */\n      mstore\n        /* \"#utility.yul\":19242:19246   */\n      0x20\n        /* \"#utility.yul\":19237:19240   */\n      dup5\n        /* \"#utility.yul\":19233:19247   */\n      add\n        /* \"#utility.yul\":19226:19247   */\n      swap4\n      pop\n        /* \"#utility.yul\":19082:19257   */\n      pop\n        /* \"#utility.yul\":19066:19070   */\n      0x40\n        /* \"#utility.yul\":19061:19064   */\n      dup2\n        /* \"#utility.yul\":19057:19071   */\n      add\n        /* \"#utility.yul\":19050:19071   */\n      swap1\n      pop\n        /* \"#utility.yul\":19006:19257   */\n      jump(tag_614)\n    tag_616:\n        /* \"#utility.yul\":19010:19031   */\n      pop\n        /* \"#utility.yul\":18593:19263   */\n      pop\n      pop\n        /* \"#utility.yul\":18460:19263   */\n      swap4\n      swap3\n      pop\n      pop\n      pop\n      jump\t// out\n        /* \"#utility.yul\":19307:19739   */\n    tag_371:\n        /* \"#utility.yul\":19409:19414   */\n      0x00\n        /* \"#utility.yul\":19458:19461   */\n      dup3\n        /* \"#utility.yul\":19451:19455   */\n      0x1f\n        /* \"#utility.yul\":19443:19449   */\n      dup4\n        /* \"#utility.yul\":19439:19456   */\n      add\n        /* \"#utility.yul\":19435:19462   */\n      slt\n        /* \"#utility.yul\":19425:19547   */\n      tag_619\n      jumpi\n        /* \"#utility.yul\":19466:19545   */\n      tag_620\n      tag_321\n      jump\t// in\n    tag_620:\n        /* \"#utility.yul\":19425:19547   */\n    tag_619:\n        /* \"#utility.yul\":19583:19589   */\n      dup2\n        /* \"#utility.yul\":19570:19590   */\n      calldataload\n        /* \"#utility.yul\":19608:19733   */\n      tag_621\n        /* \"#utility.yul\":19729:19732   */\n      dup5\n        /* \"#utility.yul\":19721:19727   */\n      dup3\n        /* \"#utility.yul\":19714:19718   */\n      0x20\n        /* \"#utility.yul\":19706:19712   */\n      dup7\n        /* \"#utility.yul\":19702:19719   */\n      add\n        /* \"#utility.yul\":19608:19733   */\n      tag_370\n      jump\t// in\n    tag_621:\n        /* \"#utility.yul\":19599:19733   */\n      swap2\n      pop\n        /* \"#utility.yul\":19415:19739   */\n      pop\n        /* \"#utility.yul\":19307:19739   */\n      swap3\n      swap2\n      pop\n      pop\n      jump\t// out\n        /* \"#utility.yul\":19781:21432   */\n    tag_372:\n        /* \"#utility.yul\":19861:19866   */\n      0x00\n        /* \"#utility.yul\":19905:19909   */\n      0xa0\n        /* \"#utility.yul\":19893:19902   */\n      dup3\n        /* \"#utility.yul\":19888:19891   */\n      dup5\n        /* \"#utility.yul\":19884:19903   */\n      sub\n        /* \"#utility.yul\":19880:19910   */\n      slt\n        /* \"#utility.yul\":19877:19994   */\n      iszero\n      tag_623\n      jumpi\n        /* \"#utility.yul\":19913:19992   */\n      tag_624\n      tag_356\n      jump\t// in\n    tag_624:\n        /* \"#utility.yul\":19877:19994   */\n    tag_623:\n        /* \"#utility.yul\":20012:20033   */\n      tag_625\n        /* \"#utility.yul\":20028:20032   */\n      0xa0\n        /* \"#utility.yul\":20012:20033   */\n      tag_324\n      jump\t// in\n    tag_625:\n        /* \"#utility.yul\":20003:20033   */\n      swap1\n      pop\n        /* \"#utility.yul\":20097:20098   */\n      0x00\n        /* \"#utility.yul\":20137:20186   */\n      tag_626\n        /* \"#utility.yul\":20182:20185   */\n      dup5\n        /* \"#utility.yul\":20173:20179   */\n      dup3\n        /* \"#utility.yul\":20162:20171   */\n      dup6\n        /* \"#utility.yul\":20158:20180   */\n      add\n        /* \"#utility.yul\":20137:20186   */\n      tag_360\n      jump\t// in\n    tag_626:\n        /* \"#utility.yul\":20130:20134   */\n      0x00\n        /* \"#utility.yul\":20123:20128   */\n      dup4\n        /* \"#utility.yul\":20119:20135   */\n      add\n        /* \"#utility.yul\":20112:20187   */\n      mstore\n        /* \"#utility.yul\":20043:20198   */\n      pop\n        /* \"#utility.yul\":20272:20274   */\n      0x20\n        /* \"#utility.yul\":20313:20361   */\n      tag_627\n        /* \"#utility.yul\":20357:20360   */\n      dup5\n        /* \"#utility.yul\":20348:20354   */\n      dup3\n        /* \"#utility.yul\":20337:20346   */\n      dup6\n        /* \"#utility.yul\":20333:20355   */\n      add\n        /* \"#utility.yul\":20313:20361   */\n      tag_362\n      jump\t// in\n    tag_627:\n        /* \"#utility.yul\":20306:20310   */\n      0x20\n        /* \"#utility.yul\":20299:20304   */\n      dup4\n        /* \"#utility.yul\":20295:20311   */\n      add\n        /* \"#utility.yul\":20288:20362   */\n      mstore\n        /* \"#utility.yul\":20208:20373   */\n      pop\n        /* \"#utility.yul\":20462:20464   */\n      0x40\n        /* \"#utility.yul\":20451:20460   */\n      dup3\n        /* \"#utility.yul\":20447:20465   */\n      add\n        /* \"#utility.yul\":20434:20466   */\n      calldataload\n        /* \"#utility.yul\":20493:20511   */\n      0xffffffffffffffff\n        /* \"#utility.yul\":20485:20491   */\n      dup2\n        /* \"#utility.yul\":20482:20512   */\n      gt\n        /* \"#utility.yul\":20479:20596   */\n      iszero\n      tag_628\n      jumpi\n        /* \"#utility.yul\":20515:20594   */\n      tag_629\n      tag_357\n      jump\t// in\n    tag_629:\n        /* \"#utility.yul\":20479:20596   */\n    tag_628:\n        /* \"#utility.yul\":20635:20693   */\n      tag_630\n        /* \"#utility.yul\":20689:20692   */\n      dup5\n        /* \"#utility.yul\":20680:20686   */\n      dup3\n        /* \"#utility.yul\":20669:20678   */\n      dup6\n        /* \"#utility.yul\":20665:20687   */\n      add\n        /* \"#utility.yul\":20635:20693   */\n      tag_367\n      jump\t// in\n    tag_630:\n        /* \"#utility.yul\":20628:20632   */\n      0x40\n        /* \"#utility.yul\":20621:20626   */\n      dup4\n        /* \"#utility.yul\":20617:20633   */\n      add\n        /* \"#utility.yul\":20610:20694   */\n      mstore\n        /* \"#utility.yul\":20383:20705   */\n      pop\n        /* \"#utility.yul\":20792:20794   */\n      0x60\n        /* \"#utility.yul\":20781:20790   */\n      dup3\n        /* \"#utility.yul\":20777:20795   */\n      add\n        /* \"#utility.yul\":20764:20796   */\n      calldataload\n        /* \"#utility.yul\":20823:20841   */\n      0xffffffffffffffff\n        /* \"#utility.yul\":20815:20821   */\n      dup2\n        /* \"#utility.yul\":20812:20842   */\n      gt\n        /* \"#utility.yul\":20809:20926   */\n      iszero\n      tag_631\n      jumpi\n        /* \"#utility.yul\":20845:20924   */\n      tag_632\n      tag_357\n      jump\t// in\n    tag_632:\n        /* \"#utility.yul\":20809:20926   */\n    tag_631:\n        /* \"#utility.yul\":20965:21023   */\n      tag_633\n        /* \"#utility.yul\":21019:21022   */\n      dup5\n        /* \"#utility.yul\":21010:21016   */\n      dup3\n        /* \"#utility.yul\":20999:21008   */\n      dup6\n        /* \"#utility.yul\":20995:21017   */\n      add\n        /* \"#utility.yul\":20965:21023   */\n      tag_367\n      jump\t// in\n    tag_633:\n        /* \"#utility.yul\":20958:20962   */\n      0x60\n        /* \"#utility.yul\":20951:20956   */\n      dup4\n        /* \"#utility.yul\":20947:20963   */\n      add\n        /* \"#utility.yul\":20940:21024   */\n      mstore\n        /* \"#utility.yul\":20715:21035   */\n      pop\n        /* \"#utility.yul\":21134:21137   */\n      0x80\n        /* \"#utility.yul\":21123:21132   */\n      dup3\n        /* \"#utility.yul\":21119:21138   */\n      add\n        /* \"#utility.yul\":21106:21139   */\n      calldataload\n        /* \"#utility.yul\":21166:21184   */\n      0xffffffffffffffff\n        /* \"#utility.yul\":21158:21164   */\n      dup2\n        /* \"#utility.yul\":21155:21185   */\n      gt\n        /* \"#utility.yul\":21152:21269   */\n      iszero\n      tag_634\n      jumpi\n        /* \"#utility.yul\":21188:21267   */\n      tag_635\n      tag_357\n      jump\t// in\n    tag_635:\n        /* \"#utility.yul\":21152:21269   */\n    tag_634:\n        /* \"#utility.yul\":21308:21413   */\n      tag_636\n        /* \"#utility.yul\":21409:21412   */\n      dup5\n        /* \"#utility.yul\":21400:21406   */\n      dup3\n        /* \"#utility.yul\":21389:21398   */\n      dup6\n        /* \"#utility.yul\":21385:21407   */\n      add\n        /* \"#utility.yul\":21308:21413   */\n      tag_371\n      jump\t// in\n    tag_636:\n        /* \"#utility.yul\":21301:21305   */\n      0x80\n        /* \"#utility.yul\":21294:21299   */\n      dup4\n        /* \"#utility.yul\":21290:21306   */\n      add\n        /* \"#utility.yul\":21283:21414   */\n      mstore\n        /* \"#utility.yul\":21045:21425   */\n      pop\n        /* \"#utility.yul\":19781:21432   */\n      swap3\n      swap2\n      pop\n      pop\n      jump\t// out\n        /* \"#utility.yul\":21438:21667   */\n    tag_133:\n        /* \"#utility.yul\":21552:21561   */\n      0x00\n        /* \"#utility.yul\":21586:21660   */\n      tag_638\n        /* \"#utility.yul\":21645:21659   */\n      calldatasize\n        /* \"#utility.yul\":21638:21643   */\n      dup4\n        /* \"#utility.yul\":21586:21660   */\n      tag_372\n      jump\t// in\n    tag_638:\n        /* \"#utility.yul\":21573:21660   */\n      swap1\n      pop\n        /* \"#utility.yul\":21438:21667   */\n      swap2\n      swap1\n      pop\n      jump\t// out\n        /* \"#utility.yul\":21673:21845   */\n    tag_373:\n        /* \"#utility.yul\":21813:21837   */\n      0x4f6e6c792063616c6c61626c65206279206f776e657200000000000000000000\n        /* \"#utility.yul\":21809:21810   */\n      0x00\n        /* \"#utility.yul\":21801:21807   */\n      dup3\n        /* \"#utility.yul\":21797:21811   */\n      add\n        /* \"#utility.yul\":21790:21838   */\n      mstore\n        /* \"#utility.yul\":21673:21845   */\n      pop\n      jump\t// out\n        /* \"#utility.yul\":21851:22217   */\n    tag_374:\n        /* \"#utility.yul\":21993:21996   */\n      0x00\n        /* \"#utility.yul\":22014:22081   */\n      tag_641\n        /* \"#utility.yul\":22078:22080   */\n      0x16\n        /* \"#utility.yul\":22073:22076   */\n      dup4\n        /* \"#utility.yul\":22014:22081   */\n      tag_350\n      jump\t// in\n    tag_641:\n        /* \"#utility.yul\":22007:22081   */\n      swap2\n      pop\n        /* \"#utility.yul\":22090:22183   */\n      tag_642\n        /* \"#utility.yul\":22179:22182   */\n      dup3\n        /* \"#utility.yul\":22090:22183   */\n      tag_373\n      jump\t// in\n    tag_642:\n        /* \"#utility.yul\":22208:22210   */\n      0x20\n        /* \"#utility.yul\":22203:22206   */\n      dup3\n        /* \"#utility.yul\":22199:22211   */\n      add\n        /* \"#utility.yul\":22192:22211   */\n      swap1\n      pop\n        /* \"#utility.yul\":21851:22217   */\n      swap2\n      swap1\n      pop\n      jump\t// out\n        /* \"#utility.yul\":22223:22642   */\n    tag_192:\n        /* \"#utility.yul\":22389:22393   */\n      0x00\n        /* \"#utility.yul\":22427:22429   */\n      0x20\n        /* \"#utility.yul\":22416:22425   */\n      dup3\n        /* \"#utility.yul\":22412:22430   */\n      add\n        /* \"#utility.yul\":22404:22430   */\n      swap1\n      pop\n        /* \"#utility.yul\":22476:22485   */\n      dup2\n        /* \"#utility.yul\":22470:22474   */\n      dup2\n        /* \"#utility.yul\":22466:22486   */\n      sub\n        /* \"#utility.yul\":22462:22463   */\n      0x00\n        /* \"#utility.yul\":22451:22460   */\n      dup4\n        /* \"#utility.yul\":22447:22464   */\n      add\n        /* \"#utility.yul\":22440:22487   */\n      mstore\n        /* \"#utility.yul\":22504:22635   */\n      tag_644\n        /* \"#utility.yul\":22630:22634   */\n      dup2\n        /* \"#utility.yul\":22504:22635   */\n      tag_374\n      jump\t// in\n    tag_644:\n        /* \"#utility.yul\":22496:22635   */\n      swap1\n      pop\n        /* \"#utility.yul\":22223:22642   */\n      swap2\n      swap1\n      pop\n      jump\t// out\n        /* \"#utility.yul\":22648:22791   */\n    tag_375:\n        /* \"#utility.yul\":22705:22710   */\n      0x00\n        /* \"#utility.yul\":22736:22742   */\n      dup2\n        /* \"#utility.yul\":22730:22743   */\n      mload\n        /* \"#utility.yul\":22721:22743   */\n      swap1\n      pop\n        /* \"#utility.yul\":22752:22785   */\n      tag_646\n        /* \"#utility.yul\":22779:22784   */\n      dup2\n        /* \"#utility.yul\":22752:22785   */\n      tag_329\n      jump\t// in\n    tag_646:\n        /* \"#utility.yul\":22648:22791   */\n      swap3\n      swap2\n      pop\n      pop\n      jump\t// out\n        /* \"#utility.yul\":22797:22940   */\n    tag_376:\n        /* \"#utility.yul\":22854:22859   */\n      0x00\n        /* \"#utility.yul\":22885:22891   */\n      dup2\n        /* \"#utility.yul\":22879:22892   */\n      mload\n        /* \"#utility.yul\":22870:22892   */\n      swap1\n      pop\n        /* \"#utility.yul\":22901:22934   */\n      tag_648\n        /* \"#utility.yul\":22928:22933   */\n      dup2\n        /* \"#utility.yul\":22901:22934   */\n      tag_317\n      jump\t// in\n    tag_648:\n        /* \"#utility.yul\":22797:22940   */\n      swap3\n      swap2\n      pop\n      pop\n      jump\t// out\n        /* \"#utility.yul\":22985:23775   */\n    tag_377:\n        /* \"#utility.yul\":23073:23078   */\n      0x00\n        /* \"#utility.yul\":23117:23121   */\n      0x60\n        /* \"#utility.yul\":23105:23114   */\n      dup3\n        /* \"#utility.yul\":23100:23103   */\n      dup5\n        /* \"#utility.yul\":23096:23115   */\n      sub\n        /* \"#utility.yul\":23092:23122   */\n      slt\n        /* \"#utility.yul\":23089:23206   */\n      iszero\n      tag_650\n      jumpi\n        /* \"#utility.yul\":23125:23204   */\n      tag_651\n      tag_356\n      jump\t// in\n    tag_651:\n        /* \"#utility.yul\":23089:23206   */\n    tag_650:\n        /* \"#utility.yul\":23224:23245   */\n      tag_652\n        /* \"#utility.yul\":23240:23244   */\n      0x60\n        /* \"#utility.yul\":23224:23245   */\n      tag_324\n      jump\t// in\n    tag_652:\n        /* \"#utility.yul\":23215:23245   */\n      swap1\n      pop\n        /* \"#utility.yul\":23306:23307   */\n      0x00\n        /* \"#utility.yul\":23346:23406   */\n      tag_653\n        /* \"#utility.yul\":23402:23405   */\n      dup5\n        /* \"#utility.yul\":23393:23399   */\n      dup3\n        /* \"#utility.yul\":23382:23391   */\n      dup6\n        /* \"#utility.yul\":23378:23400   */\n      add\n        /* \"#utility.yul\":23346:23406   */\n      tag_375\n      jump\t// in\n    tag_653:\n        /* \"#utility.yul\":23339:23343   */\n      0x00\n        /* \"#utility.yul\":23332:23337   */\n      dup4\n        /* \"#utility.yul\":23328:23344   */\n      add\n        /* \"#utility.yul\":23321:23407   */\n      mstore\n        /* \"#utility.yul\":23255:23418   */\n      pop\n        /* \"#utility.yul\":23477:23479   */\n      0x20\n        /* \"#utility.yul\":23518:23578   */\n      tag_654\n        /* \"#utility.yul\":23574:23577   */\n      dup5\n        /* \"#utility.yul\":23565:23571   */\n      dup3\n        /* \"#utility.yul\":23554:23563   */\n      dup6\n        /* \"#utility.yul\":23550:23572   */\n      add\n        /* \"#utility.yul\":23518:23578   */\n      tag_376\n      jump\t// in\n    tag_654:\n        /* \"#utility.yul\":23511:23515   */\n      0x20\n        /* \"#utility.yul\":23504:23509   */\n      dup4\n        /* \"#utility.yul\":23500:23516   */\n      add\n        /* \"#utility.yul\":23493:23579   */\n      mstore\n        /* \"#utility.yul\":23428:23590   */\n      pop\n        /* \"#utility.yul\":23655:23657   */\n      0x40\n        /* \"#utility.yul\":23696:23756   */\n      tag_655\n        /* \"#utility.yul\":23752:23755   */\n      dup5\n        /* \"#utility.yul\":23743:23749   */\n      dup3\n        /* \"#utility.yul\":23732:23741   */\n      dup6\n        /* \"#utility.yul\":23728:23750   */\n      add\n        /* \"#utility.yul\":23696:23756   */\n      tag_376\n      jump\t// in\n    tag_655:\n        /* \"#utility.yul\":23689:23693   */\n      0x40\n        /* \"#utility.yul\":23682:23687   */\n      dup4\n        /* \"#utility.yul\":23678:23694   */\n      add\n        /* \"#utility.yul\":23671:23757   */\n      mstore\n        /* \"#utility.yul\":23600:23768   */\n      pop\n        /* \"#utility.yul\":22985:23775   */\n      swap3\n      swap2\n      pop\n      pop\n      jump\t// out\n        /* \"#utility.yul\":23781:24188   */\n    tag_195:\n        /* \"#utility.yul\":23879:23885   */\n      0x00\n        /* \"#utility.yul\":23928:23930   */\n      0x60\n        /* \"#utility.yul\":23916:23925   */\n      dup3\n        /* \"#utility.yul\":23907:23914   */\n      dup5\n        /* \"#utility.yul\":23903:23926   */\n      sub\n        /* \"#utility.yul\":23899:23931   */\n      slt\n        /* \"#utility.yul\":23896:24015   */\n      iszero\n      tag_657\n      jumpi\n        /* \"#utility.yul\":23934:24013   */\n      tag_658\n      tag_308\n      jump\t// in\n    tag_658:\n        /* \"#utility.yul\":23896:24015   */\n    tag_657:\n        /* \"#utility.yul\":24054:24055   */\n      0x00\n        /* \"#utility.yul\":24079:24171   */\n      tag_659\n        /* \"#utility.yul\":24163:24170   */\n      dup5\n        /* \"#utility.yul\":24154:24160   */\n      dup3\n        /* \"#utility.yul\":24143:24152   */\n      dup6\n        /* \"#utility.yul\":24139:24161   */\n      add\n        /* \"#utility.yul\":24079:24171   */\n      tag_377\n      jump\t// in\n    tag_659:\n        /* \"#utility.yul\":24069:24171   */\n      swap2\n      pop\n        /* \"#utility.yul\":24025:24181   */\n      pop\n        /* \"#utility.yul\":23781:24188   */\n      swap3\n      swap2\n      pop\n      pop\n      jump\t// out\n        /* \"#utility.yul\":24194:24298   */\n    tag_378:\n        /* \"#utility.yul\":24239:24246   */\n      0x00\n        /* \"#utility.yul\":24268:24292   */\n      tag_661\n        /* \"#utility.yul\":24286:24291   */\n      dup3\n        /* \"#utility.yul\":24268:24292   */\n      tag_327\n      jump\t// in\n    tag_661:\n        /* \"#utility.yul\":24257:24292   */\n      swap1\n      pop\n        /* \"#utility.yul\":24194:24298   */\n      swap2\n      swap1\n      pop\n      jump\t// out\n        /* \"#utility.yul\":24304:24442   */\n    tag_379:\n        /* \"#utility.yul\":24385:24417   */\n      tag_663\n        /* \"#utility.yul\":24411:24416   */\n      dup2\n        /* \"#utility.yul\":24385:24417   */\n      tag_378\n      jump\t// in\n    tag_663:\n        /* \"#utility.yul\":24378:24383   */\n      dup2\n        /* \"#utility.yul\":24375:24418   */\n      eq\n        /* \"#utility.yul\":24365:24436   */\n      tag_664\n      jumpi\n        /* \"#utility.yul\":24432:24433   */\n      0x00\n        /* \"#utility.yul\":24429:24430   */\n      dup1\n        /* \"#utility.yul\":24422:24434   */\n      revert\n        /* \"#utility.yul\":24365:24436   */\n    tag_664:\n        /* \"#utility.yul\":24304:24442   */\n      pop\n      jump\t// out\n        /* \"#utility.yul\":24448:24607   */\n    tag_380:\n        /* \"#utility.yul\":24513:24518   */\n      0x00\n        /* \"#utility.yul\":24544:24550   */\n      dup2\n        /* \"#utility.yul\":24538:24551   */\n      mload\n        /* \"#utility.yul\":24529:24551   */\n      swap1\n      pop\n        /* \"#utility.yul\":24560:24601   */\n      tag_666\n        /* \"#utility.yul\":24595:24600   */\n      dup2\n        /* \"#utility.yul\":24560:24601   */\n      tag_379\n      jump\t// in\n    tag_666:\n        /* \"#utility.yul\":24448:24607   */\n      swap3\n      swap2\n      pop\n      pop\n      jump\t// out\n        /* \"#utility.yul\":24613:24980   */\n    tag_198:\n        /* \"#utility.yul\":24691:24697   */\n      0x00\n        /* \"#utility.yul\":24740:24742   */\n      0x20\n        /* \"#utility.yul\":24728:24737   */\n      dup3\n        /* \"#utility.yul\":24719:24726   */\n      dup5\n        /* \"#utility.yul\":24715:24738   */\n      sub\n        /* \"#utility.yul\":24711:24743   */\n      slt\n        /* \"#utility.yul\":24708:24827   */\n      iszero\n      tag_668\n      jumpi\n        /* \"#utility.yul\":24746:24825   */\n      tag_669\n      tag_308\n      jump\t// in\n    tag_669:\n        /* \"#utility.yul\":24708:24827   */\n    tag_668:\n        /* \"#utility.yul\":24866:24867   */\n      0x00\n        /* \"#utility.yul\":24891:24963   */\n      tag_670\n        /* \"#utility.yul\":24955:24962   */\n      dup5\n        /* \"#utility.yul\":24946:24952   */\n      dup3\n        /* \"#utility.yul\":24935:24944   */\n      dup6\n        /* \"#utility.yul\":24931:24953   */\n      add\n        /* \"#utility.yul\":24891:24963   */\n      tag_380\n      jump\t// in\n    tag_670:\n        /* \"#utility.yul\":24881:24963   */\n      swap2\n      pop\n        /* \"#utility.yul\":24837:24973   */\n      pop\n        /* \"#utility.yul\":24613:24980   */\n      swap3\n      swap2\n      pop\n      pop\n      jump\t// out\n        /* \"#utility.yul\":24986:25046   */\n    tag_381:\n        /* \"#utility.yul\":25014:25017   */\n      0x00\n        /* \"#utility.yul\":25035:25040   */\n      dup2\n        /* \"#utility.yul\":25028:25040   */\n      swap1\n      pop\n        /* \"#utility.yul\":24986:25046   */\n      swap2\n      swap1\n      pop\n      jump\t// out\n        /* \"#utility.yul\":25052:25194   */\n    tag_382:\n        /* \"#utility.yul\":25102:25111   */\n      0x00\n        /* \"#utility.yul\":25135:25188   */\n      tag_673\n        /* \"#utility.yul\":25153:25187   */\n      tag_674\n        /* \"#utility.yul\":25162:25186   */\n      tag_675\n        /* \"#utility.yul\":25180:25185   */\n      dup5\n        /* \"#utility.yul\":25162:25186   */\n      tag_327\n      jump\t// in\n    tag_675:\n        /* \"#utility.yul\":25153:25187   */\n      tag_381\n      jump\t// in\n    tag_674:\n        /* \"#utility.yul\":25135:25188   */\n      tag_327\n      jump\t// in\n    tag_673:\n        /* \"#utility.yul\":25122:25188   */\n      swap1\n      pop\n        /* \"#utility.yul\":25052:25194   */\n      swap2\n      swap1\n      pop\n      jump\t// out\n        /* \"#utility.yul\":25200:25326   */\n    tag_383:\n        /* \"#utility.yul\":25250:25259   */\n      0x00\n        /* \"#utility.yul\":25283:25320   */\n      tag_677\n        /* \"#utility.yul\":25314:25319   */\n      dup3\n        /* \"#utility.yul\":25283:25320   */\n      tag_382\n      jump\t// in\n    tag_677:\n        /* \"#utility.yul\":25270:25320   */\n      swap1\n      pop\n        /* \"#utility.yul\":25200:25326   */\n      swap2\n      swap1\n      pop\n      jump\t// out\n        /* \"#utility.yul\":25332:25466   */\n    tag_384:\n        /* \"#utility.yul\":25390:25399   */\n      0x00\n        /* \"#utility.yul\":25423:25460   */\n      tag_679\n        /* \"#utility.yul\":25454:25459   */\n      dup3\n        /* \"#utility.yul\":25423:25460   */\n      tag_383\n      jump\t// in\n    tag_679:\n        /* \"#utility.yul\":25410:25460   */\n      swap1\n      pop\n        /* \"#utility.yul\":25332:25466   */\n      swap2\n      swap1\n      pop\n      jump\t// out\n        /* \"#utility.yul\":25472:25619   */\n    tag_385:\n        /* \"#utility.yul\":25567:25612   */\n      tag_681\n        /* \"#utility.yul\":25606:25611   */\n      dup2\n        /* \"#utility.yul\":25567:25612   */\n      tag_384\n      jump\t// in\n    tag_681:\n        /* \"#utility.yul\":25562:25565   */\n      dup3\n        /* \"#utility.yul\":25555:25613   */\n      mstore\n        /* \"#utility.yul\":25472:25619   */\n      pop\n      pop\n      jump\t// out\n        /* \"#utility.yul\":25625:25727   */\n    tag_386:\n        /* \"#utility.yul\":25667:25675   */\n      0x00\n        /* \"#utility.yul\":25714:25719   */\n      dup2\n        /* \"#utility.yul\":25711:25712   */\n      0x00\n        /* \"#utility.yul\":25707:25720   */\n      shr\n        /* \"#utility.yul\":25686:25720   */\n      swap1\n      pop\n        /* \"#utility.yul\":25625:25727   */\n      swap2\n      swap1\n      pop\n      jump\t// out\n        /* \"#utility.yul\":25733:25872   */\n    tag_387:\n        /* \"#utility.yul\":25783:25790   */\n      0x00\n        /* \"#utility.yul\":25823:25865   */\n      0xffffffffffffffffffffffffffffffffffffffff\n        /* \"#utility.yul\":25816:25821   */\n      dup3\n        /* \"#utility.yul\":25812:25866   */\n      and\n        /* \"#utility.yul\":25801:25866   */\n      swap1\n      pop\n        /* \"#utility.yul\":25733:25872   */\n      swap2\n      swap1\n      pop\n      jump\t// out\n        /* \"#utility.yul\":25878:26044   */\n    tag_388:\n        /* \"#utility.yul\":25947:25952   */\n      0x00\n        /* \"#utility.yul\":25972:26038   */\n      tag_685\n        /* \"#utility.yul\":26003:26037   */\n      tag_686\n        /* \"#utility.yul\":26026:26036   */\n      dup4\n        /* \"#utility.yul\":26003:26037   */\n      tag_386\n      jump\t// in\n    tag_686:\n        /* \"#utility.yul\":25972:26038   */\n      tag_387\n      jump\t// in\n    tag_685:\n        /* \"#utility.yul\":25963:26038   */\n      swap1\n      pop\n        /* \"#utility.yul\":25878:26044   */\n      swap2\n      swap1\n      pop\n      jump\t// out\n        /* \"#utility.yul\":26050:26140   */\n    tag_389:\n        /* \"#utility.yul\":26100:26107   */\n      0x00\n        /* \"#utility.yul\":26129:26134   */\n      dup2\n        /* \"#utility.yul\":26118:26134   */\n      swap1\n      pop\n        /* \"#utility.yul\":26050:26140   */\n      swap2\n      swap1\n      pop\n      jump\t// out\n        /* \"#utility.yul\":26146:26312   */\n    tag_390:\n        /* \"#utility.yul\":26215:26220   */\n      0x00\n        /* \"#utility.yul\":26240:26306   */\n      tag_689\n        /* \"#utility.yul\":26271:26305   */\n      tag_690\n        /* \"#utility.yul\":26294:26304   */\n      dup4\n        /* \"#utility.yul\":26271:26305   */\n      tag_386\n      jump\t// in\n    tag_690:\n        /* \"#utility.yul\":26240:26306   */\n      tag_389\n      jump\t// in\n    tag_689:\n        /* \"#utility.yul\":26231:26306   */\n      swap1\n      pop\n        /* \"#utility.yul\":26146:26312   */\n      swap2\n      swap1\n      pop\n      jump\t// out\n        /* \"#utility.yul\":26392:27351   */\n    tag_391:\n        /* \"#utility.yul\":26542:26546   */\n      0x60\n        /* \"#utility.yul\":26537:26540   */\n      dup3\n        /* \"#utility.yul\":26533:26547   */\n      add\n        /* \"#utility.yul\":26573:26574   */\n      0x00\n        /* \"#utility.yul\":26650:26654   */\n      dup1\n        /* \"#utility.yul\":26643:26648   */\n      dup4\n        /* \"#utility.yul\":26639:26655   */\n      add\n        /* \"#utility.yul\":26633:26656   */\n      sload\n        /* \"#utility.yul\":26620:26656   */\n      swap1\n      pop\n        /* \"#utility.yul\":26689:26744   */\n      tag_692\n        /* \"#utility.yul\":26734:26743   */\n      dup2\n        /* \"#utility.yul\":26689:26744   */\n      tag_388\n      jump\t// in\n    tag_692:\n        /* \"#utility.yul\":26757:26820   */\n      tag_693\n        /* \"#utility.yul\":26814:26818   */\n      0x00\n        /* \"#utility.yul\":26809:26812   */\n      dup7\n        /* \"#utility.yul\":26805:26819   */\n      add\n        /* \"#utility.yul\":26791:26803   */\n      dup3\n        /* \"#utility.yul\":26757:26820   */\n      tag_346\n      jump\t// in\n    tag_693:\n        /* \"#utility.yul\":26584:26830   */\n      pop\n        /* \"#utility.yul\":26904:26908   */\n      0x01\n        /* \"#utility.yul\":26897:26902   */\n      dup4\n        /* \"#utility.yul\":26893:26909   */\n      add\n        /* \"#utility.yul\":26887:26910   */\n      sload\n        /* \"#utility.yul\":26874:26910   */\n      swap1\n      pop\n        /* \"#utility.yul\":26943:26998   */\n      tag_694\n        /* \"#utility.yul\":26988:26997   */\n      dup2\n        /* \"#utility.yul\":26943:26998   */\n      tag_390\n      jump\t// in\n    tag_694:\n        /* \"#utility.yul\":27011:27074   */\n      tag_695\n        /* \"#utility.yul\":27068:27072   */\n      0x20\n        /* \"#utility.yul\":27063:27066   */\n      dup7\n        /* \"#utility.yul\":27059:27073   */\n      add\n        /* \"#utility.yul\":27045:27057   */\n      dup3\n        /* \"#utility.yul\":27011:27074   */\n      tag_339\n      jump\t// in\n    tag_695:\n        /* \"#utility.yul\":26840:27084   */\n      pop\n        /* \"#utility.yul\":27164:27168   */\n      0x02\n        /* \"#utility.yul\":27157:27162   */\n      dup4\n        /* \"#utility.yul\":27153:27169   */\n      add\n        /* \"#utility.yul\":27147:27170   */\n      sload\n        /* \"#utility.yul\":27134:27170   */\n      swap1\n      pop\n        /* \"#utility.yul\":27203:27258   */\n      tag_696\n        /* \"#utility.yul\":27248:27257   */\n      dup2\n        /* \"#utility.yul\":27203:27258   */\n      tag_390\n      jump\t// in\n    tag_696:\n        /* \"#utility.yul\":27271:27334   */\n      tag_697\n        /* \"#utility.yul\":27328:27332   */\n      0x40\n        /* \"#utility.yul\":27323:27326   */\n      dup7\n        /* \"#utility.yul\":27319:27333   */\n      add\n        /* \"#utility.yul\":27305:27317   */\n      dup3\n        /* \"#utility.yul\":27271:27334   */\n      tag_339\n      jump\t// in\n    tag_697:\n        /* \"#utility.yul\":27094:27344   */\n      pop\n        /* \"#utility.yul\":26511:27351   */\n      pop\n      pop\n        /* \"#utility.yul\":26392:27351   */\n      pop\n      pop\n      jump\t// out\n        /* \"#utility.yul\":27357:27812   */\n    tag_200:\n        /* \"#utility.yul\":27539:27543   */\n      0x00\n        /* \"#utility.yul\":27577:27580   */\n      0x80\n        /* \"#utility.yul\":27566:27575   */\n      dup3\n        /* \"#utility.yul\":27562:27581   */\n      add\n        /* \"#utility.yul\":27554:27581   */\n      swap1\n      pop\n        /* \"#utility.yul\":27591:27670   */\n      tag_699\n        /* \"#utility.yul\":27667:27668   */\n      0x00\n        /* \"#utility.yul\":27656:27665   */\n      dup4\n        /* \"#utility.yul\":27652:27669   */\n      add\n        /* \"#utility.yul\":27643:27649   */\n      dup6\n        /* \"#utility.yul\":27591:27670   */\n      tag_385\n      jump\t// in\n    tag_699:\n        /* \"#utility.yul\":27680:27805   */\n      tag_700\n        /* \"#utility.yul\":27801:27803   */\n      0x20\n        /* \"#utility.yul\":27790:27799   */\n      dup4\n        /* \"#utility.yul\":27786:27804   */\n      add\n        /* \"#utility.yul\":27777:27783   */\n      dup5\n        /* \"#utility.yul\":27680:27805   */\n      tag_391\n      jump\t// in\n    tag_700:\n        /* \"#utility.yul\":27357:27812   */\n      swap4\n      swap3\n      pop\n      pop\n      pop\n      jump\t// out\n        /* \"#utility.yul\":27818:28012   */\n    tag_203:\n        /* \"#utility.yul\":27858:27862   */\n      0x00\n        /* \"#utility.yul\":27878:27898   */\n      tag_702\n        /* \"#utility.yul\":27896:27897   */\n      dup3\n        /* \"#utility.yul\":27878:27898   */\n      tag_315\n      jump\t// in\n    tag_702:\n        /* \"#utility.yul\":27873:27898   */\n      swap2\n      pop\n        /* \"#utility.yul\":27912:27932   */\n      tag_703\n        /* \"#utility.yul\":27930:27931   */\n      dup4\n        /* \"#utility.yul\":27912:27932   */\n      tag_315\n      jump\t// in\n    tag_703:\n        /* \"#utility.yul\":27907:27932   */\n      swap3\n      pop\n        /* \"#utility.yul\":27956:27957   */\n      dup3\n        /* \"#utility.yul\":27953:27954   */\n      dup3\n        /* \"#utility.yul\":27949:27958   */\n      sub\n        /* \"#utility.yul\":27941:27958   */\n      swap1\n      pop\n        /* \"#utility.yul\":27980:27981   */\n      dup2\n        /* \"#utility.yul\":27974:27978   */\n      dup2\n        /* \"#utility.yul\":27971:27982   */\n      gt\n        /* \"#utility.yul\":27968:28005   */\n      iszero\n      tag_704\n      jumpi\n        /* \"#utility.yul\":27985:28003   */\n      tag_705\n      tag_353\n      jump\t// in\n    tag_705:\n        /* \"#utility.yul\":27968:28005   */\n    tag_704:\n        /* \"#utility.yul\":27818:28012   */\n      swap3\n      swap2\n      pop\n      pop\n      jump\t// out\n        /* \"#utility.yul\":28018:28209   */\n    tag_212:\n        /* \"#utility.yul\":28058:28061   */\n      0x00\n        /* \"#utility.yul\":28077:28097   */\n      tag_707\n        /* \"#utility.yul\":28095:28096   */\n      dup3\n        /* \"#utility.yul\":28077:28097   */\n      tag_315\n      jump\t// in\n    tag_707:\n        /* \"#utility.yul\":28072:28097   */\n      swap2\n      pop\n        /* \"#utility.yul\":28111:28131   */\n      tag_708\n        /* \"#utility.yul\":28129:28130   */\n      dup4\n        /* \"#utility.yul\":28111:28131   */\n      tag_315\n      jump\t// in\n    tag_708:\n        /* \"#utility.yul\":28106:28131   */\n      swap3\n      pop\n        /* \"#utility.yul\":28154:28155   */\n      dup3\n        /* \"#utility.yul\":28151:28152   */\n      dup3\n        /* \"#utility.yul\":28147:28156   */\n      add\n        /* \"#utility.yul\":28140:28156   */\n      swap1\n      pop\n        /* \"#utility.yul\":28175:28178   */\n      dup1\n        /* \"#utility.yul\":28172:28173   */\n      dup3\n        /* \"#utility.yul\":28169:28179   */\n      gt\n        /* \"#utility.yul\":28166:28202   */\n      iszero\n      tag_709\n      jumpi\n        /* \"#utility.yul\":28182:28200   */\n      tag_710\n      tag_353\n      jump\t// in\n    tag_710:\n        /* \"#utility.yul\":28166:28202   */\n    tag_709:\n        /* \"#utility.yul\":28018:28209   */\n      swap3\n      swap2\n      pop\n      pop\n      jump\t// out\n        /* \"#utility.yul\":28215:28395   */\n    tag_392:\n        /* \"#utility.yul\":28263:28340   */\n      0x4e487b7100000000000000000000000000000000000000000000000000000000\n        /* \"#utility.yul\":28260:28261   */\n      0x00\n        /* \"#utility.yul\":28253:28341   */\n      mstore\n        /* \"#utility.yul\":28360:28364   */\n      0x12\n        /* \"#utility.yul\":28357:28358   */\n      0x04\n        /* \"#utility.yul\":28350:28365   */\n      mstore\n        /* \"#utility.yul\":28384:28388   */\n      0x24\n        /* \"#utility.yul\":28381:28382   */\n      0x00\n        /* \"#utility.yul\":28374:28389   */\n      revert\n        /* \"#utility.yul\":28401:28586   */\n    tag_214:\n        /* \"#utility.yul\":28441:28442   */\n      0x00\n        /* \"#utility.yul\":28458:28478   */\n      tag_713\n        /* \"#utility.yul\":28476:28477   */\n      dup3\n        /* \"#utility.yul\":28458:28478   */\n      tag_315\n      jump\t// in\n    tag_713:\n        /* \"#utility.yul\":28453:28478   */\n      swap2\n      pop\n        /* \"#utility.yul\":28492:28512   */\n      tag_714\n        /* \"#utility.yul\":28510:28511   */\n      dup4\n        /* \"#utility.yul\":28492:28512   */\n      tag_315\n      jump\t// in\n    tag_714:\n        /* \"#utility.yul\":28487:28512   */\n      swap3\n      pop\n        /* \"#utility.yul\":28531:28532   */\n      dup3\n        /* \"#utility.yul\":28521:28556   */\n      tag_715\n      jumpi\n        /* \"#utility.yul\":28536:28554   */\n      tag_716\n      tag_392\n      jump\t// in\n    tag_716:\n        /* \"#utility.yul\":28521:28556   */\n    tag_715:\n        /* \"#utility.yul\":28578:28579   */\n      dup3\n        /* \"#utility.yul\":28575:28576   */\n      dup3\n        /* \"#utility.yul\":28571:28580   */\n      div\n        /* \"#utility.yul\":28566:28580   */\n      swap1\n      pop\n        /* \"#utility.yul\":28401:28586   */\n      swap3\n      swap2\n      pop\n      pop\n      jump\t// out\n        /* \"#utility.yul\":28592:28763   */\n    tag_247:\n        /* \"#utility.yul\":28631:28634   */\n      0x00\n        /* \"#utility.yul\":28654:28678   */\n      tag_718\n        /* \"#utility.yul\":28672:28677   */\n      dup3\n        /* \"#utility.yul\":28654:28678   */\n      tag_315\n      jump\t// in\n    tag_718:\n        /* \"#utility.yul\":28645:28678   */\n      swap2\n      pop\n        /* \"#utility.yul\":28700:28704   */\n      0x00\n        /* \"#utility.yul\":28693:28698   */\n      dup3\n        /* \"#utility.yul\":28690:28705   */\n      sub\n        /* \"#utility.yul\":28687:28728   */\n      tag_719\n      jumpi\n        /* \"#utility.yul\":28708:28726   */\n      tag_720\n      tag_353\n      jump\t// in\n    tag_720:\n        /* \"#utility.yul\":28687:28728   */\n    tag_719:\n        /* \"#utility.yul\":28755:28756   */\n      0x01\n        /* \"#utility.yul\":28748:28753   */\n      dup3\n        /* \"#utility.yul\":28744:28757   */\n      sub\n        /* \"#utility.yul\":28737:28757   */\n      swap1\n      pop\n        /* \"#utility.yul\":28592:28763   */\n      swap2\n      swap1\n      pop\n      jump\t// out\n        /* \"#utility.yul\":28843:29538   */\n    tag_393:\n        /* \"#utility.yul\":28996:29000   */\n      0x60\n        /* \"#utility.yul\":28991:28994   */\n      dup3\n        /* \"#utility.yul\":28987:29001   */\n      add\n        /* \"#utility.yul\":29085:29089   */\n      0x00\n        /* \"#utility.yul\":29078:29083   */\n      dup3\n        /* \"#utility.yul\":29074:29090   */\n      add\n        /* \"#utility.yul\":29068:29091   */\n      mload\n        /* \"#utility.yul\":29104:29167   */\n      tag_722\n        /* \"#utility.yul\":29161:29165   */\n      0x00\n        /* \"#utility.yul\":29156:29159   */\n      dup6\n        /* \"#utility.yul\":29152:29166   */\n      add\n        /* \"#utility.yul\":29138:29150   */\n      dup3\n        /* \"#utility.yul\":29104:29167   */\n      tag_346\n      jump\t// in\n    tag_722:\n        /* \"#utility.yul\":29011:29177   */\n      pop\n        /* \"#utility.yul\":29259:29263   */\n      0x20\n        /* \"#utility.yul\":29252:29257   */\n      dup3\n        /* \"#utility.yul\":29248:29264   */\n      add\n        /* \"#utility.yul\":29242:29265   */\n      mload\n        /* \"#utility.yul\":29278:29341   */\n      tag_723\n        /* \"#utility.yul\":29335:29339   */\n      0x20\n        /* \"#utility.yul\":29330:29333   */\n      dup6\n        /* \"#utility.yul\":29326:29340   */\n      add\n        /* \"#utility.yul\":29312:29324   */\n      dup3\n        /* \"#utility.yul\":29278:29341   */\n      tag_339\n      jump\t// in\n    tag_723:\n        /* \"#utility.yul\":29187:29351   */\n      pop\n        /* \"#utility.yul\":29439:29443   */\n      0x40\n        /* \"#utility.yul\":29432:29437   */\n      dup3\n        /* \"#utility.yul\":29428:29444   */\n      add\n        /* \"#utility.yul\":29422:29445   */\n      mload\n        /* \"#utility.yul\":29458:29521   */\n      tag_724\n        /* \"#utility.yul\":29515:29519   */\n      0x40\n        /* \"#utility.yul\":29510:29513   */\n      dup6\n        /* \"#utility.yul\":29506:29520   */\n      add\n        /* \"#utility.yul\":29492:29504   */\n      dup3\n        /* \"#utility.yul\":29458:29521   */\n      tag_339\n      jump\t// in\n    tag_724:\n        /* \"#utility.yul\":29361:29531   */\n      pop\n        /* \"#utility.yul\":28965:29538   */\n      pop\n        /* \"#utility.yul\":28843:29538   */\n      pop\n      pop\n      jump\t// out\n        /* \"#utility.yul\":29544:29878   */\n    tag_260:\n        /* \"#utility.yul\":29693:29697   */\n      0x00\n        /* \"#utility.yul\":29731:29733   */\n      0x60\n        /* \"#utility.yul\":29720:29729   */\n      dup3\n        /* \"#utility.yul\":29716:29734   */\n      add\n        /* \"#utility.yul\":29708:29734   */\n      swap1\n      pop\n        /* \"#utility.yul\":29744:29871   */\n      tag_726\n        /* \"#utility.yul\":29868:29869   */\n      0x00\n        /* \"#utility.yul\":29857:29866   */\n      dup4\n        /* \"#utility.yul\":29853:29870   */\n      add\n        /* \"#utility.yul\":29844:29850   */\n      dup5\n        /* \"#utility.yul\":29744:29871   */\n      tag_393\n      jump\t// in\n    tag_726:\n        /* \"#utility.yul\":29544:29878   */\n      swap3\n      swap2\n      pop\n      pop\n      jump\t// out\n        /* \"#utility.yul\":29884:29982   */\n    tag_394:\n        /* \"#utility.yul\":29935:29941   */\n      0x00\n        /* \"#utility.yul\":29969:29974   */\n      dup2\n        /* \"#utility.yul\":29963:29975   */\n      mload\n        /* \"#utility.yul\":29953:29975   */\n      swap1\n      pop\n        /* \"#utility.yul\":29884:29982   */\n      swap2\n      swap1\n      pop\n      jump\t// out\n        /* \"#utility.yul\":29988:30146   */\n    tag_395:\n        /* \"#utility.yul\":30061:30072   */\n      0x00\n        /* \"#utility.yul\":30095:30101   */\n      dup3\n        /* \"#utility.yul\":30090:30093   */\n      dup3\n        /* \"#utility.yul\":30083:30102   */\n      mstore\n        /* \"#utility.yul\":30135:30139   */\n      0x20\n        /* \"#utility.yul\":30130:30133   */\n      dup3\n        /* \"#utility.yul\":30126:30140   */\n      add\n        /* \"#utility.yul\":30111:30140   */\n      swap1\n      pop\n        /* \"#utility.yul\":29988:30146   */\n      swap3\n      swap2\n      pop\n      pop\n      jump\t// out\n        /* \"#utility.yul\":30152:30398   */\n    tag_396:\n        /* \"#utility.yul\":30233:30234   */\n      0x00\n        /* \"#utility.yul\":30243:30356   */\n    tag_730:\n        /* \"#utility.yul\":30257:30263   */\n      dup4\n        /* \"#utility.yul\":30254:30255   */\n      dup2\n        /* \"#utility.yul\":30251:30264   */\n      lt\n        /* \"#utility.yul\":30243:30356   */\n      iszero\n      tag_732\n      jumpi\n        /* \"#utility.yul\":30342:30343   */\n      dup1\n        /* \"#utility.yul\":30337:30340   */\n      dup3\n        /* \"#utility.yul\":30333:30344   */\n      add\n        /* \"#utility.yul\":30327:30345   */\n      mload\n        /* \"#utility.yul\":30323:30324   */\n      dup2\n        /* \"#utility.yul\":30318:30321   */\n      dup5\n        /* \"#utility.yul\":30314:30325   */\n      add\n        /* \"#utility.yul\":30307:30346   */\n      mstore\n        /* \"#utility.yul\":30279:30281   */\n      0x20\n        /* \"#utility.yul\":30276:30277   */\n      dup2\n        /* \"#utility.yul\":30272:30282   */\n      add\n        /* \"#utility.yul\":30267:30282   */\n      swap1\n      pop\n        /* \"#utility.yul\":30243:30356   */\n      jump(tag_730)\n    tag_732:\n        /* \"#utility.yul\":30390:30391   */\n      0x00\n        /* \"#utility.yul\":30381:30387   */\n      dup5\n        /* \"#utility.yul\":30376:30379   */\n      dup5\n        /* \"#utility.yul\":30372:30388   */\n      add\n        /* \"#utility.yul\":30365:30392   */\n      mstore\n        /* \"#utility.yul\":30214:30398   */\n      pop\n        /* \"#utility.yul\":30152:30398   */\n      pop\n      pop\n      pop\n      jump\t// out\n        /* \"#utility.yul\":30404:30757   */\n    tag_397:\n        /* \"#utility.yul\":30480:30483   */\n      0x00\n        /* \"#utility.yul\":30508:30546   */\n      tag_734\n        /* \"#utility.yul\":30540:30545   */\n      dup3\n        /* \"#utility.yul\":30508:30546   */\n      tag_394\n      jump\t// in\n    tag_734:\n        /* \"#utility.yul\":30562:30622   */\n      tag_735\n        /* \"#utility.yul\":30615:30621   */\n      dup2\n        /* \"#utility.yul\":30610:30613   */\n      dup6\n        /* \"#utility.yul\":30562:30622   */\n      tag_395\n      jump\t// in\n    tag_735:\n        /* \"#utility.yul\":30555:30622   */\n      swap4\n      pop\n        /* \"#utility.yul\":30631:30696   */\n      tag_736\n        /* \"#utility.yul\":30689:30695   */\n      dup2\n        /* \"#utility.yul\":30684:30687   */\n      dup6\n        /* \"#utility.yul\":30677:30681   */\n      0x20\n        /* \"#utility.yul\":30670:30675   */\n      dup7\n        /* \"#utility.yul\":30666:30682   */\n      add\n        /* \"#utility.yul\":30631:30696   */\n      tag_396\n      jump\t// in\n    tag_736:\n        /* \"#utility.yul\":30721:30750   */\n      tag_737\n        /* \"#utility.yul\":30743:30749   */\n      dup2\n        /* \"#utility.yul\":30721:30750   */\n      tag_322\n      jump\t// in\n    tag_737:\n        /* \"#utility.yul\":30716:30719   */\n      dup5\n        /* \"#utility.yul\":30712:30751   */\n      add\n        /* \"#utility.yul\":30705:30751   */\n      swap2\n      pop\n        /* \"#utility.yul\":30484:30757   */\n      pop\n        /* \"#utility.yul\":30404:30757   */\n      swap3\n      swap2\n      pop\n      pop\n      jump\t// out\n        /* \"#utility.yul\":30763:30908   */\n    tag_398:\n        /* \"#utility.yul\":30861:30867   */\n      0x00\n        /* \"#utility.yul\":30895:30900   */\n      dup2\n        /* \"#utility.yul\":30889:30901   */\n      mload\n        /* \"#utility.yul\":30879:30901   */\n      swap1\n      pop\n        /* \"#utility.yul\":30763:30908   */\n      swap2\n      swap1\n      pop\n      jump\t// out\n        /* \"#utility.yul\":30914:31119   */\n    tag_399:\n        /* \"#utility.yul\":31034:31045   */\n      0x00\n        /* \"#utility.yul\":31068:31074   */\n      dup3\n        /* \"#utility.yul\":31063:31066   */\n      dup3\n        /* \"#utility.yul\":31056:31075   */\n      mstore\n        /* \"#utility.yul\":31108:31112   */\n      0x20\n        /* \"#utility.yul\":31103:31106   */\n      dup3\n        /* \"#utility.yul\":31099:31113   */\n      add\n        /* \"#utility.yul\":31084:31113   */\n      swap1\n      pop\n        /* \"#utility.yul\":30914:31119   */\n      swap3\n      swap2\n      pop\n      pop\n      jump\t// out\n        /* \"#utility.yul\":31125:31288   */\n    tag_400:\n        /* \"#utility.yul\":31223:31227   */\n      0x00\n        /* \"#utility.yul\":31246:31249   */\n      dup2\n        /* \"#utility.yul\":31238:31249   */\n      swap1\n      pop\n        /* \"#utility.yul\":31276:31280   */\n      0x20\n        /* \"#utility.yul\":31271:31274   */\n      dup3\n        /* \"#utility.yul\":31267:31281   */\n      add\n        /* \"#utility.yul\":31259:31281   */\n      swap1\n      pop\n        /* \"#utility.yul\":31125:31288   */\n      swap2\n      swap1\n      pop\n      jump\t// out\n        /* \"#utility.yul\":31362:31874   */\n    tag_401:\n        /* \"#utility.yul\":31511:31515   */\n      0x40\n        /* \"#utility.yul\":31506:31509   */\n      dup3\n        /* \"#utility.yul\":31502:31516   */\n      add\n        /* \"#utility.yul\":31599:31603   */\n      0x00\n        /* \"#utility.yul\":31592:31597   */\n      dup3\n        /* \"#utility.yul\":31588:31604   */\n      add\n        /* \"#utility.yul\":31582:31605   */\n      mload\n        /* \"#utility.yul\":31618:31681   */\n      tag_742\n        /* \"#utility.yul\":31675:31679   */\n      0x00\n        /* \"#utility.yul\":31670:31673   */\n      dup6\n        /* \"#utility.yul\":31666:31680   */\n      add\n        /* \"#utility.yul\":31652:31664   */\n      dup3\n        /* \"#utility.yul\":31618:31681   */\n      tag_346\n      jump\t// in\n    tag_742:\n        /* \"#utility.yul\":31526:31691   */\n      pop\n        /* \"#utility.yul\":31775:31779   */\n      0x20\n        /* \"#utility.yul\":31768:31773   */\n      dup3\n        /* \"#utility.yul\":31764:31780   */\n      add\n        /* \"#utility.yul\":31758:31781   */\n      mload\n        /* \"#utility.yul\":31794:31857   */\n      tag_743\n        /* \"#utility.yul\":31851:31855   */\n      0x20\n        /* \"#utility.yul\":31846:31849   */\n      dup6\n        /* \"#utility.yul\":31842:31856   */\n      add\n        /* \"#utility.yul\":31828:31840   */\n      dup3\n        /* \"#utility.yul\":31794:31857   */\n      tag_339\n      jump\t// in\n    tag_743:\n        /* \"#utility.yul\":31701:31867   */\n      pop\n        /* \"#utility.yul\":31480:31874   */\n      pop\n        /* \"#utility.yul\":31362:31874   */\n      pop\n      pop\n      jump\t// out\n        /* \"#utility.yul\":31880:32183   */\n    tag_402:\n        /* \"#utility.yul\":32011:32021   */\n      0x00\n        /* \"#utility.yul\":32032:32140   */\n      tag_745\n        /* \"#utility.yul\":32136:32139   */\n      dup4\n        /* \"#utility.yul\":32128:32134   */\n      dup4\n        /* \"#utility.yul\":32032:32140   */\n      tag_401\n      jump\t// in\n    tag_745:\n        /* \"#utility.yul\":32172:32176   */\n      0x40\n        /* \"#utility.yul\":32167:32170   */\n      dup4\n        /* \"#utility.yul\":32163:32177   */\n      add\n        /* \"#utility.yul\":32149:32177   */\n      swap1\n      pop\n        /* \"#utility.yul\":31880:32183   */\n      swap3\n      swap2\n      pop\n      pop\n      jump\t// out\n        /* \"#utility.yul\":32189:32333   */\n    tag_403:\n        /* \"#utility.yul\":32290:32294   */\n      0x00\n        /* \"#utility.yul\":32322:32326   */\n      0x20\n        /* \"#utility.yul\":32317:32320   */\n      dup3\n        /* \"#utility.yul\":32313:32327   */\n      add\n        /* \"#utility.yul\":32305:32327   */\n      swap1\n      pop\n        /* \"#utility.yul\":32189:32333   */\n      swap2\n      swap1\n      pop\n      jump\t// out\n        /* \"#utility.yul\":32411:33371   */\n    tag_404:\n        /* \"#utility.yul\":32582:32585   */\n      0x00\n        /* \"#utility.yul\":32611:32696   */\n      tag_748\n        /* \"#utility.yul\":32690:32695   */\n      dup3\n        /* \"#utility.yul\":32611:32696   */\n      tag_398\n      jump\t// in\n    tag_748:\n        /* \"#utility.yul\":32712:32819   */\n      tag_749\n        /* \"#utility.yul\":32812:32818   */\n      dup2\n        /* \"#utility.yul\":32807:32810   */\n      dup6\n        /* \"#utility.yul\":32712:32819   */\n      tag_399\n      jump\t// in\n    tag_749:\n        /* \"#utility.yul\":32705:32819   */\n      swap4\n      pop\n        /* \"#utility.yul\":32843:32930   */\n      tag_750\n        /* \"#utility.yul\":32924:32929   */\n      dup4\n        /* \"#utility.yul\":32843:32930   */\n      tag_400\n      jump\t// in\n    tag_750:\n        /* \"#utility.yul\":32953:32960   */\n      dup1\n        /* \"#utility.yul\":32984:32985   */\n      0x00\n        /* \"#utility.yul\":32969:33346   */\n    tag_751:\n        /* \"#utility.yul\":32994:33000   */\n      dup4\n        /* \"#utility.yul\":32991:32992   */\n      dup2\n        /* \"#utility.yul\":32988:33001   */\n      lt\n        /* \"#utility.yul\":32969:33346   */\n      iszero\n      tag_753\n      jumpi\n        /* \"#utility.yul\":33070:33076   */\n      dup2\n        /* \"#utility.yul\":33064:33077   */\n      mload\n        /* \"#utility.yul\":33097:33222   */\n      tag_754\n        /* \"#utility.yul\":33218:33221   */\n      dup9\n        /* \"#utility.yul\":33203:33216   */\n      dup3\n        /* \"#utility.yul\":33097:33222   */\n      tag_402\n      jump\t// in\n    tag_754:\n        /* \"#utility.yul\":33090:33222   */\n      swap8\n      pop\n        /* \"#utility.yul\":33245:33336   */\n      tag_755\n        /* \"#utility.yul\":33329:33335   */\n      dup4\n        /* \"#utility.yul\":33245:33336   */\n      tag_403\n      jump\t// in\n    tag_755:\n        /* \"#utility.yul\":33235:33336   */\n      swap3\n      pop\n        /* \"#utility.yul\":33029:33346   */\n      pop\n        /* \"#utility.yul\":33016:33017   */\n      0x01\n        /* \"#utility.yul\":33013:33014   */\n      dup2\n        /* \"#utility.yul\":33009:33018   */\n      add\n        /* \"#utility.yul\":33004:33018   */\n      swap1\n      pop\n        /* \"#utility.yul\":32969:33346   */\n      jump(tag_751)\n    tag_753:\n        /* \"#utility.yul\":32973:32987   */\n      pop\n        /* \"#utility.yul\":33362:33365   */\n      dup6\n        /* \"#utility.yul\":33355:33365   */\n      swap4\n      pop\n        /* \"#utility.yul\":32587:33371   */\n      pop\n      pop\n      pop\n        /* \"#utility.yul\":32411:33371   */\n      swap3\n      swap2\n      pop\n      pop\n      jump\t// out\n        /* \"#utility.yul\":33445:34905   */\n    tag_405:\n        /* \"#utility.yul\":33576:33579   */\n      0x00\n        /* \"#utility.yul\":33612:33616   */\n      0xa0\n        /* \"#utility.yul\":33607:33610   */\n      dup4\n        /* \"#utility.yul\":33603:33617   */\n      add\n        /* \"#utility.yul\":33703:33707   */\n      0x00\n        /* \"#utility.yul\":33696:33701   */\n      dup4\n        /* \"#utility.yul\":33692:33708   */\n      add\n        /* \"#utility.yul\":33686:33709   */\n      mload\n        /* \"#utility.yul\":33756:33759   */\n      dup5\n        /* \"#utility.yul\":33750:33754   */\n      dup3\n        /* \"#utility.yul\":33746:33760   */\n      sub\n        /* \"#utility.yul\":33739:33743   */\n      0x00\n        /* \"#utility.yul\":33734:33737   */\n      dup7\n        /* \"#utility.yul\":33730:33744   */\n      add\n        /* \"#utility.yul\":33723:33761   */\n      mstore\n        /* \"#utility.yul\":33782:33853   */\n      tag_757\n        /* \"#utility.yul\":33848:33852   */\n      dup3\n        /* \"#utility.yul\":33834:33846   */\n      dup3\n        /* \"#utility.yul\":33782:33853   */\n      tag_397\n      jump\t// in\n    tag_757:\n        /* \"#utility.yul\":33774:33853   */\n      swap2\n      pop\n        /* \"#utility.yul\":33627:33864   */\n      pop\n        /* \"#utility.yul\":33946:33950   */\n      0x20\n        /* \"#utility.yul\":33939:33944   */\n      dup4\n        /* \"#utility.yul\":33935:33951   */\n      add\n        /* \"#utility.yul\":33929:33952   */\n      mload\n        /* \"#utility.yul\":33999:34002   */\n      dup5\n        /* \"#utility.yul\":33993:33997   */\n      dup3\n        /* \"#utility.yul\":33989:34003   */\n      sub\n        /* \"#utility.yul\":33982:33986   */\n      0x20\n        /* \"#utility.yul\":33977:33980   */\n      dup7\n        /* \"#utility.yul\":33973:33987   */\n      add\n        /* \"#utility.yul\":33966:34004   */\n      mstore\n        /* \"#utility.yul\":34025:34096   */\n      tag_758\n        /* \"#utility.yul\":34091:34095   */\n      dup3\n        /* \"#utility.yul\":34077:34089   */\n      dup3\n        /* \"#utility.yul\":34025:34096   */\n      tag_397\n      jump\t// in\n    tag_758:\n        /* \"#utility.yul\":34017:34096   */\n      swap2\n      pop\n        /* \"#utility.yul\":33874:34107   */\n      pop\n        /* \"#utility.yul\":34197:34201   */\n      0x40\n        /* \"#utility.yul\":34190:34195   */\n      dup4\n        /* \"#utility.yul\":34186:34202   */\n      add\n        /* \"#utility.yul\":34180:34203   */\n      mload\n        /* \"#utility.yul\":34250:34253   */\n      dup5\n        /* \"#utility.yul\":34244:34248   */\n      dup3\n        /* \"#utility.yul\":34240:34254   */\n      sub\n        /* \"#utility.yul\":34233:34237   */\n      0x40\n        /* \"#utility.yul\":34228:34231   */\n      dup7\n        /* \"#utility.yul\":34224:34238   */\n      add\n        /* \"#utility.yul\":34217:34255   */\n      mstore\n        /* \"#utility.yul\":34276:34441   */\n      tag_759\n        /* \"#utility.yul\":34436:34440   */\n      dup3\n        /* \"#utility.yul\":34422:34434   */\n      dup3\n        /* \"#utility.yul\":34276:34441   */\n      tag_404\n      jump\t// in\n    tag_759:\n        /* \"#utility.yul\":34268:34441   */\n      swap2\n      pop\n        /* \"#utility.yul\":34117:34452   */\n      pop\n        /* \"#utility.yul\":34538:34542   */\n      0x60\n        /* \"#utility.yul\":34531:34536   */\n      dup4\n        /* \"#utility.yul\":34527:34543   */\n      add\n        /* \"#utility.yul\":34521:34544   */\n      mload\n        /* \"#utility.yul\":34557:34620   */\n      tag_760\n        /* \"#utility.yul\":34614:34618   */\n      0x60\n        /* \"#utility.yul\":34609:34612   */\n      dup7\n        /* \"#utility.yul\":34605:34619   */\n      add\n        /* \"#utility.yul\":34591:34603   */\n      dup3\n        /* \"#utility.yul\":34557:34620   */\n      tag_346\n      jump\t// in\n    tag_760:\n        /* \"#utility.yul\":34462:34630   */\n      pop\n        /* \"#utility.yul\":34717:34721   */\n      0x80\n        /* \"#utility.yul\":34710:34715   */\n      dup4\n        /* \"#utility.yul\":34706:34722   */\n      add\n        /* \"#utility.yul\":34700:34723   */\n      mload\n        /* \"#utility.yul\":34770:34773   */\n      dup5\n        /* \"#utility.yul\":34764:34768   */\n      dup3\n        /* \"#utility.yul\":34760:34774   */\n      sub\n        /* \"#utility.yul\":34753:34757   */\n      0x80\n        /* \"#utility.yul\":34748:34751   */\n      dup7\n        /* \"#utility.yul\":34744:34758   */\n      add\n        /* \"#utility.yul\":34737:34775   */\n      mstore\n        /* \"#utility.yul\":34796:34867   */\n      tag_761\n        /* \"#utility.yul\":34862:34866   */\n      dup3\n        /* \"#utility.yul\":34848:34860   */\n      dup3\n        /* \"#utility.yul\":34796:34867   */\n      tag_397\n      jump\t// in\n    tag_761:\n        /* \"#utility.yul\":34788:34867   */\n      swap2\n      pop\n        /* \"#utility.yul\":34640:34878   */\n      pop\n        /* \"#utility.yul\":34895:34899   */\n      dup1\n        /* \"#utility.yul\":34888:34899   */\n      swap2\n      pop\n        /* \"#utility.yul\":33581:34905   */\n      pop\n        /* \"#utility.yul\":33445:34905   */\n      swap3\n      swap2\n      pop\n      pop\n      jump\t// out\n        /* \"#utility.yul\":34911:35414   */\n    tag_271:\n        /* \"#utility.yul\":35092:35096   */\n      0x00\n        /* \"#utility.yul\":35130:35132   */\n      0x40\n        /* \"#utility.yul\":35119:35128   */\n      dup3\n        /* \"#utility.yul\":35115:35133   */\n      add\n        /* \"#utility.yul\":35107:35133   */\n      swap1\n      pop\n        /* \"#utility.yul\":35143:35212   */\n      tag_763\n        /* \"#utility.yul\":35209:35210   */\n      0x00\n        /* \"#utility.yul\":35198:35207   */\n      dup4\n        /* \"#utility.yul\":35194:35211   */\n      add\n        /* \"#utility.yul\":35185:35191   */\n      dup6\n        /* \"#utility.yul\":35143:35212   */\n      tag_320\n      jump\t// in\n    tag_763:\n        /* \"#utility.yul\":35259:35268   */\n      dup2\n        /* \"#utility.yul\":35253:35257   */\n      dup2\n        /* \"#utility.yul\":35249:35269   */\n      sub\n        /* \"#utility.yul\":35244:35246   */\n      0x20\n        /* \"#utility.yul\":35233:35242   */\n      dup4\n        /* \"#utility.yul\":35229:35247   */\n      add\n        /* \"#utility.yul\":35222:35270   */\n      mstore\n        /* \"#utility.yul\":35287:35407   */\n      tag_764\n        /* \"#utility.yul\":35402:35406   */\n      dup2\n        /* \"#utility.yul\":35393:35399   */\n      dup5\n        /* \"#utility.yul\":35287:35407   */\n      tag_405\n      jump\t// in\n    tag_764:\n        /* \"#utility.yul\":35279:35407   */\n      swap1\n      pop\n        /* \"#utility.yul\":34911:35414   */\n      swap4\n      swap3\n      pop\n      pop\n      pop\n      jump\t// out\n        /* \"#utility.yul\":35420:35771   */\n    tag_275:\n        /* \"#utility.yul\":35490:35496   */\n      0x00\n        /* \"#utility.yul\":35539:35541   */\n      0x20\n        /* \"#utility.yul\":35527:35536   */\n      dup3\n        /* \"#utility.yul\":35518:35525   */\n      dup5\n        /* \"#utility.yul\":35514:35537   */\n      sub\n        /* \"#utility.yul\":35510:35542   */\n      slt\n        /* \"#utility.yul\":35507:35626   */\n      iszero\n      tag_766\n      jumpi\n        /* \"#utility.yul\":35545:35624   */\n      tag_767\n      tag_308\n      jump\t// in\n    tag_767:\n        /* \"#utility.yul\":35507:35626   */\n    tag_766:\n        /* \"#utility.yul\":35665:35666   */\n      0x00\n        /* \"#utility.yul\":35690:35754   */\n      tag_768\n        /* \"#utility.yul\":35746:35753   */\n      dup5\n        /* \"#utility.yul\":35737:35743   */\n      dup3\n        /* \"#utility.yul\":35726:35735   */\n      dup6\n        /* \"#utility.yul\":35722:35744   */\n      add\n        /* \"#utility.yul\":35690:35754   */\n      tag_376\n      jump\t// in\n    tag_768:\n        /* \"#utility.yul\":35680:35754   */\n      swap2\n      pop\n        /* \"#utility.yul\":35636:35764   */\n      pop\n        /* \"#utility.yul\":35420:35771   */\n      swap3\n      swap2\n      pop\n      pop\n      jump\t// out\n        /* \"#utility.yul\":35777:36109   */\n    tag_286:\n        /* \"#utility.yul\":35898:35902   */\n      0x00\n        /* \"#utility.yul\":35936:35938   */\n      0x40\n        /* \"#utility.yul\":35925:35934   */\n      dup3\n        /* \"#utility.yul\":35921:35939   */\n      add\n        /* \"#utility.yul\":35913:35939   */\n      swap1\n      pop\n        /* \"#utility.yul\":35949:36020   */\n      tag_770\n        /* \"#utility.yul\":36017:36018   */\n      0x00\n        /* \"#utility.yul\":36006:36015   */\n      dup4\n        /* \"#utility.yul\":36002:36019   */\n      add\n        /* \"#utility.yul\":35993:35999   */\n      dup6\n        /* \"#utility.yul\":35949:36020   */\n      tag_316\n      jump\t// in\n    tag_770:\n        /* \"#utility.yul\":36030:36102   */\n      tag_771\n        /* \"#utility.yul\":36098:36100   */\n      0x20\n        /* \"#utility.yul\":36087:36096   */\n      dup4\n        /* \"#utility.yul\":36083:36101   */\n      add\n        /* \"#utility.yul\":36074:36080   */\n      dup5\n        /* \"#utility.yul\":36030:36102   */\n      tag_316\n      jump\t// in\n    tag_771:\n        /* \"#utility.yul\":35777:36109   */\n      swap4\n      swap3\n      pop\n      pop\n      pop\n      jump\t// out\n        /* \"#utility.yul\":36115:36447   */\n    tag_288:\n        /* \"#utility.yul\":36236:36240   */\n      0x00\n        /* \"#utility.yul\":36274:36276   */\n      0x40\n        /* \"#utility.yul\":36263:36272   */\n      dup3\n        /* \"#utility.yul\":36259:36277   */\n      add\n        /* \"#utility.yul\":36251:36277   */\n      swap1\n      pop\n        /* \"#utility.yul\":36287:36358   */\n      tag_773\n        /* \"#utility.yul\":36355:36356   */\n      0x00\n        /* \"#utility.yul\":36344:36353   */\n      dup4\n        /* \"#utility.yul\":36340:36357   */\n      add\n        /* \"#utility.yul\":36331:36337   */\n      dup6\n        /* \"#utility.yul\":36287:36358   */\n      tag_333\n      jump\t// in\n    tag_773:\n        /* \"#utility.yul\":36368:36440   */\n      tag_774\n        /* \"#utility.yul\":36436:36438   */\n      0x20\n        /* \"#utility.yul\":36425:36434   */\n      dup4\n        /* \"#utility.yul\":36421:36439   */\n      add\n        /* \"#utility.yul\":36412:36418   */\n      dup5\n        /* \"#utility.yul\":36368:36440   */\n      tag_316\n      jump\t// in\n    tag_774:\n        /* \"#utility.yul\":36115:36447   */\n      swap4\n      swap3\n      pop\n      pop\n      pop\n      jump\t// out\n        /* \"#utility.yul\":36453:36569   */\n    tag_406:\n        /* \"#utility.yul\":36523:36544   */\n      tag_776\n        /* \"#utility.yul\":36538:36543   */\n      dup2\n        /* \"#utility.yul\":36523:36544   */\n      tag_313\n      jump\t// in\n    tag_776:\n        /* \"#utility.yul\":36516:36521   */\n      dup2\n        /* \"#utility.yul\":36513:36545   */\n      eq\n        /* \"#utility.yul\":36503:36563   */\n      tag_777\n      jumpi\n        /* \"#utility.yul\":36559:36560   */\n      0x00\n        /* \"#utility.yul\":36556:36557   */\n      dup1\n        /* \"#utility.yul\":36549:36561   */\n      revert\n        /* \"#utility.yul\":36503:36563   */\n    tag_777:\n        /* \"#utility.yul\":36453:36569   */\n      pop\n      jump\t// out\n        /* \"#utility.yul\":36575:36712   */\n    tag_407:\n        /* \"#utility.yul\":36629:36634   */\n      0x00\n        /* \"#utility.yul\":36660:36666   */\n      dup2\n        /* \"#utility.yul\":36654:36667   */\n      mload\n        /* \"#utility.yul\":36645:36667   */\n      swap1\n      pop\n        /* \"#utility.yul\":36676:36706   */\n      tag_779\n        /* \"#utility.yul\":36700:36705   */\n      dup2\n        /* \"#utility.yul\":36676:36706   */\n      tag_406\n      jump\t// in\n    tag_779:\n        /* \"#utility.yul\":36575:36712   */\n      swap3\n      swap2\n      pop\n      pop\n      jump\t// out\n        /* \"#utility.yul\":36718:37063   */\n    tag_292:\n        /* \"#utility.yul\":36785:36791   */\n      0x00\n        /* \"#utility.yul\":36834:36836   */\n      0x20\n        /* \"#utility.yul\":36822:36831   */\n      dup3\n        /* \"#utility.yul\":36813:36820   */\n      dup5\n        /* \"#utility.yul\":36809:36832   */\n      sub\n        /* \"#utility.yul\":36805:36837   */\n      slt\n        /* \"#utility.yul\":36802:36921   */\n      iszero\n      tag_781\n      jumpi\n        /* \"#utility.yul\":36840:36919   */\n      tag_782\n      tag_308\n      jump\t// in\n    tag_782:\n        /* \"#utility.yul\":36802:36921   */\n    tag_781:\n        /* \"#utility.yul\":36960:36961   */\n      0x00\n        /* \"#utility.yul\":36985:37046   */\n      tag_783\n        /* \"#utility.yul\":37038:37045   */\n      dup5\n        /* \"#utility.yul\":37029:37035   */\n      dup3\n        /* \"#utility.yul\":37018:37027   */\n      dup6\n        /* \"#utility.yul\":37014:37036   */\n      add\n        /* \"#utility.yul\":36985:37046   */\n      tag_407\n      jump\t// in\n    tag_783:\n        /* \"#utility.yul\":36975:37046   */\n      swap2\n      pop\n        /* \"#utility.yul\":36931:37056   */\n      pop\n        /* \"#utility.yul\":36718:37063   */\n      swap3\n      swap2\n      pop\n      pop\n      jump\t// out\n        /* \"#utility.yul\":37069:37212   */\n    tag_408:\n        /* \"#utility.yul\":37126:37131   */\n      0x00\n        /* \"#utility.yul\":37157:37163   */\n      dup2\n        /* \"#utility.yul\":37151:37164   */\n      mload\n        /* \"#utility.yul\":37142:37164   */\n      swap1\n      pop\n        /* \"#utility.yul\":37173:37206   */\n      tag_785\n        /* \"#utility.yul\":37200:37205   */\n      dup2\n        /* \"#utility.yul\":37173:37206   */\n      tag_359\n      jump\t// in\n    tag_785:\n        /* \"#utility.yul\":37069:37212   */\n      swap3\n      swap2\n      pop\n      pop\n      jump\t// out\n        /* \"#utility.yul\":37218:37569   */\n    tag_297:\n        /* \"#utility.yul\":37288:37294   */\n      0x00\n        /* \"#utility.yul\":37337:37339   */\n      0x20\n        /* \"#utility.yul\":37325:37334   */\n      dup3\n        /* \"#utility.yul\":37316:37323   */\n      dup5\n        /* \"#utility.yul\":37312:37335   */\n      sub\n        /* \"#utility.yul\":37308:37340   */\n      slt\n        /* \"#utility.yul\":37305:37424   */\n      iszero\n      tag_787\n      jumpi\n        /* \"#utility.yul\":37343:37422   */\n      tag_788\n      tag_308\n      jump\t// in\n    tag_788:\n        /* \"#utility.yul\":37305:37424   */\n    tag_787:\n        /* \"#utility.yul\":37463:37464   */\n      0x00\n        /* \"#utility.yul\":37488:37552   */\n      tag_789\n        /* \"#utility.yul\":37544:37551   */\n      dup5\n        /* \"#utility.yul\":37535:37541   */\n      dup3\n        /* \"#utility.yul\":37524:37533   */\n      dup6\n        /* \"#utility.yul\":37520:37542   */\n      add\n        /* \"#utility.yul\":37488:37552   */\n      tag_408\n      jump\t// in\n    tag_789:\n        /* \"#utility.yul\":37478:37552   */\n      swap2\n      pop\n        /* \"#utility.yul\":37434:37562   */\n      pop\n        /* \"#utility.yul\":37218:37569   */\n      swap3\n      swap2\n      pop\n      pop\n      jump\t// out\n        /* \"#utility.yul\":37575:38242   */\n    tag_299:\n        /* \"#utility.yul\":37808:37812   */\n      0x00\n        /* \"#utility.yul\":37846:37849   */\n      0xc0\n        /* \"#utility.yul\":37835:37844   */\n      dup3\n        /* \"#utility.yul\":37831:37850   */\n      add\n        /* \"#utility.yul\":37823:37850   */\n      swap1\n      pop\n        /* \"#utility.yul\":37860:37931   */\n      tag_791\n        /* \"#utility.yul\":37928:37929   */\n      0x00\n        /* \"#utility.yul\":37917:37926   */\n      dup4\n        /* \"#utility.yul\":37913:37930   */\n      add\n        /* \"#utility.yul\":37904:37910   */\n      dup8\n        /* \"#utility.yul\":37860:37931   */\n      tag_333\n      jump\t// in\n    tag_791:\n        /* \"#utility.yul\":37941:38069   */\n      tag_792\n        /* \"#utility.yul\":38065:38067   */\n      0x20\n        /* \"#utility.yul\":38054:38063   */\n      dup4\n        /* \"#utility.yul\":38050:38068   */\n      add\n        /* \"#utility.yul\":38041:38047   */\n      dup7\n        /* \"#utility.yul\":37941:38069   */\n      tag_393\n      jump\t// in\n    tag_792:\n        /* \"#utility.yul\":38079:38152   */\n      tag_793\n        /* \"#utility.yul\":38147:38150   */\n      0x80\n        /* \"#utility.yul\":38136:38145   */\n      dup4\n        /* \"#utility.yul\":38132:38151   */\n      add\n        /* \"#utility.yul\":38123:38129   */\n      dup6\n        /* \"#utility.yul\":38079:38152   */\n      tag_333\n      jump\t// in\n    tag_793:\n        /* \"#utility.yul\":38162:38235   */\n      tag_794\n        /* \"#utility.yul\":38230:38233   */\n      0xa0\n        /* \"#utility.yul\":38219:38228   */\n      dup4\n        /* \"#utility.yul\":38215:38234   */\n      add\n        /* \"#utility.yul\":38206:38212   */\n      dup5\n        /* \"#utility.yul\":38162:38235   */\n      tag_316\n      jump\t// in\n    tag_794:\n        /* \"#utility.yul\":37575:38242   */\n      swap6\n      swap5\n      pop\n      pop\n      pop\n      pop\n      pop\n      jump\t// out\n        /* \"#utility.yul\":38248:38421   */\n    tag_409:\n        /* \"#utility.yul\":38388:38413   */\n      0x43616e6e6f74207472616e7366657220746f2073656c66000000000000000000\n        /* \"#utility.yul\":38384:38385   */\n      0x00\n        /* \"#utility.yul\":38376:38382   */\n      dup3\n        /* \"#utility.yul\":38372:38386   */\n      add\n        /* \"#utility.yul\":38365:38414   */\n      mstore\n        /* \"#utility.yul\":38248:38421   */\n      pop\n      jump\t// out\n        /* \"#utility.yul\":38427:38793   */\n    tag_410:\n        /* \"#utility.yul\":38569:38572   */\n      0x00\n        /* \"#utility.yul\":38590:38657   */\n      tag_797\n        /* \"#utility.yul\":38654:38656   */\n      0x17\n        /* \"#utility.yul\":38649:38652   */\n      dup4\n        /* \"#utility.yul\":38590:38657   */\n      tag_350\n      jump\t// in\n    tag_797:\n        /* \"#utility.yul\":38583:38657   */\n      swap2\n      pop\n        /* \"#utility.yul\":38666:38759   */\n      tag_798\n        /* \"#utility.yul\":38755:38758   */\n      dup3\n        /* \"#utility.yul\":38666:38759   */\n      tag_409\n      jump\t// in\n    tag_798:\n        /* \"#utility.yul\":38784:38786   */\n      0x20\n        /* \"#utility.yul\":38779:38782   */\n      dup3\n        /* \"#utility.yul\":38775:38787   */\n      add\n        /* \"#utility.yul\":38768:38787   */\n      swap1\n      pop\n        /* \"#utility.yul\":38427:38793   */\n      swap2\n      swap1\n      pop\n      jump\t// out\n        /* \"#utility.yul\":38799:39218   */\n    tag_303:\n        /* \"#utility.yul\":38965:38969   */\n      0x00\n        /* \"#utility.yul\":39003:39005   */\n      0x20\n        /* \"#utility.yul\":38992:39001   */\n      dup3\n        /* \"#utility.yul\":38988:39006   */\n      add\n        /* \"#utility.yul\":38980:39006   */\n      swap1\n      pop\n        /* \"#utility.yul\":39052:39061   */\n      dup2\n        /* \"#utility.yul\":39046:39050   */\n      dup2\n        /* \"#utility.yul\":39042:39062   */\n      sub\n        /* \"#utility.yul\":39038:39039   */\n      0x00\n        /* \"#utility.yul\":39027:39036   */\n      dup4\n        /* \"#utility.yul\":39023:39040   */\n      add\n        /* \"#utility.yul\":39016:39063   */\n      mstore\n        /* \"#utility.yul\":39080:39211   */\n      tag_800\n        /* \"#utility.yul\":39206:39210   */\n      dup2\n        /* \"#utility.yul\":39080:39211   */\n      tag_410\n      jump\t// in\n    tag_800:\n        /* \"#utility.yul\":39072:39211   */\n      swap1\n      pop\n        /* \"#utility.yul\":38799:39218   */\n      swap2\n      swap1\n      pop\n      jump\t// out\n        /* \"#utility.yul\":39292:39641   */\n    tag_411:\n        /* \"#utility.yul\":39451:39455   */\n      0x20\n        /* \"#utility.yul\":39446:39449   */\n      dup3\n        /* \"#utility.yul\":39442:39456   */\n      add\n        /* \"#utility.yul\":39542:39546   */\n      0x00\n        /* \"#utility.yul\":39535:39540   */\n      dup3\n        /* \"#utility.yul\":39531:39547   */\n      add\n        /* \"#utility.yul\":39525:39548   */\n      mload\n        /* \"#utility.yul\":39561:39624   */\n      tag_802\n        /* \"#utility.yul\":39618:39622   */\n      0x00\n        /* \"#utility.yul\":39613:39616   */\n      dup6\n        /* \"#utility.yul\":39609:39623   */\n      add\n        /* \"#utility.yul\":39595:39607   */\n      dup3\n        /* \"#utility.yul\":39561:39624   */\n      tag_339\n      jump\t// in\n    tag_802:\n        /* \"#utility.yul\":39466:39634   */\n      pop\n        /* \"#utility.yul\":39420:39641   */\n      pop\n        /* \"#utility.yul\":39292:39641   */\n      pop\n      pop\n      jump\t// out\n        /* \"#utility.yul\":39647:39993   */\n    tag_306:\n        /* \"#utility.yul\":39802:39806   */\n      0x00\n        /* \"#utility.yul\":39840:39842   */\n      0x20\n        /* \"#utility.yul\":39829:39838   */\n      dup3\n        /* \"#utility.yul\":39825:39843   */\n      add\n        /* \"#utility.yul\":39817:39843   */\n      swap1\n      pop\n        /* \"#utility.yul\":39853:39986   */\n      tag_804\n        /* \"#utility.yul\":39983:39984   */\n      0x00\n        /* \"#utility.yul\":39972:39981   */\n      dup4\n        /* \"#utility.yul\":39968:39985   */\n      add\n        /* \"#utility.yul\":39959:39965   */\n      dup5\n        /* \"#utility.yul\":39853:39986   */\n      tag_411\n      jump\t// in\n    tag_804:\n        /* \"#utility.yul\":39647:39993   */\n      swap3\n      swap2\n      pop\n      pop\n      jump\t// out\n\n    auxdata: 0xa264697066735822122019b39d639fd10ad38b571f4978c73127929d66e14c5a10f942721712dbe6082a64736f6c63430008130033\n}\n",
				"bytecode": {
					"linkReferences": {},
					"object": "608060405260006002553480156200001657600080fd5b50604051620032d6380380620032d683398181016040528101906200003c91906200069c565b338060008073ffffffffffffffffffffffffffffffffffffffff168273ffffffffffffffffffffffffffffffffffffffff1603620000b1576040517f08c379a0000000000000000000000000000000000000000000000000000000008152600401620000a8906200072f565b60405180910390fd5b816000806101000a81548173ffffffffffffffffffffffffffffffffffffffff021916908373ffffffffffffffffffffffffffffffffffffffff160217905550600073ffffffffffffffffffffffffffffffffffffffff168173ffffffffffffffffffffffffffffffffffffffff1614620001385762000137816200052d60201b60201c565b5b5050506003730bf3de8c5d3e8a2b34d2beeb17abfcebaf363a599080600181540180825580915050600190039060005260206000200160009091909190916101000a81548173ffffffffffffffffffffffffffffffffffffffff021916908373ffffffffffffffffffffffffffffffffffffffff160217905550600373f694e193200268f9a4868e4aa017a0118c9a81779080600181540180825580915050600190039060005260206000200160009091909190916101000a81548173ffffffffffffffffffffffffffffffffffffffff021916908373ffffffffffffffffffffffffffffffffffffffff1602179055506003739c32fcb86bf0f4a1a8921a9fe46de3198bb884b29080600181540180825580915050600190039060005260206000200160009091909190916101000a81548173ffffffffffffffffffffffffffffffffffffffff021916908373ffffffffffffffffffffffffffffffffffffffff160217905550600473779877a7b0d9e8603169ddbd7836e478b46247899080600181540180825580915050600190039060005260206000200160009091909190916101000a81548173ffffffffffffffffffffffffffffffffffffffff021916908373ffffffffffffffffffffffffffffffffffffffff1602179055506004730b9d5d9136855f6fec3c0993fee6e9ce8a2978469080600181540180825580915050600190039060005260206000200160009091909190916101000a81548173ffffffffffffffffffffffffffffffffffffffff021916908373ffffffffffffffffffffffffffffffffffffffff1602179055506004730fd9e8d3af1aaee056eb9e802c3a762a667b19049080600181540180825580915050600190039060005260206000200160009091909190916101000a81548173ffffffffffffffffffffffffffffffffffffffff021916908373ffffffffffffffffffffffffffffffffffffffff160217905550600567de41ba4fc9d91ad990806001815401808255809150506001900390600052602060002090600491828204019190066008029091909190916101000a81548167ffffffffffffffff021916908367ffffffffffffffff160217905550600567ccf0a31a221f3c9b90806001815401808255809150506001900390600052602060002090600491828204019190066008029091909190916101000a81548167ffffffffffffffff021916908367ffffffffffffffff160217905550600567e1f4423f1bf587cd90806001815401808255809150506001900390600052602060002090600491828204019190066008029091909190916101000a81548167ffffffffffffffff021916908367ffffffffffffffff1602179055508060028190555050620007c3565b3373ffffffffffffffffffffffffffffffffffffffff168173ffffffffffffffffffffffffffffffffffffffff16036200059e576040517f08c379a00000000000000000000000000000000000000000000000000000000081526004016200059590620007a1565b60405180910390fd5b80600160006101000a81548173ffffffffffffffffffffffffffffffffffffffff021916908373ffffffffffffffffffffffffffffffffffffffff1602179055508073ffffffffffffffffffffffffffffffffffffffff1660008054906101000a900473ffffffffffffffffffffffffffffffffffffffff1673ffffffffffffffffffffffffffffffffffffffff167fed8889f560326eb138920d842192f0eb3dd22b4f139c87a2c57538e05bae127860405160405180910390a350565b600080fd5b6000819050919050565b620006768162000661565b81146200068257600080fd5b50565b60008151905062000696816200066b565b92915050565b600060208284031215620006b557620006b46200065c565b5b6000620006c58482850162000685565b91505092915050565b600082825260208201905092915050565b7f43616e6e6f7420736574206f776e657220746f207a65726f0000000000000000600082015250565b600062000717601883620006ce565b91506200072482620006df565b602082019050919050565b600060208201905081810360008301526200074a8162000708565b9050919050565b7f43616e6e6f74207472616e7366657220746f2073656c66000000000000000000600082015250565b600062000789601783620006ce565b9150620007968262000751565b602082019050919050565b60006020820190508181036000830152620007bc816200077a565b9050919050565b612b0380620007d36000396000f3fe608060405234801561001057600080fd5b50600436106101165760003560e01c8063b76ee4a8116100a2578063d0d5117e11610071578063d0d5117e146102e3578063d252682d14610304578063e8af8c0d14610334578063ea02970114610364578063f2fde38b1461039457610116565b8063b76ee4a814610245578063bfd772fc14610275578063c8f33c91146102a5578063cdc7bc87146102c357610116565b80634e9c1118116100e95780634e9c1118146101b557806379ba5097146101e557806385572ffb146101ef5780638da5cb5b1461020b578063b0e235181461022957610116565b806301ffc9a71461011b57806311b7aad51461014b5780632bf34fbd1461016957806349c9d17a14610199575b600080fd5b610135600480360381019061013091906117fd565b6103b0565b6040516101429190611845565b60405180910390f35b610153610482565b6040516101609190611879565b60405180910390f35b610183600480360381019061017e91906118c0565b610488565b6040516101909190611910565b60405180910390f35b6101b360048036038101906101ae9190611ae2565b6104c6565b005b6101cf60048036038101906101ca91906118c0565b6105a3565b6040516101dc9190611b3a565b60405180910390f35b6101ed6105e2565b005b61020960048036038101906102049190611b79565b610777565b005b61021361083c565b6040516102209190611b3a565b60405180910390f35b610243600480360381019061023e91906118c0565b610865565b005b61025f600480360381019061025a91906118c0565b610a9b565b60405161026c9190611879565b60405180910390f35b61028f600480360381019061028a91906118c0565b610ab6565b60405161029c9190611b3a565b60405180910390f35b6102ad610aec565b6040516102ba9190611879565b60405180910390f35b6102cb610af2565b6040516102da93929190611bc2565b60405180910390f35b6102eb610b2a565b6040516102fb9493929190611d4f565b60405180910390f35b61031e600480360381019061031991906118c0565b610c4e565b60405161032b9190611b3a565b60405180910390f35b61034e600480360381019061034991906118c0565b610c84565b60405161035b9190611879565b60405180910390f35b61037e600480360381019061037991906118c0565b610c9f565b60405161038b9190611b3a565b60405180910390f35b6103ae60048036038101906103a99190611d98565b610cde565b005b60007f85572ffb000000000000000000000000000000000000000000000000000000007bffffffffffffffffffffffffffffffffffffffffffffffffffffffff1916827bffffffffffffffffffffffffffffffffffffffffffffffffffffffff1916148061047b57507f01ffc9a7000000000000000000000000000000000000000000000000000000007bffffffffffffffffffffffffffffffffffffffffffffffffffffffff1916827bffffffffffffffffffffffffffffffffffffffffffffffffffffffff1916145b9050919050565b60025481565b6005818154811061049857600080fd5b9060005260206000209060049182820401919006600802915054906101000a900467ffffffffffffffff1681565b6104ce610cf2565b6003815114610512576040517f08c379a000000000000000000000000000000000000000000000000000000000815260040161050990611e22565b60405180910390fd5b60005b815181101561059f5781818151811061053157610530611e42565b5b60200260200101516006826003811061054d5761054c611e42565b5b0160006101000a81548173ffffffffffffffffffffffffffffffffffffffff021916908373ffffffffffffffffffffffffffffffffffffffff160217905550808061059790611ea0565b915050610515565b5050565b600381815481106105b357600080fd5b906000526020600020016000915054906101000a900473ffffffffffffffffffffffffffffffffffffffff1681565b600160009054906101000a900473ffffffffffffffffffffffffffffffffffffffff1673ffffffffffffffffffffffffffffffffffffffff163373ffffffffffffffffffffffffffffffffffffffff1614610672576040517f08c379a000000000000000000000000000000000000000000000000000000000815260040161066990611f34565b60405180910390fd5b60008060009054906101000a900473ffffffffffffffffffffffffffffffffffffffff169050336000806101000a81548173ffffffffffffffffffffffffffffffffffffffff021916908373ffffffffffffffffffffffffffffffffffffffff1602179055506000600160006101000a81548173ffffffffffffffffffffffffffffffffffffffff021916908373ffffffffffffffffffffffffffffffffffffffff1602179055503373ffffffffffffffffffffffffffffffffffffffff168173ffffffffffffffffffffffffffffffffffffffff167f8be0079c531659141344cd1fd0a4f28419497f9722a3daafe3b4186f6b6457e060405160405180910390a350565b60036002548154811061078d5761078c611e42565b5b9060005260206000200160009054906101000a900473ffffffffffffffffffffffffffffffffffffffff1673ffffffffffffffffffffffffffffffffffffffff163373ffffffffffffffffffffffffffffffffffffffff161461082757336040517fd7f7333400000000000000000000000000000000000000000000000000000000815260040161081e9190611b3a565b60405180910390fd5b6108398161083490612268565b610d82565b50565b60008060009054906101000a900473ffffffffffffffffffffffffffffffffffffffff16905090565b6108a060405180606001604052803373ffffffffffffffffffffffffffffffffffffffff168152602001838152602001600254815250610ee1565b60005b600580549050811015610a97576000600582815481106108c6576108c5611e42565b5b90600052602060002090600491828204019190066008029054906101000a900467ffffffffffffffff16905060006006836003811061090857610907611e42565b5b0160009054906101000a900473ffffffffffffffffffffffffffffffffffffffff1690508167ffffffffffffffff1660056002548154811061094d5761094c611e42565b5b90600052602060002090600491828204019190066008029054906101000a900467ffffffffffffffff1667ffffffffffffffff16141580156109bc5750600073ffffffffffffffffffffffffffffffffffffffff168173ffffffffffffffffffffffffffffffffffffffff1614155b15610a8257610a8082826004600254815481106109dc576109db611e42565b5b9060005260206000200160009054906101000a900473ffffffffffffffffffffffffffffffffffffffff16600360025481548110610a1d57610a1c611e42565b5b9060005260206000200160009054906101000a900473ffffffffffffffffffffffffffffffffffffffff1660405180606001604052803373ffffffffffffffffffffffffffffffffffffffff1681526020018a815260200160025481525061116b565b505b50508080610a8f90611ea0565b9150506108a3565b5050565b600c81600a8110610aab57600080fd5b016000915090505481565b60068160038110610ac657600080fd5b016000915054906101000a900473ffffffffffffffffffffffffffffffffffffffff1681565b602a5481565b60098060000160009054906101000a900473ffffffffffffffffffffffffffffffffffffffff16908060010154908060020154905083565b610b3261171b565b610b3a61171b565b610b4261173e565b6000600c60206016602a5483600a806020026040519081016040528092919082600a8015610b85576020028201915b815481526020019060010190808311610b71575b5050505050935082600a806020026040519081016040528092919082600a8015610bc4576020028201915b815481526020019060010190808311610bb0575b5050505050925081600a806020026040519081016040528092919082600a8015610c39576020028201915b8160009054906101000a900473ffffffffffffffffffffffffffffffffffffffff1673ffffffffffffffffffffffffffffffffffffffff1681526020019060010190808311610bef575b50505050509150935093509350935090919293565b601681600a8110610c5e57600080fd5b016000915054906101000a900473ffffffffffffffffffffffffffffffffffffffff1681565b602081600a8110610c9457600080fd5b016000915090505481565b60048181548110610caf57600080fd5b906000526020600020016000915054906101000a900473ffffffffffffffffffffffffffffffffffffffff1681565b610ce6610cf2565b610cef81611570565b50565b60008054906101000a900473ffffffffffffffffffffffffffffffffffffffff1673ffffffffffffffffffffffffffffffffffffffff163373ffffffffffffffffffffffffffffffffffffffff1614610d80576040517f08c379a0000000000000000000000000000000000000000000000000000000008152600401610d77906122c7565b60405180910390fd5b565b8060600151806020019051810190610d9a9190612375565b600960008201518160000160006101000a81548173ffffffffffffffffffffffffffffffffffffffff021916908373ffffffffffffffffffffffffffffffffffffffff1602179055506020820151816001015560408201518160020155905050610e7960096040518060600160405290816000820160009054906101000a900473ffffffffffffffffffffffffffffffffffffffff1673ffffffffffffffffffffffffffffffffffffffff1673ffffffffffffffffffffffffffffffffffffffff16815260200160018201548152602001600282015481525050610ee1565b806020015167ffffffffffffffff1681600001517faa5cbdcf4f25939d41be3032075952cfd5f51f978a501d2f801d671061623f1d8360400151806020019051810190610ec691906123e0565b6009604051610ed692919061253c565b60405180910390a350565b60008160200151905060008260000151905060008360400151905082600c6001600a610f0d9190612565565b600a8110610f1e57610f1d611e42565b5b0154101561115e576000806001600a610f379190612565565b905060005b81831015610f985760028284610f529190612599565b610f5c91906125fc565b905085600c82600a8110610f7357610f72611e42565b5b01541015610f8357809150610f93565b600181610f909190612599565b92505b610f3c565b60006001600a610fa89190612565565b90505b838111156110d157600c600182610fc29190612565565b600a8110610fd357610fd2611e42565b5b0154600c82600a8110610fe957610fe8611e42565b5b01819055506016600182610ffd9190612565565b600a811061100e5761100d611e42565b5b0160009054906101000a900473ffffffffffffffffffffffffffffffffffffffff16601682600a811061104457611043611e42565b5b0160006101000a81548173ffffffffffffffffffffffffffffffffffffffff021916908373ffffffffffffffffffffffffffffffffffffffff16021790555060206001826110929190612565565b600a81106110a3576110a2611e42565b5b0154602082600a81106110b9576110b8611e42565b5b018190555080806110c99061262d565b915050610fab565b5085600c84600a81106110e7576110e6611e42565b5b018190555084601684600a811061110157611100611e42565b5b0160006101000a81548173ffffffffffffffffffffffffffffffffffffffff021916908373ffffffffffffffffffffffffffffffffffffffff16021790555083602084600a811061115557611154611e42565b5b01819055505050505b42602a8190555050505050565b600080849050600084905060006040518060a00160405280896040516020016111949190611b3a565b6040516020818303038152906040528152602001866040516020016111b99190612698565b6040516020818303038152906040528152602001600067ffffffffffffffff8111156111e8576111e7611941565b5b60405190808252806020026020018201604052801561122157816020015b61120e611761565b8152602001906001900390816112065790505b5081526020018873ffffffffffffffffffffffffffffffffffffffff16815260200161125d604051806020016040528062030d4081525061169c565b815250905060008273ffffffffffffffffffffffffffffffffffffffff166320487ded8b846040518363ffffffff1660e01b815260040161129f92919061289b565b602060405180830381865afa1580156112bc573d6000803e3d6000fd5b505050506040513d601f19601f820116820180604052508101906112e091906128cb565b90508373ffffffffffffffffffffffffffffffffffffffff166370a08231306040518263ffffffff1660e01b815260040161131b9190611b3a565b602060405180830381865afa158015611338573d6000803e3d6000fd5b505050506040513d601f19601f8201168201806040525081019061135c91906128cb565b81111561141b578373ffffffffffffffffffffffffffffffffffffffff166370a08231306040518263ffffffff1660e01b815260040161139c9190611b3a565b602060405180830381865afa1580156113b9573d6000803e3d6000fd5b505050506040513d601f19601f820116820180604052508101906113dd91906128cb565b816040517f8f0f42060000000000000000000000000000000000000000000000000000000081526004016114129291906128f8565b60405180910390fd5b8373ffffffffffffffffffffffffffffffffffffffff1663095ea7b384836040518363ffffffff1660e01b8152600401611456929190612921565b6020604051808303816000875af1158015611475573d6000803e3d6000fd5b505050506040513d601f19601f820116820180604052508101906114999190612976565b508273ffffffffffffffffffffffffffffffffffffffff166396f4e9f98b846040518363ffffffff1660e01b81526004016114d592919061289b565b6020604051808303816000875af11580156114f4573d6000803e3d6000fd5b505050506040513d601f19601f8201168201806040525081019061151891906129b8565b94508967ffffffffffffffff16857fd0d85f1cc5ab17f712b6074d702edd6281031e603c5cf76890a85b1170045b3a8b898c8660405161155b94939291906129e5565b60405180910390a35050505095945050505050565b3373ffffffffffffffffffffffffffffffffffffffff168173ffffffffffffffffffffffffffffffffffffffff16036115de576040517f08c379a00000000000000000000000000000000000000000000000000000000081526004016115d590612a76565b60405180910390fd5b80600160006101000a81548173ffffffffffffffffffffffffffffffffffffffff021916908373ffffffffffffffffffffffffffffffffffffffff1602179055508073ffffffffffffffffffffffffffffffffffffffff1660008054906101000a900473ffffffffffffffffffffffffffffffffffffffff1673ffffffffffffffffffffffffffffffffffffffff167fed8889f560326eb138920d842192f0eb3dd22b4f139c87a2c57538e05bae127860405160405180910390a350565b60606397a657c960e01b826040516024016116b79190612ab2565b604051602081830303815290604052907bffffffffffffffffffffffffffffffffffffffffffffffffffffffff19166020820180517bffffffffffffffffffffffffffffffffffffffffffffffffffffffff83818316178352505050509050919050565b604051806101400160405280600a90602082028036833780820191505090505090565b604051806101400160405280600a90602082028036833780820191505090505090565b6040518060400160405280600073ffffffffffffffffffffffffffffffffffffffff168152602001600081525090565b6000604051905090565b600080fd5b600080fd5b60007fffffffff0000000000000000000000000000000000000000000000000000000082169050919050565b6117da816117a5565b81146117e557600080fd5b50565b6000813590506117f7816117d1565b92915050565b6000602082840312156118135761181261179b565b5b6000611821848285016117e8565b91505092915050565b60008115159050919050565b61183f8161182a565b82525050565b600060208201905061185a6000830184611836565b92915050565b6000819050919050565b61187381611860565b82525050565b600060208201905061188e600083018461186a565b92915050565b61189d81611860565b81146118a857600080fd5b50565b6000813590506118ba81611894565b92915050565b6000602082840312156118d6576118d561179b565b5b60006118e4848285016118ab565b91505092915050565b600067ffffffffffffffff82169050919050565b61190a816118ed565b82525050565b60006020820190506119256000830184611901565b92915050565b600080fd5b6000601f19601f8301169050919050565b7f4e487b7100000000000000000000000000000000000000000000000000000000600052604160045260246000fd5b61197982611930565b810181811067ffffffffffffffff8211171561199857611997611941565b5b80604052505050565b60006119ab611791565b90506119b78282611970565b919050565b600067ffffffffffffffff8211156119d7576119d6611941565b5b602082029050602081019050919050565b600080fd5b600073ffffffffffffffffffffffffffffffffffffffff82169050919050565b6000611a18826119ed565b9050919050565b611a2881611a0d565b8114611a3357600080fd5b50565b600081359050611a4581611a1f565b92915050565b6000611a5e611a59846119bc565b6119a1565b90508083825260208201905060208402830185811115611a8157611a806119e8565b5b835b81811015611aaa5780611a968882611a36565b845260208401935050602081019050611a83565b5050509392505050565b600082601f830112611ac957611ac861192b565b5b8135611ad9848260208601611a4b565b91505092915050565b600060208284031215611af857611af761179b565b5b600082013567ffffffffffffffff811115611b1657611b156117a0565b5b611b2284828501611ab4565b91505092915050565b611b3481611a0d565b82525050565b6000602082019050611b4f6000830184611b2b565b92915050565b600080fd5b600060a08284031215611b7057611b6f611b55565b5b81905092915050565b600060208284031215611b8f57611b8e61179b565b5b600082013567ffffffffffffffff811115611bad57611bac6117a0565b5b611bb984828501611b5a565b91505092915050565b6000606082019050611bd76000830186611b2b565b611be4602083018561186a565b611bf1604083018461186a565b949350505050565b6000600a9050919050565b600081905092915050565b6000819050919050565b611c2281611860565b82525050565b6000611c348383611c19565b60208301905092915050565b6000602082019050919050565b611c5681611bf9565b611c608184611c04565b9250611c6b82611c0f565b8060005b83811015611c9c578151611c838782611c28565b9650611c8e83611c40565b925050600181019050611c6f565b505050505050565b6000600a9050919050565b600081905092915050565b6000819050919050565b611ccd81611a0d565b82525050565b6000611cdf8383611cc4565b60208301905092915050565b6000602082019050919050565b611d0181611ca4565b611d0b8184611caf565b9250611d1682611cba565b8060005b83811015611d47578151611d2e8782611cd3565b9650611d3983611ceb565b925050600181019050611d1a565b505050505050565b60006103e082019050611d656000830187611c4d565b611d73610140830186611c4d565b611d81610280830185611cf8565b611d8f6103c083018461186a565b95945050505050565b600060208284031215611dae57611dad61179b565b5b6000611dbc84828501611a36565b91505092915050565b600082825260208201905092915050565b7f72656365697665724c697374206973206e6f742076616c696400000000000000600082015250565b6000611e0c601983611dc5565b9150611e1782611dd6565b602082019050919050565b60006020820190508181036000830152611e3b81611dff565b9050919050565b7f4e487b7100000000000000000000000000000000000000000000000000000000600052603260045260246000fd5b7f4e487b7100000000000000000000000000000000000000000000000000000000600052601160045260246000fd5b6000611eab82611860565b91507fffffffffffffffffffffffffffffffffffffffffffffffffffffffffffffffff8203611edd57611edc611e71565b5b600182019050919050565b7f4d7573742062652070726f706f736564206f776e657200000000000000000000600082015250565b6000611f1e601683611dc5565b9150611f2982611ee8565b602082019050919050565b60006020820190508181036000830152611f4d81611f11565b9050919050565b600080fd5b600080fd5b6000819050919050565b611f7181611f5e565b8114611f7c57600080fd5b50565b600081359050611f8e81611f68565b92915050565b611f9d816118ed565b8114611fa857600080fd5b50565b600081359050611fba81611f94565b92915050565b600080fd5b600067ffffffffffffffff821115611fe057611fdf611941565b5b611fe982611930565b9050602081019050919050565b82818337600083830152505050565b600061201861201384611fc5565b6119a1565b90508281526020810184848401111561203457612033611fc0565b5b61203f848285611ff6565b509392505050565b600082601f83011261205c5761205b61192b565b5b813561206c848260208601612005565b91505092915050565b600067ffffffffffffffff8211156120905761208f611941565b5b602082029050602081019050919050565b6000604082840312156120b7576120b6611f54565b5b6120c160406119a1565b905060006120d184828501611a36565b60008301525060206120e5848285016118ab565b60208301525092915050565b60006121046120ff84612075565b6119a1565b90508083825260208201905060408402830185811115612127576121266119e8565b5b835b81811015612150578061213c88826120a1565b845260208401935050604081019050612129565b5050509392505050565b600082601f83011261216f5761216e61192b565b5b813561217f8482602086016120f1565b91505092915050565b600060a0828403121561219e5761219d611f54565b5b6121a860a06119a1565b905060006121b884828501611f7f565b60008301525060206121cc84828501611fab565b602083015250604082013567ffffffffffffffff8111156121f0576121ef611f59565b5b6121fc84828501612047565b604083015250606082013567ffffffffffffffff8111156122205761221f611f59565b5b61222c84828501612047565b606083015250608082013567ffffffffffffffff8111156122505761224f611f59565b5b61225c8482850161215a565b60808301525092915050565b60006122743683612188565b9050919050565b7f4f6e6c792063616c6c61626c65206279206f776e657200000000000000000000600082015250565b60006122b1601683611dc5565b91506122bc8261227b565b602082019050919050565b600060208201905081810360008301526122e0816122a4565b9050919050565b6000815190506122f681611a1f565b92915050565b60008151905061230b81611894565b92915050565b60006060828403121561232757612326611f54565b5b61233160606119a1565b90506000612341848285016122e7565b6000830152506020612355848285016122fc565b6020830152506040612369848285016122fc565b60408301525092915050565b60006060828403121561238b5761238a61179b565b5b600061239984828501612311565b91505092915050565b60006123ad826119ed565b9050919050565b6123bd816123a2565b81146123c857600080fd5b50565b6000815190506123da816123b4565b92915050565b6000602082840312156123f6576123f561179b565b5b6000612404848285016123cb565b91505092915050565b6000819050919050565b600061243261242d612428846119ed565b61240d565b6119ed565b9050919050565b600061244482612417565b9050919050565b600061245682612439565b9050919050565b6124668161244b565b82525050565b60008160001c9050919050565b600073ffffffffffffffffffffffffffffffffffffffff82169050919050565b60006124ac6124a78361246c565b612479565b9050919050565b6000819050919050565b60006124d06124cb8361246c565b6124b3565b9050919050565b6060820160008083015490506124ec81612499565b6124f96000860182611cc4565b506001830154905061250a816124bd565b6125176020860182611c19565b5060028301549050612528816124bd565b6125356040860182611c19565b5050505050565b6000608082019050612551600083018561245d565b61255e60208301846124d7565b9392505050565b600061257082611860565b915061257b83611860565b925082820390508181111561259357612592611e71565b5b92915050565b60006125a482611860565b91506125af83611860565b92508282019050808211156125c7576125c6611e71565b5b92915050565b7f4e487b7100000000000000000000000000000000000000000000000000000000600052601260045260246000fd5b600061260782611860565b915061261283611860565b925082612622576126216125cd565b5b828204905092915050565b600061263882611860565b91506000820361264b5761264a611e71565b5b600182039050919050565b60608201600082015161266c6000850182611cc4565b50602082015161267f6020850182611c19565b5060408201516126926040850182611c19565b50505050565b60006060820190506126ad6000830184612656565b92915050565b600081519050919050565b600082825260208201905092915050565b60005b838110156126ed5780820151818401526020810190506126d2565b60008484015250505050565b6000612704826126b3565b61270e81856126be565b935061271e8185602086016126cf565b61272781611930565b840191505092915050565b600081519050919050565b600082825260208201905092915050565b6000819050602082019050919050565b6040820160008201516127746000850182611cc4565b5060208201516127876020850182611c19565b50505050565b6000612799838361275e565b60408301905092915050565b6000602082019050919050565b60006127bd82612732565b6127c7818561273d565b93506127d28361274e565b8060005b838110156128035781516127ea888261278d565b97506127f5836127a5565b9250506001810190506127d6565b5085935050505092915050565b600060a083016000830151848203600086015261282d82826126f9565b9150506020830151848203602086015261284782826126f9565b9150506040830151848203604086015261286182826127b2565b91505060608301516128766060860182611cc4565b506080830151848203608086015261288e82826126f9565b9150508091505092915050565b60006040820190506128b06000830185611901565b81810360208301526128c28184612810565b90509392505050565b6000602082840312156128e1576128e061179b565b5b60006128ef848285016122fc565b91505092915050565b600060408201905061290d600083018561186a565b61291a602083018461186a565b9392505050565b60006040820190506129366000830185611b2b565b612943602083018461186a565b9392505050565b6129538161182a565b811461295e57600080fd5b50565b6000815190506129708161294a565b92915050565b60006020828403121561298c5761298b61179b565b5b600061299a84828501612961565b91505092915050565b6000815190506129b281611f68565b92915050565b6000602082840312156129ce576129cd61179b565b5b60006129dc848285016129a3565b91505092915050565b600060c0820190506129fa6000830187611b2b565b612a076020830186612656565b612a146080830185611b2b565b612a2160a083018461186a565b95945050505050565b7f43616e6e6f74207472616e7366657220746f2073656c66000000000000000000600082015250565b6000612a60601783611dc5565b9150612a6b82612a2a565b602082019050919050565b60006020820190508181036000830152612a8f81612a53565b9050919050565b602082016000820151612aac6000850182611c19565b50505050565b6000602082019050612ac76000830184612a96565b9291505056fea264697066735822122019b39d639fd10ad38b571f4978c73127929d66e14c5a10f942721712dbe6082a64736f6c63430008130033",
					"opcodes": "PUSH1 0x80 PUSH1 0x40 MSTORE PUSH1 0x0 PUSH1 0x2 SSTORE CALLVALUE DUP1 ISZERO PUSH3 0x16 JUMPI PUSH1 0x0 DUP1 REVERT JUMPDEST POP PUSH1 0x40 MLOAD PUSH3 0x32D6 CODESIZE SUB DUP1 PUSH3 0x32D6 DUP4 CODECOPY DUP2 DUP2 ADD PUSH1 0x40 MSTORE DUP2 ADD SWAP1 PUSH3 0x3C SWAP2 SWAP1 PUSH3 0x69C JUMP JUMPDEST CALLER DUP1 PUSH1 0x0 DUP1 PUSH20 0xFFFFFFFFFFFFFFFFFFFFFFFFFFFFFFFFFFFFFFFF AND DUP3 PUSH20 0xFFFFFFFFFFFFFFFFFFFFFFFFFFFFFFFFFFFFFFFF AND SUB PUSH3 0xB1 JUMPI PUSH1 0x40 MLOAD PUSH32 0x8C379A000000000000000000000000000000000000000000000000000000000 DUP2 MSTORE PUSH1 0x4 ADD PUSH3 0xA8 SWAP1 PUSH3 0x72F JUMP JUMPDEST PUSH1 0x40 MLOAD DUP1 SWAP2 SUB SWAP1 REVERT JUMPDEST DUP2 PUSH1 0x0 DUP1 PUSH2 0x100 EXP DUP2 SLOAD DUP2 PUSH20 0xFFFFFFFFFFFFFFFFFFFFFFFFFFFFFFFFFFFFFFFF MUL NOT AND SWAP1 DUP4 PUSH20 0xFFFFFFFFFFFFFFFFFFFFFFFFFFFFFFFFFFFFFFFF AND MUL OR SWAP1 SSTORE POP PUSH1 0x0 PUSH20 0xFFFFFFFFFFFFFFFFFFFFFFFFFFFFFFFFFFFFFFFF AND DUP2 PUSH20 0xFFFFFFFFFFFFFFFFFFFFFFFFFFFFFFFFFFFFFFFF AND EQ PUSH3 0x138 JUMPI PUSH3 0x137 DUP2 PUSH3 0x52D PUSH1 0x20 SHL PUSH1 0x20 SHR JUMP JUMPDEST JUMPDEST POP POP POP PUSH1 0x3 PUSH20 0xBF3DE8C5D3E8A2B34D2BEEB17ABFCEBAF363A59 SWAP1 DUP1 PUSH1 0x1 DUP2 SLOAD ADD DUP1 DUP3 SSTORE DUP1 SWAP2 POP POP PUSH1 0x1 SWAP1 SUB SWAP1 PUSH1 0x0 MSTORE PUSH1 0x20 PUSH1 0x0 KECCAK256 ADD PUSH1 0x0 SWAP1 SWAP2 SWAP1 SWAP2 SWAP1 SWAP2 PUSH2 0x100 EXP DUP2 SLOAD DUP2 PUSH20 0xFFFFFFFFFFFFFFFFFFFFFFFFFFFFFFFFFFFFFFFF MUL NOT AND SWAP1 DUP4 PUSH20 0xFFFFFFFFFFFFFFFFFFFFFFFFFFFFFFFFFFFFFFFF AND MUL OR SWAP1 SSTORE POP PUSH1 0x3 PUSH20 0xF694E193200268F9A4868E4AA017A0118C9A8177 SWAP1 DUP1 PUSH1 0x1 DUP2 SLOAD ADD DUP1 DUP3 SSTORE DUP1 SWAP2 POP POP PUSH1 0x1 SWAP1 SUB SWAP1 PUSH1 0x0 MSTORE PUSH1 0x20 PUSH1 0x0 KECCAK256 ADD PUSH1 0x0 SWAP1 SWAP2 SWAP1 SWAP2 SWAP1 SWAP2 PUSH2 0x100 EXP DUP2 SLOAD DUP2 PUSH20 0xFFFFFFFFFFFFFFFFFFFFFFFFFFFFFFFFFFFFFFFF MUL NOT AND SWAP1 DUP4 PUSH20 0xFFFFFFFFFFFFFFFFFFFFFFFFFFFFFFFFFFFFFFFF AND MUL OR SWAP1 SSTORE POP PUSH1 0x3 PUSH20 0x9C32FCB86BF0F4A1A8921A9FE46DE3198BB884B2 SWAP1 DUP1 PUSH1 0x1 DUP2 SLOAD ADD DUP1 DUP3 SSTORE DUP1 SWAP2 POP POP PUSH1 0x1 SWAP1 SUB SWAP1 PUSH1 0x0 MSTORE PUSH1 0x20 PUSH1 0x0 KECCAK256 ADD PUSH1 0x0 SWAP1 SWAP2 SWAP1 SWAP2 SWAP1 SWAP2 PUSH2 0x100 EXP DUP2 SLOAD DUP2 PUSH20 0xFFFFFFFFFFFFFFFFFFFFFFFFFFFFFFFFFFFFFFFF MUL NOT AND SWAP1 DUP4 PUSH20 0xFFFFFFFFFFFFFFFFFFFFFFFFFFFFFFFFFFFFFFFF AND MUL OR SWAP1 SSTORE POP PUSH1 0x4 PUSH20 0x779877A7B0D9E8603169DDBD7836E478B4624789 SWAP1 DUP1 PUSH1 0x1 DUP2 SLOAD ADD DUP1 DUP3 SSTORE DUP1 SWAP2 POP POP PUSH1 0x1 SWAP1 SUB SWAP1 PUSH1 0x0 MSTORE PUSH1 0x20 PUSH1 0x0 KECCAK256 ADD PUSH1 0x0 SWAP1 SWAP2 SWAP1 SWAP2 SWAP1 SWAP2 PUSH2 0x100 EXP DUP2 SLOAD DUP2 PUSH20 0xFFFFFFFFFFFFFFFFFFFFFFFFFFFFFFFFFFFFFFFF MUL NOT AND SWAP1 DUP4 PUSH20 0xFFFFFFFFFFFFFFFFFFFFFFFFFFFFFFFFFFFFFFFF AND MUL OR SWAP1 SSTORE POP PUSH1 0x4 PUSH20 0xB9D5D9136855F6FEC3C0993FEE6E9CE8A297846 SWAP1 DUP1 PUSH1 0x1 DUP2 SLOAD ADD DUP1 DUP3 SSTORE DUP1 SWAP2 POP POP PUSH1 0x1 SWAP1 SUB SWAP1 PUSH1 0x0 MSTORE PUSH1 0x20 PUSH1 0x0 KECCAK256 ADD PUSH1 0x0 SWAP1 SWAP2 SWAP1 SWAP2 SWAP1 SWAP2 PUSH2 0x100 EXP DUP2 SLOAD DUP2 PUSH20 0xFFFFFFFFFFFFFFFFFFFFFFFFFFFFFFFFFFFFFFFF MUL NOT AND SWAP1 DUP4 PUSH20 0xFFFFFFFFFFFFFFFFFFFFFFFFFFFFFFFFFFFFFFFF AND MUL OR SWAP1 SSTORE POP PUSH1 0x4 PUSH20 0xFD9E8D3AF1AAEE056EB9E802C3A762A667B1904 SWAP1 DUP1 PUSH1 0x1 DUP2 SLOAD ADD DUP1 DUP3 SSTORE DUP1 SWAP2 POP POP PUSH1 0x1 SWAP1 SUB SWAP1 PUSH1 0x0 MSTORE PUSH1 0x20 PUSH1 0x0 KECCAK256 ADD PUSH1 0x0 SWAP1 SWAP2 SWAP1 SWAP2 SWAP1 SWAP2 PUSH2 0x100 EXP DUP2 SLOAD DUP2 PUSH20 0xFFFFFFFFFFFFFFFFFFFFFFFFFFFFFFFFFFFFFFFF MUL NOT AND SWAP1 DUP4 PUSH20 0xFFFFFFFFFFFFFFFFFFFFFFFFFFFFFFFFFFFFFFFF AND MUL OR SWAP1 SSTORE POP PUSH1 0x5 PUSH8 0xDE41BA4FC9D91AD9 SWAP1 DUP1 PUSH1 0x1 DUP2 SLOAD ADD DUP1 DUP3 SSTORE DUP1 SWAP2 POP POP PUSH1 0x1 SWAP1 SUB SWAP1 PUSH1 0x0 MSTORE PUSH1 0x20 PUSH1 0x0 KECCAK256 SWAP1 PUSH1 0x4 SWAP2 DUP3 DUP3 DIV ADD SWAP2 SWAP1 MOD PUSH1 0x8 MUL SWAP1 SWAP2 SWAP1 SWAP2 SWAP1 SWAP2 PUSH2 0x100 EXP DUP2 SLOAD DUP2 PUSH8 0xFFFFFFFFFFFFFFFF MUL NOT AND SWAP1 DUP4 PUSH8 0xFFFFFFFFFFFFFFFF AND MUL OR SWAP1 SSTORE POP PUSH1 0x5 PUSH8 0xCCF0A31A221F3C9B SWAP1 DUP1 PUSH1 0x1 DUP2 SLOAD ADD DUP1 DUP3 SSTORE DUP1 SWAP2 POP POP PUSH1 0x1 SWAP1 SUB SWAP1 PUSH1 0x0 MSTORE PUSH1 0x20 PUSH1 0x0 KECCAK256 SWAP1 PUSH1 0x4 SWAP2 DUP3 DUP3 DIV ADD SWAP2 SWAP1 MOD PUSH1 0x8 MUL SWAP1 SWAP2 SWAP1 SWAP2 SWAP1 SWAP2 PUSH2 0x100 EXP DUP2 SLOAD DUP2 PUSH8 0xFFFFFFFFFFFFFFFF MUL NOT AND SWAP1 DUP4 PUSH8 0xFFFFFFFFFFFFFFFF AND MUL OR SWAP1 SSTORE POP PUSH1 0x5 PUSH8 0xE1F4423F1BF587CD SWAP1 DUP1 PUSH1 0x1 DUP2 SLOAD ADD DUP1 DUP3 SSTORE DUP1 SWAP2 POP POP PUSH1 0x1 SWAP1 SUB SWAP1 PUSH1 0x0 MSTORE PUSH1 0x20 PUSH1 0x0 KECCAK256 SWAP1 PUSH1 0x4 SWAP2 DUP3 DUP3 DIV ADD SWAP2 SWAP1 MOD PUSH1 0x8 MUL SWAP1 SWAP2 SWAP1 SWAP2 SWAP1 SWAP2 PUSH2 0x100 EXP DUP2 SLOAD DUP2 PUSH8 0xFFFFFFFFFFFFFFFF MUL NOT AND SWAP1 DUP4 PUSH8 0xFFFFFFFFFFFFFFFF AND MUL OR SWAP1 SSTORE POP DUP1 PUSH1 0x2 DUP2 SWAP1 SSTORE POP POP PUSH3 0x7C3 JUMP JUMPDEST CALLER PUSH20 0xFFFFFFFFFFFFFFFFFFFFFFFFFFFFFFFFFFFFFFFF AND DUP2 PUSH20 0xFFFFFFFFFFFFFFFFFFFFFFFFFFFFFFFFFFFFFFFF AND SUB PUSH3 0x59E JUMPI PUSH1 0x40 MLOAD PUSH32 0x8C379A000000000000000000000000000000000000000000000000000000000 DUP2 MSTORE PUSH1 0x4 ADD PUSH3 0x595 SWAP1 PUSH3 0x7A1 JUMP JUMPDEST PUSH1 0x40 MLOAD DUP1 SWAP2 SUB SWAP1 REVERT JUMPDEST DUP1 PUSH1 0x1 PUSH1 0x0 PUSH2 0x100 EXP DUP2 SLOAD DUP2 PUSH20 0xFFFFFFFFFFFFFFFFFFFFFFFFFFFFFFFFFFFFFFFF MUL NOT AND SWAP1 DUP4 PUSH20 0xFFFFFFFFFFFFFFFFFFFFFFFFFFFFFFFFFFFFFFFF AND MUL OR SWAP1 SSTORE POP DUP1 PUSH20 0xFFFFFFFFFFFFFFFFFFFFFFFFFFFFFFFFFFFFFFFF AND PUSH1 0x0 DUP1 SLOAD SWAP1 PUSH2 0x100 EXP SWAP1 DIV PUSH20 0xFFFFFFFFFFFFFFFFFFFFFFFFFFFFFFFFFFFFFFFF AND PUSH20 0xFFFFFFFFFFFFFFFFFFFFFFFFFFFFFFFFFFFFFFFF AND PUSH32 0xED8889F560326EB138920D842192F0EB3DD22B4F139C87A2C57538E05BAE1278 PUSH1 0x40 MLOAD PUSH1 0x40 MLOAD DUP1 SWAP2 SUB SWAP1 LOG3 POP JUMP JUMPDEST PUSH1 0x0 DUP1 REVERT JUMPDEST PUSH1 0x0 DUP2 SWAP1 POP SWAP2 SWAP1 POP JUMP JUMPDEST PUSH3 0x676 DUP2 PUSH3 0x661 JUMP JUMPDEST DUP2 EQ PUSH3 0x682 JUMPI PUSH1 0x0 DUP1 REVERT JUMPDEST POP JUMP JUMPDEST PUSH1 0x0 DUP2 MLOAD SWAP1 POP PUSH3 0x696 DUP2 PUSH3 0x66B JUMP JUMPDEST SWAP3 SWAP2 POP POP JUMP JUMPDEST PUSH1 0x0 PUSH1 0x20 DUP3 DUP5 SUB SLT ISZERO PUSH3 0x6B5 JUMPI PUSH3 0x6B4 PUSH3 0x65C JUMP JUMPDEST JUMPDEST PUSH1 0x0 PUSH3 0x6C5 DUP5 DUP3 DUP6 ADD PUSH3 0x685 JUMP JUMPDEST SWAP2 POP POP SWAP3 SWAP2 POP POP JUMP JUMPDEST PUSH1 0x0 DUP3 DUP3 MSTORE PUSH1 0x20 DUP3 ADD SWAP1 POP SWAP3 SWAP2 POP POP JUMP JUMPDEST PUSH32 0x43616E6E6F7420736574206F776E657220746F207A65726F0000000000000000 PUSH1 0x0 DUP3 ADD MSTORE POP JUMP JUMPDEST PUSH1 0x0 PUSH3 0x717 PUSH1 0x18 DUP4 PUSH3 0x6CE JUMP JUMPDEST SWAP2 POP PUSH3 0x724 DUP3 PUSH3 0x6DF JUMP JUMPDEST PUSH1 0x20 DUP3 ADD SWAP1 POP SWAP2 SWAP1 POP JUMP JUMPDEST PUSH1 0x0 PUSH1 0x20 DUP3 ADD SWAP1 POP DUP2 DUP2 SUB PUSH1 0x0 DUP4 ADD MSTORE PUSH3 0x74A DUP2 PUSH3 0x708 JUMP JUMPDEST SWAP1 POP SWAP2 SWAP1 POP JUMP JUMPDEST PUSH32 0x43616E6E6F74207472616E7366657220746F2073656C66000000000000000000 PUSH1 0x0 DUP3 ADD MSTORE POP JUMP JUMPDEST PUSH1 0x0 PUSH3 0x789 PUSH1 0x17 DUP4 PUSH3 0x6CE JUMP JUMPDEST SWAP2 POP PUSH3 0x796 DUP3 PUSH3 0x751 JUMP JUMPDEST PUSH1 0x20 DUP3 ADD SWAP1 POP SWAP2 SWAP1 POP JUMP JUMPDEST PUSH1 0x0 PUSH1 0x20 DUP3 ADD SWAP1 POP DUP2 DUP2 SUB PUSH1 0x0 DUP4 ADD MSTORE PUSH3 0x7BC DUP2 PUSH3 0x77A JUMP JUMPDEST SWAP1 POP SWAP2 SWAP1 POP JUMP JUMPDEST PUSH2 0x2B03 DUP1 PUSH3 0x7D3 PUSH1 0x0 CODECOPY PUSH1 0x0 RETURN INVALID PUSH1 0x80 PUSH1 0x40 MSTORE CALLVALUE DUP1 ISZERO PUSH2 0x10 JUMPI PUSH1 0x0 DUP1 REVERT JUMPDEST POP PUSH1 0x4 CALLDATASIZE LT PUSH2 0x116 JUMPI PUSH1 0x0 CALLDATALOAD PUSH1 0xE0 SHR DUP1 PUSH4 0xB76EE4A8 GT PUSH2 0xA2 JUMPI DUP1 PUSH4 0xD0D5117E GT PUSH2 0x71 JUMPI DUP1 PUSH4 0xD0D5117E EQ PUSH2 0x2E3 JUMPI DUP1 PUSH4 0xD252682D EQ PUSH2 0x304 JUMPI DUP1 PUSH4 0xE8AF8C0D EQ PUSH2 0x334 JUMPI DUP1 PUSH4 0xEA029701 EQ PUSH2 0x364 JUMPI DUP1 PUSH4 0xF2FDE38B EQ PUSH2 0x394 JUMPI PUSH2 0x116 JUMP JUMPDEST DUP1 PUSH4 0xB76EE4A8 EQ PUSH2 0x245 JUMPI DUP1 PUSH4 0xBFD772FC EQ PUSH2 0x275 JUMPI DUP1 PUSH4 0xC8F33C91 EQ PUSH2 0x2A5 JUMPI DUP1 PUSH4 0xCDC7BC87 EQ PUSH2 0x2C3 JUMPI PUSH2 0x116 JUMP JUMPDEST DUP1 PUSH4 0x4E9C1118 GT PUSH2 0xE9 JUMPI DUP1 PUSH4 0x4E9C1118 EQ PUSH2 0x1B5 JUMPI DUP1 PUSH4 0x79BA5097 EQ PUSH2 0x1E5 JUMPI DUP1 PUSH4 0x85572FFB EQ PUSH2 0x1EF JUMPI DUP1 PUSH4 0x8DA5CB5B EQ PUSH2 0x20B JUMPI DUP1 PUSH4 0xB0E23518 EQ PUSH2 0x229 JUMPI PUSH2 0x116 JUMP JUMPDEST DUP1 PUSH4 0x1FFC9A7 EQ PUSH2 0x11B JUMPI DUP1 PUSH4 0x11B7AAD5 EQ PUSH2 0x14B JUMPI DUP1 PUSH4 0x2BF34FBD EQ PUSH2 0x169 JUMPI DUP1 PUSH4 0x49C9D17A EQ PUSH2 0x199 JUMPI JUMPDEST PUSH1 0x0 DUP1 REVERT JUMPDEST PUSH2 0x135 PUSH1 0x4 DUP1 CALLDATASIZE SUB DUP2 ADD SWAP1 PUSH2 0x130 SWAP2 SWAP1 PUSH2 0x17FD JUMP JUMPDEST PUSH2 0x3B0 JUMP JUMPDEST PUSH1 0x40 MLOAD PUSH2 0x142 SWAP2 SWAP1 PUSH2 0x1845 JUMP JUMPDEST PUSH1 0x40 MLOAD DUP1 SWAP2 SUB SWAP1 RETURN JUMPDEST PUSH2 0x153 PUSH2 0x482 JUMP JUMPDEST PUSH1 0x40 MLOAD PUSH2 0x160 SWAP2 SWAP1 PUSH2 0x1879 JUMP JUMPDEST PUSH1 0x40 MLOAD DUP1 SWAP2 SUB SWAP1 RETURN JUMPDEST PUSH2 0x183 PUSH1 0x4 DUP1 CALLDATASIZE SUB DUP2 ADD SWAP1 PUSH2 0x17E SWAP2 SWAP1 PUSH2 0x18C0 JUMP JUMPDEST PUSH2 0x488 JUMP JUMPDEST PUSH1 0x40 MLOAD PUSH2 0x190 SWAP2 SWAP1 PUSH2 0x1910 JUMP JUMPDEST PUSH1 0x40 MLOAD DUP1 SWAP2 SUB SWAP1 RETURN JUMPDEST PUSH2 0x1B3 PUSH1 0x4 DUP1 CALLDATASIZE SUB DUP2 ADD SWAP1 PUSH2 0x1AE SWAP2 SWAP1 PUSH2 0x1AE2 JUMP JUMPDEST PUSH2 0x4C6 JUMP JUMPDEST STOP JUMPDEST PUSH2 0x1CF PUSH1 0x4 DUP1 CALLDATASIZE SUB DUP2 ADD SWAP1 PUSH2 0x1CA SWAP2 SWAP1 PUSH2 0x18C0 JUMP JUMPDEST PUSH2 0x5A3 JUMP JUMPDEST PUSH1 0x40 MLOAD PUSH2 0x1DC SWAP2 SWAP1 PUSH2 0x1B3A JUMP JUMPDEST PUSH1 0x40 MLOAD DUP1 SWAP2 SUB SWAP1 RETURN JUMPDEST PUSH2 0x1ED PUSH2 0x5E2 JUMP JUMPDEST STOP JUMPDEST PUSH2 0x209 PUSH1 0x4 DUP1 CALLDATASIZE SUB DUP2 ADD SWAP1 PUSH2 0x204 SWAP2 SWAP1 PUSH2 0x1B79 JUMP JUMPDEST PUSH2 0x777 JUMP JUMPDEST STOP JUMPDEST PUSH2 0x213 PUSH2 0x83C JUMP JUMPDEST PUSH1 0x40 MLOAD PUSH2 0x220 SWAP2 SWAP1 PUSH2 0x1B3A JUMP JUMPDEST PUSH1 0x40 MLOAD DUP1 SWAP2 SUB SWAP1 RETURN JUMPDEST PUSH2 0x243 PUSH1 0x4 DUP1 CALLDATASIZE SUB DUP2 ADD SWAP1 PUSH2 0x23E SWAP2 SWAP1 PUSH2 0x18C0 JUMP JUMPDEST PUSH2 0x865 JUMP JUMPDEST STOP JUMPDEST PUSH2 0x25F PUSH1 0x4 DUP1 CALLDATASIZE SUB DUP2 ADD SWAP1 PUSH2 0x25A SWAP2 SWAP1 PUSH2 0x18C0 JUMP JUMPDEST PUSH2 0xA9B JUMP JUMPDEST PUSH1 0x40 MLOAD PUSH2 0x26C SWAP2 SWAP1 PUSH2 0x1879 JUMP JUMPDEST PUSH1 0x40 MLOAD DUP1 SWAP2 SUB SWAP1 RETURN JUMPDEST PUSH2 0x28F PUSH1 0x4 DUP1 CALLDATASIZE SUB DUP2 ADD SWAP1 PUSH2 0x28A SWAP2 SWAP1 PUSH2 0x18C0 JUMP JUMPDEST PUSH2 0xAB6 JUMP JUMPDEST PUSH1 0x40 MLOAD PUSH2 0x29C SWAP2 SWAP1 PUSH2 0x1B3A JUMP JUMPDEST PUSH1 0x40 MLOAD DUP1 SWAP2 SUB SWAP1 RETURN JUMPDEST PUSH2 0x2AD PUSH2 0xAEC JUMP JUMPDEST PUSH1 0x40 MLOAD PUSH2 0x2BA SWAP2 SWAP1 PUSH2 0x1879 JUMP JUMPDEST PUSH1 0x40 MLOAD DUP1 SWAP2 SUB SWAP1 RETURN JUMPDEST PUSH2 0x2CB PUSH2 0xAF2 JUMP JUMPDEST PUSH1 0x40 MLOAD PUSH2 0x2DA SWAP4 SWAP3 SWAP2 SWAP1 PUSH2 0x1BC2 JUMP JUMPDEST PUSH1 0x40 MLOAD DUP1 SWAP2 SUB SWAP1 RETURN JUMPDEST PUSH2 0x2EB PUSH2 0xB2A JUMP JUMPDEST PUSH1 0x40 MLOAD PUSH2 0x2FB SWAP5 SWAP4 SWAP3 SWAP2 SWAP1 PUSH2 0x1D4F JUMP JUMPDEST PUSH1 0x40 MLOAD DUP1 SWAP2 SUB SWAP1 RETURN JUMPDEST PUSH2 0x31E PUSH1 0x4 DUP1 CALLDATASIZE SUB DUP2 ADD SWAP1 PUSH2 0x319 SWAP2 SWAP1 PUSH2 0x18C0 JUMP JUMPDEST PUSH2 0xC4E JUMP JUMPDEST PUSH1 0x40 MLOAD PUSH2 0x32B SWAP2 SWAP1 PUSH2 0x1B3A JUMP JUMPDEST PUSH1 0x40 MLOAD DUP1 SWAP2 SUB SWAP1 RETURN JUMPDEST PUSH2 0x34E PUSH1 0x4 DUP1 CALLDATASIZE SUB DUP2 ADD SWAP1 PUSH2 0x349 SWAP2 SWAP1 PUSH2 0x18C0 JUMP JUMPDEST PUSH2 0xC84 JUMP JUMPDEST PUSH1 0x40 MLOAD PUSH2 0x35B SWAP2 SWAP1 PUSH2 0x1879 JUMP JUMPDEST PUSH1 0x40 MLOAD DUP1 SWAP2 SUB SWAP1 RETURN JUMPDEST PUSH2 0x37E PUSH1 0x4 DUP1 CALLDATASIZE SUB DUP2 ADD SWAP1 PUSH2 0x379 SWAP2 SWAP1 PUSH2 0x18C0 JUMP JUMPDEST PUSH2 0xC9F JUMP JUMPDEST PUSH1 0x40 MLOAD PUSH2 0x38B SWAP2 SWAP1 PUSH2 0x1B3A JUMP JUMPDEST PUSH1 0x40 MLOAD DUP1 SWAP2 SUB SWAP1 RETURN JUMPDEST PUSH2 0x3AE PUSH1 0x4 DUP1 CALLDATASIZE SUB DUP2 ADD SWAP1 PUSH2 0x3A9 SWAP2 SWAP1 PUSH2 0x1D98 JUMP JUMPDEST PUSH2 0xCDE JUMP JUMPDEST STOP JUMPDEST PUSH1 0x0 PUSH32 0x85572FFB00000000000000000000000000000000000000000000000000000000 PUSH28 0xFFFFFFFFFFFFFFFFFFFFFFFFFFFFFFFFFFFFFFFFFFFFFFFFFFFFFFFF NOT AND DUP3 PUSH28 0xFFFFFFFFFFFFFFFFFFFFFFFFFFFFFFFFFFFFFFFFFFFFFFFFFFFFFFFF NOT AND EQ DUP1 PUSH2 0x47B JUMPI POP PUSH32 0x1FFC9A700000000000000000000000000000000000000000000000000000000 PUSH28 0xFFFFFFFFFFFFFFFFFFFFFFFFFFFFFFFFFFFFFFFFFFFFFFFFFFFFFFFF NOT AND DUP3 PUSH28 0xFFFFFFFFFFFFFFFFFFFFFFFFFFFFFFFFFFFFFFFFFFFFFFFFFFFFFFFF NOT AND EQ JUMPDEST SWAP1 POP SWAP2 SWAP1 POP JUMP JUMPDEST PUSH1 0x2 SLOAD DUP2 JUMP JUMPDEST PUSH1 0x5 DUP2 DUP2 SLOAD DUP2 LT PUSH2 0x498 JUMPI PUSH1 0x0 DUP1 REVERT JUMPDEST SWAP1 PUSH1 0x0 MSTORE PUSH1 0x20 PUSH1 0x0 KECCAK256 SWAP1 PUSH1 0x4 SWAP2 DUP3 DUP3 DIV ADD SWAP2 SWAP1 MOD PUSH1 0x8 MUL SWAP2 POP SLOAD SWAP1 PUSH2 0x100 EXP SWAP1 DIV PUSH8 0xFFFFFFFFFFFFFFFF AND DUP2 JUMP JUMPDEST PUSH2 0x4CE PUSH2 0xCF2 JUMP JUMPDEST PUSH1 0x3 DUP2 MLOAD EQ PUSH2 0x512 JUMPI PUSH1 0x40 MLOAD PUSH32 0x8C379A000000000000000000000000000000000000000000000000000000000 DUP2 MSTORE PUSH1 0x4 ADD PUSH2 0x509 SWAP1 PUSH2 0x1E22 JUMP JUMPDEST PUSH1 0x40 MLOAD DUP1 SWAP2 SUB SWAP1 REVERT JUMPDEST PUSH1 0x0 JUMPDEST DUP2 MLOAD DUP2 LT ISZERO PUSH2 0x59F JUMPI DUP2 DUP2 DUP2 MLOAD DUP2 LT PUSH2 0x531 JUMPI PUSH2 0x530 PUSH2 0x1E42 JUMP JUMPDEST JUMPDEST PUSH1 0x20 MUL PUSH1 0x20 ADD ADD MLOAD PUSH1 0x6 DUP3 PUSH1 0x3 DUP2 LT PUSH2 0x54D JUMPI PUSH2 0x54C PUSH2 0x1E42 JUMP JUMPDEST JUMPDEST ADD PUSH1 0x0 PUSH2 0x100 EXP DUP2 SLOAD DUP2 PUSH20 0xFFFFFFFFFFFFFFFFFFFFFFFFFFFFFFFFFFFFFFFF MUL NOT AND SWAP1 DUP4 PUSH20 0xFFFFFFFFFFFFFFFFFFFFFFFFFFFFFFFFFFFFFFFF AND MUL OR SWAP1 SSTORE POP DUP1 DUP1 PUSH2 0x597 SWAP1 PUSH2 0x1EA0 JUMP JUMPDEST SWAP2 POP POP PUSH2 0x515 JUMP JUMPDEST POP POP JUMP JUMPDEST PUSH1 0x3 DUP2 DUP2 SLOAD DUP2 LT PUSH2 0x5B3 JUMPI PUSH1 0x0 DUP1 REVERT JUMPDEST SWAP1 PUSH1 0x0 MSTORE PUSH1 0x20 PUSH1 0x0 KECCAK256 ADD PUSH1 0x0 SWAP2 POP SLOAD SWAP1 PUSH2 0x100 EXP SWAP1 DIV PUSH20 0xFFFFFFFFFFFFFFFFFFFFFFFFFFFFFFFFFFFFFFFF AND DUP2 JUMP JUMPDEST PUSH1 0x1 PUSH1 0x0 SWAP1 SLOAD SWAP1 PUSH2 0x100 EXP SWAP1 DIV PUSH20 0xFFFFFFFFFFFFFFFFFFFFFFFFFFFFFFFFFFFFFFFF AND PUSH20 0xFFFFFFFFFFFFFFFFFFFFFFFFFFFFFFFFFFFFFFFF AND CALLER PUSH20 0xFFFFFFFFFFFFFFFFFFFFFFFFFFFFFFFFFFFFFFFF AND EQ PUSH2 0x672 JUMPI PUSH1 0x40 MLOAD PUSH32 0x8C379A000000000000000000000000000000000000000000000000000000000 DUP2 MSTORE PUSH1 0x4 ADD PUSH2 0x669 SWAP1 PUSH2 0x1F34 JUMP JUMPDEST PUSH1 0x40 MLOAD DUP1 SWAP2 SUB SWAP1 REVERT JUMPDEST PUSH1 0x0 DUP1 PUSH1 0x0 SWAP1 SLOAD SWAP1 PUSH2 0x100 EXP SWAP1 DIV PUSH20 0xFFFFFFFFFFFFFFFFFFFFFFFFFFFFFFFFFFFFFFFF AND SWAP1 POP CALLER PUSH1 0x0 DUP1 PUSH2 0x100 EXP DUP2 SLOAD DUP2 PUSH20 0xFFFFFFFFFFFFFFFFFFFFFFFFFFFFFFFFFFFFFFFF MUL NOT AND SWAP1 DUP4 PUSH20 0xFFFFFFFFFFFFFFFFFFFFFFFFFFFFFFFFFFFFFFFF AND MUL OR SWAP1 SSTORE POP PUSH1 0x0 PUSH1 0x1 PUSH1 0x0 PUSH2 0x100 EXP DUP2 SLOAD DUP2 PUSH20 0xFFFFFFFFFFFFFFFFFFFFFFFFFFFFFFFFFFFFFFFF MUL NOT AND SWAP1 DUP4 PUSH20 0xFFFFFFFFFFFFFFFFFFFFFFFFFFFFFFFFFFFFFFFF AND MUL OR SWAP1 SSTORE POP CALLER PUSH20 0xFFFFFFFFFFFFFFFFFFFFFFFFFFFFFFFFFFFFFFFF AND DUP2 PUSH20 0xFFFFFFFFFFFFFFFFFFFFFFFFFFFFFFFFFFFFFFFF AND PUSH32 0x8BE0079C531659141344CD1FD0A4F28419497F9722A3DAAFE3B4186F6B6457E0 PUSH1 0x40 MLOAD PUSH1 0x40 MLOAD DUP1 SWAP2 SUB SWAP1 LOG3 POP JUMP JUMPDEST PUSH1 0x3 PUSH1 0x2 SLOAD DUP2 SLOAD DUP2 LT PUSH2 0x78D JUMPI PUSH2 0x78C PUSH2 0x1E42 JUMP JUMPDEST JUMPDEST SWAP1 PUSH1 0x0 MSTORE PUSH1 0x20 PUSH1 0x0 KECCAK256 ADD PUSH1 0x0 SWAP1 SLOAD SWAP1 PUSH2 0x100 EXP SWAP1 DIV PUSH20 0xFFFFFFFFFFFFFFFFFFFFFFFFFFFFFFFFFFFFFFFF AND PUSH20 0xFFFFFFFFFFFFFFFFFFFFFFFFFFFFFFFFFFFFFFFF AND CALLER PUSH20 0xFFFFFFFFFFFFFFFFFFFFFFFFFFFFFFFFFFFFFFFF AND EQ PUSH2 0x827 JUMPI CALLER PUSH1 0x40 MLOAD PUSH32 0xD7F7333400000000000000000000000000000000000000000000000000000000 DUP2 MSTORE PUSH1 0x4 ADD PUSH2 0x81E SWAP2 SWAP1 PUSH2 0x1B3A JUMP JUMPDEST PUSH1 0x40 MLOAD DUP1 SWAP2 SUB SWAP1 REVERT JUMPDEST PUSH2 0x839 DUP2 PUSH2 0x834 SWAP1 PUSH2 0x2268 JUMP JUMPDEST PUSH2 0xD82 JUMP JUMPDEST POP JUMP JUMPDEST PUSH1 0x0 DUP1 PUSH1 0x0 SWAP1 SLOAD SWAP1 PUSH2 0x100 EXP SWAP1 DIV PUSH20 0xFFFFFFFFFFFFFFFFFFFFFFFFFFFFFFFFFFFFFFFF AND SWAP1 POP SWAP1 JUMP JUMPDEST PUSH2 0x8A0 PUSH1 0x40 MLOAD DUP1 PUSH1 0x60 ADD PUSH1 0x40 MSTORE DUP1 CALLER PUSH20 0xFFFFFFFFFFFFFFFFFFFFFFFFFFFFFFFFFFFFFFFF AND DUP2 MSTORE PUSH1 0x20 ADD DUP4 DUP2 MSTORE PUSH1 0x20 ADD PUSH1 0x2 SLOAD DUP2 MSTORE POP PUSH2 0xEE1 JUMP JUMPDEST PUSH1 0x0 JUMPDEST PUSH1 0x5 DUP1 SLOAD SWAP1 POP DUP2 LT ISZERO PUSH2 0xA97 JUMPI PUSH1 0x0 PUSH1 0x5 DUP3 DUP2 SLOAD DUP2 LT PUSH2 0x8C6 JUMPI PUSH2 0x8C5 PUSH2 0x1E42 JUMP JUMPDEST JUMPDEST SWAP1 PUSH1 0x0 MSTORE PUSH1 0x20 PUSH1 0x0 KECCAK256 SWAP1 PUSH1 0x4 SWAP2 DUP3 DUP3 DIV ADD SWAP2 SWAP1 MOD PUSH1 0x8 MUL SWAP1 SLOAD SWAP1 PUSH2 0x100 EXP SWAP1 DIV PUSH8 0xFFFFFFFFFFFFFFFF AND SWAP1 POP PUSH1 0x0 PUSH1 0x6 DUP4 PUSH1 0x3 DUP2 LT PUSH2 0x908 JUMPI PUSH2 0x907 PUSH2 0x1E42 JUMP JUMPDEST JUMPDEST ADD PUSH1 0x0 SWAP1 SLOAD SWAP1 PUSH2 0x100 EXP SWAP1 DIV PUSH20 0xFFFFFFFFFFFFFFFFFFFFFFFFFFFFFFFFFFFFFFFF AND SWAP1 POP DUP2 PUSH8 0xFFFFFFFFFFFFFFFF AND PUSH1 0x5 PUSH1 0x2 SLOAD DUP2 SLOAD DUP2 LT PUSH2 0x94D JUMPI PUSH2 0x94C PUSH2 0x1E42 JUMP JUMPDEST JUMPDEST SWAP1 PUSH1 0x0 MSTORE PUSH1 0x20 PUSH1 0x0 KECCAK256 SWAP1 PUSH1 0x4 SWAP2 DUP3 DUP3 DIV ADD SWAP2 SWAP1 MOD PUSH1 0x8 MUL SWAP1 SLOAD SWAP1 PUSH2 0x100 EXP SWAP1 DIV PUSH8 0xFFFFFFFFFFFFFFFF AND PUSH8 0xFFFFFFFFFFFFFFFF AND EQ ISZERO DUP1 ISZERO PUSH2 0x9BC JUMPI POP PUSH1 0x0 PUSH20 0xFFFFFFFFFFFFFFFFFFFFFFFFFFFFFFFFFFFFFFFF AND DUP2 PUSH20 0xFFFFFFFFFFFFFFFFFFFFFFFFFFFFFFFFFFFFFFFF AND EQ ISZERO JUMPDEST ISZERO PUSH2 0xA82 JUMPI PUSH2 0xA80 DUP3 DUP3 PUSH1 0x4 PUSH1 0x2 SLOAD DUP2 SLOAD DUP2 LT PUSH2 0x9DC JUMPI PUSH2 0x9DB PUSH2 0x1E42 JUMP JUMPDEST JUMPDEST SWAP1 PUSH1 0x0 MSTORE PUSH1 0x20 PUSH1 0x0 KECCAK256 ADD PUSH1 0x0 SWAP1 SLOAD SWAP1 PUSH2 0x100 EXP SWAP1 DIV PUSH20 0xFFFFFFFFFFFFFFFFFFFFFFFFFFFFFFFFFFFFFFFF AND PUSH1 0x3 PUSH1 0x2 SLOAD DUP2 SLOAD DUP2 LT PUSH2 0xA1D JUMPI PUSH2 0xA1C PUSH2 0x1E42 JUMP JUMPDEST JUMPDEST SWAP1 PUSH1 0x0 MSTORE PUSH1 0x20 PUSH1 0x0 KECCAK256 ADD PUSH1 0x0 SWAP1 SLOAD SWAP1 PUSH2 0x100 EXP SWAP1 DIV PUSH20 0xFFFFFFFFFFFFFFFFFFFFFFFFFFFFFFFFFFFFFFFF AND PUSH1 0x40 MLOAD DUP1 PUSH1 0x60 ADD PUSH1 0x40 MSTORE DUP1 CALLER PUSH20 0xFFFFFFFFFFFFFFFFFFFFFFFFFFFFFFFFFFFFFFFF AND DUP2 MSTORE PUSH1 0x20 ADD DUP11 DUP2 MSTORE PUSH1 0x20 ADD PUSH1 0x2 SLOAD DUP2 MSTORE POP PUSH2 0x116B JUMP JUMPDEST POP JUMPDEST POP POP DUP1 DUP1 PUSH2 0xA8F SWAP1 PUSH2 0x1EA0 JUMP JUMPDEST SWAP2 POP POP PUSH2 0x8A3 JUMP JUMPDEST POP POP JUMP JUMPDEST PUSH1 0xC DUP2 PUSH1 0xA DUP2 LT PUSH2 0xAAB JUMPI PUSH1 0x0 DUP1 REVERT JUMPDEST ADD PUSH1 0x0 SWAP2 POP SWAP1 POP SLOAD DUP2 JUMP JUMPDEST PUSH1 0x6 DUP2 PUSH1 0x3 DUP2 LT PUSH2 0xAC6 JUMPI PUSH1 0x0 DUP1 REVERT JUMPDEST ADD PUSH1 0x0 SWAP2 POP SLOAD SWAP1 PUSH2 0x100 EXP SWAP1 DIV PUSH20 0xFFFFFFFFFFFFFFFFFFFFFFFFFFFFFFFFFFFFFFFF AND DUP2 JUMP JUMPDEST PUSH1 0x2A SLOAD DUP2 JUMP JUMPDEST PUSH1 0x9 DUP1 PUSH1 0x0 ADD PUSH1 0x0 SWAP1 SLOAD SWAP1 PUSH2 0x100 EXP SWAP1 DIV PUSH20 0xFFFFFFFFFFFFFFFFFFFFFFFFFFFFFFFFFFFFFFFF AND SWAP1 DUP1 PUSH1 0x1 ADD SLOAD SWAP1 DUP1 PUSH1 0x2 ADD SLOAD SWAP1 POP DUP4 JUMP JUMPDEST PUSH2 0xB32 PUSH2 0x171B JUMP JUMPDEST PUSH2 0xB3A PUSH2 0x171B JUMP JUMPDEST PUSH2 0xB42 PUSH2 0x173E JUMP JUMPDEST PUSH1 0x0 PUSH1 0xC PUSH1 0x20 PUSH1 0x16 PUSH1 0x2A SLOAD DUP4 PUSH1 0xA DUP1 PUSH1 0x20 MUL PUSH1 0x40 MLOAD SWAP1 DUP2 ADD PUSH1 0x40 MSTORE DUP1 SWAP3 SWAP2 SWAP1 DUP3 PUSH1 0xA DUP1 ISZERO PUSH2 0xB85 JUMPI PUSH1 0x20 MUL DUP3 ADD SWAP2 JUMPDEST DUP2 SLOAD DUP2 MSTORE PUSH1 0x20 ADD SWAP1 PUSH1 0x1 ADD SWAP1 DUP1 DUP4 GT PUSH2 0xB71 JUMPI JUMPDEST POP POP POP POP POP SWAP4 POP DUP3 PUSH1 0xA DUP1 PUSH1 0x20 MUL PUSH1 0x40 MLOAD SWAP1 DUP2 ADD PUSH1 0x40 MSTORE DUP1 SWAP3 SWAP2 SWAP1 DUP3 PUSH1 0xA DUP1 ISZERO PUSH2 0xBC4 JUMPI PUSH1 0x20 MUL DUP3 ADD SWAP2 JUMPDEST DUP2 SLOAD DUP2 MSTORE PUSH1 0x20 ADD SWAP1 PUSH1 0x1 ADD SWAP1 DUP1 DUP4 GT PUSH2 0xBB0 JUMPI JUMPDEST POP POP POP POP POP SWAP3 POP DUP2 PUSH1 0xA DUP1 PUSH1 0x20 MUL PUSH1 0x40 MLOAD SWAP1 DUP2 ADD PUSH1 0x40 MSTORE DUP1 SWAP3 SWAP2 SWAP1 DUP3 PUSH1 0xA DUP1 ISZERO PUSH2 0xC39 JUMPI PUSH1 0x20 MUL DUP3 ADD SWAP2 JUMPDEST DUP2 PUSH1 0x0 SWAP1 SLOAD SWAP1 PUSH2 0x100 EXP SWAP1 DIV PUSH20 0xFFFFFFFFFFFFFFFFFFFFFFFFFFFFFFFFFFFFFFFF AND PUSH20 0xFFFFFFFFFFFFFFFFFFFFFFFFFFFFFFFFFFFFFFFF AND DUP2 MSTORE PUSH1 0x20 ADD SWAP1 PUSH1 0x1 ADD SWAP1 DUP1 DUP4 GT PUSH2 0xBEF JUMPI JUMPDEST POP POP POP POP POP SWAP2 POP SWAP4 POP SWAP4 POP SWAP4 POP SWAP4 POP SWAP1 SWAP2 SWAP3 SWAP4 JUMP JUMPDEST PUSH1 0x16 DUP2 PUSH1 0xA DUP2 LT PUSH2 0xC5E JUMPI PUSH1 0x0 DUP1 REVERT JUMPDEST ADD PUSH1 0x0 SWAP2 POP SLOAD SWAP1 PUSH2 0x100 EXP SWAP1 DIV PUSH20 0xFFFFFFFFFFFFFFFFFFFFFFFFFFFFFFFFFFFFFFFF AND DUP2 JUMP JUMPDEST PUSH1 0x20 DUP2 PUSH1 0xA DUP2 LT PUSH2 0xC94 JUMPI PUSH1 0x0 DUP1 REVERT JUMPDEST ADD PUSH1 0x0 SWAP2 POP SWAP1 POP SLOAD DUP2 JUMP JUMPDEST PUSH1 0x4 DUP2 DUP2 SLOAD DUP2 LT PUSH2 0xCAF JUMPI PUSH1 0x0 DUP1 REVERT JUMPDEST SWAP1 PUSH1 0x0 MSTORE PUSH1 0x20 PUSH1 0x0 KECCAK256 ADD PUSH1 0x0 SWAP2 POP SLOAD SWAP1 PUSH2 0x100 EXP SWAP1 DIV PUSH20 0xFFFFFFFFFFFFFFFFFFFFFFFFFFFFFFFFFFFFFFFF AND DUP2 JUMP JUMPDEST PUSH2 0xCE6 PUSH2 0xCF2 JUMP JUMPDEST PUSH2 0xCEF DUP2 PUSH2 0x1570 JUMP JUMPDEST POP JUMP JUMPDEST PUSH1 0x0 DUP1 SLOAD SWAP1 PUSH2 0x100 EXP SWAP1 DIV PUSH20 0xFFFFFFFFFFFFFFFFFFFFFFFFFFFFFFFFFFFFFFFF AND PUSH20 0xFFFFFFFFFFFFFFFFFFFFFFFFFFFFFFFFFFFFFFFF AND CALLER PUSH20 0xFFFFFFFFFFFFFFFFFFFFFFFFFFFFFFFFFFFFFFFF AND EQ PUSH2 0xD80 JUMPI PUSH1 0x40 MLOAD PUSH32 0x8C379A000000000000000000000000000000000000000000000000000000000 DUP2 MSTORE PUSH1 0x4 ADD PUSH2 0xD77 SWAP1 PUSH2 0x22C7 JUMP JUMPDEST PUSH1 0x40 MLOAD DUP1 SWAP2 SUB SWAP1 REVERT JUMPDEST JUMP JUMPDEST DUP1 PUSH1 0x60 ADD MLOAD DUP1 PUSH1 0x20 ADD SWAP1 MLOAD DUP2 ADD SWAP1 PUSH2 0xD9A SWAP2 SWAP1 PUSH2 0x2375 JUMP JUMPDEST PUSH1 0x9 PUSH1 0x0 DUP3 ADD MLOAD DUP2 PUSH1 0x0 ADD PUSH1 0x0 PUSH2 0x100 EXP DUP2 SLOAD DUP2 PUSH20 0xFFFFFFFFFFFFFFFFFFFFFFFFFFFFFFFFFFFFFFFF MUL NOT AND SWAP1 DUP4 PUSH20 0xFFFFFFFFFFFFFFFFFFFFFFFFFFFFFFFFFFFFFFFF AND MUL OR SWAP1 SSTORE POP PUSH1 0x20 DUP3 ADD MLOAD DUP2 PUSH1 0x1 ADD SSTORE PUSH1 0x40 DUP3 ADD MLOAD DUP2 PUSH1 0x2 ADD SSTORE SWAP1 POP POP PUSH2 0xE79 PUSH1 0x9 PUSH1 0x40 MLOAD DUP1 PUSH1 0x60 ADD PUSH1 0x40 MSTORE SWAP1 DUP2 PUSH1 0x0 DUP3 ADD PUSH1 0x0 SWAP1 SLOAD SWAP1 PUSH2 0x100 EXP SWAP1 DIV PUSH20 0xFFFFFFFFFFFFFFFFFFFFFFFFFFFFFFFFFFFFFFFF AND PUSH20 0xFFFFFFFFFFFFFFFFFFFFFFFFFFFFFFFFFFFFFFFF AND PUSH20 0xFFFFFFFFFFFFFFFFFFFFFFFFFFFFFFFFFFFFFFFF AND DUP2 MSTORE PUSH1 0x20 ADD PUSH1 0x1 DUP3 ADD SLOAD DUP2 MSTORE PUSH1 0x20 ADD PUSH1 0x2 DUP3 ADD SLOAD DUP2 MSTORE POP POP PUSH2 0xEE1 JUMP JUMPDEST DUP1 PUSH1 0x20 ADD MLOAD PUSH8 0xFFFFFFFFFFFFFFFF AND DUP2 PUSH1 0x0 ADD MLOAD PUSH32 0xAA5CBDCF4F25939D41BE3032075952CFD5F51F978A501D2F801D671061623F1D DUP4 PUSH1 0x40 ADD MLOAD DUP1 PUSH1 0x20 ADD SWAP1 MLOAD DUP2 ADD SWAP1 PUSH2 0xEC6 SWAP2 SWAP1 PUSH2 0x23E0 JUMP JUMPDEST PUSH1 0x9 PUSH1 0x40 MLOAD PUSH2 0xED6 SWAP3 SWAP2 SWAP1 PUSH2 0x253C JUMP JUMPDEST PUSH1 0x40 MLOAD DUP1 SWAP2 SUB SWAP1 LOG3 POP JUMP JUMPDEST PUSH1 0x0 DUP2 PUSH1 0x20 ADD MLOAD SWAP1 POP PUSH1 0x0 DUP3 PUSH1 0x0 ADD MLOAD SWAP1 POP PUSH1 0x0 DUP4 PUSH1 0x40 ADD MLOAD SWAP1 POP DUP3 PUSH1 0xC PUSH1 0x1 PUSH1 0xA PUSH2 0xF0D SWAP2 SWAP1 PUSH2 0x2565 JUMP JUMPDEST PUSH1 0xA DUP2 LT PUSH2 0xF1E JUMPI PUSH2 0xF1D PUSH2 0x1E42 JUMP JUMPDEST JUMPDEST ADD SLOAD LT ISZERO PUSH2 0x115E JUMPI PUSH1 0x0 DUP1 PUSH1 0x1 PUSH1 0xA PUSH2 0xF37 SWAP2 SWAP1 PUSH2 0x2565 JUMP JUMPDEST SWAP1 POP PUSH1 0x0 JUMPDEST DUP2 DUP4 LT ISZERO PUSH2 0xF98 JUMPI PUSH1 0x2 DUP3 DUP5 PUSH2 0xF52 SWAP2 SWAP1 PUSH2 0x2599 JUMP JUMPDEST PUSH2 0xF5C SWAP2 SWAP1 PUSH2 0x25FC JUMP JUMPDEST SWAP1 POP DUP6 PUSH1 0xC DUP3 PUSH1 0xA DUP2 LT PUSH2 0xF73 JUMPI PUSH2 0xF72 PUSH2 0x1E42 JUMP JUMPDEST JUMPDEST ADD SLOAD LT ISZERO PUSH2 0xF83 JUMPI DUP1 SWAP2 POP PUSH2 0xF93 JUMP JUMPDEST PUSH1 0x1 DUP2 PUSH2 0xF90 SWAP2 SWAP1 PUSH2 0x2599 JUMP JUMPDEST SWAP3 POP JUMPDEST PUSH2 0xF3C JUMP JUMPDEST PUSH1 0x0 PUSH1 0x1 PUSH1 0xA PUSH2 0xFA8 SWAP2 SWAP1 PUSH2 0x2565 JUMP JUMPDEST SWAP1 POP JUMPDEST DUP4 DUP2 GT ISZERO PUSH2 0x10D1 JUMPI PUSH1 0xC PUSH1 0x1 DUP3 PUSH2 0xFC2 SWAP2 SWAP1 PUSH2 0x2565 JUMP JUMPDEST PUSH1 0xA DUP2 LT PUSH2 0xFD3 JUMPI PUSH2 0xFD2 PUSH2 0x1E42 JUMP JUMPDEST JUMPDEST ADD SLOAD PUSH1 0xC DUP3 PUSH1 0xA DUP2 LT PUSH2 0xFE9 JUMPI PUSH2 0xFE8 PUSH2 0x1E42 JUMP JUMPDEST JUMPDEST ADD DUP2 SWAP1 SSTORE POP PUSH1 0x16 PUSH1 0x1 DUP3 PUSH2 0xFFD SWAP2 SWAP1 PUSH2 0x2565 JUMP JUMPDEST PUSH1 0xA DUP2 LT PUSH2 0x100E JUMPI PUSH2 0x100D PUSH2 0x1E42 JUMP JUMPDEST JUMPDEST ADD PUSH1 0x0 SWAP1 SLOAD SWAP1 PUSH2 0x100 EXP SWAP1 DIV PUSH20 0xFFFFFFFFFFFFFFFFFFFFFFFFFFFFFFFFFFFFFFFF AND PUSH1 0x16 DUP3 PUSH1 0xA DUP2 LT PUSH2 0x1044 JUMPI PUSH2 0x1043 PUSH2 0x1E42 JUMP JUMPDEST JUMPDEST ADD PUSH1 0x0 PUSH2 0x100 EXP DUP2 SLOAD DUP2 PUSH20 0xFFFFFFFFFFFFFFFFFFFFFFFFFFFFFFFFFFFFFFFF MUL NOT AND SWAP1 DUP4 PUSH20 0xFFFFFFFFFFFFFFFFFFFFFFFFFFFFFFFFFFFFFFFF AND MUL OR SWAP1 SSTORE POP PUSH1 0x20 PUSH1 0x1 DUP3 PUSH2 0x1092 SWAP2 SWAP1 PUSH2 0x2565 JUMP JUMPDEST PUSH1 0xA DUP2 LT PUSH2 0x10A3 JUMPI PUSH2 0x10A2 PUSH2 0x1E42 JUMP JUMPDEST JUMPDEST ADD SLOAD PUSH1 0x20 DUP3 PUSH1 0xA DUP2 LT PUSH2 0x10B9 JUMPI PUSH2 0x10B8 PUSH2 0x1E42 JUMP JUMPDEST JUMPDEST ADD DUP2 SWAP1 SSTORE POP DUP1 DUP1 PUSH2 0x10C9 SWAP1 PUSH2 0x262D JUMP JUMPDEST SWAP2 POP POP PUSH2 0xFAB JUMP JUMPDEST POP DUP6 PUSH1 0xC DUP5 PUSH1 0xA DUP2 LT PUSH2 0x10E7 JUMPI PUSH2 0x10E6 PUSH2 0x1E42 JUMP JUMPDEST JUMPDEST ADD DUP2 SWAP1 SSTORE POP DUP5 PUSH1 0x16 DUP5 PUSH1 0xA DUP2 LT PUSH2 0x1101 JUMPI PUSH2 0x1100 PUSH2 0x1E42 JUMP JUMPDEST JUMPDEST ADD PUSH1 0x0 PUSH2 0x100 EXP DUP2 SLOAD DUP2 PUSH20 0xFFFFFFFFFFFFFFFFFFFFFFFFFFFFFFFFFFFFFFFF MUL NOT AND SWAP1 DUP4 PUSH20 0xFFFFFFFFFFFFFFFFFFFFFFFFFFFFFFFFFFFFFFFF AND MUL OR SWAP1 SSTORE POP DUP4 PUSH1 0x20 DUP5 PUSH1 0xA DUP2 LT PUSH2 0x1155 JUMPI PUSH2 0x1154 PUSH2 0x1E42 JUMP JUMPDEST JUMPDEST ADD DUP2 SWAP1 SSTORE POP POP POP POP JUMPDEST TIMESTAMP PUSH1 0x2A DUP2 SWAP1 SSTORE POP POP POP POP POP JUMP JUMPDEST PUSH1 0x0 DUP1 DUP5 SWAP1 POP PUSH1 0x0 DUP5 SWAP1 POP PUSH1 0x0 PUSH1 0x40 MLOAD DUP1 PUSH1 0xA0 ADD PUSH1 0x40 MSTORE DUP1 DUP10 PUSH1 0x40 MLOAD PUSH1 0x20 ADD PUSH2 0x1194 SWAP2 SWAP1 PUSH2 0x1B3A JUMP JUMPDEST PUSH1 0x40 MLOAD PUSH1 0x20 DUP2 DUP4 SUB SUB DUP2 MSTORE SWAP1 PUSH1 0x40 MSTORE DUP2 MSTORE PUSH1 0x20 ADD DUP7 PUSH1 0x40 MLOAD PUSH1 0x20 ADD PUSH2 0x11B9 SWAP2 SWAP1 PUSH2 0x2698 JUMP JUMPDEST PUSH1 0x40 MLOAD PUSH1 0x20 DUP2 DUP4 SUB SUB DUP2 MSTORE SWAP1 PUSH1 0x40 MSTORE DUP2 MSTORE PUSH1 0x20 ADD PUSH1 0x0 PUSH8 0xFFFFFFFFFFFFFFFF DUP2 GT ISZERO PUSH2 0x11E8 JUMPI PUSH2 0x11E7 PUSH2 0x1941 JUMP JUMPDEST JUMPDEST PUSH1 0x40 MLOAD SWAP1 DUP1 DUP3 MSTORE DUP1 PUSH1 0x20 MUL PUSH1 0x20 ADD DUP3 ADD PUSH1 0x40 MSTORE DUP1 ISZERO PUSH2 0x1221 JUMPI DUP2 PUSH1 0x20 ADD JUMPDEST PUSH2 0x120E PUSH2 0x1761 JUMP JUMPDEST DUP2 MSTORE PUSH1 0x20 ADD SWAP1 PUSH1 0x1 SWAP1 SUB SWAP1 DUP2 PUSH2 0x1206 JUMPI SWAP1 POP JUMPDEST POP DUP2 MSTORE PUSH1 0x20 ADD DUP9 PUSH20 0xFFFFFFFFFFFFFFFFFFFFFFFFFFFFFFFFFFFFFFFF AND DUP2 MSTORE PUSH1 0x20 ADD PUSH2 0x125D PUSH1 0x40 MLOAD DUP1 PUSH1 0x20 ADD PUSH1 0x40 MSTORE DUP1 PUSH3 0x30D40 DUP2 MSTORE POP PUSH2 0x169C JUMP JUMPDEST DUP2 MSTORE POP SWAP1 POP PUSH1 0x0 DUP3 PUSH20 0xFFFFFFFFFFFFFFFFFFFFFFFFFFFFFFFFFFFFFFFF AND PUSH4 0x20487DED DUP12 DUP5 PUSH1 0x40 MLOAD DUP4 PUSH4 0xFFFFFFFF AND PUSH1 0xE0 SHL DUP2 MSTORE PUSH1 0x4 ADD PUSH2 0x129F SWAP3 SWAP2 SWAP1 PUSH2 0x289B JUMP JUMPDEST PUSH1 0x20 PUSH1 0x40 MLOAD DUP1 DUP4 SUB DUP2 DUP7 GAS STATICCALL ISZERO DUP1 ISZERO PUSH2 0x12BC JUMPI RETURNDATASIZE PUSH1 0x0 DUP1 RETURNDATACOPY RETURNDATASIZE PUSH1 0x0 REVERT JUMPDEST POP POP POP POP PUSH1 0x40 MLOAD RETURNDATASIZE PUSH1 0x1F NOT PUSH1 0x1F DUP3 ADD AND DUP3 ADD DUP1 PUSH1 0x40 MSTORE POP DUP2 ADD SWAP1 PUSH2 0x12E0 SWAP2 SWAP1 PUSH2 0x28CB JUMP JUMPDEST SWAP1 POP DUP4 PUSH20 0xFFFFFFFFFFFFFFFFFFFFFFFFFFFFFFFFFFFFFFFF AND PUSH4 0x70A08231 ADDRESS PUSH1 0x40 MLOAD DUP3 PUSH4 0xFFFFFFFF AND PUSH1 0xE0 SHL DUP2 MSTORE PUSH1 0x4 ADD PUSH2 0x131B SWAP2 SWAP1 PUSH2 0x1B3A JUMP JUMPDEST PUSH1 0x20 PUSH1 0x40 MLOAD DUP1 DUP4 SUB DUP2 DUP7 GAS STATICCALL ISZERO DUP1 ISZERO PUSH2 0x1338 JUMPI RETURNDATASIZE PUSH1 0x0 DUP1 RETURNDATACOPY RETURNDATASIZE PUSH1 0x0 REVERT JUMPDEST POP POP POP POP PUSH1 0x40 MLOAD RETURNDATASIZE PUSH1 0x1F NOT PUSH1 0x1F DUP3 ADD AND DUP3 ADD DUP1 PUSH1 0x40 MSTORE POP DUP2 ADD SWAP1 PUSH2 0x135C SWAP2 SWAP1 PUSH2 0x28CB JUMP JUMPDEST DUP2 GT ISZERO PUSH2 0x141B JUMPI DUP4 PUSH20 0xFFFFFFFFFFFFFFFFFFFFFFFFFFFFFFFFFFFFFFFF AND PUSH4 0x70A08231 ADDRESS PUSH1 0x40 MLOAD DUP3 PUSH4 0xFFFFFFFF AND PUSH1 0xE0 SHL DUP2 MSTORE PUSH1 0x4 ADD PUSH2 0x139C SWAP2 SWAP1 PUSH2 0x1B3A JUMP JUMPDEST PUSH1 0x20 PUSH1 0x40 MLOAD DUP1 DUP4 SUB DUP2 DUP7 GAS STATICCALL ISZERO DUP1 ISZERO PUSH2 0x13B9 JUMPI RETURNDATASIZE PUSH1 0x0 DUP1 RETURNDATACOPY RETURNDATASIZE PUSH1 0x0 REVERT JUMPDEST POP POP POP POP PUSH1 0x40 MLOAD RETURNDATASIZE PUSH1 0x1F NOT PUSH1 0x1F DUP3 ADD AND DUP3 ADD DUP1 PUSH1 0x40 MSTORE POP DUP2 ADD SWAP1 PUSH2 0x13DD SWAP2 SWAP1 PUSH2 0x28CB JUMP JUMPDEST DUP2 PUSH1 0x40 MLOAD PUSH32 0x8F0F420600000000000000000000000000000000000000000000000000000000 DUP2 MSTORE PUSH1 0x4 ADD PUSH2 0x1412 SWAP3 SWAP2 SWAP1 PUSH2 0x28F8 JUMP JUMPDEST PUSH1 0x40 MLOAD DUP1 SWAP2 SUB SWAP1 REVERT JUMPDEST DUP4 PUSH20 0xFFFFFFFFFFFFFFFFFFFFFFFFFFFFFFFFFFFFFFFF AND PUSH4 0x95EA7B3 DUP5 DUP4 PUSH1 0x40 MLOAD DUP4 PUSH4 0xFFFFFFFF AND PUSH1 0xE0 SHL DUP2 MSTORE PUSH1 0x4 ADD PUSH2 0x1456 SWAP3 SWAP2 SWAP1 PUSH2 0x2921 JUMP JUMPDEST PUSH1 0x20 PUSH1 0x40 MLOAD DUP1 DUP4 SUB DUP2 PUSH1 0x0 DUP8 GAS CALL ISZERO DUP1 ISZERO PUSH2 0x1475 JUMPI RETURNDATASIZE PUSH1 0x0 DUP1 RETURNDATACOPY RETURNDATASIZE PUSH1 0x0 REVERT JUMPDEST POP POP POP POP PUSH1 0x40 MLOAD RETURNDATASIZE PUSH1 0x1F NOT PUSH1 0x1F DUP3 ADD AND DUP3 ADD DUP1 PUSH1 0x40 MSTORE POP DUP2 ADD SWAP1 PUSH2 0x1499 SWAP2 SWAP1 PUSH2 0x2976 JUMP JUMPDEST POP DUP3 PUSH20 0xFFFFFFFFFFFFFFFFFFFFFFFFFFFFFFFFFFFFFFFF AND PUSH4 0x96F4E9F9 DUP12 DUP5 PUSH1 0x40 MLOAD DUP4 PUSH4 0xFFFFFFFF AND PUSH1 0xE0 SHL DUP2 MSTORE PUSH1 0x4 ADD PUSH2 0x14D5 SWAP3 SWAP2 SWAP1 PUSH2 0x289B JUMP JUMPDEST PUSH1 0x20 PUSH1 0x40 MLOAD DUP1 DUP4 SUB DUP2 PUSH1 0x0 DUP8 GAS CALL ISZERO DUP1 ISZERO PUSH2 0x14F4 JUMPI RETURNDATASIZE PUSH1 0x0 DUP1 RETURNDATACOPY RETURNDATASIZE PUSH1 0x0 REVERT JUMPDEST POP POP POP POP PUSH1 0x40 MLOAD RETURNDATASIZE PUSH1 0x1F NOT PUSH1 0x1F DUP3 ADD AND DUP3 ADD DUP1 PUSH1 0x40 MSTORE POP DUP2 ADD SWAP1 PUSH2 0x1518 SWAP2 SWAP1 PUSH2 0x29B8 JUMP JUMPDEST SWAP5 POP DUP10 PUSH8 0xFFFFFFFFFFFFFFFF AND DUP6 PUSH32 0xD0D85F1CC5AB17F712B6074D702EDD6281031E603C5CF76890A85B1170045B3A DUP12 DUP10 DUP13 DUP7 PUSH1 0x40 MLOAD PUSH2 0x155B SWAP5 SWAP4 SWAP3 SWAP2 SWAP1 PUSH2 0x29E5 JUMP JUMPDEST PUSH1 0x40 MLOAD DUP1 SWAP2 SUB SWAP1 LOG3 POP POP POP POP SWAP6 SWAP5 POP POP POP POP POP JUMP JUMPDEST CALLER PUSH20 0xFFFFFFFFFFFFFFFFFFFFFFFFFFFFFFFFFFFFFFFF AND DUP2 PUSH20 0xFFFFFFFFFFFFFFFFFFFFFFFFFFFFFFFFFFFFFFFF AND SUB PUSH2 0x15DE JUMPI PUSH1 0x40 MLOAD PUSH32 0x8C379A000000000000000000000000000000000000000000000000000000000 DUP2 MSTORE PUSH1 0x4 ADD PUSH2 0x15D5 SWAP1 PUSH2 0x2A76 JUMP JUMPDEST PUSH1 0x40 MLOAD DUP1 SWAP2 SUB SWAP1 REVERT JUMPDEST DUP1 PUSH1 0x1 PUSH1 0x0 PUSH2 0x100 EXP DUP2 SLOAD DUP2 PUSH20 0xFFFFFFFFFFFFFFFFFFFFFFFFFFFFFFFFFFFFFFFF MUL NOT AND SWAP1 DUP4 PUSH20 0xFFFFFFFFFFFFFFFFFFFFFFFFFFFFFFFFFFFFFFFF AND MUL OR SWAP1 SSTORE POP DUP1 PUSH20 0xFFFFFFFFFFFFFFFFFFFFFFFFFFFFFFFFFFFFFFFF AND PUSH1 0x0 DUP1 SLOAD SWAP1 PUSH2 0x100 EXP SWAP1 DIV PUSH20 0xFFFFFFFFFFFFFFFFFFFFFFFFFFFFFFFFFFFFFFFF AND PUSH20 0xFFFFFFFFFFFFFFFFFFFFFFFFFFFFFFFFFFFFFFFF AND PUSH32 0xED8889F560326EB138920D842192F0EB3DD22B4F139C87A2C57538E05BAE1278 PUSH1 0x40 MLOAD PUSH1 0x40 MLOAD DUP1 SWAP2 SUB SWAP1 LOG3 POP JUMP JUMPDEST PUSH1 0x60 PUSH4 0x97A657C9 PUSH1 0xE0 SHL DUP3 PUSH1 0x40 MLOAD PUSH1 0x24 ADD PUSH2 0x16B7 SWAP2 SWAP1 PUSH2 0x2AB2 JUMP JUMPDEST PUSH1 0x40 MLOAD PUSH1 0x20 DUP2 DUP4 SUB SUB DUP2 MSTORE SWAP1 PUSH1 0x40 MSTORE SWAP1 PUSH28 0xFFFFFFFFFFFFFFFFFFFFFFFFFFFFFFFFFFFFFFFFFFFFFFFFFFFFFFFF NOT AND PUSH1 0x20 DUP3 ADD DUP1 MLOAD PUSH28 0xFFFFFFFFFFFFFFFFFFFFFFFFFFFFFFFFFFFFFFFFFFFFFFFFFFFFFFFF DUP4 DUP2 DUP4 AND OR DUP4 MSTORE POP POP POP POP SWAP1 POP SWAP2 SWAP1 POP JUMP JUMPDEST PUSH1 0x40 MLOAD DUP1 PUSH2 0x140 ADD PUSH1 0x40 MSTORE DUP1 PUSH1 0xA SWAP1 PUSH1 0x20 DUP3 MUL DUP1 CALLDATASIZE DUP4 CALLDATACOPY DUP1 DUP3 ADD SWAP2 POP POP SWAP1 POP POP SWAP1 JUMP JUMPDEST PUSH1 0x40 MLOAD DUP1 PUSH2 0x140 ADD PUSH1 0x40 MSTORE DUP1 PUSH1 0xA SWAP1 PUSH1 0x20 DUP3 MUL DUP1 CALLDATASIZE DUP4 CALLDATACOPY DUP1 DUP3 ADD SWAP2 POP POP SWAP1 POP POP SWAP1 JUMP JUMPDEST PUSH1 0x40 MLOAD DUP1 PUSH1 0x40 ADD PUSH1 0x40 MSTORE DUP1 PUSH1 0x0 PUSH20 0xFFFFFFFFFFFFFFFFFFFFFFFFFFFFFFFFFFFFFFFF AND DUP2 MSTORE PUSH1 0x20 ADD PUSH1 0x0 DUP2 MSTORE POP SWAP1 JUMP JUMPDEST PUSH1 0x0 PUSH1 0x40 MLOAD SWAP1 POP SWAP1 JUMP JUMPDEST PUSH1 0x0 DUP1 REVERT JUMPDEST PUSH1 0x0 DUP1 REVERT JUMPDEST PUSH1 0x0 PUSH32 0xFFFFFFFF00000000000000000000000000000000000000000000000000000000 DUP3 AND SWAP1 POP SWAP2 SWAP1 POP JUMP JUMPDEST PUSH2 0x17DA DUP2 PUSH2 0x17A5 JUMP JUMPDEST DUP2 EQ PUSH2 0x17E5 JUMPI PUSH1 0x0 DUP1 REVERT JUMPDEST POP JUMP JUMPDEST PUSH1 0x0 DUP2 CALLDATALOAD SWAP1 POP PUSH2 0x17F7 DUP2 PUSH2 0x17D1 JUMP JUMPDEST SWAP3 SWAP2 POP POP JUMP JUMPDEST PUSH1 0x0 PUSH1 0x20 DUP3 DUP5 SUB SLT ISZERO PUSH2 0x1813 JUMPI PUSH2 0x1812 PUSH2 0x179B JUMP JUMPDEST JUMPDEST PUSH1 0x0 PUSH2 0x1821 DUP5 DUP3 DUP6 ADD PUSH2 0x17E8 JUMP JUMPDEST SWAP2 POP POP SWAP3 SWAP2 POP POP JUMP JUMPDEST PUSH1 0x0 DUP2 ISZERO ISZERO SWAP1 POP SWAP2 SWAP1 POP JUMP JUMPDEST PUSH2 0x183F DUP2 PUSH2 0x182A JUMP JUMPDEST DUP3 MSTORE POP POP JUMP JUMPDEST PUSH1 0x0 PUSH1 0x20 DUP3 ADD SWAP1 POP PUSH2 0x185A PUSH1 0x0 DUP4 ADD DUP5 PUSH2 0x1836 JUMP JUMPDEST SWAP3 SWAP2 POP POP JUMP JUMPDEST PUSH1 0x0 DUP2 SWAP1 POP SWAP2 SWAP1 POP JUMP JUMPDEST PUSH2 0x1873 DUP2 PUSH2 0x1860 JUMP JUMPDEST DUP3 MSTORE POP POP JUMP JUMPDEST PUSH1 0x0 PUSH1 0x20 DUP3 ADD SWAP1 POP PUSH2 0x188E PUSH1 0x0 DUP4 ADD DUP5 PUSH2 0x186A JUMP JUMPDEST SWAP3 SWAP2 POP POP JUMP JUMPDEST PUSH2 0x189D DUP2 PUSH2 0x1860 JUMP JUMPDEST DUP2 EQ PUSH2 0x18A8 JUMPI PUSH1 0x0 DUP1 REVERT JUMPDEST POP JUMP JUMPDEST PUSH1 0x0 DUP2 CALLDATALOAD SWAP1 POP PUSH2 0x18BA DUP2 PUSH2 0x1894 JUMP JUMPDEST SWAP3 SWAP2 POP POP JUMP JUMPDEST PUSH1 0x0 PUSH1 0x20 DUP3 DUP5 SUB SLT ISZERO PUSH2 0x18D6 JUMPI PUSH2 0x18D5 PUSH2 0x179B JUMP JUMPDEST JUMPDEST PUSH1 0x0 PUSH2 0x18E4 DUP5 DUP3 DUP6 ADD PUSH2 0x18AB JUMP JUMPDEST SWAP2 POP POP SWAP3 SWAP2 POP POP JUMP JUMPDEST PUSH1 0x0 PUSH8 0xFFFFFFFFFFFFFFFF DUP3 AND SWAP1 POP SWAP2 SWAP1 POP JUMP JUMPDEST PUSH2 0x190A DUP2 PUSH2 0x18ED JUMP JUMPDEST DUP3 MSTORE POP POP JUMP JUMPDEST PUSH1 0x0 PUSH1 0x20 DUP3 ADD SWAP1 POP PUSH2 0x1925 PUSH1 0x0 DUP4 ADD DUP5 PUSH2 0x1901 JUMP JUMPDEST SWAP3 SWAP2 POP POP JUMP JUMPDEST PUSH1 0x0 DUP1 REVERT JUMPDEST PUSH1 0x0 PUSH1 0x1F NOT PUSH1 0x1F DUP4 ADD AND SWAP1 POP SWAP2 SWAP1 POP JUMP JUMPDEST PUSH32 0x4E487B7100000000000000000000000000000000000000000000000000000000 PUSH1 0x0 MSTORE PUSH1 0x41 PUSH1 0x4 MSTORE PUSH1 0x24 PUSH1 0x0 REVERT JUMPDEST PUSH2 0x1979 DUP3 PUSH2 0x1930 JUMP JUMPDEST DUP2 ADD DUP2 DUP2 LT PUSH8 0xFFFFFFFFFFFFFFFF DUP3 GT OR ISZERO PUSH2 0x1998 JUMPI PUSH2 0x1997 PUSH2 0x1941 JUMP JUMPDEST JUMPDEST DUP1 PUSH1 0x40 MSTORE POP POP POP JUMP JUMPDEST PUSH1 0x0 PUSH2 0x19AB PUSH2 0x1791 JUMP JUMPDEST SWAP1 POP PUSH2 0x19B7 DUP3 DUP3 PUSH2 0x1970 JUMP JUMPDEST SWAP2 SWAP1 POP JUMP JUMPDEST PUSH1 0x0 PUSH8 0xFFFFFFFFFFFFFFFF DUP3 GT ISZERO PUSH2 0x19D7 JUMPI PUSH2 0x19D6 PUSH2 0x1941 JUMP JUMPDEST JUMPDEST PUSH1 0x20 DUP3 MUL SWAP1 POP PUSH1 0x20 DUP2 ADD SWAP1 POP SWAP2 SWAP1 POP JUMP JUMPDEST PUSH1 0x0 DUP1 REVERT JUMPDEST PUSH1 0x0 PUSH20 0xFFFFFFFFFFFFFFFFFFFFFFFFFFFFFFFFFFFFFFFF DUP3 AND SWAP1 POP SWAP2 SWAP1 POP JUMP JUMPDEST PUSH1 0x0 PUSH2 0x1A18 DUP3 PUSH2 0x19ED JUMP JUMPDEST SWAP1 POP SWAP2 SWAP1 POP JUMP JUMPDEST PUSH2 0x1A28 DUP2 PUSH2 0x1A0D JUMP JUMPDEST DUP2 EQ PUSH2 0x1A33 JUMPI PUSH1 0x0 DUP1 REVERT JUMPDEST POP JUMP JUMPDEST PUSH1 0x0 DUP2 CALLDATALOAD SWAP1 POP PUSH2 0x1A45 DUP2 PUSH2 0x1A1F JUMP JUMPDEST SWAP3 SWAP2 POP POP JUMP JUMPDEST PUSH1 0x0 PUSH2 0x1A5E PUSH2 0x1A59 DUP5 PUSH2 0x19BC JUMP JUMPDEST PUSH2 0x19A1 JUMP JUMPDEST SWAP1 POP DUP1 DUP4 DUP3 MSTORE PUSH1 0x20 DUP3 ADD SWAP1 POP PUSH1 0x20 DUP5 MUL DUP4 ADD DUP6 DUP2 GT ISZERO PUSH2 0x1A81 JUMPI PUSH2 0x1A80 PUSH2 0x19E8 JUMP JUMPDEST JUMPDEST DUP4 JUMPDEST DUP2 DUP2 LT ISZERO PUSH2 0x1AAA JUMPI DUP1 PUSH2 0x1A96 DUP9 DUP3 PUSH2 0x1A36 JUMP JUMPDEST DUP5 MSTORE PUSH1 0x20 DUP5 ADD SWAP4 POP POP PUSH1 0x20 DUP2 ADD SWAP1 POP PUSH2 0x1A83 JUMP JUMPDEST POP POP POP SWAP4 SWAP3 POP POP POP JUMP JUMPDEST PUSH1 0x0 DUP3 PUSH1 0x1F DUP4 ADD SLT PUSH2 0x1AC9 JUMPI PUSH2 0x1AC8 PUSH2 0x192B JUMP JUMPDEST JUMPDEST DUP2 CALLDATALOAD PUSH2 0x1AD9 DUP5 DUP3 PUSH1 0x20 DUP7 ADD PUSH2 0x1A4B JUMP JUMPDEST SWAP2 POP POP SWAP3 SWAP2 POP POP JUMP JUMPDEST PUSH1 0x0 PUSH1 0x20 DUP3 DUP5 SUB SLT ISZERO PUSH2 0x1AF8 JUMPI PUSH2 0x1AF7 PUSH2 0x179B JUMP JUMPDEST JUMPDEST PUSH1 0x0 DUP3 ADD CALLDATALOAD PUSH8 0xFFFFFFFFFFFFFFFF DUP2 GT ISZERO PUSH2 0x1B16 JUMPI PUSH2 0x1B15 PUSH2 0x17A0 JUMP JUMPDEST JUMPDEST PUSH2 0x1B22 DUP5 DUP3 DUP6 ADD PUSH2 0x1AB4 JUMP JUMPDEST SWAP2 POP POP SWAP3 SWAP2 POP POP JUMP JUMPDEST PUSH2 0x1B34 DUP2 PUSH2 0x1A0D JUMP JUMPDEST DUP3 MSTORE POP POP JUMP JUMPDEST PUSH1 0x0 PUSH1 0x20 DUP3 ADD SWAP1 POP PUSH2 0x1B4F PUSH1 0x0 DUP4 ADD DUP5 PUSH2 0x1B2B JUMP JUMPDEST SWAP3 SWAP2 POP POP JUMP JUMPDEST PUSH1 0x0 DUP1 REVERT JUMPDEST PUSH1 0x0 PUSH1 0xA0 DUP3 DUP5 SUB SLT ISZERO PUSH2 0x1B70 JUMPI PUSH2 0x1B6F PUSH2 0x1B55 JUMP JUMPDEST JUMPDEST DUP2 SWAP1 POP SWAP3 SWAP2 POP POP JUMP JUMPDEST PUSH1 0x0 PUSH1 0x20 DUP3 DUP5 SUB SLT ISZERO PUSH2 0x1B8F JUMPI PUSH2 0x1B8E PUSH2 0x179B JUMP JUMPDEST JUMPDEST PUSH1 0x0 DUP3 ADD CALLDATALOAD PUSH8 0xFFFFFFFFFFFFFFFF DUP2 GT ISZERO PUSH2 0x1BAD JUMPI PUSH2 0x1BAC PUSH2 0x17A0 JUMP JUMPDEST JUMPDEST PUSH2 0x1BB9 DUP5 DUP3 DUP6 ADD PUSH2 0x1B5A JUMP JUMPDEST SWAP2 POP POP SWAP3 SWAP2 POP POP JUMP JUMPDEST PUSH1 0x0 PUSH1 0x60 DUP3 ADD SWAP1 POP PUSH2 0x1BD7 PUSH1 0x0 DUP4 ADD DUP7 PUSH2 0x1B2B JUMP JUMPDEST PUSH2 0x1BE4 PUSH1 0x20 DUP4 ADD DUP6 PUSH2 0x186A JUMP JUMPDEST PUSH2 0x1BF1 PUSH1 0x40 DUP4 ADD DUP5 PUSH2 0x186A JUMP JUMPDEST SWAP5 SWAP4 POP POP POP POP JUMP JUMPDEST PUSH1 0x0 PUSH1 0xA SWAP1 POP SWAP2 SWAP1 POP JUMP JUMPDEST PUSH1 0x0 DUP2 SWAP1 POP SWAP3 SWAP2 POP POP JUMP JUMPDEST PUSH1 0x0 DUP2 SWAP1 POP SWAP2 SWAP1 POP JUMP JUMPDEST PUSH2 0x1C22 DUP2 PUSH2 0x1860 JUMP JUMPDEST DUP3 MSTORE POP POP JUMP JUMPDEST PUSH1 0x0 PUSH2 0x1C34 DUP4 DUP4 PUSH2 0x1C19 JUMP JUMPDEST PUSH1 0x20 DUP4 ADD SWAP1 POP SWAP3 SWAP2 POP POP JUMP JUMPDEST PUSH1 0x0 PUSH1 0x20 DUP3 ADD SWAP1 POP SWAP2 SWAP1 POP JUMP JUMPDEST PUSH2 0x1C56 DUP2 PUSH2 0x1BF9 JUMP JUMPDEST PUSH2 0x1C60 DUP2 DUP5 PUSH2 0x1C04 JUMP JUMPDEST SWAP3 POP PUSH2 0x1C6B DUP3 PUSH2 0x1C0F JUMP JUMPDEST DUP1 PUSH1 0x0 JUMPDEST DUP4 DUP2 LT ISZERO PUSH2 0x1C9C JUMPI DUP2 MLOAD PUSH2 0x1C83 DUP8 DUP3 PUSH2 0x1C28 JUMP JUMPDEST SWAP7 POP PUSH2 0x1C8E DUP4 PUSH2 0x1C40 JUMP JUMPDEST SWAP3 POP POP PUSH1 0x1 DUP2 ADD SWAP1 POP PUSH2 0x1C6F JUMP JUMPDEST POP POP POP POP POP POP JUMP JUMPDEST PUSH1 0x0 PUSH1 0xA SWAP1 POP SWAP2 SWAP1 POP JUMP JUMPDEST PUSH1 0x0 DUP2 SWAP1 POP SWAP3 SWAP2 POP POP JUMP JUMPDEST PUSH1 0x0 DUP2 SWAP1 POP SWAP2 SWAP1 POP JUMP JUMPDEST PUSH2 0x1CCD DUP2 PUSH2 0x1A0D JUMP JUMPDEST DUP3 MSTORE POP POP JUMP JUMPDEST PUSH1 0x0 PUSH2 0x1CDF DUP4 DUP4 PUSH2 0x1CC4 JUMP JUMPDEST PUSH1 0x20 DUP4 ADD SWAP1 POP SWAP3 SWAP2 POP POP JUMP JUMPDEST PUSH1 0x0 PUSH1 0x20 DUP3 ADD SWAP1 POP SWAP2 SWAP1 POP JUMP JUMPDEST PUSH2 0x1D01 DUP2 PUSH2 0x1CA4 JUMP JUMPDEST PUSH2 0x1D0B DUP2 DUP5 PUSH2 0x1CAF JUMP JUMPDEST SWAP3 POP PUSH2 0x1D16 DUP3 PUSH2 0x1CBA JUMP JUMPDEST DUP1 PUSH1 0x0 JUMPDEST DUP4 DUP2 LT ISZERO PUSH2 0x1D47 JUMPI DUP2 MLOAD PUSH2 0x1D2E DUP8 DUP3 PUSH2 0x1CD3 JUMP JUMPDEST SWAP7 POP PUSH2 0x1D39 DUP4 PUSH2 0x1CEB JUMP JUMPDEST SWAP3 POP POP PUSH1 0x1 DUP2 ADD SWAP1 POP PUSH2 0x1D1A JUMP JUMPDEST POP POP POP POP POP POP JUMP JUMPDEST PUSH1 0x0 PUSH2 0x3E0 DUP3 ADD SWAP1 POP PUSH2 0x1D65 PUSH1 0x0 DUP4 ADD DUP8 PUSH2 0x1C4D JUMP JUMPDEST PUSH2 0x1D73 PUSH2 0x140 DUP4 ADD DUP7 PUSH2 0x1C4D JUMP JUMPDEST PUSH2 0x1D81 PUSH2 0x280 DUP4 ADD DUP6 PUSH2 0x1CF8 JUMP JUMPDEST PUSH2 0x1D8F PUSH2 0x3C0 DUP4 ADD DUP5 PUSH2 0x186A JUMP JUMPDEST SWAP6 SWAP5 POP POP POP POP POP JUMP JUMPDEST PUSH1 0x0 PUSH1 0x20 DUP3 DUP5 SUB SLT ISZERO PUSH2 0x1DAE JUMPI PUSH2 0x1DAD PUSH2 0x179B JUMP JUMPDEST JUMPDEST PUSH1 0x0 PUSH2 0x1DBC DUP5 DUP3 DUP6 ADD PUSH2 0x1A36 JUMP JUMPDEST SWAP2 POP POP SWAP3 SWAP2 POP POP JUMP JUMPDEST PUSH1 0x0 DUP3 DUP3 MSTORE PUSH1 0x20 DUP3 ADD SWAP1 POP SWAP3 SWAP2 POP POP JUMP JUMPDEST PUSH32 0x72656365697665724C697374206973206E6F742076616C696400000000000000 PUSH1 0x0 DUP3 ADD MSTORE POP JUMP JUMPDEST PUSH1 0x0 PUSH2 0x1E0C PUSH1 0x19 DUP4 PUSH2 0x1DC5 JUMP JUMPDEST SWAP2 POP PUSH2 0x1E17 DUP3 PUSH2 0x1DD6 JUMP JUMPDEST PUSH1 0x20 DUP3 ADD SWAP1 POP SWAP2 SWAP1 POP JUMP JUMPDEST PUSH1 0x0 PUSH1 0x20 DUP3 ADD SWAP1 POP DUP2 DUP2 SUB PUSH1 0x0 DUP4 ADD MSTORE PUSH2 0x1E3B DUP2 PUSH2 0x1DFF JUMP JUMPDEST SWAP1 POP SWAP2 SWAP1 POP JUMP JUMPDEST PUSH32 0x4E487B7100000000000000000000000000000000000000000000000000000000 PUSH1 0x0 MSTORE PUSH1 0x32 PUSH1 0x4 MSTORE PUSH1 0x24 PUSH1 0x0 REVERT JUMPDEST PUSH32 0x4E487B7100000000000000000000000000000000000000000000000000000000 PUSH1 0x0 MSTORE PUSH1 0x11 PUSH1 0x4 MSTORE PUSH1 0x24 PUSH1 0x0 REVERT JUMPDEST PUSH1 0x0 PUSH2 0x1EAB DUP3 PUSH2 0x1860 JUMP JUMPDEST SWAP2 POP PUSH32 0xFFFFFFFFFFFFFFFFFFFFFFFFFFFFFFFFFFFFFFFFFFFFFFFFFFFFFFFFFFFFFFFF DUP3 SUB PUSH2 0x1EDD JUMPI PUSH2 0x1EDC PUSH2 0x1E71 JUMP JUMPDEST JUMPDEST PUSH1 0x1 DUP3 ADD SWAP1 POP SWAP2 SWAP1 POP JUMP JUMPDEST PUSH32 0x4D7573742062652070726F706F736564206F776E657200000000000000000000 PUSH1 0x0 DUP3 ADD MSTORE POP JUMP JUMPDEST PUSH1 0x0 PUSH2 0x1F1E PUSH1 0x16 DUP4 PUSH2 0x1DC5 JUMP JUMPDEST SWAP2 POP PUSH2 0x1F29 DUP3 PUSH2 0x1EE8 JUMP JUMPDEST PUSH1 0x20 DUP3 ADD SWAP1 POP SWAP2 SWAP1 POP JUMP JUMPDEST PUSH1 0x0 PUSH1 0x20 DUP3 ADD SWAP1 POP DUP2 DUP2 SUB PUSH1 0x0 DUP4 ADD MSTORE PUSH2 0x1F4D DUP2 PUSH2 0x1F11 JUMP JUMPDEST SWAP1 POP SWAP2 SWAP1 POP JUMP JUMPDEST PUSH1 0x0 DUP1 REVERT JUMPDEST PUSH1 0x0 DUP1 REVERT JUMPDEST PUSH1 0x0 DUP2 SWAP1 POP SWAP2 SWAP1 POP JUMP JUMPDEST PUSH2 0x1F71 DUP2 PUSH2 0x1F5E JUMP JUMPDEST DUP2 EQ PUSH2 0x1F7C JUMPI PUSH1 0x0 DUP1 REVERT JUMPDEST POP JUMP JUMPDEST PUSH1 0x0 DUP2 CALLDATALOAD SWAP1 POP PUSH2 0x1F8E DUP2 PUSH2 0x1F68 JUMP JUMPDEST SWAP3 SWAP2 POP POP JUMP JUMPDEST PUSH2 0x1F9D DUP2 PUSH2 0x18ED JUMP JUMPDEST DUP2 EQ PUSH2 0x1FA8 JUMPI PUSH1 0x0 DUP1 REVERT JUMPDEST POP JUMP JUMPDEST PUSH1 0x0 DUP2 CALLDATALOAD SWAP1 POP PUSH2 0x1FBA DUP2 PUSH2 0x1F94 JUMP JUMPDEST SWAP3 SWAP2 POP POP JUMP JUMPDEST PUSH1 0x0 DUP1 REVERT JUMPDEST PUSH1 0x0 PUSH8 0xFFFFFFFFFFFFFFFF DUP3 GT ISZERO PUSH2 0x1FE0 JUMPI PUSH2 0x1FDF PUSH2 0x1941 JUMP JUMPDEST JUMPDEST PUSH2 0x1FE9 DUP3 PUSH2 0x1930 JUMP JUMPDEST SWAP1 POP PUSH1 0x20 DUP2 ADD SWAP1 POP SWAP2 SWAP1 POP JUMP JUMPDEST DUP3 DUP2 DUP4 CALLDATACOPY PUSH1 0x0 DUP4 DUP4 ADD MSTORE POP POP POP JUMP JUMPDEST PUSH1 0x0 PUSH2 0x2018 PUSH2 0x2013 DUP5 PUSH2 0x1FC5 JUMP JUMPDEST PUSH2 0x19A1 JUMP JUMPDEST SWAP1 POP DUP3 DUP2 MSTORE PUSH1 0x20 DUP2 ADD DUP5 DUP5 DUP5 ADD GT ISZERO PUSH2 0x2034 JUMPI PUSH2 0x2033 PUSH2 0x1FC0 JUMP JUMPDEST JUMPDEST PUSH2 0x203F DUP5 DUP3 DUP6 PUSH2 0x1FF6 JUMP JUMPDEST POP SWAP4 SWAP3 POP POP POP JUMP JUMPDEST PUSH1 0x0 DUP3 PUSH1 0x1F DUP4 ADD SLT PUSH2 0x205C JUMPI PUSH2 0x205B PUSH2 0x192B JUMP JUMPDEST JUMPDEST DUP2 CALLDATALOAD PUSH2 0x206C DUP5 DUP3 PUSH1 0x20 DUP7 ADD PUSH2 0x2005 JUMP JUMPDEST SWAP2 POP POP SWAP3 SWAP2 POP POP JUMP JUMPDEST PUSH1 0x0 PUSH8 0xFFFFFFFFFFFFFFFF DUP3 GT ISZERO PUSH2 0x2090 JUMPI PUSH2 0x208F PUSH2 0x1941 JUMP JUMPDEST JUMPDEST PUSH1 0x20 DUP3 MUL SWAP1 POP PUSH1 0x20 DUP2 ADD SWAP1 POP SWAP2 SWAP1 POP JUMP JUMPDEST PUSH1 0x0 PUSH1 0x40 DUP3 DUP5 SUB SLT ISZERO PUSH2 0x20B7 JUMPI PUSH2 0x20B6 PUSH2 0x1F54 JUMP JUMPDEST JUMPDEST PUSH2 0x20C1 PUSH1 0x40 PUSH2 0x19A1 JUMP JUMPDEST SWAP1 POP PUSH1 0x0 PUSH2 0x20D1 DUP5 DUP3 DUP6 ADD PUSH2 0x1A36 JUMP JUMPDEST PUSH1 0x0 DUP4 ADD MSTORE POP PUSH1 0x20 PUSH2 0x20E5 DUP5 DUP3 DUP6 ADD PUSH2 0x18AB JUMP JUMPDEST PUSH1 0x20 DUP4 ADD MSTORE POP SWAP3 SWAP2 POP POP JUMP JUMPDEST PUSH1 0x0 PUSH2 0x2104 PUSH2 0x20FF DUP5 PUSH2 0x2075 JUMP JUMPDEST PUSH2 0x19A1 JUMP JUMPDEST SWAP1 POP DUP1 DUP4 DUP3 MSTORE PUSH1 0x20 DUP3 ADD SWAP1 POP PUSH1 0x40 DUP5 MUL DUP4 ADD DUP6 DUP2 GT ISZERO PUSH2 0x2127 JUMPI PUSH2 0x2126 PUSH2 0x19E8 JUMP JUMPDEST JUMPDEST DUP4 JUMPDEST DUP2 DUP2 LT ISZERO PUSH2 0x2150 JUMPI DUP1 PUSH2 0x213C DUP9 DUP3 PUSH2 0x20A1 JUMP JUMPDEST DUP5 MSTORE PUSH1 0x20 DUP5 ADD SWAP4 POP POP PUSH1 0x40 DUP2 ADD SWAP1 POP PUSH2 0x2129 JUMP JUMPDEST POP POP POP SWAP4 SWAP3 POP POP POP JUMP JUMPDEST PUSH1 0x0 DUP3 PUSH1 0x1F DUP4 ADD SLT PUSH2 0x216F JUMPI PUSH2 0x216E PUSH2 0x192B JUMP JUMPDEST JUMPDEST DUP2 CALLDATALOAD PUSH2 0x217F DUP5 DUP3 PUSH1 0x20 DUP7 ADD PUSH2 0x20F1 JUMP JUMPDEST SWAP2 POP POP SWAP3 SWAP2 POP POP JUMP JUMPDEST PUSH1 0x0 PUSH1 0xA0 DUP3 DUP5 SUB SLT ISZERO PUSH2 0x219E JUMPI PUSH2 0x219D PUSH2 0x1F54 JUMP JUMPDEST JUMPDEST PUSH2 0x21A8 PUSH1 0xA0 PUSH2 0x19A1 JUMP JUMPDEST SWAP1 POP PUSH1 0x0 PUSH2 0x21B8 DUP5 DUP3 DUP6 ADD PUSH2 0x1F7F JUMP JUMPDEST PUSH1 0x0 DUP4 ADD MSTORE POP PUSH1 0x20 PUSH2 0x21CC DUP5 DUP3 DUP6 ADD PUSH2 0x1FAB JUMP JUMPDEST PUSH1 0x20 DUP4 ADD MSTORE POP PUSH1 0x40 DUP3 ADD CALLDATALOAD PUSH8 0xFFFFFFFFFFFFFFFF DUP2 GT ISZERO PUSH2 0x21F0 JUMPI PUSH2 0x21EF PUSH2 0x1F59 JUMP JUMPDEST JUMPDEST PUSH2 0x21FC DUP5 DUP3 DUP6 ADD PUSH2 0x2047 JUMP JUMPDEST PUSH1 0x40 DUP4 ADD MSTORE POP PUSH1 0x60 DUP3 ADD CALLDATALOAD PUSH8 0xFFFFFFFFFFFFFFFF DUP2 GT ISZERO PUSH2 0x2220 JUMPI PUSH2 0x221F PUSH2 0x1F59 JUMP JUMPDEST JUMPDEST PUSH2 0x222C DUP5 DUP3 DUP6 ADD PUSH2 0x2047 JUMP JUMPDEST PUSH1 0x60 DUP4 ADD MSTORE POP PUSH1 0x80 DUP3 ADD CALLDATALOAD PUSH8 0xFFFFFFFFFFFFFFFF DUP2 GT ISZERO PUSH2 0x2250 JUMPI PUSH2 0x224F PUSH2 0x1F59 JUMP JUMPDEST JUMPDEST PUSH2 0x225C DUP5 DUP3 DUP6 ADD PUSH2 0x215A JUMP JUMPDEST PUSH1 0x80 DUP4 ADD MSTORE POP SWAP3 SWAP2 POP POP JUMP JUMPDEST PUSH1 0x0 PUSH2 0x2274 CALLDATASIZE DUP4 PUSH2 0x2188 JUMP JUMPDEST SWAP1 POP SWAP2 SWAP1 POP JUMP JUMPDEST PUSH32 0x4F6E6C792063616C6C61626C65206279206F776E657200000000000000000000 PUSH1 0x0 DUP3 ADD MSTORE POP JUMP JUMPDEST PUSH1 0x0 PUSH2 0x22B1 PUSH1 0x16 DUP4 PUSH2 0x1DC5 JUMP JUMPDEST SWAP2 POP PUSH2 0x22BC DUP3 PUSH2 0x227B JUMP JUMPDEST PUSH1 0x20 DUP3 ADD SWAP1 POP SWAP2 SWAP1 POP JUMP JUMPDEST PUSH1 0x0 PUSH1 0x20 DUP3 ADD SWAP1 POP DUP2 DUP2 SUB PUSH1 0x0 DUP4 ADD MSTORE PUSH2 0x22E0 DUP2 PUSH2 0x22A4 JUMP JUMPDEST SWAP1 POP SWAP2 SWAP1 POP JUMP JUMPDEST PUSH1 0x0 DUP2 MLOAD SWAP1 POP PUSH2 0x22F6 DUP2 PUSH2 0x1A1F JUMP JUMPDEST SWAP3 SWAP2 POP POP JUMP JUMPDEST PUSH1 0x0 DUP2 MLOAD SWAP1 POP PUSH2 0x230B DUP2 PUSH2 0x1894 JUMP JUMPDEST SWAP3 SWAP2 POP POP JUMP JUMPDEST PUSH1 0x0 PUSH1 0x60 DUP3 DUP5 SUB SLT ISZERO PUSH2 0x2327 JUMPI PUSH2 0x2326 PUSH2 0x1F54 JUMP JUMPDEST JUMPDEST PUSH2 0x2331 PUSH1 0x60 PUSH2 0x19A1 JUMP JUMPDEST SWAP1 POP PUSH1 0x0 PUSH2 0x2341 DUP5 DUP3 DUP6 ADD PUSH2 0x22E7 JUMP JUMPDEST PUSH1 0x0 DUP4 ADD MSTORE POP PUSH1 0x20 PUSH2 0x2355 DUP5 DUP3 DUP6 ADD PUSH2 0x22FC JUMP JUMPDEST PUSH1 0x20 DUP4 ADD MSTORE POP PUSH1 0x40 PUSH2 0x2369 DUP5 DUP3 DUP6 ADD PUSH2 0x22FC JUMP JUMPDEST PUSH1 0x40 DUP4 ADD MSTORE POP SWAP3 SWAP2 POP POP JUMP JUMPDEST PUSH1 0x0 PUSH1 0x60 DUP3 DUP5 SUB SLT ISZERO PUSH2 0x238B JUMPI PUSH2 0x238A PUSH2 0x179B JUMP JUMPDEST JUMPDEST PUSH1 0x0 PUSH2 0x2399 DUP5 DUP3 DUP6 ADD PUSH2 0x2311 JUMP JUMPDEST SWAP2 POP POP SWAP3 SWAP2 POP POP JUMP JUMPDEST PUSH1 0x0 PUSH2 0x23AD DUP3 PUSH2 0x19ED JUMP JUMPDEST SWAP1 POP SWAP2 SWAP1 POP JUMP JUMPDEST PUSH2 0x23BD DUP2 PUSH2 0x23A2 JUMP JUMPDEST DUP2 EQ PUSH2 0x23C8 JUMPI PUSH1 0x0 DUP1 REVERT JUMPDEST POP JUMP JUMPDEST PUSH1 0x0 DUP2 MLOAD SWAP1 POP PUSH2 0x23DA DUP2 PUSH2 0x23B4 JUMP JUMPDEST SWAP3 SWAP2 POP POP JUMP JUMPDEST PUSH1 0x0 PUSH1 0x20 DUP3 DUP5 SUB SLT ISZERO PUSH2 0x23F6 JUMPI PUSH2 0x23F5 PUSH2 0x179B JUMP JUMPDEST JUMPDEST PUSH1 0x0 PUSH2 0x2404 DUP5 DUP3 DUP6 ADD PUSH2 0x23CB JUMP JUMPDEST SWAP2 POP POP SWAP3 SWAP2 POP POP JUMP JUMPDEST PUSH1 0x0 DUP2 SWAP1 POP SWAP2 SWAP1 POP JUMP JUMPDEST PUSH1 0x0 PUSH2 0x2432 PUSH2 0x242D PUSH2 0x2428 DUP5 PUSH2 0x19ED JUMP JUMPDEST PUSH2 0x240D JUMP JUMPDEST PUSH2 0x19ED JUMP JUMPDEST SWAP1 POP SWAP2 SWAP1 POP JUMP JUMPDEST PUSH1 0x0 PUSH2 0x2444 DUP3 PUSH2 0x2417 JUMP JUMPDEST SWAP1 POP SWAP2 SWAP1 POP JUMP JUMPDEST PUSH1 0x0 PUSH2 0x2456 DUP3 PUSH2 0x2439 JUMP JUMPDEST SWAP1 POP SWAP2 SWAP1 POP JUMP JUMPDEST PUSH2 0x2466 DUP2 PUSH2 0x244B JUMP JUMPDEST DUP3 MSTORE POP POP JUMP JUMPDEST PUSH1 0x0 DUP2 PUSH1 0x0 SHR SWAP1 POP SWAP2 SWAP1 POP JUMP JUMPDEST PUSH1 0x0 PUSH20 0xFFFFFFFFFFFFFFFFFFFFFFFFFFFFFFFFFFFFFFFF DUP3 AND SWAP1 POP SWAP2 SWAP1 POP JUMP JUMPDEST PUSH1 0x0 PUSH2 0x24AC PUSH2 0x24A7 DUP4 PUSH2 0x246C JUMP JUMPDEST PUSH2 0x2479 JUMP JUMPDEST SWAP1 POP SWAP2 SWAP1 POP JUMP JUMPDEST PUSH1 0x0 DUP2 SWAP1 POP SWAP2 SWAP1 POP JUMP JUMPDEST PUSH1 0x0 PUSH2 0x24D0 PUSH2 0x24CB DUP4 PUSH2 0x246C JUMP JUMPDEST PUSH2 0x24B3 JUMP JUMPDEST SWAP1 POP SWAP2 SWAP1 POP JUMP JUMPDEST PUSH1 0x60 DUP3 ADD PUSH1 0x0 DUP1 DUP4 ADD SLOAD SWAP1 POP PUSH2 0x24EC DUP2 PUSH2 0x2499 JUMP JUMPDEST PUSH2 0x24F9 PUSH1 0x0 DUP7 ADD DUP3 PUSH2 0x1CC4 JUMP JUMPDEST POP PUSH1 0x1 DUP4 ADD SLOAD SWAP1 POP PUSH2 0x250A DUP2 PUSH2 0x24BD JUMP JUMPDEST PUSH2 0x2517 PUSH1 0x20 DUP7 ADD DUP3 PUSH2 0x1C19 JUMP JUMPDEST POP PUSH1 0x2 DUP4 ADD SLOAD SWAP1 POP PUSH2 0x2528 DUP2 PUSH2 0x24BD JUMP JUMPDEST PUSH2 0x2535 PUSH1 0x40 DUP7 ADD DUP3 PUSH2 0x1C19 JUMP JUMPDEST POP POP POP POP POP JUMP JUMPDEST PUSH1 0x0 PUSH1 0x80 DUP3 ADD SWAP1 POP PUSH2 0x2551 PUSH1 0x0 DUP4 ADD DUP6 PUSH2 0x245D JUMP JUMPDEST PUSH2 0x255E PUSH1 0x20 DUP4 ADD DUP5 PUSH2 0x24D7 JUMP JUMPDEST SWAP4 SWAP3 POP POP POP JUMP JUMPDEST PUSH1 0x0 PUSH2 0x2570 DUP3 PUSH2 0x1860 JUMP JUMPDEST SWAP2 POP PUSH2 0x257B DUP4 PUSH2 0x1860 JUMP JUMPDEST SWAP3 POP DUP3 DUP3 SUB SWAP1 POP DUP2 DUP2 GT ISZERO PUSH2 0x2593 JUMPI PUSH2 0x2592 PUSH2 0x1E71 JUMP JUMPDEST JUMPDEST SWAP3 SWAP2 POP POP JUMP JUMPDEST PUSH1 0x0 PUSH2 0x25A4 DUP3 PUSH2 0x1860 JUMP JUMPDEST SWAP2 POP PUSH2 0x25AF DUP4 PUSH2 0x1860 JUMP JUMPDEST SWAP3 POP DUP3 DUP3 ADD SWAP1 POP DUP1 DUP3 GT ISZERO PUSH2 0x25C7 JUMPI PUSH2 0x25C6 PUSH2 0x1E71 JUMP JUMPDEST JUMPDEST SWAP3 SWAP2 POP POP JUMP JUMPDEST PUSH32 0x4E487B7100000000000000000000000000000000000000000000000000000000 PUSH1 0x0 MSTORE PUSH1 0x12 PUSH1 0x4 MSTORE PUSH1 0x24 PUSH1 0x0 REVERT JUMPDEST PUSH1 0x0 PUSH2 0x2607 DUP3 PUSH2 0x1860 JUMP JUMPDEST SWAP2 POP PUSH2 0x2612 DUP4 PUSH2 0x1860 JUMP JUMPDEST SWAP3 POP DUP3 PUSH2 0x2622 JUMPI PUSH2 0x2621 PUSH2 0x25CD JUMP JUMPDEST JUMPDEST DUP3 DUP3 DIV SWAP1 POP SWAP3 SWAP2 POP POP JUMP JUMPDEST PUSH1 0x0 PUSH2 0x2638 DUP3 PUSH2 0x1860 JUMP JUMPDEST SWAP2 POP PUSH1 0x0 DUP3 SUB PUSH2 0x264B JUMPI PUSH2 0x264A PUSH2 0x1E71 JUMP JUMPDEST JUMPDEST PUSH1 0x1 DUP3 SUB SWAP1 POP SWAP2 SWAP1 POP JUMP JUMPDEST PUSH1 0x60 DUP3 ADD PUSH1 0x0 DUP3 ADD MLOAD PUSH2 0x266C PUSH1 0x0 DUP6 ADD DUP3 PUSH2 0x1CC4 JUMP JUMPDEST POP PUSH1 0x20 DUP3 ADD MLOAD PUSH2 0x267F PUSH1 0x20 DUP6 ADD DUP3 PUSH2 0x1C19 JUMP JUMPDEST POP PUSH1 0x40 DUP3 ADD MLOAD PUSH2 0x2692 PUSH1 0x40 DUP6 ADD DUP3 PUSH2 0x1C19 JUMP JUMPDEST POP POP POP POP JUMP JUMPDEST PUSH1 0x0 PUSH1 0x60 DUP3 ADD SWAP1 POP PUSH2 0x26AD PUSH1 0x0 DUP4 ADD DUP5 PUSH2 0x2656 JUMP JUMPDEST SWAP3 SWAP2 POP POP JUMP JUMPDEST PUSH1 0x0 DUP2 MLOAD SWAP1 POP SWAP2 SWAP1 POP JUMP JUMPDEST PUSH1 0x0 DUP3 DUP3 MSTORE PUSH1 0x20 DUP3 ADD SWAP1 POP SWAP3 SWAP2 POP POP JUMP JUMPDEST PUSH1 0x0 JUMPDEST DUP4 DUP2 LT ISZERO PUSH2 0x26ED JUMPI DUP1 DUP3 ADD MLOAD DUP2 DUP5 ADD MSTORE PUSH1 0x20 DUP2 ADD SWAP1 POP PUSH2 0x26D2 JUMP JUMPDEST PUSH1 0x0 DUP5 DUP5 ADD MSTORE POP POP POP POP JUMP JUMPDEST PUSH1 0x0 PUSH2 0x2704 DUP3 PUSH2 0x26B3 JUMP JUMPDEST PUSH2 0x270E DUP2 DUP6 PUSH2 0x26BE JUMP JUMPDEST SWAP4 POP PUSH2 0x271E DUP2 DUP6 PUSH1 0x20 DUP7 ADD PUSH2 0x26CF JUMP JUMPDEST PUSH2 0x2727 DUP2 PUSH2 0x1930 JUMP JUMPDEST DUP5 ADD SWAP2 POP POP SWAP3 SWAP2 POP POP JUMP JUMPDEST PUSH1 0x0 DUP2 MLOAD SWAP1 POP SWAP2 SWAP1 POP JUMP JUMPDEST PUSH1 0x0 DUP3 DUP3 MSTORE PUSH1 0x20 DUP3 ADD SWAP1 POP SWAP3 SWAP2 POP POP JUMP JUMPDEST PUSH1 0x0 DUP2 SWAP1 POP PUSH1 0x20 DUP3 ADD SWAP1 POP SWAP2 SWAP1 POP JUMP JUMPDEST PUSH1 0x40 DUP3 ADD PUSH1 0x0 DUP3 ADD MLOAD PUSH2 0x2774 PUSH1 0x0 DUP6 ADD DUP3 PUSH2 0x1CC4 JUMP JUMPDEST POP PUSH1 0x20 DUP3 ADD MLOAD PUSH2 0x2787 PUSH1 0x20 DUP6 ADD DUP3 PUSH2 0x1C19 JUMP JUMPDEST POP POP POP POP JUMP JUMPDEST PUSH1 0x0 PUSH2 0x2799 DUP4 DUP4 PUSH2 0x275E JUMP JUMPDEST PUSH1 0x40 DUP4 ADD SWAP1 POP SWAP3 SWAP2 POP POP JUMP JUMPDEST PUSH1 0x0 PUSH1 0x20 DUP3 ADD SWAP1 POP SWAP2 SWAP1 POP JUMP JUMPDEST PUSH1 0x0 PUSH2 0x27BD DUP3 PUSH2 0x2732 JUMP JUMPDEST PUSH2 0x27C7 DUP2 DUP6 PUSH2 0x273D JUMP JUMPDEST SWAP4 POP PUSH2 0x27D2 DUP4 PUSH2 0x274E JUMP JUMPDEST DUP1 PUSH1 0x0 JUMPDEST DUP4 DUP2 LT ISZERO PUSH2 0x2803 JUMPI DUP2 MLOAD PUSH2 0x27EA DUP9 DUP3 PUSH2 0x278D JUMP JUMPDEST SWAP8 POP PUSH2 0x27F5 DUP4 PUSH2 0x27A5 JUMP JUMPDEST SWAP3 POP POP PUSH1 0x1 DUP2 ADD SWAP1 POP PUSH2 0x27D6 JUMP JUMPDEST POP DUP6 SWAP4 POP POP POP POP SWAP3 SWAP2 POP POP JUMP JUMPDEST PUSH1 0x0 PUSH1 0xA0 DUP4 ADD PUSH1 0x0 DUP4 ADD MLOAD DUP5 DUP3 SUB PUSH1 0x0 DUP7 ADD MSTORE PUSH2 0x282D DUP3 DUP3 PUSH2 0x26F9 JUMP JUMPDEST SWAP2 POP POP PUSH1 0x20 DUP4 ADD MLOAD DUP5 DUP3 SUB PUSH1 0x20 DUP7 ADD MSTORE PUSH2 0x2847 DUP3 DUP3 PUSH2 0x26F9 JUMP JUMPDEST SWAP2 POP POP PUSH1 0x40 DUP4 ADD MLOAD DUP5 DUP3 SUB PUSH1 0x40 DUP7 ADD MSTORE PUSH2 0x2861 DUP3 DUP3 PUSH2 0x27B2 JUMP JUMPDEST SWAP2 POP POP PUSH1 0x60 DUP4 ADD MLOAD PUSH2 0x2876 PUSH1 0x60 DUP7 ADD DUP3 PUSH2 0x1CC4 JUMP JUMPDEST POP PUSH1 0x80 DUP4 ADD MLOAD DUP5 DUP3 SUB PUSH1 0x80 DUP7 ADD MSTORE PUSH2 0x288E DUP3 DUP3 PUSH2 0x26F9 JUMP JUMPDEST SWAP2 POP POP DUP1 SWAP2 POP POP SWAP3 SWAP2 POP POP JUMP JUMPDEST PUSH1 0x0 PUSH1 0x40 DUP3 ADD SWAP1 POP PUSH2 0x28B0 PUSH1 0x0 DUP4 ADD DUP6 PUSH2 0x1901 JUMP JUMPDEST DUP2 DUP2 SUB PUSH1 0x20 DUP4 ADD MSTORE PUSH2 0x28C2 DUP2 DUP5 PUSH2 0x2810 JUMP JUMPDEST SWAP1 POP SWAP4 SWAP3 POP POP POP JUMP JUMPDEST PUSH1 0x0 PUSH1 0x20 DUP3 DUP5 SUB SLT ISZERO PUSH2 0x28E1 JUMPI PUSH2 0x28E0 PUSH2 0x179B JUMP JUMPDEST JUMPDEST PUSH1 0x0 PUSH2 0x28EF DUP5 DUP3 DUP6 ADD PUSH2 0x22FC JUMP JUMPDEST SWAP2 POP POP SWAP3 SWAP2 POP POP JUMP JUMPDEST PUSH1 0x0 PUSH1 0x40 DUP3 ADD SWAP1 POP PUSH2 0x290D PUSH1 0x0 DUP4 ADD DUP6 PUSH2 0x186A JUMP JUMPDEST PUSH2 0x291A PUSH1 0x20 DUP4 ADD DUP5 PUSH2 0x186A JUMP JUMPDEST SWAP4 SWAP3 POP POP POP JUMP JUMPDEST PUSH1 0x0 PUSH1 0x40 DUP3 ADD SWAP1 POP PUSH2 0x2936 PUSH1 0x0 DUP4 ADD DUP6 PUSH2 0x1B2B JUMP JUMPDEST PUSH2 0x2943 PUSH1 0x20 DUP4 ADD DUP5 PUSH2 0x186A JUMP JUMPDEST SWAP4 SWAP3 POP POP POP JUMP JUMPDEST PUSH2 0x2953 DUP2 PUSH2 0x182A JUMP JUMPDEST DUP2 EQ PUSH2 0x295E JUMPI PUSH1 0x0 DUP1 REVERT JUMPDEST POP JUMP JUMPDEST PUSH1 0x0 DUP2 MLOAD SWAP1 POP PUSH2 0x2970 DUP2 PUSH2 0x294A JUMP JUMPDEST SWAP3 SWAP2 POP POP JUMP JUMPDEST PUSH1 0x0 PUSH1 0x20 DUP3 DUP5 SUB SLT ISZERO PUSH2 0x298C JUMPI PUSH2 0x298B PUSH2 0x179B JUMP JUMPDEST JUMPDEST PUSH1 0x0 PUSH2 0x299A DUP5 DUP3 DUP6 ADD PUSH2 0x2961 JUMP JUMPDEST SWAP2 POP POP SWAP3 SWAP2 POP POP JUMP JUMPDEST PUSH1 0x0 DUP2 MLOAD SWAP1 POP PUSH2 0x29B2 DUP2 PUSH2 0x1F68 JUMP JUMPDEST SWAP3 SWAP2 POP POP JUMP JUMPDEST PUSH1 0x0 PUSH1 0x20 DUP3 DUP5 SUB SLT ISZERO PUSH2 0x29CE JUMPI PUSH2 0x29CD PUSH2 0x179B JUMP JUMPDEST JUMPDEST PUSH1 0x0 PUSH2 0x29DC DUP5 DUP3 DUP6 ADD PUSH2 0x29A3 JUMP JUMPDEST SWAP2 POP POP SWAP3 SWAP2 POP POP JUMP JUMPDEST PUSH1 0x0 PUSH1 0xC0 DUP3 ADD SWAP1 POP PUSH2 0x29FA PUSH1 0x0 DUP4 ADD DUP8 PUSH2 0x1B2B JUMP JUMPDEST PUSH2 0x2A07 PUSH1 0x20 DUP4 ADD DUP7 PUSH2 0x2656 JUMP JUMPDEST PUSH2 0x2A14 PUSH1 0x80 DUP4 ADD DUP6 PUSH2 0x1B2B JUMP JUMPDEST PUSH2 0x2A21 PUSH1 0xA0 DUP4 ADD DUP5 PUSH2 0x186A JUMP JUMPDEST SWAP6 SWAP5 POP POP POP POP POP JUMP JUMPDEST PUSH32 0x43616E6E6F74207472616E7366657220746F2073656C66000000000000000000 PUSH1 0x0 DUP3 ADD MSTORE POP JUMP JUMPDEST PUSH1 0x0 PUSH2 0x2A60 PUSH1 0x17 DUP4 PUSH2 0x1DC5 JUMP JUMPDEST SWAP2 POP PUSH2 0x2A6B DUP3 PUSH2 0x2A2A JUMP JUMPDEST PUSH1 0x20 DUP3 ADD SWAP1 POP SWAP2 SWAP1 POP JUMP JUMPDEST PUSH1 0x0 PUSH1 0x20 DUP3 ADD SWAP1 POP DUP2 DUP2 SUB PUSH1 0x0 DUP4 ADD MSTORE PUSH2 0x2A8F DUP2 PUSH2 0x2A53 JUMP JUMPDEST SWAP1 POP SWAP2 SWAP1 POP JUMP JUMPDEST PUSH1 0x20 DUP3 ADD PUSH1 0x0 DUP3 ADD MLOAD PUSH2 0x2AAC PUSH1 0x0 DUP6 ADD DUP3 PUSH2 0x1C19 JUMP JUMPDEST POP POP POP POP JUMP JUMPDEST PUSH1 0x0 PUSH1 0x20 DUP3 ADD SWAP1 POP PUSH2 0x2AC7 PUSH1 0x0 DUP4 ADD DUP5 PUSH2 0x2A96 JUMP JUMPDEST SWAP3 SWAP2 POP POP JUMP INVALID LOG2 PUSH5 0x6970667358 0x22 SLT KECCAK256 NOT 0xB3 SWAP14 PUSH4 0x9FD10AD3 DUP12 JUMPI 0x1F 0x49 PUSH25 0xC73127929D66E14C5A10F942721712DBE6082A64736F6C6343 STOP ADDMOD SGT STOP CALLER "
				},
				"gasEstimates": {
					"creation": {
						"codeDepositCost": "2202200",
						"executionCost": "infinite",
						"totalCost": "infinite"
					},
					"external": {
						"acceptOwnership()": "54585",
						"ccipReceive((bytes32,uint64,bytes,bytes,(address,uint256)[]))": "infinite",
						"chainSelectors(uint256)": "6617",
						"currentChainSelectorIndex()": "2475",
						"currentMessageItem()": "infinite",
						"getTopListInfo()": "infinite",
						"lastUpdateTime()": "2496",
						"linkTokens(uint256)": "5044",
						"owner()": "2611",
						"receivers(uint256)": "2850",
						"routers(uint256)": "4979",
						"submitData(uint256)": "infinite",
						"supportsInterface(bytes4)": "708",
						"topChainIndex(uint256)": "infinite",
						"topGradeList(uint256)": "infinite",
						"topPlayerList(uint256)": "2849",
						"transferOwnership(address)": "30764",
						"updateReceivers(address[])": "infinite"
					},
					"internal": {
						"_ccipReceive(struct Client.Any2EVMMessage memory)": "infinite",
						"_sendMessage(uint64,address,address,address,struct ZKGameClient.MessageItem memory)": "infinite",
						"pushDataToTopList(struct ZKGameClient.MessageItem memory)": "infinite"
					}
				},
				"methodIdentifiers": {
					"acceptOwnership()": "79ba5097",
					"ccipReceive((bytes32,uint64,bytes,bytes,(address,uint256)[]))": "85572ffb",
					"chainSelectors(uint256)": "2bf34fbd",
					"currentChainSelectorIndex()": "11b7aad5",
					"currentMessageItem()": "cdc7bc87",
					"getTopListInfo()": "d0d5117e",
					"lastUpdateTime()": "c8f33c91",
					"linkTokens(uint256)": "ea029701",
					"owner()": "8da5cb5b",
					"receivers(uint256)": "bfd772fc",
					"routers(uint256)": "4e9c1118",
					"submitData(uint256)": "b0e23518",
					"supportsInterface(bytes4)": "01ffc9a7",
					"topChainIndex(uint256)": "e8af8c0d",
					"topGradeList(uint256)": "b76ee4a8",
					"topPlayerList(uint256)": "d252682d",
					"transferOwnership(address)": "f2fde38b",
					"updateReceivers(address[])": "49c9d17a"
				}
			},
			"storageLayout": {
				"storage": [
					{
						"astId": 269,
						"contract": "ZKGameClient.sol:ZKGameClient",
						"label": "s_owner",
						"offset": 0,
						"slot": "0",
						"type": "t_address"
					},
					{
						"astId": 271,
						"contract": "ZKGameClient.sol:ZKGameClient",
						"label": "s_pendingOwner",
						"offset": 0,
						"slot": "1",
						"type": "t_address"
					},
					{
						"astId": 637,
						"contract": "ZKGameClient.sol:ZKGameClient",
						"label": "currentChainSelectorIndex",
						"offset": 0,
						"slot": "2",
						"type": "t_uint256"
					},
					{
						"astId": 640,
						"contract": "ZKGameClient.sol:ZKGameClient",
						"label": "routers",
						"offset": 0,
						"slot": "3",
						"type": "t_array(t_address)dyn_storage"
					},
					{
						"astId": 643,
						"contract": "ZKGameClient.sol:ZKGameClient",
						"label": "linkTokens",
						"offset": 0,
						"slot": "4",
						"type": "t_array(t_address)dyn_storage"
					},
					{
						"astId": 646,
						"contract": "ZKGameClient.sol:ZKGameClient",
						"label": "chainSelectors",
						"offset": 0,
						"slot": "5",
						"type": "t_array(t_uint64)dyn_storage"
					},
					{
						"astId": 650,
						"contract": "ZKGameClient.sol:ZKGameClient",
						"label": "receivers",
						"offset": 0,
						"slot": "6",
						"type": "t_array(t_address)3_storage"
					},
					{
						"astId": 653,
						"contract": "ZKGameClient.sol:ZKGameClient",
						"label": "currentMessageItem",
						"offset": 0,
						"slot": "9",
						"type": "t_struct(MessageItem)598_storage"
					},
					{
						"astId": 657,
						"contract": "ZKGameClient.sol:ZKGameClient",
						"label": "topGradeList",
						"offset": 0,
						"slot": "12",
						"type": "t_array(t_uint256)10_storage"
					},
					{
						"astId": 661,
						"contract": "ZKGameClient.sol:ZKGameClient",
						"label": "topPlayerList",
						"offset": 0,
						"slot": "22",
						"type": "t_array(t_address)10_storage"
					},
					{
						"astId": 665,
						"contract": "ZKGameClient.sol:ZKGameClient",
						"label": "topChainIndex",
						"offset": 0,
						"slot": "32",
						"type": "t_array(t_uint256)10_storage"
					},
					{
						"astId": 667,
						"contract": "ZKGameClient.sol:ZKGameClient",
						"label": "lastUpdateTime",
						"offset": 0,
						"slot": "42",
						"type": "t_uint256"
					}
				],
				"types": {
					"t_address": {
						"encoding": "inplace",
						"label": "address",
						"numberOfBytes": "20"
					},
					"t_array(t_address)10_storage": {
						"base": "t_address",
						"encoding": "inplace",
						"label": "address[10]",
						"numberOfBytes": "320"
					},
					"t_array(t_address)3_storage": {
						"base": "t_address",
						"encoding": "inplace",
						"label": "address[3]",
						"numberOfBytes": "96"
					},
					"t_array(t_address)dyn_storage": {
						"base": "t_address",
						"encoding": "dynamic_array",
						"label": "address[]",
						"numberOfBytes": "32"
					},
					"t_array(t_uint256)10_storage": {
						"base": "t_uint256",
						"encoding": "inplace",
						"label": "uint256[10]",
						"numberOfBytes": "320"
					},
					"t_array(t_uint64)dyn_storage": {
						"base": "t_uint64",
						"encoding": "dynamic_array",
						"label": "uint64[]",
						"numberOfBytes": "32"
					},
					"t_struct(MessageItem)598_storage": {
						"encoding": "inplace",
						"label": "struct ZKGameClient.MessageItem",
						"members": [
							{
								"astId": 593,
								"contract": "ZKGameClient.sol:ZKGameClient",
								"label": "player",
								"offset": 0,
								"slot": "0",
								"type": "t_address"
							},
							{
								"astId": 595,
								"contract": "ZKGameClient.sol:ZKGameClient",
								"label": "time",
								"offset": 0,
								"slot": "1",
								"type": "t_uint256"
							},
							{
								"astId": 597,
								"contract": "ZKGameClient.sol:ZKGameClient",
								"label": "chainIndex",
								"offset": 0,
								"slot": "2",
								"type": "t_uint256"
							}
						],
						"numberOfBytes": "96"
					},
					"t_uint256": {
						"encoding": "inplace",
						"label": "uint256",
						"numberOfBytes": "32"
					},
					"t_uint64": {
						"encoding": "inplace",
						"label": "uint64",
						"numberOfBytes": "8"
					}
				}
			},
			"userdoc": {
				"kind": "user",
				"methods": {
					"acceptOwnership()": {
						"notice": "Allows an ownership transfer to be completed by the recipient."
					},
					"owner()": {
						"notice": "Get the current owner"
					},
					"transferOwnership(address)": {
						"notice": "Allows an owner to begin transferring ownership to a new address."
					}
				},
				"version": 1
			}
		}
	}
}