{
	"Sender.sol": {
		"Sender": {
			"abi": [
				{
					"inputs": [
						{
							"internalType": "address",
							"name": "_router",
							"type": "address"
						},
						{
							"internalType": "address",
							"name": "_link",
							"type": "address"
						}
					],
					"stateMutability": "nonpayable",
					"type": "constructor"
				},
				{
					"inputs": [
						{
							"internalType": "uint256",
							"name": "currentBalance",
							"type": "uint256"
						},
						{
							"internalType": "uint256",
							"name": "calculatedFees",
							"type": "uint256"
						}
					],
					"name": "NotEnoughBalance",
					"type": "error"
				},
				{
					"anonymous": false,
					"inputs": [
						{
							"indexed": true,
							"internalType": "bytes32",
							"name": "messageId",
							"type": "bytes32"
						},
						{
							"indexed": true,
							"internalType": "uint64",
							"name": "destinationChainSelector",
							"type": "uint64"
						},
						{
							"indexed": false,
							"internalType": "address",
							"name": "receiver",
							"type": "address"
						},
						{
							"indexed": false,
							"internalType": "string",
							"name": "text",
							"type": "string"
						},
						{
							"indexed": false,
							"internalType": "address",
							"name": "feeToken",
							"type": "address"
						},
						{
							"indexed": false,
							"internalType": "uint256",
							"name": "fees",
							"type": "uint256"
						}
					],
					"name": "MessageSent",
					"type": "event"
				},
				{
					"inputs": [
						{
							"internalType": "uint64",
							"name": "destinationChainSelector",
							"type": "uint64"
						},
						{
							"internalType": "address",
							"name": "receiver",
							"type": "address"
						},
						{
							"internalType": "string",
							"name": "text",
							"type": "string"
						}
					],
					"name": "sendMessage",
					"outputs": [
						{
							"internalType": "bytes32",
							"name": "messageId",
							"type": "bytes32"
						}
					],
					"stateMutability": "nonpayable",
					"type": "function"
				}
			],
			"devdoc": {
				"kind": "dev",
				"methods": {
					"constructor": {
						"params": {
							"_link": "The address of the link contract.",
							"_router": "The address of the router contract."
						}
					},
					"sendMessage(uint64,address,string)": {
						"details": "Assumes your contract has sufficient LINK.",
						"params": {
							"destinationChainSelector": "The identifier (aka selector) for the destination blockchain.",
							"receiver": "The address of the recipient on the destination blockchain.",
							"text": "The string text to be sent."
						},
						"returns": {
							"messageId": "The ID of the message that was sent."
						}
					}
				},
				"title": "- A simple contract for sending string data across chains.",
				"version": 1
			},
			"evm": {
				"assembly": "    /* \"Sender.sol\":4574:8005  contract Sender {... */\n  mstore(0x40, 0x80)\n    /* \"Sender.sol\":5592:5735  constructor(address _router, address _link) {... */\n  callvalue\n  dup1\n  iszero\n  tag_1\n  jumpi\n  0x00\n  dup1\n  revert\ntag_1:\n  pop\n  mload(0x40)\n  sub(codesize, bytecodeSize)\n  dup1\n  bytecodeSize\n  dup4\n  codecopy\n  dup2\n  dup2\n  add\n  0x40\n  mstore\n  dup2\n  add\n  swap1\n  tag_2\n  swap2\n  swap1\n  tag_3\n  jump\t// in\ntag_2:\n    /* \"Sender.sol\":5671:5678  _router */\n  dup2\n    /* \"Sender.sol\":5646:5654  s_router */\n  0x00\n  dup1\n    /* \"Sender.sol\":5646:5679  s_router = IRouterClient(_router) */\n  0x0100\n  exp\n  dup2\n  sload\n  dup2\n  0xffffffffffffffffffffffffffffffffffffffff\n  mul\n  not\n  and\n  swap1\n  dup4\n  0xffffffffffffffffffffffffffffffffffffffff\n  and\n  mul\n  or\n  swap1\n  sstore\n  pop\n    /* \"Sender.sol\":5722:5727  _link */\n  dup1\n    /* \"Sender.sol\":5689:5700  s_linkToken */\n  0x01\n  0x00\n    /* \"Sender.sol\":5689:5728  s_linkToken = LinkTokenInterface(_link) */\n  0x0100\n  exp\n  dup2\n  sload\n  dup2\n  0xffffffffffffffffffffffffffffffffffffffff\n  mul\n  not\n  and\n  swap1\n  dup4\n  0xffffffffffffffffffffffffffffffffffffffff\n  and\n  mul\n  or\n  swap1\n  sstore\n  pop\n    /* \"Sender.sol\":5592:5735  constructor(address _router, address _link) {... */\n  pop\n  pop\n    /* \"Sender.sol\":4574:8005  contract Sender {... */\n  jump(tag_6)\n    /* \"#utility.yul\":88:205   */\ntag_8:\n    /* \"#utility.yul\":197:198   */\n  0x00\n    /* \"#utility.yul\":194:195   */\n  dup1\n    /* \"#utility.yul\":187:199   */\n  revert\n    /* \"#utility.yul\":334:460   */\ntag_10:\n    /* \"#utility.yul\":371:378   */\n  0x00\n    /* \"#utility.yul\":411:453   */\n  0xffffffffffffffffffffffffffffffffffffffff\n    /* \"#utility.yul\":404:409   */\n  dup3\n    /* \"#utility.yul\":400:454   */\n  and\n    /* \"#utility.yul\":389:454   */\n  swap1\n  pop\n    /* \"#utility.yul\":334:460   */\n  swap2\n  swap1\n  pop\n  jump\t// out\n    /* \"#utility.yul\":466:562   */\ntag_11:\n    /* \"#utility.yul\":503:510   */\n  0x00\n    /* \"#utility.yul\":532:556   */\n  tag_20\n    /* \"#utility.yul\":550:555   */\n  dup3\n    /* \"#utility.yul\":532:556   */\n  tag_10\n  jump\t// in\ntag_20:\n    /* \"#utility.yul\":521:556   */\n  swap1\n  pop\n    /* \"#utility.yul\":466:562   */\n  swap2\n  swap1\n  pop\n  jump\t// out\n    /* \"#utility.yul\":568:690   */\ntag_12:\n    /* \"#utility.yul\":641:665   */\n  tag_22\n    /* \"#utility.yul\":659:664   */\n  dup2\n    /* \"#utility.yul\":641:665   */\n  tag_11\n  jump\t// in\ntag_22:\n    /* \"#utility.yul\":634:639   */\n  dup2\n    /* \"#utility.yul\":631:666   */\n  eq\n    /* \"#utility.yul\":621:684   */\n  tag_23\n  jumpi\n    /* \"#utility.yul\":680:681   */\n  0x00\n    /* \"#utility.yul\":677:678   */\n  dup1\n    /* \"#utility.yul\":670:682   */\n  revert\n    /* \"#utility.yul\":621:684   */\ntag_23:\n    /* \"#utility.yul\":568:690   */\n  pop\n  jump\t// out\n    /* \"#utility.yul\":696:839   */\ntag_13:\n    /* \"#utility.yul\":753:758   */\n  0x00\n    /* \"#utility.yul\":784:790   */\n  dup2\n    /* \"#utility.yul\":778:791   */\n  mload\n    /* \"#utility.yul\":769:791   */\n  swap1\n  pop\n    /* \"#utility.yul\":800:833   */\n  tag_25\n    /* \"#utility.yul\":827:832   */\n  dup2\n    /* \"#utility.yul\":800:833   */\n  tag_12\n  jump\t// in\ntag_25:\n    /* \"#utility.yul\":696:839   */\n  swap3\n  swap2\n  pop\n  pop\n  jump\t// out\n    /* \"#utility.yul\":845:1352   */\ntag_3:\n    /* \"#utility.yul\":924:930   */\n  0x00\n    /* \"#utility.yul\":932:938   */\n  dup1\n    /* \"#utility.yul\":981:983   */\n  0x40\n    /* \"#utility.yul\":969:978   */\n  dup4\n    /* \"#utility.yul\":960:967   */\n  dup6\n    /* \"#utility.yul\":956:979   */\n  sub\n    /* \"#utility.yul\":952:984   */\n  slt\n    /* \"#utility.yul\":949:1068   */\n  iszero\n  tag_27\n  jumpi\n    /* \"#utility.yul\":987:1066   */\n  tag_28\n  tag_8\n  jump\t// in\ntag_28:\n    /* \"#utility.yul\":949:1068   */\ntag_27:\n    /* \"#utility.yul\":1107:1108   */\n  0x00\n    /* \"#utility.yul\":1132:1196   */\n  tag_29\n    /* \"#utility.yul\":1188:1195   */\n  dup6\n    /* \"#utility.yul\":1179:1185   */\n  dup3\n    /* \"#utility.yul\":1168:1177   */\n  dup7\n    /* \"#utility.yul\":1164:1186   */\n  add\n    /* \"#utility.yul\":1132:1196   */\n  tag_13\n  jump\t// in\ntag_29:\n    /* \"#utility.yul\":1122:1196   */\n  swap3\n  pop\n    /* \"#utility.yul\":1078:1206   */\n  pop\n    /* \"#utility.yul\":1245:1247   */\n  0x20\n    /* \"#utility.yul\":1271:1335   */\n  tag_30\n    /* \"#utility.yul\":1327:1334   */\n  dup6\n    /* \"#utility.yul\":1318:1324   */\n  dup3\n    /* \"#utility.yul\":1307:1316   */\n  dup7\n    /* \"#utility.yul\":1303:1325   */\n  add\n    /* \"#utility.yul\":1271:1335   */\n  tag_13\n  jump\t// in\ntag_30:\n    /* \"#utility.yul\":1261:1335   */\n  swap2\n  pop\n    /* \"#utility.yul\":1216:1345   */\n  pop\n    /* \"#utility.yul\":845:1352   */\n  swap3\n  pop\n  swap3\n  swap1\n  pop\n  jump\t// out\n    /* \"Sender.sol\":4574:8005  contract Sender {... */\ntag_6:\n  dataSize(sub_0)\n  dup1\n  dataOffset(sub_0)\n  0x00\n  codecopy\n  0x00\n  return\nstop\n\nsub_0: assembly {\n        /* \"Sender.sol\":4574:8005  contract Sender {... */\n      mstore(0x40, 0x80)\n      callvalue\n      dup1\n      iszero\n      tag_1\n      jumpi\n      0x00\n      dup1\n      revert\n    tag_1:\n      pop\n      jumpi(tag_2, lt(calldatasize, 0x04))\n      shr(0xe0, calldataload(0x00))\n      dup1\n      0x0eb5ad45\n      eq\n      tag_3\n      jumpi\n    tag_2:\n      0x00\n      dup1\n      revert\n        /* \"Sender.sol\":6159:8003  function sendMessage(... */\n    tag_3:\n      tag_4\n      0x04\n      dup1\n      calldatasize\n      sub\n      dup2\n      add\n      swap1\n      tag_5\n      swap2\n      swap1\n      tag_6\n      jump\t// in\n    tag_5:\n      tag_7\n      jump\t// in\n    tag_4:\n      mload(0x40)\n      tag_8\n      swap2\n      swap1\n      tag_9\n      jump\t// in\n    tag_8:\n      mload(0x40)\n      dup1\n      swap2\n      sub\n      swap1\n      return\n    tag_7:\n        /* \"Sender.sol\":6301:6318  bytes32 messageId */\n      0x00\n        /* \"Sender.sol\":6444:6487  Client.EVM2AnyMessage memory evm2AnyMessage */\n      dup1\n        /* \"Sender.sol\":6490:7067  Client.EVM2AnyMessage({... */\n      mload(0x40)\n      dup1\n      0xa0\n      add\n      0x40\n      mstore\n      dup1\n        /* \"Sender.sol\":6547:6555  receiver */\n      dup7\n        /* \"Sender.sol\":6536:6556  abi.encode(receiver) */\n      add(0x20, mload(0x40))\n      tag_11\n      swap2\n      swap1\n      tag_12\n      jump\t// in\n    tag_11:\n      mload(0x40)\n      0x20\n      dup2\n      dup4\n      sub\n      sub\n      dup2\n      mstore\n      swap1\n      0x40\n      mstore\n        /* \"Sender.sol\":6490:7067  Client.EVM2AnyMessage({... */\n      dup2\n      mstore\n      0x20\n      add\n        /* \"Sender.sol\":6619:6623  text */\n      dup6\n      dup6\n        /* \"Sender.sol\":6608:6624  abi.encode(text) */\n      add(0x20, mload(0x40))\n      tag_13\n      swap3\n      swap2\n      swap1\n      tag_14\n      jump\t// in\n    tag_13:\n      mload(0x40)\n      0x20\n      dup2\n      dup4\n      sub\n      sub\n      dup2\n      mstore\n      swap1\n      0x40\n      mstore\n        /* \"Sender.sol\":6490:7067  Client.EVM2AnyMessage({... */\n      dup2\n      mstore\n      0x20\n      add\n        /* \"Sender.sol\":6702:6703  0 */\n      0x00\n        /* \"Sender.sol\":6674:6704  new Client.EVMTokenAmount[](0) */\n      0xffffffffffffffff\n      dup2\n      gt\n      iszero\n      tag_15\n      jumpi\n      tag_16\n      tag_17\n      jump\t// in\n    tag_16:\n    tag_15:\n      mload(0x40)\n      swap1\n      dup1\n      dup3\n      mstore\n      dup1\n      0x20\n      mul\n      0x20\n      add\n      dup3\n      add\n      0x40\n      mstore\n      dup1\n      iszero\n      tag_18\n      jumpi\n      dup2\n      0x20\n      add\n    tag_19:\n      tag_20\n      tag_21\n      jump\t// in\n    tag_20:\n      dup2\n      mstore\n      0x20\n      add\n      swap1\n      0x01\n      swap1\n      sub\n      swap1\n      dup2\n      tag_19\n      jumpi\n      swap1\n      pop\n    tag_18:\n      pop\n        /* \"Sender.sol\":6490:7067  Client.EVM2AnyMessage({... */\n      dup2\n      mstore\n      0x20\n      add\n        /* \"Sender.sol\":7044:7055  s_linkToken */\n      0x01\n      0x00\n      swap1\n      sload\n      swap1\n      0x0100\n      exp\n      swap1\n      div\n      0xffffffffffffffffffffffffffffffffffffffff\n      and\n        /* \"Sender.sol\":6490:7067  Client.EVM2AnyMessage({... */\n      0xffffffffffffffffffffffffffffffffffffffff\n      and\n      dup2\n      mstore\n      0x20\n      add\n        /* \"Sender.sol\":6780:6932  Client._argsToBytes(... */\n      tag_22\n        /* \"Sender.sol\":6876:6918  Client.EVMExtraArgsV1({gasLimit: 200_000}) */\n      mload(0x40)\n      dup1\n      0x20\n      add\n      0x40\n      mstore\n      dup1\n        /* \"Sender.sol\":6909:6916  200_000 */\n      0x030d40\n        /* \"Sender.sol\":6876:6918  Client.EVMExtraArgsV1({gasLimit: 200_000}) */\n      dup2\n      mstore\n      pop\n        /* \"Sender.sol\":6780:6799  Client._argsToBytes */\n      tag_23\n        /* \"Sender.sol\":6780:6932  Client._argsToBytes(... */\n      jump\t// in\n    tag_22:\n        /* \"Sender.sol\":6490:7067  Client.EVM2AnyMessage({... */\n      dup2\n      mstore\n      pop\n        /* \"Sender.sol\":6444:7067  Client.EVM2AnyMessage memory evm2AnyMessage = Client.EVM2AnyMessage({... */\n      swap1\n      pop\n        /* \"Sender.sol\":7130:7142  uint256 fees */\n      0x00\n        /* \"Sender.sol\":7145:7153  s_router */\n      dup1\n      0x00\n      swap1\n      sload\n      swap1\n      0x0100\n      exp\n      swap1\n      div\n      0xffffffffffffffffffffffffffffffffffffffff\n      and\n        /* \"Sender.sol\":7145:7160  s_router.getFee */\n      0xffffffffffffffffffffffffffffffffffffffff\n      and\n      0x20487ded\n        /* \"Sender.sol\":7174:7198  destinationChainSelector */\n      dup9\n        /* \"Sender.sol\":7212:7226  evm2AnyMessage */\n      dup5\n        /* \"Sender.sol\":7145:7236  s_router.getFee(... */\n      mload(0x40)\n      dup4\n      0xffffffff\n      and\n      0xe0\n      shl\n      dup2\n      mstore\n      0x04\n      add\n      tag_24\n      swap3\n      swap2\n      swap1\n      tag_25\n      jump\t// in\n    tag_24:\n      0x20\n      mload(0x40)\n      dup1\n      dup4\n      sub\n      dup2\n      dup7\n      gas\n      staticcall\n      iszero\n      dup1\n      iszero\n      tag_27\n      jumpi\n      returndatasize\n      0x00\n      dup1\n      returndatacopy\n      revert(0x00, returndatasize)\n    tag_27:\n      pop\n      pop\n      pop\n      pop\n      mload(0x40)\n      returndatasize\n      not(0x1f)\n      0x1f\n      dup3\n      add\n      and\n      dup3\n      add\n      dup1\n      0x40\n      mstore\n      pop\n      dup2\n      add\n      swap1\n      tag_28\n      swap2\n      swap1\n      tag_29\n      jump\t// in\n    tag_28:\n        /* \"Sender.sol\":7130:7236  uint256 fees = s_router.getFee(... */\n      swap1\n      pop\n        /* \"Sender.sol\":7258:7269  s_linkToken */\n      0x01\n      0x00\n      swap1\n      sload\n      swap1\n      0x0100\n      exp\n      swap1\n      div\n      0xffffffffffffffffffffffffffffffffffffffff\n      and\n        /* \"Sender.sol\":7258:7279  s_linkToken.balanceOf */\n      0xffffffffffffffffffffffffffffffffffffffff\n      and\n      0x70a08231\n        /* \"Sender.sol\":7288:7292  this */\n      address\n        /* \"Sender.sol\":7258:7294  s_linkToken.balanceOf(address(this)) */\n      mload(0x40)\n      dup3\n      0xffffffff\n      and\n      0xe0\n      shl\n      dup2\n      mstore\n      0x04\n      add\n      tag_30\n      swap2\n      swap1\n      tag_12\n      jump\t// in\n    tag_30:\n      0x20\n      mload(0x40)\n      dup1\n      dup4\n      sub\n      dup2\n      dup7\n      gas\n      staticcall\n      iszero\n      dup1\n      iszero\n      tag_32\n      jumpi\n      returndatasize\n      0x00\n      dup1\n      returndatacopy\n      revert(0x00, returndatasize)\n    tag_32:\n      pop\n      pop\n      pop\n      pop\n      mload(0x40)\n      returndatasize\n      not(0x1f)\n      0x1f\n      dup3\n      add\n      and\n      dup3\n      add\n      dup1\n      0x40\n      mstore\n      pop\n      dup2\n      add\n      swap1\n      tag_33\n      swap2\n      swap1\n      tag_29\n      jump\t// in\n    tag_33:\n        /* \"Sender.sol\":7251:7255  fees */\n      dup2\n        /* \"Sender.sol\":7251:7294  fees > s_linkToken.balanceOf(address(this)) */\n      gt\n        /* \"Sender.sol\":7247:7375  if (fees > s_linkToken.balanceOf(address(this)))... */\n      iszero\n      tag_34\n      jumpi\n        /* \"Sender.sol\":7332:7343  s_linkToken */\n      0x01\n      0x00\n      swap1\n      sload\n      swap1\n      0x0100\n      exp\n      swap1\n      div\n      0xffffffffffffffffffffffffffffffffffffffff\n      and\n        /* \"Sender.sol\":7332:7353  s_linkToken.balanceOf */\n      0xffffffffffffffffffffffffffffffffffffffff\n      and\n      0x70a08231\n        /* \"Sender.sol\":7362:7366  this */\n      address\n        /* \"Sender.sol\":7332:7368  s_linkToken.balanceOf(address(this)) */\n      mload(0x40)\n      dup3\n      0xffffffff\n      and\n      0xe0\n      shl\n      dup2\n      mstore\n      0x04\n      add\n      tag_35\n      swap2\n      swap1\n      tag_12\n      jump\t// in\n    tag_35:\n      0x20\n      mload(0x40)\n      dup1\n      dup4\n      sub\n      dup2\n      dup7\n      gas\n      staticcall\n      iszero\n      dup1\n      iszero\n      tag_37\n      jumpi\n      returndatasize\n      0x00\n      dup1\n      returndatacopy\n      revert(0x00, returndatasize)\n    tag_37:\n      pop\n      pop\n      pop\n      pop\n      mload(0x40)\n      returndatasize\n      not(0x1f)\n      0x1f\n      dup3\n      add\n      and\n      dup3\n      add\n      dup1\n      0x40\n      mstore\n      pop\n      dup2\n      add\n      swap1\n      tag_38\n      swap2\n      swap1\n      tag_29\n      jump\t// in\n    tag_38:\n        /* \"Sender.sol\":7370:7374  fees */\n      dup2\n        /* \"Sender.sol\":7315:7375  NotEnoughBalance(s_linkToken.balanceOf(address(this)), fees) */\n      mload(0x40)\n      0x8f0f420600000000000000000000000000000000000000000000000000000000\n      dup2\n      mstore\n      0x04\n      add\n      tag_39\n      swap3\n      swap2\n      swap1\n      tag_40\n      jump\t// in\n    tag_39:\n      mload(0x40)\n      dup1\n      swap2\n      sub\n      swap1\n      revert\n        /* \"Sender.sol\":7247:7375  if (fees > s_linkToken.balanceOf(address(this)))... */\n    tag_34:\n        /* \"Sender.sol\":7493:7504  s_linkToken */\n      0x01\n      0x00\n      swap1\n      sload\n      swap1\n      0x0100\n      exp\n      swap1\n      div\n      0xffffffffffffffffffffffffffffffffffffffff\n      and\n        /* \"Sender.sol\":7493:7512  s_linkToken.approve */\n      0xffffffffffffffffffffffffffffffffffffffff\n      and\n      0x095ea7b3\n        /* \"Sender.sol\":7521:7529  s_router */\n      0x00\n      dup1\n      sload\n      swap1\n      0x0100\n      exp\n      swap1\n      div\n      0xffffffffffffffffffffffffffffffffffffffff\n      and\n        /* \"Sender.sol\":7532:7536  fees */\n      dup4\n        /* \"Sender.sol\":7493:7537  s_linkToken.approve(address(s_router), fees) */\n      mload(0x40)\n      dup4\n      0xffffffff\n      and\n      0xe0\n      shl\n      dup2\n      mstore\n      0x04\n      add\n      tag_41\n      swap3\n      swap2\n      swap1\n      tag_42\n      jump\t// in\n    tag_41:\n      0x20\n      mload(0x40)\n      dup1\n      dup4\n      sub\n      dup2\n      0x00\n      dup8\n      gas\n      call\n      iszero\n      dup1\n      iszero\n      tag_44\n      jumpi\n      returndatasize\n      0x00\n      dup1\n      returndatacopy\n      revert(0x00, returndatasize)\n    tag_44:\n      pop\n      pop\n      pop\n      pop\n      mload(0x40)\n      returndatasize\n      not(0x1f)\n      0x1f\n      dup3\n      add\n      and\n      dup3\n      add\n      dup1\n      0x40\n      mstore\n      pop\n      dup2\n      add\n      swap1\n      tag_45\n      swap2\n      swap1\n      tag_46\n      jump\t// in\n    tag_45:\n      pop\n        /* \"Sender.sol\":7641:7649  s_router */\n      0x00\n      dup1\n      sload\n      swap1\n      0x0100\n      exp\n      swap1\n      div\n      0xffffffffffffffffffffffffffffffffffffffff\n      and\n        /* \"Sender.sol\":7641:7658  s_router.ccipSend */\n      0xffffffffffffffffffffffffffffffffffffffff\n      and\n      0x96f4e9f9\n        /* \"Sender.sol\":7659:7683  destinationChainSelector */\n      dup9\n        /* \"Sender.sol\":7685:7699  evm2AnyMessage */\n      dup5\n        /* \"Sender.sol\":7641:7700  s_router.ccipSend(destinationChainSelector, evm2AnyMessage) */\n      mload(0x40)\n      dup4\n      0xffffffff\n      and\n      0xe0\n      shl\n      dup2\n      mstore\n      0x04\n      add\n      tag_47\n      swap3\n      swap2\n      swap1\n      tag_25\n      jump\t// in\n    tag_47:\n      0x20\n      mload(0x40)\n      dup1\n      dup4\n      sub\n      dup2\n      0x00\n      dup8\n      gas\n      call\n      iszero\n      dup1\n      iszero\n      tag_49\n      jumpi\n      returndatasize\n      0x00\n      dup1\n      returndatacopy\n      revert(0x00, returndatasize)\n    tag_49:\n      pop\n      pop\n      pop\n      pop\n      mload(0x40)\n      returndatasize\n      not(0x1f)\n      0x1f\n      dup3\n      add\n      and\n      dup3\n      add\n      dup1\n      0x40\n      mstore\n      pop\n      dup2\n      add\n      swap1\n      tag_50\n      swap2\n      swap1\n      tag_51\n      jump\t// in\n    tag_50:\n        /* \"Sender.sol\":7629:7700  messageId = s_router.ccipSend(destinationChainSelector, evm2AnyMessage) */\n      swap3\n      pop\n        /* \"Sender.sol\":7810:7834  destinationChainSelector */\n      dup7\n        /* \"Sender.sol\":7762:7936  MessageSent(... */\n      0xffffffffffffffff\n      and\n        /* \"Sender.sol\":7787:7796  messageId */\n      dup4\n        /* \"Sender.sol\":7762:7936  MessageSent(... */\n      0xd36445359b3c6e26c120659aef090ce0f2eb005cf9af450d11aa1225609b4f4d\n        /* \"Sender.sol\":7848:7856  receiver */\n      dup9\n        /* \"Sender.sol\":7870:7874  text */\n      dup9\n      dup9\n        /* \"Sender.sol\":7896:7907  s_linkToken */\n      0x01\n      0x00\n      swap1\n      sload\n      swap1\n      0x0100\n      exp\n      swap1\n      div\n      0xffffffffffffffffffffffffffffffffffffffff\n      and\n        /* \"Sender.sol\":7922:7926  fees */\n      dup8\n        /* \"Sender.sol\":7762:7936  MessageSent(... */\n      mload(0x40)\n      tag_52\n      swap6\n      swap5\n      swap4\n      swap3\n      swap2\n      swap1\n      tag_53\n      jump\t// in\n    tag_52:\n      mload(0x40)\n      dup1\n      swap2\n      sub\n      swap1\n      log3\n        /* \"Sender.sol\":7980:7996  return messageId */\n      pop\n      pop\n        /* \"Sender.sol\":6159:8003  function sendMessage(... */\n      swap5\n      swap4\n      pop\n      pop\n      pop\n      pop\n      jump\t// out\n        /* \"Sender.sol\":3106:3276  function _argsToBytes(EVMExtraArgsV1 memory extraArgs) internal pure returns (bytes memory bts) {... */\n    tag_23:\n        /* \"Sender.sol\":3184:3200  bytes memory bts */\n      0x60\n        /* \"Sender.sol\":3039:3049  0x97a657c9 */\n      0x97a657c9\n        /* \"Sender.sol\":3238:3259  EVM_EXTRA_ARGS_V1_TAG */\n      0xe0\n      shl\n        /* \"Sender.sol\":3261:3270  extraArgs */\n      dup3\n        /* \"Sender.sol\":3215:3271  abi.encodeWithSelector(EVM_EXTRA_ARGS_V1_TAG, extraArgs) */\n      add(0x24, mload(0x40))\n      tag_55\n      swap2\n      swap1\n      tag_56\n      jump\t// in\n    tag_55:\n      mload(0x40)\n      0x20\n      dup2\n      dup4\n      sub\n      sub\n      dup2\n      mstore\n      swap1\n      0x40\n      mstore\n      swap1\n      not(0xffffffffffffffffffffffffffffffffffffffffffffffffffffffff)\n      and\n      0x20\n      dup3\n      add\n      dup1\n      mload\n      0xffffffffffffffffffffffffffffffffffffffffffffffffffffffff\n      dup4\n      dup2\n      dup4\n      and\n      or\n      dup4\n      mstore\n      pop\n      pop\n      pop\n      pop\n        /* \"Sender.sol\":3208:3271  return abi.encodeWithSelector(EVM_EXTRA_ARGS_V1_TAG, extraArgs) */\n      swap1\n      pop\n        /* \"Sender.sol\":3106:3276  function _argsToBytes(EVMExtraArgsV1 memory extraArgs) internal pure returns (bytes memory bts) {... */\n      swap2\n      swap1\n      pop\n      jump\t// out\n    tag_21:\n      mload(0x40)\n      dup1\n      0x40\n      add\n      0x40\n      mstore\n      dup1\n      and(0xffffffffffffffffffffffffffffffffffffffff, 0x00)\n      dup2\n      mstore\n      0x20\n      add\n      0x00\n      dup2\n      mstore\n      pop\n      swap1\n      jump\t// out\n        /* \"#utility.yul\":88:205   */\n    tag_58:\n        /* \"#utility.yul\":197:198   */\n      0x00\n        /* \"#utility.yul\":194:195   */\n      dup1\n        /* \"#utility.yul\":187:199   */\n      revert\n        /* \"#utility.yul\":211:328   */\n    tag_59:\n        /* \"#utility.yul\":320:321   */\n      0x00\n        /* \"#utility.yul\":317:318   */\n      dup1\n        /* \"#utility.yul\":310:322   */\n      revert\n        /* \"#utility.yul\":334:435   */\n    tag_60:\n        /* \"#utility.yul\":370:377   */\n      0x00\n        /* \"#utility.yul\":410:428   */\n      0xffffffffffffffff\n        /* \"#utility.yul\":403:408   */\n      dup3\n        /* \"#utility.yul\":399:429   */\n      and\n        /* \"#utility.yul\":388:429   */\n      swap1\n      pop\n        /* \"#utility.yul\":334:435   */\n      swap2\n      swap1\n      pop\n      jump\t// out\n        /* \"#utility.yul\":441:561   */\n    tag_61:\n        /* \"#utility.yul\":513:536   */\n      tag_109\n        /* \"#utility.yul\":530:535   */\n      dup2\n        /* \"#utility.yul\":513:536   */\n      tag_60\n      jump\t// in\n    tag_109:\n        /* \"#utility.yul\":506:511   */\n      dup2\n        /* \"#utility.yul\":503:537   */\n      eq\n        /* \"#utility.yul\":493:555   */\n      tag_110\n      jumpi\n        /* \"#utility.yul\":551:552   */\n      0x00\n        /* \"#utility.yul\":548:549   */\n      dup1\n        /* \"#utility.yul\":541:553   */\n      revert\n        /* \"#utility.yul\":493:555   */\n    tag_110:\n        /* \"#utility.yul\":441:561   */\n      pop\n      jump\t// out\n        /* \"#utility.yul\":567:704   */\n    tag_62:\n        /* \"#utility.yul\":612:617   */\n      0x00\n        /* \"#utility.yul\":650:656   */\n      dup2\n        /* \"#utility.yul\":637:657   */\n      calldataload\n        /* \"#utility.yul\":628:657   */\n      swap1\n      pop\n        /* \"#utility.yul\":666:698   */\n      tag_112\n        /* \"#utility.yul\":692:697   */\n      dup2\n        /* \"#utility.yul\":666:698   */\n      tag_61\n      jump\t// in\n    tag_112:\n        /* \"#utility.yul\":567:704   */\n      swap3\n      swap2\n      pop\n      pop\n      jump\t// out\n        /* \"#utility.yul\":710:836   */\n    tag_63:\n        /* \"#utility.yul\":747:754   */\n      0x00\n        /* \"#utility.yul\":787:829   */\n      0xffffffffffffffffffffffffffffffffffffffff\n        /* \"#utility.yul\":780:785   */\n      dup3\n        /* \"#utility.yul\":776:830   */\n      and\n        /* \"#utility.yul\":765:830   */\n      swap1\n      pop\n        /* \"#utility.yul\":710:836   */\n      swap2\n      swap1\n      pop\n      jump\t// out\n        /* \"#utility.yul\":842:938   */\n    tag_64:\n        /* \"#utility.yul\":879:886   */\n      0x00\n        /* \"#utility.yul\":908:932   */\n      tag_115\n        /* \"#utility.yul\":926:931   */\n      dup3\n        /* \"#utility.yul\":908:932   */\n      tag_63\n      jump\t// in\n    tag_115:\n        /* \"#utility.yul\":897:932   */\n      swap1\n      pop\n        /* \"#utility.yul\":842:938   */\n      swap2\n      swap1\n      pop\n      jump\t// out\n        /* \"#utility.yul\":944:1066   */\n    tag_65:\n        /* \"#utility.yul\":1017:1041   */\n      tag_117\n        /* \"#utility.yul\":1035:1040   */\n      dup2\n        /* \"#utility.yul\":1017:1041   */\n      tag_64\n      jump\t// in\n    tag_117:\n        /* \"#utility.yul\":1010:1015   */\n      dup2\n        /* \"#utility.yul\":1007:1042   */\n      eq\n        /* \"#utility.yul\":997:1060   */\n      tag_118\n      jumpi\n        /* \"#utility.yul\":1056:1057   */\n      0x00\n        /* \"#utility.yul\":1053:1054   */\n      dup1\n        /* \"#utility.yul\":1046:1058   */\n      revert\n        /* \"#utility.yul\":997:1060   */\n    tag_118:\n        /* \"#utility.yul\":944:1066   */\n      pop\n      jump\t// out\n        /* \"#utility.yul\":1072:1211   */\n    tag_66:\n        /* \"#utility.yul\":1118:1123   */\n      0x00\n        /* \"#utility.yul\":1156:1162   */\n      dup2\n        /* \"#utility.yul\":1143:1163   */\n      calldataload\n        /* \"#utility.yul\":1134:1163   */\n      swap1\n      pop\n        /* \"#utility.yul\":1172:1205   */\n      tag_120\n        /* \"#utility.yul\":1199:1204   */\n      dup2\n        /* \"#utility.yul\":1172:1205   */\n      tag_65\n      jump\t// in\n    tag_120:\n        /* \"#utility.yul\":1072:1211   */\n      swap3\n      swap2\n      pop\n      pop\n      jump\t// out\n        /* \"#utility.yul\":1217:1334   */\n    tag_67:\n        /* \"#utility.yul\":1326:1327   */\n      0x00\n        /* \"#utility.yul\":1323:1324   */\n      dup1\n        /* \"#utility.yul\":1316:1328   */\n      revert\n        /* \"#utility.yul\":1340:1457   */\n    tag_68:\n        /* \"#utility.yul\":1449:1450   */\n      0x00\n        /* \"#utility.yul\":1446:1447   */\n      dup1\n        /* \"#utility.yul\":1439:1451   */\n      revert\n        /* \"#utility.yul\":1463:1580   */\n    tag_69:\n        /* \"#utility.yul\":1572:1573   */\n      0x00\n        /* \"#utility.yul\":1569:1570   */\n      dup1\n        /* \"#utility.yul\":1562:1574   */\n      revert\n        /* \"#utility.yul\":1600:2153   */\n    tag_70:\n        /* \"#utility.yul\":1658:1666   */\n      0x00\n        /* \"#utility.yul\":1668:1674   */\n      dup1\n        /* \"#utility.yul\":1718:1721   */\n      dup4\n        /* \"#utility.yul\":1711:1715   */\n      0x1f\n        /* \"#utility.yul\":1703:1709   */\n      dup5\n        /* \"#utility.yul\":1699:1716   */\n      add\n        /* \"#utility.yul\":1695:1722   */\n      slt\n        /* \"#utility.yul\":1685:1807   */\n      tag_125\n      jumpi\n        /* \"#utility.yul\":1726:1805   */\n      tag_126\n      tag_67\n      jump\t// in\n    tag_126:\n        /* \"#utility.yul\":1685:1807   */\n    tag_125:\n        /* \"#utility.yul\":1839:1845   */\n      dup3\n        /* \"#utility.yul\":1826:1846   */\n      calldataload\n        /* \"#utility.yul\":1816:1846   */\n      swap1\n      pop\n        /* \"#utility.yul\":1869:1887   */\n      0xffffffffffffffff\n        /* \"#utility.yul\":1861:1867   */\n      dup2\n        /* \"#utility.yul\":1858:1888   */\n      gt\n        /* \"#utility.yul\":1855:1972   */\n      iszero\n      tag_127\n      jumpi\n        /* \"#utility.yul\":1891:1970   */\n      tag_128\n      tag_68\n      jump\t// in\n    tag_128:\n        /* \"#utility.yul\":1855:1972   */\n    tag_127:\n        /* \"#utility.yul\":2005:2009   */\n      0x20\n        /* \"#utility.yul\":1997:2003   */\n      dup4\n        /* \"#utility.yul\":1993:2010   */\n      add\n        /* \"#utility.yul\":1981:2010   */\n      swap2\n      pop\n        /* \"#utility.yul\":2059:2062   */\n      dup4\n        /* \"#utility.yul\":2051:2055   */\n      0x01\n        /* \"#utility.yul\":2043:2049   */\n      dup3\n        /* \"#utility.yul\":2039:2056   */\n      mul\n        /* \"#utility.yul\":2029:2037   */\n      dup4\n        /* \"#utility.yul\":2025:2057   */\n      add\n        /* \"#utility.yul\":2022:2063   */\n      gt\n        /* \"#utility.yul\":2019:2147   */\n      iszero\n      tag_129\n      jumpi\n        /* \"#utility.yul\":2066:2145   */\n      tag_130\n      tag_69\n      jump\t// in\n    tag_130:\n        /* \"#utility.yul\":2019:2147   */\n    tag_129:\n        /* \"#utility.yul\":1600:2153   */\n      swap3\n      pop\n      swap3\n      swap1\n      pop\n      jump\t// out\n        /* \"#utility.yul\":2159:2976   */\n    tag_6:\n        /* \"#utility.yul\":2247:2253   */\n      0x00\n        /* \"#utility.yul\":2255:2261   */\n      dup1\n        /* \"#utility.yul\":2263:2269   */\n      0x00\n        /* \"#utility.yul\":2271:2277   */\n      dup1\n        /* \"#utility.yul\":2320:2322   */\n      0x60\n        /* \"#utility.yul\":2308:2317   */\n      dup6\n        /* \"#utility.yul\":2299:2306   */\n      dup8\n        /* \"#utility.yul\":2295:2318   */\n      sub\n        /* \"#utility.yul\":2291:2323   */\n      slt\n        /* \"#utility.yul\":2288:2407   */\n      iszero\n      tag_132\n      jumpi\n        /* \"#utility.yul\":2326:2405   */\n      tag_133\n      tag_58\n      jump\t// in\n    tag_133:\n        /* \"#utility.yul\":2288:2407   */\n    tag_132:\n        /* \"#utility.yul\":2446:2447   */\n      0x00\n        /* \"#utility.yul\":2471:2523   */\n      tag_134\n        /* \"#utility.yul\":2515:2522   */\n      dup8\n        /* \"#utility.yul\":2506:2512   */\n      dup3\n        /* \"#utility.yul\":2495:2504   */\n      dup9\n        /* \"#utility.yul\":2491:2513   */\n      add\n        /* \"#utility.yul\":2471:2523   */\n      tag_62\n      jump\t// in\n    tag_134:\n        /* \"#utility.yul\":2461:2523   */\n      swap5\n      pop\n        /* \"#utility.yul\":2417:2533   */\n      pop\n        /* \"#utility.yul\":2572:2574   */\n      0x20\n        /* \"#utility.yul\":2598:2651   */\n      tag_135\n        /* \"#utility.yul\":2643:2650   */\n      dup8\n        /* \"#utility.yul\":2634:2640   */\n      dup3\n        /* \"#utility.yul\":2623:2632   */\n      dup9\n        /* \"#utility.yul\":2619:2641   */\n      add\n        /* \"#utility.yul\":2598:2651   */\n      tag_66\n      jump\t// in\n    tag_135:\n        /* \"#utility.yul\":2588:2651   */\n      swap4\n      pop\n        /* \"#utility.yul\":2543:2661   */\n      pop\n        /* \"#utility.yul\":2728:2730   */\n      0x40\n        /* \"#utility.yul\":2717:2726   */\n      dup6\n        /* \"#utility.yul\":2713:2731   */\n      add\n        /* \"#utility.yul\":2700:2732   */\n      calldataload\n        /* \"#utility.yul\":2759:2777   */\n      0xffffffffffffffff\n        /* \"#utility.yul\":2751:2757   */\n      dup2\n        /* \"#utility.yul\":2748:2778   */\n      gt\n        /* \"#utility.yul\":2745:2862   */\n      iszero\n      tag_136\n      jumpi\n        /* \"#utility.yul\":2781:2860   */\n      tag_137\n      tag_59\n      jump\t// in\n    tag_137:\n        /* \"#utility.yul\":2745:2862   */\n    tag_136:\n        /* \"#utility.yul\":2894:2959   */\n      tag_138\n        /* \"#utility.yul\":2951:2958   */\n      dup8\n        /* \"#utility.yul\":2942:2948   */\n      dup3\n        /* \"#utility.yul\":2931:2940   */\n      dup9\n        /* \"#utility.yul\":2927:2949   */\n      add\n        /* \"#utility.yul\":2894:2959   */\n      tag_70\n      jump\t// in\n    tag_138:\n        /* \"#utility.yul\":2876:2959   */\n      swap3\n      pop\n      swap3\n      pop\n        /* \"#utility.yul\":2671:2969   */\n      pop\n        /* \"#utility.yul\":2159:2976   */\n      swap3\n      swap6\n      swap2\n      swap5\n      pop\n      swap3\n      pop\n      jump\t// out\n        /* \"#utility.yul\":2982:3059   */\n    tag_71:\n        /* \"#utility.yul\":3019:3026   */\n      0x00\n        /* \"#utility.yul\":3048:3053   */\n      dup2\n        /* \"#utility.yul\":3037:3053   */\n      swap1\n      pop\n        /* \"#utility.yul\":2982:3059   */\n      swap2\n      swap1\n      pop\n      jump\t// out\n        /* \"#utility.yul\":3065:3183   */\n    tag_72:\n        /* \"#utility.yul\":3152:3176   */\n      tag_141\n        /* \"#utility.yul\":3170:3175   */\n      dup2\n        /* \"#utility.yul\":3152:3176   */\n      tag_71\n      jump\t// in\n    tag_141:\n        /* \"#utility.yul\":3147:3150   */\n      dup3\n        /* \"#utility.yul\":3140:3177   */\n      mstore\n        /* \"#utility.yul\":3065:3183   */\n      pop\n      pop\n      jump\t// out\n        /* \"#utility.yul\":3189:3411   */\n    tag_9:\n        /* \"#utility.yul\":3282:3286   */\n      0x00\n        /* \"#utility.yul\":3320:3322   */\n      0x20\n        /* \"#utility.yul\":3309:3318   */\n      dup3\n        /* \"#utility.yul\":3305:3323   */\n      add\n        /* \"#utility.yul\":3297:3323   */\n      swap1\n      pop\n        /* \"#utility.yul\":3333:3404   */\n      tag_143\n        /* \"#utility.yul\":3401:3402   */\n      0x00\n        /* \"#utility.yul\":3390:3399   */\n      dup4\n        /* \"#utility.yul\":3386:3403   */\n      add\n        /* \"#utility.yul\":3377:3383   */\n      dup5\n        /* \"#utility.yul\":3333:3404   */\n      tag_72\n      jump\t// in\n    tag_143:\n        /* \"#utility.yul\":3189:3411   */\n      swap3\n      swap2\n      pop\n      pop\n      jump\t// out\n        /* \"#utility.yul\":3417:3535   */\n    tag_73:\n        /* \"#utility.yul\":3504:3528   */\n      tag_145\n        /* \"#utility.yul\":3522:3527   */\n      dup2\n        /* \"#utility.yul\":3504:3528   */\n      tag_64\n      jump\t// in\n    tag_145:\n        /* \"#utility.yul\":3499:3502   */\n      dup3\n        /* \"#utility.yul\":3492:3529   */\n      mstore\n        /* \"#utility.yul\":3417:3535   */\n      pop\n      pop\n      jump\t// out\n        /* \"#utility.yul\":3541:3763   */\n    tag_12:\n        /* \"#utility.yul\":3634:3638   */\n      0x00\n        /* \"#utility.yul\":3672:3674   */\n      0x20\n        /* \"#utility.yul\":3661:3670   */\n      dup3\n        /* \"#utility.yul\":3657:3675   */\n      add\n        /* \"#utility.yul\":3649:3675   */\n      swap1\n      pop\n        /* \"#utility.yul\":3685:3756   */\n      tag_147\n        /* \"#utility.yul\":3753:3754   */\n      0x00\n        /* \"#utility.yul\":3742:3751   */\n      dup4\n        /* \"#utility.yul\":3738:3755   */\n      add\n        /* \"#utility.yul\":3729:3735   */\n      dup5\n        /* \"#utility.yul\":3685:3756   */\n      tag_73\n      jump\t// in\n    tag_147:\n        /* \"#utility.yul\":3541:3763   */\n      swap3\n      swap2\n      pop\n      pop\n      jump\t// out\n        /* \"#utility.yul\":3769:3938   */\n    tag_74:\n        /* \"#utility.yul\":3853:3864   */\n      0x00\n        /* \"#utility.yul\":3887:3893   */\n      dup3\n        /* \"#utility.yul\":3882:3885   */\n      dup3\n        /* \"#utility.yul\":3875:3894   */\n      mstore\n        /* \"#utility.yul\":3927:3931   */\n      0x20\n        /* \"#utility.yul\":3922:3925   */\n      dup3\n        /* \"#utility.yul\":3918:3932   */\n      add\n        /* \"#utility.yul\":3903:3932   */\n      swap1\n      pop\n        /* \"#utility.yul\":3769:3938   */\n      swap3\n      swap2\n      pop\n      pop\n      jump\t// out\n        /* \"#utility.yul\":3944:4090   */\n    tag_75:\n        /* \"#utility.yul\":4041:4047   */\n      dup3\n        /* \"#utility.yul\":4036:4039   */\n      dup2\n        /* \"#utility.yul\":4031:4034   */\n      dup4\n        /* \"#utility.yul\":4018:4048   */\n      calldatacopy\n        /* \"#utility.yul\":4082:4083   */\n      0x00\n        /* \"#utility.yul\":4073:4079   */\n      dup4\n        /* \"#utility.yul\":4068:4071   */\n      dup4\n        /* \"#utility.yul\":4064:4080   */\n      add\n        /* \"#utility.yul\":4057:4084   */\n      mstore\n        /* \"#utility.yul\":3944:4090   */\n      pop\n      pop\n      pop\n      jump\t// out\n        /* \"#utility.yul\":4096:4198   */\n    tag_76:\n        /* \"#utility.yul\":4137:4143   */\n      0x00\n        /* \"#utility.yul\":4188:4190   */\n      0x1f\n        /* \"#utility.yul\":4184:4191   */\n      not\n        /* \"#utility.yul\":4179:4181   */\n      0x1f\n        /* \"#utility.yul\":4172:4177   */\n      dup4\n        /* \"#utility.yul\":4168:4182   */\n      add\n        /* \"#utility.yul\":4164:4192   */\n      and\n        /* \"#utility.yul\":4154:4192   */\n      swap1\n      pop\n        /* \"#utility.yul\":4096:4198   */\n      swap2\n      swap1\n      pop\n      jump\t// out\n        /* \"#utility.yul\":4228:4545   */\n    tag_77:\n        /* \"#utility.yul\":4326:4329   */\n      0x00\n        /* \"#utility.yul\":4347:4418   */\n      tag_152\n        /* \"#utility.yul\":4411:4417   */\n      dup4\n        /* \"#utility.yul\":4406:4409   */\n      dup6\n        /* \"#utility.yul\":4347:4418   */\n      tag_74\n      jump\t// in\n    tag_152:\n        /* \"#utility.yul\":4340:4418   */\n      swap4\n      pop\n        /* \"#utility.yul\":4428:4484   */\n      tag_153\n        /* \"#utility.yul\":4477:4483   */\n      dup4\n        /* \"#utility.yul\":4472:4475   */\n      dup6\n        /* \"#utility.yul\":4465:4470   */\n      dup5\n        /* \"#utility.yul\":4428:4484   */\n      tag_75\n      jump\t// in\n    tag_153:\n        /* \"#utility.yul\":4509:4538   */\n      tag_154\n        /* \"#utility.yul\":4531:4537   */\n      dup4\n        /* \"#utility.yul\":4509:4538   */\n      tag_76\n      jump\t// in\n    tag_154:\n        /* \"#utility.yul\":4504:4507   */\n      dup5\n        /* \"#utility.yul\":4500:4539   */\n      add\n        /* \"#utility.yul\":4493:4539   */\n      swap1\n      pop\n        /* \"#utility.yul\":4228:4545   */\n      swap4\n      swap3\n      pop\n      pop\n      pop\n      jump\t// out\n        /* \"#utility.yul\":4551:4884   */\n    tag_14:\n        /* \"#utility.yul\":4674:4678   */\n      0x00\n        /* \"#utility.yul\":4712:4714   */\n      0x20\n        /* \"#utility.yul\":4701:4710   */\n      dup3\n        /* \"#utility.yul\":4697:4715   */\n      add\n        /* \"#utility.yul\":4689:4715   */\n      swap1\n      pop\n        /* \"#utility.yul\":4761:4770   */\n      dup2\n        /* \"#utility.yul\":4755:4759   */\n      dup2\n        /* \"#utility.yul\":4751:4771   */\n      sub\n        /* \"#utility.yul\":4747:4748   */\n      0x00\n        /* \"#utility.yul\":4736:4745   */\n      dup4\n        /* \"#utility.yul\":4732:4749   */\n      add\n        /* \"#utility.yul\":4725:4772   */\n      mstore\n        /* \"#utility.yul\":4789:4877   */\n      tag_156\n        /* \"#utility.yul\":4872:4876   */\n      dup2\n        /* \"#utility.yul\":4863:4869   */\n      dup5\n        /* \"#utility.yul\":4855:4861   */\n      dup7\n        /* \"#utility.yul\":4789:4877   */\n      tag_77\n      jump\t// in\n    tag_156:\n        /* \"#utility.yul\":4781:4877   */\n      swap1\n      pop\n        /* \"#utility.yul\":4551:4884   */\n      swap4\n      swap3\n      pop\n      pop\n      pop\n      jump\t// out\n        /* \"#utility.yul\":4890:5070   */\n    tag_17:\n        /* \"#utility.yul\":4938:5015   */\n      0x4e487b7100000000000000000000000000000000000000000000000000000000\n        /* \"#utility.yul\":4935:4936   */\n      0x00\n        /* \"#utility.yul\":4928:5016   */\n      mstore\n        /* \"#utility.yul\":5035:5039   */\n      0x41\n        /* \"#utility.yul\":5032:5033   */\n      0x04\n        /* \"#utility.yul\":5025:5040   */\n      mstore\n        /* \"#utility.yul\":5059:5063   */\n      0x24\n        /* \"#utility.yul\":5056:5057   */\n      0x00\n        /* \"#utility.yul\":5049:5064   */\n      revert\n        /* \"#utility.yul\":5076:5191   */\n    tag_78:\n        /* \"#utility.yul\":5161:5184   */\n      tag_159\n        /* \"#utility.yul\":5178:5183   */\n      dup2\n        /* \"#utility.yul\":5161:5184   */\n      tag_60\n      jump\t// in\n    tag_159:\n        /* \"#utility.yul\":5156:5159   */\n      dup3\n        /* \"#utility.yul\":5149:5185   */\n      mstore\n        /* \"#utility.yul\":5076:5191   */\n      pop\n      pop\n      jump\t// out\n        /* \"#utility.yul\":5197:5295   */\n    tag_79:\n        /* \"#utility.yul\":5248:5254   */\n      0x00\n        /* \"#utility.yul\":5282:5287   */\n      dup2\n        /* \"#utility.yul\":5276:5288   */\n      mload\n        /* \"#utility.yul\":5266:5288   */\n      swap1\n      pop\n        /* \"#utility.yul\":5197:5295   */\n      swap2\n      swap1\n      pop\n      jump\t// out\n        /* \"#utility.yul\":5301:5459   */\n    tag_80:\n        /* \"#utility.yul\":5374:5385   */\n      0x00\n        /* \"#utility.yul\":5408:5414   */\n      dup3\n        /* \"#utility.yul\":5403:5406   */\n      dup3\n        /* \"#utility.yul\":5396:5415   */\n      mstore\n        /* \"#utility.yul\":5448:5452   */\n      0x20\n        /* \"#utility.yul\":5443:5446   */\n      dup3\n        /* \"#utility.yul\":5439:5453   */\n      add\n        /* \"#utility.yul\":5424:5453   */\n      swap1\n      pop\n        /* \"#utility.yul\":5301:5459   */\n      swap3\n      swap2\n      pop\n      pop\n      jump\t// out\n        /* \"#utility.yul\":5465:5711   */\n    tag_81:\n        /* \"#utility.yul\":5546:5547   */\n      0x00\n        /* \"#utility.yul\":5556:5669   */\n    tag_163:\n        /* \"#utility.yul\":5570:5576   */\n      dup4\n        /* \"#utility.yul\":5567:5568   */\n      dup2\n        /* \"#utility.yul\":5564:5577   */\n      lt\n        /* \"#utility.yul\":5556:5669   */\n      iszero\n      tag_165\n      jumpi\n        /* \"#utility.yul\":5655:5656   */\n      dup1\n        /* \"#utility.yul\":5650:5653   */\n      dup3\n        /* \"#utility.yul\":5646:5657   */\n      add\n        /* \"#utility.yul\":5640:5658   */\n      mload\n        /* \"#utility.yul\":5636:5637   */\n      dup2\n        /* \"#utility.yul\":5631:5634   */\n      dup5\n        /* \"#utility.yul\":5627:5638   */\n      add\n        /* \"#utility.yul\":5620:5659   */\n      mstore\n        /* \"#utility.yul\":5592:5594   */\n      0x20\n        /* \"#utility.yul\":5589:5590   */\n      dup2\n        /* \"#utility.yul\":5585:5595   */\n      add\n        /* \"#utility.yul\":5580:5595   */\n      swap1\n      pop\n        /* \"#utility.yul\":5556:5669   */\n      jump(tag_163)\n    tag_165:\n        /* \"#utility.yul\":5703:5704   */\n      0x00\n        /* \"#utility.yul\":5694:5700   */\n      dup5\n        /* \"#utility.yul\":5689:5692   */\n      dup5\n        /* \"#utility.yul\":5685:5701   */\n      add\n        /* \"#utility.yul\":5678:5705   */\n      mstore\n        /* \"#utility.yul\":5527:5711   */\n      pop\n        /* \"#utility.yul\":5465:5711   */\n      pop\n      pop\n      pop\n      jump\t// out\n        /* \"#utility.yul\":5717:6070   */\n    tag_82:\n        /* \"#utility.yul\":5793:5796   */\n      0x00\n        /* \"#utility.yul\":5821:5859   */\n      tag_167\n        /* \"#utility.yul\":5853:5858   */\n      dup3\n        /* \"#utility.yul\":5821:5859   */\n      tag_79\n      jump\t// in\n    tag_167:\n        /* \"#utility.yul\":5875:5935   */\n      tag_168\n        /* \"#utility.yul\":5928:5934   */\n      dup2\n        /* \"#utility.yul\":5923:5926   */\n      dup6\n        /* \"#utility.yul\":5875:5935   */\n      tag_80\n      jump\t// in\n    tag_168:\n        /* \"#utility.yul\":5868:5935   */\n      swap4\n      pop\n        /* \"#utility.yul\":5944:6009   */\n      tag_169\n        /* \"#utility.yul\":6002:6008   */\n      dup2\n        /* \"#utility.yul\":5997:6000   */\n      dup6\n        /* \"#utility.yul\":5990:5994   */\n      0x20\n        /* \"#utility.yul\":5983:5988   */\n      dup7\n        /* \"#utility.yul\":5979:5995   */\n      add\n        /* \"#utility.yul\":5944:6009   */\n      tag_81\n      jump\t// in\n    tag_169:\n        /* \"#utility.yul\":6034:6063   */\n      tag_170\n        /* \"#utility.yul\":6056:6062   */\n      dup2\n        /* \"#utility.yul\":6034:6063   */\n      tag_76\n      jump\t// in\n    tag_170:\n        /* \"#utility.yul\":6029:6032   */\n      dup5\n        /* \"#utility.yul\":6025:6064   */\n      add\n        /* \"#utility.yul\":6018:6064   */\n      swap2\n      pop\n        /* \"#utility.yul\":5797:6070   */\n      pop\n        /* \"#utility.yul\":5717:6070   */\n      swap3\n      swap2\n      pop\n      pop\n      jump\t// out\n        /* \"#utility.yul\":6076:6220   */\n    tag_83:\n        /* \"#utility.yul\":6173:6179   */\n      0x00\n        /* \"#utility.yul\":6207:6212   */\n      dup2\n        /* \"#utility.yul\":6201:6213   */\n      mload\n        /* \"#utility.yul\":6191:6213   */\n      swap1\n      pop\n        /* \"#utility.yul\":6076:6220   */\n      swap2\n      swap1\n      pop\n      jump\t// out\n        /* \"#utility.yul\":6226:6430   */\n    tag_84:\n        /* \"#utility.yul\":6345:6356   */\n      0x00\n        /* \"#utility.yul\":6379:6385   */\n      dup3\n        /* \"#utility.yul\":6374:6377   */\n      dup3\n        /* \"#utility.yul\":6367:6386   */\n      mstore\n        /* \"#utility.yul\":6419:6423   */\n      0x20\n        /* \"#utility.yul\":6414:6417   */\n      dup3\n        /* \"#utility.yul\":6410:6424   */\n      add\n        /* \"#utility.yul\":6395:6424   */\n      swap1\n      pop\n        /* \"#utility.yul\":6226:6430   */\n      swap3\n      swap2\n      pop\n      pop\n      jump\t// out\n        /* \"#utility.yul\":6436:6598   */\n    tag_85:\n        /* \"#utility.yul\":6533:6537   */\n      0x00\n        /* \"#utility.yul\":6556:6559   */\n      dup2\n        /* \"#utility.yul\":6548:6559   */\n      swap1\n      pop\n        /* \"#utility.yul\":6586:6590   */\n      0x20\n        /* \"#utility.yul\":6581:6584   */\n      dup3\n        /* \"#utility.yul\":6577:6591   */\n      add\n        /* \"#utility.yul\":6569:6591   */\n      swap1\n      pop\n        /* \"#utility.yul\":6436:6598   */\n      swap2\n      swap1\n      pop\n      jump\t// out\n        /* \"#utility.yul\":6604:6712   */\n    tag_86:\n        /* \"#utility.yul\":6681:6705   */\n      tag_175\n        /* \"#utility.yul\":6699:6704   */\n      dup2\n        /* \"#utility.yul\":6681:6705   */\n      tag_64\n      jump\t// in\n    tag_175:\n        /* \"#utility.yul\":6676:6679   */\n      dup3\n        /* \"#utility.yul\":6669:6706   */\n      mstore\n        /* \"#utility.yul\":6604:6712   */\n      pop\n      pop\n      jump\t// out\n        /* \"#utility.yul\":6718:6795   */\n    tag_87:\n        /* \"#utility.yul\":6755:6762   */\n      0x00\n        /* \"#utility.yul\":6784:6789   */\n      dup2\n        /* \"#utility.yul\":6773:6789   */\n      swap1\n      pop\n        /* \"#utility.yul\":6718:6795   */\n      swap2\n      swap1\n      pop\n      jump\t// out\n        /* \"#utility.yul\":6801:6909   */\n    tag_88:\n        /* \"#utility.yul\":6878:6902   */\n      tag_178\n        /* \"#utility.yul\":6896:6901   */\n      dup2\n        /* \"#utility.yul\":6878:6902   */\n      tag_87\n      jump\t// in\n    tag_178:\n        /* \"#utility.yul\":6873:6876   */\n      dup3\n        /* \"#utility.yul\":6866:6903   */\n      mstore\n        /* \"#utility.yul\":6801:6909   */\n      pop\n      pop\n      jump\t// out\n        /* \"#utility.yul\":6983:7493   */\n    tag_89:\n        /* \"#utility.yul\":7130:7134   */\n      0x40\n        /* \"#utility.yul\":7125:7128   */\n      dup3\n        /* \"#utility.yul\":7121:7135   */\n      add\n        /* \"#utility.yul\":7218:7222   */\n      0x00\n        /* \"#utility.yul\":7211:7216   */\n      dup3\n        /* \"#utility.yul\":7207:7223   */\n      add\n        /* \"#utility.yul\":7201:7224   */\n      mload\n        /* \"#utility.yul\":7237:7300   */\n      tag_180\n        /* \"#utility.yul\":7294:7298   */\n      0x00\n        /* \"#utility.yul\":7289:7292   */\n      dup6\n        /* \"#utility.yul\":7285:7299   */\n      add\n        /* \"#utility.yul\":7271:7283   */\n      dup3\n        /* \"#utility.yul\":7237:7300   */\n      tag_86\n      jump\t// in\n    tag_180:\n        /* \"#utility.yul\":7145:7310   */\n      pop\n        /* \"#utility.yul\":7394:7398   */\n      0x20\n        /* \"#utility.yul\":7387:7392   */\n      dup3\n        /* \"#utility.yul\":7383:7399   */\n      add\n        /* \"#utility.yul\":7377:7400   */\n      mload\n        /* \"#utility.yul\":7413:7476   */\n      tag_181\n        /* \"#utility.yul\":7470:7474   */\n      0x20\n        /* \"#utility.yul\":7465:7468   */\n      dup6\n        /* \"#utility.yul\":7461:7475   */\n      add\n        /* \"#utility.yul\":7447:7459   */\n      dup3\n        /* \"#utility.yul\":7413:7476   */\n      tag_88\n      jump\t// in\n    tag_181:\n        /* \"#utility.yul\":7320:7486   */\n      pop\n        /* \"#utility.yul\":7099:7493   */\n      pop\n        /* \"#utility.yul\":6983:7493   */\n      pop\n      pop\n      jump\t// out\n        /* \"#utility.yul\":7499:7798   */\n    tag_90:\n        /* \"#utility.yul\":7628:7638   */\n      0x00\n        /* \"#utility.yul\":7649:7755   */\n      tag_183\n        /* \"#utility.yul\":7751:7754   */\n      dup4\n        /* \"#utility.yul\":7743:7749   */\n      dup4\n        /* \"#utility.yul\":7649:7755   */\n      tag_89\n      jump\t// in\n    tag_183:\n        /* \"#utility.yul\":7787:7791   */\n      0x40\n        /* \"#utility.yul\":7782:7785   */\n      dup4\n        /* \"#utility.yul\":7778:7792   */\n      add\n        /* \"#utility.yul\":7764:7792   */\n      swap1\n      pop\n        /* \"#utility.yul\":7499:7798   */\n      swap3\n      swap2\n      pop\n      pop\n      jump\t// out\n        /* \"#utility.yul\":7804:7947   */\n    tag_91:\n        /* \"#utility.yul\":7904:7908   */\n      0x00\n        /* \"#utility.yul\":7936:7940   */\n      0x20\n        /* \"#utility.yul\":7931:7934   */\n      dup3\n        /* \"#utility.yul\":7927:7941   */\n      add\n        /* \"#utility.yul\":7919:7941   */\n      swap1\n      pop\n        /* \"#utility.yul\":7804:7947   */\n      swap2\n      swap1\n      pop\n      jump\t// out\n        /* \"#utility.yul\":8025:8977   */\n    tag_92:\n        /* \"#utility.yul\":8194:8197   */\n      0x00\n        /* \"#utility.yul\":8223:8307   */\n      tag_186\n        /* \"#utility.yul\":8301:8306   */\n      dup3\n        /* \"#utility.yul\":8223:8307   */\n      tag_83\n      jump\t// in\n    tag_186:\n        /* \"#utility.yul\":8323:8429   */\n      tag_187\n        /* \"#utility.yul\":8422:8428   */\n      dup2\n        /* \"#utility.yul\":8417:8420   */\n      dup6\n        /* \"#utility.yul\":8323:8429   */\n      tag_84\n      jump\t// in\n    tag_187:\n        /* \"#utility.yul\":8316:8429   */\n      swap4\n      pop\n        /* \"#utility.yul\":8453:8539   */\n      tag_188\n        /* \"#utility.yul\":8533:8538   */\n      dup4\n        /* \"#utility.yul\":8453:8539   */\n      tag_85\n      jump\t// in\n    tag_188:\n        /* \"#utility.yul\":8562:8569   */\n      dup1\n        /* \"#utility.yul\":8593:8594   */\n      0x00\n        /* \"#utility.yul\":8578:8952   */\n    tag_189:\n        /* \"#utility.yul\":8603:8609   */\n      dup4\n        /* \"#utility.yul\":8600:8601   */\n      dup2\n        /* \"#utility.yul\":8597:8610   */\n      lt\n        /* \"#utility.yul\":8578:8952   */\n      iszero\n      tag_191\n      jumpi\n        /* \"#utility.yul\":8679:8685   */\n      dup2\n        /* \"#utility.yul\":8673:8686   */\n      mload\n        /* \"#utility.yul\":8706:8829   */\n      tag_192\n        /* \"#utility.yul\":8825:8828   */\n      dup9\n        /* \"#utility.yul\":8810:8823   */\n      dup3\n        /* \"#utility.yul\":8706:8829   */\n      tag_90\n      jump\t// in\n    tag_192:\n        /* \"#utility.yul\":8699:8829   */\n      swap8\n      pop\n        /* \"#utility.yul\":8852:8942   */\n      tag_193\n        /* \"#utility.yul\":8935:8941   */\n      dup4\n        /* \"#utility.yul\":8852:8942   */\n      tag_91\n      jump\t// in\n    tag_193:\n        /* \"#utility.yul\":8842:8942   */\n      swap3\n      pop\n        /* \"#utility.yul\":8638:8952   */\n      pop\n        /* \"#utility.yul\":8625:8626   */\n      0x01\n        /* \"#utility.yul\":8622:8623   */\n      dup2\n        /* \"#utility.yul\":8618:8627   */\n      add\n        /* \"#utility.yul\":8613:8627   */\n      swap1\n      pop\n        /* \"#utility.yul\":8578:8952   */\n      jump(tag_189)\n    tag_191:\n        /* \"#utility.yul\":8582:8596   */\n      pop\n        /* \"#utility.yul\":8968:8971   */\n      dup6\n        /* \"#utility.yul\":8961:8971   */\n      swap4\n      pop\n        /* \"#utility.yul\":8199:8977   */\n      pop\n      pop\n      pop\n        /* \"#utility.yul\":8025:8977   */\n      swap3\n      swap2\n      pop\n      pop\n      jump\t// out\n        /* \"#utility.yul\":9051:10507   */\n    tag_93:\n        /* \"#utility.yul\":9180:9183   */\n      0x00\n        /* \"#utility.yul\":9216:9220   */\n      0xa0\n        /* \"#utility.yul\":9211:9214   */\n      dup4\n        /* \"#utility.yul\":9207:9221   */\n      add\n        /* \"#utility.yul\":9307:9311   */\n      0x00\n        /* \"#utility.yul\":9300:9305   */\n      dup4\n        /* \"#utility.yul\":9296:9312   */\n      add\n        /* \"#utility.yul\":9290:9313   */\n      mload\n        /* \"#utility.yul\":9360:9363   */\n      dup5\n        /* \"#utility.yul\":9354:9358   */\n      dup3\n        /* \"#utility.yul\":9350:9364   */\n      sub\n        /* \"#utility.yul\":9343:9347   */\n      0x00\n        /* \"#utility.yul\":9338:9341   */\n      dup7\n        /* \"#utility.yul\":9334:9348   */\n      add\n        /* \"#utility.yul\":9327:9365   */\n      mstore\n        /* \"#utility.yul\":9386:9457   */\n      tag_195\n        /* \"#utility.yul\":9452:9456   */\n      dup3\n        /* \"#utility.yul\":9438:9450   */\n      dup3\n        /* \"#utility.yul\":9386:9457   */\n      tag_82\n      jump\t// in\n    tag_195:\n        /* \"#utility.yul\":9378:9457   */\n      swap2\n      pop\n        /* \"#utility.yul\":9231:9468   */\n      pop\n        /* \"#utility.yul\":9550:9554   */\n      0x20\n        /* \"#utility.yul\":9543:9548   */\n      dup4\n        /* \"#utility.yul\":9539:9555   */\n      add\n        /* \"#utility.yul\":9533:9556   */\n      mload\n        /* \"#utility.yul\":9603:9606   */\n      dup5\n        /* \"#utility.yul\":9597:9601   */\n      dup3\n        /* \"#utility.yul\":9593:9607   */\n      sub\n        /* \"#utility.yul\":9586:9590   */\n      0x20\n        /* \"#utility.yul\":9581:9584   */\n      dup7\n        /* \"#utility.yul\":9577:9591   */\n      add\n        /* \"#utility.yul\":9570:9608   */\n      mstore\n        /* \"#utility.yul\":9629:9700   */\n      tag_196\n        /* \"#utility.yul\":9695:9699   */\n      dup3\n        /* \"#utility.yul\":9681:9693   */\n      dup3\n        /* \"#utility.yul\":9629:9700   */\n      tag_82\n      jump\t// in\n    tag_196:\n        /* \"#utility.yul\":9621:9700   */\n      swap2\n      pop\n        /* \"#utility.yul\":9478:9711   */\n      pop\n        /* \"#utility.yul\":9801:9805   */\n      0x40\n        /* \"#utility.yul\":9794:9799   */\n      dup4\n        /* \"#utility.yul\":9790:9806   */\n      add\n        /* \"#utility.yul\":9784:9807   */\n      mload\n        /* \"#utility.yul\":9854:9857   */\n      dup5\n        /* \"#utility.yul\":9848:9852   */\n      dup3\n        /* \"#utility.yul\":9844:9858   */\n      sub\n        /* \"#utility.yul\":9837:9841   */\n      0x40\n        /* \"#utility.yul\":9832:9835   */\n      dup7\n        /* \"#utility.yul\":9828:9842   */\n      add\n        /* \"#utility.yul\":9821:9859   */\n      mstore\n        /* \"#utility.yul\":9880:10043   */\n      tag_197\n        /* \"#utility.yul\":10038:10042   */\n      dup3\n        /* \"#utility.yul\":10024:10036   */\n      dup3\n        /* \"#utility.yul\":9880:10043   */\n      tag_92\n      jump\t// in\n    tag_197:\n        /* \"#utility.yul\":9872:10043   */\n      swap2\n      pop\n        /* \"#utility.yul\":9721:10054   */\n      pop\n        /* \"#utility.yul\":10140:10144   */\n      0x60\n        /* \"#utility.yul\":10133:10138   */\n      dup4\n        /* \"#utility.yul\":10129:10145   */\n      add\n        /* \"#utility.yul\":10123:10146   */\n      mload\n        /* \"#utility.yul\":10159:10222   */\n      tag_198\n        /* \"#utility.yul\":10216:10220   */\n      0x60\n        /* \"#utility.yul\":10211:10214   */\n      dup7\n        /* \"#utility.yul\":10207:10221   */\n      add\n        /* \"#utility.yul\":10193:10205   */\n      dup3\n        /* \"#utility.yul\":10159:10222   */\n      tag_86\n      jump\t// in\n    tag_198:\n        /* \"#utility.yul\":10064:10232   */\n      pop\n        /* \"#utility.yul\":10319:10323   */\n      0x80\n        /* \"#utility.yul\":10312:10317   */\n      dup4\n        /* \"#utility.yul\":10308:10324   */\n      add\n        /* \"#utility.yul\":10302:10325   */\n      mload\n        /* \"#utility.yul\":10372:10375   */\n      dup5\n        /* \"#utility.yul\":10366:10370   */\n      dup3\n        /* \"#utility.yul\":10362:10376   */\n      sub\n        /* \"#utility.yul\":10355:10359   */\n      0x80\n        /* \"#utility.yul\":10350:10353   */\n      dup7\n        /* \"#utility.yul\":10346:10360   */\n      add\n        /* \"#utility.yul\":10339:10377   */\n      mstore\n        /* \"#utility.yul\":10398:10469   */\n      tag_199\n        /* \"#utility.yul\":10464:10468   */\n      dup3\n        /* \"#utility.yul\":10450:10462   */\n      dup3\n        /* \"#utility.yul\":10398:10469   */\n      tag_82\n      jump\t// in\n    tag_199:\n        /* \"#utility.yul\":10390:10469   */\n      swap2\n      pop\n        /* \"#utility.yul\":10242:10480   */\n      pop\n        /* \"#utility.yul\":10497:10501   */\n      dup1\n        /* \"#utility.yul\":10490:10501   */\n      swap2\n      pop\n        /* \"#utility.yul\":9185:10507   */\n      pop\n        /* \"#utility.yul\":9051:10507   */\n      swap3\n      swap2\n      pop\n      pop\n      jump\t// out\n        /* \"#utility.yul\":10513:11012   */\n    tag_25:\n        /* \"#utility.yul\":10692:10696   */\n      0x00\n        /* \"#utility.yul\":10730:10732   */\n      0x40\n        /* \"#utility.yul\":10719:10728   */\n      dup3\n        /* \"#utility.yul\":10715:10733   */\n      add\n        /* \"#utility.yul\":10707:10733   */\n      swap1\n      pop\n        /* \"#utility.yul\":10743:10812   */\n      tag_201\n        /* \"#utility.yul\":10809:10810   */\n      0x00\n        /* \"#utility.yul\":10798:10807   */\n      dup4\n        /* \"#utility.yul\":10794:10811   */\n      add\n        /* \"#utility.yul\":10785:10791   */\n      dup6\n        /* \"#utility.yul\":10743:10812   */\n      tag_78\n      jump\t// in\n    tag_201:\n        /* \"#utility.yul\":10859:10868   */\n      dup2\n        /* \"#utility.yul\":10853:10857   */\n      dup2\n        /* \"#utility.yul\":10849:10869   */\n      sub\n        /* \"#utility.yul\":10844:10846   */\n      0x20\n        /* \"#utility.yul\":10833:10842   */\n      dup4\n        /* \"#utility.yul\":10829:10847   */\n      add\n        /* \"#utility.yul\":10822:10870   */\n      mstore\n        /* \"#utility.yul\":10887:11005   */\n      tag_202\n        /* \"#utility.yul\":11000:11004   */\n      dup2\n        /* \"#utility.yul\":10991:10997   */\n      dup5\n        /* \"#utility.yul\":10887:11005   */\n      tag_93\n      jump\t// in\n    tag_202:\n        /* \"#utility.yul\":10879:11005   */\n      swap1\n      pop\n        /* \"#utility.yul\":10513:11012   */\n      swap4\n      swap3\n      pop\n      pop\n      pop\n      jump\t// out\n        /* \"#utility.yul\":11018:11140   */\n    tag_94:\n        /* \"#utility.yul\":11091:11115   */\n      tag_204\n        /* \"#utility.yul\":11109:11114   */\n      dup2\n        /* \"#utility.yul\":11091:11115   */\n      tag_87\n      jump\t// in\n    tag_204:\n        /* \"#utility.yul\":11084:11089   */\n      dup2\n        /* \"#utility.yul\":11081:11116   */\n      eq\n        /* \"#utility.yul\":11071:11134   */\n      tag_205\n      jumpi\n        /* \"#utility.yul\":11130:11131   */\n      0x00\n        /* \"#utility.yul\":11127:11128   */\n      dup1\n        /* \"#utility.yul\":11120:11132   */\n      revert\n        /* \"#utility.yul\":11071:11134   */\n    tag_205:\n        /* \"#utility.yul\":11018:11140   */\n      pop\n      jump\t// out\n        /* \"#utility.yul\":11146:11289   */\n    tag_95:\n        /* \"#utility.yul\":11203:11208   */\n      0x00\n        /* \"#utility.yul\":11234:11240   */\n      dup2\n        /* \"#utility.yul\":11228:11241   */\n      mload\n        /* \"#utility.yul\":11219:11241   */\n      swap1\n      pop\n        /* \"#utility.yul\":11250:11283   */\n      tag_207\n        /* \"#utility.yul\":11277:11282   */\n      dup2\n        /* \"#utility.yul\":11250:11283   */\n      tag_94\n      jump\t// in\n    tag_207:\n        /* \"#utility.yul\":11146:11289   */\n      swap3\n      swap2\n      pop\n      pop\n      jump\t// out\n        /* \"#utility.yul\":11295:11646   */\n    tag_29:\n        /* \"#utility.yul\":11365:11371   */\n      0x00\n        /* \"#utility.yul\":11414:11416   */\n      0x20\n        /* \"#utility.yul\":11402:11411   */\n      dup3\n        /* \"#utility.yul\":11393:11400   */\n      dup5\n        /* \"#utility.yul\":11389:11412   */\n      sub\n        /* \"#utility.yul\":11385:11417   */\n      slt\n        /* \"#utility.yul\":11382:11501   */\n      iszero\n      tag_209\n      jumpi\n        /* \"#utility.yul\":11420:11499   */\n      tag_210\n      tag_58\n      jump\t// in\n    tag_210:\n        /* \"#utility.yul\":11382:11501   */\n    tag_209:\n        /* \"#utility.yul\":11540:11541   */\n      0x00\n        /* \"#utility.yul\":11565:11629   */\n      tag_211\n        /* \"#utility.yul\":11621:11628   */\n      dup5\n        /* \"#utility.yul\":11612:11618   */\n      dup3\n        /* \"#utility.yul\":11601:11610   */\n      dup6\n        /* \"#utility.yul\":11597:11619   */\n      add\n        /* \"#utility.yul\":11565:11629   */\n      tag_95\n      jump\t// in\n    tag_211:\n        /* \"#utility.yul\":11555:11629   */\n      swap2\n      pop\n        /* \"#utility.yul\":11511:11639   */\n      pop\n        /* \"#utility.yul\":11295:11646   */\n      swap3\n      swap2\n      pop\n      pop\n      jump\t// out\n        /* \"#utility.yul\":11652:11770   */\n    tag_96:\n        /* \"#utility.yul\":11739:11763   */\n      tag_213\n        /* \"#utility.yul\":11757:11762   */\n      dup2\n        /* \"#utility.yul\":11739:11763   */\n      tag_87\n      jump\t// in\n    tag_213:\n        /* \"#utility.yul\":11734:11737   */\n      dup3\n        /* \"#utility.yul\":11727:11764   */\n      mstore\n        /* \"#utility.yul\":11652:11770   */\n      pop\n      pop\n      jump\t// out\n        /* \"#utility.yul\":11776:12108   */\n    tag_40:\n        /* \"#utility.yul\":11897:11901   */\n      0x00\n        /* \"#utility.yul\":11935:11937   */\n      0x40\n        /* \"#utility.yul\":11924:11933   */\n      dup3\n        /* \"#utility.yul\":11920:11938   */\n      add\n        /* \"#utility.yul\":11912:11938   */\n      swap1\n      pop\n        /* \"#utility.yul\":11948:12019   */\n      tag_215\n        /* \"#utility.yul\":12016:12017   */\n      0x00\n        /* \"#utility.yul\":12005:12014   */\n      dup4\n        /* \"#utility.yul\":12001:12018   */\n      add\n        /* \"#utility.yul\":11992:11998   */\n      dup6\n        /* \"#utility.yul\":11948:12019   */\n      tag_96\n      jump\t// in\n    tag_215:\n        /* \"#utility.yul\":12029:12101   */\n      tag_216\n        /* \"#utility.yul\":12097:12099   */\n      0x20\n        /* \"#utility.yul\":12086:12095   */\n      dup4\n        /* \"#utility.yul\":12082:12100   */\n      add\n        /* \"#utility.yul\":12073:12079   */\n      dup5\n        /* \"#utility.yul\":12029:12101   */\n      tag_96\n      jump\t// in\n    tag_216:\n        /* \"#utility.yul\":11776:12108   */\n      swap4\n      swap3\n      pop\n      pop\n      pop\n      jump\t// out\n        /* \"#utility.yul\":12114:12446   */\n    tag_42:\n        /* \"#utility.yul\":12235:12239   */\n      0x00\n        /* \"#utility.yul\":12273:12275   */\n      0x40\n        /* \"#utility.yul\":12262:12271   */\n      dup3\n        /* \"#utility.yul\":12258:12276   */\n      add\n        /* \"#utility.yul\":12250:12276   */\n      swap1\n      pop\n        /* \"#utility.yul\":12286:12357   */\n      tag_218\n        /* \"#utility.yul\":12354:12355   */\n      0x00\n        /* \"#utility.yul\":12343:12352   */\n      dup4\n        /* \"#utility.yul\":12339:12356   */\n      add\n        /* \"#utility.yul\":12330:12336   */\n      dup6\n        /* \"#utility.yul\":12286:12357   */\n      tag_73\n      jump\t// in\n    tag_218:\n        /* \"#utility.yul\":12367:12439   */\n      tag_219\n        /* \"#utility.yul\":12435:12437   */\n      0x20\n        /* \"#utility.yul\":12424:12433   */\n      dup4\n        /* \"#utility.yul\":12420:12438   */\n      add\n        /* \"#utility.yul\":12411:12417   */\n      dup5\n        /* \"#utility.yul\":12367:12439   */\n      tag_96\n      jump\t// in\n    tag_219:\n        /* \"#utility.yul\":12114:12446   */\n      swap4\n      swap3\n      pop\n      pop\n      pop\n      jump\t// out\n        /* \"#utility.yul\":12452:12542   */\n    tag_97:\n        /* \"#utility.yul\":12486:12493   */\n      0x00\n        /* \"#utility.yul\":12529:12534   */\n      dup2\n        /* \"#utility.yul\":12522:12535   */\n      iszero\n        /* \"#utility.yul\":12515:12536   */\n      iszero\n        /* \"#utility.yul\":12504:12536   */\n      swap1\n      pop\n        /* \"#utility.yul\":12452:12542   */\n      swap2\n      swap1\n      pop\n      jump\t// out\n        /* \"#utility.yul\":12548:12664   */\n    tag_98:\n        /* \"#utility.yul\":12618:12639   */\n      tag_222\n        /* \"#utility.yul\":12633:12638   */\n      dup2\n        /* \"#utility.yul\":12618:12639   */\n      tag_97\n      jump\t// in\n    tag_222:\n        /* \"#utility.yul\":12611:12616   */\n      dup2\n        /* \"#utility.yul\":12608:12640   */\n      eq\n        /* \"#utility.yul\":12598:12658   */\n      tag_223\n      jumpi\n        /* \"#utility.yul\":12654:12655   */\n      0x00\n        /* \"#utility.yul\":12651:12652   */\n      dup1\n        /* \"#utility.yul\":12644:12656   */\n      revert\n        /* \"#utility.yul\":12598:12658   */\n    tag_223:\n        /* \"#utility.yul\":12548:12664   */\n      pop\n      jump\t// out\n        /* \"#utility.yul\":12670:12807   */\n    tag_99:\n        /* \"#utility.yul\":12724:12729   */\n      0x00\n        /* \"#utility.yul\":12755:12761   */\n      dup2\n        /* \"#utility.yul\":12749:12762   */\n      mload\n        /* \"#utility.yul\":12740:12762   */\n      swap1\n      pop\n        /* \"#utility.yul\":12771:12801   */\n      tag_225\n        /* \"#utility.yul\":12795:12800   */\n      dup2\n        /* \"#utility.yul\":12771:12801   */\n      tag_98\n      jump\t// in\n    tag_225:\n        /* \"#utility.yul\":12670:12807   */\n      swap3\n      swap2\n      pop\n      pop\n      jump\t// out\n        /* \"#utility.yul\":12813:13158   */\n    tag_46:\n        /* \"#utility.yul\":12880:12886   */\n      0x00\n        /* \"#utility.yul\":12929:12931   */\n      0x20\n        /* \"#utility.yul\":12917:12926   */\n      dup3\n        /* \"#utility.yul\":12908:12915   */\n      dup5\n        /* \"#utility.yul\":12904:12927   */\n      sub\n        /* \"#utility.yul\":12900:12932   */\n      slt\n        /* \"#utility.yul\":12897:13016   */\n      iszero\n      tag_227\n      jumpi\n        /* \"#utility.yul\":12935:13014   */\n      tag_228\n      tag_58\n      jump\t// in\n    tag_228:\n        /* \"#utility.yul\":12897:13016   */\n    tag_227:\n        /* \"#utility.yul\":13055:13056   */\n      0x00\n        /* \"#utility.yul\":13080:13141   */\n      tag_229\n        /* \"#utility.yul\":13133:13140   */\n      dup5\n        /* \"#utility.yul\":13124:13130   */\n      dup3\n        /* \"#utility.yul\":13113:13122   */\n      dup6\n        /* \"#utility.yul\":13109:13131   */\n      add\n        /* \"#utility.yul\":13080:13141   */\n      tag_99\n      jump\t// in\n    tag_229:\n        /* \"#utility.yul\":13070:13141   */\n      swap2\n      pop\n        /* \"#utility.yul\":13026:13151   */\n      pop\n        /* \"#utility.yul\":12813:13158   */\n      swap3\n      swap2\n      pop\n      pop\n      jump\t// out\n        /* \"#utility.yul\":13164:13286   */\n    tag_100:\n        /* \"#utility.yul\":13237:13261   */\n      tag_231\n        /* \"#utility.yul\":13255:13260   */\n      dup2\n        /* \"#utility.yul\":13237:13261   */\n      tag_71\n      jump\t// in\n    tag_231:\n        /* \"#utility.yul\":13230:13235   */\n      dup2\n        /* \"#utility.yul\":13227:13262   */\n      eq\n        /* \"#utility.yul\":13217:13280   */\n      tag_232\n      jumpi\n        /* \"#utility.yul\":13276:13277   */\n      0x00\n        /* \"#utility.yul\":13273:13274   */\n      dup1\n        /* \"#utility.yul\":13266:13278   */\n      revert\n        /* \"#utility.yul\":13217:13280   */\n    tag_232:\n        /* \"#utility.yul\":13164:13286   */\n      pop\n      jump\t// out\n        /* \"#utility.yul\":13292:13435   */\n    tag_101:\n        /* \"#utility.yul\":13349:13354   */\n      0x00\n        /* \"#utility.yul\":13380:13386   */\n      dup2\n        /* \"#utility.yul\":13374:13387   */\n      mload\n        /* \"#utility.yul\":13365:13387   */\n      swap1\n      pop\n        /* \"#utility.yul\":13396:13429   */\n      tag_234\n        /* \"#utility.yul\":13423:13428   */\n      dup2\n        /* \"#utility.yul\":13396:13429   */\n      tag_100\n      jump\t// in\n    tag_234:\n        /* \"#utility.yul\":13292:13435   */\n      swap3\n      swap2\n      pop\n      pop\n      jump\t// out\n        /* \"#utility.yul\":13441:13792   */\n    tag_51:\n        /* \"#utility.yul\":13511:13517   */\n      0x00\n        /* \"#utility.yul\":13560:13562   */\n      0x20\n        /* \"#utility.yul\":13548:13557   */\n      dup3\n        /* \"#utility.yul\":13539:13546   */\n      dup5\n        /* \"#utility.yul\":13535:13558   */\n      sub\n        /* \"#utility.yul\":13531:13563   */\n      slt\n        /* \"#utility.yul\":13528:13647   */\n      iszero\n      tag_236\n      jumpi\n        /* \"#utility.yul\":13566:13645   */\n      tag_237\n      tag_58\n      jump\t// in\n    tag_237:\n        /* \"#utility.yul\":13528:13647   */\n    tag_236:\n        /* \"#utility.yul\":13686:13687   */\n      0x00\n        /* \"#utility.yul\":13711:13775   */\n      tag_238\n        /* \"#utility.yul\":13767:13774   */\n      dup5\n        /* \"#utility.yul\":13758:13764   */\n      dup3\n        /* \"#utility.yul\":13747:13756   */\n      dup6\n        /* \"#utility.yul\":13743:13765   */\n      add\n        /* \"#utility.yul\":13711:13775   */\n      tag_101\n      jump\t// in\n    tag_238:\n        /* \"#utility.yul\":13701:13775   */\n      swap2\n      pop\n        /* \"#utility.yul\":13657:13785   */\n      pop\n        /* \"#utility.yul\":13441:13792   */\n      swap3\n      swap2\n      pop\n      pop\n      jump\t// out\n        /* \"#utility.yul\":13798:14462   */\n    tag_53:\n        /* \"#utility.yul\":14005:14009   */\n      0x00\n        /* \"#utility.yul\":14043:14046   */\n      0x80\n        /* \"#utility.yul\":14032:14041   */\n      dup3\n        /* \"#utility.yul\":14028:14047   */\n      add\n        /* \"#utility.yul\":14020:14047   */\n      swap1\n      pop\n        /* \"#utility.yul\":14057:14128   */\n      tag_240\n        /* \"#utility.yul\":14125:14126   */\n      0x00\n        /* \"#utility.yul\":14114:14123   */\n      dup4\n        /* \"#utility.yul\":14110:14127   */\n      add\n        /* \"#utility.yul\":14101:14107   */\n      dup9\n        /* \"#utility.yul\":14057:14128   */\n      tag_73\n      jump\t// in\n    tag_240:\n        /* \"#utility.yul\":14175:14184   */\n      dup2\n        /* \"#utility.yul\":14169:14173   */\n      dup2\n        /* \"#utility.yul\":14165:14185   */\n      sub\n        /* \"#utility.yul\":14160:14162   */\n      0x20\n        /* \"#utility.yul\":14149:14158   */\n      dup4\n        /* \"#utility.yul\":14145:14163   */\n      add\n        /* \"#utility.yul\":14138:14186   */\n      mstore\n        /* \"#utility.yul\":14203:14291   */\n      tag_241\n        /* \"#utility.yul\":14286:14290   */\n      dup2\n        /* \"#utility.yul\":14277:14283   */\n      dup7\n        /* \"#utility.yul\":14269:14275   */\n      dup9\n        /* \"#utility.yul\":14203:14291   */\n      tag_77\n      jump\t// in\n    tag_241:\n        /* \"#utility.yul\":14195:14291   */\n      swap1\n      pop\n        /* \"#utility.yul\":14301:14373   */\n      tag_242\n        /* \"#utility.yul\":14369:14371   */\n      0x40\n        /* \"#utility.yul\":14358:14367   */\n      dup4\n        /* \"#utility.yul\":14354:14372   */\n      add\n        /* \"#utility.yul\":14345:14351   */\n      dup6\n        /* \"#utility.yul\":14301:14373   */\n      tag_73\n      jump\t// in\n    tag_242:\n        /* \"#utility.yul\":14383:14455   */\n      tag_243\n        /* \"#utility.yul\":14451:14453   */\n      0x60\n        /* \"#utility.yul\":14440:14449   */\n      dup4\n        /* \"#utility.yul\":14436:14454   */\n      add\n        /* \"#utility.yul\":14427:14433   */\n      dup5\n        /* \"#utility.yul\":14383:14455   */\n      tag_96\n      jump\t// in\n    tag_243:\n        /* \"#utility.yul\":13798:14462   */\n      swap7\n      swap6\n      pop\n      pop\n      pop\n      pop\n      pop\n      pop\n      jump\t// out\n        /* \"#utility.yul\":14536:14883   */\n    tag_102:\n        /* \"#utility.yul\":14693:14697   */\n      0x20\n        /* \"#utility.yul\":14688:14691   */\n      dup3\n        /* \"#utility.yul\":14684:14698   */\n      add\n        /* \"#utility.yul\":14784:14788   */\n      0x00\n        /* \"#utility.yul\":14777:14782   */\n      dup3\n        /* \"#utility.yul\":14773:14789   */\n      add\n        /* \"#utility.yul\":14767:14790   */\n      mload\n        /* \"#utility.yul\":14803:14866   */\n      tag_245\n        /* \"#utility.yul\":14860:14864   */\n      0x00\n        /* \"#utility.yul\":14855:14858   */\n      dup6\n        /* \"#utility.yul\":14851:14865   */\n      add\n        /* \"#utility.yul\":14837:14849   */\n      dup3\n        /* \"#utility.yul\":14803:14866   */\n      tag_88\n      jump\t// in\n    tag_245:\n        /* \"#utility.yul\":14708:14876   */\n      pop\n        /* \"#utility.yul\":14662:14883   */\n      pop\n        /* \"#utility.yul\":14536:14883   */\n      pop\n      pop\n      jump\t// out\n        /* \"#utility.yul\":14889:15231   */\n    tag_56:\n        /* \"#utility.yul\":15042:15046   */\n      0x00\n        /* \"#utility.yul\":15080:15082   */\n      0x20\n        /* \"#utility.yul\":15069:15078   */\n      dup3\n        /* \"#utility.yul\":15065:15083   */\n      add\n        /* \"#utility.yul\":15057:15083   */\n      swap1\n      pop\n        /* \"#utility.yul\":15093:15224   */\n      tag_247\n        /* \"#utility.yul\":15221:15222   */\n      0x00\n        /* \"#utility.yul\":15210:15219   */\n      dup4\n        /* \"#utility.yul\":15206:15223   */\n      add\n        /* \"#utility.yul\":15197:15203   */\n      dup5\n        /* \"#utility.yul\":15093:15224   */\n      tag_102\n      jump\t// in\n    tag_247:\n        /* \"#utility.yul\":14889:15231   */\n      swap3\n      swap2\n      pop\n      pop\n      jump\t// out\n\n    auxdata: 0xa26469706673582212204bab65f14159a62aa3045c7581fcdc790d648ab37eff484509b843dd5855499564736f6c63430008130033\n}\n",
				"bytecode": {
					"linkReferences": {},
					"object": "608060405234801561001057600080fd5b5060405162000e9738038062000e978339818101604052810190610034919061011f565b816000806101000a81548173ffffffffffffffffffffffffffffffffffffffff021916908373ffffffffffffffffffffffffffffffffffffffff16021790555080600160006101000a81548173ffffffffffffffffffffffffffffffffffffffff021916908373ffffffffffffffffffffffffffffffffffffffff160217905550505061015f565b600080fd5b600073ffffffffffffffffffffffffffffffffffffffff82169050919050565b60006100ec826100c1565b9050919050565b6100fc816100e1565b811461010757600080fd5b50565b600081519050610119816100f3565b92915050565b60008060408385031215610136576101356100bc565b5b60006101448582860161010a565b92505060206101558582860161010a565b9150509250929050565b610d28806200016f6000396000f3fe608060405234801561001057600080fd5b506004361061002b5760003560e01c80630eb5ad4514610030575b600080fd5b61004a60048036038101906100459190610723565b610060565b60405161005791906107b0565b60405180910390f35b6000806040518060a001604052808660405160200161007f91906107da565b604051602081830303815290604052815260200185856040516020016100a6929190610853565b6040516020818303038152906040528152602001600067ffffffffffffffff8111156100d5576100d4610877565b5b60405190808252806020026020018201604052801561010e57816020015b6100fb6105e6565b8152602001906001900390816100f35790505b508152602001600160009054906101000a900473ffffffffffffffffffffffffffffffffffffffff1673ffffffffffffffffffffffffffffffffffffffff16815260200161016c604051806020016040528062030d40815250610567565b815250905060008060009054906101000a900473ffffffffffffffffffffffffffffffffffffffff1673ffffffffffffffffffffffffffffffffffffffff166320487ded88846040518363ffffffff1660e01b81526004016101cf929190610ac5565b602060405180830381865afa1580156101ec573d6000803e3d6000fd5b505050506040513d601f19601f820116820180604052508101906102109190610b21565b9050600160009054906101000a900473ffffffffffffffffffffffffffffffffffffffff1673ffffffffffffffffffffffffffffffffffffffff166370a08231306040518263ffffffff1660e01b815260040161026d91906107da565b602060405180830381865afa15801561028a573d6000803e3d6000fd5b505050506040513d601f19601f820116820180604052508101906102ae9190610b21565b81111561038f57600160009054906101000a900473ffffffffffffffffffffffffffffffffffffffff1673ffffffffffffffffffffffffffffffffffffffff166370a08231306040518263ffffffff1660e01b815260040161031091906107da565b602060405180830381865afa15801561032d573d6000803e3d6000fd5b505050506040513d601f19601f820116820180604052508101906103519190610b21565b816040517f8f0f4206000000000000000000000000000000000000000000000000000000008152600401610386929190610b5d565b60405180910390fd5b600160009054906101000a900473ffffffffffffffffffffffffffffffffffffffff1673ffffffffffffffffffffffffffffffffffffffff1663095ea7b360008054906101000a900473ffffffffffffffffffffffffffffffffffffffff16836040518363ffffffff1660e01b815260040161040c929190610b86565b6020604051808303816000875af115801561042b573d6000803e3d6000fd5b505050506040513d601f19601f8201168201806040525081019061044f9190610be7565b5060008054906101000a900473ffffffffffffffffffffffffffffffffffffffff1673ffffffffffffffffffffffffffffffffffffffff166396f4e9f988846040518363ffffffff1660e01b81526004016104ab929190610ac5565b6020604051808303816000875af11580156104ca573d6000803e3d6000fd5b505050506040513d601f19601f820116820180604052508101906104ee9190610c40565b92508667ffffffffffffffff16837fd36445359b3c6e26c120659aef090ce0f2eb005cf9af450d11aa1225609b4f4d888888600160009054906101000a900473ffffffffffffffffffffffffffffffffffffffff1687604051610555959493929190610c6d565b60405180910390a35050949350505050565b60606397a657c960e01b826040516024016105829190610cd7565b604051602081830303815290604052907bffffffffffffffffffffffffffffffffffffffffffffffffffffffff19166020820180517bffffffffffffffffffffffffffffffffffffffffffffffffffffffff83818316178352505050509050919050565b6040518060400160405280600073ffffffffffffffffffffffffffffffffffffffff168152602001600081525090565b600080fd5b600080fd5b600067ffffffffffffffff82169050919050565b61063d81610620565b811461064857600080fd5b50565b60008135905061065a81610634565b92915050565b600073ffffffffffffffffffffffffffffffffffffffff82169050919050565b600061068b82610660565b9050919050565b61069b81610680565b81146106a657600080fd5b50565b6000813590506106b881610692565b92915050565b600080fd5b600080fd5b600080fd5b60008083601f8401126106e3576106e26106be565b5b8235905067ffffffffffffffff811115610700576106ff6106c3565b5b60208301915083600182028301111561071c5761071b6106c8565b5b9250929050565b6000806000806060858703121561073d5761073c610616565b5b600061074b8782880161064b565b945050602061075c878288016106a9565b935050604085013567ffffffffffffffff81111561077d5761077c61061b565b5b610789878288016106cd565b925092505092959194509250565b6000819050919050565b6107aa81610797565b82525050565b60006020820190506107c560008301846107a1565b92915050565b6107d481610680565b82525050565b60006020820190506107ef60008301846107cb565b92915050565b600082825260208201905092915050565b82818337600083830152505050565b6000601f19601f8301169050919050565b600061083283856107f5565b935061083f838584610806565b61084883610815565b840190509392505050565b6000602082019050818103600083015261086e818486610826565b90509392505050565b7f4e487b7100000000000000000000000000000000000000000000000000000000600052604160045260246000fd5b6108af81610620565b82525050565b600081519050919050565b600082825260208201905092915050565b60005b838110156108ef5780820151818401526020810190506108d4565b60008484015250505050565b6000610906826108b5565b61091081856108c0565b93506109208185602086016108d1565b61092981610815565b840191505092915050565b600081519050919050565b600082825260208201905092915050565b6000819050602082019050919050565b61096981610680565b82525050565b6000819050919050565b6109828161096f565b82525050565b60408201600082015161099e6000850182610960565b5060208201516109b16020850182610979565b50505050565b60006109c38383610988565b60408301905092915050565b6000602082019050919050565b60006109e782610934565b6109f1818561093f565b93506109fc83610950565b8060005b83811015610a2d578151610a1488826109b7565b9750610a1f836109cf565b925050600181019050610a00565b5085935050505092915050565b600060a0830160008301518482036000860152610a5782826108fb565b91505060208301518482036020860152610a7182826108fb565b91505060408301518482036040860152610a8b82826109dc565b9150506060830151610aa06060860182610960565b5060808301518482036080860152610ab882826108fb565b9150508091505092915050565b6000604082019050610ada60008301856108a6565b8181036020830152610aec8184610a3a565b90509392505050565b610afe8161096f565b8114610b0957600080fd5b50565b600081519050610b1b81610af5565b92915050565b600060208284031215610b3757610b36610616565b5b6000610b4584828501610b0c565b91505092915050565b610b578161096f565b82525050565b6000604082019050610b726000830185610b4e565b610b7f6020830184610b4e565b9392505050565b6000604082019050610b9b60008301856107cb565b610ba86020830184610b4e565b9392505050565b60008115159050919050565b610bc481610baf565b8114610bcf57600080fd5b50565b600081519050610be181610bbb565b92915050565b600060208284031215610bfd57610bfc610616565b5b6000610c0b84828501610bd2565b91505092915050565b610c1d81610797565b8114610c2857600080fd5b50565b600081519050610c3a81610c14565b92915050565b600060208284031215610c5657610c55610616565b5b6000610c6484828501610c2b565b91505092915050565b6000608082019050610c8260008301886107cb565b8181036020830152610c95818688610826565b9050610ca460408301856107cb565b610cb16060830184610b4e565b9695505050505050565b602082016000820151610cd16000850182610979565b50505050565b6000602082019050610cec6000830184610cbb565b9291505056fea26469706673582212204bab65f14159a62aa3045c7581fcdc790d648ab37eff484509b843dd5855499564736f6c63430008130033",
					"opcodes": "PUSH1 0x80 PUSH1 0x40 MSTORE CALLVALUE DUP1 ISZERO PUSH2 0x10 JUMPI PUSH1 0x0 DUP1 REVERT JUMPDEST POP PUSH1 0x40 MLOAD PUSH3 0xE97 CODESIZE SUB DUP1 PUSH3 0xE97 DUP4 CODECOPY DUP2 DUP2 ADD PUSH1 0x40 MSTORE DUP2 ADD SWAP1 PUSH2 0x34 SWAP2 SWAP1 PUSH2 0x11F JUMP JUMPDEST DUP2 PUSH1 0x0 DUP1 PUSH2 0x100 EXP DUP2 SLOAD DUP2 PUSH20 0xFFFFFFFFFFFFFFFFFFFFFFFFFFFFFFFFFFFFFFFF MUL NOT AND SWAP1 DUP4 PUSH20 0xFFFFFFFFFFFFFFFFFFFFFFFFFFFFFFFFFFFFFFFF AND MUL OR SWAP1 SSTORE POP DUP1 PUSH1 0x1 PUSH1 0x0 PUSH2 0x100 EXP DUP2 SLOAD DUP2 PUSH20 0xFFFFFFFFFFFFFFFFFFFFFFFFFFFFFFFFFFFFFFFF MUL NOT AND SWAP1 DUP4 PUSH20 0xFFFFFFFFFFFFFFFFFFFFFFFFFFFFFFFFFFFFFFFF AND MUL OR SWAP1 SSTORE POP POP POP PUSH2 0x15F JUMP JUMPDEST PUSH1 0x0 DUP1 REVERT JUMPDEST PUSH1 0x0 PUSH20 0xFFFFFFFFFFFFFFFFFFFFFFFFFFFFFFFFFFFFFFFF DUP3 AND SWAP1 POP SWAP2 SWAP1 POP JUMP JUMPDEST PUSH1 0x0 PUSH2 0xEC DUP3 PUSH2 0xC1 JUMP JUMPDEST SWAP1 POP SWAP2 SWAP1 POP JUMP JUMPDEST PUSH2 0xFC DUP2 PUSH2 0xE1 JUMP JUMPDEST DUP2 EQ PUSH2 0x107 JUMPI PUSH1 0x0 DUP1 REVERT JUMPDEST POP JUMP JUMPDEST PUSH1 0x0 DUP2 MLOAD SWAP1 POP PUSH2 0x119 DUP2 PUSH2 0xF3 JUMP JUMPDEST SWAP3 SWAP2 POP POP JUMP JUMPDEST PUSH1 0x0 DUP1 PUSH1 0x40 DUP4 DUP6 SUB SLT ISZERO PUSH2 0x136 JUMPI PUSH2 0x135 PUSH2 0xBC JUMP JUMPDEST JUMPDEST PUSH1 0x0 PUSH2 0x144 DUP6 DUP3 DUP7 ADD PUSH2 0x10A JUMP JUMPDEST SWAP3 POP POP PUSH1 0x20 PUSH2 0x155 DUP6 DUP3 DUP7 ADD PUSH2 0x10A JUMP JUMPDEST SWAP2 POP POP SWAP3 POP SWAP3 SWAP1 POP JUMP JUMPDEST PUSH2 0xD28 DUP1 PUSH3 0x16F PUSH1 0x0 CODECOPY PUSH1 0x0 RETURN INVALID PUSH1 0x80 PUSH1 0x40 MSTORE CALLVALUE DUP1 ISZERO PUSH2 0x10 JUMPI PUSH1 0x0 DUP1 REVERT JUMPDEST POP PUSH1 0x4 CALLDATASIZE LT PUSH2 0x2B JUMPI PUSH1 0x0 CALLDATALOAD PUSH1 0xE0 SHR DUP1 PUSH4 0xEB5AD45 EQ PUSH2 0x30 JUMPI JUMPDEST PUSH1 0x0 DUP1 REVERT JUMPDEST PUSH2 0x4A PUSH1 0x4 DUP1 CALLDATASIZE SUB DUP2 ADD SWAP1 PUSH2 0x45 SWAP2 SWAP1 PUSH2 0x723 JUMP JUMPDEST PUSH2 0x60 JUMP JUMPDEST PUSH1 0x40 MLOAD PUSH2 0x57 SWAP2 SWAP1 PUSH2 0x7B0 JUMP JUMPDEST PUSH1 0x40 MLOAD DUP1 SWAP2 SUB SWAP1 RETURN JUMPDEST PUSH1 0x0 DUP1 PUSH1 0x40 MLOAD DUP1 PUSH1 0xA0 ADD PUSH1 0x40 MSTORE DUP1 DUP7 PUSH1 0x40 MLOAD PUSH1 0x20 ADD PUSH2 0x7F SWAP2 SWAP1 PUSH2 0x7DA JUMP JUMPDEST PUSH1 0x40 MLOAD PUSH1 0x20 DUP2 DUP4 SUB SUB DUP2 MSTORE SWAP1 PUSH1 0x40 MSTORE DUP2 MSTORE PUSH1 0x20 ADD DUP6 DUP6 PUSH1 0x40 MLOAD PUSH1 0x20 ADD PUSH2 0xA6 SWAP3 SWAP2 SWAP1 PUSH2 0x853 JUMP JUMPDEST PUSH1 0x40 MLOAD PUSH1 0x20 DUP2 DUP4 SUB SUB DUP2 MSTORE SWAP1 PUSH1 0x40 MSTORE DUP2 MSTORE PUSH1 0x20 ADD PUSH1 0x0 PUSH8 0xFFFFFFFFFFFFFFFF DUP2 GT ISZERO PUSH2 0xD5 JUMPI PUSH2 0xD4 PUSH2 0x877 JUMP JUMPDEST JUMPDEST PUSH1 0x40 MLOAD SWAP1 DUP1 DUP3 MSTORE DUP1 PUSH1 0x20 MUL PUSH1 0x20 ADD DUP3 ADD PUSH1 0x40 MSTORE DUP1 ISZERO PUSH2 0x10E JUMPI DUP2 PUSH1 0x20 ADD JUMPDEST PUSH2 0xFB PUSH2 0x5E6 JUMP JUMPDEST DUP2 MSTORE PUSH1 0x20 ADD SWAP1 PUSH1 0x1 SWAP1 SUB SWAP1 DUP2 PUSH2 0xF3 JUMPI SWAP1 POP JUMPDEST POP DUP2 MSTORE PUSH1 0x20 ADD PUSH1 0x1 PUSH1 0x0 SWAP1 SLOAD SWAP1 PUSH2 0x100 EXP SWAP1 DIV PUSH20 0xFFFFFFFFFFFFFFFFFFFFFFFFFFFFFFFFFFFFFFFF AND PUSH20 0xFFFFFFFFFFFFFFFFFFFFFFFFFFFFFFFFFFFFFFFF AND DUP2 MSTORE PUSH1 0x20 ADD PUSH2 0x16C PUSH1 0x40 MLOAD DUP1 PUSH1 0x20 ADD PUSH1 0x40 MSTORE DUP1 PUSH3 0x30D40 DUP2 MSTORE POP PUSH2 0x567 JUMP JUMPDEST DUP2 MSTORE POP SWAP1 POP PUSH1 0x0 DUP1 PUSH1 0x0 SWAP1 SLOAD SWAP1 PUSH2 0x100 EXP SWAP1 DIV PUSH20 0xFFFFFFFFFFFFFFFFFFFFFFFFFFFFFFFFFFFFFFFF AND PUSH20 0xFFFFFFFFFFFFFFFFFFFFFFFFFFFFFFFFFFFFFFFF AND PUSH4 0x20487DED DUP9 DUP5 PUSH1 0x40 MLOAD DUP4 PUSH4 0xFFFFFFFF AND PUSH1 0xE0 SHL DUP2 MSTORE PUSH1 0x4 ADD PUSH2 0x1CF SWAP3 SWAP2 SWAP1 PUSH2 0xAC5 JUMP JUMPDEST PUSH1 0x20 PUSH1 0x40 MLOAD DUP1 DUP4 SUB DUP2 DUP7 GAS STATICCALL ISZERO DUP1 ISZERO PUSH2 0x1EC JUMPI RETURNDATASIZE PUSH1 0x0 DUP1 RETURNDATACOPY RETURNDATASIZE PUSH1 0x0 REVERT JUMPDEST POP POP POP POP PUSH1 0x40 MLOAD RETURNDATASIZE PUSH1 0x1F NOT PUSH1 0x1F DUP3 ADD AND DUP3 ADD DUP1 PUSH1 0x40 MSTORE POP DUP2 ADD SWAP1 PUSH2 0x210 SWAP2 SWAP1 PUSH2 0xB21 JUMP JUMPDEST SWAP1 POP PUSH1 0x1 PUSH1 0x0 SWAP1 SLOAD SWAP1 PUSH2 0x100 EXP SWAP1 DIV PUSH20 0xFFFFFFFFFFFFFFFFFFFFFFFFFFFFFFFFFFFFFFFF AND PUSH20 0xFFFFFFFFFFFFFFFFFFFFFFFFFFFFFFFFFFFFFFFF AND PUSH4 0x70A08231 ADDRESS PUSH1 0x40 MLOAD DUP3 PUSH4 0xFFFFFFFF AND PUSH1 0xE0 SHL DUP2 MSTORE PUSH1 0x4 ADD PUSH2 0x26D SWAP2 SWAP1 PUSH2 0x7DA JUMP JUMPDEST PUSH1 0x20 PUSH1 0x40 MLOAD DUP1 DUP4 SUB DUP2 DUP7 GAS STATICCALL ISZERO DUP1 ISZERO PUSH2 0x28A JUMPI RETURNDATASIZE PUSH1 0x0 DUP1 RETURNDATACOPY RETURNDATASIZE PUSH1 0x0 REVERT JUMPDEST POP POP POP POP PUSH1 0x40 MLOAD RETURNDATASIZE PUSH1 0x1F NOT PUSH1 0x1F DUP3 ADD AND DUP3 ADD DUP1 PUSH1 0x40 MSTORE POP DUP2 ADD SWAP1 PUSH2 0x2AE SWAP2 SWAP1 PUSH2 0xB21 JUMP JUMPDEST DUP2 GT ISZERO PUSH2 0x38F JUMPI PUSH1 0x1 PUSH1 0x0 SWAP1 SLOAD SWAP1 PUSH2 0x100 EXP SWAP1 DIV PUSH20 0xFFFFFFFFFFFFFFFFFFFFFFFFFFFFFFFFFFFFFFFF AND PUSH20 0xFFFFFFFFFFFFFFFFFFFFFFFFFFFFFFFFFFFFFFFF AND PUSH4 0x70A08231 ADDRESS PUSH1 0x40 MLOAD DUP3 PUSH4 0xFFFFFFFF AND PUSH1 0xE0 SHL DUP2 MSTORE PUSH1 0x4 ADD PUSH2 0x310 SWAP2 SWAP1 PUSH2 0x7DA JUMP JUMPDEST PUSH1 0x20 PUSH1 0x40 MLOAD DUP1 DUP4 SUB DUP2 DUP7 GAS STATICCALL ISZERO DUP1 ISZERO PUSH2 0x32D JUMPI RETURNDATASIZE PUSH1 0x0 DUP1 RETURNDATACOPY RETURNDATASIZE PUSH1 0x0 REVERT JUMPDEST POP POP POP POP PUSH1 0x40 MLOAD RETURNDATASIZE PUSH1 0x1F NOT PUSH1 0x1F DUP3 ADD AND DUP3 ADD DUP1 PUSH1 0x40 MSTORE POP DUP2 ADD SWAP1 PUSH2 0x351 SWAP2 SWAP1 PUSH2 0xB21 JUMP JUMPDEST DUP2 PUSH1 0x40 MLOAD PUSH32 0x8F0F420600000000000000000000000000000000000000000000000000000000 DUP2 MSTORE PUSH1 0x4 ADD PUSH2 0x386 SWAP3 SWAP2 SWAP1 PUSH2 0xB5D JUMP JUMPDEST PUSH1 0x40 MLOAD DUP1 SWAP2 SUB SWAP1 REVERT JUMPDEST PUSH1 0x1 PUSH1 0x0 SWAP1 SLOAD SWAP1 PUSH2 0x100 EXP SWAP1 DIV PUSH20 0xFFFFFFFFFFFFFFFFFFFFFFFFFFFFFFFFFFFFFFFF AND PUSH20 0xFFFFFFFFFFFFFFFFFFFFFFFFFFFFFFFFFFFFFFFF AND PUSH4 0x95EA7B3 PUSH1 0x0 DUP1 SLOAD SWAP1 PUSH2 0x100 EXP SWAP1 DIV PUSH20 0xFFFFFFFFFFFFFFFFFFFFFFFFFFFFFFFFFFFFFFFF AND DUP4 PUSH1 0x40 MLOAD DUP4 PUSH4 0xFFFFFFFF AND PUSH1 0xE0 SHL DUP2 MSTORE PUSH1 0x4 ADD PUSH2 0x40C SWAP3 SWAP2 SWAP1 PUSH2 0xB86 JUMP JUMPDEST PUSH1 0x20 PUSH1 0x40 MLOAD DUP1 DUP4 SUB DUP2 PUSH1 0x0 DUP8 GAS CALL ISZERO DUP1 ISZERO PUSH2 0x42B JUMPI RETURNDATASIZE PUSH1 0x0 DUP1 RETURNDATACOPY RETURNDATASIZE PUSH1 0x0 REVERT JUMPDEST POP POP POP POP PUSH1 0x40 MLOAD RETURNDATASIZE PUSH1 0x1F NOT PUSH1 0x1F DUP3 ADD AND DUP3 ADD DUP1 PUSH1 0x40 MSTORE POP DUP2 ADD SWAP1 PUSH2 0x44F SWAP2 SWAP1 PUSH2 0xBE7 JUMP JUMPDEST POP PUSH1 0x0 DUP1 SLOAD SWAP1 PUSH2 0x100 EXP SWAP1 DIV PUSH20 0xFFFFFFFFFFFFFFFFFFFFFFFFFFFFFFFFFFFFFFFF AND PUSH20 0xFFFFFFFFFFFFFFFFFFFFFFFFFFFFFFFFFFFFFFFF AND PUSH4 0x96F4E9F9 DUP9 DUP5 PUSH1 0x40 MLOAD DUP4 PUSH4 0xFFFFFFFF AND PUSH1 0xE0 SHL DUP2 MSTORE PUSH1 0x4 ADD PUSH2 0x4AB SWAP3 SWAP2 SWAP1 PUSH2 0xAC5 JUMP JUMPDEST PUSH1 0x20 PUSH1 0x40 MLOAD DUP1 DUP4 SUB DUP2 PUSH1 0x0 DUP8 GAS CALL ISZERO DUP1 ISZERO PUSH2 0x4CA JUMPI RETURNDATASIZE PUSH1 0x0 DUP1 RETURNDATACOPY RETURNDATASIZE PUSH1 0x0 REVERT JUMPDEST POP POP POP POP PUSH1 0x40 MLOAD RETURNDATASIZE PUSH1 0x1F NOT PUSH1 0x1F DUP3 ADD AND DUP3 ADD DUP1 PUSH1 0x40 MSTORE POP DUP2 ADD SWAP1 PUSH2 0x4EE SWAP2 SWAP1 PUSH2 0xC40 JUMP JUMPDEST SWAP3 POP DUP7 PUSH8 0xFFFFFFFFFFFFFFFF AND DUP4 PUSH32 0xD36445359B3C6E26C120659AEF090CE0F2EB005CF9AF450D11AA1225609B4F4D DUP9 DUP9 DUP9 PUSH1 0x1 PUSH1 0x0 SWAP1 SLOAD SWAP1 PUSH2 0x100 EXP SWAP1 DIV PUSH20 0xFFFFFFFFFFFFFFFFFFFFFFFFFFFFFFFFFFFFFFFF AND DUP8 PUSH1 0x40 MLOAD PUSH2 0x555 SWAP6 SWAP5 SWAP4 SWAP3 SWAP2 SWAP1 PUSH2 0xC6D JUMP JUMPDEST PUSH1 0x40 MLOAD DUP1 SWAP2 SUB SWAP1 LOG3 POP POP SWAP5 SWAP4 POP POP POP POP JUMP JUMPDEST PUSH1 0x60 PUSH4 0x97A657C9 PUSH1 0xE0 SHL DUP3 PUSH1 0x40 MLOAD PUSH1 0x24 ADD PUSH2 0x582 SWAP2 SWAP1 PUSH2 0xCD7 JUMP JUMPDEST PUSH1 0x40 MLOAD PUSH1 0x20 DUP2 DUP4 SUB SUB DUP2 MSTORE SWAP1 PUSH1 0x40 MSTORE SWAP1 PUSH28 0xFFFFFFFFFFFFFFFFFFFFFFFFFFFFFFFFFFFFFFFFFFFFFFFFFFFFFFFF NOT AND PUSH1 0x20 DUP3 ADD DUP1 MLOAD PUSH28 0xFFFFFFFFFFFFFFFFFFFFFFFFFFFFFFFFFFFFFFFFFFFFFFFFFFFFFFFF DUP4 DUP2 DUP4 AND OR DUP4 MSTORE POP POP POP POP SWAP1 POP SWAP2 SWAP1 POP JUMP JUMPDEST PUSH1 0x40 MLOAD DUP1 PUSH1 0x40 ADD PUSH1 0x40 MSTORE DUP1 PUSH1 0x0 PUSH20 0xFFFFFFFFFFFFFFFFFFFFFFFFFFFFFFFFFFFFFFFF AND DUP2 MSTORE PUSH1 0x20 ADD PUSH1 0x0 DUP2 MSTORE POP SWAP1 JUMP JUMPDEST PUSH1 0x0 DUP1 REVERT JUMPDEST PUSH1 0x0 DUP1 REVERT JUMPDEST PUSH1 0x0 PUSH8 0xFFFFFFFFFFFFFFFF DUP3 AND SWAP1 POP SWAP2 SWAP1 POP JUMP JUMPDEST PUSH2 0x63D DUP2 PUSH2 0x620 JUMP JUMPDEST DUP2 EQ PUSH2 0x648 JUMPI PUSH1 0x0 DUP1 REVERT JUMPDEST POP JUMP JUMPDEST PUSH1 0x0 DUP2 CALLDATALOAD SWAP1 POP PUSH2 0x65A DUP2 PUSH2 0x634 JUMP JUMPDEST SWAP3 SWAP2 POP POP JUMP JUMPDEST PUSH1 0x0 PUSH20 0xFFFFFFFFFFFFFFFFFFFFFFFFFFFFFFFFFFFFFFFF DUP3 AND SWAP1 POP SWAP2 SWAP1 POP JUMP JUMPDEST PUSH1 0x0 PUSH2 0x68B DUP3 PUSH2 0x660 JUMP JUMPDEST SWAP1 POP SWAP2 SWAP1 POP JUMP JUMPDEST PUSH2 0x69B DUP2 PUSH2 0x680 JUMP JUMPDEST DUP2 EQ PUSH2 0x6A6 JUMPI PUSH1 0x0 DUP1 REVERT JUMPDEST POP JUMP JUMPDEST PUSH1 0x0 DUP2 CALLDATALOAD SWAP1 POP PUSH2 0x6B8 DUP2 PUSH2 0x692 JUMP JUMPDEST SWAP3 SWAP2 POP POP JUMP JUMPDEST PUSH1 0x0 DUP1 REVERT JUMPDEST PUSH1 0x0 DUP1 REVERT JUMPDEST PUSH1 0x0 DUP1 REVERT JUMPDEST PUSH1 0x0 DUP1 DUP4 PUSH1 0x1F DUP5 ADD SLT PUSH2 0x6E3 JUMPI PUSH2 0x6E2 PUSH2 0x6BE JUMP JUMPDEST JUMPDEST DUP3 CALLDATALOAD SWAP1 POP PUSH8 0xFFFFFFFFFFFFFFFF DUP2 GT ISZERO PUSH2 0x700 JUMPI PUSH2 0x6FF PUSH2 0x6C3 JUMP JUMPDEST JUMPDEST PUSH1 0x20 DUP4 ADD SWAP2 POP DUP4 PUSH1 0x1 DUP3 MUL DUP4 ADD GT ISZERO PUSH2 0x71C JUMPI PUSH2 0x71B PUSH2 0x6C8 JUMP JUMPDEST JUMPDEST SWAP3 POP SWAP3 SWAP1 POP JUMP JUMPDEST PUSH1 0x0 DUP1 PUSH1 0x0 DUP1 PUSH1 0x60 DUP6 DUP8 SUB SLT ISZERO PUSH2 0x73D JUMPI PUSH2 0x73C PUSH2 0x616 JUMP JUMPDEST JUMPDEST PUSH1 0x0 PUSH2 0x74B DUP8 DUP3 DUP9 ADD PUSH2 0x64B JUMP JUMPDEST SWAP5 POP POP PUSH1 0x20 PUSH2 0x75C DUP8 DUP3 DUP9 ADD PUSH2 0x6A9 JUMP JUMPDEST SWAP4 POP POP PUSH1 0x40 DUP6 ADD CALLDATALOAD PUSH8 0xFFFFFFFFFFFFFFFF DUP2 GT ISZERO PUSH2 0x77D JUMPI PUSH2 0x77C PUSH2 0x61B JUMP JUMPDEST JUMPDEST PUSH2 0x789 DUP8 DUP3 DUP9 ADD PUSH2 0x6CD JUMP JUMPDEST SWAP3 POP SWAP3 POP POP SWAP3 SWAP6 SWAP2 SWAP5 POP SWAP3 POP JUMP JUMPDEST PUSH1 0x0 DUP2 SWAP1 POP SWAP2 SWAP1 POP JUMP JUMPDEST PUSH2 0x7AA DUP2 PUSH2 0x797 JUMP JUMPDEST DUP3 MSTORE POP POP JUMP JUMPDEST PUSH1 0x0 PUSH1 0x20 DUP3 ADD SWAP1 POP PUSH2 0x7C5 PUSH1 0x0 DUP4 ADD DUP5 PUSH2 0x7A1 JUMP JUMPDEST SWAP3 SWAP2 POP POP JUMP JUMPDEST PUSH2 0x7D4 DUP2 PUSH2 0x680 JUMP JUMPDEST DUP3 MSTORE POP POP JUMP JUMPDEST PUSH1 0x0 PUSH1 0x20 DUP3 ADD SWAP1 POP PUSH2 0x7EF PUSH1 0x0 DUP4 ADD DUP5 PUSH2 0x7CB JUMP JUMPDEST SWAP3 SWAP2 POP POP JUMP JUMPDEST PUSH1 0x0 DUP3 DUP3 MSTORE PUSH1 0x20 DUP3 ADD SWAP1 POP SWAP3 SWAP2 POP POP JUMP JUMPDEST DUP3 DUP2 DUP4 CALLDATACOPY PUSH1 0x0 DUP4 DUP4 ADD MSTORE POP POP POP JUMP JUMPDEST PUSH1 0x0 PUSH1 0x1F NOT PUSH1 0x1F DUP4 ADD AND SWAP1 POP SWAP2 SWAP1 POP JUMP JUMPDEST PUSH1 0x0 PUSH2 0x832 DUP4 DUP6 PUSH2 0x7F5 JUMP JUMPDEST SWAP4 POP PUSH2 0x83F DUP4 DUP6 DUP5 PUSH2 0x806 JUMP JUMPDEST PUSH2 0x848 DUP4 PUSH2 0x815 JUMP JUMPDEST DUP5 ADD SWAP1 POP SWAP4 SWAP3 POP POP POP JUMP JUMPDEST PUSH1 0x0 PUSH1 0x20 DUP3 ADD SWAP1 POP DUP2 DUP2 SUB PUSH1 0x0 DUP4 ADD MSTORE PUSH2 0x86E DUP2 DUP5 DUP7 PUSH2 0x826 JUMP JUMPDEST SWAP1 POP SWAP4 SWAP3 POP POP POP JUMP JUMPDEST PUSH32 0x4E487B7100000000000000000000000000000000000000000000000000000000 PUSH1 0x0 MSTORE PUSH1 0x41 PUSH1 0x4 MSTORE PUSH1 0x24 PUSH1 0x0 REVERT JUMPDEST PUSH2 0x8AF DUP2 PUSH2 0x620 JUMP JUMPDEST DUP3 MSTORE POP POP JUMP JUMPDEST PUSH1 0x0 DUP2 MLOAD SWAP1 POP SWAP2 SWAP1 POP JUMP JUMPDEST PUSH1 0x0 DUP3 DUP3 MSTORE PUSH1 0x20 DUP3 ADD SWAP1 POP SWAP3 SWAP2 POP POP JUMP JUMPDEST PUSH1 0x0 JUMPDEST DUP4 DUP2 LT ISZERO PUSH2 0x8EF JUMPI DUP1 DUP3 ADD MLOAD DUP2 DUP5 ADD MSTORE PUSH1 0x20 DUP2 ADD SWAP1 POP PUSH2 0x8D4 JUMP JUMPDEST PUSH1 0x0 DUP5 DUP5 ADD MSTORE POP POP POP POP JUMP JUMPDEST PUSH1 0x0 PUSH2 0x906 DUP3 PUSH2 0x8B5 JUMP JUMPDEST PUSH2 0x910 DUP2 DUP6 PUSH2 0x8C0 JUMP JUMPDEST SWAP4 POP PUSH2 0x920 DUP2 DUP6 PUSH1 0x20 DUP7 ADD PUSH2 0x8D1 JUMP JUMPDEST PUSH2 0x929 DUP2 PUSH2 0x815 JUMP JUMPDEST DUP5 ADD SWAP2 POP POP SWAP3 SWAP2 POP POP JUMP JUMPDEST PUSH1 0x0 DUP2 MLOAD SWAP1 POP SWAP2 SWAP1 POP JUMP JUMPDEST PUSH1 0x0 DUP3 DUP3 MSTORE PUSH1 0x20 DUP3 ADD SWAP1 POP SWAP3 SWAP2 POP POP JUMP JUMPDEST PUSH1 0x0 DUP2 SWAP1 POP PUSH1 0x20 DUP3 ADD SWAP1 POP SWAP2 SWAP1 POP JUMP JUMPDEST PUSH2 0x969 DUP2 PUSH2 0x680 JUMP JUMPDEST DUP3 MSTORE POP POP JUMP JUMPDEST PUSH1 0x0 DUP2 SWAP1 POP SWAP2 SWAP1 POP JUMP JUMPDEST PUSH2 0x982 DUP2 PUSH2 0x96F JUMP JUMPDEST DUP3 MSTORE POP POP JUMP JUMPDEST PUSH1 0x40 DUP3 ADD PUSH1 0x0 DUP3 ADD MLOAD PUSH2 0x99E PUSH1 0x0 DUP6 ADD DUP3 PUSH2 0x960 JUMP JUMPDEST POP PUSH1 0x20 DUP3 ADD MLOAD PUSH2 0x9B1 PUSH1 0x20 DUP6 ADD DUP3 PUSH2 0x979 JUMP JUMPDEST POP POP POP POP JUMP JUMPDEST PUSH1 0x0 PUSH2 0x9C3 DUP4 DUP4 PUSH2 0x988 JUMP JUMPDEST PUSH1 0x40 DUP4 ADD SWAP1 POP SWAP3 SWAP2 POP POP JUMP JUMPDEST PUSH1 0x0 PUSH1 0x20 DUP3 ADD SWAP1 POP SWAP2 SWAP1 POP JUMP JUMPDEST PUSH1 0x0 PUSH2 0x9E7 DUP3 PUSH2 0x934 JUMP JUMPDEST PUSH2 0x9F1 DUP2 DUP6 PUSH2 0x93F JUMP JUMPDEST SWAP4 POP PUSH2 0x9FC DUP4 PUSH2 0x950 JUMP JUMPDEST DUP1 PUSH1 0x0 JUMPDEST DUP4 DUP2 LT ISZERO PUSH2 0xA2D JUMPI DUP2 MLOAD PUSH2 0xA14 DUP9 DUP3 PUSH2 0x9B7 JUMP JUMPDEST SWAP8 POP PUSH2 0xA1F DUP4 PUSH2 0x9CF JUMP JUMPDEST SWAP3 POP POP PUSH1 0x1 DUP2 ADD SWAP1 POP PUSH2 0xA00 JUMP JUMPDEST POP DUP6 SWAP4 POP POP POP POP SWAP3 SWAP2 POP POP JUMP JUMPDEST PUSH1 0x0 PUSH1 0xA0 DUP4 ADD PUSH1 0x0 DUP4 ADD MLOAD DUP5 DUP3 SUB PUSH1 0x0 DUP7 ADD MSTORE PUSH2 0xA57 DUP3 DUP3 PUSH2 0x8FB JUMP JUMPDEST SWAP2 POP POP PUSH1 0x20 DUP4 ADD MLOAD DUP5 DUP3 SUB PUSH1 0x20 DUP7 ADD MSTORE PUSH2 0xA71 DUP3 DUP3 PUSH2 0x8FB JUMP JUMPDEST SWAP2 POP POP PUSH1 0x40 DUP4 ADD MLOAD DUP5 DUP3 SUB PUSH1 0x40 DUP7 ADD MSTORE PUSH2 0xA8B DUP3 DUP3 PUSH2 0x9DC JUMP JUMPDEST SWAP2 POP POP PUSH1 0x60 DUP4 ADD MLOAD PUSH2 0xAA0 PUSH1 0x60 DUP7 ADD DUP3 PUSH2 0x960 JUMP JUMPDEST POP PUSH1 0x80 DUP4 ADD MLOAD DUP5 DUP3 SUB PUSH1 0x80 DUP7 ADD MSTORE PUSH2 0xAB8 DUP3 DUP3 PUSH2 0x8FB JUMP JUMPDEST SWAP2 POP POP DUP1 SWAP2 POP POP SWAP3 SWAP2 POP POP JUMP JUMPDEST PUSH1 0x0 PUSH1 0x40 DUP3 ADD SWAP1 POP PUSH2 0xADA PUSH1 0x0 DUP4 ADD DUP6 PUSH2 0x8A6 JUMP JUMPDEST DUP2 DUP2 SUB PUSH1 0x20 DUP4 ADD MSTORE PUSH2 0xAEC DUP2 DUP5 PUSH2 0xA3A JUMP JUMPDEST SWAP1 POP SWAP4 SWAP3 POP POP POP JUMP JUMPDEST PUSH2 0xAFE DUP2 PUSH2 0x96F JUMP JUMPDEST DUP2 EQ PUSH2 0xB09 JUMPI PUSH1 0x0 DUP1 REVERT JUMPDEST POP JUMP JUMPDEST PUSH1 0x0 DUP2 MLOAD SWAP1 POP PUSH2 0xB1B DUP2 PUSH2 0xAF5 JUMP JUMPDEST SWAP3 SWAP2 POP POP JUMP JUMPDEST PUSH1 0x0 PUSH1 0x20 DUP3 DUP5 SUB SLT ISZERO PUSH2 0xB37 JUMPI PUSH2 0xB36 PUSH2 0x616 JUMP JUMPDEST JUMPDEST PUSH1 0x0 PUSH2 0xB45 DUP5 DUP3 DUP6 ADD PUSH2 0xB0C JUMP JUMPDEST SWAP2 POP POP SWAP3 SWAP2 POP POP JUMP JUMPDEST PUSH2 0xB57 DUP2 PUSH2 0x96F JUMP JUMPDEST DUP3 MSTORE POP POP JUMP JUMPDEST PUSH1 0x0 PUSH1 0x40 DUP3 ADD SWAP1 POP PUSH2 0xB72 PUSH1 0x0 DUP4 ADD DUP6 PUSH2 0xB4E JUMP JUMPDEST PUSH2 0xB7F PUSH1 0x20 DUP4 ADD DUP5 PUSH2 0xB4E JUMP JUMPDEST SWAP4 SWAP3 POP POP POP JUMP JUMPDEST PUSH1 0x0 PUSH1 0x40 DUP3 ADD SWAP1 POP PUSH2 0xB9B PUSH1 0x0 DUP4 ADD DUP6 PUSH2 0x7CB JUMP JUMPDEST PUSH2 0xBA8 PUSH1 0x20 DUP4 ADD DUP5 PUSH2 0xB4E JUMP JUMPDEST SWAP4 SWAP3 POP POP POP JUMP JUMPDEST PUSH1 0x0 DUP2 ISZERO ISZERO SWAP1 POP SWAP2 SWAP1 POP JUMP JUMPDEST PUSH2 0xBC4 DUP2 PUSH2 0xBAF JUMP JUMPDEST DUP2 EQ PUSH2 0xBCF JUMPI PUSH1 0x0 DUP1 REVERT JUMPDEST POP JUMP JUMPDEST PUSH1 0x0 DUP2 MLOAD SWAP1 POP PUSH2 0xBE1 DUP2 PUSH2 0xBBB JUMP JUMPDEST SWAP3 SWAP2 POP POP JUMP JUMPDEST PUSH1 0x0 PUSH1 0x20 DUP3 DUP5 SUB SLT ISZERO PUSH2 0xBFD JUMPI PUSH2 0xBFC PUSH2 0x616 JUMP JUMPDEST JUMPDEST PUSH1 0x0 PUSH2 0xC0B DUP5 DUP3 DUP6 ADD PUSH2 0xBD2 JUMP JUMPDEST SWAP2 POP POP SWAP3 SWAP2 POP POP JUMP JUMPDEST PUSH2 0xC1D DUP2 PUSH2 0x797 JUMP JUMPDEST DUP2 EQ PUSH2 0xC28 JUMPI PUSH1 0x0 DUP1 REVERT JUMPDEST POP JUMP JUMPDEST PUSH1 0x0 DUP2 MLOAD SWAP1 POP PUSH2 0xC3A DUP2 PUSH2 0xC14 JUMP JUMPDEST SWAP3 SWAP2 POP POP JUMP JUMPDEST PUSH1 0x0 PUSH1 0x20 DUP3 DUP5 SUB SLT ISZERO PUSH2 0xC56 JUMPI PUSH2 0xC55 PUSH2 0x616 JUMP JUMPDEST JUMPDEST PUSH1 0x0 PUSH2 0xC64 DUP5 DUP3 DUP6 ADD PUSH2 0xC2B JUMP JUMPDEST SWAP2 POP POP SWAP3 SWAP2 POP POP JUMP JUMPDEST PUSH1 0x0 PUSH1 0x80 DUP3 ADD SWAP1 POP PUSH2 0xC82 PUSH1 0x0 DUP4 ADD DUP9 PUSH2 0x7CB JUMP JUMPDEST DUP2 DUP2 SUB PUSH1 0x20 DUP4 ADD MSTORE PUSH2 0xC95 DUP2 DUP7 DUP9 PUSH2 0x826 JUMP JUMPDEST SWAP1 POP PUSH2 0xCA4 PUSH1 0x40 DUP4 ADD DUP6 PUSH2 0x7CB JUMP JUMPDEST PUSH2 0xCB1 PUSH1 0x60 DUP4 ADD DUP5 PUSH2 0xB4E JUMP JUMPDEST SWAP7 SWAP6 POP POP POP POP POP POP JUMP JUMPDEST PUSH1 0x20 DUP3 ADD PUSH1 0x0 DUP3 ADD MLOAD PUSH2 0xCD1 PUSH1 0x0 DUP6 ADD DUP3 PUSH2 0x979 JUMP JUMPDEST POP POP POP POP JUMP JUMPDEST PUSH1 0x0 PUSH1 0x20 DUP3 ADD SWAP1 POP PUSH2 0xCEC PUSH1 0x0 DUP4 ADD DUP5 PUSH2 0xCBB JUMP JUMPDEST SWAP3 SWAP2 POP POP JUMP INVALID LOG2 PUSH5 0x6970667358 0x22 SLT KECCAK256 0x4B 0xAB PUSH6 0xF14159A62AA3 DIV 0x5C PUSH22 0x81FCDC790D648AB37EFF484509B843DD585549956473 PUSH16 0x6C634300081300330000000000000000 "
				},
				"gasEstimates": {
					"creation": {
						"codeDepositCost": "673600",
						"executionCost": "infinite",
						"totalCost": "infinite"
					},
					"external": {
						"sendMessage(uint64,address,string)": "infinite"
					}
				},
				"methodIdentifiers": {
					"sendMessage(uint64,address,string)": "0eb5ad45"
				}
			},
			"storageLayout": {
				"storage": [
					{
						"astId": 219,
						"contract": "Sender.sol:Sender",
						"label": "s_router",
						"offset": 0,
						"slot": "0",
						"type": "t_contract(IRouterClient)49"
					},
					{
						"astId": 222,
						"contract": "Sender.sol:Sender",
						"label": "s_linkToken",
						"offset": 0,
						"slot": "1",
						"type": "t_contract(LinkTokenInterface)195"
					}
				],
				"types": {
					"t_contract(IRouterClient)49": {
						"encoding": "inplace",
						"label": "contract IRouterClient",
						"numberOfBytes": "20"
					},
					"t_contract(LinkTokenInterface)195": {
						"encoding": "inplace",
						"label": "contract LinkTokenInterface",
						"numberOfBytes": "20"
					}
				}
			},
			"userdoc": {
				"kind": "user",
				"methods": {
					"constructor": {
						"notice": "Constructor initializes the contract with the router address."
					},
					"sendMessage(uint64,address,string)": {
						"notice": "Sends data to receiver on the destination chain."
					}
				},
				"version": 1
			}
		}
	}
}