{
	"data": {
		"bytecode": {
			"linkReferences": {},
			"object": "60806040523480156200001157600080fd5b506200001c6200002c565b6200002662000706565b62001855565b604080516080810182526000808252600160208301526002928201929092526003606082015262000060919060046200155a565b506040805161012081018252600560e0808301918252644865726f3160d81b61010084015290825260036020808401919091528351808301855261014a815261015e818301526101688186015261017260608083019190915261017c60808084019190915261019060a0808501919091526101c260c08581019190915287890194909452875180870189526001815260028187018190526004828b0152600682860152600882850152600982840152600a82870152848901919091528851968701895261020887526102128787015261021c98870198909852610226928601929092526102308582015261023a8583015261024485840152850193909352600092840183905283018290529080529190915280517fac33ff75c19e70fe83507db0d683fd3465c996598dc972688b7ace676c89077b908190620001a4908262001789565b50602082015160018201556040820151620001c69060028301906007620015af565b506060820151620001de906003830190600762001647565b506080820151620001f69060048301906007620015af565b5060a08281015160058084019190915560c093840151600693840155604080516101208101825260e0808201848152642432b9379960d91b610100840152825260036020808401919091528351808301855261015e81526101728183015261017c818601526101866060828101919091526101a46080838101919091526101ae838a01526101b8838c0152858701929092528551808501875260028082526004828601528188019890985280820199909952600889830152600a89890152600c898b0152808501989098528451928301855261020d8352610217838301526102219483019490945261022b968201969096526102358184015261023f81860152610258818801529181019190915260009281018390526103e8948101949094526001909152905280517fe90b7bceb6e7df5418fb78d8ee546e97c83a08bbccc01a0644d599ccd2a7c2e09081906200034f908262001789565b50602082015160018201556040820151620003719060028301906007620015af565b50606082015162000389906003830190600762001647565b506080820151620003a19060048301906007620015af565b5060a08281015160058084019190915560c093840151600693840155604080516101208101825260e0808201938452644865726f3360d81b610100830152928152600460208083018290528351808601855261016881526101728183015261017c818601526101866060828101919091526101906080838101919091526101a4838a01526101c2838c0152858701929092528551808801875293845283830198909852600883860152600a83890152600c83820152600e838801526012838a0152878401929092528351948501845261020b85526102168582015261022c938501939093526102409584019590955261024b8386015261025a83850152610270838701529384019190915260009183018290526109c49383019390935260029081905290915280517f679795a0195a1b76cdebb7c51d74e058aee92919b8c3389af86ef24535e8a28c908190620004f9908262001789565b506020820151600182015560408201516200051b9060028301906007620015af565b50606082015162000533906003830190600762001647565b5060808201516200054b9060048301906007620015af565b5060a08281015160058084019190915560c093840151600693840155604080516101208101825260e080820193845264121c995bcd60da1b61010083015292815260208082018690528251808501845261019081526101a4818301526101b8818501526101cc6060828101919091526101e06080838101919091526101f483890152610208838b01528486019290925284518087018652600180825260028286018190526004838901528284019a909a52600882850152600a828a0152600c828c015282860191909152855196870186526101f687526102018785015261020b958701959095526102159086015261021f858201526102298587015261023385890152820193909352928301526103e8938201939093526003600052915280517f88601476d11616a71c5be67555bd1dff4b1cbf21533d2669b768b61518cfe1c39081906200069b908262001789565b50602082015160018201556040820151620006bd9060028301906007620015af565b506060820151620006d5906003830190600762001647565b506080820151620006ed9060048301906007620015af565b5060a0820151600582015560c090910151600690910155565b6040805161014081018252600081526001602082018190526005928201929092526006606082015260076080820152600860a0820152600960c0820152600f60e082015260106101008201526012610120820152620007689190600a6200155a565b50604080516101a081018252601e6101208201818152602161014084015260236101608401819052602861018085018190529184526103e86020808601919091526109c48587015285516080818101885283825281830193909352808701849052606081810194909452838601528185019390935284519081018552605a8082528184018190529481019490945260789084015260a0820192909252600360c08201819052600060e083018190526101008301819052805290915280517f3617319a054d772f909f7c479a2cebe5066e836a939412e32403c99029b92eff9062000856908290600462001647565b506020820151600182015560408201516002820155606082015162000882906003830190600462001647565b506080820151816004015560a082015181600501906004620008a692919062001647565b5060c082810151600683015560e080840151600784015561010093840151600890930192909255604080516101a08101825260146101208201908152601661014083015260196101608301819052601e6101808401529082526103e860208084018290526109c484860152845160808181018752602880835282840152602d828801526032606083810191909152808701929092528086019490945285519384018652604b80855284830152606495840186905283019490945260a083019190915260029382019390935260009381018490529384019190915260019091526003905280517fa15bc60c955c405d20d9149c709e2460f1c2d9a497496a7f46004d1772c3054c90620009bc908290600462001647565b5060208201516001820155604082015160028201556060820151620009e8906003830190600462001647565b506080820151816004015560a08201518160050190600462000a0c92919062001647565b5060c082810151600683015560e080840151600784015561010093840151600890930192909255604080516101a081018252608c610120820190815260a0610140830181905260b461016084015260c86101808401529082526103e86020808401919091526107d08385015283516080818101865260028083528284018190528287018190526060838101829052808701939093528186015285519081018652600a8152600c81840152600e9581019590955260109085015290820192909252600392810183905260009381018490526105dc948101949094526005909252905280517f405aad32e1adbac89bb7f176e338b8fc6e994ca210c9bb7bdca249b4659422509062000b20908290600462001647565b506020820151600182015560408201516002820155606082015162000b4c906003830190600462001647565b506080820151816004015560a08201518160050190600462000b7092919062001647565b5060c08281015160068084019190915560e080850151600785015561010094850151600890940193909355604080516101a08101825260286101208201908152602d6101408301526030610160830152603261018083015281526103e86020808301919091526107d08284018190528351608081810186526003808352600483860181905260058489018190526060858101919091528088019490945260148388015287519283018852603c835260508387015260649783019790975260789282019290925260a085015295830186905260009683018790529682019690965291909352925281517fc69056f16cbaa3c616b828e333ab7d3a32310765507f8f58359e99ebb7a885f39162000c8791839162001647565b506020820151600182015560408201516002820155606082015162000cb3906003830190600462001647565b506080820151816004015560a08201518160050190600462000cd792919062001647565b5060c082810151600683015560e08084015160078085019190915561010094850151600894850155604080516101a08101825260286101208201818152602d6101408401526032610160840152603c61018084015282526103e86020808401919091526107d083850152835160808181018652601482526019828401819052828701526060828101859052808601929092528085019990995284519889018552601889528882018290529388019190915260309287019290925260a081019590955260029385019390935260009184018290526101f49484019490945292909252600390915280517ff2c49132ed1cee2a7e75bde50d332a2f81f1d01e5456d8a19d1df09bd561dbd29062000df0908290600462001647565b506020820151600182015560408201516002820155606082015162000e1c906003830190600462001647565b506080820151816004015560a08201518160050190600462000e4092919062001647565b5060c082810151600683015560e080840151600784015561010093840151600893840155604080516101a081018252601461012082019081526019610140830152601e610160830152602861018083015281526105dc6020808301919091526109c48284015282516080818101855260018083528284015260028286018190526060838101829052808601939093528185015284519081018552878152600a81840152600c94810194909452600e9084015260a08201929092526003938101849052600092810183905261138895810195909552929052905280517f85aaa47b6dc46495bb8824fad4583769726fea36efd831a35556690b830a8fbe9062000f4c908290600462001647565b506020820151600182015560408201516002820155606082015162000f78906003830190600462001647565b506080820151816004015560a08201518160050190600462000f9c92919062001647565b5060c082810151600683015560e080840151600784015561010093840151600890930192909255604080516101a0810182526064610120820190815260786101408301526082610160830152608c61018083015281526103206020808301919091526107d08284015282516080818101855260148252601982840152602882860181905260608381019190915280850192909252600381850181905285519182018652600f825260128285015260159582019590955260189181019190915260a08301529281018290526001938101939093526101f49383019390935260096000529190915280517f8a8dc4e5242ea8b1ab1d60606dae757e6c2cca9f92a2cced9f72c19960bcb45890620010b5908290600462001647565b5060208201516001820155604082015160028201556060820151620010e1906003830190600462001647565b506080820151816004015560a0820151816005019060046200110592919062001647565b5060c082810151600683015560e080840151600784015561010093840151600890930192909255604080516101a081018252606e6101208201908152609661014083015260c861016083015260fa61018083015281526107d0602080830191909152610bb882840152825160808181018552600180835282840181905282860181905260026060848101919091528086019390935281850181905285519182018652600b8252600c82850152600d95820195909552600f91810182905260a08401526003948301859052948201929092526101f494810194909452600092909252905280517ff60b7f6a315ec68a6ac240e69dca53652b38627f709a2caa217d9e18af4d7a60906200121b908290600462001647565b506020820151600182015560408201516002820155606082015162001247906003830190600462001647565b506080820151816004015560a0820151816005019060046200126b92919062001647565b5060c082810151600683015560e080840151600784015561010093840151600890930192909255604080516101a081018252602361012082019081526028610140830152602d6101608301819052603261018084018190529183526103e86020808501919091526107d084860152845160808181018752600580835282840181905282880181905260608381019190915280870192909252600f818701528651908101875292835282820193909352604b94820194909452605a9181019190915260a082015260039281018390526000938101849052610bb8948101949094526010909252905280517f47d4745e02b343689a5e7ac121d2a352b7a15c10328a8759fd7d4cf0999002bb9062001385908290600462001647565b5060208201516001820155604082015160028201556060820151620013b1906003830190600462001647565b506080820151816004015560a082015181600501906004620013d592919062001647565b5060c082810151600683015560e080840151600784015561010093840151600890930192909255604080516101a081018252601e610120820190815260236101408301526028610160830152602d61018083015281526103e860208083018290526109c4838501528351608081810186526009808352828401819052828701819052606083810191909152808601929092526032818601528551908101865260968082528184015260c89581019590955260fa9085015260a08301939093526003938201849052600194820194909452938401929092526012600052905280517f6a2b6bffaca788160f671fa62d34758b717f75a90ad5a468757c50d61f33c44390620014e6908290600462001647565b506020820151600182015560408201516002820155606082015162001512906003830190600462001647565b506080820151816004015560a0820151816005019060046200153692919062001647565b5060c0820151600682015560e0820151600782015561010090910151600890910155565b8280548282559060005260206000209081019282156200159d579160200282015b828111156200159d578251829060ff169055916020019190600101906200157b565b50620015ab929150620016cd565b5090565b6001830191839082156200159d5791602002820160005b838211156200160857835183826101000a81548161ffff021916908361ffff1602179055509260200192600201602081600101049283019260010302620015c6565b8015620016385782816101000a81549061ffff021916905560020160208160010104928301926001030262001608565b5050620015ab929150620016cd565b6001830191839082156200159d5791602002820160005b838211156200169e57835183826101000a81548160ff021916908360ff16021790555092602001926001016020816000010492830192600103026200165e565b8015620016385782816101000a81549060ff02191690556001016020816000010492830192600103026200169e565b5b80821115620015ab5760008155600101620016ce565b634e487b7160e01b600052604160045260246000fd5b600181811c908216806200170f57607f821691505b6020821081036200173057634e487b7160e01b600052602260045260246000fd5b50919050565b601f8211156200178457600081815260208120601f850160051c810160208610156200175f5750805b601f850160051c820191505b8181101562001780578281556001016200176b565b5050505b505050565b81516001600160401b03811115620017a557620017a5620016e4565b620017bd81620017b68454620016fa565b8462001736565b602080601f831160018114620017f55760008415620017dc5750858301515b600019600386901b1c1916600185901b17855562001780565b600085815260208120601f198616915b82811015620018265788860151825594840194600190910190840162001805565b5085821015620018455787850151600019600388901b60f8161c191681555b5050505050600190811b01905550565b610a2980620018656000396000f3fe608060405234801561001057600080fd5b50600436106100885760003560e01c806353d228081161005b57806353d22808146101695780636c9949d21461018957806391c0eed01461019e578063c2f3789a146101b157600080fd5b8063134750151461008d5780632a218966146100b35780632be5b2e2146100d35780634986103d146100f6575b600080fd5b6100a061009b366004610772565b6101b9565b6040519081526020015b60405180910390f35b6100c66100c1366004610772565b6101da565b6040516100aa91906107b7565b6100e66100e1366004610772565b610333565b6040516100aa949392919061087e565b61013c610104366004610772565b600360205260009081526040902060018101546002820154600483015460068401546007850154600890950154939492939192909186565b604080519687526020870195909552938501929092526060840152608083015260a082015260c0016100aa565b61017c610177366004610772565b6103e3565b6040516100aa91906108d4565b6101916105cb565b6040516100aa9190610975565b6100a06101ac366004610772565b610623565b610191610633565b600081815481106101c957600080fd5b600091825260209091200154905081565b6101e2610689565b6000828152600360205260409081902081516101a081019092528161012081018260048282826020028201916000905b825461010083900a900460ff168152602060019283018181049485019490930390920291018084116102125750505092845250505060018201546020820152600282015460408083019190915280516080810191829052606090920191906003840190600490826000855b825461010083900a900460ff1681526020600192830181810494850194909303909202910180841161027d57505050928452505050600482810154602083015260408051608081018083529190930192916005850191826000855b825461010083900a900460ff168152602060019283018181049485019490930390920291018084116102d857505050928452505050600682015460208201526007820154604082015260089091015460609091015292915050565b60026020526000908152604090208054819061034e906109b9565b80601f016020809104026020016040519081016040528092919081815260200182805461037a906109b9565b80156103c75780601f1061039c576101008083540402835291602001916103c7565b820191906000526020600020905b8154815290600101906020018083116103aa57829003601f168201915b5050505050908060010154908060050154908060060154905084565b6103eb6106e7565b60008281526002602052604090819020815160e08101909252805482908290610413906109b9565b80601f016020809104026020016040519081016040528092919081815260200182805461043f906109b9565b801561048c5780601f106104615761010080835404028352916020019161048c565b820191906000526020600020905b81548152906001019060200180831161046f57829003601f168201915b5050509183525050600182015460208201526040805160e081018083529190920191906002840190600790826000855b82829054906101000a900461ffff1661ffff16815260200190600201906020826001010492830192600103820291508084116104bc5750505092845250506040805160e081019182905260209093019291506003840190600790826000855b825461010083900a900460ff1681526020600192830181810494850194909303909202910180841161051b5750505092845250506040805160e081019182905260209093019291506004840190600790826000855b82829054906101000a900461ffff1661ffff1681526020019060020190602082600101049283019260010382029150808411610570575050509284525050506005820154602082015260069091015460409091015292915050565b6060600080548060200260200160405190810160405280929190818152602001828054801561061957602002820191906000526020600020905b815481526020019060010190808311610605575b5050505050905090565b600181815481106101c957600080fd5b606060018054806020026020016040519081016040528092919081815260200182805480156106195760200282019190600052602060002090815481526020019060010190808311610605575050505050905090565b60405180610120016040528061069d610736565b815260200160008152602001600081526020016106b8610736565b8152602001600081526020016106cc610736565b81526020016000815260200160008152602001600081525090565b6040518060e001604052806060815260200160008152602001610708610754565b8152602001610715610754565b8152602001610722610754565b815260200160008152602001600081525090565b60405180608001604052806004906020820280368337509192915050565b6040518060e001604052806007906020820280368337509192915050565b60006020828403121561078457600080fd5b5035919050565b8060005b60048110156107b157815160ff1684526020938401939091019060010161078f565b50505050565b6000610240820190506107cb82845161078b565b60208301516080830152604083015160a083015260608301516107f160c084018261078b565b50608083015161014083015260a083015161081061016084018261078b565b5060c08301516101e083015260e0830151610200830152610100909201516102209091015290565b6000815180845260005b8181101561085e57602081850181015186830182015201610842565b506000602082860101526020601f19601f83011685010191505092915050565b6080815260006108916080830187610838565b6020830195909552506040810192909252606090910152919050565b8060005b60078110156107b157815161ffff168452602093840193909101906001016108b1565b60006020808352835161032080838601526108f3610340860183610838565b9150828601516040860152604086015161091060608701826108ad565b506060860151610140860160005b600781101561093e57825160ff168252918501919085019060010161091e565b505050608086015192506109566102208601846108ad565b60a086015161030086015260c090950151949093019390935250919050565b6020808252825182820181905260009190848201906040850190845b818110156109ad57835183529284019291840191600101610991565b50909695505050505050565b600181811c908216806109cd57607f821691505b6020821081036109ed57634e487b7160e01b600052602260045260246000fd5b5091905056fea264697066735822122028f4df5cad415f5a2b5e588e60cec431dc545e69afc1d3b541ed5bb6791f4a5864736f6c63430008130033",
			"opcodes": "PUSH1 0x80 PUSH1 0x40 MSTORE CALLVALUE DUP1 ISZERO PUSH3 0x11 JUMPI PUSH1 0x0 DUP1 REVERT JUMPDEST POP PUSH3 0x1C PUSH3 0x2C JUMP JUMPDEST PUSH3 0x26 PUSH3 0x706 JUMP JUMPDEST PUSH3 0x1855 JUMP JUMPDEST PUSH1 0x40 DUP1 MLOAD PUSH1 0x80 DUP2 ADD DUP3 MSTORE PUSH1 0x0 DUP1 DUP3 MSTORE PUSH1 0x1 PUSH1 0x20 DUP4 ADD MSTORE PUSH1 0x2 SWAP3 DUP3 ADD SWAP3 SWAP1 SWAP3 MSTORE PUSH1 0x3 PUSH1 0x60 DUP3 ADD MSTORE PUSH3 0x60 SWAP2 SWAP1 PUSH1 0x4 PUSH3 0x155A JUMP JUMPDEST POP PUSH1 0x40 DUP1 MLOAD PUSH2 0x120 DUP2 ADD DUP3 MSTORE PUSH1 0x5 PUSH1 0xE0 DUP1 DUP4 ADD SWAP2 DUP3 MSTORE PUSH5 0x4865726F31 PUSH1 0xD8 SHL PUSH2 0x100 DUP5 ADD MSTORE SWAP1 DUP3 MSTORE PUSH1 0x3 PUSH1 0x20 DUP1 DUP5 ADD SWAP2 SWAP1 SWAP2 MSTORE DUP4 MLOAD DUP1 DUP4 ADD DUP6 MSTORE PUSH2 0x14A DUP2 MSTORE PUSH2 0x15E DUP2 DUP4 ADD MSTORE PUSH2 0x168 DUP2 DUP7 ADD MSTORE PUSH2 0x172 PUSH1 0x60 DUP1 DUP4 ADD SWAP2 SWAP1 SWAP2 MSTORE PUSH2 0x17C PUSH1 0x80 DUP1 DUP5 ADD SWAP2 SWAP1 SWAP2 MSTORE PUSH2 0x190 PUSH1 0xA0 DUP1 DUP6 ADD SWAP2 SWAP1 SWAP2 MSTORE PUSH2 0x1C2 PUSH1 0xC0 DUP6 DUP2 ADD SWAP2 SWAP1 SWAP2 MSTORE DUP8 DUP10 ADD SWAP5 SWAP1 SWAP5 MSTORE DUP8 MLOAD DUP1 DUP8 ADD DUP10 MSTORE PUSH1 0x1 DUP2 MSTORE PUSH1 0x2 DUP2 DUP8 ADD DUP2 SWAP1 MSTORE PUSH1 0x4 DUP3 DUP12 ADD MSTORE PUSH1 0x6 DUP3 DUP7 ADD MSTORE PUSH1 0x8 DUP3 DUP6 ADD MSTORE PUSH1 0x9 DUP3 DUP5 ADD MSTORE PUSH1 0xA DUP3 DUP8 ADD MSTORE DUP5 DUP10 ADD SWAP2 SWAP1 SWAP2 MSTORE DUP9 MLOAD SWAP7 DUP8 ADD DUP10 MSTORE PUSH2 0x208 DUP8 MSTORE PUSH2 0x212 DUP8 DUP8 ADD MSTORE PUSH2 0x21C SWAP9 DUP8 ADD SWAP9 SWAP1 SWAP9 MSTORE PUSH2 0x226 SWAP3 DUP7 ADD SWAP3 SWAP1 SWAP3 MSTORE PUSH2 0x230 DUP6 DUP3 ADD MSTORE PUSH2 0x23A DUP6 DUP4 ADD MSTORE PUSH2 0x244 DUP6 DUP5 ADD MSTORE DUP6 ADD SWAP4 SWAP1 SWAP4 MSTORE PUSH1 0x0 SWAP3 DUP5 ADD DUP4 SWAP1 MSTORE DUP4 ADD DUP3 SWAP1 MSTORE SWAP1 DUP1 MSTORE SWAP2 SWAP1 SWAP2 MSTORE DUP1 MLOAD PUSH32 0xAC33FF75C19E70FE83507DB0D683FD3465C996598DC972688B7ACE676C89077B SWAP1 DUP2 SWAP1 PUSH3 0x1A4 SWAP1 DUP3 PUSH3 0x1789 JUMP JUMPDEST POP PUSH1 0x20 DUP3 ADD MLOAD PUSH1 0x1 DUP3 ADD SSTORE PUSH1 0x40 DUP3 ADD MLOAD PUSH3 0x1C6 SWAP1 PUSH1 0x2 DUP4 ADD SWAP1 PUSH1 0x7 PUSH3 0x15AF JUMP JUMPDEST POP PUSH1 0x60 DUP3 ADD MLOAD PUSH3 0x1DE SWAP1 PUSH1 0x3 DUP4 ADD SWAP1 PUSH1 0x7 PUSH3 0x1647 JUMP JUMPDEST POP PUSH1 0x80 DUP3 ADD MLOAD PUSH3 0x1F6 SWAP1 PUSH1 0x4 DUP4 ADD SWAP1 PUSH1 0x7 PUSH3 0x15AF JUMP JUMPDEST POP PUSH1 0xA0 DUP3 DUP2 ADD MLOAD PUSH1 0x5 DUP1 DUP5 ADD SWAP2 SWAP1 SWAP2 SSTORE PUSH1 0xC0 SWAP4 DUP5 ADD MLOAD PUSH1 0x6 SWAP4 DUP5 ADD SSTORE PUSH1 0x40 DUP1 MLOAD PUSH2 0x120 DUP2 ADD DUP3 MSTORE PUSH1 0xE0 DUP1 DUP3 ADD DUP5 DUP2 MSTORE PUSH5 0x2432B93799 PUSH1 0xD9 SHL PUSH2 0x100 DUP5 ADD MSTORE DUP3 MSTORE PUSH1 0x3 PUSH1 0x20 DUP1 DUP5 ADD SWAP2 SWAP1 SWAP2 MSTORE DUP4 MLOAD DUP1 DUP4 ADD DUP6 MSTORE PUSH2 0x15E DUP2 MSTORE PUSH2 0x172 DUP2 DUP4 ADD MSTORE PUSH2 0x17C DUP2 DUP7 ADD MSTORE PUSH2 0x186 PUSH1 0x60 DUP3 DUP2 ADD SWAP2 SWAP1 SWAP2 MSTORE PUSH2 0x1A4 PUSH1 0x80 DUP4 DUP2 ADD SWAP2 SWAP1 SWAP2 MSTORE PUSH2 0x1AE DUP4 DUP11 ADD MSTORE PUSH2 0x1B8 DUP4 DUP13 ADD MSTORE DUP6 DUP8 ADD SWAP3 SWAP1 SWAP3 MSTORE DUP6 MLOAD DUP1 DUP6 ADD DUP8 MSTORE PUSH1 0x2 DUP1 DUP3 MSTORE PUSH1 0x4 DUP3 DUP7 ADD MSTORE DUP2 DUP9 ADD SWAP9 SWAP1 SWAP9 MSTORE DUP1 DUP3 ADD SWAP10 SWAP1 SWAP10 MSTORE PUSH1 0x8 DUP10 DUP4 ADD MSTORE PUSH1 0xA DUP10 DUP10 ADD MSTORE PUSH1 0xC DUP10 DUP12 ADD MSTORE DUP1 DUP6 ADD SWAP9 SWAP1 SWAP9 MSTORE DUP5 MLOAD SWAP3 DUP4 ADD DUP6 MSTORE PUSH2 0x20D DUP4 MSTORE PUSH2 0x217 DUP4 DUP4 ADD MSTORE PUSH2 0x221 SWAP5 DUP4 ADD SWAP5 SWAP1 SWAP5 MSTORE PUSH2 0x22B SWAP7 DUP3 ADD SWAP7 SWAP1 SWAP7 MSTORE PUSH2 0x235 DUP2 DUP5 ADD MSTORE PUSH2 0x23F DUP2 DUP7 ADD MSTORE PUSH2 0x258 DUP2 DUP9 ADD MSTORE SWAP2 DUP2 ADD SWAP2 SWAP1 SWAP2 MSTORE PUSH1 0x0 SWAP3 DUP2 ADD DUP4 SWAP1 MSTORE PUSH2 0x3E8 SWAP5 DUP2 ADD SWAP5 SWAP1 SWAP5 MSTORE PUSH1 0x1 SWAP1 SWAP2 MSTORE SWAP1 MSTORE DUP1 MLOAD PUSH32 0xE90B7BCEB6E7DF5418FB78D8EE546E97C83A08BBCCC01A0644D599CCD2A7C2E0 SWAP1 DUP2 SWAP1 PUSH3 0x34F SWAP1 DUP3 PUSH3 0x1789 JUMP JUMPDEST POP PUSH1 0x20 DUP3 ADD MLOAD PUSH1 0x1 DUP3 ADD SSTORE PUSH1 0x40 DUP3 ADD MLOAD PUSH3 0x371 SWAP1 PUSH1 0x2 DUP4 ADD SWAP1 PUSH1 0x7 PUSH3 0x15AF JUMP JUMPDEST POP PUSH1 0x60 DUP3 ADD MLOAD PUSH3 0x389 SWAP1 PUSH1 0x3 DUP4 ADD SWAP1 PUSH1 0x7 PUSH3 0x1647 JUMP JUMPDEST POP PUSH1 0x80 DUP3 ADD MLOAD PUSH3 0x3A1 SWAP1 PUSH1 0x4 DUP4 ADD SWAP1 PUSH1 0x7 PUSH3 0x15AF JUMP JUMPDEST POP PUSH1 0xA0 DUP3 DUP2 ADD MLOAD PUSH1 0x5 DUP1 DUP5 ADD SWAP2 SWAP1 SWAP2 SSTORE PUSH1 0xC0 SWAP4 DUP5 ADD MLOAD PUSH1 0x6 SWAP4 DUP5 ADD SSTORE PUSH1 0x40 DUP1 MLOAD PUSH2 0x120 DUP2 ADD DUP3 MSTORE PUSH1 0xE0 DUP1 DUP3 ADD SWAP4 DUP5 MSTORE PUSH5 0x4865726F33 PUSH1 0xD8 SHL PUSH2 0x100 DUP4 ADD MSTORE SWAP3 DUP2 MSTORE PUSH1 0x4 PUSH1 0x20 DUP1 DUP4 ADD DUP3 SWAP1 MSTORE DUP4 MLOAD DUP1 DUP7 ADD DUP6 MSTORE PUSH2 0x168 DUP2 MSTORE PUSH2 0x172 DUP2 DUP4 ADD MSTORE PUSH2 0x17C DUP2 DUP7 ADD MSTORE PUSH2 0x186 PUSH1 0x60 DUP3 DUP2 ADD SWAP2 SWAP1 SWAP2 MSTORE PUSH2 0x190 PUSH1 0x80 DUP4 DUP2 ADD SWAP2 SWAP1 SWAP2 MSTORE PUSH2 0x1A4 DUP4 DUP11 ADD MSTORE PUSH2 0x1C2 DUP4 DUP13 ADD MSTORE DUP6 DUP8 ADD SWAP3 SWAP1 SWAP3 MSTORE DUP6 MLOAD DUP1 DUP9 ADD DUP8 MSTORE SWAP4 DUP5 MSTORE DUP4 DUP4 ADD SWAP9 SWAP1 SWAP9 MSTORE PUSH1 0x8 DUP4 DUP7 ADD MSTORE PUSH1 0xA DUP4 DUP10 ADD MSTORE PUSH1 0xC DUP4 DUP3 ADD MSTORE PUSH1 0xE DUP4 DUP9 ADD MSTORE PUSH1 0x12 DUP4 DUP11 ADD MSTORE DUP8 DUP5 ADD SWAP3 SWAP1 SWAP3 MSTORE DUP4 MLOAD SWAP5 DUP6 ADD DUP5 MSTORE PUSH2 0x20B DUP6 MSTORE PUSH2 0x216 DUP6 DUP3 ADD MSTORE PUSH2 0x22C SWAP4 DUP6 ADD SWAP4 SWAP1 SWAP4 MSTORE PUSH2 0x240 SWAP6 DUP5 ADD SWAP6 SWAP1 SWAP6 MSTORE PUSH2 0x24B DUP4 DUP7 ADD MSTORE PUSH2 0x25A DUP4 DUP6 ADD MSTORE PUSH2 0x270 DUP4 DUP8 ADD MSTORE SWAP4 DUP5 ADD SWAP2 SWAP1 SWAP2 MSTORE PUSH1 0x0 SWAP2 DUP4 ADD DUP3 SWAP1 MSTORE PUSH2 0x9C4 SWAP4 DUP4 ADD SWAP4 SWAP1 SWAP4 MSTORE PUSH1 0x2 SWAP1 DUP2 SWAP1 MSTORE SWAP1 SWAP2 MSTORE DUP1 MLOAD PUSH32 0x679795A0195A1B76CDEBB7C51D74E058AEE92919B8C3389AF86EF24535E8A28C SWAP1 DUP2 SWAP1 PUSH3 0x4F9 SWAP1 DUP3 PUSH3 0x1789 JUMP JUMPDEST POP PUSH1 0x20 DUP3 ADD MLOAD PUSH1 0x1 DUP3 ADD SSTORE PUSH1 0x40 DUP3 ADD MLOAD PUSH3 0x51B SWAP1 PUSH1 0x2 DUP4 ADD SWAP1 PUSH1 0x7 PUSH3 0x15AF JUMP JUMPDEST POP PUSH1 0x60 DUP3 ADD MLOAD PUSH3 0x533 SWAP1 PUSH1 0x3 DUP4 ADD SWAP1 PUSH1 0x7 PUSH3 0x1647 JUMP JUMPDEST POP PUSH1 0x80 DUP3 ADD MLOAD PUSH3 0x54B SWAP1 PUSH1 0x4 DUP4 ADD SWAP1 PUSH1 0x7 PUSH3 0x15AF JUMP JUMPDEST POP PUSH1 0xA0 DUP3 DUP2 ADD MLOAD PUSH1 0x5 DUP1 DUP5 ADD SWAP2 SWAP1 SWAP2 SSTORE PUSH1 0xC0 SWAP4 DUP5 ADD MLOAD PUSH1 0x6 SWAP4 DUP5 ADD SSTORE PUSH1 0x40 DUP1 MLOAD PUSH2 0x120 DUP2 ADD DUP3 MSTORE PUSH1 0xE0 DUP1 DUP3 ADD SWAP4 DUP5 MSTORE PUSH5 0x121C995BCD PUSH1 0xDA SHL PUSH2 0x100 DUP4 ADD MSTORE SWAP3 DUP2 MSTORE PUSH1 0x20 DUP1 DUP3 ADD DUP7 SWAP1 MSTORE DUP3 MLOAD DUP1 DUP6 ADD DUP5 MSTORE PUSH2 0x190 DUP2 MSTORE PUSH2 0x1A4 DUP2 DUP4 ADD MSTORE PUSH2 0x1B8 DUP2 DUP6 ADD MSTORE PUSH2 0x1CC PUSH1 0x60 DUP3 DUP2 ADD SWAP2 SWAP1 SWAP2 MSTORE PUSH2 0x1E0 PUSH1 0x80 DUP4 DUP2 ADD SWAP2 SWAP1 SWAP2 MSTORE PUSH2 0x1F4 DUP4 DUP10 ADD MSTORE PUSH2 0x208 DUP4 DUP12 ADD MSTORE DUP5 DUP7 ADD SWAP3 SWAP1 SWAP3 MSTORE DUP5 MLOAD DUP1 DUP8 ADD DUP7 MSTORE PUSH1 0x1 DUP1 DUP3 MSTORE PUSH1 0x2 DUP3 DUP7 ADD DUP2 SWAP1 MSTORE PUSH1 0x4 DUP4 DUP10 ADD MSTORE DUP3 DUP5 ADD SWAP11 SWAP1 SWAP11 MSTORE PUSH1 0x8 DUP3 DUP6 ADD MSTORE PUSH1 0xA DUP3 DUP11 ADD MSTORE PUSH1 0xC DUP3 DUP13 ADD MSTORE DUP3 DUP7 ADD SWAP2 SWAP1 SWAP2 MSTORE DUP6 MLOAD SWAP7 DUP8 ADD DUP7 MSTORE PUSH2 0x1F6 DUP8 MSTORE PUSH2 0x201 DUP8 DUP6 ADD MSTORE PUSH2 0x20B SWAP6 DUP8 ADD SWAP6 SWAP1 SWAP6 MSTORE PUSH2 0x215 SWAP1 DUP7 ADD MSTORE PUSH2 0x21F DUP6 DUP3 ADD MSTORE PUSH2 0x229 DUP6 DUP8 ADD MSTORE PUSH2 0x233 DUP6 DUP10 ADD MSTORE DUP3 ADD SWAP4 SWAP1 SWAP4 MSTORE SWAP3 DUP4 ADD MSTORE PUSH2 0x3E8 SWAP4 DUP3 ADD SWAP4 SWAP1 SWAP4 MSTORE PUSH1 0x3 PUSH1 0x0 MSTORE SWAP2 MSTORE DUP1 MLOAD PUSH32 0x88601476D11616A71C5BE67555BD1DFF4B1CBF21533D2669B768B61518CFE1C3 SWAP1 DUP2 SWAP1 PUSH3 0x69B SWAP1 DUP3 PUSH3 0x1789 JUMP JUMPDEST POP PUSH1 0x20 DUP3 ADD MLOAD PUSH1 0x1 DUP3 ADD SSTORE PUSH1 0x40 DUP3 ADD MLOAD PUSH3 0x6BD SWAP1 PUSH1 0x2 DUP4 ADD SWAP1 PUSH1 0x7 PUSH3 0x15AF JUMP JUMPDEST POP PUSH1 0x60 DUP3 ADD MLOAD PUSH3 0x6D5 SWAP1 PUSH1 0x3 DUP4 ADD SWAP1 PUSH1 0x7 PUSH3 0x1647 JUMP JUMPDEST POP PUSH1 0x80 DUP3 ADD MLOAD PUSH3 0x6ED SWAP1 PUSH1 0x4 DUP4 ADD SWAP1 PUSH1 0x7 PUSH3 0x15AF JUMP JUMPDEST POP PUSH1 0xA0 DUP3 ADD MLOAD PUSH1 0x5 DUP3 ADD SSTORE PUSH1 0xC0 SWAP1 SWAP2 ADD MLOAD PUSH1 0x6 SWAP1 SWAP2 ADD SSTORE JUMP JUMPDEST PUSH1 0x40 DUP1 MLOAD PUSH2 0x140 DUP2 ADD DUP3 MSTORE PUSH1 0x0 DUP2 MSTORE PUSH1 0x1 PUSH1 0x20 DUP3 ADD DUP2 SWAP1 MSTORE PUSH1 0x5 SWAP3 DUP3 ADD SWAP3 SWAP1 SWAP3 MSTORE PUSH1 0x6 PUSH1 0x60 DUP3 ADD MSTORE PUSH1 0x7 PUSH1 0x80 DUP3 ADD MSTORE PUSH1 0x8 PUSH1 0xA0 DUP3 ADD MSTORE PUSH1 0x9 PUSH1 0xC0 DUP3 ADD MSTORE PUSH1 0xF PUSH1 0xE0 DUP3 ADD MSTORE PUSH1 0x10 PUSH2 0x100 DUP3 ADD MSTORE PUSH1 0x12 PUSH2 0x120 DUP3 ADD MSTORE PUSH3 0x768 SWAP2 SWAP1 PUSH1 0xA PUSH3 0x155A JUMP JUMPDEST POP PUSH1 0x40 DUP1 MLOAD PUSH2 0x1A0 DUP2 ADD DUP3 MSTORE PUSH1 0x1E PUSH2 0x120 DUP3 ADD DUP2 DUP2 MSTORE PUSH1 0x21 PUSH2 0x140 DUP5 ADD MSTORE PUSH1 0x23 PUSH2 0x160 DUP5 ADD DUP2 SWAP1 MSTORE PUSH1 0x28 PUSH2 0x180 DUP6 ADD DUP2 SWAP1 MSTORE SWAP2 DUP5 MSTORE PUSH2 0x3E8 PUSH1 0x20 DUP1 DUP7 ADD SWAP2 SWAP1 SWAP2 MSTORE PUSH2 0x9C4 DUP6 DUP8 ADD MSTORE DUP6 MLOAD PUSH1 0x80 DUP2 DUP2 ADD DUP9 MSTORE DUP4 DUP3 MSTORE DUP2 DUP4 ADD SWAP4 SWAP1 SWAP4 MSTORE DUP1 DUP8 ADD DUP5 SWAP1 MSTORE PUSH1 0x60 DUP2 DUP2 ADD SWAP5 SWAP1 SWAP5 MSTORE DUP4 DUP7 ADD MSTORE DUP2 DUP6 ADD SWAP4 SWAP1 SWAP4 MSTORE DUP5 MLOAD SWAP1 DUP2 ADD DUP6 MSTORE PUSH1 0x5A DUP1 DUP3 MSTORE DUP2 DUP5 ADD DUP2 SWAP1 MSTORE SWAP5 DUP2 ADD SWAP5 SWAP1 SWAP5 MSTORE PUSH1 0x78 SWAP1 DUP5 ADD MSTORE PUSH1 0xA0 DUP3 ADD SWAP3 SWAP1 SWAP3 MSTORE PUSH1 0x3 PUSH1 0xC0 DUP3 ADD DUP2 SWAP1 MSTORE PUSH1 0x0 PUSH1 0xE0 DUP4 ADD DUP2 SWAP1 MSTORE PUSH2 0x100 DUP4 ADD DUP2 SWAP1 MSTORE DUP1 MSTORE SWAP1 SWAP2 MSTORE DUP1 MLOAD PUSH32 0x3617319A054D772F909F7C479A2CEBE5066E836A939412E32403C99029B92EFF SWAP1 PUSH3 0x856 SWAP1 DUP3 SWAP1 PUSH1 0x4 PUSH3 0x1647 JUMP JUMPDEST POP PUSH1 0x20 DUP3 ADD MLOAD PUSH1 0x1 DUP3 ADD SSTORE PUSH1 0x40 DUP3 ADD MLOAD PUSH1 0x2 DUP3 ADD SSTORE PUSH1 0x60 DUP3 ADD MLOAD PUSH3 0x882 SWAP1 PUSH1 0x3 DUP4 ADD SWAP1 PUSH1 0x4 PUSH3 0x1647 JUMP JUMPDEST POP PUSH1 0x80 DUP3 ADD MLOAD DUP2 PUSH1 0x4 ADD SSTORE PUSH1 0xA0 DUP3 ADD MLOAD DUP2 PUSH1 0x5 ADD SWAP1 PUSH1 0x4 PUSH3 0x8A6 SWAP3 SWAP2 SWAP1 PUSH3 0x1647 JUMP JUMPDEST POP PUSH1 0xC0 DUP3 DUP2 ADD MLOAD PUSH1 0x6 DUP4 ADD SSTORE PUSH1 0xE0 DUP1 DUP5 ADD MLOAD PUSH1 0x7 DUP5 ADD SSTORE PUSH2 0x100 SWAP4 DUP5 ADD MLOAD PUSH1 0x8 SWAP1 SWAP4 ADD SWAP3 SWAP1 SWAP3 SSTORE PUSH1 0x40 DUP1 MLOAD PUSH2 0x1A0 DUP2 ADD DUP3 MSTORE PUSH1 0x14 PUSH2 0x120 DUP3 ADD SWAP1 DUP2 MSTORE PUSH1 0x16 PUSH2 0x140 DUP4 ADD MSTORE PUSH1 0x19 PUSH2 0x160 DUP4 ADD DUP2 SWAP1 MSTORE PUSH1 0x1E PUSH2 0x180 DUP5 ADD MSTORE SWAP1 DUP3 MSTORE PUSH2 0x3E8 PUSH1 0x20 DUP1 DUP5 ADD DUP3 SWAP1 MSTORE PUSH2 0x9C4 DUP5 DUP7 ADD MSTORE DUP5 MLOAD PUSH1 0x80 DUP2 DUP2 ADD DUP8 MSTORE PUSH1 0x28 DUP1 DUP4 MSTORE DUP3 DUP5 ADD MSTORE PUSH1 0x2D DUP3 DUP9 ADD MSTORE PUSH1 0x32 PUSH1 0x60 DUP4 DUP2 ADD SWAP2 SWAP1 SWAP2 MSTORE DUP1 DUP8 ADD SWAP3 SWAP1 SWAP3 MSTORE DUP1 DUP7 ADD SWAP5 SWAP1 SWAP5 MSTORE DUP6 MLOAD SWAP4 DUP5 ADD DUP7 MSTORE PUSH1 0x4B DUP1 DUP6 MSTORE DUP5 DUP4 ADD MSTORE PUSH1 0x64 SWAP6 DUP5 ADD DUP7 SWAP1 MSTORE DUP4 ADD SWAP5 SWAP1 SWAP5 MSTORE PUSH1 0xA0 DUP4 ADD SWAP2 SWAP1 SWAP2 MSTORE PUSH1 0x2 SWAP4 DUP3 ADD SWAP4 SWAP1 SWAP4 MSTORE PUSH1 0x0 SWAP4 DUP2 ADD DUP5 SWAP1 MSTORE SWAP4 DUP5 ADD SWAP2 SWAP1 SWAP2 MSTORE PUSH1 0x1 SWAP1 SWAP2 MSTORE PUSH1 0x3 SWAP1 MSTORE DUP1 MLOAD PUSH32 0xA15BC60C955C405D20D9149C709E2460F1C2D9A497496A7F46004D1772C3054C SWAP1 PUSH3 0x9BC SWAP1 DUP3 SWAP1 PUSH1 0x4 PUSH3 0x1647 JUMP JUMPDEST POP PUSH1 0x20 DUP3 ADD MLOAD PUSH1 0x1 DUP3 ADD SSTORE PUSH1 0x40 DUP3 ADD MLOAD PUSH1 0x2 DUP3 ADD SSTORE PUSH1 0x60 DUP3 ADD MLOAD PUSH3 0x9E8 SWAP1 PUSH1 0x3 DUP4 ADD SWAP1 PUSH1 0x4 PUSH3 0x1647 JUMP JUMPDEST POP PUSH1 0x80 DUP3 ADD MLOAD DUP2 PUSH1 0x4 ADD SSTORE PUSH1 0xA0 DUP3 ADD MLOAD DUP2 PUSH1 0x5 ADD SWAP1 PUSH1 0x4 PUSH3 0xA0C SWAP3 SWAP2 SWAP1 PUSH3 0x1647 JUMP JUMPDEST POP PUSH1 0xC0 DUP3 DUP2 ADD MLOAD PUSH1 0x6 DUP4 ADD SSTORE PUSH1 0xE0 DUP1 DUP5 ADD MLOAD PUSH1 0x7 DUP5 ADD SSTORE PUSH2 0x100 SWAP4 DUP5 ADD MLOAD PUSH1 0x8 SWAP1 SWAP4 ADD SWAP3 SWAP1 SWAP3 SSTORE PUSH1 0x40 DUP1 MLOAD PUSH2 0x1A0 DUP2 ADD DUP3 MSTORE PUSH1 0x8C PUSH2 0x120 DUP3 ADD SWAP1 DUP2 MSTORE PUSH1 0xA0 PUSH2 0x140 DUP4 ADD DUP2 SWAP1 MSTORE PUSH1 0xB4 PUSH2 0x160 DUP5 ADD MSTORE PUSH1 0xC8 PUSH2 0x180 DUP5 ADD MSTORE SWAP1 DUP3 MSTORE PUSH2 0x3E8 PUSH1 0x20 DUP1 DUP5 ADD SWAP2 SWAP1 SWAP2 MSTORE PUSH2 0x7D0 DUP4 DUP6 ADD MSTORE DUP4 MLOAD PUSH1 0x80 DUP2 DUP2 ADD DUP7 MSTORE PUSH1 0x2 DUP1 DUP4 MSTORE DUP3 DUP5 ADD DUP2 SWAP1 MSTORE DUP3 DUP8 ADD DUP2 SWAP1 MSTORE PUSH1 0x60 DUP4 DUP2 ADD DUP3 SWAP1 MSTORE DUP1 DUP8 ADD SWAP4 SWAP1 SWAP4 MSTORE DUP2 DUP7 ADD MSTORE DUP6 MLOAD SWAP1 DUP2 ADD DUP7 MSTORE PUSH1 0xA DUP2 MSTORE PUSH1 0xC DUP2 DUP5 ADD MSTORE PUSH1 0xE SWAP6 DUP2 ADD SWAP6 SWAP1 SWAP6 MSTORE PUSH1 0x10 SWAP1 DUP6 ADD MSTORE SWAP1 DUP3 ADD SWAP3 SWAP1 SWAP3 MSTORE PUSH1 0x3 SWAP3 DUP2 ADD DUP4 SWAP1 MSTORE PUSH1 0x0 SWAP4 DUP2 ADD DUP5 SWAP1 MSTORE PUSH2 0x5DC SWAP5 DUP2 ADD SWAP5 SWAP1 SWAP5 MSTORE PUSH1 0x5 SWAP1 SWAP3 MSTORE SWAP1 MSTORE DUP1 MLOAD PUSH32 0x405AAD32E1ADBAC89BB7F176E338B8FC6E994CA210C9BB7BDCA249B465942250 SWAP1 PUSH3 0xB20 SWAP1 DUP3 SWAP1 PUSH1 0x4 PUSH3 0x1647 JUMP JUMPDEST POP PUSH1 0x20 DUP3 ADD MLOAD PUSH1 0x1 DUP3 ADD SSTORE PUSH1 0x40 DUP3 ADD MLOAD PUSH1 0x2 DUP3 ADD SSTORE PUSH1 0x60 DUP3 ADD MLOAD PUSH3 0xB4C SWAP1 PUSH1 0x3 DUP4 ADD SWAP1 PUSH1 0x4 PUSH3 0x1647 JUMP JUMPDEST POP PUSH1 0x80 DUP3 ADD MLOAD DUP2 PUSH1 0x4 ADD SSTORE PUSH1 0xA0 DUP3 ADD MLOAD DUP2 PUSH1 0x5 ADD SWAP1 PUSH1 0x4 PUSH3 0xB70 SWAP3 SWAP2 SWAP1 PUSH3 0x1647 JUMP JUMPDEST POP PUSH1 0xC0 DUP3 DUP2 ADD MLOAD PUSH1 0x6 DUP1 DUP5 ADD SWAP2 SWAP1 SWAP2 SSTORE PUSH1 0xE0 DUP1 DUP6 ADD MLOAD PUSH1 0x7 DUP6 ADD SSTORE PUSH2 0x100 SWAP5 DUP6 ADD MLOAD PUSH1 0x8 SWAP1 SWAP5 ADD SWAP4 SWAP1 SWAP4 SSTORE PUSH1 0x40 DUP1 MLOAD PUSH2 0x1A0 DUP2 ADD DUP3 MSTORE PUSH1 0x28 PUSH2 0x120 DUP3 ADD SWAP1 DUP2 MSTORE PUSH1 0x2D PUSH2 0x140 DUP4 ADD MSTORE PUSH1 0x30 PUSH2 0x160 DUP4 ADD MSTORE PUSH1 0x32 PUSH2 0x180 DUP4 ADD MSTORE DUP2 MSTORE PUSH2 0x3E8 PUSH1 0x20 DUP1 DUP4 ADD SWAP2 SWAP1 SWAP2 MSTORE PUSH2 0x7D0 DUP3 DUP5 ADD DUP2 SWAP1 MSTORE DUP4 MLOAD PUSH1 0x80 DUP2 DUP2 ADD DUP7 MSTORE PUSH1 0x3 DUP1 DUP4 MSTORE PUSH1 0x4 DUP4 DUP7 ADD DUP2 SWAP1 MSTORE PUSH1 0x5 DUP5 DUP10 ADD DUP2 SWAP1 MSTORE PUSH1 0x60 DUP6 DUP2 ADD SWAP2 SWAP1 SWAP2 MSTORE DUP1 DUP9 ADD SWAP5 SWAP1 SWAP5 MSTORE PUSH1 0x14 DUP4 DUP9 ADD MSTORE DUP8 MLOAD SWAP3 DUP4 ADD DUP9 MSTORE PUSH1 0x3C DUP4 MSTORE PUSH1 0x50 DUP4 DUP8 ADD MSTORE PUSH1 0x64 SWAP8 DUP4 ADD SWAP8 SWAP1 SWAP8 MSTORE PUSH1 0x78 SWAP3 DUP3 ADD SWAP3 SWAP1 SWAP3 MSTORE PUSH1 0xA0 DUP6 ADD MSTORE SWAP6 DUP4 ADD DUP7 SWAP1 MSTORE PUSH1 0x0 SWAP7 DUP4 ADD DUP8 SWAP1 MSTORE SWAP7 DUP3 ADD SWAP7 SWAP1 SWAP7 MSTORE SWAP2 SWAP1 SWAP4 MSTORE SWAP3 MSTORE DUP2 MLOAD PUSH32 0xC69056F16CBAA3C616B828E333AB7D3A32310765507F8F58359E99EBB7A885F3 SWAP2 PUSH3 0xC87 SWAP2 DUP4 SWAP2 PUSH3 0x1647 JUMP JUMPDEST POP PUSH1 0x20 DUP3 ADD MLOAD PUSH1 0x1 DUP3 ADD SSTORE PUSH1 0x40 DUP3 ADD MLOAD PUSH1 0x2 DUP3 ADD SSTORE PUSH1 0x60 DUP3 ADD MLOAD PUSH3 0xCB3 SWAP1 PUSH1 0x3 DUP4 ADD SWAP1 PUSH1 0x4 PUSH3 0x1647 JUMP JUMPDEST POP PUSH1 0x80 DUP3 ADD MLOAD DUP2 PUSH1 0x4 ADD SSTORE PUSH1 0xA0 DUP3 ADD MLOAD DUP2 PUSH1 0x5 ADD SWAP1 PUSH1 0x4 PUSH3 0xCD7 SWAP3 SWAP2 SWAP1 PUSH3 0x1647 JUMP JUMPDEST POP PUSH1 0xC0 DUP3 DUP2 ADD MLOAD PUSH1 0x6 DUP4 ADD SSTORE PUSH1 0xE0 DUP1 DUP5 ADD MLOAD PUSH1 0x7 DUP1 DUP6 ADD SWAP2 SWAP1 SWAP2 SSTORE PUSH2 0x100 SWAP5 DUP6 ADD MLOAD PUSH1 0x8 SWAP5 DUP6 ADD SSTORE PUSH1 0x40 DUP1 MLOAD PUSH2 0x1A0 DUP2 ADD DUP3 MSTORE PUSH1 0x28 PUSH2 0x120 DUP3 ADD DUP2 DUP2 MSTORE PUSH1 0x2D PUSH2 0x140 DUP5 ADD MSTORE PUSH1 0x32 PUSH2 0x160 DUP5 ADD MSTORE PUSH1 0x3C PUSH2 0x180 DUP5 ADD MSTORE DUP3 MSTORE PUSH2 0x3E8 PUSH1 0x20 DUP1 DUP5 ADD SWAP2 SWAP1 SWAP2 MSTORE PUSH2 0x7D0 DUP4 DUP6 ADD MSTORE DUP4 MLOAD PUSH1 0x80 DUP2 DUP2 ADD DUP7 MSTORE PUSH1 0x14 DUP3 MSTORE PUSH1 0x19 DUP3 DUP5 ADD DUP2 SWAP1 MSTORE DUP3 DUP8 ADD MSTORE PUSH1 0x60 DUP3 DUP2 ADD DUP6 SWAP1 MSTORE DUP1 DUP7 ADD SWAP3 SWAP1 SWAP3 MSTORE DUP1 DUP6 ADD SWAP10 SWAP1 SWAP10 MSTORE DUP5 MLOAD SWAP9 DUP10 ADD DUP6 MSTORE PUSH1 0x18 DUP10 MSTORE DUP9 DUP3 ADD DUP3 SWAP1 MSTORE SWAP4 DUP9 ADD SWAP2 SWAP1 SWAP2 MSTORE PUSH1 0x30 SWAP3 DUP8 ADD SWAP3 SWAP1 SWAP3 MSTORE PUSH1 0xA0 DUP2 ADD SWAP6 SWAP1 SWAP6 MSTORE PUSH1 0x2 SWAP4 DUP6 ADD SWAP4 SWAP1 SWAP4 MSTORE PUSH1 0x0 SWAP2 DUP5 ADD DUP3 SWAP1 MSTORE PUSH2 0x1F4 SWAP5 DUP5 ADD SWAP5 SWAP1 SWAP5 MSTORE SWAP3 SWAP1 SWAP3 MSTORE PUSH1 0x3 SWAP1 SWAP2 MSTORE DUP1 MLOAD PUSH32 0xF2C49132ED1CEE2A7E75BDE50D332A2F81F1D01E5456D8A19D1DF09BD561DBD2 SWAP1 PUSH3 0xDF0 SWAP1 DUP3 SWAP1 PUSH1 0x4 PUSH3 0x1647 JUMP JUMPDEST POP PUSH1 0x20 DUP3 ADD MLOAD PUSH1 0x1 DUP3 ADD SSTORE PUSH1 0x40 DUP3 ADD MLOAD PUSH1 0x2 DUP3 ADD SSTORE PUSH1 0x60 DUP3 ADD MLOAD PUSH3 0xE1C SWAP1 PUSH1 0x3 DUP4 ADD SWAP1 PUSH1 0x4 PUSH3 0x1647 JUMP JUMPDEST POP PUSH1 0x80 DUP3 ADD MLOAD DUP2 PUSH1 0x4 ADD SSTORE PUSH1 0xA0 DUP3 ADD MLOAD DUP2 PUSH1 0x5 ADD SWAP1 PUSH1 0x4 PUSH3 0xE40 SWAP3 SWAP2 SWAP1 PUSH3 0x1647 JUMP JUMPDEST POP PUSH1 0xC0 DUP3 DUP2 ADD MLOAD PUSH1 0x6 DUP4 ADD SSTORE PUSH1 0xE0 DUP1 DUP5 ADD MLOAD PUSH1 0x7 DUP5 ADD SSTORE PUSH2 0x100 SWAP4 DUP5 ADD MLOAD PUSH1 0x8 SWAP4 DUP5 ADD SSTORE PUSH1 0x40 DUP1 MLOAD PUSH2 0x1A0 DUP2 ADD DUP3 MSTORE PUSH1 0x14 PUSH2 0x120 DUP3 ADD SWAP1 DUP2 MSTORE PUSH1 0x19 PUSH2 0x140 DUP4 ADD MSTORE PUSH1 0x1E PUSH2 0x160 DUP4 ADD MSTORE PUSH1 0x28 PUSH2 0x180 DUP4 ADD MSTORE DUP2 MSTORE PUSH2 0x5DC PUSH1 0x20 DUP1 DUP4 ADD SWAP2 SWAP1 SWAP2 MSTORE PUSH2 0x9C4 DUP3 DUP5 ADD MSTORE DUP3 MLOAD PUSH1 0x80 DUP2 DUP2 ADD DUP6 MSTORE PUSH1 0x1 DUP1 DUP4 MSTORE DUP3 DUP5 ADD MSTORE PUSH1 0x2 DUP3 DUP7 ADD DUP2 SWAP1 MSTORE PUSH1 0x60 DUP4 DUP2 ADD DUP3 SWAP1 MSTORE DUP1 DUP7 ADD SWAP4 SWAP1 SWAP4 MSTORE DUP2 DUP6 ADD MSTORE DUP5 MLOAD SWAP1 DUP2 ADD DUP6 MSTORE DUP8 DUP2 MSTORE PUSH1 0xA DUP2 DUP5 ADD MSTORE PUSH1 0xC SWAP5 DUP2 ADD SWAP5 SWAP1 SWAP5 MSTORE PUSH1 0xE SWAP1 DUP5 ADD MSTORE PUSH1 0xA0 DUP3 ADD SWAP3 SWAP1 SWAP3 MSTORE PUSH1 0x3 SWAP4 DUP2 ADD DUP5 SWAP1 MSTORE PUSH1 0x0 SWAP3 DUP2 ADD DUP4 SWAP1 MSTORE PUSH2 0x1388 SWAP6 DUP2 ADD SWAP6 SWAP1 SWAP6 MSTORE SWAP3 SWAP1 MSTORE SWAP1 MSTORE DUP1 MLOAD PUSH32 0x85AAA47B6DC46495BB8824FAD4583769726FEA36EFD831A35556690B830A8FBE SWAP1 PUSH3 0xF4C SWAP1 DUP3 SWAP1 PUSH1 0x4 PUSH3 0x1647 JUMP JUMPDEST POP PUSH1 0x20 DUP3 ADD MLOAD PUSH1 0x1 DUP3 ADD SSTORE PUSH1 0x40 DUP3 ADD MLOAD PUSH1 0x2 DUP3 ADD SSTORE PUSH1 0x60 DUP3 ADD MLOAD PUSH3 0xF78 SWAP1 PUSH1 0x3 DUP4 ADD SWAP1 PUSH1 0x4 PUSH3 0x1647 JUMP JUMPDEST POP PUSH1 0x80 DUP3 ADD MLOAD DUP2 PUSH1 0x4 ADD SSTORE PUSH1 0xA0 DUP3 ADD MLOAD DUP2 PUSH1 0x5 ADD SWAP1 PUSH1 0x4 PUSH3 0xF9C SWAP3 SWAP2 SWAP1 PUSH3 0x1647 JUMP JUMPDEST POP PUSH1 0xC0 DUP3 DUP2 ADD MLOAD PUSH1 0x6 DUP4 ADD SSTORE PUSH1 0xE0 DUP1 DUP5 ADD MLOAD PUSH1 0x7 DUP5 ADD SSTORE PUSH2 0x100 SWAP4 DUP5 ADD MLOAD PUSH1 0x8 SWAP1 SWAP4 ADD SWAP3 SWAP1 SWAP3 SSTORE PUSH1 0x40 DUP1 MLOAD PUSH2 0x1A0 DUP2 ADD DUP3 MSTORE PUSH1 0x64 PUSH2 0x120 DUP3 ADD SWAP1 DUP2 MSTORE PUSH1 0x78 PUSH2 0x140 DUP4 ADD MSTORE PUSH1 0x82 PUSH2 0x160 DUP4 ADD MSTORE PUSH1 0x8C PUSH2 0x180 DUP4 ADD MSTORE DUP2 MSTORE PUSH2 0x320 PUSH1 0x20 DUP1 DUP4 ADD SWAP2 SWAP1 SWAP2 MSTORE PUSH2 0x7D0 DUP3 DUP5 ADD MSTORE DUP3 MLOAD PUSH1 0x80 DUP2 DUP2 ADD DUP6 MSTORE PUSH1 0x14 DUP3 MSTORE PUSH1 0x19 DUP3 DUP5 ADD MSTORE PUSH1 0x28 DUP3 DUP7 ADD DUP2 SWAP1 MSTORE PUSH1 0x60 DUP4 DUP2 ADD SWAP2 SWAP1 SWAP2 MSTORE DUP1 DUP6 ADD SWAP3 SWAP1 SWAP3 MSTORE PUSH1 0x3 DUP2 DUP6 ADD DUP2 SWAP1 MSTORE DUP6 MLOAD SWAP2 DUP3 ADD DUP7 MSTORE PUSH1 0xF DUP3 MSTORE PUSH1 0x12 DUP3 DUP6 ADD MSTORE PUSH1 0x15 SWAP6 DUP3 ADD SWAP6 SWAP1 SWAP6 MSTORE PUSH1 0x18 SWAP2 DUP2 ADD SWAP2 SWAP1 SWAP2 MSTORE PUSH1 0xA0 DUP4 ADD MSTORE SWAP3 DUP2 ADD DUP3 SWAP1 MSTORE PUSH1 0x1 SWAP4 DUP2 ADD SWAP4 SWAP1 SWAP4 MSTORE PUSH2 0x1F4 SWAP4 DUP4 ADD SWAP4 SWAP1 SWAP4 MSTORE PUSH1 0x9 PUSH1 0x0 MSTORE SWAP2 SWAP1 SWAP2 MSTORE DUP1 MLOAD PUSH32 0x8A8DC4E5242EA8B1AB1D60606DAE757E6C2CCA9F92A2CCED9F72C19960BCB458 SWAP1 PUSH3 0x10B5 SWAP1 DUP3 SWAP1 PUSH1 0x4 PUSH3 0x1647 JUMP JUMPDEST POP PUSH1 0x20 DUP3 ADD MLOAD PUSH1 0x1 DUP3 ADD SSTORE PUSH1 0x40 DUP3 ADD MLOAD PUSH1 0x2 DUP3 ADD SSTORE PUSH1 0x60 DUP3 ADD MLOAD PUSH3 0x10E1 SWAP1 PUSH1 0x3 DUP4 ADD SWAP1 PUSH1 0x4 PUSH3 0x1647 JUMP JUMPDEST POP PUSH1 0x80 DUP3 ADD MLOAD DUP2 PUSH1 0x4 ADD SSTORE PUSH1 0xA0 DUP3 ADD MLOAD DUP2 PUSH1 0x5 ADD SWAP1 PUSH1 0x4 PUSH3 0x1105 SWAP3 SWAP2 SWAP1 PUSH3 0x1647 JUMP JUMPDEST POP PUSH1 0xC0 DUP3 DUP2 ADD MLOAD PUSH1 0x6 DUP4 ADD SSTORE PUSH1 0xE0 DUP1 DUP5 ADD MLOAD PUSH1 0x7 DUP5 ADD SSTORE PUSH2 0x100 SWAP4 DUP5 ADD MLOAD PUSH1 0x8 SWAP1 SWAP4 ADD SWAP3 SWAP1 SWAP3 SSTORE PUSH1 0x40 DUP1 MLOAD PUSH2 0x1A0 DUP2 ADD DUP3 MSTORE PUSH1 0x6E PUSH2 0x120 DUP3 ADD SWAP1 DUP2 MSTORE PUSH1 0x96 PUSH2 0x140 DUP4 ADD MSTORE PUSH1 0xC8 PUSH2 0x160 DUP4 ADD MSTORE PUSH1 0xFA PUSH2 0x180 DUP4 ADD MSTORE DUP2 MSTORE PUSH2 0x7D0 PUSH1 0x20 DUP1 DUP4 ADD SWAP2 SWAP1 SWAP2 MSTORE PUSH2 0xBB8 DUP3 DUP5 ADD MSTORE DUP3 MLOAD PUSH1 0x80 DUP2 DUP2 ADD DUP6 MSTORE PUSH1 0x1 DUP1 DUP4 MSTORE DUP3 DUP5 ADD DUP2 SWAP1 MSTORE DUP3 DUP7 ADD DUP2 SWAP1 MSTORE PUSH1 0x2 PUSH1 0x60 DUP5 DUP2 ADD SWAP2 SWAP1 SWAP2 MSTORE DUP1 DUP7 ADD SWAP4 SWAP1 SWAP4 MSTORE DUP2 DUP6 ADD DUP2 SWAP1 MSTORE DUP6 MLOAD SWAP2 DUP3 ADD DUP7 MSTORE PUSH1 0xB DUP3 MSTORE PUSH1 0xC DUP3 DUP6 ADD MSTORE PUSH1 0xD SWAP6 DUP3 ADD SWAP6 SWAP1 SWAP6 MSTORE PUSH1 0xF SWAP2 DUP2 ADD DUP3 SWAP1 MSTORE PUSH1 0xA0 DUP5 ADD MSTORE PUSH1 0x3 SWAP5 DUP4 ADD DUP6 SWAP1 MSTORE SWAP5 DUP3 ADD SWAP3 SWAP1 SWAP3 MSTORE PUSH2 0x1F4 SWAP5 DUP2 ADD SWAP5 SWAP1 SWAP5 MSTORE PUSH1 0x0 SWAP3 SWAP1 SWAP3 MSTORE SWAP1 MSTORE DUP1 MLOAD PUSH32 0xF60B7F6A315EC68A6AC240E69DCA53652B38627F709A2CAA217D9E18AF4D7A60 SWAP1 PUSH3 0x121B SWAP1 DUP3 SWAP1 PUSH1 0x4 PUSH3 0x1647 JUMP JUMPDEST POP PUSH1 0x20 DUP3 ADD MLOAD PUSH1 0x1 DUP3 ADD SSTORE PUSH1 0x40 DUP3 ADD MLOAD PUSH1 0x2 DUP3 ADD SSTORE PUSH1 0x60 DUP3 ADD MLOAD PUSH3 0x1247 SWAP1 PUSH1 0x3 DUP4 ADD SWAP1 PUSH1 0x4 PUSH3 0x1647 JUMP JUMPDEST POP PUSH1 0x80 DUP3 ADD MLOAD DUP2 PUSH1 0x4 ADD SSTORE PUSH1 0xA0 DUP3 ADD MLOAD DUP2 PUSH1 0x5 ADD SWAP1 PUSH1 0x4 PUSH3 0x126B SWAP3 SWAP2 SWAP1 PUSH3 0x1647 JUMP JUMPDEST POP PUSH1 0xC0 DUP3 DUP2 ADD MLOAD PUSH1 0x6 DUP4 ADD SSTORE PUSH1 0xE0 DUP1 DUP5 ADD MLOAD PUSH1 0x7 DUP5 ADD SSTORE PUSH2 0x100 SWAP4 DUP5 ADD MLOAD PUSH1 0x8 SWAP1 SWAP4 ADD SWAP3 SWAP1 SWAP3 SSTORE PUSH1 0x40 DUP1 MLOAD PUSH2 0x1A0 DUP2 ADD DUP3 MSTORE PUSH1 0x23 PUSH2 0x120 DUP3 ADD SWAP1 DUP2 MSTORE PUSH1 0x28 PUSH2 0x140 DUP4 ADD MSTORE PUSH1 0x2D PUSH2 0x160 DUP4 ADD DUP2 SWAP1 MSTORE PUSH1 0x32 PUSH2 0x180 DUP5 ADD DUP2 SWAP1 MSTORE SWAP2 DUP4 MSTORE PUSH2 0x3E8 PUSH1 0x20 DUP1 DUP6 ADD SWAP2 SWAP1 SWAP2 MSTORE PUSH2 0x7D0 DUP5 DUP7 ADD MSTORE DUP5 MLOAD PUSH1 0x80 DUP2 DUP2 ADD DUP8 MSTORE PUSH1 0x5 DUP1 DUP4 MSTORE DUP3 DUP5 ADD DUP2 SWAP1 MSTORE DUP3 DUP9 ADD DUP2 SWAP1 MSTORE PUSH1 0x60 DUP4 DUP2 ADD SWAP2 SWAP1 SWAP2 MSTORE DUP1 DUP8 ADD SWAP3 SWAP1 SWAP3 MSTORE PUSH1 0xF DUP2 DUP8 ADD MSTORE DUP7 MLOAD SWAP1 DUP2 ADD DUP8 MSTORE SWAP3 DUP4 MSTORE DUP3 DUP3 ADD SWAP4 SWAP1 SWAP4 MSTORE PUSH1 0x4B SWAP5 DUP3 ADD SWAP5 SWAP1 SWAP5 MSTORE PUSH1 0x5A SWAP2 DUP2 ADD SWAP2 SWAP1 SWAP2 MSTORE PUSH1 0xA0 DUP3 ADD MSTORE PUSH1 0x3 SWAP3 DUP2 ADD DUP4 SWAP1 MSTORE PUSH1 0x0 SWAP4 DUP2 ADD DUP5 SWAP1 MSTORE PUSH2 0xBB8 SWAP5 DUP2 ADD SWAP5 SWAP1 SWAP5 MSTORE PUSH1 0x10 SWAP1 SWAP3 MSTORE SWAP1 MSTORE DUP1 MLOAD PUSH32 0x47D4745E02B343689A5E7AC121D2A352B7A15C10328A8759FD7D4CF0999002BB SWAP1 PUSH3 0x1385 SWAP1 DUP3 SWAP1 PUSH1 0x4 PUSH3 0x1647 JUMP JUMPDEST POP PUSH1 0x20 DUP3 ADD MLOAD PUSH1 0x1 DUP3 ADD SSTORE PUSH1 0x40 DUP3 ADD MLOAD PUSH1 0x2 DUP3 ADD SSTORE PUSH1 0x60 DUP3 ADD MLOAD PUSH3 0x13B1 SWAP1 PUSH1 0x3 DUP4 ADD SWAP1 PUSH1 0x4 PUSH3 0x1647 JUMP JUMPDEST POP PUSH1 0x80 DUP3 ADD MLOAD DUP2 PUSH1 0x4 ADD SSTORE PUSH1 0xA0 DUP3 ADD MLOAD DUP2 PUSH1 0x5 ADD SWAP1 PUSH1 0x4 PUSH3 0x13D5 SWAP3 SWAP2 SWAP1 PUSH3 0x1647 JUMP JUMPDEST POP PUSH1 0xC0 DUP3 DUP2 ADD MLOAD PUSH1 0x6 DUP4 ADD SSTORE PUSH1 0xE0 DUP1 DUP5 ADD MLOAD PUSH1 0x7 DUP5 ADD SSTORE PUSH2 0x100 SWAP4 DUP5 ADD MLOAD PUSH1 0x8 SWAP1 SWAP4 ADD SWAP3 SWAP1 SWAP3 SSTORE PUSH1 0x40 DUP1 MLOAD PUSH2 0x1A0 DUP2 ADD DUP3 MSTORE PUSH1 0x1E PUSH2 0x120 DUP3 ADD SWAP1 DUP2 MSTORE PUSH1 0x23 PUSH2 0x140 DUP4 ADD MSTORE PUSH1 0x28 PUSH2 0x160 DUP4 ADD MSTORE PUSH1 0x2D PUSH2 0x180 DUP4 ADD MSTORE DUP2 MSTORE PUSH2 0x3E8 PUSH1 0x20 DUP1 DUP4 ADD DUP3 SWAP1 MSTORE PUSH2 0x9C4 DUP4 DUP6 ADD MSTORE DUP4 MLOAD PUSH1 0x80 DUP2 DUP2 ADD DUP7 MSTORE PUSH1 0x9 DUP1 DUP4 MSTORE DUP3 DUP5 ADD DUP2 SWAP1 MSTORE DUP3 DUP8 ADD DUP2 SWAP1 MSTORE PUSH1 0x60 DUP4 DUP2 ADD SWAP2 SWAP1 SWAP2 MSTORE DUP1 DUP7 ADD SWAP3 SWAP1 SWAP3 MSTORE PUSH1 0x32 DUP2 DUP7 ADD MSTORE DUP6 MLOAD SWAP1 DUP2 ADD DUP7 MSTORE PUSH1 0x96 DUP1 DUP3 MSTORE DUP2 DUP5 ADD MSTORE PUSH1 0xC8 SWAP6 DUP2 ADD SWAP6 SWAP1 SWAP6 MSTORE PUSH1 0xFA SWAP1 DUP6 ADD MSTORE PUSH1 0xA0 DUP4 ADD SWAP4 SWAP1 SWAP4 MSTORE PUSH1 0x3 SWAP4 DUP3 ADD DUP5 SWAP1 MSTORE PUSH1 0x1 SWAP5 DUP3 ADD SWAP5 SWAP1 SWAP5 MSTORE SWAP4 DUP5 ADD SWAP3 SWAP1 SWAP3 MSTORE PUSH1 0x12 PUSH1 0x0 MSTORE SWAP1 MSTORE DUP1 MLOAD PUSH32 0x6A2B6BFFACA788160F671FA62D34758B717F75A90AD5A468757C50D61F33C443 SWAP1 PUSH3 0x14E6 SWAP1 DUP3 SWAP1 PUSH1 0x4 PUSH3 0x1647 JUMP JUMPDEST POP PUSH1 0x20 DUP3 ADD MLOAD PUSH1 0x1 DUP3 ADD SSTORE PUSH1 0x40 DUP3 ADD MLOAD PUSH1 0x2 DUP3 ADD SSTORE PUSH1 0x60 DUP3 ADD MLOAD PUSH3 0x1512 SWAP1 PUSH1 0x3 DUP4 ADD SWAP1 PUSH1 0x4 PUSH3 0x1647 JUMP JUMPDEST POP PUSH1 0x80 DUP3 ADD MLOAD DUP2 PUSH1 0x4 ADD SSTORE PUSH1 0xA0 DUP3 ADD MLOAD DUP2 PUSH1 0x5 ADD SWAP1 PUSH1 0x4 PUSH3 0x1536 SWAP3 SWAP2 SWAP1 PUSH3 0x1647 JUMP JUMPDEST POP PUSH1 0xC0 DUP3 ADD MLOAD PUSH1 0x6 DUP3 ADD SSTORE PUSH1 0xE0 DUP3 ADD MLOAD PUSH1 0x7 DUP3 ADD SSTORE PUSH2 0x100 SWAP1 SWAP2 ADD MLOAD PUSH1 0x8 SWAP1 SWAP2 ADD SSTORE JUMP JUMPDEST DUP3 DUP1 SLOAD DUP3 DUP3 SSTORE SWAP1 PUSH1 0x0 MSTORE PUSH1 0x20 PUSH1 0x0 KECCAK256 SWAP1 DUP2 ADD SWAP3 DUP3 ISZERO PUSH3 0x159D JUMPI SWAP2 PUSH1 0x20 MUL DUP3 ADD JUMPDEST DUP3 DUP2 GT ISZERO PUSH3 0x159D JUMPI DUP3 MLOAD DUP3 SWAP1 PUSH1 0xFF AND SWAP1 SSTORE SWAP2 PUSH1 0x20 ADD SWAP2 SWAP1 PUSH1 0x1 ADD SWAP1 PUSH3 0x157B JUMP JUMPDEST POP PUSH3 0x15AB SWAP3 SWAP2 POP PUSH3 0x16CD JUMP JUMPDEST POP SWAP1 JUMP JUMPDEST PUSH1 0x1 DUP4 ADD SWAP2 DUP4 SWAP1 DUP3 ISZERO PUSH3 0x159D JUMPI SWAP2 PUSH1 0x20 MUL DUP3 ADD PUSH1 0x0 JUMPDEST DUP4 DUP3 GT ISZERO PUSH3 0x1608 JUMPI DUP4 MLOAD DUP4 DUP3 PUSH2 0x100 EXP DUP2 SLOAD DUP2 PUSH2 0xFFFF MUL NOT AND SWAP1 DUP4 PUSH2 0xFFFF AND MUL OR SWAP1 SSTORE POP SWAP3 PUSH1 0x20 ADD SWAP3 PUSH1 0x2 ADD PUSH1 0x20 DUP2 PUSH1 0x1 ADD DIV SWAP3 DUP4 ADD SWAP3 PUSH1 0x1 SUB MUL PUSH3 0x15C6 JUMP JUMPDEST DUP1 ISZERO PUSH3 0x1638 JUMPI DUP3 DUP2 PUSH2 0x100 EXP DUP2 SLOAD SWAP1 PUSH2 0xFFFF MUL NOT AND SWAP1 SSTORE PUSH1 0x2 ADD PUSH1 0x20 DUP2 PUSH1 0x1 ADD DIV SWAP3 DUP4 ADD SWAP3 PUSH1 0x1 SUB MUL PUSH3 0x1608 JUMP JUMPDEST POP POP PUSH3 0x15AB SWAP3 SWAP2 POP PUSH3 0x16CD JUMP JUMPDEST PUSH1 0x1 DUP4 ADD SWAP2 DUP4 SWAP1 DUP3 ISZERO PUSH3 0x159D JUMPI SWAP2 PUSH1 0x20 MUL DUP3 ADD PUSH1 0x0 JUMPDEST DUP4 DUP3 GT ISZERO PUSH3 0x169E JUMPI DUP4 MLOAD DUP4 DUP3 PUSH2 0x100 EXP DUP2 SLOAD DUP2 PUSH1 0xFF MUL NOT AND SWAP1 DUP4 PUSH1 0xFF AND MUL OR SWAP1 SSTORE POP SWAP3 PUSH1 0x20 ADD SWAP3 PUSH1 0x1 ADD PUSH1 0x20 DUP2 PUSH1 0x0 ADD DIV SWAP3 DUP4 ADD SWAP3 PUSH1 0x1 SUB MUL PUSH3 0x165E JUMP JUMPDEST DUP1 ISZERO PUSH3 0x1638 JUMPI DUP3 DUP2 PUSH2 0x100 EXP DUP2 SLOAD SWAP1 PUSH1 0xFF MUL NOT AND SWAP1 SSTORE PUSH1 0x1 ADD PUSH1 0x20 DUP2 PUSH1 0x0 ADD DIV SWAP3 DUP4 ADD SWAP3 PUSH1 0x1 SUB MUL PUSH3 0x169E JUMP JUMPDEST JUMPDEST DUP1 DUP3 GT ISZERO PUSH3 0x15AB JUMPI PUSH1 0x0 DUP2 SSTORE PUSH1 0x1 ADD PUSH3 0x16CE JUMP JUMPDEST PUSH4 0x4E487B71 PUSH1 0xE0 SHL PUSH1 0x0 MSTORE PUSH1 0x41 PUSH1 0x4 MSTORE PUSH1 0x24 PUSH1 0x0 REVERT JUMPDEST PUSH1 0x1 DUP2 DUP2 SHR SWAP1 DUP3 AND DUP1 PUSH3 0x170F JUMPI PUSH1 0x7F DUP3 AND SWAP2 POP JUMPDEST PUSH1 0x20 DUP3 LT DUP2 SUB PUSH3 0x1730 JUMPI PUSH4 0x4E487B71 PUSH1 0xE0 SHL PUSH1 0x0 MSTORE PUSH1 0x22 PUSH1 0x4 MSTORE PUSH1 0x24 PUSH1 0x0 REVERT JUMPDEST POP SWAP2 SWAP1 POP JUMP JUMPDEST PUSH1 0x1F DUP3 GT ISZERO PUSH3 0x1784 JUMPI PUSH1 0x0 DUP2 DUP2 MSTORE PUSH1 0x20 DUP2 KECCAK256 PUSH1 0x1F DUP6 ADD PUSH1 0x5 SHR DUP2 ADD PUSH1 0x20 DUP7 LT ISZERO PUSH3 0x175F JUMPI POP DUP1 JUMPDEST PUSH1 0x1F DUP6 ADD PUSH1 0x5 SHR DUP3 ADD SWAP2 POP JUMPDEST DUP2 DUP2 LT ISZERO PUSH3 0x1780 JUMPI DUP3 DUP2 SSTORE PUSH1 0x1 ADD PUSH3 0x176B JUMP JUMPDEST POP POP POP JUMPDEST POP POP POP JUMP JUMPDEST DUP2 MLOAD PUSH1 0x1 PUSH1 0x1 PUSH1 0x40 SHL SUB DUP2 GT ISZERO PUSH3 0x17A5 JUMPI PUSH3 0x17A5 PUSH3 0x16E4 JUMP JUMPDEST PUSH3 0x17BD DUP2 PUSH3 0x17B6 DUP5 SLOAD PUSH3 0x16FA JUMP JUMPDEST DUP5 PUSH3 0x1736 JUMP JUMPDEST PUSH1 0x20 DUP1 PUSH1 0x1F DUP4 GT PUSH1 0x1 DUP2 EQ PUSH3 0x17F5 JUMPI PUSH1 0x0 DUP5 ISZERO PUSH3 0x17DC JUMPI POP DUP6 DUP4 ADD MLOAD JUMPDEST PUSH1 0x0 NOT PUSH1 0x3 DUP7 SWAP1 SHL SHR NOT AND PUSH1 0x1 DUP6 SWAP1 SHL OR DUP6 SSTORE PUSH3 0x1780 JUMP JUMPDEST PUSH1 0x0 DUP6 DUP2 MSTORE PUSH1 0x20 DUP2 KECCAK256 PUSH1 0x1F NOT DUP7 AND SWAP2 JUMPDEST DUP3 DUP2 LT ISZERO PUSH3 0x1826 JUMPI DUP9 DUP7 ADD MLOAD DUP3 SSTORE SWAP5 DUP5 ADD SWAP5 PUSH1 0x1 SWAP1 SWAP2 ADD SWAP1 DUP5 ADD PUSH3 0x1805 JUMP JUMPDEST POP DUP6 DUP3 LT ISZERO PUSH3 0x1845 JUMPI DUP8 DUP6 ADD MLOAD PUSH1 0x0 NOT PUSH1 0x3 DUP9 SWAP1 SHL PUSH1 0xF8 AND SHR NOT AND DUP2 SSTORE JUMPDEST POP POP POP POP POP PUSH1 0x1 SWAP1 DUP2 SHL ADD SWAP1 SSTORE POP JUMP JUMPDEST PUSH2 0xA29 DUP1 PUSH3 0x1865 PUSH1 0x0 CODECOPY PUSH1 0x0 RETURN INVALID PUSH1 0x80 PUSH1 0x40 MSTORE CALLVALUE DUP1 ISZERO PUSH2 0x10 JUMPI PUSH1 0x0 DUP1 REVERT JUMPDEST POP PUSH1 0x4 CALLDATASIZE LT PUSH2 0x88 JUMPI PUSH1 0x0 CALLDATALOAD PUSH1 0xE0 SHR DUP1 PUSH4 0x53D22808 GT PUSH2 0x5B JUMPI DUP1 PUSH4 0x53D22808 EQ PUSH2 0x169 JUMPI DUP1 PUSH4 0x6C9949D2 EQ PUSH2 0x189 JUMPI DUP1 PUSH4 0x91C0EED0 EQ PUSH2 0x19E JUMPI DUP1 PUSH4 0xC2F3789A EQ PUSH2 0x1B1 JUMPI PUSH1 0x0 DUP1 REVERT JUMPDEST DUP1 PUSH4 0x13475015 EQ PUSH2 0x8D JUMPI DUP1 PUSH4 0x2A218966 EQ PUSH2 0xB3 JUMPI DUP1 PUSH4 0x2BE5B2E2 EQ PUSH2 0xD3 JUMPI DUP1 PUSH4 0x4986103D EQ PUSH2 0xF6 JUMPI JUMPDEST PUSH1 0x0 DUP1 REVERT JUMPDEST PUSH2 0xA0 PUSH2 0x9B CALLDATASIZE PUSH1 0x4 PUSH2 0x772 JUMP JUMPDEST PUSH2 0x1B9 JUMP JUMPDEST PUSH1 0x40 MLOAD SWAP1 DUP2 MSTORE PUSH1 0x20 ADD JUMPDEST PUSH1 0x40 MLOAD DUP1 SWAP2 SUB SWAP1 RETURN JUMPDEST PUSH2 0xC6 PUSH2 0xC1 CALLDATASIZE PUSH1 0x4 PUSH2 0x772 JUMP JUMPDEST PUSH2 0x1DA JUMP JUMPDEST PUSH1 0x40 MLOAD PUSH2 0xAA SWAP2 SWAP1 PUSH2 0x7B7 JUMP JUMPDEST PUSH2 0xE6 PUSH2 0xE1 CALLDATASIZE PUSH1 0x4 PUSH2 0x772 JUMP JUMPDEST PUSH2 0x333 JUMP JUMPDEST PUSH1 0x40 MLOAD PUSH2 0xAA SWAP5 SWAP4 SWAP3 SWAP2 SWAP1 PUSH2 0x87E JUMP JUMPDEST PUSH2 0x13C PUSH2 0x104 CALLDATASIZE PUSH1 0x4 PUSH2 0x772 JUMP JUMPDEST PUSH1 0x3 PUSH1 0x20 MSTORE PUSH1 0x0 SWAP1 DUP2 MSTORE PUSH1 0x40 SWAP1 KECCAK256 PUSH1 0x1 DUP2 ADD SLOAD PUSH1 0x2 DUP3 ADD SLOAD PUSH1 0x4 DUP4 ADD SLOAD PUSH1 0x6 DUP5 ADD SLOAD PUSH1 0x7 DUP6 ADD SLOAD PUSH1 0x8 SWAP1 SWAP6 ADD SLOAD SWAP4 SWAP5 SWAP3 SWAP4 SWAP2 SWAP3 SWAP1 SWAP2 DUP7 JUMP JUMPDEST PUSH1 0x40 DUP1 MLOAD SWAP7 DUP8 MSTORE PUSH1 0x20 DUP8 ADD SWAP6 SWAP1 SWAP6 MSTORE SWAP4 DUP6 ADD SWAP3 SWAP1 SWAP3 MSTORE PUSH1 0x60 DUP5 ADD MSTORE PUSH1 0x80 DUP4 ADD MSTORE PUSH1 0xA0 DUP3 ADD MSTORE PUSH1 0xC0 ADD PUSH2 0xAA JUMP JUMPDEST PUSH2 0x17C PUSH2 0x177 CALLDATASIZE PUSH1 0x4 PUSH2 0x772 JUMP JUMPDEST PUSH2 0x3E3 JUMP JUMPDEST PUSH1 0x40 MLOAD PUSH2 0xAA SWAP2 SWAP1 PUSH2 0x8D4 JUMP JUMPDEST PUSH2 0x191 PUSH2 0x5CB JUMP JUMPDEST PUSH1 0x40 MLOAD PUSH2 0xAA SWAP2 SWAP1 PUSH2 0x975 JUMP JUMPDEST PUSH2 0xA0 PUSH2 0x1AC CALLDATASIZE PUSH1 0x4 PUSH2 0x772 JUMP JUMPDEST PUSH2 0x623 JUMP JUMPDEST PUSH2 0x191 PUSH2 0x633 JUMP JUMPDEST PUSH1 0x0 DUP2 DUP2 SLOAD DUP2 LT PUSH2 0x1C9 JUMPI PUSH1 0x0 DUP1 REVERT JUMPDEST PUSH1 0x0 SWAP2 DUP3 MSTORE PUSH1 0x20 SWAP1 SWAP2 KECCAK256 ADD SLOAD SWAP1 POP DUP2 JUMP JUMPDEST PUSH2 0x1E2 PUSH2 0x689 JUMP JUMPDEST PUSH1 0x0 DUP3 DUP2 MSTORE PUSH1 0x3 PUSH1 0x20 MSTORE PUSH1 0x40 SWAP1 DUP2 SWAP1 KECCAK256 DUP2 MLOAD PUSH2 0x1A0 DUP2 ADD SWAP1 SWAP3 MSTORE DUP2 PUSH2 0x120 DUP2 ADD DUP3 PUSH1 0x4 DUP3 DUP3 DUP3 PUSH1 0x20 MUL DUP3 ADD SWAP2 PUSH1 0x0 SWAP1 JUMPDEST DUP3 SLOAD PUSH2 0x100 DUP4 SWAP1 EXP SWAP1 DIV PUSH1 0xFF AND DUP2 MSTORE PUSH1 0x20 PUSH1 0x1 SWAP3 DUP4 ADD DUP2 DUP2 DIV SWAP5 DUP6 ADD SWAP5 SWAP1 SWAP4 SUB SWAP1 SWAP3 MUL SWAP2 ADD DUP1 DUP5 GT PUSH2 0x212 JUMPI POP POP POP SWAP3 DUP5 MSTORE POP POP POP PUSH1 0x1 DUP3 ADD SLOAD PUSH1 0x20 DUP3 ADD MSTORE PUSH1 0x2 DUP3 ADD SLOAD PUSH1 0x40 DUP1 DUP4 ADD SWAP2 SWAP1 SWAP2 MSTORE DUP1 MLOAD PUSH1 0x80 DUP2 ADD SWAP2 DUP3 SWAP1 MSTORE PUSH1 0x60 SWAP1 SWAP3 ADD SWAP2 SWAP1 PUSH1 0x3 DUP5 ADD SWAP1 PUSH1 0x4 SWAP1 DUP3 PUSH1 0x0 DUP6 JUMPDEST DUP3 SLOAD PUSH2 0x100 DUP4 SWAP1 EXP SWAP1 DIV PUSH1 0xFF AND DUP2 MSTORE PUSH1 0x20 PUSH1 0x1 SWAP3 DUP4 ADD DUP2 DUP2 DIV SWAP5 DUP6 ADD SWAP5 SWAP1 SWAP4 SUB SWAP1 SWAP3 MUL SWAP2 ADD DUP1 DUP5 GT PUSH2 0x27D JUMPI POP POP POP SWAP3 DUP5 MSTORE POP POP POP PUSH1 0x4 DUP3 DUP2 ADD SLOAD PUSH1 0x20 DUP4 ADD MSTORE PUSH1 0x40 DUP1 MLOAD PUSH1 0x80 DUP2 ADD DUP1 DUP4 MSTORE SWAP2 SWAP1 SWAP4 ADD SWAP3 SWAP2 PUSH1 0x5 DUP6 ADD SWAP2 DUP3 PUSH1 0x0 DUP6 JUMPDEST DUP3 SLOAD PUSH2 0x100 DUP4 SWAP1 EXP SWAP1 DIV PUSH1 0xFF AND DUP2 MSTORE PUSH1 0x20 PUSH1 0x1 SWAP3 DUP4 ADD DUP2 DUP2 DIV SWAP5 DUP6 ADD SWAP5 SWAP1 SWAP4 SUB SWAP1 SWAP3 MUL SWAP2 ADD DUP1 DUP5 GT PUSH2 0x2D8 JUMPI POP POP POP SWAP3 DUP5 MSTORE POP POP POP PUSH1 0x6 DUP3 ADD SLOAD PUSH1 0x20 DUP3 ADD MSTORE PUSH1 0x7 DUP3 ADD SLOAD PUSH1 0x40 DUP3 ADD MSTORE PUSH1 0x8 SWAP1 SWAP2 ADD SLOAD PUSH1 0x60 SWAP1 SWAP2 ADD MSTORE SWAP3 SWAP2 POP POP JUMP JUMPDEST PUSH1 0x2 PUSH1 0x20 MSTORE PUSH1 0x0 SWAP1 DUP2 MSTORE PUSH1 0x40 SWAP1 KECCAK256 DUP1 SLOAD DUP2 SWAP1 PUSH2 0x34E SWAP1 PUSH2 0x9B9 JUMP JUMPDEST DUP1 PUSH1 0x1F ADD PUSH1 0x20 DUP1 SWAP2 DIV MUL PUSH1 0x20 ADD PUSH1 0x40 MLOAD SWAP1 DUP2 ADD PUSH1 0x40 MSTORE DUP1 SWAP3 SWAP2 SWAP1 DUP2 DUP2 MSTORE PUSH1 0x20 ADD DUP3 DUP1 SLOAD PUSH2 0x37A SWAP1 PUSH2 0x9B9 JUMP JUMPDEST DUP1 ISZERO PUSH2 0x3C7 JUMPI DUP1 PUSH1 0x1F LT PUSH2 0x39C JUMPI PUSH2 0x100 DUP1 DUP4 SLOAD DIV MUL DUP4 MSTORE SWAP2 PUSH1 0x20 ADD SWAP2 PUSH2 0x3C7 JUMP JUMPDEST DUP3 ADD SWAP2 SWAP1 PUSH1 0x0 MSTORE PUSH1 0x20 PUSH1 0x0 KECCAK256 SWAP1 JUMPDEST DUP2 SLOAD DUP2 MSTORE SWAP1 PUSH1 0x1 ADD SWAP1 PUSH1 0x20 ADD DUP1 DUP4 GT PUSH2 0x3AA JUMPI DUP3 SWAP1 SUB PUSH1 0x1F AND DUP3 ADD SWAP2 JUMPDEST POP POP POP POP POP SWAP1 DUP1 PUSH1 0x1 ADD SLOAD SWAP1 DUP1 PUSH1 0x5 ADD SLOAD SWAP1 DUP1 PUSH1 0x6 ADD SLOAD SWAP1 POP DUP5 JUMP JUMPDEST PUSH2 0x3EB PUSH2 0x6E7 JUMP JUMPDEST PUSH1 0x0 DUP3 DUP2 MSTORE PUSH1 0x2 PUSH1 0x20 MSTORE PUSH1 0x40 SWAP1 DUP2 SWAP1 KECCAK256 DUP2 MLOAD PUSH1 0xE0 DUP2 ADD SWAP1 SWAP3 MSTORE DUP1 SLOAD DUP3 SWAP1 DUP3 SWAP1 PUSH2 0x413 SWAP1 PUSH2 0x9B9 JUMP JUMPDEST DUP1 PUSH1 0x1F ADD PUSH1 0x20 DUP1 SWAP2 DIV MUL PUSH1 0x20 ADD PUSH1 0x40 MLOAD SWAP1 DUP2 ADD PUSH1 0x40 MSTORE DUP1 SWAP3 SWAP2 SWAP1 DUP2 DUP2 MSTORE PUSH1 0x20 ADD DUP3 DUP1 SLOAD PUSH2 0x43F SWAP1 PUSH2 0x9B9 JUMP JUMPDEST DUP1 ISZERO PUSH2 0x48C JUMPI DUP1 PUSH1 0x1F LT PUSH2 0x461 JUMPI PUSH2 0x100 DUP1 DUP4 SLOAD DIV MUL DUP4 MSTORE SWAP2 PUSH1 0x20 ADD SWAP2 PUSH2 0x48C JUMP JUMPDEST DUP3 ADD SWAP2 SWAP1 PUSH1 0x0 MSTORE PUSH1 0x20 PUSH1 0x0 KECCAK256 SWAP1 JUMPDEST DUP2 SLOAD DUP2 MSTORE SWAP1 PUSH1 0x1 ADD SWAP1 PUSH1 0x20 ADD DUP1 DUP4 GT PUSH2 0x46F JUMPI DUP3 SWAP1 SUB PUSH1 0x1F AND DUP3 ADD SWAP2 JUMPDEST POP POP POP SWAP2 DUP4 MSTORE POP POP PUSH1 0x1 DUP3 ADD SLOAD PUSH1 0x20 DUP3 ADD MSTORE PUSH1 0x40 DUP1 MLOAD PUSH1 0xE0 DUP2 ADD DUP1 DUP4 MSTORE SWAP2 SWAP1 SWAP3 ADD SWAP2 SWAP1 PUSH1 0x2 DUP5 ADD SWAP1 PUSH1 0x7 SWAP1 DUP3 PUSH1 0x0 DUP6 JUMPDEST DUP3 DUP3 SWAP1 SLOAD SWAP1 PUSH2 0x100 EXP SWAP1 DIV PUSH2 0xFFFF AND PUSH2 0xFFFF AND DUP2 MSTORE PUSH1 0x20 ADD SWAP1 PUSH1 0x2 ADD SWAP1 PUSH1 0x20 DUP3 PUSH1 0x1 ADD DIV SWAP3 DUP4 ADD SWAP3 PUSH1 0x1 SUB DUP3 MUL SWAP2 POP DUP1 DUP5 GT PUSH2 0x4BC JUMPI POP POP POP SWAP3 DUP5 MSTORE POP POP PUSH1 0x40 DUP1 MLOAD PUSH1 0xE0 DUP2 ADD SWAP2 DUP3 SWAP1 MSTORE PUSH1 0x20 SWAP1 SWAP4 ADD SWAP3 SWAP2 POP PUSH1 0x3 DUP5 ADD SWAP1 PUSH1 0x7 SWAP1 DUP3 PUSH1 0x0 DUP6 JUMPDEST DUP3 SLOAD PUSH2 0x100 DUP4 SWAP1 EXP SWAP1 DIV PUSH1 0xFF AND DUP2 MSTORE PUSH1 0x20 PUSH1 0x1 SWAP3 DUP4 ADD DUP2 DUP2 DIV SWAP5 DUP6 ADD SWAP5 SWAP1 SWAP4 SUB SWAP1 SWAP3 MUL SWAP2 ADD DUP1 DUP5 GT PUSH2 0x51B JUMPI POP POP POP SWAP3 DUP5 MSTORE POP POP PUSH1 0x40 DUP1 MLOAD PUSH1 0xE0 DUP2 ADD SWAP2 DUP3 SWAP1 MSTORE PUSH1 0x20 SWAP1 SWAP4 ADD SWAP3 SWAP2 POP PUSH1 0x4 DUP5 ADD SWAP1 PUSH1 0x7 SWAP1 DUP3 PUSH1 0x0 DUP6 JUMPDEST DUP3 DUP3 SWAP1 SLOAD SWAP1 PUSH2 0x100 EXP SWAP1 DIV PUSH2 0xFFFF AND PUSH2 0xFFFF AND DUP2 MSTORE PUSH1 0x20 ADD SWAP1 PUSH1 0x2 ADD SWAP1 PUSH1 0x20 DUP3 PUSH1 0x1 ADD DIV SWAP3 DUP4 ADD SWAP3 PUSH1 0x1 SUB DUP3 MUL SWAP2 POP DUP1 DUP5 GT PUSH2 0x570 JUMPI POP POP POP SWAP3 DUP5 MSTORE POP POP POP PUSH1 0x5 DUP3 ADD SLOAD PUSH1 0x20 DUP3 ADD MSTORE PUSH1 0x6 SWAP1 SWAP2 ADD SLOAD PUSH1 0x40 SWAP1 SWAP2 ADD MSTORE SWAP3 SWAP2 POP POP JUMP JUMPDEST PUSH1 0x60 PUSH1 0x0 DUP1 SLOAD DUP1 PUSH1 0x20 MUL PUSH1 0x20 ADD PUSH1 0x40 MLOAD SWAP1 DUP2 ADD PUSH1 0x40 MSTORE DUP1 SWAP3 SWAP2 SWAP1 DUP2 DUP2 MSTORE PUSH1 0x20 ADD DUP3 DUP1 SLOAD DUP1 ISZERO PUSH2 0x619 JUMPI PUSH1 0x20 MUL DUP3 ADD SWAP2 SWAP1 PUSH1 0x0 MSTORE PUSH1 0x20 PUSH1 0x0 KECCAK256 SWAP1 JUMPDEST DUP2 SLOAD DUP2 MSTORE PUSH1 0x20 ADD SWAP1 PUSH1 0x1 ADD SWAP1 DUP1 DUP4 GT PUSH2 0x605 JUMPI JUMPDEST POP POP POP POP POP SWAP1 POP SWAP1 JUMP JUMPDEST PUSH1 0x1 DUP2 DUP2 SLOAD DUP2 LT PUSH2 0x1C9 JUMPI PUSH1 0x0 DUP1 REVERT JUMPDEST PUSH1 0x60 PUSH1 0x1 DUP1 SLOAD DUP1 PUSH1 0x20 MUL PUSH1 0x20 ADD PUSH1 0x40 MLOAD SWAP1 DUP2 ADD PUSH1 0x40 MSTORE DUP1 SWAP3 SWAP2 SWAP1 DUP2 DUP2 MSTORE PUSH1 0x20 ADD DUP3 DUP1 SLOAD DUP1 ISZERO PUSH2 0x619 JUMPI PUSH1 0x20 MUL DUP3 ADD SWAP2 SWAP1 PUSH1 0x0 MSTORE PUSH1 0x20 PUSH1 0x0 KECCAK256 SWAP1 DUP2 SLOAD DUP2 MSTORE PUSH1 0x20 ADD SWAP1 PUSH1 0x1 ADD SWAP1 DUP1 DUP4 GT PUSH2 0x605 JUMPI POP POP POP POP POP SWAP1 POP SWAP1 JUMP JUMPDEST PUSH1 0x40 MLOAD DUP1 PUSH2 0x120 ADD PUSH1 0x40 MSTORE DUP1 PUSH2 0x69D PUSH2 0x736 JUMP JUMPDEST DUP2 MSTORE PUSH1 0x20 ADD PUSH1 0x0 DUP2 MSTORE PUSH1 0x20 ADD PUSH1 0x0 DUP2 MSTORE PUSH1 0x20 ADD PUSH2 0x6B8 PUSH2 0x736 JUMP JUMPDEST DUP2 MSTORE PUSH1 0x20 ADD PUSH1 0x0 DUP2 MSTORE PUSH1 0x20 ADD PUSH2 0x6CC PUSH2 0x736 JUMP JUMPDEST DUP2 MSTORE PUSH1 0x20 ADD PUSH1 0x0 DUP2 MSTORE PUSH1 0x20 ADD PUSH1 0x0 DUP2 MSTORE PUSH1 0x20 ADD PUSH1 0x0 DUP2 MSTORE POP SWAP1 JUMP JUMPDEST PUSH1 0x40 MLOAD DUP1 PUSH1 0xE0 ADD PUSH1 0x40 MSTORE DUP1 PUSH1 0x60 DUP2 MSTORE PUSH1 0x20 ADD PUSH1 0x0 DUP2 MSTORE PUSH1 0x20 ADD PUSH2 0x708 PUSH2 0x754 JUMP JUMPDEST DUP2 MSTORE PUSH1 0x20 ADD PUSH2 0x715 PUSH2 0x754 JUMP JUMPDEST DUP2 MSTORE PUSH1 0x20 ADD PUSH2 0x722 PUSH2 0x754 JUMP JUMPDEST DUP2 MSTORE PUSH1 0x20 ADD PUSH1 0x0 DUP2 MSTORE PUSH1 0x20 ADD PUSH1 0x0 DUP2 MSTORE POP SWAP1 JUMP JUMPDEST PUSH1 0x40 MLOAD DUP1 PUSH1 0x80 ADD PUSH1 0x40 MSTORE DUP1 PUSH1 0x4 SWAP1 PUSH1 0x20 DUP3 MUL DUP1 CALLDATASIZE DUP4 CALLDATACOPY POP SWAP2 SWAP3 SWAP2 POP POP JUMP JUMPDEST PUSH1 0x40 MLOAD DUP1 PUSH1 0xE0 ADD PUSH1 0x40 MSTORE DUP1 PUSH1 0x7 SWAP1 PUSH1 0x20 DUP3 MUL DUP1 CALLDATASIZE DUP4 CALLDATACOPY POP SWAP2 SWAP3 SWAP2 POP POP JUMP JUMPDEST PUSH1 0x0 PUSH1 0x20 DUP3 DUP5 SUB SLT ISZERO PUSH2 0x784 JUMPI PUSH1 0x0 DUP1 REVERT JUMPDEST POP CALLDATALOAD SWAP2 SWAP1 POP JUMP JUMPDEST DUP1 PUSH1 0x0 JUMPDEST PUSH1 0x4 DUP2 LT ISZERO PUSH2 0x7B1 JUMPI DUP2 MLOAD PUSH1 0xFF AND DUP5 MSTORE PUSH1 0x20 SWAP4 DUP5 ADD SWAP4 SWAP1 SWAP2 ADD SWAP1 PUSH1 0x1 ADD PUSH2 0x78F JUMP JUMPDEST POP POP POP POP JUMP JUMPDEST PUSH1 0x0 PUSH2 0x240 DUP3 ADD SWAP1 POP PUSH2 0x7CB DUP3 DUP5 MLOAD PUSH2 0x78B JUMP JUMPDEST PUSH1 0x20 DUP4 ADD MLOAD PUSH1 0x80 DUP4 ADD MSTORE PUSH1 0x40 DUP4 ADD MLOAD PUSH1 0xA0 DUP4 ADD MSTORE PUSH1 0x60 DUP4 ADD MLOAD PUSH2 0x7F1 PUSH1 0xC0 DUP5 ADD DUP3 PUSH2 0x78B JUMP JUMPDEST POP PUSH1 0x80 DUP4 ADD MLOAD PUSH2 0x140 DUP4 ADD MSTORE PUSH1 0xA0 DUP4 ADD MLOAD PUSH2 0x810 PUSH2 0x160 DUP5 ADD DUP3 PUSH2 0x78B JUMP JUMPDEST POP PUSH1 0xC0 DUP4 ADD MLOAD PUSH2 0x1E0 DUP4 ADD MSTORE PUSH1 0xE0 DUP4 ADD MLOAD PUSH2 0x200 DUP4 ADD MSTORE PUSH2 0x100 SWAP1 SWAP3 ADD MLOAD PUSH2 0x220 SWAP1 SWAP2 ADD MSTORE SWAP1 JUMP JUMPDEST PUSH1 0x0 DUP2 MLOAD DUP1 DUP5 MSTORE PUSH1 0x0 JUMPDEST DUP2 DUP2 LT ISZERO PUSH2 0x85E JUMPI PUSH1 0x20 DUP2 DUP6 ADD DUP2 ADD MLOAD DUP7 DUP4 ADD DUP3 ADD MSTORE ADD PUSH2 0x842 JUMP JUMPDEST POP PUSH1 0x0 PUSH1 0x20 DUP3 DUP7 ADD ADD MSTORE PUSH1 0x20 PUSH1 0x1F NOT PUSH1 0x1F DUP4 ADD AND DUP6 ADD ADD SWAP2 POP POP SWAP3 SWAP2 POP POP JUMP JUMPDEST PUSH1 0x80 DUP2 MSTORE PUSH1 0x0 PUSH2 0x891 PUSH1 0x80 DUP4 ADD DUP8 PUSH2 0x838 JUMP JUMPDEST PUSH1 0x20 DUP4 ADD SWAP6 SWAP1 SWAP6 MSTORE POP PUSH1 0x40 DUP2 ADD SWAP3 SWAP1 SWAP3 MSTORE PUSH1 0x60 SWAP1 SWAP2 ADD MSTORE SWAP2 SWAP1 POP JUMP JUMPDEST DUP1 PUSH1 0x0 JUMPDEST PUSH1 0x7 DUP2 LT ISZERO PUSH2 0x7B1 JUMPI DUP2 MLOAD PUSH2 0xFFFF AND DUP5 MSTORE PUSH1 0x20 SWAP4 DUP5 ADD SWAP4 SWAP1 SWAP2 ADD SWAP1 PUSH1 0x1 ADD PUSH2 0x8B1 JUMP JUMPDEST PUSH1 0x0 PUSH1 0x20 DUP1 DUP4 MSTORE DUP4 MLOAD PUSH2 0x320 DUP1 DUP4 DUP7 ADD MSTORE PUSH2 0x8F3 PUSH2 0x340 DUP7 ADD DUP4 PUSH2 0x838 JUMP JUMPDEST SWAP2 POP DUP3 DUP7 ADD MLOAD PUSH1 0x40 DUP7 ADD MSTORE PUSH1 0x40 DUP7 ADD MLOAD PUSH2 0x910 PUSH1 0x60 DUP8 ADD DUP3 PUSH2 0x8AD JUMP JUMPDEST POP PUSH1 0x60 DUP7 ADD MLOAD PUSH2 0x140 DUP7 ADD PUSH1 0x0 JUMPDEST PUSH1 0x7 DUP2 LT ISZERO PUSH2 0x93E JUMPI DUP3 MLOAD PUSH1 0xFF AND DUP3 MSTORE SWAP2 DUP6 ADD SWAP2 SWAP1 DUP6 ADD SWAP1 PUSH1 0x1 ADD PUSH2 0x91E JUMP JUMPDEST POP POP POP PUSH1 0x80 DUP7 ADD MLOAD SWAP3 POP PUSH2 0x956 PUSH2 0x220 DUP7 ADD DUP5 PUSH2 0x8AD JUMP JUMPDEST PUSH1 0xA0 DUP7 ADD MLOAD PUSH2 0x300 DUP7 ADD MSTORE PUSH1 0xC0 SWAP1 SWAP6 ADD MLOAD SWAP5 SWAP1 SWAP4 ADD SWAP4 SWAP1 SWAP4 MSTORE POP SWAP2 SWAP1 POP JUMP JUMPDEST PUSH1 0x20 DUP1 DUP3 MSTORE DUP3 MLOAD DUP3 DUP3 ADD DUP2 SWAP1 MSTORE PUSH1 0x0 SWAP2 SWAP1 DUP5 DUP3 ADD SWAP1 PUSH1 0x40 DUP6 ADD SWAP1 DUP5 JUMPDEST DUP2 DUP2 LT ISZERO PUSH2 0x9AD JUMPI DUP4 MLOAD DUP4 MSTORE SWAP3 DUP5 ADD SWAP3 SWAP2 DUP5 ADD SWAP2 PUSH1 0x1 ADD PUSH2 0x991 JUMP JUMPDEST POP SWAP1 SWAP7 SWAP6 POP POP POP POP POP POP JUMP JUMPDEST PUSH1 0x1 DUP2 DUP2 SHR SWAP1 DUP3 AND DUP1 PUSH2 0x9CD JUMPI PUSH1 0x7F DUP3 AND SWAP2 POP JUMPDEST PUSH1 0x20 DUP3 LT DUP2 SUB PUSH2 0x9ED JUMPI PUSH4 0x4E487B71 PUSH1 0xE0 SHL PUSH1 0x0 MSTORE PUSH1 0x22 PUSH1 0x4 MSTORE PUSH1 0x24 PUSH1 0x0 REVERT JUMPDEST POP SWAP2 SWAP1 POP JUMP INVALID LOG2 PUSH5 0x6970667358 0x22 SLT KECCAK256 0x28 DELEGATECALL 0xDF 0x5C 0xAD COINBASE 0x5F GAS 0x2B 0x5E PC DUP15 PUSH1 0xCE 0xC4 BALANCE 0xDC SLOAD 0x5E PUSH10 0xAFC1D3B541ED5BB6791F 0x4A PC PUSH5 0x736F6C6343 STOP ADDMOD SGT STOP CALLER "
		},
		"gasEstimates": {
			"creation": {
				"codeDepositCost": "520200",
				"executionCost": "infinite",
				"totalCost": "infinite"
			},
			"external": {
				"getAllSkinById(uint256)": "infinite",
				"getAllSkinId()": "infinite",
				"getAllWeaponById(uint256)": "infinite",
				"getAllWeaponId()": "infinite",
				"skinIdList(uint256)": "4565",
				"skinMap(uint256)": "infinite",
				"weaponIdList(uint256)": "4608",
				"weaponMap(uint256)": "13182"
			},
			"internal": {
				"initSkinList()": "infinite",
				"initWeaponList()": "infinite"
			}
		},
		"methodIdentifiers": {
			"getAllSkinById(uint256)": "53d22808",
			"getAllSkinId()": "6c9949d2",
			"getAllWeaponById(uint256)": "2a218966",
			"getAllWeaponId()": "c2f3789a",
			"skinIdList(uint256)": "13475015",
			"skinMap(uint256)": "2be5b2e2",
			"weaponIdList(uint256)": "91c0eed0",
			"weaponMap(uint256)": "4986103d"
		}
	},
	"abi": [
		{
			"inputs": [],
			"stateMutability": "nonpayable",
			"type": "constructor"
		},
		{
			"inputs": [
				{
					"internalType": "uint256",
					"name": "id",
					"type": "uint256"
				}
			],
			"name": "getAllSkinById",
			"outputs": [
				{
					"components": [
						{
							"internalType": "string",
							"name": "name",
							"type": "string"
						},
						{
							"internalType": "uint256",
							"name": "life",
							"type": "uint256"
						},
						{
							"internalType": "uint16[7]",
							"name": "hp",
							"type": "uint16[7]"
						},
						{
							"internalType": "uint8[7]",
							"name": "atk",
							"type": "uint8[7]"
						},
						{
							"internalType": "uint16[7]",
							"name": "speed",
							"type": "uint16[7]"
						},
						{
							"internalType": "uint256",
							"name": "priceType",
							"type": "uint256"
						},
						{
							"internalType": "uint256",
							"name": "price",
							"type": "uint256"
						}
					],
					"internalType": "struct GameStaticData.Skin",
					"name": "",
					"type": "tuple"
				}
			],
			"stateMutability": "view",
			"type": "function"
		},
		{
			"inputs": [],
			"name": "getAllSkinId",
			"outputs": [
				{
					"internalType": "uint256[]",
					"name": "",
					"type": "uint256[]"
				}
			],
			"stateMutability": "view",
			"type": "function"
		},
		{
			"inputs": [
				{
					"internalType": "uint256",
					"name": "id",
					"type": "uint256"
				}
			],
			"name": "getAllWeaponById",
			"outputs": [
				{
					"components": [
						{
							"internalType": "uint8[4]",
							"name": "atk",
							"type": "uint8[4]"
						},
						{
							"internalType": "uint256",
							"name": "atkRange",
							"type": "uint256"
						},
						{
							"internalType": "uint256",
							"name": "flySpeed",
							"type": "uint256"
						},
						{
							"internalType": "uint8[4]",
							"name": "atkSpeed",
							"type": "uint8[4]"
						},
						{
							"internalType": "uint256",
							"name": "bulletNum",
							"type": "uint256"
						},
						{
							"internalType": "uint8[4]",
							"name": "bulletTotal",
							"type": "uint8[4]"
						},
						{
							"internalType": "uint256",
							"name": "reload",
							"type": "uint256"
						},
						{
							"internalType": "uint256",
							"name": "priceType",
							"type": "uint256"
						},
						{
							"internalType": "uint256",
							"name": "price",
							"type": "uint256"
						}
					],
					"internalType": "struct GameStaticData.Weapon",
					"name": "",
					"type": "tuple"
				}
			],
			"stateMutability": "view",
			"type": "function"
		},
		{
			"inputs": [],
			"name": "getAllWeaponId",
			"outputs": [
				{
					"internalType": "uint256[]",
					"name": "",
					"type": "uint256[]"
				}
			],
			"stateMutability": "view",
			"type": "function"
		},
		{
			"inputs": [
				{
					"internalType": "uint256",
					"name": "",
					"type": "uint256"
				}
			],
			"name": "skinIdList",
			"outputs": [
				{
					"internalType": "uint256",
					"name": "",
					"type": "uint256"
				}
			],
			"stateMutability": "view",
			"type": "function"
		},
		{
			"inputs": [
				{
					"internalType": "uint256",
					"name": "",
					"type": "uint256"
				}
			],
			"name": "skinMap",
			"outputs": [
				{
					"internalType": "string",
					"name": "name",
					"type": "string"
				},
				{
					"internalType": "uint256",
					"name": "life",
					"type": "uint256"
				},
				{
					"internalType": "uint256",
					"name": "priceType",
					"type": "uint256"
				},
				{
					"internalType": "uint256",
					"name": "price",
					"type": "uint256"
				}
			],
			"stateMutability": "view",
			"type": "function"
		},
		{
			"inputs": [
				{
					"internalType": "uint256",
					"name": "",
					"type": "uint256"
				}
			],
			"name": "weaponIdList",
			"outputs": [
				{
					"internalType": "uint256",
					"name": "",
					"type": "uint256"
				}
			],
			"stateMutability": "view",
			"type": "function"
		},
		{
			"inputs": [
				{
					"internalType": "uint256",
					"name": "",
					"type": "uint256"
				}
			],
			"name": "weaponMap",
			"outputs": [
				{
					"internalType": "uint256",
					"name": "atkRange",
					"type": "uint256"
				},
				{
					"internalType": "uint256",
					"name": "flySpeed",
					"type": "uint256"
				},
				{
					"internalType": "uint256",
					"name": "bulletNum",
					"type": "uint256"
				},
				{
					"internalType": "uint256",
					"name": "reload",
					"type": "uint256"
				},
				{
					"internalType": "uint256",
					"name": "priceType",
					"type": "uint256"
				},
				{
					"internalType": "uint256",
					"name": "price",
					"type": "uint256"
				}
			],
			"stateMutability": "view",
			"type": "function"
		}
	]
}