{
	"data": {
		"bytecode": {
			"linkReferences": {},
			"object": "60806040523480156200001157600080fd5b506200001c62000022565b6200094f565b6040805161012081018252600560e0808301918252644865726f3160d81b61010084015290825260036020808401919091528351808301855261014a815261015e818301526101688186015261017260608083019190915261017c60808084019190915261019060a0808501919091526101c260c085810191909152878901949094528751808701895260018082526002828801526004828b0152600682860152600882850152600982840152600a82870152848901919091528851968701895261020887526102129587019590955261021c97860197909752610226918501919091526102308482015261023a84870152610244848301528401929092526000938301849052908201839052825490810183559180528051909160070260008051602062000ed78339815191520190819062000160908262000883565b50602082015160018201556040820151620001829060028301906007620006a4565b5060608201516200019a906003830190600762000741565b506080820151620001b29060048301906007620006a4565b5060a08281015160058084019190915560c093840151600693840155604080516101208101825260e0808201848152642432b9379960d91b610100840152825260036020808401919091528351808301855261015e81526101728183015261017c818601526101866060828101919091526101a46080838101919091526101ae838a01526101b8838c01528587019290925285518085018752600281526004818501528087019790975286810198909852600886820152600a86880152600c868a0152878401959095528351918201845261020d8252610217908201526102219281019290925261022b948201949094526102358183015261023f81840152610258818601529083015260009082018190526103e89282019290925281546001810183559180528051909160070260008051602062000ed78339815191520190819062000300908262000883565b50602082015160018201556040820151620003229060028301906007620006a4565b5060608201516200033a906003830190600762000741565b506080820151620003529060048301906007620006a4565b5060a08281015160058084019190915560c093840151600693840155604080516101208101825260e0808201938452644865726f3360d81b610100830152928152600460208083018290528351808601855261016881526101728183015261017c818601526101866060828101919091526101906080838101919091526101a4838a01526101c2838c0152858701929092528551808801875293845283830198909852600883860152600a83890152600c83820152600e838801526012838a0152878401929092528351948501845261020b85526102169085015261022c928401929092526102409483019490945261024b8282015261025a828401526102708286015283015260009082018190526109c49282019290925281546001810183559180528051909160070260008051602062000ed7833981519152019081906200049d908262000883565b50602082015160018201556040820151620004bf9060028301906007620006a4565b506060820151620004d7906003830190600762000741565b506080820151620004ef9060048301906007620006a4565b5060a08281015160058084019190915560c093840151600693840155604080516101208101825260e080820193845264121c995bcd60da1b61010083015292815260208082018690528251808501845261019081526101a4818301526101b8818501526101cc6060828101919091526101e06080838101919091526101f483890152610208838b01528486019290925284518087018652600180825260028286015260048288015281830199909952600881840152600a81890152600c818b015281850152845195860185526101f686526102019286019290925261020b938501939093526102159084015261021f838301526102298385015261023383870152908101919091529081018290526103e89281019290925260008054918201815580528151600790910260008051602062000ed78339815191520190819062000639908262000883565b506020820151600182015560408201516200065b9060028301906007620006a4565b50606082015162000673906003830190600762000741565b5060808201516200068b9060048301906007620006a4565b5060a0820151816005015560c082015181600601555050565b6001830191839082156200072f5791602002820160005b83821115620006fd57835183826101000a81548161ffff021916908361ffff1602179055509260200192600201602081600101049283019260010302620006bb565b80156200072d5782816101000a81549061ffff0219169055600201602081600101049283019260010302620006fd565b505b506200073d929150620007c7565b5090565b6001830191839082156200072f5791602002820160005b838211156200079857835183826101000a81548160ff021916908360ff160217905550926020019260010160208160000104928301926001030262000758565b80156200072d5782816101000a81549060ff021916905560010160208160000104928301926001030262000798565b5b808211156200073d5760008155600101620007c8565b634e487b7160e01b600052604160045260246000fd5b600181811c908216806200080957607f821691505b6020821081036200082a57634e487b7160e01b600052602260045260246000fd5b50919050565b601f8211156200087e57600081815260208120601f850160051c81016020861015620008595750805b601f850160051c820191505b818110156200087a5782815560010162000865565b5050505b505050565b81516001600160401b038111156200089f576200089f620007de565b620008b781620008b08454620007f4565b8462000830565b602080601f831160018114620008ef5760008415620008d65750858301515b600019600386901b1c1916600185901b1785556200087a565b600085815260208120601f198616915b828110156200092057888601518255948401946001909101908401620008ff565b50858210156200093f5787850151600019600388901b60f8161c191681555b5050505050600190811b01905550565b610578806200095f6000396000f3fe608060405234801561001057600080fd5b50600436106100365760003560e01c806305c4161c1461003b578063f6e8073c14610067575b600080fd5b61004e610049366004610365565b61007c565b60405161005e94939291906103c4565b60405180910390f35b61006f610144565b60405161005e9190610420565b6000818154811061008c57600080fd5b90600052602060002090600702016000915090508060000180546100af90610508565b80601f01602080910402602001604051908101604052809291908181526020018280546100db90610508565b80156101285780601f106100fd57610100808354040283529160200191610128565b820191906000526020600020905b81548152906001019060200180831161010b57829003601f168201915b5050505050908060010154908060050154908060060154905084565b60606000805480602002602001604051908101604052809291908181526020016000905b8282101561035c57838290600052602060002090600702016040518060e001604052908160008201805461019b90610508565b80601f01602080910402602001604051908101604052809291908181526020018280546101c790610508565b80156102145780601f106101e957610100808354040283529160200191610214565b820191906000526020600020905b8154815290600101906020018083116101f757829003601f168201915b5050509183525050600182015460208201526040805160e081018083529190920191906002840190600790826000855b82829054906101000a900461ffff1661ffff16815260200190600201906020826001010492830192600103820291508084116102445750505092845250506040805160e081019182905260209093019291506003840190600790826000855b825461010083900a900460ff168152602060019283018181049485019490930390920291018084116102a35750505092845250506040805160e081019182905260209093019291506004840190600790826000855b82829054906101000a900461ffff1661ffff16815260200190600201906020826001010492830192600103820291508084116102f8579050505050505081526020016005820154815260200160068201548152505081526020019060010190610168565b50505050905090565b60006020828403121561037757600080fd5b5035919050565b6000815180845260005b818110156103a457602081850181015186830182015201610388565b506000602082860101526020601f19601f83011685010191505092915050565b6080815260006103d7608083018761037e565b6020830195909552506040810192909252606090910152919050565b8060005b600781101561041a57815161ffff168452602093840193909101906001016103f7565b50505050565b60006020808301818452808551808352604092508286019150828160051b8701018488016000805b848110156104f957603f198a85030186528251610320815181875261046f8288018261037e565b915050898201518a8701528882015161048a8a8801826103f3565b5060608201516101208701855b60078110156104b757825160ff168252918c0191908c0190600101610497565b50505060808201516104cd6102008801826103f3565b5060a08201516102e087015260c090910151610300909501949094529487019491870191600101610448565b50919998505050505050505050565b600181811c9082168061051c57607f821691505b60208210810361053c57634e487b7160e01b600052602260045260246000fd5b5091905056fea26469706673582212203c4c5630cad1b38d53b03fef6991e8ea3d535ea3d699c1febcf01a9a84dfde0e64736f6c63430008130033290decd9548b62a8d60345a988386fc84ba6bc95484008f6362f93160ef3e563",
			"opcodes": "PUSH1 0x80 PUSH1 0x40 MSTORE CALLVALUE DUP1 ISZERO PUSH3 0x11 JUMPI PUSH1 0x0 DUP1 REVERT JUMPDEST POP PUSH3 0x1C PUSH3 0x22 JUMP JUMPDEST PUSH3 0x94F JUMP JUMPDEST PUSH1 0x40 DUP1 MLOAD PUSH2 0x120 DUP2 ADD DUP3 MSTORE PUSH1 0x5 PUSH1 0xE0 DUP1 DUP4 ADD SWAP2 DUP3 MSTORE PUSH5 0x4865726F31 PUSH1 0xD8 SHL PUSH2 0x100 DUP5 ADD MSTORE SWAP1 DUP3 MSTORE PUSH1 0x3 PUSH1 0x20 DUP1 DUP5 ADD SWAP2 SWAP1 SWAP2 MSTORE DUP4 MLOAD DUP1 DUP4 ADD DUP6 MSTORE PUSH2 0x14A DUP2 MSTORE PUSH2 0x15E DUP2 DUP4 ADD MSTORE PUSH2 0x168 DUP2 DUP7 ADD MSTORE PUSH2 0x172 PUSH1 0x60 DUP1 DUP4 ADD SWAP2 SWAP1 SWAP2 MSTORE PUSH2 0x17C PUSH1 0x80 DUP1 DUP5 ADD SWAP2 SWAP1 SWAP2 MSTORE PUSH2 0x190 PUSH1 0xA0 DUP1 DUP6 ADD SWAP2 SWAP1 SWAP2 MSTORE PUSH2 0x1C2 PUSH1 0xC0 DUP6 DUP2 ADD SWAP2 SWAP1 SWAP2 MSTORE DUP8 DUP10 ADD SWAP5 SWAP1 SWAP5 MSTORE DUP8 MLOAD DUP1 DUP8 ADD DUP10 MSTORE PUSH1 0x1 DUP1 DUP3 MSTORE PUSH1 0x2 DUP3 DUP9 ADD MSTORE PUSH1 0x4 DUP3 DUP12 ADD MSTORE PUSH1 0x6 DUP3 DUP7 ADD MSTORE PUSH1 0x8 DUP3 DUP6 ADD MSTORE PUSH1 0x9 DUP3 DUP5 ADD MSTORE PUSH1 0xA DUP3 DUP8 ADD MSTORE DUP5 DUP10 ADD SWAP2 SWAP1 SWAP2 MSTORE DUP9 MLOAD SWAP7 DUP8 ADD DUP10 MSTORE PUSH2 0x208 DUP8 MSTORE PUSH2 0x212 SWAP6 DUP8 ADD SWAP6 SWAP1 SWAP6 MSTORE PUSH2 0x21C SWAP8 DUP7 ADD SWAP8 SWAP1 SWAP8 MSTORE PUSH2 0x226 SWAP2 DUP6 ADD SWAP2 SWAP1 SWAP2 MSTORE PUSH2 0x230 DUP5 DUP3 ADD MSTORE PUSH2 0x23A DUP5 DUP8 ADD MSTORE PUSH2 0x244 DUP5 DUP4 ADD MSTORE DUP5 ADD SWAP3 SWAP1 SWAP3 MSTORE PUSH1 0x0 SWAP4 DUP4 ADD DUP5 SWAP1 MSTORE SWAP1 DUP3 ADD DUP4 SWAP1 MSTORE DUP3 SLOAD SWAP1 DUP2 ADD DUP4 SSTORE SWAP2 DUP1 MSTORE DUP1 MLOAD SWAP1 SWAP2 PUSH1 0x7 MUL PUSH1 0x0 DUP1 MLOAD PUSH1 0x20 PUSH3 0xED7 DUP4 CODECOPY DUP2 MLOAD SWAP2 MSTORE ADD SWAP1 DUP2 SWAP1 PUSH3 0x160 SWAP1 DUP3 PUSH3 0x883 JUMP JUMPDEST POP PUSH1 0x20 DUP3 ADD MLOAD PUSH1 0x1 DUP3 ADD SSTORE PUSH1 0x40 DUP3 ADD MLOAD PUSH3 0x182 SWAP1 PUSH1 0x2 DUP4 ADD SWAP1 PUSH1 0x7 PUSH3 0x6A4 JUMP JUMPDEST POP PUSH1 0x60 DUP3 ADD MLOAD PUSH3 0x19A SWAP1 PUSH1 0x3 DUP4 ADD SWAP1 PUSH1 0x7 PUSH3 0x741 JUMP JUMPDEST POP PUSH1 0x80 DUP3 ADD MLOAD PUSH3 0x1B2 SWAP1 PUSH1 0x4 DUP4 ADD SWAP1 PUSH1 0x7 PUSH3 0x6A4 JUMP JUMPDEST POP PUSH1 0xA0 DUP3 DUP2 ADD MLOAD PUSH1 0x5 DUP1 DUP5 ADD SWAP2 SWAP1 SWAP2 SSTORE PUSH1 0xC0 SWAP4 DUP5 ADD MLOAD PUSH1 0x6 SWAP4 DUP5 ADD SSTORE PUSH1 0x40 DUP1 MLOAD PUSH2 0x120 DUP2 ADD DUP3 MSTORE PUSH1 0xE0 DUP1 DUP3 ADD DUP5 DUP2 MSTORE PUSH5 0x2432B93799 PUSH1 0xD9 SHL PUSH2 0x100 DUP5 ADD MSTORE DUP3 MSTORE PUSH1 0x3 PUSH1 0x20 DUP1 DUP5 ADD SWAP2 SWAP1 SWAP2 MSTORE DUP4 MLOAD DUP1 DUP4 ADD DUP6 MSTORE PUSH2 0x15E DUP2 MSTORE PUSH2 0x172 DUP2 DUP4 ADD MSTORE PUSH2 0x17C DUP2 DUP7 ADD MSTORE PUSH2 0x186 PUSH1 0x60 DUP3 DUP2 ADD SWAP2 SWAP1 SWAP2 MSTORE PUSH2 0x1A4 PUSH1 0x80 DUP4 DUP2 ADD SWAP2 SWAP1 SWAP2 MSTORE PUSH2 0x1AE DUP4 DUP11 ADD MSTORE PUSH2 0x1B8 DUP4 DUP13 ADD MSTORE DUP6 DUP8 ADD SWAP3 SWAP1 SWAP3 MSTORE DUP6 MLOAD DUP1 DUP6 ADD DUP8 MSTORE PUSH1 0x2 DUP2 MSTORE PUSH1 0x4 DUP2 DUP6 ADD MSTORE DUP1 DUP8 ADD SWAP8 SWAP1 SWAP8 MSTORE DUP7 DUP2 ADD SWAP9 SWAP1 SWAP9 MSTORE PUSH1 0x8 DUP7 DUP3 ADD MSTORE PUSH1 0xA DUP7 DUP9 ADD MSTORE PUSH1 0xC DUP7 DUP11 ADD MSTORE DUP8 DUP5 ADD SWAP6 SWAP1 SWAP6 MSTORE DUP4 MLOAD SWAP2 DUP3 ADD DUP5 MSTORE PUSH2 0x20D DUP3 MSTORE PUSH2 0x217 SWAP1 DUP3 ADD MSTORE PUSH2 0x221 SWAP3 DUP2 ADD SWAP3 SWAP1 SWAP3 MSTORE PUSH2 0x22B SWAP5 DUP3 ADD SWAP5 SWAP1 SWAP5 MSTORE PUSH2 0x235 DUP2 DUP4 ADD MSTORE PUSH2 0x23F DUP2 DUP5 ADD MSTORE PUSH2 0x258 DUP2 DUP7 ADD MSTORE SWAP1 DUP4 ADD MSTORE PUSH1 0x0 SWAP1 DUP3 ADD DUP2 SWAP1 MSTORE PUSH2 0x3E8 SWAP3 DUP3 ADD SWAP3 SWAP1 SWAP3 MSTORE DUP2 SLOAD PUSH1 0x1 DUP2 ADD DUP4 SSTORE SWAP2 DUP1 MSTORE DUP1 MLOAD SWAP1 SWAP2 PUSH1 0x7 MUL PUSH1 0x0 DUP1 MLOAD PUSH1 0x20 PUSH3 0xED7 DUP4 CODECOPY DUP2 MLOAD SWAP2 MSTORE ADD SWAP1 DUP2 SWAP1 PUSH3 0x300 SWAP1 DUP3 PUSH3 0x883 JUMP JUMPDEST POP PUSH1 0x20 DUP3 ADD MLOAD PUSH1 0x1 DUP3 ADD SSTORE PUSH1 0x40 DUP3 ADD MLOAD PUSH3 0x322 SWAP1 PUSH1 0x2 DUP4 ADD SWAP1 PUSH1 0x7 PUSH3 0x6A4 JUMP JUMPDEST POP PUSH1 0x60 DUP3 ADD MLOAD PUSH3 0x33A SWAP1 PUSH1 0x3 DUP4 ADD SWAP1 PUSH1 0x7 PUSH3 0x741 JUMP JUMPDEST POP PUSH1 0x80 DUP3 ADD MLOAD PUSH3 0x352 SWAP1 PUSH1 0x4 DUP4 ADD SWAP1 PUSH1 0x7 PUSH3 0x6A4 JUMP JUMPDEST POP PUSH1 0xA0 DUP3 DUP2 ADD MLOAD PUSH1 0x5 DUP1 DUP5 ADD SWAP2 SWAP1 SWAP2 SSTORE PUSH1 0xC0 SWAP4 DUP5 ADD MLOAD PUSH1 0x6 SWAP4 DUP5 ADD SSTORE PUSH1 0x40 DUP1 MLOAD PUSH2 0x120 DUP2 ADD DUP3 MSTORE PUSH1 0xE0 DUP1 DUP3 ADD SWAP4 DUP5 MSTORE PUSH5 0x4865726F33 PUSH1 0xD8 SHL PUSH2 0x100 DUP4 ADD MSTORE SWAP3 DUP2 MSTORE PUSH1 0x4 PUSH1 0x20 DUP1 DUP4 ADD DUP3 SWAP1 MSTORE DUP4 MLOAD DUP1 DUP7 ADD DUP6 MSTORE PUSH2 0x168 DUP2 MSTORE PUSH2 0x172 DUP2 DUP4 ADD MSTORE PUSH2 0x17C DUP2 DUP7 ADD MSTORE PUSH2 0x186 PUSH1 0x60 DUP3 DUP2 ADD SWAP2 SWAP1 SWAP2 MSTORE PUSH2 0x190 PUSH1 0x80 DUP4 DUP2 ADD SWAP2 SWAP1 SWAP2 MSTORE PUSH2 0x1A4 DUP4 DUP11 ADD MSTORE PUSH2 0x1C2 DUP4 DUP13 ADD MSTORE DUP6 DUP8 ADD SWAP3 SWAP1 SWAP3 MSTORE DUP6 MLOAD DUP1 DUP9 ADD DUP8 MSTORE SWAP4 DUP5 MSTORE DUP4 DUP4 ADD SWAP9 SWAP1 SWAP9 MSTORE PUSH1 0x8 DUP4 DUP7 ADD MSTORE PUSH1 0xA DUP4 DUP10 ADD MSTORE PUSH1 0xC DUP4 DUP3 ADD MSTORE PUSH1 0xE DUP4 DUP9 ADD MSTORE PUSH1 0x12 DUP4 DUP11 ADD MSTORE DUP8 DUP5 ADD SWAP3 SWAP1 SWAP3 MSTORE DUP4 MLOAD SWAP5 DUP6 ADD DUP5 MSTORE PUSH2 0x20B DUP6 MSTORE PUSH2 0x216 SWAP1 DUP6 ADD MSTORE PUSH2 0x22C SWAP3 DUP5 ADD SWAP3 SWAP1 SWAP3 MSTORE PUSH2 0x240 SWAP5 DUP4 ADD SWAP5 SWAP1 SWAP5 MSTORE PUSH2 0x24B DUP3 DUP3 ADD MSTORE PUSH2 0x25A DUP3 DUP5 ADD MSTORE PUSH2 0x270 DUP3 DUP7 ADD MSTORE DUP4 ADD MSTORE PUSH1 0x0 SWAP1 DUP3 ADD DUP2 SWAP1 MSTORE PUSH2 0x9C4 SWAP3 DUP3 ADD SWAP3 SWAP1 SWAP3 MSTORE DUP2 SLOAD PUSH1 0x1 DUP2 ADD DUP4 SSTORE SWAP2 DUP1 MSTORE DUP1 MLOAD SWAP1 SWAP2 PUSH1 0x7 MUL PUSH1 0x0 DUP1 MLOAD PUSH1 0x20 PUSH3 0xED7 DUP4 CODECOPY DUP2 MLOAD SWAP2 MSTORE ADD SWAP1 DUP2 SWAP1 PUSH3 0x49D SWAP1 DUP3 PUSH3 0x883 JUMP JUMPDEST POP PUSH1 0x20 DUP3 ADD MLOAD PUSH1 0x1 DUP3 ADD SSTORE PUSH1 0x40 DUP3 ADD MLOAD PUSH3 0x4BF SWAP1 PUSH1 0x2 DUP4 ADD SWAP1 PUSH1 0x7 PUSH3 0x6A4 JUMP JUMPDEST POP PUSH1 0x60 DUP3 ADD MLOAD PUSH3 0x4D7 SWAP1 PUSH1 0x3 DUP4 ADD SWAP1 PUSH1 0x7 PUSH3 0x741 JUMP JUMPDEST POP PUSH1 0x80 DUP3 ADD MLOAD PUSH3 0x4EF SWAP1 PUSH1 0x4 DUP4 ADD SWAP1 PUSH1 0x7 PUSH3 0x6A4 JUMP JUMPDEST POP PUSH1 0xA0 DUP3 DUP2 ADD MLOAD PUSH1 0x5 DUP1 DUP5 ADD SWAP2 SWAP1 SWAP2 SSTORE PUSH1 0xC0 SWAP4 DUP5 ADD MLOAD PUSH1 0x6 SWAP4 DUP5 ADD SSTORE PUSH1 0x40 DUP1 MLOAD PUSH2 0x120 DUP2 ADD DUP3 MSTORE PUSH1 0xE0 DUP1 DUP3 ADD SWAP4 DUP5 MSTORE PUSH5 0x121C995BCD PUSH1 0xDA SHL PUSH2 0x100 DUP4 ADD MSTORE SWAP3 DUP2 MSTORE PUSH1 0x20 DUP1 DUP3 ADD DUP7 SWAP1 MSTORE DUP3 MLOAD DUP1 DUP6 ADD DUP5 MSTORE PUSH2 0x190 DUP2 MSTORE PUSH2 0x1A4 DUP2 DUP4 ADD MSTORE PUSH2 0x1B8 DUP2 DUP6 ADD MSTORE PUSH2 0x1CC PUSH1 0x60 DUP3 DUP2 ADD SWAP2 SWAP1 SWAP2 MSTORE PUSH2 0x1E0 PUSH1 0x80 DUP4 DUP2 ADD SWAP2 SWAP1 SWAP2 MSTORE PUSH2 0x1F4 DUP4 DUP10 ADD MSTORE PUSH2 0x208 DUP4 DUP12 ADD MSTORE DUP5 DUP7 ADD SWAP3 SWAP1 SWAP3 MSTORE DUP5 MLOAD DUP1 DUP8 ADD DUP7 MSTORE PUSH1 0x1 DUP1 DUP3 MSTORE PUSH1 0x2 DUP3 DUP7 ADD MSTORE PUSH1 0x4 DUP3 DUP9 ADD MSTORE DUP2 DUP4 ADD SWAP10 SWAP1 SWAP10 MSTORE PUSH1 0x8 DUP2 DUP5 ADD MSTORE PUSH1 0xA DUP2 DUP10 ADD MSTORE PUSH1 0xC DUP2 DUP12 ADD MSTORE DUP2 DUP6 ADD MSTORE DUP5 MLOAD SWAP6 DUP7 ADD DUP6 MSTORE PUSH2 0x1F6 DUP7 MSTORE PUSH2 0x201 SWAP3 DUP7 ADD SWAP3 SWAP1 SWAP3 MSTORE PUSH2 0x20B SWAP4 DUP6 ADD SWAP4 SWAP1 SWAP4 MSTORE PUSH2 0x215 SWAP1 DUP5 ADD MSTORE PUSH2 0x21F DUP4 DUP4 ADD MSTORE PUSH2 0x229 DUP4 DUP6 ADD MSTORE PUSH2 0x233 DUP4 DUP8 ADD MSTORE SWAP1 DUP2 ADD SWAP2 SWAP1 SWAP2 MSTORE SWAP1 DUP2 ADD DUP3 SWAP1 MSTORE PUSH2 0x3E8 SWAP3 DUP2 ADD SWAP3 SWAP1 SWAP3 MSTORE PUSH1 0x0 DUP1 SLOAD SWAP2 DUP3 ADD DUP2 SSTORE DUP1 MSTORE DUP2 MLOAD PUSH1 0x7 SWAP1 SWAP2 MUL PUSH1 0x0 DUP1 MLOAD PUSH1 0x20 PUSH3 0xED7 DUP4 CODECOPY DUP2 MLOAD SWAP2 MSTORE ADD SWAP1 DUP2 SWAP1 PUSH3 0x639 SWAP1 DUP3 PUSH3 0x883 JUMP JUMPDEST POP PUSH1 0x20 DUP3 ADD MLOAD PUSH1 0x1 DUP3 ADD SSTORE PUSH1 0x40 DUP3 ADD MLOAD PUSH3 0x65B SWAP1 PUSH1 0x2 DUP4 ADD SWAP1 PUSH1 0x7 PUSH3 0x6A4 JUMP JUMPDEST POP PUSH1 0x60 DUP3 ADD MLOAD PUSH3 0x673 SWAP1 PUSH1 0x3 DUP4 ADD SWAP1 PUSH1 0x7 PUSH3 0x741 JUMP JUMPDEST POP PUSH1 0x80 DUP3 ADD MLOAD PUSH3 0x68B SWAP1 PUSH1 0x4 DUP4 ADD SWAP1 PUSH1 0x7 PUSH3 0x6A4 JUMP JUMPDEST POP PUSH1 0xA0 DUP3 ADD MLOAD DUP2 PUSH1 0x5 ADD SSTORE PUSH1 0xC0 DUP3 ADD MLOAD DUP2 PUSH1 0x6 ADD SSTORE POP POP JUMP JUMPDEST PUSH1 0x1 DUP4 ADD SWAP2 DUP4 SWAP1 DUP3 ISZERO PUSH3 0x72F JUMPI SWAP2 PUSH1 0x20 MUL DUP3 ADD PUSH1 0x0 JUMPDEST DUP4 DUP3 GT ISZERO PUSH3 0x6FD JUMPI DUP4 MLOAD DUP4 DUP3 PUSH2 0x100 EXP DUP2 SLOAD DUP2 PUSH2 0xFFFF MUL NOT AND SWAP1 DUP4 PUSH2 0xFFFF AND MUL OR SWAP1 SSTORE POP SWAP3 PUSH1 0x20 ADD SWAP3 PUSH1 0x2 ADD PUSH1 0x20 DUP2 PUSH1 0x1 ADD DIV SWAP3 DUP4 ADD SWAP3 PUSH1 0x1 SUB MUL PUSH3 0x6BB JUMP JUMPDEST DUP1 ISZERO PUSH3 0x72D JUMPI DUP3 DUP2 PUSH2 0x100 EXP DUP2 SLOAD SWAP1 PUSH2 0xFFFF MUL NOT AND SWAP1 SSTORE PUSH1 0x2 ADD PUSH1 0x20 DUP2 PUSH1 0x1 ADD DIV SWAP3 DUP4 ADD SWAP3 PUSH1 0x1 SUB MUL PUSH3 0x6FD JUMP JUMPDEST POP JUMPDEST POP PUSH3 0x73D SWAP3 SWAP2 POP PUSH3 0x7C7 JUMP JUMPDEST POP SWAP1 JUMP JUMPDEST PUSH1 0x1 DUP4 ADD SWAP2 DUP4 SWAP1 DUP3 ISZERO PUSH3 0x72F JUMPI SWAP2 PUSH1 0x20 MUL DUP3 ADD PUSH1 0x0 JUMPDEST DUP4 DUP3 GT ISZERO PUSH3 0x798 JUMPI DUP4 MLOAD DUP4 DUP3 PUSH2 0x100 EXP DUP2 SLOAD DUP2 PUSH1 0xFF MUL NOT AND SWAP1 DUP4 PUSH1 0xFF AND MUL OR SWAP1 SSTORE POP SWAP3 PUSH1 0x20 ADD SWAP3 PUSH1 0x1 ADD PUSH1 0x20 DUP2 PUSH1 0x0 ADD DIV SWAP3 DUP4 ADD SWAP3 PUSH1 0x1 SUB MUL PUSH3 0x758 JUMP JUMPDEST DUP1 ISZERO PUSH3 0x72D JUMPI DUP3 DUP2 PUSH2 0x100 EXP DUP2 SLOAD SWAP1 PUSH1 0xFF MUL NOT AND SWAP1 SSTORE PUSH1 0x1 ADD PUSH1 0x20 DUP2 PUSH1 0x0 ADD DIV SWAP3 DUP4 ADD SWAP3 PUSH1 0x1 SUB MUL PUSH3 0x798 JUMP JUMPDEST JUMPDEST DUP1 DUP3 GT ISZERO PUSH3 0x73D JUMPI PUSH1 0x0 DUP2 SSTORE PUSH1 0x1 ADD PUSH3 0x7C8 JUMP JUMPDEST PUSH4 0x4E487B71 PUSH1 0xE0 SHL PUSH1 0x0 MSTORE PUSH1 0x41 PUSH1 0x4 MSTORE PUSH1 0x24 PUSH1 0x0 REVERT JUMPDEST PUSH1 0x1 DUP2 DUP2 SHR SWAP1 DUP3 AND DUP1 PUSH3 0x809 JUMPI PUSH1 0x7F DUP3 AND SWAP2 POP JUMPDEST PUSH1 0x20 DUP3 LT DUP2 SUB PUSH3 0x82A JUMPI PUSH4 0x4E487B71 PUSH1 0xE0 SHL PUSH1 0x0 MSTORE PUSH1 0x22 PUSH1 0x4 MSTORE PUSH1 0x24 PUSH1 0x0 REVERT JUMPDEST POP SWAP2 SWAP1 POP JUMP JUMPDEST PUSH1 0x1F DUP3 GT ISZERO PUSH3 0x87E JUMPI PUSH1 0x0 DUP2 DUP2 MSTORE PUSH1 0x20 DUP2 KECCAK256 PUSH1 0x1F DUP6 ADD PUSH1 0x5 SHR DUP2 ADD PUSH1 0x20 DUP7 LT ISZERO PUSH3 0x859 JUMPI POP DUP1 JUMPDEST PUSH1 0x1F DUP6 ADD PUSH1 0x5 SHR DUP3 ADD SWAP2 POP JUMPDEST DUP2 DUP2 LT ISZERO PUSH3 0x87A JUMPI DUP3 DUP2 SSTORE PUSH1 0x1 ADD PUSH3 0x865 JUMP JUMPDEST POP POP POP JUMPDEST POP POP POP JUMP JUMPDEST DUP2 MLOAD PUSH1 0x1 PUSH1 0x1 PUSH1 0x40 SHL SUB DUP2 GT ISZERO PUSH3 0x89F JUMPI PUSH3 0x89F PUSH3 0x7DE JUMP JUMPDEST PUSH3 0x8B7 DUP2 PUSH3 0x8B0 DUP5 SLOAD PUSH3 0x7F4 JUMP JUMPDEST DUP5 PUSH3 0x830 JUMP JUMPDEST PUSH1 0x20 DUP1 PUSH1 0x1F DUP4 GT PUSH1 0x1 DUP2 EQ PUSH3 0x8EF JUMPI PUSH1 0x0 DUP5 ISZERO PUSH3 0x8D6 JUMPI POP DUP6 DUP4 ADD MLOAD JUMPDEST PUSH1 0x0 NOT PUSH1 0x3 DUP7 SWAP1 SHL SHR NOT AND PUSH1 0x1 DUP6 SWAP1 SHL OR DUP6 SSTORE PUSH3 0x87A JUMP JUMPDEST PUSH1 0x0 DUP6 DUP2 MSTORE PUSH1 0x20 DUP2 KECCAK256 PUSH1 0x1F NOT DUP7 AND SWAP2 JUMPDEST DUP3 DUP2 LT ISZERO PUSH3 0x920 JUMPI DUP9 DUP7 ADD MLOAD DUP3 SSTORE SWAP5 DUP5 ADD SWAP5 PUSH1 0x1 SWAP1 SWAP2 ADD SWAP1 DUP5 ADD PUSH3 0x8FF JUMP JUMPDEST POP DUP6 DUP3 LT ISZERO PUSH3 0x93F JUMPI DUP8 DUP6 ADD MLOAD PUSH1 0x0 NOT PUSH1 0x3 DUP9 SWAP1 SHL PUSH1 0xF8 AND SHR NOT AND DUP2 SSTORE JUMPDEST POP POP POP POP POP PUSH1 0x1 SWAP1 DUP2 SHL ADD SWAP1 SSTORE POP JUMP JUMPDEST PUSH2 0x578 DUP1 PUSH3 0x95F PUSH1 0x0 CODECOPY PUSH1 0x0 RETURN INVALID PUSH1 0x80 PUSH1 0x40 MSTORE CALLVALUE DUP1 ISZERO PUSH2 0x10 JUMPI PUSH1 0x0 DUP1 REVERT JUMPDEST POP PUSH1 0x4 CALLDATASIZE LT PUSH2 0x36 JUMPI PUSH1 0x0 CALLDATALOAD PUSH1 0xE0 SHR DUP1 PUSH4 0x5C4161C EQ PUSH2 0x3B JUMPI DUP1 PUSH4 0xF6E8073C EQ PUSH2 0x67 JUMPI JUMPDEST PUSH1 0x0 DUP1 REVERT JUMPDEST PUSH2 0x4E PUSH2 0x49 CALLDATASIZE PUSH1 0x4 PUSH2 0x365 JUMP JUMPDEST PUSH2 0x7C JUMP JUMPDEST PUSH1 0x40 MLOAD PUSH2 0x5E SWAP5 SWAP4 SWAP3 SWAP2 SWAP1 PUSH2 0x3C4 JUMP JUMPDEST PUSH1 0x40 MLOAD DUP1 SWAP2 SUB SWAP1 RETURN JUMPDEST PUSH2 0x6F PUSH2 0x144 JUMP JUMPDEST PUSH1 0x40 MLOAD PUSH2 0x5E SWAP2 SWAP1 PUSH2 0x420 JUMP JUMPDEST PUSH1 0x0 DUP2 DUP2 SLOAD DUP2 LT PUSH2 0x8C JUMPI PUSH1 0x0 DUP1 REVERT JUMPDEST SWAP1 PUSH1 0x0 MSTORE PUSH1 0x20 PUSH1 0x0 KECCAK256 SWAP1 PUSH1 0x7 MUL ADD PUSH1 0x0 SWAP2 POP SWAP1 POP DUP1 PUSH1 0x0 ADD DUP1 SLOAD PUSH2 0xAF SWAP1 PUSH2 0x508 JUMP JUMPDEST DUP1 PUSH1 0x1F ADD PUSH1 0x20 DUP1 SWAP2 DIV MUL PUSH1 0x20 ADD PUSH1 0x40 MLOAD SWAP1 DUP2 ADD PUSH1 0x40 MSTORE DUP1 SWAP3 SWAP2 SWAP1 DUP2 DUP2 MSTORE PUSH1 0x20 ADD DUP3 DUP1 SLOAD PUSH2 0xDB SWAP1 PUSH2 0x508 JUMP JUMPDEST DUP1 ISZERO PUSH2 0x128 JUMPI DUP1 PUSH1 0x1F LT PUSH2 0xFD JUMPI PUSH2 0x100 DUP1 DUP4 SLOAD DIV MUL DUP4 MSTORE SWAP2 PUSH1 0x20 ADD SWAP2 PUSH2 0x128 JUMP JUMPDEST DUP3 ADD SWAP2 SWAP1 PUSH1 0x0 MSTORE PUSH1 0x20 PUSH1 0x0 KECCAK256 SWAP1 JUMPDEST DUP2 SLOAD DUP2 MSTORE SWAP1 PUSH1 0x1 ADD SWAP1 PUSH1 0x20 ADD DUP1 DUP4 GT PUSH2 0x10B JUMPI DUP3 SWAP1 SUB PUSH1 0x1F AND DUP3 ADD SWAP2 JUMPDEST POP POP POP POP POP SWAP1 DUP1 PUSH1 0x1 ADD SLOAD SWAP1 DUP1 PUSH1 0x5 ADD SLOAD SWAP1 DUP1 PUSH1 0x6 ADD SLOAD SWAP1 POP DUP5 JUMP JUMPDEST PUSH1 0x60 PUSH1 0x0 DUP1 SLOAD DUP1 PUSH1 0x20 MUL PUSH1 0x20 ADD PUSH1 0x40 MLOAD SWAP1 DUP2 ADD PUSH1 0x40 MSTORE DUP1 SWAP3 SWAP2 SWAP1 DUP2 DUP2 MSTORE PUSH1 0x20 ADD PUSH1 0x0 SWAP1 JUMPDEST DUP3 DUP3 LT ISZERO PUSH2 0x35C JUMPI DUP4 DUP3 SWAP1 PUSH1 0x0 MSTORE PUSH1 0x20 PUSH1 0x0 KECCAK256 SWAP1 PUSH1 0x7 MUL ADD PUSH1 0x40 MLOAD DUP1 PUSH1 0xE0 ADD PUSH1 0x40 MSTORE SWAP1 DUP2 PUSH1 0x0 DUP3 ADD DUP1 SLOAD PUSH2 0x19B SWAP1 PUSH2 0x508 JUMP JUMPDEST DUP1 PUSH1 0x1F ADD PUSH1 0x20 DUP1 SWAP2 DIV MUL PUSH1 0x20 ADD PUSH1 0x40 MLOAD SWAP1 DUP2 ADD PUSH1 0x40 MSTORE DUP1 SWAP3 SWAP2 SWAP1 DUP2 DUP2 MSTORE PUSH1 0x20 ADD DUP3 DUP1 SLOAD PUSH2 0x1C7 SWAP1 PUSH2 0x508 JUMP JUMPDEST DUP1 ISZERO PUSH2 0x214 JUMPI DUP1 PUSH1 0x1F LT PUSH2 0x1E9 JUMPI PUSH2 0x100 DUP1 DUP4 SLOAD DIV MUL DUP4 MSTORE SWAP2 PUSH1 0x20 ADD SWAP2 PUSH2 0x214 JUMP JUMPDEST DUP3 ADD SWAP2 SWAP1 PUSH1 0x0 MSTORE PUSH1 0x20 PUSH1 0x0 KECCAK256 SWAP1 JUMPDEST DUP2 SLOAD DUP2 MSTORE SWAP1 PUSH1 0x1 ADD SWAP1 PUSH1 0x20 ADD DUP1 DUP4 GT PUSH2 0x1F7 JUMPI DUP3 SWAP1 SUB PUSH1 0x1F AND DUP3 ADD SWAP2 JUMPDEST POP POP POP SWAP2 DUP4 MSTORE POP POP PUSH1 0x1 DUP3 ADD SLOAD PUSH1 0x20 DUP3 ADD MSTORE PUSH1 0x40 DUP1 MLOAD PUSH1 0xE0 DUP2 ADD DUP1 DUP4 MSTORE SWAP2 SWAP1 SWAP3 ADD SWAP2 SWAP1 PUSH1 0x2 DUP5 ADD SWAP1 PUSH1 0x7 SWAP1 DUP3 PUSH1 0x0 DUP6 JUMPDEST DUP3 DUP3 SWAP1 SLOAD SWAP1 PUSH2 0x100 EXP SWAP1 DIV PUSH2 0xFFFF AND PUSH2 0xFFFF AND DUP2 MSTORE PUSH1 0x20 ADD SWAP1 PUSH1 0x2 ADD SWAP1 PUSH1 0x20 DUP3 PUSH1 0x1 ADD DIV SWAP3 DUP4 ADD SWAP3 PUSH1 0x1 SUB DUP3 MUL SWAP2 POP DUP1 DUP5 GT PUSH2 0x244 JUMPI POP POP POP SWAP3 DUP5 MSTORE POP POP PUSH1 0x40 DUP1 MLOAD PUSH1 0xE0 DUP2 ADD SWAP2 DUP3 SWAP1 MSTORE PUSH1 0x20 SWAP1 SWAP4 ADD SWAP3 SWAP2 POP PUSH1 0x3 DUP5 ADD SWAP1 PUSH1 0x7 SWAP1 DUP3 PUSH1 0x0 DUP6 JUMPDEST DUP3 SLOAD PUSH2 0x100 DUP4 SWAP1 EXP SWAP1 DIV PUSH1 0xFF AND DUP2 MSTORE PUSH1 0x20 PUSH1 0x1 SWAP3 DUP4 ADD DUP2 DUP2 DIV SWAP5 DUP6 ADD SWAP5 SWAP1 SWAP4 SUB SWAP1 SWAP3 MUL SWAP2 ADD DUP1 DUP5 GT PUSH2 0x2A3 JUMPI POP POP POP SWAP3 DUP5 MSTORE POP POP PUSH1 0x40 DUP1 MLOAD PUSH1 0xE0 DUP2 ADD SWAP2 DUP3 SWAP1 MSTORE PUSH1 0x20 SWAP1 SWAP4 ADD SWAP3 SWAP2 POP PUSH1 0x4 DUP5 ADD SWAP1 PUSH1 0x7 SWAP1 DUP3 PUSH1 0x0 DUP6 JUMPDEST DUP3 DUP3 SWAP1 SLOAD SWAP1 PUSH2 0x100 EXP SWAP1 DIV PUSH2 0xFFFF AND PUSH2 0xFFFF AND DUP2 MSTORE PUSH1 0x20 ADD SWAP1 PUSH1 0x2 ADD SWAP1 PUSH1 0x20 DUP3 PUSH1 0x1 ADD DIV SWAP3 DUP4 ADD SWAP3 PUSH1 0x1 SUB DUP3 MUL SWAP2 POP DUP1 DUP5 GT PUSH2 0x2F8 JUMPI SWAP1 POP POP POP POP POP POP DUP2 MSTORE PUSH1 0x20 ADD PUSH1 0x5 DUP3 ADD SLOAD DUP2 MSTORE PUSH1 0x20 ADD PUSH1 0x6 DUP3 ADD SLOAD DUP2 MSTORE POP POP DUP2 MSTORE PUSH1 0x20 ADD SWAP1 PUSH1 0x1 ADD SWAP1 PUSH2 0x168 JUMP JUMPDEST POP POP POP POP SWAP1 POP SWAP1 JUMP JUMPDEST PUSH1 0x0 PUSH1 0x20 DUP3 DUP5 SUB SLT ISZERO PUSH2 0x377 JUMPI PUSH1 0x0 DUP1 REVERT JUMPDEST POP CALLDATALOAD SWAP2 SWAP1 POP JUMP JUMPDEST PUSH1 0x0 DUP2 MLOAD DUP1 DUP5 MSTORE PUSH1 0x0 JUMPDEST DUP2 DUP2 LT ISZERO PUSH2 0x3A4 JUMPI PUSH1 0x20 DUP2 DUP6 ADD DUP2 ADD MLOAD DUP7 DUP4 ADD DUP3 ADD MSTORE ADD PUSH2 0x388 JUMP JUMPDEST POP PUSH1 0x0 PUSH1 0x20 DUP3 DUP7 ADD ADD MSTORE PUSH1 0x20 PUSH1 0x1F NOT PUSH1 0x1F DUP4 ADD AND DUP6 ADD ADD SWAP2 POP POP SWAP3 SWAP2 POP POP JUMP JUMPDEST PUSH1 0x80 DUP2 MSTORE PUSH1 0x0 PUSH2 0x3D7 PUSH1 0x80 DUP4 ADD DUP8 PUSH2 0x37E JUMP JUMPDEST PUSH1 0x20 DUP4 ADD SWAP6 SWAP1 SWAP6 MSTORE POP PUSH1 0x40 DUP2 ADD SWAP3 SWAP1 SWAP3 MSTORE PUSH1 0x60 SWAP1 SWAP2 ADD MSTORE SWAP2 SWAP1 POP JUMP JUMPDEST DUP1 PUSH1 0x0 JUMPDEST PUSH1 0x7 DUP2 LT ISZERO PUSH2 0x41A JUMPI DUP2 MLOAD PUSH2 0xFFFF AND DUP5 MSTORE PUSH1 0x20 SWAP4 DUP5 ADD SWAP4 SWAP1 SWAP2 ADD SWAP1 PUSH1 0x1 ADD PUSH2 0x3F7 JUMP JUMPDEST POP POP POP POP JUMP JUMPDEST PUSH1 0x0 PUSH1 0x20 DUP1 DUP4 ADD DUP2 DUP5 MSTORE DUP1 DUP6 MLOAD DUP1 DUP4 MSTORE PUSH1 0x40 SWAP3 POP DUP3 DUP7 ADD SWAP2 POP DUP3 DUP2 PUSH1 0x5 SHL DUP8 ADD ADD DUP5 DUP9 ADD PUSH1 0x0 DUP1 JUMPDEST DUP5 DUP2 LT ISZERO PUSH2 0x4F9 JUMPI PUSH1 0x3F NOT DUP11 DUP6 SUB ADD DUP7 MSTORE DUP3 MLOAD PUSH2 0x320 DUP2 MLOAD DUP2 DUP8 MSTORE PUSH2 0x46F DUP3 DUP9 ADD DUP3 PUSH2 0x37E JUMP JUMPDEST SWAP2 POP POP DUP10 DUP3 ADD MLOAD DUP11 DUP8 ADD MSTORE DUP9 DUP3 ADD MLOAD PUSH2 0x48A DUP11 DUP9 ADD DUP3 PUSH2 0x3F3 JUMP JUMPDEST POP PUSH1 0x60 DUP3 ADD MLOAD PUSH2 0x120 DUP8 ADD DUP6 JUMPDEST PUSH1 0x7 DUP2 LT ISZERO PUSH2 0x4B7 JUMPI DUP3 MLOAD PUSH1 0xFF AND DUP3 MSTORE SWAP2 DUP13 ADD SWAP2 SWAP1 DUP13 ADD SWAP1 PUSH1 0x1 ADD PUSH2 0x497 JUMP JUMPDEST POP POP POP PUSH1 0x80 DUP3 ADD MLOAD PUSH2 0x4CD PUSH2 0x200 DUP9 ADD DUP3 PUSH2 0x3F3 JUMP JUMPDEST POP PUSH1 0xA0 DUP3 ADD MLOAD PUSH2 0x2E0 DUP8 ADD MSTORE PUSH1 0xC0 SWAP1 SWAP2 ADD MLOAD PUSH2 0x300 SWAP1 SWAP6 ADD SWAP5 SWAP1 SWAP5 MSTORE SWAP5 DUP8 ADD SWAP5 SWAP2 DUP8 ADD SWAP2 PUSH1 0x1 ADD PUSH2 0x448 JUMP JUMPDEST POP SWAP2 SWAP10 SWAP9 POP POP POP POP POP POP POP POP POP JUMP JUMPDEST PUSH1 0x1 DUP2 DUP2 SHR SWAP1 DUP3 AND DUP1 PUSH2 0x51C JUMPI PUSH1 0x7F DUP3 AND SWAP2 POP JUMPDEST PUSH1 0x20 DUP3 LT DUP2 SUB PUSH2 0x53C JUMPI PUSH4 0x4E487B71 PUSH1 0xE0 SHL PUSH1 0x0 MSTORE PUSH1 0x22 PUSH1 0x4 MSTORE PUSH1 0x24 PUSH1 0x0 REVERT JUMPDEST POP SWAP2 SWAP1 POP JUMP INVALID LOG2 PUSH5 0x6970667358 0x22 SLT KECCAK256 EXTCODECOPY 0x4C JUMP ADDRESS 0xCA 0xD1 0xB3 DUP14 MSTORE8 0xB0 EXTCODEHASH 0xEF PUSH10 0x91E8EA3D535EA3D699C1 INVALID 0xBC CREATE BYTE SWAP11 DUP5 0xDF 0xDE 0xE PUSH5 0x736F6C6343 STOP ADDMOD SGT STOP CALLER 0x29 0xD 0xEC 0xD9 SLOAD DUP12 PUSH3 0xA8D603 GASLIMIT 0xA9 DUP9 CODESIZE PUSH16 0xC84BA6BC95484008F6362F93160EF3E5 PUSH4 0x0 "
		},
		"gasEstimates": {
			"creation": {
				"codeDepositCost": "280000",
				"executionCost": "infinite",
				"totalCost": "infinite"
			},
			"external": {
				"getAllSkin()": "infinite",
				"skinList(uint256)": "infinite"
			},
			"internal": {
				"initSkinList()": "infinite"
			}
		},
		"methodIdentifiers": {
			"getAllSkin()": "f6e8073c",
			"skinList(uint256)": "05c4161c"
		}
	},
	"abi": [
		{
			"inputs": [],
			"stateMutability": "nonpayable",
			"type": "constructor"
		},
		{
			"inputs": [],
			"name": "getAllSkin",
			"outputs": [
				{
					"components": [
						{
							"internalType": "string",
							"name": "name",
							"type": "string"
						},
						{
							"internalType": "uint256",
							"name": "life",
							"type": "uint256"
						},
						{
							"internalType": "uint16[7]",
							"name": "hp",
							"type": "uint16[7]"
						},
						{
							"internalType": "uint8[7]",
							"name": "atk",
							"type": "uint8[7]"
						},
						{
							"internalType": "uint16[7]",
							"name": "speed",
							"type": "uint16[7]"
						},
						{
							"internalType": "uint256",
							"name": "priceType",
							"type": "uint256"
						},
						{
							"internalType": "uint256",
							"name": "price",
							"type": "uint256"
						}
					],
					"internalType": "struct GameStaticD.Skin[]",
					"name": "",
					"type": "tuple[]"
				}
			],
			"stateMutability": "view",
			"type": "function"
		},
		{
			"inputs": [
				{
					"internalType": "uint256",
					"name": "",
					"type": "uint256"
				}
			],
			"name": "skinList",
			"outputs": [
				{
					"internalType": "string",
					"name": "name",
					"type": "string"
				},
				{
					"internalType": "uint256",
					"name": "life",
					"type": "uint256"
				},
				{
					"internalType": "uint256",
					"name": "priceType",
					"type": "uint256"
				},
				{
					"internalType": "uint256",
					"name": "price",
					"type": "uint256"
				}
			],
			"stateMutability": "view",
			"type": "function"
		}
	]
}