{
	"data": {
		"bytecode": {
			"linkReferences": {},
			"object": "608060405234801561001057600080fd5b50612d48806100206000396000f3fe608060405234801561001057600080fd5b50600436106100365760003560e01c8063937f6a101461003b578063ea50d0e41461006e575b600080fd5b6040517f0723c3097750be26a937625d1611dbab6038152000587dce350100c85a2ff23e81526020015b60405180910390f35b61008161007c366004612c4d565b610091565b6040519015158152602001610065565b6110006103805260016103a0527f0931d596de2fd10f01ddd073fd5a90a976f169c76f039bb91c4775720042d43a6103c0527f3061482dfa038d0fb5b4c0b226194047a2616509f531d4fa3acdb77496c100016103e0527f0bbe82d5aa663b60b5f65d1f164b89454f209428c09b395e2a9ef1cd9160607b610400527f249a12d2d02ed07c1cda0d7924bc542b5346e013079c1fde900d51e52e81b12c610420527f1870fb55d018b962c2a584f755af2f91c7cf8a04d0e00c0acfc2daca6573de79610440527f0ec16b6c58a9eb4ebff0015f2c7bb3f2fca64e7c9b797fd51e5884cb30be7bb6610460527f1a1faabf5a8426aa092afa3787e9b3f66259f8c2e5bdd464233e83f193f92ab1610480527f1a497a0936c8a939cc5d5ba5528e07163baf64f35ada0f2c92ee6207acd204a56104a0527f09a322b5e792ea9adb829c208971cf949e5ea19ba91a9c3b43f3c1fe1498ed566104c0527f0c64d1d6158f01ea506966855588daeefbdb0da0f819e137fceff858a5ee7f676104e0527f1f99ab321383bab6bcd6066e1d4a7b95459d2747117405e196ccaebcba1baf91610500527f0d7d83510f2b89a66cddb5443badfd9edc0e50d1edf99b7fa6fb114cd078a3b0610520527f1025a7cb22c8d86fae82555e2a2119b3cc4bd8c7fef3997880695595c3cdf317610540527f1d342cfd6c145e85eff72d96a395f1acf38bb5887f7294c1322452760347a162610560527f2c8d70957fba16bf0deb46d66f20d5c8f9706a760817507dc462a56e1e878943610580527f193804669654a117828e0899115a8e83b87a23464798bbbbf998e401cbfdece16105a0527f04d6636af9ee7a5418fe08c575087490675ccd7e5b1a87fd0f1872fae9f2cc986105c0527f1cab61aab7e1c3108a6fe17ff83d5bdb2bad16fc60c2c79e2580961cb576ea6f6105e0527f13982fd0cf8da5082a77561113bb5ee51e2e82380da3da5ad0f24e49e5f32208610600527f1aa5ffd5aa4c16d1c66e18c4574a3ab0b25e9b4e4e04ad1280d1a264237717e0610620527f1750f44d3f9dfad78a1e2127ef91051ce018f20536fe45ca28dcc7b248389fc0610640527f1a05418f502a965c39994cd3f83e39164b49c0f27d4f5ac4550751cc0a24bb58610660527f290d103355ebd0291499e09691b3b34e3b79f6482951858d8d74f4c85018f294610680527f26f5bd3fcf2ddaa3459b92c3df39bf19a6d056b70b52de4cc411e0765ab6c97d6106a0527f1d0686238a2964d773746b7b2dfb348a8ec39924219e4250c38fffc634cbd2c46106c0527f0b34b8b3c2b6f5dac418ed83160bfaa02c1b70674c2db3347bb1ade72a5fa2d06106e0527f0b7bb2a3f741c6e8da5bbe4d54b638949ce9c13819613c4a5d1a2023cf2689cc610700527f103365c23766b956df82c454ff38a4523bd4f3db946bffb3c5e7b0a2fdec3044610720527f23b4f445f7516f8f743fc3084c447362b8bf6828c1117a9342081d3660ccc589610740527ec0dc4c94ba2804287045d186b7c3baf6babc6ccbe20f5ed38ea40483580572610760527f259f452dc7fd2dda4013dba2196852bcf43c285b1d1f7f85341f3615d25fe97b610780527f117500555dd886209c0b10ee8cd10e711e890a1c99a8f689419da8c52d2e8e9d6107a0527f2577f542178a07dac262fdabad6f55a84fca32b13b92e520bb91a7455f78ccf16107c0527f0fc87ae27122e60eaacc070bd59aafe12644a82ee1345497f8c0302e92925c686107e0527f1612f501335a4b72ac55dbe2fd1a75e5fe2c041687603b6577581d673d13be50610800527f160e8ef7ff5315cb640ec82e965db270846e904bb7d1c7ff02f32823de6c1c71610820527f2d540ff1653b38acbcb9cda315442364007633f529476b2f169a0ff131bfb319610840527f2198b9feb61f8160e357b8bb7ca329713898655cc94a0ac2d84944c737cf57e5610860527f11c8df52c3ef754f80d11792cea4b7ad74612e486596cbe7f7d6a05f19c69444610880527f10c8a36cbb2fd9ed8875b5106a37162ac2932f3bd1b6942b132546d2110a63e26108a0527f2a7b7e7256b227659bd26dc5e7c3d3d6dc8ad25dac15201f11c2fb91459d0a026108c0527f253fd29a0d331d8d96ece03117ffefc863d608ead6cacd60ac030072ca892a126108e0527f0f3cc0817788d2ea201656a942d7f0f9ce2c9c86efd49005b1f85c80555efc14610900527f1f4d1d4d8ef3c83137bc3d308bf7b27597b2fdd39636f33f009794ef7bebb4e1610920527f15208516370a172ba0ee95d93a4ad8c1d4eef58c4f7c6f5fc49ebe609372d9b9610940527f1f6627682d06725c3367fe017d33283e494ee9fe747f7a243b7e97b22b8da9b9610960527f28c6f4174510cd56fe68110abbf518adc40a825c041e71524fa59fc6f36a2083610980527f20207e19afb3d0b99c3287f9b57e642024be755e63252c38cccd02e0f2a53ce96109a05260006109c08190526109e08190527f260e01b251f6f1c7e7ff4e580791dee8ea51d87a358e038b4efe30fac09383c1610a00527f0118c4d5b837bcc2bc89b5b398b5974e9f5944073b32078b7e231fec938883b0610a20527f04fc6369f7110fe3d25156c1bb9a72859cf2a04641f99ba4ee413c80da6a5fe4610a40527f22febda3c0c0632a56475b4214e5615e11e6dd3f96e6cea2854a87d4dacc5e55610a60527f1af864d211b88d9ccf2e371c2ba088d9269d3fdea04e05acb6f70f8dc79e0e57613400526103a05182811461088657604051637667dc9b60e01b8152600481018290526024810184905260440160405180910390fd5b7f30644e72e131a029b85045b68181585d97816a916871ca8d3c208c16d87cfd477f30644e72e131a029b85045b68181585d2833e84879b9709143e1f593f00000016024600435018281350661122052826020820135066112005282604082013506611260528260608201350661124052826080820135066112a0528260a082013506611280528260c0820135066112e0528260e0820135066112c05282610100820135066113205282610120820135066113005282610140820135066113605282610160820135066113405282610180820135066113a052826101a08201350661138052826101c0820135066113e052826101e0820135066113c05282610200820135066114205282610220820135066114005282610240820135066114605282610260820135066114405282610280820135066114a052826102a08201350661148052816102c08201350661160052816102e0820135066116205281610300820135066116405281610320820135066116605281610340820135066116805281610360820135066116a05281610380820135066116c052816103a0820135066116e052816103c08201350661170052816103e0820135066117205281610400820135066117405281610420820135066117605281610440820135066117805281610460820135066117a05281610480820135066117c052816104a0820135066117e052816104c08201350661180052816104e0820135066119605281610500820135066119805281610520820135066119a05281610540820135066119c052816105608201350661184052816105808201350661186052816105a08201350661188052816105c0820135066118a052816105e0820135066118c05281610600820135066118e05281610620820135066119005281610640820135066119205281610660820135066119405281610680820135066119e052816106a08201350661200052816106c08201350661202052816106e0820135066120405281610700820135066120605281610720820135066120805281610740820135066120a05281610760820135066120c05281610780820135066120e052816107a08201350661210052816107c08201350661212052826107e08201350661232052826108008201350661230052826108208201350661236052826108408201350661234052506109c05115610ce8576024803501806109e05160051b0190508035602082013560441b81019050604082013560881b81019050606082013560cc1b81019050608082013560a083013560441b8101905060c083013560881b8101905060e083013560cc1b8101905061010083013561012084013560441b8101905061014084013560881b8101905061016084013560cc1b810190506101808401356101a085013560441b810190506101c085013560881b810190506101e085013560cc1b810190508361350052826135205281613540528061356052868110878410168783108886101616610ce2576375d4fa5360e11b60005260046000fd5b50505050505b6103805160e01b6000526103a05160e01b60045260086000208061358052602480350160206103a05102808260206135800137600435602401915060c0826135a083013760e0016135802083810661266081905290925090508281800961268052828161268051096126a05250806000526112e0516020526112c051604052611320516060526113005160805260a0600020905081810661260052806000526001602053506021600090812082810661262052815261136051602052611340516040526113a0516060526113805160805260a09020818106612640819052828180096134205282816134205109613440528281613440510961346052806134805250806000526113e0516020526113c05160405261142051606052611400516080526114605160a0526114405160c0526114a05160e052611480516101005261012060002090508181066126c052806126e0525061260051612620516103c051600180856001602480350160206103a0510281018360058a0984600c8b0999505b81831015610ea857823585811085169450858a82089050858183018909975085818c01880996505084888209905084888b099950602083019250610e69565b50505080610ec15763374a972f60e01b60005260046000fd5b50508161300052806130205250505050508081600161260051086126205109806103805160015b81811015610efd578483840992508001610ee8565b5050613100528181800990508181820961312052506126c05161038051819060015b81811015610f34578483840992508001610f1f565b50508061304052826001840382089050613400518084036103e051858286088684840992508687848808820990508684840992508687848808820990508687888686098808820990506103c051925086828609915086600188038708878485099450876001890389898b888d8b8c0909090896506130205194508493508782860994508488878709955085898388099650868a61312051890997508760206000526020805260206040528b8b8a0960605260028c036080528b60a0526020600060c0600060055afa61101157633e2529ef60e21b60005260046000fd5b60005198508b818a0990508b8b8a0998508b828a0991508b613120518a0998508b838a0992508b858a0998508b848a0993508b8a8a0998508b888a0997508b868a0998508b613020518d8b8c090998508b896130005109613060528b888b09613080528b848709613780528b8388096130a0528b826131005109613140528b8188096130c052505050505050505050505061264051506126005161262051828361190051840982611620510101846118e051850983611600510101098384611940518509836116605101018561192051860984611640510101098485868385096116a051096134805109858661198051870985611620510101876119605188098661160051010109925085866119c051870985611660510101876119a0518809866116405101010991508586878885870961208051096134805109870382089050856126405161348051096134805285868788613060518a0361208051086130c0510961348051098208905085612640516134805109613480528586878860018a036116a051086130a05109613480510982086136005250505050508061264051613480510961348052806117205161266051098182836120205161178051096116405108820890508161266051820990508182836120005161176051096116205108820890508161266051820990508182836119e0516117005109611600510882089050816118405183846126605161186051098586612680516118805109876126a0516118a05109080808826120c0518485612660516120e051098687612680516121005109886126a051612120510908080883846001612600510861262051098461262051866118c051870908935084818687612600518609860808925084838509935084856001612600510885099350846130a05161264051099250848385089350846116c0518509935084838603850893508481868761260051612060510961168051080892505050826130c05161342051098381850383089150836120a05183099150838461314051830983089150508261348051848386038508096136205250508061344051613480510961348052806116e0516116005109816117005161162051098261172051611640510983611740516116605109847f183227397098d014dc2822db40c0ac2e9419f4243cdcb848a1f0fac9f80000008687600389036117a0510888611760518a6116205161160051090909098586878889858a08880886088408611780510894505050505081828384856116605161160051086119e051870308611760510884600286036117a05108096126405109828384858685612040510887600189036117a051080985086117a05109613480510961364052505080613420516134805109613480526002810360038203826116005184036116205108836116205185036116405108846116405186036116605108856116605187036119e05108866134805188898888088a8b8b8a088c8a8e038e8c8d09080909099350868788612640516134805109898a8988088b8c8c8a088d8a8f038f8c8d090809090985089350868788613420516134805109898a8987088b8c8c89088d898f038f8b8c090809090985089350868788613440516134805109898a8986088b8c8c88088d888f038f8a8b090809090985089350505050836117c051820961366052505061346051613480518392500961348052806116205182036119e051088161204051612040510982611640516116405109836116e05185612040516116405109098485868384088785870888030886878788098889611620516119e0510861200051080908925050508261348051848561176051870360010884090990508261202051611640510883611640518503856116e05161204051090884858287611620518903612000510809868685090893505050828361264051613480510984856117605187036001088509099150826117e0518484840809613680525050806116205161162051098161164051611640510982611620518460118408098360048309915083600982099050836003840992508381850385848788611620516116205108612000510809089150508283846120205161164051088561164051611640510809840384856120005187036116205108850908915082613480518209905082836126405161348051098309915082611760518209905082611760518309915082836117e0518585850809613680510861368052505080613460516134805109613480528081611620516119e05109826120005161160051090881612020518303838461164051611620510985611660516116005109080882600160441b82099050826120405184038208905082828208905082611740518209905082600160441b830991508283612000516119e05109830891508261172051848561166051611640510886038508098361176051858661204051612020510887038761166051880808099250836117005185858786860808096136c0525050612000518291506140009009816119e0518208905081614000820990508161164051820890508161400082099050816116205182089050816140008209905081611600518208905081611660518303820890508161174051820990508161400061202051098261200051820890508261400082099050826119e05182089050826140008209905082611660518208905082614000820990508261164051820890508261204051840382089050826117605182099050826117205184838508096136e0525050806126605161164051098161162051820890508161266051820990508161160051820890508161266051820990508161178051820890508082611660518403830891508161374052826116005184036119e05108836116605185036120405108848560018703840883098586848803600108830991508585876126405189858b61264051890908090861372052856126605161202051099450856120005186089450856126605186099450856119e0518608945085612660518609945085858703612040510894508561164051870361202051089150858687878903600108840987858903600108099150858487036116605108868760018903830882099050868760018903880887099550866126405184099250868284089250866126405184099250868684089250866126405184099250868184089250508161370052505083611620518503612000510892508361164051850385868488036001088609089250836117005161372051099150838461174051850983089150838461176051613740510983089150836116e0518309915083846117a051613700510983089150836136c05183089250836136e05184089250836118005184099250836134805184099250826136a05283613440516134805109613480525050508061378051826136a0518461368051866136605188613640518a61362051613600510808080808096137608190526126e0516137a08190526137c0919091526102e460043501610520816137e03750506105606137a020818106612700526000819052600160205381602160002006612720526002602053816021600020066127405260036020538160216000200661276052600460205381602160002006612780526005602053816021600020066127a0526006602053816021600020066127c0526007602053816021600020066127e0526008602053816021600020066128005260096020538160216000200661282052600a6020538160216000200661284052600b6020538160216000200661286052600c6020538160216000200661288052600d602053816021600020066128a052600e602053816021600020066128c052600f602053816021600020066128e05260106020538160216000200661290052601160205381602160002006612920526012602053816021600020066129405260136020538160216000200661296052601460205381602160002006612980526015602053816021600020066129a0526016602053816021600020066129c0526017602053816021600020066129e052601860205381602160002006612a0052601960205381602160002006612a2052601a60205381602160002006612a4052601b60205381602160002006612a6052601c60205381602160002006612a8052601d60205381602160002006612aa052601d6020535060216000908120828106612ac05281526123205160205261230051604052612360516060526123405160805260a08120829006612b00526113c0516113e0518482800985600387838609088683840914935050816131605280602061316001525050611400516114205184828309856003878386090886838409148416935050816000528060205250506130405160405260406131a06060600060075afa16604061316060808160065afa81169050611440516114605184828309856003878386090886838409148416935050816000528060205250508161304051613040510960405260406131a06060600060075afa16604061316060808160065afa81169050611480516114a05184828309856003878386090886838409148416935050816000528060205250508161304051836130405161304051090960405260406131a06060600060075afa16604061316060808160065afa81169050611200516112205184828309856003878386090886838409148416935050816000528060205250508161270051836001612b0051080960405260406131a06060600060075afa16604061316060808160065afa81169050611240516112605184828309856003878386090886838409148416935050816000528060205250508161272051836001612b0051080960405260406131a06060600060075afa16604061316060808160065afa81169050611280516112a05184828309856003878386090886838409148416935050816000528060205250508161274051836001612b0051080960405260406131a06060600060075afa16604061316060808160065afa811690506112c0516112e05184828309856003878386090886838409148416935050816000528060205250508161276051836001612b0051080960405260406131a06060600060075afa16604061316060808160065afa81169050611300516113205184828309856003878386090886838409148416935050816000528060205250508161278051836001612b0051080960405260406131a06060600060075afa16604061316060808160065afa8116905061134051611360518482830985600387838609088683840914841693505081600052806020525050816127a051836001612b0051080960405260406131a06060600060075afa16604061316060808160065afa81169050611380516113a0518482830985600387838609088683840914841693505081600052806020525050816127c051836001612b0051080960405260406131a06060600060075afa16604061316060808160065afa81169050610400516104205184828309856003878386090886838409148416935050816000528060205250506127e05160405260406131a06060600060075afa16604061316060808160065afa81169050610440516104605184828309856003878386090886838409148416935050816000528060205250506128005160405260406131a06060600060075afa16604061316060808160065afa81169050610480516104a05184828309856003878386090886838409148416935050816000528060205250506128205160405260406131a06060600060075afa16604061316060808160065afa811690506104c0516104e05184828309856003878386090886838409148416935050816000528060205250506128405160405260406131a06060600060075afa16604061316060808160065afa81169050610500516105205184828309856003878386090886838409148416935050816000528060205250506128605160405260406131a06060600060075afa16604061316060808160065afa81169050610540516105605184828309856003878386090886838409148416935050816000528060205250506128805160405260406131a06060600060075afa16604061316060808160065afa81169050610580516105a05184828309856003878386090886838409148416935050816000528060205250506128a05160405260406131a06060600060075afa16604061316060808160065afa811690506105c0516105e05184828309856003878386090886838409148416935050816000528060205250506128c05160405260406131a06060600060075afa16604061316060808160065afa81169050610600516106205184828309856003878386090886838409148416935050816000528060205250506128e05160405260406131a06060600060075afa16604061316060808160065afa81169050610640516106605184828309856003878386090886838409148416935050816000528060205250506129005160405260406131a06060600060075afa16604061316060808160065afa81169050610680516106a05184828309856003878386090886838409148416935050816000528060205250506129205160405260406131a06060600060075afa16604061316060808160065afa811690506106c0516106e05184828309856003878386090886838409148416935050816000528060205250506129405160405260406131a06060600060075afa16604061316060808160065afa81169050610700516107205184828309856003878386090886838409148416935050816000528060205250506129605160405260406131a06060600060075afa16604061316060808160065afa81169050610740516107605184828309856003878386090886838409148416935050816000528060205250506129805160405260406131a06060600060075afa16604061316060808160065afa81169050610780516107a0518482830985600387838609088683840914841693505081600052806020525050816129a051836001612b0051080960405260406131a06060600060075afa16604061316060808160065afa811690506107c0516107e0518482830985600387838609088683840914841693505081600052806020525050816129c051836001612b0051080960405260406131a06060600060075afa16604061316060808160065afa8116905061080051610820518482830985600387838609088683840914841693505081600052806020525050816129e051836001612b0051080960405260406131a06060600060075afa16604061316060808160065afa811690506108405161086051848283098560038783860908868384091484169350508160005280602052505081612a0051836001612b0051080960405260406131a06060600060075afa16604061316060808160065afa81169050610880516108a0518482830985600387838609088683840914841693505081600052806020525050612a205160405260406131a06060600060075afa16604061316060808160065afa811690506108c0516108e0518482830985600387838609088683840914841693505081600052806020525050612a405160405260406131a06060600060075afa16604061316060808160065afa8116905061090051610920518482830985600387838609088683840914841693505081600052806020525050612a605160405260406131a06060600060075afa16604061316060808160065afa8116905061094051610960518482830985600387838609088683840914841693505081600052806020525050612a805160405260406131a06060600060075afa16604061316060808160065afa81169050610980516109a0518482830985600387838609088683840914841693505081600052806020525050612aa05160405260406131a06060600060075afa16604061316060808160065afa8116905081826116005184612b00516119e051090861270051098283846116205186612b00516120005109086127205109820890508283846116405186612b00516120205109086127405109820890508283846116605186612b00516120405109086127605109820890508283846116805186612b00516120605109086127805109820890508283846116a05186612b00516120805109086127a05109820890508283846116c05186612b00516120a05109086127c051098208905082836116e0516127e051098208905082836117005161280051098208905082836117205161282051098208905082836117405161284051098208905082836117605161286051098208905082836117805161288051098208905082836117a0516128a051098208905082836117c0516128c051098208905082836117e0516128e051098208905082836118005161290051098208905082836119605161292051098208905082836119805161294051098208905082836119a05161296051098208905082836119c0516129805109820890508283846118405186612b00516120c05109086129a05109820890508283846118605186612b00516120e05109086129c05109820890508283846118805186612b00516121005109086129e05109820890508283846118a05186612b0051612120510908612a0051098208905082836118c051612a2051098208905082836118e051612a40510982089050828361190051612a60510982089050828361192051612a80510982089050828361194051612aa0510982089050826137605182089050600160005260026020528083036040525060406131a06060600060075afa16604061316060808160065afa16613360819052612b00516126c05161230051612320518682800987600389838609088883840914955050816000528060205250508060405260406131a06060600060075afa831692506040613160608061316060065afa8316925061234051612360518682830987600389838609088883840914861695505081600052806020525050836103c05185838509096040525060406131a06060600060075afa821691506040613220608061316060065afa8216915061230051600052612320516020526123405160405261236051606052806080526040806060604060075afa8216915060406131e06080600060065afa82169150613200518403613200526109c05115612b145761350051613520518582830986600388838609088783840914851694505081600052806020525050828182096040526040606080600060075afa8216915061354051613560518582830986600388838609088783840914851694505081600052806020525050604060006060600060075afa821691506132205160a0526132405160c05260406132206080606060065afa821691506131e0516040526132005160605260406131e06080600060065afa821691505b5080612b2b5763f755f36960e01b60005260046000fd5b806133805261322051600052613240516020527f198e9393920d483a7260bfb731fb5d25f1aa493335a9e71297e485b7aef312c26040527f1800deef121f1e76426a00665e5c4479674322d4f75edadd46debd5cd992f6ed6060527f090689d0585ff075ec9e99ad690c3395bc4b313370b38ef355acdadcd122975b6080527f12c85ea5db8c6deb4aab71808dcb408fe3d1e7690c43d37b4ce6cc0166fa7daa60a0526131e05160c0526132005160e052610a005161010052610a205161012052610a405161014052610a60516101605260206000610180600060085afa9050806133a0526000516133c05250505061336051613380516133c0516133a051161616612c42576301c47f3b60e21b60005260046000fd5b600160005260206000f35b60008060008060408587031215612c6357600080fd5b843567ffffffffffffffff80821115612c7b57600080fd5b818701915087601f830112612c8f57600080fd5b813581811115612c9e57600080fd5b886020828501011115612cb057600080fd5b602092830196509450908601359080821115612ccb57600080fd5b818701915087601f830112612cdf57600080fd5b813581811115612cee57600080fd5b8860208260051b8501011115612d0357600080fd5b9598949750506020019450505056fea2646970667358221220ff9fbfdb970a95a4711eac24024702869491dd8fe0c37465f01987643c2743ca64736f6c63430008130033",
			"opcodes": "PUSH1 0x80 PUSH1 0x40 MSTORE CALLVALUE DUP1 ISZERO PUSH2 0x10 JUMPI PUSH1 0x0 DUP1 REVERT JUMPDEST POP PUSH2 0x2D48 DUP1 PUSH2 0x20 PUSH1 0x0 CODECOPY PUSH1 0x0 RETURN INVALID PUSH1 0x80 PUSH1 0x40 MSTORE CALLVALUE DUP1 ISZERO PUSH2 0x10 JUMPI PUSH1 0x0 DUP1 REVERT JUMPDEST POP PUSH1 0x4 CALLDATASIZE LT PUSH2 0x36 JUMPI PUSH1 0x0 CALLDATALOAD PUSH1 0xE0 SHR DUP1 PUSH4 0x937F6A10 EQ PUSH2 0x3B JUMPI DUP1 PUSH4 0xEA50D0E4 EQ PUSH2 0x6E JUMPI JUMPDEST PUSH1 0x0 DUP1 REVERT JUMPDEST PUSH1 0x40 MLOAD PUSH32 0x723C3097750BE26A937625D1611DBAB6038152000587DCE350100C85A2FF23E DUP2 MSTORE PUSH1 0x20 ADD JUMPDEST PUSH1 0x40 MLOAD DUP1 SWAP2 SUB SWAP1 RETURN JUMPDEST PUSH2 0x81 PUSH2 0x7C CALLDATASIZE PUSH1 0x4 PUSH2 0x2C4D JUMP JUMPDEST PUSH2 0x91 JUMP JUMPDEST PUSH1 0x40 MLOAD SWAP1 ISZERO ISZERO DUP2 MSTORE PUSH1 0x20 ADD PUSH2 0x65 JUMP JUMPDEST PUSH2 0x1000 PUSH2 0x380 MSTORE PUSH1 0x1 PUSH2 0x3A0 MSTORE PUSH32 0x931D596DE2FD10F01DDD073FD5A90A976F169C76F039BB91C4775720042D43A PUSH2 0x3C0 MSTORE PUSH32 0x3061482DFA038D0FB5B4C0B226194047A2616509F531D4FA3ACDB77496C10001 PUSH2 0x3E0 MSTORE PUSH32 0xBBE82D5AA663B60B5F65D1F164B89454F209428C09B395E2A9EF1CD9160607B PUSH2 0x400 MSTORE PUSH32 0x249A12D2D02ED07C1CDA0D7924BC542B5346E013079C1FDE900D51E52E81B12C PUSH2 0x420 MSTORE PUSH32 0x1870FB55D018B962C2A584F755AF2F91C7CF8A04D0E00C0ACFC2DACA6573DE79 PUSH2 0x440 MSTORE PUSH32 0xEC16B6C58A9EB4EBFF0015F2C7BB3F2FCA64E7C9B797FD51E5884CB30BE7BB6 PUSH2 0x460 MSTORE PUSH32 0x1A1FAABF5A8426AA092AFA3787E9B3F66259F8C2E5BDD464233E83F193F92AB1 PUSH2 0x480 MSTORE PUSH32 0x1A497A0936C8A939CC5D5BA5528E07163BAF64F35ADA0F2C92EE6207ACD204A5 PUSH2 0x4A0 MSTORE PUSH32 0x9A322B5E792EA9ADB829C208971CF949E5EA19BA91A9C3B43F3C1FE1498ED56 PUSH2 0x4C0 MSTORE PUSH32 0xC64D1D6158F01EA506966855588DAEEFBDB0DA0F819E137FCEFF858A5EE7F67 PUSH2 0x4E0 MSTORE PUSH32 0x1F99AB321383BAB6BCD6066E1D4A7B95459D2747117405E196CCAEBCBA1BAF91 PUSH2 0x500 MSTORE PUSH32 0xD7D83510F2B89A66CDDB5443BADFD9EDC0E50D1EDF99B7FA6FB114CD078A3B0 PUSH2 0x520 MSTORE PUSH32 0x1025A7CB22C8D86FAE82555E2A2119B3CC4BD8C7FEF3997880695595C3CDF317 PUSH2 0x540 MSTORE PUSH32 0x1D342CFD6C145E85EFF72D96A395F1ACF38BB5887F7294C1322452760347A162 PUSH2 0x560 MSTORE PUSH32 0x2C8D70957FBA16BF0DEB46D66F20D5C8F9706A760817507DC462A56E1E878943 PUSH2 0x580 MSTORE PUSH32 0x193804669654A117828E0899115A8E83B87A23464798BBBBF998E401CBFDECE1 PUSH2 0x5A0 MSTORE PUSH32 0x4D6636AF9EE7A5418FE08C575087490675CCD7E5B1A87FD0F1872FAE9F2CC98 PUSH2 0x5C0 MSTORE PUSH32 0x1CAB61AAB7E1C3108A6FE17FF83D5BDB2BAD16FC60C2C79E2580961CB576EA6F PUSH2 0x5E0 MSTORE PUSH32 0x13982FD0CF8DA5082A77561113BB5EE51E2E82380DA3DA5AD0F24E49E5F32208 PUSH2 0x600 MSTORE PUSH32 0x1AA5FFD5AA4C16D1C66E18C4574A3AB0B25E9B4E4E04AD1280D1A264237717E0 PUSH2 0x620 MSTORE PUSH32 0x1750F44D3F9DFAD78A1E2127EF91051CE018F20536FE45CA28DCC7B248389FC0 PUSH2 0x640 MSTORE PUSH32 0x1A05418F502A965C39994CD3F83E39164B49C0F27D4F5AC4550751CC0A24BB58 PUSH2 0x660 MSTORE PUSH32 0x290D103355EBD0291499E09691B3B34E3B79F6482951858D8D74F4C85018F294 PUSH2 0x680 MSTORE PUSH32 0x26F5BD3FCF2DDAA3459B92C3DF39BF19A6D056B70B52DE4CC411E0765AB6C97D PUSH2 0x6A0 MSTORE PUSH32 0x1D0686238A2964D773746B7B2DFB348A8EC39924219E4250C38FFFC634CBD2C4 PUSH2 0x6C0 MSTORE PUSH32 0xB34B8B3C2B6F5DAC418ED83160BFAA02C1B70674C2DB3347BB1ADE72A5FA2D0 PUSH2 0x6E0 MSTORE PUSH32 0xB7BB2A3F741C6E8DA5BBE4D54B638949CE9C13819613C4A5D1A2023CF2689CC PUSH2 0x700 MSTORE PUSH32 0x103365C23766B956DF82C454FF38A4523BD4F3DB946BFFB3C5E7B0A2FDEC3044 PUSH2 0x720 MSTORE PUSH32 0x23B4F445F7516F8F743FC3084C447362B8BF6828C1117A9342081D3660CCC589 PUSH2 0x740 MSTORE PUSH31 0xC0DC4C94BA2804287045D186B7C3BAF6BABC6CCBE20F5ED38EA40483580572 PUSH2 0x760 MSTORE PUSH32 0x259F452DC7FD2DDA4013DBA2196852BCF43C285B1D1F7F85341F3615D25FE97B PUSH2 0x780 MSTORE PUSH32 0x117500555DD886209C0B10EE8CD10E711E890A1C99A8F689419DA8C52D2E8E9D PUSH2 0x7A0 MSTORE PUSH32 0x2577F542178A07DAC262FDABAD6F55A84FCA32B13B92E520BB91A7455F78CCF1 PUSH2 0x7C0 MSTORE PUSH32 0xFC87AE27122E60EAACC070BD59AAFE12644A82EE1345497F8C0302E92925C68 PUSH2 0x7E0 MSTORE PUSH32 0x1612F501335A4B72AC55DBE2FD1A75E5FE2C041687603B6577581D673D13BE50 PUSH2 0x800 MSTORE PUSH32 0x160E8EF7FF5315CB640EC82E965DB270846E904BB7D1C7FF02F32823DE6C1C71 PUSH2 0x820 MSTORE PUSH32 0x2D540FF1653B38ACBCB9CDA315442364007633F529476B2F169A0FF131BFB319 PUSH2 0x840 MSTORE PUSH32 0x2198B9FEB61F8160E357B8BB7CA329713898655CC94A0AC2D84944C737CF57E5 PUSH2 0x860 MSTORE PUSH32 0x11C8DF52C3EF754F80D11792CEA4B7AD74612E486596CBE7F7D6A05F19C69444 PUSH2 0x880 MSTORE PUSH32 0x10C8A36CBB2FD9ED8875B5106A37162AC2932F3BD1B6942B132546D2110A63E2 PUSH2 0x8A0 MSTORE PUSH32 0x2A7B7E7256B227659BD26DC5E7C3D3D6DC8AD25DAC15201F11C2FB91459D0A02 PUSH2 0x8C0 MSTORE PUSH32 0x253FD29A0D331D8D96ECE03117FFEFC863D608EAD6CACD60AC030072CA892A12 PUSH2 0x8E0 MSTORE PUSH32 0xF3CC0817788D2EA201656A942D7F0F9CE2C9C86EFD49005B1F85C80555EFC14 PUSH2 0x900 MSTORE PUSH32 0x1F4D1D4D8EF3C83137BC3D308BF7B27597B2FDD39636F33F009794EF7BEBB4E1 PUSH2 0x920 MSTORE PUSH32 0x15208516370A172BA0EE95D93A4AD8C1D4EEF58C4F7C6F5FC49EBE609372D9B9 PUSH2 0x940 MSTORE PUSH32 0x1F6627682D06725C3367FE017D33283E494EE9FE747F7A243B7E97B22B8DA9B9 PUSH2 0x960 MSTORE PUSH32 0x28C6F4174510CD56FE68110ABBF518ADC40A825C041E71524FA59FC6F36A2083 PUSH2 0x980 MSTORE PUSH32 0x20207E19AFB3D0B99C3287F9B57E642024BE755E63252C38CCCD02E0F2A53CE9 PUSH2 0x9A0 MSTORE PUSH1 0x0 PUSH2 0x9C0 DUP2 SWAP1 MSTORE PUSH2 0x9E0 DUP2 SWAP1 MSTORE PUSH32 0x260E01B251F6F1C7E7FF4E580791DEE8EA51D87A358E038B4EFE30FAC09383C1 PUSH2 0xA00 MSTORE PUSH32 0x118C4D5B837BCC2BC89B5B398B5974E9F5944073B32078B7E231FEC938883B0 PUSH2 0xA20 MSTORE PUSH32 0x4FC6369F7110FE3D25156C1BB9A72859CF2A04641F99BA4EE413C80DA6A5FE4 PUSH2 0xA40 MSTORE PUSH32 0x22FEBDA3C0C0632A56475B4214E5615E11E6DD3F96E6CEA2854A87D4DACC5E55 PUSH2 0xA60 MSTORE PUSH32 0x1AF864D211B88D9CCF2E371C2BA088D9269D3FDEA04E05ACB6F70F8DC79E0E57 PUSH2 0x3400 MSTORE PUSH2 0x3A0 MLOAD DUP3 DUP2 EQ PUSH2 0x886 JUMPI PUSH1 0x40 MLOAD PUSH4 0x7667DC9B PUSH1 0xE0 SHL DUP2 MSTORE PUSH1 0x4 DUP2 ADD DUP3 SWAP1 MSTORE PUSH1 0x24 DUP2 ADD DUP5 SWAP1 MSTORE PUSH1 0x44 ADD PUSH1 0x40 MLOAD DUP1 SWAP2 SUB SWAP1 REVERT JUMPDEST PUSH32 0x30644E72E131A029B85045B68181585D97816A916871CA8D3C208C16D87CFD47 PUSH32 0x30644E72E131A029B85045B68181585D2833E84879B9709143E1F593F0000001 PUSH1 0x24 PUSH1 0x4 CALLDATALOAD ADD DUP3 DUP2 CALLDATALOAD MOD PUSH2 0x1220 MSTORE DUP3 PUSH1 0x20 DUP3 ADD CALLDATALOAD MOD PUSH2 0x1200 MSTORE DUP3 PUSH1 0x40 DUP3 ADD CALLDATALOAD MOD PUSH2 0x1260 MSTORE DUP3 PUSH1 0x60 DUP3 ADD CALLDATALOAD MOD PUSH2 0x1240 MSTORE DUP3 PUSH1 0x80 DUP3 ADD CALLDATALOAD MOD PUSH2 0x12A0 MSTORE DUP3 PUSH1 0xA0 DUP3 ADD CALLDATALOAD MOD PUSH2 0x1280 MSTORE DUP3 PUSH1 0xC0 DUP3 ADD CALLDATALOAD MOD PUSH2 0x12E0 MSTORE DUP3 PUSH1 0xE0 DUP3 ADD CALLDATALOAD MOD PUSH2 0x12C0 MSTORE DUP3 PUSH2 0x100 DUP3 ADD CALLDATALOAD MOD PUSH2 0x1320 MSTORE DUP3 PUSH2 0x120 DUP3 ADD CALLDATALOAD MOD PUSH2 0x1300 MSTORE DUP3 PUSH2 0x140 DUP3 ADD CALLDATALOAD MOD PUSH2 0x1360 MSTORE DUP3 PUSH2 0x160 DUP3 ADD CALLDATALOAD MOD PUSH2 0x1340 MSTORE DUP3 PUSH2 0x180 DUP3 ADD CALLDATALOAD MOD PUSH2 0x13A0 MSTORE DUP3 PUSH2 0x1A0 DUP3 ADD CALLDATALOAD MOD PUSH2 0x1380 MSTORE DUP3 PUSH2 0x1C0 DUP3 ADD CALLDATALOAD MOD PUSH2 0x13E0 MSTORE DUP3 PUSH2 0x1E0 DUP3 ADD CALLDATALOAD MOD PUSH2 0x13C0 MSTORE DUP3 PUSH2 0x200 DUP3 ADD CALLDATALOAD MOD PUSH2 0x1420 MSTORE DUP3 PUSH2 0x220 DUP3 ADD CALLDATALOAD MOD PUSH2 0x1400 MSTORE DUP3 PUSH2 0x240 DUP3 ADD CALLDATALOAD MOD PUSH2 0x1460 MSTORE DUP3 PUSH2 0x260 DUP3 ADD CALLDATALOAD MOD PUSH2 0x1440 MSTORE DUP3 PUSH2 0x280 DUP3 ADD CALLDATALOAD MOD PUSH2 0x14A0 MSTORE DUP3 PUSH2 0x2A0 DUP3 ADD CALLDATALOAD MOD PUSH2 0x1480 MSTORE DUP2 PUSH2 0x2C0 DUP3 ADD CALLDATALOAD MOD PUSH2 0x1600 MSTORE DUP2 PUSH2 0x2E0 DUP3 ADD CALLDATALOAD MOD PUSH2 0x1620 MSTORE DUP2 PUSH2 0x300 DUP3 ADD CALLDATALOAD MOD PUSH2 0x1640 MSTORE DUP2 PUSH2 0x320 DUP3 ADD CALLDATALOAD MOD PUSH2 0x1660 MSTORE DUP2 PUSH2 0x340 DUP3 ADD CALLDATALOAD MOD PUSH2 0x1680 MSTORE DUP2 PUSH2 0x360 DUP3 ADD CALLDATALOAD MOD PUSH2 0x16A0 MSTORE DUP2 PUSH2 0x380 DUP3 ADD CALLDATALOAD MOD PUSH2 0x16C0 MSTORE DUP2 PUSH2 0x3A0 DUP3 ADD CALLDATALOAD MOD PUSH2 0x16E0 MSTORE DUP2 PUSH2 0x3C0 DUP3 ADD CALLDATALOAD MOD PUSH2 0x1700 MSTORE DUP2 PUSH2 0x3E0 DUP3 ADD CALLDATALOAD MOD PUSH2 0x1720 MSTORE DUP2 PUSH2 0x400 DUP3 ADD CALLDATALOAD MOD PUSH2 0x1740 MSTORE DUP2 PUSH2 0x420 DUP3 ADD CALLDATALOAD MOD PUSH2 0x1760 MSTORE DUP2 PUSH2 0x440 DUP3 ADD CALLDATALOAD MOD PUSH2 0x1780 MSTORE DUP2 PUSH2 0x460 DUP3 ADD CALLDATALOAD MOD PUSH2 0x17A0 MSTORE DUP2 PUSH2 0x480 DUP3 ADD CALLDATALOAD MOD PUSH2 0x17C0 MSTORE DUP2 PUSH2 0x4A0 DUP3 ADD CALLDATALOAD MOD PUSH2 0x17E0 MSTORE DUP2 PUSH2 0x4C0 DUP3 ADD CALLDATALOAD MOD PUSH2 0x1800 MSTORE DUP2 PUSH2 0x4E0 DUP3 ADD CALLDATALOAD MOD PUSH2 0x1960 MSTORE DUP2 PUSH2 0x500 DUP3 ADD CALLDATALOAD MOD PUSH2 0x1980 MSTORE DUP2 PUSH2 0x520 DUP3 ADD CALLDATALOAD MOD PUSH2 0x19A0 MSTORE DUP2 PUSH2 0x540 DUP3 ADD CALLDATALOAD MOD PUSH2 0x19C0 MSTORE DUP2 PUSH2 0x560 DUP3 ADD CALLDATALOAD MOD PUSH2 0x1840 MSTORE DUP2 PUSH2 0x580 DUP3 ADD CALLDATALOAD MOD PUSH2 0x1860 MSTORE DUP2 PUSH2 0x5A0 DUP3 ADD CALLDATALOAD MOD PUSH2 0x1880 MSTORE DUP2 PUSH2 0x5C0 DUP3 ADD CALLDATALOAD MOD PUSH2 0x18A0 MSTORE DUP2 PUSH2 0x5E0 DUP3 ADD CALLDATALOAD MOD PUSH2 0x18C0 MSTORE DUP2 PUSH2 0x600 DUP3 ADD CALLDATALOAD MOD PUSH2 0x18E0 MSTORE DUP2 PUSH2 0x620 DUP3 ADD CALLDATALOAD MOD PUSH2 0x1900 MSTORE DUP2 PUSH2 0x640 DUP3 ADD CALLDATALOAD MOD PUSH2 0x1920 MSTORE DUP2 PUSH2 0x660 DUP3 ADD CALLDATALOAD MOD PUSH2 0x1940 MSTORE DUP2 PUSH2 0x680 DUP3 ADD CALLDATALOAD MOD PUSH2 0x19E0 MSTORE DUP2 PUSH2 0x6A0 DUP3 ADD CALLDATALOAD MOD PUSH2 0x2000 MSTORE DUP2 PUSH2 0x6C0 DUP3 ADD CALLDATALOAD MOD PUSH2 0x2020 MSTORE DUP2 PUSH2 0x6E0 DUP3 ADD CALLDATALOAD MOD PUSH2 0x2040 MSTORE DUP2 PUSH2 0x700 DUP3 ADD CALLDATALOAD MOD PUSH2 0x2060 MSTORE DUP2 PUSH2 0x720 DUP3 ADD CALLDATALOAD MOD PUSH2 0x2080 MSTORE DUP2 PUSH2 0x740 DUP3 ADD CALLDATALOAD MOD PUSH2 0x20A0 MSTORE DUP2 PUSH2 0x760 DUP3 ADD CALLDATALOAD MOD PUSH2 0x20C0 MSTORE DUP2 PUSH2 0x780 DUP3 ADD CALLDATALOAD MOD PUSH2 0x20E0 MSTORE DUP2 PUSH2 0x7A0 DUP3 ADD CALLDATALOAD MOD PUSH2 0x2100 MSTORE DUP2 PUSH2 0x7C0 DUP3 ADD CALLDATALOAD MOD PUSH2 0x2120 MSTORE DUP3 PUSH2 0x7E0 DUP3 ADD CALLDATALOAD MOD PUSH2 0x2320 MSTORE DUP3 PUSH2 0x800 DUP3 ADD CALLDATALOAD MOD PUSH2 0x2300 MSTORE DUP3 PUSH2 0x820 DUP3 ADD CALLDATALOAD MOD PUSH2 0x2360 MSTORE DUP3 PUSH2 0x840 DUP3 ADD CALLDATALOAD MOD PUSH2 0x2340 MSTORE POP PUSH2 0x9C0 MLOAD ISZERO PUSH2 0xCE8 JUMPI PUSH1 0x24 DUP1 CALLDATALOAD ADD DUP1 PUSH2 0x9E0 MLOAD PUSH1 0x5 SHL ADD SWAP1 POP DUP1 CALLDATALOAD PUSH1 0x20 DUP3 ADD CALLDATALOAD PUSH1 0x44 SHL DUP2 ADD SWAP1 POP PUSH1 0x40 DUP3 ADD CALLDATALOAD PUSH1 0x88 SHL DUP2 ADD SWAP1 POP PUSH1 0x60 DUP3 ADD CALLDATALOAD PUSH1 0xCC SHL DUP2 ADD SWAP1 POP PUSH1 0x80 DUP3 ADD CALLDATALOAD PUSH1 0xA0 DUP4 ADD CALLDATALOAD PUSH1 0x44 SHL DUP2 ADD SWAP1 POP PUSH1 0xC0 DUP4 ADD CALLDATALOAD PUSH1 0x88 SHL DUP2 ADD SWAP1 POP PUSH1 0xE0 DUP4 ADD CALLDATALOAD PUSH1 0xCC SHL DUP2 ADD SWAP1 POP PUSH2 0x100 DUP4 ADD CALLDATALOAD PUSH2 0x120 DUP5 ADD CALLDATALOAD PUSH1 0x44 SHL DUP2 ADD SWAP1 POP PUSH2 0x140 DUP5 ADD CALLDATALOAD PUSH1 0x88 SHL DUP2 ADD SWAP1 POP PUSH2 0x160 DUP5 ADD CALLDATALOAD PUSH1 0xCC SHL DUP2 ADD SWAP1 POP PUSH2 0x180 DUP5 ADD CALLDATALOAD PUSH2 0x1A0 DUP6 ADD CALLDATALOAD PUSH1 0x44 SHL DUP2 ADD SWAP1 POP PUSH2 0x1C0 DUP6 ADD CALLDATALOAD PUSH1 0x88 SHL DUP2 ADD SWAP1 POP PUSH2 0x1E0 DUP6 ADD CALLDATALOAD PUSH1 0xCC SHL DUP2 ADD SWAP1 POP DUP4 PUSH2 0x3500 MSTORE DUP3 PUSH2 0x3520 MSTORE DUP2 PUSH2 0x3540 MSTORE DUP1 PUSH2 0x3560 MSTORE DUP7 DUP2 LT DUP8 DUP5 LT AND DUP8 DUP4 LT DUP9 DUP7 LT AND AND PUSH2 0xCE2 JUMPI PUSH4 0x75D4FA53 PUSH1 0xE1 SHL PUSH1 0x0 MSTORE PUSH1 0x4 PUSH1 0x0 REVERT JUMPDEST POP POP POP POP POP JUMPDEST PUSH2 0x380 MLOAD PUSH1 0xE0 SHL PUSH1 0x0 MSTORE PUSH2 0x3A0 MLOAD PUSH1 0xE0 SHL PUSH1 0x4 MSTORE PUSH1 0x8 PUSH1 0x0 KECCAK256 DUP1 PUSH2 0x3580 MSTORE PUSH1 0x24 DUP1 CALLDATALOAD ADD PUSH1 0x20 PUSH2 0x3A0 MLOAD MUL DUP1 DUP3 PUSH1 0x20 PUSH2 0x3580 ADD CALLDATACOPY PUSH1 0x4 CALLDATALOAD PUSH1 0x24 ADD SWAP2 POP PUSH1 0xC0 DUP3 PUSH2 0x35A0 DUP4 ADD CALLDATACOPY PUSH1 0xE0 ADD PUSH2 0x3580 KECCAK256 DUP4 DUP2 MOD PUSH2 0x2660 DUP2 SWAP1 MSTORE SWAP1 SWAP3 POP SWAP1 POP DUP3 DUP2 DUP1 MULMOD PUSH2 0x2680 MSTORE DUP3 DUP2 PUSH2 0x2680 MLOAD MULMOD PUSH2 0x26A0 MSTORE POP DUP1 PUSH1 0x0 MSTORE PUSH2 0x12E0 MLOAD PUSH1 0x20 MSTORE PUSH2 0x12C0 MLOAD PUSH1 0x40 MSTORE PUSH2 0x1320 MLOAD PUSH1 0x60 MSTORE PUSH2 0x1300 MLOAD PUSH1 0x80 MSTORE PUSH1 0xA0 PUSH1 0x0 KECCAK256 SWAP1 POP DUP2 DUP2 MOD PUSH2 0x2600 MSTORE DUP1 PUSH1 0x0 MSTORE PUSH1 0x1 PUSH1 0x20 MSTORE8 POP PUSH1 0x21 PUSH1 0x0 SWAP1 DUP2 KECCAK256 DUP3 DUP2 MOD PUSH2 0x2620 MSTORE DUP2 MSTORE PUSH2 0x1360 MLOAD PUSH1 0x20 MSTORE PUSH2 0x1340 MLOAD PUSH1 0x40 MSTORE PUSH2 0x13A0 MLOAD PUSH1 0x60 MSTORE PUSH2 0x1380 MLOAD PUSH1 0x80 MSTORE PUSH1 0xA0 SWAP1 KECCAK256 DUP2 DUP2 MOD PUSH2 0x2640 DUP2 SWAP1 MSTORE DUP3 DUP2 DUP1 MULMOD PUSH2 0x3420 MSTORE DUP3 DUP2 PUSH2 0x3420 MLOAD MULMOD PUSH2 0x3440 MSTORE DUP3 DUP2 PUSH2 0x3440 MLOAD MULMOD PUSH2 0x3460 MSTORE DUP1 PUSH2 0x3480 MSTORE POP DUP1 PUSH1 0x0 MSTORE PUSH2 0x13E0 MLOAD PUSH1 0x20 MSTORE PUSH2 0x13C0 MLOAD PUSH1 0x40 MSTORE PUSH2 0x1420 MLOAD PUSH1 0x60 MSTORE PUSH2 0x1400 MLOAD PUSH1 0x80 MSTORE PUSH2 0x1460 MLOAD PUSH1 0xA0 MSTORE PUSH2 0x1440 MLOAD PUSH1 0xC0 MSTORE PUSH2 0x14A0 MLOAD PUSH1 0xE0 MSTORE PUSH2 0x1480 MLOAD PUSH2 0x100 MSTORE PUSH2 0x120 PUSH1 0x0 KECCAK256 SWAP1 POP DUP2 DUP2 MOD PUSH2 0x26C0 MSTORE DUP1 PUSH2 0x26E0 MSTORE POP PUSH2 0x2600 MLOAD PUSH2 0x2620 MLOAD PUSH2 0x3C0 MLOAD PUSH1 0x1 DUP1 DUP6 PUSH1 0x1 PUSH1 0x24 DUP1 CALLDATALOAD ADD PUSH1 0x20 PUSH2 0x3A0 MLOAD MUL DUP2 ADD DUP4 PUSH1 0x5 DUP11 MULMOD DUP5 PUSH1 0xC DUP12 MULMOD SWAP10 POP JUMPDEST DUP2 DUP4 LT ISZERO PUSH2 0xEA8 JUMPI DUP3 CALLDATALOAD DUP6 DUP2 LT DUP6 AND SWAP5 POP DUP6 DUP11 DUP3 ADDMOD SWAP1 POP DUP6 DUP2 DUP4 ADD DUP10 MULMOD SWAP8 POP DUP6 DUP2 DUP13 ADD DUP9 MULMOD SWAP7 POP POP DUP5 DUP9 DUP3 MULMOD SWAP1 POP DUP5 DUP9 DUP12 MULMOD SWAP10 POP PUSH1 0x20 DUP4 ADD SWAP3 POP PUSH2 0xE69 JUMP JUMPDEST POP POP POP DUP1 PUSH2 0xEC1 JUMPI PUSH4 0x374A972F PUSH1 0xE0 SHL PUSH1 0x0 MSTORE PUSH1 0x4 PUSH1 0x0 REVERT JUMPDEST POP POP DUP2 PUSH2 0x3000 MSTORE DUP1 PUSH2 0x3020 MSTORE POP POP POP POP POP DUP1 DUP2 PUSH1 0x1 PUSH2 0x2600 MLOAD ADDMOD PUSH2 0x2620 MLOAD MULMOD DUP1 PUSH2 0x380 MLOAD PUSH1 0x1 JUMPDEST DUP2 DUP2 LT ISZERO PUSH2 0xEFD JUMPI DUP5 DUP4 DUP5 MULMOD SWAP3 POP DUP1 ADD PUSH2 0xEE8 JUMP JUMPDEST POP POP PUSH2 0x3100 MSTORE DUP2 DUP2 DUP1 MULMOD SWAP1 POP DUP2 DUP2 DUP3 MULMOD PUSH2 0x3120 MSTORE POP PUSH2 0x26C0 MLOAD PUSH2 0x380 MLOAD DUP2 SWAP1 PUSH1 0x1 JUMPDEST DUP2 DUP2 LT ISZERO PUSH2 0xF34 JUMPI DUP5 DUP4 DUP5 MULMOD SWAP3 POP DUP1 ADD PUSH2 0xF1F JUMP JUMPDEST POP POP DUP1 PUSH2 0x3040 MSTORE DUP3 PUSH1 0x1 DUP5 SUB DUP3 ADDMOD SWAP1 POP PUSH2 0x3400 MLOAD DUP1 DUP5 SUB PUSH2 0x3E0 MLOAD DUP6 DUP3 DUP7 ADDMOD DUP7 DUP5 DUP5 MULMOD SWAP3 POP DUP7 DUP8 DUP5 DUP9 ADDMOD DUP3 MULMOD SWAP1 POP DUP7 DUP5 DUP5 MULMOD SWAP3 POP DUP7 DUP8 DUP5 DUP9 ADDMOD DUP3 MULMOD SWAP1 POP DUP7 DUP8 DUP9 DUP7 DUP7 MULMOD DUP9 ADDMOD DUP3 MULMOD SWAP1 POP PUSH2 0x3C0 MLOAD SWAP3 POP DUP7 DUP3 DUP7 MULMOD SWAP2 POP DUP7 PUSH1 0x1 DUP9 SUB DUP8 ADDMOD DUP8 DUP5 DUP6 MULMOD SWAP5 POP DUP8 PUSH1 0x1 DUP10 SUB DUP10 DUP10 DUP12 DUP9 DUP14 DUP12 DUP13 MULMOD MULMOD MULMOD ADDMOD SWAP7 POP PUSH2 0x3020 MLOAD SWAP5 POP DUP5 SWAP4 POP DUP8 DUP3 DUP7 MULMOD SWAP5 POP DUP5 DUP9 DUP8 DUP8 MULMOD SWAP6 POP DUP6 DUP10 DUP4 DUP9 MULMOD SWAP7 POP DUP7 DUP11 PUSH2 0x3120 MLOAD DUP10 MULMOD SWAP8 POP DUP8 PUSH1 0x20 PUSH1 0x0 MSTORE PUSH1 0x20 DUP1 MSTORE PUSH1 0x20 PUSH1 0x40 MSTORE DUP12 DUP12 DUP11 MULMOD PUSH1 0x60 MSTORE PUSH1 0x2 DUP13 SUB PUSH1 0x80 MSTORE DUP12 PUSH1 0xA0 MSTORE PUSH1 0x20 PUSH1 0x0 PUSH1 0xC0 PUSH1 0x0 PUSH1 0x5 GAS STATICCALL PUSH2 0x1011 JUMPI PUSH4 0x3E2529EF PUSH1 0xE2 SHL PUSH1 0x0 MSTORE PUSH1 0x4 PUSH1 0x0 REVERT JUMPDEST PUSH1 0x0 MLOAD SWAP9 POP DUP12 DUP2 DUP11 MULMOD SWAP1 POP DUP12 DUP12 DUP11 MULMOD SWAP9 POP DUP12 DUP3 DUP11 MULMOD SWAP2 POP DUP12 PUSH2 0x3120 MLOAD DUP11 MULMOD SWAP9 POP DUP12 DUP4 DUP11 MULMOD SWAP3 POP DUP12 DUP6 DUP11 MULMOD SWAP9 POP DUP12 DUP5 DUP11 MULMOD SWAP4 POP DUP12 DUP11 DUP11 MULMOD SWAP9 POP DUP12 DUP9 DUP11 MULMOD SWAP8 POP DUP12 DUP7 DUP11 MULMOD SWAP9 POP DUP12 PUSH2 0x3020 MLOAD DUP14 DUP12 DUP13 MULMOD MULMOD SWAP9 POP DUP12 DUP10 PUSH2 0x3000 MLOAD MULMOD PUSH2 0x3060 MSTORE DUP12 DUP9 DUP12 MULMOD PUSH2 0x3080 MSTORE DUP12 DUP5 DUP8 MULMOD PUSH2 0x3780 MSTORE DUP12 DUP4 DUP9 MULMOD PUSH2 0x30A0 MSTORE DUP12 DUP3 PUSH2 0x3100 MLOAD MULMOD PUSH2 0x3140 MSTORE DUP12 DUP2 DUP9 MULMOD PUSH2 0x30C0 MSTORE POP POP POP POP POP POP POP POP POP POP POP PUSH2 0x2640 MLOAD POP PUSH2 0x2600 MLOAD PUSH2 0x2620 MLOAD DUP3 DUP4 PUSH2 0x1900 MLOAD DUP5 MULMOD DUP3 PUSH2 0x1620 MLOAD ADD ADD DUP5 PUSH2 0x18E0 MLOAD DUP6 MULMOD DUP4 PUSH2 0x1600 MLOAD ADD ADD MULMOD DUP4 DUP5 PUSH2 0x1940 MLOAD DUP6 MULMOD DUP4 PUSH2 0x1660 MLOAD ADD ADD DUP6 PUSH2 0x1920 MLOAD DUP7 MULMOD DUP5 PUSH2 0x1640 MLOAD ADD ADD MULMOD DUP5 DUP6 DUP7 DUP4 DUP6 MULMOD PUSH2 0x16A0 MLOAD MULMOD PUSH2 0x3480 MLOAD MULMOD DUP6 DUP7 PUSH2 0x1980 MLOAD DUP8 MULMOD DUP6 PUSH2 0x1620 MLOAD ADD ADD DUP8 PUSH2 0x1960 MLOAD DUP9 MULMOD DUP7 PUSH2 0x1600 MLOAD ADD ADD MULMOD SWAP3 POP DUP6 DUP7 PUSH2 0x19C0 MLOAD DUP8 MULMOD DUP6 PUSH2 0x1660 MLOAD ADD ADD DUP8 PUSH2 0x19A0 MLOAD DUP9 MULMOD DUP7 PUSH2 0x1640 MLOAD ADD ADD MULMOD SWAP2 POP DUP6 DUP7 DUP8 DUP9 DUP6 DUP8 MULMOD PUSH2 0x2080 MLOAD MULMOD PUSH2 0x3480 MLOAD MULMOD DUP8 SUB DUP3 ADDMOD SWAP1 POP DUP6 PUSH2 0x2640 MLOAD PUSH2 0x3480 MLOAD MULMOD PUSH2 0x3480 MSTORE DUP6 DUP7 DUP8 DUP9 PUSH2 0x3060 MLOAD DUP11 SUB PUSH2 0x2080 MLOAD ADDMOD PUSH2 0x30C0 MLOAD MULMOD PUSH2 0x3480 MLOAD MULMOD DUP3 ADDMOD SWAP1 POP DUP6 PUSH2 0x2640 MLOAD PUSH2 0x3480 MLOAD MULMOD PUSH2 0x3480 MSTORE DUP6 DUP7 DUP8 DUP9 PUSH1 0x1 DUP11 SUB PUSH2 0x16A0 MLOAD ADDMOD PUSH2 0x30A0 MLOAD MULMOD PUSH2 0x3480 MLOAD MULMOD DUP3 ADDMOD PUSH2 0x3600 MSTORE POP POP POP POP POP DUP1 PUSH2 0x2640 MLOAD PUSH2 0x3480 MLOAD MULMOD PUSH2 0x3480 MSTORE DUP1 PUSH2 0x1720 MLOAD PUSH2 0x2660 MLOAD MULMOD DUP2 DUP3 DUP4 PUSH2 0x2020 MLOAD PUSH2 0x1780 MLOAD MULMOD PUSH2 0x1640 MLOAD ADDMOD DUP3 ADDMOD SWAP1 POP DUP2 PUSH2 0x2660 MLOAD DUP3 MULMOD SWAP1 POP DUP2 DUP3 DUP4 PUSH2 0x2000 MLOAD PUSH2 0x1760 MLOAD MULMOD PUSH2 0x1620 MLOAD ADDMOD DUP3 ADDMOD SWAP1 POP DUP2 PUSH2 0x2660 MLOAD DUP3 MULMOD SWAP1 POP DUP2 DUP3 DUP4 PUSH2 0x19E0 MLOAD PUSH2 0x1700 MLOAD MULMOD PUSH2 0x1600 MLOAD ADDMOD DUP3 ADDMOD SWAP1 POP DUP2 PUSH2 0x1840 MLOAD DUP4 DUP5 PUSH2 0x2660 MLOAD PUSH2 0x1860 MLOAD MULMOD DUP6 DUP7 PUSH2 0x2680 MLOAD PUSH2 0x1880 MLOAD MULMOD DUP8 PUSH2 0x26A0 MLOAD PUSH2 0x18A0 MLOAD MULMOD ADDMOD ADDMOD ADDMOD DUP3 PUSH2 0x20C0 MLOAD DUP5 DUP6 PUSH2 0x2660 MLOAD PUSH2 0x20E0 MLOAD MULMOD DUP7 DUP8 PUSH2 0x2680 MLOAD PUSH2 0x2100 MLOAD MULMOD DUP9 PUSH2 0x26A0 MLOAD PUSH2 0x2120 MLOAD MULMOD ADDMOD ADDMOD ADDMOD DUP4 DUP5 PUSH1 0x1 PUSH2 0x2600 MLOAD ADDMOD PUSH2 0x2620 MLOAD MULMOD DUP5 PUSH2 0x2620 MLOAD DUP7 PUSH2 0x18C0 MLOAD DUP8 MULMOD ADDMOD SWAP4 POP DUP5 DUP2 DUP7 DUP8 PUSH2 0x2600 MLOAD DUP7 MULMOD DUP7 ADDMOD ADDMOD SWAP3 POP DUP5 DUP4 DUP6 MULMOD SWAP4 POP DUP5 DUP6 PUSH1 0x1 PUSH2 0x2600 MLOAD ADDMOD DUP6 MULMOD SWAP4 POP DUP5 PUSH2 0x30A0 MLOAD PUSH2 0x2640 MLOAD MULMOD SWAP3 POP DUP5 DUP4 DUP6 ADDMOD SWAP4 POP DUP5 PUSH2 0x16C0 MLOAD DUP6 MULMOD SWAP4 POP DUP5 DUP4 DUP7 SUB DUP6 ADDMOD SWAP4 POP DUP5 DUP2 DUP7 DUP8 PUSH2 0x2600 MLOAD PUSH2 0x2060 MLOAD MULMOD PUSH2 0x1680 MLOAD ADDMOD ADDMOD SWAP3 POP POP POP DUP3 PUSH2 0x30C0 MLOAD PUSH2 0x3420 MLOAD MULMOD DUP4 DUP2 DUP6 SUB DUP4 ADDMOD SWAP2 POP DUP4 PUSH2 0x20A0 MLOAD DUP4 MULMOD SWAP2 POP DUP4 DUP5 PUSH2 0x3140 MLOAD DUP4 MULMOD DUP4 ADDMOD SWAP2 POP POP DUP3 PUSH2 0x3480 MLOAD DUP5 DUP4 DUP7 SUB DUP6 ADDMOD MULMOD PUSH2 0x3620 MSTORE POP POP DUP1 PUSH2 0x3440 MLOAD PUSH2 0x3480 MLOAD MULMOD PUSH2 0x3480 MSTORE DUP1 PUSH2 0x16E0 MLOAD PUSH2 0x1600 MLOAD MULMOD DUP2 PUSH2 0x1700 MLOAD PUSH2 0x1620 MLOAD MULMOD DUP3 PUSH2 0x1720 MLOAD PUSH2 0x1640 MLOAD MULMOD DUP4 PUSH2 0x1740 MLOAD PUSH2 0x1660 MLOAD MULMOD DUP5 PUSH32 0x183227397098D014DC2822DB40C0AC2E9419F4243CDCB848A1F0FAC9F8000000 DUP7 DUP8 PUSH1 0x3 DUP10 SUB PUSH2 0x17A0 MLOAD ADDMOD DUP9 PUSH2 0x1760 MLOAD DUP11 PUSH2 0x1620 MLOAD PUSH2 0x1600 MLOAD MULMOD MULMOD MULMOD MULMOD DUP6 DUP7 DUP8 DUP9 DUP10 DUP6 DUP11 ADDMOD DUP9 ADDMOD DUP7 ADDMOD DUP5 ADDMOD PUSH2 0x1780 MLOAD ADDMOD SWAP5 POP POP POP POP POP DUP2 DUP3 DUP4 DUP5 DUP6 PUSH2 0x1660 MLOAD PUSH2 0x1600 MLOAD ADDMOD PUSH2 0x19E0 MLOAD DUP8 SUB ADDMOD PUSH2 0x1760 MLOAD ADDMOD DUP5 PUSH1 0x2 DUP7 SUB PUSH2 0x17A0 MLOAD ADDMOD MULMOD PUSH2 0x2640 MLOAD MULMOD DUP3 DUP4 DUP5 DUP6 DUP7 DUP6 PUSH2 0x2040 MLOAD ADDMOD DUP8 PUSH1 0x1 DUP10 SUB PUSH2 0x17A0 MLOAD ADDMOD MULMOD DUP6 ADDMOD PUSH2 0x17A0 MLOAD MULMOD PUSH2 0x3480 MLOAD MULMOD PUSH2 0x3640 MSTORE POP POP DUP1 PUSH2 0x3420 MLOAD PUSH2 0x3480 MLOAD MULMOD PUSH2 0x3480 MSTORE PUSH1 0x2 DUP2 SUB PUSH1 0x3 DUP3 SUB DUP3 PUSH2 0x1600 MLOAD DUP5 SUB PUSH2 0x1620 MLOAD ADDMOD DUP4 PUSH2 0x1620 MLOAD DUP6 SUB PUSH2 0x1640 MLOAD ADDMOD DUP5 PUSH2 0x1640 MLOAD DUP7 SUB PUSH2 0x1660 MLOAD ADDMOD DUP6 PUSH2 0x1660 MLOAD DUP8 SUB PUSH2 0x19E0 MLOAD ADDMOD DUP7 PUSH2 0x3480 MLOAD DUP9 DUP10 DUP9 DUP9 ADDMOD DUP11 DUP12 DUP12 DUP11 ADDMOD DUP13 DUP11 DUP15 SUB DUP15 DUP13 DUP14 MULMOD ADDMOD MULMOD MULMOD MULMOD SWAP4 POP DUP7 DUP8 DUP9 PUSH2 0x2640 MLOAD PUSH2 0x3480 MLOAD MULMOD DUP10 DUP11 DUP10 DUP9 ADDMOD DUP12 DUP13 DUP13 DUP11 ADDMOD DUP14 DUP11 DUP16 SUB DUP16 DUP13 DUP14 MULMOD ADDMOD MULMOD MULMOD MULMOD DUP6 ADDMOD SWAP4 POP DUP7 DUP8 DUP9 PUSH2 0x3420 MLOAD PUSH2 0x3480 MLOAD MULMOD DUP10 DUP11 DUP10 DUP8 ADDMOD DUP12 DUP13 DUP13 DUP10 ADDMOD DUP14 DUP10 DUP16 SUB DUP16 DUP12 DUP13 MULMOD ADDMOD MULMOD MULMOD MULMOD DUP6 ADDMOD SWAP4 POP DUP7 DUP8 DUP9 PUSH2 0x3440 MLOAD PUSH2 0x3480 MLOAD MULMOD DUP10 DUP11 DUP10 DUP7 ADDMOD DUP12 DUP13 DUP13 DUP9 ADDMOD DUP14 DUP9 DUP16 SUB DUP16 DUP11 DUP12 MULMOD ADDMOD MULMOD MULMOD MULMOD DUP6 ADDMOD SWAP4 POP POP POP POP DUP4 PUSH2 0x17C0 MLOAD DUP3 MULMOD PUSH2 0x3660 MSTORE POP POP PUSH2 0x3460 MLOAD PUSH2 0x3480 MLOAD DUP4 SWAP3 POP MULMOD PUSH2 0x3480 MSTORE DUP1 PUSH2 0x1620 MLOAD DUP3 SUB PUSH2 0x19E0 MLOAD ADDMOD DUP2 PUSH2 0x2040 MLOAD PUSH2 0x2040 MLOAD MULMOD DUP3 PUSH2 0x1640 MLOAD PUSH2 0x1640 MLOAD MULMOD DUP4 PUSH2 0x16E0 MLOAD DUP6 PUSH2 0x2040 MLOAD PUSH2 0x1640 MLOAD MULMOD MULMOD DUP5 DUP6 DUP7 DUP4 DUP5 ADDMOD DUP8 DUP6 DUP8 ADDMOD DUP9 SUB ADDMOD DUP7 DUP8 DUP8 DUP9 MULMOD DUP9 DUP10 PUSH2 0x1620 MLOAD PUSH2 0x19E0 MLOAD ADDMOD PUSH2 0x2000 MLOAD ADDMOD MULMOD ADDMOD SWAP3 POP POP POP DUP3 PUSH2 0x3480 MLOAD DUP5 DUP6 PUSH2 0x1760 MLOAD DUP8 SUB PUSH1 0x1 ADDMOD DUP5 MULMOD MULMOD SWAP1 POP DUP3 PUSH2 0x2020 MLOAD PUSH2 0x1640 MLOAD ADDMOD DUP4 PUSH2 0x1640 MLOAD DUP6 SUB DUP6 PUSH2 0x16E0 MLOAD PUSH2 0x2040 MLOAD MULMOD ADDMOD DUP5 DUP6 DUP3 DUP8 PUSH2 0x1620 MLOAD DUP10 SUB PUSH2 0x2000 MLOAD ADDMOD MULMOD DUP7 DUP7 DUP6 MULMOD ADDMOD SWAP4 POP POP POP DUP3 DUP4 PUSH2 0x2640 MLOAD PUSH2 0x3480 MLOAD MULMOD DUP5 DUP6 PUSH2 0x1760 MLOAD DUP8 SUB PUSH1 0x1 ADDMOD DUP6 MULMOD MULMOD SWAP2 POP DUP3 PUSH2 0x17E0 MLOAD DUP5 DUP5 DUP5 ADDMOD MULMOD PUSH2 0x3680 MSTORE POP POP DUP1 PUSH2 0x1620 MLOAD PUSH2 0x1620 MLOAD MULMOD DUP2 PUSH2 0x1640 MLOAD PUSH2 0x1640 MLOAD MULMOD DUP3 PUSH2 0x1620 MLOAD DUP5 PUSH1 0x11 DUP5 ADDMOD MULMOD DUP4 PUSH1 0x4 DUP4 MULMOD SWAP2 POP DUP4 PUSH1 0x9 DUP3 MULMOD SWAP1 POP DUP4 PUSH1 0x3 DUP5 MULMOD SWAP3 POP DUP4 DUP2 DUP6 SUB DUP6 DUP5 DUP8 DUP9 PUSH2 0x1620 MLOAD PUSH2 0x1620 MLOAD ADDMOD PUSH2 0x2000 MLOAD ADDMOD MULMOD ADDMOD SWAP2 POP POP DUP3 DUP4 DUP5 PUSH2 0x2020 MLOAD PUSH2 0x1640 MLOAD ADDMOD DUP6 PUSH2 0x1640 MLOAD PUSH2 0x1640 MLOAD ADDMOD MULMOD DUP5 SUB DUP5 DUP6 PUSH2 0x2000 MLOAD DUP8 SUB PUSH2 0x1620 MLOAD ADDMOD DUP6 MULMOD ADDMOD SWAP2 POP DUP3 PUSH2 0x3480 MLOAD DUP3 MULMOD SWAP1 POP DUP3 DUP4 PUSH2 0x2640 MLOAD PUSH2 0x3480 MLOAD MULMOD DUP4 MULMOD SWAP2 POP DUP3 PUSH2 0x1760 MLOAD DUP3 MULMOD SWAP1 POP DUP3 PUSH2 0x1760 MLOAD DUP4 MULMOD SWAP2 POP DUP3 DUP4 PUSH2 0x17E0 MLOAD DUP6 DUP6 DUP6 ADDMOD MULMOD PUSH2 0x3680 MLOAD ADDMOD PUSH2 0x3680 MSTORE POP POP DUP1 PUSH2 0x3460 MLOAD PUSH2 0x3480 MLOAD MULMOD PUSH2 0x3480 MSTORE DUP1 DUP2 PUSH2 0x1620 MLOAD PUSH2 0x19E0 MLOAD MULMOD DUP3 PUSH2 0x2000 MLOAD PUSH2 0x1600 MLOAD MULMOD ADDMOD DUP2 PUSH2 0x2020 MLOAD DUP4 SUB DUP4 DUP5 PUSH2 0x1640 MLOAD PUSH2 0x1620 MLOAD MULMOD DUP6 PUSH2 0x1660 MLOAD PUSH2 0x1600 MLOAD MULMOD ADDMOD ADDMOD DUP3 PUSH1 0x1 PUSH1 0x44 SHL DUP3 MULMOD SWAP1 POP DUP3 PUSH2 0x2040 MLOAD DUP5 SUB DUP3 ADDMOD SWAP1 POP DUP3 DUP3 DUP3 ADDMOD SWAP1 POP DUP3 PUSH2 0x1740 MLOAD DUP3 MULMOD SWAP1 POP DUP3 PUSH1 0x1 PUSH1 0x44 SHL DUP4 MULMOD SWAP2 POP DUP3 DUP4 PUSH2 0x2000 MLOAD PUSH2 0x19E0 MLOAD MULMOD DUP4 ADDMOD SWAP2 POP DUP3 PUSH2 0x1720 MLOAD DUP5 DUP6 PUSH2 0x1660 MLOAD PUSH2 0x1640 MLOAD ADDMOD DUP7 SUB DUP6 ADDMOD MULMOD DUP4 PUSH2 0x1760 MLOAD DUP6 DUP7 PUSH2 0x2040 MLOAD PUSH2 0x2020 MLOAD ADDMOD DUP8 SUB DUP8 PUSH2 0x1660 MLOAD DUP9 ADDMOD ADDMOD MULMOD SWAP3 POP DUP4 PUSH2 0x1700 MLOAD DUP6 DUP6 DUP8 DUP7 DUP7 ADDMOD ADDMOD MULMOD PUSH2 0x36C0 MSTORE POP POP PUSH2 0x2000 MLOAD DUP3 SWAP2 POP PUSH2 0x4000 SWAP1 MULMOD DUP2 PUSH2 0x19E0 MLOAD DUP3 ADDMOD SWAP1 POP DUP2 PUSH2 0x4000 DUP3 MULMOD SWAP1 POP DUP2 PUSH2 0x1640 MLOAD DUP3 ADDMOD SWAP1 POP DUP2 PUSH2 0x4000 DUP3 MULMOD SWAP1 POP DUP2 PUSH2 0x1620 MLOAD DUP3 ADDMOD SWAP1 POP DUP2 PUSH2 0x4000 DUP3 MULMOD SWAP1 POP DUP2 PUSH2 0x1600 MLOAD DUP3 ADDMOD SWAP1 POP DUP2 PUSH2 0x1660 MLOAD DUP4 SUB DUP3 ADDMOD SWAP1 POP DUP2 PUSH2 0x1740 MLOAD DUP3 MULMOD SWAP1 POP DUP2 PUSH2 0x4000 PUSH2 0x2020 MLOAD MULMOD DUP3 PUSH2 0x2000 MLOAD DUP3 ADDMOD SWAP1 POP DUP3 PUSH2 0x4000 DUP3 MULMOD SWAP1 POP DUP3 PUSH2 0x19E0 MLOAD DUP3 ADDMOD SWAP1 POP DUP3 PUSH2 0x4000 DUP3 MULMOD SWAP1 POP DUP3 PUSH2 0x1660 MLOAD DUP3 ADDMOD SWAP1 POP DUP3 PUSH2 0x4000 DUP3 MULMOD SWAP1 POP DUP3 PUSH2 0x1640 MLOAD DUP3 ADDMOD SWAP1 POP DUP3 PUSH2 0x2040 MLOAD DUP5 SUB DUP3 ADDMOD SWAP1 POP DUP3 PUSH2 0x1760 MLOAD DUP3 MULMOD SWAP1 POP DUP3 PUSH2 0x1720 MLOAD DUP5 DUP4 DUP6 ADDMOD MULMOD PUSH2 0x36E0 MSTORE POP POP DUP1 PUSH2 0x2660 MLOAD PUSH2 0x1640 MLOAD MULMOD DUP2 PUSH2 0x1620 MLOAD DUP3 ADDMOD SWAP1 POP DUP2 PUSH2 0x2660 MLOAD DUP3 MULMOD SWAP1 POP DUP2 PUSH2 0x1600 MLOAD DUP3 ADDMOD SWAP1 POP DUP2 PUSH2 0x2660 MLOAD DUP3 MULMOD SWAP1 POP DUP2 PUSH2 0x1780 MLOAD DUP3 ADDMOD SWAP1 POP DUP1 DUP3 PUSH2 0x1660 MLOAD DUP5 SUB DUP4 ADDMOD SWAP2 POP DUP2 PUSH2 0x3740 MSTORE DUP3 PUSH2 0x1600 MLOAD DUP5 SUB PUSH2 0x19E0 MLOAD ADDMOD DUP4 PUSH2 0x1660 MLOAD DUP6 SUB PUSH2 0x2040 MLOAD ADDMOD DUP5 DUP6 PUSH1 0x1 DUP8 SUB DUP5 ADDMOD DUP4 MULMOD DUP6 DUP7 DUP5 DUP9 SUB PUSH1 0x1 ADDMOD DUP4 MULMOD SWAP2 POP DUP6 DUP6 DUP8 PUSH2 0x2640 MLOAD DUP10 DUP6 DUP12 PUSH2 0x2640 MLOAD DUP10 MULMOD ADDMOD MULMOD ADDMOD PUSH2 0x3720 MSTORE DUP6 PUSH2 0x2660 MLOAD PUSH2 0x2020 MLOAD MULMOD SWAP5 POP DUP6 PUSH2 0x2000 MLOAD DUP7 ADDMOD SWAP5 POP DUP6 PUSH2 0x2660 MLOAD DUP7 MULMOD SWAP5 POP DUP6 PUSH2 0x19E0 MLOAD DUP7 ADDMOD SWAP5 POP DUP6 PUSH2 0x2660 MLOAD DUP7 MULMOD SWAP5 POP DUP6 DUP6 DUP8 SUB PUSH2 0x2040 MLOAD ADDMOD SWAP5 POP DUP6 PUSH2 0x1640 MLOAD DUP8 SUB PUSH2 0x2020 MLOAD ADDMOD SWAP2 POP DUP6 DUP7 DUP8 DUP8 DUP10 SUB PUSH1 0x1 ADDMOD DUP5 MULMOD DUP8 DUP6 DUP10 SUB PUSH1 0x1 ADDMOD MULMOD SWAP2 POP DUP6 DUP5 DUP8 SUB PUSH2 0x1660 MLOAD ADDMOD DUP7 DUP8 PUSH1 0x1 DUP10 SUB DUP4 ADDMOD DUP3 MULMOD SWAP1 POP DUP7 DUP8 PUSH1 0x1 DUP10 SUB DUP9 ADDMOD DUP8 MULMOD SWAP6 POP DUP7 PUSH2 0x2640 MLOAD DUP5 MULMOD SWAP3 POP DUP7 DUP3 DUP5 ADDMOD SWAP3 POP DUP7 PUSH2 0x2640 MLOAD DUP5 MULMOD SWAP3 POP DUP7 DUP7 DUP5 ADDMOD SWAP3 POP DUP7 PUSH2 0x2640 MLOAD DUP5 MULMOD SWAP3 POP DUP7 DUP2 DUP5 ADDMOD SWAP3 POP POP DUP2 PUSH2 0x3700 MSTORE POP POP DUP4 PUSH2 0x1620 MLOAD DUP6 SUB PUSH2 0x2000 MLOAD ADDMOD SWAP3 POP DUP4 PUSH2 0x1640 MLOAD DUP6 SUB DUP6 DUP7 DUP5 DUP9 SUB PUSH1 0x1 ADDMOD DUP7 MULMOD ADDMOD SWAP3 POP DUP4 PUSH2 0x1700 MLOAD PUSH2 0x3720 MLOAD MULMOD SWAP2 POP DUP4 DUP5 PUSH2 0x1740 MLOAD DUP6 MULMOD DUP4 ADDMOD SWAP2 POP DUP4 DUP5 PUSH2 0x1760 MLOAD PUSH2 0x3740 MLOAD MULMOD DUP4 ADDMOD SWAP2 POP DUP4 PUSH2 0x16E0 MLOAD DUP4 MULMOD SWAP2 POP DUP4 DUP5 PUSH2 0x17A0 MLOAD PUSH2 0x3700 MLOAD MULMOD DUP4 ADDMOD SWAP2 POP DUP4 PUSH2 0x36C0 MLOAD DUP4 ADDMOD SWAP3 POP DUP4 PUSH2 0x36E0 MLOAD DUP5 ADDMOD SWAP3 POP DUP4 PUSH2 0x1800 MLOAD DUP5 MULMOD SWAP3 POP DUP4 PUSH2 0x3480 MLOAD DUP5 MULMOD SWAP3 POP DUP3 PUSH2 0x36A0 MSTORE DUP4 PUSH2 0x3440 MLOAD PUSH2 0x3480 MLOAD MULMOD PUSH2 0x3480 MSTORE POP POP POP DUP1 PUSH2 0x3780 MLOAD DUP3 PUSH2 0x36A0 MLOAD DUP5 PUSH2 0x3680 MLOAD DUP7 PUSH2 0x3660 MLOAD DUP9 PUSH2 0x3640 MLOAD DUP11 PUSH2 0x3620 MLOAD PUSH2 0x3600 MLOAD ADDMOD ADDMOD ADDMOD ADDMOD ADDMOD MULMOD PUSH2 0x3760 DUP2 SWAP1 MSTORE PUSH2 0x26E0 MLOAD PUSH2 0x37A0 DUP2 SWAP1 MSTORE PUSH2 0x37C0 SWAP2 SWAP1 SWAP2 MSTORE PUSH2 0x2E4 PUSH1 0x4 CALLDATALOAD ADD PUSH2 0x520 DUP2 PUSH2 0x37E0 CALLDATACOPY POP POP PUSH2 0x560 PUSH2 0x37A0 KECCAK256 DUP2 DUP2 MOD PUSH2 0x2700 MSTORE PUSH1 0x0 DUP2 SWAP1 MSTORE PUSH1 0x1 PUSH1 0x20 MSTORE8 DUP2 PUSH1 0x21 PUSH1 0x0 KECCAK256 MOD PUSH2 0x2720 MSTORE PUSH1 0x2 PUSH1 0x20 MSTORE8 DUP2 PUSH1 0x21 PUSH1 0x0 KECCAK256 MOD PUSH2 0x2740 MSTORE PUSH1 0x3 PUSH1 0x20 MSTORE8 DUP2 PUSH1 0x21 PUSH1 0x0 KECCAK256 MOD PUSH2 0x2760 MSTORE PUSH1 0x4 PUSH1 0x20 MSTORE8 DUP2 PUSH1 0x21 PUSH1 0x0 KECCAK256 MOD PUSH2 0x2780 MSTORE PUSH1 0x5 PUSH1 0x20 MSTORE8 DUP2 PUSH1 0x21 PUSH1 0x0 KECCAK256 MOD PUSH2 0x27A0 MSTORE PUSH1 0x6 PUSH1 0x20 MSTORE8 DUP2 PUSH1 0x21 PUSH1 0x0 KECCAK256 MOD PUSH2 0x27C0 MSTORE PUSH1 0x7 PUSH1 0x20 MSTORE8 DUP2 PUSH1 0x21 PUSH1 0x0 KECCAK256 MOD PUSH2 0x27E0 MSTORE PUSH1 0x8 PUSH1 0x20 MSTORE8 DUP2 PUSH1 0x21 PUSH1 0x0 KECCAK256 MOD PUSH2 0x2800 MSTORE PUSH1 0x9 PUSH1 0x20 MSTORE8 DUP2 PUSH1 0x21 PUSH1 0x0 KECCAK256 MOD PUSH2 0x2820 MSTORE PUSH1 0xA PUSH1 0x20 MSTORE8 DUP2 PUSH1 0x21 PUSH1 0x0 KECCAK256 MOD PUSH2 0x2840 MSTORE PUSH1 0xB PUSH1 0x20 MSTORE8 DUP2 PUSH1 0x21 PUSH1 0x0 KECCAK256 MOD PUSH2 0x2860 MSTORE PUSH1 0xC PUSH1 0x20 MSTORE8 DUP2 PUSH1 0x21 PUSH1 0x0 KECCAK256 MOD PUSH2 0x2880 MSTORE PUSH1 0xD PUSH1 0x20 MSTORE8 DUP2 PUSH1 0x21 PUSH1 0x0 KECCAK256 MOD PUSH2 0x28A0 MSTORE PUSH1 0xE PUSH1 0x20 MSTORE8 DUP2 PUSH1 0x21 PUSH1 0x0 KECCAK256 MOD PUSH2 0x28C0 MSTORE PUSH1 0xF PUSH1 0x20 MSTORE8 DUP2 PUSH1 0x21 PUSH1 0x0 KECCAK256 MOD PUSH2 0x28E0 MSTORE PUSH1 0x10 PUSH1 0x20 MSTORE8 DUP2 PUSH1 0x21 PUSH1 0x0 KECCAK256 MOD PUSH2 0x2900 MSTORE PUSH1 0x11 PUSH1 0x20 MSTORE8 DUP2 PUSH1 0x21 PUSH1 0x0 KECCAK256 MOD PUSH2 0x2920 MSTORE PUSH1 0x12 PUSH1 0x20 MSTORE8 DUP2 PUSH1 0x21 PUSH1 0x0 KECCAK256 MOD PUSH2 0x2940 MSTORE PUSH1 0x13 PUSH1 0x20 MSTORE8 DUP2 PUSH1 0x21 PUSH1 0x0 KECCAK256 MOD PUSH2 0x2960 MSTORE PUSH1 0x14 PUSH1 0x20 MSTORE8 DUP2 PUSH1 0x21 PUSH1 0x0 KECCAK256 MOD PUSH2 0x2980 MSTORE PUSH1 0x15 PUSH1 0x20 MSTORE8 DUP2 PUSH1 0x21 PUSH1 0x0 KECCAK256 MOD PUSH2 0x29A0 MSTORE PUSH1 0x16 PUSH1 0x20 MSTORE8 DUP2 PUSH1 0x21 PUSH1 0x0 KECCAK256 MOD PUSH2 0x29C0 MSTORE PUSH1 0x17 PUSH1 0x20 MSTORE8 DUP2 PUSH1 0x21 PUSH1 0x0 KECCAK256 MOD PUSH2 0x29E0 MSTORE PUSH1 0x18 PUSH1 0x20 MSTORE8 DUP2 PUSH1 0x21 PUSH1 0x0 KECCAK256 MOD PUSH2 0x2A00 MSTORE PUSH1 0x19 PUSH1 0x20 MSTORE8 DUP2 PUSH1 0x21 PUSH1 0x0 KECCAK256 MOD PUSH2 0x2A20 MSTORE PUSH1 0x1A PUSH1 0x20 MSTORE8 DUP2 PUSH1 0x21 PUSH1 0x0 KECCAK256 MOD PUSH2 0x2A40 MSTORE PUSH1 0x1B PUSH1 0x20 MSTORE8 DUP2 PUSH1 0x21 PUSH1 0x0 KECCAK256 MOD PUSH2 0x2A60 MSTORE PUSH1 0x1C PUSH1 0x20 MSTORE8 DUP2 PUSH1 0x21 PUSH1 0x0 KECCAK256 MOD PUSH2 0x2A80 MSTORE PUSH1 0x1D PUSH1 0x20 MSTORE8 DUP2 PUSH1 0x21 PUSH1 0x0 KECCAK256 MOD PUSH2 0x2AA0 MSTORE PUSH1 0x1D PUSH1 0x20 MSTORE8 POP PUSH1 0x21 PUSH1 0x0 SWAP1 DUP2 KECCAK256 DUP3 DUP2 MOD PUSH2 0x2AC0 MSTORE DUP2 MSTORE PUSH2 0x2320 MLOAD PUSH1 0x20 MSTORE PUSH2 0x2300 MLOAD PUSH1 0x40 MSTORE PUSH2 0x2360 MLOAD PUSH1 0x60 MSTORE PUSH2 0x2340 MLOAD PUSH1 0x80 MSTORE PUSH1 0xA0 DUP2 KECCAK256 DUP3 SWAP1 MOD PUSH2 0x2B00 MSTORE PUSH2 0x13C0 MLOAD PUSH2 0x13E0 MLOAD DUP5 DUP3 DUP1 MULMOD DUP6 PUSH1 0x3 DUP8 DUP4 DUP7 MULMOD ADDMOD DUP7 DUP4 DUP5 MULMOD EQ SWAP4 POP POP DUP2 PUSH2 0x3160 MSTORE DUP1 PUSH1 0x20 PUSH2 0x3160 ADD MSTORE POP POP PUSH2 0x1400 MLOAD PUSH2 0x1420 MLOAD DUP5 DUP3 DUP4 MULMOD DUP6 PUSH1 0x3 DUP8 DUP4 DUP7 MULMOD ADDMOD DUP7 DUP4 DUP5 MULMOD EQ DUP5 AND SWAP4 POP POP DUP2 PUSH1 0x0 MSTORE DUP1 PUSH1 0x20 MSTORE POP POP PUSH2 0x3040 MLOAD PUSH1 0x40 MSTORE PUSH1 0x40 PUSH2 0x31A0 PUSH1 0x60 PUSH1 0x0 PUSH1 0x7 GAS STATICCALL AND PUSH1 0x40 PUSH2 0x3160 PUSH1 0x80 DUP2 PUSH1 0x6 GAS STATICCALL DUP2 AND SWAP1 POP PUSH2 0x1440 MLOAD PUSH2 0x1460 MLOAD DUP5 DUP3 DUP4 MULMOD DUP6 PUSH1 0x3 DUP8 DUP4 DUP7 MULMOD ADDMOD DUP7 DUP4 DUP5 MULMOD EQ DUP5 AND SWAP4 POP POP DUP2 PUSH1 0x0 MSTORE DUP1 PUSH1 0x20 MSTORE POP POP DUP2 PUSH2 0x3040 MLOAD PUSH2 0x3040 MLOAD MULMOD PUSH1 0x40 MSTORE PUSH1 0x40 PUSH2 0x31A0 PUSH1 0x60 PUSH1 0x0 PUSH1 0x7 GAS STATICCALL AND PUSH1 0x40 PUSH2 0x3160 PUSH1 0x80 DUP2 PUSH1 0x6 GAS STATICCALL DUP2 AND SWAP1 POP PUSH2 0x1480 MLOAD PUSH2 0x14A0 MLOAD DUP5 DUP3 DUP4 MULMOD DUP6 PUSH1 0x3 DUP8 DUP4 DUP7 MULMOD ADDMOD DUP7 DUP4 DUP5 MULMOD EQ DUP5 AND SWAP4 POP POP DUP2 PUSH1 0x0 MSTORE DUP1 PUSH1 0x20 MSTORE POP POP DUP2 PUSH2 0x3040 MLOAD DUP4 PUSH2 0x3040 MLOAD PUSH2 0x3040 MLOAD MULMOD MULMOD PUSH1 0x40 MSTORE PUSH1 0x40 PUSH2 0x31A0 PUSH1 0x60 PUSH1 0x0 PUSH1 0x7 GAS STATICCALL AND PUSH1 0x40 PUSH2 0x3160 PUSH1 0x80 DUP2 PUSH1 0x6 GAS STATICCALL DUP2 AND SWAP1 POP PUSH2 0x1200 MLOAD PUSH2 0x1220 MLOAD DUP5 DUP3 DUP4 MULMOD DUP6 PUSH1 0x3 DUP8 DUP4 DUP7 MULMOD ADDMOD DUP7 DUP4 DUP5 MULMOD EQ DUP5 AND SWAP4 POP POP DUP2 PUSH1 0x0 MSTORE DUP1 PUSH1 0x20 MSTORE POP POP DUP2 PUSH2 0x2700 MLOAD DUP4 PUSH1 0x1 PUSH2 0x2B00 MLOAD ADDMOD MULMOD PUSH1 0x40 MSTORE PUSH1 0x40 PUSH2 0x31A0 PUSH1 0x60 PUSH1 0x0 PUSH1 0x7 GAS STATICCALL AND PUSH1 0x40 PUSH2 0x3160 PUSH1 0x80 DUP2 PUSH1 0x6 GAS STATICCALL DUP2 AND SWAP1 POP PUSH2 0x1240 MLOAD PUSH2 0x1260 MLOAD DUP5 DUP3 DUP4 MULMOD DUP6 PUSH1 0x3 DUP8 DUP4 DUP7 MULMOD ADDMOD DUP7 DUP4 DUP5 MULMOD EQ DUP5 AND SWAP4 POP POP DUP2 PUSH1 0x0 MSTORE DUP1 PUSH1 0x20 MSTORE POP POP DUP2 PUSH2 0x2720 MLOAD DUP4 PUSH1 0x1 PUSH2 0x2B00 MLOAD ADDMOD MULMOD PUSH1 0x40 MSTORE PUSH1 0x40 PUSH2 0x31A0 PUSH1 0x60 PUSH1 0x0 PUSH1 0x7 GAS STATICCALL AND PUSH1 0x40 PUSH2 0x3160 PUSH1 0x80 DUP2 PUSH1 0x6 GAS STATICCALL DUP2 AND SWAP1 POP PUSH2 0x1280 MLOAD PUSH2 0x12A0 MLOAD DUP5 DUP3 DUP4 MULMOD DUP6 PUSH1 0x3 DUP8 DUP4 DUP7 MULMOD ADDMOD DUP7 DUP4 DUP5 MULMOD EQ DUP5 AND SWAP4 POP POP DUP2 PUSH1 0x0 MSTORE DUP1 PUSH1 0x20 MSTORE POP POP DUP2 PUSH2 0x2740 MLOAD DUP4 PUSH1 0x1 PUSH2 0x2B00 MLOAD ADDMOD MULMOD PUSH1 0x40 MSTORE PUSH1 0x40 PUSH2 0x31A0 PUSH1 0x60 PUSH1 0x0 PUSH1 0x7 GAS STATICCALL AND PUSH1 0x40 PUSH2 0x3160 PUSH1 0x80 DUP2 PUSH1 0x6 GAS STATICCALL DUP2 AND SWAP1 POP PUSH2 0x12C0 MLOAD PUSH2 0x12E0 MLOAD DUP5 DUP3 DUP4 MULMOD DUP6 PUSH1 0x3 DUP8 DUP4 DUP7 MULMOD ADDMOD DUP7 DUP4 DUP5 MULMOD EQ DUP5 AND SWAP4 POP POP DUP2 PUSH1 0x0 MSTORE DUP1 PUSH1 0x20 MSTORE POP POP DUP2 PUSH2 0x2760 MLOAD DUP4 PUSH1 0x1 PUSH2 0x2B00 MLOAD ADDMOD MULMOD PUSH1 0x40 MSTORE PUSH1 0x40 PUSH2 0x31A0 PUSH1 0x60 PUSH1 0x0 PUSH1 0x7 GAS STATICCALL AND PUSH1 0x40 PUSH2 0x3160 PUSH1 0x80 DUP2 PUSH1 0x6 GAS STATICCALL DUP2 AND SWAP1 POP PUSH2 0x1300 MLOAD PUSH2 0x1320 MLOAD DUP5 DUP3 DUP4 MULMOD DUP6 PUSH1 0x3 DUP8 DUP4 DUP7 MULMOD ADDMOD DUP7 DUP4 DUP5 MULMOD EQ DUP5 AND SWAP4 POP POP DUP2 PUSH1 0x0 MSTORE DUP1 PUSH1 0x20 MSTORE POP POP DUP2 PUSH2 0x2780 MLOAD DUP4 PUSH1 0x1 PUSH2 0x2B00 MLOAD ADDMOD MULMOD PUSH1 0x40 MSTORE PUSH1 0x40 PUSH2 0x31A0 PUSH1 0x60 PUSH1 0x0 PUSH1 0x7 GAS STATICCALL AND PUSH1 0x40 PUSH2 0x3160 PUSH1 0x80 DUP2 PUSH1 0x6 GAS STATICCALL DUP2 AND SWAP1 POP PUSH2 0x1340 MLOAD PUSH2 0x1360 MLOAD DUP5 DUP3 DUP4 MULMOD DUP6 PUSH1 0x3 DUP8 DUP4 DUP7 MULMOD ADDMOD DUP7 DUP4 DUP5 MULMOD EQ DUP5 AND SWAP4 POP POP DUP2 PUSH1 0x0 MSTORE DUP1 PUSH1 0x20 MSTORE POP POP DUP2 PUSH2 0x27A0 MLOAD DUP4 PUSH1 0x1 PUSH2 0x2B00 MLOAD ADDMOD MULMOD PUSH1 0x40 MSTORE PUSH1 0x40 PUSH2 0x31A0 PUSH1 0x60 PUSH1 0x0 PUSH1 0x7 GAS STATICCALL AND PUSH1 0x40 PUSH2 0x3160 PUSH1 0x80 DUP2 PUSH1 0x6 GAS STATICCALL DUP2 AND SWAP1 POP PUSH2 0x1380 MLOAD PUSH2 0x13A0 MLOAD DUP5 DUP3 DUP4 MULMOD DUP6 PUSH1 0x3 DUP8 DUP4 DUP7 MULMOD ADDMOD DUP7 DUP4 DUP5 MULMOD EQ DUP5 AND SWAP4 POP POP DUP2 PUSH1 0x0 MSTORE DUP1 PUSH1 0x20 MSTORE POP POP DUP2 PUSH2 0x27C0 MLOAD DUP4 PUSH1 0x1 PUSH2 0x2B00 MLOAD ADDMOD MULMOD PUSH1 0x40 MSTORE PUSH1 0x40 PUSH2 0x31A0 PUSH1 0x60 PUSH1 0x0 PUSH1 0x7 GAS STATICCALL AND PUSH1 0x40 PUSH2 0x3160 PUSH1 0x80 DUP2 PUSH1 0x6 GAS STATICCALL DUP2 AND SWAP1 POP PUSH2 0x400 MLOAD PUSH2 0x420 MLOAD DUP5 DUP3 DUP4 MULMOD DUP6 PUSH1 0x3 DUP8 DUP4 DUP7 MULMOD ADDMOD DUP7 DUP4 DUP5 MULMOD EQ DUP5 AND SWAP4 POP POP DUP2 PUSH1 0x0 MSTORE DUP1 PUSH1 0x20 MSTORE POP POP PUSH2 0x27E0 MLOAD PUSH1 0x40 MSTORE PUSH1 0x40 PUSH2 0x31A0 PUSH1 0x60 PUSH1 0x0 PUSH1 0x7 GAS STATICCALL AND PUSH1 0x40 PUSH2 0x3160 PUSH1 0x80 DUP2 PUSH1 0x6 GAS STATICCALL DUP2 AND SWAP1 POP PUSH2 0x440 MLOAD PUSH2 0x460 MLOAD DUP5 DUP3 DUP4 MULMOD DUP6 PUSH1 0x3 DUP8 DUP4 DUP7 MULMOD ADDMOD DUP7 DUP4 DUP5 MULMOD EQ DUP5 AND SWAP4 POP POP DUP2 PUSH1 0x0 MSTORE DUP1 PUSH1 0x20 MSTORE POP POP PUSH2 0x2800 MLOAD PUSH1 0x40 MSTORE PUSH1 0x40 PUSH2 0x31A0 PUSH1 0x60 PUSH1 0x0 PUSH1 0x7 GAS STATICCALL AND PUSH1 0x40 PUSH2 0x3160 PUSH1 0x80 DUP2 PUSH1 0x6 GAS STATICCALL DUP2 AND SWAP1 POP PUSH2 0x480 MLOAD PUSH2 0x4A0 MLOAD DUP5 DUP3 DUP4 MULMOD DUP6 PUSH1 0x3 DUP8 DUP4 DUP7 MULMOD ADDMOD DUP7 DUP4 DUP5 MULMOD EQ DUP5 AND SWAP4 POP POP DUP2 PUSH1 0x0 MSTORE DUP1 PUSH1 0x20 MSTORE POP POP PUSH2 0x2820 MLOAD PUSH1 0x40 MSTORE PUSH1 0x40 PUSH2 0x31A0 PUSH1 0x60 PUSH1 0x0 PUSH1 0x7 GAS STATICCALL AND PUSH1 0x40 PUSH2 0x3160 PUSH1 0x80 DUP2 PUSH1 0x6 GAS STATICCALL DUP2 AND SWAP1 POP PUSH2 0x4C0 MLOAD PUSH2 0x4E0 MLOAD DUP5 DUP3 DUP4 MULMOD DUP6 PUSH1 0x3 DUP8 DUP4 DUP7 MULMOD ADDMOD DUP7 DUP4 DUP5 MULMOD EQ DUP5 AND SWAP4 POP POP DUP2 PUSH1 0x0 MSTORE DUP1 PUSH1 0x20 MSTORE POP POP PUSH2 0x2840 MLOAD PUSH1 0x40 MSTORE PUSH1 0x40 PUSH2 0x31A0 PUSH1 0x60 PUSH1 0x0 PUSH1 0x7 GAS STATICCALL AND PUSH1 0x40 PUSH2 0x3160 PUSH1 0x80 DUP2 PUSH1 0x6 GAS STATICCALL DUP2 AND SWAP1 POP PUSH2 0x500 MLOAD PUSH2 0x520 MLOAD DUP5 DUP3 DUP4 MULMOD DUP6 PUSH1 0x3 DUP8 DUP4 DUP7 MULMOD ADDMOD DUP7 DUP4 DUP5 MULMOD EQ DUP5 AND SWAP4 POP POP DUP2 PUSH1 0x0 MSTORE DUP1 PUSH1 0x20 MSTORE POP POP PUSH2 0x2860 MLOAD PUSH1 0x40 MSTORE PUSH1 0x40 PUSH2 0x31A0 PUSH1 0x60 PUSH1 0x0 PUSH1 0x7 GAS STATICCALL AND PUSH1 0x40 PUSH2 0x3160 PUSH1 0x80 DUP2 PUSH1 0x6 GAS STATICCALL DUP2 AND SWAP1 POP PUSH2 0x540 MLOAD PUSH2 0x560 MLOAD DUP5 DUP3 DUP4 MULMOD DUP6 PUSH1 0x3 DUP8 DUP4 DUP7 MULMOD ADDMOD DUP7 DUP4 DUP5 MULMOD EQ DUP5 AND SWAP4 POP POP DUP2 PUSH1 0x0 MSTORE DUP1 PUSH1 0x20 MSTORE POP POP PUSH2 0x2880 MLOAD PUSH1 0x40 MSTORE PUSH1 0x40 PUSH2 0x31A0 PUSH1 0x60 PUSH1 0x0 PUSH1 0x7 GAS STATICCALL AND PUSH1 0x40 PUSH2 0x3160 PUSH1 0x80 DUP2 PUSH1 0x6 GAS STATICCALL DUP2 AND SWAP1 POP PUSH2 0x580 MLOAD PUSH2 0x5A0 MLOAD DUP5 DUP3 DUP4 MULMOD DUP6 PUSH1 0x3 DUP8 DUP4 DUP7 MULMOD ADDMOD DUP7 DUP4 DUP5 MULMOD EQ DUP5 AND SWAP4 POP POP DUP2 PUSH1 0x0 MSTORE DUP1 PUSH1 0x20 MSTORE POP POP PUSH2 0x28A0 MLOAD PUSH1 0x40 MSTORE PUSH1 0x40 PUSH2 0x31A0 PUSH1 0x60 PUSH1 0x0 PUSH1 0x7 GAS STATICCALL AND PUSH1 0x40 PUSH2 0x3160 PUSH1 0x80 DUP2 PUSH1 0x6 GAS STATICCALL DUP2 AND SWAP1 POP PUSH2 0x5C0 MLOAD PUSH2 0x5E0 MLOAD DUP5 DUP3 DUP4 MULMOD DUP6 PUSH1 0x3 DUP8 DUP4 DUP7 MULMOD ADDMOD DUP7 DUP4 DUP5 MULMOD EQ DUP5 AND SWAP4 POP POP DUP2 PUSH1 0x0 MSTORE DUP1 PUSH1 0x20 MSTORE POP POP PUSH2 0x28C0 MLOAD PUSH1 0x40 MSTORE PUSH1 0x40 PUSH2 0x31A0 PUSH1 0x60 PUSH1 0x0 PUSH1 0x7 GAS STATICCALL AND PUSH1 0x40 PUSH2 0x3160 PUSH1 0x80 DUP2 PUSH1 0x6 GAS STATICCALL DUP2 AND SWAP1 POP PUSH2 0x600 MLOAD PUSH2 0x620 MLOAD DUP5 DUP3 DUP4 MULMOD DUP6 PUSH1 0x3 DUP8 DUP4 DUP7 MULMOD ADDMOD DUP7 DUP4 DUP5 MULMOD EQ DUP5 AND SWAP4 POP POP DUP2 PUSH1 0x0 MSTORE DUP1 PUSH1 0x20 MSTORE POP POP PUSH2 0x28E0 MLOAD PUSH1 0x40 MSTORE PUSH1 0x40 PUSH2 0x31A0 PUSH1 0x60 PUSH1 0x0 PUSH1 0x7 GAS STATICCALL AND PUSH1 0x40 PUSH2 0x3160 PUSH1 0x80 DUP2 PUSH1 0x6 GAS STATICCALL DUP2 AND SWAP1 POP PUSH2 0x640 MLOAD PUSH2 0x660 MLOAD DUP5 DUP3 DUP4 MULMOD DUP6 PUSH1 0x3 DUP8 DUP4 DUP7 MULMOD ADDMOD DUP7 DUP4 DUP5 MULMOD EQ DUP5 AND SWAP4 POP POP DUP2 PUSH1 0x0 MSTORE DUP1 PUSH1 0x20 MSTORE POP POP PUSH2 0x2900 MLOAD PUSH1 0x40 MSTORE PUSH1 0x40 PUSH2 0x31A0 PUSH1 0x60 PUSH1 0x0 PUSH1 0x7 GAS STATICCALL AND PUSH1 0x40 PUSH2 0x3160 PUSH1 0x80 DUP2 PUSH1 0x6 GAS STATICCALL DUP2 AND SWAP1 POP PUSH2 0x680 MLOAD PUSH2 0x6A0 MLOAD DUP5 DUP3 DUP4 MULMOD DUP6 PUSH1 0x3 DUP8 DUP4 DUP7 MULMOD ADDMOD DUP7 DUP4 DUP5 MULMOD EQ DUP5 AND SWAP4 POP POP DUP2 PUSH1 0x0 MSTORE DUP1 PUSH1 0x20 MSTORE POP POP PUSH2 0x2920 MLOAD PUSH1 0x40 MSTORE PUSH1 0x40 PUSH2 0x31A0 PUSH1 0x60 PUSH1 0x0 PUSH1 0x7 GAS STATICCALL AND PUSH1 0x40 PUSH2 0x3160 PUSH1 0x80 DUP2 PUSH1 0x6 GAS STATICCALL DUP2 AND SWAP1 POP PUSH2 0x6C0 MLOAD PUSH2 0x6E0 MLOAD DUP5 DUP3 DUP4 MULMOD DUP6 PUSH1 0x3 DUP8 DUP4 DUP7 MULMOD ADDMOD DUP7 DUP4 DUP5 MULMOD EQ DUP5 AND SWAP4 POP POP DUP2 PUSH1 0x0 MSTORE DUP1 PUSH1 0x20 MSTORE POP POP PUSH2 0x2940 MLOAD PUSH1 0x40 MSTORE PUSH1 0x40 PUSH2 0x31A0 PUSH1 0x60 PUSH1 0x0 PUSH1 0x7 GAS STATICCALL AND PUSH1 0x40 PUSH2 0x3160 PUSH1 0x80 DUP2 PUSH1 0x6 GAS STATICCALL DUP2 AND SWAP1 POP PUSH2 0x700 MLOAD PUSH2 0x720 MLOAD DUP5 DUP3 DUP4 MULMOD DUP6 PUSH1 0x3 DUP8 DUP4 DUP7 MULMOD ADDMOD DUP7 DUP4 DUP5 MULMOD EQ DUP5 AND SWAP4 POP POP DUP2 PUSH1 0x0 MSTORE DUP1 PUSH1 0x20 MSTORE POP POP PUSH2 0x2960 MLOAD PUSH1 0x40 MSTORE PUSH1 0x40 PUSH2 0x31A0 PUSH1 0x60 PUSH1 0x0 PUSH1 0x7 GAS STATICCALL AND PUSH1 0x40 PUSH2 0x3160 PUSH1 0x80 DUP2 PUSH1 0x6 GAS STATICCALL DUP2 AND SWAP1 POP PUSH2 0x740 MLOAD PUSH2 0x760 MLOAD DUP5 DUP3 DUP4 MULMOD DUP6 PUSH1 0x3 DUP8 DUP4 DUP7 MULMOD ADDMOD DUP7 DUP4 DUP5 MULMOD EQ DUP5 AND SWAP4 POP POP DUP2 PUSH1 0x0 MSTORE DUP1 PUSH1 0x20 MSTORE POP POP PUSH2 0x2980 MLOAD PUSH1 0x40 MSTORE PUSH1 0x40 PUSH2 0x31A0 PUSH1 0x60 PUSH1 0x0 PUSH1 0x7 GAS STATICCALL AND PUSH1 0x40 PUSH2 0x3160 PUSH1 0x80 DUP2 PUSH1 0x6 GAS STATICCALL DUP2 AND SWAP1 POP PUSH2 0x780 MLOAD PUSH2 0x7A0 MLOAD DUP5 DUP3 DUP4 MULMOD DUP6 PUSH1 0x3 DUP8 DUP4 DUP7 MULMOD ADDMOD DUP7 DUP4 DUP5 MULMOD EQ DUP5 AND SWAP4 POP POP DUP2 PUSH1 0x0 MSTORE DUP1 PUSH1 0x20 MSTORE POP POP DUP2 PUSH2 0x29A0 MLOAD DUP4 PUSH1 0x1 PUSH2 0x2B00 MLOAD ADDMOD MULMOD PUSH1 0x40 MSTORE PUSH1 0x40 PUSH2 0x31A0 PUSH1 0x60 PUSH1 0x0 PUSH1 0x7 GAS STATICCALL AND PUSH1 0x40 PUSH2 0x3160 PUSH1 0x80 DUP2 PUSH1 0x6 GAS STATICCALL DUP2 AND SWAP1 POP PUSH2 0x7C0 MLOAD PUSH2 0x7E0 MLOAD DUP5 DUP3 DUP4 MULMOD DUP6 PUSH1 0x3 DUP8 DUP4 DUP7 MULMOD ADDMOD DUP7 DUP4 DUP5 MULMOD EQ DUP5 AND SWAP4 POP POP DUP2 PUSH1 0x0 MSTORE DUP1 PUSH1 0x20 MSTORE POP POP DUP2 PUSH2 0x29C0 MLOAD DUP4 PUSH1 0x1 PUSH2 0x2B00 MLOAD ADDMOD MULMOD PUSH1 0x40 MSTORE PUSH1 0x40 PUSH2 0x31A0 PUSH1 0x60 PUSH1 0x0 PUSH1 0x7 GAS STATICCALL AND PUSH1 0x40 PUSH2 0x3160 PUSH1 0x80 DUP2 PUSH1 0x6 GAS STATICCALL DUP2 AND SWAP1 POP PUSH2 0x800 MLOAD PUSH2 0x820 MLOAD DUP5 DUP3 DUP4 MULMOD DUP6 PUSH1 0x3 DUP8 DUP4 DUP7 MULMOD ADDMOD DUP7 DUP4 DUP5 MULMOD EQ DUP5 AND SWAP4 POP POP DUP2 PUSH1 0x0 MSTORE DUP1 PUSH1 0x20 MSTORE POP POP DUP2 PUSH2 0x29E0 MLOAD DUP4 PUSH1 0x1 PUSH2 0x2B00 MLOAD ADDMOD MULMOD PUSH1 0x40 MSTORE PUSH1 0x40 PUSH2 0x31A0 PUSH1 0x60 PUSH1 0x0 PUSH1 0x7 GAS STATICCALL AND PUSH1 0x40 PUSH2 0x3160 PUSH1 0x80 DUP2 PUSH1 0x6 GAS STATICCALL DUP2 AND SWAP1 POP PUSH2 0x840 MLOAD PUSH2 0x860 MLOAD DUP5 DUP3 DUP4 MULMOD DUP6 PUSH1 0x3 DUP8 DUP4 DUP7 MULMOD ADDMOD DUP7 DUP4 DUP5 MULMOD EQ DUP5 AND SWAP4 POP POP DUP2 PUSH1 0x0 MSTORE DUP1 PUSH1 0x20 MSTORE POP POP DUP2 PUSH2 0x2A00 MLOAD DUP4 PUSH1 0x1 PUSH2 0x2B00 MLOAD ADDMOD MULMOD PUSH1 0x40 MSTORE PUSH1 0x40 PUSH2 0x31A0 PUSH1 0x60 PUSH1 0x0 PUSH1 0x7 GAS STATICCALL AND PUSH1 0x40 PUSH2 0x3160 PUSH1 0x80 DUP2 PUSH1 0x6 GAS STATICCALL DUP2 AND SWAP1 POP PUSH2 0x880 MLOAD PUSH2 0x8A0 MLOAD DUP5 DUP3 DUP4 MULMOD DUP6 PUSH1 0x3 DUP8 DUP4 DUP7 MULMOD ADDMOD DUP7 DUP4 DUP5 MULMOD EQ DUP5 AND SWAP4 POP POP DUP2 PUSH1 0x0 MSTORE DUP1 PUSH1 0x20 MSTORE POP POP PUSH2 0x2A20 MLOAD PUSH1 0x40 MSTORE PUSH1 0x40 PUSH2 0x31A0 PUSH1 0x60 PUSH1 0x0 PUSH1 0x7 GAS STATICCALL AND PUSH1 0x40 PUSH2 0x3160 PUSH1 0x80 DUP2 PUSH1 0x6 GAS STATICCALL DUP2 AND SWAP1 POP PUSH2 0x8C0 MLOAD PUSH2 0x8E0 MLOAD DUP5 DUP3 DUP4 MULMOD DUP6 PUSH1 0x3 DUP8 DUP4 DUP7 MULMOD ADDMOD DUP7 DUP4 DUP5 MULMOD EQ DUP5 AND SWAP4 POP POP DUP2 PUSH1 0x0 MSTORE DUP1 PUSH1 0x20 MSTORE POP POP PUSH2 0x2A40 MLOAD PUSH1 0x40 MSTORE PUSH1 0x40 PUSH2 0x31A0 PUSH1 0x60 PUSH1 0x0 PUSH1 0x7 GAS STATICCALL AND PUSH1 0x40 PUSH2 0x3160 PUSH1 0x80 DUP2 PUSH1 0x6 GAS STATICCALL DUP2 AND SWAP1 POP PUSH2 0x900 MLOAD PUSH2 0x920 MLOAD DUP5 DUP3 DUP4 MULMOD DUP6 PUSH1 0x3 DUP8 DUP4 DUP7 MULMOD ADDMOD DUP7 DUP4 DUP5 MULMOD EQ DUP5 AND SWAP4 POP POP DUP2 PUSH1 0x0 MSTORE DUP1 PUSH1 0x20 MSTORE POP POP PUSH2 0x2A60 MLOAD PUSH1 0x40 MSTORE PUSH1 0x40 PUSH2 0x31A0 PUSH1 0x60 PUSH1 0x0 PUSH1 0x7 GAS STATICCALL AND PUSH1 0x40 PUSH2 0x3160 PUSH1 0x80 DUP2 PUSH1 0x6 GAS STATICCALL DUP2 AND SWAP1 POP PUSH2 0x940 MLOAD PUSH2 0x960 MLOAD DUP5 DUP3 DUP4 MULMOD DUP6 PUSH1 0x3 DUP8 DUP4 DUP7 MULMOD ADDMOD DUP7 DUP4 DUP5 MULMOD EQ DUP5 AND SWAP4 POP POP DUP2 PUSH1 0x0 MSTORE DUP1 PUSH1 0x20 MSTORE POP POP PUSH2 0x2A80 MLOAD PUSH1 0x40 MSTORE PUSH1 0x40 PUSH2 0x31A0 PUSH1 0x60 PUSH1 0x0 PUSH1 0x7 GAS STATICCALL AND PUSH1 0x40 PUSH2 0x3160 PUSH1 0x80 DUP2 PUSH1 0x6 GAS STATICCALL DUP2 AND SWAP1 POP PUSH2 0x980 MLOAD PUSH2 0x9A0 MLOAD DUP5 DUP3 DUP4 MULMOD DUP6 PUSH1 0x3 DUP8 DUP4 DUP7 MULMOD ADDMOD DUP7 DUP4 DUP5 MULMOD EQ DUP5 AND SWAP4 POP POP DUP2 PUSH1 0x0 MSTORE DUP1 PUSH1 0x20 MSTORE POP POP PUSH2 0x2AA0 MLOAD PUSH1 0x40 MSTORE PUSH1 0x40 PUSH2 0x31A0 PUSH1 0x60 PUSH1 0x0 PUSH1 0x7 GAS STATICCALL AND PUSH1 0x40 PUSH2 0x3160 PUSH1 0x80 DUP2 PUSH1 0x6 GAS STATICCALL DUP2 AND SWAP1 POP DUP2 DUP3 PUSH2 0x1600 MLOAD DUP5 PUSH2 0x2B00 MLOAD PUSH2 0x19E0 MLOAD MULMOD ADDMOD PUSH2 0x2700 MLOAD MULMOD DUP3 DUP4 DUP5 PUSH2 0x1620 MLOAD DUP7 PUSH2 0x2B00 MLOAD PUSH2 0x2000 MLOAD MULMOD ADDMOD PUSH2 0x2720 MLOAD MULMOD DUP3 ADDMOD SWAP1 POP DUP3 DUP4 DUP5 PUSH2 0x1640 MLOAD DUP7 PUSH2 0x2B00 MLOAD PUSH2 0x2020 MLOAD MULMOD ADDMOD PUSH2 0x2740 MLOAD MULMOD DUP3 ADDMOD SWAP1 POP DUP3 DUP4 DUP5 PUSH2 0x1660 MLOAD DUP7 PUSH2 0x2B00 MLOAD PUSH2 0x2040 MLOAD MULMOD ADDMOD PUSH2 0x2760 MLOAD MULMOD DUP3 ADDMOD SWAP1 POP DUP3 DUP4 DUP5 PUSH2 0x1680 MLOAD DUP7 PUSH2 0x2B00 MLOAD PUSH2 0x2060 MLOAD MULMOD ADDMOD PUSH2 0x2780 MLOAD MULMOD DUP3 ADDMOD SWAP1 POP DUP3 DUP4 DUP5 PUSH2 0x16A0 MLOAD DUP7 PUSH2 0x2B00 MLOAD PUSH2 0x2080 MLOAD MULMOD ADDMOD PUSH2 0x27A0 MLOAD MULMOD DUP3 ADDMOD SWAP1 POP DUP3 DUP4 DUP5 PUSH2 0x16C0 MLOAD DUP7 PUSH2 0x2B00 MLOAD PUSH2 0x20A0 MLOAD MULMOD ADDMOD PUSH2 0x27C0 MLOAD MULMOD DUP3 ADDMOD SWAP1 POP DUP3 DUP4 PUSH2 0x16E0 MLOAD PUSH2 0x27E0 MLOAD MULMOD DUP3 ADDMOD SWAP1 POP DUP3 DUP4 PUSH2 0x1700 MLOAD PUSH2 0x2800 MLOAD MULMOD DUP3 ADDMOD SWAP1 POP DUP3 DUP4 PUSH2 0x1720 MLOAD PUSH2 0x2820 MLOAD MULMOD DUP3 ADDMOD SWAP1 POP DUP3 DUP4 PUSH2 0x1740 MLOAD PUSH2 0x2840 MLOAD MULMOD DUP3 ADDMOD SWAP1 POP DUP3 DUP4 PUSH2 0x1760 MLOAD PUSH2 0x2860 MLOAD MULMOD DUP3 ADDMOD SWAP1 POP DUP3 DUP4 PUSH2 0x1780 MLOAD PUSH2 0x2880 MLOAD MULMOD DUP3 ADDMOD SWAP1 POP DUP3 DUP4 PUSH2 0x17A0 MLOAD PUSH2 0x28A0 MLOAD MULMOD DUP3 ADDMOD SWAP1 POP DUP3 DUP4 PUSH2 0x17C0 MLOAD PUSH2 0x28C0 MLOAD MULMOD DUP3 ADDMOD SWAP1 POP DUP3 DUP4 PUSH2 0x17E0 MLOAD PUSH2 0x28E0 MLOAD MULMOD DUP3 ADDMOD SWAP1 POP DUP3 DUP4 PUSH2 0x1800 MLOAD PUSH2 0x2900 MLOAD MULMOD DUP3 ADDMOD SWAP1 POP DUP3 DUP4 PUSH2 0x1960 MLOAD PUSH2 0x2920 MLOAD MULMOD DUP3 ADDMOD SWAP1 POP DUP3 DUP4 PUSH2 0x1980 MLOAD PUSH2 0x2940 MLOAD MULMOD DUP3 ADDMOD SWAP1 POP DUP3 DUP4 PUSH2 0x19A0 MLOAD PUSH2 0x2960 MLOAD MULMOD DUP3 ADDMOD SWAP1 POP DUP3 DUP4 PUSH2 0x19C0 MLOAD PUSH2 0x2980 MLOAD MULMOD DUP3 ADDMOD SWAP1 POP DUP3 DUP4 DUP5 PUSH2 0x1840 MLOAD DUP7 PUSH2 0x2B00 MLOAD PUSH2 0x20C0 MLOAD MULMOD ADDMOD PUSH2 0x29A0 MLOAD MULMOD DUP3 ADDMOD SWAP1 POP DUP3 DUP4 DUP5 PUSH2 0x1860 MLOAD DUP7 PUSH2 0x2B00 MLOAD PUSH2 0x20E0 MLOAD MULMOD ADDMOD PUSH2 0x29C0 MLOAD MULMOD DUP3 ADDMOD SWAP1 POP DUP3 DUP4 DUP5 PUSH2 0x1880 MLOAD DUP7 PUSH2 0x2B00 MLOAD PUSH2 0x2100 MLOAD MULMOD ADDMOD PUSH2 0x29E0 MLOAD MULMOD DUP3 ADDMOD SWAP1 POP DUP3 DUP4 DUP5 PUSH2 0x18A0 MLOAD DUP7 PUSH2 0x2B00 MLOAD PUSH2 0x2120 MLOAD MULMOD ADDMOD PUSH2 0x2A00 MLOAD MULMOD DUP3 ADDMOD SWAP1 POP DUP3 DUP4 PUSH2 0x18C0 MLOAD PUSH2 0x2A20 MLOAD MULMOD DUP3 ADDMOD SWAP1 POP DUP3 DUP4 PUSH2 0x18E0 MLOAD PUSH2 0x2A40 MLOAD MULMOD DUP3 ADDMOD SWAP1 POP DUP3 DUP4 PUSH2 0x1900 MLOAD PUSH2 0x2A60 MLOAD MULMOD DUP3 ADDMOD SWAP1 POP DUP3 DUP4 PUSH2 0x1920 MLOAD PUSH2 0x2A80 MLOAD MULMOD DUP3 ADDMOD SWAP1 POP DUP3 DUP4 PUSH2 0x1940 MLOAD PUSH2 0x2AA0 MLOAD MULMOD DUP3 ADDMOD SWAP1 POP DUP3 PUSH2 0x3760 MLOAD DUP3 ADDMOD SWAP1 POP PUSH1 0x1 PUSH1 0x0 MSTORE PUSH1 0x2 PUSH1 0x20 MSTORE DUP1 DUP4 SUB PUSH1 0x40 MSTORE POP PUSH1 0x40 PUSH2 0x31A0 PUSH1 0x60 PUSH1 0x0 PUSH1 0x7 GAS STATICCALL AND PUSH1 0x40 PUSH2 0x3160 PUSH1 0x80 DUP2 PUSH1 0x6 GAS STATICCALL AND PUSH2 0x3360 DUP2 SWAP1 MSTORE PUSH2 0x2B00 MLOAD PUSH2 0x26C0 MLOAD PUSH2 0x2300 MLOAD PUSH2 0x2320 MLOAD DUP7 DUP3 DUP1 MULMOD DUP8 PUSH1 0x3 DUP10 DUP4 DUP7 MULMOD ADDMOD DUP9 DUP4 DUP5 MULMOD EQ SWAP6 POP POP DUP2 PUSH1 0x0 MSTORE DUP1 PUSH1 0x20 MSTORE POP POP DUP1 PUSH1 0x40 MSTORE PUSH1 0x40 PUSH2 0x31A0 PUSH1 0x60 PUSH1 0x0 PUSH1 0x7 GAS STATICCALL DUP4 AND SWAP3 POP PUSH1 0x40 PUSH2 0x3160 PUSH1 0x80 PUSH2 0x3160 PUSH1 0x6 GAS STATICCALL DUP4 AND SWAP3 POP PUSH2 0x2340 MLOAD PUSH2 0x2360 MLOAD DUP7 DUP3 DUP4 MULMOD DUP8 PUSH1 0x3 DUP10 DUP4 DUP7 MULMOD ADDMOD DUP9 DUP4 DUP5 MULMOD EQ DUP7 AND SWAP6 POP POP DUP2 PUSH1 0x0 MSTORE DUP1 PUSH1 0x20 MSTORE POP POP DUP4 PUSH2 0x3C0 MLOAD DUP6 DUP4 DUP6 MULMOD MULMOD PUSH1 0x40 MSTORE POP PUSH1 0x40 PUSH2 0x31A0 PUSH1 0x60 PUSH1 0x0 PUSH1 0x7 GAS STATICCALL DUP3 AND SWAP2 POP PUSH1 0x40 PUSH2 0x3220 PUSH1 0x80 PUSH2 0x3160 PUSH1 0x6 GAS STATICCALL DUP3 AND SWAP2 POP PUSH2 0x2300 MLOAD PUSH1 0x0 MSTORE PUSH2 0x2320 MLOAD PUSH1 0x20 MSTORE PUSH2 0x2340 MLOAD PUSH1 0x40 MSTORE PUSH2 0x2360 MLOAD PUSH1 0x60 MSTORE DUP1 PUSH1 0x80 MSTORE PUSH1 0x40 DUP1 PUSH1 0x60 PUSH1 0x40 PUSH1 0x7 GAS STATICCALL DUP3 AND SWAP2 POP PUSH1 0x40 PUSH2 0x31E0 PUSH1 0x80 PUSH1 0x0 PUSH1 0x6 GAS STATICCALL DUP3 AND SWAP2 POP PUSH2 0x3200 MLOAD DUP5 SUB PUSH2 0x3200 MSTORE PUSH2 0x9C0 MLOAD ISZERO PUSH2 0x2B14 JUMPI PUSH2 0x3500 MLOAD PUSH2 0x3520 MLOAD DUP6 DUP3 DUP4 MULMOD DUP7 PUSH1 0x3 DUP9 DUP4 DUP7 MULMOD ADDMOD DUP8 DUP4 DUP5 MULMOD EQ DUP6 AND SWAP5 POP POP DUP2 PUSH1 0x0 MSTORE DUP1 PUSH1 0x20 MSTORE POP POP DUP3 DUP2 DUP3 MULMOD PUSH1 0x40 MSTORE PUSH1 0x40 PUSH1 0x60 DUP1 PUSH1 0x0 PUSH1 0x7 GAS STATICCALL DUP3 AND SWAP2 POP PUSH2 0x3540 MLOAD PUSH2 0x3560 MLOAD DUP6 DUP3 DUP4 MULMOD DUP7 PUSH1 0x3 DUP9 DUP4 DUP7 MULMOD ADDMOD DUP8 DUP4 DUP5 MULMOD EQ DUP6 AND SWAP5 POP POP DUP2 PUSH1 0x0 MSTORE DUP1 PUSH1 0x20 MSTORE POP POP PUSH1 0x40 PUSH1 0x0 PUSH1 0x60 PUSH1 0x0 PUSH1 0x7 GAS STATICCALL DUP3 AND SWAP2 POP PUSH2 0x3220 MLOAD PUSH1 0xA0 MSTORE PUSH2 0x3240 MLOAD PUSH1 0xC0 MSTORE PUSH1 0x40 PUSH2 0x3220 PUSH1 0x80 PUSH1 0x60 PUSH1 0x6 GAS STATICCALL DUP3 AND SWAP2 POP PUSH2 0x31E0 MLOAD PUSH1 0x40 MSTORE PUSH2 0x3200 MLOAD PUSH1 0x60 MSTORE PUSH1 0x40 PUSH2 0x31E0 PUSH1 0x80 PUSH1 0x0 PUSH1 0x6 GAS STATICCALL DUP3 AND SWAP2 POP JUMPDEST POP DUP1 PUSH2 0x2B2B JUMPI PUSH4 0xF755F369 PUSH1 0xE0 SHL PUSH1 0x0 MSTORE PUSH1 0x4 PUSH1 0x0 REVERT JUMPDEST DUP1 PUSH2 0x3380 MSTORE PUSH2 0x3220 MLOAD PUSH1 0x0 MSTORE PUSH2 0x3240 MLOAD PUSH1 0x20 MSTORE PUSH32 0x198E9393920D483A7260BFB731FB5D25F1AA493335A9E71297E485B7AEF312C2 PUSH1 0x40 MSTORE PUSH32 0x1800DEEF121F1E76426A00665E5C4479674322D4F75EDADD46DEBD5CD992F6ED PUSH1 0x60 MSTORE PUSH32 0x90689D0585FF075EC9E99AD690C3395BC4B313370B38EF355ACDADCD122975B PUSH1 0x80 MSTORE PUSH32 0x12C85EA5DB8C6DEB4AAB71808DCB408FE3D1E7690C43D37B4CE6CC0166FA7DAA PUSH1 0xA0 MSTORE PUSH2 0x31E0 MLOAD PUSH1 0xC0 MSTORE PUSH2 0x3200 MLOAD PUSH1 0xE0 MSTORE PUSH2 0xA00 MLOAD PUSH2 0x100 MSTORE PUSH2 0xA20 MLOAD PUSH2 0x120 MSTORE PUSH2 0xA40 MLOAD PUSH2 0x140 MSTORE PUSH2 0xA60 MLOAD PUSH2 0x160 MSTORE PUSH1 0x20 PUSH1 0x0 PUSH2 0x180 PUSH1 0x0 PUSH1 0x8 GAS STATICCALL SWAP1 POP DUP1 PUSH2 0x33A0 MSTORE PUSH1 0x0 MLOAD PUSH2 0x33C0 MSTORE POP POP POP PUSH2 0x3360 MLOAD PUSH2 0x3380 MLOAD PUSH2 0x33C0 MLOAD PUSH2 0x33A0 MLOAD AND AND AND PUSH2 0x2C42 JUMPI PUSH4 0x1C47F3B PUSH1 0xE2 SHL PUSH1 0x0 MSTORE PUSH1 0x4 PUSH1 0x0 REVERT JUMPDEST PUSH1 0x1 PUSH1 0x0 MSTORE PUSH1 0x20 PUSH1 0x0 RETURN JUMPDEST PUSH1 0x0 DUP1 PUSH1 0x0 DUP1 PUSH1 0x40 DUP6 DUP8 SUB SLT ISZERO PUSH2 0x2C63 JUMPI PUSH1 0x0 DUP1 REVERT JUMPDEST DUP5 CALLDATALOAD PUSH8 0xFFFFFFFFFFFFFFFF DUP1 DUP3 GT ISZERO PUSH2 0x2C7B JUMPI PUSH1 0x0 DUP1 REVERT JUMPDEST DUP2 DUP8 ADD SWAP2 POP DUP8 PUSH1 0x1F DUP4 ADD SLT PUSH2 0x2C8F JUMPI PUSH1 0x0 DUP1 REVERT JUMPDEST DUP2 CALLDATALOAD DUP2 DUP2 GT ISZERO PUSH2 0x2C9E JUMPI PUSH1 0x0 DUP1 REVERT JUMPDEST DUP9 PUSH1 0x20 DUP3 DUP6 ADD ADD GT ISZERO PUSH2 0x2CB0 JUMPI PUSH1 0x0 DUP1 REVERT JUMPDEST PUSH1 0x20 SWAP3 DUP4 ADD SWAP7 POP SWAP5 POP SWAP1 DUP7 ADD CALLDATALOAD SWAP1 DUP1 DUP3 GT ISZERO PUSH2 0x2CCB JUMPI PUSH1 0x0 DUP1 REVERT JUMPDEST DUP2 DUP8 ADD SWAP2 POP DUP8 PUSH1 0x1F DUP4 ADD SLT PUSH2 0x2CDF JUMPI PUSH1 0x0 DUP1 REVERT JUMPDEST DUP2 CALLDATALOAD DUP2 DUP2 GT ISZERO PUSH2 0x2CEE JUMPI PUSH1 0x0 DUP1 REVERT JUMPDEST DUP9 PUSH1 0x20 DUP3 PUSH1 0x5 SHL DUP6 ADD ADD GT ISZERO PUSH2 0x2D03 JUMPI PUSH1 0x0 DUP1 REVERT JUMPDEST SWAP6 SWAP9 SWAP5 SWAP8 POP POP PUSH1 0x20 ADD SWAP5 POP POP POP JUMP INVALID LOG2 PUSH5 0x6970667358 0x22 SLT KECCAK256 SELFDESTRUCT SWAP16 0xBF 0xDB SWAP8 EXP SWAP6 LOG4 PUSH18 0x1EAC24024702869491DD8FE0C37465F01987 PUSH5 0x3C2743CA64 PUSH20 0x6F6C634300081300330000000000000000000000 "
		},
		"gasEstimates": {
			"creation": {
				"codeDepositCost": "2318400",
				"executionCost": "2486",
				"totalCost": "2320886"
			},
			"external": {
				"getVerificationKeyHash()": "144",
				"verify(bytes,bytes32[])": "infinite"
			},
			"internal": {
				"loadVerificationKey(uint256,uint256)": "infinite"
			}
		},
		"methodIdentifiers": {
			"getVerificationKeyHash()": "937f6a10",
			"verify(bytes,bytes32[])": "ea50d0e4"
		}
	},
	"abi": [
		{
			"inputs": [],
			"name": "EC_SCALAR_MUL_FAILURE",
			"type": "error"
		},
		{
			"inputs": [],
			"name": "MOD_EXP_FAILURE",
			"type": "error"
		},
		{
			"inputs": [],
			"name": "PROOF_FAILURE",
			"type": "error"
		},
		{
			"inputs": [
				{
					"internalType": "uint256",
					"name": "expected",
					"type": "uint256"
				},
				{
					"internalType": "uint256",
					"name": "actual",
					"type": "uint256"
				}
			],
			"name": "PUBLIC_INPUT_COUNT_INVALID",
			"type": "error"
		},
		{
			"inputs": [],
			"name": "PUBLIC_INPUT_GE_P",
			"type": "error"
		},
		{
			"inputs": [],
			"name": "PUBLIC_INPUT_INVALID_BN128_G1_POINT",
			"type": "error"
		},
		{
			"inputs": [],
			"name": "getVerificationKeyHash",
			"outputs": [
				{
					"internalType": "bytes32",
					"name": "",
					"type": "bytes32"
				}
			],
			"stateMutability": "pure",
			"type": "function"
		},
		{
			"inputs": [
				{
					"internalType": "bytes",
					"name": "_proof",
					"type": "bytes"
				},
				{
					"internalType": "bytes32[]",
					"name": "_publicInputs",
					"type": "bytes32[]"
				}
			],
			"name": "verify",
			"outputs": [
				{
					"internalType": "bool",
					"name": "",
					"type": "bool"
				}
			],
			"stateMutability": "view",
			"type": "function"
		}
	]
}