{
	"data": {
		"bytecode": {
			"linkReferences": {},
			"object": "6000600255610120604052730bf3de8c5d3e8a2b34d2beeb17abfcebaf363a5960c090815273f694e193200268f9a4868e4aa017a0118c9a817760e052739c32fcb86bf0f4a1a8921a9fe46de3198bb884b26101005262000064906003908162000726565b506040805160608101825273779877a7b0d9e8603169ddbd7836e478b46247898152730b9d5d9136855f6fec3c0993fee6e9ce8a2978466020820152730fd9e8d3af1aaee056eb9e802c3a762a667b190491810191909152620000cc90600690600362000726565b506040805160608101825273195f15f2d49d693ce265b4fb0fddbe15b1850cc1815273327b83f409e1d5f13985c6d0584420fa648f1f566020820152736e6c366a1cd1f92ba87fd6f96f743b0e6c967bf0918101919091526200013490600990600362000726565b506040805160608101825267de41ba4fc9d91ad9815267ccf0a31a221f3c9b602082015267e1f4423f1bf587cd918101919091526200017890600c90600362000783565b506040805160608101825273694aa1769357215de4fac081bf1f309adc3253068152735498bb86bc934c8d34fda08e81d444153d0d06ad6020820152721382149eba3441043c1c66972b4772963f5d4391810191909152620001df90600d90600362000726565b506040805160608101825273349b5c479e59467903cf7dc094702bf97fa6af4e80825260208201819052918101919091526200022090601090600362000726565b5060006043553480156200023357600080fd5b50604051620042443803806200424483398101604081905262000256916200083c565b338060006009846003811062000270576200027062000856565b015460408051630711a57d60e21b815290516001600160a01b039092169182918291631c4695f4916004808201926020929091908290030181865afa158015620002be573d6000803e3d6000fd5b505050506040513d601f19601f82011682018060405250810190620002e491906200086c565b6001600160a01b0390811660805290811660a052831690506200034e5760405162461bcd60e51b815260206004820152601860248201527f43616e6e6f7420736574206f776e657220746f207a65726f000000000000000060448201526064015b60405180910390fd5b600080546001600160a01b0319166001600160a01b0384811691909117909155811615620003815762000381816200039a565b50505060028190556200039362000445565b506200089e565b336001600160a01b03821603620003f45760405162461bcd60e51b815260206004820152601760248201527f43616e6e6f74207472616e7366657220746f2073656c66000000000000000000604482015260640162000345565b600180546001600160a01b0319166001600160a01b0383811691821790925560008054604051929316917fed8889f560326eb138920d842192f0eb3dd22b4f139c87a2c57538e05bae12789190a350565b6200044f620006c8565b6040805180820182526000808252606460208084019182526019805460018181018355828652955160029182027f944998273e477b495144fb8794c914197f3ccb46be2900f4698fd0ef743c96958181019290925594517f944998273e477b495144fb8794c914197f3ccb46be2900f4698fd0ef743c9696958601558751808901895286815260328186018181528554808b018755868a5292519285028085019390935551918701919091558851808a018a52888152600a8187019081528554808b018755868a5291519185028085019290925551908701558851808a018a528781528086018281528554808b018755868a5291519185028085019290925551908701558851808a018a5287815260968187019081528554808b018755868a5291519185028085019290925551908701558851808a018a52600380825260128288019081528654808c018855878b5292519286028086019390935551918801919091558951808b018b5288815260c88188018181528754808d018955888c5292519287028087019390935551918901919091558a51808c018c528981528088018481528754808d018955888c5291519187028087019290925551908901558a51808c018c528a815260148189019081528754808d018955888c5291519187028087019290925551908901558a51808c018c528981528088019384528654808c018855878b529051908602808601919091559251928801929092558951808b018b528881528087019283528554808b018755868a529051908502808501919091559151918701919091558851808a019099528852600993880193845282549687018355919094529451939092029384019290925551910155565b6000546001600160a01b03163314620007245760405162461bcd60e51b815260206004820152601660248201527f4f6e6c792063616c6c61626c65206279206f776e657200000000000000000000604482015260640162000345565b565b826003810192821562000771579160200282015b828111156200077157825182546001600160a01b0319166001600160a01b039091161782556020909201916001909101906200073a565b506200077f92915062000825565b5090565b600183019183908215620007715791602002820160005b83821115620007e657835183826101000a8154816001600160401b0302191690836001600160401b0316021790555092602001926008016020816007010492830192600103026200079a565b80156200081b5782816101000a8154906001600160401b030219169055600801602081600701049283019260010302620007e6565b50506200077f9291505b5b808211156200077f576000815560010162000826565b6000602082840312156200084f57600080fd5b5051919050565b634e487b7160e01b600052603260045260246000fd5b6000602082840312156200087f57600080fd5b81516001600160a01b03811681146200089757600080fd5b9392505050565b60805160a05161395d620008e76000396000818161067801528181610bdb015281816124ca01528181612568015261261201526000818161094a0152612539015261395d6000f3fe6080604052600436106102ae5760003560e01c806392e0c91a11610175578063d0d5117e116100dc578063e16b619311610095578063ea0297011161006f578063ea0297011461098e578063f2683ecd146109ae578063f2fde38b146109e6578063fa3b11d214610a0657600080fd5b8063e16b61931461091b578063e76d51681461093b578063e8af8c0d1461096e57600080fd5b8063d0d5117e1461080e578063d252682d14610833578063d272e57e14610853578063d5540a2714610869578063d65ab5f214610889578063df4f55321461089157600080fd5b8063b76ee4a81161012e578063b76ee4a814610713578063bac009d314610733578063bfd772fc1461076b578063c8f33c911461078b578063cc216aba146107a1578063cdc7bc87146107c157600080fd5b806392e0c91a1461063e578063975ec813146106465780639ed0868d14610666578063a029c4051461069a578063a55e1d45146106c6578063b3b2875e146106e657600080fd5b8063441bbacb1161021957806379ba5097116101d257806379ba5097146105895780637e8104e71461059e57806385572ffb146105be5780638da5cb5b146105de5780638dc654a2146105fc57806391f543511461061157600080fd5b8063441bbacb1461045f57806344b7e83c1461047f57806349c9d17a146104a45780634e9c1118146104c457806367c58157146104e45780636906a2e91461055c57600080fd5b80631fe543e31161026b5780631fe543e3146103845780632bf34fbd146103a45780633236f6ae146103dc57806334c53eed14610400578063380149ab146104155780633db497de1461044a57600080fd5b806301ffc9a7146102b35780630cae4589146102e857806310fa7879146102f257806311b7aad51461032a57806312065fe01461034e5780631528d36f14610361575b600080fd5b3480156102bf57600080fd5b506102d36102ce366004612d65565b610a26565b60405190151581526020015b60405180910390f35b6102f0610a5d565b005b3480156102fe57600080fd5b5061031261030d366004612d8f565b610ab4565b6040516001600160a01b0390911681526020016102df565b34801561033657600080fd5b5061034060025481565b6040519081526020016102df565b34801561035a57600080fd5b5047610340565b34801561036d57600080fd5b50610376610ad4565b6040516102df929190612de3565b34801561039057600080fd5b506102f061039f366004612ebb565b610bd9565b3480156103b057600080fd5b506103c46103bf366004612d8f565b610c43565b6040516001600160401b0390911681526020016102df565b3480156103e857600080fd5b506103f1610c76565b6040516102df93929190612f5c565b34801561040c57600080fd5b50610376610dcd565b34801561042157600080fd5b50610435610430366004612d8f565b610ecd565b604080519283526020830191909152016102df565b34801561045657600080fd5b506102f0610efb565b34801561046b57600080fd5b5061031261047a366004612d8f565b61117c565b34801561048b57600080fd5b5061049461118c565b6040516102df9493929190612f8a565b3480156104b057600080fd5b506102f06104bf366004612fdb565b61126a565b3480156104d057600080fd5b506103126104df366004612d8f565b61132d565b3480156104f057600080fd5b5061054c6104ff366004612d8f565b601b60209081526000918252604091829020805460018201546002830154855180870190965260048401548652600590930154938501939093526001600160a01b03169260ff9091169084565b6040516102df9493929190613069565b34801561056857600080fd5b5061034061057736600461309d565b60416020526000908152604090205481565b34801561059557600080fd5b506102f061133d565b3480156105aa57600080fd5b506103126105b9366004612d8f565b6113e7565b3480156105ca57600080fd5b506102f06105d93660046130ba565b6113f7565b3480156105ea57600080fd5b506000546001600160a01b0316610312565b34801561060857600080fd5b506102f061144c565b34801561061d57600080fd5b5061034061062c36600461309d565b60216020526000908152604090205481565b610340611617565b34801561065257600080fd5b506102f06106613660046130f4565b611790565b34801561067257600080fd5b506103127f000000000000000000000000000000000000000000000000000000000000000081565b3480156106a657600080fd5b506103406106b536600461309d565b602080526000908152604090205481565b3480156106d257600080fd5b506103406106e136600461316b565b611b29565b3480156106f257600080fd5b5061034061070136600461309d565b601a6020526000908152604090205481565b34801561071f57600080fd5b5061034061072e366004612d8f565b611b5a565b34801561073f57600080fd5b5061034061074e36600461316b565b601d60209081526000928352604080842090915290825290205481565b34801561077757600080fd5b50610312610786366004612d8f565b611b71565b34801561079757600080fd5b5061034060405481565b3480156107ad57600080fd5b506102f06107bc366004612d8f565b611b81565b3480156107cd57600080fd5b506016546017546018546107e9926001600160a01b0316919083565b604080516001600160a01b0390941684526020840192909252908201526060016102df565b34801561081a57600080fd5b50610823611c87565b6040516102df94939291906131c0565b34801561083f57600080fd5b5061031261084e366004612d8f565b611d56565b34801561085f57600080fd5b5061034060435481565b34801561087557600080fd5b5061034061088436600461316b565b611d66565b6102f0611d82565b34801561089d57600080fd5b506108e56108ac366004612d8f565b60426020526000908152604090208054600182015460028301546003840154600490940154929391926001600160a01b03909116919085565b6040805195865260208601949094526001600160a01b03909216928401929092526060830191909152608082015260a0016102df565b34801561092757600080fd5b50610340610936366004612d8f565b611e39565b34801561094757600080fd5b507f0000000000000000000000000000000000000000000000000000000000000000610312565b34801561097a57600080fd5b50610340610989366004612d8f565b611f00565b34801561099a57600080fd5b506103126109a9366004612d8f565b611f10565b3480156109ba57600080fd5b506103406109c936600461316b565b601f60209081526000928352604080842090915290825290205481565b3480156109f257600080fd5b506102f0610a0136600461309d565b611f20565b348015610a1257600080fd5b506102f0610a21366004612d8f565b611f31565b60006001600160e01b031982166385572ffb60e01b1480610a5757506001600160e01b031982166301ffc9a760e01b145b92915050565b6000610a696005611e39565b905080341015610a945760405162461bcd60e51b8152600401610a8b90613221565b60405180910390fd5b602c546001600160a01b03168015610ab057610ab0818361202d565b5050565b60098160038110610ac457600080fd5b01546001600160a01b0316905081565b336000908152601c60209081526040918290208054835181840281018401909452808452606093849390929190830182828015610b3057602002820191906000526020600020905b815481526020019060010190808311610b1c575b5050505050915081516001600160401b03811115610b5057610b50612e08565b604051908082528060200260200182016040528015610b79578160200160208202803683370190505b50905060005b8251811015610bd457336000908152601d602090815260408083208484529091529020548251839083908110610bb757610bb7613258565b602090810291909101015280610bcc81613284565b915050610b7f565b509091565b7f0000000000000000000000000000000000000000000000000000000000000000336001600160a01b03821614610c34576040516345d498b760e11b81523360048201526001600160a01b0382166024820152604401610a8b565b610c3e8383612063565b505050565b600c8160038110610c5357600080fd5b60049182820401919006600802915054906101000a90046001600160401b031681565b600080610c96604051806040016040528060008152602001600081525090565b336000908152601a6020908152604080832054808452601b90925290912060010154610cf85760405162461bcd60e51b81526020600482015260116024820152701c995c5d595cdd081b9bdd08199bdd5b99607a1b6044820152606401610a8b565b6000818152601b60209081526040808320815160a08101835281546001600160a01b03168152600182015481850152600282015460ff16151581840152600382018054845181870281018701909552808552919492936060860193909290830182828015610d8557602002820191906000526020600020905b815481526020019060010190808311610d71575b50505091835250506040805180820182526004840154815260059093015460208481019190915291820192909252820151908201516080909201519097919650945092505050565b336000908152601e60209081526040918290208054835181840281018401909452808452606093849390929190830182828015610e2957602002820191906000526020600020905b815481526020019060010190808311610e15575b5050505050915081516001600160401b03811115610e4957610e49612e08565b604051908082528060200260200182016040528015610e72578160200160208202803683370190505b50905060005b8251811015610bd457336000908152601f602090815260408083208484529091529020548251839083908110610eb057610eb0613258565b602090810291909101015280610ec581613284565b915050610e78565b60198181548110610edd57600080fd5b60009182526020909120600290910201805460019091015490915082565b610f036122e2565b6040805180820182526000808252606460208084019182526019805460018181018355828652955160029182027f944998273e477b495144fb8794c914197f3ccb46be2900f4698fd0ef743c96958181019290925594517f944998273e477b495144fb8794c914197f3ccb46be2900f4698fd0ef743c9696958601558751808901895286815260328186018181528554808b018755868a5292519285028085019390935551918701919091558851808a018a52888152600a8187019081528554808b018755868a5291519185028085019290925551908701558851808a018a528781528086018281528554808b018755868a5291519185028085019290925551908701558851808a018a5287815260968187019081528554808b018755868a5291519185028085019290925551908701558851808a018a52600380825260128288019081528654808c018855878b5292519286028086019390935551918801919091558951808b018b5288815260c88188018181528754808d018955888c5292519287028087019390935551918901919091558a51808c018c528981528088018481528754808d018955888c5291519187028087019290925551908901558a51808c018c528a815260148189019081528754808d018955888c5291519187028087019290925551908901558a51808c018c528981528088019384528654808c018855878b529051908602808601919091559251928801929092558951808b018b528881528087019283528554808b018755868a529051908502808501919091559151918701919091558851808a019099528852600993880193845282549687018355919094529451939092029384019290925551910155565b600d8160038110610ac457600080fd5b33600090815260208080526040808320546021835281842054601c8452828520601e855283862081548551818802810188019096528086528796606096879695949392909184919083018282801561120357602002820191906000526020600020905b8154815260200190600101908083116111ef575b505050505091508080548060200260200160405190810160405280929190818152602001828054801561125557602002820191906000526020600020905b815481526020019060010190808311611241575b50505050509050935093509350935090919293565b6112726122e2565b60038151146112c35760405162461bcd60e51b815260206004820152601960248201527f72656365697665724c697374206973206e6f742076616c6964000000000000006044820152606401610a8b565b60005b8151811015610ab0578181815181106112e1576112e1613258565b6020026020010151601382600381106112fc576112fc613258565b0180546001600160a01b0319166001600160a01b03929092169190911790558061132581613284565b9150506112c6565b60038160038110610ac457600080fd5b6001546001600160a01b031633146113905760405162461bcd60e51b815260206004820152601660248201527526bab9ba10313290383937b837b9b2b21037bbb732b960511b6044820152606401610a8b565b60008054336001600160a01b0319808316821784556001805490911690556040516001600160a01b0390921692909183917f8be0079c531659141344cd1fd0a4f28419497f9722a3daafe3b4186f6b6457e091a350565b60108160038110610ac457600080fd5b60036002546003811061140c5761140c613258565b01546001600160a01b03163314611438576040516335fdcccd60e21b8152336004820152602401610a8b565b611449611444826133bb565b612337565b50565b6114546122e2565b60006001600160a01b031660066002546003811061147457611474613258565b01546001600160a01b0316036114d85760405162461bcd60e51b8152602060048201526024808201527f6572726f723a2077697468647261774c696e6b206973206e6f7420737570706f6044820152631c9d195960e21b6064820152608401610a8b565b60006006600254600381106114ef576114ef613258565b01546040516370a0823160e01b81523060048201526001600160a01b039091169150819063a9059cbb90339083906370a0823190602401602060405180830381865afa158015611543573d6000803e3d6000fd5b505050506040513d601f19601f820116820180604052508101906115679190613467565b6040516001600160e01b031960e085901b1681526001600160a01b03909216600483015260248201526044016020604051808303816000875af11580156115b2573d6000803e3d6000fd5b505050506040513d601f19601f820116820180604052508101906115d69190613480565b6114495760405162461bcd60e51b81526020600482015260126024820152712ab730b13632903a37903a3930b739b332b960711b6044820152606401610a8b565b6000806116246004611e39565b9050803410156116465760405162461bcd60e51b8152600401610a8b90613221565b6000611662604051806020016040528060001515815250612429565b9050600080611678621e8480600360018661249a565b6040805160a081018252338152602080820184815260008385018181528551828152808501875260608601908152865180880188528381528086018490526080870152888352601b855295909120845181546001600160a01b0319166001600160a01b03909116178155915160018301555160028201805460ff1916911515919091179055925180519597509395509093919261171e9260038501929190910190612ce6565b506080919091015180516004830155602090810151600590920191909155336000908152601a825260409081902084905580518481526001928101929092527f3279bde246f2449036f4a5a85e935ae7cb08612c5645c2673490d2fd624683ae910160405180910390a1509392505050565b604080516001808252818301909252600091602080830190803683370190505090508160001b816000815181106117c9576117c9613258565b60200260200101818152505060006010600254600381106117ec576117ec613258565b01546001600160a01b03169050806118465760405162461bcd60e51b815260206004820152601f60248201527f566572696669636174696f6e4b65794861736820697320696e76616c696421006044820152606401610a8b565b604051633a94343960e21b815281906000906001600160a01b0383169063ea50d0e49061187b908a908a9089906004016134a2565b602060405180830381865afa158015611898573d6000803e3d6000fd5b505050506040513d601f19601f820116820180604052508101906118bc9190613480565b9050806118fc5760405162461bcd60e51b815260206004820152600e60248201526d566572696679206661696c65642160901b6044820152606401610a8b565b336000818152604160209081526040808320548084526042835292819020426001820155600401899055805160608101825293845290830188905260025490830152906119489061269d565b60005b6003811015611aa6576000600c826003811061196957611969613258565b600491828204019190066008029054906101000a90046001600160401b0316905060006013836003811061199f5761199f613258565b01546002546001600160a01b0390911691506001600160401b03831690600c90600381106119cf576119cf613258565b600491828204019190066008029054906101000a90046001600160401b03166001600160401b031614158015611a0d57506001600160a01b03811615155b15611a9157611a8f8282600660025460038110611a2c57611a2c613258565b01546002546001600160a01b0390911690600390818110611a4f57611a4f613258565b0160009054906101000a90046001600160a01b03166040518060600160405280336001600160a01b031681526020018f8152602001600254815250612895565b505b50508080611a9e90613284565b91505061194b565b506000818152604260209081526040918290208054600182015460028301546003909301548551928352938201526001600160a01b03909116928101929092526060820188905260808201527f66286673e71e7c3a4012d09fbb56001733372c438dc9ba84cc4ca1ef2c84a2b09060a00160405180910390a15050505050505050565b601c6020528160005260406000208181548110611b4557600080fd5b90600052602060002001600091509150505481565b602281600a8110611b6a57600080fd5b0154905081565b60138160038110610ac457600080fd5b336000908152601c6020908152604080832080548251818502810185019093528083529192909190830182828015611bd857602002820191906000526020600020905b815481526020019060010190808311611bc4575b505050505090506000805b8251811015611c235783838281518110611bff57611bff613258565b602002602001015103611c1157600191505b80611c1b81613284565b915050611be3565b508080611c2e575082155b15611c6357336000908152601d602090815260408083208684529091528120805491611c5983613284565b9190505550505050565b5050336000908152601c602090815260408220805460018101825590835291200155565b611c8f612d31565b611c97612d31565b611c9f612d31565b604080548151610140810192839052600092602292603692602c928590600a9082845b815481526020019060010190808311611cc257505060408051610140810191829052949850879350600a9250905082845b815481526020019060010190808311611cf357505060408051610140810191829052949750869350600a9250905082845b81546001600160a01b03168152600190910190602001808311611d245750505050509150935093509350935090919293565b602c81600a8110610ac457600080fd5b601e6020528160005260406000208181548110611b4557600080fd5b6000611d8e6001611e39565b905080341015611db05760405162461bcd60e51b8152600401610a8b90613221565b602c546001600160a01b0316478015801590611dd457506001600160a01b03821615155b15611de357611de3828261202d565b6043805433600081815260416020908152604080832085905593825260429052828120429055835481529190912060020180546001600160a01b031916909117905554611e3190600161351b565b604355505050565b600080600d60025460038110611e5157611e51613258565b0160009054906101000a90046001600160a01b03166001600160a01b031663feaf968c6040518163ffffffff1660e01b815260040160a060405180830381865afa158015611ea3573d6000803e3d6000fd5b505050506040513d601f19601f82011682018060405250810190611ec79190613548565b50505091505080670de0b6b3a7640000611ee191906135ae565b611eef906305f5e1006135dc565b611ef9908461360c565b9392505050565b603681600a8110611b6a57600080fd5b60068160038110610ac457600080fd5b611f286122e2565b61144981612c1f565b336000908152601e6020908152604080832080548251818502810185019093528083529192909190830182828015611f8857602002820191906000526020600020905b815481526020019060010190808311611f74575b505050505090506000805b8251811015611fd35783838281518110611faf57611faf613258565b602002602001015103611fc157600191505b80611fcb81613284565b915050611f93565b508080611fde575082155b1561200957336000908152601f602090815260408083208684529091528120805491611c5983613284565b5050336000908152601e602090815260408220805460018101825590835291200155565b6040516001600160a01b0383169082156108fc029083906000818181858888f19350505050158015610c3e573d6000803e3d6000fd5b60008151116120ac5760405162461bcd60e51b81526020600482015260156024820152741c985b991bdb55dbdc991cc81b9bdd08199bdd5b99605a1b6044820152606401610a8b565b6000828152601b60205260409020600101546120fe5760405162461bcd60e51b81526020600482015260116024820152701c995c5d595cdd081b9bdd08199bdd5b99607a1b6044820152606401610a8b565b60006019805490508260008151811061211957612119613258565b602002602001015161212b9190613623565b905060006019828154811061214257612142613258565b6000918252602080832060408051808201825260029485029092018054835260019081015483850152898652601b84529420928301805460ff1916909417909355855192935061219b9260039092019190860190612ce6565b506000848152601b602090815260408220835160048201819055918401516005820155546001600160a01b03169103612206576020808301516001600160a01b0383166000908152918052604082208054919290916121fb90849061351b565b9091555061228c9050565b815160010361224857816020015160216000836001600160a01b03166001600160a01b0316815260200190815260200160002060008282546121fb919061351b565b815160021461228c57815160030361228c576001600160a01b0381166000908152601c60209081526040822084820151815460018101835591845291909220909101555b6000858152601b6020526040908190206001015490517f8c5eb6455fc6d271f045db3f6049931e0b5372962417d81dcc38fc0bebe8d141916122d391889188918790613637565b60405180910390a15050505050565b6000546001600160a01b031633146123355760405162461bcd60e51b815260206004820152601660248201527527b7363c9031b0b63630b1363290313c9037bbb732b960511b6044820152606401610a8b565b565b806060015180602001905181019061234f919061366f565b8051601680546001600160a01b0319166001600160a01b03909216918217905560208083015160178190556040938401516018819055845160608101865293845291830152918101919091526123a49061269d565b80602001516001600160401b031681600001517faa5cbdcf4f25939d41be3032075952cfd5f51f978a501d2f801d671061623f1d83604001518060200190518101906123f091906136d0565b604080516001600160a01b039283168152601654909216602083015260175490820152601854606082015260800160405180910390a350565b60607f92fd13387c7fe7befbc38d303d6468778fb9731bc4583f17d92989c6fcfdeaaa8260405160240161246291511515815260200190565b60408051601f198184030181529190526020810180516001600160e01b03166001600160e01b03199093169290921790915292915050565b6040516313f2e28560e11b815263ffffffff80861660048301528316602482015260009081906001600160a01b037f000000000000000000000000000000000000000000000000000000000000000016906327e5c50a90604401602060405180830381865afa158015612511573d6000803e3d6000fd5b505050506040513d601f19601f820116820180604052508101906125359190613467565b90507f00000000000000000000000000000000000000000000000000000000000000006001600160a01b0316634000aea07f0000000000000000000000000000000000000000000000000000000000000000838989898960405160200161259f9493929190613733565b6040516020818303038152906040526040518463ffffffff1660e01b81526004016125cc93929190613770565b6020604051808303816000875af11580156125eb573d6000803e3d6000fd5b505050506040513d601f19601f8201168201806040525081019061260f9190613480565b507f00000000000000000000000000000000000000000000000000000000000000006001600160a01b031663fc2a88c36040518163ffffffff1660e01b8152600401602060405180830381865afa15801561266e573d6000803e3d6000fd5b505050506040513d601f19601f820116820180604052508101906126929190613467565b915094509492505050565b6020810151815160408301518260226126b86001600a613797565b600a81106126c8576126c8613258565b0154101561288b576000806126df6001600a613797565b905060005b8183101561273a5760026126f8838561351b565b61270291906137aa565b905085602282600a811061271857612718613258565b01541015612728578091506126e4565b61273381600161351b565b92506126e4565b60006127486001600a613797565b90505b83811115612827576022612760600183613797565b600a811061277057612770613258565b0154602282600a811061278557612785613258565b0155602c612794600183613797565b600a81106127a4576127a4613258565b01546001600160a01b0316602c82600a81106127c2576127c2613258565b0180546001600160a01b0319166001600160a01b039290921691909117905560366127ee600183613797565b600a81106127fe576127fe613258565b0154603682600a811061281357612813613258565b01558061281f816137be565b91505061274b565b5085602284600a811061283c5761283c613258565b015584602c84600a811061285257612852613258565b0180546001600160a01b0319166001600160a01b039290921691909117905583603684600a811061288557612885613258565b01555050505b5050426040555050565b6040805160a081019091526001600160a01b03851660c08201526000908490849083908060e081016040516020818303038152906040528152602001866040516020016128e291906137d5565b60408051601f198184030181529190528152602001600060405190808252806020026020018201604052801561293e57816020015b60408051808201909152600080825260208201528152602001906001900390816129175790505b508152602001886001600160a01b0316815260200161296d604051806020016040528062030d40815250612cc8565b90526040516320487ded60e01b81529091506000906001600160a01b038416906320487ded906129a3908d9086906004016137ff565b602060405180830381865afa1580156129c0573d6000803e3d6000fd5b505050506040513d601f19601f820116820180604052508101906129e49190613467565b6040516370a0823160e01b81523060048201529091506001600160a01b038516906370a0823190602401602060405180830381865afa158015612a2b573d6000803e3d6000fd5b505050506040513d601f19601f82011682018060405250810190612a4f9190613467565b811115612ae2576040516370a0823160e01b81523060048201526001600160a01b038516906370a0823190602401602060405180830381865afa158015612a9a573d6000803e3d6000fd5b505050506040513d601f19601f82011682018060405250810190612abe9190613467565b604051634787a10360e11b8152600481019190915260248101829052604401610a8b565b60405163095ea7b360e01b81526001600160a01b0384811660048301526024820183905285169063095ea7b3906044016020604051808303816000875af1158015612b31573d6000803e3d6000fd5b505050506040513d601f19601f82011682018060405250810190612b559190613480565b506040516396f4e9f960e01b81526001600160a01b038416906396f4e9f990612b84908d9086906004016137ff565b6020604051808303816000875af1158015612ba3573d6000803e3d6000fd5b505050506040513d601f19601f82011682018060405250810190612bc79190613467565b9450896001600160401b0316857fd0d85f1cc5ab17f712b6074d702edd6281031e603c5cf76890a85b1170045b3a8b898c86604051612c0994939291906138d8565b60405180910390a3505050505b95945050505050565b336001600160a01b03821603612c775760405162461bcd60e51b815260206004820152601760248201527f43616e6e6f74207472616e7366657220746f2073656c660000000000000000006044820152606401610a8b565b600180546001600160a01b0319166001600160a01b0383811691821790925560008054604051929316917fed8889f560326eb138920d842192f0eb3dd22b4f139c87a2c57538e05bae12789190a350565b604051815160248201526060906397a657c960e01b90604401612462565b828054828255906000526020600020908101928215612d21579160200282015b82811115612d21578251825591602001919060010190612d06565b50612d2d929150612d50565b5090565b604051806101400160405280600a906020820280368337509192915050565b5b80821115612d2d5760008155600101612d51565b600060208284031215612d7757600080fd5b81356001600160e01b031981168114611ef957600080fd5b600060208284031215612da157600080fd5b5035919050565b600081518084526020808501945080840160005b83811015612dd857815187529582019590820190600101612dbc565b509495945050505050565b604081526000612df66040830185612da8565b8281036020840152612c168185612da8565b634e487b7160e01b600052604160045260246000fd5b604080519081016001600160401b0381118282101715612e4057612e40612e08565b60405290565b60405160a081016001600160401b0381118282101715612e4057612e40612e08565b604051601f8201601f191681016001600160401b0381118282101715612e9057612e90612e08565b604052919050565b60006001600160401b03821115612eb157612eb1612e08565b5060051b60200190565b60008060408385031215612ece57600080fd5b823591506020808401356001600160401b03811115612eec57600080fd5b8401601f81018613612efd57600080fd5b8035612f10612f0b82612e98565b612e68565b81815260059190911b82018301908381019088831115612f2f57600080fd5b928401925b82841015612f4d57833582529284019290840190612f34565b80955050505050509250929050565b838152821515602082015260808101612f82604083018480518252602090810151910152565b949350505050565b848152836020820152608060408201526000612fa96080830185612da8565b8281036060840152612fbb8185612da8565b979650505050505050565b6001600160a01b038116811461144957600080fd5b60006020808385031215612fee57600080fd5b82356001600160401b0381111561300457600080fd5b8301601f8101851361301557600080fd5b8035613023612f0b82612e98565b81815260059190911b8201830190838101908783111561304257600080fd5b928401925b82841015612fbb57833561305a81612fc6565b82529284019290840190613047565b6001600160a01b03851681526020808201859052831515604083015282516060830152820151608082015260a08101612c16565b6000602082840312156130af57600080fd5b8135611ef981612fc6565b6000602082840312156130cc57600080fd5b81356001600160401b038111156130e257600080fd5b820160a08185031215611ef957600080fd5b60008060006040848603121561310957600080fd5b83356001600160401b038082111561312057600080fd5b818601915086601f83011261313457600080fd5b81358181111561314357600080fd5b87602082850101111561315557600080fd5b6020928301989097509590910135949350505050565b6000806040838503121561317e57600080fd5b823561318981612fc6565b946020939093013593505050565b8060005b600a8110156131ba57815184526020938401939091019060010161319b565b50505050565b6103e081016131cf8287613197565b6131dd610140830186613197565b61028082018460005b600a81101561320e5781516001600160a01b03168352602092830192909101906001016131e6565b505050826103c083015295945050505050565b60208082526018908201527f47617320546f6b656e206973206e6f7420656e6f756768210000000000000000604082015260600190565b634e487b7160e01b600052603260045260246000fd5b634e487b7160e01b600052601160045260246000fd5b6000600182016132965761329661326e565b5060010190565b80356001600160401b03811681146132b457600080fd5b919050565b600082601f8301126132ca57600080fd5b81356001600160401b038111156132e3576132e3612e08565b6132f6601f8201601f1916602001612e68565b81815284602083860101111561330b57600080fd5b816020850160208301376000918101602001919091529392505050565b600082601f83011261333957600080fd5b81356020613349612f0b83612e98565b82815260069290921b8401810191818101908684111561336857600080fd5b8286015b848110156133b057604081890312156133855760008081fd5b61338d612e1e565b813561339881612fc6565b8152818501358582015283529183019160400161336c565b509695505050505050565b600060a082360312156133cd57600080fd5b6133d5612e46565b823581526133e56020840161329d565b602082015260408301356001600160401b038082111561340457600080fd5b613410368387016132b9565b6040840152606085013591508082111561342957600080fd5b613435368387016132b9565b6060840152608085013591508082111561344e57600080fd5b5061345b36828601613328565b60808301525092915050565b60006020828403121561347957600080fd5b5051919050565b60006020828403121561349257600080fd5b81518015158114611ef957600080fd5b60408152826040820152828460608301376000606084830101526000601f19601f8501168201606081016020606085840301818601528186518084526080850191508288019450600093505b8084101561350e57845182529382019360019390930192908201906134ee565b5098975050505050505050565b80820180821115610a5757610a5761326e565b805169ffffffffffffffffffff811681146132b457600080fd5b600080600080600060a0868803121561356057600080fd5b6135698661352e565b945060208601519350604086015192506060860151915061358c6080870161352e565b90509295509295909350565b634e487b7160e01b600052601260045260246000fd5b6000826135bd576135bd613598565b600160ff1b8214600019841416156135d7576135d761326e565b500590565b80820260008212600160ff1b841416156135f8576135f861326e565b8181058314821517610a5757610a5761326e565b8082028115828204841417610a5757610a5761326e565b60008261363257613632613598565b500690565b84815260a06020820152600061365060a0830186612da8565b6040830185905283516060840152602084015160808401529050612c16565b60006060828403121561368157600080fd5b604051606081018181106001600160401b03821117156136a3576136a3612e08565b60405282516136b181612fc6565b8152602083810151908201526040928301519281019290925250919050565b6000602082840312156136e257600080fd5b8151611ef981612fc6565b6000815180845260005b81811015613713576020818501810151868301820152016136f7565b506000602082860101526020601f19601f83011685010191505092915050565b600063ffffffff808716835261ffff861660208401528085166040840152506080606083015261376660808301846136ed565b9695505050505050565b60018060a01b0384168152826020820152606060408201526000612c1660608301846136ed565b81810381811115610a5757610a5761326e565b6000826137b9576137b9613598565b500490565b6000816137cd576137cd61326e565b506000190190565b81516001600160a01b03168152602080830151908201526040808301519082015260608101610a57565b600060406001600160401b038516835260208181850152845160a08386015261382b60e08601826136ed565b905081860151603f198087840301606088015261384883836136ed565b88860151888203830160808a01528051808352908601945060009350908501905b8084101561389b57845180516001600160a01b0316835286015186830152938501936001939093019290860190613869565b5060608901516001600160a01b031660a08901526080890151888203830160c08a015295506138ca81876136ed565b9a9950505050505050505050565b6001600160a01b03858116825260c0820190613914602084018780516001600160a01b0316825260208082015190830152604090810151910152565b93909316608082015260a001529291505056fea2646970667358221220a1855db6bc448b5db561f8695591b785615c986fc15e9c2cf7e20fc6ec26bbdb64736f6c63430008130033",
			"opcodes": "PUSH1 0x0 PUSH1 0x2 SSTORE PUSH2 0x120 PUSH1 0x40 MSTORE PUSH20 0xBF3DE8C5D3E8A2B34D2BEEB17ABFCEBAF363A59 PUSH1 0xC0 SWAP1 DUP2 MSTORE PUSH20 0xF694E193200268F9A4868E4AA017A0118C9A8177 PUSH1 0xE0 MSTORE PUSH20 0x9C32FCB86BF0F4A1A8921A9FE46DE3198BB884B2 PUSH2 0x100 MSTORE PUSH3 0x64 SWAP1 PUSH1 0x3 SWAP1 DUP2 PUSH3 0x726 JUMP JUMPDEST POP PUSH1 0x40 DUP1 MLOAD PUSH1 0x60 DUP2 ADD DUP3 MSTORE PUSH20 0x779877A7B0D9E8603169DDBD7836E478B4624789 DUP2 MSTORE PUSH20 0xB9D5D9136855F6FEC3C0993FEE6E9CE8A297846 PUSH1 0x20 DUP3 ADD MSTORE PUSH20 0xFD9E8D3AF1AAEE056EB9E802C3A762A667B1904 SWAP2 DUP2 ADD SWAP2 SWAP1 SWAP2 MSTORE PUSH3 0xCC SWAP1 PUSH1 0x6 SWAP1 PUSH1 0x3 PUSH3 0x726 JUMP JUMPDEST POP PUSH1 0x40 DUP1 MLOAD PUSH1 0x60 DUP2 ADD DUP3 MSTORE PUSH20 0x195F15F2D49D693CE265B4FB0FDDBE15B1850CC1 DUP2 MSTORE PUSH20 0x327B83F409E1D5F13985C6D0584420FA648F1F56 PUSH1 0x20 DUP3 ADD MSTORE PUSH20 0x6E6C366A1CD1F92BA87FD6F96F743B0E6C967BF0 SWAP2 DUP2 ADD SWAP2 SWAP1 SWAP2 MSTORE PUSH3 0x134 SWAP1 PUSH1 0x9 SWAP1 PUSH1 0x3 PUSH3 0x726 JUMP JUMPDEST POP PUSH1 0x40 DUP1 MLOAD PUSH1 0x60 DUP2 ADD DUP3 MSTORE PUSH8 0xDE41BA4FC9D91AD9 DUP2 MSTORE PUSH8 0xCCF0A31A221F3C9B PUSH1 0x20 DUP3 ADD MSTORE PUSH8 0xE1F4423F1BF587CD SWAP2 DUP2 ADD SWAP2 SWAP1 SWAP2 MSTORE PUSH3 0x178 SWAP1 PUSH1 0xC SWAP1 PUSH1 0x3 PUSH3 0x783 JUMP JUMPDEST POP PUSH1 0x40 DUP1 MLOAD PUSH1 0x60 DUP2 ADD DUP3 MSTORE PUSH20 0x694AA1769357215DE4FAC081BF1F309ADC325306 DUP2 MSTORE PUSH20 0x5498BB86BC934C8D34FDA08E81D444153D0D06AD PUSH1 0x20 DUP3 ADD MSTORE PUSH19 0x1382149EBA3441043C1C66972B4772963F5D43 SWAP2 DUP2 ADD SWAP2 SWAP1 SWAP2 MSTORE PUSH3 0x1DF SWAP1 PUSH1 0xD SWAP1 PUSH1 0x3 PUSH3 0x726 JUMP JUMPDEST POP PUSH1 0x40 DUP1 MLOAD PUSH1 0x60 DUP2 ADD DUP3 MSTORE PUSH20 0x349B5C479E59467903CF7DC094702BF97FA6AF4E DUP1 DUP3 MSTORE PUSH1 0x20 DUP3 ADD DUP2 SWAP1 MSTORE SWAP2 DUP2 ADD SWAP2 SWAP1 SWAP2 MSTORE PUSH3 0x220 SWAP1 PUSH1 0x10 SWAP1 PUSH1 0x3 PUSH3 0x726 JUMP JUMPDEST POP PUSH1 0x0 PUSH1 0x43 SSTORE CALLVALUE DUP1 ISZERO PUSH3 0x233 JUMPI PUSH1 0x0 DUP1 REVERT JUMPDEST POP PUSH1 0x40 MLOAD PUSH3 0x4244 CODESIZE SUB DUP1 PUSH3 0x4244 DUP4 CODECOPY DUP2 ADD PUSH1 0x40 DUP2 SWAP1 MSTORE PUSH3 0x256 SWAP2 PUSH3 0x83C JUMP JUMPDEST CALLER DUP1 PUSH1 0x0 PUSH1 0x9 DUP5 PUSH1 0x3 DUP2 LT PUSH3 0x270 JUMPI PUSH3 0x270 PUSH3 0x856 JUMP JUMPDEST ADD SLOAD PUSH1 0x40 DUP1 MLOAD PUSH4 0x711A57D PUSH1 0xE2 SHL DUP2 MSTORE SWAP1 MLOAD PUSH1 0x1 PUSH1 0x1 PUSH1 0xA0 SHL SUB SWAP1 SWAP3 AND SWAP2 DUP3 SWAP2 DUP3 SWAP2 PUSH4 0x1C4695F4 SWAP2 PUSH1 0x4 DUP1 DUP3 ADD SWAP3 PUSH1 0x20 SWAP3 SWAP1 SWAP2 SWAP1 DUP3 SWAP1 SUB ADD DUP2 DUP7 GAS STATICCALL ISZERO DUP1 ISZERO PUSH3 0x2BE JUMPI RETURNDATASIZE PUSH1 0x0 DUP1 RETURNDATACOPY RETURNDATASIZE PUSH1 0x0 REVERT JUMPDEST POP POP POP POP PUSH1 0x40 MLOAD RETURNDATASIZE PUSH1 0x1F NOT PUSH1 0x1F DUP3 ADD AND DUP3 ADD DUP1 PUSH1 0x40 MSTORE POP DUP2 ADD SWAP1 PUSH3 0x2E4 SWAP2 SWAP1 PUSH3 0x86C JUMP JUMPDEST PUSH1 0x1 PUSH1 0x1 PUSH1 0xA0 SHL SUB SWAP1 DUP2 AND PUSH1 0x80 MSTORE SWAP1 DUP2 AND PUSH1 0xA0 MSTORE DUP4 AND SWAP1 POP PUSH3 0x34E JUMPI PUSH1 0x40 MLOAD PUSH3 0x461BCD PUSH1 0xE5 SHL DUP2 MSTORE PUSH1 0x20 PUSH1 0x4 DUP3 ADD MSTORE PUSH1 0x18 PUSH1 0x24 DUP3 ADD MSTORE PUSH32 0x43616E6E6F7420736574206F776E657220746F207A65726F0000000000000000 PUSH1 0x44 DUP3 ADD MSTORE PUSH1 0x64 ADD JUMPDEST PUSH1 0x40 MLOAD DUP1 SWAP2 SUB SWAP1 REVERT JUMPDEST PUSH1 0x0 DUP1 SLOAD PUSH1 0x1 PUSH1 0x1 PUSH1 0xA0 SHL SUB NOT AND PUSH1 0x1 PUSH1 0x1 PUSH1 0xA0 SHL SUB DUP5 DUP2 AND SWAP2 SWAP1 SWAP2 OR SWAP1 SWAP2 SSTORE DUP2 AND ISZERO PUSH3 0x381 JUMPI PUSH3 0x381 DUP2 PUSH3 0x39A JUMP JUMPDEST POP POP POP PUSH1 0x2 DUP2 SWAP1 SSTORE PUSH3 0x393 PUSH3 0x445 JUMP JUMPDEST POP PUSH3 0x89E JUMP JUMPDEST CALLER PUSH1 0x1 PUSH1 0x1 PUSH1 0xA0 SHL SUB DUP3 AND SUB PUSH3 0x3F4 JUMPI PUSH1 0x40 MLOAD PUSH3 0x461BCD PUSH1 0xE5 SHL DUP2 MSTORE PUSH1 0x20 PUSH1 0x4 DUP3 ADD MSTORE PUSH1 0x17 PUSH1 0x24 DUP3 ADD MSTORE PUSH32 0x43616E6E6F74207472616E7366657220746F2073656C66000000000000000000 PUSH1 0x44 DUP3 ADD MSTORE PUSH1 0x64 ADD PUSH3 0x345 JUMP JUMPDEST PUSH1 0x1 DUP1 SLOAD PUSH1 0x1 PUSH1 0x1 PUSH1 0xA0 SHL SUB NOT AND PUSH1 0x1 PUSH1 0x1 PUSH1 0xA0 SHL SUB DUP4 DUP2 AND SWAP2 DUP3 OR SWAP1 SWAP3 SSTORE PUSH1 0x0 DUP1 SLOAD PUSH1 0x40 MLOAD SWAP3 SWAP4 AND SWAP2 PUSH32 0xED8889F560326EB138920D842192F0EB3DD22B4F139C87A2C57538E05BAE1278 SWAP2 SWAP1 LOG3 POP JUMP JUMPDEST PUSH3 0x44F PUSH3 0x6C8 JUMP JUMPDEST PUSH1 0x40 DUP1 MLOAD DUP1 DUP3 ADD DUP3 MSTORE PUSH1 0x0 DUP1 DUP3 MSTORE PUSH1 0x64 PUSH1 0x20 DUP1 DUP5 ADD SWAP2 DUP3 MSTORE PUSH1 0x19 DUP1 SLOAD PUSH1 0x1 DUP2 DUP2 ADD DUP4 SSTORE DUP3 DUP7 MSTORE SWAP6 MLOAD PUSH1 0x2 SWAP2 DUP3 MUL PUSH32 0x944998273E477B495144FB8794C914197F3CCB46BE2900F4698FD0EF743C9695 DUP2 DUP2 ADD SWAP3 SWAP1 SWAP3 SSTORE SWAP5 MLOAD PUSH32 0x944998273E477B495144FB8794C914197F3CCB46BE2900F4698FD0EF743C9696 SWAP6 DUP7 ADD SSTORE DUP8 MLOAD DUP1 DUP10 ADD DUP10 MSTORE DUP7 DUP2 MSTORE PUSH1 0x32 DUP2 DUP7 ADD DUP2 DUP2 MSTORE DUP6 SLOAD DUP1 DUP12 ADD DUP8 SSTORE DUP7 DUP11 MSTORE SWAP3 MLOAD SWAP3 DUP6 MUL DUP1 DUP6 ADD SWAP4 SWAP1 SWAP4 SSTORE MLOAD SWAP2 DUP8 ADD SWAP2 SWAP1 SWAP2 SSTORE DUP9 MLOAD DUP1 DUP11 ADD DUP11 MSTORE DUP9 DUP2 MSTORE PUSH1 0xA DUP2 DUP8 ADD SWAP1 DUP2 MSTORE DUP6 SLOAD DUP1 DUP12 ADD DUP8 SSTORE DUP7 DUP11 MSTORE SWAP2 MLOAD SWAP2 DUP6 MUL DUP1 DUP6 ADD SWAP3 SWAP1 SWAP3 SSTORE MLOAD SWAP1 DUP8 ADD SSTORE DUP9 MLOAD DUP1 DUP11 ADD DUP11 MSTORE DUP8 DUP2 MSTORE DUP1 DUP7 ADD DUP3 DUP2 MSTORE DUP6 SLOAD DUP1 DUP12 ADD DUP8 SSTORE DUP7 DUP11 MSTORE SWAP2 MLOAD SWAP2 DUP6 MUL DUP1 DUP6 ADD SWAP3 SWAP1 SWAP3 SSTORE MLOAD SWAP1 DUP8 ADD SSTORE DUP9 MLOAD DUP1 DUP11 ADD DUP11 MSTORE DUP8 DUP2 MSTORE PUSH1 0x96 DUP2 DUP8 ADD SWAP1 DUP2 MSTORE DUP6 SLOAD DUP1 DUP12 ADD DUP8 SSTORE DUP7 DUP11 MSTORE SWAP2 MLOAD SWAP2 DUP6 MUL DUP1 DUP6 ADD SWAP3 SWAP1 SWAP3 SSTORE MLOAD SWAP1 DUP8 ADD SSTORE DUP9 MLOAD DUP1 DUP11 ADD DUP11 MSTORE PUSH1 0x3 DUP1 DUP3 MSTORE PUSH1 0x12 DUP3 DUP9 ADD SWAP1 DUP2 MSTORE DUP7 SLOAD DUP1 DUP13 ADD DUP9 SSTORE DUP8 DUP12 MSTORE SWAP3 MLOAD SWAP3 DUP7 MUL DUP1 DUP7 ADD SWAP4 SWAP1 SWAP4 SSTORE MLOAD SWAP2 DUP9 ADD SWAP2 SWAP1 SWAP2 SSTORE DUP10 MLOAD DUP1 DUP12 ADD DUP12 MSTORE DUP9 DUP2 MSTORE PUSH1 0xC8 DUP2 DUP9 ADD DUP2 DUP2 MSTORE DUP8 SLOAD DUP1 DUP14 ADD DUP10 SSTORE DUP9 DUP13 MSTORE SWAP3 MLOAD SWAP3 DUP8 MUL DUP1 DUP8 ADD SWAP4 SWAP1 SWAP4 SSTORE MLOAD SWAP2 DUP10 ADD SWAP2 SWAP1 SWAP2 SSTORE DUP11 MLOAD DUP1 DUP13 ADD DUP13 MSTORE DUP10 DUP2 MSTORE DUP1 DUP9 ADD DUP5 DUP2 MSTORE DUP8 SLOAD DUP1 DUP14 ADD DUP10 SSTORE DUP9 DUP13 MSTORE SWAP2 MLOAD SWAP2 DUP8 MUL DUP1 DUP8 ADD SWAP3 SWAP1 SWAP3 SSTORE MLOAD SWAP1 DUP10 ADD SSTORE DUP11 MLOAD DUP1 DUP13 ADD DUP13 MSTORE DUP11 DUP2 MSTORE PUSH1 0x14 DUP2 DUP10 ADD SWAP1 DUP2 MSTORE DUP8 SLOAD DUP1 DUP14 ADD DUP10 SSTORE DUP9 DUP13 MSTORE SWAP2 MLOAD SWAP2 DUP8 MUL DUP1 DUP8 ADD SWAP3 SWAP1 SWAP3 SSTORE MLOAD SWAP1 DUP10 ADD SSTORE DUP11 MLOAD DUP1 DUP13 ADD DUP13 MSTORE DUP10 DUP2 MSTORE DUP1 DUP9 ADD SWAP4 DUP5 MSTORE DUP7 SLOAD DUP1 DUP13 ADD DUP9 SSTORE DUP8 DUP12 MSTORE SWAP1 MLOAD SWAP1 DUP7 MUL DUP1 DUP7 ADD SWAP2 SWAP1 SWAP2 SSTORE SWAP3 MLOAD SWAP3 DUP9 ADD SWAP3 SWAP1 SWAP3 SSTORE DUP10 MLOAD DUP1 DUP12 ADD DUP12 MSTORE DUP9 DUP2 MSTORE DUP1 DUP8 ADD SWAP3 DUP4 MSTORE DUP6 SLOAD DUP1 DUP12 ADD DUP8 SSTORE DUP7 DUP11 MSTORE SWAP1 MLOAD SWAP1 DUP6 MUL DUP1 DUP6 ADD SWAP2 SWAP1 SWAP2 SSTORE SWAP2 MLOAD SWAP2 DUP8 ADD SWAP2 SWAP1 SWAP2 SSTORE DUP9 MLOAD DUP1 DUP11 ADD SWAP1 SWAP10 MSTORE DUP9 MSTORE PUSH1 0x9 SWAP4 DUP9 ADD SWAP4 DUP5 MSTORE DUP3 SLOAD SWAP7 DUP8 ADD DUP4 SSTORE SWAP2 SWAP1 SWAP5 MSTORE SWAP5 MLOAD SWAP4 SWAP1 SWAP3 MUL SWAP4 DUP5 ADD SWAP3 SWAP1 SWAP3 SSTORE MLOAD SWAP2 ADD SSTORE JUMP JUMPDEST PUSH1 0x0 SLOAD PUSH1 0x1 PUSH1 0x1 PUSH1 0xA0 SHL SUB AND CALLER EQ PUSH3 0x724 JUMPI PUSH1 0x40 MLOAD PUSH3 0x461BCD PUSH1 0xE5 SHL DUP2 MSTORE PUSH1 0x20 PUSH1 0x4 DUP3 ADD MSTORE PUSH1 0x16 PUSH1 0x24 DUP3 ADD MSTORE PUSH32 0x4F6E6C792063616C6C61626C65206279206F776E657200000000000000000000 PUSH1 0x44 DUP3 ADD MSTORE PUSH1 0x64 ADD PUSH3 0x345 JUMP JUMPDEST JUMP JUMPDEST DUP3 PUSH1 0x3 DUP2 ADD SWAP3 DUP3 ISZERO PUSH3 0x771 JUMPI SWAP2 PUSH1 0x20 MUL DUP3 ADD JUMPDEST DUP3 DUP2 GT ISZERO PUSH3 0x771 JUMPI DUP3 MLOAD DUP3 SLOAD PUSH1 0x1 PUSH1 0x1 PUSH1 0xA0 SHL SUB NOT AND PUSH1 0x1 PUSH1 0x1 PUSH1 0xA0 SHL SUB SWAP1 SWAP2 AND OR DUP3 SSTORE PUSH1 0x20 SWAP1 SWAP3 ADD SWAP2 PUSH1 0x1 SWAP1 SWAP2 ADD SWAP1 PUSH3 0x73A JUMP JUMPDEST POP PUSH3 0x77F SWAP3 SWAP2 POP PUSH3 0x825 JUMP JUMPDEST POP SWAP1 JUMP JUMPDEST PUSH1 0x1 DUP4 ADD SWAP2 DUP4 SWAP1 DUP3 ISZERO PUSH3 0x771 JUMPI SWAP2 PUSH1 0x20 MUL DUP3 ADD PUSH1 0x0 JUMPDEST DUP4 DUP3 GT ISZERO PUSH3 0x7E6 JUMPI DUP4 MLOAD DUP4 DUP3 PUSH2 0x100 EXP DUP2 SLOAD DUP2 PUSH1 0x1 PUSH1 0x1 PUSH1 0x40 SHL SUB MUL NOT AND SWAP1 DUP4 PUSH1 0x1 PUSH1 0x1 PUSH1 0x40 SHL SUB AND MUL OR SWAP1 SSTORE POP SWAP3 PUSH1 0x20 ADD SWAP3 PUSH1 0x8 ADD PUSH1 0x20 DUP2 PUSH1 0x7 ADD DIV SWAP3 DUP4 ADD SWAP3 PUSH1 0x1 SUB MUL PUSH3 0x79A JUMP JUMPDEST DUP1 ISZERO PUSH3 0x81B JUMPI DUP3 DUP2 PUSH2 0x100 EXP DUP2 SLOAD SWAP1 PUSH1 0x1 PUSH1 0x1 PUSH1 0x40 SHL SUB MUL NOT AND SWAP1 SSTORE PUSH1 0x8 ADD PUSH1 0x20 DUP2 PUSH1 0x7 ADD DIV SWAP3 DUP4 ADD SWAP3 PUSH1 0x1 SUB MUL PUSH3 0x7E6 JUMP JUMPDEST POP POP PUSH3 0x77F SWAP3 SWAP2 POP JUMPDEST JUMPDEST DUP1 DUP3 GT ISZERO PUSH3 0x77F JUMPI PUSH1 0x0 DUP2 SSTORE PUSH1 0x1 ADD PUSH3 0x826 JUMP JUMPDEST PUSH1 0x0 PUSH1 0x20 DUP3 DUP5 SUB SLT ISZERO PUSH3 0x84F JUMPI PUSH1 0x0 DUP1 REVERT JUMPDEST POP MLOAD SWAP2 SWAP1 POP JUMP JUMPDEST PUSH4 0x4E487B71 PUSH1 0xE0 SHL PUSH1 0x0 MSTORE PUSH1 0x32 PUSH1 0x4 MSTORE PUSH1 0x24 PUSH1 0x0 REVERT JUMPDEST PUSH1 0x0 PUSH1 0x20 DUP3 DUP5 SUB SLT ISZERO PUSH3 0x87F JUMPI PUSH1 0x0 DUP1 REVERT JUMPDEST DUP2 MLOAD PUSH1 0x1 PUSH1 0x1 PUSH1 0xA0 SHL SUB DUP2 AND DUP2 EQ PUSH3 0x897 JUMPI PUSH1 0x0 DUP1 REVERT JUMPDEST SWAP4 SWAP3 POP POP POP JUMP JUMPDEST PUSH1 0x80 MLOAD PUSH1 0xA0 MLOAD PUSH2 0x395D PUSH3 0x8E7 PUSH1 0x0 CODECOPY PUSH1 0x0 DUP2 DUP2 PUSH2 0x678 ADD MSTORE DUP2 DUP2 PUSH2 0xBDB ADD MSTORE DUP2 DUP2 PUSH2 0x24CA ADD MSTORE DUP2 DUP2 PUSH2 0x2568 ADD MSTORE PUSH2 0x2612 ADD MSTORE PUSH1 0x0 DUP2 DUP2 PUSH2 0x94A ADD MSTORE PUSH2 0x2539 ADD MSTORE PUSH2 0x395D PUSH1 0x0 RETURN INVALID PUSH1 0x80 PUSH1 0x40 MSTORE PUSH1 0x4 CALLDATASIZE LT PUSH2 0x2AE JUMPI PUSH1 0x0 CALLDATALOAD PUSH1 0xE0 SHR DUP1 PUSH4 0x92E0C91A GT PUSH2 0x175 JUMPI DUP1 PUSH4 0xD0D5117E GT PUSH2 0xDC JUMPI DUP1 PUSH4 0xE16B6193 GT PUSH2 0x95 JUMPI DUP1 PUSH4 0xEA029701 GT PUSH2 0x6F JUMPI DUP1 PUSH4 0xEA029701 EQ PUSH2 0x98E JUMPI DUP1 PUSH4 0xF2683ECD EQ PUSH2 0x9AE JUMPI DUP1 PUSH4 0xF2FDE38B EQ PUSH2 0x9E6 JUMPI DUP1 PUSH4 0xFA3B11D2 EQ PUSH2 0xA06 JUMPI PUSH1 0x0 DUP1 REVERT JUMPDEST DUP1 PUSH4 0xE16B6193 EQ PUSH2 0x91B JUMPI DUP1 PUSH4 0xE76D5168 EQ PUSH2 0x93B JUMPI DUP1 PUSH4 0xE8AF8C0D EQ PUSH2 0x96E JUMPI PUSH1 0x0 DUP1 REVERT JUMPDEST DUP1 PUSH4 0xD0D5117E EQ PUSH2 0x80E JUMPI DUP1 PUSH4 0xD252682D EQ PUSH2 0x833 JUMPI DUP1 PUSH4 0xD272E57E EQ PUSH2 0x853 JUMPI DUP1 PUSH4 0xD5540A27 EQ PUSH2 0x869 JUMPI DUP1 PUSH4 0xD65AB5F2 EQ PUSH2 0x889 JUMPI DUP1 PUSH4 0xDF4F5532 EQ PUSH2 0x891 JUMPI PUSH1 0x0 DUP1 REVERT JUMPDEST DUP1 PUSH4 0xB76EE4A8 GT PUSH2 0x12E JUMPI DUP1 PUSH4 0xB76EE4A8 EQ PUSH2 0x713 JUMPI DUP1 PUSH4 0xBAC009D3 EQ PUSH2 0x733 JUMPI DUP1 PUSH4 0xBFD772FC EQ PUSH2 0x76B JUMPI DUP1 PUSH4 0xC8F33C91 EQ PUSH2 0x78B JUMPI DUP1 PUSH4 0xCC216ABA EQ PUSH2 0x7A1 JUMPI DUP1 PUSH4 0xCDC7BC87 EQ PUSH2 0x7C1 JUMPI PUSH1 0x0 DUP1 REVERT JUMPDEST DUP1 PUSH4 0x92E0C91A EQ PUSH2 0x63E JUMPI DUP1 PUSH4 0x975EC813 EQ PUSH2 0x646 JUMPI DUP1 PUSH4 0x9ED0868D EQ PUSH2 0x666 JUMPI DUP1 PUSH4 0xA029C405 EQ PUSH2 0x69A JUMPI DUP1 PUSH4 0xA55E1D45 EQ PUSH2 0x6C6 JUMPI DUP1 PUSH4 0xB3B2875E EQ PUSH2 0x6E6 JUMPI PUSH1 0x0 DUP1 REVERT JUMPDEST DUP1 PUSH4 0x441BBACB GT PUSH2 0x219 JUMPI DUP1 PUSH4 0x79BA5097 GT PUSH2 0x1D2 JUMPI DUP1 PUSH4 0x79BA5097 EQ PUSH2 0x589 JUMPI DUP1 PUSH4 0x7E8104E7 EQ PUSH2 0x59E JUMPI DUP1 PUSH4 0x85572FFB EQ PUSH2 0x5BE JUMPI DUP1 PUSH4 0x8DA5CB5B EQ PUSH2 0x5DE JUMPI DUP1 PUSH4 0x8DC654A2 EQ PUSH2 0x5FC JUMPI DUP1 PUSH4 0x91F54351 EQ PUSH2 0x611 JUMPI PUSH1 0x0 DUP1 REVERT JUMPDEST DUP1 PUSH4 0x441BBACB EQ PUSH2 0x45F JUMPI DUP1 PUSH4 0x44B7E83C EQ PUSH2 0x47F JUMPI DUP1 PUSH4 0x49C9D17A EQ PUSH2 0x4A4 JUMPI DUP1 PUSH4 0x4E9C1118 EQ PUSH2 0x4C4 JUMPI DUP1 PUSH4 0x67C58157 EQ PUSH2 0x4E4 JUMPI DUP1 PUSH4 0x6906A2E9 EQ PUSH2 0x55C JUMPI PUSH1 0x0 DUP1 REVERT JUMPDEST DUP1 PUSH4 0x1FE543E3 GT PUSH2 0x26B JUMPI DUP1 PUSH4 0x1FE543E3 EQ PUSH2 0x384 JUMPI DUP1 PUSH4 0x2BF34FBD EQ PUSH2 0x3A4 JUMPI DUP1 PUSH4 0x3236F6AE EQ PUSH2 0x3DC JUMPI DUP1 PUSH4 0x34C53EED EQ PUSH2 0x400 JUMPI DUP1 PUSH4 0x380149AB EQ PUSH2 0x415 JUMPI DUP1 PUSH4 0x3DB497DE EQ PUSH2 0x44A JUMPI PUSH1 0x0 DUP1 REVERT JUMPDEST DUP1 PUSH4 0x1FFC9A7 EQ PUSH2 0x2B3 JUMPI DUP1 PUSH4 0xCAE4589 EQ PUSH2 0x2E8 JUMPI DUP1 PUSH4 0x10FA7879 EQ PUSH2 0x2F2 JUMPI DUP1 PUSH4 0x11B7AAD5 EQ PUSH2 0x32A JUMPI DUP1 PUSH4 0x12065FE0 EQ PUSH2 0x34E JUMPI DUP1 PUSH4 0x1528D36F EQ PUSH2 0x361 JUMPI JUMPDEST PUSH1 0x0 DUP1 REVERT JUMPDEST CALLVALUE DUP1 ISZERO PUSH2 0x2BF JUMPI PUSH1 0x0 DUP1 REVERT JUMPDEST POP PUSH2 0x2D3 PUSH2 0x2CE CALLDATASIZE PUSH1 0x4 PUSH2 0x2D65 JUMP JUMPDEST PUSH2 0xA26 JUMP JUMPDEST PUSH1 0x40 MLOAD SWAP1 ISZERO ISZERO DUP2 MSTORE PUSH1 0x20 ADD JUMPDEST PUSH1 0x40 MLOAD DUP1 SWAP2 SUB SWAP1 RETURN JUMPDEST PUSH2 0x2F0 PUSH2 0xA5D JUMP JUMPDEST STOP JUMPDEST CALLVALUE DUP1 ISZERO PUSH2 0x2FE JUMPI PUSH1 0x0 DUP1 REVERT JUMPDEST POP PUSH2 0x312 PUSH2 0x30D CALLDATASIZE PUSH1 0x4 PUSH2 0x2D8F JUMP JUMPDEST PUSH2 0xAB4 JUMP JUMPDEST PUSH1 0x40 MLOAD PUSH1 0x1 PUSH1 0x1 PUSH1 0xA0 SHL SUB SWAP1 SWAP2 AND DUP2 MSTORE PUSH1 0x20 ADD PUSH2 0x2DF JUMP JUMPDEST CALLVALUE DUP1 ISZERO PUSH2 0x336 JUMPI PUSH1 0x0 DUP1 REVERT JUMPDEST POP PUSH2 0x340 PUSH1 0x2 SLOAD DUP2 JUMP JUMPDEST PUSH1 0x40 MLOAD SWAP1 DUP2 MSTORE PUSH1 0x20 ADD PUSH2 0x2DF JUMP JUMPDEST CALLVALUE DUP1 ISZERO PUSH2 0x35A JUMPI PUSH1 0x0 DUP1 REVERT JUMPDEST POP SELFBALANCE PUSH2 0x340 JUMP JUMPDEST CALLVALUE DUP1 ISZERO PUSH2 0x36D JUMPI PUSH1 0x0 DUP1 REVERT JUMPDEST POP PUSH2 0x376 PUSH2 0xAD4 JUMP JUMPDEST PUSH1 0x40 MLOAD PUSH2 0x2DF SWAP3 SWAP2 SWAP1 PUSH2 0x2DE3 JUMP JUMPDEST CALLVALUE DUP1 ISZERO PUSH2 0x390 JUMPI PUSH1 0x0 DUP1 REVERT JUMPDEST POP PUSH2 0x2F0 PUSH2 0x39F CALLDATASIZE PUSH1 0x4 PUSH2 0x2EBB JUMP JUMPDEST PUSH2 0xBD9 JUMP JUMPDEST CALLVALUE DUP1 ISZERO PUSH2 0x3B0 JUMPI PUSH1 0x0 DUP1 REVERT JUMPDEST POP PUSH2 0x3C4 PUSH2 0x3BF CALLDATASIZE PUSH1 0x4 PUSH2 0x2D8F JUMP JUMPDEST PUSH2 0xC43 JUMP JUMPDEST PUSH1 0x40 MLOAD PUSH1 0x1 PUSH1 0x1 PUSH1 0x40 SHL SUB SWAP1 SWAP2 AND DUP2 MSTORE PUSH1 0x20 ADD PUSH2 0x2DF JUMP JUMPDEST CALLVALUE DUP1 ISZERO PUSH2 0x3E8 JUMPI PUSH1 0x0 DUP1 REVERT JUMPDEST POP PUSH2 0x3F1 PUSH2 0xC76 JUMP JUMPDEST PUSH1 0x40 MLOAD PUSH2 0x2DF SWAP4 SWAP3 SWAP2 SWAP1 PUSH2 0x2F5C JUMP JUMPDEST CALLVALUE DUP1 ISZERO PUSH2 0x40C JUMPI PUSH1 0x0 DUP1 REVERT JUMPDEST POP PUSH2 0x376 PUSH2 0xDCD JUMP JUMPDEST CALLVALUE DUP1 ISZERO PUSH2 0x421 JUMPI PUSH1 0x0 DUP1 REVERT JUMPDEST POP PUSH2 0x435 PUSH2 0x430 CALLDATASIZE PUSH1 0x4 PUSH2 0x2D8F JUMP JUMPDEST PUSH2 0xECD JUMP JUMPDEST PUSH1 0x40 DUP1 MLOAD SWAP3 DUP4 MSTORE PUSH1 0x20 DUP4 ADD SWAP2 SWAP1 SWAP2 MSTORE ADD PUSH2 0x2DF JUMP JUMPDEST CALLVALUE DUP1 ISZERO PUSH2 0x456 JUMPI PUSH1 0x0 DUP1 REVERT JUMPDEST POP PUSH2 0x2F0 PUSH2 0xEFB JUMP JUMPDEST CALLVALUE DUP1 ISZERO PUSH2 0x46B JUMPI PUSH1 0x0 DUP1 REVERT JUMPDEST POP PUSH2 0x312 PUSH2 0x47A CALLDATASIZE PUSH1 0x4 PUSH2 0x2D8F JUMP JUMPDEST PUSH2 0x117C JUMP JUMPDEST CALLVALUE DUP1 ISZERO PUSH2 0x48B JUMPI PUSH1 0x0 DUP1 REVERT JUMPDEST POP PUSH2 0x494 PUSH2 0x118C JUMP JUMPDEST PUSH1 0x40 MLOAD PUSH2 0x2DF SWAP5 SWAP4 SWAP3 SWAP2 SWAP1 PUSH2 0x2F8A JUMP JUMPDEST CALLVALUE DUP1 ISZERO PUSH2 0x4B0 JUMPI PUSH1 0x0 DUP1 REVERT JUMPDEST POP PUSH2 0x2F0 PUSH2 0x4BF CALLDATASIZE PUSH1 0x4 PUSH2 0x2FDB JUMP JUMPDEST PUSH2 0x126A JUMP JUMPDEST CALLVALUE DUP1 ISZERO PUSH2 0x4D0 JUMPI PUSH1 0x0 DUP1 REVERT JUMPDEST POP PUSH2 0x312 PUSH2 0x4DF CALLDATASIZE PUSH1 0x4 PUSH2 0x2D8F JUMP JUMPDEST PUSH2 0x132D JUMP JUMPDEST CALLVALUE DUP1 ISZERO PUSH2 0x4F0 JUMPI PUSH1 0x0 DUP1 REVERT JUMPDEST POP PUSH2 0x54C PUSH2 0x4FF CALLDATASIZE PUSH1 0x4 PUSH2 0x2D8F JUMP JUMPDEST PUSH1 0x1B PUSH1 0x20 SWAP1 DUP2 MSTORE PUSH1 0x0 SWAP2 DUP3 MSTORE PUSH1 0x40 SWAP2 DUP3 SWAP1 KECCAK256 DUP1 SLOAD PUSH1 0x1 DUP3 ADD SLOAD PUSH1 0x2 DUP4 ADD SLOAD DUP6 MLOAD DUP1 DUP8 ADD SWAP1 SWAP7 MSTORE PUSH1 0x4 DUP5 ADD SLOAD DUP7 MSTORE PUSH1 0x5 SWAP1 SWAP4 ADD SLOAD SWAP4 DUP6 ADD SWAP4 SWAP1 SWAP4 MSTORE PUSH1 0x1 PUSH1 0x1 PUSH1 0xA0 SHL SUB AND SWAP3 PUSH1 0xFF SWAP1 SWAP2 AND SWAP1 DUP5 JUMP JUMPDEST PUSH1 0x40 MLOAD PUSH2 0x2DF SWAP5 SWAP4 SWAP3 SWAP2 SWAP1 PUSH2 0x3069 JUMP JUMPDEST CALLVALUE DUP1 ISZERO PUSH2 0x568 JUMPI PUSH1 0x0 DUP1 REVERT JUMPDEST POP PUSH2 0x340 PUSH2 0x577 CALLDATASIZE PUSH1 0x4 PUSH2 0x309D JUMP JUMPDEST PUSH1 0x41 PUSH1 0x20 MSTORE PUSH1 0x0 SWAP1 DUP2 MSTORE PUSH1 0x40 SWAP1 KECCAK256 SLOAD DUP2 JUMP JUMPDEST CALLVALUE DUP1 ISZERO PUSH2 0x595 JUMPI PUSH1 0x0 DUP1 REVERT JUMPDEST POP PUSH2 0x2F0 PUSH2 0x133D JUMP JUMPDEST CALLVALUE DUP1 ISZERO PUSH2 0x5AA JUMPI PUSH1 0x0 DUP1 REVERT JUMPDEST POP PUSH2 0x312 PUSH2 0x5B9 CALLDATASIZE PUSH1 0x4 PUSH2 0x2D8F JUMP JUMPDEST PUSH2 0x13E7 JUMP JUMPDEST CALLVALUE DUP1 ISZERO PUSH2 0x5CA JUMPI PUSH1 0x0 DUP1 REVERT JUMPDEST POP PUSH2 0x2F0 PUSH2 0x5D9 CALLDATASIZE PUSH1 0x4 PUSH2 0x30BA JUMP JUMPDEST PUSH2 0x13F7 JUMP JUMPDEST CALLVALUE DUP1 ISZERO PUSH2 0x5EA JUMPI PUSH1 0x0 DUP1 REVERT JUMPDEST POP PUSH1 0x0 SLOAD PUSH1 0x1 PUSH1 0x1 PUSH1 0xA0 SHL SUB AND PUSH2 0x312 JUMP JUMPDEST CALLVALUE DUP1 ISZERO PUSH2 0x608 JUMPI PUSH1 0x0 DUP1 REVERT JUMPDEST POP PUSH2 0x2F0 PUSH2 0x144C JUMP JUMPDEST CALLVALUE DUP1 ISZERO PUSH2 0x61D JUMPI PUSH1 0x0 DUP1 REVERT JUMPDEST POP PUSH2 0x340 PUSH2 0x62C CALLDATASIZE PUSH1 0x4 PUSH2 0x309D JUMP JUMPDEST PUSH1 0x21 PUSH1 0x20 MSTORE PUSH1 0x0 SWAP1 DUP2 MSTORE PUSH1 0x40 SWAP1 KECCAK256 SLOAD DUP2 JUMP JUMPDEST PUSH2 0x340 PUSH2 0x1617 JUMP JUMPDEST CALLVALUE DUP1 ISZERO PUSH2 0x652 JUMPI PUSH1 0x0 DUP1 REVERT JUMPDEST POP PUSH2 0x2F0 PUSH2 0x661 CALLDATASIZE PUSH1 0x4 PUSH2 0x30F4 JUMP JUMPDEST PUSH2 0x1790 JUMP JUMPDEST CALLVALUE DUP1 ISZERO PUSH2 0x672 JUMPI PUSH1 0x0 DUP1 REVERT JUMPDEST POP PUSH2 0x312 PUSH32 0x0 DUP2 JUMP JUMPDEST CALLVALUE DUP1 ISZERO PUSH2 0x6A6 JUMPI PUSH1 0x0 DUP1 REVERT JUMPDEST POP PUSH2 0x340 PUSH2 0x6B5 CALLDATASIZE PUSH1 0x4 PUSH2 0x309D JUMP JUMPDEST PUSH1 0x20 DUP1 MSTORE PUSH1 0x0 SWAP1 DUP2 MSTORE PUSH1 0x40 SWAP1 KECCAK256 SLOAD DUP2 JUMP JUMPDEST CALLVALUE DUP1 ISZERO PUSH2 0x6D2 JUMPI PUSH1 0x0 DUP1 REVERT JUMPDEST POP PUSH2 0x340 PUSH2 0x6E1 CALLDATASIZE PUSH1 0x4 PUSH2 0x316B JUMP JUMPDEST PUSH2 0x1B29 JUMP JUMPDEST CALLVALUE DUP1 ISZERO PUSH2 0x6F2 JUMPI PUSH1 0x0 DUP1 REVERT JUMPDEST POP PUSH2 0x340 PUSH2 0x701 CALLDATASIZE PUSH1 0x4 PUSH2 0x309D JUMP JUMPDEST PUSH1 0x1A PUSH1 0x20 MSTORE PUSH1 0x0 SWAP1 DUP2 MSTORE PUSH1 0x40 SWAP1 KECCAK256 SLOAD DUP2 JUMP JUMPDEST CALLVALUE DUP1 ISZERO PUSH2 0x71F JUMPI PUSH1 0x0 DUP1 REVERT JUMPDEST POP PUSH2 0x340 PUSH2 0x72E CALLDATASIZE PUSH1 0x4 PUSH2 0x2D8F JUMP JUMPDEST PUSH2 0x1B5A JUMP JUMPDEST CALLVALUE DUP1 ISZERO PUSH2 0x73F JUMPI PUSH1 0x0 DUP1 REVERT JUMPDEST POP PUSH2 0x340 PUSH2 0x74E CALLDATASIZE PUSH1 0x4 PUSH2 0x316B JUMP JUMPDEST PUSH1 0x1D PUSH1 0x20 SWAP1 DUP2 MSTORE PUSH1 0x0 SWAP3 DUP4 MSTORE PUSH1 0x40 DUP1 DUP5 KECCAK256 SWAP1 SWAP2 MSTORE SWAP1 DUP3 MSTORE SWAP1 KECCAK256 SLOAD DUP2 JUMP JUMPDEST CALLVALUE DUP1 ISZERO PUSH2 0x777 JUMPI PUSH1 0x0 DUP1 REVERT JUMPDEST POP PUSH2 0x312 PUSH2 0x786 CALLDATASIZE PUSH1 0x4 PUSH2 0x2D8F JUMP JUMPDEST PUSH2 0x1B71 JUMP JUMPDEST CALLVALUE DUP1 ISZERO PUSH2 0x797 JUMPI PUSH1 0x0 DUP1 REVERT JUMPDEST POP PUSH2 0x340 PUSH1 0x40 SLOAD DUP2 JUMP JUMPDEST CALLVALUE DUP1 ISZERO PUSH2 0x7AD JUMPI PUSH1 0x0 DUP1 REVERT JUMPDEST POP PUSH2 0x2F0 PUSH2 0x7BC CALLDATASIZE PUSH1 0x4 PUSH2 0x2D8F JUMP JUMPDEST PUSH2 0x1B81 JUMP JUMPDEST CALLVALUE DUP1 ISZERO PUSH2 0x7CD JUMPI PUSH1 0x0 DUP1 REVERT JUMPDEST POP PUSH1 0x16 SLOAD PUSH1 0x17 SLOAD PUSH1 0x18 SLOAD PUSH2 0x7E9 SWAP3 PUSH1 0x1 PUSH1 0x1 PUSH1 0xA0 SHL SUB AND SWAP2 SWAP1 DUP4 JUMP JUMPDEST PUSH1 0x40 DUP1 MLOAD PUSH1 0x1 PUSH1 0x1 PUSH1 0xA0 SHL SUB SWAP1 SWAP5 AND DUP5 MSTORE PUSH1 0x20 DUP5 ADD SWAP3 SWAP1 SWAP3 MSTORE SWAP1 DUP3 ADD MSTORE PUSH1 0x60 ADD PUSH2 0x2DF JUMP JUMPDEST CALLVALUE DUP1 ISZERO PUSH2 0x81A JUMPI PUSH1 0x0 DUP1 REVERT JUMPDEST POP PUSH2 0x823 PUSH2 0x1C87 JUMP JUMPDEST PUSH1 0x40 MLOAD PUSH2 0x2DF SWAP5 SWAP4 SWAP3 SWAP2 SWAP1 PUSH2 0x31C0 JUMP JUMPDEST CALLVALUE DUP1 ISZERO PUSH2 0x83F JUMPI PUSH1 0x0 DUP1 REVERT JUMPDEST POP PUSH2 0x312 PUSH2 0x84E CALLDATASIZE PUSH1 0x4 PUSH2 0x2D8F JUMP JUMPDEST PUSH2 0x1D56 JUMP JUMPDEST CALLVALUE DUP1 ISZERO PUSH2 0x85F JUMPI PUSH1 0x0 DUP1 REVERT JUMPDEST POP PUSH2 0x340 PUSH1 0x43 SLOAD DUP2 JUMP JUMPDEST CALLVALUE DUP1 ISZERO PUSH2 0x875 JUMPI PUSH1 0x0 DUP1 REVERT JUMPDEST POP PUSH2 0x340 PUSH2 0x884 CALLDATASIZE PUSH1 0x4 PUSH2 0x316B JUMP JUMPDEST PUSH2 0x1D66 JUMP JUMPDEST PUSH2 0x2F0 PUSH2 0x1D82 JUMP JUMPDEST CALLVALUE DUP1 ISZERO PUSH2 0x89D JUMPI PUSH1 0x0 DUP1 REVERT JUMPDEST POP PUSH2 0x8E5 PUSH2 0x8AC CALLDATASIZE PUSH1 0x4 PUSH2 0x2D8F JUMP JUMPDEST PUSH1 0x42 PUSH1 0x20 MSTORE PUSH1 0x0 SWAP1 DUP2 MSTORE PUSH1 0x40 SWAP1 KECCAK256 DUP1 SLOAD PUSH1 0x1 DUP3 ADD SLOAD PUSH1 0x2 DUP4 ADD SLOAD PUSH1 0x3 DUP5 ADD SLOAD PUSH1 0x4 SWAP1 SWAP5 ADD SLOAD SWAP3 SWAP4 SWAP2 SWAP3 PUSH1 0x1 PUSH1 0x1 PUSH1 0xA0 SHL SUB SWAP1 SWAP2 AND SWAP2 SWAP1 DUP6 JUMP JUMPDEST PUSH1 0x40 DUP1 MLOAD SWAP6 DUP7 MSTORE PUSH1 0x20 DUP7 ADD SWAP5 SWAP1 SWAP5 MSTORE PUSH1 0x1 PUSH1 0x1 PUSH1 0xA0 SHL SUB SWAP1 SWAP3 AND SWAP3 DUP5 ADD SWAP3 SWAP1 SWAP3 MSTORE PUSH1 0x60 DUP4 ADD SWAP2 SWAP1 SWAP2 MSTORE PUSH1 0x80 DUP3 ADD MSTORE PUSH1 0xA0 ADD PUSH2 0x2DF JUMP JUMPDEST CALLVALUE DUP1 ISZERO PUSH2 0x927 JUMPI PUSH1 0x0 DUP1 REVERT JUMPDEST POP PUSH2 0x340 PUSH2 0x936 CALLDATASIZE PUSH1 0x4 PUSH2 0x2D8F JUMP JUMPDEST PUSH2 0x1E39 JUMP JUMPDEST CALLVALUE DUP1 ISZERO PUSH2 0x947 JUMPI PUSH1 0x0 DUP1 REVERT JUMPDEST POP PUSH32 0x0 PUSH2 0x312 JUMP JUMPDEST CALLVALUE DUP1 ISZERO PUSH2 0x97A JUMPI PUSH1 0x0 DUP1 REVERT JUMPDEST POP PUSH2 0x340 PUSH2 0x989 CALLDATASIZE PUSH1 0x4 PUSH2 0x2D8F JUMP JUMPDEST PUSH2 0x1F00 JUMP JUMPDEST CALLVALUE DUP1 ISZERO PUSH2 0x99A JUMPI PUSH1 0x0 DUP1 REVERT JUMPDEST POP PUSH2 0x312 PUSH2 0x9A9 CALLDATASIZE PUSH1 0x4 PUSH2 0x2D8F JUMP JUMPDEST PUSH2 0x1F10 JUMP JUMPDEST CALLVALUE DUP1 ISZERO PUSH2 0x9BA JUMPI PUSH1 0x0 DUP1 REVERT JUMPDEST POP PUSH2 0x340 PUSH2 0x9C9 CALLDATASIZE PUSH1 0x4 PUSH2 0x316B JUMP JUMPDEST PUSH1 0x1F PUSH1 0x20 SWAP1 DUP2 MSTORE PUSH1 0x0 SWAP3 DUP4 MSTORE PUSH1 0x40 DUP1 DUP5 KECCAK256 SWAP1 SWAP2 MSTORE SWAP1 DUP3 MSTORE SWAP1 KECCAK256 SLOAD DUP2 JUMP JUMPDEST CALLVALUE DUP1 ISZERO PUSH2 0x9F2 JUMPI PUSH1 0x0 DUP1 REVERT JUMPDEST POP PUSH2 0x2F0 PUSH2 0xA01 CALLDATASIZE PUSH1 0x4 PUSH2 0x309D JUMP JUMPDEST PUSH2 0x1F20 JUMP JUMPDEST CALLVALUE DUP1 ISZERO PUSH2 0xA12 JUMPI PUSH1 0x0 DUP1 REVERT JUMPDEST POP PUSH2 0x2F0 PUSH2 0xA21 CALLDATASIZE PUSH1 0x4 PUSH2 0x2D8F JUMP JUMPDEST PUSH2 0x1F31 JUMP JUMPDEST PUSH1 0x0 PUSH1 0x1 PUSH1 0x1 PUSH1 0xE0 SHL SUB NOT DUP3 AND PUSH4 0x85572FFB PUSH1 0xE0 SHL EQ DUP1 PUSH2 0xA57 JUMPI POP PUSH1 0x1 PUSH1 0x1 PUSH1 0xE0 SHL SUB NOT DUP3 AND PUSH4 0x1FFC9A7 PUSH1 0xE0 SHL EQ JUMPDEST SWAP3 SWAP2 POP POP JUMP JUMPDEST PUSH1 0x0 PUSH2 0xA69 PUSH1 0x5 PUSH2 0x1E39 JUMP JUMPDEST SWAP1 POP DUP1 CALLVALUE LT ISZERO PUSH2 0xA94 JUMPI PUSH1 0x40 MLOAD PUSH3 0x461BCD PUSH1 0xE5 SHL DUP2 MSTORE PUSH1 0x4 ADD PUSH2 0xA8B SWAP1 PUSH2 0x3221 JUMP JUMPDEST PUSH1 0x40 MLOAD DUP1 SWAP2 SUB SWAP1 REVERT JUMPDEST PUSH1 0x2C SLOAD PUSH1 0x1 PUSH1 0x1 PUSH1 0xA0 SHL SUB AND DUP1 ISZERO PUSH2 0xAB0 JUMPI PUSH2 0xAB0 DUP2 DUP4 PUSH2 0x202D JUMP JUMPDEST POP POP JUMP JUMPDEST PUSH1 0x9 DUP2 PUSH1 0x3 DUP2 LT PUSH2 0xAC4 JUMPI PUSH1 0x0 DUP1 REVERT JUMPDEST ADD SLOAD PUSH1 0x1 PUSH1 0x1 PUSH1 0xA0 SHL SUB AND SWAP1 POP DUP2 JUMP JUMPDEST CALLER PUSH1 0x0 SWAP1 DUP2 MSTORE PUSH1 0x1C PUSH1 0x20 SWAP1 DUP2 MSTORE PUSH1 0x40 SWAP2 DUP3 SWAP1 KECCAK256 DUP1 SLOAD DUP4 MLOAD DUP2 DUP5 MUL DUP2 ADD DUP5 ADD SWAP1 SWAP5 MSTORE DUP1 DUP5 MSTORE PUSH1 0x60 SWAP4 DUP5 SWAP4 SWAP1 SWAP3 SWAP2 SWAP1 DUP4 ADD DUP3 DUP3 DUP1 ISZERO PUSH2 0xB30 JUMPI PUSH1 0x20 MUL DUP3 ADD SWAP2 SWAP1 PUSH1 0x0 MSTORE PUSH1 0x20 PUSH1 0x0 KECCAK256 SWAP1 JUMPDEST DUP2 SLOAD DUP2 MSTORE PUSH1 0x20 ADD SWAP1 PUSH1 0x1 ADD SWAP1 DUP1 DUP4 GT PUSH2 0xB1C JUMPI JUMPDEST POP POP POP POP POP SWAP2 POP DUP2 MLOAD PUSH1 0x1 PUSH1 0x1 PUSH1 0x40 SHL SUB DUP2 GT ISZERO PUSH2 0xB50 JUMPI PUSH2 0xB50 PUSH2 0x2E08 JUMP JUMPDEST PUSH1 0x40 MLOAD SWAP1 DUP1 DUP3 MSTORE DUP1 PUSH1 0x20 MUL PUSH1 0x20 ADD DUP3 ADD PUSH1 0x40 MSTORE DUP1 ISZERO PUSH2 0xB79 JUMPI DUP2 PUSH1 0x20 ADD PUSH1 0x20 DUP3 MUL DUP1 CALLDATASIZE DUP4 CALLDATACOPY ADD SWAP1 POP JUMPDEST POP SWAP1 POP PUSH1 0x0 JUMPDEST DUP3 MLOAD DUP2 LT ISZERO PUSH2 0xBD4 JUMPI CALLER PUSH1 0x0 SWAP1 DUP2 MSTORE PUSH1 0x1D PUSH1 0x20 SWAP1 DUP2 MSTORE PUSH1 0x40 DUP1 DUP4 KECCAK256 DUP5 DUP5 MSTORE SWAP1 SWAP2 MSTORE SWAP1 KECCAK256 SLOAD DUP3 MLOAD DUP4 SWAP1 DUP4 SWAP1 DUP2 LT PUSH2 0xBB7 JUMPI PUSH2 0xBB7 PUSH2 0x3258 JUMP JUMPDEST PUSH1 0x20 SWAP1 DUP2 MUL SWAP2 SWAP1 SWAP2 ADD ADD MSTORE DUP1 PUSH2 0xBCC DUP2 PUSH2 0x3284 JUMP JUMPDEST SWAP2 POP POP PUSH2 0xB7F JUMP JUMPDEST POP SWAP1 SWAP2 JUMP JUMPDEST PUSH32 0x0 CALLER PUSH1 0x1 PUSH1 0x1 PUSH1 0xA0 SHL SUB DUP3 AND EQ PUSH2 0xC34 JUMPI PUSH1 0x40 MLOAD PUSH4 0x45D498B7 PUSH1 0xE1 SHL DUP2 MSTORE CALLER PUSH1 0x4 DUP3 ADD MSTORE PUSH1 0x1 PUSH1 0x1 PUSH1 0xA0 SHL SUB DUP3 AND PUSH1 0x24 DUP3 ADD MSTORE PUSH1 0x44 ADD PUSH2 0xA8B JUMP JUMPDEST PUSH2 0xC3E DUP4 DUP4 PUSH2 0x2063 JUMP JUMPDEST POP POP POP JUMP JUMPDEST PUSH1 0xC DUP2 PUSH1 0x3 DUP2 LT PUSH2 0xC53 JUMPI PUSH1 0x0 DUP1 REVERT JUMPDEST PUSH1 0x4 SWAP2 DUP3 DUP3 DIV ADD SWAP2 SWAP1 MOD PUSH1 0x8 MUL SWAP2 POP SLOAD SWAP1 PUSH2 0x100 EXP SWAP1 DIV PUSH1 0x1 PUSH1 0x1 PUSH1 0x40 SHL SUB AND DUP2 JUMP JUMPDEST PUSH1 0x0 DUP1 PUSH2 0xC96 PUSH1 0x40 MLOAD DUP1 PUSH1 0x40 ADD PUSH1 0x40 MSTORE DUP1 PUSH1 0x0 DUP2 MSTORE PUSH1 0x20 ADD PUSH1 0x0 DUP2 MSTORE POP SWAP1 JUMP JUMPDEST CALLER PUSH1 0x0 SWAP1 DUP2 MSTORE PUSH1 0x1A PUSH1 0x20 SWAP1 DUP2 MSTORE PUSH1 0x40 DUP1 DUP4 KECCAK256 SLOAD DUP1 DUP5 MSTORE PUSH1 0x1B SWAP1 SWAP3 MSTORE SWAP1 SWAP2 KECCAK256 PUSH1 0x1 ADD SLOAD PUSH2 0xCF8 JUMPI PUSH1 0x40 MLOAD PUSH3 0x461BCD PUSH1 0xE5 SHL DUP2 MSTORE PUSH1 0x20 PUSH1 0x4 DUP3 ADD MSTORE PUSH1 0x11 PUSH1 0x24 DUP3 ADD MSTORE PUSH17 0x1C995C5D595CDD081B9BDD08199BDD5B99 PUSH1 0x7A SHL PUSH1 0x44 DUP3 ADD MSTORE PUSH1 0x64 ADD PUSH2 0xA8B JUMP JUMPDEST PUSH1 0x0 DUP2 DUP2 MSTORE PUSH1 0x1B PUSH1 0x20 SWAP1 DUP2 MSTORE PUSH1 0x40 DUP1 DUP4 KECCAK256 DUP2 MLOAD PUSH1 0xA0 DUP2 ADD DUP4 MSTORE DUP2 SLOAD PUSH1 0x1 PUSH1 0x1 PUSH1 0xA0 SHL SUB AND DUP2 MSTORE PUSH1 0x1 DUP3 ADD SLOAD DUP2 DUP6 ADD MSTORE PUSH1 0x2 DUP3 ADD SLOAD PUSH1 0xFF AND ISZERO ISZERO DUP2 DUP5 ADD MSTORE PUSH1 0x3 DUP3 ADD DUP1 SLOAD DUP5 MLOAD DUP2 DUP8 MUL DUP2 ADD DUP8 ADD SWAP1 SWAP6 MSTORE DUP1 DUP6 MSTORE SWAP2 SWAP5 SWAP3 SWAP4 PUSH1 0x60 DUP7 ADD SWAP4 SWAP1 SWAP3 SWAP1 DUP4 ADD DUP3 DUP3 DUP1 ISZERO PUSH2 0xD85 JUMPI PUSH1 0x20 MUL DUP3 ADD SWAP2 SWAP1 PUSH1 0x0 MSTORE PUSH1 0x20 PUSH1 0x0 KECCAK256 SWAP1 JUMPDEST DUP2 SLOAD DUP2 MSTORE PUSH1 0x20 ADD SWAP1 PUSH1 0x1 ADD SWAP1 DUP1 DUP4 GT PUSH2 0xD71 JUMPI JUMPDEST POP POP POP SWAP2 DUP4 MSTORE POP POP PUSH1 0x40 DUP1 MLOAD DUP1 DUP3 ADD DUP3 MSTORE PUSH1 0x4 DUP5 ADD SLOAD DUP2 MSTORE PUSH1 0x5 SWAP1 SWAP4 ADD SLOAD PUSH1 0x20 DUP5 DUP2 ADD SWAP2 SWAP1 SWAP2 MSTORE SWAP2 DUP3 ADD SWAP3 SWAP1 SWAP3 MSTORE DUP3 ADD MLOAD SWAP1 DUP3 ADD MLOAD PUSH1 0x80 SWAP1 SWAP3 ADD MLOAD SWAP1 SWAP8 SWAP2 SWAP7 POP SWAP5 POP SWAP3 POP POP POP JUMP JUMPDEST CALLER PUSH1 0x0 SWAP1 DUP2 MSTORE PUSH1 0x1E PUSH1 0x20 SWAP1 DUP2 MSTORE PUSH1 0x40 SWAP2 DUP3 SWAP1 KECCAK256 DUP1 SLOAD DUP4 MLOAD DUP2 DUP5 MUL DUP2 ADD DUP5 ADD SWAP1 SWAP5 MSTORE DUP1 DUP5 MSTORE PUSH1 0x60 SWAP4 DUP5 SWAP4 SWAP1 SWAP3 SWAP2 SWAP1 DUP4 ADD DUP3 DUP3 DUP1 ISZERO PUSH2 0xE29 JUMPI PUSH1 0x20 MUL DUP3 ADD SWAP2 SWAP1 PUSH1 0x0 MSTORE PUSH1 0x20 PUSH1 0x0 KECCAK256 SWAP1 JUMPDEST DUP2 SLOAD DUP2 MSTORE PUSH1 0x20 ADD SWAP1 PUSH1 0x1 ADD SWAP1 DUP1 DUP4 GT PUSH2 0xE15 JUMPI JUMPDEST POP POP POP POP POP SWAP2 POP DUP2 MLOAD PUSH1 0x1 PUSH1 0x1 PUSH1 0x40 SHL SUB DUP2 GT ISZERO PUSH2 0xE49 JUMPI PUSH2 0xE49 PUSH2 0x2E08 JUMP JUMPDEST PUSH1 0x40 MLOAD SWAP1 DUP1 DUP3 MSTORE DUP1 PUSH1 0x20 MUL PUSH1 0x20 ADD DUP3 ADD PUSH1 0x40 MSTORE DUP1 ISZERO PUSH2 0xE72 JUMPI DUP2 PUSH1 0x20 ADD PUSH1 0x20 DUP3 MUL DUP1 CALLDATASIZE DUP4 CALLDATACOPY ADD SWAP1 POP JUMPDEST POP SWAP1 POP PUSH1 0x0 JUMPDEST DUP3 MLOAD DUP2 LT ISZERO PUSH2 0xBD4 JUMPI CALLER PUSH1 0x0 SWAP1 DUP2 MSTORE PUSH1 0x1F PUSH1 0x20 SWAP1 DUP2 MSTORE PUSH1 0x40 DUP1 DUP4 KECCAK256 DUP5 DUP5 MSTORE SWAP1 SWAP2 MSTORE SWAP1 KECCAK256 SLOAD DUP3 MLOAD DUP4 SWAP1 DUP4 SWAP1 DUP2 LT PUSH2 0xEB0 JUMPI PUSH2 0xEB0 PUSH2 0x3258 JUMP JUMPDEST PUSH1 0x20 SWAP1 DUP2 MUL SWAP2 SWAP1 SWAP2 ADD ADD MSTORE DUP1 PUSH2 0xEC5 DUP2 PUSH2 0x3284 JUMP JUMPDEST SWAP2 POP POP PUSH2 0xE78 JUMP JUMPDEST PUSH1 0x19 DUP2 DUP2 SLOAD DUP2 LT PUSH2 0xEDD JUMPI PUSH1 0x0 DUP1 REVERT JUMPDEST PUSH1 0x0 SWAP2 DUP3 MSTORE PUSH1 0x20 SWAP1 SWAP2 KECCAK256 PUSH1 0x2 SWAP1 SWAP2 MUL ADD DUP1 SLOAD PUSH1 0x1 SWAP1 SWAP2 ADD SLOAD SWAP1 SWAP2 POP DUP3 JUMP JUMPDEST PUSH2 0xF03 PUSH2 0x22E2 JUMP JUMPDEST PUSH1 0x40 DUP1 MLOAD DUP1 DUP3 ADD DUP3 MSTORE PUSH1 0x0 DUP1 DUP3 MSTORE PUSH1 0x64 PUSH1 0x20 DUP1 DUP5 ADD SWAP2 DUP3 MSTORE PUSH1 0x19 DUP1 SLOAD PUSH1 0x1 DUP2 DUP2 ADD DUP4 SSTORE DUP3 DUP7 MSTORE SWAP6 MLOAD PUSH1 0x2 SWAP2 DUP3 MUL PUSH32 0x944998273E477B495144FB8794C914197F3CCB46BE2900F4698FD0EF743C9695 DUP2 DUP2 ADD SWAP3 SWAP1 SWAP3 SSTORE SWAP5 MLOAD PUSH32 0x944998273E477B495144FB8794C914197F3CCB46BE2900F4698FD0EF743C9696 SWAP6 DUP7 ADD SSTORE DUP8 MLOAD DUP1 DUP10 ADD DUP10 MSTORE DUP7 DUP2 MSTORE PUSH1 0x32 DUP2 DUP7 ADD DUP2 DUP2 MSTORE DUP6 SLOAD DUP1 DUP12 ADD DUP8 SSTORE DUP7 DUP11 MSTORE SWAP3 MLOAD SWAP3 DUP6 MUL DUP1 DUP6 ADD SWAP4 SWAP1 SWAP4 SSTORE MLOAD SWAP2 DUP8 ADD SWAP2 SWAP1 SWAP2 SSTORE DUP9 MLOAD DUP1 DUP11 ADD DUP11 MSTORE DUP9 DUP2 MSTORE PUSH1 0xA DUP2 DUP8 ADD SWAP1 DUP2 MSTORE DUP6 SLOAD DUP1 DUP12 ADD DUP8 SSTORE DUP7 DUP11 MSTORE SWAP2 MLOAD SWAP2 DUP6 MUL DUP1 DUP6 ADD SWAP3 SWAP1 SWAP3 SSTORE MLOAD SWAP1 DUP8 ADD SSTORE DUP9 MLOAD DUP1 DUP11 ADD DUP11 MSTORE DUP8 DUP2 MSTORE DUP1 DUP7 ADD DUP3 DUP2 MSTORE DUP6 SLOAD DUP1 DUP12 ADD DUP8 SSTORE DUP7 DUP11 MSTORE SWAP2 MLOAD SWAP2 DUP6 MUL DUP1 DUP6 ADD SWAP3 SWAP1 SWAP3 SSTORE MLOAD SWAP1 DUP8 ADD SSTORE DUP9 MLOAD DUP1 DUP11 ADD DUP11 MSTORE DUP8 DUP2 MSTORE PUSH1 0x96 DUP2 DUP8 ADD SWAP1 DUP2 MSTORE DUP6 SLOAD DUP1 DUP12 ADD DUP8 SSTORE DUP7 DUP11 MSTORE SWAP2 MLOAD SWAP2 DUP6 MUL DUP1 DUP6 ADD SWAP3 SWAP1 SWAP3 SSTORE MLOAD SWAP1 DUP8 ADD SSTORE DUP9 MLOAD DUP1 DUP11 ADD DUP11 MSTORE PUSH1 0x3 DUP1 DUP3 MSTORE PUSH1 0x12 DUP3 DUP9 ADD SWAP1 DUP2 MSTORE DUP7 SLOAD DUP1 DUP13 ADD DUP9 SSTORE DUP8 DUP12 MSTORE SWAP3 MLOAD SWAP3 DUP7 MUL DUP1 DUP7 ADD SWAP4 SWAP1 SWAP4 SSTORE MLOAD SWAP2 DUP9 ADD SWAP2 SWAP1 SWAP2 SSTORE DUP10 MLOAD DUP1 DUP12 ADD DUP12 MSTORE DUP9 DUP2 MSTORE PUSH1 0xC8 DUP2 DUP9 ADD DUP2 DUP2 MSTORE DUP8 SLOAD DUP1 DUP14 ADD DUP10 SSTORE DUP9 DUP13 MSTORE SWAP3 MLOAD SWAP3 DUP8 MUL DUP1 DUP8 ADD SWAP4 SWAP1 SWAP4 SSTORE MLOAD SWAP2 DUP10 ADD SWAP2 SWAP1 SWAP2 SSTORE DUP11 MLOAD DUP1 DUP13 ADD DUP13 MSTORE DUP10 DUP2 MSTORE DUP1 DUP9 ADD DUP5 DUP2 MSTORE DUP8 SLOAD DUP1 DUP14 ADD DUP10 SSTORE DUP9 DUP13 MSTORE SWAP2 MLOAD SWAP2 DUP8 MUL DUP1 DUP8 ADD SWAP3 SWAP1 SWAP3 SSTORE MLOAD SWAP1 DUP10 ADD SSTORE DUP11 MLOAD DUP1 DUP13 ADD DUP13 MSTORE DUP11 DUP2 MSTORE PUSH1 0x14 DUP2 DUP10 ADD SWAP1 DUP2 MSTORE DUP8 SLOAD DUP1 DUP14 ADD DUP10 SSTORE DUP9 DUP13 MSTORE SWAP2 MLOAD SWAP2 DUP8 MUL DUP1 DUP8 ADD SWAP3 SWAP1 SWAP3 SSTORE MLOAD SWAP1 DUP10 ADD SSTORE DUP11 MLOAD DUP1 DUP13 ADD DUP13 MSTORE DUP10 DUP2 MSTORE DUP1 DUP9 ADD SWAP4 DUP5 MSTORE DUP7 SLOAD DUP1 DUP13 ADD DUP9 SSTORE DUP8 DUP12 MSTORE SWAP1 MLOAD SWAP1 DUP7 MUL DUP1 DUP7 ADD SWAP2 SWAP1 SWAP2 SSTORE SWAP3 MLOAD SWAP3 DUP9 ADD SWAP3 SWAP1 SWAP3 SSTORE DUP10 MLOAD DUP1 DUP12 ADD DUP12 MSTORE DUP9 DUP2 MSTORE DUP1 DUP8 ADD SWAP3 DUP4 MSTORE DUP6 SLOAD DUP1 DUP12 ADD DUP8 SSTORE DUP7 DUP11 MSTORE SWAP1 MLOAD SWAP1 DUP6 MUL DUP1 DUP6 ADD SWAP2 SWAP1 SWAP2 SSTORE SWAP2 MLOAD SWAP2 DUP8 ADD SWAP2 SWAP1 SWAP2 SSTORE DUP9 MLOAD DUP1 DUP11 ADD SWAP1 SWAP10 MSTORE DUP9 MSTORE PUSH1 0x9 SWAP4 DUP9 ADD SWAP4 DUP5 MSTORE DUP3 SLOAD SWAP7 DUP8 ADD DUP4 SSTORE SWAP2 SWAP1 SWAP5 MSTORE SWAP5 MLOAD SWAP4 SWAP1 SWAP3 MUL SWAP4 DUP5 ADD SWAP3 SWAP1 SWAP3 SSTORE MLOAD SWAP2 ADD SSTORE JUMP JUMPDEST PUSH1 0xD DUP2 PUSH1 0x3 DUP2 LT PUSH2 0xAC4 JUMPI PUSH1 0x0 DUP1 REVERT JUMPDEST CALLER PUSH1 0x0 SWAP1 DUP2 MSTORE PUSH1 0x20 DUP1 DUP1 MSTORE PUSH1 0x40 DUP1 DUP4 KECCAK256 SLOAD PUSH1 0x21 DUP4 MSTORE DUP2 DUP5 KECCAK256 SLOAD PUSH1 0x1C DUP5 MSTORE DUP3 DUP6 KECCAK256 PUSH1 0x1E DUP6 MSTORE DUP4 DUP7 KECCAK256 DUP2 SLOAD DUP6 MLOAD DUP2 DUP9 MUL DUP2 ADD DUP9 ADD SWAP1 SWAP7 MSTORE DUP1 DUP7 MSTORE DUP8 SWAP7 PUSH1 0x60 SWAP7 DUP8 SWAP7 SWAP6 SWAP5 SWAP4 SWAP3 SWAP1 SWAP2 DUP5 SWAP2 SWAP1 DUP4 ADD DUP3 DUP3 DUP1 ISZERO PUSH2 0x1203 JUMPI PUSH1 0x20 MUL DUP3 ADD SWAP2 SWAP1 PUSH1 0x0 MSTORE PUSH1 0x20 PUSH1 0x0 KECCAK256 SWAP1 JUMPDEST DUP2 SLOAD DUP2 MSTORE PUSH1 0x20 ADD SWAP1 PUSH1 0x1 ADD SWAP1 DUP1 DUP4 GT PUSH2 0x11EF JUMPI JUMPDEST POP POP POP POP POP SWAP2 POP DUP1 DUP1 SLOAD DUP1 PUSH1 0x20 MUL PUSH1 0x20 ADD PUSH1 0x40 MLOAD SWAP1 DUP2 ADD PUSH1 0x40 MSTORE DUP1 SWAP3 SWAP2 SWAP1 DUP2 DUP2 MSTORE PUSH1 0x20 ADD DUP3 DUP1 SLOAD DUP1 ISZERO PUSH2 0x1255 JUMPI PUSH1 0x20 MUL DUP3 ADD SWAP2 SWAP1 PUSH1 0x0 MSTORE PUSH1 0x20 PUSH1 0x0 KECCAK256 SWAP1 JUMPDEST DUP2 SLOAD DUP2 MSTORE PUSH1 0x20 ADD SWAP1 PUSH1 0x1 ADD SWAP1 DUP1 DUP4 GT PUSH2 0x1241 JUMPI JUMPDEST POP POP POP POP POP SWAP1 POP SWAP4 POP SWAP4 POP SWAP4 POP SWAP4 POP SWAP1 SWAP2 SWAP3 SWAP4 JUMP JUMPDEST PUSH2 0x1272 PUSH2 0x22E2 JUMP JUMPDEST PUSH1 0x3 DUP2 MLOAD EQ PUSH2 0x12C3 JUMPI PUSH1 0x40 MLOAD PUSH3 0x461BCD PUSH1 0xE5 SHL DUP2 MSTORE PUSH1 0x20 PUSH1 0x4 DUP3 ADD MSTORE PUSH1 0x19 PUSH1 0x24 DUP3 ADD MSTORE PUSH32 0x72656365697665724C697374206973206E6F742076616C696400000000000000 PUSH1 0x44 DUP3 ADD MSTORE PUSH1 0x64 ADD PUSH2 0xA8B JUMP JUMPDEST PUSH1 0x0 JUMPDEST DUP2 MLOAD DUP2 LT ISZERO PUSH2 0xAB0 JUMPI DUP2 DUP2 DUP2 MLOAD DUP2 LT PUSH2 0x12E1 JUMPI PUSH2 0x12E1 PUSH2 0x3258 JUMP JUMPDEST PUSH1 0x20 MUL PUSH1 0x20 ADD ADD MLOAD PUSH1 0x13 DUP3 PUSH1 0x3 DUP2 LT PUSH2 0x12FC JUMPI PUSH2 0x12FC PUSH2 0x3258 JUMP JUMPDEST ADD DUP1 SLOAD PUSH1 0x1 PUSH1 0x1 PUSH1 0xA0 SHL SUB NOT AND PUSH1 0x1 PUSH1 0x1 PUSH1 0xA0 SHL SUB SWAP3 SWAP1 SWAP3 AND SWAP2 SWAP1 SWAP2 OR SWAP1 SSTORE DUP1 PUSH2 0x1325 DUP2 PUSH2 0x3284 JUMP JUMPDEST SWAP2 POP POP PUSH2 0x12C6 JUMP JUMPDEST PUSH1 0x3 DUP2 PUSH1 0x3 DUP2 LT PUSH2 0xAC4 JUMPI PUSH1 0x0 DUP1 REVERT JUMPDEST PUSH1 0x1 SLOAD PUSH1 0x1 PUSH1 0x1 PUSH1 0xA0 SHL SUB AND CALLER EQ PUSH2 0x1390 JUMPI PUSH1 0x40 MLOAD PUSH3 0x461BCD PUSH1 0xE5 SHL DUP2 MSTORE PUSH1 0x20 PUSH1 0x4 DUP3 ADD MSTORE PUSH1 0x16 PUSH1 0x24 DUP3 ADD MSTORE PUSH22 0x26BAB9BA10313290383937B837B9B2B21037BBB732B9 PUSH1 0x51 SHL PUSH1 0x44 DUP3 ADD MSTORE PUSH1 0x64 ADD PUSH2 0xA8B JUMP JUMPDEST PUSH1 0x0 DUP1 SLOAD CALLER PUSH1 0x1 PUSH1 0x1 PUSH1 0xA0 SHL SUB NOT DUP1 DUP4 AND DUP3 OR DUP5 SSTORE PUSH1 0x1 DUP1 SLOAD SWAP1 SWAP2 AND SWAP1 SSTORE PUSH1 0x40 MLOAD PUSH1 0x1 PUSH1 0x1 PUSH1 0xA0 SHL SUB SWAP1 SWAP3 AND SWAP3 SWAP1 SWAP2 DUP4 SWAP2 PUSH32 0x8BE0079C531659141344CD1FD0A4F28419497F9722A3DAAFE3B4186F6B6457E0 SWAP2 LOG3 POP JUMP JUMPDEST PUSH1 0x10 DUP2 PUSH1 0x3 DUP2 LT PUSH2 0xAC4 JUMPI PUSH1 0x0 DUP1 REVERT JUMPDEST PUSH1 0x3 PUSH1 0x2 SLOAD PUSH1 0x3 DUP2 LT PUSH2 0x140C JUMPI PUSH2 0x140C PUSH2 0x3258 JUMP JUMPDEST ADD SLOAD PUSH1 0x1 PUSH1 0x1 PUSH1 0xA0 SHL SUB AND CALLER EQ PUSH2 0x1438 JUMPI PUSH1 0x40 MLOAD PUSH4 0x35FDCCCD PUSH1 0xE2 SHL DUP2 MSTORE CALLER PUSH1 0x4 DUP3 ADD MSTORE PUSH1 0x24 ADD PUSH2 0xA8B JUMP JUMPDEST PUSH2 0x1449 PUSH2 0x1444 DUP3 PUSH2 0x33BB JUMP JUMPDEST PUSH2 0x2337 JUMP JUMPDEST POP JUMP JUMPDEST PUSH2 0x1454 PUSH2 0x22E2 JUMP JUMPDEST PUSH1 0x0 PUSH1 0x1 PUSH1 0x1 PUSH1 0xA0 SHL SUB AND PUSH1 0x6 PUSH1 0x2 SLOAD PUSH1 0x3 DUP2 LT PUSH2 0x1474 JUMPI PUSH2 0x1474 PUSH2 0x3258 JUMP JUMPDEST ADD SLOAD PUSH1 0x1 PUSH1 0x1 PUSH1 0xA0 SHL SUB AND SUB PUSH2 0x14D8 JUMPI PUSH1 0x40 MLOAD PUSH3 0x461BCD PUSH1 0xE5 SHL DUP2 MSTORE PUSH1 0x20 PUSH1 0x4 DUP3 ADD MSTORE PUSH1 0x24 DUP1 DUP3 ADD MSTORE PUSH32 0x6572726F723A2077697468647261774C696E6B206973206E6F7420737570706F PUSH1 0x44 DUP3 ADD MSTORE PUSH4 0x1C9D1959 PUSH1 0xE2 SHL PUSH1 0x64 DUP3 ADD MSTORE PUSH1 0x84 ADD PUSH2 0xA8B JUMP JUMPDEST PUSH1 0x0 PUSH1 0x6 PUSH1 0x2 SLOAD PUSH1 0x3 DUP2 LT PUSH2 0x14EF JUMPI PUSH2 0x14EF PUSH2 0x3258 JUMP JUMPDEST ADD SLOAD PUSH1 0x40 MLOAD PUSH4 0x70A08231 PUSH1 0xE0 SHL DUP2 MSTORE ADDRESS PUSH1 0x4 DUP3 ADD MSTORE PUSH1 0x1 PUSH1 0x1 PUSH1 0xA0 SHL SUB SWAP1 SWAP2 AND SWAP2 POP DUP2 SWAP1 PUSH4 0xA9059CBB SWAP1 CALLER SWAP1 DUP4 SWAP1 PUSH4 0x70A08231 SWAP1 PUSH1 0x24 ADD PUSH1 0x20 PUSH1 0x40 MLOAD DUP1 DUP4 SUB DUP2 DUP7 GAS STATICCALL ISZERO DUP1 ISZERO PUSH2 0x1543 JUMPI RETURNDATASIZE PUSH1 0x0 DUP1 RETURNDATACOPY RETURNDATASIZE PUSH1 0x0 REVERT JUMPDEST POP POP POP POP PUSH1 0x40 MLOAD RETURNDATASIZE PUSH1 0x1F NOT PUSH1 0x1F DUP3 ADD AND DUP3 ADD DUP1 PUSH1 0x40 MSTORE POP DUP2 ADD SWAP1 PUSH2 0x1567 SWAP2 SWAP1 PUSH2 0x3467 JUMP JUMPDEST PUSH1 0x40 MLOAD PUSH1 0x1 PUSH1 0x1 PUSH1 0xE0 SHL SUB NOT PUSH1 0xE0 DUP6 SWAP1 SHL AND DUP2 MSTORE PUSH1 0x1 PUSH1 0x1 PUSH1 0xA0 SHL SUB SWAP1 SWAP3 AND PUSH1 0x4 DUP4 ADD MSTORE PUSH1 0x24 DUP3 ADD MSTORE PUSH1 0x44 ADD PUSH1 0x20 PUSH1 0x40 MLOAD DUP1 DUP4 SUB DUP2 PUSH1 0x0 DUP8 GAS CALL ISZERO DUP1 ISZERO PUSH2 0x15B2 JUMPI RETURNDATASIZE PUSH1 0x0 DUP1 RETURNDATACOPY RETURNDATASIZE PUSH1 0x0 REVERT JUMPDEST POP POP POP POP PUSH1 0x40 MLOAD RETURNDATASIZE PUSH1 0x1F NOT PUSH1 0x1F DUP3 ADD AND DUP3 ADD DUP1 PUSH1 0x40 MSTORE POP DUP2 ADD SWAP1 PUSH2 0x15D6 SWAP2 SWAP1 PUSH2 0x3480 JUMP JUMPDEST PUSH2 0x1449 JUMPI PUSH1 0x40 MLOAD PUSH3 0x461BCD PUSH1 0xE5 SHL DUP2 MSTORE PUSH1 0x20 PUSH1 0x4 DUP3 ADD MSTORE PUSH1 0x12 PUSH1 0x24 DUP3 ADD MSTORE PUSH18 0x2AB730B13632903A37903A3930B739B332B9 PUSH1 0x71 SHL PUSH1 0x44 DUP3 ADD MSTORE PUSH1 0x64 ADD PUSH2 0xA8B JUMP JUMPDEST PUSH1 0x0 DUP1 PUSH2 0x1624 PUSH1 0x4 PUSH2 0x1E39 JUMP JUMPDEST SWAP1 POP DUP1 CALLVALUE LT ISZERO PUSH2 0x1646 JUMPI PUSH1 0x40 MLOAD PUSH3 0x461BCD PUSH1 0xE5 SHL DUP2 MSTORE PUSH1 0x4 ADD PUSH2 0xA8B SWAP1 PUSH2 0x3221 JUMP JUMPDEST PUSH1 0x0 PUSH2 0x1662 PUSH1 0x40 MLOAD DUP1 PUSH1 0x20 ADD PUSH1 0x40 MSTORE DUP1 PUSH1 0x0 ISZERO ISZERO DUP2 MSTORE POP PUSH2 0x2429 JUMP JUMPDEST SWAP1 POP PUSH1 0x0 DUP1 PUSH2 0x1678 PUSH3 0x1E8480 PUSH1 0x3 PUSH1 0x1 DUP7 PUSH2 0x249A JUMP JUMPDEST PUSH1 0x40 DUP1 MLOAD PUSH1 0xA0 DUP2 ADD DUP3 MSTORE CALLER DUP2 MSTORE PUSH1 0x20 DUP1 DUP3 ADD DUP5 DUP2 MSTORE PUSH1 0x0 DUP4 DUP6 ADD DUP2 DUP2 MSTORE DUP6 MLOAD DUP3 DUP2 MSTORE DUP1 DUP6 ADD DUP8 MSTORE PUSH1 0x60 DUP7 ADD SWAP1 DUP2 MSTORE DUP7 MLOAD DUP1 DUP9 ADD DUP9 MSTORE DUP4 DUP2 MSTORE DUP1 DUP7 ADD DUP5 SWAP1 MSTORE PUSH1 0x80 DUP8 ADD MSTORE DUP9 DUP4 MSTORE PUSH1 0x1B DUP6 MSTORE SWAP6 SWAP1 SWAP2 KECCAK256 DUP5 MLOAD DUP2 SLOAD PUSH1 0x1 PUSH1 0x1 PUSH1 0xA0 SHL SUB NOT AND PUSH1 0x1 PUSH1 0x1 PUSH1 0xA0 SHL SUB SWAP1 SWAP2 AND OR DUP2 SSTORE SWAP2 MLOAD PUSH1 0x1 DUP4 ADD SSTORE MLOAD PUSH1 0x2 DUP3 ADD DUP1 SLOAD PUSH1 0xFF NOT AND SWAP2 ISZERO ISZERO SWAP2 SWAP1 SWAP2 OR SWAP1 SSTORE SWAP3 MLOAD DUP1 MLOAD SWAP6 SWAP8 POP SWAP4 SWAP6 POP SWAP1 SWAP4 SWAP2 SWAP3 PUSH2 0x171E SWAP3 PUSH1 0x3 DUP6 ADD SWAP3 SWAP2 SWAP1 SWAP2 ADD SWAP1 PUSH2 0x2CE6 JUMP JUMPDEST POP PUSH1 0x80 SWAP2 SWAP1 SWAP2 ADD MLOAD DUP1 MLOAD PUSH1 0x4 DUP4 ADD SSTORE PUSH1 0x20 SWAP1 DUP2 ADD MLOAD PUSH1 0x5 SWAP1 SWAP3 ADD SWAP2 SWAP1 SWAP2 SSTORE CALLER PUSH1 0x0 SWAP1 DUP2 MSTORE PUSH1 0x1A DUP3 MSTORE PUSH1 0x40 SWAP1 DUP2 SWAP1 KECCAK256 DUP5 SWAP1 SSTORE DUP1 MLOAD DUP5 DUP2 MSTORE PUSH1 0x1 SWAP3 DUP2 ADD SWAP3 SWAP1 SWAP3 MSTORE PUSH32 0x3279BDE246F2449036F4A5A85E935AE7CB08612C5645C2673490D2FD624683AE SWAP2 ADD PUSH1 0x40 MLOAD DUP1 SWAP2 SUB SWAP1 LOG1 POP SWAP4 SWAP3 POP POP POP JUMP JUMPDEST PUSH1 0x40 DUP1 MLOAD PUSH1 0x1 DUP1 DUP3 MSTORE DUP2 DUP4 ADD SWAP1 SWAP3 MSTORE PUSH1 0x0 SWAP2 PUSH1 0x20 DUP1 DUP4 ADD SWAP1 DUP1 CALLDATASIZE DUP4 CALLDATACOPY ADD SWAP1 POP POP SWAP1 POP DUP2 PUSH1 0x0 SHL DUP2 PUSH1 0x0 DUP2 MLOAD DUP2 LT PUSH2 0x17C9 JUMPI PUSH2 0x17C9 PUSH2 0x3258 JUMP JUMPDEST PUSH1 0x20 MUL PUSH1 0x20 ADD ADD DUP2 DUP2 MSTORE POP POP PUSH1 0x0 PUSH1 0x10 PUSH1 0x2 SLOAD PUSH1 0x3 DUP2 LT PUSH2 0x17EC JUMPI PUSH2 0x17EC PUSH2 0x3258 JUMP JUMPDEST ADD SLOAD PUSH1 0x1 PUSH1 0x1 PUSH1 0xA0 SHL SUB AND SWAP1 POP DUP1 PUSH2 0x1846 JUMPI PUSH1 0x40 MLOAD PUSH3 0x461BCD PUSH1 0xE5 SHL DUP2 MSTORE PUSH1 0x20 PUSH1 0x4 DUP3 ADD MSTORE PUSH1 0x1F PUSH1 0x24 DUP3 ADD MSTORE PUSH32 0x566572696669636174696F6E4B65794861736820697320696E76616C69642100 PUSH1 0x44 DUP3 ADD MSTORE PUSH1 0x64 ADD PUSH2 0xA8B JUMP JUMPDEST PUSH1 0x40 MLOAD PUSH4 0x3A943439 PUSH1 0xE2 SHL DUP2 MSTORE DUP2 SWAP1 PUSH1 0x0 SWAP1 PUSH1 0x1 PUSH1 0x1 PUSH1 0xA0 SHL SUB DUP4 AND SWAP1 PUSH4 0xEA50D0E4 SWAP1 PUSH2 0x187B SWAP1 DUP11 SWAP1 DUP11 SWAP1 DUP10 SWAP1 PUSH1 0x4 ADD PUSH2 0x34A2 JUMP JUMPDEST PUSH1 0x20 PUSH1 0x40 MLOAD DUP1 DUP4 SUB DUP2 DUP7 GAS STATICCALL ISZERO DUP1 ISZERO PUSH2 0x1898 JUMPI RETURNDATASIZE PUSH1 0x0 DUP1 RETURNDATACOPY RETURNDATASIZE PUSH1 0x0 REVERT JUMPDEST POP POP POP POP PUSH1 0x40 MLOAD RETURNDATASIZE PUSH1 0x1F NOT PUSH1 0x1F DUP3 ADD AND DUP3 ADD DUP1 PUSH1 0x40 MSTORE POP DUP2 ADD SWAP1 PUSH2 0x18BC SWAP2 SWAP1 PUSH2 0x3480 JUMP JUMPDEST SWAP1 POP DUP1 PUSH2 0x18FC JUMPI PUSH1 0x40 MLOAD PUSH3 0x461BCD PUSH1 0xE5 SHL DUP2 MSTORE PUSH1 0x20 PUSH1 0x4 DUP3 ADD MSTORE PUSH1 0xE PUSH1 0x24 DUP3 ADD MSTORE PUSH14 0x566572696679206661696C656421 PUSH1 0x90 SHL PUSH1 0x44 DUP3 ADD MSTORE PUSH1 0x64 ADD PUSH2 0xA8B JUMP JUMPDEST CALLER PUSH1 0x0 DUP2 DUP2 MSTORE PUSH1 0x41 PUSH1 0x20 SWAP1 DUP2 MSTORE PUSH1 0x40 DUP1 DUP4 KECCAK256 SLOAD DUP1 DUP5 MSTORE PUSH1 0x42 DUP4 MSTORE SWAP3 DUP2 SWAP1 KECCAK256 TIMESTAMP PUSH1 0x1 DUP3 ADD SSTORE PUSH1 0x4 ADD DUP10 SWAP1 SSTORE DUP1 MLOAD PUSH1 0x60 DUP2 ADD DUP3 MSTORE SWAP4 DUP5 MSTORE SWAP1 DUP4 ADD DUP9 SWAP1 MSTORE PUSH1 0x2 SLOAD SWAP1 DUP4 ADD MSTORE SWAP1 PUSH2 0x1948 SWAP1 PUSH2 0x269D JUMP JUMPDEST PUSH1 0x0 JUMPDEST PUSH1 0x3 DUP2 LT ISZERO PUSH2 0x1AA6 JUMPI PUSH1 0x0 PUSH1 0xC DUP3 PUSH1 0x3 DUP2 LT PUSH2 0x1969 JUMPI PUSH2 0x1969 PUSH2 0x3258 JUMP JUMPDEST PUSH1 0x4 SWAP2 DUP3 DUP3 DIV ADD SWAP2 SWAP1 MOD PUSH1 0x8 MUL SWAP1 SLOAD SWAP1 PUSH2 0x100 EXP SWAP1 DIV PUSH1 0x1 PUSH1 0x1 PUSH1 0x40 SHL SUB AND SWAP1 POP PUSH1 0x0 PUSH1 0x13 DUP4 PUSH1 0x3 DUP2 LT PUSH2 0x199F JUMPI PUSH2 0x199F PUSH2 0x3258 JUMP JUMPDEST ADD SLOAD PUSH1 0x2 SLOAD PUSH1 0x1 PUSH1 0x1 PUSH1 0xA0 SHL SUB SWAP1 SWAP2 AND SWAP2 POP PUSH1 0x1 PUSH1 0x1 PUSH1 0x40 SHL SUB DUP4 AND SWAP1 PUSH1 0xC SWAP1 PUSH1 0x3 DUP2 LT PUSH2 0x19CF JUMPI PUSH2 0x19CF PUSH2 0x3258 JUMP JUMPDEST PUSH1 0x4 SWAP2 DUP3 DUP3 DIV ADD SWAP2 SWAP1 MOD PUSH1 0x8 MUL SWAP1 SLOAD SWAP1 PUSH2 0x100 EXP SWAP1 DIV PUSH1 0x1 PUSH1 0x1 PUSH1 0x40 SHL SUB AND PUSH1 0x1 PUSH1 0x1 PUSH1 0x40 SHL SUB AND EQ ISZERO DUP1 ISZERO PUSH2 0x1A0D JUMPI POP PUSH1 0x1 PUSH1 0x1 PUSH1 0xA0 SHL SUB DUP2 AND ISZERO ISZERO JUMPDEST ISZERO PUSH2 0x1A91 JUMPI PUSH2 0x1A8F DUP3 DUP3 PUSH1 0x6 PUSH1 0x2 SLOAD PUSH1 0x3 DUP2 LT PUSH2 0x1A2C JUMPI PUSH2 0x1A2C PUSH2 0x3258 JUMP JUMPDEST ADD SLOAD PUSH1 0x2 SLOAD PUSH1 0x1 PUSH1 0x1 PUSH1 0xA0 SHL SUB SWAP1 SWAP2 AND SWAP1 PUSH1 0x3 SWAP1 DUP2 DUP2 LT PUSH2 0x1A4F JUMPI PUSH2 0x1A4F PUSH2 0x3258 JUMP JUMPDEST ADD PUSH1 0x0 SWAP1 SLOAD SWAP1 PUSH2 0x100 EXP SWAP1 DIV PUSH1 0x1 PUSH1 0x1 PUSH1 0xA0 SHL SUB AND PUSH1 0x40 MLOAD DUP1 PUSH1 0x60 ADD PUSH1 0x40 MSTORE DUP1 CALLER PUSH1 0x1 PUSH1 0x1 PUSH1 0xA0 SHL SUB AND DUP2 MSTORE PUSH1 0x20 ADD DUP16 DUP2 MSTORE PUSH1 0x20 ADD PUSH1 0x2 SLOAD DUP2 MSTORE POP PUSH2 0x2895 JUMP JUMPDEST POP JUMPDEST POP POP DUP1 DUP1 PUSH2 0x1A9E SWAP1 PUSH2 0x3284 JUMP JUMPDEST SWAP2 POP POP PUSH2 0x194B JUMP JUMPDEST POP PUSH1 0x0 DUP2 DUP2 MSTORE PUSH1 0x42 PUSH1 0x20 SWAP1 DUP2 MSTORE PUSH1 0x40 SWAP2 DUP3 SWAP1 KECCAK256 DUP1 SLOAD PUSH1 0x1 DUP3 ADD SLOAD PUSH1 0x2 DUP4 ADD SLOAD PUSH1 0x3 SWAP1 SWAP4 ADD SLOAD DUP6 MLOAD SWAP3 DUP4 MSTORE SWAP4 DUP3 ADD MSTORE PUSH1 0x1 PUSH1 0x1 PUSH1 0xA0 SHL SUB SWAP1 SWAP2 AND SWAP3 DUP2 ADD SWAP3 SWAP1 SWAP3 MSTORE PUSH1 0x60 DUP3 ADD DUP9 SWAP1 MSTORE PUSH1 0x80 DUP3 ADD MSTORE PUSH32 0x66286673E71E7C3A4012D09FBB56001733372C438DC9BA84CC4CA1EF2C84A2B0 SWAP1 PUSH1 0xA0 ADD PUSH1 0x40 MLOAD DUP1 SWAP2 SUB SWAP1 LOG1 POP POP POP POP POP POP POP POP JUMP JUMPDEST PUSH1 0x1C PUSH1 0x20 MSTORE DUP2 PUSH1 0x0 MSTORE PUSH1 0x40 PUSH1 0x0 KECCAK256 DUP2 DUP2 SLOAD DUP2 LT PUSH2 0x1B45 JUMPI PUSH1 0x0 DUP1 REVERT JUMPDEST SWAP1 PUSH1 0x0 MSTORE PUSH1 0x20 PUSH1 0x0 KECCAK256 ADD PUSH1 0x0 SWAP2 POP SWAP2 POP POP SLOAD DUP2 JUMP JUMPDEST PUSH1 0x22 DUP2 PUSH1 0xA DUP2 LT PUSH2 0x1B6A JUMPI PUSH1 0x0 DUP1 REVERT JUMPDEST ADD SLOAD SWAP1 POP DUP2 JUMP JUMPDEST PUSH1 0x13 DUP2 PUSH1 0x3 DUP2 LT PUSH2 0xAC4 JUMPI PUSH1 0x0 DUP1 REVERT JUMPDEST CALLER PUSH1 0x0 SWAP1 DUP2 MSTORE PUSH1 0x1C PUSH1 0x20 SWAP1 DUP2 MSTORE PUSH1 0x40 DUP1 DUP4 KECCAK256 DUP1 SLOAD DUP3 MLOAD DUP2 DUP6 MUL DUP2 ADD DUP6 ADD SWAP1 SWAP4 MSTORE DUP1 DUP4 MSTORE SWAP2 SWAP3 SWAP1 SWAP2 SWAP1 DUP4 ADD DUP3 DUP3 DUP1 ISZERO PUSH2 0x1BD8 JUMPI PUSH1 0x20 MUL DUP3 ADD SWAP2 SWAP1 PUSH1 0x0 MSTORE PUSH1 0x20 PUSH1 0x0 KECCAK256 SWAP1 JUMPDEST DUP2 SLOAD DUP2 MSTORE PUSH1 0x20 ADD SWAP1 PUSH1 0x1 ADD SWAP1 DUP1 DUP4 GT PUSH2 0x1BC4 JUMPI JUMPDEST POP POP POP POP POP SWAP1 POP PUSH1 0x0 DUP1 JUMPDEST DUP3 MLOAD DUP2 LT ISZERO PUSH2 0x1C23 JUMPI DUP4 DUP4 DUP3 DUP2 MLOAD DUP2 LT PUSH2 0x1BFF JUMPI PUSH2 0x1BFF PUSH2 0x3258 JUMP JUMPDEST PUSH1 0x20 MUL PUSH1 0x20 ADD ADD MLOAD SUB PUSH2 0x1C11 JUMPI PUSH1 0x1 SWAP2 POP JUMPDEST DUP1 PUSH2 0x1C1B DUP2 PUSH2 0x3284 JUMP JUMPDEST SWAP2 POP POP PUSH2 0x1BE3 JUMP JUMPDEST POP DUP1 DUP1 PUSH2 0x1C2E JUMPI POP DUP3 ISZERO JUMPDEST ISZERO PUSH2 0x1C63 JUMPI CALLER PUSH1 0x0 SWAP1 DUP2 MSTORE PUSH1 0x1D PUSH1 0x20 SWAP1 DUP2 MSTORE PUSH1 0x40 DUP1 DUP4 KECCAK256 DUP7 DUP5 MSTORE SWAP1 SWAP2 MSTORE DUP2 KECCAK256 DUP1 SLOAD SWAP2 PUSH2 0x1C59 DUP4 PUSH2 0x3284 JUMP JUMPDEST SWAP2 SWAP1 POP SSTORE POP POP POP POP JUMP JUMPDEST POP POP CALLER PUSH1 0x0 SWAP1 DUP2 MSTORE PUSH1 0x1C PUSH1 0x20 SWAP1 DUP2 MSTORE PUSH1 0x40 DUP3 KECCAK256 DUP1 SLOAD PUSH1 0x1 DUP2 ADD DUP3 SSTORE SWAP1 DUP4 MSTORE SWAP2 KECCAK256 ADD SSTORE JUMP JUMPDEST PUSH2 0x1C8F PUSH2 0x2D31 JUMP JUMPDEST PUSH2 0x1C97 PUSH2 0x2D31 JUMP JUMPDEST PUSH2 0x1C9F PUSH2 0x2D31 JUMP JUMPDEST PUSH1 0x40 DUP1 SLOAD DUP2 MLOAD PUSH2 0x140 DUP2 ADD SWAP3 DUP4 SWAP1 MSTORE PUSH1 0x0 SWAP3 PUSH1 0x22 SWAP3 PUSH1 0x36 SWAP3 PUSH1 0x2C SWAP3 DUP6 SWAP1 PUSH1 0xA SWAP1 DUP3 DUP5 JUMPDEST DUP2 SLOAD DUP2 MSTORE PUSH1 0x20 ADD SWAP1 PUSH1 0x1 ADD SWAP1 DUP1 DUP4 GT PUSH2 0x1CC2 JUMPI POP POP PUSH1 0x40 DUP1 MLOAD PUSH2 0x140 DUP2 ADD SWAP2 DUP3 SWAP1 MSTORE SWAP5 SWAP9 POP DUP8 SWAP4 POP PUSH1 0xA SWAP3 POP SWAP1 POP DUP3 DUP5 JUMPDEST DUP2 SLOAD DUP2 MSTORE PUSH1 0x20 ADD SWAP1 PUSH1 0x1 ADD SWAP1 DUP1 DUP4 GT PUSH2 0x1CF3 JUMPI POP POP PUSH1 0x40 DUP1 MLOAD PUSH2 0x140 DUP2 ADD SWAP2 DUP3 SWAP1 MSTORE SWAP5 SWAP8 POP DUP7 SWAP4 POP PUSH1 0xA SWAP3 POP SWAP1 POP DUP3 DUP5 JUMPDEST DUP2 SLOAD PUSH1 0x1 PUSH1 0x1 PUSH1 0xA0 SHL SUB AND DUP2 MSTORE PUSH1 0x1 SWAP1 SWAP2 ADD SWAP1 PUSH1 0x20 ADD DUP1 DUP4 GT PUSH2 0x1D24 JUMPI POP POP POP POP POP SWAP2 POP SWAP4 POP SWAP4 POP SWAP4 POP SWAP4 POP SWAP1 SWAP2 SWAP3 SWAP4 JUMP JUMPDEST PUSH1 0x2C DUP2 PUSH1 0xA DUP2 LT PUSH2 0xAC4 JUMPI PUSH1 0x0 DUP1 REVERT JUMPDEST PUSH1 0x1E PUSH1 0x20 MSTORE DUP2 PUSH1 0x0 MSTORE PUSH1 0x40 PUSH1 0x0 KECCAK256 DUP2 DUP2 SLOAD DUP2 LT PUSH2 0x1B45 JUMPI PUSH1 0x0 DUP1 REVERT JUMPDEST PUSH1 0x0 PUSH2 0x1D8E PUSH1 0x1 PUSH2 0x1E39 JUMP JUMPDEST SWAP1 POP DUP1 CALLVALUE LT ISZERO PUSH2 0x1DB0 JUMPI PUSH1 0x40 MLOAD PUSH3 0x461BCD PUSH1 0xE5 SHL DUP2 MSTORE PUSH1 0x4 ADD PUSH2 0xA8B SWAP1 PUSH2 0x3221 JUMP JUMPDEST PUSH1 0x2C SLOAD PUSH1 0x1 PUSH1 0x1 PUSH1 0xA0 SHL SUB AND SELFBALANCE DUP1 ISZERO DUP1 ISZERO SWAP1 PUSH2 0x1DD4 JUMPI POP PUSH1 0x1 PUSH1 0x1 PUSH1 0xA0 SHL SUB DUP3 AND ISZERO ISZERO JUMPDEST ISZERO PUSH2 0x1DE3 JUMPI PUSH2 0x1DE3 DUP3 DUP3 PUSH2 0x202D JUMP JUMPDEST PUSH1 0x43 DUP1 SLOAD CALLER PUSH1 0x0 DUP2 DUP2 MSTORE PUSH1 0x41 PUSH1 0x20 SWAP1 DUP2 MSTORE PUSH1 0x40 DUP1 DUP4 KECCAK256 DUP6 SWAP1 SSTORE SWAP4 DUP3 MSTORE PUSH1 0x42 SWAP1 MSTORE DUP3 DUP2 KECCAK256 TIMESTAMP SWAP1 SSTORE DUP4 SLOAD DUP2 MSTORE SWAP2 SWAP1 SWAP2 KECCAK256 PUSH1 0x2 ADD DUP1 SLOAD PUSH1 0x1 PUSH1 0x1 PUSH1 0xA0 SHL SUB NOT AND SWAP1 SWAP2 OR SWAP1 SSTORE SLOAD PUSH2 0x1E31 SWAP1 PUSH1 0x1 PUSH2 0x351B JUMP JUMPDEST PUSH1 0x43 SSTORE POP POP POP JUMP JUMPDEST PUSH1 0x0 DUP1 PUSH1 0xD PUSH1 0x2 SLOAD PUSH1 0x3 DUP2 LT PUSH2 0x1E51 JUMPI PUSH2 0x1E51 PUSH2 0x3258 JUMP JUMPDEST ADD PUSH1 0x0 SWAP1 SLOAD SWAP1 PUSH2 0x100 EXP SWAP1 DIV PUSH1 0x1 PUSH1 0x1 PUSH1 0xA0 SHL SUB AND PUSH1 0x1 PUSH1 0x1 PUSH1 0xA0 SHL SUB AND PUSH4 0xFEAF968C PUSH1 0x40 MLOAD DUP2 PUSH4 0xFFFFFFFF AND PUSH1 0xE0 SHL DUP2 MSTORE PUSH1 0x4 ADD PUSH1 0xA0 PUSH1 0x40 MLOAD DUP1 DUP4 SUB DUP2 DUP7 GAS STATICCALL ISZERO DUP1 ISZERO PUSH2 0x1EA3 JUMPI RETURNDATASIZE PUSH1 0x0 DUP1 RETURNDATACOPY RETURNDATASIZE PUSH1 0x0 REVERT JUMPDEST POP POP POP POP PUSH1 0x40 MLOAD RETURNDATASIZE PUSH1 0x1F NOT PUSH1 0x1F DUP3 ADD AND DUP3 ADD DUP1 PUSH1 0x40 MSTORE POP DUP2 ADD SWAP1 PUSH2 0x1EC7 SWAP2 SWAP1 PUSH2 0x3548 JUMP JUMPDEST POP POP POP SWAP2 POP POP DUP1 PUSH8 0xDE0B6B3A7640000 PUSH2 0x1EE1 SWAP2 SWAP1 PUSH2 0x35AE JUMP JUMPDEST PUSH2 0x1EEF SWAP1 PUSH4 0x5F5E100 PUSH2 0x35DC JUMP JUMPDEST PUSH2 0x1EF9 SWAP1 DUP5 PUSH2 0x360C JUMP JUMPDEST SWAP4 SWAP3 POP POP POP JUMP JUMPDEST PUSH1 0x36 DUP2 PUSH1 0xA DUP2 LT PUSH2 0x1B6A JUMPI PUSH1 0x0 DUP1 REVERT JUMPDEST PUSH1 0x6 DUP2 PUSH1 0x3 DUP2 LT PUSH2 0xAC4 JUMPI PUSH1 0x0 DUP1 REVERT JUMPDEST PUSH2 0x1F28 PUSH2 0x22E2 JUMP JUMPDEST PUSH2 0x1449 DUP2 PUSH2 0x2C1F JUMP JUMPDEST CALLER PUSH1 0x0 SWAP1 DUP2 MSTORE PUSH1 0x1E PUSH1 0x20 SWAP1 DUP2 MSTORE PUSH1 0x40 DUP1 DUP4 KECCAK256 DUP1 SLOAD DUP3 MLOAD DUP2 DUP6 MUL DUP2 ADD DUP6 ADD SWAP1 SWAP4 MSTORE DUP1 DUP4 MSTORE SWAP2 SWAP3 SWAP1 SWAP2 SWAP1 DUP4 ADD DUP3 DUP3 DUP1 ISZERO PUSH2 0x1F88 JUMPI PUSH1 0x20 MUL DUP3 ADD SWAP2 SWAP1 PUSH1 0x0 MSTORE PUSH1 0x20 PUSH1 0x0 KECCAK256 SWAP1 JUMPDEST DUP2 SLOAD DUP2 MSTORE PUSH1 0x20 ADD SWAP1 PUSH1 0x1 ADD SWAP1 DUP1 DUP4 GT PUSH2 0x1F74 JUMPI JUMPDEST POP POP POP POP POP SWAP1 POP PUSH1 0x0 DUP1 JUMPDEST DUP3 MLOAD DUP2 LT ISZERO PUSH2 0x1FD3 JUMPI DUP4 DUP4 DUP3 DUP2 MLOAD DUP2 LT PUSH2 0x1FAF JUMPI PUSH2 0x1FAF PUSH2 0x3258 JUMP JUMPDEST PUSH1 0x20 MUL PUSH1 0x20 ADD ADD MLOAD SUB PUSH2 0x1FC1 JUMPI PUSH1 0x1 SWAP2 POP JUMPDEST DUP1 PUSH2 0x1FCB DUP2 PUSH2 0x3284 JUMP JUMPDEST SWAP2 POP POP PUSH2 0x1F93 JUMP JUMPDEST POP DUP1 DUP1 PUSH2 0x1FDE JUMPI POP DUP3 ISZERO JUMPDEST ISZERO PUSH2 0x2009 JUMPI CALLER PUSH1 0x0 SWAP1 DUP2 MSTORE PUSH1 0x1F PUSH1 0x20 SWAP1 DUP2 MSTORE PUSH1 0x40 DUP1 DUP4 KECCAK256 DUP7 DUP5 MSTORE SWAP1 SWAP2 MSTORE DUP2 KECCAK256 DUP1 SLOAD SWAP2 PUSH2 0x1C59 DUP4 PUSH2 0x3284 JUMP JUMPDEST POP POP CALLER PUSH1 0x0 SWAP1 DUP2 MSTORE PUSH1 0x1E PUSH1 0x20 SWAP1 DUP2 MSTORE PUSH1 0x40 DUP3 KECCAK256 DUP1 SLOAD PUSH1 0x1 DUP2 ADD DUP3 SSTORE SWAP1 DUP4 MSTORE SWAP2 KECCAK256 ADD SSTORE JUMP JUMPDEST PUSH1 0x40 MLOAD PUSH1 0x1 PUSH1 0x1 PUSH1 0xA0 SHL SUB DUP4 AND SWAP1 DUP3 ISZERO PUSH2 0x8FC MUL SWAP1 DUP4 SWAP1 PUSH1 0x0 DUP2 DUP2 DUP2 DUP6 DUP9 DUP9 CALL SWAP4 POP POP POP POP ISZERO DUP1 ISZERO PUSH2 0xC3E JUMPI RETURNDATASIZE PUSH1 0x0 DUP1 RETURNDATACOPY RETURNDATASIZE PUSH1 0x0 REVERT JUMPDEST PUSH1 0x0 DUP2 MLOAD GT PUSH2 0x20AC JUMPI PUSH1 0x40 MLOAD PUSH3 0x461BCD PUSH1 0xE5 SHL DUP2 MSTORE PUSH1 0x20 PUSH1 0x4 DUP3 ADD MSTORE PUSH1 0x15 PUSH1 0x24 DUP3 ADD MSTORE PUSH21 0x1C985B991BDB55DBDC991CC81B9BDD08199BDD5B99 PUSH1 0x5A SHL PUSH1 0x44 DUP3 ADD MSTORE PUSH1 0x64 ADD PUSH2 0xA8B JUMP JUMPDEST PUSH1 0x0 DUP3 DUP2 MSTORE PUSH1 0x1B PUSH1 0x20 MSTORE PUSH1 0x40 SWAP1 KECCAK256 PUSH1 0x1 ADD SLOAD PUSH2 0x20FE JUMPI PUSH1 0x40 MLOAD PUSH3 0x461BCD PUSH1 0xE5 SHL DUP2 MSTORE PUSH1 0x20 PUSH1 0x4 DUP3 ADD MSTORE PUSH1 0x11 PUSH1 0x24 DUP3 ADD MSTORE PUSH17 0x1C995C5D595CDD081B9BDD08199BDD5B99 PUSH1 0x7A SHL PUSH1 0x44 DUP3 ADD MSTORE PUSH1 0x64 ADD PUSH2 0xA8B JUMP JUMPDEST PUSH1 0x0 PUSH1 0x19 DUP1 SLOAD SWAP1 POP DUP3 PUSH1 0x0 DUP2 MLOAD DUP2 LT PUSH2 0x2119 JUMPI PUSH2 0x2119 PUSH2 0x3258 JUMP JUMPDEST PUSH1 0x20 MUL PUSH1 0x20 ADD ADD MLOAD PUSH2 0x212B SWAP2 SWAP1 PUSH2 0x3623 JUMP JUMPDEST SWAP1 POP PUSH1 0x0 PUSH1 0x19 DUP3 DUP2 SLOAD DUP2 LT PUSH2 0x2142 JUMPI PUSH2 0x2142 PUSH2 0x3258 JUMP JUMPDEST PUSH1 0x0 SWAP2 DUP3 MSTORE PUSH1 0x20 DUP1 DUP4 KECCAK256 PUSH1 0x40 DUP1 MLOAD DUP1 DUP3 ADD DUP3 MSTORE PUSH1 0x2 SWAP5 DUP6 MUL SWAP1 SWAP3 ADD DUP1 SLOAD DUP4 MSTORE PUSH1 0x1 SWAP1 DUP2 ADD SLOAD DUP4 DUP6 ADD MSTORE DUP10 DUP7 MSTORE PUSH1 0x1B DUP5 MSTORE SWAP5 KECCAK256 SWAP3 DUP4 ADD DUP1 SLOAD PUSH1 0xFF NOT AND SWAP1 SWAP5 OR SWAP1 SWAP4 SSTORE DUP6 MLOAD SWAP3 SWAP4 POP PUSH2 0x219B SWAP3 PUSH1 0x3 SWAP1 SWAP3 ADD SWAP2 SWAP1 DUP7 ADD SWAP1 PUSH2 0x2CE6 JUMP JUMPDEST POP PUSH1 0x0 DUP5 DUP2 MSTORE PUSH1 0x1B PUSH1 0x20 SWAP1 DUP2 MSTORE PUSH1 0x40 DUP3 KECCAK256 DUP4 MLOAD PUSH1 0x4 DUP3 ADD DUP2 SWAP1 SSTORE SWAP2 DUP5 ADD MLOAD PUSH1 0x5 DUP3 ADD SSTORE SLOAD PUSH1 0x1 PUSH1 0x1 PUSH1 0xA0 SHL SUB AND SWAP2 SUB PUSH2 0x2206 JUMPI PUSH1 0x20 DUP1 DUP4 ADD MLOAD PUSH1 0x1 PUSH1 0x1 PUSH1 0xA0 SHL SUB DUP4 AND PUSH1 0x0 SWAP1 DUP2 MSTORE SWAP2 DUP1 MSTORE PUSH1 0x40 DUP3 KECCAK256 DUP1 SLOAD SWAP2 SWAP3 SWAP1 SWAP2 PUSH2 0x21FB SWAP1 DUP5 SWAP1 PUSH2 0x351B JUMP JUMPDEST SWAP1 SWAP2 SSTORE POP PUSH2 0x228C SWAP1 POP JUMP JUMPDEST DUP2 MLOAD PUSH1 0x1 SUB PUSH2 0x2248 JUMPI DUP2 PUSH1 0x20 ADD MLOAD PUSH1 0x21 PUSH1 0x0 DUP4 PUSH1 0x1 PUSH1 0x1 PUSH1 0xA0 SHL SUB AND PUSH1 0x1 PUSH1 0x1 PUSH1 0xA0 SHL SUB AND DUP2 MSTORE PUSH1 0x20 ADD SWAP1 DUP2 MSTORE PUSH1 0x20 ADD PUSH1 0x0 KECCAK256 PUSH1 0x0 DUP3 DUP3 SLOAD PUSH2 0x21FB SWAP2 SWAP1 PUSH2 0x351B JUMP JUMPDEST DUP2 MLOAD PUSH1 0x2 EQ PUSH2 0x228C JUMPI DUP2 MLOAD PUSH1 0x3 SUB PUSH2 0x228C JUMPI PUSH1 0x1 PUSH1 0x1 PUSH1 0xA0 SHL SUB DUP2 AND PUSH1 0x0 SWAP1 DUP2 MSTORE PUSH1 0x1C PUSH1 0x20 SWAP1 DUP2 MSTORE PUSH1 0x40 DUP3 KECCAK256 DUP5 DUP3 ADD MLOAD DUP2 SLOAD PUSH1 0x1 DUP2 ADD DUP4 SSTORE SWAP2 DUP5 MSTORE SWAP2 SWAP1 SWAP3 KECCAK256 SWAP1 SWAP2 ADD SSTORE JUMPDEST PUSH1 0x0 DUP6 DUP2 MSTORE PUSH1 0x1B PUSH1 0x20 MSTORE PUSH1 0x40 SWAP1 DUP2 SWAP1 KECCAK256 PUSH1 0x1 ADD SLOAD SWAP1 MLOAD PUSH32 0x8C5EB6455FC6D271F045DB3F6049931E0B5372962417D81DCC38FC0BEBE8D141 SWAP2 PUSH2 0x22D3 SWAP2 DUP9 SWAP2 DUP9 SWAP2 DUP8 SWAP1 PUSH2 0x3637 JUMP JUMPDEST PUSH1 0x40 MLOAD DUP1 SWAP2 SUB SWAP1 LOG1 POP POP POP POP POP JUMP JUMPDEST PUSH1 0x0 SLOAD PUSH1 0x1 PUSH1 0x1 PUSH1 0xA0 SHL SUB AND CALLER EQ PUSH2 0x2335 JUMPI PUSH1 0x40 MLOAD PUSH3 0x461BCD PUSH1 0xE5 SHL DUP2 MSTORE PUSH1 0x20 PUSH1 0x4 DUP3 ADD MSTORE PUSH1 0x16 PUSH1 0x24 DUP3 ADD MSTORE PUSH22 0x27B7363C9031B0B63630B1363290313C9037BBB732B9 PUSH1 0x51 SHL PUSH1 0x44 DUP3 ADD MSTORE PUSH1 0x64 ADD PUSH2 0xA8B JUMP JUMPDEST JUMP JUMPDEST DUP1 PUSH1 0x60 ADD MLOAD DUP1 PUSH1 0x20 ADD SWAP1 MLOAD DUP2 ADD SWAP1 PUSH2 0x234F SWAP2 SWAP1 PUSH2 0x366F JUMP JUMPDEST DUP1 MLOAD PUSH1 0x16 DUP1 SLOAD PUSH1 0x1 PUSH1 0x1 PUSH1 0xA0 SHL SUB NOT AND PUSH1 0x1 PUSH1 0x1 PUSH1 0xA0 SHL SUB SWAP1 SWAP3 AND SWAP2 DUP3 OR SWAP1 SSTORE PUSH1 0x20 DUP1 DUP4 ADD MLOAD PUSH1 0x17 DUP2 SWAP1 SSTORE PUSH1 0x40 SWAP4 DUP5 ADD MLOAD PUSH1 0x18 DUP2 SWAP1 SSTORE DUP5 MLOAD PUSH1 0x60 DUP2 ADD DUP7 MSTORE SWAP4 DUP5 MSTORE SWAP2 DUP4 ADD MSTORE SWAP2 DUP2 ADD SWAP2 SWAP1 SWAP2 MSTORE PUSH2 0x23A4 SWAP1 PUSH2 0x269D JUMP JUMPDEST DUP1 PUSH1 0x20 ADD MLOAD PUSH1 0x1 PUSH1 0x1 PUSH1 0x40 SHL SUB AND DUP2 PUSH1 0x0 ADD MLOAD PUSH32 0xAA5CBDCF4F25939D41BE3032075952CFD5F51F978A501D2F801D671061623F1D DUP4 PUSH1 0x40 ADD MLOAD DUP1 PUSH1 0x20 ADD SWAP1 MLOAD DUP2 ADD SWAP1 PUSH2 0x23F0 SWAP2 SWAP1 PUSH2 0x36D0 JUMP JUMPDEST PUSH1 0x40 DUP1 MLOAD PUSH1 0x1 PUSH1 0x1 PUSH1 0xA0 SHL SUB SWAP3 DUP4 AND DUP2 MSTORE PUSH1 0x16 SLOAD SWAP1 SWAP3 AND PUSH1 0x20 DUP4 ADD MSTORE PUSH1 0x17 SLOAD SWAP1 DUP3 ADD MSTORE PUSH1 0x18 SLOAD PUSH1 0x60 DUP3 ADD MSTORE PUSH1 0x80 ADD PUSH1 0x40 MLOAD DUP1 SWAP2 SUB SWAP1 LOG3 POP JUMP JUMPDEST PUSH1 0x60 PUSH32 0x92FD13387C7FE7BEFBC38D303D6468778FB9731BC4583F17D92989C6FCFDEAAA DUP3 PUSH1 0x40 MLOAD PUSH1 0x24 ADD PUSH2 0x2462 SWAP2 MLOAD ISZERO ISZERO DUP2 MSTORE PUSH1 0x20 ADD SWAP1 JUMP JUMPDEST PUSH1 0x40 DUP1 MLOAD PUSH1 0x1F NOT DUP2 DUP5 SUB ADD DUP2 MSTORE SWAP2 SWAP1 MSTORE PUSH1 0x20 DUP2 ADD DUP1 MLOAD PUSH1 0x1 PUSH1 0x1 PUSH1 0xE0 SHL SUB AND PUSH1 0x1 PUSH1 0x1 PUSH1 0xE0 SHL SUB NOT SWAP1 SWAP4 AND SWAP3 SWAP1 SWAP3 OR SWAP1 SWAP2 MSTORE SWAP3 SWAP2 POP POP JUMP JUMPDEST PUSH1 0x40 MLOAD PUSH4 0x13F2E285 PUSH1 0xE1 SHL DUP2 MSTORE PUSH4 0xFFFFFFFF DUP1 DUP7 AND PUSH1 0x4 DUP4 ADD MSTORE DUP4 AND PUSH1 0x24 DUP3 ADD MSTORE PUSH1 0x0 SWAP1 DUP2 SWAP1 PUSH1 0x1 PUSH1 0x1 PUSH1 0xA0 SHL SUB PUSH32 0x0 AND SWAP1 PUSH4 0x27E5C50A SWAP1 PUSH1 0x44 ADD PUSH1 0x20 PUSH1 0x40 MLOAD DUP1 DUP4 SUB DUP2 DUP7 GAS STATICCALL ISZERO DUP1 ISZERO PUSH2 0x2511 JUMPI RETURNDATASIZE PUSH1 0x0 DUP1 RETURNDATACOPY RETURNDATASIZE PUSH1 0x0 REVERT JUMPDEST POP POP POP POP PUSH1 0x40 MLOAD RETURNDATASIZE PUSH1 0x1F NOT PUSH1 0x1F DUP3 ADD AND DUP3 ADD DUP1 PUSH1 0x40 MSTORE POP DUP2 ADD SWAP1 PUSH2 0x2535 SWAP2 SWAP1 PUSH2 0x3467 JUMP JUMPDEST SWAP1 POP PUSH32 0x0 PUSH1 0x1 PUSH1 0x1 PUSH1 0xA0 SHL SUB AND PUSH4 0x4000AEA0 PUSH32 0x0 DUP4 DUP10 DUP10 DUP10 DUP10 PUSH1 0x40 MLOAD PUSH1 0x20 ADD PUSH2 0x259F SWAP5 SWAP4 SWAP3 SWAP2 SWAP1 PUSH2 0x3733 JUMP JUMPDEST PUSH1 0x40 MLOAD PUSH1 0x20 DUP2 DUP4 SUB SUB DUP2 MSTORE SWAP1 PUSH1 0x40 MSTORE PUSH1 0x40 MLOAD DUP5 PUSH4 0xFFFFFFFF AND PUSH1 0xE0 SHL DUP2 MSTORE PUSH1 0x4 ADD PUSH2 0x25CC SWAP4 SWAP3 SWAP2 SWAP1 PUSH2 0x3770 JUMP JUMPDEST PUSH1 0x20 PUSH1 0x40 MLOAD DUP1 DUP4 SUB DUP2 PUSH1 0x0 DUP8 GAS CALL ISZERO DUP1 ISZERO PUSH2 0x25EB JUMPI RETURNDATASIZE PUSH1 0x0 DUP1 RETURNDATACOPY RETURNDATASIZE PUSH1 0x0 REVERT JUMPDEST POP POP POP POP PUSH1 0x40 MLOAD RETURNDATASIZE PUSH1 0x1F NOT PUSH1 0x1F DUP3 ADD AND DUP3 ADD DUP1 PUSH1 0x40 MSTORE POP DUP2 ADD SWAP1 PUSH2 0x260F SWAP2 SWAP1 PUSH2 0x3480 JUMP JUMPDEST POP PUSH32 0x0 PUSH1 0x1 PUSH1 0x1 PUSH1 0xA0 SHL SUB AND PUSH4 0xFC2A88C3 PUSH1 0x40 MLOAD DUP2 PUSH4 0xFFFFFFFF AND PUSH1 0xE0 SHL DUP2 MSTORE PUSH1 0x4 ADD PUSH1 0x20 PUSH1 0x40 MLOAD DUP1 DUP4 SUB DUP2 DUP7 GAS STATICCALL ISZERO DUP1 ISZERO PUSH2 0x266E JUMPI RETURNDATASIZE PUSH1 0x0 DUP1 RETURNDATACOPY RETURNDATASIZE PUSH1 0x0 REVERT JUMPDEST POP POP POP POP PUSH1 0x40 MLOAD RETURNDATASIZE PUSH1 0x1F NOT PUSH1 0x1F DUP3 ADD AND DUP3 ADD DUP1 PUSH1 0x40 MSTORE POP DUP2 ADD SWAP1 PUSH2 0x2692 SWAP2 SWAP1 PUSH2 0x3467 JUMP JUMPDEST SWAP2 POP SWAP5 POP SWAP5 SWAP3 POP POP POP JUMP JUMPDEST PUSH1 0x20 DUP2 ADD MLOAD DUP2 MLOAD PUSH1 0x40 DUP4 ADD MLOAD DUP3 PUSH1 0x22 PUSH2 0x26B8 PUSH1 0x1 PUSH1 0xA PUSH2 0x3797 JUMP JUMPDEST PUSH1 0xA DUP2 LT PUSH2 0x26C8 JUMPI PUSH2 0x26C8 PUSH2 0x3258 JUMP JUMPDEST ADD SLOAD LT ISZERO PUSH2 0x288B JUMPI PUSH1 0x0 DUP1 PUSH2 0x26DF PUSH1 0x1 PUSH1 0xA PUSH2 0x3797 JUMP JUMPDEST SWAP1 POP PUSH1 0x0 JUMPDEST DUP2 DUP4 LT ISZERO PUSH2 0x273A JUMPI PUSH1 0x2 PUSH2 0x26F8 DUP4 DUP6 PUSH2 0x351B JUMP JUMPDEST PUSH2 0x2702 SWAP2 SWAP1 PUSH2 0x37AA JUMP JUMPDEST SWAP1 POP DUP6 PUSH1 0x22 DUP3 PUSH1 0xA DUP2 LT PUSH2 0x2718 JUMPI PUSH2 0x2718 PUSH2 0x3258 JUMP JUMPDEST ADD SLOAD LT ISZERO PUSH2 0x2728 JUMPI DUP1 SWAP2 POP PUSH2 0x26E4 JUMP JUMPDEST PUSH2 0x2733 DUP2 PUSH1 0x1 PUSH2 0x351B JUMP JUMPDEST SWAP3 POP PUSH2 0x26E4 JUMP JUMPDEST PUSH1 0x0 PUSH2 0x2748 PUSH1 0x1 PUSH1 0xA PUSH2 0x3797 JUMP JUMPDEST SWAP1 POP JUMPDEST DUP4 DUP2 GT ISZERO PUSH2 0x2827 JUMPI PUSH1 0x22 PUSH2 0x2760 PUSH1 0x1 DUP4 PUSH2 0x3797 JUMP JUMPDEST PUSH1 0xA DUP2 LT PUSH2 0x2770 JUMPI PUSH2 0x2770 PUSH2 0x3258 JUMP JUMPDEST ADD SLOAD PUSH1 0x22 DUP3 PUSH1 0xA DUP2 LT PUSH2 0x2785 JUMPI PUSH2 0x2785 PUSH2 0x3258 JUMP JUMPDEST ADD SSTORE PUSH1 0x2C PUSH2 0x2794 PUSH1 0x1 DUP4 PUSH2 0x3797 JUMP JUMPDEST PUSH1 0xA DUP2 LT PUSH2 0x27A4 JUMPI PUSH2 0x27A4 PUSH2 0x3258 JUMP JUMPDEST ADD SLOAD PUSH1 0x1 PUSH1 0x1 PUSH1 0xA0 SHL SUB AND PUSH1 0x2C DUP3 PUSH1 0xA DUP2 LT PUSH2 0x27C2 JUMPI PUSH2 0x27C2 PUSH2 0x3258 JUMP JUMPDEST ADD DUP1 SLOAD PUSH1 0x1 PUSH1 0x1 PUSH1 0xA0 SHL SUB NOT AND PUSH1 0x1 PUSH1 0x1 PUSH1 0xA0 SHL SUB SWAP3 SWAP1 SWAP3 AND SWAP2 SWAP1 SWAP2 OR SWAP1 SSTORE PUSH1 0x36 PUSH2 0x27EE PUSH1 0x1 DUP4 PUSH2 0x3797 JUMP JUMPDEST PUSH1 0xA DUP2 LT PUSH2 0x27FE JUMPI PUSH2 0x27FE PUSH2 0x3258 JUMP JUMPDEST ADD SLOAD PUSH1 0x36 DUP3 PUSH1 0xA DUP2 LT PUSH2 0x2813 JUMPI PUSH2 0x2813 PUSH2 0x3258 JUMP JUMPDEST ADD SSTORE DUP1 PUSH2 0x281F DUP2 PUSH2 0x37BE JUMP JUMPDEST SWAP2 POP POP PUSH2 0x274B JUMP JUMPDEST POP DUP6 PUSH1 0x22 DUP5 PUSH1 0xA DUP2 LT PUSH2 0x283C JUMPI PUSH2 0x283C PUSH2 0x3258 JUMP JUMPDEST ADD SSTORE DUP5 PUSH1 0x2C DUP5 PUSH1 0xA DUP2 LT PUSH2 0x2852 JUMPI PUSH2 0x2852 PUSH2 0x3258 JUMP JUMPDEST ADD DUP1 SLOAD PUSH1 0x1 PUSH1 0x1 PUSH1 0xA0 SHL SUB NOT AND PUSH1 0x1 PUSH1 0x1 PUSH1 0xA0 SHL SUB SWAP3 SWAP1 SWAP3 AND SWAP2 SWAP1 SWAP2 OR SWAP1 SSTORE DUP4 PUSH1 0x36 DUP5 PUSH1 0xA DUP2 LT PUSH2 0x2885 JUMPI PUSH2 0x2885 PUSH2 0x3258 JUMP JUMPDEST ADD SSTORE POP POP POP JUMPDEST POP POP TIMESTAMP PUSH1 0x40 SSTORE POP POP JUMP JUMPDEST PUSH1 0x40 DUP1 MLOAD PUSH1 0xA0 DUP2 ADD SWAP1 SWAP2 MSTORE PUSH1 0x1 PUSH1 0x1 PUSH1 0xA0 SHL SUB DUP6 AND PUSH1 0xC0 DUP3 ADD MSTORE PUSH1 0x0 SWAP1 DUP5 SWAP1 DUP5 SWAP1 DUP4 SWAP1 DUP1 PUSH1 0xE0 DUP2 ADD PUSH1 0x40 MLOAD PUSH1 0x20 DUP2 DUP4 SUB SUB DUP2 MSTORE SWAP1 PUSH1 0x40 MSTORE DUP2 MSTORE PUSH1 0x20 ADD DUP7 PUSH1 0x40 MLOAD PUSH1 0x20 ADD PUSH2 0x28E2 SWAP2 SWAP1 PUSH2 0x37D5 JUMP JUMPDEST PUSH1 0x40 DUP1 MLOAD PUSH1 0x1F NOT DUP2 DUP5 SUB ADD DUP2 MSTORE SWAP2 SWAP1 MSTORE DUP2 MSTORE PUSH1 0x20 ADD PUSH1 0x0 PUSH1 0x40 MLOAD SWAP1 DUP1 DUP3 MSTORE DUP1 PUSH1 0x20 MUL PUSH1 0x20 ADD DUP3 ADD PUSH1 0x40 MSTORE DUP1 ISZERO PUSH2 0x293E JUMPI DUP2 PUSH1 0x20 ADD JUMPDEST PUSH1 0x40 DUP1 MLOAD DUP1 DUP3 ADD SWAP1 SWAP2 MSTORE PUSH1 0x0 DUP1 DUP3 MSTORE PUSH1 0x20 DUP3 ADD MSTORE DUP2 MSTORE PUSH1 0x20 ADD SWAP1 PUSH1 0x1 SWAP1 SUB SWAP1 DUP2 PUSH2 0x2917 JUMPI SWAP1 POP JUMPDEST POP DUP2 MSTORE PUSH1 0x20 ADD DUP9 PUSH1 0x1 PUSH1 0x1 PUSH1 0xA0 SHL SUB AND DUP2 MSTORE PUSH1 0x20 ADD PUSH2 0x296D PUSH1 0x40 MLOAD DUP1 PUSH1 0x20 ADD PUSH1 0x40 MSTORE DUP1 PUSH3 0x30D40 DUP2 MSTORE POP PUSH2 0x2CC8 JUMP JUMPDEST SWAP1 MSTORE PUSH1 0x40 MLOAD PUSH4 0x20487DED PUSH1 0xE0 SHL DUP2 MSTORE SWAP1 SWAP2 POP PUSH1 0x0 SWAP1 PUSH1 0x1 PUSH1 0x1 PUSH1 0xA0 SHL SUB DUP5 AND SWAP1 PUSH4 0x20487DED SWAP1 PUSH2 0x29A3 SWAP1 DUP14 SWAP1 DUP7 SWAP1 PUSH1 0x4 ADD PUSH2 0x37FF JUMP JUMPDEST PUSH1 0x20 PUSH1 0x40 MLOAD DUP1 DUP4 SUB DUP2 DUP7 GAS STATICCALL ISZERO DUP1 ISZERO PUSH2 0x29C0 JUMPI RETURNDATASIZE PUSH1 0x0 DUP1 RETURNDATACOPY RETURNDATASIZE PUSH1 0x0 REVERT JUMPDEST POP POP POP POP PUSH1 0x40 MLOAD RETURNDATASIZE PUSH1 0x1F NOT PUSH1 0x1F DUP3 ADD AND DUP3 ADD DUP1 PUSH1 0x40 MSTORE POP DUP2 ADD SWAP1 PUSH2 0x29E4 SWAP2 SWAP1 PUSH2 0x3467 JUMP JUMPDEST PUSH1 0x40 MLOAD PUSH4 0x70A08231 PUSH1 0xE0 SHL DUP2 MSTORE ADDRESS PUSH1 0x4 DUP3 ADD MSTORE SWAP1 SWAP2 POP PUSH1 0x1 PUSH1 0x1 PUSH1 0xA0 SHL SUB DUP6 AND SWAP1 PUSH4 0x70A08231 SWAP1 PUSH1 0x24 ADD PUSH1 0x20 PUSH1 0x40 MLOAD DUP1 DUP4 SUB DUP2 DUP7 GAS STATICCALL ISZERO DUP1 ISZERO PUSH2 0x2A2B JUMPI RETURNDATASIZE PUSH1 0x0 DUP1 RETURNDATACOPY RETURNDATASIZE PUSH1 0x0 REVERT JUMPDEST POP POP POP POP PUSH1 0x40 MLOAD RETURNDATASIZE PUSH1 0x1F NOT PUSH1 0x1F DUP3 ADD AND DUP3 ADD DUP1 PUSH1 0x40 MSTORE POP DUP2 ADD SWAP1 PUSH2 0x2A4F SWAP2 SWAP1 PUSH2 0x3467 JUMP JUMPDEST DUP2 GT ISZERO PUSH2 0x2AE2 JUMPI PUSH1 0x40 MLOAD PUSH4 0x70A08231 PUSH1 0xE0 SHL DUP2 MSTORE ADDRESS PUSH1 0x4 DUP3 ADD MSTORE PUSH1 0x1 PUSH1 0x1 PUSH1 0xA0 SHL SUB DUP6 AND SWAP1 PUSH4 0x70A08231 SWAP1 PUSH1 0x24 ADD PUSH1 0x20 PUSH1 0x40 MLOAD DUP1 DUP4 SUB DUP2 DUP7 GAS STATICCALL ISZERO DUP1 ISZERO PUSH2 0x2A9A JUMPI RETURNDATASIZE PUSH1 0x0 DUP1 RETURNDATACOPY RETURNDATASIZE PUSH1 0x0 REVERT JUMPDEST POP POP POP POP PUSH1 0x40 MLOAD RETURNDATASIZE PUSH1 0x1F NOT PUSH1 0x1F DUP3 ADD AND DUP3 ADD DUP1 PUSH1 0x40 MSTORE POP DUP2 ADD SWAP1 PUSH2 0x2ABE SWAP2 SWAP1 PUSH2 0x3467 JUMP JUMPDEST PUSH1 0x40 MLOAD PUSH4 0x4787A103 PUSH1 0xE1 SHL DUP2 MSTORE PUSH1 0x4 DUP2 ADD SWAP2 SWAP1 SWAP2 MSTORE PUSH1 0x24 DUP2 ADD DUP3 SWAP1 MSTORE PUSH1 0x44 ADD PUSH2 0xA8B JUMP JUMPDEST PUSH1 0x40 MLOAD PUSH4 0x95EA7B3 PUSH1 0xE0 SHL DUP2 MSTORE PUSH1 0x1 PUSH1 0x1 PUSH1 0xA0 SHL SUB DUP5 DUP2 AND PUSH1 0x4 DUP4 ADD MSTORE PUSH1 0x24 DUP3 ADD DUP4 SWAP1 MSTORE DUP6 AND SWAP1 PUSH4 0x95EA7B3 SWAP1 PUSH1 0x44 ADD PUSH1 0x20 PUSH1 0x40 MLOAD DUP1 DUP4 SUB DUP2 PUSH1 0x0 DUP8 GAS CALL ISZERO DUP1 ISZERO PUSH2 0x2B31 JUMPI RETURNDATASIZE PUSH1 0x0 DUP1 RETURNDATACOPY RETURNDATASIZE PUSH1 0x0 REVERT JUMPDEST POP POP POP POP PUSH1 0x40 MLOAD RETURNDATASIZE PUSH1 0x1F NOT PUSH1 0x1F DUP3 ADD AND DUP3 ADD DUP1 PUSH1 0x40 MSTORE POP DUP2 ADD SWAP1 PUSH2 0x2B55 SWAP2 SWAP1 PUSH2 0x3480 JUMP JUMPDEST POP PUSH1 0x40 MLOAD PUSH4 0x96F4E9F9 PUSH1 0xE0 SHL DUP2 MSTORE PUSH1 0x1 PUSH1 0x1 PUSH1 0xA0 SHL SUB DUP5 AND SWAP1 PUSH4 0x96F4E9F9 SWAP1 PUSH2 0x2B84 SWAP1 DUP14 SWAP1 DUP7 SWAP1 PUSH1 0x4 ADD PUSH2 0x37FF JUMP JUMPDEST PUSH1 0x20 PUSH1 0x40 MLOAD DUP1 DUP4 SUB DUP2 PUSH1 0x0 DUP8 GAS CALL ISZERO DUP1 ISZERO PUSH2 0x2BA3 JUMPI RETURNDATASIZE PUSH1 0x0 DUP1 RETURNDATACOPY RETURNDATASIZE PUSH1 0x0 REVERT JUMPDEST POP POP POP POP PUSH1 0x40 MLOAD RETURNDATASIZE PUSH1 0x1F NOT PUSH1 0x1F DUP3 ADD AND DUP3 ADD DUP1 PUSH1 0x40 MSTORE POP DUP2 ADD SWAP1 PUSH2 0x2BC7 SWAP2 SWAP1 PUSH2 0x3467 JUMP JUMPDEST SWAP5 POP DUP10 PUSH1 0x1 PUSH1 0x1 PUSH1 0x40 SHL SUB AND DUP6 PUSH32 0xD0D85F1CC5AB17F712B6074D702EDD6281031E603C5CF76890A85B1170045B3A DUP12 DUP10 DUP13 DUP7 PUSH1 0x40 MLOAD PUSH2 0x2C09 SWAP5 SWAP4 SWAP3 SWAP2 SWAP1 PUSH2 0x38D8 JUMP JUMPDEST PUSH1 0x40 MLOAD DUP1 SWAP2 SUB SWAP1 LOG3 POP POP POP POP JUMPDEST SWAP6 SWAP5 POP POP POP POP POP JUMP JUMPDEST CALLER PUSH1 0x1 PUSH1 0x1 PUSH1 0xA0 SHL SUB DUP3 AND SUB PUSH2 0x2C77 JUMPI PUSH1 0x40 MLOAD PUSH3 0x461BCD PUSH1 0xE5 SHL DUP2 MSTORE PUSH1 0x20 PUSH1 0x4 DUP3 ADD MSTORE PUSH1 0x17 PUSH1 0x24 DUP3 ADD MSTORE PUSH32 0x43616E6E6F74207472616E7366657220746F2073656C66000000000000000000 PUSH1 0x44 DUP3 ADD MSTORE PUSH1 0x64 ADD PUSH2 0xA8B JUMP JUMPDEST PUSH1 0x1 DUP1 SLOAD PUSH1 0x1 PUSH1 0x1 PUSH1 0xA0 SHL SUB NOT AND PUSH1 0x1 PUSH1 0x1 PUSH1 0xA0 SHL SUB DUP4 DUP2 AND SWAP2 DUP3 OR SWAP1 SWAP3 SSTORE PUSH1 0x0 DUP1 SLOAD PUSH1 0x40 MLOAD SWAP3 SWAP4 AND SWAP2 PUSH32 0xED8889F560326EB138920D842192F0EB3DD22B4F139C87A2C57538E05BAE1278 SWAP2 SWAP1 LOG3 POP JUMP JUMPDEST PUSH1 0x40 MLOAD DUP2 MLOAD PUSH1 0x24 DUP3 ADD MSTORE PUSH1 0x60 SWAP1 PUSH4 0x97A657C9 PUSH1 0xE0 SHL SWAP1 PUSH1 0x44 ADD PUSH2 0x2462 JUMP JUMPDEST DUP3 DUP1 SLOAD DUP3 DUP3 SSTORE SWAP1 PUSH1 0x0 MSTORE PUSH1 0x20 PUSH1 0x0 KECCAK256 SWAP1 DUP2 ADD SWAP3 DUP3 ISZERO PUSH2 0x2D21 JUMPI SWAP2 PUSH1 0x20 MUL DUP3 ADD JUMPDEST DUP3 DUP2 GT ISZERO PUSH2 0x2D21 JUMPI DUP3 MLOAD DUP3 SSTORE SWAP2 PUSH1 0x20 ADD SWAP2 SWAP1 PUSH1 0x1 ADD SWAP1 PUSH2 0x2D06 JUMP JUMPDEST POP PUSH2 0x2D2D SWAP3 SWAP2 POP PUSH2 0x2D50 JUMP JUMPDEST POP SWAP1 JUMP JUMPDEST PUSH1 0x40 MLOAD DUP1 PUSH2 0x140 ADD PUSH1 0x40 MSTORE DUP1 PUSH1 0xA SWAP1 PUSH1 0x20 DUP3 MUL DUP1 CALLDATASIZE DUP4 CALLDATACOPY POP SWAP2 SWAP3 SWAP2 POP POP JUMP JUMPDEST JUMPDEST DUP1 DUP3 GT ISZERO PUSH2 0x2D2D JUMPI PUSH1 0x0 DUP2 SSTORE PUSH1 0x1 ADD PUSH2 0x2D51 JUMP JUMPDEST PUSH1 0x0 PUSH1 0x20 DUP3 DUP5 SUB SLT ISZERO PUSH2 0x2D77 JUMPI PUSH1 0x0 DUP1 REVERT JUMPDEST DUP2 CALLDATALOAD PUSH1 0x1 PUSH1 0x1 PUSH1 0xE0 SHL SUB NOT DUP2 AND DUP2 EQ PUSH2 0x1EF9 JUMPI PUSH1 0x0 DUP1 REVERT JUMPDEST PUSH1 0x0 PUSH1 0x20 DUP3 DUP5 SUB SLT ISZERO PUSH2 0x2DA1 JUMPI PUSH1 0x0 DUP1 REVERT JUMPDEST POP CALLDATALOAD SWAP2 SWAP1 POP JUMP JUMPDEST PUSH1 0x0 DUP2 MLOAD DUP1 DUP5 MSTORE PUSH1 0x20 DUP1 DUP6 ADD SWAP5 POP DUP1 DUP5 ADD PUSH1 0x0 JUMPDEST DUP4 DUP2 LT ISZERO PUSH2 0x2DD8 JUMPI DUP2 MLOAD DUP8 MSTORE SWAP6 DUP3 ADD SWAP6 SWAP1 DUP3 ADD SWAP1 PUSH1 0x1 ADD PUSH2 0x2DBC JUMP JUMPDEST POP SWAP5 SWAP6 SWAP5 POP POP POP POP POP JUMP JUMPDEST PUSH1 0x40 DUP2 MSTORE PUSH1 0x0 PUSH2 0x2DF6 PUSH1 0x40 DUP4 ADD DUP6 PUSH2 0x2DA8 JUMP JUMPDEST DUP3 DUP2 SUB PUSH1 0x20 DUP5 ADD MSTORE PUSH2 0x2C16 DUP2 DUP6 PUSH2 0x2DA8 JUMP JUMPDEST PUSH4 0x4E487B71 PUSH1 0xE0 SHL PUSH1 0x0 MSTORE PUSH1 0x41 PUSH1 0x4 MSTORE PUSH1 0x24 PUSH1 0x0 REVERT JUMPDEST PUSH1 0x40 DUP1 MLOAD SWAP1 DUP2 ADD PUSH1 0x1 PUSH1 0x1 PUSH1 0x40 SHL SUB DUP2 GT DUP3 DUP3 LT OR ISZERO PUSH2 0x2E40 JUMPI PUSH2 0x2E40 PUSH2 0x2E08 JUMP JUMPDEST PUSH1 0x40 MSTORE SWAP1 JUMP JUMPDEST PUSH1 0x40 MLOAD PUSH1 0xA0 DUP2 ADD PUSH1 0x1 PUSH1 0x1 PUSH1 0x40 SHL SUB DUP2 GT DUP3 DUP3 LT OR ISZERO PUSH2 0x2E40 JUMPI PUSH2 0x2E40 PUSH2 0x2E08 JUMP JUMPDEST PUSH1 0x40 MLOAD PUSH1 0x1F DUP3 ADD PUSH1 0x1F NOT AND DUP2 ADD PUSH1 0x1 PUSH1 0x1 PUSH1 0x40 SHL SUB DUP2 GT DUP3 DUP3 LT OR ISZERO PUSH2 0x2E90 JUMPI PUSH2 0x2E90 PUSH2 0x2E08 JUMP JUMPDEST PUSH1 0x40 MSTORE SWAP2 SWAP1 POP JUMP JUMPDEST PUSH1 0x0 PUSH1 0x1 PUSH1 0x1 PUSH1 0x40 SHL SUB DUP3 GT ISZERO PUSH2 0x2EB1 JUMPI PUSH2 0x2EB1 PUSH2 0x2E08 JUMP JUMPDEST POP PUSH1 0x5 SHL PUSH1 0x20 ADD SWAP1 JUMP JUMPDEST PUSH1 0x0 DUP1 PUSH1 0x40 DUP4 DUP6 SUB SLT ISZERO PUSH2 0x2ECE JUMPI PUSH1 0x0 DUP1 REVERT JUMPDEST DUP3 CALLDATALOAD SWAP2 POP PUSH1 0x20 DUP1 DUP5 ADD CALLDATALOAD PUSH1 0x1 PUSH1 0x1 PUSH1 0x40 SHL SUB DUP2 GT ISZERO PUSH2 0x2EEC JUMPI PUSH1 0x0 DUP1 REVERT JUMPDEST DUP5 ADD PUSH1 0x1F DUP2 ADD DUP7 SGT PUSH2 0x2EFD JUMPI PUSH1 0x0 DUP1 REVERT JUMPDEST DUP1 CALLDATALOAD PUSH2 0x2F10 PUSH2 0x2F0B DUP3 PUSH2 0x2E98 JUMP JUMPDEST PUSH2 0x2E68 JUMP JUMPDEST DUP2 DUP2 MSTORE PUSH1 0x5 SWAP2 SWAP1 SWAP2 SHL DUP3 ADD DUP4 ADD SWAP1 DUP4 DUP2 ADD SWAP1 DUP9 DUP4 GT ISZERO PUSH2 0x2F2F JUMPI PUSH1 0x0 DUP1 REVERT JUMPDEST SWAP3 DUP5 ADD SWAP3 JUMPDEST DUP3 DUP5 LT ISZERO PUSH2 0x2F4D JUMPI DUP4 CALLDATALOAD DUP3 MSTORE SWAP3 DUP5 ADD SWAP3 SWAP1 DUP5 ADD SWAP1 PUSH2 0x2F34 JUMP JUMPDEST DUP1 SWAP6 POP POP POP POP POP POP SWAP3 POP SWAP3 SWAP1 POP JUMP JUMPDEST DUP4 DUP2 MSTORE DUP3 ISZERO ISZERO PUSH1 0x20 DUP3 ADD MSTORE PUSH1 0x80 DUP2 ADD PUSH2 0x2F82 PUSH1 0x40 DUP4 ADD DUP5 DUP1 MLOAD DUP3 MSTORE PUSH1 0x20 SWAP1 DUP2 ADD MLOAD SWAP2 ADD MSTORE JUMP JUMPDEST SWAP5 SWAP4 POP POP POP POP JUMP JUMPDEST DUP5 DUP2 MSTORE DUP4 PUSH1 0x20 DUP3 ADD MSTORE PUSH1 0x80 PUSH1 0x40 DUP3 ADD MSTORE PUSH1 0x0 PUSH2 0x2FA9 PUSH1 0x80 DUP4 ADD DUP6 PUSH2 0x2DA8 JUMP JUMPDEST DUP3 DUP2 SUB PUSH1 0x60 DUP5 ADD MSTORE PUSH2 0x2FBB DUP2 DUP6 PUSH2 0x2DA8 JUMP JUMPDEST SWAP8 SWAP7 POP POP POP POP POP POP POP JUMP JUMPDEST PUSH1 0x1 PUSH1 0x1 PUSH1 0xA0 SHL SUB DUP2 AND DUP2 EQ PUSH2 0x1449 JUMPI PUSH1 0x0 DUP1 REVERT JUMPDEST PUSH1 0x0 PUSH1 0x20 DUP1 DUP4 DUP6 SUB SLT ISZERO PUSH2 0x2FEE JUMPI PUSH1 0x0 DUP1 REVERT JUMPDEST DUP3 CALLDATALOAD PUSH1 0x1 PUSH1 0x1 PUSH1 0x40 SHL SUB DUP2 GT ISZERO PUSH2 0x3004 JUMPI PUSH1 0x0 DUP1 REVERT JUMPDEST DUP4 ADD PUSH1 0x1F DUP2 ADD DUP6 SGT PUSH2 0x3015 JUMPI PUSH1 0x0 DUP1 REVERT JUMPDEST DUP1 CALLDATALOAD PUSH2 0x3023 PUSH2 0x2F0B DUP3 PUSH2 0x2E98 JUMP JUMPDEST DUP2 DUP2 MSTORE PUSH1 0x5 SWAP2 SWAP1 SWAP2 SHL DUP3 ADD DUP4 ADD SWAP1 DUP4 DUP2 ADD SWAP1 DUP8 DUP4 GT ISZERO PUSH2 0x3042 JUMPI PUSH1 0x0 DUP1 REVERT JUMPDEST SWAP3 DUP5 ADD SWAP3 JUMPDEST DUP3 DUP5 LT ISZERO PUSH2 0x2FBB JUMPI DUP4 CALLDATALOAD PUSH2 0x305A DUP2 PUSH2 0x2FC6 JUMP JUMPDEST DUP3 MSTORE SWAP3 DUP5 ADD SWAP3 SWAP1 DUP5 ADD SWAP1 PUSH2 0x3047 JUMP JUMPDEST PUSH1 0x1 PUSH1 0x1 PUSH1 0xA0 SHL SUB DUP6 AND DUP2 MSTORE PUSH1 0x20 DUP1 DUP3 ADD DUP6 SWAP1 MSTORE DUP4 ISZERO ISZERO PUSH1 0x40 DUP4 ADD MSTORE DUP3 MLOAD PUSH1 0x60 DUP4 ADD MSTORE DUP3 ADD MLOAD PUSH1 0x80 DUP3 ADD MSTORE PUSH1 0xA0 DUP2 ADD PUSH2 0x2C16 JUMP JUMPDEST PUSH1 0x0 PUSH1 0x20 DUP3 DUP5 SUB SLT ISZERO PUSH2 0x30AF JUMPI PUSH1 0x0 DUP1 REVERT JUMPDEST DUP2 CALLDATALOAD PUSH2 0x1EF9 DUP2 PUSH2 0x2FC6 JUMP JUMPDEST PUSH1 0x0 PUSH1 0x20 DUP3 DUP5 SUB SLT ISZERO PUSH2 0x30CC JUMPI PUSH1 0x0 DUP1 REVERT JUMPDEST DUP2 CALLDATALOAD PUSH1 0x1 PUSH1 0x1 PUSH1 0x40 SHL SUB DUP2 GT ISZERO PUSH2 0x30E2 JUMPI PUSH1 0x0 DUP1 REVERT JUMPDEST DUP3 ADD PUSH1 0xA0 DUP2 DUP6 SUB SLT ISZERO PUSH2 0x1EF9 JUMPI PUSH1 0x0 DUP1 REVERT JUMPDEST PUSH1 0x0 DUP1 PUSH1 0x0 PUSH1 0x40 DUP5 DUP7 SUB SLT ISZERO PUSH2 0x3109 JUMPI PUSH1 0x0 DUP1 REVERT JUMPDEST DUP4 CALLDATALOAD PUSH1 0x1 PUSH1 0x1 PUSH1 0x40 SHL SUB DUP1 DUP3 GT ISZERO PUSH2 0x3120 JUMPI PUSH1 0x0 DUP1 REVERT JUMPDEST DUP2 DUP7 ADD SWAP2 POP DUP7 PUSH1 0x1F DUP4 ADD SLT PUSH2 0x3134 JUMPI PUSH1 0x0 DUP1 REVERT JUMPDEST DUP2 CALLDATALOAD DUP2 DUP2 GT ISZERO PUSH2 0x3143 JUMPI PUSH1 0x0 DUP1 REVERT JUMPDEST DUP8 PUSH1 0x20 DUP3 DUP6 ADD ADD GT ISZERO PUSH2 0x3155 JUMPI PUSH1 0x0 DUP1 REVERT JUMPDEST PUSH1 0x20 SWAP3 DUP4 ADD SWAP9 SWAP1 SWAP8 POP SWAP6 SWAP1 SWAP2 ADD CALLDATALOAD SWAP5 SWAP4 POP POP POP POP JUMP JUMPDEST PUSH1 0x0 DUP1 PUSH1 0x40 DUP4 DUP6 SUB SLT ISZERO PUSH2 0x317E JUMPI PUSH1 0x0 DUP1 REVERT JUMPDEST DUP3 CALLDATALOAD PUSH2 0x3189 DUP2 PUSH2 0x2FC6 JUMP JUMPDEST SWAP5 PUSH1 0x20 SWAP4 SWAP1 SWAP4 ADD CALLDATALOAD SWAP4 POP POP POP JUMP JUMPDEST DUP1 PUSH1 0x0 JUMPDEST PUSH1 0xA DUP2 LT ISZERO PUSH2 0x31BA JUMPI DUP2 MLOAD DUP5 MSTORE PUSH1 0x20 SWAP4 DUP5 ADD SWAP4 SWAP1 SWAP2 ADD SWAP1 PUSH1 0x1 ADD PUSH2 0x319B JUMP JUMPDEST POP POP POP POP JUMP JUMPDEST PUSH2 0x3E0 DUP2 ADD PUSH2 0x31CF DUP3 DUP8 PUSH2 0x3197 JUMP JUMPDEST PUSH2 0x31DD PUSH2 0x140 DUP4 ADD DUP7 PUSH2 0x3197 JUMP JUMPDEST PUSH2 0x280 DUP3 ADD DUP5 PUSH1 0x0 JUMPDEST PUSH1 0xA DUP2 LT ISZERO PUSH2 0x320E JUMPI DUP2 MLOAD PUSH1 0x1 PUSH1 0x1 PUSH1 0xA0 SHL SUB AND DUP4 MSTORE PUSH1 0x20 SWAP3 DUP4 ADD SWAP3 SWAP1 SWAP2 ADD SWAP1 PUSH1 0x1 ADD PUSH2 0x31E6 JUMP JUMPDEST POP POP POP DUP3 PUSH2 0x3C0 DUP4 ADD MSTORE SWAP6 SWAP5 POP POP POP POP POP JUMP JUMPDEST PUSH1 0x20 DUP1 DUP3 MSTORE PUSH1 0x18 SWAP1 DUP3 ADD MSTORE PUSH32 0x47617320546F6B656E206973206E6F7420656E6F756768210000000000000000 PUSH1 0x40 DUP3 ADD MSTORE PUSH1 0x60 ADD SWAP1 JUMP JUMPDEST PUSH4 0x4E487B71 PUSH1 0xE0 SHL PUSH1 0x0 MSTORE PUSH1 0x32 PUSH1 0x4 MSTORE PUSH1 0x24 PUSH1 0x0 REVERT JUMPDEST PUSH4 0x4E487B71 PUSH1 0xE0 SHL PUSH1 0x0 MSTORE PUSH1 0x11 PUSH1 0x4 MSTORE PUSH1 0x24 PUSH1 0x0 REVERT JUMPDEST PUSH1 0x0 PUSH1 0x1 DUP3 ADD PUSH2 0x3296 JUMPI PUSH2 0x3296 PUSH2 0x326E JUMP JUMPDEST POP PUSH1 0x1 ADD SWAP1 JUMP JUMPDEST DUP1 CALLDATALOAD PUSH1 0x1 PUSH1 0x1 PUSH1 0x40 SHL SUB DUP2 AND DUP2 EQ PUSH2 0x32B4 JUMPI PUSH1 0x0 DUP1 REVERT JUMPDEST SWAP2 SWAP1 POP JUMP JUMPDEST PUSH1 0x0 DUP3 PUSH1 0x1F DUP4 ADD SLT PUSH2 0x32CA JUMPI PUSH1 0x0 DUP1 REVERT JUMPDEST DUP2 CALLDATALOAD PUSH1 0x1 PUSH1 0x1 PUSH1 0x40 SHL SUB DUP2 GT ISZERO PUSH2 0x32E3 JUMPI PUSH2 0x32E3 PUSH2 0x2E08 JUMP JUMPDEST PUSH2 0x32F6 PUSH1 0x1F DUP3 ADD PUSH1 0x1F NOT AND PUSH1 0x20 ADD PUSH2 0x2E68 JUMP JUMPDEST DUP2 DUP2 MSTORE DUP5 PUSH1 0x20 DUP4 DUP7 ADD ADD GT ISZERO PUSH2 0x330B JUMPI PUSH1 0x0 DUP1 REVERT JUMPDEST DUP2 PUSH1 0x20 DUP6 ADD PUSH1 0x20 DUP4 ADD CALLDATACOPY PUSH1 0x0 SWAP2 DUP2 ADD PUSH1 0x20 ADD SWAP2 SWAP1 SWAP2 MSTORE SWAP4 SWAP3 POP POP POP JUMP JUMPDEST PUSH1 0x0 DUP3 PUSH1 0x1F DUP4 ADD SLT PUSH2 0x3339 JUMPI PUSH1 0x0 DUP1 REVERT JUMPDEST DUP2 CALLDATALOAD PUSH1 0x20 PUSH2 0x3349 PUSH2 0x2F0B DUP4 PUSH2 0x2E98 JUMP JUMPDEST DUP3 DUP2 MSTORE PUSH1 0x6 SWAP3 SWAP1 SWAP3 SHL DUP5 ADD DUP2 ADD SWAP2 DUP2 DUP2 ADD SWAP1 DUP7 DUP5 GT ISZERO PUSH2 0x3368 JUMPI PUSH1 0x0 DUP1 REVERT JUMPDEST DUP3 DUP7 ADD JUMPDEST DUP5 DUP2 LT ISZERO PUSH2 0x33B0 JUMPI PUSH1 0x40 DUP2 DUP10 SUB SLT ISZERO PUSH2 0x3385 JUMPI PUSH1 0x0 DUP1 DUP2 REVERT JUMPDEST PUSH2 0x338D PUSH2 0x2E1E JUMP JUMPDEST DUP2 CALLDATALOAD PUSH2 0x3398 DUP2 PUSH2 0x2FC6 JUMP JUMPDEST DUP2 MSTORE DUP2 DUP6 ADD CALLDATALOAD DUP6 DUP3 ADD MSTORE DUP4 MSTORE SWAP2 DUP4 ADD SWAP2 PUSH1 0x40 ADD PUSH2 0x336C JUMP JUMPDEST POP SWAP7 SWAP6 POP POP POP POP POP POP JUMP JUMPDEST PUSH1 0x0 PUSH1 0xA0 DUP3 CALLDATASIZE SUB SLT ISZERO PUSH2 0x33CD JUMPI PUSH1 0x0 DUP1 REVERT JUMPDEST PUSH2 0x33D5 PUSH2 0x2E46 JUMP JUMPDEST DUP3 CALLDATALOAD DUP2 MSTORE PUSH2 0x33E5 PUSH1 0x20 DUP5 ADD PUSH2 0x329D JUMP JUMPDEST PUSH1 0x20 DUP3 ADD MSTORE PUSH1 0x40 DUP4 ADD CALLDATALOAD PUSH1 0x1 PUSH1 0x1 PUSH1 0x40 SHL SUB DUP1 DUP3 GT ISZERO PUSH2 0x3404 JUMPI PUSH1 0x0 DUP1 REVERT JUMPDEST PUSH2 0x3410 CALLDATASIZE DUP4 DUP8 ADD PUSH2 0x32B9 JUMP JUMPDEST PUSH1 0x40 DUP5 ADD MSTORE PUSH1 0x60 DUP6 ADD CALLDATALOAD SWAP2 POP DUP1 DUP3 GT ISZERO PUSH2 0x3429 JUMPI PUSH1 0x0 DUP1 REVERT JUMPDEST PUSH2 0x3435 CALLDATASIZE DUP4 DUP8 ADD PUSH2 0x32B9 JUMP JUMPDEST PUSH1 0x60 DUP5 ADD MSTORE PUSH1 0x80 DUP6 ADD CALLDATALOAD SWAP2 POP DUP1 DUP3 GT ISZERO PUSH2 0x344E JUMPI PUSH1 0x0 DUP1 REVERT JUMPDEST POP PUSH2 0x345B CALLDATASIZE DUP3 DUP7 ADD PUSH2 0x3328 JUMP JUMPDEST PUSH1 0x80 DUP4 ADD MSTORE POP SWAP3 SWAP2 POP POP JUMP JUMPDEST PUSH1 0x0 PUSH1 0x20 DUP3 DUP5 SUB SLT ISZERO PUSH2 0x3479 JUMPI PUSH1 0x0 DUP1 REVERT JUMPDEST POP MLOAD SWAP2 SWAP1 POP JUMP JUMPDEST PUSH1 0x0 PUSH1 0x20 DUP3 DUP5 SUB SLT ISZERO PUSH2 0x3492 JUMPI PUSH1 0x0 DUP1 REVERT JUMPDEST DUP2 MLOAD DUP1 ISZERO ISZERO DUP2 EQ PUSH2 0x1EF9 JUMPI PUSH1 0x0 DUP1 REVERT JUMPDEST PUSH1 0x40 DUP2 MSTORE DUP3 PUSH1 0x40 DUP3 ADD MSTORE DUP3 DUP5 PUSH1 0x60 DUP4 ADD CALLDATACOPY PUSH1 0x0 PUSH1 0x60 DUP5 DUP4 ADD ADD MSTORE PUSH1 0x0 PUSH1 0x1F NOT PUSH1 0x1F DUP6 ADD AND DUP3 ADD PUSH1 0x60 DUP2 ADD PUSH1 0x20 PUSH1 0x60 DUP6 DUP5 SUB ADD DUP2 DUP7 ADD MSTORE DUP2 DUP7 MLOAD DUP1 DUP5 MSTORE PUSH1 0x80 DUP6 ADD SWAP2 POP DUP3 DUP9 ADD SWAP5 POP PUSH1 0x0 SWAP4 POP JUMPDEST DUP1 DUP5 LT ISZERO PUSH2 0x350E JUMPI DUP5 MLOAD DUP3 MSTORE SWAP4 DUP3 ADD SWAP4 PUSH1 0x1 SWAP4 SWAP1 SWAP4 ADD SWAP3 SWAP1 DUP3 ADD SWAP1 PUSH2 0x34EE JUMP JUMPDEST POP SWAP9 SWAP8 POP POP POP POP POP POP POP POP JUMP JUMPDEST DUP1 DUP3 ADD DUP1 DUP3 GT ISZERO PUSH2 0xA57 JUMPI PUSH2 0xA57 PUSH2 0x326E JUMP JUMPDEST DUP1 MLOAD PUSH10 0xFFFFFFFFFFFFFFFFFFFF DUP2 AND DUP2 EQ PUSH2 0x32B4 JUMPI PUSH1 0x0 DUP1 REVERT JUMPDEST PUSH1 0x0 DUP1 PUSH1 0x0 DUP1 PUSH1 0x0 PUSH1 0xA0 DUP7 DUP9 SUB SLT ISZERO PUSH2 0x3560 JUMPI PUSH1 0x0 DUP1 REVERT JUMPDEST PUSH2 0x3569 DUP7 PUSH2 0x352E JUMP JUMPDEST SWAP5 POP PUSH1 0x20 DUP7 ADD MLOAD SWAP4 POP PUSH1 0x40 DUP7 ADD MLOAD SWAP3 POP PUSH1 0x60 DUP7 ADD MLOAD SWAP2 POP PUSH2 0x358C PUSH1 0x80 DUP8 ADD PUSH2 0x352E JUMP JUMPDEST SWAP1 POP SWAP3 SWAP6 POP SWAP3 SWAP6 SWAP1 SWAP4 POP JUMP JUMPDEST PUSH4 0x4E487B71 PUSH1 0xE0 SHL PUSH1 0x0 MSTORE PUSH1 0x12 PUSH1 0x4 MSTORE PUSH1 0x24 PUSH1 0x0 REVERT JUMPDEST PUSH1 0x0 DUP3 PUSH2 0x35BD JUMPI PUSH2 0x35BD PUSH2 0x3598 JUMP JUMPDEST PUSH1 0x1 PUSH1 0xFF SHL DUP3 EQ PUSH1 0x0 NOT DUP5 EQ AND ISZERO PUSH2 0x35D7 JUMPI PUSH2 0x35D7 PUSH2 0x326E JUMP JUMPDEST POP SDIV SWAP1 JUMP JUMPDEST DUP1 DUP3 MUL PUSH1 0x0 DUP3 SLT PUSH1 0x1 PUSH1 0xFF SHL DUP5 EQ AND ISZERO PUSH2 0x35F8 JUMPI PUSH2 0x35F8 PUSH2 0x326E JUMP JUMPDEST DUP2 DUP2 SDIV DUP4 EQ DUP3 ISZERO OR PUSH2 0xA57 JUMPI PUSH2 0xA57 PUSH2 0x326E JUMP JUMPDEST DUP1 DUP3 MUL DUP2 ISZERO DUP3 DUP3 DIV DUP5 EQ OR PUSH2 0xA57 JUMPI PUSH2 0xA57 PUSH2 0x326E JUMP JUMPDEST PUSH1 0x0 DUP3 PUSH2 0x3632 JUMPI PUSH2 0x3632 PUSH2 0x3598 JUMP JUMPDEST POP MOD SWAP1 JUMP JUMPDEST DUP5 DUP2 MSTORE PUSH1 0xA0 PUSH1 0x20 DUP3 ADD MSTORE PUSH1 0x0 PUSH2 0x3650 PUSH1 0xA0 DUP4 ADD DUP7 PUSH2 0x2DA8 JUMP JUMPDEST PUSH1 0x40 DUP4 ADD DUP6 SWAP1 MSTORE DUP4 MLOAD PUSH1 0x60 DUP5 ADD MSTORE PUSH1 0x20 DUP5 ADD MLOAD PUSH1 0x80 DUP5 ADD MSTORE SWAP1 POP PUSH2 0x2C16 JUMP JUMPDEST PUSH1 0x0 PUSH1 0x60 DUP3 DUP5 SUB SLT ISZERO PUSH2 0x3681 JUMPI PUSH1 0x0 DUP1 REVERT JUMPDEST PUSH1 0x40 MLOAD PUSH1 0x60 DUP2 ADD DUP2 DUP2 LT PUSH1 0x1 PUSH1 0x1 PUSH1 0x40 SHL SUB DUP3 GT OR ISZERO PUSH2 0x36A3 JUMPI PUSH2 0x36A3 PUSH2 0x2E08 JUMP JUMPDEST PUSH1 0x40 MSTORE DUP3 MLOAD PUSH2 0x36B1 DUP2 PUSH2 0x2FC6 JUMP JUMPDEST DUP2 MSTORE PUSH1 0x20 DUP4 DUP2 ADD MLOAD SWAP1 DUP3 ADD MSTORE PUSH1 0x40 SWAP3 DUP4 ADD MLOAD SWAP3 DUP2 ADD SWAP3 SWAP1 SWAP3 MSTORE POP SWAP2 SWAP1 POP JUMP JUMPDEST PUSH1 0x0 PUSH1 0x20 DUP3 DUP5 SUB SLT ISZERO PUSH2 0x36E2 JUMPI PUSH1 0x0 DUP1 REVERT JUMPDEST DUP2 MLOAD PUSH2 0x1EF9 DUP2 PUSH2 0x2FC6 JUMP JUMPDEST PUSH1 0x0 DUP2 MLOAD DUP1 DUP5 MSTORE PUSH1 0x0 JUMPDEST DUP2 DUP2 LT ISZERO PUSH2 0x3713 JUMPI PUSH1 0x20 DUP2 DUP6 ADD DUP2 ADD MLOAD DUP7 DUP4 ADD DUP3 ADD MSTORE ADD PUSH2 0x36F7 JUMP JUMPDEST POP PUSH1 0x0 PUSH1 0x20 DUP3 DUP7 ADD ADD MSTORE PUSH1 0x20 PUSH1 0x1F NOT PUSH1 0x1F DUP4 ADD AND DUP6 ADD ADD SWAP2 POP POP SWAP3 SWAP2 POP POP JUMP JUMPDEST PUSH1 0x0 PUSH4 0xFFFFFFFF DUP1 DUP8 AND DUP4 MSTORE PUSH2 0xFFFF DUP7 AND PUSH1 0x20 DUP5 ADD MSTORE DUP1 DUP6 AND PUSH1 0x40 DUP5 ADD MSTORE POP PUSH1 0x80 PUSH1 0x60 DUP4 ADD MSTORE PUSH2 0x3766 PUSH1 0x80 DUP4 ADD DUP5 PUSH2 0x36ED JUMP JUMPDEST SWAP7 SWAP6 POP POP POP POP POP POP JUMP JUMPDEST PUSH1 0x1 DUP1 PUSH1 0xA0 SHL SUB DUP5 AND DUP2 MSTORE DUP3 PUSH1 0x20 DUP3 ADD MSTORE PUSH1 0x60 PUSH1 0x40 DUP3 ADD MSTORE PUSH1 0x0 PUSH2 0x2C16 PUSH1 0x60 DUP4 ADD DUP5 PUSH2 0x36ED JUMP JUMPDEST DUP2 DUP2 SUB DUP2 DUP2 GT ISZERO PUSH2 0xA57 JUMPI PUSH2 0xA57 PUSH2 0x326E JUMP JUMPDEST PUSH1 0x0 DUP3 PUSH2 0x37B9 JUMPI PUSH2 0x37B9 PUSH2 0x3598 JUMP JUMPDEST POP DIV SWAP1 JUMP JUMPDEST PUSH1 0x0 DUP2 PUSH2 0x37CD JUMPI PUSH2 0x37CD PUSH2 0x326E JUMP JUMPDEST POP PUSH1 0x0 NOT ADD SWAP1 JUMP JUMPDEST DUP2 MLOAD PUSH1 0x1 PUSH1 0x1 PUSH1 0xA0 SHL SUB AND DUP2 MSTORE PUSH1 0x20 DUP1 DUP4 ADD MLOAD SWAP1 DUP3 ADD MSTORE PUSH1 0x40 DUP1 DUP4 ADD MLOAD SWAP1 DUP3 ADD MSTORE PUSH1 0x60 DUP2 ADD PUSH2 0xA57 JUMP JUMPDEST PUSH1 0x0 PUSH1 0x40 PUSH1 0x1 PUSH1 0x1 PUSH1 0x40 SHL SUB DUP6 AND DUP4 MSTORE PUSH1 0x20 DUP2 DUP2 DUP6 ADD MSTORE DUP5 MLOAD PUSH1 0xA0 DUP4 DUP7 ADD MSTORE PUSH2 0x382B PUSH1 0xE0 DUP7 ADD DUP3 PUSH2 0x36ED JUMP JUMPDEST SWAP1 POP DUP2 DUP7 ADD MLOAD PUSH1 0x3F NOT DUP1 DUP8 DUP5 SUB ADD PUSH1 0x60 DUP9 ADD MSTORE PUSH2 0x3848 DUP4 DUP4 PUSH2 0x36ED JUMP JUMPDEST DUP9 DUP7 ADD MLOAD DUP9 DUP3 SUB DUP4 ADD PUSH1 0x80 DUP11 ADD MSTORE DUP1 MLOAD DUP1 DUP4 MSTORE SWAP1 DUP7 ADD SWAP5 POP PUSH1 0x0 SWAP4 POP SWAP1 DUP6 ADD SWAP1 JUMPDEST DUP1 DUP5 LT ISZERO PUSH2 0x389B JUMPI DUP5 MLOAD DUP1 MLOAD PUSH1 0x1 PUSH1 0x1 PUSH1 0xA0 SHL SUB AND DUP4 MSTORE DUP7 ADD MLOAD DUP7 DUP4 ADD MSTORE SWAP4 DUP6 ADD SWAP4 PUSH1 0x1 SWAP4 SWAP1 SWAP4 ADD SWAP3 SWAP1 DUP7 ADD SWAP1 PUSH2 0x3869 JUMP JUMPDEST POP PUSH1 0x60 DUP10 ADD MLOAD PUSH1 0x1 PUSH1 0x1 PUSH1 0xA0 SHL SUB AND PUSH1 0xA0 DUP10 ADD MSTORE PUSH1 0x80 DUP10 ADD MLOAD DUP9 DUP3 SUB DUP4 ADD PUSH1 0xC0 DUP11 ADD MSTORE SWAP6 POP PUSH2 0x38CA DUP2 DUP8 PUSH2 0x36ED JUMP JUMPDEST SWAP11 SWAP10 POP POP POP POP POP POP POP POP POP POP JUMP JUMPDEST PUSH1 0x1 PUSH1 0x1 PUSH1 0xA0 SHL SUB DUP6 DUP2 AND DUP3 MSTORE PUSH1 0xC0 DUP3 ADD SWAP1 PUSH2 0x3914 PUSH1 0x20 DUP5 ADD DUP8 DUP1 MLOAD PUSH1 0x1 PUSH1 0x1 PUSH1 0xA0 SHL SUB AND DUP3 MSTORE PUSH1 0x20 DUP1 DUP3 ADD MLOAD SWAP1 DUP4 ADD MSTORE PUSH1 0x40 SWAP1 DUP2 ADD MLOAD SWAP2 ADD MSTORE JUMP JUMPDEST SWAP4 SWAP1 SWAP4 AND PUSH1 0x80 DUP3 ADD MSTORE PUSH1 0xA0 ADD MSTORE SWAP3 SWAP2 POP POP JUMP INVALID LOG2 PUSH5 0x6970667358 0x22 SLT KECCAK256 LOG1 DUP6 0x5D 0xB6 0xBC PREVRANDAO DUP12 0x5D 0xB5 PUSH2 0xF869 SSTORE SWAP2 0xB7 DUP6 PUSH2 0x5C98 PUSH16 0xC15E9C2CF7E20FC6EC26BBDB64736F6C PUSH4 0x43000813 STOP CALLER "
		},
		"gasEstimates": {
			"creation": {
				"codeDepositCost": "2937000",
				"executionCost": "infinite",
				"totalCost": "infinite"
			},
			"external": {
				"LotteryItemList(uint256)": "6865",
				"acceptOwnership()": "52344",
				"buyOrUpgradeSkin(uint256)": "infinite",
				"buyOrUpgradeWeapon(uint256)": "infinite",
				"ccipReceive((bytes32,uint64,bytes,bytes,(address,uint256)[]))": "infinite",
				"chainSelectors(uint256)": "4185",
				"currentChainSelectorIndex()": "2408",
				"currentMessageItem()": "6746",
				"gameLogMap(uint256)": "11191",
				"gameOver(bytes,uint256)": "infinite",
				"gasTokenAggregators(uint256)": "2503",
				"getBalance()": "329",
				"getGasTokenAmountByUsd(uint256)": "infinite",
				"getLinkToken()": "infinite",
				"getPlayerAllAssets()": "infinite",
				"getPlayerAllSkinInfo()": "infinite",
				"getPlayerAllWeaponInfo()": "infinite",
				"getPlayerLastLotteryRequestStatus()": "infinite",
				"getTopListInfo()": "infinite",
				"i_vrfV2PlusWrapper()": "infinite",
				"initLotteryList()": "688076",
				"lastUpdateTime()": "2406",
				"linkTokens(uint256)": "2523",
				"lotteryRequestMap(uint256)": "11288",
				"owner()": "2442",
				"playerDiamondMap(address)": "2668",
				"playerGoldMap(address)": "2625",
				"playerLastlotteryRequestIdMap(address)": "2669",
				"playerLatestGameLogIdMap(address)": "2669",
				"playerSkinLevelMap(address,uint256)": "2694",
				"playerSkinMap(address,uint256)": "4849",
				"playerWeaponLevelMap(address,uint256)": "2673",
				"playerWeaponMap(address,uint256)": "4872",
				"rawFulfillRandomWords(uint256,uint256[])": "infinite",
				"reLive()": "infinite",
				"receivers(uint256)": "2546",
				"requestLottery()": "infinite",
				"routers(uint256)": "2569",
				"startGame()": "infinite",
				"supportsInterface(bytes4)": "473",
				"topChainIndex(uint256)": "2529",
				"topGradeList(uint256)": "2463",
				"topPlayerList(uint256)": "2524",
				"totalGame()": "2384",
				"transferOwnership(address)": "infinite",
				"updateReceivers(address[])": "infinite",
				"withdrawLink()": "infinite",
				"wrapperAddressList(uint256)": "2548",
				"zkTimeProofAddressList(uint256)": "2524"
			},
			"internal": {
				"_ccipReceive(struct Client.Any2EVMMessage memory)": "infinite",
				"_sendMessage(uint64,address,address,address,struct ZKGameClient.MessageItem memory)": "infinite",
				"distribution(address payable,uint256)": "infinite",
				"fulfillRandomWords(uint256,uint256[] memory)": "infinite",
				"pushDataToTopList(struct ZKGameClient.MessageItem memory)": "infinite"
			}
		},
		"methodIdentifiers": {
			"LotteryItemList(uint256)": "380149ab",
			"acceptOwnership()": "79ba5097",
			"buyOrUpgradeSkin(uint256)": "fa3b11d2",
			"buyOrUpgradeWeapon(uint256)": "cc216aba",
			"ccipReceive((bytes32,uint64,bytes,bytes,(address,uint256)[]))": "85572ffb",
			"chainSelectors(uint256)": "2bf34fbd",
			"currentChainSelectorIndex()": "11b7aad5",
			"currentMessageItem()": "cdc7bc87",
			"gameLogMap(uint256)": "df4f5532",
			"gameOver(bytes,uint256)": "975ec813",
			"gasTokenAggregators(uint256)": "441bbacb",
			"getBalance()": "12065fe0",
			"getGasTokenAmountByUsd(uint256)": "e16b6193",
			"getLinkToken()": "e76d5168",
			"getPlayerAllAssets()": "44b7e83c",
			"getPlayerAllSkinInfo()": "34c53eed",
			"getPlayerAllWeaponInfo()": "1528d36f",
			"getPlayerLastLotteryRequestStatus()": "3236f6ae",
			"getTopListInfo()": "d0d5117e",
			"i_vrfV2PlusWrapper()": "9ed0868d",
			"initLotteryList()": "3db497de",
			"lastUpdateTime()": "c8f33c91",
			"linkTokens(uint256)": "ea029701",
			"lotteryRequestMap(uint256)": "67c58157",
			"owner()": "8da5cb5b",
			"playerDiamondMap(address)": "91f54351",
			"playerGoldMap(address)": "a029c405",
			"playerLastlotteryRequestIdMap(address)": "b3b2875e",
			"playerLatestGameLogIdMap(address)": "6906a2e9",
			"playerSkinLevelMap(address,uint256)": "f2683ecd",
			"playerSkinMap(address,uint256)": "d5540a27",
			"playerWeaponLevelMap(address,uint256)": "bac009d3",
			"playerWeaponMap(address,uint256)": "a55e1d45",
			"rawFulfillRandomWords(uint256,uint256[])": "1fe543e3",
			"reLive()": "0cae4589",
			"receivers(uint256)": "bfd772fc",
			"requestLottery()": "92e0c91a",
			"routers(uint256)": "4e9c1118",
			"startGame()": "d65ab5f2",
			"supportsInterface(bytes4)": "01ffc9a7",
			"topChainIndex(uint256)": "e8af8c0d",
			"topGradeList(uint256)": "b76ee4a8",
			"topPlayerList(uint256)": "d252682d",
			"totalGame()": "d272e57e",
			"transferOwnership(address)": "f2fde38b",
			"updateReceivers(address[])": "49c9d17a",
			"withdrawLink()": "8dc654a2",
			"wrapperAddressList(uint256)": "10fa7879",
			"zkTimeProofAddressList(uint256)": "7e8104e7"
		}
	},
	"abi": [
		{
			"inputs": [
				{
					"internalType": "uint256",
					"name": "_currentChainSelectorIndex",
					"type": "uint256"
				}
			],
			"stateMutability": "nonpayable",
			"type": "constructor"
		},
		{
			"inputs": [
				{
					"internalType": "address",
					"name": "router",
					"type": "address"
				}
			],
			"name": "InvalidRouter",
			"type": "error"
		},
		{
			"inputs": [
				{
					"internalType": "uint256",
					"name": "currentBalance",
					"type": "uint256"
				},
				{
					"internalType": "uint256",
					"name": "calculatedFees",
					"type": "uint256"
				}
			],
			"name": "NotEnoughBalance",
			"type": "error"
		},
		{
			"inputs": [
				{
					"internalType": "address",
					"name": "have",
					"type": "address"
				},
				{
					"internalType": "address",
					"name": "want",
					"type": "address"
				}
			],
			"name": "OnlyVRFWrapperCanFulfill",
			"type": "error"
		},
		{
			"anonymous": false,
			"inputs": [
				{
					"indexed": false,
					"internalType": "uint256",
					"name": "startTime",
					"type": "uint256"
				},
				{
					"indexed": false,
					"internalType": "uint256",
					"name": "endTime",
					"type": "uint256"
				},
				{
					"indexed": false,
					"internalType": "address",
					"name": "player",
					"type": "address"
				},
				{
					"indexed": false,
					"internalType": "uint256",
					"name": "grade",
					"type": "uint256"
				},
				{
					"indexed": false,
					"internalType": "uint256",
					"name": "reLive",
					"type": "uint256"
				}
			],
			"name": "GameLogEvent",
			"type": "event"
		},
		{
			"anonymous": false,
			"inputs": [
				{
					"indexed": true,
					"internalType": "bytes32",
					"name": "messageId",
					"type": "bytes32"
				},
				{
					"indexed": true,
					"internalType": "uint64",
					"name": "sourceChainSelector",
					"type": "uint64"
				},
				{
					"indexed": false,
					"internalType": "address",
					"name": "sender",
					"type": "address"
				},
				{
					"components": [
						{
							"internalType": "address",
							"name": "player",
							"type": "address"
						},
						{
							"internalType": "uint256",
							"name": "time",
							"type": "uint256"
						},
						{
							"internalType": "uint256",
							"name": "chainIndex",
							"type": "uint256"
						}
					],
					"indexed": false,
					"internalType": "struct ZKGameClient.MessageItem",
					"name": "messageItem",
					"type": "tuple"
				}
			],
			"name": "MessageReceived",
			"type": "event"
		},
		{
			"anonymous": false,
			"inputs": [
				{
					"indexed": true,
					"internalType": "bytes32",
					"name": "messageId",
					"type": "bytes32"
				},
				{
					"indexed": true,
					"internalType": "uint64",
					"name": "destinationChainSelector",
					"type": "uint64"
				},
				{
					"indexed": false,
					"internalType": "address",
					"name": "receiver",
					"type": "address"
				},
				{
					"components": [
						{
							"internalType": "address",
							"name": "player",
							"type": "address"
						},
						{
							"internalType": "uint256",
							"name": "time",
							"type": "uint256"
						},
						{
							"internalType": "uint256",
							"name": "chainIndex",
							"type": "uint256"
						}
					],
					"indexed": false,
					"internalType": "struct ZKGameClient.MessageItem",
					"name": "messageItem",
					"type": "tuple"
				},
				{
					"indexed": false,
					"internalType": "address",
					"name": "feeToken",
					"type": "address"
				},
				{
					"indexed": false,
					"internalType": "uint256",
					"name": "fees",
					"type": "uint256"
				}
			],
			"name": "MessageSent",
			"type": "event"
		},
		{
			"anonymous": false,
			"inputs": [
				{
					"indexed": true,
					"internalType": "address",
					"name": "from",
					"type": "address"
				},
				{
					"indexed": true,
					"internalType": "address",
					"name": "to",
					"type": "address"
				}
			],
			"name": "OwnershipTransferRequested",
			"type": "event"
		},
		{
			"anonymous": false,
			"inputs": [
				{
					"indexed": true,
					"internalType": "address",
					"name": "from",
					"type": "address"
				},
				{
					"indexed": true,
					"internalType": "address",
					"name": "to",
					"type": "address"
				}
			],
			"name": "OwnershipTransferred",
			"type": "event"
		},
		{
			"anonymous": false,
			"inputs": [
				{
					"indexed": false,
					"internalType": "uint256",
					"name": "requestId",
					"type": "uint256"
				},
				{
					"indexed": false,
					"internalType": "uint256[]",
					"name": "randomWords",
					"type": "uint256[]"
				},
				{
					"indexed": false,
					"internalType": "uint256",
					"name": "payment",
					"type": "uint256"
				},
				{
					"components": [
						{
							"internalType": "uint256",
							"name": "itemType",
							"type": "uint256"
						},
						{
							"internalType": "uint256",
							"name": "num",
							"type": "uint256"
						}
					],
					"indexed": false,
					"internalType": "struct ZKGameClient.LotteryItem",
					"name": "lotteryItem",
					"type": "tuple"
				}
			],
			"name": "RequestLotteryFulfilled",
			"type": "event"
		},
		{
			"anonymous": false,
			"inputs": [
				{
					"indexed": false,
					"internalType": "uint256",
					"name": "requestId",
					"type": "uint256"
				},
				{
					"indexed": false,
					"internalType": "uint32",
					"name": "numWords",
					"type": "uint32"
				}
			],
			"name": "RequestLotterySent",
			"type": "event"
		},
		{
			"inputs": [
				{
					"internalType": "uint256",
					"name": "",
					"type": "uint256"
				}
			],
			"name": "LotteryItemList",
			"outputs": [
				{
					"internalType": "uint256",
					"name": "itemType",
					"type": "uint256"
				},
				{
					"internalType": "uint256",
					"name": "num",
					"type": "uint256"
				}
			],
			"stateMutability": "view",
			"type": "function"
		},
		{
			"inputs": [],
			"name": "acceptOwnership",
			"outputs": [],
			"stateMutability": "nonpayable",
			"type": "function"
		},
		{
			"inputs": [
				{
					"internalType": "uint256",
					"name": "id",
					"type": "uint256"
				}
			],
			"name": "buyOrUpgradeSkin",
			"outputs": [],
			"stateMutability": "nonpayable",
			"type": "function"
		},
		{
			"inputs": [
				{
					"internalType": "uint256",
					"name": "id",
					"type": "uint256"
				}
			],
			"name": "buyOrUpgradeWeapon",
			"outputs": [],
			"stateMutability": "nonpayable",
			"type": "function"
		},
		{
			"inputs": [
				{
					"components": [
						{
							"internalType": "bytes32",
							"name": "messageId",
							"type": "bytes32"
						},
						{
							"internalType": "uint64",
							"name": "sourceChainSelector",
							"type": "uint64"
						},
						{
							"internalType": "bytes",
							"name": "sender",
							"type": "bytes"
						},
						{
							"internalType": "bytes",
							"name": "data",
							"type": "bytes"
						},
						{
							"components": [
								{
									"internalType": "address",
									"name": "token",
									"type": "address"
								},
								{
									"internalType": "uint256",
									"name": "amount",
									"type": "uint256"
								}
							],
							"internalType": "struct Client.EVMTokenAmount[]",
							"name": "destTokenAmounts",
							"type": "tuple[]"
						}
					],
					"internalType": "struct Client.Any2EVMMessage",
					"name": "message",
					"type": "tuple"
				}
			],
			"name": "ccipReceive",
			"outputs": [],
			"stateMutability": "nonpayable",
			"type": "function"
		},
		{
			"inputs": [
				{
					"internalType": "uint256",
					"name": "",
					"type": "uint256"
				}
			],
			"name": "chainSelectors",
			"outputs": [
				{
					"internalType": "uint64",
					"name": "",
					"type": "uint64"
				}
			],
			"stateMutability": "view",
			"type": "function"
		},
		{
			"inputs": [],
			"name": "currentChainSelectorIndex",
			"outputs": [
				{
					"internalType": "uint256",
					"name": "",
					"type": "uint256"
				}
			],
			"stateMutability": "view",
			"type": "function"
		},
		{
			"inputs": [],
			"name": "currentMessageItem",
			"outputs": [
				{
					"internalType": "address",
					"name": "player",
					"type": "address"
				},
				{
					"internalType": "uint256",
					"name": "time",
					"type": "uint256"
				},
				{
					"internalType": "uint256",
					"name": "chainIndex",
					"type": "uint256"
				}
			],
			"stateMutability": "view",
			"type": "function"
		},
		{
			"inputs": [
				{
					"internalType": "uint256",
					"name": "",
					"type": "uint256"
				}
			],
			"name": "gameLogMap",
			"outputs": [
				{
					"internalType": "uint256",
					"name": "startTime",
					"type": "uint256"
				},
				{
					"internalType": "uint256",
					"name": "endTime",
					"type": "uint256"
				},
				{
					"internalType": "address",
					"name": "player",
					"type": "address"
				},
				{
					"internalType": "uint256",
					"name": "reLive",
					"type": "uint256"
				},
				{
					"internalType": "uint256",
					"name": "grade",
					"type": "uint256"
				}
			],
			"stateMutability": "view",
			"type": "function"
		},
		{
			"inputs": [
				{
					"internalType": "bytes",
					"name": "proof",
					"type": "bytes"
				},
				{
					"internalType": "uint256",
					"name": "time",
					"type": "uint256"
				}
			],
			"name": "gameOver",
			"outputs": [],
			"stateMutability": "nonpayable",
			"type": "function"
		},
		{
			"inputs": [
				{
					"internalType": "uint256",
					"name": "",
					"type": "uint256"
				}
			],
			"name": "gasTokenAggregators",
			"outputs": [
				{
					"internalType": "address",
					"name": "",
					"type": "address"
				}
			],
			"stateMutability": "view",
			"type": "function"
		},
		{
			"inputs": [],
			"name": "getBalance",
			"outputs": [
				{
					"internalType": "uint256",
					"name": "",
					"type": "uint256"
				}
			],
			"stateMutability": "view",
			"type": "function"
		},
		{
			"inputs": [
				{
					"internalType": "uint256",
					"name": "usd",
					"type": "uint256"
				}
			],
			"name": "getGasTokenAmountByUsd",
			"outputs": [
				{
					"internalType": "uint256",
					"name": "",
					"type": "uint256"
				}
			],
			"stateMutability": "view",
			"type": "function"
		},
		{
			"inputs": [],
			"name": "getLinkToken",
			"outputs": [
				{
					"internalType": "contract LinkTokenInterface",
					"name": "",
					"type": "address"
				}
			],
			"stateMutability": "view",
			"type": "function"
		},
		{
			"inputs": [],
			"name": "getPlayerAllAssets",
			"outputs": [
				{
					"internalType": "uint256",
					"name": "gold",
					"type": "uint256"
				},
				{
					"internalType": "uint256",
					"name": "diamond",
					"type": "uint256"
				},
				{
					"internalType": "uint256[]",
					"name": "weapon",
					"type": "uint256[]"
				},
				{
					"internalType": "uint256[]",
					"name": "skin",
					"type": "uint256[]"
				}
			],
			"stateMutability": "view",
			"type": "function"
		},
		{
			"inputs": [],
			"name": "getPlayerAllSkinInfo",
			"outputs": [
				{
					"internalType": "uint256[]",
					"name": "skinIdList",
					"type": "uint256[]"
				},
				{
					"internalType": "uint256[]",
					"name": "skinLevelList",
					"type": "uint256[]"
				}
			],
			"stateMutability": "view",
			"type": "function"
		},
		{
			"inputs": [],
			"name": "getPlayerAllWeaponInfo",
			"outputs": [
				{
					"internalType": "uint256[]",
					"name": "weaponIdList",
					"type": "uint256[]"
				},
				{
					"internalType": "uint256[]",
					"name": "weaponLevelList",
					"type": "uint256[]"
				}
			],
			"stateMutability": "view",
			"type": "function"
		},
		{
			"inputs": [],
			"name": "getPlayerLastLotteryRequestStatus",
			"outputs": [
				{
					"internalType": "uint256",
					"name": "paid",
					"type": "uint256"
				},
				{
					"internalType": "bool",
					"name": "fulfilled",
					"type": "bool"
				},
				{
					"components": [
						{
							"internalType": "uint256",
							"name": "itemType",
							"type": "uint256"
						},
						{
							"internalType": "uint256",
							"name": "num",
							"type": "uint256"
						}
					],
					"internalType": "struct ZKGameClient.LotteryItem",
					"name": "lotteryItem",
					"type": "tuple"
				}
			],
			"stateMutability": "view",
			"type": "function"
		},
		{
			"inputs": [],
			"name": "getTopListInfo",
			"outputs": [
				{
					"internalType": "uint256[10]",
					"name": "",
					"type": "uint256[10]"
				},
				{
					"internalType": "uint256[10]",
					"name": "",
					"type": "uint256[10]"
				},
				{
					"internalType": "address[10]",
					"name": "",
					"type": "address[10]"
				},
				{
					"internalType": "uint256",
					"name": "",
					"type": "uint256"
				}
			],
			"stateMutability": "view",
			"type": "function"
		},
		{
			"inputs": [],
			"name": "i_vrfV2PlusWrapper",
			"outputs": [
				{
					"internalType": "contract IVRFV2PlusWrapper",
					"name": "",
					"type": "address"
				}
			],
			"stateMutability": "view",
			"type": "function"
		},
		{
			"inputs": [],
			"name": "initLotteryList",
			"outputs": [],
			"stateMutability": "nonpayable",
			"type": "function"
		},
		{
			"inputs": [],
			"name": "lastUpdateTime",
			"outputs": [
				{
					"internalType": "uint256",
					"name": "",
					"type": "uint256"
				}
			],
			"stateMutability": "view",
			"type": "function"
		},
		{
			"inputs": [
				{
					"internalType": "uint256",
					"name": "",
					"type": "uint256"
				}
			],
			"name": "linkTokens",
			"outputs": [
				{
					"internalType": "address",
					"name": "",
					"type": "address"
				}
			],
			"stateMutability": "view",
			"type": "function"
		},
		{
			"inputs": [
				{
					"internalType": "uint256",
					"name": "",
					"type": "uint256"
				}
			],
			"name": "lotteryRequestMap",
			"outputs": [
				{
					"internalType": "address",
					"name": "player",
					"type": "address"
				},
				{
					"internalType": "uint256",
					"name": "paid",
					"type": "uint256"
				},
				{
					"internalType": "bool",
					"name": "fulfilled",
					"type": "bool"
				},
				{
					"components": [
						{
							"internalType": "uint256",
							"name": "itemType",
							"type": "uint256"
						},
						{
							"internalType": "uint256",
							"name": "num",
							"type": "uint256"
						}
					],
					"internalType": "struct ZKGameClient.LotteryItem",
					"name": "lotteryItem",
					"type": "tuple"
				}
			],
			"stateMutability": "view",
			"type": "function"
		},
		{
			"inputs": [],
			"name": "owner",
			"outputs": [
				{
					"internalType": "address",
					"name": "",
					"type": "address"
				}
			],
			"stateMutability": "view",
			"type": "function"
		},
		{
			"inputs": [
				{
					"internalType": "address",
					"name": "",
					"type": "address"
				}
			],
			"name": "playerDiamondMap",
			"outputs": [
				{
					"internalType": "uint256",
					"name": "",
					"type": "uint256"
				}
			],
			"stateMutability": "view",
			"type": "function"
		},
		{
			"inputs": [
				{
					"internalType": "address",
					"name": "",
					"type": "address"
				}
			],
			"name": "playerGoldMap",
			"outputs": [
				{
					"internalType": "uint256",
					"name": "",
					"type": "uint256"
				}
			],
			"stateMutability": "view",
			"type": "function"
		},
		{
			"inputs": [
				{
					"internalType": "address",
					"name": "",
					"type": "address"
				}
			],
			"name": "playerLastlotteryRequestIdMap",
			"outputs": [
				{
					"internalType": "uint256",
					"name": "",
					"type": "uint256"
				}
			],
			"stateMutability": "view",
			"type": "function"
		},
		{
			"inputs": [
				{
					"internalType": "address",
					"name": "",
					"type": "address"
				}
			],
			"name": "playerLatestGameLogIdMap",
			"outputs": [
				{
					"internalType": "uint256",
					"name": "",
					"type": "uint256"
				}
			],
			"stateMutability": "view",
			"type": "function"
		},
		{
			"inputs": [
				{
					"internalType": "address",
					"name": "",
					"type": "address"
				},
				{
					"internalType": "uint256",
					"name": "",
					"type": "uint256"
				}
			],
			"name": "playerSkinLevelMap",
			"outputs": [
				{
					"internalType": "uint256",
					"name": "",
					"type": "uint256"
				}
			],
			"stateMutability": "view",
			"type": "function"
		},
		{
			"inputs": [
				{
					"internalType": "address",
					"name": "",
					"type": "address"
				},
				{
					"internalType": "uint256",
					"name": "",
					"type": "uint256"
				}
			],
			"name": "playerSkinMap",
			"outputs": [
				{
					"internalType": "uint256",
					"name": "",
					"type": "uint256"
				}
			],
			"stateMutability": "view",
			"type": "function"
		},
		{
			"inputs": [
				{
					"internalType": "address",
					"name": "",
					"type": "address"
				},
				{
					"internalType": "uint256",
					"name": "",
					"type": "uint256"
				}
			],
			"name": "playerWeaponLevelMap",
			"outputs": [
				{
					"internalType": "uint256",
					"name": "",
					"type": "uint256"
				}
			],
			"stateMutability": "view",
			"type": "function"
		},
		{
			"inputs": [
				{
					"internalType": "address",
					"name": "",
					"type": "address"
				},
				{
					"internalType": "uint256",
					"name": "",
					"type": "uint256"
				}
			],
			"name": "playerWeaponMap",
			"outputs": [
				{
					"internalType": "uint256",
					"name": "",
					"type": "uint256"
				}
			],
			"stateMutability": "view",
			"type": "function"
		},
		{
			"inputs": [
				{
					"internalType": "uint256",
					"name": "_requestId",
					"type": "uint256"
				},
				{
					"internalType": "uint256[]",
					"name": "_randomWords",
					"type": "uint256[]"
				}
			],
			"name": "rawFulfillRandomWords",
			"outputs": [],
			"stateMutability": "nonpayable",
			"type": "function"
		},
		{
			"inputs": [],
			"name": "reLive",
			"outputs": [],
			"stateMutability": "payable",
			"type": "function"
		},
		{
			"inputs": [
				{
					"internalType": "uint256",
					"name": "",
					"type": "uint256"
				}
			],
			"name": "receivers",
			"outputs": [
				{
					"internalType": "address",
					"name": "",
					"type": "address"
				}
			],
			"stateMutability": "view",
			"type": "function"
		},
		{
			"inputs": [],
			"name": "requestLottery",
			"outputs": [
				{
					"internalType": "uint256",
					"name": "",
					"type": "uint256"
				}
			],
			"stateMutability": "payable",
			"type": "function"
		},
		{
			"inputs": [
				{
					"internalType": "uint256",
					"name": "",
					"type": "uint256"
				}
			],
			"name": "routers",
			"outputs": [
				{
					"internalType": "address",
					"name": "",
					"type": "address"
				}
			],
			"stateMutability": "view",
			"type": "function"
		},
		{
			"inputs": [],
			"name": "startGame",
			"outputs": [],
			"stateMutability": "payable",
			"type": "function"
		},
		{
			"inputs": [
				{
					"internalType": "bytes4",
					"name": "interfaceId",
					"type": "bytes4"
				}
			],
			"name": "supportsInterface",
			"outputs": [
				{
					"internalType": "bool",
					"name": "",
					"type": "bool"
				}
			],
			"stateMutability": "pure",
			"type": "function"
		},
		{
			"inputs": [
				{
					"internalType": "uint256",
					"name": "",
					"type": "uint256"
				}
			],
			"name": "topChainIndex",
			"outputs": [
				{
					"internalType": "uint256",
					"name": "",
					"type": "uint256"
				}
			],
			"stateMutability": "view",
			"type": "function"
		},
		{
			"inputs": [
				{
					"internalType": "uint256",
					"name": "",
					"type": "uint256"
				}
			],
			"name": "topGradeList",
			"outputs": [
				{
					"internalType": "uint256",
					"name": "",
					"type": "uint256"
				}
			],
			"stateMutability": "view",
			"type": "function"
		},
		{
			"inputs": [
				{
					"internalType": "uint256",
					"name": "",
					"type": "uint256"
				}
			],
			"name": "topPlayerList",
			"outputs": [
				{
					"internalType": "address",
					"name": "",
					"type": "address"
				}
			],
			"stateMutability": "view",
			"type": "function"
		},
		{
			"inputs": [],
			"name": "totalGame",
			"outputs": [
				{
					"internalType": "uint256",
					"name": "",
					"type": "uint256"
				}
			],
			"stateMutability": "view",
			"type": "function"
		},
		{
			"inputs": [
				{
					"internalType": "address",
					"name": "to",
					"type": "address"
				}
			],
			"name": "transferOwnership",
			"outputs": [],
			"stateMutability": "nonpayable",
			"type": "function"
		},
		{
			"inputs": [
				{
					"internalType": "address[]",
					"name": "receiverList",
					"type": "address[]"
				}
			],
			"name": "updateReceivers",
			"outputs": [],
			"stateMutability": "nonpayable",
			"type": "function"
		},
		{
			"inputs": [],
			"name": "withdrawLink",
			"outputs": [],
			"stateMutability": "nonpayable",
			"type": "function"
		},
		{
			"inputs": [
				{
					"internalType": "uint256",
					"name": "",
					"type": "uint256"
				}
			],
			"name": "wrapperAddressList",
			"outputs": [
				{
					"internalType": "address",
					"name": "",
					"type": "address"
				}
			],
			"stateMutability": "view",
			"type": "function"
		},
		{
			"inputs": [
				{
					"internalType": "uint256",
					"name": "",
					"type": "uint256"
				}
			],
			"name": "zkTimeProofAddressList",
			"outputs": [
				{
					"internalType": "address",
					"name": "",
					"type": "address"
				}
			],
			"stateMutability": "view",
			"type": "function"
		}
	]
}