{
	"data": {
		"bytecode": {
			"linkReferences": {},
			"object": "6000600255610120604052730bf3de8c5d3e8a2b34d2beeb17abfcebaf363a5960c090815273f694e193200268f9a4868e4aa017a0118c9a817760e052739c32fcb86bf0f4a1a8921a9fe46de3198bb884b2610100526200006490600390816200067e565b506040805160608101825273779877a7b0d9e8603169ddbd7836e478b46247898152730b9d5d9136855f6fec3c0993fee6e9ce8a2978466020820152730fd9e8d3af1aaee056eb9e802c3a762a667b190491810191909152620000cc9060069060036200067e565b506040805160608101825273195f15f2d49d693ce265b4fb0fddbe15b1850cc1815273327b83f409e1d5f13985c6d0584420fa648f1f566020820152736e6c366a1cd1f92ba87fd6f96f743b0e6c967bf091810191909152620001349060099060036200067e565b506040805160608101825267de41ba4fc9d91ad9815267ccf0a31a221f3c9b602082015267e1f4423f1bf587cd918101919091526200017890600c906003620006db565b506000603d553480156200018b57600080fd5b506040516200370638038062003706833981016040819052620001ae9162000794565b3380600060098460038110620001c857620001c8620007ae565b015460408051630711a57d60e21b815290516001600160a01b039092169182918291631c4695f4916004808201926020929091908290030181865afa15801562000216573d6000803e3d6000fd5b505050506040513d601f19601f820116820180604052508101906200023c9190620007c4565b6001600160a01b0390811660805290811660a05283169050620002a65760405162461bcd60e51b815260206004820152601860248201527f43616e6e6f7420736574206f776e657220746f207a65726f000000000000000060448201526064015b60405180910390fd5b600080546001600160a01b0319166001600160a01b0384811691909117909155811615620002d957620002d981620002f2565b5050506002819055620002eb6200039d565b50620007f6565b336001600160a01b038216036200034c5760405162461bcd60e51b815260206004820152601760248201527f43616e6e6f74207472616e7366657220746f2073656c6600000000000000000060448201526064016200029d565b600180546001600160a01b0319166001600160a01b0383811691821790925560008054604051929316917fed8889f560326eb138920d842192f0eb3dd22b4f139c87a2c57538e05bae12789190a350565b620003a762000620565b6040805180820182526000808252606460208084019182526013805460018181018355828652955160029182027f66de8ffda797e3de9c05e8fc57b3bf0ec28a930d40b0d285d93c06501cf6a0908181019290925594517f66de8ffda797e3de9c05e8fc57b3bf0ec28a930d40b0d285d93c06501cf6a091958601558751808901895286815260328186018181528554808b018755868a5292519285028085019390935551918701919091558851808a018a52888152600a8187019081528554808b018755868a5291519185028085019290925551908701558851808a018a528781528086018281528554808b018755868a5291519185028085019290925551908701558851808a018a5287815260968187019081528554808b018755868a5291519185028085019290925551908701558851808a018a52600380825260128288019081528654808c018855878b5292519286028086019390935551918801919091558951808b018b5288815260c88188018181528754808d018955888c5292519287028087019390935551918901919091558a51808c018c528981528088018481528754808d018955888c5291519187028087019290925551908901558a51808c018c528a815260148189019081528754808d018955888c5291519187028087019290925551908901558a51808c018c528981528088019384528654808c018855878b529051908602808601919091559251928801929092558951808b018b528881528087019283528554808b018755868a529051908502808501919091559151918701919091558851808a019099528852600993880193845282549687018355919094529451939092029384019290925551910155565b6000546001600160a01b031633146200067c5760405162461bcd60e51b815260206004820152601660248201527f4f6e6c792063616c6c61626c65206279206f776e65720000000000000000000060448201526064016200029d565b565b8260038101928215620006c9579160200282015b82811115620006c957825182546001600160a01b0319166001600160a01b0390911617825560209092019160019091019062000692565b50620006d79291506200077d565b5090565b600183019183908215620006c95791602002820160005b838211156200073e57835183826101000a8154816001600160401b0302191690836001600160401b031602179055509260200192600801602081600701049283019260010302620006f2565b8015620007735782816101000a8154906001600160401b0302191690556008016020816007010492830192600103026200073e565b5050620006d79291505b5b80821115620006d757600081556001016200077e565b600060208284031215620007a757600080fd5b5051919050565b634e487b7160e01b600052603260045260246000fd5b600060208284031215620007d757600080fd5b81516001600160a01b0381168114620007ef57600080fd5b9392505050565b60805160a051612ec76200083f600039600081816104a201528181610786015281816121da01528181612278015261232201526000818161069201526122490152612ec76000f3fe608060405234801561001057600080fd5b50600436106102695760003560e01c80639ed0868d11610151578063d252682d116100c3578063e76d516811610087578063e76d516814610690578063e8af8c0d146106b6578063ea029701146106c9578063f2683ecd146106dc578063f2fde38b14610707578063fa3b11d21461071a57600080fd5b8063d252682d146105dc578063d272e57e146105ef578063d5540a27146105f8578063d65ab5f21461060b578063df4f55321461061357600080fd5b8063bac009d311610115578063bac009d31461052a578063bfd772fc14610555578063c8f33c9114610568578063cc216aba14610571578063cdc7bc8714610584578063d0d5117e146105c457600080fd5b80639ed0868d1461049d578063a029c405146104c4578063a55e1d45146104e4578063b3b2875e146104f7578063b76ee4a81461051757600080fd5b806349c9d17a116101ea57806385572ffb116101ae57806385572ffb1461043657806385f9ce72146104495780638da5cb5b1461045c5780638dc654a21461046d57806391f543511461047557806392e0c91a1461049557600080fd5b806349c9d17a1461037d5780634e9c11181461039057806367c58157146103a35780636906a2e91461040e57806379ba50971461042e57600080fd5b80632bf34fbd116102315780632bf34fbd146102f35780633236f6ae1461031e578063380149ab146103355780633db497de1461035d57806344b7e83c1461036557600080fd5b806301ffc9a71461026e57806310fa78791461029657806311b7aad5146102c157806312065fe0146102d85780631fe543e3146102de575b600080fd5b61028161027c3660046124f3565b61072d565b60405190151581526020015b60405180910390f35b6102a96102a4366004612524565b610764565b6040516001600160a01b03909116815260200161028d565b6102ca60025481565b60405190815260200161028d565b476102ca565b6102f16102ec3660046125f0565b610784565b005b610306610301366004612524565b6107f3565b6040516001600160401b03909116815260200161028d565b610326610826565b60405161028d93929190612691565b610348610343366004612524565b61097d565b6040805192835260208301919091520161028d565b6102f16109ab565b61036d610c2c565b60405161028d94939291906126fa565b6102f161038b36600461274b565b610d0c565b6102a961039e366004612524565b610dd3565b6103fe6103b1366004612524565b601560209081526000918252604091829020805460018201546002830154855180870190965260048401548652600590930154938501939093526001600160a01b03169260ff9091169084565b60405161028d94939291906127d9565b6102ca61041c36600461280d565b603b6020526000908152604090205481565b6102f1610de3565b6102f161044436600461282a565b610e8d565b6102f1610457366004612524565b610ee2565b6000546001600160a01b03166102a9565b6102f16110fe565b6102ca61048336600461280d565b601b6020526000908152604090205481565b6102ca6112c9565b6102a97f000000000000000000000000000000000000000000000000000000000000000081565b6102ca6104d236600461280d565b601a6020526000908152604090205481565b6102ca6104f2366004612864565b61141c565b6102ca61050536600461280d565b60146020526000908152604090205481565b6102ca610525366004612524565b61144d565b6102ca610538366004612864565b601760209081526000928352604080842090915290825290205481565b6102a9610563366004612524565b611464565b6102ca603a5481565b6102f161057f366004612524565b611474565b60105460115460125461059f926001600160a01b0316919083565b604080516001600160a01b03909416845260208401929092529082015260600161028d565b6105cc611571565b60405161028d94939291906128b9565b6102a96105ea366004612524565b611642565b6102ca603d5481565b6102ca610606366004612864565b611652565b6102f161166e565b61065a610621366004612524565b603c6020526000908152604090208054600182015460028301546003840154600490940154929391926001600160a01b03909116919085565b6040805195865260208601949094526001600160a01b03909216928401929092526060830191909152608082015260a00161028d565b7f00000000000000000000000000000000000000000000000000000000000000006102a9565b6102ca6106c4366004612524565b6116c1565b6102a96106d7366004612524565b6116d1565b6102ca6106ea366004612864565b601960209081526000928352604080842090915290825290205481565b6102f161071536600461280d565b6116e1565b6102f1610728366004612524565b6116f2565b60006001600160e01b031982166385572ffb60e01b148061075e57506001600160e01b031982166301ffc9a760e01b145b92915050565b6009816003811061077457600080fd5b01546001600160a01b0316905081565b7f0000000000000000000000000000000000000000000000000000000000000000336001600160a01b038216146107e4576040516345d498b760e11b81523360048201526001600160a01b03821660248201526044015b60405180910390fd5b6107ee83836117e5565b505050565b600c816003811061080357600080fd5b60049182820401919006600802915054906101000a90046001600160401b031681565b600080610846604051806040016040528060008152602001600081525090565b336000908152601460209081526040808320548084526015909252909120600101546108a85760405162461bcd60e51b81526020600482015260116024820152701c995c5d595cdd081b9bdd08199bdd5b99607a1b60448201526064016107db565b6000818152601560209081526040808320815160a08101835281546001600160a01b03168152600182015481850152600282015460ff1615158184015260038201805484518187028101870190955280855291949293606086019390929083018282801561093557602002820191906000526020600020905b815481526020019060010190808311610921575b50505091835250506040805180820182526004840154815260059093015460208481019190915291820192909252820151908201516080909201519097919650945092505050565b6013818154811061098d57600080fd5b60009182526020909120600290910201805460019091015490915082565b6109b3611a70565b6040805180820182526000808252606460208084019182526013805460018181018355828652955160029182027f66de8ffda797e3de9c05e8fc57b3bf0ec28a930d40b0d285d93c06501cf6a0908181019290925594517f66de8ffda797e3de9c05e8fc57b3bf0ec28a930d40b0d285d93c06501cf6a091958601558751808901895286815260328186018181528554808b018755868a5292519285028085019390935551918701919091558851808a018a52888152600a8187019081528554808b018755868a5291519185028085019290925551908701558851808a018a528781528086018281528554808b018755868a5291519185028085019290925551908701558851808a018a5287815260968187019081528554808b018755868a5291519185028085019290925551908701558851808a018a52600380825260128288019081528654808c018855878b5292519286028086019390935551918801919091558951808b018b5288815260c88188018181528754808d018955888c5292519287028087019390935551918901919091558a51808c018c528981528088018481528754808d018955888c5291519187028087019290925551908901558a51808c018c528a815260148189019081528754808d018955888c5291519187028087019290925551908901558a51808c018c528981528088019384528654808c018855878b529051908602808601919091559251928801929092558951808b018b528881528087019283528554808b018755868a529051908502808501919091559151918701919091558851808a019099528852600993880193845282549687018355919094529451939092029384019290925551910155565b336000908152601a6020908152604080832054601b8352818420546016845282852060188552838620815485518188028101880190965280865287966060968796959493929091849190830182828015610ca557602002820191906000526020600020905b815481526020019060010190808311610c91575b5050505050915080805480602002602001604051908101604052809291908181526020018280548015610cf757602002820191906000526020600020905b815481526020019060010190808311610ce3575b50505050509050935093509350935090919293565b610d14611a70565b6003815114610d655760405162461bcd60e51b815260206004820152601960248201527f72656365697665724c697374206973206e6f742076616c69640000000000000060448201526064016107db565b60005b8151811015610dcf57818181518110610d8357610d8361291a565b6020026020010151600d8260038110610d9e57610d9e61291a565b0180546001600160a01b0319166001600160a01b039290921691909117905580610dc781612946565b915050610d68565b5050565b6003816003811061077457600080fd5b6001546001600160a01b03163314610e365760405162461bcd60e51b815260206004820152601660248201527526bab9ba10313290383937b837b9b2b21037bbb732b960511b60448201526064016107db565b60008054336001600160a01b0319808316821784556001805490911690556040516001600160a01b0390921692909183917f8be0079c531659141344cd1fd0a4f28419497f9722a3daafe3b4186f6b6457e091a350565b600360025460038110610ea257610ea261291a565b01546001600160a01b03163314610ece576040516335fdcccd60e21b81523360048201526024016107db565b610edf610eda82612a7d565b611ac5565b50565b603d80546000908152603c60209081526040808320426001909101559254825290829020600401839055815160608101835233815290810183905260025491810191909152610f3090611bb7565b60005b600381101561107f576000600c8260038110610f5157610f5161291a565b600491828204019190066008029054906101000a90046001600160401b031690506000600d8360038110610f8757610f8761291a565b01546002546001600160a01b0390911691506001600160401b03831690600c9060038110610fb757610fb761291a565b600491828204019190066008029054906101000a90046001600160401b03166001600160401b031614158015610ff557506001600160a01b03811615155b1561106a5761106882826006600254600381106110145761101461291a565b01546002546001600160a01b03909116906003908181106110375761103761291a565b015460408051606081018252338152602081018b9052600254918101919091526001600160a01b0390911690611daf565b505b5050808061107790612946565b915050610f33565b50603d546000908152603c60209081526040918290208054600182015460028301546003909301548551928352938201526001600160a01b03909116928101929092526060820183905260808201527f66286673e71e7c3a4012d09fbb56001733372c438dc9ba84cc4ca1ef2c84a2b09060a00160405180910390a150565b611106611a70565b60006001600160a01b03166006600254600381106111265761112661291a565b01546001600160a01b03160361118a5760405162461bcd60e51b8152602060048201526024808201527f6572726f723a2077697468647261774c696e6b206973206e6f7420737570706f6044820152631c9d195960e21b60648201526084016107db565b60006006600254600381106111a1576111a161291a565b01546040516370a0823160e01b81523060048201526001600160a01b039091169150819063a9059cbb90339083906370a0823190602401602060405180830381865afa1580156111f5573d6000803e3d6000fd5b505050506040513d601f19601f820116820180604052508101906112199190612b29565b6040516001600160e01b031960e085901b1681526001600160a01b03909216600483015260248201526044016020604051808303816000875af1158015611264573d6000803e3d6000fd5b505050506040513d601f19601f820116820180604052508101906112889190612b42565b610edf5760405162461bcd60e51b81526020600482015260126024820152712ab730b13632903a37903a3930b739b332b960711b60448201526064016107db565b60006112d3611a70565b60006112ef604051806020016040528060001515815250612139565b9050600080611305621e848060036001866121aa565b6040805160a0810182523381526020808201848152600083850181815285518281528085018752606086019081528651808801885283815280860184905260808701528883526015855295909120845181546001600160a01b0319166001600160a01b03909116178155915160018301555160028201805460ff191691151591909117905592518051959750939550909391926113ab9260038501929190910190612474565b5060809190910151805160048301556020908101516005909201919091553360009081526014825260409081902084905580518481526001928101929092527f3279bde246f2449036f4a5a85e935ae7cb08612c5645c2673490d2fd624683ae910160405180910390a15091505090565b6016602052816000526040600020818154811061143857600080fd5b90600052602060002001600091509150505481565b601c81600a811061145d57600080fd5b0154905081565b600d816003811061077457600080fd5b336000908152601660209081526040808320805482518185028101850190935280835291929091908301828280156114cb57602002820191906000526020600020905b8154815260200190600101908083116114b7575b505050505090506000805b825181101561151657838382815181106114f2576114f261291a565b60200260200101510361150457600191505b8061150e81612946565b9150506114d6565b50801561154d57336000908152601760209081526040808320868452909152812080549161154383612946565b9190505550505050565b50503360009081526016602090815260408220805460018101825590835291200155565b6115796124bf565b6115816124bf565b6115896124bf565b603a5460408051610140810191829052600092601c92603092602692918590600a9082845b8154815260200190600101908083116115ae57505060408051610140810191829052949850879350600a9250905082845b8154815260200190600101908083116115df57505060408051610140810191829052949750869350600a9250905082845b81546001600160a01b031681526001909101906020018083116116105750505050509150935093509350935090919293565b602681600a811061077457600080fd5b6018602052816000526040600020818154811061143857600080fd5b603d8054336000818152603b60209081526040808320859055938252603c9052828120429055835481529190912060020180546001600160a01b0319169091179055546116bc906001612b64565b603d55565b603081600a811061145d57600080fd5b6006816003811061077457600080fd5b6116e9611a70565b610edf816123ad565b3360009081526018602090815260408083208054825181850281018501909352808352919290919083018282801561174957602002820191906000526020600020905b815481526020019060010190808311611735575b505050505090506000805b825181101561179457838382815181106117705761177061291a565b60200260200101510361178257600191505b8061178c81612946565b915050611754565b5080156117c157336000908152601960209081526040808320868452909152812080549161154383612946565b50503360009081526018602090815260408220805460018101825590835291200155565b600081511161182e5760405162461bcd60e51b81526020600482015260156024820152741c985b991bdb55dbdc991cc81b9bdd08199bdd5b99605a1b60448201526064016107db565b6000828152601560205260409020600101546118805760405162461bcd60e51b81526020600482015260116024820152701c995c5d595cdd081b9bdd08199bdd5b99607a1b60448201526064016107db565b60006013805490508260008151811061189b5761189b61291a565b60200260200101516118ad9190612b8d565b90506000601382815481106118c4576118c461291a565b6000918252602080832060408051808201825260029485029092018054835260019081015483850152898652601584529420928301805460ff1916909417909355855192935061191d9260039092019190860190612474565b5060008481526015602090815260408220835160048201819055918401516005820155546001600160a01b03169103611994578160200151601a6000836001600160a01b03166001600160a01b0316815260200190815260200160002060008282546119899190612b64565b90915550611a1a9050565b81516001036119d6578160200151601b6000836001600160a01b03166001600160a01b0316815260200190815260200160002060008282546119899190612b64565b8151600214611a1a578151600303611a1a576001600160a01b0381166000908152601660209081526040822084820151815460018101835591845291909220909101555b600085815260156020526040908190206001015490517f8c5eb6455fc6d271f045db3f6049931e0b5372962417d81dcc38fc0bebe8d14191611a6191889188918790612ba1565b60405180910390a15050505050565b6000546001600160a01b03163314611ac35760405162461bcd60e51b815260206004820152601660248201527527b7363c9031b0b63630b1363290313c9037bbb732b960511b60448201526064016107db565b565b8060600151806020019051810190611add9190612bd9565b8051601080546001600160a01b0319166001600160a01b0390921691821790556020808301516011819055604093840151601281905584516060810186529384529183015291810191909152611b3290611bb7565b80602001516001600160401b031681600001517faa5cbdcf4f25939d41be3032075952cfd5f51f978a501d2f801d671061623f1d8360400151806020019051810190611b7e9190612c3a565b604080516001600160a01b039283168152601054909216602083015260115490820152601254606082015260800160405180910390a350565b60208101518151604083015182601c611bd26001600a612c57565b600a8110611be257611be261291a565b01541015611da557600080611bf96001600a612c57565b905060005b81831015611c54576002611c128385612b64565b611c1c9190612c6a565b905085601c82600a8110611c3257611c3261291a565b01541015611c4257809150611bfe565b611c4d816001612b64565b9250611bfe565b6000611c626001600a612c57565b90505b83811115611d4157601c611c7a600183612c57565b600a8110611c8a57611c8a61291a565b0154601c82600a8110611c9f57611c9f61291a565b01556026611cae600183612c57565b600a8110611cbe57611cbe61291a565b01546001600160a01b0316602682600a8110611cdc57611cdc61291a565b0180546001600160a01b0319166001600160a01b03929092169190911790556030611d08600183612c57565b600a8110611d1857611d1861291a565b0154603082600a8110611d2d57611d2d61291a565b015580611d3981612c7e565b915050611c65565b5085601c84600a8110611d5657611d5661291a565b015584602684600a8110611d6c57611d6c61291a565b0180546001600160a01b0319166001600160a01b039290921691909117905583603084600a8110611d9f57611d9f61291a565b01555050505b505042603a555050565b6040805160a081019091526001600160a01b03851660c08201526000908490849083908060e08101604051602081830303815290604052815260200186604051602001611dfc9190612c95565b60408051601f1981840301815291905281526020016000604051908082528060200260200182016040528015611e5857816020015b6040805180820190915260008082526020820152815260200190600190039081611e315790505b508152602001886001600160a01b03168152602001611e87604051806020016040528062030d40815250612456565b90526040516320487ded60e01b81529091506000906001600160a01b038416906320487ded90611ebd908d908690600401612d05565b602060405180830381865afa158015611eda573d6000803e3d6000fd5b505050506040513d601f19601f82011682018060405250810190611efe9190612b29565b6040516370a0823160e01b81523060048201529091506001600160a01b038516906370a0823190602401602060405180830381865afa158015611f45573d6000803e3d6000fd5b505050506040513d601f19601f82011682018060405250810190611f699190612b29565b811115611ffc576040516370a0823160e01b81523060048201526001600160a01b038516906370a0823190602401602060405180830381865afa158015611fb4573d6000803e3d6000fd5b505050506040513d601f19601f82011682018060405250810190611fd89190612b29565b604051634787a10360e11b81526004810191909152602481018290526044016107db565b60405163095ea7b360e01b81526001600160a01b0384811660048301526024820183905285169063095ea7b3906044016020604051808303816000875af115801561204b573d6000803e3d6000fd5b505050506040513d601f19601f8201168201806040525081019061206f9190612b42565b506040516396f4e9f960e01b81526001600160a01b038416906396f4e9f99061209e908d908690600401612d05565b6020604051808303816000875af11580156120bd573d6000803e3d6000fd5b505050506040513d601f19601f820116820180604052508101906120e19190612b29565b9450896001600160401b0316857fd0d85f1cc5ab17f712b6074d702edd6281031e603c5cf76890a85b1170045b3a8b898c866040516121239493929190612dde565b60405180910390a3505050505b95945050505050565b60607f92fd13387c7fe7befbc38d303d6468778fb9731bc4583f17d92989c6fcfdeaaa8260405160240161217291511515815260200190565b60408051601f198184030181529190526020810180516001600160e01b03166001600160e01b03199093169290921790915292915050565b6040516313f2e28560e11b815263ffffffff80861660048301528316602482015260009081906001600160a01b037f000000000000000000000000000000000000000000000000000000000000000016906327e5c50a90604401602060405180830381865afa158015612221573d6000803e3d6000fd5b505050506040513d601f19601f820116820180604052508101906122459190612b29565b90507f00000000000000000000000000000000000000000000000000000000000000006001600160a01b0316634000aea07f000000000000000000000000000000000000000000000000000000000000000083898989896040516020016122af9493929190612e2d565b6040516020818303038152906040526040518463ffffffff1660e01b81526004016122dc93929190612e6a565b6020604051808303816000875af11580156122fb573d6000803e3d6000fd5b505050506040513d601f19601f8201168201806040525081019061231f9190612b42565b507f00000000000000000000000000000000000000000000000000000000000000006001600160a01b031663fc2a88c36040518163ffffffff1660e01b8152600401602060405180830381865afa15801561237e573d6000803e3d6000fd5b505050506040513d601f19601f820116820180604052508101906123a29190612b29565b915094509492505050565b336001600160a01b038216036124055760405162461bcd60e51b815260206004820152601760248201527f43616e6e6f74207472616e7366657220746f2073656c6600000000000000000060448201526064016107db565b600180546001600160a01b0319166001600160a01b0383811691821790925560008054604051929316917fed8889f560326eb138920d842192f0eb3dd22b4f139c87a2c57538e05bae12789190a350565b604051815160248201526060906397a657c960e01b90604401612172565b8280548282559060005260206000209081019282156124af579160200282015b828111156124af578251825591602001919060010190612494565b506124bb9291506124de565b5090565b604051806101400160405280600a906020820280368337509192915050565b5b808211156124bb57600081556001016124df565b60006020828403121561250557600080fd5b81356001600160e01b03198116811461251d57600080fd5b9392505050565b60006020828403121561253657600080fd5b5035919050565b634e487b7160e01b600052604160045260246000fd5b604080519081016001600160401b03811182821017156125755761257561253d565b60405290565b60405160a081016001600160401b03811182821017156125755761257561253d565b604051601f8201601f191681016001600160401b03811182821017156125c5576125c561253d565b604052919050565b60006001600160401b038211156125e6576125e661253d565b5060051b60200190565b6000806040838503121561260357600080fd5b823591506020808401356001600160401b0381111561262157600080fd5b8401601f8101861361263257600080fd5b8035612645612640826125cd565b61259d565b81815260059190911b8201830190838101908883111561266457600080fd5b928401925b8284101561268257833582529284019290840190612669565b80955050505050509250929050565b8381528215156020820152608081016126b7604083018480518252602090810151910152565b949350505050565b600081518084526020808501945080840160005b838110156126ef578151875295820195908201906001016126d3565b509495945050505050565b84815283602082015260806040820152600061271960808301856126bf565b828103606084015261272b81856126bf565b979650505050505050565b6001600160a01b0381168114610edf57600080fd5b6000602080838503121561275e57600080fd5b82356001600160401b0381111561277457600080fd5b8301601f8101851361278557600080fd5b8035612793612640826125cd565b81815260059190911b820183019083810190878311156127b257600080fd5b928401925b8284101561272b5783356127ca81612736565b825292840192908401906127b7565b6001600160a01b03851681526020808201859052831515604083015282516060830152820151608082015260a08101612130565b60006020828403121561281f57600080fd5b813561251d81612736565b60006020828403121561283c57600080fd5b81356001600160401b0381111561285257600080fd5b820160a0818503121561251d57600080fd5b6000806040838503121561287757600080fd5b823561288281612736565b946020939093013593505050565b8060005b600a8110156128b3578151845260209384019390910190600101612894565b50505050565b6103e081016128c88287612890565b6128d6610140830186612890565b61028082018460005b600a8110156129075781516001600160a01b03168352602092830192909101906001016128df565b505050826103c083015295945050505050565b634e487b7160e01b600052603260045260246000fd5b634e487b7160e01b600052601160045260246000fd5b60006001820161295857612958612930565b5060010190565b80356001600160401b038116811461297657600080fd5b919050565b600082601f83011261298c57600080fd5b81356001600160401b038111156129a5576129a561253d565b6129b8601f8201601f191660200161259d565b8181528460208386010111156129cd57600080fd5b816020850160208301376000918101602001919091529392505050565b600082601f8301126129fb57600080fd5b81356020612a0b612640836125cd565b82815260069290921b84018101918181019086841115612a2a57600080fd5b8286015b84811015612a725760408189031215612a475760008081fd5b612a4f612553565b8135612a5a81612736565b81528185013585820152835291830191604001612a2e565b509695505050505050565b600060a08236031215612a8f57600080fd5b612a9761257b565b82358152612aa76020840161295f565b602082015260408301356001600160401b0380821115612ac657600080fd5b612ad23683870161297b565b60408401526060850135915080821115612aeb57600080fd5b612af73683870161297b565b60608401526080850135915080821115612b1057600080fd5b50612b1d368286016129ea565b60808301525092915050565b600060208284031215612b3b57600080fd5b5051919050565b600060208284031215612b5457600080fd5b8151801515811461251d57600080fd5b8082018082111561075e5761075e612930565b634e487b7160e01b600052601260045260246000fd5b600082612b9c57612b9c612b77565b500690565b84815260a060208201526000612bba60a08301866126bf565b6040830185905283516060840152602084015160808401529050612130565b600060608284031215612beb57600080fd5b604051606081018181106001600160401b0382111715612c0d57612c0d61253d565b6040528251612c1b81612736565b8152602083810151908201526040928301519281019290925250919050565b600060208284031215612c4c57600080fd5b815161251d81612736565b8181038181111561075e5761075e612930565b600082612c7957612c79612b77565b500490565b600081612c8d57612c8d612930565b506000190190565b81516001600160a01b0316815260208083015190820152604080830151908201526060810161075e565b6000815180845260005b81811015612ce557602081850181015186830182015201612cc9565b506000602082860101526020601f19601f83011685010191505092915050565b600060406001600160401b038516835260208181850152845160a083860152612d3160e0860182612cbf565b905081860151603f1980878403016060880152612d4e8383612cbf565b88860151888203830160808a01528051808352908601945060009350908501905b80841015612da157845180516001600160a01b0316835286015186830152938501936001939093019290860190612d6f565b5060608901516001600160a01b031660a08901526080890151888203830160c08a01529550612dd08187612cbf565b9a9950505050505050505050565b6001600160a01b03858116825260c0820190612e1a602084018780516001600160a01b0316825260208082015190830152604090810151910152565b93909316608082015260a0015292915050565b600063ffffffff808716835261ffff8616602084015280851660408401525060806060830152612e606080830184612cbf565b9695505050505050565b60018060a01b03841681528260208201526060604082015260006121306060830184612cbf56fea26469706673582212201cd2be917e79aafd56743cf44eb185f77a8e0e9d9f073ce4c5eacd3e4cc846cd64736f6c63430008130033",
			"opcodes": "PUSH1 0x0 PUSH1 0x2 SSTORE PUSH2 0x120 PUSH1 0x40 MSTORE PUSH20 0xBF3DE8C5D3E8A2B34D2BEEB17ABFCEBAF363A59 PUSH1 0xC0 SWAP1 DUP2 MSTORE PUSH20 0xF694E193200268F9A4868E4AA017A0118C9A8177 PUSH1 0xE0 MSTORE PUSH20 0x9C32FCB86BF0F4A1A8921A9FE46DE3198BB884B2 PUSH2 0x100 MSTORE PUSH3 0x64 SWAP1 PUSH1 0x3 SWAP1 DUP2 PUSH3 0x67E JUMP JUMPDEST POP PUSH1 0x40 DUP1 MLOAD PUSH1 0x60 DUP2 ADD DUP3 MSTORE PUSH20 0x779877A7B0D9E8603169DDBD7836E478B4624789 DUP2 MSTORE PUSH20 0xB9D5D9136855F6FEC3C0993FEE6E9CE8A297846 PUSH1 0x20 DUP3 ADD MSTORE PUSH20 0xFD9E8D3AF1AAEE056EB9E802C3A762A667B1904 SWAP2 DUP2 ADD SWAP2 SWAP1 SWAP2 MSTORE PUSH3 0xCC SWAP1 PUSH1 0x6 SWAP1 PUSH1 0x3 PUSH3 0x67E JUMP JUMPDEST POP PUSH1 0x40 DUP1 MLOAD PUSH1 0x60 DUP2 ADD DUP3 MSTORE PUSH20 0x195F15F2D49D693CE265B4FB0FDDBE15B1850CC1 DUP2 MSTORE PUSH20 0x327B83F409E1D5F13985C6D0584420FA648F1F56 PUSH1 0x20 DUP3 ADD MSTORE PUSH20 0x6E6C366A1CD1F92BA87FD6F96F743B0E6C967BF0 SWAP2 DUP2 ADD SWAP2 SWAP1 SWAP2 MSTORE PUSH3 0x134 SWAP1 PUSH1 0x9 SWAP1 PUSH1 0x3 PUSH3 0x67E JUMP JUMPDEST POP PUSH1 0x40 DUP1 MLOAD PUSH1 0x60 DUP2 ADD DUP3 MSTORE PUSH8 0xDE41BA4FC9D91AD9 DUP2 MSTORE PUSH8 0xCCF0A31A221F3C9B PUSH1 0x20 DUP3 ADD MSTORE PUSH8 0xE1F4423F1BF587CD SWAP2 DUP2 ADD SWAP2 SWAP1 SWAP2 MSTORE PUSH3 0x178 SWAP1 PUSH1 0xC SWAP1 PUSH1 0x3 PUSH3 0x6DB JUMP JUMPDEST POP PUSH1 0x0 PUSH1 0x3D SSTORE CALLVALUE DUP1 ISZERO PUSH3 0x18B JUMPI PUSH1 0x0 DUP1 REVERT JUMPDEST POP PUSH1 0x40 MLOAD PUSH3 0x3706 CODESIZE SUB DUP1 PUSH3 0x3706 DUP4 CODECOPY DUP2 ADD PUSH1 0x40 DUP2 SWAP1 MSTORE PUSH3 0x1AE SWAP2 PUSH3 0x794 JUMP JUMPDEST CALLER DUP1 PUSH1 0x0 PUSH1 0x9 DUP5 PUSH1 0x3 DUP2 LT PUSH3 0x1C8 JUMPI PUSH3 0x1C8 PUSH3 0x7AE JUMP JUMPDEST ADD SLOAD PUSH1 0x40 DUP1 MLOAD PUSH4 0x711A57D PUSH1 0xE2 SHL DUP2 MSTORE SWAP1 MLOAD PUSH1 0x1 PUSH1 0x1 PUSH1 0xA0 SHL SUB SWAP1 SWAP3 AND SWAP2 DUP3 SWAP2 DUP3 SWAP2 PUSH4 0x1C4695F4 SWAP2 PUSH1 0x4 DUP1 DUP3 ADD SWAP3 PUSH1 0x20 SWAP3 SWAP1 SWAP2 SWAP1 DUP3 SWAP1 SUB ADD DUP2 DUP7 GAS STATICCALL ISZERO DUP1 ISZERO PUSH3 0x216 JUMPI RETURNDATASIZE PUSH1 0x0 DUP1 RETURNDATACOPY RETURNDATASIZE PUSH1 0x0 REVERT JUMPDEST POP POP POP POP PUSH1 0x40 MLOAD RETURNDATASIZE PUSH1 0x1F NOT PUSH1 0x1F DUP3 ADD AND DUP3 ADD DUP1 PUSH1 0x40 MSTORE POP DUP2 ADD SWAP1 PUSH3 0x23C SWAP2 SWAP1 PUSH3 0x7C4 JUMP JUMPDEST PUSH1 0x1 PUSH1 0x1 PUSH1 0xA0 SHL SUB SWAP1 DUP2 AND PUSH1 0x80 MSTORE SWAP1 DUP2 AND PUSH1 0xA0 MSTORE DUP4 AND SWAP1 POP PUSH3 0x2A6 JUMPI PUSH1 0x40 MLOAD PUSH3 0x461BCD PUSH1 0xE5 SHL DUP2 MSTORE PUSH1 0x20 PUSH1 0x4 DUP3 ADD MSTORE PUSH1 0x18 PUSH1 0x24 DUP3 ADD MSTORE PUSH32 0x43616E6E6F7420736574206F776E657220746F207A65726F0000000000000000 PUSH1 0x44 DUP3 ADD MSTORE PUSH1 0x64 ADD JUMPDEST PUSH1 0x40 MLOAD DUP1 SWAP2 SUB SWAP1 REVERT JUMPDEST PUSH1 0x0 DUP1 SLOAD PUSH1 0x1 PUSH1 0x1 PUSH1 0xA0 SHL SUB NOT AND PUSH1 0x1 PUSH1 0x1 PUSH1 0xA0 SHL SUB DUP5 DUP2 AND SWAP2 SWAP1 SWAP2 OR SWAP1 SWAP2 SSTORE DUP2 AND ISZERO PUSH3 0x2D9 JUMPI PUSH3 0x2D9 DUP2 PUSH3 0x2F2 JUMP JUMPDEST POP POP POP PUSH1 0x2 DUP2 SWAP1 SSTORE PUSH3 0x2EB PUSH3 0x39D JUMP JUMPDEST POP PUSH3 0x7F6 JUMP JUMPDEST CALLER PUSH1 0x1 PUSH1 0x1 PUSH1 0xA0 SHL SUB DUP3 AND SUB PUSH3 0x34C JUMPI PUSH1 0x40 MLOAD PUSH3 0x461BCD PUSH1 0xE5 SHL DUP2 MSTORE PUSH1 0x20 PUSH1 0x4 DUP3 ADD MSTORE PUSH1 0x17 PUSH1 0x24 DUP3 ADD MSTORE PUSH32 0x43616E6E6F74207472616E7366657220746F2073656C66000000000000000000 PUSH1 0x44 DUP3 ADD MSTORE PUSH1 0x64 ADD PUSH3 0x29D JUMP JUMPDEST PUSH1 0x1 DUP1 SLOAD PUSH1 0x1 PUSH1 0x1 PUSH1 0xA0 SHL SUB NOT AND PUSH1 0x1 PUSH1 0x1 PUSH1 0xA0 SHL SUB DUP4 DUP2 AND SWAP2 DUP3 OR SWAP1 SWAP3 SSTORE PUSH1 0x0 DUP1 SLOAD PUSH1 0x40 MLOAD SWAP3 SWAP4 AND SWAP2 PUSH32 0xED8889F560326EB138920D842192F0EB3DD22B4F139C87A2C57538E05BAE1278 SWAP2 SWAP1 LOG3 POP JUMP JUMPDEST PUSH3 0x3A7 PUSH3 0x620 JUMP JUMPDEST PUSH1 0x40 DUP1 MLOAD DUP1 DUP3 ADD DUP3 MSTORE PUSH1 0x0 DUP1 DUP3 MSTORE PUSH1 0x64 PUSH1 0x20 DUP1 DUP5 ADD SWAP2 DUP3 MSTORE PUSH1 0x13 DUP1 SLOAD PUSH1 0x1 DUP2 DUP2 ADD DUP4 SSTORE DUP3 DUP7 MSTORE SWAP6 MLOAD PUSH1 0x2 SWAP2 DUP3 MUL PUSH32 0x66DE8FFDA797E3DE9C05E8FC57B3BF0EC28A930D40B0D285D93C06501CF6A090 DUP2 DUP2 ADD SWAP3 SWAP1 SWAP3 SSTORE SWAP5 MLOAD PUSH32 0x66DE8FFDA797E3DE9C05E8FC57B3BF0EC28A930D40B0D285D93C06501CF6A091 SWAP6 DUP7 ADD SSTORE DUP8 MLOAD DUP1 DUP10 ADD DUP10 MSTORE DUP7 DUP2 MSTORE PUSH1 0x32 DUP2 DUP7 ADD DUP2 DUP2 MSTORE DUP6 SLOAD DUP1 DUP12 ADD DUP8 SSTORE DUP7 DUP11 MSTORE SWAP3 MLOAD SWAP3 DUP6 MUL DUP1 DUP6 ADD SWAP4 SWAP1 SWAP4 SSTORE MLOAD SWAP2 DUP8 ADD SWAP2 SWAP1 SWAP2 SSTORE DUP9 MLOAD DUP1 DUP11 ADD DUP11 MSTORE DUP9 DUP2 MSTORE PUSH1 0xA DUP2 DUP8 ADD SWAP1 DUP2 MSTORE DUP6 SLOAD DUP1 DUP12 ADD DUP8 SSTORE DUP7 DUP11 MSTORE SWAP2 MLOAD SWAP2 DUP6 MUL DUP1 DUP6 ADD SWAP3 SWAP1 SWAP3 SSTORE MLOAD SWAP1 DUP8 ADD SSTORE DUP9 MLOAD DUP1 DUP11 ADD DUP11 MSTORE DUP8 DUP2 MSTORE DUP1 DUP7 ADD DUP3 DUP2 MSTORE DUP6 SLOAD DUP1 DUP12 ADD DUP8 SSTORE DUP7 DUP11 MSTORE SWAP2 MLOAD SWAP2 DUP6 MUL DUP1 DUP6 ADD SWAP3 SWAP1 SWAP3 SSTORE MLOAD SWAP1 DUP8 ADD SSTORE DUP9 MLOAD DUP1 DUP11 ADD DUP11 MSTORE DUP8 DUP2 MSTORE PUSH1 0x96 DUP2 DUP8 ADD SWAP1 DUP2 MSTORE DUP6 SLOAD DUP1 DUP12 ADD DUP8 SSTORE DUP7 DUP11 MSTORE SWAP2 MLOAD SWAP2 DUP6 MUL DUP1 DUP6 ADD SWAP3 SWAP1 SWAP3 SSTORE MLOAD SWAP1 DUP8 ADD SSTORE DUP9 MLOAD DUP1 DUP11 ADD DUP11 MSTORE PUSH1 0x3 DUP1 DUP3 MSTORE PUSH1 0x12 DUP3 DUP9 ADD SWAP1 DUP2 MSTORE DUP7 SLOAD DUP1 DUP13 ADD DUP9 SSTORE DUP8 DUP12 MSTORE SWAP3 MLOAD SWAP3 DUP7 MUL DUP1 DUP7 ADD SWAP4 SWAP1 SWAP4 SSTORE MLOAD SWAP2 DUP9 ADD SWAP2 SWAP1 SWAP2 SSTORE DUP10 MLOAD DUP1 DUP12 ADD DUP12 MSTORE DUP9 DUP2 MSTORE PUSH1 0xC8 DUP2 DUP9 ADD DUP2 DUP2 MSTORE DUP8 SLOAD DUP1 DUP14 ADD DUP10 SSTORE DUP9 DUP13 MSTORE SWAP3 MLOAD SWAP3 DUP8 MUL DUP1 DUP8 ADD SWAP4 SWAP1 SWAP4 SSTORE MLOAD SWAP2 DUP10 ADD SWAP2 SWAP1 SWAP2 SSTORE DUP11 MLOAD DUP1 DUP13 ADD DUP13 MSTORE DUP10 DUP2 MSTORE DUP1 DUP9 ADD DUP5 DUP2 MSTORE DUP8 SLOAD DUP1 DUP14 ADD DUP10 SSTORE DUP9 DUP13 MSTORE SWAP2 MLOAD SWAP2 DUP8 MUL DUP1 DUP8 ADD SWAP3 SWAP1 SWAP3 SSTORE MLOAD SWAP1 DUP10 ADD SSTORE DUP11 MLOAD DUP1 DUP13 ADD DUP13 MSTORE DUP11 DUP2 MSTORE PUSH1 0x14 DUP2 DUP10 ADD SWAP1 DUP2 MSTORE DUP8 SLOAD DUP1 DUP14 ADD DUP10 SSTORE DUP9 DUP13 MSTORE SWAP2 MLOAD SWAP2 DUP8 MUL DUP1 DUP8 ADD SWAP3 SWAP1 SWAP3 SSTORE MLOAD SWAP1 DUP10 ADD SSTORE DUP11 MLOAD DUP1 DUP13 ADD DUP13 MSTORE DUP10 DUP2 MSTORE DUP1 DUP9 ADD SWAP4 DUP5 MSTORE DUP7 SLOAD DUP1 DUP13 ADD DUP9 SSTORE DUP8 DUP12 MSTORE SWAP1 MLOAD SWAP1 DUP7 MUL DUP1 DUP7 ADD SWAP2 SWAP1 SWAP2 SSTORE SWAP3 MLOAD SWAP3 DUP9 ADD SWAP3 SWAP1 SWAP3 SSTORE DUP10 MLOAD DUP1 DUP12 ADD DUP12 MSTORE DUP9 DUP2 MSTORE DUP1 DUP8 ADD SWAP3 DUP4 MSTORE DUP6 SLOAD DUP1 DUP12 ADD DUP8 SSTORE DUP7 DUP11 MSTORE SWAP1 MLOAD SWAP1 DUP6 MUL DUP1 DUP6 ADD SWAP2 SWAP1 SWAP2 SSTORE SWAP2 MLOAD SWAP2 DUP8 ADD SWAP2 SWAP1 SWAP2 SSTORE DUP9 MLOAD DUP1 DUP11 ADD SWAP1 SWAP10 MSTORE DUP9 MSTORE PUSH1 0x9 SWAP4 DUP9 ADD SWAP4 DUP5 MSTORE DUP3 SLOAD SWAP7 DUP8 ADD DUP4 SSTORE SWAP2 SWAP1 SWAP5 MSTORE SWAP5 MLOAD SWAP4 SWAP1 SWAP3 MUL SWAP4 DUP5 ADD SWAP3 SWAP1 SWAP3 SSTORE MLOAD SWAP2 ADD SSTORE JUMP JUMPDEST PUSH1 0x0 SLOAD PUSH1 0x1 PUSH1 0x1 PUSH1 0xA0 SHL SUB AND CALLER EQ PUSH3 0x67C JUMPI PUSH1 0x40 MLOAD PUSH3 0x461BCD PUSH1 0xE5 SHL DUP2 MSTORE PUSH1 0x20 PUSH1 0x4 DUP3 ADD MSTORE PUSH1 0x16 PUSH1 0x24 DUP3 ADD MSTORE PUSH32 0x4F6E6C792063616C6C61626C65206279206F776E657200000000000000000000 PUSH1 0x44 DUP3 ADD MSTORE PUSH1 0x64 ADD PUSH3 0x29D JUMP JUMPDEST JUMP JUMPDEST DUP3 PUSH1 0x3 DUP2 ADD SWAP3 DUP3 ISZERO PUSH3 0x6C9 JUMPI SWAP2 PUSH1 0x20 MUL DUP3 ADD JUMPDEST DUP3 DUP2 GT ISZERO PUSH3 0x6C9 JUMPI DUP3 MLOAD DUP3 SLOAD PUSH1 0x1 PUSH1 0x1 PUSH1 0xA0 SHL SUB NOT AND PUSH1 0x1 PUSH1 0x1 PUSH1 0xA0 SHL SUB SWAP1 SWAP2 AND OR DUP3 SSTORE PUSH1 0x20 SWAP1 SWAP3 ADD SWAP2 PUSH1 0x1 SWAP1 SWAP2 ADD SWAP1 PUSH3 0x692 JUMP JUMPDEST POP PUSH3 0x6D7 SWAP3 SWAP2 POP PUSH3 0x77D JUMP JUMPDEST POP SWAP1 JUMP JUMPDEST PUSH1 0x1 DUP4 ADD SWAP2 DUP4 SWAP1 DUP3 ISZERO PUSH3 0x6C9 JUMPI SWAP2 PUSH1 0x20 MUL DUP3 ADD PUSH1 0x0 JUMPDEST DUP4 DUP3 GT ISZERO PUSH3 0x73E JUMPI DUP4 MLOAD DUP4 DUP3 PUSH2 0x100 EXP DUP2 SLOAD DUP2 PUSH1 0x1 PUSH1 0x1 PUSH1 0x40 SHL SUB MUL NOT AND SWAP1 DUP4 PUSH1 0x1 PUSH1 0x1 PUSH1 0x40 SHL SUB AND MUL OR SWAP1 SSTORE POP SWAP3 PUSH1 0x20 ADD SWAP3 PUSH1 0x8 ADD PUSH1 0x20 DUP2 PUSH1 0x7 ADD DIV SWAP3 DUP4 ADD SWAP3 PUSH1 0x1 SUB MUL PUSH3 0x6F2 JUMP JUMPDEST DUP1 ISZERO PUSH3 0x773 JUMPI DUP3 DUP2 PUSH2 0x100 EXP DUP2 SLOAD SWAP1 PUSH1 0x1 PUSH1 0x1 PUSH1 0x40 SHL SUB MUL NOT AND SWAP1 SSTORE PUSH1 0x8 ADD PUSH1 0x20 DUP2 PUSH1 0x7 ADD DIV SWAP3 DUP4 ADD SWAP3 PUSH1 0x1 SUB MUL PUSH3 0x73E JUMP JUMPDEST POP POP PUSH3 0x6D7 SWAP3 SWAP2 POP JUMPDEST JUMPDEST DUP1 DUP3 GT ISZERO PUSH3 0x6D7 JUMPI PUSH1 0x0 DUP2 SSTORE PUSH1 0x1 ADD PUSH3 0x77E JUMP JUMPDEST PUSH1 0x0 PUSH1 0x20 DUP3 DUP5 SUB SLT ISZERO PUSH3 0x7A7 JUMPI PUSH1 0x0 DUP1 REVERT JUMPDEST POP MLOAD SWAP2 SWAP1 POP JUMP JUMPDEST PUSH4 0x4E487B71 PUSH1 0xE0 SHL PUSH1 0x0 MSTORE PUSH1 0x32 PUSH1 0x4 MSTORE PUSH1 0x24 PUSH1 0x0 REVERT JUMPDEST PUSH1 0x0 PUSH1 0x20 DUP3 DUP5 SUB SLT ISZERO PUSH3 0x7D7 JUMPI PUSH1 0x0 DUP1 REVERT JUMPDEST DUP2 MLOAD PUSH1 0x1 PUSH1 0x1 PUSH1 0xA0 SHL SUB DUP2 AND DUP2 EQ PUSH3 0x7EF JUMPI PUSH1 0x0 DUP1 REVERT JUMPDEST SWAP4 SWAP3 POP POP POP JUMP JUMPDEST PUSH1 0x80 MLOAD PUSH1 0xA0 MLOAD PUSH2 0x2EC7 PUSH3 0x83F PUSH1 0x0 CODECOPY PUSH1 0x0 DUP2 DUP2 PUSH2 0x4A2 ADD MSTORE DUP2 DUP2 PUSH2 0x786 ADD MSTORE DUP2 DUP2 PUSH2 0x21DA ADD MSTORE DUP2 DUP2 PUSH2 0x2278 ADD MSTORE PUSH2 0x2322 ADD MSTORE PUSH1 0x0 DUP2 DUP2 PUSH2 0x692 ADD MSTORE PUSH2 0x2249 ADD MSTORE PUSH2 0x2EC7 PUSH1 0x0 RETURN INVALID PUSH1 0x80 PUSH1 0x40 MSTORE CALLVALUE DUP1 ISZERO PUSH2 0x10 JUMPI PUSH1 0x0 DUP1 REVERT JUMPDEST POP PUSH1 0x4 CALLDATASIZE LT PUSH2 0x269 JUMPI PUSH1 0x0 CALLDATALOAD PUSH1 0xE0 SHR DUP1 PUSH4 0x9ED0868D GT PUSH2 0x151 JUMPI DUP1 PUSH4 0xD252682D GT PUSH2 0xC3 JUMPI DUP1 PUSH4 0xE76D5168 GT PUSH2 0x87 JUMPI DUP1 PUSH4 0xE76D5168 EQ PUSH2 0x690 JUMPI DUP1 PUSH4 0xE8AF8C0D EQ PUSH2 0x6B6 JUMPI DUP1 PUSH4 0xEA029701 EQ PUSH2 0x6C9 JUMPI DUP1 PUSH4 0xF2683ECD EQ PUSH2 0x6DC JUMPI DUP1 PUSH4 0xF2FDE38B EQ PUSH2 0x707 JUMPI DUP1 PUSH4 0xFA3B11D2 EQ PUSH2 0x71A JUMPI PUSH1 0x0 DUP1 REVERT JUMPDEST DUP1 PUSH4 0xD252682D EQ PUSH2 0x5DC JUMPI DUP1 PUSH4 0xD272E57E EQ PUSH2 0x5EF JUMPI DUP1 PUSH4 0xD5540A27 EQ PUSH2 0x5F8 JUMPI DUP1 PUSH4 0xD65AB5F2 EQ PUSH2 0x60B JUMPI DUP1 PUSH4 0xDF4F5532 EQ PUSH2 0x613 JUMPI PUSH1 0x0 DUP1 REVERT JUMPDEST DUP1 PUSH4 0xBAC009D3 GT PUSH2 0x115 JUMPI DUP1 PUSH4 0xBAC009D3 EQ PUSH2 0x52A JUMPI DUP1 PUSH4 0xBFD772FC EQ PUSH2 0x555 JUMPI DUP1 PUSH4 0xC8F33C91 EQ PUSH2 0x568 JUMPI DUP1 PUSH4 0xCC216ABA EQ PUSH2 0x571 JUMPI DUP1 PUSH4 0xCDC7BC87 EQ PUSH2 0x584 JUMPI DUP1 PUSH4 0xD0D5117E EQ PUSH2 0x5C4 JUMPI PUSH1 0x0 DUP1 REVERT JUMPDEST DUP1 PUSH4 0x9ED0868D EQ PUSH2 0x49D JUMPI DUP1 PUSH4 0xA029C405 EQ PUSH2 0x4C4 JUMPI DUP1 PUSH4 0xA55E1D45 EQ PUSH2 0x4E4 JUMPI DUP1 PUSH4 0xB3B2875E EQ PUSH2 0x4F7 JUMPI DUP1 PUSH4 0xB76EE4A8 EQ PUSH2 0x517 JUMPI PUSH1 0x0 DUP1 REVERT JUMPDEST DUP1 PUSH4 0x49C9D17A GT PUSH2 0x1EA JUMPI DUP1 PUSH4 0x85572FFB GT PUSH2 0x1AE JUMPI DUP1 PUSH4 0x85572FFB EQ PUSH2 0x436 JUMPI DUP1 PUSH4 0x85F9CE72 EQ PUSH2 0x449 JUMPI DUP1 PUSH4 0x8DA5CB5B EQ PUSH2 0x45C JUMPI DUP1 PUSH4 0x8DC654A2 EQ PUSH2 0x46D JUMPI DUP1 PUSH4 0x91F54351 EQ PUSH2 0x475 JUMPI DUP1 PUSH4 0x92E0C91A EQ PUSH2 0x495 JUMPI PUSH1 0x0 DUP1 REVERT JUMPDEST DUP1 PUSH4 0x49C9D17A EQ PUSH2 0x37D JUMPI DUP1 PUSH4 0x4E9C1118 EQ PUSH2 0x390 JUMPI DUP1 PUSH4 0x67C58157 EQ PUSH2 0x3A3 JUMPI DUP1 PUSH4 0x6906A2E9 EQ PUSH2 0x40E JUMPI DUP1 PUSH4 0x79BA5097 EQ PUSH2 0x42E JUMPI PUSH1 0x0 DUP1 REVERT JUMPDEST DUP1 PUSH4 0x2BF34FBD GT PUSH2 0x231 JUMPI DUP1 PUSH4 0x2BF34FBD EQ PUSH2 0x2F3 JUMPI DUP1 PUSH4 0x3236F6AE EQ PUSH2 0x31E JUMPI DUP1 PUSH4 0x380149AB EQ PUSH2 0x335 JUMPI DUP1 PUSH4 0x3DB497DE EQ PUSH2 0x35D JUMPI DUP1 PUSH4 0x44B7E83C EQ PUSH2 0x365 JUMPI PUSH1 0x0 DUP1 REVERT JUMPDEST DUP1 PUSH4 0x1FFC9A7 EQ PUSH2 0x26E JUMPI DUP1 PUSH4 0x10FA7879 EQ PUSH2 0x296 JUMPI DUP1 PUSH4 0x11B7AAD5 EQ PUSH2 0x2C1 JUMPI DUP1 PUSH4 0x12065FE0 EQ PUSH2 0x2D8 JUMPI DUP1 PUSH4 0x1FE543E3 EQ PUSH2 0x2DE JUMPI JUMPDEST PUSH1 0x0 DUP1 REVERT JUMPDEST PUSH2 0x281 PUSH2 0x27C CALLDATASIZE PUSH1 0x4 PUSH2 0x24F3 JUMP JUMPDEST PUSH2 0x72D JUMP JUMPDEST PUSH1 0x40 MLOAD SWAP1 ISZERO ISZERO DUP2 MSTORE PUSH1 0x20 ADD JUMPDEST PUSH1 0x40 MLOAD DUP1 SWAP2 SUB SWAP1 RETURN JUMPDEST PUSH2 0x2A9 PUSH2 0x2A4 CALLDATASIZE PUSH1 0x4 PUSH2 0x2524 JUMP JUMPDEST PUSH2 0x764 JUMP JUMPDEST PUSH1 0x40 MLOAD PUSH1 0x1 PUSH1 0x1 PUSH1 0xA0 SHL SUB SWAP1 SWAP2 AND DUP2 MSTORE PUSH1 0x20 ADD PUSH2 0x28D JUMP JUMPDEST PUSH2 0x2CA PUSH1 0x2 SLOAD DUP2 JUMP JUMPDEST PUSH1 0x40 MLOAD SWAP1 DUP2 MSTORE PUSH1 0x20 ADD PUSH2 0x28D JUMP JUMPDEST SELFBALANCE PUSH2 0x2CA JUMP JUMPDEST PUSH2 0x2F1 PUSH2 0x2EC CALLDATASIZE PUSH1 0x4 PUSH2 0x25F0 JUMP JUMPDEST PUSH2 0x784 JUMP JUMPDEST STOP JUMPDEST PUSH2 0x306 PUSH2 0x301 CALLDATASIZE PUSH1 0x4 PUSH2 0x2524 JUMP JUMPDEST PUSH2 0x7F3 JUMP JUMPDEST PUSH1 0x40 MLOAD PUSH1 0x1 PUSH1 0x1 PUSH1 0x40 SHL SUB SWAP1 SWAP2 AND DUP2 MSTORE PUSH1 0x20 ADD PUSH2 0x28D JUMP JUMPDEST PUSH2 0x326 PUSH2 0x826 JUMP JUMPDEST PUSH1 0x40 MLOAD PUSH2 0x28D SWAP4 SWAP3 SWAP2 SWAP1 PUSH2 0x2691 JUMP JUMPDEST PUSH2 0x348 PUSH2 0x343 CALLDATASIZE PUSH1 0x4 PUSH2 0x2524 JUMP JUMPDEST PUSH2 0x97D JUMP JUMPDEST PUSH1 0x40 DUP1 MLOAD SWAP3 DUP4 MSTORE PUSH1 0x20 DUP4 ADD SWAP2 SWAP1 SWAP2 MSTORE ADD PUSH2 0x28D JUMP JUMPDEST PUSH2 0x2F1 PUSH2 0x9AB JUMP JUMPDEST PUSH2 0x36D PUSH2 0xC2C JUMP JUMPDEST PUSH1 0x40 MLOAD PUSH2 0x28D SWAP5 SWAP4 SWAP3 SWAP2 SWAP1 PUSH2 0x26FA JUMP JUMPDEST PUSH2 0x2F1 PUSH2 0x38B CALLDATASIZE PUSH1 0x4 PUSH2 0x274B JUMP JUMPDEST PUSH2 0xD0C JUMP JUMPDEST PUSH2 0x2A9 PUSH2 0x39E CALLDATASIZE PUSH1 0x4 PUSH2 0x2524 JUMP JUMPDEST PUSH2 0xDD3 JUMP JUMPDEST PUSH2 0x3FE PUSH2 0x3B1 CALLDATASIZE PUSH1 0x4 PUSH2 0x2524 JUMP JUMPDEST PUSH1 0x15 PUSH1 0x20 SWAP1 DUP2 MSTORE PUSH1 0x0 SWAP2 DUP3 MSTORE PUSH1 0x40 SWAP2 DUP3 SWAP1 KECCAK256 DUP1 SLOAD PUSH1 0x1 DUP3 ADD SLOAD PUSH1 0x2 DUP4 ADD SLOAD DUP6 MLOAD DUP1 DUP8 ADD SWAP1 SWAP7 MSTORE PUSH1 0x4 DUP5 ADD SLOAD DUP7 MSTORE PUSH1 0x5 SWAP1 SWAP4 ADD SLOAD SWAP4 DUP6 ADD SWAP4 SWAP1 SWAP4 MSTORE PUSH1 0x1 PUSH1 0x1 PUSH1 0xA0 SHL SUB AND SWAP3 PUSH1 0xFF SWAP1 SWAP2 AND SWAP1 DUP5 JUMP JUMPDEST PUSH1 0x40 MLOAD PUSH2 0x28D SWAP5 SWAP4 SWAP3 SWAP2 SWAP1 PUSH2 0x27D9 JUMP JUMPDEST PUSH2 0x2CA PUSH2 0x41C CALLDATASIZE PUSH1 0x4 PUSH2 0x280D JUMP JUMPDEST PUSH1 0x3B PUSH1 0x20 MSTORE PUSH1 0x0 SWAP1 DUP2 MSTORE PUSH1 0x40 SWAP1 KECCAK256 SLOAD DUP2 JUMP JUMPDEST PUSH2 0x2F1 PUSH2 0xDE3 JUMP JUMPDEST PUSH2 0x2F1 PUSH2 0x444 CALLDATASIZE PUSH1 0x4 PUSH2 0x282A JUMP JUMPDEST PUSH2 0xE8D JUMP JUMPDEST PUSH2 0x2F1 PUSH2 0x457 CALLDATASIZE PUSH1 0x4 PUSH2 0x2524 JUMP JUMPDEST PUSH2 0xEE2 JUMP JUMPDEST PUSH1 0x0 SLOAD PUSH1 0x1 PUSH1 0x1 PUSH1 0xA0 SHL SUB AND PUSH2 0x2A9 JUMP JUMPDEST PUSH2 0x2F1 PUSH2 0x10FE JUMP JUMPDEST PUSH2 0x2CA PUSH2 0x483 CALLDATASIZE PUSH1 0x4 PUSH2 0x280D JUMP JUMPDEST PUSH1 0x1B PUSH1 0x20 MSTORE PUSH1 0x0 SWAP1 DUP2 MSTORE PUSH1 0x40 SWAP1 KECCAK256 SLOAD DUP2 JUMP JUMPDEST PUSH2 0x2CA PUSH2 0x12C9 JUMP JUMPDEST PUSH2 0x2A9 PUSH32 0x0 DUP2 JUMP JUMPDEST PUSH2 0x2CA PUSH2 0x4D2 CALLDATASIZE PUSH1 0x4 PUSH2 0x280D JUMP JUMPDEST PUSH1 0x1A PUSH1 0x20 MSTORE PUSH1 0x0 SWAP1 DUP2 MSTORE PUSH1 0x40 SWAP1 KECCAK256 SLOAD DUP2 JUMP JUMPDEST PUSH2 0x2CA PUSH2 0x4F2 CALLDATASIZE PUSH1 0x4 PUSH2 0x2864 JUMP JUMPDEST PUSH2 0x141C JUMP JUMPDEST PUSH2 0x2CA PUSH2 0x505 CALLDATASIZE PUSH1 0x4 PUSH2 0x280D JUMP JUMPDEST PUSH1 0x14 PUSH1 0x20 MSTORE PUSH1 0x0 SWAP1 DUP2 MSTORE PUSH1 0x40 SWAP1 KECCAK256 SLOAD DUP2 JUMP JUMPDEST PUSH2 0x2CA PUSH2 0x525 CALLDATASIZE PUSH1 0x4 PUSH2 0x2524 JUMP JUMPDEST PUSH2 0x144D JUMP JUMPDEST PUSH2 0x2CA PUSH2 0x538 CALLDATASIZE PUSH1 0x4 PUSH2 0x2864 JUMP JUMPDEST PUSH1 0x17 PUSH1 0x20 SWAP1 DUP2 MSTORE PUSH1 0x0 SWAP3 DUP4 MSTORE PUSH1 0x40 DUP1 DUP5 KECCAK256 SWAP1 SWAP2 MSTORE SWAP1 DUP3 MSTORE SWAP1 KECCAK256 SLOAD DUP2 JUMP JUMPDEST PUSH2 0x2A9 PUSH2 0x563 CALLDATASIZE PUSH1 0x4 PUSH2 0x2524 JUMP JUMPDEST PUSH2 0x1464 JUMP JUMPDEST PUSH2 0x2CA PUSH1 0x3A SLOAD DUP2 JUMP JUMPDEST PUSH2 0x2F1 PUSH2 0x57F CALLDATASIZE PUSH1 0x4 PUSH2 0x2524 JUMP JUMPDEST PUSH2 0x1474 JUMP JUMPDEST PUSH1 0x10 SLOAD PUSH1 0x11 SLOAD PUSH1 0x12 SLOAD PUSH2 0x59F SWAP3 PUSH1 0x1 PUSH1 0x1 PUSH1 0xA0 SHL SUB AND SWAP2 SWAP1 DUP4 JUMP JUMPDEST PUSH1 0x40 DUP1 MLOAD PUSH1 0x1 PUSH1 0x1 PUSH1 0xA0 SHL SUB SWAP1 SWAP5 AND DUP5 MSTORE PUSH1 0x20 DUP5 ADD SWAP3 SWAP1 SWAP3 MSTORE SWAP1 DUP3 ADD MSTORE PUSH1 0x60 ADD PUSH2 0x28D JUMP JUMPDEST PUSH2 0x5CC PUSH2 0x1571 JUMP JUMPDEST PUSH1 0x40 MLOAD PUSH2 0x28D SWAP5 SWAP4 SWAP3 SWAP2 SWAP1 PUSH2 0x28B9 JUMP JUMPDEST PUSH2 0x2A9 PUSH2 0x5EA CALLDATASIZE PUSH1 0x4 PUSH2 0x2524 JUMP JUMPDEST PUSH2 0x1642 JUMP JUMPDEST PUSH2 0x2CA PUSH1 0x3D SLOAD DUP2 JUMP JUMPDEST PUSH2 0x2CA PUSH2 0x606 CALLDATASIZE PUSH1 0x4 PUSH2 0x2864 JUMP JUMPDEST PUSH2 0x1652 JUMP JUMPDEST PUSH2 0x2F1 PUSH2 0x166E JUMP JUMPDEST PUSH2 0x65A PUSH2 0x621 CALLDATASIZE PUSH1 0x4 PUSH2 0x2524 JUMP JUMPDEST PUSH1 0x3C PUSH1 0x20 MSTORE PUSH1 0x0 SWAP1 DUP2 MSTORE PUSH1 0x40 SWAP1 KECCAK256 DUP1 SLOAD PUSH1 0x1 DUP3 ADD SLOAD PUSH1 0x2 DUP4 ADD SLOAD PUSH1 0x3 DUP5 ADD SLOAD PUSH1 0x4 SWAP1 SWAP5 ADD SLOAD SWAP3 SWAP4 SWAP2 SWAP3 PUSH1 0x1 PUSH1 0x1 PUSH1 0xA0 SHL SUB SWAP1 SWAP2 AND SWAP2 SWAP1 DUP6 JUMP JUMPDEST PUSH1 0x40 DUP1 MLOAD SWAP6 DUP7 MSTORE PUSH1 0x20 DUP7 ADD SWAP5 SWAP1 SWAP5 MSTORE PUSH1 0x1 PUSH1 0x1 PUSH1 0xA0 SHL SUB SWAP1 SWAP3 AND SWAP3 DUP5 ADD SWAP3 SWAP1 SWAP3 MSTORE PUSH1 0x60 DUP4 ADD SWAP2 SWAP1 SWAP2 MSTORE PUSH1 0x80 DUP3 ADD MSTORE PUSH1 0xA0 ADD PUSH2 0x28D JUMP JUMPDEST PUSH32 0x0 PUSH2 0x2A9 JUMP JUMPDEST PUSH2 0x2CA PUSH2 0x6C4 CALLDATASIZE PUSH1 0x4 PUSH2 0x2524 JUMP JUMPDEST PUSH2 0x16C1 JUMP JUMPDEST PUSH2 0x2A9 PUSH2 0x6D7 CALLDATASIZE PUSH1 0x4 PUSH2 0x2524 JUMP JUMPDEST PUSH2 0x16D1 JUMP JUMPDEST PUSH2 0x2CA PUSH2 0x6EA CALLDATASIZE PUSH1 0x4 PUSH2 0x2864 JUMP JUMPDEST PUSH1 0x19 PUSH1 0x20 SWAP1 DUP2 MSTORE PUSH1 0x0 SWAP3 DUP4 MSTORE PUSH1 0x40 DUP1 DUP5 KECCAK256 SWAP1 SWAP2 MSTORE SWAP1 DUP3 MSTORE SWAP1 KECCAK256 SLOAD DUP2 JUMP JUMPDEST PUSH2 0x2F1 PUSH2 0x715 CALLDATASIZE PUSH1 0x4 PUSH2 0x280D JUMP JUMPDEST PUSH2 0x16E1 JUMP JUMPDEST PUSH2 0x2F1 PUSH2 0x728 CALLDATASIZE PUSH1 0x4 PUSH2 0x2524 JUMP JUMPDEST PUSH2 0x16F2 JUMP JUMPDEST PUSH1 0x0 PUSH1 0x1 PUSH1 0x1 PUSH1 0xE0 SHL SUB NOT DUP3 AND PUSH4 0x85572FFB PUSH1 0xE0 SHL EQ DUP1 PUSH2 0x75E JUMPI POP PUSH1 0x1 PUSH1 0x1 PUSH1 0xE0 SHL SUB NOT DUP3 AND PUSH4 0x1FFC9A7 PUSH1 0xE0 SHL EQ JUMPDEST SWAP3 SWAP2 POP POP JUMP JUMPDEST PUSH1 0x9 DUP2 PUSH1 0x3 DUP2 LT PUSH2 0x774 JUMPI PUSH1 0x0 DUP1 REVERT JUMPDEST ADD SLOAD PUSH1 0x1 PUSH1 0x1 PUSH1 0xA0 SHL SUB AND SWAP1 POP DUP2 JUMP JUMPDEST PUSH32 0x0 CALLER PUSH1 0x1 PUSH1 0x1 PUSH1 0xA0 SHL SUB DUP3 AND EQ PUSH2 0x7E4 JUMPI PUSH1 0x40 MLOAD PUSH4 0x45D498B7 PUSH1 0xE1 SHL DUP2 MSTORE CALLER PUSH1 0x4 DUP3 ADD MSTORE PUSH1 0x1 PUSH1 0x1 PUSH1 0xA0 SHL SUB DUP3 AND PUSH1 0x24 DUP3 ADD MSTORE PUSH1 0x44 ADD JUMPDEST PUSH1 0x40 MLOAD DUP1 SWAP2 SUB SWAP1 REVERT JUMPDEST PUSH2 0x7EE DUP4 DUP4 PUSH2 0x17E5 JUMP JUMPDEST POP POP POP JUMP JUMPDEST PUSH1 0xC DUP2 PUSH1 0x3 DUP2 LT PUSH2 0x803 JUMPI PUSH1 0x0 DUP1 REVERT JUMPDEST PUSH1 0x4 SWAP2 DUP3 DUP3 DIV ADD SWAP2 SWAP1 MOD PUSH1 0x8 MUL SWAP2 POP SLOAD SWAP1 PUSH2 0x100 EXP SWAP1 DIV PUSH1 0x1 PUSH1 0x1 PUSH1 0x40 SHL SUB AND DUP2 JUMP JUMPDEST PUSH1 0x0 DUP1 PUSH2 0x846 PUSH1 0x40 MLOAD DUP1 PUSH1 0x40 ADD PUSH1 0x40 MSTORE DUP1 PUSH1 0x0 DUP2 MSTORE PUSH1 0x20 ADD PUSH1 0x0 DUP2 MSTORE POP SWAP1 JUMP JUMPDEST CALLER PUSH1 0x0 SWAP1 DUP2 MSTORE PUSH1 0x14 PUSH1 0x20 SWAP1 DUP2 MSTORE PUSH1 0x40 DUP1 DUP4 KECCAK256 SLOAD DUP1 DUP5 MSTORE PUSH1 0x15 SWAP1 SWAP3 MSTORE SWAP1 SWAP2 KECCAK256 PUSH1 0x1 ADD SLOAD PUSH2 0x8A8 JUMPI PUSH1 0x40 MLOAD PUSH3 0x461BCD PUSH1 0xE5 SHL DUP2 MSTORE PUSH1 0x20 PUSH1 0x4 DUP3 ADD MSTORE PUSH1 0x11 PUSH1 0x24 DUP3 ADD MSTORE PUSH17 0x1C995C5D595CDD081B9BDD08199BDD5B99 PUSH1 0x7A SHL PUSH1 0x44 DUP3 ADD MSTORE PUSH1 0x64 ADD PUSH2 0x7DB JUMP JUMPDEST PUSH1 0x0 DUP2 DUP2 MSTORE PUSH1 0x15 PUSH1 0x20 SWAP1 DUP2 MSTORE PUSH1 0x40 DUP1 DUP4 KECCAK256 DUP2 MLOAD PUSH1 0xA0 DUP2 ADD DUP4 MSTORE DUP2 SLOAD PUSH1 0x1 PUSH1 0x1 PUSH1 0xA0 SHL SUB AND DUP2 MSTORE PUSH1 0x1 DUP3 ADD SLOAD DUP2 DUP6 ADD MSTORE PUSH1 0x2 DUP3 ADD SLOAD PUSH1 0xFF AND ISZERO ISZERO DUP2 DUP5 ADD MSTORE PUSH1 0x3 DUP3 ADD DUP1 SLOAD DUP5 MLOAD DUP2 DUP8 MUL DUP2 ADD DUP8 ADD SWAP1 SWAP6 MSTORE DUP1 DUP6 MSTORE SWAP2 SWAP5 SWAP3 SWAP4 PUSH1 0x60 DUP7 ADD SWAP4 SWAP1 SWAP3 SWAP1 DUP4 ADD DUP3 DUP3 DUP1 ISZERO PUSH2 0x935 JUMPI PUSH1 0x20 MUL DUP3 ADD SWAP2 SWAP1 PUSH1 0x0 MSTORE PUSH1 0x20 PUSH1 0x0 KECCAK256 SWAP1 JUMPDEST DUP2 SLOAD DUP2 MSTORE PUSH1 0x20 ADD SWAP1 PUSH1 0x1 ADD SWAP1 DUP1 DUP4 GT PUSH2 0x921 JUMPI JUMPDEST POP POP POP SWAP2 DUP4 MSTORE POP POP PUSH1 0x40 DUP1 MLOAD DUP1 DUP3 ADD DUP3 MSTORE PUSH1 0x4 DUP5 ADD SLOAD DUP2 MSTORE PUSH1 0x5 SWAP1 SWAP4 ADD SLOAD PUSH1 0x20 DUP5 DUP2 ADD SWAP2 SWAP1 SWAP2 MSTORE SWAP2 DUP3 ADD SWAP3 SWAP1 SWAP3 MSTORE DUP3 ADD MLOAD SWAP1 DUP3 ADD MLOAD PUSH1 0x80 SWAP1 SWAP3 ADD MLOAD SWAP1 SWAP8 SWAP2 SWAP7 POP SWAP5 POP SWAP3 POP POP POP JUMP JUMPDEST PUSH1 0x13 DUP2 DUP2 SLOAD DUP2 LT PUSH2 0x98D JUMPI PUSH1 0x0 DUP1 REVERT JUMPDEST PUSH1 0x0 SWAP2 DUP3 MSTORE PUSH1 0x20 SWAP1 SWAP2 KECCAK256 PUSH1 0x2 SWAP1 SWAP2 MUL ADD DUP1 SLOAD PUSH1 0x1 SWAP1 SWAP2 ADD SLOAD SWAP1 SWAP2 POP DUP3 JUMP JUMPDEST PUSH2 0x9B3 PUSH2 0x1A70 JUMP JUMPDEST PUSH1 0x40 DUP1 MLOAD DUP1 DUP3 ADD DUP3 MSTORE PUSH1 0x0 DUP1 DUP3 MSTORE PUSH1 0x64 PUSH1 0x20 DUP1 DUP5 ADD SWAP2 DUP3 MSTORE PUSH1 0x13 DUP1 SLOAD PUSH1 0x1 DUP2 DUP2 ADD DUP4 SSTORE DUP3 DUP7 MSTORE SWAP6 MLOAD PUSH1 0x2 SWAP2 DUP3 MUL PUSH32 0x66DE8FFDA797E3DE9C05E8FC57B3BF0EC28A930D40B0D285D93C06501CF6A090 DUP2 DUP2 ADD SWAP3 SWAP1 SWAP3 SSTORE SWAP5 MLOAD PUSH32 0x66DE8FFDA797E3DE9C05E8FC57B3BF0EC28A930D40B0D285D93C06501CF6A091 SWAP6 DUP7 ADD SSTORE DUP8 MLOAD DUP1 DUP10 ADD DUP10 MSTORE DUP7 DUP2 MSTORE PUSH1 0x32 DUP2 DUP7 ADD DUP2 DUP2 MSTORE DUP6 SLOAD DUP1 DUP12 ADD DUP8 SSTORE DUP7 DUP11 MSTORE SWAP3 MLOAD SWAP3 DUP6 MUL DUP1 DUP6 ADD SWAP4 SWAP1 SWAP4 SSTORE MLOAD SWAP2 DUP8 ADD SWAP2 SWAP1 SWAP2 SSTORE DUP9 MLOAD DUP1 DUP11 ADD DUP11 MSTORE DUP9 DUP2 MSTORE PUSH1 0xA DUP2 DUP8 ADD SWAP1 DUP2 MSTORE DUP6 SLOAD DUP1 DUP12 ADD DUP8 SSTORE DUP7 DUP11 MSTORE SWAP2 MLOAD SWAP2 DUP6 MUL DUP1 DUP6 ADD SWAP3 SWAP1 SWAP3 SSTORE MLOAD SWAP1 DUP8 ADD SSTORE DUP9 MLOAD DUP1 DUP11 ADD DUP11 MSTORE DUP8 DUP2 MSTORE DUP1 DUP7 ADD DUP3 DUP2 MSTORE DUP6 SLOAD DUP1 DUP12 ADD DUP8 SSTORE DUP7 DUP11 MSTORE SWAP2 MLOAD SWAP2 DUP6 MUL DUP1 DUP6 ADD SWAP3 SWAP1 SWAP3 SSTORE MLOAD SWAP1 DUP8 ADD SSTORE DUP9 MLOAD DUP1 DUP11 ADD DUP11 MSTORE DUP8 DUP2 MSTORE PUSH1 0x96 DUP2 DUP8 ADD SWAP1 DUP2 MSTORE DUP6 SLOAD DUP1 DUP12 ADD DUP8 SSTORE DUP7 DUP11 MSTORE SWAP2 MLOAD SWAP2 DUP6 MUL DUP1 DUP6 ADD SWAP3 SWAP1 SWAP3 SSTORE MLOAD SWAP1 DUP8 ADD SSTORE DUP9 MLOAD DUP1 DUP11 ADD DUP11 MSTORE PUSH1 0x3 DUP1 DUP3 MSTORE PUSH1 0x12 DUP3 DUP9 ADD SWAP1 DUP2 MSTORE DUP7 SLOAD DUP1 DUP13 ADD DUP9 SSTORE DUP8 DUP12 MSTORE SWAP3 MLOAD SWAP3 DUP7 MUL DUP1 DUP7 ADD SWAP4 SWAP1 SWAP4 SSTORE MLOAD SWAP2 DUP9 ADD SWAP2 SWAP1 SWAP2 SSTORE DUP10 MLOAD DUP1 DUP12 ADD DUP12 MSTORE DUP9 DUP2 MSTORE PUSH1 0xC8 DUP2 DUP9 ADD DUP2 DUP2 MSTORE DUP8 SLOAD DUP1 DUP14 ADD DUP10 SSTORE DUP9 DUP13 MSTORE SWAP3 MLOAD SWAP3 DUP8 MUL DUP1 DUP8 ADD SWAP4 SWAP1 SWAP4 SSTORE MLOAD SWAP2 DUP10 ADD SWAP2 SWAP1 SWAP2 SSTORE DUP11 MLOAD DUP1 DUP13 ADD DUP13 MSTORE DUP10 DUP2 MSTORE DUP1 DUP9 ADD DUP5 DUP2 MSTORE DUP8 SLOAD DUP1 DUP14 ADD DUP10 SSTORE DUP9 DUP13 MSTORE SWAP2 MLOAD SWAP2 DUP8 MUL DUP1 DUP8 ADD SWAP3 SWAP1 SWAP3 SSTORE MLOAD SWAP1 DUP10 ADD SSTORE DUP11 MLOAD DUP1 DUP13 ADD DUP13 MSTORE DUP11 DUP2 MSTORE PUSH1 0x14 DUP2 DUP10 ADD SWAP1 DUP2 MSTORE DUP8 SLOAD DUP1 DUP14 ADD DUP10 SSTORE DUP9 DUP13 MSTORE SWAP2 MLOAD SWAP2 DUP8 MUL DUP1 DUP8 ADD SWAP3 SWAP1 SWAP3 SSTORE MLOAD SWAP1 DUP10 ADD SSTORE DUP11 MLOAD DUP1 DUP13 ADD DUP13 MSTORE DUP10 DUP2 MSTORE DUP1 DUP9 ADD SWAP4 DUP5 MSTORE DUP7 SLOAD DUP1 DUP13 ADD DUP9 SSTORE DUP8 DUP12 MSTORE SWAP1 MLOAD SWAP1 DUP7 MUL DUP1 DUP7 ADD SWAP2 SWAP1 SWAP2 SSTORE SWAP3 MLOAD SWAP3 DUP9 ADD SWAP3 SWAP1 SWAP3 SSTORE DUP10 MLOAD DUP1 DUP12 ADD DUP12 MSTORE DUP9 DUP2 MSTORE DUP1 DUP8 ADD SWAP3 DUP4 MSTORE DUP6 SLOAD DUP1 DUP12 ADD DUP8 SSTORE DUP7 DUP11 MSTORE SWAP1 MLOAD SWAP1 DUP6 MUL DUP1 DUP6 ADD SWAP2 SWAP1 SWAP2 SSTORE SWAP2 MLOAD SWAP2 DUP8 ADD SWAP2 SWAP1 SWAP2 SSTORE DUP9 MLOAD DUP1 DUP11 ADD SWAP1 SWAP10 MSTORE DUP9 MSTORE PUSH1 0x9 SWAP4 DUP9 ADD SWAP4 DUP5 MSTORE DUP3 SLOAD SWAP7 DUP8 ADD DUP4 SSTORE SWAP2 SWAP1 SWAP5 MSTORE SWAP5 MLOAD SWAP4 SWAP1 SWAP3 MUL SWAP4 DUP5 ADD SWAP3 SWAP1 SWAP3 SSTORE MLOAD SWAP2 ADD SSTORE JUMP JUMPDEST CALLER PUSH1 0x0 SWAP1 DUP2 MSTORE PUSH1 0x1A PUSH1 0x20 SWAP1 DUP2 MSTORE PUSH1 0x40 DUP1 DUP4 KECCAK256 SLOAD PUSH1 0x1B DUP4 MSTORE DUP2 DUP5 KECCAK256 SLOAD PUSH1 0x16 DUP5 MSTORE DUP3 DUP6 KECCAK256 PUSH1 0x18 DUP6 MSTORE DUP4 DUP7 KECCAK256 DUP2 SLOAD DUP6 MLOAD DUP2 DUP9 MUL DUP2 ADD DUP9 ADD SWAP1 SWAP7 MSTORE DUP1 DUP7 MSTORE DUP8 SWAP7 PUSH1 0x60 SWAP7 DUP8 SWAP7 SWAP6 SWAP5 SWAP4 SWAP3 SWAP1 SWAP2 DUP5 SWAP2 SWAP1 DUP4 ADD DUP3 DUP3 DUP1 ISZERO PUSH2 0xCA5 JUMPI PUSH1 0x20 MUL DUP3 ADD SWAP2 SWAP1 PUSH1 0x0 MSTORE PUSH1 0x20 PUSH1 0x0 KECCAK256 SWAP1 JUMPDEST DUP2 SLOAD DUP2 MSTORE PUSH1 0x20 ADD SWAP1 PUSH1 0x1 ADD SWAP1 DUP1 DUP4 GT PUSH2 0xC91 JUMPI JUMPDEST POP POP POP POP POP SWAP2 POP DUP1 DUP1 SLOAD DUP1 PUSH1 0x20 MUL PUSH1 0x20 ADD PUSH1 0x40 MLOAD SWAP1 DUP2 ADD PUSH1 0x40 MSTORE DUP1 SWAP3 SWAP2 SWAP1 DUP2 DUP2 MSTORE PUSH1 0x20 ADD DUP3 DUP1 SLOAD DUP1 ISZERO PUSH2 0xCF7 JUMPI PUSH1 0x20 MUL DUP3 ADD SWAP2 SWAP1 PUSH1 0x0 MSTORE PUSH1 0x20 PUSH1 0x0 KECCAK256 SWAP1 JUMPDEST DUP2 SLOAD DUP2 MSTORE PUSH1 0x20 ADD SWAP1 PUSH1 0x1 ADD SWAP1 DUP1 DUP4 GT PUSH2 0xCE3 JUMPI JUMPDEST POP POP POP POP POP SWAP1 POP SWAP4 POP SWAP4 POP SWAP4 POP SWAP4 POP SWAP1 SWAP2 SWAP3 SWAP4 JUMP JUMPDEST PUSH2 0xD14 PUSH2 0x1A70 JUMP JUMPDEST PUSH1 0x3 DUP2 MLOAD EQ PUSH2 0xD65 JUMPI PUSH1 0x40 MLOAD PUSH3 0x461BCD PUSH1 0xE5 SHL DUP2 MSTORE PUSH1 0x20 PUSH1 0x4 DUP3 ADD MSTORE PUSH1 0x19 PUSH1 0x24 DUP3 ADD MSTORE PUSH32 0x72656365697665724C697374206973206E6F742076616C696400000000000000 PUSH1 0x44 DUP3 ADD MSTORE PUSH1 0x64 ADD PUSH2 0x7DB JUMP JUMPDEST PUSH1 0x0 JUMPDEST DUP2 MLOAD DUP2 LT ISZERO PUSH2 0xDCF JUMPI DUP2 DUP2 DUP2 MLOAD DUP2 LT PUSH2 0xD83 JUMPI PUSH2 0xD83 PUSH2 0x291A JUMP JUMPDEST PUSH1 0x20 MUL PUSH1 0x20 ADD ADD MLOAD PUSH1 0xD DUP3 PUSH1 0x3 DUP2 LT PUSH2 0xD9E JUMPI PUSH2 0xD9E PUSH2 0x291A JUMP JUMPDEST ADD DUP1 SLOAD PUSH1 0x1 PUSH1 0x1 PUSH1 0xA0 SHL SUB NOT AND PUSH1 0x1 PUSH1 0x1 PUSH1 0xA0 SHL SUB SWAP3 SWAP1 SWAP3 AND SWAP2 SWAP1 SWAP2 OR SWAP1 SSTORE DUP1 PUSH2 0xDC7 DUP2 PUSH2 0x2946 JUMP JUMPDEST SWAP2 POP POP PUSH2 0xD68 JUMP JUMPDEST POP POP JUMP JUMPDEST PUSH1 0x3 DUP2 PUSH1 0x3 DUP2 LT PUSH2 0x774 JUMPI PUSH1 0x0 DUP1 REVERT JUMPDEST PUSH1 0x1 SLOAD PUSH1 0x1 PUSH1 0x1 PUSH1 0xA0 SHL SUB AND CALLER EQ PUSH2 0xE36 JUMPI PUSH1 0x40 MLOAD PUSH3 0x461BCD PUSH1 0xE5 SHL DUP2 MSTORE PUSH1 0x20 PUSH1 0x4 DUP3 ADD MSTORE PUSH1 0x16 PUSH1 0x24 DUP3 ADD MSTORE PUSH22 0x26BAB9BA10313290383937B837B9B2B21037BBB732B9 PUSH1 0x51 SHL PUSH1 0x44 DUP3 ADD MSTORE PUSH1 0x64 ADD PUSH2 0x7DB JUMP JUMPDEST PUSH1 0x0 DUP1 SLOAD CALLER PUSH1 0x1 PUSH1 0x1 PUSH1 0xA0 SHL SUB NOT DUP1 DUP4 AND DUP3 OR DUP5 SSTORE PUSH1 0x1 DUP1 SLOAD SWAP1 SWAP2 AND SWAP1 SSTORE PUSH1 0x40 MLOAD PUSH1 0x1 PUSH1 0x1 PUSH1 0xA0 SHL SUB SWAP1 SWAP3 AND SWAP3 SWAP1 SWAP2 DUP4 SWAP2 PUSH32 0x8BE0079C531659141344CD1FD0A4F28419497F9722A3DAAFE3B4186F6B6457E0 SWAP2 LOG3 POP JUMP JUMPDEST PUSH1 0x3 PUSH1 0x2 SLOAD PUSH1 0x3 DUP2 LT PUSH2 0xEA2 JUMPI PUSH2 0xEA2 PUSH2 0x291A JUMP JUMPDEST ADD SLOAD PUSH1 0x1 PUSH1 0x1 PUSH1 0xA0 SHL SUB AND CALLER EQ PUSH2 0xECE JUMPI PUSH1 0x40 MLOAD PUSH4 0x35FDCCCD PUSH1 0xE2 SHL DUP2 MSTORE CALLER PUSH1 0x4 DUP3 ADD MSTORE PUSH1 0x24 ADD PUSH2 0x7DB JUMP JUMPDEST PUSH2 0xEDF PUSH2 0xEDA DUP3 PUSH2 0x2A7D JUMP JUMPDEST PUSH2 0x1AC5 JUMP JUMPDEST POP JUMP JUMPDEST PUSH1 0x3D DUP1 SLOAD PUSH1 0x0 SWAP1 DUP2 MSTORE PUSH1 0x3C PUSH1 0x20 SWAP1 DUP2 MSTORE PUSH1 0x40 DUP1 DUP4 KECCAK256 TIMESTAMP PUSH1 0x1 SWAP1 SWAP2 ADD SSTORE SWAP3 SLOAD DUP3 MSTORE SWAP1 DUP3 SWAP1 KECCAK256 PUSH1 0x4 ADD DUP4 SWAP1 SSTORE DUP2 MLOAD PUSH1 0x60 DUP2 ADD DUP4 MSTORE CALLER DUP2 MSTORE SWAP1 DUP2 ADD DUP4 SWAP1 MSTORE PUSH1 0x2 SLOAD SWAP2 DUP2 ADD SWAP2 SWAP1 SWAP2 MSTORE PUSH2 0xF30 SWAP1 PUSH2 0x1BB7 JUMP JUMPDEST PUSH1 0x0 JUMPDEST PUSH1 0x3 DUP2 LT ISZERO PUSH2 0x107F JUMPI PUSH1 0x0 PUSH1 0xC DUP3 PUSH1 0x3 DUP2 LT PUSH2 0xF51 JUMPI PUSH2 0xF51 PUSH2 0x291A JUMP JUMPDEST PUSH1 0x4 SWAP2 DUP3 DUP3 DIV ADD SWAP2 SWAP1 MOD PUSH1 0x8 MUL SWAP1 SLOAD SWAP1 PUSH2 0x100 EXP SWAP1 DIV PUSH1 0x1 PUSH1 0x1 PUSH1 0x40 SHL SUB AND SWAP1 POP PUSH1 0x0 PUSH1 0xD DUP4 PUSH1 0x3 DUP2 LT PUSH2 0xF87 JUMPI PUSH2 0xF87 PUSH2 0x291A JUMP JUMPDEST ADD SLOAD PUSH1 0x2 SLOAD PUSH1 0x1 PUSH1 0x1 PUSH1 0xA0 SHL SUB SWAP1 SWAP2 AND SWAP2 POP PUSH1 0x1 PUSH1 0x1 PUSH1 0x40 SHL SUB DUP4 AND SWAP1 PUSH1 0xC SWAP1 PUSH1 0x3 DUP2 LT PUSH2 0xFB7 JUMPI PUSH2 0xFB7 PUSH2 0x291A JUMP JUMPDEST PUSH1 0x4 SWAP2 DUP3 DUP3 DIV ADD SWAP2 SWAP1 MOD PUSH1 0x8 MUL SWAP1 SLOAD SWAP1 PUSH2 0x100 EXP SWAP1 DIV PUSH1 0x1 PUSH1 0x1 PUSH1 0x40 SHL SUB AND PUSH1 0x1 PUSH1 0x1 PUSH1 0x40 SHL SUB AND EQ ISZERO DUP1 ISZERO PUSH2 0xFF5 JUMPI POP PUSH1 0x1 PUSH1 0x1 PUSH1 0xA0 SHL SUB DUP2 AND ISZERO ISZERO JUMPDEST ISZERO PUSH2 0x106A JUMPI PUSH2 0x1068 DUP3 DUP3 PUSH1 0x6 PUSH1 0x2 SLOAD PUSH1 0x3 DUP2 LT PUSH2 0x1014 JUMPI PUSH2 0x1014 PUSH2 0x291A JUMP JUMPDEST ADD SLOAD PUSH1 0x2 SLOAD PUSH1 0x1 PUSH1 0x1 PUSH1 0xA0 SHL SUB SWAP1 SWAP2 AND SWAP1 PUSH1 0x3 SWAP1 DUP2 DUP2 LT PUSH2 0x1037 JUMPI PUSH2 0x1037 PUSH2 0x291A JUMP JUMPDEST ADD SLOAD PUSH1 0x40 DUP1 MLOAD PUSH1 0x60 DUP2 ADD DUP3 MSTORE CALLER DUP2 MSTORE PUSH1 0x20 DUP2 ADD DUP12 SWAP1 MSTORE PUSH1 0x2 SLOAD SWAP2 DUP2 ADD SWAP2 SWAP1 SWAP2 MSTORE PUSH1 0x1 PUSH1 0x1 PUSH1 0xA0 SHL SUB SWAP1 SWAP2 AND SWAP1 PUSH2 0x1DAF JUMP JUMPDEST POP JUMPDEST POP POP DUP1 DUP1 PUSH2 0x1077 SWAP1 PUSH2 0x2946 JUMP JUMPDEST SWAP2 POP POP PUSH2 0xF33 JUMP JUMPDEST POP PUSH1 0x3D SLOAD PUSH1 0x0 SWAP1 DUP2 MSTORE PUSH1 0x3C PUSH1 0x20 SWAP1 DUP2 MSTORE PUSH1 0x40 SWAP2 DUP3 SWAP1 KECCAK256 DUP1 SLOAD PUSH1 0x1 DUP3 ADD SLOAD PUSH1 0x2 DUP4 ADD SLOAD PUSH1 0x3 SWAP1 SWAP4 ADD SLOAD DUP6 MLOAD SWAP3 DUP4 MSTORE SWAP4 DUP3 ADD MSTORE PUSH1 0x1 PUSH1 0x1 PUSH1 0xA0 SHL SUB SWAP1 SWAP2 AND SWAP3 DUP2 ADD SWAP3 SWAP1 SWAP3 MSTORE PUSH1 0x60 DUP3 ADD DUP4 SWAP1 MSTORE PUSH1 0x80 DUP3 ADD MSTORE PUSH32 0x66286673E71E7C3A4012D09FBB56001733372C438DC9BA84CC4CA1EF2C84A2B0 SWAP1 PUSH1 0xA0 ADD PUSH1 0x40 MLOAD DUP1 SWAP2 SUB SWAP1 LOG1 POP JUMP JUMPDEST PUSH2 0x1106 PUSH2 0x1A70 JUMP JUMPDEST PUSH1 0x0 PUSH1 0x1 PUSH1 0x1 PUSH1 0xA0 SHL SUB AND PUSH1 0x6 PUSH1 0x2 SLOAD PUSH1 0x3 DUP2 LT PUSH2 0x1126 JUMPI PUSH2 0x1126 PUSH2 0x291A JUMP JUMPDEST ADD SLOAD PUSH1 0x1 PUSH1 0x1 PUSH1 0xA0 SHL SUB AND SUB PUSH2 0x118A JUMPI PUSH1 0x40 MLOAD PUSH3 0x461BCD PUSH1 0xE5 SHL DUP2 MSTORE PUSH1 0x20 PUSH1 0x4 DUP3 ADD MSTORE PUSH1 0x24 DUP1 DUP3 ADD MSTORE PUSH32 0x6572726F723A2077697468647261774C696E6B206973206E6F7420737570706F PUSH1 0x44 DUP3 ADD MSTORE PUSH4 0x1C9D1959 PUSH1 0xE2 SHL PUSH1 0x64 DUP3 ADD MSTORE PUSH1 0x84 ADD PUSH2 0x7DB JUMP JUMPDEST PUSH1 0x0 PUSH1 0x6 PUSH1 0x2 SLOAD PUSH1 0x3 DUP2 LT PUSH2 0x11A1 JUMPI PUSH2 0x11A1 PUSH2 0x291A JUMP JUMPDEST ADD SLOAD PUSH1 0x40 MLOAD PUSH4 0x70A08231 PUSH1 0xE0 SHL DUP2 MSTORE ADDRESS PUSH1 0x4 DUP3 ADD MSTORE PUSH1 0x1 PUSH1 0x1 PUSH1 0xA0 SHL SUB SWAP1 SWAP2 AND SWAP2 POP DUP2 SWAP1 PUSH4 0xA9059CBB SWAP1 CALLER SWAP1 DUP4 SWAP1 PUSH4 0x70A08231 SWAP1 PUSH1 0x24 ADD PUSH1 0x20 PUSH1 0x40 MLOAD DUP1 DUP4 SUB DUP2 DUP7 GAS STATICCALL ISZERO DUP1 ISZERO PUSH2 0x11F5 JUMPI RETURNDATASIZE PUSH1 0x0 DUP1 RETURNDATACOPY RETURNDATASIZE PUSH1 0x0 REVERT JUMPDEST POP POP POP POP PUSH1 0x40 MLOAD RETURNDATASIZE PUSH1 0x1F NOT PUSH1 0x1F DUP3 ADD AND DUP3 ADD DUP1 PUSH1 0x40 MSTORE POP DUP2 ADD SWAP1 PUSH2 0x1219 SWAP2 SWAP1 PUSH2 0x2B29 JUMP JUMPDEST PUSH1 0x40 MLOAD PUSH1 0x1 PUSH1 0x1 PUSH1 0xE0 SHL SUB NOT PUSH1 0xE0 DUP6 SWAP1 SHL AND DUP2 MSTORE PUSH1 0x1 PUSH1 0x1 PUSH1 0xA0 SHL SUB SWAP1 SWAP3 AND PUSH1 0x4 DUP4 ADD MSTORE PUSH1 0x24 DUP3 ADD MSTORE PUSH1 0x44 ADD PUSH1 0x20 PUSH1 0x40 MLOAD DUP1 DUP4 SUB DUP2 PUSH1 0x0 DUP8 GAS CALL ISZERO DUP1 ISZERO PUSH2 0x1264 JUMPI RETURNDATASIZE PUSH1 0x0 DUP1 RETURNDATACOPY RETURNDATASIZE PUSH1 0x0 REVERT JUMPDEST POP POP POP POP PUSH1 0x40 MLOAD RETURNDATASIZE PUSH1 0x1F NOT PUSH1 0x1F DUP3 ADD AND DUP3 ADD DUP1 PUSH1 0x40 MSTORE POP DUP2 ADD SWAP1 PUSH2 0x1288 SWAP2 SWAP1 PUSH2 0x2B42 JUMP JUMPDEST PUSH2 0xEDF JUMPI PUSH1 0x40 MLOAD PUSH3 0x461BCD PUSH1 0xE5 SHL DUP2 MSTORE PUSH1 0x20 PUSH1 0x4 DUP3 ADD MSTORE PUSH1 0x12 PUSH1 0x24 DUP3 ADD MSTORE PUSH18 0x2AB730B13632903A37903A3930B739B332B9 PUSH1 0x71 SHL PUSH1 0x44 DUP3 ADD MSTORE PUSH1 0x64 ADD PUSH2 0x7DB JUMP JUMPDEST PUSH1 0x0 PUSH2 0x12D3 PUSH2 0x1A70 JUMP JUMPDEST PUSH1 0x0 PUSH2 0x12EF PUSH1 0x40 MLOAD DUP1 PUSH1 0x20 ADD PUSH1 0x40 MSTORE DUP1 PUSH1 0x0 ISZERO ISZERO DUP2 MSTORE POP PUSH2 0x2139 JUMP JUMPDEST SWAP1 POP PUSH1 0x0 DUP1 PUSH2 0x1305 PUSH3 0x1E8480 PUSH1 0x3 PUSH1 0x1 DUP7 PUSH2 0x21AA JUMP JUMPDEST PUSH1 0x40 DUP1 MLOAD PUSH1 0xA0 DUP2 ADD DUP3 MSTORE CALLER DUP2 MSTORE PUSH1 0x20 DUP1 DUP3 ADD DUP5 DUP2 MSTORE PUSH1 0x0 DUP4 DUP6 ADD DUP2 DUP2 MSTORE DUP6 MLOAD DUP3 DUP2 MSTORE DUP1 DUP6 ADD DUP8 MSTORE PUSH1 0x60 DUP7 ADD SWAP1 DUP2 MSTORE DUP7 MLOAD DUP1 DUP9 ADD DUP9 MSTORE DUP4 DUP2 MSTORE DUP1 DUP7 ADD DUP5 SWAP1 MSTORE PUSH1 0x80 DUP8 ADD MSTORE DUP9 DUP4 MSTORE PUSH1 0x15 DUP6 MSTORE SWAP6 SWAP1 SWAP2 KECCAK256 DUP5 MLOAD DUP2 SLOAD PUSH1 0x1 PUSH1 0x1 PUSH1 0xA0 SHL SUB NOT AND PUSH1 0x1 PUSH1 0x1 PUSH1 0xA0 SHL SUB SWAP1 SWAP2 AND OR DUP2 SSTORE SWAP2 MLOAD PUSH1 0x1 DUP4 ADD SSTORE MLOAD PUSH1 0x2 DUP3 ADD DUP1 SLOAD PUSH1 0xFF NOT AND SWAP2 ISZERO ISZERO SWAP2 SWAP1 SWAP2 OR SWAP1 SSTORE SWAP3 MLOAD DUP1 MLOAD SWAP6 SWAP8 POP SWAP4 SWAP6 POP SWAP1 SWAP4 SWAP2 SWAP3 PUSH2 0x13AB SWAP3 PUSH1 0x3 DUP6 ADD SWAP3 SWAP2 SWAP1 SWAP2 ADD SWAP1 PUSH2 0x2474 JUMP JUMPDEST POP PUSH1 0x80 SWAP2 SWAP1 SWAP2 ADD MLOAD DUP1 MLOAD PUSH1 0x4 DUP4 ADD SSTORE PUSH1 0x20 SWAP1 DUP2 ADD MLOAD PUSH1 0x5 SWAP1 SWAP3 ADD SWAP2 SWAP1 SWAP2 SSTORE CALLER PUSH1 0x0 SWAP1 DUP2 MSTORE PUSH1 0x14 DUP3 MSTORE PUSH1 0x40 SWAP1 DUP2 SWAP1 KECCAK256 DUP5 SWAP1 SSTORE DUP1 MLOAD DUP5 DUP2 MSTORE PUSH1 0x1 SWAP3 DUP2 ADD SWAP3 SWAP1 SWAP3 MSTORE PUSH32 0x3279BDE246F2449036F4A5A85E935AE7CB08612C5645C2673490D2FD624683AE SWAP2 ADD PUSH1 0x40 MLOAD DUP1 SWAP2 SUB SWAP1 LOG1 POP SWAP2 POP POP SWAP1 JUMP JUMPDEST PUSH1 0x16 PUSH1 0x20 MSTORE DUP2 PUSH1 0x0 MSTORE PUSH1 0x40 PUSH1 0x0 KECCAK256 DUP2 DUP2 SLOAD DUP2 LT PUSH2 0x1438 JUMPI PUSH1 0x0 DUP1 REVERT JUMPDEST SWAP1 PUSH1 0x0 MSTORE PUSH1 0x20 PUSH1 0x0 KECCAK256 ADD PUSH1 0x0 SWAP2 POP SWAP2 POP POP SLOAD DUP2 JUMP JUMPDEST PUSH1 0x1C DUP2 PUSH1 0xA DUP2 LT PUSH2 0x145D JUMPI PUSH1 0x0 DUP1 REVERT JUMPDEST ADD SLOAD SWAP1 POP DUP2 JUMP JUMPDEST PUSH1 0xD DUP2 PUSH1 0x3 DUP2 LT PUSH2 0x774 JUMPI PUSH1 0x0 DUP1 REVERT JUMPDEST CALLER PUSH1 0x0 SWAP1 DUP2 MSTORE PUSH1 0x16 PUSH1 0x20 SWAP1 DUP2 MSTORE PUSH1 0x40 DUP1 DUP4 KECCAK256 DUP1 SLOAD DUP3 MLOAD DUP2 DUP6 MUL DUP2 ADD DUP6 ADD SWAP1 SWAP4 MSTORE DUP1 DUP4 MSTORE SWAP2 SWAP3 SWAP1 SWAP2 SWAP1 DUP4 ADD DUP3 DUP3 DUP1 ISZERO PUSH2 0x14CB JUMPI PUSH1 0x20 MUL DUP3 ADD SWAP2 SWAP1 PUSH1 0x0 MSTORE PUSH1 0x20 PUSH1 0x0 KECCAK256 SWAP1 JUMPDEST DUP2 SLOAD DUP2 MSTORE PUSH1 0x20 ADD SWAP1 PUSH1 0x1 ADD SWAP1 DUP1 DUP4 GT PUSH2 0x14B7 JUMPI JUMPDEST POP POP POP POP POP SWAP1 POP PUSH1 0x0 DUP1 JUMPDEST DUP3 MLOAD DUP2 LT ISZERO PUSH2 0x1516 JUMPI DUP4 DUP4 DUP3 DUP2 MLOAD DUP2 LT PUSH2 0x14F2 JUMPI PUSH2 0x14F2 PUSH2 0x291A JUMP JUMPDEST PUSH1 0x20 MUL PUSH1 0x20 ADD ADD MLOAD SUB PUSH2 0x1504 JUMPI PUSH1 0x1 SWAP2 POP JUMPDEST DUP1 PUSH2 0x150E DUP2 PUSH2 0x2946 JUMP JUMPDEST SWAP2 POP POP PUSH2 0x14D6 JUMP JUMPDEST POP DUP1 ISZERO PUSH2 0x154D JUMPI CALLER PUSH1 0x0 SWAP1 DUP2 MSTORE PUSH1 0x17 PUSH1 0x20 SWAP1 DUP2 MSTORE PUSH1 0x40 DUP1 DUP4 KECCAK256 DUP7 DUP5 MSTORE SWAP1 SWAP2 MSTORE DUP2 KECCAK256 DUP1 SLOAD SWAP2 PUSH2 0x1543 DUP4 PUSH2 0x2946 JUMP JUMPDEST SWAP2 SWAP1 POP SSTORE POP POP POP POP JUMP JUMPDEST POP POP CALLER PUSH1 0x0 SWAP1 DUP2 MSTORE PUSH1 0x16 PUSH1 0x20 SWAP1 DUP2 MSTORE PUSH1 0x40 DUP3 KECCAK256 DUP1 SLOAD PUSH1 0x1 DUP2 ADD DUP3 SSTORE SWAP1 DUP4 MSTORE SWAP2 KECCAK256 ADD SSTORE JUMP JUMPDEST PUSH2 0x1579 PUSH2 0x24BF JUMP JUMPDEST PUSH2 0x1581 PUSH2 0x24BF JUMP JUMPDEST PUSH2 0x1589 PUSH2 0x24BF JUMP JUMPDEST PUSH1 0x3A SLOAD PUSH1 0x40 DUP1 MLOAD PUSH2 0x140 DUP2 ADD SWAP2 DUP3 SWAP1 MSTORE PUSH1 0x0 SWAP3 PUSH1 0x1C SWAP3 PUSH1 0x30 SWAP3 PUSH1 0x26 SWAP3 SWAP2 DUP6 SWAP1 PUSH1 0xA SWAP1 DUP3 DUP5 JUMPDEST DUP2 SLOAD DUP2 MSTORE PUSH1 0x20 ADD SWAP1 PUSH1 0x1 ADD SWAP1 DUP1 DUP4 GT PUSH2 0x15AE JUMPI POP POP PUSH1 0x40 DUP1 MLOAD PUSH2 0x140 DUP2 ADD SWAP2 DUP3 SWAP1 MSTORE SWAP5 SWAP9 POP DUP8 SWAP4 POP PUSH1 0xA SWAP3 POP SWAP1 POP DUP3 DUP5 JUMPDEST DUP2 SLOAD DUP2 MSTORE PUSH1 0x20 ADD SWAP1 PUSH1 0x1 ADD SWAP1 DUP1 DUP4 GT PUSH2 0x15DF JUMPI POP POP PUSH1 0x40 DUP1 MLOAD PUSH2 0x140 DUP2 ADD SWAP2 DUP3 SWAP1 MSTORE SWAP5 SWAP8 POP DUP7 SWAP4 POP PUSH1 0xA SWAP3 POP SWAP1 POP DUP3 DUP5 JUMPDEST DUP2 SLOAD PUSH1 0x1 PUSH1 0x1 PUSH1 0xA0 SHL SUB AND DUP2 MSTORE PUSH1 0x1 SWAP1 SWAP2 ADD SWAP1 PUSH1 0x20 ADD DUP1 DUP4 GT PUSH2 0x1610 JUMPI POP POP POP POP POP SWAP2 POP SWAP4 POP SWAP4 POP SWAP4 POP SWAP4 POP SWAP1 SWAP2 SWAP3 SWAP4 JUMP JUMPDEST PUSH1 0x26 DUP2 PUSH1 0xA DUP2 LT PUSH2 0x774 JUMPI PUSH1 0x0 DUP1 REVERT JUMPDEST PUSH1 0x18 PUSH1 0x20 MSTORE DUP2 PUSH1 0x0 MSTORE PUSH1 0x40 PUSH1 0x0 KECCAK256 DUP2 DUP2 SLOAD DUP2 LT PUSH2 0x1438 JUMPI PUSH1 0x0 DUP1 REVERT JUMPDEST PUSH1 0x3D DUP1 SLOAD CALLER PUSH1 0x0 DUP2 DUP2 MSTORE PUSH1 0x3B PUSH1 0x20 SWAP1 DUP2 MSTORE PUSH1 0x40 DUP1 DUP4 KECCAK256 DUP6 SWAP1 SSTORE SWAP4 DUP3 MSTORE PUSH1 0x3C SWAP1 MSTORE DUP3 DUP2 KECCAK256 TIMESTAMP SWAP1 SSTORE DUP4 SLOAD DUP2 MSTORE SWAP2 SWAP1 SWAP2 KECCAK256 PUSH1 0x2 ADD DUP1 SLOAD PUSH1 0x1 PUSH1 0x1 PUSH1 0xA0 SHL SUB NOT AND SWAP1 SWAP2 OR SWAP1 SSTORE SLOAD PUSH2 0x16BC SWAP1 PUSH1 0x1 PUSH2 0x2B64 JUMP JUMPDEST PUSH1 0x3D SSTORE JUMP JUMPDEST PUSH1 0x30 DUP2 PUSH1 0xA DUP2 LT PUSH2 0x145D JUMPI PUSH1 0x0 DUP1 REVERT JUMPDEST PUSH1 0x6 DUP2 PUSH1 0x3 DUP2 LT PUSH2 0x774 JUMPI PUSH1 0x0 DUP1 REVERT JUMPDEST PUSH2 0x16E9 PUSH2 0x1A70 JUMP JUMPDEST PUSH2 0xEDF DUP2 PUSH2 0x23AD JUMP JUMPDEST CALLER PUSH1 0x0 SWAP1 DUP2 MSTORE PUSH1 0x18 PUSH1 0x20 SWAP1 DUP2 MSTORE PUSH1 0x40 DUP1 DUP4 KECCAK256 DUP1 SLOAD DUP3 MLOAD DUP2 DUP6 MUL DUP2 ADD DUP6 ADD SWAP1 SWAP4 MSTORE DUP1 DUP4 MSTORE SWAP2 SWAP3 SWAP1 SWAP2 SWAP1 DUP4 ADD DUP3 DUP3 DUP1 ISZERO PUSH2 0x1749 JUMPI PUSH1 0x20 MUL DUP3 ADD SWAP2 SWAP1 PUSH1 0x0 MSTORE PUSH1 0x20 PUSH1 0x0 KECCAK256 SWAP1 JUMPDEST DUP2 SLOAD DUP2 MSTORE PUSH1 0x20 ADD SWAP1 PUSH1 0x1 ADD SWAP1 DUP1 DUP4 GT PUSH2 0x1735 JUMPI JUMPDEST POP POP POP POP POP SWAP1 POP PUSH1 0x0 DUP1 JUMPDEST DUP3 MLOAD DUP2 LT ISZERO PUSH2 0x1794 JUMPI DUP4 DUP4 DUP3 DUP2 MLOAD DUP2 LT PUSH2 0x1770 JUMPI PUSH2 0x1770 PUSH2 0x291A JUMP JUMPDEST PUSH1 0x20 MUL PUSH1 0x20 ADD ADD MLOAD SUB PUSH2 0x1782 JUMPI PUSH1 0x1 SWAP2 POP JUMPDEST DUP1 PUSH2 0x178C DUP2 PUSH2 0x2946 JUMP JUMPDEST SWAP2 POP POP PUSH2 0x1754 JUMP JUMPDEST POP DUP1 ISZERO PUSH2 0x17C1 JUMPI CALLER PUSH1 0x0 SWAP1 DUP2 MSTORE PUSH1 0x19 PUSH1 0x20 SWAP1 DUP2 MSTORE PUSH1 0x40 DUP1 DUP4 KECCAK256 DUP7 DUP5 MSTORE SWAP1 SWAP2 MSTORE DUP2 KECCAK256 DUP1 SLOAD SWAP2 PUSH2 0x1543 DUP4 PUSH2 0x2946 JUMP JUMPDEST POP POP CALLER PUSH1 0x0 SWAP1 DUP2 MSTORE PUSH1 0x18 PUSH1 0x20 SWAP1 DUP2 MSTORE PUSH1 0x40 DUP3 KECCAK256 DUP1 SLOAD PUSH1 0x1 DUP2 ADD DUP3 SSTORE SWAP1 DUP4 MSTORE SWAP2 KECCAK256 ADD SSTORE JUMP JUMPDEST PUSH1 0x0 DUP2 MLOAD GT PUSH2 0x182E JUMPI PUSH1 0x40 MLOAD PUSH3 0x461BCD PUSH1 0xE5 SHL DUP2 MSTORE PUSH1 0x20 PUSH1 0x4 DUP3 ADD MSTORE PUSH1 0x15 PUSH1 0x24 DUP3 ADD MSTORE PUSH21 0x1C985B991BDB55DBDC991CC81B9BDD08199BDD5B99 PUSH1 0x5A SHL PUSH1 0x44 DUP3 ADD MSTORE PUSH1 0x64 ADD PUSH2 0x7DB JUMP JUMPDEST PUSH1 0x0 DUP3 DUP2 MSTORE PUSH1 0x15 PUSH1 0x20 MSTORE PUSH1 0x40 SWAP1 KECCAK256 PUSH1 0x1 ADD SLOAD PUSH2 0x1880 JUMPI PUSH1 0x40 MLOAD PUSH3 0x461BCD PUSH1 0xE5 SHL DUP2 MSTORE PUSH1 0x20 PUSH1 0x4 DUP3 ADD MSTORE PUSH1 0x11 PUSH1 0x24 DUP3 ADD MSTORE PUSH17 0x1C995C5D595CDD081B9BDD08199BDD5B99 PUSH1 0x7A SHL PUSH1 0x44 DUP3 ADD MSTORE PUSH1 0x64 ADD PUSH2 0x7DB JUMP JUMPDEST PUSH1 0x0 PUSH1 0x13 DUP1 SLOAD SWAP1 POP DUP3 PUSH1 0x0 DUP2 MLOAD DUP2 LT PUSH2 0x189B JUMPI PUSH2 0x189B PUSH2 0x291A JUMP JUMPDEST PUSH1 0x20 MUL PUSH1 0x20 ADD ADD MLOAD PUSH2 0x18AD SWAP2 SWAP1 PUSH2 0x2B8D JUMP JUMPDEST SWAP1 POP PUSH1 0x0 PUSH1 0x13 DUP3 DUP2 SLOAD DUP2 LT PUSH2 0x18C4 JUMPI PUSH2 0x18C4 PUSH2 0x291A JUMP JUMPDEST PUSH1 0x0 SWAP2 DUP3 MSTORE PUSH1 0x20 DUP1 DUP4 KECCAK256 PUSH1 0x40 DUP1 MLOAD DUP1 DUP3 ADD DUP3 MSTORE PUSH1 0x2 SWAP5 DUP6 MUL SWAP1 SWAP3 ADD DUP1 SLOAD DUP4 MSTORE PUSH1 0x1 SWAP1 DUP2 ADD SLOAD DUP4 DUP6 ADD MSTORE DUP10 DUP7 MSTORE PUSH1 0x15 DUP5 MSTORE SWAP5 KECCAK256 SWAP3 DUP4 ADD DUP1 SLOAD PUSH1 0xFF NOT AND SWAP1 SWAP5 OR SWAP1 SWAP4 SSTORE DUP6 MLOAD SWAP3 SWAP4 POP PUSH2 0x191D SWAP3 PUSH1 0x3 SWAP1 SWAP3 ADD SWAP2 SWAP1 DUP7 ADD SWAP1 PUSH2 0x2474 JUMP JUMPDEST POP PUSH1 0x0 DUP5 DUP2 MSTORE PUSH1 0x15 PUSH1 0x20 SWAP1 DUP2 MSTORE PUSH1 0x40 DUP3 KECCAK256 DUP4 MLOAD PUSH1 0x4 DUP3 ADD DUP2 SWAP1 SSTORE SWAP2 DUP5 ADD MLOAD PUSH1 0x5 DUP3 ADD SSTORE SLOAD PUSH1 0x1 PUSH1 0x1 PUSH1 0xA0 SHL SUB AND SWAP2 SUB PUSH2 0x1994 JUMPI DUP2 PUSH1 0x20 ADD MLOAD PUSH1 0x1A PUSH1 0x0 DUP4 PUSH1 0x1 PUSH1 0x1 PUSH1 0xA0 SHL SUB AND PUSH1 0x1 PUSH1 0x1 PUSH1 0xA0 SHL SUB AND DUP2 MSTORE PUSH1 0x20 ADD SWAP1 DUP2 MSTORE PUSH1 0x20 ADD PUSH1 0x0 KECCAK256 PUSH1 0x0 DUP3 DUP3 SLOAD PUSH2 0x1989 SWAP2 SWAP1 PUSH2 0x2B64 JUMP JUMPDEST SWAP1 SWAP2 SSTORE POP PUSH2 0x1A1A SWAP1 POP JUMP JUMPDEST DUP2 MLOAD PUSH1 0x1 SUB PUSH2 0x19D6 JUMPI DUP2 PUSH1 0x20 ADD MLOAD PUSH1 0x1B PUSH1 0x0 DUP4 PUSH1 0x1 PUSH1 0x1 PUSH1 0xA0 SHL SUB AND PUSH1 0x1 PUSH1 0x1 PUSH1 0xA0 SHL SUB AND DUP2 MSTORE PUSH1 0x20 ADD SWAP1 DUP2 MSTORE PUSH1 0x20 ADD PUSH1 0x0 KECCAK256 PUSH1 0x0 DUP3 DUP3 SLOAD PUSH2 0x1989 SWAP2 SWAP1 PUSH2 0x2B64 JUMP JUMPDEST DUP2 MLOAD PUSH1 0x2 EQ PUSH2 0x1A1A JUMPI DUP2 MLOAD PUSH1 0x3 SUB PUSH2 0x1A1A JUMPI PUSH1 0x1 PUSH1 0x1 PUSH1 0xA0 SHL SUB DUP2 AND PUSH1 0x0 SWAP1 DUP2 MSTORE PUSH1 0x16 PUSH1 0x20 SWAP1 DUP2 MSTORE PUSH1 0x40 DUP3 KECCAK256 DUP5 DUP3 ADD MLOAD DUP2 SLOAD PUSH1 0x1 DUP2 ADD DUP4 SSTORE SWAP2 DUP5 MSTORE SWAP2 SWAP1 SWAP3 KECCAK256 SWAP1 SWAP2 ADD SSTORE JUMPDEST PUSH1 0x0 DUP6 DUP2 MSTORE PUSH1 0x15 PUSH1 0x20 MSTORE PUSH1 0x40 SWAP1 DUP2 SWAP1 KECCAK256 PUSH1 0x1 ADD SLOAD SWAP1 MLOAD PUSH32 0x8C5EB6455FC6D271F045DB3F6049931E0B5372962417D81DCC38FC0BEBE8D141 SWAP2 PUSH2 0x1A61 SWAP2 DUP9 SWAP2 DUP9 SWAP2 DUP8 SWAP1 PUSH2 0x2BA1 JUMP JUMPDEST PUSH1 0x40 MLOAD DUP1 SWAP2 SUB SWAP1 LOG1 POP POP POP POP POP JUMP JUMPDEST PUSH1 0x0 SLOAD PUSH1 0x1 PUSH1 0x1 PUSH1 0xA0 SHL SUB AND CALLER EQ PUSH2 0x1AC3 JUMPI PUSH1 0x40 MLOAD PUSH3 0x461BCD PUSH1 0xE5 SHL DUP2 MSTORE PUSH1 0x20 PUSH1 0x4 DUP3 ADD MSTORE PUSH1 0x16 PUSH1 0x24 DUP3 ADD MSTORE PUSH22 0x27B7363C9031B0B63630B1363290313C9037BBB732B9 PUSH1 0x51 SHL PUSH1 0x44 DUP3 ADD MSTORE PUSH1 0x64 ADD PUSH2 0x7DB JUMP JUMPDEST JUMP JUMPDEST DUP1 PUSH1 0x60 ADD MLOAD DUP1 PUSH1 0x20 ADD SWAP1 MLOAD DUP2 ADD SWAP1 PUSH2 0x1ADD SWAP2 SWAP1 PUSH2 0x2BD9 JUMP JUMPDEST DUP1 MLOAD PUSH1 0x10 DUP1 SLOAD PUSH1 0x1 PUSH1 0x1 PUSH1 0xA0 SHL SUB NOT AND PUSH1 0x1 PUSH1 0x1 PUSH1 0xA0 SHL SUB SWAP1 SWAP3 AND SWAP2 DUP3 OR SWAP1 SSTORE PUSH1 0x20 DUP1 DUP4 ADD MLOAD PUSH1 0x11 DUP2 SWAP1 SSTORE PUSH1 0x40 SWAP4 DUP5 ADD MLOAD PUSH1 0x12 DUP2 SWAP1 SSTORE DUP5 MLOAD PUSH1 0x60 DUP2 ADD DUP7 MSTORE SWAP4 DUP5 MSTORE SWAP2 DUP4 ADD MSTORE SWAP2 DUP2 ADD SWAP2 SWAP1 SWAP2 MSTORE PUSH2 0x1B32 SWAP1 PUSH2 0x1BB7 JUMP JUMPDEST DUP1 PUSH1 0x20 ADD MLOAD PUSH1 0x1 PUSH1 0x1 PUSH1 0x40 SHL SUB AND DUP2 PUSH1 0x0 ADD MLOAD PUSH32 0xAA5CBDCF4F25939D41BE3032075952CFD5F51F978A501D2F801D671061623F1D DUP4 PUSH1 0x40 ADD MLOAD DUP1 PUSH1 0x20 ADD SWAP1 MLOAD DUP2 ADD SWAP1 PUSH2 0x1B7E SWAP2 SWAP1 PUSH2 0x2C3A JUMP JUMPDEST PUSH1 0x40 DUP1 MLOAD PUSH1 0x1 PUSH1 0x1 PUSH1 0xA0 SHL SUB SWAP3 DUP4 AND DUP2 MSTORE PUSH1 0x10 SLOAD SWAP1 SWAP3 AND PUSH1 0x20 DUP4 ADD MSTORE PUSH1 0x11 SLOAD SWAP1 DUP3 ADD MSTORE PUSH1 0x12 SLOAD PUSH1 0x60 DUP3 ADD MSTORE PUSH1 0x80 ADD PUSH1 0x40 MLOAD DUP1 SWAP2 SUB SWAP1 LOG3 POP JUMP JUMPDEST PUSH1 0x20 DUP2 ADD MLOAD DUP2 MLOAD PUSH1 0x40 DUP4 ADD MLOAD DUP3 PUSH1 0x1C PUSH2 0x1BD2 PUSH1 0x1 PUSH1 0xA PUSH2 0x2C57 JUMP JUMPDEST PUSH1 0xA DUP2 LT PUSH2 0x1BE2 JUMPI PUSH2 0x1BE2 PUSH2 0x291A JUMP JUMPDEST ADD SLOAD LT ISZERO PUSH2 0x1DA5 JUMPI PUSH1 0x0 DUP1 PUSH2 0x1BF9 PUSH1 0x1 PUSH1 0xA PUSH2 0x2C57 JUMP JUMPDEST SWAP1 POP PUSH1 0x0 JUMPDEST DUP2 DUP4 LT ISZERO PUSH2 0x1C54 JUMPI PUSH1 0x2 PUSH2 0x1C12 DUP4 DUP6 PUSH2 0x2B64 JUMP JUMPDEST PUSH2 0x1C1C SWAP2 SWAP1 PUSH2 0x2C6A JUMP JUMPDEST SWAP1 POP DUP6 PUSH1 0x1C DUP3 PUSH1 0xA DUP2 LT PUSH2 0x1C32 JUMPI PUSH2 0x1C32 PUSH2 0x291A JUMP JUMPDEST ADD SLOAD LT ISZERO PUSH2 0x1C42 JUMPI DUP1 SWAP2 POP PUSH2 0x1BFE JUMP JUMPDEST PUSH2 0x1C4D DUP2 PUSH1 0x1 PUSH2 0x2B64 JUMP JUMPDEST SWAP3 POP PUSH2 0x1BFE JUMP JUMPDEST PUSH1 0x0 PUSH2 0x1C62 PUSH1 0x1 PUSH1 0xA PUSH2 0x2C57 JUMP JUMPDEST SWAP1 POP JUMPDEST DUP4 DUP2 GT ISZERO PUSH2 0x1D41 JUMPI PUSH1 0x1C PUSH2 0x1C7A PUSH1 0x1 DUP4 PUSH2 0x2C57 JUMP JUMPDEST PUSH1 0xA DUP2 LT PUSH2 0x1C8A JUMPI PUSH2 0x1C8A PUSH2 0x291A JUMP JUMPDEST ADD SLOAD PUSH1 0x1C DUP3 PUSH1 0xA DUP2 LT PUSH2 0x1C9F JUMPI PUSH2 0x1C9F PUSH2 0x291A JUMP JUMPDEST ADD SSTORE PUSH1 0x26 PUSH2 0x1CAE PUSH1 0x1 DUP4 PUSH2 0x2C57 JUMP JUMPDEST PUSH1 0xA DUP2 LT PUSH2 0x1CBE JUMPI PUSH2 0x1CBE PUSH2 0x291A JUMP JUMPDEST ADD SLOAD PUSH1 0x1 PUSH1 0x1 PUSH1 0xA0 SHL SUB AND PUSH1 0x26 DUP3 PUSH1 0xA DUP2 LT PUSH2 0x1CDC JUMPI PUSH2 0x1CDC PUSH2 0x291A JUMP JUMPDEST ADD DUP1 SLOAD PUSH1 0x1 PUSH1 0x1 PUSH1 0xA0 SHL SUB NOT AND PUSH1 0x1 PUSH1 0x1 PUSH1 0xA0 SHL SUB SWAP3 SWAP1 SWAP3 AND SWAP2 SWAP1 SWAP2 OR SWAP1 SSTORE PUSH1 0x30 PUSH2 0x1D08 PUSH1 0x1 DUP4 PUSH2 0x2C57 JUMP JUMPDEST PUSH1 0xA DUP2 LT PUSH2 0x1D18 JUMPI PUSH2 0x1D18 PUSH2 0x291A JUMP JUMPDEST ADD SLOAD PUSH1 0x30 DUP3 PUSH1 0xA DUP2 LT PUSH2 0x1D2D JUMPI PUSH2 0x1D2D PUSH2 0x291A JUMP JUMPDEST ADD SSTORE DUP1 PUSH2 0x1D39 DUP2 PUSH2 0x2C7E JUMP JUMPDEST SWAP2 POP POP PUSH2 0x1C65 JUMP JUMPDEST POP DUP6 PUSH1 0x1C DUP5 PUSH1 0xA DUP2 LT PUSH2 0x1D56 JUMPI PUSH2 0x1D56 PUSH2 0x291A JUMP JUMPDEST ADD SSTORE DUP5 PUSH1 0x26 DUP5 PUSH1 0xA DUP2 LT PUSH2 0x1D6C JUMPI PUSH2 0x1D6C PUSH2 0x291A JUMP JUMPDEST ADD DUP1 SLOAD PUSH1 0x1 PUSH1 0x1 PUSH1 0xA0 SHL SUB NOT AND PUSH1 0x1 PUSH1 0x1 PUSH1 0xA0 SHL SUB SWAP3 SWAP1 SWAP3 AND SWAP2 SWAP1 SWAP2 OR SWAP1 SSTORE DUP4 PUSH1 0x30 DUP5 PUSH1 0xA DUP2 LT PUSH2 0x1D9F JUMPI PUSH2 0x1D9F PUSH2 0x291A JUMP JUMPDEST ADD SSTORE POP POP POP JUMPDEST POP POP TIMESTAMP PUSH1 0x3A SSTORE POP POP JUMP JUMPDEST PUSH1 0x40 DUP1 MLOAD PUSH1 0xA0 DUP2 ADD SWAP1 SWAP2 MSTORE PUSH1 0x1 PUSH1 0x1 PUSH1 0xA0 SHL SUB DUP6 AND PUSH1 0xC0 DUP3 ADD MSTORE PUSH1 0x0 SWAP1 DUP5 SWAP1 DUP5 SWAP1 DUP4 SWAP1 DUP1 PUSH1 0xE0 DUP2 ADD PUSH1 0x40 MLOAD PUSH1 0x20 DUP2 DUP4 SUB SUB DUP2 MSTORE SWAP1 PUSH1 0x40 MSTORE DUP2 MSTORE PUSH1 0x20 ADD DUP7 PUSH1 0x40 MLOAD PUSH1 0x20 ADD PUSH2 0x1DFC SWAP2 SWAP1 PUSH2 0x2C95 JUMP JUMPDEST PUSH1 0x40 DUP1 MLOAD PUSH1 0x1F NOT DUP2 DUP5 SUB ADD DUP2 MSTORE SWAP2 SWAP1 MSTORE DUP2 MSTORE PUSH1 0x20 ADD PUSH1 0x0 PUSH1 0x40 MLOAD SWAP1 DUP1 DUP3 MSTORE DUP1 PUSH1 0x20 MUL PUSH1 0x20 ADD DUP3 ADD PUSH1 0x40 MSTORE DUP1 ISZERO PUSH2 0x1E58 JUMPI DUP2 PUSH1 0x20 ADD JUMPDEST PUSH1 0x40 DUP1 MLOAD DUP1 DUP3 ADD SWAP1 SWAP2 MSTORE PUSH1 0x0 DUP1 DUP3 MSTORE PUSH1 0x20 DUP3 ADD MSTORE DUP2 MSTORE PUSH1 0x20 ADD SWAP1 PUSH1 0x1 SWAP1 SUB SWAP1 DUP2 PUSH2 0x1E31 JUMPI SWAP1 POP JUMPDEST POP DUP2 MSTORE PUSH1 0x20 ADD DUP9 PUSH1 0x1 PUSH1 0x1 PUSH1 0xA0 SHL SUB AND DUP2 MSTORE PUSH1 0x20 ADD PUSH2 0x1E87 PUSH1 0x40 MLOAD DUP1 PUSH1 0x20 ADD PUSH1 0x40 MSTORE DUP1 PUSH3 0x30D40 DUP2 MSTORE POP PUSH2 0x2456 JUMP JUMPDEST SWAP1 MSTORE PUSH1 0x40 MLOAD PUSH4 0x20487DED PUSH1 0xE0 SHL DUP2 MSTORE SWAP1 SWAP2 POP PUSH1 0x0 SWAP1 PUSH1 0x1 PUSH1 0x1 PUSH1 0xA0 SHL SUB DUP5 AND SWAP1 PUSH4 0x20487DED SWAP1 PUSH2 0x1EBD SWAP1 DUP14 SWAP1 DUP7 SWAP1 PUSH1 0x4 ADD PUSH2 0x2D05 JUMP JUMPDEST PUSH1 0x20 PUSH1 0x40 MLOAD DUP1 DUP4 SUB DUP2 DUP7 GAS STATICCALL ISZERO DUP1 ISZERO PUSH2 0x1EDA JUMPI RETURNDATASIZE PUSH1 0x0 DUP1 RETURNDATACOPY RETURNDATASIZE PUSH1 0x0 REVERT JUMPDEST POP POP POP POP PUSH1 0x40 MLOAD RETURNDATASIZE PUSH1 0x1F NOT PUSH1 0x1F DUP3 ADD AND DUP3 ADD DUP1 PUSH1 0x40 MSTORE POP DUP2 ADD SWAP1 PUSH2 0x1EFE SWAP2 SWAP1 PUSH2 0x2B29 JUMP JUMPDEST PUSH1 0x40 MLOAD PUSH4 0x70A08231 PUSH1 0xE0 SHL DUP2 MSTORE ADDRESS PUSH1 0x4 DUP3 ADD MSTORE SWAP1 SWAP2 POP PUSH1 0x1 PUSH1 0x1 PUSH1 0xA0 SHL SUB DUP6 AND SWAP1 PUSH4 0x70A08231 SWAP1 PUSH1 0x24 ADD PUSH1 0x20 PUSH1 0x40 MLOAD DUP1 DUP4 SUB DUP2 DUP7 GAS STATICCALL ISZERO DUP1 ISZERO PUSH2 0x1F45 JUMPI RETURNDATASIZE PUSH1 0x0 DUP1 RETURNDATACOPY RETURNDATASIZE PUSH1 0x0 REVERT JUMPDEST POP POP POP POP PUSH1 0x40 MLOAD RETURNDATASIZE PUSH1 0x1F NOT PUSH1 0x1F DUP3 ADD AND DUP3 ADD DUP1 PUSH1 0x40 MSTORE POP DUP2 ADD SWAP1 PUSH2 0x1F69 SWAP2 SWAP1 PUSH2 0x2B29 JUMP JUMPDEST DUP2 GT ISZERO PUSH2 0x1FFC JUMPI PUSH1 0x40 MLOAD PUSH4 0x70A08231 PUSH1 0xE0 SHL DUP2 MSTORE ADDRESS PUSH1 0x4 DUP3 ADD MSTORE PUSH1 0x1 PUSH1 0x1 PUSH1 0xA0 SHL SUB DUP6 AND SWAP1 PUSH4 0x70A08231 SWAP1 PUSH1 0x24 ADD PUSH1 0x20 PUSH1 0x40 MLOAD DUP1 DUP4 SUB DUP2 DUP7 GAS STATICCALL ISZERO DUP1 ISZERO PUSH2 0x1FB4 JUMPI RETURNDATASIZE PUSH1 0x0 DUP1 RETURNDATACOPY RETURNDATASIZE PUSH1 0x0 REVERT JUMPDEST POP POP POP POP PUSH1 0x40 MLOAD RETURNDATASIZE PUSH1 0x1F NOT PUSH1 0x1F DUP3 ADD AND DUP3 ADD DUP1 PUSH1 0x40 MSTORE POP DUP2 ADD SWAP1 PUSH2 0x1FD8 SWAP2 SWAP1 PUSH2 0x2B29 JUMP JUMPDEST PUSH1 0x40 MLOAD PUSH4 0x4787A103 PUSH1 0xE1 SHL DUP2 MSTORE PUSH1 0x4 DUP2 ADD SWAP2 SWAP1 SWAP2 MSTORE PUSH1 0x24 DUP2 ADD DUP3 SWAP1 MSTORE PUSH1 0x44 ADD PUSH2 0x7DB JUMP JUMPDEST PUSH1 0x40 MLOAD PUSH4 0x95EA7B3 PUSH1 0xE0 SHL DUP2 MSTORE PUSH1 0x1 PUSH1 0x1 PUSH1 0xA0 SHL SUB DUP5 DUP2 AND PUSH1 0x4 DUP4 ADD MSTORE PUSH1 0x24 DUP3 ADD DUP4 SWAP1 MSTORE DUP6 AND SWAP1 PUSH4 0x95EA7B3 SWAP1 PUSH1 0x44 ADD PUSH1 0x20 PUSH1 0x40 MLOAD DUP1 DUP4 SUB DUP2 PUSH1 0x0 DUP8 GAS CALL ISZERO DUP1 ISZERO PUSH2 0x204B JUMPI RETURNDATASIZE PUSH1 0x0 DUP1 RETURNDATACOPY RETURNDATASIZE PUSH1 0x0 REVERT JUMPDEST POP POP POP POP PUSH1 0x40 MLOAD RETURNDATASIZE PUSH1 0x1F NOT PUSH1 0x1F DUP3 ADD AND DUP3 ADD DUP1 PUSH1 0x40 MSTORE POP DUP2 ADD SWAP1 PUSH2 0x206F SWAP2 SWAP1 PUSH2 0x2B42 JUMP JUMPDEST POP PUSH1 0x40 MLOAD PUSH4 0x96F4E9F9 PUSH1 0xE0 SHL DUP2 MSTORE PUSH1 0x1 PUSH1 0x1 PUSH1 0xA0 SHL SUB DUP5 AND SWAP1 PUSH4 0x96F4E9F9 SWAP1 PUSH2 0x209E SWAP1 DUP14 SWAP1 DUP7 SWAP1 PUSH1 0x4 ADD PUSH2 0x2D05 JUMP JUMPDEST PUSH1 0x20 PUSH1 0x40 MLOAD DUP1 DUP4 SUB DUP2 PUSH1 0x0 DUP8 GAS CALL ISZERO DUP1 ISZERO PUSH2 0x20BD JUMPI RETURNDATASIZE PUSH1 0x0 DUP1 RETURNDATACOPY RETURNDATASIZE PUSH1 0x0 REVERT JUMPDEST POP POP POP POP PUSH1 0x40 MLOAD RETURNDATASIZE PUSH1 0x1F NOT PUSH1 0x1F DUP3 ADD AND DUP3 ADD DUP1 PUSH1 0x40 MSTORE POP DUP2 ADD SWAP1 PUSH2 0x20E1 SWAP2 SWAP1 PUSH2 0x2B29 JUMP JUMPDEST SWAP5 POP DUP10 PUSH1 0x1 PUSH1 0x1 PUSH1 0x40 SHL SUB AND DUP6 PUSH32 0xD0D85F1CC5AB17F712B6074D702EDD6281031E603C5CF76890A85B1170045B3A DUP12 DUP10 DUP13 DUP7 PUSH1 0x40 MLOAD PUSH2 0x2123 SWAP5 SWAP4 SWAP3 SWAP2 SWAP1 PUSH2 0x2DDE JUMP JUMPDEST PUSH1 0x40 MLOAD DUP1 SWAP2 SUB SWAP1 LOG3 POP POP POP POP JUMPDEST SWAP6 SWAP5 POP POP POP POP POP JUMP JUMPDEST PUSH1 0x60 PUSH32 0x92FD13387C7FE7BEFBC38D303D6468778FB9731BC4583F17D92989C6FCFDEAAA DUP3 PUSH1 0x40 MLOAD PUSH1 0x24 ADD PUSH2 0x2172 SWAP2 MLOAD ISZERO ISZERO DUP2 MSTORE PUSH1 0x20 ADD SWAP1 JUMP JUMPDEST PUSH1 0x40 DUP1 MLOAD PUSH1 0x1F NOT DUP2 DUP5 SUB ADD DUP2 MSTORE SWAP2 SWAP1 MSTORE PUSH1 0x20 DUP2 ADD DUP1 MLOAD PUSH1 0x1 PUSH1 0x1 PUSH1 0xE0 SHL SUB AND PUSH1 0x1 PUSH1 0x1 PUSH1 0xE0 SHL SUB NOT SWAP1 SWAP4 AND SWAP3 SWAP1 SWAP3 OR SWAP1 SWAP2 MSTORE SWAP3 SWAP2 POP POP JUMP JUMPDEST PUSH1 0x40 MLOAD PUSH4 0x13F2E285 PUSH1 0xE1 SHL DUP2 MSTORE PUSH4 0xFFFFFFFF DUP1 DUP7 AND PUSH1 0x4 DUP4 ADD MSTORE DUP4 AND PUSH1 0x24 DUP3 ADD MSTORE PUSH1 0x0 SWAP1 DUP2 SWAP1 PUSH1 0x1 PUSH1 0x1 PUSH1 0xA0 SHL SUB PUSH32 0x0 AND SWAP1 PUSH4 0x27E5C50A SWAP1 PUSH1 0x44 ADD PUSH1 0x20 PUSH1 0x40 MLOAD DUP1 DUP4 SUB DUP2 DUP7 GAS STATICCALL ISZERO DUP1 ISZERO PUSH2 0x2221 JUMPI RETURNDATASIZE PUSH1 0x0 DUP1 RETURNDATACOPY RETURNDATASIZE PUSH1 0x0 REVERT JUMPDEST POP POP POP POP PUSH1 0x40 MLOAD RETURNDATASIZE PUSH1 0x1F NOT PUSH1 0x1F DUP3 ADD AND DUP3 ADD DUP1 PUSH1 0x40 MSTORE POP DUP2 ADD SWAP1 PUSH2 0x2245 SWAP2 SWAP1 PUSH2 0x2B29 JUMP JUMPDEST SWAP1 POP PUSH32 0x0 PUSH1 0x1 PUSH1 0x1 PUSH1 0xA0 SHL SUB AND PUSH4 0x4000AEA0 PUSH32 0x0 DUP4 DUP10 DUP10 DUP10 DUP10 PUSH1 0x40 MLOAD PUSH1 0x20 ADD PUSH2 0x22AF SWAP5 SWAP4 SWAP3 SWAP2 SWAP1 PUSH2 0x2E2D JUMP JUMPDEST PUSH1 0x40 MLOAD PUSH1 0x20 DUP2 DUP4 SUB SUB DUP2 MSTORE SWAP1 PUSH1 0x40 MSTORE PUSH1 0x40 MLOAD DUP5 PUSH4 0xFFFFFFFF AND PUSH1 0xE0 SHL DUP2 MSTORE PUSH1 0x4 ADD PUSH2 0x22DC SWAP4 SWAP3 SWAP2 SWAP1 PUSH2 0x2E6A JUMP JUMPDEST PUSH1 0x20 PUSH1 0x40 MLOAD DUP1 DUP4 SUB DUP2 PUSH1 0x0 DUP8 GAS CALL ISZERO DUP1 ISZERO PUSH2 0x22FB JUMPI RETURNDATASIZE PUSH1 0x0 DUP1 RETURNDATACOPY RETURNDATASIZE PUSH1 0x0 REVERT JUMPDEST POP POP POP POP PUSH1 0x40 MLOAD RETURNDATASIZE PUSH1 0x1F NOT PUSH1 0x1F DUP3 ADD AND DUP3 ADD DUP1 PUSH1 0x40 MSTORE POP DUP2 ADD SWAP1 PUSH2 0x231F SWAP2 SWAP1 PUSH2 0x2B42 JUMP JUMPDEST POP PUSH32 0x0 PUSH1 0x1 PUSH1 0x1 PUSH1 0xA0 SHL SUB AND PUSH4 0xFC2A88C3 PUSH1 0x40 MLOAD DUP2 PUSH4 0xFFFFFFFF AND PUSH1 0xE0 SHL DUP2 MSTORE PUSH1 0x4 ADD PUSH1 0x20 PUSH1 0x40 MLOAD DUP1 DUP4 SUB DUP2 DUP7 GAS STATICCALL ISZERO DUP1 ISZERO PUSH2 0x237E JUMPI RETURNDATASIZE PUSH1 0x0 DUP1 RETURNDATACOPY RETURNDATASIZE PUSH1 0x0 REVERT JUMPDEST POP POP POP POP PUSH1 0x40 MLOAD RETURNDATASIZE PUSH1 0x1F NOT PUSH1 0x1F DUP3 ADD AND DUP3 ADD DUP1 PUSH1 0x40 MSTORE POP DUP2 ADD SWAP1 PUSH2 0x23A2 SWAP2 SWAP1 PUSH2 0x2B29 JUMP JUMPDEST SWAP2 POP SWAP5 POP SWAP5 SWAP3 POP POP POP JUMP JUMPDEST CALLER PUSH1 0x1 PUSH1 0x1 PUSH1 0xA0 SHL SUB DUP3 AND SUB PUSH2 0x2405 JUMPI PUSH1 0x40 MLOAD PUSH3 0x461BCD PUSH1 0xE5 SHL DUP2 MSTORE PUSH1 0x20 PUSH1 0x4 DUP3 ADD MSTORE PUSH1 0x17 PUSH1 0x24 DUP3 ADD MSTORE PUSH32 0x43616E6E6F74207472616E7366657220746F2073656C66000000000000000000 PUSH1 0x44 DUP3 ADD MSTORE PUSH1 0x64 ADD PUSH2 0x7DB JUMP JUMPDEST PUSH1 0x1 DUP1 SLOAD PUSH1 0x1 PUSH1 0x1 PUSH1 0xA0 SHL SUB NOT AND PUSH1 0x1 PUSH1 0x1 PUSH1 0xA0 SHL SUB DUP4 DUP2 AND SWAP2 DUP3 OR SWAP1 SWAP3 SSTORE PUSH1 0x0 DUP1 SLOAD PUSH1 0x40 MLOAD SWAP3 SWAP4 AND SWAP2 PUSH32 0xED8889F560326EB138920D842192F0EB3DD22B4F139C87A2C57538E05BAE1278 SWAP2 SWAP1 LOG3 POP JUMP JUMPDEST PUSH1 0x40 MLOAD DUP2 MLOAD PUSH1 0x24 DUP3 ADD MSTORE PUSH1 0x60 SWAP1 PUSH4 0x97A657C9 PUSH1 0xE0 SHL SWAP1 PUSH1 0x44 ADD PUSH2 0x2172 JUMP JUMPDEST DUP3 DUP1 SLOAD DUP3 DUP3 SSTORE SWAP1 PUSH1 0x0 MSTORE PUSH1 0x20 PUSH1 0x0 KECCAK256 SWAP1 DUP2 ADD SWAP3 DUP3 ISZERO PUSH2 0x24AF JUMPI SWAP2 PUSH1 0x20 MUL DUP3 ADD JUMPDEST DUP3 DUP2 GT ISZERO PUSH2 0x24AF JUMPI DUP3 MLOAD DUP3 SSTORE SWAP2 PUSH1 0x20 ADD SWAP2 SWAP1 PUSH1 0x1 ADD SWAP1 PUSH2 0x2494 JUMP JUMPDEST POP PUSH2 0x24BB SWAP3 SWAP2 POP PUSH2 0x24DE JUMP JUMPDEST POP SWAP1 JUMP JUMPDEST PUSH1 0x40 MLOAD DUP1 PUSH2 0x140 ADD PUSH1 0x40 MSTORE DUP1 PUSH1 0xA SWAP1 PUSH1 0x20 DUP3 MUL DUP1 CALLDATASIZE DUP4 CALLDATACOPY POP SWAP2 SWAP3 SWAP2 POP POP JUMP JUMPDEST JUMPDEST DUP1 DUP3 GT ISZERO PUSH2 0x24BB JUMPI PUSH1 0x0 DUP2 SSTORE PUSH1 0x1 ADD PUSH2 0x24DF JUMP JUMPDEST PUSH1 0x0 PUSH1 0x20 DUP3 DUP5 SUB SLT ISZERO PUSH2 0x2505 JUMPI PUSH1 0x0 DUP1 REVERT JUMPDEST DUP2 CALLDATALOAD PUSH1 0x1 PUSH1 0x1 PUSH1 0xE0 SHL SUB NOT DUP2 AND DUP2 EQ PUSH2 0x251D JUMPI PUSH1 0x0 DUP1 REVERT JUMPDEST SWAP4 SWAP3 POP POP POP JUMP JUMPDEST PUSH1 0x0 PUSH1 0x20 DUP3 DUP5 SUB SLT ISZERO PUSH2 0x2536 JUMPI PUSH1 0x0 DUP1 REVERT JUMPDEST POP CALLDATALOAD SWAP2 SWAP1 POP JUMP JUMPDEST PUSH4 0x4E487B71 PUSH1 0xE0 SHL PUSH1 0x0 MSTORE PUSH1 0x41 PUSH1 0x4 MSTORE PUSH1 0x24 PUSH1 0x0 REVERT JUMPDEST PUSH1 0x40 DUP1 MLOAD SWAP1 DUP2 ADD PUSH1 0x1 PUSH1 0x1 PUSH1 0x40 SHL SUB DUP2 GT DUP3 DUP3 LT OR ISZERO PUSH2 0x2575 JUMPI PUSH2 0x2575 PUSH2 0x253D JUMP JUMPDEST PUSH1 0x40 MSTORE SWAP1 JUMP JUMPDEST PUSH1 0x40 MLOAD PUSH1 0xA0 DUP2 ADD PUSH1 0x1 PUSH1 0x1 PUSH1 0x40 SHL SUB DUP2 GT DUP3 DUP3 LT OR ISZERO PUSH2 0x2575 JUMPI PUSH2 0x2575 PUSH2 0x253D JUMP JUMPDEST PUSH1 0x40 MLOAD PUSH1 0x1F DUP3 ADD PUSH1 0x1F NOT AND DUP2 ADD PUSH1 0x1 PUSH1 0x1 PUSH1 0x40 SHL SUB DUP2 GT DUP3 DUP3 LT OR ISZERO PUSH2 0x25C5 JUMPI PUSH2 0x25C5 PUSH2 0x253D JUMP JUMPDEST PUSH1 0x40 MSTORE SWAP2 SWAP1 POP JUMP JUMPDEST PUSH1 0x0 PUSH1 0x1 PUSH1 0x1 PUSH1 0x40 SHL SUB DUP3 GT ISZERO PUSH2 0x25E6 JUMPI PUSH2 0x25E6 PUSH2 0x253D JUMP JUMPDEST POP PUSH1 0x5 SHL PUSH1 0x20 ADD SWAP1 JUMP JUMPDEST PUSH1 0x0 DUP1 PUSH1 0x40 DUP4 DUP6 SUB SLT ISZERO PUSH2 0x2603 JUMPI PUSH1 0x0 DUP1 REVERT JUMPDEST DUP3 CALLDATALOAD SWAP2 POP PUSH1 0x20 DUP1 DUP5 ADD CALLDATALOAD PUSH1 0x1 PUSH1 0x1 PUSH1 0x40 SHL SUB DUP2 GT ISZERO PUSH2 0x2621 JUMPI PUSH1 0x0 DUP1 REVERT JUMPDEST DUP5 ADD PUSH1 0x1F DUP2 ADD DUP7 SGT PUSH2 0x2632 JUMPI PUSH1 0x0 DUP1 REVERT JUMPDEST DUP1 CALLDATALOAD PUSH2 0x2645 PUSH2 0x2640 DUP3 PUSH2 0x25CD JUMP JUMPDEST PUSH2 0x259D JUMP JUMPDEST DUP2 DUP2 MSTORE PUSH1 0x5 SWAP2 SWAP1 SWAP2 SHL DUP3 ADD DUP4 ADD SWAP1 DUP4 DUP2 ADD SWAP1 DUP9 DUP4 GT ISZERO PUSH2 0x2664 JUMPI PUSH1 0x0 DUP1 REVERT JUMPDEST SWAP3 DUP5 ADD SWAP3 JUMPDEST DUP3 DUP5 LT ISZERO PUSH2 0x2682 JUMPI DUP4 CALLDATALOAD DUP3 MSTORE SWAP3 DUP5 ADD SWAP3 SWAP1 DUP5 ADD SWAP1 PUSH2 0x2669 JUMP JUMPDEST DUP1 SWAP6 POP POP POP POP POP POP SWAP3 POP SWAP3 SWAP1 POP JUMP JUMPDEST DUP4 DUP2 MSTORE DUP3 ISZERO ISZERO PUSH1 0x20 DUP3 ADD MSTORE PUSH1 0x80 DUP2 ADD PUSH2 0x26B7 PUSH1 0x40 DUP4 ADD DUP5 DUP1 MLOAD DUP3 MSTORE PUSH1 0x20 SWAP1 DUP2 ADD MLOAD SWAP2 ADD MSTORE JUMP JUMPDEST SWAP5 SWAP4 POP POP POP POP JUMP JUMPDEST PUSH1 0x0 DUP2 MLOAD DUP1 DUP5 MSTORE PUSH1 0x20 DUP1 DUP6 ADD SWAP5 POP DUP1 DUP5 ADD PUSH1 0x0 JUMPDEST DUP4 DUP2 LT ISZERO PUSH2 0x26EF JUMPI DUP2 MLOAD DUP8 MSTORE SWAP6 DUP3 ADD SWAP6 SWAP1 DUP3 ADD SWAP1 PUSH1 0x1 ADD PUSH2 0x26D3 JUMP JUMPDEST POP SWAP5 SWAP6 SWAP5 POP POP POP POP POP JUMP JUMPDEST DUP5 DUP2 MSTORE DUP4 PUSH1 0x20 DUP3 ADD MSTORE PUSH1 0x80 PUSH1 0x40 DUP3 ADD MSTORE PUSH1 0x0 PUSH2 0x2719 PUSH1 0x80 DUP4 ADD DUP6 PUSH2 0x26BF JUMP JUMPDEST DUP3 DUP2 SUB PUSH1 0x60 DUP5 ADD MSTORE PUSH2 0x272B DUP2 DUP6 PUSH2 0x26BF JUMP JUMPDEST SWAP8 SWAP7 POP POP POP POP POP POP POP JUMP JUMPDEST PUSH1 0x1 PUSH1 0x1 PUSH1 0xA0 SHL SUB DUP2 AND DUP2 EQ PUSH2 0xEDF JUMPI PUSH1 0x0 DUP1 REVERT JUMPDEST PUSH1 0x0 PUSH1 0x20 DUP1 DUP4 DUP6 SUB SLT ISZERO PUSH2 0x275E JUMPI PUSH1 0x0 DUP1 REVERT JUMPDEST DUP3 CALLDATALOAD PUSH1 0x1 PUSH1 0x1 PUSH1 0x40 SHL SUB DUP2 GT ISZERO PUSH2 0x2774 JUMPI PUSH1 0x0 DUP1 REVERT JUMPDEST DUP4 ADD PUSH1 0x1F DUP2 ADD DUP6 SGT PUSH2 0x2785 JUMPI PUSH1 0x0 DUP1 REVERT JUMPDEST DUP1 CALLDATALOAD PUSH2 0x2793 PUSH2 0x2640 DUP3 PUSH2 0x25CD JUMP JUMPDEST DUP2 DUP2 MSTORE PUSH1 0x5 SWAP2 SWAP1 SWAP2 SHL DUP3 ADD DUP4 ADD SWAP1 DUP4 DUP2 ADD SWAP1 DUP8 DUP4 GT ISZERO PUSH2 0x27B2 JUMPI PUSH1 0x0 DUP1 REVERT JUMPDEST SWAP3 DUP5 ADD SWAP3 JUMPDEST DUP3 DUP5 LT ISZERO PUSH2 0x272B JUMPI DUP4 CALLDATALOAD PUSH2 0x27CA DUP2 PUSH2 0x2736 JUMP JUMPDEST DUP3 MSTORE SWAP3 DUP5 ADD SWAP3 SWAP1 DUP5 ADD SWAP1 PUSH2 0x27B7 JUMP JUMPDEST PUSH1 0x1 PUSH1 0x1 PUSH1 0xA0 SHL SUB DUP6 AND DUP2 MSTORE PUSH1 0x20 DUP1 DUP3 ADD DUP6 SWAP1 MSTORE DUP4 ISZERO ISZERO PUSH1 0x40 DUP4 ADD MSTORE DUP3 MLOAD PUSH1 0x60 DUP4 ADD MSTORE DUP3 ADD MLOAD PUSH1 0x80 DUP3 ADD MSTORE PUSH1 0xA0 DUP2 ADD PUSH2 0x2130 JUMP JUMPDEST PUSH1 0x0 PUSH1 0x20 DUP3 DUP5 SUB SLT ISZERO PUSH2 0x281F JUMPI PUSH1 0x0 DUP1 REVERT JUMPDEST DUP2 CALLDATALOAD PUSH2 0x251D DUP2 PUSH2 0x2736 JUMP JUMPDEST PUSH1 0x0 PUSH1 0x20 DUP3 DUP5 SUB SLT ISZERO PUSH2 0x283C JUMPI PUSH1 0x0 DUP1 REVERT JUMPDEST DUP2 CALLDATALOAD PUSH1 0x1 PUSH1 0x1 PUSH1 0x40 SHL SUB DUP2 GT ISZERO PUSH2 0x2852 JUMPI PUSH1 0x0 DUP1 REVERT JUMPDEST DUP3 ADD PUSH1 0xA0 DUP2 DUP6 SUB SLT ISZERO PUSH2 0x251D JUMPI PUSH1 0x0 DUP1 REVERT JUMPDEST PUSH1 0x0 DUP1 PUSH1 0x40 DUP4 DUP6 SUB SLT ISZERO PUSH2 0x2877 JUMPI PUSH1 0x0 DUP1 REVERT JUMPDEST DUP3 CALLDATALOAD PUSH2 0x2882 DUP2 PUSH2 0x2736 JUMP JUMPDEST SWAP5 PUSH1 0x20 SWAP4 SWAP1 SWAP4 ADD CALLDATALOAD SWAP4 POP POP POP JUMP JUMPDEST DUP1 PUSH1 0x0 JUMPDEST PUSH1 0xA DUP2 LT ISZERO PUSH2 0x28B3 JUMPI DUP2 MLOAD DUP5 MSTORE PUSH1 0x20 SWAP4 DUP5 ADD SWAP4 SWAP1 SWAP2 ADD SWAP1 PUSH1 0x1 ADD PUSH2 0x2894 JUMP JUMPDEST POP POP POP POP JUMP JUMPDEST PUSH2 0x3E0 DUP2 ADD PUSH2 0x28C8 DUP3 DUP8 PUSH2 0x2890 JUMP JUMPDEST PUSH2 0x28D6 PUSH2 0x140 DUP4 ADD DUP7 PUSH2 0x2890 JUMP JUMPDEST PUSH2 0x280 DUP3 ADD DUP5 PUSH1 0x0 JUMPDEST PUSH1 0xA DUP2 LT ISZERO PUSH2 0x2907 JUMPI DUP2 MLOAD PUSH1 0x1 PUSH1 0x1 PUSH1 0xA0 SHL SUB AND DUP4 MSTORE PUSH1 0x20 SWAP3 DUP4 ADD SWAP3 SWAP1 SWAP2 ADD SWAP1 PUSH1 0x1 ADD PUSH2 0x28DF JUMP JUMPDEST POP POP POP DUP3 PUSH2 0x3C0 DUP4 ADD MSTORE SWAP6 SWAP5 POP POP POP POP POP JUMP JUMPDEST PUSH4 0x4E487B71 PUSH1 0xE0 SHL PUSH1 0x0 MSTORE PUSH1 0x32 PUSH1 0x4 MSTORE PUSH1 0x24 PUSH1 0x0 REVERT JUMPDEST PUSH4 0x4E487B71 PUSH1 0xE0 SHL PUSH1 0x0 MSTORE PUSH1 0x11 PUSH1 0x4 MSTORE PUSH1 0x24 PUSH1 0x0 REVERT JUMPDEST PUSH1 0x0 PUSH1 0x1 DUP3 ADD PUSH2 0x2958 JUMPI PUSH2 0x2958 PUSH2 0x2930 JUMP JUMPDEST POP PUSH1 0x1 ADD SWAP1 JUMP JUMPDEST DUP1 CALLDATALOAD PUSH1 0x1 PUSH1 0x1 PUSH1 0x40 SHL SUB DUP2 AND DUP2 EQ PUSH2 0x2976 JUMPI PUSH1 0x0 DUP1 REVERT JUMPDEST SWAP2 SWAP1 POP JUMP JUMPDEST PUSH1 0x0 DUP3 PUSH1 0x1F DUP4 ADD SLT PUSH2 0x298C JUMPI PUSH1 0x0 DUP1 REVERT JUMPDEST DUP2 CALLDATALOAD PUSH1 0x1 PUSH1 0x1 PUSH1 0x40 SHL SUB DUP2 GT ISZERO PUSH2 0x29A5 JUMPI PUSH2 0x29A5 PUSH2 0x253D JUMP JUMPDEST PUSH2 0x29B8 PUSH1 0x1F DUP3 ADD PUSH1 0x1F NOT AND PUSH1 0x20 ADD PUSH2 0x259D JUMP JUMPDEST DUP2 DUP2 MSTORE DUP5 PUSH1 0x20 DUP4 DUP7 ADD ADD GT ISZERO PUSH2 0x29CD JUMPI PUSH1 0x0 DUP1 REVERT JUMPDEST DUP2 PUSH1 0x20 DUP6 ADD PUSH1 0x20 DUP4 ADD CALLDATACOPY PUSH1 0x0 SWAP2 DUP2 ADD PUSH1 0x20 ADD SWAP2 SWAP1 SWAP2 MSTORE SWAP4 SWAP3 POP POP POP JUMP JUMPDEST PUSH1 0x0 DUP3 PUSH1 0x1F DUP4 ADD SLT PUSH2 0x29FB JUMPI PUSH1 0x0 DUP1 REVERT JUMPDEST DUP2 CALLDATALOAD PUSH1 0x20 PUSH2 0x2A0B PUSH2 0x2640 DUP4 PUSH2 0x25CD JUMP JUMPDEST DUP3 DUP2 MSTORE PUSH1 0x6 SWAP3 SWAP1 SWAP3 SHL DUP5 ADD DUP2 ADD SWAP2 DUP2 DUP2 ADD SWAP1 DUP7 DUP5 GT ISZERO PUSH2 0x2A2A JUMPI PUSH1 0x0 DUP1 REVERT JUMPDEST DUP3 DUP7 ADD JUMPDEST DUP5 DUP2 LT ISZERO PUSH2 0x2A72 JUMPI PUSH1 0x40 DUP2 DUP10 SUB SLT ISZERO PUSH2 0x2A47 JUMPI PUSH1 0x0 DUP1 DUP2 REVERT JUMPDEST PUSH2 0x2A4F PUSH2 0x2553 JUMP JUMPDEST DUP2 CALLDATALOAD PUSH2 0x2A5A DUP2 PUSH2 0x2736 JUMP JUMPDEST DUP2 MSTORE DUP2 DUP6 ADD CALLDATALOAD DUP6 DUP3 ADD MSTORE DUP4 MSTORE SWAP2 DUP4 ADD SWAP2 PUSH1 0x40 ADD PUSH2 0x2A2E JUMP JUMPDEST POP SWAP7 SWAP6 POP POP POP POP POP POP JUMP JUMPDEST PUSH1 0x0 PUSH1 0xA0 DUP3 CALLDATASIZE SUB SLT ISZERO PUSH2 0x2A8F JUMPI PUSH1 0x0 DUP1 REVERT JUMPDEST PUSH2 0x2A97 PUSH2 0x257B JUMP JUMPDEST DUP3 CALLDATALOAD DUP2 MSTORE PUSH2 0x2AA7 PUSH1 0x20 DUP5 ADD PUSH2 0x295F JUMP JUMPDEST PUSH1 0x20 DUP3 ADD MSTORE PUSH1 0x40 DUP4 ADD CALLDATALOAD PUSH1 0x1 PUSH1 0x1 PUSH1 0x40 SHL SUB DUP1 DUP3 GT ISZERO PUSH2 0x2AC6 JUMPI PUSH1 0x0 DUP1 REVERT JUMPDEST PUSH2 0x2AD2 CALLDATASIZE DUP4 DUP8 ADD PUSH2 0x297B JUMP JUMPDEST PUSH1 0x40 DUP5 ADD MSTORE PUSH1 0x60 DUP6 ADD CALLDATALOAD SWAP2 POP DUP1 DUP3 GT ISZERO PUSH2 0x2AEB JUMPI PUSH1 0x0 DUP1 REVERT JUMPDEST PUSH2 0x2AF7 CALLDATASIZE DUP4 DUP8 ADD PUSH2 0x297B JUMP JUMPDEST PUSH1 0x60 DUP5 ADD MSTORE PUSH1 0x80 DUP6 ADD CALLDATALOAD SWAP2 POP DUP1 DUP3 GT ISZERO PUSH2 0x2B10 JUMPI PUSH1 0x0 DUP1 REVERT JUMPDEST POP PUSH2 0x2B1D CALLDATASIZE DUP3 DUP7 ADD PUSH2 0x29EA JUMP JUMPDEST PUSH1 0x80 DUP4 ADD MSTORE POP SWAP3 SWAP2 POP POP JUMP JUMPDEST PUSH1 0x0 PUSH1 0x20 DUP3 DUP5 SUB SLT ISZERO PUSH2 0x2B3B JUMPI PUSH1 0x0 DUP1 REVERT JUMPDEST POP MLOAD SWAP2 SWAP1 POP JUMP JUMPDEST PUSH1 0x0 PUSH1 0x20 DUP3 DUP5 SUB SLT ISZERO PUSH2 0x2B54 JUMPI PUSH1 0x0 DUP1 REVERT JUMPDEST DUP2 MLOAD DUP1 ISZERO ISZERO DUP2 EQ PUSH2 0x251D JUMPI PUSH1 0x0 DUP1 REVERT JUMPDEST DUP1 DUP3 ADD DUP1 DUP3 GT ISZERO PUSH2 0x75E JUMPI PUSH2 0x75E PUSH2 0x2930 JUMP JUMPDEST PUSH4 0x4E487B71 PUSH1 0xE0 SHL PUSH1 0x0 MSTORE PUSH1 0x12 PUSH1 0x4 MSTORE PUSH1 0x24 PUSH1 0x0 REVERT JUMPDEST PUSH1 0x0 DUP3 PUSH2 0x2B9C JUMPI PUSH2 0x2B9C PUSH2 0x2B77 JUMP JUMPDEST POP MOD SWAP1 JUMP JUMPDEST DUP5 DUP2 MSTORE PUSH1 0xA0 PUSH1 0x20 DUP3 ADD MSTORE PUSH1 0x0 PUSH2 0x2BBA PUSH1 0xA0 DUP4 ADD DUP7 PUSH2 0x26BF JUMP JUMPDEST PUSH1 0x40 DUP4 ADD DUP6 SWAP1 MSTORE DUP4 MLOAD PUSH1 0x60 DUP5 ADD MSTORE PUSH1 0x20 DUP5 ADD MLOAD PUSH1 0x80 DUP5 ADD MSTORE SWAP1 POP PUSH2 0x2130 JUMP JUMPDEST PUSH1 0x0 PUSH1 0x60 DUP3 DUP5 SUB SLT ISZERO PUSH2 0x2BEB JUMPI PUSH1 0x0 DUP1 REVERT JUMPDEST PUSH1 0x40 MLOAD PUSH1 0x60 DUP2 ADD DUP2 DUP2 LT PUSH1 0x1 PUSH1 0x1 PUSH1 0x40 SHL SUB DUP3 GT OR ISZERO PUSH2 0x2C0D JUMPI PUSH2 0x2C0D PUSH2 0x253D JUMP JUMPDEST PUSH1 0x40 MSTORE DUP3 MLOAD PUSH2 0x2C1B DUP2 PUSH2 0x2736 JUMP JUMPDEST DUP2 MSTORE PUSH1 0x20 DUP4 DUP2 ADD MLOAD SWAP1 DUP3 ADD MSTORE PUSH1 0x40 SWAP3 DUP4 ADD MLOAD SWAP3 DUP2 ADD SWAP3 SWAP1 SWAP3 MSTORE POP SWAP2 SWAP1 POP JUMP JUMPDEST PUSH1 0x0 PUSH1 0x20 DUP3 DUP5 SUB SLT ISZERO PUSH2 0x2C4C JUMPI PUSH1 0x0 DUP1 REVERT JUMPDEST DUP2 MLOAD PUSH2 0x251D DUP2 PUSH2 0x2736 JUMP JUMPDEST DUP2 DUP2 SUB DUP2 DUP2 GT ISZERO PUSH2 0x75E JUMPI PUSH2 0x75E PUSH2 0x2930 JUMP JUMPDEST PUSH1 0x0 DUP3 PUSH2 0x2C79 JUMPI PUSH2 0x2C79 PUSH2 0x2B77 JUMP JUMPDEST POP DIV SWAP1 JUMP JUMPDEST PUSH1 0x0 DUP2 PUSH2 0x2C8D JUMPI PUSH2 0x2C8D PUSH2 0x2930 JUMP JUMPDEST POP PUSH1 0x0 NOT ADD SWAP1 JUMP JUMPDEST DUP2 MLOAD PUSH1 0x1 PUSH1 0x1 PUSH1 0xA0 SHL SUB AND DUP2 MSTORE PUSH1 0x20 DUP1 DUP4 ADD MLOAD SWAP1 DUP3 ADD MSTORE PUSH1 0x40 DUP1 DUP4 ADD MLOAD SWAP1 DUP3 ADD MSTORE PUSH1 0x60 DUP2 ADD PUSH2 0x75E JUMP JUMPDEST PUSH1 0x0 DUP2 MLOAD DUP1 DUP5 MSTORE PUSH1 0x0 JUMPDEST DUP2 DUP2 LT ISZERO PUSH2 0x2CE5 JUMPI PUSH1 0x20 DUP2 DUP6 ADD DUP2 ADD MLOAD DUP7 DUP4 ADD DUP3 ADD MSTORE ADD PUSH2 0x2CC9 JUMP JUMPDEST POP PUSH1 0x0 PUSH1 0x20 DUP3 DUP7 ADD ADD MSTORE PUSH1 0x20 PUSH1 0x1F NOT PUSH1 0x1F DUP4 ADD AND DUP6 ADD ADD SWAP2 POP POP SWAP3 SWAP2 POP POP JUMP JUMPDEST PUSH1 0x0 PUSH1 0x40 PUSH1 0x1 PUSH1 0x1 PUSH1 0x40 SHL SUB DUP6 AND DUP4 MSTORE PUSH1 0x20 DUP2 DUP2 DUP6 ADD MSTORE DUP5 MLOAD PUSH1 0xA0 DUP4 DUP7 ADD MSTORE PUSH2 0x2D31 PUSH1 0xE0 DUP7 ADD DUP3 PUSH2 0x2CBF JUMP JUMPDEST SWAP1 POP DUP2 DUP7 ADD MLOAD PUSH1 0x3F NOT DUP1 DUP8 DUP5 SUB ADD PUSH1 0x60 DUP9 ADD MSTORE PUSH2 0x2D4E DUP4 DUP4 PUSH2 0x2CBF JUMP JUMPDEST DUP9 DUP7 ADD MLOAD DUP9 DUP3 SUB DUP4 ADD PUSH1 0x80 DUP11 ADD MSTORE DUP1 MLOAD DUP1 DUP4 MSTORE SWAP1 DUP7 ADD SWAP5 POP PUSH1 0x0 SWAP4 POP SWAP1 DUP6 ADD SWAP1 JUMPDEST DUP1 DUP5 LT ISZERO PUSH2 0x2DA1 JUMPI DUP5 MLOAD DUP1 MLOAD PUSH1 0x1 PUSH1 0x1 PUSH1 0xA0 SHL SUB AND DUP4 MSTORE DUP7 ADD MLOAD DUP7 DUP4 ADD MSTORE SWAP4 DUP6 ADD SWAP4 PUSH1 0x1 SWAP4 SWAP1 SWAP4 ADD SWAP3 SWAP1 DUP7 ADD SWAP1 PUSH2 0x2D6F JUMP JUMPDEST POP PUSH1 0x60 DUP10 ADD MLOAD PUSH1 0x1 PUSH1 0x1 PUSH1 0xA0 SHL SUB AND PUSH1 0xA0 DUP10 ADD MSTORE PUSH1 0x80 DUP10 ADD MLOAD DUP9 DUP3 SUB DUP4 ADD PUSH1 0xC0 DUP11 ADD MSTORE SWAP6 POP PUSH2 0x2DD0 DUP2 DUP8 PUSH2 0x2CBF JUMP JUMPDEST SWAP11 SWAP10 POP POP POP POP POP POP POP POP POP POP JUMP JUMPDEST PUSH1 0x1 PUSH1 0x1 PUSH1 0xA0 SHL SUB DUP6 DUP2 AND DUP3 MSTORE PUSH1 0xC0 DUP3 ADD SWAP1 PUSH2 0x2E1A PUSH1 0x20 DUP5 ADD DUP8 DUP1 MLOAD PUSH1 0x1 PUSH1 0x1 PUSH1 0xA0 SHL SUB AND DUP3 MSTORE PUSH1 0x20 DUP1 DUP3 ADD MLOAD SWAP1 DUP4 ADD MSTORE PUSH1 0x40 SWAP1 DUP2 ADD MLOAD SWAP2 ADD MSTORE JUMP JUMPDEST SWAP4 SWAP1 SWAP4 AND PUSH1 0x80 DUP3 ADD MSTORE PUSH1 0xA0 ADD MSTORE SWAP3 SWAP2 POP POP JUMP JUMPDEST PUSH1 0x0 PUSH4 0xFFFFFFFF DUP1 DUP8 AND DUP4 MSTORE PUSH2 0xFFFF DUP7 AND PUSH1 0x20 DUP5 ADD MSTORE DUP1 DUP6 AND PUSH1 0x40 DUP5 ADD MSTORE POP PUSH1 0x80 PUSH1 0x60 DUP4 ADD MSTORE PUSH2 0x2E60 PUSH1 0x80 DUP4 ADD DUP5 PUSH2 0x2CBF JUMP JUMPDEST SWAP7 SWAP6 POP POP POP POP POP POP JUMP JUMPDEST PUSH1 0x1 DUP1 PUSH1 0xA0 SHL SUB DUP5 AND DUP2 MSTORE DUP3 PUSH1 0x20 DUP3 ADD MSTORE PUSH1 0x60 PUSH1 0x40 DUP3 ADD MSTORE PUSH1 0x0 PUSH2 0x2130 PUSH1 0x60 DUP4 ADD DUP5 PUSH2 0x2CBF JUMP INVALID LOG2 PUSH5 0x6970667358 0x22 SLT KECCAK256 SHR 0xD2 0xBE SWAP2 PUSH31 0x79AAFD56743CF44EB185F77A8E0E9D9F073CE4C5EACD3E4CC846CD64736F6C PUSH4 0x43000813 STOP CALLER "
		},
		"gasEstimates": {
			"creation": {
				"codeDepositCost": "2395000",
				"executionCost": "infinite",
				"totalCost": "infinite"
			},
			"external": {
				"LotteryItemList(uint256)": "6821",
				"acceptOwnership()": "52433",
				"buyOrUpgradeSkin(uint256)": "infinite",
				"buyOrUpgradeWeapon(uint256)": "infinite",
				"ccipReceive((bytes32,uint64,bytes,bytes,(address,uint256)[]))": "infinite",
				"chainSelectors(uint256)": "4163",
				"currentChainSelectorIndex()": "2386",
				"currentMessageItem()": "6724",
				"gameLogMap(uint256)": "11169",
				"gameOver(uint256)": "infinite",
				"getBalance()": "307",
				"getLinkToken()": "infinite",
				"getPlayerAllAssets()": "infinite",
				"getPlayerLastLotteryRequestStatus()": "infinite",
				"getTopListInfo()": "infinite",
				"i_vrfV2PlusWrapper()": "infinite",
				"initLotteryList()": "688032",
				"lastUpdateTime()": "2384",
				"linkTokens(uint256)": "2545",
				"lotteryRequestMap(uint256)": "11244",
				"owner()": "2420",
				"playerDiamondMap(address)": "2646",
				"playerGoldMap(address)": "2581",
				"playerLastlotteryRequestIdMap(address)": "2625",
				"playerLatestGameLogIdMap(address)": "2625",
				"playerSkinLevelMap(address,uint256)": "2716",
				"playerSkinMap(address,uint256)": "4827",
				"playerWeaponLevelMap(address,uint256)": "2651",
				"playerWeaponMap(address,uint256)": "4828",
				"rawFulfillRandomWords(uint256,uint256[])": "infinite",
				"receivers(uint256)": "2524",
				"requestLottery()": "infinite",
				"routers(uint256)": "2525",
				"startGame()": "97398",
				"supportsInterface(bytes4)": "473",
				"topChainIndex(uint256)": "2484",
				"topGradeList(uint256)": "2552",
				"topPlayerList(uint256)": "2502",
				"totalGame()": "2362",
				"transferOwnership(address)": "infinite",
				"updateReceivers(address[])": "infinite",
				"withdrawLink()": "infinite",
				"wrapperAddressList(uint256)": "2526"
			},
			"internal": {
				"_ccipReceive(struct Client.Any2EVMMessage memory)": "infinite",
				"_sendMessage(uint64,address,address,address,struct ZKGameClient.MessageItem memory)": "infinite",
				"fulfillRandomWords(uint256,uint256[] memory)": "infinite",
				"pushDataToTopList(struct ZKGameClient.MessageItem memory)": "infinite"
			}
		},
		"methodIdentifiers": {
			"LotteryItemList(uint256)": "380149ab",
			"acceptOwnership()": "79ba5097",
			"buyOrUpgradeSkin(uint256)": "fa3b11d2",
			"buyOrUpgradeWeapon(uint256)": "cc216aba",
			"ccipReceive((bytes32,uint64,bytes,bytes,(address,uint256)[]))": "85572ffb",
			"chainSelectors(uint256)": "2bf34fbd",
			"currentChainSelectorIndex()": "11b7aad5",
			"currentMessageItem()": "cdc7bc87",
			"gameLogMap(uint256)": "df4f5532",
			"gameOver(uint256)": "85f9ce72",
			"getBalance()": "12065fe0",
			"getLinkToken()": "e76d5168",
			"getPlayerAllAssets()": "44b7e83c",
			"getPlayerLastLotteryRequestStatus()": "3236f6ae",
			"getTopListInfo()": "d0d5117e",
			"i_vrfV2PlusWrapper()": "9ed0868d",
			"initLotteryList()": "3db497de",
			"lastUpdateTime()": "c8f33c91",
			"linkTokens(uint256)": "ea029701",
			"lotteryRequestMap(uint256)": "67c58157",
			"owner()": "8da5cb5b",
			"playerDiamondMap(address)": "91f54351",
			"playerGoldMap(address)": "a029c405",
			"playerLastlotteryRequestIdMap(address)": "b3b2875e",
			"playerLatestGameLogIdMap(address)": "6906a2e9",
			"playerSkinLevelMap(address,uint256)": "f2683ecd",
			"playerSkinMap(address,uint256)": "d5540a27",
			"playerWeaponLevelMap(address,uint256)": "bac009d3",
			"playerWeaponMap(address,uint256)": "a55e1d45",
			"rawFulfillRandomWords(uint256,uint256[])": "1fe543e3",
			"receivers(uint256)": "bfd772fc",
			"requestLottery()": "92e0c91a",
			"routers(uint256)": "4e9c1118",
			"startGame()": "d65ab5f2",
			"supportsInterface(bytes4)": "01ffc9a7",
			"topChainIndex(uint256)": "e8af8c0d",
			"topGradeList(uint256)": "b76ee4a8",
			"topPlayerList(uint256)": "d252682d",
			"totalGame()": "d272e57e",
			"transferOwnership(address)": "f2fde38b",
			"updateReceivers(address[])": "49c9d17a",
			"withdrawLink()": "8dc654a2",
			"wrapperAddressList(uint256)": "10fa7879"
		}
	},
	"abi": [
		{
			"inputs": [
				{
					"internalType": "uint256",
					"name": "_currentChainSelectorIndex",
					"type": "uint256"
				}
			],
			"stateMutability": "nonpayable",
			"type": "constructor"
		},
		{
			"inputs": [
				{
					"internalType": "address",
					"name": "router",
					"type": "address"
				}
			],
			"name": "InvalidRouter",
			"type": "error"
		},
		{
			"inputs": [
				{
					"internalType": "uint256",
					"name": "currentBalance",
					"type": "uint256"
				},
				{
					"internalType": "uint256",
					"name": "calculatedFees",
					"type": "uint256"
				}
			],
			"name": "NotEnoughBalance",
			"type": "error"
		},
		{
			"inputs": [
				{
					"internalType": "address",
					"name": "have",
					"type": "address"
				},
				{
					"internalType": "address",
					"name": "want",
					"type": "address"
				}
			],
			"name": "OnlyVRFWrapperCanFulfill",
			"type": "error"
		},
		{
			"anonymous": false,
			"inputs": [
				{
					"indexed": false,
					"internalType": "uint256",
					"name": "startTime",
					"type": "uint256"
				},
				{
					"indexed": false,
					"internalType": "uint256",
					"name": "endTime",
					"type": "uint256"
				},
				{
					"indexed": false,
					"internalType": "address",
					"name": "player",
					"type": "address"
				},
				{
					"indexed": false,
					"internalType": "uint256",
					"name": "grade",
					"type": "uint256"
				},
				{
					"indexed": false,
					"internalType": "uint256",
					"name": "reLive",
					"type": "uint256"
				}
			],
			"name": "GameLogEvent",
			"type": "event"
		},
		{
			"anonymous": false,
			"inputs": [
				{
					"indexed": true,
					"internalType": "bytes32",
					"name": "messageId",
					"type": "bytes32"
				},
				{
					"indexed": true,
					"internalType": "uint64",
					"name": "sourceChainSelector",
					"type": "uint64"
				},
				{
					"indexed": false,
					"internalType": "address",
					"name": "sender",
					"type": "address"
				},
				{
					"components": [
						{
							"internalType": "address",
							"name": "player",
							"type": "address"
						},
						{
							"internalType": "uint256",
							"name": "time",
							"type": "uint256"
						},
						{
							"internalType": "uint256",
							"name": "chainIndex",
							"type": "uint256"
						}
					],
					"indexed": false,
					"internalType": "struct ZKGameClient.MessageItem",
					"name": "messageItem",
					"type": "tuple"
				}
			],
			"name": "MessageReceived",
			"type": "event"
		},
		{
			"anonymous": false,
			"inputs": [
				{
					"indexed": true,
					"internalType": "bytes32",
					"name": "messageId",
					"type": "bytes32"
				},
				{
					"indexed": true,
					"internalType": "uint64",
					"name": "destinationChainSelector",
					"type": "uint64"
				},
				{
					"indexed": false,
					"internalType": "address",
					"name": "receiver",
					"type": "address"
				},
				{
					"components": [
						{
							"internalType": "address",
							"name": "player",
							"type": "address"
						},
						{
							"internalType": "uint256",
							"name": "time",
							"type": "uint256"
						},
						{
							"internalType": "uint256",
							"name": "chainIndex",
							"type": "uint256"
						}
					],
					"indexed": false,
					"internalType": "struct ZKGameClient.MessageItem",
					"name": "messageItem",
					"type": "tuple"
				},
				{
					"indexed": false,
					"internalType": "address",
					"name": "feeToken",
					"type": "address"
				},
				{
					"indexed": false,
					"internalType": "uint256",
					"name": "fees",
					"type": "uint256"
				}
			],
			"name": "MessageSent",
			"type": "event"
		},
		{
			"anonymous": false,
			"inputs": [
				{
					"indexed": true,
					"internalType": "address",
					"name": "from",
					"type": "address"
				},
				{
					"indexed": true,
					"internalType": "address",
					"name": "to",
					"type": "address"
				}
			],
			"name": "OwnershipTransferRequested",
			"type": "event"
		},
		{
			"anonymous": false,
			"inputs": [
				{
					"indexed": true,
					"internalType": "address",
					"name": "from",
					"type": "address"
				},
				{
					"indexed": true,
					"internalType": "address",
					"name": "to",
					"type": "address"
				}
			],
			"name": "OwnershipTransferred",
			"type": "event"
		},
		{
			"anonymous": false,
			"inputs": [
				{
					"indexed": false,
					"internalType": "uint256",
					"name": "requestId",
					"type": "uint256"
				},
				{
					"indexed": false,
					"internalType": "uint256[]",
					"name": "randomWords",
					"type": "uint256[]"
				},
				{
					"indexed": false,
					"internalType": "uint256",
					"name": "payment",
					"type": "uint256"
				},
				{
					"components": [
						{
							"internalType": "uint256",
							"name": "itemType",
							"type": "uint256"
						},
						{
							"internalType": "uint256",
							"name": "num",
							"type": "uint256"
						}
					],
					"indexed": false,
					"internalType": "struct ZKGameClient.LotteryItem",
					"name": "lotteryItem",
					"type": "tuple"
				}
			],
			"name": "RequestLotteryFulfilled",
			"type": "event"
		},
		{
			"anonymous": false,
			"inputs": [
				{
					"indexed": false,
					"internalType": "uint256",
					"name": "requestId",
					"type": "uint256"
				},
				{
					"indexed": false,
					"internalType": "uint32",
					"name": "numWords",
					"type": "uint32"
				}
			],
			"name": "RequestLotterySent",
			"type": "event"
		},
		{
			"inputs": [
				{
					"internalType": "uint256",
					"name": "",
					"type": "uint256"
				}
			],
			"name": "LotteryItemList",
			"outputs": [
				{
					"internalType": "uint256",
					"name": "itemType",
					"type": "uint256"
				},
				{
					"internalType": "uint256",
					"name": "num",
					"type": "uint256"
				}
			],
			"stateMutability": "view",
			"type": "function"
		},
		{
			"inputs": [],
			"name": "acceptOwnership",
			"outputs": [],
			"stateMutability": "nonpayable",
			"type": "function"
		},
		{
			"inputs": [
				{
					"internalType": "uint256",
					"name": "id",
					"type": "uint256"
				}
			],
			"name": "buyOrUpgradeSkin",
			"outputs": [],
			"stateMutability": "nonpayable",
			"type": "function"
		},
		{
			"inputs": [
				{
					"internalType": "uint256",
					"name": "id",
					"type": "uint256"
				}
			],
			"name": "buyOrUpgradeWeapon",
			"outputs": [],
			"stateMutability": "nonpayable",
			"type": "function"
		},
		{
			"inputs": [
				{
					"components": [
						{
							"internalType": "bytes32",
							"name": "messageId",
							"type": "bytes32"
						},
						{
							"internalType": "uint64",
							"name": "sourceChainSelector",
							"type": "uint64"
						},
						{
							"internalType": "bytes",
							"name": "sender",
							"type": "bytes"
						},
						{
							"internalType": "bytes",
							"name": "data",
							"type": "bytes"
						},
						{
							"components": [
								{
									"internalType": "address",
									"name": "token",
									"type": "address"
								},
								{
									"internalType": "uint256",
									"name": "amount",
									"type": "uint256"
								}
							],
							"internalType": "struct Client.EVMTokenAmount[]",
							"name": "destTokenAmounts",
							"type": "tuple[]"
						}
					],
					"internalType": "struct Client.Any2EVMMessage",
					"name": "message",
					"type": "tuple"
				}
			],
			"name": "ccipReceive",
			"outputs": [],
			"stateMutability": "nonpayable",
			"type": "function"
		},
		{
			"inputs": [
				{
					"internalType": "uint256",
					"name": "",
					"type": "uint256"
				}
			],
			"name": "chainSelectors",
			"outputs": [
				{
					"internalType": "uint64",
					"name": "",
					"type": "uint64"
				}
			],
			"stateMutability": "view",
			"type": "function"
		},
		{
			"inputs": [],
			"name": "currentChainSelectorIndex",
			"outputs": [
				{
					"internalType": "uint256",
					"name": "",
					"type": "uint256"
				}
			],
			"stateMutability": "view",
			"type": "function"
		},
		{
			"inputs": [],
			"name": "currentMessageItem",
			"outputs": [
				{
					"internalType": "address",
					"name": "player",
					"type": "address"
				},
				{
					"internalType": "uint256",
					"name": "time",
					"type": "uint256"
				},
				{
					"internalType": "uint256",
					"name": "chainIndex",
					"type": "uint256"
				}
			],
			"stateMutability": "view",
			"type": "function"
		},
		{
			"inputs": [
				{
					"internalType": "uint256",
					"name": "",
					"type": "uint256"
				}
			],
			"name": "gameLogMap",
			"outputs": [
				{
					"internalType": "uint256",
					"name": "startTime",
					"type": "uint256"
				},
				{
					"internalType": "uint256",
					"name": "endTime",
					"type": "uint256"
				},
				{
					"internalType": "address",
					"name": "player",
					"type": "address"
				},
				{
					"internalType": "uint256",
					"name": "reLive",
					"type": "uint256"
				},
				{
					"internalType": "uint256",
					"name": "grade",
					"type": "uint256"
				}
			],
			"stateMutability": "view",
			"type": "function"
		},
		{
			"inputs": [
				{
					"internalType": "uint256",
					"name": "time",
					"type": "uint256"
				}
			],
			"name": "gameOver",
			"outputs": [],
			"stateMutability": "nonpayable",
			"type": "function"
		},
		{
			"inputs": [],
			"name": "getBalance",
			"outputs": [
				{
					"internalType": "uint256",
					"name": "",
					"type": "uint256"
				}
			],
			"stateMutability": "view",
			"type": "function"
		},
		{
			"inputs": [],
			"name": "getLinkToken",
			"outputs": [
				{
					"internalType": "contract LinkTokenInterface",
					"name": "",
					"type": "address"
				}
			],
			"stateMutability": "view",
			"type": "function"
		},
		{
			"inputs": [],
			"name": "getPlayerAllAssets",
			"outputs": [
				{
					"internalType": "uint256",
					"name": "gold",
					"type": "uint256"
				},
				{
					"internalType": "uint256",
					"name": "diamond",
					"type": "uint256"
				},
				{
					"internalType": "uint256[]",
					"name": "weapon",
					"type": "uint256[]"
				},
				{
					"internalType": "uint256[]",
					"name": "skin",
					"type": "uint256[]"
				}
			],
			"stateMutability": "view",
			"type": "function"
		},
		{
			"inputs": [],
			"name": "getPlayerLastLotteryRequestStatus",
			"outputs": [
				{
					"internalType": "uint256",
					"name": "paid",
					"type": "uint256"
				},
				{
					"internalType": "bool",
					"name": "fulfilled",
					"type": "bool"
				},
				{
					"components": [
						{
							"internalType": "uint256",
							"name": "itemType",
							"type": "uint256"
						},
						{
							"internalType": "uint256",
							"name": "num",
							"type": "uint256"
						}
					],
					"internalType": "struct ZKGameClient.LotteryItem",
					"name": "lotteryItem",
					"type": "tuple"
				}
			],
			"stateMutability": "view",
			"type": "function"
		},
		{
			"inputs": [],
			"name": "getTopListInfo",
			"outputs": [
				{
					"internalType": "uint256[10]",
					"name": "",
					"type": "uint256[10]"
				},
				{
					"internalType": "uint256[10]",
					"name": "",
					"type": "uint256[10]"
				},
				{
					"internalType": "address[10]",
					"name": "",
					"type": "address[10]"
				},
				{
					"internalType": "uint256",
					"name": "",
					"type": "uint256"
				}
			],
			"stateMutability": "view",
			"type": "function"
		},
		{
			"inputs": [],
			"name": "i_vrfV2PlusWrapper",
			"outputs": [
				{
					"internalType": "contract IVRFV2PlusWrapper",
					"name": "",
					"type": "address"
				}
			],
			"stateMutability": "view",
			"type": "function"
		},
		{
			"inputs": [],
			"name": "initLotteryList",
			"outputs": [],
			"stateMutability": "nonpayable",
			"type": "function"
		},
		{
			"inputs": [],
			"name": "lastUpdateTime",
			"outputs": [
				{
					"internalType": "uint256",
					"name": "",
					"type": "uint256"
				}
			],
			"stateMutability": "view",
			"type": "function"
		},
		{
			"inputs": [
				{
					"internalType": "uint256",
					"name": "",
					"type": "uint256"
				}
			],
			"name": "linkTokens",
			"outputs": [
				{
					"internalType": "address",
					"name": "",
					"type": "address"
				}
			],
			"stateMutability": "view",
			"type": "function"
		},
		{
			"inputs": [
				{
					"internalType": "uint256",
					"name": "",
					"type": "uint256"
				}
			],
			"name": "lotteryRequestMap",
			"outputs": [
				{
					"internalType": "address",
					"name": "player",
					"type": "address"
				},
				{
					"internalType": "uint256",
					"name": "paid",
					"type": "uint256"
				},
				{
					"internalType": "bool",
					"name": "fulfilled",
					"type": "bool"
				},
				{
					"components": [
						{
							"internalType": "uint256",
							"name": "itemType",
							"type": "uint256"
						},
						{
							"internalType": "uint256",
							"name": "num",
							"type": "uint256"
						}
					],
					"internalType": "struct ZKGameClient.LotteryItem",
					"name": "lotteryItem",
					"type": "tuple"
				}
			],
			"stateMutability": "view",
			"type": "function"
		},
		{
			"inputs": [],
			"name": "owner",
			"outputs": [
				{
					"internalType": "address",
					"name": "",
					"type": "address"
				}
			],
			"stateMutability": "view",
			"type": "function"
		},
		{
			"inputs": [
				{
					"internalType": "address",
					"name": "",
					"type": "address"
				}
			],
			"name": "playerDiamondMap",
			"outputs": [
				{
					"internalType": "uint256",
					"name": "",
					"type": "uint256"
				}
			],
			"stateMutability": "view",
			"type": "function"
		},
		{
			"inputs": [
				{
					"internalType": "address",
					"name": "",
					"type": "address"
				}
			],
			"name": "playerGoldMap",
			"outputs": [
				{
					"internalType": "uint256",
					"name": "",
					"type": "uint256"
				}
			],
			"stateMutability": "view",
			"type": "function"
		},
		{
			"inputs": [
				{
					"internalType": "address",
					"name": "",
					"type": "address"
				}
			],
			"name": "playerLastlotteryRequestIdMap",
			"outputs": [
				{
					"internalType": "uint256",
					"name": "",
					"type": "uint256"
				}
			],
			"stateMutability": "view",
			"type": "function"
		},
		{
			"inputs": [
				{
					"internalType": "address",
					"name": "",
					"type": "address"
				}
			],
			"name": "playerLatestGameLogIdMap",
			"outputs": [
				{
					"internalType": "uint256",
					"name": "",
					"type": "uint256"
				}
			],
			"stateMutability": "view",
			"type": "function"
		},
		{
			"inputs": [
				{
					"internalType": "address",
					"name": "",
					"type": "address"
				},
				{
					"internalType": "uint256",
					"name": "",
					"type": "uint256"
				}
			],
			"name": "playerSkinLevelMap",
			"outputs": [
				{
					"internalType": "uint256",
					"name": "",
					"type": "uint256"
				}
			],
			"stateMutability": "view",
			"type": "function"
		},
		{
			"inputs": [
				{
					"internalType": "address",
					"name": "",
					"type": "address"
				},
				{
					"internalType": "uint256",
					"name": "",
					"type": "uint256"
				}
			],
			"name": "playerSkinMap",
			"outputs": [
				{
					"internalType": "uint256",
					"name": "",
					"type": "uint256"
				}
			],
			"stateMutability": "view",
			"type": "function"
		},
		{
			"inputs": [
				{
					"internalType": "address",
					"name": "",
					"type": "address"
				},
				{
					"internalType": "uint256",
					"name": "",
					"type": "uint256"
				}
			],
			"name": "playerWeaponLevelMap",
			"outputs": [
				{
					"internalType": "uint256",
					"name": "",
					"type": "uint256"
				}
			],
			"stateMutability": "view",
			"type": "function"
		},
		{
			"inputs": [
				{
					"internalType": "address",
					"name": "",
					"type": "address"
				},
				{
					"internalType": "uint256",
					"name": "",
					"type": "uint256"
				}
			],
			"name": "playerWeaponMap",
			"outputs": [
				{
					"internalType": "uint256",
					"name": "",
					"type": "uint256"
				}
			],
			"stateMutability": "view",
			"type": "function"
		},
		{
			"inputs": [
				{
					"internalType": "uint256",
					"name": "_requestId",
					"type": "uint256"
				},
				{
					"internalType": "uint256[]",
					"name": "_randomWords",
					"type": "uint256[]"
				}
			],
			"name": "rawFulfillRandomWords",
			"outputs": [],
			"stateMutability": "nonpayable",
			"type": "function"
		},
		{
			"inputs": [
				{
					"internalType": "uint256",
					"name": "",
					"type": "uint256"
				}
			],
			"name": "receivers",
			"outputs": [
				{
					"internalType": "address",
					"name": "",
					"type": "address"
				}
			],
			"stateMutability": "view",
			"type": "function"
		},
		{
			"inputs": [],
			"name": "requestLottery",
			"outputs": [
				{
					"internalType": "uint256",
					"name": "",
					"type": "uint256"
				}
			],
			"stateMutability": "nonpayable",
			"type": "function"
		},
		{
			"inputs": [
				{
					"internalType": "uint256",
					"name": "",
					"type": "uint256"
				}
			],
			"name": "routers",
			"outputs": [
				{
					"internalType": "address",
					"name": "",
					"type": "address"
				}
			],
			"stateMutability": "view",
			"type": "function"
		},
		{
			"inputs": [],
			"name": "startGame",
			"outputs": [],
			"stateMutability": "nonpayable",
			"type": "function"
		},
		{
			"inputs": [
				{
					"internalType": "bytes4",
					"name": "interfaceId",
					"type": "bytes4"
				}
			],
			"name": "supportsInterface",
			"outputs": [
				{
					"internalType": "bool",
					"name": "",
					"type": "bool"
				}
			],
			"stateMutability": "pure",
			"type": "function"
		},
		{
			"inputs": [
				{
					"internalType": "uint256",
					"name": "",
					"type": "uint256"
				}
			],
			"name": "topChainIndex",
			"outputs": [
				{
					"internalType": "uint256",
					"name": "",
					"type": "uint256"
				}
			],
			"stateMutability": "view",
			"type": "function"
		},
		{
			"inputs": [
				{
					"internalType": "uint256",
					"name": "",
					"type": "uint256"
				}
			],
			"name": "topGradeList",
			"outputs": [
				{
					"internalType": "uint256",
					"name": "",
					"type": "uint256"
				}
			],
			"stateMutability": "view",
			"type": "function"
		},
		{
			"inputs": [
				{
					"internalType": "uint256",
					"name": "",
					"type": "uint256"
				}
			],
			"name": "topPlayerList",
			"outputs": [
				{
					"internalType": "address",
					"name": "",
					"type": "address"
				}
			],
			"stateMutability": "view",
			"type": "function"
		},
		{
			"inputs": [],
			"name": "totalGame",
			"outputs": [
				{
					"internalType": "uint256",
					"name": "",
					"type": "uint256"
				}
			],
			"stateMutability": "view",
			"type": "function"
		},
		{
			"inputs": [
				{
					"internalType": "address",
					"name": "to",
					"type": "address"
				}
			],
			"name": "transferOwnership",
			"outputs": [],
			"stateMutability": "nonpayable",
			"type": "function"
		},
		{
			"inputs": [
				{
					"internalType": "address[]",
					"name": "receiverList",
					"type": "address[]"
				}
			],
			"name": "updateReceivers",
			"outputs": [],
			"stateMutability": "nonpayable",
			"type": "function"
		},
		{
			"inputs": [],
			"name": "withdrawLink",
			"outputs": [],
			"stateMutability": "nonpayable",
			"type": "function"
		},
		{
			"inputs": [
				{
					"internalType": "uint256",
					"name": "",
					"type": "uint256"
				}
			],
			"name": "wrapperAddressList",
			"outputs": [
				{
					"internalType": "address",
					"name": "",
					"type": "address"
				}
			],
			"stateMutability": "view",
			"type": "function"
		}
	]
}