{
	"data": {
		"bytecode": {
			"linkReferences": {},
			"object": "6000600255610120604052730bf3de8c5d3e8a2b34d2beeb17abfcebaf363a5960c090815273f694e193200268f9a4868e4aa017a0118c9a817760e052739c32fcb86bf0f4a1a8921a9fe46de3198bb884b261010052620000649060039081620006e5565b506040805160608101825273779877a7b0d9e8603169ddbd7836e478b46247898152730b9d5d9136855f6fec3c0993fee6e9ce8a2978466020820152730fd9e8d3af1aaee056eb9e802c3a762a667b190491810191909152620000cc906006906003620006e5565b506040805160608101825273195f15f2d49d693ce265b4fb0fddbe15b1850cc1815273327b83f409e1d5f13985c6d0584420fa648f1f566020820152736e6c366a1cd1f92ba87fd6f96f743b0e6c967bf09181019190915262000134906009906003620006e5565b506040805160608101825267de41ba4fc9d91ad9815267ccf0a31a221f3c9b602082015267e1f4423f1bf587cd918101919091526200017890600c90600362000742565b506040805160608101825273694aa1769357215de4fac081bf1f309adc3253068152735498bb86bc934c8d34fda08e81d444153d0d06ad6020820152721382149eba3441043c1c66972b4772963f5d4391810191909152620001df90600d906003620006e5565b506000604055348015620001f257600080fd5b5060405162003fd938038062003fd98339810160408190526200021591620007fb565b33806000600984600381106200022f576200022f62000815565b015460408051630711a57d60e21b815290516001600160a01b039092169182918291631c4695f4916004808201926020929091908290030181865afa1580156200027d573d6000803e3d6000fd5b505050506040513d601f19601f82011682018060405250810190620002a391906200082b565b6001600160a01b0390811660805290811660a052831690506200030d5760405162461bcd60e51b815260206004820152601860248201527f43616e6e6f7420736574206f776e657220746f207a65726f000000000000000060448201526064015b60405180910390fd5b600080546001600160a01b0319166001600160a01b03848116919091179091558116156200034057620003408162000359565b50505060028190556200035262000404565b506200085d565b336001600160a01b03821603620003b35760405162461bcd60e51b815260206004820152601760248201527f43616e6e6f74207472616e7366657220746f2073656c66000000000000000000604482015260640162000304565b600180546001600160a01b0319166001600160a01b0383811691821790925560008054604051929316917fed8889f560326eb138920d842192f0eb3dd22b4f139c87a2c57538e05bae12789190a350565b6200040e62000687565b6040805180820182526000808252606460208084019182526016805460018181018355828652955160029182027fd833147d7dc355ba459fc788f669e58cfaf9dc25ddcd0702e87d69c7b51242898181019290925594517fd833147d7dc355ba459fc788f669e58cfaf9dc25ddcd0702e87d69c7b512428a958601558751808901895286815260328186018181528554808b018755868a5292519285028085019390935551918701919091558851808a018a52888152600a8187019081528554808b018755868a5291519185028085019290925551908701558851808a018a528781528086018281528554808b018755868a5291519185028085019290925551908701558851808a018a5287815260968187019081528554808b018755868a5291519185028085019290925551908701558851808a018a52600380825260128288019081528654808c018855878b5292519286028086019390935551918801919091558951808b018b5288815260c88188018181528754808d018955888c5292519287028087019390935551918901919091558a51808c018c528981528088018481528754808d018955888c5291519187028087019290925551908901558a51808c018c528a815260148189019081528754808d018955888c5291519187028087019290925551908901558a51808c018c528981528088019384528654808c018855878b529051908602808601919091559251928801929092558951808b018b528881528087019283528554808b018755868a529051908502808501919091559151918701919091558851808a019099528852600993880193845282549687018355919094529451939092029384019290925551910155565b6000546001600160a01b03163314620006e35760405162461bcd60e51b815260206004820152601660248201527f4f6e6c792063616c6c61626c65206279206f776e657200000000000000000000604482015260640162000304565b565b826003810192821562000730579160200282015b828111156200073057825182546001600160a01b0319166001600160a01b03909116178255602090920191600190910190620006f9565b506200073e929150620007e4565b5090565b600183019183908215620007305791602002820160005b83821115620007a557835183826101000a8154816001600160401b0302191690836001600160401b03160217905550926020019260080160208160070104928301926001030262000759565b8015620007da5782816101000a8154906001600160401b030219169055600801602081600701049283019260010302620007a5565b50506200073e9291505b5b808211156200073e5760008155600101620007e5565b6000602082840312156200080e57600080fd5b5051919050565b634e487b7160e01b600052603260045260246000fd5b6000602082840312156200083e57600080fd5b81516001600160a01b03811681146200085657600080fd5b9392505050565b60805160a051613733620008a6600039600081816106bf01528181610c2301528181612912015281816129b00152612a5a015260008181610992015261298101526137336000f3fe6080604052600436106102ae5760003560e01c806391f5435111610175578063d0d5117e116100dc578063e16b619311610095578063ea0297011161006f578063ea029701146109d6578063f2683ecd146109f6578063f2fde38b14610a2e578063fa3b11d214610a4e57600080fd5b8063e16b619314610963578063e76d516814610983578063e8af8c0d146109b657600080fd5b8063d0d5117e14610856578063d252682d1461087b578063d272e57e1461089b578063d5540a27146108b1578063d65ab5f2146108d1578063df4f5532146108d957600080fd5b8063b76ee4a81161012e578063b76ee4a81461075b578063bac009d31461077b578063bfd772fc146107b3578063c8f33c91146107d3578063cc216aba146107e9578063cdc7bc871461080957600080fd5b806391f543511461067857806392e0c91a146106a55780639ed0868d146106ad578063a029c405146106e1578063a55e1d451461070e578063b3b2875e1461072e57600080fd5b8063441bbacb116102195780636906a2e9116101d25780636906a2e9146105c357806379ba5097146105f057806385572ffb1461060557806385f9ce72146106255780638da5cb5b146106455780638dc654a21461066357600080fd5b8063441bbacb1461045f57806344b7e83c1461047f57806349c9d17a146104a45780634e9c1118146104c4578063505838d1146104e457806367c581571461054b57600080fd5b80631fe543e31161026b5780631fe543e3146103845780632bf34fbd146103a45780633236f6ae146103dc57806334c53eed14610400578063380149ab146104155780633db497de1461044a57600080fd5b806301ffc9a7146102b35780630cae4589146102e857806310fa7879146102f257806311b7aad51461032a57806312065fe01461034e5780631528d36f14610361575b600080fd5b3480156102bf57600080fd5b506102d36102ce366004612c2b565b610a6e565b60405190151581526020015b60405180910390f35b6102f0610aa5565b005b3480156102fe57600080fd5b5061031261030d366004612c55565b610afc565b6040516001600160a01b0390911681526020016102df565b34801561033657600080fd5b5061034060025481565b6040519081526020016102df565b34801561035a57600080fd5b5047610340565b34801561036d57600080fd5b50610376610b1c565b6040516102df929190612ca9565b34801561039057600080fd5b506102f061039f366004612d81565b610c21565b3480156103b057600080fd5b506103c46103bf366004612c55565b610c8b565b6040516001600160401b0390911681526020016102df565b3480156103e857600080fd5b506103f1610cbe565b6040516102df93929190612e22565b34801561040c57600080fd5b50610376610e15565b34801561042157600080fd5b50610435610430366004612c55565b610f15565b604080519283526020830191909152016102df565b34801561045657600080fd5b506102f0610f43565b34801561046b57600080fd5b5061031261047a366004612c55565b6111c4565b34801561048b57600080fd5b506104946111d4565b6040516102df9493929190612e50565b3480156104b057600080fd5b506102f06104bf366004612ea1565b6112b4565b3480156104d057600080fd5b506103126104df366004612c55565b611377565b3480156104f057600080fd5b506102f03360008181526019602090815260408083208054600181810183558286528486206005928101929092558254808201909355600f9290910191909155938352601b8252822080549384018155825290206002910155565b34801561055757600080fd5b506105b3610566366004612c55565b601860209081526000918252604091829020805460018201546002830154855180870190965260048401548652600590930154938501939093526001600160a01b03169260ff9091169084565b6040516102df9493929190612f2f565b3480156105cf57600080fd5b506103406105de366004612f63565b603e6020526000908152604090205481565b3480156105fc57600080fd5b506102f0611387565b34801561061157600080fd5b506102f0610620366004612f80565b611431565b34801561063157600080fd5b506102f0610640366004612c55565b611486565b34801561065157600080fd5b506000546001600160a01b0316610312565b34801561066f57600080fd5b506102f061169e565b34801561068457600080fd5b50610340610693366004612f63565b601e6020526000908152604090205481565b610340611869565b3480156106b957600080fd5b506103127f000000000000000000000000000000000000000000000000000000000000000081565b3480156106ed57600080fd5b506103406106fc366004612f63565b601d6020526000908152604090205481565b34801561071a57600080fd5b50610340610729366004612fba565b6119e2565b34801561073a57600080fd5b50610340610749366004612f63565b60176020526000908152604090205481565b34801561076757600080fd5b50610340610776366004612c55565b611a13565b34801561078757600080fd5b50610340610796366004612fba565b601a60209081526000928352604080842090915290825290205481565b3480156107bf57600080fd5b506103126107ce366004612c55565b611a2a565b3480156107df57600080fd5b50610340603d5481565b3480156107f557600080fd5b506102f0610804366004612c55565b611a3a565b34801561081557600080fd5b50601354601454601554610831926001600160a01b0316919083565b604080516001600160a01b0390941684526020840192909252908201526060016102df565b34801561086257600080fd5b5061086b611b40565b6040516102df949392919061300f565b34801561088757600080fd5b50610312610896366004612c55565b611c11565b3480156108a757600080fd5b5061034060405481565b3480156108bd57600080fd5b506103406108cc366004612fba565b611c21565b6102f0611c3d565b3480156108e557600080fd5b5061092d6108f4366004612c55565b603f6020526000908152604090208054600182015460028301546003840154600490940154929391926001600160a01b03909116919085565b6040805195865260208601949094526001600160a01b03909216928401929092526060830191909152608082015260a0016102df565b34801561096f57600080fd5b5061034061097e366004612c55565b611cf3565b34801561098f57600080fd5b507f0000000000000000000000000000000000000000000000000000000000000000610312565b3480156109c257600080fd5b506103406109d1366004612c55565b611dba565b3480156109e257600080fd5b506103126109f1366004612c55565b611dca565b348015610a0257600080fd5b50610340610a11366004612fba565b601c60209081526000928352604080842090915290825290205481565b348015610a3a57600080fd5b506102f0610a49366004612f63565b611dda565b348015610a5a57600080fd5b506102f0610a69366004612c55565b611deb565b60006001600160e01b031982166385572ffb60e01b1480610a9f57506001600160e01b031982166301ffc9a760e01b145b92915050565b6000610ab16005611cf3565b905080341015610adc5760405162461bcd60e51b8152600401610ad390613070565b60405180910390fd5b6029546001600160a01b03168015610af857610af88183611ee7565b5050565b60098160038110610b0c57600080fd5b01546001600160a01b0316905081565b336000908152601960209081526040918290208054835181840281018401909452808452606093849390929190830182828015610b7857602002820191906000526020600020905b815481526020019060010190808311610b64575b5050505050915081516001600160401b03811115610b9857610b98612cce565b604051908082528060200260200182016040528015610bc1578160200160208202803683370190505b50905060005b8251811015610c1c57336000908152601a602090815260408083208484529091529020548251839083908110610bff57610bff6130a7565b602090810291909101015280610c14816130d3565b915050610bc7565b509091565b7f0000000000000000000000000000000000000000000000000000000000000000336001600160a01b03821614610c7c576040516345d498b760e11b81523360048201526001600160a01b0382166024820152604401610ad3565b610c868383611f1d565b505050565b600c8160038110610c9b57600080fd5b60049182820401919006600802915054906101000a90046001600160401b031681565b600080610cde604051806040016040528060008152602001600081525090565b33600090815260176020908152604080832054808452601890925290912060010154610d405760405162461bcd60e51b81526020600482015260116024820152701c995c5d595cdd081b9bdd08199bdd5b99607a1b6044820152606401610ad3565b6000818152601860209081526040808320815160a08101835281546001600160a01b03168152600182015481850152600282015460ff16151581840152600382018054845181870281018701909552808552919492936060860193909290830182828015610dcd57602002820191906000526020600020905b815481526020019060010190808311610db9575b50505091835250506040805180820182526004840154815260059093015460208481019190915291820192909252820151908201516080909201519097919650945092505050565b336000908152601b60209081526040918290208054835181840281018401909452808452606093849390929190830182828015610e7157602002820191906000526020600020905b815481526020019060010190808311610e5d575b5050505050915081516001600160401b03811115610e9157610e91612cce565b604051908082528060200260200182016040528015610eba578160200160208202803683370190505b50905060005b8251811015610c1c57336000908152601c602090815260408083208484529091529020548251839083908110610ef857610ef86130a7565b602090810291909101015280610f0d816130d3565b915050610ec0565b60168181548110610f2557600080fd5b60009182526020909120600290910201805460019091015490915082565b610f4b6121a8565b6040805180820182526000808252606460208084019182526016805460018181018355828652955160029182027fd833147d7dc355ba459fc788f669e58cfaf9dc25ddcd0702e87d69c7b51242898181019290925594517fd833147d7dc355ba459fc788f669e58cfaf9dc25ddcd0702e87d69c7b512428a958601558751808901895286815260328186018181528554808b018755868a5292519285028085019390935551918701919091558851808a018a52888152600a8187019081528554808b018755868a5291519185028085019290925551908701558851808a018a528781528086018281528554808b018755868a5291519185028085019290925551908701558851808a018a5287815260968187019081528554808b018755868a5291519185028085019290925551908701558851808a018a52600380825260128288019081528654808c018855878b5292519286028086019390935551918801919091558951808b018b5288815260c88188018181528754808d018955888c5292519287028087019390935551918901919091558a51808c018c528981528088018481528754808d018955888c5291519187028087019290925551908901558a51808c018c528a815260148189019081528754808d018955888c5291519187028087019290925551908901558a51808c018c528981528088019384528654808c018855878b529051908602808601919091559251928801929092558951808b018b528881528087019283528554808b018755868a529051908502808501919091559151918701919091558851808a019099528852600993880193845282549687018355919094529451939092029384019290925551910155565b600d8160038110610b0c57600080fd5b336000908152601d6020908152604080832054601e83528184205460198452828520601b855283862081548551818802810188019096528086528796606096879695949392909184919083018282801561124d57602002820191906000526020600020905b815481526020019060010190808311611239575b505050505091508080548060200260200160405190810160405280929190818152602001828054801561129f57602002820191906000526020600020905b81548152602001906001019080831161128b575b50505050509050935093509350935090919293565b6112bc6121a8565b600381511461130d5760405162461bcd60e51b815260206004820152601960248201527f72656365697665724c697374206973206e6f742076616c6964000000000000006044820152606401610ad3565b60005b8151811015610af85781818151811061132b5761132b6130a7565b602002602001015160108260038110611346576113466130a7565b0180546001600160a01b0319166001600160a01b03929092169190911790558061136f816130d3565b915050611310565b60038160038110610b0c57600080fd5b6001546001600160a01b031633146113da5760405162461bcd60e51b815260206004820152601660248201527526bab9ba10313290383937b837b9b2b21037bbb732b960511b6044820152606401610ad3565b60008054336001600160a01b0319808316821784556001805490911690556040516001600160a01b0390921692909183917f8be0079c531659141344cd1fd0a4f28419497f9722a3daafe3b4186f6b6457e091a350565b600360025460038110611446576114466130a7565b01546001600160a01b03163314611472576040516335fdcccd60e21b8152336004820152602401610ad3565b61148361147e8261320a565b6121fd565b50565b336000818152603e6020908152604080832054808452603f835292819020426001820155600401859055805160608101825293845290830184905260025490830152906114d2906122ef565b60005b6003811015611621576000600c82600381106114f3576114f36130a7565b600491828204019190066008029054906101000a90046001600160401b03169050600060108360038110611529576115296130a7565b01546002546001600160a01b0390911691506001600160401b03831690600c9060038110611559576115596130a7565b600491828204019190066008029054906101000a90046001600160401b03166001600160401b03161415801561159757506001600160a01b03811615155b1561160c5761160a82826006600254600381106115b6576115b66130a7565b01546002546001600160a01b03909116906003908181106115d9576115d96130a7565b015460408051606081018252338152602081018c9052600254918101919091526001600160a01b03909116906124e7565b505b50508080611619906130d3565b9150506114d5565b506000818152603f60209081526040918290208054600182015460028301546003909301548551928352938201526001600160a01b03909116928101929092526060820184905260808201527f66286673e71e7c3a4012d09fbb56001733372c438dc9ba84cc4ca1ef2c84a2b09060a00160405180910390a15050565b6116a66121a8565b60006001600160a01b03166006600254600381106116c6576116c66130a7565b01546001600160a01b03160361172a5760405162461bcd60e51b8152602060048201526024808201527f6572726f723a2077697468647261774c696e6b206973206e6f7420737570706f6044820152631c9d195960e21b6064820152608401610ad3565b6000600660025460038110611741576117416130a7565b01546040516370a0823160e01b81523060048201526001600160a01b039091169150819063a9059cbb90339083906370a0823190602401602060405180830381865afa158015611795573d6000803e3d6000fd5b505050506040513d601f19601f820116820180604052508101906117b991906132b6565b6040516001600160e01b031960e085901b1681526001600160a01b03909216600483015260248201526044016020604051808303816000875af1158015611804573d6000803e3d6000fd5b505050506040513d601f19601f8201168201806040525081019061182891906132cf565b6114835760405162461bcd60e51b81526020600482015260126024820152712ab730b13632903a37903a3930b739b332b960711b6044820152606401610ad3565b6000806118766004611cf3565b9050803410156118985760405162461bcd60e51b8152600401610ad390613070565b60006118b4604051806020016040528060001515815250612871565b90506000806118ca621e848060036001866128e2565b6040805160a0810182523381526020808201848152600083850181815285518281528085018752606086019081528651808801885283815280860184905260808701528883526018855295909120845181546001600160a01b0319166001600160a01b03909116178155915160018301555160028201805460ff191691151591909117905592518051959750939550909391926119709260038501929190910190612bac565b5060809190910151805160048301556020908101516005909201919091553360009081526017825260409081902084905580518481526001928101929092527f3279bde246f2449036f4a5a85e935ae7cb08612c5645c2673490d2fd624683ae910160405180910390a1509392505050565b601960205281600052604060002081815481106119fe57600080fd5b90600052602060002001600091509150505481565b601f81600a8110611a2357600080fd5b0154905081565b60108160038110610b0c57600080fd5b33600090815260196020908152604080832080548251818502810185019093528083529192909190830182828015611a9157602002820191906000526020600020905b815481526020019060010190808311611a7d575b505050505090506000805b8251811015611adc5783838281518110611ab857611ab86130a7565b602002602001015103611aca57600191505b80611ad4816130d3565b915050611a9c565b508080611ae7575082155b15611b1c57336000908152601a602090815260408083208684529091528120805491611b12836130d3565b9190505550505050565b50503360009081526019602090815260408220805460018101825590835291200155565b611b48612bf7565b611b50612bf7565b611b58612bf7565b603d5460408051610140810191829052600092601f92603392602992918590600a9082845b815481526020019060010190808311611b7d57505060408051610140810191829052949850879350600a9250905082845b815481526020019060010190808311611bae57505060408051610140810191829052949750869350600a9250905082845b81546001600160a01b03168152600190910190602001808311611bdf5750505050509150935093509350935090919293565b602981600a8110610b0c57600080fd5b601b60205281600052604060002081815481106119fe57600080fd5b6000611c496001611cf3565b905080341015611c6b5760405162461bcd60e51b8152600401610ad390613070565b6029546001600160a01b0316478015801590611c8f57506001600160a01b03821615155b15611c9e57611c9e8282611ee7565b60408054336000818152603e6020908152848220849055928152603f909252828220429055825482529082902060020180546001600160a01b031916909117905554611ceb9060016132f1565b604055505050565b600080600d60025460038110611d0b57611d0b6130a7565b0160009054906101000a90046001600160a01b03166001600160a01b031663feaf968c6040518163ffffffff1660e01b815260040160a060405180830381865afa158015611d5d573d6000803e3d6000fd5b505050506040513d601f19601f82011682018060405250810190611d81919061331e565b50505091505080670de0b6b3a7640000611d9b9190613384565b611da9906305f5e1006133b2565b611db390846133e2565b9392505050565b603381600a8110611a2357600080fd5b60068160038110610b0c57600080fd5b611de26121a8565b61148381612ae5565b336000908152601b6020908152604080832080548251818502810185019093528083529192909190830182828015611e4257602002820191906000526020600020905b815481526020019060010190808311611e2e575b505050505090506000805b8251811015611e8d5783838281518110611e6957611e696130a7565b602002602001015103611e7b57600191505b80611e85816130d3565b915050611e4d565b508080611e98575082155b15611ec357336000908152601c602090815260408083208684529091528120805491611b12836130d3565b5050336000908152601b602090815260408220805460018101825590835291200155565b6040516001600160a01b0383169082156108fc029083906000818181858888f19350505050158015610c86573d6000803e3d6000fd5b6000815111611f665760405162461bcd60e51b81526020600482015260156024820152741c985b991bdb55dbdc991cc81b9bdd08199bdd5b99605a1b6044820152606401610ad3565b600082815260186020526040902060010154611fb85760405162461bcd60e51b81526020600482015260116024820152701c995c5d595cdd081b9bdd08199bdd5b99607a1b6044820152606401610ad3565b600060168054905082600081518110611fd357611fd36130a7565b6020026020010151611fe591906133f9565b9050600060168281548110611ffc57611ffc6130a7565b6000918252602080832060408051808201825260029485029092018054835260019081015483850152898652601884529420928301805460ff191690941790935585519293506120559260039092019190860190612bac565b5060008481526018602090815260408220835160048201819055918401516005820155546001600160a01b031691036120cc578160200151601d6000836001600160a01b03166001600160a01b0316815260200190815260200160002060008282546120c191906132f1565b909155506121529050565b815160010361210e578160200151601e6000836001600160a01b03166001600160a01b0316815260200190815260200160002060008282546120c191906132f1565b8151600214612152578151600303612152576001600160a01b0381166000908152601960209081526040822084820151815460018101835591845291909220909101555b600085815260186020526040908190206001015490517f8c5eb6455fc6d271f045db3f6049931e0b5372962417d81dcc38fc0bebe8d141916121999188918891879061340d565b60405180910390a15050505050565b6000546001600160a01b031633146121fb5760405162461bcd60e51b815260206004820152601660248201527527b7363c9031b0b63630b1363290313c9037bbb732b960511b6044820152606401610ad3565b565b80606001518060200190518101906122159190613445565b8051601380546001600160a01b0319166001600160a01b039092169182179055602080830151601481905560409384015160158190558451606081018652938452918301529181019190915261226a906122ef565b80602001516001600160401b031681600001517faa5cbdcf4f25939d41be3032075952cfd5f51f978a501d2f801d671061623f1d83604001518060200190518101906122b691906134a6565b604080516001600160a01b039283168152601354909216602083015260145490820152601554606082015260800160405180910390a350565b60208101518151604083015182601f61230a6001600a6134c3565b600a811061231a5761231a6130a7565b015410156124dd576000806123316001600a6134c3565b905060005b8183101561238c57600261234a83856132f1565b61235491906134d6565b905085601f82600a811061236a5761236a6130a7565b0154101561237a57809150612336565b6123858160016132f1565b9250612336565b600061239a6001600a6134c3565b90505b8381111561247957601f6123b26001836134c3565b600a81106123c2576123c26130a7565b0154601f82600a81106123d7576123d76130a7565b015560296123e66001836134c3565b600a81106123f6576123f66130a7565b01546001600160a01b0316602982600a8110612414576124146130a7565b0180546001600160a01b0319166001600160a01b039290921691909117905560336124406001836134c3565b600a8110612450576124506130a7565b0154603382600a8110612465576124656130a7565b015580612471816134ea565b91505061239d565b5085601f84600a811061248e5761248e6130a7565b015584602984600a81106124a4576124a46130a7565b0180546001600160a01b0319166001600160a01b039290921691909117905583603384600a81106124d7576124d76130a7565b01555050505b505042603d555050565b6040805160a081019091526001600160a01b03851660c08201526000908490849083908060e081016040516020818303038152906040528152602001866040516020016125349190613501565b60408051601f198184030181529190528152602001600060405190808252806020026020018201604052801561259057816020015b60408051808201909152600080825260208201528152602001906001900390816125695790505b508152602001886001600160a01b031681526020016125bf604051806020016040528062030d40815250612b8e565b90526040516320487ded60e01b81529091506000906001600160a01b038416906320487ded906125f5908d908690600401613571565b602060405180830381865afa158015612612573d6000803e3d6000fd5b505050506040513d601f19601f8201168201806040525081019061263691906132b6565b6040516370a0823160e01b81523060048201529091506001600160a01b038516906370a0823190602401602060405180830381865afa15801561267d573d6000803e3d6000fd5b505050506040513d601f19601f820116820180604052508101906126a191906132b6565b811115612734576040516370a0823160e01b81523060048201526001600160a01b038516906370a0823190602401602060405180830381865afa1580156126ec573d6000803e3d6000fd5b505050506040513d601f19601f8201168201806040525081019061271091906132b6565b604051634787a10360e11b8152600481019190915260248101829052604401610ad3565b60405163095ea7b360e01b81526001600160a01b0384811660048301526024820183905285169063095ea7b3906044016020604051808303816000875af1158015612783573d6000803e3d6000fd5b505050506040513d601f19601f820116820180604052508101906127a791906132cf565b506040516396f4e9f960e01b81526001600160a01b038416906396f4e9f9906127d6908d908690600401613571565b6020604051808303816000875af11580156127f5573d6000803e3d6000fd5b505050506040513d601f19601f8201168201806040525081019061281991906132b6565b9450896001600160401b0316857fd0d85f1cc5ab17f712b6074d702edd6281031e603c5cf76890a85b1170045b3a8b898c8660405161285b949392919061364a565b60405180910390a3505050505b95945050505050565b60607f92fd13387c7fe7befbc38d303d6468778fb9731bc4583f17d92989c6fcfdeaaa826040516024016128aa91511515815260200190565b60408051601f198184030181529190526020810180516001600160e01b03166001600160e01b03199093169290921790915292915050565b6040516313f2e28560e11b815263ffffffff80861660048301528316602482015260009081906001600160a01b037f000000000000000000000000000000000000000000000000000000000000000016906327e5c50a90604401602060405180830381865afa158015612959573d6000803e3d6000fd5b505050506040513d601f19601f8201168201806040525081019061297d91906132b6565b90507f00000000000000000000000000000000000000000000000000000000000000006001600160a01b0316634000aea07f000000000000000000000000000000000000000000000000000000000000000083898989896040516020016129e79493929190613699565b6040516020818303038152906040526040518463ffffffff1660e01b8152600401612a14939291906136d6565b6020604051808303816000875af1158015612a33573d6000803e3d6000fd5b505050506040513d601f19601f82011682018060405250810190612a5791906132cf565b507f00000000000000000000000000000000000000000000000000000000000000006001600160a01b031663fc2a88c36040518163ffffffff1660e01b8152600401602060405180830381865afa158015612ab6573d6000803e3d6000fd5b505050506040513d601f19601f82011682018060405250810190612ada91906132b6565b915094509492505050565b336001600160a01b03821603612b3d5760405162461bcd60e51b815260206004820152601760248201527f43616e6e6f74207472616e7366657220746f2073656c660000000000000000006044820152606401610ad3565b600180546001600160a01b0319166001600160a01b0383811691821790925560008054604051929316917fed8889f560326eb138920d842192f0eb3dd22b4f139c87a2c57538e05bae12789190a350565b604051815160248201526060906397a657c960e01b906044016128aa565b828054828255906000526020600020908101928215612be7579160200282015b82811115612be7578251825591602001919060010190612bcc565b50612bf3929150612c16565b5090565b604051806101400160405280600a906020820280368337509192915050565b5b80821115612bf35760008155600101612c17565b600060208284031215612c3d57600080fd5b81356001600160e01b031981168114611db357600080fd5b600060208284031215612c6757600080fd5b5035919050565b600081518084526020808501945080840160005b83811015612c9e57815187529582019590820190600101612c82565b509495945050505050565b604081526000612cbc6040830185612c6e565b82810360208401526128688185612c6e565b634e487b7160e01b600052604160045260246000fd5b604080519081016001600160401b0381118282101715612d0657612d06612cce565b60405290565b60405160a081016001600160401b0381118282101715612d0657612d06612cce565b604051601f8201601f191681016001600160401b0381118282101715612d5657612d56612cce565b604052919050565b60006001600160401b03821115612d7757612d77612cce565b5060051b60200190565b60008060408385031215612d9457600080fd5b823591506020808401356001600160401b03811115612db257600080fd5b8401601f81018613612dc357600080fd5b8035612dd6612dd182612d5e565b612d2e565b81815260059190911b82018301908381019088831115612df557600080fd5b928401925b82841015612e1357833582529284019290840190612dfa565b80955050505050509250929050565b838152821515602082015260808101612e48604083018480518252602090810151910152565b949350505050565b848152836020820152608060408201526000612e6f6080830185612c6e565b8281036060840152612e818185612c6e565b979650505050505050565b6001600160a01b038116811461148357600080fd5b60006020808385031215612eb457600080fd5b82356001600160401b03811115612eca57600080fd5b8301601f81018513612edb57600080fd5b8035612ee9612dd182612d5e565b81815260059190911b82018301908381019087831115612f0857600080fd5b928401925b82841015612e81578335612f2081612e8c565b82529284019290840190612f0d565b6001600160a01b03851681526020808201859052831515604083015282516060830152820151608082015260a08101612868565b600060208284031215612f7557600080fd5b8135611db381612e8c565b600060208284031215612f9257600080fd5b81356001600160401b03811115612fa857600080fd5b820160a08185031215611db357600080fd5b60008060408385031215612fcd57600080fd5b8235612fd881612e8c565b946020939093013593505050565b8060005b600a811015613009578151845260209384019390910190600101612fea565b50505050565b6103e0810161301e8287612fe6565b61302c610140830186612fe6565b61028082018460005b600a81101561305d5781516001600160a01b0316835260209283019290910190600101613035565b505050826103c083015295945050505050565b60208082526018908201527f47617320546f6b656e206973206e6f7420656e6f756768210000000000000000604082015260600190565b634e487b7160e01b600052603260045260246000fd5b634e487b7160e01b600052601160045260246000fd5b6000600182016130e5576130e56130bd565b5060010190565b80356001600160401b038116811461310357600080fd5b919050565b600082601f83011261311957600080fd5b81356001600160401b0381111561313257613132612cce565b613145601f8201601f1916602001612d2e565b81815284602083860101111561315a57600080fd5b816020850160208301376000918101602001919091529392505050565b600082601f83011261318857600080fd5b81356020613198612dd183612d5e565b82815260069290921b840181019181810190868411156131b757600080fd5b8286015b848110156131ff57604081890312156131d45760008081fd5b6131dc612ce4565b81356131e781612e8c565b815281850135858201528352918301916040016131bb565b509695505050505050565b600060a0823603121561321c57600080fd5b613224612d0c565b82358152613234602084016130ec565b602082015260408301356001600160401b038082111561325357600080fd5b61325f36838701613108565b6040840152606085013591508082111561327857600080fd5b61328436838701613108565b6060840152608085013591508082111561329d57600080fd5b506132aa36828601613177565b60808301525092915050565b6000602082840312156132c857600080fd5b5051919050565b6000602082840312156132e157600080fd5b81518015158114611db357600080fd5b80820180821115610a9f57610a9f6130bd565b805169ffffffffffffffffffff8116811461310357600080fd5b600080600080600060a0868803121561333657600080fd5b61333f86613304565b945060208601519350604086015192506060860151915061336260808701613304565b90509295509295909350565b634e487b7160e01b600052601260045260246000fd5b6000826133935761339361336e565b600160ff1b8214600019841416156133ad576133ad6130bd565b500590565b80820260008212600160ff1b841416156133ce576133ce6130bd565b8181058314821517610a9f57610a9f6130bd565b8082028115828204841417610a9f57610a9f6130bd565b6000826134085761340861336e565b500690565b84815260a06020820152600061342660a0830186612c6e565b6040830185905283516060840152602084015160808401529050612868565b60006060828403121561345757600080fd5b604051606081018181106001600160401b038211171561347957613479612cce565b604052825161348781612e8c565b8152602083810151908201526040928301519281019290925250919050565b6000602082840312156134b857600080fd5b8151611db381612e8c565b81810381811115610a9f57610a9f6130bd565b6000826134e5576134e561336e565b500490565b6000816134f9576134f96130bd565b506000190190565b81516001600160a01b03168152602080830151908201526040808301519082015260608101610a9f565b6000815180845260005b8181101561355157602081850181015186830182015201613535565b506000602082860101526020601f19601f83011685010191505092915050565b600060406001600160401b038516835260208181850152845160a08386015261359d60e086018261352b565b905081860151603f19808784030160608801526135ba838361352b565b88860151888203830160808a01528051808352908601945060009350908501905b8084101561360d57845180516001600160a01b03168352860151868301529385019360019390930192908601906135db565b5060608901516001600160a01b031660a08901526080890151888203830160c08a0152955061363c818761352b565b9a9950505050505050505050565b6001600160a01b03858116825260c0820190613686602084018780516001600160a01b0316825260208082015190830152604090810151910152565b93909316608082015260a0015292915050565b600063ffffffff808716835261ffff86166020840152808516604084015250608060608301526136cc608083018461352b565b9695505050505050565b60018060a01b0384168152826020820152606060408201526000612868606083018461352b56fea264697066735822122090f6384a6647be8a299dc10ddbfac44d966abbd2a2a5b89d40eed9d44763dbbc64736f6c63430008130033",
			"opcodes": "PUSH1 0x0 PUSH1 0x2 SSTORE PUSH2 0x120 PUSH1 0x40 MSTORE PUSH20 0xBF3DE8C5D3E8A2B34D2BEEB17ABFCEBAF363A59 PUSH1 0xC0 SWAP1 DUP2 MSTORE PUSH20 0xF694E193200268F9A4868E4AA017A0118C9A8177 PUSH1 0xE0 MSTORE PUSH20 0x9C32FCB86BF0F4A1A8921A9FE46DE3198BB884B2 PUSH2 0x100 MSTORE PUSH3 0x64 SWAP1 PUSH1 0x3 SWAP1 DUP2 PUSH3 0x6E5 JUMP JUMPDEST POP PUSH1 0x40 DUP1 MLOAD PUSH1 0x60 DUP2 ADD DUP3 MSTORE PUSH20 0x779877A7B0D9E8603169DDBD7836E478B4624789 DUP2 MSTORE PUSH20 0xB9D5D9136855F6FEC3C0993FEE6E9CE8A297846 PUSH1 0x20 DUP3 ADD MSTORE PUSH20 0xFD9E8D3AF1AAEE056EB9E802C3A762A667B1904 SWAP2 DUP2 ADD SWAP2 SWAP1 SWAP2 MSTORE PUSH3 0xCC SWAP1 PUSH1 0x6 SWAP1 PUSH1 0x3 PUSH3 0x6E5 JUMP JUMPDEST POP PUSH1 0x40 DUP1 MLOAD PUSH1 0x60 DUP2 ADD DUP3 MSTORE PUSH20 0x195F15F2D49D693CE265B4FB0FDDBE15B1850CC1 DUP2 MSTORE PUSH20 0x327B83F409E1D5F13985C6D0584420FA648F1F56 PUSH1 0x20 DUP3 ADD MSTORE PUSH20 0x6E6C366A1CD1F92BA87FD6F96F743B0E6C967BF0 SWAP2 DUP2 ADD SWAP2 SWAP1 SWAP2 MSTORE PUSH3 0x134 SWAP1 PUSH1 0x9 SWAP1 PUSH1 0x3 PUSH3 0x6E5 JUMP JUMPDEST POP PUSH1 0x40 DUP1 MLOAD PUSH1 0x60 DUP2 ADD DUP3 MSTORE PUSH8 0xDE41BA4FC9D91AD9 DUP2 MSTORE PUSH8 0xCCF0A31A221F3C9B PUSH1 0x20 DUP3 ADD MSTORE PUSH8 0xE1F4423F1BF587CD SWAP2 DUP2 ADD SWAP2 SWAP1 SWAP2 MSTORE PUSH3 0x178 SWAP1 PUSH1 0xC SWAP1 PUSH1 0x3 PUSH3 0x742 JUMP JUMPDEST POP PUSH1 0x40 DUP1 MLOAD PUSH1 0x60 DUP2 ADD DUP3 MSTORE PUSH20 0x694AA1769357215DE4FAC081BF1F309ADC325306 DUP2 MSTORE PUSH20 0x5498BB86BC934C8D34FDA08E81D444153D0D06AD PUSH1 0x20 DUP3 ADD MSTORE PUSH19 0x1382149EBA3441043C1C66972B4772963F5D43 SWAP2 DUP2 ADD SWAP2 SWAP1 SWAP2 MSTORE PUSH3 0x1DF SWAP1 PUSH1 0xD SWAP1 PUSH1 0x3 PUSH3 0x6E5 JUMP JUMPDEST POP PUSH1 0x0 PUSH1 0x40 SSTORE CALLVALUE DUP1 ISZERO PUSH3 0x1F2 JUMPI PUSH1 0x0 DUP1 REVERT JUMPDEST POP PUSH1 0x40 MLOAD PUSH3 0x3FD9 CODESIZE SUB DUP1 PUSH3 0x3FD9 DUP4 CODECOPY DUP2 ADD PUSH1 0x40 DUP2 SWAP1 MSTORE PUSH3 0x215 SWAP2 PUSH3 0x7FB JUMP JUMPDEST CALLER DUP1 PUSH1 0x0 PUSH1 0x9 DUP5 PUSH1 0x3 DUP2 LT PUSH3 0x22F JUMPI PUSH3 0x22F PUSH3 0x815 JUMP JUMPDEST ADD SLOAD PUSH1 0x40 DUP1 MLOAD PUSH4 0x711A57D PUSH1 0xE2 SHL DUP2 MSTORE SWAP1 MLOAD PUSH1 0x1 PUSH1 0x1 PUSH1 0xA0 SHL SUB SWAP1 SWAP3 AND SWAP2 DUP3 SWAP2 DUP3 SWAP2 PUSH4 0x1C4695F4 SWAP2 PUSH1 0x4 DUP1 DUP3 ADD SWAP3 PUSH1 0x20 SWAP3 SWAP1 SWAP2 SWAP1 DUP3 SWAP1 SUB ADD DUP2 DUP7 GAS STATICCALL ISZERO DUP1 ISZERO PUSH3 0x27D JUMPI RETURNDATASIZE PUSH1 0x0 DUP1 RETURNDATACOPY RETURNDATASIZE PUSH1 0x0 REVERT JUMPDEST POP POP POP POP PUSH1 0x40 MLOAD RETURNDATASIZE PUSH1 0x1F NOT PUSH1 0x1F DUP3 ADD AND DUP3 ADD DUP1 PUSH1 0x40 MSTORE POP DUP2 ADD SWAP1 PUSH3 0x2A3 SWAP2 SWAP1 PUSH3 0x82B JUMP JUMPDEST PUSH1 0x1 PUSH1 0x1 PUSH1 0xA0 SHL SUB SWAP1 DUP2 AND PUSH1 0x80 MSTORE SWAP1 DUP2 AND PUSH1 0xA0 MSTORE DUP4 AND SWAP1 POP PUSH3 0x30D JUMPI PUSH1 0x40 MLOAD PUSH3 0x461BCD PUSH1 0xE5 SHL DUP2 MSTORE PUSH1 0x20 PUSH1 0x4 DUP3 ADD MSTORE PUSH1 0x18 PUSH1 0x24 DUP3 ADD MSTORE PUSH32 0x43616E6E6F7420736574206F776E657220746F207A65726F0000000000000000 PUSH1 0x44 DUP3 ADD MSTORE PUSH1 0x64 ADD JUMPDEST PUSH1 0x40 MLOAD DUP1 SWAP2 SUB SWAP1 REVERT JUMPDEST PUSH1 0x0 DUP1 SLOAD PUSH1 0x1 PUSH1 0x1 PUSH1 0xA0 SHL SUB NOT AND PUSH1 0x1 PUSH1 0x1 PUSH1 0xA0 SHL SUB DUP5 DUP2 AND SWAP2 SWAP1 SWAP2 OR SWAP1 SWAP2 SSTORE DUP2 AND ISZERO PUSH3 0x340 JUMPI PUSH3 0x340 DUP2 PUSH3 0x359 JUMP JUMPDEST POP POP POP PUSH1 0x2 DUP2 SWAP1 SSTORE PUSH3 0x352 PUSH3 0x404 JUMP JUMPDEST POP PUSH3 0x85D JUMP JUMPDEST CALLER PUSH1 0x1 PUSH1 0x1 PUSH1 0xA0 SHL SUB DUP3 AND SUB PUSH3 0x3B3 JUMPI PUSH1 0x40 MLOAD PUSH3 0x461BCD PUSH1 0xE5 SHL DUP2 MSTORE PUSH1 0x20 PUSH1 0x4 DUP3 ADD MSTORE PUSH1 0x17 PUSH1 0x24 DUP3 ADD MSTORE PUSH32 0x43616E6E6F74207472616E7366657220746F2073656C66000000000000000000 PUSH1 0x44 DUP3 ADD MSTORE PUSH1 0x64 ADD PUSH3 0x304 JUMP JUMPDEST PUSH1 0x1 DUP1 SLOAD PUSH1 0x1 PUSH1 0x1 PUSH1 0xA0 SHL SUB NOT AND PUSH1 0x1 PUSH1 0x1 PUSH1 0xA0 SHL SUB DUP4 DUP2 AND SWAP2 DUP3 OR SWAP1 SWAP3 SSTORE PUSH1 0x0 DUP1 SLOAD PUSH1 0x40 MLOAD SWAP3 SWAP4 AND SWAP2 PUSH32 0xED8889F560326EB138920D842192F0EB3DD22B4F139C87A2C57538E05BAE1278 SWAP2 SWAP1 LOG3 POP JUMP JUMPDEST PUSH3 0x40E PUSH3 0x687 JUMP JUMPDEST PUSH1 0x40 DUP1 MLOAD DUP1 DUP3 ADD DUP3 MSTORE PUSH1 0x0 DUP1 DUP3 MSTORE PUSH1 0x64 PUSH1 0x20 DUP1 DUP5 ADD SWAP2 DUP3 MSTORE PUSH1 0x16 DUP1 SLOAD PUSH1 0x1 DUP2 DUP2 ADD DUP4 SSTORE DUP3 DUP7 MSTORE SWAP6 MLOAD PUSH1 0x2 SWAP2 DUP3 MUL PUSH32 0xD833147D7DC355BA459FC788F669E58CFAF9DC25DDCD0702E87D69C7B5124289 DUP2 DUP2 ADD SWAP3 SWAP1 SWAP3 SSTORE SWAP5 MLOAD PUSH32 0xD833147D7DC355BA459FC788F669E58CFAF9DC25DDCD0702E87D69C7B512428A SWAP6 DUP7 ADD SSTORE DUP8 MLOAD DUP1 DUP10 ADD DUP10 MSTORE DUP7 DUP2 MSTORE PUSH1 0x32 DUP2 DUP7 ADD DUP2 DUP2 MSTORE DUP6 SLOAD DUP1 DUP12 ADD DUP8 SSTORE DUP7 DUP11 MSTORE SWAP3 MLOAD SWAP3 DUP6 MUL DUP1 DUP6 ADD SWAP4 SWAP1 SWAP4 SSTORE MLOAD SWAP2 DUP8 ADD SWAP2 SWAP1 SWAP2 SSTORE DUP9 MLOAD DUP1 DUP11 ADD DUP11 MSTORE DUP9 DUP2 MSTORE PUSH1 0xA DUP2 DUP8 ADD SWAP1 DUP2 MSTORE DUP6 SLOAD DUP1 DUP12 ADD DUP8 SSTORE DUP7 DUP11 MSTORE SWAP2 MLOAD SWAP2 DUP6 MUL DUP1 DUP6 ADD SWAP3 SWAP1 SWAP3 SSTORE MLOAD SWAP1 DUP8 ADD SSTORE DUP9 MLOAD DUP1 DUP11 ADD DUP11 MSTORE DUP8 DUP2 MSTORE DUP1 DUP7 ADD DUP3 DUP2 MSTORE DUP6 SLOAD DUP1 DUP12 ADD DUP8 SSTORE DUP7 DUP11 MSTORE SWAP2 MLOAD SWAP2 DUP6 MUL DUP1 DUP6 ADD SWAP3 SWAP1 SWAP3 SSTORE MLOAD SWAP1 DUP8 ADD SSTORE DUP9 MLOAD DUP1 DUP11 ADD DUP11 MSTORE DUP8 DUP2 MSTORE PUSH1 0x96 DUP2 DUP8 ADD SWAP1 DUP2 MSTORE DUP6 SLOAD DUP1 DUP12 ADD DUP8 SSTORE DUP7 DUP11 MSTORE SWAP2 MLOAD SWAP2 DUP6 MUL DUP1 DUP6 ADD SWAP3 SWAP1 SWAP3 SSTORE MLOAD SWAP1 DUP8 ADD SSTORE DUP9 MLOAD DUP1 DUP11 ADD DUP11 MSTORE PUSH1 0x3 DUP1 DUP3 MSTORE PUSH1 0x12 DUP3 DUP9 ADD SWAP1 DUP2 MSTORE DUP7 SLOAD DUP1 DUP13 ADD DUP9 SSTORE DUP8 DUP12 MSTORE SWAP3 MLOAD SWAP3 DUP7 MUL DUP1 DUP7 ADD SWAP4 SWAP1 SWAP4 SSTORE MLOAD SWAP2 DUP9 ADD SWAP2 SWAP1 SWAP2 SSTORE DUP10 MLOAD DUP1 DUP12 ADD DUP12 MSTORE DUP9 DUP2 MSTORE PUSH1 0xC8 DUP2 DUP9 ADD DUP2 DUP2 MSTORE DUP8 SLOAD DUP1 DUP14 ADD DUP10 SSTORE DUP9 DUP13 MSTORE SWAP3 MLOAD SWAP3 DUP8 MUL DUP1 DUP8 ADD SWAP4 SWAP1 SWAP4 SSTORE MLOAD SWAP2 DUP10 ADD SWAP2 SWAP1 SWAP2 SSTORE DUP11 MLOAD DUP1 DUP13 ADD DUP13 MSTORE DUP10 DUP2 MSTORE DUP1 DUP9 ADD DUP5 DUP2 MSTORE DUP8 SLOAD DUP1 DUP14 ADD DUP10 SSTORE DUP9 DUP13 MSTORE SWAP2 MLOAD SWAP2 DUP8 MUL DUP1 DUP8 ADD SWAP3 SWAP1 SWAP3 SSTORE MLOAD SWAP1 DUP10 ADD SSTORE DUP11 MLOAD DUP1 DUP13 ADD DUP13 MSTORE DUP11 DUP2 MSTORE PUSH1 0x14 DUP2 DUP10 ADD SWAP1 DUP2 MSTORE DUP8 SLOAD DUP1 DUP14 ADD DUP10 SSTORE DUP9 DUP13 MSTORE SWAP2 MLOAD SWAP2 DUP8 MUL DUP1 DUP8 ADD SWAP3 SWAP1 SWAP3 SSTORE MLOAD SWAP1 DUP10 ADD SSTORE DUP11 MLOAD DUP1 DUP13 ADD DUP13 MSTORE DUP10 DUP2 MSTORE DUP1 DUP9 ADD SWAP4 DUP5 MSTORE DUP7 SLOAD DUP1 DUP13 ADD DUP9 SSTORE DUP8 DUP12 MSTORE SWAP1 MLOAD SWAP1 DUP7 MUL DUP1 DUP7 ADD SWAP2 SWAP1 SWAP2 SSTORE SWAP3 MLOAD SWAP3 DUP9 ADD SWAP3 SWAP1 SWAP3 SSTORE DUP10 MLOAD DUP1 DUP12 ADD DUP12 MSTORE DUP9 DUP2 MSTORE DUP1 DUP8 ADD SWAP3 DUP4 MSTORE DUP6 SLOAD DUP1 DUP12 ADD DUP8 SSTORE DUP7 DUP11 MSTORE SWAP1 MLOAD SWAP1 DUP6 MUL DUP1 DUP6 ADD SWAP2 SWAP1 SWAP2 SSTORE SWAP2 MLOAD SWAP2 DUP8 ADD SWAP2 SWAP1 SWAP2 SSTORE DUP9 MLOAD DUP1 DUP11 ADD SWAP1 SWAP10 MSTORE DUP9 MSTORE PUSH1 0x9 SWAP4 DUP9 ADD SWAP4 DUP5 MSTORE DUP3 SLOAD SWAP7 DUP8 ADD DUP4 SSTORE SWAP2 SWAP1 SWAP5 MSTORE SWAP5 MLOAD SWAP4 SWAP1 SWAP3 MUL SWAP4 DUP5 ADD SWAP3 SWAP1 SWAP3 SSTORE MLOAD SWAP2 ADD SSTORE JUMP JUMPDEST PUSH1 0x0 SLOAD PUSH1 0x1 PUSH1 0x1 PUSH1 0xA0 SHL SUB AND CALLER EQ PUSH3 0x6E3 JUMPI PUSH1 0x40 MLOAD PUSH3 0x461BCD PUSH1 0xE5 SHL DUP2 MSTORE PUSH1 0x20 PUSH1 0x4 DUP3 ADD MSTORE PUSH1 0x16 PUSH1 0x24 DUP3 ADD MSTORE PUSH32 0x4F6E6C792063616C6C61626C65206279206F776E657200000000000000000000 PUSH1 0x44 DUP3 ADD MSTORE PUSH1 0x64 ADD PUSH3 0x304 JUMP JUMPDEST JUMP JUMPDEST DUP3 PUSH1 0x3 DUP2 ADD SWAP3 DUP3 ISZERO PUSH3 0x730 JUMPI SWAP2 PUSH1 0x20 MUL DUP3 ADD JUMPDEST DUP3 DUP2 GT ISZERO PUSH3 0x730 JUMPI DUP3 MLOAD DUP3 SLOAD PUSH1 0x1 PUSH1 0x1 PUSH1 0xA0 SHL SUB NOT AND PUSH1 0x1 PUSH1 0x1 PUSH1 0xA0 SHL SUB SWAP1 SWAP2 AND OR DUP3 SSTORE PUSH1 0x20 SWAP1 SWAP3 ADD SWAP2 PUSH1 0x1 SWAP1 SWAP2 ADD SWAP1 PUSH3 0x6F9 JUMP JUMPDEST POP PUSH3 0x73E SWAP3 SWAP2 POP PUSH3 0x7E4 JUMP JUMPDEST POP SWAP1 JUMP JUMPDEST PUSH1 0x1 DUP4 ADD SWAP2 DUP4 SWAP1 DUP3 ISZERO PUSH3 0x730 JUMPI SWAP2 PUSH1 0x20 MUL DUP3 ADD PUSH1 0x0 JUMPDEST DUP4 DUP3 GT ISZERO PUSH3 0x7A5 JUMPI DUP4 MLOAD DUP4 DUP3 PUSH2 0x100 EXP DUP2 SLOAD DUP2 PUSH1 0x1 PUSH1 0x1 PUSH1 0x40 SHL SUB MUL NOT AND SWAP1 DUP4 PUSH1 0x1 PUSH1 0x1 PUSH1 0x40 SHL SUB AND MUL OR SWAP1 SSTORE POP SWAP3 PUSH1 0x20 ADD SWAP3 PUSH1 0x8 ADD PUSH1 0x20 DUP2 PUSH1 0x7 ADD DIV SWAP3 DUP4 ADD SWAP3 PUSH1 0x1 SUB MUL PUSH3 0x759 JUMP JUMPDEST DUP1 ISZERO PUSH3 0x7DA JUMPI DUP3 DUP2 PUSH2 0x100 EXP DUP2 SLOAD SWAP1 PUSH1 0x1 PUSH1 0x1 PUSH1 0x40 SHL SUB MUL NOT AND SWAP1 SSTORE PUSH1 0x8 ADD PUSH1 0x20 DUP2 PUSH1 0x7 ADD DIV SWAP3 DUP4 ADD SWAP3 PUSH1 0x1 SUB MUL PUSH3 0x7A5 JUMP JUMPDEST POP POP PUSH3 0x73E SWAP3 SWAP2 POP JUMPDEST JUMPDEST DUP1 DUP3 GT ISZERO PUSH3 0x73E JUMPI PUSH1 0x0 DUP2 SSTORE PUSH1 0x1 ADD PUSH3 0x7E5 JUMP JUMPDEST PUSH1 0x0 PUSH1 0x20 DUP3 DUP5 SUB SLT ISZERO PUSH3 0x80E JUMPI PUSH1 0x0 DUP1 REVERT JUMPDEST POP MLOAD SWAP2 SWAP1 POP JUMP JUMPDEST PUSH4 0x4E487B71 PUSH1 0xE0 SHL PUSH1 0x0 MSTORE PUSH1 0x32 PUSH1 0x4 MSTORE PUSH1 0x24 PUSH1 0x0 REVERT JUMPDEST PUSH1 0x0 PUSH1 0x20 DUP3 DUP5 SUB SLT ISZERO PUSH3 0x83E JUMPI PUSH1 0x0 DUP1 REVERT JUMPDEST DUP2 MLOAD PUSH1 0x1 PUSH1 0x1 PUSH1 0xA0 SHL SUB DUP2 AND DUP2 EQ PUSH3 0x856 JUMPI PUSH1 0x0 DUP1 REVERT JUMPDEST SWAP4 SWAP3 POP POP POP JUMP JUMPDEST PUSH1 0x80 MLOAD PUSH1 0xA0 MLOAD PUSH2 0x3733 PUSH3 0x8A6 PUSH1 0x0 CODECOPY PUSH1 0x0 DUP2 DUP2 PUSH2 0x6BF ADD MSTORE DUP2 DUP2 PUSH2 0xC23 ADD MSTORE DUP2 DUP2 PUSH2 0x2912 ADD MSTORE DUP2 DUP2 PUSH2 0x29B0 ADD MSTORE PUSH2 0x2A5A ADD MSTORE PUSH1 0x0 DUP2 DUP2 PUSH2 0x992 ADD MSTORE PUSH2 0x2981 ADD MSTORE PUSH2 0x3733 PUSH1 0x0 RETURN INVALID PUSH1 0x80 PUSH1 0x40 MSTORE PUSH1 0x4 CALLDATASIZE LT PUSH2 0x2AE JUMPI PUSH1 0x0 CALLDATALOAD PUSH1 0xE0 SHR DUP1 PUSH4 0x91F54351 GT PUSH2 0x175 JUMPI DUP1 PUSH4 0xD0D5117E GT PUSH2 0xDC JUMPI DUP1 PUSH4 0xE16B6193 GT PUSH2 0x95 JUMPI DUP1 PUSH4 0xEA029701 GT PUSH2 0x6F JUMPI DUP1 PUSH4 0xEA029701 EQ PUSH2 0x9D6 JUMPI DUP1 PUSH4 0xF2683ECD EQ PUSH2 0x9F6 JUMPI DUP1 PUSH4 0xF2FDE38B EQ PUSH2 0xA2E JUMPI DUP1 PUSH4 0xFA3B11D2 EQ PUSH2 0xA4E JUMPI PUSH1 0x0 DUP1 REVERT JUMPDEST DUP1 PUSH4 0xE16B6193 EQ PUSH2 0x963 JUMPI DUP1 PUSH4 0xE76D5168 EQ PUSH2 0x983 JUMPI DUP1 PUSH4 0xE8AF8C0D EQ PUSH2 0x9B6 JUMPI PUSH1 0x0 DUP1 REVERT JUMPDEST DUP1 PUSH4 0xD0D5117E EQ PUSH2 0x856 JUMPI DUP1 PUSH4 0xD252682D EQ PUSH2 0x87B JUMPI DUP1 PUSH4 0xD272E57E EQ PUSH2 0x89B JUMPI DUP1 PUSH4 0xD5540A27 EQ PUSH2 0x8B1 JUMPI DUP1 PUSH4 0xD65AB5F2 EQ PUSH2 0x8D1 JUMPI DUP1 PUSH4 0xDF4F5532 EQ PUSH2 0x8D9 JUMPI PUSH1 0x0 DUP1 REVERT JUMPDEST DUP1 PUSH4 0xB76EE4A8 GT PUSH2 0x12E JUMPI DUP1 PUSH4 0xB76EE4A8 EQ PUSH2 0x75B JUMPI DUP1 PUSH4 0xBAC009D3 EQ PUSH2 0x77B JUMPI DUP1 PUSH4 0xBFD772FC EQ PUSH2 0x7B3 JUMPI DUP1 PUSH4 0xC8F33C91 EQ PUSH2 0x7D3 JUMPI DUP1 PUSH4 0xCC216ABA EQ PUSH2 0x7E9 JUMPI DUP1 PUSH4 0xCDC7BC87 EQ PUSH2 0x809 JUMPI PUSH1 0x0 DUP1 REVERT JUMPDEST DUP1 PUSH4 0x91F54351 EQ PUSH2 0x678 JUMPI DUP1 PUSH4 0x92E0C91A EQ PUSH2 0x6A5 JUMPI DUP1 PUSH4 0x9ED0868D EQ PUSH2 0x6AD JUMPI DUP1 PUSH4 0xA029C405 EQ PUSH2 0x6E1 JUMPI DUP1 PUSH4 0xA55E1D45 EQ PUSH2 0x70E JUMPI DUP1 PUSH4 0xB3B2875E EQ PUSH2 0x72E JUMPI PUSH1 0x0 DUP1 REVERT JUMPDEST DUP1 PUSH4 0x441BBACB GT PUSH2 0x219 JUMPI DUP1 PUSH4 0x6906A2E9 GT PUSH2 0x1D2 JUMPI DUP1 PUSH4 0x6906A2E9 EQ PUSH2 0x5C3 JUMPI DUP1 PUSH4 0x79BA5097 EQ PUSH2 0x5F0 JUMPI DUP1 PUSH4 0x85572FFB EQ PUSH2 0x605 JUMPI DUP1 PUSH4 0x85F9CE72 EQ PUSH2 0x625 JUMPI DUP1 PUSH4 0x8DA5CB5B EQ PUSH2 0x645 JUMPI DUP1 PUSH4 0x8DC654A2 EQ PUSH2 0x663 JUMPI PUSH1 0x0 DUP1 REVERT JUMPDEST DUP1 PUSH4 0x441BBACB EQ PUSH2 0x45F JUMPI DUP1 PUSH4 0x44B7E83C EQ PUSH2 0x47F JUMPI DUP1 PUSH4 0x49C9D17A EQ PUSH2 0x4A4 JUMPI DUP1 PUSH4 0x4E9C1118 EQ PUSH2 0x4C4 JUMPI DUP1 PUSH4 0x505838D1 EQ PUSH2 0x4E4 JUMPI DUP1 PUSH4 0x67C58157 EQ PUSH2 0x54B JUMPI PUSH1 0x0 DUP1 REVERT JUMPDEST DUP1 PUSH4 0x1FE543E3 GT PUSH2 0x26B JUMPI DUP1 PUSH4 0x1FE543E3 EQ PUSH2 0x384 JUMPI DUP1 PUSH4 0x2BF34FBD EQ PUSH2 0x3A4 JUMPI DUP1 PUSH4 0x3236F6AE EQ PUSH2 0x3DC JUMPI DUP1 PUSH4 0x34C53EED EQ PUSH2 0x400 JUMPI DUP1 PUSH4 0x380149AB EQ PUSH2 0x415 JUMPI DUP1 PUSH4 0x3DB497DE EQ PUSH2 0x44A JUMPI PUSH1 0x0 DUP1 REVERT JUMPDEST DUP1 PUSH4 0x1FFC9A7 EQ PUSH2 0x2B3 JUMPI DUP1 PUSH4 0xCAE4589 EQ PUSH2 0x2E8 JUMPI DUP1 PUSH4 0x10FA7879 EQ PUSH2 0x2F2 JUMPI DUP1 PUSH4 0x11B7AAD5 EQ PUSH2 0x32A JUMPI DUP1 PUSH4 0x12065FE0 EQ PUSH2 0x34E JUMPI DUP1 PUSH4 0x1528D36F EQ PUSH2 0x361 JUMPI JUMPDEST PUSH1 0x0 DUP1 REVERT JUMPDEST CALLVALUE DUP1 ISZERO PUSH2 0x2BF JUMPI PUSH1 0x0 DUP1 REVERT JUMPDEST POP PUSH2 0x2D3 PUSH2 0x2CE CALLDATASIZE PUSH1 0x4 PUSH2 0x2C2B JUMP JUMPDEST PUSH2 0xA6E JUMP JUMPDEST PUSH1 0x40 MLOAD SWAP1 ISZERO ISZERO DUP2 MSTORE PUSH1 0x20 ADD JUMPDEST PUSH1 0x40 MLOAD DUP1 SWAP2 SUB SWAP1 RETURN JUMPDEST PUSH2 0x2F0 PUSH2 0xAA5 JUMP JUMPDEST STOP JUMPDEST CALLVALUE DUP1 ISZERO PUSH2 0x2FE JUMPI PUSH1 0x0 DUP1 REVERT JUMPDEST POP PUSH2 0x312 PUSH2 0x30D CALLDATASIZE PUSH1 0x4 PUSH2 0x2C55 JUMP JUMPDEST PUSH2 0xAFC JUMP JUMPDEST PUSH1 0x40 MLOAD PUSH1 0x1 PUSH1 0x1 PUSH1 0xA0 SHL SUB SWAP1 SWAP2 AND DUP2 MSTORE PUSH1 0x20 ADD PUSH2 0x2DF JUMP JUMPDEST CALLVALUE DUP1 ISZERO PUSH2 0x336 JUMPI PUSH1 0x0 DUP1 REVERT JUMPDEST POP PUSH2 0x340 PUSH1 0x2 SLOAD DUP2 JUMP JUMPDEST PUSH1 0x40 MLOAD SWAP1 DUP2 MSTORE PUSH1 0x20 ADD PUSH2 0x2DF JUMP JUMPDEST CALLVALUE DUP1 ISZERO PUSH2 0x35A JUMPI PUSH1 0x0 DUP1 REVERT JUMPDEST POP SELFBALANCE PUSH2 0x340 JUMP JUMPDEST CALLVALUE DUP1 ISZERO PUSH2 0x36D JUMPI PUSH1 0x0 DUP1 REVERT JUMPDEST POP PUSH2 0x376 PUSH2 0xB1C JUMP JUMPDEST PUSH1 0x40 MLOAD PUSH2 0x2DF SWAP3 SWAP2 SWAP1 PUSH2 0x2CA9 JUMP JUMPDEST CALLVALUE DUP1 ISZERO PUSH2 0x390 JUMPI PUSH1 0x0 DUP1 REVERT JUMPDEST POP PUSH2 0x2F0 PUSH2 0x39F CALLDATASIZE PUSH1 0x4 PUSH2 0x2D81 JUMP JUMPDEST PUSH2 0xC21 JUMP JUMPDEST CALLVALUE DUP1 ISZERO PUSH2 0x3B0 JUMPI PUSH1 0x0 DUP1 REVERT JUMPDEST POP PUSH2 0x3C4 PUSH2 0x3BF CALLDATASIZE PUSH1 0x4 PUSH2 0x2C55 JUMP JUMPDEST PUSH2 0xC8B JUMP JUMPDEST PUSH1 0x40 MLOAD PUSH1 0x1 PUSH1 0x1 PUSH1 0x40 SHL SUB SWAP1 SWAP2 AND DUP2 MSTORE PUSH1 0x20 ADD PUSH2 0x2DF JUMP JUMPDEST CALLVALUE DUP1 ISZERO PUSH2 0x3E8 JUMPI PUSH1 0x0 DUP1 REVERT JUMPDEST POP PUSH2 0x3F1 PUSH2 0xCBE JUMP JUMPDEST PUSH1 0x40 MLOAD PUSH2 0x2DF SWAP4 SWAP3 SWAP2 SWAP1 PUSH2 0x2E22 JUMP JUMPDEST CALLVALUE DUP1 ISZERO PUSH2 0x40C JUMPI PUSH1 0x0 DUP1 REVERT JUMPDEST POP PUSH2 0x376 PUSH2 0xE15 JUMP JUMPDEST CALLVALUE DUP1 ISZERO PUSH2 0x421 JUMPI PUSH1 0x0 DUP1 REVERT JUMPDEST POP PUSH2 0x435 PUSH2 0x430 CALLDATASIZE PUSH1 0x4 PUSH2 0x2C55 JUMP JUMPDEST PUSH2 0xF15 JUMP JUMPDEST PUSH1 0x40 DUP1 MLOAD SWAP3 DUP4 MSTORE PUSH1 0x20 DUP4 ADD SWAP2 SWAP1 SWAP2 MSTORE ADD PUSH2 0x2DF JUMP JUMPDEST CALLVALUE DUP1 ISZERO PUSH2 0x456 JUMPI PUSH1 0x0 DUP1 REVERT JUMPDEST POP PUSH2 0x2F0 PUSH2 0xF43 JUMP JUMPDEST CALLVALUE DUP1 ISZERO PUSH2 0x46B JUMPI PUSH1 0x0 DUP1 REVERT JUMPDEST POP PUSH2 0x312 PUSH2 0x47A CALLDATASIZE PUSH1 0x4 PUSH2 0x2C55 JUMP JUMPDEST PUSH2 0x11C4 JUMP JUMPDEST CALLVALUE DUP1 ISZERO PUSH2 0x48B JUMPI PUSH1 0x0 DUP1 REVERT JUMPDEST POP PUSH2 0x494 PUSH2 0x11D4 JUMP JUMPDEST PUSH1 0x40 MLOAD PUSH2 0x2DF SWAP5 SWAP4 SWAP3 SWAP2 SWAP1 PUSH2 0x2E50 JUMP JUMPDEST CALLVALUE DUP1 ISZERO PUSH2 0x4B0 JUMPI PUSH1 0x0 DUP1 REVERT JUMPDEST POP PUSH2 0x2F0 PUSH2 0x4BF CALLDATASIZE PUSH1 0x4 PUSH2 0x2EA1 JUMP JUMPDEST PUSH2 0x12B4 JUMP JUMPDEST CALLVALUE DUP1 ISZERO PUSH2 0x4D0 JUMPI PUSH1 0x0 DUP1 REVERT JUMPDEST POP PUSH2 0x312 PUSH2 0x4DF CALLDATASIZE PUSH1 0x4 PUSH2 0x2C55 JUMP JUMPDEST PUSH2 0x1377 JUMP JUMPDEST CALLVALUE DUP1 ISZERO PUSH2 0x4F0 JUMPI PUSH1 0x0 DUP1 REVERT JUMPDEST POP PUSH2 0x2F0 CALLER PUSH1 0x0 DUP2 DUP2 MSTORE PUSH1 0x19 PUSH1 0x20 SWAP1 DUP2 MSTORE PUSH1 0x40 DUP1 DUP4 KECCAK256 DUP1 SLOAD PUSH1 0x1 DUP2 DUP2 ADD DUP4 SSTORE DUP3 DUP7 MSTORE DUP5 DUP7 KECCAK256 PUSH1 0x5 SWAP3 DUP2 ADD SWAP3 SWAP1 SWAP3 SSTORE DUP3 SLOAD DUP1 DUP3 ADD SWAP1 SWAP4 SSTORE PUSH1 0xF SWAP3 SWAP1 SWAP2 ADD SWAP2 SWAP1 SWAP2 SSTORE SWAP4 DUP4 MSTORE PUSH1 0x1B DUP3 MSTORE DUP3 KECCAK256 DUP1 SLOAD SWAP4 DUP5 ADD DUP2 SSTORE DUP3 MSTORE SWAP1 KECCAK256 PUSH1 0x2 SWAP2 ADD SSTORE JUMP JUMPDEST CALLVALUE DUP1 ISZERO PUSH2 0x557 JUMPI PUSH1 0x0 DUP1 REVERT JUMPDEST POP PUSH2 0x5B3 PUSH2 0x566 CALLDATASIZE PUSH1 0x4 PUSH2 0x2C55 JUMP JUMPDEST PUSH1 0x18 PUSH1 0x20 SWAP1 DUP2 MSTORE PUSH1 0x0 SWAP2 DUP3 MSTORE PUSH1 0x40 SWAP2 DUP3 SWAP1 KECCAK256 DUP1 SLOAD PUSH1 0x1 DUP3 ADD SLOAD PUSH1 0x2 DUP4 ADD SLOAD DUP6 MLOAD DUP1 DUP8 ADD SWAP1 SWAP7 MSTORE PUSH1 0x4 DUP5 ADD SLOAD DUP7 MSTORE PUSH1 0x5 SWAP1 SWAP4 ADD SLOAD SWAP4 DUP6 ADD SWAP4 SWAP1 SWAP4 MSTORE PUSH1 0x1 PUSH1 0x1 PUSH1 0xA0 SHL SUB AND SWAP3 PUSH1 0xFF SWAP1 SWAP2 AND SWAP1 DUP5 JUMP JUMPDEST PUSH1 0x40 MLOAD PUSH2 0x2DF SWAP5 SWAP4 SWAP3 SWAP2 SWAP1 PUSH2 0x2F2F JUMP JUMPDEST CALLVALUE DUP1 ISZERO PUSH2 0x5CF JUMPI PUSH1 0x0 DUP1 REVERT JUMPDEST POP PUSH2 0x340 PUSH2 0x5DE CALLDATASIZE PUSH1 0x4 PUSH2 0x2F63 JUMP JUMPDEST PUSH1 0x3E PUSH1 0x20 MSTORE PUSH1 0x0 SWAP1 DUP2 MSTORE PUSH1 0x40 SWAP1 KECCAK256 SLOAD DUP2 JUMP JUMPDEST CALLVALUE DUP1 ISZERO PUSH2 0x5FC JUMPI PUSH1 0x0 DUP1 REVERT JUMPDEST POP PUSH2 0x2F0 PUSH2 0x1387 JUMP JUMPDEST CALLVALUE DUP1 ISZERO PUSH2 0x611 JUMPI PUSH1 0x0 DUP1 REVERT JUMPDEST POP PUSH2 0x2F0 PUSH2 0x620 CALLDATASIZE PUSH1 0x4 PUSH2 0x2F80 JUMP JUMPDEST PUSH2 0x1431 JUMP JUMPDEST CALLVALUE DUP1 ISZERO PUSH2 0x631 JUMPI PUSH1 0x0 DUP1 REVERT JUMPDEST POP PUSH2 0x2F0 PUSH2 0x640 CALLDATASIZE PUSH1 0x4 PUSH2 0x2C55 JUMP JUMPDEST PUSH2 0x1486 JUMP JUMPDEST CALLVALUE DUP1 ISZERO PUSH2 0x651 JUMPI PUSH1 0x0 DUP1 REVERT JUMPDEST POP PUSH1 0x0 SLOAD PUSH1 0x1 PUSH1 0x1 PUSH1 0xA0 SHL SUB AND PUSH2 0x312 JUMP JUMPDEST CALLVALUE DUP1 ISZERO PUSH2 0x66F JUMPI PUSH1 0x0 DUP1 REVERT JUMPDEST POP PUSH2 0x2F0 PUSH2 0x169E JUMP JUMPDEST CALLVALUE DUP1 ISZERO PUSH2 0x684 JUMPI PUSH1 0x0 DUP1 REVERT JUMPDEST POP PUSH2 0x340 PUSH2 0x693 CALLDATASIZE PUSH1 0x4 PUSH2 0x2F63 JUMP JUMPDEST PUSH1 0x1E PUSH1 0x20 MSTORE PUSH1 0x0 SWAP1 DUP2 MSTORE PUSH1 0x40 SWAP1 KECCAK256 SLOAD DUP2 JUMP JUMPDEST PUSH2 0x340 PUSH2 0x1869 JUMP JUMPDEST CALLVALUE DUP1 ISZERO PUSH2 0x6B9 JUMPI PUSH1 0x0 DUP1 REVERT JUMPDEST POP PUSH2 0x312 PUSH32 0x0 DUP2 JUMP JUMPDEST CALLVALUE DUP1 ISZERO PUSH2 0x6ED JUMPI PUSH1 0x0 DUP1 REVERT JUMPDEST POP PUSH2 0x340 PUSH2 0x6FC CALLDATASIZE PUSH1 0x4 PUSH2 0x2F63 JUMP JUMPDEST PUSH1 0x1D PUSH1 0x20 MSTORE PUSH1 0x0 SWAP1 DUP2 MSTORE PUSH1 0x40 SWAP1 KECCAK256 SLOAD DUP2 JUMP JUMPDEST CALLVALUE DUP1 ISZERO PUSH2 0x71A JUMPI PUSH1 0x0 DUP1 REVERT JUMPDEST POP PUSH2 0x340 PUSH2 0x729 CALLDATASIZE PUSH1 0x4 PUSH2 0x2FBA JUMP JUMPDEST PUSH2 0x19E2 JUMP JUMPDEST CALLVALUE DUP1 ISZERO PUSH2 0x73A JUMPI PUSH1 0x0 DUP1 REVERT JUMPDEST POP PUSH2 0x340 PUSH2 0x749 CALLDATASIZE PUSH1 0x4 PUSH2 0x2F63 JUMP JUMPDEST PUSH1 0x17 PUSH1 0x20 MSTORE PUSH1 0x0 SWAP1 DUP2 MSTORE PUSH1 0x40 SWAP1 KECCAK256 SLOAD DUP2 JUMP JUMPDEST CALLVALUE DUP1 ISZERO PUSH2 0x767 JUMPI PUSH1 0x0 DUP1 REVERT JUMPDEST POP PUSH2 0x340 PUSH2 0x776 CALLDATASIZE PUSH1 0x4 PUSH2 0x2C55 JUMP JUMPDEST PUSH2 0x1A13 JUMP JUMPDEST CALLVALUE DUP1 ISZERO PUSH2 0x787 JUMPI PUSH1 0x0 DUP1 REVERT JUMPDEST POP PUSH2 0x340 PUSH2 0x796 CALLDATASIZE PUSH1 0x4 PUSH2 0x2FBA JUMP JUMPDEST PUSH1 0x1A PUSH1 0x20 SWAP1 DUP2 MSTORE PUSH1 0x0 SWAP3 DUP4 MSTORE PUSH1 0x40 DUP1 DUP5 KECCAK256 SWAP1 SWAP2 MSTORE SWAP1 DUP3 MSTORE SWAP1 KECCAK256 SLOAD DUP2 JUMP JUMPDEST CALLVALUE DUP1 ISZERO PUSH2 0x7BF JUMPI PUSH1 0x0 DUP1 REVERT JUMPDEST POP PUSH2 0x312 PUSH2 0x7CE CALLDATASIZE PUSH1 0x4 PUSH2 0x2C55 JUMP JUMPDEST PUSH2 0x1A2A JUMP JUMPDEST CALLVALUE DUP1 ISZERO PUSH2 0x7DF JUMPI PUSH1 0x0 DUP1 REVERT JUMPDEST POP PUSH2 0x340 PUSH1 0x3D SLOAD DUP2 JUMP JUMPDEST CALLVALUE DUP1 ISZERO PUSH2 0x7F5 JUMPI PUSH1 0x0 DUP1 REVERT JUMPDEST POP PUSH2 0x2F0 PUSH2 0x804 CALLDATASIZE PUSH1 0x4 PUSH2 0x2C55 JUMP JUMPDEST PUSH2 0x1A3A JUMP JUMPDEST CALLVALUE DUP1 ISZERO PUSH2 0x815 JUMPI PUSH1 0x0 DUP1 REVERT JUMPDEST POP PUSH1 0x13 SLOAD PUSH1 0x14 SLOAD PUSH1 0x15 SLOAD PUSH2 0x831 SWAP3 PUSH1 0x1 PUSH1 0x1 PUSH1 0xA0 SHL SUB AND SWAP2 SWAP1 DUP4 JUMP JUMPDEST PUSH1 0x40 DUP1 MLOAD PUSH1 0x1 PUSH1 0x1 PUSH1 0xA0 SHL SUB SWAP1 SWAP5 AND DUP5 MSTORE PUSH1 0x20 DUP5 ADD SWAP3 SWAP1 SWAP3 MSTORE SWAP1 DUP3 ADD MSTORE PUSH1 0x60 ADD PUSH2 0x2DF JUMP JUMPDEST CALLVALUE DUP1 ISZERO PUSH2 0x862 JUMPI PUSH1 0x0 DUP1 REVERT JUMPDEST POP PUSH2 0x86B PUSH2 0x1B40 JUMP JUMPDEST PUSH1 0x40 MLOAD PUSH2 0x2DF SWAP5 SWAP4 SWAP3 SWAP2 SWAP1 PUSH2 0x300F JUMP JUMPDEST CALLVALUE DUP1 ISZERO PUSH2 0x887 JUMPI PUSH1 0x0 DUP1 REVERT JUMPDEST POP PUSH2 0x312 PUSH2 0x896 CALLDATASIZE PUSH1 0x4 PUSH2 0x2C55 JUMP JUMPDEST PUSH2 0x1C11 JUMP JUMPDEST CALLVALUE DUP1 ISZERO PUSH2 0x8A7 JUMPI PUSH1 0x0 DUP1 REVERT JUMPDEST POP PUSH2 0x340 PUSH1 0x40 SLOAD DUP2 JUMP JUMPDEST CALLVALUE DUP1 ISZERO PUSH2 0x8BD JUMPI PUSH1 0x0 DUP1 REVERT JUMPDEST POP PUSH2 0x340 PUSH2 0x8CC CALLDATASIZE PUSH1 0x4 PUSH2 0x2FBA JUMP JUMPDEST PUSH2 0x1C21 JUMP JUMPDEST PUSH2 0x2F0 PUSH2 0x1C3D JUMP JUMPDEST CALLVALUE DUP1 ISZERO PUSH2 0x8E5 JUMPI PUSH1 0x0 DUP1 REVERT JUMPDEST POP PUSH2 0x92D PUSH2 0x8F4 CALLDATASIZE PUSH1 0x4 PUSH2 0x2C55 JUMP JUMPDEST PUSH1 0x3F PUSH1 0x20 MSTORE PUSH1 0x0 SWAP1 DUP2 MSTORE PUSH1 0x40 SWAP1 KECCAK256 DUP1 SLOAD PUSH1 0x1 DUP3 ADD SLOAD PUSH1 0x2 DUP4 ADD SLOAD PUSH1 0x3 DUP5 ADD SLOAD PUSH1 0x4 SWAP1 SWAP5 ADD SLOAD SWAP3 SWAP4 SWAP2 SWAP3 PUSH1 0x1 PUSH1 0x1 PUSH1 0xA0 SHL SUB SWAP1 SWAP2 AND SWAP2 SWAP1 DUP6 JUMP JUMPDEST PUSH1 0x40 DUP1 MLOAD SWAP6 DUP7 MSTORE PUSH1 0x20 DUP7 ADD SWAP5 SWAP1 SWAP5 MSTORE PUSH1 0x1 PUSH1 0x1 PUSH1 0xA0 SHL SUB SWAP1 SWAP3 AND SWAP3 DUP5 ADD SWAP3 SWAP1 SWAP3 MSTORE PUSH1 0x60 DUP4 ADD SWAP2 SWAP1 SWAP2 MSTORE PUSH1 0x80 DUP3 ADD MSTORE PUSH1 0xA0 ADD PUSH2 0x2DF JUMP JUMPDEST CALLVALUE DUP1 ISZERO PUSH2 0x96F JUMPI PUSH1 0x0 DUP1 REVERT JUMPDEST POP PUSH2 0x340 PUSH2 0x97E CALLDATASIZE PUSH1 0x4 PUSH2 0x2C55 JUMP JUMPDEST PUSH2 0x1CF3 JUMP JUMPDEST CALLVALUE DUP1 ISZERO PUSH2 0x98F JUMPI PUSH1 0x0 DUP1 REVERT JUMPDEST POP PUSH32 0x0 PUSH2 0x312 JUMP JUMPDEST CALLVALUE DUP1 ISZERO PUSH2 0x9C2 JUMPI PUSH1 0x0 DUP1 REVERT JUMPDEST POP PUSH2 0x340 PUSH2 0x9D1 CALLDATASIZE PUSH1 0x4 PUSH2 0x2C55 JUMP JUMPDEST PUSH2 0x1DBA JUMP JUMPDEST CALLVALUE DUP1 ISZERO PUSH2 0x9E2 JUMPI PUSH1 0x0 DUP1 REVERT JUMPDEST POP PUSH2 0x312 PUSH2 0x9F1 CALLDATASIZE PUSH1 0x4 PUSH2 0x2C55 JUMP JUMPDEST PUSH2 0x1DCA JUMP JUMPDEST CALLVALUE DUP1 ISZERO PUSH2 0xA02 JUMPI PUSH1 0x0 DUP1 REVERT JUMPDEST POP PUSH2 0x340 PUSH2 0xA11 CALLDATASIZE PUSH1 0x4 PUSH2 0x2FBA JUMP JUMPDEST PUSH1 0x1C PUSH1 0x20 SWAP1 DUP2 MSTORE PUSH1 0x0 SWAP3 DUP4 MSTORE PUSH1 0x40 DUP1 DUP5 KECCAK256 SWAP1 SWAP2 MSTORE SWAP1 DUP3 MSTORE SWAP1 KECCAK256 SLOAD DUP2 JUMP JUMPDEST CALLVALUE DUP1 ISZERO PUSH2 0xA3A JUMPI PUSH1 0x0 DUP1 REVERT JUMPDEST POP PUSH2 0x2F0 PUSH2 0xA49 CALLDATASIZE PUSH1 0x4 PUSH2 0x2F63 JUMP JUMPDEST PUSH2 0x1DDA JUMP JUMPDEST CALLVALUE DUP1 ISZERO PUSH2 0xA5A JUMPI PUSH1 0x0 DUP1 REVERT JUMPDEST POP PUSH2 0x2F0 PUSH2 0xA69 CALLDATASIZE PUSH1 0x4 PUSH2 0x2C55 JUMP JUMPDEST PUSH2 0x1DEB JUMP JUMPDEST PUSH1 0x0 PUSH1 0x1 PUSH1 0x1 PUSH1 0xE0 SHL SUB NOT DUP3 AND PUSH4 0x85572FFB PUSH1 0xE0 SHL EQ DUP1 PUSH2 0xA9F JUMPI POP PUSH1 0x1 PUSH1 0x1 PUSH1 0xE0 SHL SUB NOT DUP3 AND PUSH4 0x1FFC9A7 PUSH1 0xE0 SHL EQ JUMPDEST SWAP3 SWAP2 POP POP JUMP JUMPDEST PUSH1 0x0 PUSH2 0xAB1 PUSH1 0x5 PUSH2 0x1CF3 JUMP JUMPDEST SWAP1 POP DUP1 CALLVALUE LT ISZERO PUSH2 0xADC JUMPI PUSH1 0x40 MLOAD PUSH3 0x461BCD PUSH1 0xE5 SHL DUP2 MSTORE PUSH1 0x4 ADD PUSH2 0xAD3 SWAP1 PUSH2 0x3070 JUMP JUMPDEST PUSH1 0x40 MLOAD DUP1 SWAP2 SUB SWAP1 REVERT JUMPDEST PUSH1 0x29 SLOAD PUSH1 0x1 PUSH1 0x1 PUSH1 0xA0 SHL SUB AND DUP1 ISZERO PUSH2 0xAF8 JUMPI PUSH2 0xAF8 DUP2 DUP4 PUSH2 0x1EE7 JUMP JUMPDEST POP POP JUMP JUMPDEST PUSH1 0x9 DUP2 PUSH1 0x3 DUP2 LT PUSH2 0xB0C JUMPI PUSH1 0x0 DUP1 REVERT JUMPDEST ADD SLOAD PUSH1 0x1 PUSH1 0x1 PUSH1 0xA0 SHL SUB AND SWAP1 POP DUP2 JUMP JUMPDEST CALLER PUSH1 0x0 SWAP1 DUP2 MSTORE PUSH1 0x19 PUSH1 0x20 SWAP1 DUP2 MSTORE PUSH1 0x40 SWAP2 DUP3 SWAP1 KECCAK256 DUP1 SLOAD DUP4 MLOAD DUP2 DUP5 MUL DUP2 ADD DUP5 ADD SWAP1 SWAP5 MSTORE DUP1 DUP5 MSTORE PUSH1 0x60 SWAP4 DUP5 SWAP4 SWAP1 SWAP3 SWAP2 SWAP1 DUP4 ADD DUP3 DUP3 DUP1 ISZERO PUSH2 0xB78 JUMPI PUSH1 0x20 MUL DUP3 ADD SWAP2 SWAP1 PUSH1 0x0 MSTORE PUSH1 0x20 PUSH1 0x0 KECCAK256 SWAP1 JUMPDEST DUP2 SLOAD DUP2 MSTORE PUSH1 0x20 ADD SWAP1 PUSH1 0x1 ADD SWAP1 DUP1 DUP4 GT PUSH2 0xB64 JUMPI JUMPDEST POP POP POP POP POP SWAP2 POP DUP2 MLOAD PUSH1 0x1 PUSH1 0x1 PUSH1 0x40 SHL SUB DUP2 GT ISZERO PUSH2 0xB98 JUMPI PUSH2 0xB98 PUSH2 0x2CCE JUMP JUMPDEST PUSH1 0x40 MLOAD SWAP1 DUP1 DUP3 MSTORE DUP1 PUSH1 0x20 MUL PUSH1 0x20 ADD DUP3 ADD PUSH1 0x40 MSTORE DUP1 ISZERO PUSH2 0xBC1 JUMPI DUP2 PUSH1 0x20 ADD PUSH1 0x20 DUP3 MUL DUP1 CALLDATASIZE DUP4 CALLDATACOPY ADD SWAP1 POP JUMPDEST POP SWAP1 POP PUSH1 0x0 JUMPDEST DUP3 MLOAD DUP2 LT ISZERO PUSH2 0xC1C JUMPI CALLER PUSH1 0x0 SWAP1 DUP2 MSTORE PUSH1 0x1A PUSH1 0x20 SWAP1 DUP2 MSTORE PUSH1 0x40 DUP1 DUP4 KECCAK256 DUP5 DUP5 MSTORE SWAP1 SWAP2 MSTORE SWAP1 KECCAK256 SLOAD DUP3 MLOAD DUP4 SWAP1 DUP4 SWAP1 DUP2 LT PUSH2 0xBFF JUMPI PUSH2 0xBFF PUSH2 0x30A7 JUMP JUMPDEST PUSH1 0x20 SWAP1 DUP2 MUL SWAP2 SWAP1 SWAP2 ADD ADD MSTORE DUP1 PUSH2 0xC14 DUP2 PUSH2 0x30D3 JUMP JUMPDEST SWAP2 POP POP PUSH2 0xBC7 JUMP JUMPDEST POP SWAP1 SWAP2 JUMP JUMPDEST PUSH32 0x0 CALLER PUSH1 0x1 PUSH1 0x1 PUSH1 0xA0 SHL SUB DUP3 AND EQ PUSH2 0xC7C JUMPI PUSH1 0x40 MLOAD PUSH4 0x45D498B7 PUSH1 0xE1 SHL DUP2 MSTORE CALLER PUSH1 0x4 DUP3 ADD MSTORE PUSH1 0x1 PUSH1 0x1 PUSH1 0xA0 SHL SUB DUP3 AND PUSH1 0x24 DUP3 ADD MSTORE PUSH1 0x44 ADD PUSH2 0xAD3 JUMP JUMPDEST PUSH2 0xC86 DUP4 DUP4 PUSH2 0x1F1D JUMP JUMPDEST POP POP POP JUMP JUMPDEST PUSH1 0xC DUP2 PUSH1 0x3 DUP2 LT PUSH2 0xC9B JUMPI PUSH1 0x0 DUP1 REVERT JUMPDEST PUSH1 0x4 SWAP2 DUP3 DUP3 DIV ADD SWAP2 SWAP1 MOD PUSH1 0x8 MUL SWAP2 POP SLOAD SWAP1 PUSH2 0x100 EXP SWAP1 DIV PUSH1 0x1 PUSH1 0x1 PUSH1 0x40 SHL SUB AND DUP2 JUMP JUMPDEST PUSH1 0x0 DUP1 PUSH2 0xCDE PUSH1 0x40 MLOAD DUP1 PUSH1 0x40 ADD PUSH1 0x40 MSTORE DUP1 PUSH1 0x0 DUP2 MSTORE PUSH1 0x20 ADD PUSH1 0x0 DUP2 MSTORE POP SWAP1 JUMP JUMPDEST CALLER PUSH1 0x0 SWAP1 DUP2 MSTORE PUSH1 0x17 PUSH1 0x20 SWAP1 DUP2 MSTORE PUSH1 0x40 DUP1 DUP4 KECCAK256 SLOAD DUP1 DUP5 MSTORE PUSH1 0x18 SWAP1 SWAP3 MSTORE SWAP1 SWAP2 KECCAK256 PUSH1 0x1 ADD SLOAD PUSH2 0xD40 JUMPI PUSH1 0x40 MLOAD PUSH3 0x461BCD PUSH1 0xE5 SHL DUP2 MSTORE PUSH1 0x20 PUSH1 0x4 DUP3 ADD MSTORE PUSH1 0x11 PUSH1 0x24 DUP3 ADD MSTORE PUSH17 0x1C995C5D595CDD081B9BDD08199BDD5B99 PUSH1 0x7A SHL PUSH1 0x44 DUP3 ADD MSTORE PUSH1 0x64 ADD PUSH2 0xAD3 JUMP JUMPDEST PUSH1 0x0 DUP2 DUP2 MSTORE PUSH1 0x18 PUSH1 0x20 SWAP1 DUP2 MSTORE PUSH1 0x40 DUP1 DUP4 KECCAK256 DUP2 MLOAD PUSH1 0xA0 DUP2 ADD DUP4 MSTORE DUP2 SLOAD PUSH1 0x1 PUSH1 0x1 PUSH1 0xA0 SHL SUB AND DUP2 MSTORE PUSH1 0x1 DUP3 ADD SLOAD DUP2 DUP6 ADD MSTORE PUSH1 0x2 DUP3 ADD SLOAD PUSH1 0xFF AND ISZERO ISZERO DUP2 DUP5 ADD MSTORE PUSH1 0x3 DUP3 ADD DUP1 SLOAD DUP5 MLOAD DUP2 DUP8 MUL DUP2 ADD DUP8 ADD SWAP1 SWAP6 MSTORE DUP1 DUP6 MSTORE SWAP2 SWAP5 SWAP3 SWAP4 PUSH1 0x60 DUP7 ADD SWAP4 SWAP1 SWAP3 SWAP1 DUP4 ADD DUP3 DUP3 DUP1 ISZERO PUSH2 0xDCD JUMPI PUSH1 0x20 MUL DUP3 ADD SWAP2 SWAP1 PUSH1 0x0 MSTORE PUSH1 0x20 PUSH1 0x0 KECCAK256 SWAP1 JUMPDEST DUP2 SLOAD DUP2 MSTORE PUSH1 0x20 ADD SWAP1 PUSH1 0x1 ADD SWAP1 DUP1 DUP4 GT PUSH2 0xDB9 JUMPI JUMPDEST POP POP POP SWAP2 DUP4 MSTORE POP POP PUSH1 0x40 DUP1 MLOAD DUP1 DUP3 ADD DUP3 MSTORE PUSH1 0x4 DUP5 ADD SLOAD DUP2 MSTORE PUSH1 0x5 SWAP1 SWAP4 ADD SLOAD PUSH1 0x20 DUP5 DUP2 ADD SWAP2 SWAP1 SWAP2 MSTORE SWAP2 DUP3 ADD SWAP3 SWAP1 SWAP3 MSTORE DUP3 ADD MLOAD SWAP1 DUP3 ADD MLOAD PUSH1 0x80 SWAP1 SWAP3 ADD MLOAD SWAP1 SWAP8 SWAP2 SWAP7 POP SWAP5 POP SWAP3 POP POP POP JUMP JUMPDEST CALLER PUSH1 0x0 SWAP1 DUP2 MSTORE PUSH1 0x1B PUSH1 0x20 SWAP1 DUP2 MSTORE PUSH1 0x40 SWAP2 DUP3 SWAP1 KECCAK256 DUP1 SLOAD DUP4 MLOAD DUP2 DUP5 MUL DUP2 ADD DUP5 ADD SWAP1 SWAP5 MSTORE DUP1 DUP5 MSTORE PUSH1 0x60 SWAP4 DUP5 SWAP4 SWAP1 SWAP3 SWAP2 SWAP1 DUP4 ADD DUP3 DUP3 DUP1 ISZERO PUSH2 0xE71 JUMPI PUSH1 0x20 MUL DUP3 ADD SWAP2 SWAP1 PUSH1 0x0 MSTORE PUSH1 0x20 PUSH1 0x0 KECCAK256 SWAP1 JUMPDEST DUP2 SLOAD DUP2 MSTORE PUSH1 0x20 ADD SWAP1 PUSH1 0x1 ADD SWAP1 DUP1 DUP4 GT PUSH2 0xE5D JUMPI JUMPDEST POP POP POP POP POP SWAP2 POP DUP2 MLOAD PUSH1 0x1 PUSH1 0x1 PUSH1 0x40 SHL SUB DUP2 GT ISZERO PUSH2 0xE91 JUMPI PUSH2 0xE91 PUSH2 0x2CCE JUMP JUMPDEST PUSH1 0x40 MLOAD SWAP1 DUP1 DUP3 MSTORE DUP1 PUSH1 0x20 MUL PUSH1 0x20 ADD DUP3 ADD PUSH1 0x40 MSTORE DUP1 ISZERO PUSH2 0xEBA JUMPI DUP2 PUSH1 0x20 ADD PUSH1 0x20 DUP3 MUL DUP1 CALLDATASIZE DUP4 CALLDATACOPY ADD SWAP1 POP JUMPDEST POP SWAP1 POP PUSH1 0x0 JUMPDEST DUP3 MLOAD DUP2 LT ISZERO PUSH2 0xC1C JUMPI CALLER PUSH1 0x0 SWAP1 DUP2 MSTORE PUSH1 0x1C PUSH1 0x20 SWAP1 DUP2 MSTORE PUSH1 0x40 DUP1 DUP4 KECCAK256 DUP5 DUP5 MSTORE SWAP1 SWAP2 MSTORE SWAP1 KECCAK256 SLOAD DUP3 MLOAD DUP4 SWAP1 DUP4 SWAP1 DUP2 LT PUSH2 0xEF8 JUMPI PUSH2 0xEF8 PUSH2 0x30A7 JUMP JUMPDEST PUSH1 0x20 SWAP1 DUP2 MUL SWAP2 SWAP1 SWAP2 ADD ADD MSTORE DUP1 PUSH2 0xF0D DUP2 PUSH2 0x30D3 JUMP JUMPDEST SWAP2 POP POP PUSH2 0xEC0 JUMP JUMPDEST PUSH1 0x16 DUP2 DUP2 SLOAD DUP2 LT PUSH2 0xF25 JUMPI PUSH1 0x0 DUP1 REVERT JUMPDEST PUSH1 0x0 SWAP2 DUP3 MSTORE PUSH1 0x20 SWAP1 SWAP2 KECCAK256 PUSH1 0x2 SWAP1 SWAP2 MUL ADD DUP1 SLOAD PUSH1 0x1 SWAP1 SWAP2 ADD SLOAD SWAP1 SWAP2 POP DUP3 JUMP JUMPDEST PUSH2 0xF4B PUSH2 0x21A8 JUMP JUMPDEST PUSH1 0x40 DUP1 MLOAD DUP1 DUP3 ADD DUP3 MSTORE PUSH1 0x0 DUP1 DUP3 MSTORE PUSH1 0x64 PUSH1 0x20 DUP1 DUP5 ADD SWAP2 DUP3 MSTORE PUSH1 0x16 DUP1 SLOAD PUSH1 0x1 DUP2 DUP2 ADD DUP4 SSTORE DUP3 DUP7 MSTORE SWAP6 MLOAD PUSH1 0x2 SWAP2 DUP3 MUL PUSH32 0xD833147D7DC355BA459FC788F669E58CFAF9DC25DDCD0702E87D69C7B5124289 DUP2 DUP2 ADD SWAP3 SWAP1 SWAP3 SSTORE SWAP5 MLOAD PUSH32 0xD833147D7DC355BA459FC788F669E58CFAF9DC25DDCD0702E87D69C7B512428A SWAP6 DUP7 ADD SSTORE DUP8 MLOAD DUP1 DUP10 ADD DUP10 MSTORE DUP7 DUP2 MSTORE PUSH1 0x32 DUP2 DUP7 ADD DUP2 DUP2 MSTORE DUP6 SLOAD DUP1 DUP12 ADD DUP8 SSTORE DUP7 DUP11 MSTORE SWAP3 MLOAD SWAP3 DUP6 MUL DUP1 DUP6 ADD SWAP4 SWAP1 SWAP4 SSTORE MLOAD SWAP2 DUP8 ADD SWAP2 SWAP1 SWAP2 SSTORE DUP9 MLOAD DUP1 DUP11 ADD DUP11 MSTORE DUP9 DUP2 MSTORE PUSH1 0xA DUP2 DUP8 ADD SWAP1 DUP2 MSTORE DUP6 SLOAD DUP1 DUP12 ADD DUP8 SSTORE DUP7 DUP11 MSTORE SWAP2 MLOAD SWAP2 DUP6 MUL DUP1 DUP6 ADD SWAP3 SWAP1 SWAP3 SSTORE MLOAD SWAP1 DUP8 ADD SSTORE DUP9 MLOAD DUP1 DUP11 ADD DUP11 MSTORE DUP8 DUP2 MSTORE DUP1 DUP7 ADD DUP3 DUP2 MSTORE DUP6 SLOAD DUP1 DUP12 ADD DUP8 SSTORE DUP7 DUP11 MSTORE SWAP2 MLOAD SWAP2 DUP6 MUL DUP1 DUP6 ADD SWAP3 SWAP1 SWAP3 SSTORE MLOAD SWAP1 DUP8 ADD SSTORE DUP9 MLOAD DUP1 DUP11 ADD DUP11 MSTORE DUP8 DUP2 MSTORE PUSH1 0x96 DUP2 DUP8 ADD SWAP1 DUP2 MSTORE DUP6 SLOAD DUP1 DUP12 ADD DUP8 SSTORE DUP7 DUP11 MSTORE SWAP2 MLOAD SWAP2 DUP6 MUL DUP1 DUP6 ADD SWAP3 SWAP1 SWAP3 SSTORE MLOAD SWAP1 DUP8 ADD SSTORE DUP9 MLOAD DUP1 DUP11 ADD DUP11 MSTORE PUSH1 0x3 DUP1 DUP3 MSTORE PUSH1 0x12 DUP3 DUP9 ADD SWAP1 DUP2 MSTORE DUP7 SLOAD DUP1 DUP13 ADD DUP9 SSTORE DUP8 DUP12 MSTORE SWAP3 MLOAD SWAP3 DUP7 MUL DUP1 DUP7 ADD SWAP4 SWAP1 SWAP4 SSTORE MLOAD SWAP2 DUP9 ADD SWAP2 SWAP1 SWAP2 SSTORE DUP10 MLOAD DUP1 DUP12 ADD DUP12 MSTORE DUP9 DUP2 MSTORE PUSH1 0xC8 DUP2 DUP9 ADD DUP2 DUP2 MSTORE DUP8 SLOAD DUP1 DUP14 ADD DUP10 SSTORE DUP9 DUP13 MSTORE SWAP3 MLOAD SWAP3 DUP8 MUL DUP1 DUP8 ADD SWAP4 SWAP1 SWAP4 SSTORE MLOAD SWAP2 DUP10 ADD SWAP2 SWAP1 SWAP2 SSTORE DUP11 MLOAD DUP1 DUP13 ADD DUP13 MSTORE DUP10 DUP2 MSTORE DUP1 DUP9 ADD DUP5 DUP2 MSTORE DUP8 SLOAD DUP1 DUP14 ADD DUP10 SSTORE DUP9 DUP13 MSTORE SWAP2 MLOAD SWAP2 DUP8 MUL DUP1 DUP8 ADD SWAP3 SWAP1 SWAP3 SSTORE MLOAD SWAP1 DUP10 ADD SSTORE DUP11 MLOAD DUP1 DUP13 ADD DUP13 MSTORE DUP11 DUP2 MSTORE PUSH1 0x14 DUP2 DUP10 ADD SWAP1 DUP2 MSTORE DUP8 SLOAD DUP1 DUP14 ADD DUP10 SSTORE DUP9 DUP13 MSTORE SWAP2 MLOAD SWAP2 DUP8 MUL DUP1 DUP8 ADD SWAP3 SWAP1 SWAP3 SSTORE MLOAD SWAP1 DUP10 ADD SSTORE DUP11 MLOAD DUP1 DUP13 ADD DUP13 MSTORE DUP10 DUP2 MSTORE DUP1 DUP9 ADD SWAP4 DUP5 MSTORE DUP7 SLOAD DUP1 DUP13 ADD DUP9 SSTORE DUP8 DUP12 MSTORE SWAP1 MLOAD SWAP1 DUP7 MUL DUP1 DUP7 ADD SWAP2 SWAP1 SWAP2 SSTORE SWAP3 MLOAD SWAP3 DUP9 ADD SWAP3 SWAP1 SWAP3 SSTORE DUP10 MLOAD DUP1 DUP12 ADD DUP12 MSTORE DUP9 DUP2 MSTORE DUP1 DUP8 ADD SWAP3 DUP4 MSTORE DUP6 SLOAD DUP1 DUP12 ADD DUP8 SSTORE DUP7 DUP11 MSTORE SWAP1 MLOAD SWAP1 DUP6 MUL DUP1 DUP6 ADD SWAP2 SWAP1 SWAP2 SSTORE SWAP2 MLOAD SWAP2 DUP8 ADD SWAP2 SWAP1 SWAP2 SSTORE DUP9 MLOAD DUP1 DUP11 ADD SWAP1 SWAP10 MSTORE DUP9 MSTORE PUSH1 0x9 SWAP4 DUP9 ADD SWAP4 DUP5 MSTORE DUP3 SLOAD SWAP7 DUP8 ADD DUP4 SSTORE SWAP2 SWAP1 SWAP5 MSTORE SWAP5 MLOAD SWAP4 SWAP1 SWAP3 MUL SWAP4 DUP5 ADD SWAP3 SWAP1 SWAP3 SSTORE MLOAD SWAP2 ADD SSTORE JUMP JUMPDEST PUSH1 0xD DUP2 PUSH1 0x3 DUP2 LT PUSH2 0xB0C JUMPI PUSH1 0x0 DUP1 REVERT JUMPDEST CALLER PUSH1 0x0 SWAP1 DUP2 MSTORE PUSH1 0x1D PUSH1 0x20 SWAP1 DUP2 MSTORE PUSH1 0x40 DUP1 DUP4 KECCAK256 SLOAD PUSH1 0x1E DUP4 MSTORE DUP2 DUP5 KECCAK256 SLOAD PUSH1 0x19 DUP5 MSTORE DUP3 DUP6 KECCAK256 PUSH1 0x1B DUP6 MSTORE DUP4 DUP7 KECCAK256 DUP2 SLOAD DUP6 MLOAD DUP2 DUP9 MUL DUP2 ADD DUP9 ADD SWAP1 SWAP7 MSTORE DUP1 DUP7 MSTORE DUP8 SWAP7 PUSH1 0x60 SWAP7 DUP8 SWAP7 SWAP6 SWAP5 SWAP4 SWAP3 SWAP1 SWAP2 DUP5 SWAP2 SWAP1 DUP4 ADD DUP3 DUP3 DUP1 ISZERO PUSH2 0x124D JUMPI PUSH1 0x20 MUL DUP3 ADD SWAP2 SWAP1 PUSH1 0x0 MSTORE PUSH1 0x20 PUSH1 0x0 KECCAK256 SWAP1 JUMPDEST DUP2 SLOAD DUP2 MSTORE PUSH1 0x20 ADD SWAP1 PUSH1 0x1 ADD SWAP1 DUP1 DUP4 GT PUSH2 0x1239 JUMPI JUMPDEST POP POP POP POP POP SWAP2 POP DUP1 DUP1 SLOAD DUP1 PUSH1 0x20 MUL PUSH1 0x20 ADD PUSH1 0x40 MLOAD SWAP1 DUP2 ADD PUSH1 0x40 MSTORE DUP1 SWAP3 SWAP2 SWAP1 DUP2 DUP2 MSTORE PUSH1 0x20 ADD DUP3 DUP1 SLOAD DUP1 ISZERO PUSH2 0x129F JUMPI PUSH1 0x20 MUL DUP3 ADD SWAP2 SWAP1 PUSH1 0x0 MSTORE PUSH1 0x20 PUSH1 0x0 KECCAK256 SWAP1 JUMPDEST DUP2 SLOAD DUP2 MSTORE PUSH1 0x20 ADD SWAP1 PUSH1 0x1 ADD SWAP1 DUP1 DUP4 GT PUSH2 0x128B JUMPI JUMPDEST POP POP POP POP POP SWAP1 POP SWAP4 POP SWAP4 POP SWAP4 POP SWAP4 POP SWAP1 SWAP2 SWAP3 SWAP4 JUMP JUMPDEST PUSH2 0x12BC PUSH2 0x21A8 JUMP JUMPDEST PUSH1 0x3 DUP2 MLOAD EQ PUSH2 0x130D JUMPI PUSH1 0x40 MLOAD PUSH3 0x461BCD PUSH1 0xE5 SHL DUP2 MSTORE PUSH1 0x20 PUSH1 0x4 DUP3 ADD MSTORE PUSH1 0x19 PUSH1 0x24 DUP3 ADD MSTORE PUSH32 0x72656365697665724C697374206973206E6F742076616C696400000000000000 PUSH1 0x44 DUP3 ADD MSTORE PUSH1 0x64 ADD PUSH2 0xAD3 JUMP JUMPDEST PUSH1 0x0 JUMPDEST DUP2 MLOAD DUP2 LT ISZERO PUSH2 0xAF8 JUMPI DUP2 DUP2 DUP2 MLOAD DUP2 LT PUSH2 0x132B JUMPI PUSH2 0x132B PUSH2 0x30A7 JUMP JUMPDEST PUSH1 0x20 MUL PUSH1 0x20 ADD ADD MLOAD PUSH1 0x10 DUP3 PUSH1 0x3 DUP2 LT PUSH2 0x1346 JUMPI PUSH2 0x1346 PUSH2 0x30A7 JUMP JUMPDEST ADD DUP1 SLOAD PUSH1 0x1 PUSH1 0x1 PUSH1 0xA0 SHL SUB NOT AND PUSH1 0x1 PUSH1 0x1 PUSH1 0xA0 SHL SUB SWAP3 SWAP1 SWAP3 AND SWAP2 SWAP1 SWAP2 OR SWAP1 SSTORE DUP1 PUSH2 0x136F DUP2 PUSH2 0x30D3 JUMP JUMPDEST SWAP2 POP POP PUSH2 0x1310 JUMP JUMPDEST PUSH1 0x3 DUP2 PUSH1 0x3 DUP2 LT PUSH2 0xB0C JUMPI PUSH1 0x0 DUP1 REVERT JUMPDEST PUSH1 0x1 SLOAD PUSH1 0x1 PUSH1 0x1 PUSH1 0xA0 SHL SUB AND CALLER EQ PUSH2 0x13DA JUMPI PUSH1 0x40 MLOAD PUSH3 0x461BCD PUSH1 0xE5 SHL DUP2 MSTORE PUSH1 0x20 PUSH1 0x4 DUP3 ADD MSTORE PUSH1 0x16 PUSH1 0x24 DUP3 ADD MSTORE PUSH22 0x26BAB9BA10313290383937B837B9B2B21037BBB732B9 PUSH1 0x51 SHL PUSH1 0x44 DUP3 ADD MSTORE PUSH1 0x64 ADD PUSH2 0xAD3 JUMP JUMPDEST PUSH1 0x0 DUP1 SLOAD CALLER PUSH1 0x1 PUSH1 0x1 PUSH1 0xA0 SHL SUB NOT DUP1 DUP4 AND DUP3 OR DUP5 SSTORE PUSH1 0x1 DUP1 SLOAD SWAP1 SWAP2 AND SWAP1 SSTORE PUSH1 0x40 MLOAD PUSH1 0x1 PUSH1 0x1 PUSH1 0xA0 SHL SUB SWAP1 SWAP3 AND SWAP3 SWAP1 SWAP2 DUP4 SWAP2 PUSH32 0x8BE0079C531659141344CD1FD0A4F28419497F9722A3DAAFE3B4186F6B6457E0 SWAP2 LOG3 POP JUMP JUMPDEST PUSH1 0x3 PUSH1 0x2 SLOAD PUSH1 0x3 DUP2 LT PUSH2 0x1446 JUMPI PUSH2 0x1446 PUSH2 0x30A7 JUMP JUMPDEST ADD SLOAD PUSH1 0x1 PUSH1 0x1 PUSH1 0xA0 SHL SUB AND CALLER EQ PUSH2 0x1472 JUMPI PUSH1 0x40 MLOAD PUSH4 0x35FDCCCD PUSH1 0xE2 SHL DUP2 MSTORE CALLER PUSH1 0x4 DUP3 ADD MSTORE PUSH1 0x24 ADD PUSH2 0xAD3 JUMP JUMPDEST PUSH2 0x1483 PUSH2 0x147E DUP3 PUSH2 0x320A JUMP JUMPDEST PUSH2 0x21FD JUMP JUMPDEST POP JUMP JUMPDEST CALLER PUSH1 0x0 DUP2 DUP2 MSTORE PUSH1 0x3E PUSH1 0x20 SWAP1 DUP2 MSTORE PUSH1 0x40 DUP1 DUP4 KECCAK256 SLOAD DUP1 DUP5 MSTORE PUSH1 0x3F DUP4 MSTORE SWAP3 DUP2 SWAP1 KECCAK256 TIMESTAMP PUSH1 0x1 DUP3 ADD SSTORE PUSH1 0x4 ADD DUP6 SWAP1 SSTORE DUP1 MLOAD PUSH1 0x60 DUP2 ADD DUP3 MSTORE SWAP4 DUP5 MSTORE SWAP1 DUP4 ADD DUP5 SWAP1 MSTORE PUSH1 0x2 SLOAD SWAP1 DUP4 ADD MSTORE SWAP1 PUSH2 0x14D2 SWAP1 PUSH2 0x22EF JUMP JUMPDEST PUSH1 0x0 JUMPDEST PUSH1 0x3 DUP2 LT ISZERO PUSH2 0x1621 JUMPI PUSH1 0x0 PUSH1 0xC DUP3 PUSH1 0x3 DUP2 LT PUSH2 0x14F3 JUMPI PUSH2 0x14F3 PUSH2 0x30A7 JUMP JUMPDEST PUSH1 0x4 SWAP2 DUP3 DUP3 DIV ADD SWAP2 SWAP1 MOD PUSH1 0x8 MUL SWAP1 SLOAD SWAP1 PUSH2 0x100 EXP SWAP1 DIV PUSH1 0x1 PUSH1 0x1 PUSH1 0x40 SHL SUB AND SWAP1 POP PUSH1 0x0 PUSH1 0x10 DUP4 PUSH1 0x3 DUP2 LT PUSH2 0x1529 JUMPI PUSH2 0x1529 PUSH2 0x30A7 JUMP JUMPDEST ADD SLOAD PUSH1 0x2 SLOAD PUSH1 0x1 PUSH1 0x1 PUSH1 0xA0 SHL SUB SWAP1 SWAP2 AND SWAP2 POP PUSH1 0x1 PUSH1 0x1 PUSH1 0x40 SHL SUB DUP4 AND SWAP1 PUSH1 0xC SWAP1 PUSH1 0x3 DUP2 LT PUSH2 0x1559 JUMPI PUSH2 0x1559 PUSH2 0x30A7 JUMP JUMPDEST PUSH1 0x4 SWAP2 DUP3 DUP3 DIV ADD SWAP2 SWAP1 MOD PUSH1 0x8 MUL SWAP1 SLOAD SWAP1 PUSH2 0x100 EXP SWAP1 DIV PUSH1 0x1 PUSH1 0x1 PUSH1 0x40 SHL SUB AND PUSH1 0x1 PUSH1 0x1 PUSH1 0x40 SHL SUB AND EQ ISZERO DUP1 ISZERO PUSH2 0x1597 JUMPI POP PUSH1 0x1 PUSH1 0x1 PUSH1 0xA0 SHL SUB DUP2 AND ISZERO ISZERO JUMPDEST ISZERO PUSH2 0x160C JUMPI PUSH2 0x160A DUP3 DUP3 PUSH1 0x6 PUSH1 0x2 SLOAD PUSH1 0x3 DUP2 LT PUSH2 0x15B6 JUMPI PUSH2 0x15B6 PUSH2 0x30A7 JUMP JUMPDEST ADD SLOAD PUSH1 0x2 SLOAD PUSH1 0x1 PUSH1 0x1 PUSH1 0xA0 SHL SUB SWAP1 SWAP2 AND SWAP1 PUSH1 0x3 SWAP1 DUP2 DUP2 LT PUSH2 0x15D9 JUMPI PUSH2 0x15D9 PUSH2 0x30A7 JUMP JUMPDEST ADD SLOAD PUSH1 0x40 DUP1 MLOAD PUSH1 0x60 DUP2 ADD DUP3 MSTORE CALLER DUP2 MSTORE PUSH1 0x20 DUP2 ADD DUP13 SWAP1 MSTORE PUSH1 0x2 SLOAD SWAP2 DUP2 ADD SWAP2 SWAP1 SWAP2 MSTORE PUSH1 0x1 PUSH1 0x1 PUSH1 0xA0 SHL SUB SWAP1 SWAP2 AND SWAP1 PUSH2 0x24E7 JUMP JUMPDEST POP JUMPDEST POP POP DUP1 DUP1 PUSH2 0x1619 SWAP1 PUSH2 0x30D3 JUMP JUMPDEST SWAP2 POP POP PUSH2 0x14D5 JUMP JUMPDEST POP PUSH1 0x0 DUP2 DUP2 MSTORE PUSH1 0x3F PUSH1 0x20 SWAP1 DUP2 MSTORE PUSH1 0x40 SWAP2 DUP3 SWAP1 KECCAK256 DUP1 SLOAD PUSH1 0x1 DUP3 ADD SLOAD PUSH1 0x2 DUP4 ADD SLOAD PUSH1 0x3 SWAP1 SWAP4 ADD SLOAD DUP6 MLOAD SWAP3 DUP4 MSTORE SWAP4 DUP3 ADD MSTORE PUSH1 0x1 PUSH1 0x1 PUSH1 0xA0 SHL SUB SWAP1 SWAP2 AND SWAP3 DUP2 ADD SWAP3 SWAP1 SWAP3 MSTORE PUSH1 0x60 DUP3 ADD DUP5 SWAP1 MSTORE PUSH1 0x80 DUP3 ADD MSTORE PUSH32 0x66286673E71E7C3A4012D09FBB56001733372C438DC9BA84CC4CA1EF2C84A2B0 SWAP1 PUSH1 0xA0 ADD PUSH1 0x40 MLOAD DUP1 SWAP2 SUB SWAP1 LOG1 POP POP JUMP JUMPDEST PUSH2 0x16A6 PUSH2 0x21A8 JUMP JUMPDEST PUSH1 0x0 PUSH1 0x1 PUSH1 0x1 PUSH1 0xA0 SHL SUB AND PUSH1 0x6 PUSH1 0x2 SLOAD PUSH1 0x3 DUP2 LT PUSH2 0x16C6 JUMPI PUSH2 0x16C6 PUSH2 0x30A7 JUMP JUMPDEST ADD SLOAD PUSH1 0x1 PUSH1 0x1 PUSH1 0xA0 SHL SUB AND SUB PUSH2 0x172A JUMPI PUSH1 0x40 MLOAD PUSH3 0x461BCD PUSH1 0xE5 SHL DUP2 MSTORE PUSH1 0x20 PUSH1 0x4 DUP3 ADD MSTORE PUSH1 0x24 DUP1 DUP3 ADD MSTORE PUSH32 0x6572726F723A2077697468647261774C696E6B206973206E6F7420737570706F PUSH1 0x44 DUP3 ADD MSTORE PUSH4 0x1C9D1959 PUSH1 0xE2 SHL PUSH1 0x64 DUP3 ADD MSTORE PUSH1 0x84 ADD PUSH2 0xAD3 JUMP JUMPDEST PUSH1 0x0 PUSH1 0x6 PUSH1 0x2 SLOAD PUSH1 0x3 DUP2 LT PUSH2 0x1741 JUMPI PUSH2 0x1741 PUSH2 0x30A7 JUMP JUMPDEST ADD SLOAD PUSH1 0x40 MLOAD PUSH4 0x70A08231 PUSH1 0xE0 SHL DUP2 MSTORE ADDRESS PUSH1 0x4 DUP3 ADD MSTORE PUSH1 0x1 PUSH1 0x1 PUSH1 0xA0 SHL SUB SWAP1 SWAP2 AND SWAP2 POP DUP2 SWAP1 PUSH4 0xA9059CBB SWAP1 CALLER SWAP1 DUP4 SWAP1 PUSH4 0x70A08231 SWAP1 PUSH1 0x24 ADD PUSH1 0x20 PUSH1 0x40 MLOAD DUP1 DUP4 SUB DUP2 DUP7 GAS STATICCALL ISZERO DUP1 ISZERO PUSH2 0x1795 JUMPI RETURNDATASIZE PUSH1 0x0 DUP1 RETURNDATACOPY RETURNDATASIZE PUSH1 0x0 REVERT JUMPDEST POP POP POP POP PUSH1 0x40 MLOAD RETURNDATASIZE PUSH1 0x1F NOT PUSH1 0x1F DUP3 ADD AND DUP3 ADD DUP1 PUSH1 0x40 MSTORE POP DUP2 ADD SWAP1 PUSH2 0x17B9 SWAP2 SWAP1 PUSH2 0x32B6 JUMP JUMPDEST PUSH1 0x40 MLOAD PUSH1 0x1 PUSH1 0x1 PUSH1 0xE0 SHL SUB NOT PUSH1 0xE0 DUP6 SWAP1 SHL AND DUP2 MSTORE PUSH1 0x1 PUSH1 0x1 PUSH1 0xA0 SHL SUB SWAP1 SWAP3 AND PUSH1 0x4 DUP4 ADD MSTORE PUSH1 0x24 DUP3 ADD MSTORE PUSH1 0x44 ADD PUSH1 0x20 PUSH1 0x40 MLOAD DUP1 DUP4 SUB DUP2 PUSH1 0x0 DUP8 GAS CALL ISZERO DUP1 ISZERO PUSH2 0x1804 JUMPI RETURNDATASIZE PUSH1 0x0 DUP1 RETURNDATACOPY RETURNDATASIZE PUSH1 0x0 REVERT JUMPDEST POP POP POP POP PUSH1 0x40 MLOAD RETURNDATASIZE PUSH1 0x1F NOT PUSH1 0x1F DUP3 ADD AND DUP3 ADD DUP1 PUSH1 0x40 MSTORE POP DUP2 ADD SWAP1 PUSH2 0x1828 SWAP2 SWAP1 PUSH2 0x32CF JUMP JUMPDEST PUSH2 0x1483 JUMPI PUSH1 0x40 MLOAD PUSH3 0x461BCD PUSH1 0xE5 SHL DUP2 MSTORE PUSH1 0x20 PUSH1 0x4 DUP3 ADD MSTORE PUSH1 0x12 PUSH1 0x24 DUP3 ADD MSTORE PUSH18 0x2AB730B13632903A37903A3930B739B332B9 PUSH1 0x71 SHL PUSH1 0x44 DUP3 ADD MSTORE PUSH1 0x64 ADD PUSH2 0xAD3 JUMP JUMPDEST PUSH1 0x0 DUP1 PUSH2 0x1876 PUSH1 0x4 PUSH2 0x1CF3 JUMP JUMPDEST SWAP1 POP DUP1 CALLVALUE LT ISZERO PUSH2 0x1898 JUMPI PUSH1 0x40 MLOAD PUSH3 0x461BCD PUSH1 0xE5 SHL DUP2 MSTORE PUSH1 0x4 ADD PUSH2 0xAD3 SWAP1 PUSH2 0x3070 JUMP JUMPDEST PUSH1 0x0 PUSH2 0x18B4 PUSH1 0x40 MLOAD DUP1 PUSH1 0x20 ADD PUSH1 0x40 MSTORE DUP1 PUSH1 0x0 ISZERO ISZERO DUP2 MSTORE POP PUSH2 0x2871 JUMP JUMPDEST SWAP1 POP PUSH1 0x0 DUP1 PUSH2 0x18CA PUSH3 0x1E8480 PUSH1 0x3 PUSH1 0x1 DUP7 PUSH2 0x28E2 JUMP JUMPDEST PUSH1 0x40 DUP1 MLOAD PUSH1 0xA0 DUP2 ADD DUP3 MSTORE CALLER DUP2 MSTORE PUSH1 0x20 DUP1 DUP3 ADD DUP5 DUP2 MSTORE PUSH1 0x0 DUP4 DUP6 ADD DUP2 DUP2 MSTORE DUP6 MLOAD DUP3 DUP2 MSTORE DUP1 DUP6 ADD DUP8 MSTORE PUSH1 0x60 DUP7 ADD SWAP1 DUP2 MSTORE DUP7 MLOAD DUP1 DUP9 ADD DUP9 MSTORE DUP4 DUP2 MSTORE DUP1 DUP7 ADD DUP5 SWAP1 MSTORE PUSH1 0x80 DUP8 ADD MSTORE DUP9 DUP4 MSTORE PUSH1 0x18 DUP6 MSTORE SWAP6 SWAP1 SWAP2 KECCAK256 DUP5 MLOAD DUP2 SLOAD PUSH1 0x1 PUSH1 0x1 PUSH1 0xA0 SHL SUB NOT AND PUSH1 0x1 PUSH1 0x1 PUSH1 0xA0 SHL SUB SWAP1 SWAP2 AND OR DUP2 SSTORE SWAP2 MLOAD PUSH1 0x1 DUP4 ADD SSTORE MLOAD PUSH1 0x2 DUP3 ADD DUP1 SLOAD PUSH1 0xFF NOT AND SWAP2 ISZERO ISZERO SWAP2 SWAP1 SWAP2 OR SWAP1 SSTORE SWAP3 MLOAD DUP1 MLOAD SWAP6 SWAP8 POP SWAP4 SWAP6 POP SWAP1 SWAP4 SWAP2 SWAP3 PUSH2 0x1970 SWAP3 PUSH1 0x3 DUP6 ADD SWAP3 SWAP2 SWAP1 SWAP2 ADD SWAP1 PUSH2 0x2BAC JUMP JUMPDEST POP PUSH1 0x80 SWAP2 SWAP1 SWAP2 ADD MLOAD DUP1 MLOAD PUSH1 0x4 DUP4 ADD SSTORE PUSH1 0x20 SWAP1 DUP2 ADD MLOAD PUSH1 0x5 SWAP1 SWAP3 ADD SWAP2 SWAP1 SWAP2 SSTORE CALLER PUSH1 0x0 SWAP1 DUP2 MSTORE PUSH1 0x17 DUP3 MSTORE PUSH1 0x40 SWAP1 DUP2 SWAP1 KECCAK256 DUP5 SWAP1 SSTORE DUP1 MLOAD DUP5 DUP2 MSTORE PUSH1 0x1 SWAP3 DUP2 ADD SWAP3 SWAP1 SWAP3 MSTORE PUSH32 0x3279BDE246F2449036F4A5A85E935AE7CB08612C5645C2673490D2FD624683AE SWAP2 ADD PUSH1 0x40 MLOAD DUP1 SWAP2 SUB SWAP1 LOG1 POP SWAP4 SWAP3 POP POP POP JUMP JUMPDEST PUSH1 0x19 PUSH1 0x20 MSTORE DUP2 PUSH1 0x0 MSTORE PUSH1 0x40 PUSH1 0x0 KECCAK256 DUP2 DUP2 SLOAD DUP2 LT PUSH2 0x19FE JUMPI PUSH1 0x0 DUP1 REVERT JUMPDEST SWAP1 PUSH1 0x0 MSTORE PUSH1 0x20 PUSH1 0x0 KECCAK256 ADD PUSH1 0x0 SWAP2 POP SWAP2 POP POP SLOAD DUP2 JUMP JUMPDEST PUSH1 0x1F DUP2 PUSH1 0xA DUP2 LT PUSH2 0x1A23 JUMPI PUSH1 0x0 DUP1 REVERT JUMPDEST ADD SLOAD SWAP1 POP DUP2 JUMP JUMPDEST PUSH1 0x10 DUP2 PUSH1 0x3 DUP2 LT PUSH2 0xB0C JUMPI PUSH1 0x0 DUP1 REVERT JUMPDEST CALLER PUSH1 0x0 SWAP1 DUP2 MSTORE PUSH1 0x19 PUSH1 0x20 SWAP1 DUP2 MSTORE PUSH1 0x40 DUP1 DUP4 KECCAK256 DUP1 SLOAD DUP3 MLOAD DUP2 DUP6 MUL DUP2 ADD DUP6 ADD SWAP1 SWAP4 MSTORE DUP1 DUP4 MSTORE SWAP2 SWAP3 SWAP1 SWAP2 SWAP1 DUP4 ADD DUP3 DUP3 DUP1 ISZERO PUSH2 0x1A91 JUMPI PUSH1 0x20 MUL DUP3 ADD SWAP2 SWAP1 PUSH1 0x0 MSTORE PUSH1 0x20 PUSH1 0x0 KECCAK256 SWAP1 JUMPDEST DUP2 SLOAD DUP2 MSTORE PUSH1 0x20 ADD SWAP1 PUSH1 0x1 ADD SWAP1 DUP1 DUP4 GT PUSH2 0x1A7D JUMPI JUMPDEST POP POP POP POP POP SWAP1 POP PUSH1 0x0 DUP1 JUMPDEST DUP3 MLOAD DUP2 LT ISZERO PUSH2 0x1ADC JUMPI DUP4 DUP4 DUP3 DUP2 MLOAD DUP2 LT PUSH2 0x1AB8 JUMPI PUSH2 0x1AB8 PUSH2 0x30A7 JUMP JUMPDEST PUSH1 0x20 MUL PUSH1 0x20 ADD ADD MLOAD SUB PUSH2 0x1ACA JUMPI PUSH1 0x1 SWAP2 POP JUMPDEST DUP1 PUSH2 0x1AD4 DUP2 PUSH2 0x30D3 JUMP JUMPDEST SWAP2 POP POP PUSH2 0x1A9C JUMP JUMPDEST POP DUP1 DUP1 PUSH2 0x1AE7 JUMPI POP DUP3 ISZERO JUMPDEST ISZERO PUSH2 0x1B1C JUMPI CALLER PUSH1 0x0 SWAP1 DUP2 MSTORE PUSH1 0x1A PUSH1 0x20 SWAP1 DUP2 MSTORE PUSH1 0x40 DUP1 DUP4 KECCAK256 DUP7 DUP5 MSTORE SWAP1 SWAP2 MSTORE DUP2 KECCAK256 DUP1 SLOAD SWAP2 PUSH2 0x1B12 DUP4 PUSH2 0x30D3 JUMP JUMPDEST SWAP2 SWAP1 POP SSTORE POP POP POP POP JUMP JUMPDEST POP POP CALLER PUSH1 0x0 SWAP1 DUP2 MSTORE PUSH1 0x19 PUSH1 0x20 SWAP1 DUP2 MSTORE PUSH1 0x40 DUP3 KECCAK256 DUP1 SLOAD PUSH1 0x1 DUP2 ADD DUP3 SSTORE SWAP1 DUP4 MSTORE SWAP2 KECCAK256 ADD SSTORE JUMP JUMPDEST PUSH2 0x1B48 PUSH2 0x2BF7 JUMP JUMPDEST PUSH2 0x1B50 PUSH2 0x2BF7 JUMP JUMPDEST PUSH2 0x1B58 PUSH2 0x2BF7 JUMP JUMPDEST PUSH1 0x3D SLOAD PUSH1 0x40 DUP1 MLOAD PUSH2 0x140 DUP2 ADD SWAP2 DUP3 SWAP1 MSTORE PUSH1 0x0 SWAP3 PUSH1 0x1F SWAP3 PUSH1 0x33 SWAP3 PUSH1 0x29 SWAP3 SWAP2 DUP6 SWAP1 PUSH1 0xA SWAP1 DUP3 DUP5 JUMPDEST DUP2 SLOAD DUP2 MSTORE PUSH1 0x20 ADD SWAP1 PUSH1 0x1 ADD SWAP1 DUP1 DUP4 GT PUSH2 0x1B7D JUMPI POP POP PUSH1 0x40 DUP1 MLOAD PUSH2 0x140 DUP2 ADD SWAP2 DUP3 SWAP1 MSTORE SWAP5 SWAP9 POP DUP8 SWAP4 POP PUSH1 0xA SWAP3 POP SWAP1 POP DUP3 DUP5 JUMPDEST DUP2 SLOAD DUP2 MSTORE PUSH1 0x20 ADD SWAP1 PUSH1 0x1 ADD SWAP1 DUP1 DUP4 GT PUSH2 0x1BAE JUMPI POP POP PUSH1 0x40 DUP1 MLOAD PUSH2 0x140 DUP2 ADD SWAP2 DUP3 SWAP1 MSTORE SWAP5 SWAP8 POP DUP7 SWAP4 POP PUSH1 0xA SWAP3 POP SWAP1 POP DUP3 DUP5 JUMPDEST DUP2 SLOAD PUSH1 0x1 PUSH1 0x1 PUSH1 0xA0 SHL SUB AND DUP2 MSTORE PUSH1 0x1 SWAP1 SWAP2 ADD SWAP1 PUSH1 0x20 ADD DUP1 DUP4 GT PUSH2 0x1BDF JUMPI POP POP POP POP POP SWAP2 POP SWAP4 POP SWAP4 POP SWAP4 POP SWAP4 POP SWAP1 SWAP2 SWAP3 SWAP4 JUMP JUMPDEST PUSH1 0x29 DUP2 PUSH1 0xA DUP2 LT PUSH2 0xB0C JUMPI PUSH1 0x0 DUP1 REVERT JUMPDEST PUSH1 0x1B PUSH1 0x20 MSTORE DUP2 PUSH1 0x0 MSTORE PUSH1 0x40 PUSH1 0x0 KECCAK256 DUP2 DUP2 SLOAD DUP2 LT PUSH2 0x19FE JUMPI PUSH1 0x0 DUP1 REVERT JUMPDEST PUSH1 0x0 PUSH2 0x1C49 PUSH1 0x1 PUSH2 0x1CF3 JUMP JUMPDEST SWAP1 POP DUP1 CALLVALUE LT ISZERO PUSH2 0x1C6B JUMPI PUSH1 0x40 MLOAD PUSH3 0x461BCD PUSH1 0xE5 SHL DUP2 MSTORE PUSH1 0x4 ADD PUSH2 0xAD3 SWAP1 PUSH2 0x3070 JUMP JUMPDEST PUSH1 0x29 SLOAD PUSH1 0x1 PUSH1 0x1 PUSH1 0xA0 SHL SUB AND SELFBALANCE DUP1 ISZERO DUP1 ISZERO SWAP1 PUSH2 0x1C8F JUMPI POP PUSH1 0x1 PUSH1 0x1 PUSH1 0xA0 SHL SUB DUP3 AND ISZERO ISZERO JUMPDEST ISZERO PUSH2 0x1C9E JUMPI PUSH2 0x1C9E DUP3 DUP3 PUSH2 0x1EE7 JUMP JUMPDEST PUSH1 0x40 DUP1 SLOAD CALLER PUSH1 0x0 DUP2 DUP2 MSTORE PUSH1 0x3E PUSH1 0x20 SWAP1 DUP2 MSTORE DUP5 DUP3 KECCAK256 DUP5 SWAP1 SSTORE SWAP3 DUP2 MSTORE PUSH1 0x3F SWAP1 SWAP3 MSTORE DUP3 DUP3 KECCAK256 TIMESTAMP SWAP1 SSTORE DUP3 SLOAD DUP3 MSTORE SWAP1 DUP3 SWAP1 KECCAK256 PUSH1 0x2 ADD DUP1 SLOAD PUSH1 0x1 PUSH1 0x1 PUSH1 0xA0 SHL SUB NOT AND SWAP1 SWAP2 OR SWAP1 SSTORE SLOAD PUSH2 0x1CEB SWAP1 PUSH1 0x1 PUSH2 0x32F1 JUMP JUMPDEST PUSH1 0x40 SSTORE POP POP POP JUMP JUMPDEST PUSH1 0x0 DUP1 PUSH1 0xD PUSH1 0x2 SLOAD PUSH1 0x3 DUP2 LT PUSH2 0x1D0B JUMPI PUSH2 0x1D0B PUSH2 0x30A7 JUMP JUMPDEST ADD PUSH1 0x0 SWAP1 SLOAD SWAP1 PUSH2 0x100 EXP SWAP1 DIV PUSH1 0x1 PUSH1 0x1 PUSH1 0xA0 SHL SUB AND PUSH1 0x1 PUSH1 0x1 PUSH1 0xA0 SHL SUB AND PUSH4 0xFEAF968C PUSH1 0x40 MLOAD DUP2 PUSH4 0xFFFFFFFF AND PUSH1 0xE0 SHL DUP2 MSTORE PUSH1 0x4 ADD PUSH1 0xA0 PUSH1 0x40 MLOAD DUP1 DUP4 SUB DUP2 DUP7 GAS STATICCALL ISZERO DUP1 ISZERO PUSH2 0x1D5D JUMPI RETURNDATASIZE PUSH1 0x0 DUP1 RETURNDATACOPY RETURNDATASIZE PUSH1 0x0 REVERT JUMPDEST POP POP POP POP PUSH1 0x40 MLOAD RETURNDATASIZE PUSH1 0x1F NOT PUSH1 0x1F DUP3 ADD AND DUP3 ADD DUP1 PUSH1 0x40 MSTORE POP DUP2 ADD SWAP1 PUSH2 0x1D81 SWAP2 SWAP1 PUSH2 0x331E JUMP JUMPDEST POP POP POP SWAP2 POP POP DUP1 PUSH8 0xDE0B6B3A7640000 PUSH2 0x1D9B SWAP2 SWAP1 PUSH2 0x3384 JUMP JUMPDEST PUSH2 0x1DA9 SWAP1 PUSH4 0x5F5E100 PUSH2 0x33B2 JUMP JUMPDEST PUSH2 0x1DB3 SWAP1 DUP5 PUSH2 0x33E2 JUMP JUMPDEST SWAP4 SWAP3 POP POP POP JUMP JUMPDEST PUSH1 0x33 DUP2 PUSH1 0xA DUP2 LT PUSH2 0x1A23 JUMPI PUSH1 0x0 DUP1 REVERT JUMPDEST PUSH1 0x6 DUP2 PUSH1 0x3 DUP2 LT PUSH2 0xB0C JUMPI PUSH1 0x0 DUP1 REVERT JUMPDEST PUSH2 0x1DE2 PUSH2 0x21A8 JUMP JUMPDEST PUSH2 0x1483 DUP2 PUSH2 0x2AE5 JUMP JUMPDEST CALLER PUSH1 0x0 SWAP1 DUP2 MSTORE PUSH1 0x1B PUSH1 0x20 SWAP1 DUP2 MSTORE PUSH1 0x40 DUP1 DUP4 KECCAK256 DUP1 SLOAD DUP3 MLOAD DUP2 DUP6 MUL DUP2 ADD DUP6 ADD SWAP1 SWAP4 MSTORE DUP1 DUP4 MSTORE SWAP2 SWAP3 SWAP1 SWAP2 SWAP1 DUP4 ADD DUP3 DUP3 DUP1 ISZERO PUSH2 0x1E42 JUMPI PUSH1 0x20 MUL DUP3 ADD SWAP2 SWAP1 PUSH1 0x0 MSTORE PUSH1 0x20 PUSH1 0x0 KECCAK256 SWAP1 JUMPDEST DUP2 SLOAD DUP2 MSTORE PUSH1 0x20 ADD SWAP1 PUSH1 0x1 ADD SWAP1 DUP1 DUP4 GT PUSH2 0x1E2E JUMPI JUMPDEST POP POP POP POP POP SWAP1 POP PUSH1 0x0 DUP1 JUMPDEST DUP3 MLOAD DUP2 LT ISZERO PUSH2 0x1E8D JUMPI DUP4 DUP4 DUP3 DUP2 MLOAD DUP2 LT PUSH2 0x1E69 JUMPI PUSH2 0x1E69 PUSH2 0x30A7 JUMP JUMPDEST PUSH1 0x20 MUL PUSH1 0x20 ADD ADD MLOAD SUB PUSH2 0x1E7B JUMPI PUSH1 0x1 SWAP2 POP JUMPDEST DUP1 PUSH2 0x1E85 DUP2 PUSH2 0x30D3 JUMP JUMPDEST SWAP2 POP POP PUSH2 0x1E4D JUMP JUMPDEST POP DUP1 DUP1 PUSH2 0x1E98 JUMPI POP DUP3 ISZERO JUMPDEST ISZERO PUSH2 0x1EC3 JUMPI CALLER PUSH1 0x0 SWAP1 DUP2 MSTORE PUSH1 0x1C PUSH1 0x20 SWAP1 DUP2 MSTORE PUSH1 0x40 DUP1 DUP4 KECCAK256 DUP7 DUP5 MSTORE SWAP1 SWAP2 MSTORE DUP2 KECCAK256 DUP1 SLOAD SWAP2 PUSH2 0x1B12 DUP4 PUSH2 0x30D3 JUMP JUMPDEST POP POP CALLER PUSH1 0x0 SWAP1 DUP2 MSTORE PUSH1 0x1B PUSH1 0x20 SWAP1 DUP2 MSTORE PUSH1 0x40 DUP3 KECCAK256 DUP1 SLOAD PUSH1 0x1 DUP2 ADD DUP3 SSTORE SWAP1 DUP4 MSTORE SWAP2 KECCAK256 ADD SSTORE JUMP JUMPDEST PUSH1 0x40 MLOAD PUSH1 0x1 PUSH1 0x1 PUSH1 0xA0 SHL SUB DUP4 AND SWAP1 DUP3 ISZERO PUSH2 0x8FC MUL SWAP1 DUP4 SWAP1 PUSH1 0x0 DUP2 DUP2 DUP2 DUP6 DUP9 DUP9 CALL SWAP4 POP POP POP POP ISZERO DUP1 ISZERO PUSH2 0xC86 JUMPI RETURNDATASIZE PUSH1 0x0 DUP1 RETURNDATACOPY RETURNDATASIZE PUSH1 0x0 REVERT JUMPDEST PUSH1 0x0 DUP2 MLOAD GT PUSH2 0x1F66 JUMPI PUSH1 0x40 MLOAD PUSH3 0x461BCD PUSH1 0xE5 SHL DUP2 MSTORE PUSH1 0x20 PUSH1 0x4 DUP3 ADD MSTORE PUSH1 0x15 PUSH1 0x24 DUP3 ADD MSTORE PUSH21 0x1C985B991BDB55DBDC991CC81B9BDD08199BDD5B99 PUSH1 0x5A SHL PUSH1 0x44 DUP3 ADD MSTORE PUSH1 0x64 ADD PUSH2 0xAD3 JUMP JUMPDEST PUSH1 0x0 DUP3 DUP2 MSTORE PUSH1 0x18 PUSH1 0x20 MSTORE PUSH1 0x40 SWAP1 KECCAK256 PUSH1 0x1 ADD SLOAD PUSH2 0x1FB8 JUMPI PUSH1 0x40 MLOAD PUSH3 0x461BCD PUSH1 0xE5 SHL DUP2 MSTORE PUSH1 0x20 PUSH1 0x4 DUP3 ADD MSTORE PUSH1 0x11 PUSH1 0x24 DUP3 ADD MSTORE PUSH17 0x1C995C5D595CDD081B9BDD08199BDD5B99 PUSH1 0x7A SHL PUSH1 0x44 DUP3 ADD MSTORE PUSH1 0x64 ADD PUSH2 0xAD3 JUMP JUMPDEST PUSH1 0x0 PUSH1 0x16 DUP1 SLOAD SWAP1 POP DUP3 PUSH1 0x0 DUP2 MLOAD DUP2 LT PUSH2 0x1FD3 JUMPI PUSH2 0x1FD3 PUSH2 0x30A7 JUMP JUMPDEST PUSH1 0x20 MUL PUSH1 0x20 ADD ADD MLOAD PUSH2 0x1FE5 SWAP2 SWAP1 PUSH2 0x33F9 JUMP JUMPDEST SWAP1 POP PUSH1 0x0 PUSH1 0x16 DUP3 DUP2 SLOAD DUP2 LT PUSH2 0x1FFC JUMPI PUSH2 0x1FFC PUSH2 0x30A7 JUMP JUMPDEST PUSH1 0x0 SWAP2 DUP3 MSTORE PUSH1 0x20 DUP1 DUP4 KECCAK256 PUSH1 0x40 DUP1 MLOAD DUP1 DUP3 ADD DUP3 MSTORE PUSH1 0x2 SWAP5 DUP6 MUL SWAP1 SWAP3 ADD DUP1 SLOAD DUP4 MSTORE PUSH1 0x1 SWAP1 DUP2 ADD SLOAD DUP4 DUP6 ADD MSTORE DUP10 DUP7 MSTORE PUSH1 0x18 DUP5 MSTORE SWAP5 KECCAK256 SWAP3 DUP4 ADD DUP1 SLOAD PUSH1 0xFF NOT AND SWAP1 SWAP5 OR SWAP1 SWAP4 SSTORE DUP6 MLOAD SWAP3 SWAP4 POP PUSH2 0x2055 SWAP3 PUSH1 0x3 SWAP1 SWAP3 ADD SWAP2 SWAP1 DUP7 ADD SWAP1 PUSH2 0x2BAC JUMP JUMPDEST POP PUSH1 0x0 DUP5 DUP2 MSTORE PUSH1 0x18 PUSH1 0x20 SWAP1 DUP2 MSTORE PUSH1 0x40 DUP3 KECCAK256 DUP4 MLOAD PUSH1 0x4 DUP3 ADD DUP2 SWAP1 SSTORE SWAP2 DUP5 ADD MLOAD PUSH1 0x5 DUP3 ADD SSTORE SLOAD PUSH1 0x1 PUSH1 0x1 PUSH1 0xA0 SHL SUB AND SWAP2 SUB PUSH2 0x20CC JUMPI DUP2 PUSH1 0x20 ADD MLOAD PUSH1 0x1D PUSH1 0x0 DUP4 PUSH1 0x1 PUSH1 0x1 PUSH1 0xA0 SHL SUB AND PUSH1 0x1 PUSH1 0x1 PUSH1 0xA0 SHL SUB AND DUP2 MSTORE PUSH1 0x20 ADD SWAP1 DUP2 MSTORE PUSH1 0x20 ADD PUSH1 0x0 KECCAK256 PUSH1 0x0 DUP3 DUP3 SLOAD PUSH2 0x20C1 SWAP2 SWAP1 PUSH2 0x32F1 JUMP JUMPDEST SWAP1 SWAP2 SSTORE POP PUSH2 0x2152 SWAP1 POP JUMP JUMPDEST DUP2 MLOAD PUSH1 0x1 SUB PUSH2 0x210E JUMPI DUP2 PUSH1 0x20 ADD MLOAD PUSH1 0x1E PUSH1 0x0 DUP4 PUSH1 0x1 PUSH1 0x1 PUSH1 0xA0 SHL SUB AND PUSH1 0x1 PUSH1 0x1 PUSH1 0xA0 SHL SUB AND DUP2 MSTORE PUSH1 0x20 ADD SWAP1 DUP2 MSTORE PUSH1 0x20 ADD PUSH1 0x0 KECCAK256 PUSH1 0x0 DUP3 DUP3 SLOAD PUSH2 0x20C1 SWAP2 SWAP1 PUSH2 0x32F1 JUMP JUMPDEST DUP2 MLOAD PUSH1 0x2 EQ PUSH2 0x2152 JUMPI DUP2 MLOAD PUSH1 0x3 SUB PUSH2 0x2152 JUMPI PUSH1 0x1 PUSH1 0x1 PUSH1 0xA0 SHL SUB DUP2 AND PUSH1 0x0 SWAP1 DUP2 MSTORE PUSH1 0x19 PUSH1 0x20 SWAP1 DUP2 MSTORE PUSH1 0x40 DUP3 KECCAK256 DUP5 DUP3 ADD MLOAD DUP2 SLOAD PUSH1 0x1 DUP2 ADD DUP4 SSTORE SWAP2 DUP5 MSTORE SWAP2 SWAP1 SWAP3 KECCAK256 SWAP1 SWAP2 ADD SSTORE JUMPDEST PUSH1 0x0 DUP6 DUP2 MSTORE PUSH1 0x18 PUSH1 0x20 MSTORE PUSH1 0x40 SWAP1 DUP2 SWAP1 KECCAK256 PUSH1 0x1 ADD SLOAD SWAP1 MLOAD PUSH32 0x8C5EB6455FC6D271F045DB3F6049931E0B5372962417D81DCC38FC0BEBE8D141 SWAP2 PUSH2 0x2199 SWAP2 DUP9 SWAP2 DUP9 SWAP2 DUP8 SWAP1 PUSH2 0x340D JUMP JUMPDEST PUSH1 0x40 MLOAD DUP1 SWAP2 SUB SWAP1 LOG1 POP POP POP POP POP JUMP JUMPDEST PUSH1 0x0 SLOAD PUSH1 0x1 PUSH1 0x1 PUSH1 0xA0 SHL SUB AND CALLER EQ PUSH2 0x21FB JUMPI PUSH1 0x40 MLOAD PUSH3 0x461BCD PUSH1 0xE5 SHL DUP2 MSTORE PUSH1 0x20 PUSH1 0x4 DUP3 ADD MSTORE PUSH1 0x16 PUSH1 0x24 DUP3 ADD MSTORE PUSH22 0x27B7363C9031B0B63630B1363290313C9037BBB732B9 PUSH1 0x51 SHL PUSH1 0x44 DUP3 ADD MSTORE PUSH1 0x64 ADD PUSH2 0xAD3 JUMP JUMPDEST JUMP JUMPDEST DUP1 PUSH1 0x60 ADD MLOAD DUP1 PUSH1 0x20 ADD SWAP1 MLOAD DUP2 ADD SWAP1 PUSH2 0x2215 SWAP2 SWAP1 PUSH2 0x3445 JUMP JUMPDEST DUP1 MLOAD PUSH1 0x13 DUP1 SLOAD PUSH1 0x1 PUSH1 0x1 PUSH1 0xA0 SHL SUB NOT AND PUSH1 0x1 PUSH1 0x1 PUSH1 0xA0 SHL SUB SWAP1 SWAP3 AND SWAP2 DUP3 OR SWAP1 SSTORE PUSH1 0x20 DUP1 DUP4 ADD MLOAD PUSH1 0x14 DUP2 SWAP1 SSTORE PUSH1 0x40 SWAP4 DUP5 ADD MLOAD PUSH1 0x15 DUP2 SWAP1 SSTORE DUP5 MLOAD PUSH1 0x60 DUP2 ADD DUP7 MSTORE SWAP4 DUP5 MSTORE SWAP2 DUP4 ADD MSTORE SWAP2 DUP2 ADD SWAP2 SWAP1 SWAP2 MSTORE PUSH2 0x226A SWAP1 PUSH2 0x22EF JUMP JUMPDEST DUP1 PUSH1 0x20 ADD MLOAD PUSH1 0x1 PUSH1 0x1 PUSH1 0x40 SHL SUB AND DUP2 PUSH1 0x0 ADD MLOAD PUSH32 0xAA5CBDCF4F25939D41BE3032075952CFD5F51F978A501D2F801D671061623F1D DUP4 PUSH1 0x40 ADD MLOAD DUP1 PUSH1 0x20 ADD SWAP1 MLOAD DUP2 ADD SWAP1 PUSH2 0x22B6 SWAP2 SWAP1 PUSH2 0x34A6 JUMP JUMPDEST PUSH1 0x40 DUP1 MLOAD PUSH1 0x1 PUSH1 0x1 PUSH1 0xA0 SHL SUB SWAP3 DUP4 AND DUP2 MSTORE PUSH1 0x13 SLOAD SWAP1 SWAP3 AND PUSH1 0x20 DUP4 ADD MSTORE PUSH1 0x14 SLOAD SWAP1 DUP3 ADD MSTORE PUSH1 0x15 SLOAD PUSH1 0x60 DUP3 ADD MSTORE PUSH1 0x80 ADD PUSH1 0x40 MLOAD DUP1 SWAP2 SUB SWAP1 LOG3 POP JUMP JUMPDEST PUSH1 0x20 DUP2 ADD MLOAD DUP2 MLOAD PUSH1 0x40 DUP4 ADD MLOAD DUP3 PUSH1 0x1F PUSH2 0x230A PUSH1 0x1 PUSH1 0xA PUSH2 0x34C3 JUMP JUMPDEST PUSH1 0xA DUP2 LT PUSH2 0x231A JUMPI PUSH2 0x231A PUSH2 0x30A7 JUMP JUMPDEST ADD SLOAD LT ISZERO PUSH2 0x24DD JUMPI PUSH1 0x0 DUP1 PUSH2 0x2331 PUSH1 0x1 PUSH1 0xA PUSH2 0x34C3 JUMP JUMPDEST SWAP1 POP PUSH1 0x0 JUMPDEST DUP2 DUP4 LT ISZERO PUSH2 0x238C JUMPI PUSH1 0x2 PUSH2 0x234A DUP4 DUP6 PUSH2 0x32F1 JUMP JUMPDEST PUSH2 0x2354 SWAP2 SWAP1 PUSH2 0x34D6 JUMP JUMPDEST SWAP1 POP DUP6 PUSH1 0x1F DUP3 PUSH1 0xA DUP2 LT PUSH2 0x236A JUMPI PUSH2 0x236A PUSH2 0x30A7 JUMP JUMPDEST ADD SLOAD LT ISZERO PUSH2 0x237A JUMPI DUP1 SWAP2 POP PUSH2 0x2336 JUMP JUMPDEST PUSH2 0x2385 DUP2 PUSH1 0x1 PUSH2 0x32F1 JUMP JUMPDEST SWAP3 POP PUSH2 0x2336 JUMP JUMPDEST PUSH1 0x0 PUSH2 0x239A PUSH1 0x1 PUSH1 0xA PUSH2 0x34C3 JUMP JUMPDEST SWAP1 POP JUMPDEST DUP4 DUP2 GT ISZERO PUSH2 0x2479 JUMPI PUSH1 0x1F PUSH2 0x23B2 PUSH1 0x1 DUP4 PUSH2 0x34C3 JUMP JUMPDEST PUSH1 0xA DUP2 LT PUSH2 0x23C2 JUMPI PUSH2 0x23C2 PUSH2 0x30A7 JUMP JUMPDEST ADD SLOAD PUSH1 0x1F DUP3 PUSH1 0xA DUP2 LT PUSH2 0x23D7 JUMPI PUSH2 0x23D7 PUSH2 0x30A7 JUMP JUMPDEST ADD SSTORE PUSH1 0x29 PUSH2 0x23E6 PUSH1 0x1 DUP4 PUSH2 0x34C3 JUMP JUMPDEST PUSH1 0xA DUP2 LT PUSH2 0x23F6 JUMPI PUSH2 0x23F6 PUSH2 0x30A7 JUMP JUMPDEST ADD SLOAD PUSH1 0x1 PUSH1 0x1 PUSH1 0xA0 SHL SUB AND PUSH1 0x29 DUP3 PUSH1 0xA DUP2 LT PUSH2 0x2414 JUMPI PUSH2 0x2414 PUSH2 0x30A7 JUMP JUMPDEST ADD DUP1 SLOAD PUSH1 0x1 PUSH1 0x1 PUSH1 0xA0 SHL SUB NOT AND PUSH1 0x1 PUSH1 0x1 PUSH1 0xA0 SHL SUB SWAP3 SWAP1 SWAP3 AND SWAP2 SWAP1 SWAP2 OR SWAP1 SSTORE PUSH1 0x33 PUSH2 0x2440 PUSH1 0x1 DUP4 PUSH2 0x34C3 JUMP JUMPDEST PUSH1 0xA DUP2 LT PUSH2 0x2450 JUMPI PUSH2 0x2450 PUSH2 0x30A7 JUMP JUMPDEST ADD SLOAD PUSH1 0x33 DUP3 PUSH1 0xA DUP2 LT PUSH2 0x2465 JUMPI PUSH2 0x2465 PUSH2 0x30A7 JUMP JUMPDEST ADD SSTORE DUP1 PUSH2 0x2471 DUP2 PUSH2 0x34EA JUMP JUMPDEST SWAP2 POP POP PUSH2 0x239D JUMP JUMPDEST POP DUP6 PUSH1 0x1F DUP5 PUSH1 0xA DUP2 LT PUSH2 0x248E JUMPI PUSH2 0x248E PUSH2 0x30A7 JUMP JUMPDEST ADD SSTORE DUP5 PUSH1 0x29 DUP5 PUSH1 0xA DUP2 LT PUSH2 0x24A4 JUMPI PUSH2 0x24A4 PUSH2 0x30A7 JUMP JUMPDEST ADD DUP1 SLOAD PUSH1 0x1 PUSH1 0x1 PUSH1 0xA0 SHL SUB NOT AND PUSH1 0x1 PUSH1 0x1 PUSH1 0xA0 SHL SUB SWAP3 SWAP1 SWAP3 AND SWAP2 SWAP1 SWAP2 OR SWAP1 SSTORE DUP4 PUSH1 0x33 DUP5 PUSH1 0xA DUP2 LT PUSH2 0x24D7 JUMPI PUSH2 0x24D7 PUSH2 0x30A7 JUMP JUMPDEST ADD SSTORE POP POP POP JUMPDEST POP POP TIMESTAMP PUSH1 0x3D SSTORE POP POP JUMP JUMPDEST PUSH1 0x40 DUP1 MLOAD PUSH1 0xA0 DUP2 ADD SWAP1 SWAP2 MSTORE PUSH1 0x1 PUSH1 0x1 PUSH1 0xA0 SHL SUB DUP6 AND PUSH1 0xC0 DUP3 ADD MSTORE PUSH1 0x0 SWAP1 DUP5 SWAP1 DUP5 SWAP1 DUP4 SWAP1 DUP1 PUSH1 0xE0 DUP2 ADD PUSH1 0x40 MLOAD PUSH1 0x20 DUP2 DUP4 SUB SUB DUP2 MSTORE SWAP1 PUSH1 0x40 MSTORE DUP2 MSTORE PUSH1 0x20 ADD DUP7 PUSH1 0x40 MLOAD PUSH1 0x20 ADD PUSH2 0x2534 SWAP2 SWAP1 PUSH2 0x3501 JUMP JUMPDEST PUSH1 0x40 DUP1 MLOAD PUSH1 0x1F NOT DUP2 DUP5 SUB ADD DUP2 MSTORE SWAP2 SWAP1 MSTORE DUP2 MSTORE PUSH1 0x20 ADD PUSH1 0x0 PUSH1 0x40 MLOAD SWAP1 DUP1 DUP3 MSTORE DUP1 PUSH1 0x20 MUL PUSH1 0x20 ADD DUP3 ADD PUSH1 0x40 MSTORE DUP1 ISZERO PUSH2 0x2590 JUMPI DUP2 PUSH1 0x20 ADD JUMPDEST PUSH1 0x40 DUP1 MLOAD DUP1 DUP3 ADD SWAP1 SWAP2 MSTORE PUSH1 0x0 DUP1 DUP3 MSTORE PUSH1 0x20 DUP3 ADD MSTORE DUP2 MSTORE PUSH1 0x20 ADD SWAP1 PUSH1 0x1 SWAP1 SUB SWAP1 DUP2 PUSH2 0x2569 JUMPI SWAP1 POP JUMPDEST POP DUP2 MSTORE PUSH1 0x20 ADD DUP9 PUSH1 0x1 PUSH1 0x1 PUSH1 0xA0 SHL SUB AND DUP2 MSTORE PUSH1 0x20 ADD PUSH2 0x25BF PUSH1 0x40 MLOAD DUP1 PUSH1 0x20 ADD PUSH1 0x40 MSTORE DUP1 PUSH3 0x30D40 DUP2 MSTORE POP PUSH2 0x2B8E JUMP JUMPDEST SWAP1 MSTORE PUSH1 0x40 MLOAD PUSH4 0x20487DED PUSH1 0xE0 SHL DUP2 MSTORE SWAP1 SWAP2 POP PUSH1 0x0 SWAP1 PUSH1 0x1 PUSH1 0x1 PUSH1 0xA0 SHL SUB DUP5 AND SWAP1 PUSH4 0x20487DED SWAP1 PUSH2 0x25F5 SWAP1 DUP14 SWAP1 DUP7 SWAP1 PUSH1 0x4 ADD PUSH2 0x3571 JUMP JUMPDEST PUSH1 0x20 PUSH1 0x40 MLOAD DUP1 DUP4 SUB DUP2 DUP7 GAS STATICCALL ISZERO DUP1 ISZERO PUSH2 0x2612 JUMPI RETURNDATASIZE PUSH1 0x0 DUP1 RETURNDATACOPY RETURNDATASIZE PUSH1 0x0 REVERT JUMPDEST POP POP POP POP PUSH1 0x40 MLOAD RETURNDATASIZE PUSH1 0x1F NOT PUSH1 0x1F DUP3 ADD AND DUP3 ADD DUP1 PUSH1 0x40 MSTORE POP DUP2 ADD SWAP1 PUSH2 0x2636 SWAP2 SWAP1 PUSH2 0x32B6 JUMP JUMPDEST PUSH1 0x40 MLOAD PUSH4 0x70A08231 PUSH1 0xE0 SHL DUP2 MSTORE ADDRESS PUSH1 0x4 DUP3 ADD MSTORE SWAP1 SWAP2 POP PUSH1 0x1 PUSH1 0x1 PUSH1 0xA0 SHL SUB DUP6 AND SWAP1 PUSH4 0x70A08231 SWAP1 PUSH1 0x24 ADD PUSH1 0x20 PUSH1 0x40 MLOAD DUP1 DUP4 SUB DUP2 DUP7 GAS STATICCALL ISZERO DUP1 ISZERO PUSH2 0x267D JUMPI RETURNDATASIZE PUSH1 0x0 DUP1 RETURNDATACOPY RETURNDATASIZE PUSH1 0x0 REVERT JUMPDEST POP POP POP POP PUSH1 0x40 MLOAD RETURNDATASIZE PUSH1 0x1F NOT PUSH1 0x1F DUP3 ADD AND DUP3 ADD DUP1 PUSH1 0x40 MSTORE POP DUP2 ADD SWAP1 PUSH2 0x26A1 SWAP2 SWAP1 PUSH2 0x32B6 JUMP JUMPDEST DUP2 GT ISZERO PUSH2 0x2734 JUMPI PUSH1 0x40 MLOAD PUSH4 0x70A08231 PUSH1 0xE0 SHL DUP2 MSTORE ADDRESS PUSH1 0x4 DUP3 ADD MSTORE PUSH1 0x1 PUSH1 0x1 PUSH1 0xA0 SHL SUB DUP6 AND SWAP1 PUSH4 0x70A08231 SWAP1 PUSH1 0x24 ADD PUSH1 0x20 PUSH1 0x40 MLOAD DUP1 DUP4 SUB DUP2 DUP7 GAS STATICCALL ISZERO DUP1 ISZERO PUSH2 0x26EC JUMPI RETURNDATASIZE PUSH1 0x0 DUP1 RETURNDATACOPY RETURNDATASIZE PUSH1 0x0 REVERT JUMPDEST POP POP POP POP PUSH1 0x40 MLOAD RETURNDATASIZE PUSH1 0x1F NOT PUSH1 0x1F DUP3 ADD AND DUP3 ADD DUP1 PUSH1 0x40 MSTORE POP DUP2 ADD SWAP1 PUSH2 0x2710 SWAP2 SWAP1 PUSH2 0x32B6 JUMP JUMPDEST PUSH1 0x40 MLOAD PUSH4 0x4787A103 PUSH1 0xE1 SHL DUP2 MSTORE PUSH1 0x4 DUP2 ADD SWAP2 SWAP1 SWAP2 MSTORE PUSH1 0x24 DUP2 ADD DUP3 SWAP1 MSTORE PUSH1 0x44 ADD PUSH2 0xAD3 JUMP JUMPDEST PUSH1 0x40 MLOAD PUSH4 0x95EA7B3 PUSH1 0xE0 SHL DUP2 MSTORE PUSH1 0x1 PUSH1 0x1 PUSH1 0xA0 SHL SUB DUP5 DUP2 AND PUSH1 0x4 DUP4 ADD MSTORE PUSH1 0x24 DUP3 ADD DUP4 SWAP1 MSTORE DUP6 AND SWAP1 PUSH4 0x95EA7B3 SWAP1 PUSH1 0x44 ADD PUSH1 0x20 PUSH1 0x40 MLOAD DUP1 DUP4 SUB DUP2 PUSH1 0x0 DUP8 GAS CALL ISZERO DUP1 ISZERO PUSH2 0x2783 JUMPI RETURNDATASIZE PUSH1 0x0 DUP1 RETURNDATACOPY RETURNDATASIZE PUSH1 0x0 REVERT JUMPDEST POP POP POP POP PUSH1 0x40 MLOAD RETURNDATASIZE PUSH1 0x1F NOT PUSH1 0x1F DUP3 ADD AND DUP3 ADD DUP1 PUSH1 0x40 MSTORE POP DUP2 ADD SWAP1 PUSH2 0x27A7 SWAP2 SWAP1 PUSH2 0x32CF JUMP JUMPDEST POP PUSH1 0x40 MLOAD PUSH4 0x96F4E9F9 PUSH1 0xE0 SHL DUP2 MSTORE PUSH1 0x1 PUSH1 0x1 PUSH1 0xA0 SHL SUB DUP5 AND SWAP1 PUSH4 0x96F4E9F9 SWAP1 PUSH2 0x27D6 SWAP1 DUP14 SWAP1 DUP7 SWAP1 PUSH1 0x4 ADD PUSH2 0x3571 JUMP JUMPDEST PUSH1 0x20 PUSH1 0x40 MLOAD DUP1 DUP4 SUB DUP2 PUSH1 0x0 DUP8 GAS CALL ISZERO DUP1 ISZERO PUSH2 0x27F5 JUMPI RETURNDATASIZE PUSH1 0x0 DUP1 RETURNDATACOPY RETURNDATASIZE PUSH1 0x0 REVERT JUMPDEST POP POP POP POP PUSH1 0x40 MLOAD RETURNDATASIZE PUSH1 0x1F NOT PUSH1 0x1F DUP3 ADD AND DUP3 ADD DUP1 PUSH1 0x40 MSTORE POP DUP2 ADD SWAP1 PUSH2 0x2819 SWAP2 SWAP1 PUSH2 0x32B6 JUMP JUMPDEST SWAP5 POP DUP10 PUSH1 0x1 PUSH1 0x1 PUSH1 0x40 SHL SUB AND DUP6 PUSH32 0xD0D85F1CC5AB17F712B6074D702EDD6281031E603C5CF76890A85B1170045B3A DUP12 DUP10 DUP13 DUP7 PUSH1 0x40 MLOAD PUSH2 0x285B SWAP5 SWAP4 SWAP3 SWAP2 SWAP1 PUSH2 0x364A JUMP JUMPDEST PUSH1 0x40 MLOAD DUP1 SWAP2 SUB SWAP1 LOG3 POP POP POP POP JUMPDEST SWAP6 SWAP5 POP POP POP POP POP JUMP JUMPDEST PUSH1 0x60 PUSH32 0x92FD13387C7FE7BEFBC38D303D6468778FB9731BC4583F17D92989C6FCFDEAAA DUP3 PUSH1 0x40 MLOAD PUSH1 0x24 ADD PUSH2 0x28AA SWAP2 MLOAD ISZERO ISZERO DUP2 MSTORE PUSH1 0x20 ADD SWAP1 JUMP JUMPDEST PUSH1 0x40 DUP1 MLOAD PUSH1 0x1F NOT DUP2 DUP5 SUB ADD DUP2 MSTORE SWAP2 SWAP1 MSTORE PUSH1 0x20 DUP2 ADD DUP1 MLOAD PUSH1 0x1 PUSH1 0x1 PUSH1 0xE0 SHL SUB AND PUSH1 0x1 PUSH1 0x1 PUSH1 0xE0 SHL SUB NOT SWAP1 SWAP4 AND SWAP3 SWAP1 SWAP3 OR SWAP1 SWAP2 MSTORE SWAP3 SWAP2 POP POP JUMP JUMPDEST PUSH1 0x40 MLOAD PUSH4 0x13F2E285 PUSH1 0xE1 SHL DUP2 MSTORE PUSH4 0xFFFFFFFF DUP1 DUP7 AND PUSH1 0x4 DUP4 ADD MSTORE DUP4 AND PUSH1 0x24 DUP3 ADD MSTORE PUSH1 0x0 SWAP1 DUP2 SWAP1 PUSH1 0x1 PUSH1 0x1 PUSH1 0xA0 SHL SUB PUSH32 0x0 AND SWAP1 PUSH4 0x27E5C50A SWAP1 PUSH1 0x44 ADD PUSH1 0x20 PUSH1 0x40 MLOAD DUP1 DUP4 SUB DUP2 DUP7 GAS STATICCALL ISZERO DUP1 ISZERO PUSH2 0x2959 JUMPI RETURNDATASIZE PUSH1 0x0 DUP1 RETURNDATACOPY RETURNDATASIZE PUSH1 0x0 REVERT JUMPDEST POP POP POP POP PUSH1 0x40 MLOAD RETURNDATASIZE PUSH1 0x1F NOT PUSH1 0x1F DUP3 ADD AND DUP3 ADD DUP1 PUSH1 0x40 MSTORE POP DUP2 ADD SWAP1 PUSH2 0x297D SWAP2 SWAP1 PUSH2 0x32B6 JUMP JUMPDEST SWAP1 POP PUSH32 0x0 PUSH1 0x1 PUSH1 0x1 PUSH1 0xA0 SHL SUB AND PUSH4 0x4000AEA0 PUSH32 0x0 DUP4 DUP10 DUP10 DUP10 DUP10 PUSH1 0x40 MLOAD PUSH1 0x20 ADD PUSH2 0x29E7 SWAP5 SWAP4 SWAP3 SWAP2 SWAP1 PUSH2 0x3699 JUMP JUMPDEST PUSH1 0x40 MLOAD PUSH1 0x20 DUP2 DUP4 SUB SUB DUP2 MSTORE SWAP1 PUSH1 0x40 MSTORE PUSH1 0x40 MLOAD DUP5 PUSH4 0xFFFFFFFF AND PUSH1 0xE0 SHL DUP2 MSTORE PUSH1 0x4 ADD PUSH2 0x2A14 SWAP4 SWAP3 SWAP2 SWAP1 PUSH2 0x36D6 JUMP JUMPDEST PUSH1 0x20 PUSH1 0x40 MLOAD DUP1 DUP4 SUB DUP2 PUSH1 0x0 DUP8 GAS CALL ISZERO DUP1 ISZERO PUSH2 0x2A33 JUMPI RETURNDATASIZE PUSH1 0x0 DUP1 RETURNDATACOPY RETURNDATASIZE PUSH1 0x0 REVERT JUMPDEST POP POP POP POP PUSH1 0x40 MLOAD RETURNDATASIZE PUSH1 0x1F NOT PUSH1 0x1F DUP3 ADD AND DUP3 ADD DUP1 PUSH1 0x40 MSTORE POP DUP2 ADD SWAP1 PUSH2 0x2A57 SWAP2 SWAP1 PUSH2 0x32CF JUMP JUMPDEST POP PUSH32 0x0 PUSH1 0x1 PUSH1 0x1 PUSH1 0xA0 SHL SUB AND PUSH4 0xFC2A88C3 PUSH1 0x40 MLOAD DUP2 PUSH4 0xFFFFFFFF AND PUSH1 0xE0 SHL DUP2 MSTORE PUSH1 0x4 ADD PUSH1 0x20 PUSH1 0x40 MLOAD DUP1 DUP4 SUB DUP2 DUP7 GAS STATICCALL ISZERO DUP1 ISZERO PUSH2 0x2AB6 JUMPI RETURNDATASIZE PUSH1 0x0 DUP1 RETURNDATACOPY RETURNDATASIZE PUSH1 0x0 REVERT JUMPDEST POP POP POP POP PUSH1 0x40 MLOAD RETURNDATASIZE PUSH1 0x1F NOT PUSH1 0x1F DUP3 ADD AND DUP3 ADD DUP1 PUSH1 0x40 MSTORE POP DUP2 ADD SWAP1 PUSH2 0x2ADA SWAP2 SWAP1 PUSH2 0x32B6 JUMP JUMPDEST SWAP2 POP SWAP5 POP SWAP5 SWAP3 POP POP POP JUMP JUMPDEST CALLER PUSH1 0x1 PUSH1 0x1 PUSH1 0xA0 SHL SUB DUP3 AND SUB PUSH2 0x2B3D JUMPI PUSH1 0x40 MLOAD PUSH3 0x461BCD PUSH1 0xE5 SHL DUP2 MSTORE PUSH1 0x20 PUSH1 0x4 DUP3 ADD MSTORE PUSH1 0x17 PUSH1 0x24 DUP3 ADD MSTORE PUSH32 0x43616E6E6F74207472616E7366657220746F2073656C66000000000000000000 PUSH1 0x44 DUP3 ADD MSTORE PUSH1 0x64 ADD PUSH2 0xAD3 JUMP JUMPDEST PUSH1 0x1 DUP1 SLOAD PUSH1 0x1 PUSH1 0x1 PUSH1 0xA0 SHL SUB NOT AND PUSH1 0x1 PUSH1 0x1 PUSH1 0xA0 SHL SUB DUP4 DUP2 AND SWAP2 DUP3 OR SWAP1 SWAP3 SSTORE PUSH1 0x0 DUP1 SLOAD PUSH1 0x40 MLOAD SWAP3 SWAP4 AND SWAP2 PUSH32 0xED8889F560326EB138920D842192F0EB3DD22B4F139C87A2C57538E05BAE1278 SWAP2 SWAP1 LOG3 POP JUMP JUMPDEST PUSH1 0x40 MLOAD DUP2 MLOAD PUSH1 0x24 DUP3 ADD MSTORE PUSH1 0x60 SWAP1 PUSH4 0x97A657C9 PUSH1 0xE0 SHL SWAP1 PUSH1 0x44 ADD PUSH2 0x28AA JUMP JUMPDEST DUP3 DUP1 SLOAD DUP3 DUP3 SSTORE SWAP1 PUSH1 0x0 MSTORE PUSH1 0x20 PUSH1 0x0 KECCAK256 SWAP1 DUP2 ADD SWAP3 DUP3 ISZERO PUSH2 0x2BE7 JUMPI SWAP2 PUSH1 0x20 MUL DUP3 ADD JUMPDEST DUP3 DUP2 GT ISZERO PUSH2 0x2BE7 JUMPI DUP3 MLOAD DUP3 SSTORE SWAP2 PUSH1 0x20 ADD SWAP2 SWAP1 PUSH1 0x1 ADD SWAP1 PUSH2 0x2BCC JUMP JUMPDEST POP PUSH2 0x2BF3 SWAP3 SWAP2 POP PUSH2 0x2C16 JUMP JUMPDEST POP SWAP1 JUMP JUMPDEST PUSH1 0x40 MLOAD DUP1 PUSH2 0x140 ADD PUSH1 0x40 MSTORE DUP1 PUSH1 0xA SWAP1 PUSH1 0x20 DUP3 MUL DUP1 CALLDATASIZE DUP4 CALLDATACOPY POP SWAP2 SWAP3 SWAP2 POP POP JUMP JUMPDEST JUMPDEST DUP1 DUP3 GT ISZERO PUSH2 0x2BF3 JUMPI PUSH1 0x0 DUP2 SSTORE PUSH1 0x1 ADD PUSH2 0x2C17 JUMP JUMPDEST PUSH1 0x0 PUSH1 0x20 DUP3 DUP5 SUB SLT ISZERO PUSH2 0x2C3D JUMPI PUSH1 0x0 DUP1 REVERT JUMPDEST DUP2 CALLDATALOAD PUSH1 0x1 PUSH1 0x1 PUSH1 0xE0 SHL SUB NOT DUP2 AND DUP2 EQ PUSH2 0x1DB3 JUMPI PUSH1 0x0 DUP1 REVERT JUMPDEST PUSH1 0x0 PUSH1 0x20 DUP3 DUP5 SUB SLT ISZERO PUSH2 0x2C67 JUMPI PUSH1 0x0 DUP1 REVERT JUMPDEST POP CALLDATALOAD SWAP2 SWAP1 POP JUMP JUMPDEST PUSH1 0x0 DUP2 MLOAD DUP1 DUP5 MSTORE PUSH1 0x20 DUP1 DUP6 ADD SWAP5 POP DUP1 DUP5 ADD PUSH1 0x0 JUMPDEST DUP4 DUP2 LT ISZERO PUSH2 0x2C9E JUMPI DUP2 MLOAD DUP8 MSTORE SWAP6 DUP3 ADD SWAP6 SWAP1 DUP3 ADD SWAP1 PUSH1 0x1 ADD PUSH2 0x2C82 JUMP JUMPDEST POP SWAP5 SWAP6 SWAP5 POP POP POP POP POP JUMP JUMPDEST PUSH1 0x40 DUP2 MSTORE PUSH1 0x0 PUSH2 0x2CBC PUSH1 0x40 DUP4 ADD DUP6 PUSH2 0x2C6E JUMP JUMPDEST DUP3 DUP2 SUB PUSH1 0x20 DUP5 ADD MSTORE PUSH2 0x2868 DUP2 DUP6 PUSH2 0x2C6E JUMP JUMPDEST PUSH4 0x4E487B71 PUSH1 0xE0 SHL PUSH1 0x0 MSTORE PUSH1 0x41 PUSH1 0x4 MSTORE PUSH1 0x24 PUSH1 0x0 REVERT JUMPDEST PUSH1 0x40 DUP1 MLOAD SWAP1 DUP2 ADD PUSH1 0x1 PUSH1 0x1 PUSH1 0x40 SHL SUB DUP2 GT DUP3 DUP3 LT OR ISZERO PUSH2 0x2D06 JUMPI PUSH2 0x2D06 PUSH2 0x2CCE JUMP JUMPDEST PUSH1 0x40 MSTORE SWAP1 JUMP JUMPDEST PUSH1 0x40 MLOAD PUSH1 0xA0 DUP2 ADD PUSH1 0x1 PUSH1 0x1 PUSH1 0x40 SHL SUB DUP2 GT DUP3 DUP3 LT OR ISZERO PUSH2 0x2D06 JUMPI PUSH2 0x2D06 PUSH2 0x2CCE JUMP JUMPDEST PUSH1 0x40 MLOAD PUSH1 0x1F DUP3 ADD PUSH1 0x1F NOT AND DUP2 ADD PUSH1 0x1 PUSH1 0x1 PUSH1 0x40 SHL SUB DUP2 GT DUP3 DUP3 LT OR ISZERO PUSH2 0x2D56 JUMPI PUSH2 0x2D56 PUSH2 0x2CCE JUMP JUMPDEST PUSH1 0x40 MSTORE SWAP2 SWAP1 POP JUMP JUMPDEST PUSH1 0x0 PUSH1 0x1 PUSH1 0x1 PUSH1 0x40 SHL SUB DUP3 GT ISZERO PUSH2 0x2D77 JUMPI PUSH2 0x2D77 PUSH2 0x2CCE JUMP JUMPDEST POP PUSH1 0x5 SHL PUSH1 0x20 ADD SWAP1 JUMP JUMPDEST PUSH1 0x0 DUP1 PUSH1 0x40 DUP4 DUP6 SUB SLT ISZERO PUSH2 0x2D94 JUMPI PUSH1 0x0 DUP1 REVERT JUMPDEST DUP3 CALLDATALOAD SWAP2 POP PUSH1 0x20 DUP1 DUP5 ADD CALLDATALOAD PUSH1 0x1 PUSH1 0x1 PUSH1 0x40 SHL SUB DUP2 GT ISZERO PUSH2 0x2DB2 JUMPI PUSH1 0x0 DUP1 REVERT JUMPDEST DUP5 ADD PUSH1 0x1F DUP2 ADD DUP7 SGT PUSH2 0x2DC3 JUMPI PUSH1 0x0 DUP1 REVERT JUMPDEST DUP1 CALLDATALOAD PUSH2 0x2DD6 PUSH2 0x2DD1 DUP3 PUSH2 0x2D5E JUMP JUMPDEST PUSH2 0x2D2E JUMP JUMPDEST DUP2 DUP2 MSTORE PUSH1 0x5 SWAP2 SWAP1 SWAP2 SHL DUP3 ADD DUP4 ADD SWAP1 DUP4 DUP2 ADD SWAP1 DUP9 DUP4 GT ISZERO PUSH2 0x2DF5 JUMPI PUSH1 0x0 DUP1 REVERT JUMPDEST SWAP3 DUP5 ADD SWAP3 JUMPDEST DUP3 DUP5 LT ISZERO PUSH2 0x2E13 JUMPI DUP4 CALLDATALOAD DUP3 MSTORE SWAP3 DUP5 ADD SWAP3 SWAP1 DUP5 ADD SWAP1 PUSH2 0x2DFA JUMP JUMPDEST DUP1 SWAP6 POP POP POP POP POP POP SWAP3 POP SWAP3 SWAP1 POP JUMP JUMPDEST DUP4 DUP2 MSTORE DUP3 ISZERO ISZERO PUSH1 0x20 DUP3 ADD MSTORE PUSH1 0x80 DUP2 ADD PUSH2 0x2E48 PUSH1 0x40 DUP4 ADD DUP5 DUP1 MLOAD DUP3 MSTORE PUSH1 0x20 SWAP1 DUP2 ADD MLOAD SWAP2 ADD MSTORE JUMP JUMPDEST SWAP5 SWAP4 POP POP POP POP JUMP JUMPDEST DUP5 DUP2 MSTORE DUP4 PUSH1 0x20 DUP3 ADD MSTORE PUSH1 0x80 PUSH1 0x40 DUP3 ADD MSTORE PUSH1 0x0 PUSH2 0x2E6F PUSH1 0x80 DUP4 ADD DUP6 PUSH2 0x2C6E JUMP JUMPDEST DUP3 DUP2 SUB PUSH1 0x60 DUP5 ADD MSTORE PUSH2 0x2E81 DUP2 DUP6 PUSH2 0x2C6E JUMP JUMPDEST SWAP8 SWAP7 POP POP POP POP POP POP POP JUMP JUMPDEST PUSH1 0x1 PUSH1 0x1 PUSH1 0xA0 SHL SUB DUP2 AND DUP2 EQ PUSH2 0x1483 JUMPI PUSH1 0x0 DUP1 REVERT JUMPDEST PUSH1 0x0 PUSH1 0x20 DUP1 DUP4 DUP6 SUB SLT ISZERO PUSH2 0x2EB4 JUMPI PUSH1 0x0 DUP1 REVERT JUMPDEST DUP3 CALLDATALOAD PUSH1 0x1 PUSH1 0x1 PUSH1 0x40 SHL SUB DUP2 GT ISZERO PUSH2 0x2ECA JUMPI PUSH1 0x0 DUP1 REVERT JUMPDEST DUP4 ADD PUSH1 0x1F DUP2 ADD DUP6 SGT PUSH2 0x2EDB JUMPI PUSH1 0x0 DUP1 REVERT JUMPDEST DUP1 CALLDATALOAD PUSH2 0x2EE9 PUSH2 0x2DD1 DUP3 PUSH2 0x2D5E JUMP JUMPDEST DUP2 DUP2 MSTORE PUSH1 0x5 SWAP2 SWAP1 SWAP2 SHL DUP3 ADD DUP4 ADD SWAP1 DUP4 DUP2 ADD SWAP1 DUP8 DUP4 GT ISZERO PUSH2 0x2F08 JUMPI PUSH1 0x0 DUP1 REVERT JUMPDEST SWAP3 DUP5 ADD SWAP3 JUMPDEST DUP3 DUP5 LT ISZERO PUSH2 0x2E81 JUMPI DUP4 CALLDATALOAD PUSH2 0x2F20 DUP2 PUSH2 0x2E8C JUMP JUMPDEST DUP3 MSTORE SWAP3 DUP5 ADD SWAP3 SWAP1 DUP5 ADD SWAP1 PUSH2 0x2F0D JUMP JUMPDEST PUSH1 0x1 PUSH1 0x1 PUSH1 0xA0 SHL SUB DUP6 AND DUP2 MSTORE PUSH1 0x20 DUP1 DUP3 ADD DUP6 SWAP1 MSTORE DUP4 ISZERO ISZERO PUSH1 0x40 DUP4 ADD MSTORE DUP3 MLOAD PUSH1 0x60 DUP4 ADD MSTORE DUP3 ADD MLOAD PUSH1 0x80 DUP3 ADD MSTORE PUSH1 0xA0 DUP2 ADD PUSH2 0x2868 JUMP JUMPDEST PUSH1 0x0 PUSH1 0x20 DUP3 DUP5 SUB SLT ISZERO PUSH2 0x2F75 JUMPI PUSH1 0x0 DUP1 REVERT JUMPDEST DUP2 CALLDATALOAD PUSH2 0x1DB3 DUP2 PUSH2 0x2E8C JUMP JUMPDEST PUSH1 0x0 PUSH1 0x20 DUP3 DUP5 SUB SLT ISZERO PUSH2 0x2F92 JUMPI PUSH1 0x0 DUP1 REVERT JUMPDEST DUP2 CALLDATALOAD PUSH1 0x1 PUSH1 0x1 PUSH1 0x40 SHL SUB DUP2 GT ISZERO PUSH2 0x2FA8 JUMPI PUSH1 0x0 DUP1 REVERT JUMPDEST DUP3 ADD PUSH1 0xA0 DUP2 DUP6 SUB SLT ISZERO PUSH2 0x1DB3 JUMPI PUSH1 0x0 DUP1 REVERT JUMPDEST PUSH1 0x0 DUP1 PUSH1 0x40 DUP4 DUP6 SUB SLT ISZERO PUSH2 0x2FCD JUMPI PUSH1 0x0 DUP1 REVERT JUMPDEST DUP3 CALLDATALOAD PUSH2 0x2FD8 DUP2 PUSH2 0x2E8C JUMP JUMPDEST SWAP5 PUSH1 0x20 SWAP4 SWAP1 SWAP4 ADD CALLDATALOAD SWAP4 POP POP POP JUMP JUMPDEST DUP1 PUSH1 0x0 JUMPDEST PUSH1 0xA DUP2 LT ISZERO PUSH2 0x3009 JUMPI DUP2 MLOAD DUP5 MSTORE PUSH1 0x20 SWAP4 DUP5 ADD SWAP4 SWAP1 SWAP2 ADD SWAP1 PUSH1 0x1 ADD PUSH2 0x2FEA JUMP JUMPDEST POP POP POP POP JUMP JUMPDEST PUSH2 0x3E0 DUP2 ADD PUSH2 0x301E DUP3 DUP8 PUSH2 0x2FE6 JUMP JUMPDEST PUSH2 0x302C PUSH2 0x140 DUP4 ADD DUP7 PUSH2 0x2FE6 JUMP JUMPDEST PUSH2 0x280 DUP3 ADD DUP5 PUSH1 0x0 JUMPDEST PUSH1 0xA DUP2 LT ISZERO PUSH2 0x305D JUMPI DUP2 MLOAD PUSH1 0x1 PUSH1 0x1 PUSH1 0xA0 SHL SUB AND DUP4 MSTORE PUSH1 0x20 SWAP3 DUP4 ADD SWAP3 SWAP1 SWAP2 ADD SWAP1 PUSH1 0x1 ADD PUSH2 0x3035 JUMP JUMPDEST POP POP POP DUP3 PUSH2 0x3C0 DUP4 ADD MSTORE SWAP6 SWAP5 POP POP POP POP POP JUMP JUMPDEST PUSH1 0x20 DUP1 DUP3 MSTORE PUSH1 0x18 SWAP1 DUP3 ADD MSTORE PUSH32 0x47617320546F6B656E206973206E6F7420656E6F756768210000000000000000 PUSH1 0x40 DUP3 ADD MSTORE PUSH1 0x60 ADD SWAP1 JUMP JUMPDEST PUSH4 0x4E487B71 PUSH1 0xE0 SHL PUSH1 0x0 MSTORE PUSH1 0x32 PUSH1 0x4 MSTORE PUSH1 0x24 PUSH1 0x0 REVERT JUMPDEST PUSH4 0x4E487B71 PUSH1 0xE0 SHL PUSH1 0x0 MSTORE PUSH1 0x11 PUSH1 0x4 MSTORE PUSH1 0x24 PUSH1 0x0 REVERT JUMPDEST PUSH1 0x0 PUSH1 0x1 DUP3 ADD PUSH2 0x30E5 JUMPI PUSH2 0x30E5 PUSH2 0x30BD JUMP JUMPDEST POP PUSH1 0x1 ADD SWAP1 JUMP JUMPDEST DUP1 CALLDATALOAD PUSH1 0x1 PUSH1 0x1 PUSH1 0x40 SHL SUB DUP2 AND DUP2 EQ PUSH2 0x3103 JUMPI PUSH1 0x0 DUP1 REVERT JUMPDEST SWAP2 SWAP1 POP JUMP JUMPDEST PUSH1 0x0 DUP3 PUSH1 0x1F DUP4 ADD SLT PUSH2 0x3119 JUMPI PUSH1 0x0 DUP1 REVERT JUMPDEST DUP2 CALLDATALOAD PUSH1 0x1 PUSH1 0x1 PUSH1 0x40 SHL SUB DUP2 GT ISZERO PUSH2 0x3132 JUMPI PUSH2 0x3132 PUSH2 0x2CCE JUMP JUMPDEST PUSH2 0x3145 PUSH1 0x1F DUP3 ADD PUSH1 0x1F NOT AND PUSH1 0x20 ADD PUSH2 0x2D2E JUMP JUMPDEST DUP2 DUP2 MSTORE DUP5 PUSH1 0x20 DUP4 DUP7 ADD ADD GT ISZERO PUSH2 0x315A JUMPI PUSH1 0x0 DUP1 REVERT JUMPDEST DUP2 PUSH1 0x20 DUP6 ADD PUSH1 0x20 DUP4 ADD CALLDATACOPY PUSH1 0x0 SWAP2 DUP2 ADD PUSH1 0x20 ADD SWAP2 SWAP1 SWAP2 MSTORE SWAP4 SWAP3 POP POP POP JUMP JUMPDEST PUSH1 0x0 DUP3 PUSH1 0x1F DUP4 ADD SLT PUSH2 0x3188 JUMPI PUSH1 0x0 DUP1 REVERT JUMPDEST DUP2 CALLDATALOAD PUSH1 0x20 PUSH2 0x3198 PUSH2 0x2DD1 DUP4 PUSH2 0x2D5E JUMP JUMPDEST DUP3 DUP2 MSTORE PUSH1 0x6 SWAP3 SWAP1 SWAP3 SHL DUP5 ADD DUP2 ADD SWAP2 DUP2 DUP2 ADD SWAP1 DUP7 DUP5 GT ISZERO PUSH2 0x31B7 JUMPI PUSH1 0x0 DUP1 REVERT JUMPDEST DUP3 DUP7 ADD JUMPDEST DUP5 DUP2 LT ISZERO PUSH2 0x31FF JUMPI PUSH1 0x40 DUP2 DUP10 SUB SLT ISZERO PUSH2 0x31D4 JUMPI PUSH1 0x0 DUP1 DUP2 REVERT JUMPDEST PUSH2 0x31DC PUSH2 0x2CE4 JUMP JUMPDEST DUP2 CALLDATALOAD PUSH2 0x31E7 DUP2 PUSH2 0x2E8C JUMP JUMPDEST DUP2 MSTORE DUP2 DUP6 ADD CALLDATALOAD DUP6 DUP3 ADD MSTORE DUP4 MSTORE SWAP2 DUP4 ADD SWAP2 PUSH1 0x40 ADD PUSH2 0x31BB JUMP JUMPDEST POP SWAP7 SWAP6 POP POP POP POP POP POP JUMP JUMPDEST PUSH1 0x0 PUSH1 0xA0 DUP3 CALLDATASIZE SUB SLT ISZERO PUSH2 0x321C JUMPI PUSH1 0x0 DUP1 REVERT JUMPDEST PUSH2 0x3224 PUSH2 0x2D0C JUMP JUMPDEST DUP3 CALLDATALOAD DUP2 MSTORE PUSH2 0x3234 PUSH1 0x20 DUP5 ADD PUSH2 0x30EC JUMP JUMPDEST PUSH1 0x20 DUP3 ADD MSTORE PUSH1 0x40 DUP4 ADD CALLDATALOAD PUSH1 0x1 PUSH1 0x1 PUSH1 0x40 SHL SUB DUP1 DUP3 GT ISZERO PUSH2 0x3253 JUMPI PUSH1 0x0 DUP1 REVERT JUMPDEST PUSH2 0x325F CALLDATASIZE DUP4 DUP8 ADD PUSH2 0x3108 JUMP JUMPDEST PUSH1 0x40 DUP5 ADD MSTORE PUSH1 0x60 DUP6 ADD CALLDATALOAD SWAP2 POP DUP1 DUP3 GT ISZERO PUSH2 0x3278 JUMPI PUSH1 0x0 DUP1 REVERT JUMPDEST PUSH2 0x3284 CALLDATASIZE DUP4 DUP8 ADD PUSH2 0x3108 JUMP JUMPDEST PUSH1 0x60 DUP5 ADD MSTORE PUSH1 0x80 DUP6 ADD CALLDATALOAD SWAP2 POP DUP1 DUP3 GT ISZERO PUSH2 0x329D JUMPI PUSH1 0x0 DUP1 REVERT JUMPDEST POP PUSH2 0x32AA CALLDATASIZE DUP3 DUP7 ADD PUSH2 0x3177 JUMP JUMPDEST PUSH1 0x80 DUP4 ADD MSTORE POP SWAP3 SWAP2 POP POP JUMP JUMPDEST PUSH1 0x0 PUSH1 0x20 DUP3 DUP5 SUB SLT ISZERO PUSH2 0x32C8 JUMPI PUSH1 0x0 DUP1 REVERT JUMPDEST POP MLOAD SWAP2 SWAP1 POP JUMP JUMPDEST PUSH1 0x0 PUSH1 0x20 DUP3 DUP5 SUB SLT ISZERO PUSH2 0x32E1 JUMPI PUSH1 0x0 DUP1 REVERT JUMPDEST DUP2 MLOAD DUP1 ISZERO ISZERO DUP2 EQ PUSH2 0x1DB3 JUMPI PUSH1 0x0 DUP1 REVERT JUMPDEST DUP1 DUP3 ADD DUP1 DUP3 GT ISZERO PUSH2 0xA9F JUMPI PUSH2 0xA9F PUSH2 0x30BD JUMP JUMPDEST DUP1 MLOAD PUSH10 0xFFFFFFFFFFFFFFFFFFFF DUP2 AND DUP2 EQ PUSH2 0x3103 JUMPI PUSH1 0x0 DUP1 REVERT JUMPDEST PUSH1 0x0 DUP1 PUSH1 0x0 DUP1 PUSH1 0x0 PUSH1 0xA0 DUP7 DUP9 SUB SLT ISZERO PUSH2 0x3336 JUMPI PUSH1 0x0 DUP1 REVERT JUMPDEST PUSH2 0x333F DUP7 PUSH2 0x3304 JUMP JUMPDEST SWAP5 POP PUSH1 0x20 DUP7 ADD MLOAD SWAP4 POP PUSH1 0x40 DUP7 ADD MLOAD SWAP3 POP PUSH1 0x60 DUP7 ADD MLOAD SWAP2 POP PUSH2 0x3362 PUSH1 0x80 DUP8 ADD PUSH2 0x3304 JUMP JUMPDEST SWAP1 POP SWAP3 SWAP6 POP SWAP3 SWAP6 SWAP1 SWAP4 POP JUMP JUMPDEST PUSH4 0x4E487B71 PUSH1 0xE0 SHL PUSH1 0x0 MSTORE PUSH1 0x12 PUSH1 0x4 MSTORE PUSH1 0x24 PUSH1 0x0 REVERT JUMPDEST PUSH1 0x0 DUP3 PUSH2 0x3393 JUMPI PUSH2 0x3393 PUSH2 0x336E JUMP JUMPDEST PUSH1 0x1 PUSH1 0xFF SHL DUP3 EQ PUSH1 0x0 NOT DUP5 EQ AND ISZERO PUSH2 0x33AD JUMPI PUSH2 0x33AD PUSH2 0x30BD JUMP JUMPDEST POP SDIV SWAP1 JUMP JUMPDEST DUP1 DUP3 MUL PUSH1 0x0 DUP3 SLT PUSH1 0x1 PUSH1 0xFF SHL DUP5 EQ AND ISZERO PUSH2 0x33CE JUMPI PUSH2 0x33CE PUSH2 0x30BD JUMP JUMPDEST DUP2 DUP2 SDIV DUP4 EQ DUP3 ISZERO OR PUSH2 0xA9F JUMPI PUSH2 0xA9F PUSH2 0x30BD JUMP JUMPDEST DUP1 DUP3 MUL DUP2 ISZERO DUP3 DUP3 DIV DUP5 EQ OR PUSH2 0xA9F JUMPI PUSH2 0xA9F PUSH2 0x30BD JUMP JUMPDEST PUSH1 0x0 DUP3 PUSH2 0x3408 JUMPI PUSH2 0x3408 PUSH2 0x336E JUMP JUMPDEST POP MOD SWAP1 JUMP JUMPDEST DUP5 DUP2 MSTORE PUSH1 0xA0 PUSH1 0x20 DUP3 ADD MSTORE PUSH1 0x0 PUSH2 0x3426 PUSH1 0xA0 DUP4 ADD DUP7 PUSH2 0x2C6E JUMP JUMPDEST PUSH1 0x40 DUP4 ADD DUP6 SWAP1 MSTORE DUP4 MLOAD PUSH1 0x60 DUP5 ADD MSTORE PUSH1 0x20 DUP5 ADD MLOAD PUSH1 0x80 DUP5 ADD MSTORE SWAP1 POP PUSH2 0x2868 JUMP JUMPDEST PUSH1 0x0 PUSH1 0x60 DUP3 DUP5 SUB SLT ISZERO PUSH2 0x3457 JUMPI PUSH1 0x0 DUP1 REVERT JUMPDEST PUSH1 0x40 MLOAD PUSH1 0x60 DUP2 ADD DUP2 DUP2 LT PUSH1 0x1 PUSH1 0x1 PUSH1 0x40 SHL SUB DUP3 GT OR ISZERO PUSH2 0x3479 JUMPI PUSH2 0x3479 PUSH2 0x2CCE JUMP JUMPDEST PUSH1 0x40 MSTORE DUP3 MLOAD PUSH2 0x3487 DUP2 PUSH2 0x2E8C JUMP JUMPDEST DUP2 MSTORE PUSH1 0x20 DUP4 DUP2 ADD MLOAD SWAP1 DUP3 ADD MSTORE PUSH1 0x40 SWAP3 DUP4 ADD MLOAD SWAP3 DUP2 ADD SWAP3 SWAP1 SWAP3 MSTORE POP SWAP2 SWAP1 POP JUMP JUMPDEST PUSH1 0x0 PUSH1 0x20 DUP3 DUP5 SUB SLT ISZERO PUSH2 0x34B8 JUMPI PUSH1 0x0 DUP1 REVERT JUMPDEST DUP2 MLOAD PUSH2 0x1DB3 DUP2 PUSH2 0x2E8C JUMP JUMPDEST DUP2 DUP2 SUB DUP2 DUP2 GT ISZERO PUSH2 0xA9F JUMPI PUSH2 0xA9F PUSH2 0x30BD JUMP JUMPDEST PUSH1 0x0 DUP3 PUSH2 0x34E5 JUMPI PUSH2 0x34E5 PUSH2 0x336E JUMP JUMPDEST POP DIV SWAP1 JUMP JUMPDEST PUSH1 0x0 DUP2 PUSH2 0x34F9 JUMPI PUSH2 0x34F9 PUSH2 0x30BD JUMP JUMPDEST POP PUSH1 0x0 NOT ADD SWAP1 JUMP JUMPDEST DUP2 MLOAD PUSH1 0x1 PUSH1 0x1 PUSH1 0xA0 SHL SUB AND DUP2 MSTORE PUSH1 0x20 DUP1 DUP4 ADD MLOAD SWAP1 DUP3 ADD MSTORE PUSH1 0x40 DUP1 DUP4 ADD MLOAD SWAP1 DUP3 ADD MSTORE PUSH1 0x60 DUP2 ADD PUSH2 0xA9F JUMP JUMPDEST PUSH1 0x0 DUP2 MLOAD DUP1 DUP5 MSTORE PUSH1 0x0 JUMPDEST DUP2 DUP2 LT ISZERO PUSH2 0x3551 JUMPI PUSH1 0x20 DUP2 DUP6 ADD DUP2 ADD MLOAD DUP7 DUP4 ADD DUP3 ADD MSTORE ADD PUSH2 0x3535 JUMP JUMPDEST POP PUSH1 0x0 PUSH1 0x20 DUP3 DUP7 ADD ADD MSTORE PUSH1 0x20 PUSH1 0x1F NOT PUSH1 0x1F DUP4 ADD AND DUP6 ADD ADD SWAP2 POP POP SWAP3 SWAP2 POP POP JUMP JUMPDEST PUSH1 0x0 PUSH1 0x40 PUSH1 0x1 PUSH1 0x1 PUSH1 0x40 SHL SUB DUP6 AND DUP4 MSTORE PUSH1 0x20 DUP2 DUP2 DUP6 ADD MSTORE DUP5 MLOAD PUSH1 0xA0 DUP4 DUP7 ADD MSTORE PUSH2 0x359D PUSH1 0xE0 DUP7 ADD DUP3 PUSH2 0x352B JUMP JUMPDEST SWAP1 POP DUP2 DUP7 ADD MLOAD PUSH1 0x3F NOT DUP1 DUP8 DUP5 SUB ADD PUSH1 0x60 DUP9 ADD MSTORE PUSH2 0x35BA DUP4 DUP4 PUSH2 0x352B JUMP JUMPDEST DUP9 DUP7 ADD MLOAD DUP9 DUP3 SUB DUP4 ADD PUSH1 0x80 DUP11 ADD MSTORE DUP1 MLOAD DUP1 DUP4 MSTORE SWAP1 DUP7 ADD SWAP5 POP PUSH1 0x0 SWAP4 POP SWAP1 DUP6 ADD SWAP1 JUMPDEST DUP1 DUP5 LT ISZERO PUSH2 0x360D JUMPI DUP5 MLOAD DUP1 MLOAD PUSH1 0x1 PUSH1 0x1 PUSH1 0xA0 SHL SUB AND DUP4 MSTORE DUP7 ADD MLOAD DUP7 DUP4 ADD MSTORE SWAP4 DUP6 ADD SWAP4 PUSH1 0x1 SWAP4 SWAP1 SWAP4 ADD SWAP3 SWAP1 DUP7 ADD SWAP1 PUSH2 0x35DB JUMP JUMPDEST POP PUSH1 0x60 DUP10 ADD MLOAD PUSH1 0x1 PUSH1 0x1 PUSH1 0xA0 SHL SUB AND PUSH1 0xA0 DUP10 ADD MSTORE PUSH1 0x80 DUP10 ADD MLOAD DUP9 DUP3 SUB DUP4 ADD PUSH1 0xC0 DUP11 ADD MSTORE SWAP6 POP PUSH2 0x363C DUP2 DUP8 PUSH2 0x352B JUMP JUMPDEST SWAP11 SWAP10 POP POP POP POP POP POP POP POP POP POP JUMP JUMPDEST PUSH1 0x1 PUSH1 0x1 PUSH1 0xA0 SHL SUB DUP6 DUP2 AND DUP3 MSTORE PUSH1 0xC0 DUP3 ADD SWAP1 PUSH2 0x3686 PUSH1 0x20 DUP5 ADD DUP8 DUP1 MLOAD PUSH1 0x1 PUSH1 0x1 PUSH1 0xA0 SHL SUB AND DUP3 MSTORE PUSH1 0x20 DUP1 DUP3 ADD MLOAD SWAP1 DUP4 ADD MSTORE PUSH1 0x40 SWAP1 DUP2 ADD MLOAD SWAP2 ADD MSTORE JUMP JUMPDEST SWAP4 SWAP1 SWAP4 AND PUSH1 0x80 DUP3 ADD MSTORE PUSH1 0xA0 ADD MSTORE SWAP3 SWAP2 POP POP JUMP JUMPDEST PUSH1 0x0 PUSH4 0xFFFFFFFF DUP1 DUP8 AND DUP4 MSTORE PUSH2 0xFFFF DUP7 AND PUSH1 0x20 DUP5 ADD MSTORE DUP1 DUP6 AND PUSH1 0x40 DUP5 ADD MSTORE POP PUSH1 0x80 PUSH1 0x60 DUP4 ADD MSTORE PUSH2 0x36CC PUSH1 0x80 DUP4 ADD DUP5 PUSH2 0x352B JUMP JUMPDEST SWAP7 SWAP6 POP POP POP POP POP POP JUMP JUMPDEST PUSH1 0x1 DUP1 PUSH1 0xA0 SHL SUB DUP5 AND DUP2 MSTORE DUP3 PUSH1 0x20 DUP3 ADD MSTORE PUSH1 0x60 PUSH1 0x40 DUP3 ADD MSTORE PUSH1 0x0 PUSH2 0x2868 PUSH1 0x60 DUP4 ADD DUP5 PUSH2 0x352B JUMP INVALID LOG2 PUSH5 0x6970667358 0x22 SLT KECCAK256 SWAP1 0xF6 CODESIZE 0x4A PUSH7 0x47BE8A299DC10D 0xDB STATICCALL 0xC4 0x4D SWAP7 PUSH11 0xBBD2A2A5B89D40EED9D447 PUSH4 0xDBBC6473 PUSH16 0x6C634300081300330000000000000000 "
		},
		"gasEstimates": {
			"creation": {
				"codeDepositCost": "2826200",
				"executionCost": "infinite",
				"totalCost": "infinite"
			},
			"external": {
				"LotteryItemList(uint256)": "6865",
				"acceptOwnership()": "52366",
				"buyOrUpgradeSkin(uint256)": "infinite",
				"buyOrUpgradeWeapon(uint256)": "infinite",
				"ccipReceive((bytes32,uint64,bytes,bytes,(address,uint256)[]))": "infinite",
				"chainSelectors(uint256)": "4185",
				"currentChainSelectorIndex()": "2408",
				"currentMessageItem()": "6746",
				"gameLogMap(uint256)": "11191",
				"gameOver(uint256)": "infinite",
				"gasTokenAggregators(uint256)": "2503",
				"getBalance()": "329",
				"getGasTokenAmountByUsd(uint256)": "infinite",
				"getLinkToken()": "infinite",
				"getPlayerAllAssets()": "infinite",
				"getPlayerAllSkinInfo()": "infinite",
				"getPlayerAllWeaponInfo()": "infinite",
				"getPlayerLastLotteryRequestStatus()": "infinite",
				"getTopListInfo()": "infinite",
				"i_vrfV2PlusWrapper()": "infinite",
				"initLotteryList()": "688076",
				"lastUpdateTime()": "2406",
				"linkTokens(uint256)": "2523",
				"lotteryRequestMap(uint256)": "11310",
				"owner()": "2464",
				"playerDiamondMap(address)": "2559",
				"playerGoldMap(address)": "2625",
				"playerLastlotteryRequestIdMap(address)": "2669",
				"playerLatestGameLogIdMap(address)": "2558",
				"playerSkinLevelMap(address,uint256)": "2694",
				"playerSkinMap(address,uint256)": "4849",
				"playerWeaponLevelMap(address,uint256)": "2673",
				"playerWeaponMap(address,uint256)": "4872",
				"rawFulfillRandomWords(uint256,uint256[])": "infinite",
				"reLive()": "infinite",
				"receivers(uint256)": "2546",
				"requestLottery()": "infinite",
				"routers(uint256)": "2569",
				"startGame()": "infinite",
				"supportsInterface(bytes4)": "473",
				"testWeaponSkin()": "139510",
				"topChainIndex(uint256)": "2529",
				"topGradeList(uint256)": "2463",
				"topPlayerList(uint256)": "2524",
				"totalGame()": "2384",
				"transferOwnership(address)": "infinite",
				"updateReceivers(address[])": "infinite",
				"withdrawLink()": "infinite",
				"wrapperAddressList(uint256)": "2548"
			},
			"internal": {
				"_ccipReceive(struct Client.Any2EVMMessage memory)": "infinite",
				"_sendMessage(uint64,address,address,address,struct ZKGameClient.MessageItem memory)": "infinite",
				"distribution(address payable,uint256)": "infinite",
				"fulfillRandomWords(uint256,uint256[] memory)": "infinite",
				"pushDataToTopList(struct ZKGameClient.MessageItem memory)": "infinite"
			}
		},
		"methodIdentifiers": {
			"LotteryItemList(uint256)": "380149ab",
			"acceptOwnership()": "79ba5097",
			"buyOrUpgradeSkin(uint256)": "fa3b11d2",
			"buyOrUpgradeWeapon(uint256)": "cc216aba",
			"ccipReceive((bytes32,uint64,bytes,bytes,(address,uint256)[]))": "85572ffb",
			"chainSelectors(uint256)": "2bf34fbd",
			"currentChainSelectorIndex()": "11b7aad5",
			"currentMessageItem()": "cdc7bc87",
			"gameLogMap(uint256)": "df4f5532",
			"gameOver(uint256)": "85f9ce72",
			"gasTokenAggregators(uint256)": "441bbacb",
			"getBalance()": "12065fe0",
			"getGasTokenAmountByUsd(uint256)": "e16b6193",
			"getLinkToken()": "e76d5168",
			"getPlayerAllAssets()": "44b7e83c",
			"getPlayerAllSkinInfo()": "34c53eed",
			"getPlayerAllWeaponInfo()": "1528d36f",
			"getPlayerLastLotteryRequestStatus()": "3236f6ae",
			"getTopListInfo()": "d0d5117e",
			"i_vrfV2PlusWrapper()": "9ed0868d",
			"initLotteryList()": "3db497de",
			"lastUpdateTime()": "c8f33c91",
			"linkTokens(uint256)": "ea029701",
			"lotteryRequestMap(uint256)": "67c58157",
			"owner()": "8da5cb5b",
			"playerDiamondMap(address)": "91f54351",
			"playerGoldMap(address)": "a029c405",
			"playerLastlotteryRequestIdMap(address)": "b3b2875e",
			"playerLatestGameLogIdMap(address)": "6906a2e9",
			"playerSkinLevelMap(address,uint256)": "f2683ecd",
			"playerSkinMap(address,uint256)": "d5540a27",
			"playerWeaponLevelMap(address,uint256)": "bac009d3",
			"playerWeaponMap(address,uint256)": "a55e1d45",
			"rawFulfillRandomWords(uint256,uint256[])": "1fe543e3",
			"reLive()": "0cae4589",
			"receivers(uint256)": "bfd772fc",
			"requestLottery()": "92e0c91a",
			"routers(uint256)": "4e9c1118",
			"startGame()": "d65ab5f2",
			"supportsInterface(bytes4)": "01ffc9a7",
			"testWeaponSkin()": "505838d1",
			"topChainIndex(uint256)": "e8af8c0d",
			"topGradeList(uint256)": "b76ee4a8",
			"topPlayerList(uint256)": "d252682d",
			"totalGame()": "d272e57e",
			"transferOwnership(address)": "f2fde38b",
			"updateReceivers(address[])": "49c9d17a",
			"withdrawLink()": "8dc654a2",
			"wrapperAddressList(uint256)": "10fa7879"
		}
	},
	"abi": [
		{
			"inputs": [
				{
					"internalType": "uint256",
					"name": "_currentChainSelectorIndex",
					"type": "uint256"
				}
			],
			"stateMutability": "nonpayable",
			"type": "constructor"
		},
		{
			"inputs": [
				{
					"internalType": "address",
					"name": "router",
					"type": "address"
				}
			],
			"name": "InvalidRouter",
			"type": "error"
		},
		{
			"inputs": [
				{
					"internalType": "uint256",
					"name": "currentBalance",
					"type": "uint256"
				},
				{
					"internalType": "uint256",
					"name": "calculatedFees",
					"type": "uint256"
				}
			],
			"name": "NotEnoughBalance",
			"type": "error"
		},
		{
			"inputs": [
				{
					"internalType": "address",
					"name": "have",
					"type": "address"
				},
				{
					"internalType": "address",
					"name": "want",
					"type": "address"
				}
			],
			"name": "OnlyVRFWrapperCanFulfill",
			"type": "error"
		},
		{
			"anonymous": false,
			"inputs": [
				{
					"indexed": false,
					"internalType": "uint256",
					"name": "startTime",
					"type": "uint256"
				},
				{
					"indexed": false,
					"internalType": "uint256",
					"name": "endTime",
					"type": "uint256"
				},
				{
					"indexed": false,
					"internalType": "address",
					"name": "player",
					"type": "address"
				},
				{
					"indexed": false,
					"internalType": "uint256",
					"name": "grade",
					"type": "uint256"
				},
				{
					"indexed": false,
					"internalType": "uint256",
					"name": "reLive",
					"type": "uint256"
				}
			],
			"name": "GameLogEvent",
			"type": "event"
		},
		{
			"anonymous": false,
			"inputs": [
				{
					"indexed": true,
					"internalType": "bytes32",
					"name": "messageId",
					"type": "bytes32"
				},
				{
					"indexed": true,
					"internalType": "uint64",
					"name": "sourceChainSelector",
					"type": "uint64"
				},
				{
					"indexed": false,
					"internalType": "address",
					"name": "sender",
					"type": "address"
				},
				{
					"components": [
						{
							"internalType": "address",
							"name": "player",
							"type": "address"
						},
						{
							"internalType": "uint256",
							"name": "time",
							"type": "uint256"
						},
						{
							"internalType": "uint256",
							"name": "chainIndex",
							"type": "uint256"
						}
					],
					"indexed": false,
					"internalType": "struct ZKGameClient.MessageItem",
					"name": "messageItem",
					"type": "tuple"
				}
			],
			"name": "MessageReceived",
			"type": "event"
		},
		{
			"anonymous": false,
			"inputs": [
				{
					"indexed": true,
					"internalType": "bytes32",
					"name": "messageId",
					"type": "bytes32"
				},
				{
					"indexed": true,
					"internalType": "uint64",
					"name": "destinationChainSelector",
					"type": "uint64"
				},
				{
					"indexed": false,
					"internalType": "address",
					"name": "receiver",
					"type": "address"
				},
				{
					"components": [
						{
							"internalType": "address",
							"name": "player",
							"type": "address"
						},
						{
							"internalType": "uint256",
							"name": "time",
							"type": "uint256"
						},
						{
							"internalType": "uint256",
							"name": "chainIndex",
							"type": "uint256"
						}
					],
					"indexed": false,
					"internalType": "struct ZKGameClient.MessageItem",
					"name": "messageItem",
					"type": "tuple"
				},
				{
					"indexed": false,
					"internalType": "address",
					"name": "feeToken",
					"type": "address"
				},
				{
					"indexed": false,
					"internalType": "uint256",
					"name": "fees",
					"type": "uint256"
				}
			],
			"name": "MessageSent",
			"type": "event"
		},
		{
			"anonymous": false,
			"inputs": [
				{
					"indexed": true,
					"internalType": "address",
					"name": "from",
					"type": "address"
				},
				{
					"indexed": true,
					"internalType": "address",
					"name": "to",
					"type": "address"
				}
			],
			"name": "OwnershipTransferRequested",
			"type": "event"
		},
		{
			"anonymous": false,
			"inputs": [
				{
					"indexed": true,
					"internalType": "address",
					"name": "from",
					"type": "address"
				},
				{
					"indexed": true,
					"internalType": "address",
					"name": "to",
					"type": "address"
				}
			],
			"name": "OwnershipTransferred",
			"type": "event"
		},
		{
			"anonymous": false,
			"inputs": [
				{
					"indexed": false,
					"internalType": "uint256",
					"name": "requestId",
					"type": "uint256"
				},
				{
					"indexed": false,
					"internalType": "uint256[]",
					"name": "randomWords",
					"type": "uint256[]"
				},
				{
					"indexed": false,
					"internalType": "uint256",
					"name": "payment",
					"type": "uint256"
				},
				{
					"components": [
						{
							"internalType": "uint256",
							"name": "itemType",
							"type": "uint256"
						},
						{
							"internalType": "uint256",
							"name": "num",
							"type": "uint256"
						}
					],
					"indexed": false,
					"internalType": "struct ZKGameClient.LotteryItem",
					"name": "lotteryItem",
					"type": "tuple"
				}
			],
			"name": "RequestLotteryFulfilled",
			"type": "event"
		},
		{
			"anonymous": false,
			"inputs": [
				{
					"indexed": false,
					"internalType": "uint256",
					"name": "requestId",
					"type": "uint256"
				},
				{
					"indexed": false,
					"internalType": "uint32",
					"name": "numWords",
					"type": "uint32"
				}
			],
			"name": "RequestLotterySent",
			"type": "event"
		},
		{
			"inputs": [
				{
					"internalType": "uint256",
					"name": "",
					"type": "uint256"
				}
			],
			"name": "LotteryItemList",
			"outputs": [
				{
					"internalType": "uint256",
					"name": "itemType",
					"type": "uint256"
				},
				{
					"internalType": "uint256",
					"name": "num",
					"type": "uint256"
				}
			],
			"stateMutability": "view",
			"type": "function"
		},
		{
			"inputs": [],
			"name": "acceptOwnership",
			"outputs": [],
			"stateMutability": "nonpayable",
			"type": "function"
		},
		{
			"inputs": [
				{
					"internalType": "uint256",
					"name": "id",
					"type": "uint256"
				}
			],
			"name": "buyOrUpgradeSkin",
			"outputs": [],
			"stateMutability": "nonpayable",
			"type": "function"
		},
		{
			"inputs": [
				{
					"internalType": "uint256",
					"name": "id",
					"type": "uint256"
				}
			],
			"name": "buyOrUpgradeWeapon",
			"outputs": [],
			"stateMutability": "nonpayable",
			"type": "function"
		},
		{
			"inputs": [
				{
					"components": [
						{
							"internalType": "bytes32",
							"name": "messageId",
							"type": "bytes32"
						},
						{
							"internalType": "uint64",
							"name": "sourceChainSelector",
							"type": "uint64"
						},
						{
							"internalType": "bytes",
							"name": "sender",
							"type": "bytes"
						},
						{
							"internalType": "bytes",
							"name": "data",
							"type": "bytes"
						},
						{
							"components": [
								{
									"internalType": "address",
									"name": "token",
									"type": "address"
								},
								{
									"internalType": "uint256",
									"name": "amount",
									"type": "uint256"
								}
							],
							"internalType": "struct Client.EVMTokenAmount[]",
							"name": "destTokenAmounts",
							"type": "tuple[]"
						}
					],
					"internalType": "struct Client.Any2EVMMessage",
					"name": "message",
					"type": "tuple"
				}
			],
			"name": "ccipReceive",
			"outputs": [],
			"stateMutability": "nonpayable",
			"type": "function"
		},
		{
			"inputs": [
				{
					"internalType": "uint256",
					"name": "",
					"type": "uint256"
				}
			],
			"name": "chainSelectors",
			"outputs": [
				{
					"internalType": "uint64",
					"name": "",
					"type": "uint64"
				}
			],
			"stateMutability": "view",
			"type": "function"
		},
		{
			"inputs": [],
			"name": "currentChainSelectorIndex",
			"outputs": [
				{
					"internalType": "uint256",
					"name": "",
					"type": "uint256"
				}
			],
			"stateMutability": "view",
			"type": "function"
		},
		{
			"inputs": [],
			"name": "currentMessageItem",
			"outputs": [
				{
					"internalType": "address",
					"name": "player",
					"type": "address"
				},
				{
					"internalType": "uint256",
					"name": "time",
					"type": "uint256"
				},
				{
					"internalType": "uint256",
					"name": "chainIndex",
					"type": "uint256"
				}
			],
			"stateMutability": "view",
			"type": "function"
		},
		{
			"inputs": [
				{
					"internalType": "uint256",
					"name": "",
					"type": "uint256"
				}
			],
			"name": "gameLogMap",
			"outputs": [
				{
					"internalType": "uint256",
					"name": "startTime",
					"type": "uint256"
				},
				{
					"internalType": "uint256",
					"name": "endTime",
					"type": "uint256"
				},
				{
					"internalType": "address",
					"name": "player",
					"type": "address"
				},
				{
					"internalType": "uint256",
					"name": "reLive",
					"type": "uint256"
				},
				{
					"internalType": "uint256",
					"name": "grade",
					"type": "uint256"
				}
			],
			"stateMutability": "view",
			"type": "function"
		},
		{
			"inputs": [
				{
					"internalType": "uint256",
					"name": "time",
					"type": "uint256"
				}
			],
			"name": "gameOver",
			"outputs": [],
			"stateMutability": "nonpayable",
			"type": "function"
		},
		{
			"inputs": [
				{
					"internalType": "uint256",
					"name": "",
					"type": "uint256"
				}
			],
			"name": "gasTokenAggregators",
			"outputs": [
				{
					"internalType": "address",
					"name": "",
					"type": "address"
				}
			],
			"stateMutability": "view",
			"type": "function"
		},
		{
			"inputs": [],
			"name": "getBalance",
			"outputs": [
				{
					"internalType": "uint256",
					"name": "",
					"type": "uint256"
				}
			],
			"stateMutability": "view",
			"type": "function"
		},
		{
			"inputs": [
				{
					"internalType": "uint256",
					"name": "usd",
					"type": "uint256"
				}
			],
			"name": "getGasTokenAmountByUsd",
			"outputs": [
				{
					"internalType": "uint256",
					"name": "",
					"type": "uint256"
				}
			],
			"stateMutability": "view",
			"type": "function"
		},
		{
			"inputs": [],
			"name": "getLinkToken",
			"outputs": [
				{
					"internalType": "contract LinkTokenInterface",
					"name": "",
					"type": "address"
				}
			],
			"stateMutability": "view",
			"type": "function"
		},
		{
			"inputs": [],
			"name": "getPlayerAllAssets",
			"outputs": [
				{
					"internalType": "uint256",
					"name": "gold",
					"type": "uint256"
				},
				{
					"internalType": "uint256",
					"name": "diamond",
					"type": "uint256"
				},
				{
					"internalType": "uint256[]",
					"name": "weapon",
					"type": "uint256[]"
				},
				{
					"internalType": "uint256[]",
					"name": "skin",
					"type": "uint256[]"
				}
			],
			"stateMutability": "view",
			"type": "function"
		},
		{
			"inputs": [],
			"name": "getPlayerAllSkinInfo",
			"outputs": [
				{
					"internalType": "uint256[]",
					"name": "skinIdList",
					"type": "uint256[]"
				},
				{
					"internalType": "uint256[]",
					"name": "skinLevelList",
					"type": "uint256[]"
				}
			],
			"stateMutability": "view",
			"type": "function"
		},
		{
			"inputs": [],
			"name": "getPlayerAllWeaponInfo",
			"outputs": [
				{
					"internalType": "uint256[]",
					"name": "weaponIdList",
					"type": "uint256[]"
				},
				{
					"internalType": "uint256[]",
					"name": "weaponLevelList",
					"type": "uint256[]"
				}
			],
			"stateMutability": "view",
			"type": "function"
		},
		{
			"inputs": [],
			"name": "getPlayerLastLotteryRequestStatus",
			"outputs": [
				{
					"internalType": "uint256",
					"name": "paid",
					"type": "uint256"
				},
				{
					"internalType": "bool",
					"name": "fulfilled",
					"type": "bool"
				},
				{
					"components": [
						{
							"internalType": "uint256",
							"name": "itemType",
							"type": "uint256"
						},
						{
							"internalType": "uint256",
							"name": "num",
							"type": "uint256"
						}
					],
					"internalType": "struct ZKGameClient.LotteryItem",
					"name": "lotteryItem",
					"type": "tuple"
				}
			],
			"stateMutability": "view",
			"type": "function"
		},
		{
			"inputs": [],
			"name": "getTopListInfo",
			"outputs": [
				{
					"internalType": "uint256[10]",
					"name": "",
					"type": "uint256[10]"
				},
				{
					"internalType": "uint256[10]",
					"name": "",
					"type": "uint256[10]"
				},
				{
					"internalType": "address[10]",
					"name": "",
					"type": "address[10]"
				},
				{
					"internalType": "uint256",
					"name": "",
					"type": "uint256"
				}
			],
			"stateMutability": "view",
			"type": "function"
		},
		{
			"inputs": [],
			"name": "i_vrfV2PlusWrapper",
			"outputs": [
				{
					"internalType": "contract IVRFV2PlusWrapper",
					"name": "",
					"type": "address"
				}
			],
			"stateMutability": "view",
			"type": "function"
		},
		{
			"inputs": [],
			"name": "initLotteryList",
			"outputs": [],
			"stateMutability": "nonpayable",
			"type": "function"
		},
		{
			"inputs": [],
			"name": "lastUpdateTime",
			"outputs": [
				{
					"internalType": "uint256",
					"name": "",
					"type": "uint256"
				}
			],
			"stateMutability": "view",
			"type": "function"
		},
		{
			"inputs": [
				{
					"internalType": "uint256",
					"name": "",
					"type": "uint256"
				}
			],
			"name": "linkTokens",
			"outputs": [
				{
					"internalType": "address",
					"name": "",
					"type": "address"
				}
			],
			"stateMutability": "view",
			"type": "function"
		},
		{
			"inputs": [
				{
					"internalType": "uint256",
					"name": "",
					"type": "uint256"
				}
			],
			"name": "lotteryRequestMap",
			"outputs": [
				{
					"internalType": "address",
					"name": "player",
					"type": "address"
				},
				{
					"internalType": "uint256",
					"name": "paid",
					"type": "uint256"
				},
				{
					"internalType": "bool",
					"name": "fulfilled",
					"type": "bool"
				},
				{
					"components": [
						{
							"internalType": "uint256",
							"name": "itemType",
							"type": "uint256"
						},
						{
							"internalType": "uint256",
							"name": "num",
							"type": "uint256"
						}
					],
					"internalType": "struct ZKGameClient.LotteryItem",
					"name": "lotteryItem",
					"type": "tuple"
				}
			],
			"stateMutability": "view",
			"type": "function"
		},
		{
			"inputs": [],
			"name": "owner",
			"outputs": [
				{
					"internalType": "address",
					"name": "",
					"type": "address"
				}
			],
			"stateMutability": "view",
			"type": "function"
		},
		{
			"inputs": [
				{
					"internalType": "address",
					"name": "",
					"type": "address"
				}
			],
			"name": "playerDiamondMap",
			"outputs": [
				{
					"internalType": "uint256",
					"name": "",
					"type": "uint256"
				}
			],
			"stateMutability": "view",
			"type": "function"
		},
		{
			"inputs": [
				{
					"internalType": "address",
					"name": "",
					"type": "address"
				}
			],
			"name": "playerGoldMap",
			"outputs": [
				{
					"internalType": "uint256",
					"name": "",
					"type": "uint256"
				}
			],
			"stateMutability": "view",
			"type": "function"
		},
		{
			"inputs": [
				{
					"internalType": "address",
					"name": "",
					"type": "address"
				}
			],
			"name": "playerLastlotteryRequestIdMap",
			"outputs": [
				{
					"internalType": "uint256",
					"name": "",
					"type": "uint256"
				}
			],
			"stateMutability": "view",
			"type": "function"
		},
		{
			"inputs": [
				{
					"internalType": "address",
					"name": "",
					"type": "address"
				}
			],
			"name": "playerLatestGameLogIdMap",
			"outputs": [
				{
					"internalType": "uint256",
					"name": "",
					"type": "uint256"
				}
			],
			"stateMutability": "view",
			"type": "function"
		},
		{
			"inputs": [
				{
					"internalType": "address",
					"name": "",
					"type": "address"
				},
				{
					"internalType": "uint256",
					"name": "",
					"type": "uint256"
				}
			],
			"name": "playerSkinLevelMap",
			"outputs": [
				{
					"internalType": "uint256",
					"name": "",
					"type": "uint256"
				}
			],
			"stateMutability": "view",
			"type": "function"
		},
		{
			"inputs": [
				{
					"internalType": "address",
					"name": "",
					"type": "address"
				},
				{
					"internalType": "uint256",
					"name": "",
					"type": "uint256"
				}
			],
			"name": "playerSkinMap",
			"outputs": [
				{
					"internalType": "uint256",
					"name": "",
					"type": "uint256"
				}
			],
			"stateMutability": "view",
			"type": "function"
		},
		{
			"inputs": [
				{
					"internalType": "address",
					"name": "",
					"type": "address"
				},
				{
					"internalType": "uint256",
					"name": "",
					"type": "uint256"
				}
			],
			"name": "playerWeaponLevelMap",
			"outputs": [
				{
					"internalType": "uint256",
					"name": "",
					"type": "uint256"
				}
			],
			"stateMutability": "view",
			"type": "function"
		},
		{
			"inputs": [
				{
					"internalType": "address",
					"name": "",
					"type": "address"
				},
				{
					"internalType": "uint256",
					"name": "",
					"type": "uint256"
				}
			],
			"name": "playerWeaponMap",
			"outputs": [
				{
					"internalType": "uint256",
					"name": "",
					"type": "uint256"
				}
			],
			"stateMutability": "view",
			"type": "function"
		},
		{
			"inputs": [
				{
					"internalType": "uint256",
					"name": "_requestId",
					"type": "uint256"
				},
				{
					"internalType": "uint256[]",
					"name": "_randomWords",
					"type": "uint256[]"
				}
			],
			"name": "rawFulfillRandomWords",
			"outputs": [],
			"stateMutability": "nonpayable",
			"type": "function"
		},
		{
			"inputs": [],
			"name": "reLive",
			"outputs": [],
			"stateMutability": "payable",
			"type": "function"
		},
		{
			"inputs": [
				{
					"internalType": "uint256",
					"name": "",
					"type": "uint256"
				}
			],
			"name": "receivers",
			"outputs": [
				{
					"internalType": "address",
					"name": "",
					"type": "address"
				}
			],
			"stateMutability": "view",
			"type": "function"
		},
		{
			"inputs": [],
			"name": "requestLottery",
			"outputs": [
				{
					"internalType": "uint256",
					"name": "",
					"type": "uint256"
				}
			],
			"stateMutability": "payable",
			"type": "function"
		},
		{
			"inputs": [
				{
					"internalType": "uint256",
					"name": "",
					"type": "uint256"
				}
			],
			"name": "routers",
			"outputs": [
				{
					"internalType": "address",
					"name": "",
					"type": "address"
				}
			],
			"stateMutability": "view",
			"type": "function"
		},
		{
			"inputs": [],
			"name": "startGame",
			"outputs": [],
			"stateMutability": "payable",
			"type": "function"
		},
		{
			"inputs": [
				{
					"internalType": "bytes4",
					"name": "interfaceId",
					"type": "bytes4"
				}
			],
			"name": "supportsInterface",
			"outputs": [
				{
					"internalType": "bool",
					"name": "",
					"type": "bool"
				}
			],
			"stateMutability": "pure",
			"type": "function"
		},
		{
			"inputs": [],
			"name": "testWeaponSkin",
			"outputs": [],
			"stateMutability": "nonpayable",
			"type": "function"
		},
		{
			"inputs": [
				{
					"internalType": "uint256",
					"name": "",
					"type": "uint256"
				}
			],
			"name": "topChainIndex",
			"outputs": [
				{
					"internalType": "uint256",
					"name": "",
					"type": "uint256"
				}
			],
			"stateMutability": "view",
			"type": "function"
		},
		{
			"inputs": [
				{
					"internalType": "uint256",
					"name": "",
					"type": "uint256"
				}
			],
			"name": "topGradeList",
			"outputs": [
				{
					"internalType": "uint256",
					"name": "",
					"type": "uint256"
				}
			],
			"stateMutability": "view",
			"type": "function"
		},
		{
			"inputs": [
				{
					"internalType": "uint256",
					"name": "",
					"type": "uint256"
				}
			],
			"name": "topPlayerList",
			"outputs": [
				{
					"internalType": "address",
					"name": "",
					"type": "address"
				}
			],
			"stateMutability": "view",
			"type": "function"
		},
		{
			"inputs": [],
			"name": "totalGame",
			"outputs": [
				{
					"internalType": "uint256",
					"name": "",
					"type": "uint256"
				}
			],
			"stateMutability": "view",
			"type": "function"
		},
		{
			"inputs": [
				{
					"internalType": "address",
					"name": "to",
					"type": "address"
				}
			],
			"name": "transferOwnership",
			"outputs": [],
			"stateMutability": "nonpayable",
			"type": "function"
		},
		{
			"inputs": [
				{
					"internalType": "address[]",
					"name": "receiverList",
					"type": "address[]"
				}
			],
			"name": "updateReceivers",
			"outputs": [],
			"stateMutability": "nonpayable",
			"type": "function"
		},
		{
			"inputs": [],
			"name": "withdrawLink",
			"outputs": [],
			"stateMutability": "nonpayable",
			"type": "function"
		},
		{
			"inputs": [
				{
					"internalType": "uint256",
					"name": "",
					"type": "uint256"
				}
			],
			"name": "wrapperAddressList",
			"outputs": [
				{
					"internalType": "address",
					"name": "",
					"type": "address"
				}
			],
			"stateMutability": "view",
			"type": "function"
		}
	]
}