{
	"data": {
		"bytecode": {
			"linkReferences": {},
			"object": "6000600255610120604052730bf3de8c5d3e8a2b34d2beeb17abfcebaf363a5960c090815273f694e193200268f9a4868e4aa017a0118c9a817760e052739c32fcb86bf0f4a1a8921a9fe46de3198bb884b26101005262000064906003908162000679565b506040805160608101825273779877a7b0d9e8603169ddbd7836e478b46247898152730b9d5d9136855f6fec3c0993fee6e9ce8a2978466020820152730fd9e8d3af1aaee056eb9e802c3a762a667b190491810191909152620000cc90600690600362000679565b506040805160608101825273195f15f2d49d693ce265b4fb0fddbe15b1850cc1815273327b83f409e1d5f13985c6d0584420fa648f1f566020820152736e6c366a1cd1f92ba87fd6f96f743b0e6c967bf0918101919091526200013490600990600362000679565b506040805160608101825267de41ba4fc9d91ad9815267ccf0a31a221f3c9b602082015267e1f4423f1bf587cd918101919091526200017890600c906003620006d6565b503480156200018657600080fd5b506040516200353538038062003535833981016040819052620001a9916200078f565b3380600060098460038110620001c357620001c3620007a9565b015460408051630711a57d60e21b815290516001600160a01b039092169182918291631c4695f4916004808201926020929091908290030181865afa15801562000211573d6000803e3d6000fd5b505050506040513d601f19601f82011682018060405250810190620002379190620007bf565b6001600160a01b0390811660805290811660a05283169050620002a15760405162461bcd60e51b815260206004820152601860248201527f43616e6e6f7420736574206f776e657220746f207a65726f000000000000000060448201526064015b60405180910390fd5b600080546001600160a01b0319166001600160a01b0384811691909117909155811615620002d457620002d481620002ed565b5050506002819055620002e662000398565b50620007f1565b336001600160a01b03821603620003475760405162461bcd60e51b815260206004820152601760248201527f43616e6e6f74207472616e7366657220746f2073656c66000000000000000000604482015260640162000298565b600180546001600160a01b0319166001600160a01b0383811691821790925560008054604051929316917fed8889f560326eb138920d842192f0eb3dd22b4f139c87a2c57538e05bae12789190a350565b620003a26200061b565b6040805180820182526000808252606460208084019182526013805460018181018355828652955160029182027f66de8ffda797e3de9c05e8fc57b3bf0ec28a930d40b0d285d93c06501cf6a0908181019290925594517f66de8ffda797e3de9c05e8fc57b3bf0ec28a930d40b0d285d93c06501cf6a091958601558751808901895286815260328186018181528554808b018755868a5292519285028085019390935551918701919091558851808a018a52888152600a8187019081528554808b018755868a5291519185028085019290925551908701558851808a018a528781528086018281528554808b018755868a5291519185028085019290925551908701558851808a018a5287815260968187019081528554808b018755868a5291519185028085019290925551908701558851808a018a52600380825260128288019081528654808c018855878b5292519286028086019390935551918801919091558951808b018b5288815260c88188018181528754808d018955888c5292519287028087019390935551918901919091558a51808c018c528981528088018481528754808d018955888c5291519187028087019290925551908901558a51808c018c528a815260148189019081528754808d018955888c5291519187028087019290925551908901558a51808c018c528981528088019384528654808c018855878b529051908602808601919091559251928801929092558951808b018b528881528087019283528554808b018755868a529051908502808501919091559151918701919091558851808a019099528852600993880193845282549687018355919094529451939092029384019290925551910155565b6000546001600160a01b03163314620006775760405162461bcd60e51b815260206004820152601660248201527f4f6e6c792063616c6c61626c65206279206f776e657200000000000000000000604482015260640162000298565b565b8260038101928215620006c4579160200282015b82811115620006c457825182546001600160a01b0319166001600160a01b039091161782556020909201916001909101906200068d565b50620006d292915062000778565b5090565b600183019183908215620006c45791602002820160005b838211156200073957835183826101000a8154816001600160401b0302191690836001600160401b031602179055509260200192600801602081600701049283019260010302620006ed565b80156200076e5782816101000a8154906001600160401b03021916905560080160208160070104928301926001030262000739565b5050620006d29291505b5b80821115620006d2576000815560010162000779565b600060208284031215620007a257600080fd5b5051919050565b634e487b7160e01b600052603260045260246000fd5b600060208284031215620007d257600080fd5b81516001600160a01b0381168114620007ea57600080fd5b9392505050565b60805160a051612cfb6200083a60003960008181610443015281816106ac01528181611a8c01528181611b2a0152611bd40152600081816105b80152611afb0152612cfb6000f3fe608060405234801561001057600080fd5b506004361061023d5760003560e01c80639ed0868d1161013b578063cdc7bc87116100b8578063e8af8c0d1161007c578063e8af8c0d146105dc578063ea029701146105ef578063f2683ecd14610602578063f2fde38b1461062d578063fa3b11d21461064057600080fd5b8063cdc7bc8714610538578063d0d5117e14610578578063d252682d14610590578063d5540a27146105a3578063e76d5168146105b657600080fd5b8063b76ee4a8116100ff578063b76ee4a8146104cb578063bac009d3146104de578063bfd772fc14610509578063c8f33c911461051c578063cc216aba1461052557600080fd5b80639ed0868d1461043e578063a029c40514610465578063a55e1d4514610485578063b0e2351814610498578063b3b2875e146104ab57600080fd5b806344b7e83c116101c957806385572ffb1161018d57806385572ffb146103ea5780638da5cb5b146103fd5780638dc654a21461040e57806391f543511461041657806392e0c91a1461043657600080fd5b806344b7e83c1461033957806349c9d17a146103515780634e9c11181461036457806367c581571461037757806379ba5097146103e257600080fd5b80631fe543e3116102105780631fe543e3146102b25780632bf34fbd146102c75780633236f6ae146102f2578063380149ab146103095780633db497de1461033157600080fd5b806301ffc9a71461024257806310fa78791461026a57806311b7aad51461029557806312065fe0146102ac575b600080fd5b610255610250366004612327565b610653565b60405190151581526020015b60405180910390f35b61027d610278366004612358565b61068a565b6040516001600160a01b039091168152602001610261565b61029e60025481565b604051908152602001610261565b4761029e565b6102c56102c0366004612424565b6106aa565b005b6102da6102d5366004612358565b610719565b6040516001600160401b039091168152602001610261565b6102fa61074c565b604051610261939291906124c5565b61031c610317366004612358565b6108a3565b60408051928352602083019190915201610261565b6102c56108d1565b610341610b52565b604051610261949392919061252e565b6102c561035f36600461257f565b610c32565b61027d610372366004612358565b610cf9565b6103d2610385366004612358565b601560209081526000918252604091829020805460018201546002830154855180870190965260048401548652600590930154938501939093526001600160a01b03169260ff9091169084565b604051610261949392919061260d565b6102c5610d09565b6102c56103f8366004612641565b610db3565b6000546001600160a01b031661027d565b6102c5610e08565b61029e61042436600461267b565b601b6020526000908152604090205481565b61029e610fd3565b61027d7f000000000000000000000000000000000000000000000000000000000000000081565b61029e61047336600461267b565b601a6020526000908152604090205481565b61029e610493366004612698565b611126565b6102c56104a6366004612358565b611157565b61029e6104b936600461267b565b60146020526000908152604090205481565b61029e6104d9366004612358565b6112d4565b61029e6104ec366004612698565b601760209081526000928352604080842090915290825290205481565b61027d610517366004612358565b6112eb565b61029e603a5481565b6102c5610533366004612358565b6112fb565b601054601154601254610553926001600160a01b0316919083565b604080516001600160a01b039094168452602084019290925290820152606001610261565b6105806113f8565b60405161026194939291906126ed565b61027d61059e366004612358565b6114c9565b61029e6105b1366004612698565b6114d9565b7f000000000000000000000000000000000000000000000000000000000000000061027d565b61029e6105ea366004612358565b6114f5565b61027d6105fd366004612358565b611505565b61029e610610366004612698565b601960209081526000928352604080842090915290825290205481565b6102c561063b36600461267b565b611515565b6102c561064e366004612358565b611526565b60006001600160e01b031982166385572ffb60e01b148061068457506001600160e01b031982166301ffc9a760e01b145b92915050565b6009816003811061069a57600080fd5b01546001600160a01b0316905081565b7f0000000000000000000000000000000000000000000000000000000000000000336001600160a01b0382161461070a576040516345d498b760e11b81523360048201526001600160a01b03821660248201526044015b60405180910390fd5b6107148383611619565b505050565b600c816003811061072957600080fd5b60049182820401919006600802915054906101000a90046001600160401b031681565b60008061076c604051806040016040528060008152602001600081525090565b336000908152601460209081526040808320548084526015909252909120600101546107ce5760405162461bcd60e51b81526020600482015260116024820152701c995c5d595cdd081b9bdd08199bdd5b99607a1b6044820152606401610701565b6000818152601560209081526040808320815160a08101835281546001600160a01b03168152600182015481850152600282015460ff1615158184015260038201805484518187028101870190955280855291949293606086019390929083018282801561085b57602002820191906000526020600020905b815481526020019060010190808311610847575b50505091835250506040805180820182526004840154815260059093015460208481019190915291820192909252820151908201516080909201519097919650945092505050565b601381815481106108b357600080fd5b60009182526020909120600290910201805460019091015490915082565b6108d96118a4565b6040805180820182526000808252606460208084019182526013805460018181018355828652955160029182027f66de8ffda797e3de9c05e8fc57b3bf0ec28a930d40b0d285d93c06501cf6a0908181019290925594517f66de8ffda797e3de9c05e8fc57b3bf0ec28a930d40b0d285d93c06501cf6a091958601558751808901895286815260328186018181528554808b018755868a5292519285028085019390935551918701919091558851808a018a52888152600a8187019081528554808b018755868a5291519185028085019290925551908701558851808a018a528781528086018281528554808b018755868a5291519185028085019290925551908701558851808a018a5287815260968187019081528554808b018755868a5291519185028085019290925551908701558851808a018a52600380825260128288019081528654808c018855878b5292519286028086019390935551918801919091558951808b018b5288815260c88188018181528754808d018955888c5292519287028087019390935551918901919091558a51808c018c528981528088018481528754808d018955888c5291519187028087019290925551908901558a51808c018c528a815260148189019081528754808d018955888c5291519187028087019290925551908901558a51808c018c528981528088019384528654808c018855878b529051908602808601919091559251928801929092558951808b018b528881528087019283528554808b018755868a529051908502808501919091559151918701919091558851808a019099528852600993880193845282549687018355919094529451939092029384019290925551910155565b336000908152601a6020908152604080832054601b8352818420546016845282852060188552838620815485518188028101880190965280865287966060968796959493929091849190830182828015610bcb57602002820191906000526020600020905b815481526020019060010190808311610bb7575b5050505050915080805480602002602001604051908101604052809291908181526020018280548015610c1d57602002820191906000526020600020905b815481526020019060010190808311610c09575b50505050509050935093509350935090919293565b610c3a6118a4565b6003815114610c8b5760405162461bcd60e51b815260206004820152601960248201527f72656365697665724c697374206973206e6f742076616c6964000000000000006044820152606401610701565b60005b8151811015610cf557818181518110610ca957610ca961274e565b6020026020010151600d8260038110610cc457610cc461274e565b0180546001600160a01b0319166001600160a01b039290921691909117905580610ced8161277a565b915050610c8e565b5050565b6003816003811061069a57600080fd5b6001546001600160a01b03163314610d5c5760405162461bcd60e51b815260206004820152601660248201527526bab9ba10313290383937b837b9b2b21037bbb732b960511b6044820152606401610701565b60008054336001600160a01b0319808316821784556001805490911690556040516001600160a01b0390921692909183917f8be0079c531659141344cd1fd0a4f28419497f9722a3daafe3b4186f6b6457e091a350565b600360025460038110610dc857610dc861274e565b01546001600160a01b03163314610df4576040516335fdcccd60e21b8152336004820152602401610701565b610e05610e00826128b1565b6118f9565b50565b610e106118a4565b60006001600160a01b0316600660025460038110610e3057610e3061274e565b01546001600160a01b031603610e945760405162461bcd60e51b8152602060048201526024808201527f6572726f723a2077697468647261774c696e6b206973206e6f7420737570706f6044820152631c9d195960e21b6064820152608401610701565b6000600660025460038110610eab57610eab61274e565b01546040516370a0823160e01b81523060048201526001600160a01b039091169150819063a9059cbb90339083906370a0823190602401602060405180830381865afa158015610eff573d6000803e3d6000fd5b505050506040513d601f19601f82011682018060405250810190610f23919061295d565b6040516001600160e01b031960e085901b1681526001600160a01b03909216600483015260248201526044016020604051808303816000875af1158015610f6e573d6000803e3d6000fd5b505050506040513d601f19601f82011682018060405250810190610f929190612976565b610e055760405162461bcd60e51b81526020600482015260126024820152712ab730b13632903a37903a3930b739b332b960711b6044820152606401610701565b6000610fdd6118a4565b6000610ff96040518060200160405280600015158152506119eb565b905060008061100f621e84806003600186611a5c565b6040805160a0810182523381526020808201848152600083850181815285518281528085018752606086019081528651808801885283815280860184905260808701528883526015855295909120845181546001600160a01b0319166001600160a01b03909116178155915160018301555160028201805460ff191691151591909117905592518051959750939550909391926110b592600385019291909101906122a8565b5060809190910151805160048301556020908101516005909201919091553360009081526014825260409081902084905580518481526001928101929092527f3279bde246f2449036f4a5a85e935ae7cb08612c5645c2673490d2fd624683ae910160405180910390a15091505090565b6016602052816000526040600020818154811061114257600080fd5b90600052602060002001600091509150505481565b6111856040518060600160405280336001600160a01b03168152602001838152602001600254815250611c5f565b60005b6003811015610cf5576000600c82600381106111a6576111a661274e565b600491828204019190066008029054906101000a90046001600160401b031690506000600d83600381106111dc576111dc61274e565b01546002546001600160a01b0390911691506001600160401b03831690600c906003811061120c5761120c61274e565b600491828204019190066008029054906101000a90046001600160401b03166001600160401b03161415801561124a57506001600160a01b03811615155b156112bf576112bd82826006600254600381106112695761126961274e565b01546002546001600160a01b039091169060039081811061128c5761128c61274e565b015460408051606081018252338152602081018b9052600254918101919091526001600160a01b0390911690611e57565b505b505080806112cc9061277a565b915050611188565b601c81600a81106112e457600080fd5b0154905081565b600d816003811061069a57600080fd5b3360009081526016602090815260408083208054825181850281018501909352808352919290919083018282801561135257602002820191906000526020600020905b81548152602001906001019080831161133e575b505050505090506000805b825181101561139d57838382815181106113795761137961274e565b60200260200101510361138b57600191505b806113958161277a565b91505061135d565b5080156113d45733600090815260176020908152604080832086845290915281208054916113ca8361277a565b9190505550505050565b50503360009081526016602090815260408220805460018101825590835291200155565b6114006122f3565b6114086122f3565b6114106122f3565b603a5460408051610140810191829052600092601c92603092602692918590600a9082845b81548152602001906001019080831161143557505060408051610140810191829052949850879350600a9250905082845b81548152602001906001019080831161146657505060408051610140810191829052949750869350600a9250905082845b81546001600160a01b031681526001909101906020018083116114975750505050509150935093509350935090919293565b602681600a811061069a57600080fd5b6018602052816000526040600020818154811061114257600080fd5b603081600a81106112e457600080fd5b6006816003811061069a57600080fd5b61151d6118a4565b610e05816121e1565b3360009081526018602090815260408083208054825181850281018501909352808352919290919083018282801561157d57602002820191906000526020600020905b815481526020019060010190808311611569575b505050505090506000805b82518110156115c857838382815181106115a4576115a461274e565b6020026020010151036115b657600191505b806115c08161277a565b915050611588565b5080156115f55733600090815260196020908152604080832086845290915281208054916113ca8361277a565b50503360009081526018602090815260408220805460018101825590835291200155565b60008151116116625760405162461bcd60e51b81526020600482015260156024820152741c985b991bdb55dbdc991cc81b9bdd08199bdd5b99605a1b6044820152606401610701565b6000828152601560205260409020600101546116b45760405162461bcd60e51b81526020600482015260116024820152701c995c5d595cdd081b9bdd08199bdd5b99607a1b6044820152606401610701565b6000601380549050826000815181106116cf576116cf61274e565b60200260200101516116e191906129ae565b90506000601382815481106116f8576116f861274e565b6000918252602080832060408051808201825260029485029092018054835260019081015483850152898652601584529420928301805460ff1916909417909355855192935061175192600390920191908601906122a8565b5060008481526015602090815260408220835160048201819055918401516005820155546001600160a01b031691036117c8578160200151601a6000836001600160a01b03166001600160a01b0316815260200190815260200160002060008282546117bd91906129c2565b9091555061184e9050565b815160010361180a578160200151601b6000836001600160a01b03166001600160a01b0316815260200190815260200160002060008282546117bd91906129c2565b815160021461184e57815160030361184e576001600160a01b0381166000908152601660209081526040822084820151815460018101835591845291909220909101555b600085815260156020526040908190206001015490517f8c5eb6455fc6d271f045db3f6049931e0b5372962417d81dcc38fc0bebe8d14191611895918891889187906129d5565b60405180910390a15050505050565b6000546001600160a01b031633146118f75760405162461bcd60e51b815260206004820152601660248201527527b7363c9031b0b63630b1363290313c9037bbb732b960511b6044820152606401610701565b565b80606001518060200190518101906119119190612a0d565b8051601080546001600160a01b0319166001600160a01b039092169182179055602080830151601181905560409384015160128190558451606081018652938452918301529181019190915261196690611c5f565b80602001516001600160401b031681600001517faa5cbdcf4f25939d41be3032075952cfd5f51f978a501d2f801d671061623f1d83604001518060200190518101906119b29190612a6e565b604080516001600160a01b039283168152601054909216602083015260115490820152601254606082015260800160405180910390a350565b60607f92fd13387c7fe7befbc38d303d6468778fb9731bc4583f17d92989c6fcfdeaaa82604051602401611a2491511515815260200190565b60408051601f198184030181529190526020810180516001600160e01b03166001600160e01b03199093169290921790915292915050565b6040516313f2e28560e11b815263ffffffff80861660048301528316602482015260009081906001600160a01b037f000000000000000000000000000000000000000000000000000000000000000016906327e5c50a90604401602060405180830381865afa158015611ad3573d6000803e3d6000fd5b505050506040513d601f19601f82011682018060405250810190611af7919061295d565b90507f00000000000000000000000000000000000000000000000000000000000000006001600160a01b0316634000aea07f00000000000000000000000000000000000000000000000000000000000000008389898989604051602001611b619493929190612ad1565b6040516020818303038152906040526040518463ffffffff1660e01b8152600401611b8e93929190612b0e565b6020604051808303816000875af1158015611bad573d6000803e3d6000fd5b505050506040513d601f19601f82011682018060405250810190611bd19190612976565b507f00000000000000000000000000000000000000000000000000000000000000006001600160a01b031663fc2a88c36040518163ffffffff1660e01b8152600401602060405180830381865afa158015611c30573d6000803e3d6000fd5b505050506040513d601f19601f82011682018060405250810190611c54919061295d565b915094509492505050565b60208101518151604083015182601c611c7a6001600a612b35565b600a8110611c8a57611c8a61274e565b01541015611e4d57600080611ca16001600a612b35565b905060005b81831015611cfc576002611cba83856129c2565b611cc49190612b48565b905085601c82600a8110611cda57611cda61274e565b01541015611cea57809150611ca6565b611cf58160016129c2565b9250611ca6565b6000611d0a6001600a612b35565b90505b83811115611de957601c611d22600183612b35565b600a8110611d3257611d3261274e565b0154601c82600a8110611d4757611d4761274e565b01556026611d56600183612b35565b600a8110611d6657611d6661274e565b01546001600160a01b0316602682600a8110611d8457611d8461274e565b0180546001600160a01b0319166001600160a01b03929092169190911790556030611db0600183612b35565b600a8110611dc057611dc061274e565b0154603082600a8110611dd557611dd561274e565b015580611de181612b5c565b915050611d0d565b5085601c84600a8110611dfe57611dfe61274e565b015584602684600a8110611e1457611e1461274e565b0180546001600160a01b0319166001600160a01b039290921691909117905583603084600a8110611e4757611e4761274e565b01555050505b505042603a555050565b6040805160a081019091526001600160a01b03851660c08201526000908490849083908060e08101604051602081830303815290604052815260200186604051602001611ea49190612b73565b60408051601f1981840301815291905281526020016000604051908082528060200260200182016040528015611f0057816020015b6040805180820190915260008082526020820152815260200190600190039081611ed95790505b508152602001886001600160a01b03168152602001611f2f604051806020016040528062030d4081525061228a565b90526040516320487ded60e01b81529091506000906001600160a01b038416906320487ded90611f65908d908690600401612b9d565b602060405180830381865afa158015611f82573d6000803e3d6000fd5b505050506040513d601f19601f82011682018060405250810190611fa6919061295d565b6040516370a0823160e01b81523060048201529091506001600160a01b038516906370a0823190602401602060405180830381865afa158015611fed573d6000803e3d6000fd5b505050506040513d601f19601f82011682018060405250810190612011919061295d565b8111156120a4576040516370a0823160e01b81523060048201526001600160a01b038516906370a0823190602401602060405180830381865afa15801561205c573d6000803e3d6000fd5b505050506040513d601f19601f82011682018060405250810190612080919061295d565b604051634787a10360e11b8152600481019190915260248101829052604401610701565b60405163095ea7b360e01b81526001600160a01b0384811660048301526024820183905285169063095ea7b3906044016020604051808303816000875af11580156120f3573d6000803e3d6000fd5b505050506040513d601f19601f820116820180604052508101906121179190612976565b506040516396f4e9f960e01b81526001600160a01b038416906396f4e9f990612146908d908690600401612b9d565b6020604051808303816000875af1158015612165573d6000803e3d6000fd5b505050506040513d601f19601f82011682018060405250810190612189919061295d565b9450896001600160401b0316857fd0d85f1cc5ab17f712b6074d702edd6281031e603c5cf76890a85b1170045b3a8b898c866040516121cb9493929190612c76565b60405180910390a3505050505b95945050505050565b336001600160a01b038216036122395760405162461bcd60e51b815260206004820152601760248201527f43616e6e6f74207472616e7366657220746f2073656c660000000000000000006044820152606401610701565b600180546001600160a01b0319166001600160a01b0383811691821790925560008054604051929316917fed8889f560326eb138920d842192f0eb3dd22b4f139c87a2c57538e05bae12789190a350565b604051815160248201526060906397a657c960e01b90604401611a24565b8280548282559060005260206000209081019282156122e3579160200282015b828111156122e35782518255916020019190600101906122c8565b506122ef929150612312565b5090565b604051806101400160405280600a906020820280368337509192915050565b5b808211156122ef5760008155600101612313565b60006020828403121561233957600080fd5b81356001600160e01b03198116811461235157600080fd5b9392505050565b60006020828403121561236a57600080fd5b5035919050565b634e487b7160e01b600052604160045260246000fd5b604080519081016001600160401b03811182821017156123a9576123a9612371565b60405290565b60405160a081016001600160401b03811182821017156123a9576123a9612371565b604051601f8201601f191681016001600160401b03811182821017156123f9576123f9612371565b604052919050565b60006001600160401b0382111561241a5761241a612371565b5060051b60200190565b6000806040838503121561243757600080fd5b823591506020808401356001600160401b0381111561245557600080fd5b8401601f8101861361246657600080fd5b803561247961247482612401565b6123d1565b81815260059190911b8201830190838101908883111561249857600080fd5b928401925b828410156124b65783358252928401929084019061249d565b80955050505050509250929050565b8381528215156020820152608081016124eb604083018480518252602090810151910152565b949350505050565b600081518084526020808501945080840160005b8381101561252357815187529582019590820190600101612507565b509495945050505050565b84815283602082015260806040820152600061254d60808301856124f3565b828103606084015261255f81856124f3565b979650505050505050565b6001600160a01b0381168114610e0557600080fd5b6000602080838503121561259257600080fd5b82356001600160401b038111156125a857600080fd5b8301601f810185136125b957600080fd5b80356125c761247482612401565b81815260059190911b820183019083810190878311156125e657600080fd5b928401925b8284101561255f5783356125fe8161256a565b825292840192908401906125eb565b6001600160a01b03851681526020808201859052831515604083015282516060830152820151608082015260a081016121d8565b60006020828403121561265357600080fd5b81356001600160401b0381111561266957600080fd5b820160a0818503121561235157600080fd5b60006020828403121561268d57600080fd5b81356123518161256a565b600080604083850312156126ab57600080fd5b82356126b68161256a565b946020939093013593505050565b8060005b600a8110156126e75781518452602093840193909101906001016126c8565b50505050565b6103e081016126fc82876126c4565b61270a6101408301866126c4565b61028082018460005b600a81101561273b5781516001600160a01b0316835260209283019290910190600101612713565b505050826103c083015295945050505050565b634e487b7160e01b600052603260045260246000fd5b634e487b7160e01b600052601160045260246000fd5b60006001820161278c5761278c612764565b5060010190565b80356001600160401b03811681146127aa57600080fd5b919050565b600082601f8301126127c057600080fd5b81356001600160401b038111156127d9576127d9612371565b6127ec601f8201601f19166020016123d1565b81815284602083860101111561280157600080fd5b816020850160208301376000918101602001919091529392505050565b600082601f83011261282f57600080fd5b8135602061283f61247483612401565b82815260069290921b8401810191818101908684111561285e57600080fd5b8286015b848110156128a6576040818903121561287b5760008081fd5b612883612387565b813561288e8161256a565b81528185013585820152835291830191604001612862565b509695505050505050565b600060a082360312156128c357600080fd5b6128cb6123af565b823581526128db60208401612793565b602082015260408301356001600160401b03808211156128fa57600080fd5b612906368387016127af565b6040840152606085013591508082111561291f57600080fd5b61292b368387016127af565b6060840152608085013591508082111561294457600080fd5b506129513682860161281e565b60808301525092915050565b60006020828403121561296f57600080fd5b5051919050565b60006020828403121561298857600080fd5b8151801515811461235157600080fd5b634e487b7160e01b600052601260045260246000fd5b6000826129bd576129bd612998565b500690565b8082018082111561068457610684612764565b84815260a0602082015260006129ee60a08301866124f3565b60408301859052835160608401526020840151608084015290506121d8565b600060608284031215612a1f57600080fd5b604051606081018181106001600160401b0382111715612a4157612a41612371565b6040528251612a4f8161256a565b8152602083810151908201526040928301519281019290925250919050565b600060208284031215612a8057600080fd5b81516123518161256a565b6000815180845260005b81811015612ab157602081850181015186830182015201612a95565b506000602082860101526020601f19601f83011685010191505092915050565b600063ffffffff808716835261ffff8616602084015280851660408401525060806060830152612b046080830184612a8b565b9695505050505050565b60018060a01b03841681528260208201526060604082015260006121d86060830184612a8b565b8181038181111561068457610684612764565b600082612b5757612b57612998565b500490565b600081612b6b57612b6b612764565b506000190190565b81516001600160a01b03168152602080830151908201526040808301519082015260608101610684565b600060406001600160401b038516835260208181850152845160a083860152612bc960e0860182612a8b565b905081860151603f1980878403016060880152612be68383612a8b565b88860151888203830160808a01528051808352908601945060009350908501905b80841015612c3957845180516001600160a01b0316835286015186830152938501936001939093019290860190612c07565b5060608901516001600160a01b031660a08901526080890151888203830160c08a01529550612c688187612a8b565b9a9950505050505050505050565b6001600160a01b03858116825260c0820190612cb2602084018780516001600160a01b0316825260208082015190830152604090810151910152565b93909316608082015260a001529291505056fea26469706673582212202856b14d5e0a9945f0b53d1350dbbbc8266659b247fd3679262360d115442b5964736f6c63430008130033",
			"opcodes": "PUSH1 0x0 PUSH1 0x2 SSTORE PUSH2 0x120 PUSH1 0x40 MSTORE PUSH20 0xBF3DE8C5D3E8A2B34D2BEEB17ABFCEBAF363A59 PUSH1 0xC0 SWAP1 DUP2 MSTORE PUSH20 0xF694E193200268F9A4868E4AA017A0118C9A8177 PUSH1 0xE0 MSTORE PUSH20 0x9C32FCB86BF0F4A1A8921A9FE46DE3198BB884B2 PUSH2 0x100 MSTORE PUSH3 0x64 SWAP1 PUSH1 0x3 SWAP1 DUP2 PUSH3 0x679 JUMP JUMPDEST POP PUSH1 0x40 DUP1 MLOAD PUSH1 0x60 DUP2 ADD DUP3 MSTORE PUSH20 0x779877A7B0D9E8603169DDBD7836E478B4624789 DUP2 MSTORE PUSH20 0xB9D5D9136855F6FEC3C0993FEE6E9CE8A297846 PUSH1 0x20 DUP3 ADD MSTORE PUSH20 0xFD9E8D3AF1AAEE056EB9E802C3A762A667B1904 SWAP2 DUP2 ADD SWAP2 SWAP1 SWAP2 MSTORE PUSH3 0xCC SWAP1 PUSH1 0x6 SWAP1 PUSH1 0x3 PUSH3 0x679 JUMP JUMPDEST POP PUSH1 0x40 DUP1 MLOAD PUSH1 0x60 DUP2 ADD DUP3 MSTORE PUSH20 0x195F15F2D49D693CE265B4FB0FDDBE15B1850CC1 DUP2 MSTORE PUSH20 0x327B83F409E1D5F13985C6D0584420FA648F1F56 PUSH1 0x20 DUP3 ADD MSTORE PUSH20 0x6E6C366A1CD1F92BA87FD6F96F743B0E6C967BF0 SWAP2 DUP2 ADD SWAP2 SWAP1 SWAP2 MSTORE PUSH3 0x134 SWAP1 PUSH1 0x9 SWAP1 PUSH1 0x3 PUSH3 0x679 JUMP JUMPDEST POP PUSH1 0x40 DUP1 MLOAD PUSH1 0x60 DUP2 ADD DUP3 MSTORE PUSH8 0xDE41BA4FC9D91AD9 DUP2 MSTORE PUSH8 0xCCF0A31A221F3C9B PUSH1 0x20 DUP3 ADD MSTORE PUSH8 0xE1F4423F1BF587CD SWAP2 DUP2 ADD SWAP2 SWAP1 SWAP2 MSTORE PUSH3 0x178 SWAP1 PUSH1 0xC SWAP1 PUSH1 0x3 PUSH3 0x6D6 JUMP JUMPDEST POP CALLVALUE DUP1 ISZERO PUSH3 0x186 JUMPI PUSH1 0x0 DUP1 REVERT JUMPDEST POP PUSH1 0x40 MLOAD PUSH3 0x3535 CODESIZE SUB DUP1 PUSH3 0x3535 DUP4 CODECOPY DUP2 ADD PUSH1 0x40 DUP2 SWAP1 MSTORE PUSH3 0x1A9 SWAP2 PUSH3 0x78F JUMP JUMPDEST CALLER DUP1 PUSH1 0x0 PUSH1 0x9 DUP5 PUSH1 0x3 DUP2 LT PUSH3 0x1C3 JUMPI PUSH3 0x1C3 PUSH3 0x7A9 JUMP JUMPDEST ADD SLOAD PUSH1 0x40 DUP1 MLOAD PUSH4 0x711A57D PUSH1 0xE2 SHL DUP2 MSTORE SWAP1 MLOAD PUSH1 0x1 PUSH1 0x1 PUSH1 0xA0 SHL SUB SWAP1 SWAP3 AND SWAP2 DUP3 SWAP2 DUP3 SWAP2 PUSH4 0x1C4695F4 SWAP2 PUSH1 0x4 DUP1 DUP3 ADD SWAP3 PUSH1 0x20 SWAP3 SWAP1 SWAP2 SWAP1 DUP3 SWAP1 SUB ADD DUP2 DUP7 GAS STATICCALL ISZERO DUP1 ISZERO PUSH3 0x211 JUMPI RETURNDATASIZE PUSH1 0x0 DUP1 RETURNDATACOPY RETURNDATASIZE PUSH1 0x0 REVERT JUMPDEST POP POP POP POP PUSH1 0x40 MLOAD RETURNDATASIZE PUSH1 0x1F NOT PUSH1 0x1F DUP3 ADD AND DUP3 ADD DUP1 PUSH1 0x40 MSTORE POP DUP2 ADD SWAP1 PUSH3 0x237 SWAP2 SWAP1 PUSH3 0x7BF JUMP JUMPDEST PUSH1 0x1 PUSH1 0x1 PUSH1 0xA0 SHL SUB SWAP1 DUP2 AND PUSH1 0x80 MSTORE SWAP1 DUP2 AND PUSH1 0xA0 MSTORE DUP4 AND SWAP1 POP PUSH3 0x2A1 JUMPI PUSH1 0x40 MLOAD PUSH3 0x461BCD PUSH1 0xE5 SHL DUP2 MSTORE PUSH1 0x20 PUSH1 0x4 DUP3 ADD MSTORE PUSH1 0x18 PUSH1 0x24 DUP3 ADD MSTORE PUSH32 0x43616E6E6F7420736574206F776E657220746F207A65726F0000000000000000 PUSH1 0x44 DUP3 ADD MSTORE PUSH1 0x64 ADD JUMPDEST PUSH1 0x40 MLOAD DUP1 SWAP2 SUB SWAP1 REVERT JUMPDEST PUSH1 0x0 DUP1 SLOAD PUSH1 0x1 PUSH1 0x1 PUSH1 0xA0 SHL SUB NOT AND PUSH1 0x1 PUSH1 0x1 PUSH1 0xA0 SHL SUB DUP5 DUP2 AND SWAP2 SWAP1 SWAP2 OR SWAP1 SWAP2 SSTORE DUP2 AND ISZERO PUSH3 0x2D4 JUMPI PUSH3 0x2D4 DUP2 PUSH3 0x2ED JUMP JUMPDEST POP POP POP PUSH1 0x2 DUP2 SWAP1 SSTORE PUSH3 0x2E6 PUSH3 0x398 JUMP JUMPDEST POP PUSH3 0x7F1 JUMP JUMPDEST CALLER PUSH1 0x1 PUSH1 0x1 PUSH1 0xA0 SHL SUB DUP3 AND SUB PUSH3 0x347 JUMPI PUSH1 0x40 MLOAD PUSH3 0x461BCD PUSH1 0xE5 SHL DUP2 MSTORE PUSH1 0x20 PUSH1 0x4 DUP3 ADD MSTORE PUSH1 0x17 PUSH1 0x24 DUP3 ADD MSTORE PUSH32 0x43616E6E6F74207472616E7366657220746F2073656C66000000000000000000 PUSH1 0x44 DUP3 ADD MSTORE PUSH1 0x64 ADD PUSH3 0x298 JUMP JUMPDEST PUSH1 0x1 DUP1 SLOAD PUSH1 0x1 PUSH1 0x1 PUSH1 0xA0 SHL SUB NOT AND PUSH1 0x1 PUSH1 0x1 PUSH1 0xA0 SHL SUB DUP4 DUP2 AND SWAP2 DUP3 OR SWAP1 SWAP3 SSTORE PUSH1 0x0 DUP1 SLOAD PUSH1 0x40 MLOAD SWAP3 SWAP4 AND SWAP2 PUSH32 0xED8889F560326EB138920D842192F0EB3DD22B4F139C87A2C57538E05BAE1278 SWAP2 SWAP1 LOG3 POP JUMP JUMPDEST PUSH3 0x3A2 PUSH3 0x61B JUMP JUMPDEST PUSH1 0x40 DUP1 MLOAD DUP1 DUP3 ADD DUP3 MSTORE PUSH1 0x0 DUP1 DUP3 MSTORE PUSH1 0x64 PUSH1 0x20 DUP1 DUP5 ADD SWAP2 DUP3 MSTORE PUSH1 0x13 DUP1 SLOAD PUSH1 0x1 DUP2 DUP2 ADD DUP4 SSTORE DUP3 DUP7 MSTORE SWAP6 MLOAD PUSH1 0x2 SWAP2 DUP3 MUL PUSH32 0x66DE8FFDA797E3DE9C05E8FC57B3BF0EC28A930D40B0D285D93C06501CF6A090 DUP2 DUP2 ADD SWAP3 SWAP1 SWAP3 SSTORE SWAP5 MLOAD PUSH32 0x66DE8FFDA797E3DE9C05E8FC57B3BF0EC28A930D40B0D285D93C06501CF6A091 SWAP6 DUP7 ADD SSTORE DUP8 MLOAD DUP1 DUP10 ADD DUP10 MSTORE DUP7 DUP2 MSTORE PUSH1 0x32 DUP2 DUP7 ADD DUP2 DUP2 MSTORE DUP6 SLOAD DUP1 DUP12 ADD DUP8 SSTORE DUP7 DUP11 MSTORE SWAP3 MLOAD SWAP3 DUP6 MUL DUP1 DUP6 ADD SWAP4 SWAP1 SWAP4 SSTORE MLOAD SWAP2 DUP8 ADD SWAP2 SWAP1 SWAP2 SSTORE DUP9 MLOAD DUP1 DUP11 ADD DUP11 MSTORE DUP9 DUP2 MSTORE PUSH1 0xA DUP2 DUP8 ADD SWAP1 DUP2 MSTORE DUP6 SLOAD DUP1 DUP12 ADD DUP8 SSTORE DUP7 DUP11 MSTORE SWAP2 MLOAD SWAP2 DUP6 MUL DUP1 DUP6 ADD SWAP3 SWAP1 SWAP3 SSTORE MLOAD SWAP1 DUP8 ADD SSTORE DUP9 MLOAD DUP1 DUP11 ADD DUP11 MSTORE DUP8 DUP2 MSTORE DUP1 DUP7 ADD DUP3 DUP2 MSTORE DUP6 SLOAD DUP1 DUP12 ADD DUP8 SSTORE DUP7 DUP11 MSTORE SWAP2 MLOAD SWAP2 DUP6 MUL DUP1 DUP6 ADD SWAP3 SWAP1 SWAP3 SSTORE MLOAD SWAP1 DUP8 ADD SSTORE DUP9 MLOAD DUP1 DUP11 ADD DUP11 MSTORE DUP8 DUP2 MSTORE PUSH1 0x96 DUP2 DUP8 ADD SWAP1 DUP2 MSTORE DUP6 SLOAD DUP1 DUP12 ADD DUP8 SSTORE DUP7 DUP11 MSTORE SWAP2 MLOAD SWAP2 DUP6 MUL DUP1 DUP6 ADD SWAP3 SWAP1 SWAP3 SSTORE MLOAD SWAP1 DUP8 ADD SSTORE DUP9 MLOAD DUP1 DUP11 ADD DUP11 MSTORE PUSH1 0x3 DUP1 DUP3 MSTORE PUSH1 0x12 DUP3 DUP9 ADD SWAP1 DUP2 MSTORE DUP7 SLOAD DUP1 DUP13 ADD DUP9 SSTORE DUP8 DUP12 MSTORE SWAP3 MLOAD SWAP3 DUP7 MUL DUP1 DUP7 ADD SWAP4 SWAP1 SWAP4 SSTORE MLOAD SWAP2 DUP9 ADD SWAP2 SWAP1 SWAP2 SSTORE DUP10 MLOAD DUP1 DUP12 ADD DUP12 MSTORE DUP9 DUP2 MSTORE PUSH1 0xC8 DUP2 DUP9 ADD DUP2 DUP2 MSTORE DUP8 SLOAD DUP1 DUP14 ADD DUP10 SSTORE DUP9 DUP13 MSTORE SWAP3 MLOAD SWAP3 DUP8 MUL DUP1 DUP8 ADD SWAP4 SWAP1 SWAP4 SSTORE MLOAD SWAP2 DUP10 ADD SWAP2 SWAP1 SWAP2 SSTORE DUP11 MLOAD DUP1 DUP13 ADD DUP13 MSTORE DUP10 DUP2 MSTORE DUP1 DUP9 ADD DUP5 DUP2 MSTORE DUP8 SLOAD DUP1 DUP14 ADD DUP10 SSTORE DUP9 DUP13 MSTORE SWAP2 MLOAD SWAP2 DUP8 MUL DUP1 DUP8 ADD SWAP3 SWAP1 SWAP3 SSTORE MLOAD SWAP1 DUP10 ADD SSTORE DUP11 MLOAD DUP1 DUP13 ADD DUP13 MSTORE DUP11 DUP2 MSTORE PUSH1 0x14 DUP2 DUP10 ADD SWAP1 DUP2 MSTORE DUP8 SLOAD DUP1 DUP14 ADD DUP10 SSTORE DUP9 DUP13 MSTORE SWAP2 MLOAD SWAP2 DUP8 MUL DUP1 DUP8 ADD SWAP3 SWAP1 SWAP3 SSTORE MLOAD SWAP1 DUP10 ADD SSTORE DUP11 MLOAD DUP1 DUP13 ADD DUP13 MSTORE DUP10 DUP2 MSTORE DUP1 DUP9 ADD SWAP4 DUP5 MSTORE DUP7 SLOAD DUP1 DUP13 ADD DUP9 SSTORE DUP8 DUP12 MSTORE SWAP1 MLOAD SWAP1 DUP7 MUL DUP1 DUP7 ADD SWAP2 SWAP1 SWAP2 SSTORE SWAP3 MLOAD SWAP3 DUP9 ADD SWAP3 SWAP1 SWAP3 SSTORE DUP10 MLOAD DUP1 DUP12 ADD DUP12 MSTORE DUP9 DUP2 MSTORE DUP1 DUP8 ADD SWAP3 DUP4 MSTORE DUP6 SLOAD DUP1 DUP12 ADD DUP8 SSTORE DUP7 DUP11 MSTORE SWAP1 MLOAD SWAP1 DUP6 MUL DUP1 DUP6 ADD SWAP2 SWAP1 SWAP2 SSTORE SWAP2 MLOAD SWAP2 DUP8 ADD SWAP2 SWAP1 SWAP2 SSTORE DUP9 MLOAD DUP1 DUP11 ADD SWAP1 SWAP10 MSTORE DUP9 MSTORE PUSH1 0x9 SWAP4 DUP9 ADD SWAP4 DUP5 MSTORE DUP3 SLOAD SWAP7 DUP8 ADD DUP4 SSTORE SWAP2 SWAP1 SWAP5 MSTORE SWAP5 MLOAD SWAP4 SWAP1 SWAP3 MUL SWAP4 DUP5 ADD SWAP3 SWAP1 SWAP3 SSTORE MLOAD SWAP2 ADD SSTORE JUMP JUMPDEST PUSH1 0x0 SLOAD PUSH1 0x1 PUSH1 0x1 PUSH1 0xA0 SHL SUB AND CALLER EQ PUSH3 0x677 JUMPI PUSH1 0x40 MLOAD PUSH3 0x461BCD PUSH1 0xE5 SHL DUP2 MSTORE PUSH1 0x20 PUSH1 0x4 DUP3 ADD MSTORE PUSH1 0x16 PUSH1 0x24 DUP3 ADD MSTORE PUSH32 0x4F6E6C792063616C6C61626C65206279206F776E657200000000000000000000 PUSH1 0x44 DUP3 ADD MSTORE PUSH1 0x64 ADD PUSH3 0x298 JUMP JUMPDEST JUMP JUMPDEST DUP3 PUSH1 0x3 DUP2 ADD SWAP3 DUP3 ISZERO PUSH3 0x6C4 JUMPI SWAP2 PUSH1 0x20 MUL DUP3 ADD JUMPDEST DUP3 DUP2 GT ISZERO PUSH3 0x6C4 JUMPI DUP3 MLOAD DUP3 SLOAD PUSH1 0x1 PUSH1 0x1 PUSH1 0xA0 SHL SUB NOT AND PUSH1 0x1 PUSH1 0x1 PUSH1 0xA0 SHL SUB SWAP1 SWAP2 AND OR DUP3 SSTORE PUSH1 0x20 SWAP1 SWAP3 ADD SWAP2 PUSH1 0x1 SWAP1 SWAP2 ADD SWAP1 PUSH3 0x68D JUMP JUMPDEST POP PUSH3 0x6D2 SWAP3 SWAP2 POP PUSH3 0x778 JUMP JUMPDEST POP SWAP1 JUMP JUMPDEST PUSH1 0x1 DUP4 ADD SWAP2 DUP4 SWAP1 DUP3 ISZERO PUSH3 0x6C4 JUMPI SWAP2 PUSH1 0x20 MUL DUP3 ADD PUSH1 0x0 JUMPDEST DUP4 DUP3 GT ISZERO PUSH3 0x739 JUMPI DUP4 MLOAD DUP4 DUP3 PUSH2 0x100 EXP DUP2 SLOAD DUP2 PUSH1 0x1 PUSH1 0x1 PUSH1 0x40 SHL SUB MUL NOT AND SWAP1 DUP4 PUSH1 0x1 PUSH1 0x1 PUSH1 0x40 SHL SUB AND MUL OR SWAP1 SSTORE POP SWAP3 PUSH1 0x20 ADD SWAP3 PUSH1 0x8 ADD PUSH1 0x20 DUP2 PUSH1 0x7 ADD DIV SWAP3 DUP4 ADD SWAP3 PUSH1 0x1 SUB MUL PUSH3 0x6ED JUMP JUMPDEST DUP1 ISZERO PUSH3 0x76E JUMPI DUP3 DUP2 PUSH2 0x100 EXP DUP2 SLOAD SWAP1 PUSH1 0x1 PUSH1 0x1 PUSH1 0x40 SHL SUB MUL NOT AND SWAP1 SSTORE PUSH1 0x8 ADD PUSH1 0x20 DUP2 PUSH1 0x7 ADD DIV SWAP3 DUP4 ADD SWAP3 PUSH1 0x1 SUB MUL PUSH3 0x739 JUMP JUMPDEST POP POP PUSH3 0x6D2 SWAP3 SWAP2 POP JUMPDEST JUMPDEST DUP1 DUP3 GT ISZERO PUSH3 0x6D2 JUMPI PUSH1 0x0 DUP2 SSTORE PUSH1 0x1 ADD PUSH3 0x779 JUMP JUMPDEST PUSH1 0x0 PUSH1 0x20 DUP3 DUP5 SUB SLT ISZERO PUSH3 0x7A2 JUMPI PUSH1 0x0 DUP1 REVERT JUMPDEST POP MLOAD SWAP2 SWAP1 POP JUMP JUMPDEST PUSH4 0x4E487B71 PUSH1 0xE0 SHL PUSH1 0x0 MSTORE PUSH1 0x32 PUSH1 0x4 MSTORE PUSH1 0x24 PUSH1 0x0 REVERT JUMPDEST PUSH1 0x0 PUSH1 0x20 DUP3 DUP5 SUB SLT ISZERO PUSH3 0x7D2 JUMPI PUSH1 0x0 DUP1 REVERT JUMPDEST DUP2 MLOAD PUSH1 0x1 PUSH1 0x1 PUSH1 0xA0 SHL SUB DUP2 AND DUP2 EQ PUSH3 0x7EA JUMPI PUSH1 0x0 DUP1 REVERT JUMPDEST SWAP4 SWAP3 POP POP POP JUMP JUMPDEST PUSH1 0x80 MLOAD PUSH1 0xA0 MLOAD PUSH2 0x2CFB PUSH3 0x83A PUSH1 0x0 CODECOPY PUSH1 0x0 DUP2 DUP2 PUSH2 0x443 ADD MSTORE DUP2 DUP2 PUSH2 0x6AC ADD MSTORE DUP2 DUP2 PUSH2 0x1A8C ADD MSTORE DUP2 DUP2 PUSH2 0x1B2A ADD MSTORE PUSH2 0x1BD4 ADD MSTORE PUSH1 0x0 DUP2 DUP2 PUSH2 0x5B8 ADD MSTORE PUSH2 0x1AFB ADD MSTORE PUSH2 0x2CFB PUSH1 0x0 RETURN INVALID PUSH1 0x80 PUSH1 0x40 MSTORE CALLVALUE DUP1 ISZERO PUSH2 0x10 JUMPI PUSH1 0x0 DUP1 REVERT JUMPDEST POP PUSH1 0x4 CALLDATASIZE LT PUSH2 0x23D JUMPI PUSH1 0x0 CALLDATALOAD PUSH1 0xE0 SHR DUP1 PUSH4 0x9ED0868D GT PUSH2 0x13B JUMPI DUP1 PUSH4 0xCDC7BC87 GT PUSH2 0xB8 JUMPI DUP1 PUSH4 0xE8AF8C0D GT PUSH2 0x7C JUMPI DUP1 PUSH4 0xE8AF8C0D EQ PUSH2 0x5DC JUMPI DUP1 PUSH4 0xEA029701 EQ PUSH2 0x5EF JUMPI DUP1 PUSH4 0xF2683ECD EQ PUSH2 0x602 JUMPI DUP1 PUSH4 0xF2FDE38B EQ PUSH2 0x62D JUMPI DUP1 PUSH4 0xFA3B11D2 EQ PUSH2 0x640 JUMPI PUSH1 0x0 DUP1 REVERT JUMPDEST DUP1 PUSH4 0xCDC7BC87 EQ PUSH2 0x538 JUMPI DUP1 PUSH4 0xD0D5117E EQ PUSH2 0x578 JUMPI DUP1 PUSH4 0xD252682D EQ PUSH2 0x590 JUMPI DUP1 PUSH4 0xD5540A27 EQ PUSH2 0x5A3 JUMPI DUP1 PUSH4 0xE76D5168 EQ PUSH2 0x5B6 JUMPI PUSH1 0x0 DUP1 REVERT JUMPDEST DUP1 PUSH4 0xB76EE4A8 GT PUSH2 0xFF JUMPI DUP1 PUSH4 0xB76EE4A8 EQ PUSH2 0x4CB JUMPI DUP1 PUSH4 0xBAC009D3 EQ PUSH2 0x4DE JUMPI DUP1 PUSH4 0xBFD772FC EQ PUSH2 0x509 JUMPI DUP1 PUSH4 0xC8F33C91 EQ PUSH2 0x51C JUMPI DUP1 PUSH4 0xCC216ABA EQ PUSH2 0x525 JUMPI PUSH1 0x0 DUP1 REVERT JUMPDEST DUP1 PUSH4 0x9ED0868D EQ PUSH2 0x43E JUMPI DUP1 PUSH4 0xA029C405 EQ PUSH2 0x465 JUMPI DUP1 PUSH4 0xA55E1D45 EQ PUSH2 0x485 JUMPI DUP1 PUSH4 0xB0E23518 EQ PUSH2 0x498 JUMPI DUP1 PUSH4 0xB3B2875E EQ PUSH2 0x4AB JUMPI PUSH1 0x0 DUP1 REVERT JUMPDEST DUP1 PUSH4 0x44B7E83C GT PUSH2 0x1C9 JUMPI DUP1 PUSH4 0x85572FFB GT PUSH2 0x18D JUMPI DUP1 PUSH4 0x85572FFB EQ PUSH2 0x3EA JUMPI DUP1 PUSH4 0x8DA5CB5B EQ PUSH2 0x3FD JUMPI DUP1 PUSH4 0x8DC654A2 EQ PUSH2 0x40E JUMPI DUP1 PUSH4 0x91F54351 EQ PUSH2 0x416 JUMPI DUP1 PUSH4 0x92E0C91A EQ PUSH2 0x436 JUMPI PUSH1 0x0 DUP1 REVERT JUMPDEST DUP1 PUSH4 0x44B7E83C EQ PUSH2 0x339 JUMPI DUP1 PUSH4 0x49C9D17A EQ PUSH2 0x351 JUMPI DUP1 PUSH4 0x4E9C1118 EQ PUSH2 0x364 JUMPI DUP1 PUSH4 0x67C58157 EQ PUSH2 0x377 JUMPI DUP1 PUSH4 0x79BA5097 EQ PUSH2 0x3E2 JUMPI PUSH1 0x0 DUP1 REVERT JUMPDEST DUP1 PUSH4 0x1FE543E3 GT PUSH2 0x210 JUMPI DUP1 PUSH4 0x1FE543E3 EQ PUSH2 0x2B2 JUMPI DUP1 PUSH4 0x2BF34FBD EQ PUSH2 0x2C7 JUMPI DUP1 PUSH4 0x3236F6AE EQ PUSH2 0x2F2 JUMPI DUP1 PUSH4 0x380149AB EQ PUSH2 0x309 JUMPI DUP1 PUSH4 0x3DB497DE EQ PUSH2 0x331 JUMPI PUSH1 0x0 DUP1 REVERT JUMPDEST DUP1 PUSH4 0x1FFC9A7 EQ PUSH2 0x242 JUMPI DUP1 PUSH4 0x10FA7879 EQ PUSH2 0x26A JUMPI DUP1 PUSH4 0x11B7AAD5 EQ PUSH2 0x295 JUMPI DUP1 PUSH4 0x12065FE0 EQ PUSH2 0x2AC JUMPI JUMPDEST PUSH1 0x0 DUP1 REVERT JUMPDEST PUSH2 0x255 PUSH2 0x250 CALLDATASIZE PUSH1 0x4 PUSH2 0x2327 JUMP JUMPDEST PUSH2 0x653 JUMP JUMPDEST PUSH1 0x40 MLOAD SWAP1 ISZERO ISZERO DUP2 MSTORE PUSH1 0x20 ADD JUMPDEST PUSH1 0x40 MLOAD DUP1 SWAP2 SUB SWAP1 RETURN JUMPDEST PUSH2 0x27D PUSH2 0x278 CALLDATASIZE PUSH1 0x4 PUSH2 0x2358 JUMP JUMPDEST PUSH2 0x68A JUMP JUMPDEST PUSH1 0x40 MLOAD PUSH1 0x1 PUSH1 0x1 PUSH1 0xA0 SHL SUB SWAP1 SWAP2 AND DUP2 MSTORE PUSH1 0x20 ADD PUSH2 0x261 JUMP JUMPDEST PUSH2 0x29E PUSH1 0x2 SLOAD DUP2 JUMP JUMPDEST PUSH1 0x40 MLOAD SWAP1 DUP2 MSTORE PUSH1 0x20 ADD PUSH2 0x261 JUMP JUMPDEST SELFBALANCE PUSH2 0x29E JUMP JUMPDEST PUSH2 0x2C5 PUSH2 0x2C0 CALLDATASIZE PUSH1 0x4 PUSH2 0x2424 JUMP JUMPDEST PUSH2 0x6AA JUMP JUMPDEST STOP JUMPDEST PUSH2 0x2DA PUSH2 0x2D5 CALLDATASIZE PUSH1 0x4 PUSH2 0x2358 JUMP JUMPDEST PUSH2 0x719 JUMP JUMPDEST PUSH1 0x40 MLOAD PUSH1 0x1 PUSH1 0x1 PUSH1 0x40 SHL SUB SWAP1 SWAP2 AND DUP2 MSTORE PUSH1 0x20 ADD PUSH2 0x261 JUMP JUMPDEST PUSH2 0x2FA PUSH2 0x74C JUMP JUMPDEST PUSH1 0x40 MLOAD PUSH2 0x261 SWAP4 SWAP3 SWAP2 SWAP1 PUSH2 0x24C5 JUMP JUMPDEST PUSH2 0x31C PUSH2 0x317 CALLDATASIZE PUSH1 0x4 PUSH2 0x2358 JUMP JUMPDEST PUSH2 0x8A3 JUMP JUMPDEST PUSH1 0x40 DUP1 MLOAD SWAP3 DUP4 MSTORE PUSH1 0x20 DUP4 ADD SWAP2 SWAP1 SWAP2 MSTORE ADD PUSH2 0x261 JUMP JUMPDEST PUSH2 0x2C5 PUSH2 0x8D1 JUMP JUMPDEST PUSH2 0x341 PUSH2 0xB52 JUMP JUMPDEST PUSH1 0x40 MLOAD PUSH2 0x261 SWAP5 SWAP4 SWAP3 SWAP2 SWAP1 PUSH2 0x252E JUMP JUMPDEST PUSH2 0x2C5 PUSH2 0x35F CALLDATASIZE PUSH1 0x4 PUSH2 0x257F JUMP JUMPDEST PUSH2 0xC32 JUMP JUMPDEST PUSH2 0x27D PUSH2 0x372 CALLDATASIZE PUSH1 0x4 PUSH2 0x2358 JUMP JUMPDEST PUSH2 0xCF9 JUMP JUMPDEST PUSH2 0x3D2 PUSH2 0x385 CALLDATASIZE PUSH1 0x4 PUSH2 0x2358 JUMP JUMPDEST PUSH1 0x15 PUSH1 0x20 SWAP1 DUP2 MSTORE PUSH1 0x0 SWAP2 DUP3 MSTORE PUSH1 0x40 SWAP2 DUP3 SWAP1 KECCAK256 DUP1 SLOAD PUSH1 0x1 DUP3 ADD SLOAD PUSH1 0x2 DUP4 ADD SLOAD DUP6 MLOAD DUP1 DUP8 ADD SWAP1 SWAP7 MSTORE PUSH1 0x4 DUP5 ADD SLOAD DUP7 MSTORE PUSH1 0x5 SWAP1 SWAP4 ADD SLOAD SWAP4 DUP6 ADD SWAP4 SWAP1 SWAP4 MSTORE PUSH1 0x1 PUSH1 0x1 PUSH1 0xA0 SHL SUB AND SWAP3 PUSH1 0xFF SWAP1 SWAP2 AND SWAP1 DUP5 JUMP JUMPDEST PUSH1 0x40 MLOAD PUSH2 0x261 SWAP5 SWAP4 SWAP3 SWAP2 SWAP1 PUSH2 0x260D JUMP JUMPDEST PUSH2 0x2C5 PUSH2 0xD09 JUMP JUMPDEST PUSH2 0x2C5 PUSH2 0x3F8 CALLDATASIZE PUSH1 0x4 PUSH2 0x2641 JUMP JUMPDEST PUSH2 0xDB3 JUMP JUMPDEST PUSH1 0x0 SLOAD PUSH1 0x1 PUSH1 0x1 PUSH1 0xA0 SHL SUB AND PUSH2 0x27D JUMP JUMPDEST PUSH2 0x2C5 PUSH2 0xE08 JUMP JUMPDEST PUSH2 0x29E PUSH2 0x424 CALLDATASIZE PUSH1 0x4 PUSH2 0x267B JUMP JUMPDEST PUSH1 0x1B PUSH1 0x20 MSTORE PUSH1 0x0 SWAP1 DUP2 MSTORE PUSH1 0x40 SWAP1 KECCAK256 SLOAD DUP2 JUMP JUMPDEST PUSH2 0x29E PUSH2 0xFD3 JUMP JUMPDEST PUSH2 0x27D PUSH32 0x0 DUP2 JUMP JUMPDEST PUSH2 0x29E PUSH2 0x473 CALLDATASIZE PUSH1 0x4 PUSH2 0x267B JUMP JUMPDEST PUSH1 0x1A PUSH1 0x20 MSTORE PUSH1 0x0 SWAP1 DUP2 MSTORE PUSH1 0x40 SWAP1 KECCAK256 SLOAD DUP2 JUMP JUMPDEST PUSH2 0x29E PUSH2 0x493 CALLDATASIZE PUSH1 0x4 PUSH2 0x2698 JUMP JUMPDEST PUSH2 0x1126 JUMP JUMPDEST PUSH2 0x2C5 PUSH2 0x4A6 CALLDATASIZE PUSH1 0x4 PUSH2 0x2358 JUMP JUMPDEST PUSH2 0x1157 JUMP JUMPDEST PUSH2 0x29E PUSH2 0x4B9 CALLDATASIZE PUSH1 0x4 PUSH2 0x267B JUMP JUMPDEST PUSH1 0x14 PUSH1 0x20 MSTORE PUSH1 0x0 SWAP1 DUP2 MSTORE PUSH1 0x40 SWAP1 KECCAK256 SLOAD DUP2 JUMP JUMPDEST PUSH2 0x29E PUSH2 0x4D9 CALLDATASIZE PUSH1 0x4 PUSH2 0x2358 JUMP JUMPDEST PUSH2 0x12D4 JUMP JUMPDEST PUSH2 0x29E PUSH2 0x4EC CALLDATASIZE PUSH1 0x4 PUSH2 0x2698 JUMP JUMPDEST PUSH1 0x17 PUSH1 0x20 SWAP1 DUP2 MSTORE PUSH1 0x0 SWAP3 DUP4 MSTORE PUSH1 0x40 DUP1 DUP5 KECCAK256 SWAP1 SWAP2 MSTORE SWAP1 DUP3 MSTORE SWAP1 KECCAK256 SLOAD DUP2 JUMP JUMPDEST PUSH2 0x27D PUSH2 0x517 CALLDATASIZE PUSH1 0x4 PUSH2 0x2358 JUMP JUMPDEST PUSH2 0x12EB JUMP JUMPDEST PUSH2 0x29E PUSH1 0x3A SLOAD DUP2 JUMP JUMPDEST PUSH2 0x2C5 PUSH2 0x533 CALLDATASIZE PUSH1 0x4 PUSH2 0x2358 JUMP JUMPDEST PUSH2 0x12FB JUMP JUMPDEST PUSH1 0x10 SLOAD PUSH1 0x11 SLOAD PUSH1 0x12 SLOAD PUSH2 0x553 SWAP3 PUSH1 0x1 PUSH1 0x1 PUSH1 0xA0 SHL SUB AND SWAP2 SWAP1 DUP4 JUMP JUMPDEST PUSH1 0x40 DUP1 MLOAD PUSH1 0x1 PUSH1 0x1 PUSH1 0xA0 SHL SUB SWAP1 SWAP5 AND DUP5 MSTORE PUSH1 0x20 DUP5 ADD SWAP3 SWAP1 SWAP3 MSTORE SWAP1 DUP3 ADD MSTORE PUSH1 0x60 ADD PUSH2 0x261 JUMP JUMPDEST PUSH2 0x580 PUSH2 0x13F8 JUMP JUMPDEST PUSH1 0x40 MLOAD PUSH2 0x261 SWAP5 SWAP4 SWAP3 SWAP2 SWAP1 PUSH2 0x26ED JUMP JUMPDEST PUSH2 0x27D PUSH2 0x59E CALLDATASIZE PUSH1 0x4 PUSH2 0x2358 JUMP JUMPDEST PUSH2 0x14C9 JUMP JUMPDEST PUSH2 0x29E PUSH2 0x5B1 CALLDATASIZE PUSH1 0x4 PUSH2 0x2698 JUMP JUMPDEST PUSH2 0x14D9 JUMP JUMPDEST PUSH32 0x0 PUSH2 0x27D JUMP JUMPDEST PUSH2 0x29E PUSH2 0x5EA CALLDATASIZE PUSH1 0x4 PUSH2 0x2358 JUMP JUMPDEST PUSH2 0x14F5 JUMP JUMPDEST PUSH2 0x27D PUSH2 0x5FD CALLDATASIZE PUSH1 0x4 PUSH2 0x2358 JUMP JUMPDEST PUSH2 0x1505 JUMP JUMPDEST PUSH2 0x29E PUSH2 0x610 CALLDATASIZE PUSH1 0x4 PUSH2 0x2698 JUMP JUMPDEST PUSH1 0x19 PUSH1 0x20 SWAP1 DUP2 MSTORE PUSH1 0x0 SWAP3 DUP4 MSTORE PUSH1 0x40 DUP1 DUP5 KECCAK256 SWAP1 SWAP2 MSTORE SWAP1 DUP3 MSTORE SWAP1 KECCAK256 SLOAD DUP2 JUMP JUMPDEST PUSH2 0x2C5 PUSH2 0x63B CALLDATASIZE PUSH1 0x4 PUSH2 0x267B JUMP JUMPDEST PUSH2 0x1515 JUMP JUMPDEST PUSH2 0x2C5 PUSH2 0x64E CALLDATASIZE PUSH1 0x4 PUSH2 0x2358 JUMP JUMPDEST PUSH2 0x1526 JUMP JUMPDEST PUSH1 0x0 PUSH1 0x1 PUSH1 0x1 PUSH1 0xE0 SHL SUB NOT DUP3 AND PUSH4 0x85572FFB PUSH1 0xE0 SHL EQ DUP1 PUSH2 0x684 JUMPI POP PUSH1 0x1 PUSH1 0x1 PUSH1 0xE0 SHL SUB NOT DUP3 AND PUSH4 0x1FFC9A7 PUSH1 0xE0 SHL EQ JUMPDEST SWAP3 SWAP2 POP POP JUMP JUMPDEST PUSH1 0x9 DUP2 PUSH1 0x3 DUP2 LT PUSH2 0x69A JUMPI PUSH1 0x0 DUP1 REVERT JUMPDEST ADD SLOAD PUSH1 0x1 PUSH1 0x1 PUSH1 0xA0 SHL SUB AND SWAP1 POP DUP2 JUMP JUMPDEST PUSH32 0x0 CALLER PUSH1 0x1 PUSH1 0x1 PUSH1 0xA0 SHL SUB DUP3 AND EQ PUSH2 0x70A JUMPI PUSH1 0x40 MLOAD PUSH4 0x45D498B7 PUSH1 0xE1 SHL DUP2 MSTORE CALLER PUSH1 0x4 DUP3 ADD MSTORE PUSH1 0x1 PUSH1 0x1 PUSH1 0xA0 SHL SUB DUP3 AND PUSH1 0x24 DUP3 ADD MSTORE PUSH1 0x44 ADD JUMPDEST PUSH1 0x40 MLOAD DUP1 SWAP2 SUB SWAP1 REVERT JUMPDEST PUSH2 0x714 DUP4 DUP4 PUSH2 0x1619 JUMP JUMPDEST POP POP POP JUMP JUMPDEST PUSH1 0xC DUP2 PUSH1 0x3 DUP2 LT PUSH2 0x729 JUMPI PUSH1 0x0 DUP1 REVERT JUMPDEST PUSH1 0x4 SWAP2 DUP3 DUP3 DIV ADD SWAP2 SWAP1 MOD PUSH1 0x8 MUL SWAP2 POP SLOAD SWAP1 PUSH2 0x100 EXP SWAP1 DIV PUSH1 0x1 PUSH1 0x1 PUSH1 0x40 SHL SUB AND DUP2 JUMP JUMPDEST PUSH1 0x0 DUP1 PUSH2 0x76C PUSH1 0x40 MLOAD DUP1 PUSH1 0x40 ADD PUSH1 0x40 MSTORE DUP1 PUSH1 0x0 DUP2 MSTORE PUSH1 0x20 ADD PUSH1 0x0 DUP2 MSTORE POP SWAP1 JUMP JUMPDEST CALLER PUSH1 0x0 SWAP1 DUP2 MSTORE PUSH1 0x14 PUSH1 0x20 SWAP1 DUP2 MSTORE PUSH1 0x40 DUP1 DUP4 KECCAK256 SLOAD DUP1 DUP5 MSTORE PUSH1 0x15 SWAP1 SWAP3 MSTORE SWAP1 SWAP2 KECCAK256 PUSH1 0x1 ADD SLOAD PUSH2 0x7CE JUMPI PUSH1 0x40 MLOAD PUSH3 0x461BCD PUSH1 0xE5 SHL DUP2 MSTORE PUSH1 0x20 PUSH1 0x4 DUP3 ADD MSTORE PUSH1 0x11 PUSH1 0x24 DUP3 ADD MSTORE PUSH17 0x1C995C5D595CDD081B9BDD08199BDD5B99 PUSH1 0x7A SHL PUSH1 0x44 DUP3 ADD MSTORE PUSH1 0x64 ADD PUSH2 0x701 JUMP JUMPDEST PUSH1 0x0 DUP2 DUP2 MSTORE PUSH1 0x15 PUSH1 0x20 SWAP1 DUP2 MSTORE PUSH1 0x40 DUP1 DUP4 KECCAK256 DUP2 MLOAD PUSH1 0xA0 DUP2 ADD DUP4 MSTORE DUP2 SLOAD PUSH1 0x1 PUSH1 0x1 PUSH1 0xA0 SHL SUB AND DUP2 MSTORE PUSH1 0x1 DUP3 ADD SLOAD DUP2 DUP6 ADD MSTORE PUSH1 0x2 DUP3 ADD SLOAD PUSH1 0xFF AND ISZERO ISZERO DUP2 DUP5 ADD MSTORE PUSH1 0x3 DUP3 ADD DUP1 SLOAD DUP5 MLOAD DUP2 DUP8 MUL DUP2 ADD DUP8 ADD SWAP1 SWAP6 MSTORE DUP1 DUP6 MSTORE SWAP2 SWAP5 SWAP3 SWAP4 PUSH1 0x60 DUP7 ADD SWAP4 SWAP1 SWAP3 SWAP1 DUP4 ADD DUP3 DUP3 DUP1 ISZERO PUSH2 0x85B JUMPI PUSH1 0x20 MUL DUP3 ADD SWAP2 SWAP1 PUSH1 0x0 MSTORE PUSH1 0x20 PUSH1 0x0 KECCAK256 SWAP1 JUMPDEST DUP2 SLOAD DUP2 MSTORE PUSH1 0x20 ADD SWAP1 PUSH1 0x1 ADD SWAP1 DUP1 DUP4 GT PUSH2 0x847 JUMPI JUMPDEST POP POP POP SWAP2 DUP4 MSTORE POP POP PUSH1 0x40 DUP1 MLOAD DUP1 DUP3 ADD DUP3 MSTORE PUSH1 0x4 DUP5 ADD SLOAD DUP2 MSTORE PUSH1 0x5 SWAP1 SWAP4 ADD SLOAD PUSH1 0x20 DUP5 DUP2 ADD SWAP2 SWAP1 SWAP2 MSTORE SWAP2 DUP3 ADD SWAP3 SWAP1 SWAP3 MSTORE DUP3 ADD MLOAD SWAP1 DUP3 ADD MLOAD PUSH1 0x80 SWAP1 SWAP3 ADD MLOAD SWAP1 SWAP8 SWAP2 SWAP7 POP SWAP5 POP SWAP3 POP POP POP JUMP JUMPDEST PUSH1 0x13 DUP2 DUP2 SLOAD DUP2 LT PUSH2 0x8B3 JUMPI PUSH1 0x0 DUP1 REVERT JUMPDEST PUSH1 0x0 SWAP2 DUP3 MSTORE PUSH1 0x20 SWAP1 SWAP2 KECCAK256 PUSH1 0x2 SWAP1 SWAP2 MUL ADD DUP1 SLOAD PUSH1 0x1 SWAP1 SWAP2 ADD SLOAD SWAP1 SWAP2 POP DUP3 JUMP JUMPDEST PUSH2 0x8D9 PUSH2 0x18A4 JUMP JUMPDEST PUSH1 0x40 DUP1 MLOAD DUP1 DUP3 ADD DUP3 MSTORE PUSH1 0x0 DUP1 DUP3 MSTORE PUSH1 0x64 PUSH1 0x20 DUP1 DUP5 ADD SWAP2 DUP3 MSTORE PUSH1 0x13 DUP1 SLOAD PUSH1 0x1 DUP2 DUP2 ADD DUP4 SSTORE DUP3 DUP7 MSTORE SWAP6 MLOAD PUSH1 0x2 SWAP2 DUP3 MUL PUSH32 0x66DE8FFDA797E3DE9C05E8FC57B3BF0EC28A930D40B0D285D93C06501CF6A090 DUP2 DUP2 ADD SWAP3 SWAP1 SWAP3 SSTORE SWAP5 MLOAD PUSH32 0x66DE8FFDA797E3DE9C05E8FC57B3BF0EC28A930D40B0D285D93C06501CF6A091 SWAP6 DUP7 ADD SSTORE DUP8 MLOAD DUP1 DUP10 ADD DUP10 MSTORE DUP7 DUP2 MSTORE PUSH1 0x32 DUP2 DUP7 ADD DUP2 DUP2 MSTORE DUP6 SLOAD DUP1 DUP12 ADD DUP8 SSTORE DUP7 DUP11 MSTORE SWAP3 MLOAD SWAP3 DUP6 MUL DUP1 DUP6 ADD SWAP4 SWAP1 SWAP4 SSTORE MLOAD SWAP2 DUP8 ADD SWAP2 SWAP1 SWAP2 SSTORE DUP9 MLOAD DUP1 DUP11 ADD DUP11 MSTORE DUP9 DUP2 MSTORE PUSH1 0xA DUP2 DUP8 ADD SWAP1 DUP2 MSTORE DUP6 SLOAD DUP1 DUP12 ADD DUP8 SSTORE DUP7 DUP11 MSTORE SWAP2 MLOAD SWAP2 DUP6 MUL DUP1 DUP6 ADD SWAP3 SWAP1 SWAP3 SSTORE MLOAD SWAP1 DUP8 ADD SSTORE DUP9 MLOAD DUP1 DUP11 ADD DUP11 MSTORE DUP8 DUP2 MSTORE DUP1 DUP7 ADD DUP3 DUP2 MSTORE DUP6 SLOAD DUP1 DUP12 ADD DUP8 SSTORE DUP7 DUP11 MSTORE SWAP2 MLOAD SWAP2 DUP6 MUL DUP1 DUP6 ADD SWAP3 SWAP1 SWAP3 SSTORE MLOAD SWAP1 DUP8 ADD SSTORE DUP9 MLOAD DUP1 DUP11 ADD DUP11 MSTORE DUP8 DUP2 MSTORE PUSH1 0x96 DUP2 DUP8 ADD SWAP1 DUP2 MSTORE DUP6 SLOAD DUP1 DUP12 ADD DUP8 SSTORE DUP7 DUP11 MSTORE SWAP2 MLOAD SWAP2 DUP6 MUL DUP1 DUP6 ADD SWAP3 SWAP1 SWAP3 SSTORE MLOAD SWAP1 DUP8 ADD SSTORE DUP9 MLOAD DUP1 DUP11 ADD DUP11 MSTORE PUSH1 0x3 DUP1 DUP3 MSTORE PUSH1 0x12 DUP3 DUP9 ADD SWAP1 DUP2 MSTORE DUP7 SLOAD DUP1 DUP13 ADD DUP9 SSTORE DUP8 DUP12 MSTORE SWAP3 MLOAD SWAP3 DUP7 MUL DUP1 DUP7 ADD SWAP4 SWAP1 SWAP4 SSTORE MLOAD SWAP2 DUP9 ADD SWAP2 SWAP1 SWAP2 SSTORE DUP10 MLOAD DUP1 DUP12 ADD DUP12 MSTORE DUP9 DUP2 MSTORE PUSH1 0xC8 DUP2 DUP9 ADD DUP2 DUP2 MSTORE DUP8 SLOAD DUP1 DUP14 ADD DUP10 SSTORE DUP9 DUP13 MSTORE SWAP3 MLOAD SWAP3 DUP8 MUL DUP1 DUP8 ADD SWAP4 SWAP1 SWAP4 SSTORE MLOAD SWAP2 DUP10 ADD SWAP2 SWAP1 SWAP2 SSTORE DUP11 MLOAD DUP1 DUP13 ADD DUP13 MSTORE DUP10 DUP2 MSTORE DUP1 DUP9 ADD DUP5 DUP2 MSTORE DUP8 SLOAD DUP1 DUP14 ADD DUP10 SSTORE DUP9 DUP13 MSTORE SWAP2 MLOAD SWAP2 DUP8 MUL DUP1 DUP8 ADD SWAP3 SWAP1 SWAP3 SSTORE MLOAD SWAP1 DUP10 ADD SSTORE DUP11 MLOAD DUP1 DUP13 ADD DUP13 MSTORE DUP11 DUP2 MSTORE PUSH1 0x14 DUP2 DUP10 ADD SWAP1 DUP2 MSTORE DUP8 SLOAD DUP1 DUP14 ADD DUP10 SSTORE DUP9 DUP13 MSTORE SWAP2 MLOAD SWAP2 DUP8 MUL DUP1 DUP8 ADD SWAP3 SWAP1 SWAP3 SSTORE MLOAD SWAP1 DUP10 ADD SSTORE DUP11 MLOAD DUP1 DUP13 ADD DUP13 MSTORE DUP10 DUP2 MSTORE DUP1 DUP9 ADD SWAP4 DUP5 MSTORE DUP7 SLOAD DUP1 DUP13 ADD DUP9 SSTORE DUP8 DUP12 MSTORE SWAP1 MLOAD SWAP1 DUP7 MUL DUP1 DUP7 ADD SWAP2 SWAP1 SWAP2 SSTORE SWAP3 MLOAD SWAP3 DUP9 ADD SWAP3 SWAP1 SWAP3 SSTORE DUP10 MLOAD DUP1 DUP12 ADD DUP12 MSTORE DUP9 DUP2 MSTORE DUP1 DUP8 ADD SWAP3 DUP4 MSTORE DUP6 SLOAD DUP1 DUP12 ADD DUP8 SSTORE DUP7 DUP11 MSTORE SWAP1 MLOAD SWAP1 DUP6 MUL DUP1 DUP6 ADD SWAP2 SWAP1 SWAP2 SSTORE SWAP2 MLOAD SWAP2 DUP8 ADD SWAP2 SWAP1 SWAP2 SSTORE DUP9 MLOAD DUP1 DUP11 ADD SWAP1 SWAP10 MSTORE DUP9 MSTORE PUSH1 0x9 SWAP4 DUP9 ADD SWAP4 DUP5 MSTORE DUP3 SLOAD SWAP7 DUP8 ADD DUP4 SSTORE SWAP2 SWAP1 SWAP5 MSTORE SWAP5 MLOAD SWAP4 SWAP1 SWAP3 MUL SWAP4 DUP5 ADD SWAP3 SWAP1 SWAP3 SSTORE MLOAD SWAP2 ADD SSTORE JUMP JUMPDEST CALLER PUSH1 0x0 SWAP1 DUP2 MSTORE PUSH1 0x1A PUSH1 0x20 SWAP1 DUP2 MSTORE PUSH1 0x40 DUP1 DUP4 KECCAK256 SLOAD PUSH1 0x1B DUP4 MSTORE DUP2 DUP5 KECCAK256 SLOAD PUSH1 0x16 DUP5 MSTORE DUP3 DUP6 KECCAK256 PUSH1 0x18 DUP6 MSTORE DUP4 DUP7 KECCAK256 DUP2 SLOAD DUP6 MLOAD DUP2 DUP9 MUL DUP2 ADD DUP9 ADD SWAP1 SWAP7 MSTORE DUP1 DUP7 MSTORE DUP8 SWAP7 PUSH1 0x60 SWAP7 DUP8 SWAP7 SWAP6 SWAP5 SWAP4 SWAP3 SWAP1 SWAP2 DUP5 SWAP2 SWAP1 DUP4 ADD DUP3 DUP3 DUP1 ISZERO PUSH2 0xBCB JUMPI PUSH1 0x20 MUL DUP3 ADD SWAP2 SWAP1 PUSH1 0x0 MSTORE PUSH1 0x20 PUSH1 0x0 KECCAK256 SWAP1 JUMPDEST DUP2 SLOAD DUP2 MSTORE PUSH1 0x20 ADD SWAP1 PUSH1 0x1 ADD SWAP1 DUP1 DUP4 GT PUSH2 0xBB7 JUMPI JUMPDEST POP POP POP POP POP SWAP2 POP DUP1 DUP1 SLOAD DUP1 PUSH1 0x20 MUL PUSH1 0x20 ADD PUSH1 0x40 MLOAD SWAP1 DUP2 ADD PUSH1 0x40 MSTORE DUP1 SWAP3 SWAP2 SWAP1 DUP2 DUP2 MSTORE PUSH1 0x20 ADD DUP3 DUP1 SLOAD DUP1 ISZERO PUSH2 0xC1D JUMPI PUSH1 0x20 MUL DUP3 ADD SWAP2 SWAP1 PUSH1 0x0 MSTORE PUSH1 0x20 PUSH1 0x0 KECCAK256 SWAP1 JUMPDEST DUP2 SLOAD DUP2 MSTORE PUSH1 0x20 ADD SWAP1 PUSH1 0x1 ADD SWAP1 DUP1 DUP4 GT PUSH2 0xC09 JUMPI JUMPDEST POP POP POP POP POP SWAP1 POP SWAP4 POP SWAP4 POP SWAP4 POP SWAP4 POP SWAP1 SWAP2 SWAP3 SWAP4 JUMP JUMPDEST PUSH2 0xC3A PUSH2 0x18A4 JUMP JUMPDEST PUSH1 0x3 DUP2 MLOAD EQ PUSH2 0xC8B JUMPI PUSH1 0x40 MLOAD PUSH3 0x461BCD PUSH1 0xE5 SHL DUP2 MSTORE PUSH1 0x20 PUSH1 0x4 DUP3 ADD MSTORE PUSH1 0x19 PUSH1 0x24 DUP3 ADD MSTORE PUSH32 0x72656365697665724C697374206973206E6F742076616C696400000000000000 PUSH1 0x44 DUP3 ADD MSTORE PUSH1 0x64 ADD PUSH2 0x701 JUMP JUMPDEST PUSH1 0x0 JUMPDEST DUP2 MLOAD DUP2 LT ISZERO PUSH2 0xCF5 JUMPI DUP2 DUP2 DUP2 MLOAD DUP2 LT PUSH2 0xCA9 JUMPI PUSH2 0xCA9 PUSH2 0x274E JUMP JUMPDEST PUSH1 0x20 MUL PUSH1 0x20 ADD ADD MLOAD PUSH1 0xD DUP3 PUSH1 0x3 DUP2 LT PUSH2 0xCC4 JUMPI PUSH2 0xCC4 PUSH2 0x274E JUMP JUMPDEST ADD DUP1 SLOAD PUSH1 0x1 PUSH1 0x1 PUSH1 0xA0 SHL SUB NOT AND PUSH1 0x1 PUSH1 0x1 PUSH1 0xA0 SHL SUB SWAP3 SWAP1 SWAP3 AND SWAP2 SWAP1 SWAP2 OR SWAP1 SSTORE DUP1 PUSH2 0xCED DUP2 PUSH2 0x277A JUMP JUMPDEST SWAP2 POP POP PUSH2 0xC8E JUMP JUMPDEST POP POP JUMP JUMPDEST PUSH1 0x3 DUP2 PUSH1 0x3 DUP2 LT PUSH2 0x69A JUMPI PUSH1 0x0 DUP1 REVERT JUMPDEST PUSH1 0x1 SLOAD PUSH1 0x1 PUSH1 0x1 PUSH1 0xA0 SHL SUB AND CALLER EQ PUSH2 0xD5C JUMPI PUSH1 0x40 MLOAD PUSH3 0x461BCD PUSH1 0xE5 SHL DUP2 MSTORE PUSH1 0x20 PUSH1 0x4 DUP3 ADD MSTORE PUSH1 0x16 PUSH1 0x24 DUP3 ADD MSTORE PUSH22 0x26BAB9BA10313290383937B837B9B2B21037BBB732B9 PUSH1 0x51 SHL PUSH1 0x44 DUP3 ADD MSTORE PUSH1 0x64 ADD PUSH2 0x701 JUMP JUMPDEST PUSH1 0x0 DUP1 SLOAD CALLER PUSH1 0x1 PUSH1 0x1 PUSH1 0xA0 SHL SUB NOT DUP1 DUP4 AND DUP3 OR DUP5 SSTORE PUSH1 0x1 DUP1 SLOAD SWAP1 SWAP2 AND SWAP1 SSTORE PUSH1 0x40 MLOAD PUSH1 0x1 PUSH1 0x1 PUSH1 0xA0 SHL SUB SWAP1 SWAP3 AND SWAP3 SWAP1 SWAP2 DUP4 SWAP2 PUSH32 0x8BE0079C531659141344CD1FD0A4F28419497F9722A3DAAFE3B4186F6B6457E0 SWAP2 LOG3 POP JUMP JUMPDEST PUSH1 0x3 PUSH1 0x2 SLOAD PUSH1 0x3 DUP2 LT PUSH2 0xDC8 JUMPI PUSH2 0xDC8 PUSH2 0x274E JUMP JUMPDEST ADD SLOAD PUSH1 0x1 PUSH1 0x1 PUSH1 0xA0 SHL SUB AND CALLER EQ PUSH2 0xDF4 JUMPI PUSH1 0x40 MLOAD PUSH4 0x35FDCCCD PUSH1 0xE2 SHL DUP2 MSTORE CALLER PUSH1 0x4 DUP3 ADD MSTORE PUSH1 0x24 ADD PUSH2 0x701 JUMP JUMPDEST PUSH2 0xE05 PUSH2 0xE00 DUP3 PUSH2 0x28B1 JUMP JUMPDEST PUSH2 0x18F9 JUMP JUMPDEST POP JUMP JUMPDEST PUSH2 0xE10 PUSH2 0x18A4 JUMP JUMPDEST PUSH1 0x0 PUSH1 0x1 PUSH1 0x1 PUSH1 0xA0 SHL SUB AND PUSH1 0x6 PUSH1 0x2 SLOAD PUSH1 0x3 DUP2 LT PUSH2 0xE30 JUMPI PUSH2 0xE30 PUSH2 0x274E JUMP JUMPDEST ADD SLOAD PUSH1 0x1 PUSH1 0x1 PUSH1 0xA0 SHL SUB AND SUB PUSH2 0xE94 JUMPI PUSH1 0x40 MLOAD PUSH3 0x461BCD PUSH1 0xE5 SHL DUP2 MSTORE PUSH1 0x20 PUSH1 0x4 DUP3 ADD MSTORE PUSH1 0x24 DUP1 DUP3 ADD MSTORE PUSH32 0x6572726F723A2077697468647261774C696E6B206973206E6F7420737570706F PUSH1 0x44 DUP3 ADD MSTORE PUSH4 0x1C9D1959 PUSH1 0xE2 SHL PUSH1 0x64 DUP3 ADD MSTORE PUSH1 0x84 ADD PUSH2 0x701 JUMP JUMPDEST PUSH1 0x0 PUSH1 0x6 PUSH1 0x2 SLOAD PUSH1 0x3 DUP2 LT PUSH2 0xEAB JUMPI PUSH2 0xEAB PUSH2 0x274E JUMP JUMPDEST ADD SLOAD PUSH1 0x40 MLOAD PUSH4 0x70A08231 PUSH1 0xE0 SHL DUP2 MSTORE ADDRESS PUSH1 0x4 DUP3 ADD MSTORE PUSH1 0x1 PUSH1 0x1 PUSH1 0xA0 SHL SUB SWAP1 SWAP2 AND SWAP2 POP DUP2 SWAP1 PUSH4 0xA9059CBB SWAP1 CALLER SWAP1 DUP4 SWAP1 PUSH4 0x70A08231 SWAP1 PUSH1 0x24 ADD PUSH1 0x20 PUSH1 0x40 MLOAD DUP1 DUP4 SUB DUP2 DUP7 GAS STATICCALL ISZERO DUP1 ISZERO PUSH2 0xEFF JUMPI RETURNDATASIZE PUSH1 0x0 DUP1 RETURNDATACOPY RETURNDATASIZE PUSH1 0x0 REVERT JUMPDEST POP POP POP POP PUSH1 0x40 MLOAD RETURNDATASIZE PUSH1 0x1F NOT PUSH1 0x1F DUP3 ADD AND DUP3 ADD DUP1 PUSH1 0x40 MSTORE POP DUP2 ADD SWAP1 PUSH2 0xF23 SWAP2 SWAP1 PUSH2 0x295D JUMP JUMPDEST PUSH1 0x40 MLOAD PUSH1 0x1 PUSH1 0x1 PUSH1 0xE0 SHL SUB NOT PUSH1 0xE0 DUP6 SWAP1 SHL AND DUP2 MSTORE PUSH1 0x1 PUSH1 0x1 PUSH1 0xA0 SHL SUB SWAP1 SWAP3 AND PUSH1 0x4 DUP4 ADD MSTORE PUSH1 0x24 DUP3 ADD MSTORE PUSH1 0x44 ADD PUSH1 0x20 PUSH1 0x40 MLOAD DUP1 DUP4 SUB DUP2 PUSH1 0x0 DUP8 GAS CALL ISZERO DUP1 ISZERO PUSH2 0xF6E JUMPI RETURNDATASIZE PUSH1 0x0 DUP1 RETURNDATACOPY RETURNDATASIZE PUSH1 0x0 REVERT JUMPDEST POP POP POP POP PUSH1 0x40 MLOAD RETURNDATASIZE PUSH1 0x1F NOT PUSH1 0x1F DUP3 ADD AND DUP3 ADD DUP1 PUSH1 0x40 MSTORE POP DUP2 ADD SWAP1 PUSH2 0xF92 SWAP2 SWAP1 PUSH2 0x2976 JUMP JUMPDEST PUSH2 0xE05 JUMPI PUSH1 0x40 MLOAD PUSH3 0x461BCD PUSH1 0xE5 SHL DUP2 MSTORE PUSH1 0x20 PUSH1 0x4 DUP3 ADD MSTORE PUSH1 0x12 PUSH1 0x24 DUP3 ADD MSTORE PUSH18 0x2AB730B13632903A37903A3930B739B332B9 PUSH1 0x71 SHL PUSH1 0x44 DUP3 ADD MSTORE PUSH1 0x64 ADD PUSH2 0x701 JUMP JUMPDEST PUSH1 0x0 PUSH2 0xFDD PUSH2 0x18A4 JUMP JUMPDEST PUSH1 0x0 PUSH2 0xFF9 PUSH1 0x40 MLOAD DUP1 PUSH1 0x20 ADD PUSH1 0x40 MSTORE DUP1 PUSH1 0x0 ISZERO ISZERO DUP2 MSTORE POP PUSH2 0x19EB JUMP JUMPDEST SWAP1 POP PUSH1 0x0 DUP1 PUSH2 0x100F PUSH3 0x1E8480 PUSH1 0x3 PUSH1 0x1 DUP7 PUSH2 0x1A5C JUMP JUMPDEST PUSH1 0x40 DUP1 MLOAD PUSH1 0xA0 DUP2 ADD DUP3 MSTORE CALLER DUP2 MSTORE PUSH1 0x20 DUP1 DUP3 ADD DUP5 DUP2 MSTORE PUSH1 0x0 DUP4 DUP6 ADD DUP2 DUP2 MSTORE DUP6 MLOAD DUP3 DUP2 MSTORE DUP1 DUP6 ADD DUP8 MSTORE PUSH1 0x60 DUP7 ADD SWAP1 DUP2 MSTORE DUP7 MLOAD DUP1 DUP9 ADD DUP9 MSTORE DUP4 DUP2 MSTORE DUP1 DUP7 ADD DUP5 SWAP1 MSTORE PUSH1 0x80 DUP8 ADD MSTORE DUP9 DUP4 MSTORE PUSH1 0x15 DUP6 MSTORE SWAP6 SWAP1 SWAP2 KECCAK256 DUP5 MLOAD DUP2 SLOAD PUSH1 0x1 PUSH1 0x1 PUSH1 0xA0 SHL SUB NOT AND PUSH1 0x1 PUSH1 0x1 PUSH1 0xA0 SHL SUB SWAP1 SWAP2 AND OR DUP2 SSTORE SWAP2 MLOAD PUSH1 0x1 DUP4 ADD SSTORE MLOAD PUSH1 0x2 DUP3 ADD DUP1 SLOAD PUSH1 0xFF NOT AND SWAP2 ISZERO ISZERO SWAP2 SWAP1 SWAP2 OR SWAP1 SSTORE SWAP3 MLOAD DUP1 MLOAD SWAP6 SWAP8 POP SWAP4 SWAP6 POP SWAP1 SWAP4 SWAP2 SWAP3 PUSH2 0x10B5 SWAP3 PUSH1 0x3 DUP6 ADD SWAP3 SWAP2 SWAP1 SWAP2 ADD SWAP1 PUSH2 0x22A8 JUMP JUMPDEST POP PUSH1 0x80 SWAP2 SWAP1 SWAP2 ADD MLOAD DUP1 MLOAD PUSH1 0x4 DUP4 ADD SSTORE PUSH1 0x20 SWAP1 DUP2 ADD MLOAD PUSH1 0x5 SWAP1 SWAP3 ADD SWAP2 SWAP1 SWAP2 SSTORE CALLER PUSH1 0x0 SWAP1 DUP2 MSTORE PUSH1 0x14 DUP3 MSTORE PUSH1 0x40 SWAP1 DUP2 SWAP1 KECCAK256 DUP5 SWAP1 SSTORE DUP1 MLOAD DUP5 DUP2 MSTORE PUSH1 0x1 SWAP3 DUP2 ADD SWAP3 SWAP1 SWAP3 MSTORE PUSH32 0x3279BDE246F2449036F4A5A85E935AE7CB08612C5645C2673490D2FD624683AE SWAP2 ADD PUSH1 0x40 MLOAD DUP1 SWAP2 SUB SWAP1 LOG1 POP SWAP2 POP POP SWAP1 JUMP JUMPDEST PUSH1 0x16 PUSH1 0x20 MSTORE DUP2 PUSH1 0x0 MSTORE PUSH1 0x40 PUSH1 0x0 KECCAK256 DUP2 DUP2 SLOAD DUP2 LT PUSH2 0x1142 JUMPI PUSH1 0x0 DUP1 REVERT JUMPDEST SWAP1 PUSH1 0x0 MSTORE PUSH1 0x20 PUSH1 0x0 KECCAK256 ADD PUSH1 0x0 SWAP2 POP SWAP2 POP POP SLOAD DUP2 JUMP JUMPDEST PUSH2 0x1185 PUSH1 0x40 MLOAD DUP1 PUSH1 0x60 ADD PUSH1 0x40 MSTORE DUP1 CALLER PUSH1 0x1 PUSH1 0x1 PUSH1 0xA0 SHL SUB AND DUP2 MSTORE PUSH1 0x20 ADD DUP4 DUP2 MSTORE PUSH1 0x20 ADD PUSH1 0x2 SLOAD DUP2 MSTORE POP PUSH2 0x1C5F JUMP JUMPDEST PUSH1 0x0 JUMPDEST PUSH1 0x3 DUP2 LT ISZERO PUSH2 0xCF5 JUMPI PUSH1 0x0 PUSH1 0xC DUP3 PUSH1 0x3 DUP2 LT PUSH2 0x11A6 JUMPI PUSH2 0x11A6 PUSH2 0x274E JUMP JUMPDEST PUSH1 0x4 SWAP2 DUP3 DUP3 DIV ADD SWAP2 SWAP1 MOD PUSH1 0x8 MUL SWAP1 SLOAD SWAP1 PUSH2 0x100 EXP SWAP1 DIV PUSH1 0x1 PUSH1 0x1 PUSH1 0x40 SHL SUB AND SWAP1 POP PUSH1 0x0 PUSH1 0xD DUP4 PUSH1 0x3 DUP2 LT PUSH2 0x11DC JUMPI PUSH2 0x11DC PUSH2 0x274E JUMP JUMPDEST ADD SLOAD PUSH1 0x2 SLOAD PUSH1 0x1 PUSH1 0x1 PUSH1 0xA0 SHL SUB SWAP1 SWAP2 AND SWAP2 POP PUSH1 0x1 PUSH1 0x1 PUSH1 0x40 SHL SUB DUP4 AND SWAP1 PUSH1 0xC SWAP1 PUSH1 0x3 DUP2 LT PUSH2 0x120C JUMPI PUSH2 0x120C PUSH2 0x274E JUMP JUMPDEST PUSH1 0x4 SWAP2 DUP3 DUP3 DIV ADD SWAP2 SWAP1 MOD PUSH1 0x8 MUL SWAP1 SLOAD SWAP1 PUSH2 0x100 EXP SWAP1 DIV PUSH1 0x1 PUSH1 0x1 PUSH1 0x40 SHL SUB AND PUSH1 0x1 PUSH1 0x1 PUSH1 0x40 SHL SUB AND EQ ISZERO DUP1 ISZERO PUSH2 0x124A JUMPI POP PUSH1 0x1 PUSH1 0x1 PUSH1 0xA0 SHL SUB DUP2 AND ISZERO ISZERO JUMPDEST ISZERO PUSH2 0x12BF JUMPI PUSH2 0x12BD DUP3 DUP3 PUSH1 0x6 PUSH1 0x2 SLOAD PUSH1 0x3 DUP2 LT PUSH2 0x1269 JUMPI PUSH2 0x1269 PUSH2 0x274E JUMP JUMPDEST ADD SLOAD PUSH1 0x2 SLOAD PUSH1 0x1 PUSH1 0x1 PUSH1 0xA0 SHL SUB SWAP1 SWAP2 AND SWAP1 PUSH1 0x3 SWAP1 DUP2 DUP2 LT PUSH2 0x128C JUMPI PUSH2 0x128C PUSH2 0x274E JUMP JUMPDEST ADD SLOAD PUSH1 0x40 DUP1 MLOAD PUSH1 0x60 DUP2 ADD DUP3 MSTORE CALLER DUP2 MSTORE PUSH1 0x20 DUP2 ADD DUP12 SWAP1 MSTORE PUSH1 0x2 SLOAD SWAP2 DUP2 ADD SWAP2 SWAP1 SWAP2 MSTORE PUSH1 0x1 PUSH1 0x1 PUSH1 0xA0 SHL SUB SWAP1 SWAP2 AND SWAP1 PUSH2 0x1E57 JUMP JUMPDEST POP JUMPDEST POP POP DUP1 DUP1 PUSH2 0x12CC SWAP1 PUSH2 0x277A JUMP JUMPDEST SWAP2 POP POP PUSH2 0x1188 JUMP JUMPDEST PUSH1 0x1C DUP2 PUSH1 0xA DUP2 LT PUSH2 0x12E4 JUMPI PUSH1 0x0 DUP1 REVERT JUMPDEST ADD SLOAD SWAP1 POP DUP2 JUMP JUMPDEST PUSH1 0xD DUP2 PUSH1 0x3 DUP2 LT PUSH2 0x69A JUMPI PUSH1 0x0 DUP1 REVERT JUMPDEST CALLER PUSH1 0x0 SWAP1 DUP2 MSTORE PUSH1 0x16 PUSH1 0x20 SWAP1 DUP2 MSTORE PUSH1 0x40 DUP1 DUP4 KECCAK256 DUP1 SLOAD DUP3 MLOAD DUP2 DUP6 MUL DUP2 ADD DUP6 ADD SWAP1 SWAP4 MSTORE DUP1 DUP4 MSTORE SWAP2 SWAP3 SWAP1 SWAP2 SWAP1 DUP4 ADD DUP3 DUP3 DUP1 ISZERO PUSH2 0x1352 JUMPI PUSH1 0x20 MUL DUP3 ADD SWAP2 SWAP1 PUSH1 0x0 MSTORE PUSH1 0x20 PUSH1 0x0 KECCAK256 SWAP1 JUMPDEST DUP2 SLOAD DUP2 MSTORE PUSH1 0x20 ADD SWAP1 PUSH1 0x1 ADD SWAP1 DUP1 DUP4 GT PUSH2 0x133E JUMPI JUMPDEST POP POP POP POP POP SWAP1 POP PUSH1 0x0 DUP1 JUMPDEST DUP3 MLOAD DUP2 LT ISZERO PUSH2 0x139D JUMPI DUP4 DUP4 DUP3 DUP2 MLOAD DUP2 LT PUSH2 0x1379 JUMPI PUSH2 0x1379 PUSH2 0x274E JUMP JUMPDEST PUSH1 0x20 MUL PUSH1 0x20 ADD ADD MLOAD SUB PUSH2 0x138B JUMPI PUSH1 0x1 SWAP2 POP JUMPDEST DUP1 PUSH2 0x1395 DUP2 PUSH2 0x277A JUMP JUMPDEST SWAP2 POP POP PUSH2 0x135D JUMP JUMPDEST POP DUP1 ISZERO PUSH2 0x13D4 JUMPI CALLER PUSH1 0x0 SWAP1 DUP2 MSTORE PUSH1 0x17 PUSH1 0x20 SWAP1 DUP2 MSTORE PUSH1 0x40 DUP1 DUP4 KECCAK256 DUP7 DUP5 MSTORE SWAP1 SWAP2 MSTORE DUP2 KECCAK256 DUP1 SLOAD SWAP2 PUSH2 0x13CA DUP4 PUSH2 0x277A JUMP JUMPDEST SWAP2 SWAP1 POP SSTORE POP POP POP POP JUMP JUMPDEST POP POP CALLER PUSH1 0x0 SWAP1 DUP2 MSTORE PUSH1 0x16 PUSH1 0x20 SWAP1 DUP2 MSTORE PUSH1 0x40 DUP3 KECCAK256 DUP1 SLOAD PUSH1 0x1 DUP2 ADD DUP3 SSTORE SWAP1 DUP4 MSTORE SWAP2 KECCAK256 ADD SSTORE JUMP JUMPDEST PUSH2 0x1400 PUSH2 0x22F3 JUMP JUMPDEST PUSH2 0x1408 PUSH2 0x22F3 JUMP JUMPDEST PUSH2 0x1410 PUSH2 0x22F3 JUMP JUMPDEST PUSH1 0x3A SLOAD PUSH1 0x40 DUP1 MLOAD PUSH2 0x140 DUP2 ADD SWAP2 DUP3 SWAP1 MSTORE PUSH1 0x0 SWAP3 PUSH1 0x1C SWAP3 PUSH1 0x30 SWAP3 PUSH1 0x26 SWAP3 SWAP2 DUP6 SWAP1 PUSH1 0xA SWAP1 DUP3 DUP5 JUMPDEST DUP2 SLOAD DUP2 MSTORE PUSH1 0x20 ADD SWAP1 PUSH1 0x1 ADD SWAP1 DUP1 DUP4 GT PUSH2 0x1435 JUMPI POP POP PUSH1 0x40 DUP1 MLOAD PUSH2 0x140 DUP2 ADD SWAP2 DUP3 SWAP1 MSTORE SWAP5 SWAP9 POP DUP8 SWAP4 POP PUSH1 0xA SWAP3 POP SWAP1 POP DUP3 DUP5 JUMPDEST DUP2 SLOAD DUP2 MSTORE PUSH1 0x20 ADD SWAP1 PUSH1 0x1 ADD SWAP1 DUP1 DUP4 GT PUSH2 0x1466 JUMPI POP POP PUSH1 0x40 DUP1 MLOAD PUSH2 0x140 DUP2 ADD SWAP2 DUP3 SWAP1 MSTORE SWAP5 SWAP8 POP DUP7 SWAP4 POP PUSH1 0xA SWAP3 POP SWAP1 POP DUP3 DUP5 JUMPDEST DUP2 SLOAD PUSH1 0x1 PUSH1 0x1 PUSH1 0xA0 SHL SUB AND DUP2 MSTORE PUSH1 0x1 SWAP1 SWAP2 ADD SWAP1 PUSH1 0x20 ADD DUP1 DUP4 GT PUSH2 0x1497 JUMPI POP POP POP POP POP SWAP2 POP SWAP4 POP SWAP4 POP SWAP4 POP SWAP4 POP SWAP1 SWAP2 SWAP3 SWAP4 JUMP JUMPDEST PUSH1 0x26 DUP2 PUSH1 0xA DUP2 LT PUSH2 0x69A JUMPI PUSH1 0x0 DUP1 REVERT JUMPDEST PUSH1 0x18 PUSH1 0x20 MSTORE DUP2 PUSH1 0x0 MSTORE PUSH1 0x40 PUSH1 0x0 KECCAK256 DUP2 DUP2 SLOAD DUP2 LT PUSH2 0x1142 JUMPI PUSH1 0x0 DUP1 REVERT JUMPDEST PUSH1 0x30 DUP2 PUSH1 0xA DUP2 LT PUSH2 0x12E4 JUMPI PUSH1 0x0 DUP1 REVERT JUMPDEST PUSH1 0x6 DUP2 PUSH1 0x3 DUP2 LT PUSH2 0x69A JUMPI PUSH1 0x0 DUP1 REVERT JUMPDEST PUSH2 0x151D PUSH2 0x18A4 JUMP JUMPDEST PUSH2 0xE05 DUP2 PUSH2 0x21E1 JUMP JUMPDEST CALLER PUSH1 0x0 SWAP1 DUP2 MSTORE PUSH1 0x18 PUSH1 0x20 SWAP1 DUP2 MSTORE PUSH1 0x40 DUP1 DUP4 KECCAK256 DUP1 SLOAD DUP3 MLOAD DUP2 DUP6 MUL DUP2 ADD DUP6 ADD SWAP1 SWAP4 MSTORE DUP1 DUP4 MSTORE SWAP2 SWAP3 SWAP1 SWAP2 SWAP1 DUP4 ADD DUP3 DUP3 DUP1 ISZERO PUSH2 0x157D JUMPI PUSH1 0x20 MUL DUP3 ADD SWAP2 SWAP1 PUSH1 0x0 MSTORE PUSH1 0x20 PUSH1 0x0 KECCAK256 SWAP1 JUMPDEST DUP2 SLOAD DUP2 MSTORE PUSH1 0x20 ADD SWAP1 PUSH1 0x1 ADD SWAP1 DUP1 DUP4 GT PUSH2 0x1569 JUMPI JUMPDEST POP POP POP POP POP SWAP1 POP PUSH1 0x0 DUP1 JUMPDEST DUP3 MLOAD DUP2 LT ISZERO PUSH2 0x15C8 JUMPI DUP4 DUP4 DUP3 DUP2 MLOAD DUP2 LT PUSH2 0x15A4 JUMPI PUSH2 0x15A4 PUSH2 0x274E JUMP JUMPDEST PUSH1 0x20 MUL PUSH1 0x20 ADD ADD MLOAD SUB PUSH2 0x15B6 JUMPI PUSH1 0x1 SWAP2 POP JUMPDEST DUP1 PUSH2 0x15C0 DUP2 PUSH2 0x277A JUMP JUMPDEST SWAP2 POP POP PUSH2 0x1588 JUMP JUMPDEST POP DUP1 ISZERO PUSH2 0x15F5 JUMPI CALLER PUSH1 0x0 SWAP1 DUP2 MSTORE PUSH1 0x19 PUSH1 0x20 SWAP1 DUP2 MSTORE PUSH1 0x40 DUP1 DUP4 KECCAK256 DUP7 DUP5 MSTORE SWAP1 SWAP2 MSTORE DUP2 KECCAK256 DUP1 SLOAD SWAP2 PUSH2 0x13CA DUP4 PUSH2 0x277A JUMP JUMPDEST POP POP CALLER PUSH1 0x0 SWAP1 DUP2 MSTORE PUSH1 0x18 PUSH1 0x20 SWAP1 DUP2 MSTORE PUSH1 0x40 DUP3 KECCAK256 DUP1 SLOAD PUSH1 0x1 DUP2 ADD DUP3 SSTORE SWAP1 DUP4 MSTORE SWAP2 KECCAK256 ADD SSTORE JUMP JUMPDEST PUSH1 0x0 DUP2 MLOAD GT PUSH2 0x1662 JUMPI PUSH1 0x40 MLOAD PUSH3 0x461BCD PUSH1 0xE5 SHL DUP2 MSTORE PUSH1 0x20 PUSH1 0x4 DUP3 ADD MSTORE PUSH1 0x15 PUSH1 0x24 DUP3 ADD MSTORE PUSH21 0x1C985B991BDB55DBDC991CC81B9BDD08199BDD5B99 PUSH1 0x5A SHL PUSH1 0x44 DUP3 ADD MSTORE PUSH1 0x64 ADD PUSH2 0x701 JUMP JUMPDEST PUSH1 0x0 DUP3 DUP2 MSTORE PUSH1 0x15 PUSH1 0x20 MSTORE PUSH1 0x40 SWAP1 KECCAK256 PUSH1 0x1 ADD SLOAD PUSH2 0x16B4 JUMPI PUSH1 0x40 MLOAD PUSH3 0x461BCD PUSH1 0xE5 SHL DUP2 MSTORE PUSH1 0x20 PUSH1 0x4 DUP3 ADD MSTORE PUSH1 0x11 PUSH1 0x24 DUP3 ADD MSTORE PUSH17 0x1C995C5D595CDD081B9BDD08199BDD5B99 PUSH1 0x7A SHL PUSH1 0x44 DUP3 ADD MSTORE PUSH1 0x64 ADD PUSH2 0x701 JUMP JUMPDEST PUSH1 0x0 PUSH1 0x13 DUP1 SLOAD SWAP1 POP DUP3 PUSH1 0x0 DUP2 MLOAD DUP2 LT PUSH2 0x16CF JUMPI PUSH2 0x16CF PUSH2 0x274E JUMP JUMPDEST PUSH1 0x20 MUL PUSH1 0x20 ADD ADD MLOAD PUSH2 0x16E1 SWAP2 SWAP1 PUSH2 0x29AE JUMP JUMPDEST SWAP1 POP PUSH1 0x0 PUSH1 0x13 DUP3 DUP2 SLOAD DUP2 LT PUSH2 0x16F8 JUMPI PUSH2 0x16F8 PUSH2 0x274E JUMP JUMPDEST PUSH1 0x0 SWAP2 DUP3 MSTORE PUSH1 0x20 DUP1 DUP4 KECCAK256 PUSH1 0x40 DUP1 MLOAD DUP1 DUP3 ADD DUP3 MSTORE PUSH1 0x2 SWAP5 DUP6 MUL SWAP1 SWAP3 ADD DUP1 SLOAD DUP4 MSTORE PUSH1 0x1 SWAP1 DUP2 ADD SLOAD DUP4 DUP6 ADD MSTORE DUP10 DUP7 MSTORE PUSH1 0x15 DUP5 MSTORE SWAP5 KECCAK256 SWAP3 DUP4 ADD DUP1 SLOAD PUSH1 0xFF NOT AND SWAP1 SWAP5 OR SWAP1 SWAP4 SSTORE DUP6 MLOAD SWAP3 SWAP4 POP PUSH2 0x1751 SWAP3 PUSH1 0x3 SWAP1 SWAP3 ADD SWAP2 SWAP1 DUP7 ADD SWAP1 PUSH2 0x22A8 JUMP JUMPDEST POP PUSH1 0x0 DUP5 DUP2 MSTORE PUSH1 0x15 PUSH1 0x20 SWAP1 DUP2 MSTORE PUSH1 0x40 DUP3 KECCAK256 DUP4 MLOAD PUSH1 0x4 DUP3 ADD DUP2 SWAP1 SSTORE SWAP2 DUP5 ADD MLOAD PUSH1 0x5 DUP3 ADD SSTORE SLOAD PUSH1 0x1 PUSH1 0x1 PUSH1 0xA0 SHL SUB AND SWAP2 SUB PUSH2 0x17C8 JUMPI DUP2 PUSH1 0x20 ADD MLOAD PUSH1 0x1A PUSH1 0x0 DUP4 PUSH1 0x1 PUSH1 0x1 PUSH1 0xA0 SHL SUB AND PUSH1 0x1 PUSH1 0x1 PUSH1 0xA0 SHL SUB AND DUP2 MSTORE PUSH1 0x20 ADD SWAP1 DUP2 MSTORE PUSH1 0x20 ADD PUSH1 0x0 KECCAK256 PUSH1 0x0 DUP3 DUP3 SLOAD PUSH2 0x17BD SWAP2 SWAP1 PUSH2 0x29C2 JUMP JUMPDEST SWAP1 SWAP2 SSTORE POP PUSH2 0x184E SWAP1 POP JUMP JUMPDEST DUP2 MLOAD PUSH1 0x1 SUB PUSH2 0x180A JUMPI DUP2 PUSH1 0x20 ADD MLOAD PUSH1 0x1B PUSH1 0x0 DUP4 PUSH1 0x1 PUSH1 0x1 PUSH1 0xA0 SHL SUB AND PUSH1 0x1 PUSH1 0x1 PUSH1 0xA0 SHL SUB AND DUP2 MSTORE PUSH1 0x20 ADD SWAP1 DUP2 MSTORE PUSH1 0x20 ADD PUSH1 0x0 KECCAK256 PUSH1 0x0 DUP3 DUP3 SLOAD PUSH2 0x17BD SWAP2 SWAP1 PUSH2 0x29C2 JUMP JUMPDEST DUP2 MLOAD PUSH1 0x2 EQ PUSH2 0x184E JUMPI DUP2 MLOAD PUSH1 0x3 SUB PUSH2 0x184E JUMPI PUSH1 0x1 PUSH1 0x1 PUSH1 0xA0 SHL SUB DUP2 AND PUSH1 0x0 SWAP1 DUP2 MSTORE PUSH1 0x16 PUSH1 0x20 SWAP1 DUP2 MSTORE PUSH1 0x40 DUP3 KECCAK256 DUP5 DUP3 ADD MLOAD DUP2 SLOAD PUSH1 0x1 DUP2 ADD DUP4 SSTORE SWAP2 DUP5 MSTORE SWAP2 SWAP1 SWAP3 KECCAK256 SWAP1 SWAP2 ADD SSTORE JUMPDEST PUSH1 0x0 DUP6 DUP2 MSTORE PUSH1 0x15 PUSH1 0x20 MSTORE PUSH1 0x40 SWAP1 DUP2 SWAP1 KECCAK256 PUSH1 0x1 ADD SLOAD SWAP1 MLOAD PUSH32 0x8C5EB6455FC6D271F045DB3F6049931E0B5372962417D81DCC38FC0BEBE8D141 SWAP2 PUSH2 0x1895 SWAP2 DUP9 SWAP2 DUP9 SWAP2 DUP8 SWAP1 PUSH2 0x29D5 JUMP JUMPDEST PUSH1 0x40 MLOAD DUP1 SWAP2 SUB SWAP1 LOG1 POP POP POP POP POP JUMP JUMPDEST PUSH1 0x0 SLOAD PUSH1 0x1 PUSH1 0x1 PUSH1 0xA0 SHL SUB AND CALLER EQ PUSH2 0x18F7 JUMPI PUSH1 0x40 MLOAD PUSH3 0x461BCD PUSH1 0xE5 SHL DUP2 MSTORE PUSH1 0x20 PUSH1 0x4 DUP3 ADD MSTORE PUSH1 0x16 PUSH1 0x24 DUP3 ADD MSTORE PUSH22 0x27B7363C9031B0B63630B1363290313C9037BBB732B9 PUSH1 0x51 SHL PUSH1 0x44 DUP3 ADD MSTORE PUSH1 0x64 ADD PUSH2 0x701 JUMP JUMPDEST JUMP JUMPDEST DUP1 PUSH1 0x60 ADD MLOAD DUP1 PUSH1 0x20 ADD SWAP1 MLOAD DUP2 ADD SWAP1 PUSH2 0x1911 SWAP2 SWAP1 PUSH2 0x2A0D JUMP JUMPDEST DUP1 MLOAD PUSH1 0x10 DUP1 SLOAD PUSH1 0x1 PUSH1 0x1 PUSH1 0xA0 SHL SUB NOT AND PUSH1 0x1 PUSH1 0x1 PUSH1 0xA0 SHL SUB SWAP1 SWAP3 AND SWAP2 DUP3 OR SWAP1 SSTORE PUSH1 0x20 DUP1 DUP4 ADD MLOAD PUSH1 0x11 DUP2 SWAP1 SSTORE PUSH1 0x40 SWAP4 DUP5 ADD MLOAD PUSH1 0x12 DUP2 SWAP1 SSTORE DUP5 MLOAD PUSH1 0x60 DUP2 ADD DUP7 MSTORE SWAP4 DUP5 MSTORE SWAP2 DUP4 ADD MSTORE SWAP2 DUP2 ADD SWAP2 SWAP1 SWAP2 MSTORE PUSH2 0x1966 SWAP1 PUSH2 0x1C5F JUMP JUMPDEST DUP1 PUSH1 0x20 ADD MLOAD PUSH1 0x1 PUSH1 0x1 PUSH1 0x40 SHL SUB AND DUP2 PUSH1 0x0 ADD MLOAD PUSH32 0xAA5CBDCF4F25939D41BE3032075952CFD5F51F978A501D2F801D671061623F1D DUP4 PUSH1 0x40 ADD MLOAD DUP1 PUSH1 0x20 ADD SWAP1 MLOAD DUP2 ADD SWAP1 PUSH2 0x19B2 SWAP2 SWAP1 PUSH2 0x2A6E JUMP JUMPDEST PUSH1 0x40 DUP1 MLOAD PUSH1 0x1 PUSH1 0x1 PUSH1 0xA0 SHL SUB SWAP3 DUP4 AND DUP2 MSTORE PUSH1 0x10 SLOAD SWAP1 SWAP3 AND PUSH1 0x20 DUP4 ADD MSTORE PUSH1 0x11 SLOAD SWAP1 DUP3 ADD MSTORE PUSH1 0x12 SLOAD PUSH1 0x60 DUP3 ADD MSTORE PUSH1 0x80 ADD PUSH1 0x40 MLOAD DUP1 SWAP2 SUB SWAP1 LOG3 POP JUMP JUMPDEST PUSH1 0x60 PUSH32 0x92FD13387C7FE7BEFBC38D303D6468778FB9731BC4583F17D92989C6FCFDEAAA DUP3 PUSH1 0x40 MLOAD PUSH1 0x24 ADD PUSH2 0x1A24 SWAP2 MLOAD ISZERO ISZERO DUP2 MSTORE PUSH1 0x20 ADD SWAP1 JUMP JUMPDEST PUSH1 0x40 DUP1 MLOAD PUSH1 0x1F NOT DUP2 DUP5 SUB ADD DUP2 MSTORE SWAP2 SWAP1 MSTORE PUSH1 0x20 DUP2 ADD DUP1 MLOAD PUSH1 0x1 PUSH1 0x1 PUSH1 0xE0 SHL SUB AND PUSH1 0x1 PUSH1 0x1 PUSH1 0xE0 SHL SUB NOT SWAP1 SWAP4 AND SWAP3 SWAP1 SWAP3 OR SWAP1 SWAP2 MSTORE SWAP3 SWAP2 POP POP JUMP JUMPDEST PUSH1 0x40 MLOAD PUSH4 0x13F2E285 PUSH1 0xE1 SHL DUP2 MSTORE PUSH4 0xFFFFFFFF DUP1 DUP7 AND PUSH1 0x4 DUP4 ADD MSTORE DUP4 AND PUSH1 0x24 DUP3 ADD MSTORE PUSH1 0x0 SWAP1 DUP2 SWAP1 PUSH1 0x1 PUSH1 0x1 PUSH1 0xA0 SHL SUB PUSH32 0x0 AND SWAP1 PUSH4 0x27E5C50A SWAP1 PUSH1 0x44 ADD PUSH1 0x20 PUSH1 0x40 MLOAD DUP1 DUP4 SUB DUP2 DUP7 GAS STATICCALL ISZERO DUP1 ISZERO PUSH2 0x1AD3 JUMPI RETURNDATASIZE PUSH1 0x0 DUP1 RETURNDATACOPY RETURNDATASIZE PUSH1 0x0 REVERT JUMPDEST POP POP POP POP PUSH1 0x40 MLOAD RETURNDATASIZE PUSH1 0x1F NOT PUSH1 0x1F DUP3 ADD AND DUP3 ADD DUP1 PUSH1 0x40 MSTORE POP DUP2 ADD SWAP1 PUSH2 0x1AF7 SWAP2 SWAP1 PUSH2 0x295D JUMP JUMPDEST SWAP1 POP PUSH32 0x0 PUSH1 0x1 PUSH1 0x1 PUSH1 0xA0 SHL SUB AND PUSH4 0x4000AEA0 PUSH32 0x0 DUP4 DUP10 DUP10 DUP10 DUP10 PUSH1 0x40 MLOAD PUSH1 0x20 ADD PUSH2 0x1B61 SWAP5 SWAP4 SWAP3 SWAP2 SWAP1 PUSH2 0x2AD1 JUMP JUMPDEST PUSH1 0x40 MLOAD PUSH1 0x20 DUP2 DUP4 SUB SUB DUP2 MSTORE SWAP1 PUSH1 0x40 MSTORE PUSH1 0x40 MLOAD DUP5 PUSH4 0xFFFFFFFF AND PUSH1 0xE0 SHL DUP2 MSTORE PUSH1 0x4 ADD PUSH2 0x1B8E SWAP4 SWAP3 SWAP2 SWAP1 PUSH2 0x2B0E JUMP JUMPDEST PUSH1 0x20 PUSH1 0x40 MLOAD DUP1 DUP4 SUB DUP2 PUSH1 0x0 DUP8 GAS CALL ISZERO DUP1 ISZERO PUSH2 0x1BAD JUMPI RETURNDATASIZE PUSH1 0x0 DUP1 RETURNDATACOPY RETURNDATASIZE PUSH1 0x0 REVERT JUMPDEST POP POP POP POP PUSH1 0x40 MLOAD RETURNDATASIZE PUSH1 0x1F NOT PUSH1 0x1F DUP3 ADD AND DUP3 ADD DUP1 PUSH1 0x40 MSTORE POP DUP2 ADD SWAP1 PUSH2 0x1BD1 SWAP2 SWAP1 PUSH2 0x2976 JUMP JUMPDEST POP PUSH32 0x0 PUSH1 0x1 PUSH1 0x1 PUSH1 0xA0 SHL SUB AND PUSH4 0xFC2A88C3 PUSH1 0x40 MLOAD DUP2 PUSH4 0xFFFFFFFF AND PUSH1 0xE0 SHL DUP2 MSTORE PUSH1 0x4 ADD PUSH1 0x20 PUSH1 0x40 MLOAD DUP1 DUP4 SUB DUP2 DUP7 GAS STATICCALL ISZERO DUP1 ISZERO PUSH2 0x1C30 JUMPI RETURNDATASIZE PUSH1 0x0 DUP1 RETURNDATACOPY RETURNDATASIZE PUSH1 0x0 REVERT JUMPDEST POP POP POP POP PUSH1 0x40 MLOAD RETURNDATASIZE PUSH1 0x1F NOT PUSH1 0x1F DUP3 ADD AND DUP3 ADD DUP1 PUSH1 0x40 MSTORE POP DUP2 ADD SWAP1 PUSH2 0x1C54 SWAP2 SWAP1 PUSH2 0x295D JUMP JUMPDEST SWAP2 POP SWAP5 POP SWAP5 SWAP3 POP POP POP JUMP JUMPDEST PUSH1 0x20 DUP2 ADD MLOAD DUP2 MLOAD PUSH1 0x40 DUP4 ADD MLOAD DUP3 PUSH1 0x1C PUSH2 0x1C7A PUSH1 0x1 PUSH1 0xA PUSH2 0x2B35 JUMP JUMPDEST PUSH1 0xA DUP2 LT PUSH2 0x1C8A JUMPI PUSH2 0x1C8A PUSH2 0x274E JUMP JUMPDEST ADD SLOAD LT ISZERO PUSH2 0x1E4D JUMPI PUSH1 0x0 DUP1 PUSH2 0x1CA1 PUSH1 0x1 PUSH1 0xA PUSH2 0x2B35 JUMP JUMPDEST SWAP1 POP PUSH1 0x0 JUMPDEST DUP2 DUP4 LT ISZERO PUSH2 0x1CFC JUMPI PUSH1 0x2 PUSH2 0x1CBA DUP4 DUP6 PUSH2 0x29C2 JUMP JUMPDEST PUSH2 0x1CC4 SWAP2 SWAP1 PUSH2 0x2B48 JUMP JUMPDEST SWAP1 POP DUP6 PUSH1 0x1C DUP3 PUSH1 0xA DUP2 LT PUSH2 0x1CDA JUMPI PUSH2 0x1CDA PUSH2 0x274E JUMP JUMPDEST ADD SLOAD LT ISZERO PUSH2 0x1CEA JUMPI DUP1 SWAP2 POP PUSH2 0x1CA6 JUMP JUMPDEST PUSH2 0x1CF5 DUP2 PUSH1 0x1 PUSH2 0x29C2 JUMP JUMPDEST SWAP3 POP PUSH2 0x1CA6 JUMP JUMPDEST PUSH1 0x0 PUSH2 0x1D0A PUSH1 0x1 PUSH1 0xA PUSH2 0x2B35 JUMP JUMPDEST SWAP1 POP JUMPDEST DUP4 DUP2 GT ISZERO PUSH2 0x1DE9 JUMPI PUSH1 0x1C PUSH2 0x1D22 PUSH1 0x1 DUP4 PUSH2 0x2B35 JUMP JUMPDEST PUSH1 0xA DUP2 LT PUSH2 0x1D32 JUMPI PUSH2 0x1D32 PUSH2 0x274E JUMP JUMPDEST ADD SLOAD PUSH1 0x1C DUP3 PUSH1 0xA DUP2 LT PUSH2 0x1D47 JUMPI PUSH2 0x1D47 PUSH2 0x274E JUMP JUMPDEST ADD SSTORE PUSH1 0x26 PUSH2 0x1D56 PUSH1 0x1 DUP4 PUSH2 0x2B35 JUMP JUMPDEST PUSH1 0xA DUP2 LT PUSH2 0x1D66 JUMPI PUSH2 0x1D66 PUSH2 0x274E JUMP JUMPDEST ADD SLOAD PUSH1 0x1 PUSH1 0x1 PUSH1 0xA0 SHL SUB AND PUSH1 0x26 DUP3 PUSH1 0xA DUP2 LT PUSH2 0x1D84 JUMPI PUSH2 0x1D84 PUSH2 0x274E JUMP JUMPDEST ADD DUP1 SLOAD PUSH1 0x1 PUSH1 0x1 PUSH1 0xA0 SHL SUB NOT AND PUSH1 0x1 PUSH1 0x1 PUSH1 0xA0 SHL SUB SWAP3 SWAP1 SWAP3 AND SWAP2 SWAP1 SWAP2 OR SWAP1 SSTORE PUSH1 0x30 PUSH2 0x1DB0 PUSH1 0x1 DUP4 PUSH2 0x2B35 JUMP JUMPDEST PUSH1 0xA DUP2 LT PUSH2 0x1DC0 JUMPI PUSH2 0x1DC0 PUSH2 0x274E JUMP JUMPDEST ADD SLOAD PUSH1 0x30 DUP3 PUSH1 0xA DUP2 LT PUSH2 0x1DD5 JUMPI PUSH2 0x1DD5 PUSH2 0x274E JUMP JUMPDEST ADD SSTORE DUP1 PUSH2 0x1DE1 DUP2 PUSH2 0x2B5C JUMP JUMPDEST SWAP2 POP POP PUSH2 0x1D0D JUMP JUMPDEST POP DUP6 PUSH1 0x1C DUP5 PUSH1 0xA DUP2 LT PUSH2 0x1DFE JUMPI PUSH2 0x1DFE PUSH2 0x274E JUMP JUMPDEST ADD SSTORE DUP5 PUSH1 0x26 DUP5 PUSH1 0xA DUP2 LT PUSH2 0x1E14 JUMPI PUSH2 0x1E14 PUSH2 0x274E JUMP JUMPDEST ADD DUP1 SLOAD PUSH1 0x1 PUSH1 0x1 PUSH1 0xA0 SHL SUB NOT AND PUSH1 0x1 PUSH1 0x1 PUSH1 0xA0 SHL SUB SWAP3 SWAP1 SWAP3 AND SWAP2 SWAP1 SWAP2 OR SWAP1 SSTORE DUP4 PUSH1 0x30 DUP5 PUSH1 0xA DUP2 LT PUSH2 0x1E47 JUMPI PUSH2 0x1E47 PUSH2 0x274E JUMP JUMPDEST ADD SSTORE POP POP POP JUMPDEST POP POP TIMESTAMP PUSH1 0x3A SSTORE POP POP JUMP JUMPDEST PUSH1 0x40 DUP1 MLOAD PUSH1 0xA0 DUP2 ADD SWAP1 SWAP2 MSTORE PUSH1 0x1 PUSH1 0x1 PUSH1 0xA0 SHL SUB DUP6 AND PUSH1 0xC0 DUP3 ADD MSTORE PUSH1 0x0 SWAP1 DUP5 SWAP1 DUP5 SWAP1 DUP4 SWAP1 DUP1 PUSH1 0xE0 DUP2 ADD PUSH1 0x40 MLOAD PUSH1 0x20 DUP2 DUP4 SUB SUB DUP2 MSTORE SWAP1 PUSH1 0x40 MSTORE DUP2 MSTORE PUSH1 0x20 ADD DUP7 PUSH1 0x40 MLOAD PUSH1 0x20 ADD PUSH2 0x1EA4 SWAP2 SWAP1 PUSH2 0x2B73 JUMP JUMPDEST PUSH1 0x40 DUP1 MLOAD PUSH1 0x1F NOT DUP2 DUP5 SUB ADD DUP2 MSTORE SWAP2 SWAP1 MSTORE DUP2 MSTORE PUSH1 0x20 ADD PUSH1 0x0 PUSH1 0x40 MLOAD SWAP1 DUP1 DUP3 MSTORE DUP1 PUSH1 0x20 MUL PUSH1 0x20 ADD DUP3 ADD PUSH1 0x40 MSTORE DUP1 ISZERO PUSH2 0x1F00 JUMPI DUP2 PUSH1 0x20 ADD JUMPDEST PUSH1 0x40 DUP1 MLOAD DUP1 DUP3 ADD SWAP1 SWAP2 MSTORE PUSH1 0x0 DUP1 DUP3 MSTORE PUSH1 0x20 DUP3 ADD MSTORE DUP2 MSTORE PUSH1 0x20 ADD SWAP1 PUSH1 0x1 SWAP1 SUB SWAP1 DUP2 PUSH2 0x1ED9 JUMPI SWAP1 POP JUMPDEST POP DUP2 MSTORE PUSH1 0x20 ADD DUP9 PUSH1 0x1 PUSH1 0x1 PUSH1 0xA0 SHL SUB AND DUP2 MSTORE PUSH1 0x20 ADD PUSH2 0x1F2F PUSH1 0x40 MLOAD DUP1 PUSH1 0x20 ADD PUSH1 0x40 MSTORE DUP1 PUSH3 0x30D40 DUP2 MSTORE POP PUSH2 0x228A JUMP JUMPDEST SWAP1 MSTORE PUSH1 0x40 MLOAD PUSH4 0x20487DED PUSH1 0xE0 SHL DUP2 MSTORE SWAP1 SWAP2 POP PUSH1 0x0 SWAP1 PUSH1 0x1 PUSH1 0x1 PUSH1 0xA0 SHL SUB DUP5 AND SWAP1 PUSH4 0x20487DED SWAP1 PUSH2 0x1F65 SWAP1 DUP14 SWAP1 DUP7 SWAP1 PUSH1 0x4 ADD PUSH2 0x2B9D JUMP JUMPDEST PUSH1 0x20 PUSH1 0x40 MLOAD DUP1 DUP4 SUB DUP2 DUP7 GAS STATICCALL ISZERO DUP1 ISZERO PUSH2 0x1F82 JUMPI RETURNDATASIZE PUSH1 0x0 DUP1 RETURNDATACOPY RETURNDATASIZE PUSH1 0x0 REVERT JUMPDEST POP POP POP POP PUSH1 0x40 MLOAD RETURNDATASIZE PUSH1 0x1F NOT PUSH1 0x1F DUP3 ADD AND DUP3 ADD DUP1 PUSH1 0x40 MSTORE POP DUP2 ADD SWAP1 PUSH2 0x1FA6 SWAP2 SWAP1 PUSH2 0x295D JUMP JUMPDEST PUSH1 0x40 MLOAD PUSH4 0x70A08231 PUSH1 0xE0 SHL DUP2 MSTORE ADDRESS PUSH1 0x4 DUP3 ADD MSTORE SWAP1 SWAP2 POP PUSH1 0x1 PUSH1 0x1 PUSH1 0xA0 SHL SUB DUP6 AND SWAP1 PUSH4 0x70A08231 SWAP1 PUSH1 0x24 ADD PUSH1 0x20 PUSH1 0x40 MLOAD DUP1 DUP4 SUB DUP2 DUP7 GAS STATICCALL ISZERO DUP1 ISZERO PUSH2 0x1FED JUMPI RETURNDATASIZE PUSH1 0x0 DUP1 RETURNDATACOPY RETURNDATASIZE PUSH1 0x0 REVERT JUMPDEST POP POP POP POP PUSH1 0x40 MLOAD RETURNDATASIZE PUSH1 0x1F NOT PUSH1 0x1F DUP3 ADD AND DUP3 ADD DUP1 PUSH1 0x40 MSTORE POP DUP2 ADD SWAP1 PUSH2 0x2011 SWAP2 SWAP1 PUSH2 0x295D JUMP JUMPDEST DUP2 GT ISZERO PUSH2 0x20A4 JUMPI PUSH1 0x40 MLOAD PUSH4 0x70A08231 PUSH1 0xE0 SHL DUP2 MSTORE ADDRESS PUSH1 0x4 DUP3 ADD MSTORE PUSH1 0x1 PUSH1 0x1 PUSH1 0xA0 SHL SUB DUP6 AND SWAP1 PUSH4 0x70A08231 SWAP1 PUSH1 0x24 ADD PUSH1 0x20 PUSH1 0x40 MLOAD DUP1 DUP4 SUB DUP2 DUP7 GAS STATICCALL ISZERO DUP1 ISZERO PUSH2 0x205C JUMPI RETURNDATASIZE PUSH1 0x0 DUP1 RETURNDATACOPY RETURNDATASIZE PUSH1 0x0 REVERT JUMPDEST POP POP POP POP PUSH1 0x40 MLOAD RETURNDATASIZE PUSH1 0x1F NOT PUSH1 0x1F DUP3 ADD AND DUP3 ADD DUP1 PUSH1 0x40 MSTORE POP DUP2 ADD SWAP1 PUSH2 0x2080 SWAP2 SWAP1 PUSH2 0x295D JUMP JUMPDEST PUSH1 0x40 MLOAD PUSH4 0x4787A103 PUSH1 0xE1 SHL DUP2 MSTORE PUSH1 0x4 DUP2 ADD SWAP2 SWAP1 SWAP2 MSTORE PUSH1 0x24 DUP2 ADD DUP3 SWAP1 MSTORE PUSH1 0x44 ADD PUSH2 0x701 JUMP JUMPDEST PUSH1 0x40 MLOAD PUSH4 0x95EA7B3 PUSH1 0xE0 SHL DUP2 MSTORE PUSH1 0x1 PUSH1 0x1 PUSH1 0xA0 SHL SUB DUP5 DUP2 AND PUSH1 0x4 DUP4 ADD MSTORE PUSH1 0x24 DUP3 ADD DUP4 SWAP1 MSTORE DUP6 AND SWAP1 PUSH4 0x95EA7B3 SWAP1 PUSH1 0x44 ADD PUSH1 0x20 PUSH1 0x40 MLOAD DUP1 DUP4 SUB DUP2 PUSH1 0x0 DUP8 GAS CALL ISZERO DUP1 ISZERO PUSH2 0x20F3 JUMPI RETURNDATASIZE PUSH1 0x0 DUP1 RETURNDATACOPY RETURNDATASIZE PUSH1 0x0 REVERT JUMPDEST POP POP POP POP PUSH1 0x40 MLOAD RETURNDATASIZE PUSH1 0x1F NOT PUSH1 0x1F DUP3 ADD AND DUP3 ADD DUP1 PUSH1 0x40 MSTORE POP DUP2 ADD SWAP1 PUSH2 0x2117 SWAP2 SWAP1 PUSH2 0x2976 JUMP JUMPDEST POP PUSH1 0x40 MLOAD PUSH4 0x96F4E9F9 PUSH1 0xE0 SHL DUP2 MSTORE PUSH1 0x1 PUSH1 0x1 PUSH1 0xA0 SHL SUB DUP5 AND SWAP1 PUSH4 0x96F4E9F9 SWAP1 PUSH2 0x2146 SWAP1 DUP14 SWAP1 DUP7 SWAP1 PUSH1 0x4 ADD PUSH2 0x2B9D JUMP JUMPDEST PUSH1 0x20 PUSH1 0x40 MLOAD DUP1 DUP4 SUB DUP2 PUSH1 0x0 DUP8 GAS CALL ISZERO DUP1 ISZERO PUSH2 0x2165 JUMPI RETURNDATASIZE PUSH1 0x0 DUP1 RETURNDATACOPY RETURNDATASIZE PUSH1 0x0 REVERT JUMPDEST POP POP POP POP PUSH1 0x40 MLOAD RETURNDATASIZE PUSH1 0x1F NOT PUSH1 0x1F DUP3 ADD AND DUP3 ADD DUP1 PUSH1 0x40 MSTORE POP DUP2 ADD SWAP1 PUSH2 0x2189 SWAP2 SWAP1 PUSH2 0x295D JUMP JUMPDEST SWAP5 POP DUP10 PUSH1 0x1 PUSH1 0x1 PUSH1 0x40 SHL SUB AND DUP6 PUSH32 0xD0D85F1CC5AB17F712B6074D702EDD6281031E603C5CF76890A85B1170045B3A DUP12 DUP10 DUP13 DUP7 PUSH1 0x40 MLOAD PUSH2 0x21CB SWAP5 SWAP4 SWAP3 SWAP2 SWAP1 PUSH2 0x2C76 JUMP JUMPDEST PUSH1 0x40 MLOAD DUP1 SWAP2 SUB SWAP1 LOG3 POP POP POP POP JUMPDEST SWAP6 SWAP5 POP POP POP POP POP JUMP JUMPDEST CALLER PUSH1 0x1 PUSH1 0x1 PUSH1 0xA0 SHL SUB DUP3 AND SUB PUSH2 0x2239 JUMPI PUSH1 0x40 MLOAD PUSH3 0x461BCD PUSH1 0xE5 SHL DUP2 MSTORE PUSH1 0x20 PUSH1 0x4 DUP3 ADD MSTORE PUSH1 0x17 PUSH1 0x24 DUP3 ADD MSTORE PUSH32 0x43616E6E6F74207472616E7366657220746F2073656C66000000000000000000 PUSH1 0x44 DUP3 ADD MSTORE PUSH1 0x64 ADD PUSH2 0x701 JUMP JUMPDEST PUSH1 0x1 DUP1 SLOAD PUSH1 0x1 PUSH1 0x1 PUSH1 0xA0 SHL SUB NOT AND PUSH1 0x1 PUSH1 0x1 PUSH1 0xA0 SHL SUB DUP4 DUP2 AND SWAP2 DUP3 OR SWAP1 SWAP3 SSTORE PUSH1 0x0 DUP1 SLOAD PUSH1 0x40 MLOAD SWAP3 SWAP4 AND SWAP2 PUSH32 0xED8889F560326EB138920D842192F0EB3DD22B4F139C87A2C57538E05BAE1278 SWAP2 SWAP1 LOG3 POP JUMP JUMPDEST PUSH1 0x40 MLOAD DUP2 MLOAD PUSH1 0x24 DUP3 ADD MSTORE PUSH1 0x60 SWAP1 PUSH4 0x97A657C9 PUSH1 0xE0 SHL SWAP1 PUSH1 0x44 ADD PUSH2 0x1A24 JUMP JUMPDEST DUP3 DUP1 SLOAD DUP3 DUP3 SSTORE SWAP1 PUSH1 0x0 MSTORE PUSH1 0x20 PUSH1 0x0 KECCAK256 SWAP1 DUP2 ADD SWAP3 DUP3 ISZERO PUSH2 0x22E3 JUMPI SWAP2 PUSH1 0x20 MUL DUP3 ADD JUMPDEST DUP3 DUP2 GT ISZERO PUSH2 0x22E3 JUMPI DUP3 MLOAD DUP3 SSTORE SWAP2 PUSH1 0x20 ADD SWAP2 SWAP1 PUSH1 0x1 ADD SWAP1 PUSH2 0x22C8 JUMP JUMPDEST POP PUSH2 0x22EF SWAP3 SWAP2 POP PUSH2 0x2312 JUMP JUMPDEST POP SWAP1 JUMP JUMPDEST PUSH1 0x40 MLOAD DUP1 PUSH2 0x140 ADD PUSH1 0x40 MSTORE DUP1 PUSH1 0xA SWAP1 PUSH1 0x20 DUP3 MUL DUP1 CALLDATASIZE DUP4 CALLDATACOPY POP SWAP2 SWAP3 SWAP2 POP POP JUMP JUMPDEST JUMPDEST DUP1 DUP3 GT ISZERO PUSH2 0x22EF JUMPI PUSH1 0x0 DUP2 SSTORE PUSH1 0x1 ADD PUSH2 0x2313 JUMP JUMPDEST PUSH1 0x0 PUSH1 0x20 DUP3 DUP5 SUB SLT ISZERO PUSH2 0x2339 JUMPI PUSH1 0x0 DUP1 REVERT JUMPDEST DUP2 CALLDATALOAD PUSH1 0x1 PUSH1 0x1 PUSH1 0xE0 SHL SUB NOT DUP2 AND DUP2 EQ PUSH2 0x2351 JUMPI PUSH1 0x0 DUP1 REVERT JUMPDEST SWAP4 SWAP3 POP POP POP JUMP JUMPDEST PUSH1 0x0 PUSH1 0x20 DUP3 DUP5 SUB SLT ISZERO PUSH2 0x236A JUMPI PUSH1 0x0 DUP1 REVERT JUMPDEST POP CALLDATALOAD SWAP2 SWAP1 POP JUMP JUMPDEST PUSH4 0x4E487B71 PUSH1 0xE0 SHL PUSH1 0x0 MSTORE PUSH1 0x41 PUSH1 0x4 MSTORE PUSH1 0x24 PUSH1 0x0 REVERT JUMPDEST PUSH1 0x40 DUP1 MLOAD SWAP1 DUP2 ADD PUSH1 0x1 PUSH1 0x1 PUSH1 0x40 SHL SUB DUP2 GT DUP3 DUP3 LT OR ISZERO PUSH2 0x23A9 JUMPI PUSH2 0x23A9 PUSH2 0x2371 JUMP JUMPDEST PUSH1 0x40 MSTORE SWAP1 JUMP JUMPDEST PUSH1 0x40 MLOAD PUSH1 0xA0 DUP2 ADD PUSH1 0x1 PUSH1 0x1 PUSH1 0x40 SHL SUB DUP2 GT DUP3 DUP3 LT OR ISZERO PUSH2 0x23A9 JUMPI PUSH2 0x23A9 PUSH2 0x2371 JUMP JUMPDEST PUSH1 0x40 MLOAD PUSH1 0x1F DUP3 ADD PUSH1 0x1F NOT AND DUP2 ADD PUSH1 0x1 PUSH1 0x1 PUSH1 0x40 SHL SUB DUP2 GT DUP3 DUP3 LT OR ISZERO PUSH2 0x23F9 JUMPI PUSH2 0x23F9 PUSH2 0x2371 JUMP JUMPDEST PUSH1 0x40 MSTORE SWAP2 SWAP1 POP JUMP JUMPDEST PUSH1 0x0 PUSH1 0x1 PUSH1 0x1 PUSH1 0x40 SHL SUB DUP3 GT ISZERO PUSH2 0x241A JUMPI PUSH2 0x241A PUSH2 0x2371 JUMP JUMPDEST POP PUSH1 0x5 SHL PUSH1 0x20 ADD SWAP1 JUMP JUMPDEST PUSH1 0x0 DUP1 PUSH1 0x40 DUP4 DUP6 SUB SLT ISZERO PUSH2 0x2437 JUMPI PUSH1 0x0 DUP1 REVERT JUMPDEST DUP3 CALLDATALOAD SWAP2 POP PUSH1 0x20 DUP1 DUP5 ADD CALLDATALOAD PUSH1 0x1 PUSH1 0x1 PUSH1 0x40 SHL SUB DUP2 GT ISZERO PUSH2 0x2455 JUMPI PUSH1 0x0 DUP1 REVERT JUMPDEST DUP5 ADD PUSH1 0x1F DUP2 ADD DUP7 SGT PUSH2 0x2466 JUMPI PUSH1 0x0 DUP1 REVERT JUMPDEST DUP1 CALLDATALOAD PUSH2 0x2479 PUSH2 0x2474 DUP3 PUSH2 0x2401 JUMP JUMPDEST PUSH2 0x23D1 JUMP JUMPDEST DUP2 DUP2 MSTORE PUSH1 0x5 SWAP2 SWAP1 SWAP2 SHL DUP3 ADD DUP4 ADD SWAP1 DUP4 DUP2 ADD SWAP1 DUP9 DUP4 GT ISZERO PUSH2 0x2498 JUMPI PUSH1 0x0 DUP1 REVERT JUMPDEST SWAP3 DUP5 ADD SWAP3 JUMPDEST DUP3 DUP5 LT ISZERO PUSH2 0x24B6 JUMPI DUP4 CALLDATALOAD DUP3 MSTORE SWAP3 DUP5 ADD SWAP3 SWAP1 DUP5 ADD SWAP1 PUSH2 0x249D JUMP JUMPDEST DUP1 SWAP6 POP POP POP POP POP POP SWAP3 POP SWAP3 SWAP1 POP JUMP JUMPDEST DUP4 DUP2 MSTORE DUP3 ISZERO ISZERO PUSH1 0x20 DUP3 ADD MSTORE PUSH1 0x80 DUP2 ADD PUSH2 0x24EB PUSH1 0x40 DUP4 ADD DUP5 DUP1 MLOAD DUP3 MSTORE PUSH1 0x20 SWAP1 DUP2 ADD MLOAD SWAP2 ADD MSTORE JUMP JUMPDEST SWAP5 SWAP4 POP POP POP POP JUMP JUMPDEST PUSH1 0x0 DUP2 MLOAD DUP1 DUP5 MSTORE PUSH1 0x20 DUP1 DUP6 ADD SWAP5 POP DUP1 DUP5 ADD PUSH1 0x0 JUMPDEST DUP4 DUP2 LT ISZERO PUSH2 0x2523 JUMPI DUP2 MLOAD DUP8 MSTORE SWAP6 DUP3 ADD SWAP6 SWAP1 DUP3 ADD SWAP1 PUSH1 0x1 ADD PUSH2 0x2507 JUMP JUMPDEST POP SWAP5 SWAP6 SWAP5 POP POP POP POP POP JUMP JUMPDEST DUP5 DUP2 MSTORE DUP4 PUSH1 0x20 DUP3 ADD MSTORE PUSH1 0x80 PUSH1 0x40 DUP3 ADD MSTORE PUSH1 0x0 PUSH2 0x254D PUSH1 0x80 DUP4 ADD DUP6 PUSH2 0x24F3 JUMP JUMPDEST DUP3 DUP2 SUB PUSH1 0x60 DUP5 ADD MSTORE PUSH2 0x255F DUP2 DUP6 PUSH2 0x24F3 JUMP JUMPDEST SWAP8 SWAP7 POP POP POP POP POP POP POP JUMP JUMPDEST PUSH1 0x1 PUSH1 0x1 PUSH1 0xA0 SHL SUB DUP2 AND DUP2 EQ PUSH2 0xE05 JUMPI PUSH1 0x0 DUP1 REVERT JUMPDEST PUSH1 0x0 PUSH1 0x20 DUP1 DUP4 DUP6 SUB SLT ISZERO PUSH2 0x2592 JUMPI PUSH1 0x0 DUP1 REVERT JUMPDEST DUP3 CALLDATALOAD PUSH1 0x1 PUSH1 0x1 PUSH1 0x40 SHL SUB DUP2 GT ISZERO PUSH2 0x25A8 JUMPI PUSH1 0x0 DUP1 REVERT JUMPDEST DUP4 ADD PUSH1 0x1F DUP2 ADD DUP6 SGT PUSH2 0x25B9 JUMPI PUSH1 0x0 DUP1 REVERT JUMPDEST DUP1 CALLDATALOAD PUSH2 0x25C7 PUSH2 0x2474 DUP3 PUSH2 0x2401 JUMP JUMPDEST DUP2 DUP2 MSTORE PUSH1 0x5 SWAP2 SWAP1 SWAP2 SHL DUP3 ADD DUP4 ADD SWAP1 DUP4 DUP2 ADD SWAP1 DUP8 DUP4 GT ISZERO PUSH2 0x25E6 JUMPI PUSH1 0x0 DUP1 REVERT JUMPDEST SWAP3 DUP5 ADD SWAP3 JUMPDEST DUP3 DUP5 LT ISZERO PUSH2 0x255F JUMPI DUP4 CALLDATALOAD PUSH2 0x25FE DUP2 PUSH2 0x256A JUMP JUMPDEST DUP3 MSTORE SWAP3 DUP5 ADD SWAP3 SWAP1 DUP5 ADD SWAP1 PUSH2 0x25EB JUMP JUMPDEST PUSH1 0x1 PUSH1 0x1 PUSH1 0xA0 SHL SUB DUP6 AND DUP2 MSTORE PUSH1 0x20 DUP1 DUP3 ADD DUP6 SWAP1 MSTORE DUP4 ISZERO ISZERO PUSH1 0x40 DUP4 ADD MSTORE DUP3 MLOAD PUSH1 0x60 DUP4 ADD MSTORE DUP3 ADD MLOAD PUSH1 0x80 DUP3 ADD MSTORE PUSH1 0xA0 DUP2 ADD PUSH2 0x21D8 JUMP JUMPDEST PUSH1 0x0 PUSH1 0x20 DUP3 DUP5 SUB SLT ISZERO PUSH2 0x2653 JUMPI PUSH1 0x0 DUP1 REVERT JUMPDEST DUP2 CALLDATALOAD PUSH1 0x1 PUSH1 0x1 PUSH1 0x40 SHL SUB DUP2 GT ISZERO PUSH2 0x2669 JUMPI PUSH1 0x0 DUP1 REVERT JUMPDEST DUP3 ADD PUSH1 0xA0 DUP2 DUP6 SUB SLT ISZERO PUSH2 0x2351 JUMPI PUSH1 0x0 DUP1 REVERT JUMPDEST PUSH1 0x0 PUSH1 0x20 DUP3 DUP5 SUB SLT ISZERO PUSH2 0x268D JUMPI PUSH1 0x0 DUP1 REVERT JUMPDEST DUP2 CALLDATALOAD PUSH2 0x2351 DUP2 PUSH2 0x256A JUMP JUMPDEST PUSH1 0x0 DUP1 PUSH1 0x40 DUP4 DUP6 SUB SLT ISZERO PUSH2 0x26AB JUMPI PUSH1 0x0 DUP1 REVERT JUMPDEST DUP3 CALLDATALOAD PUSH2 0x26B6 DUP2 PUSH2 0x256A JUMP JUMPDEST SWAP5 PUSH1 0x20 SWAP4 SWAP1 SWAP4 ADD CALLDATALOAD SWAP4 POP POP POP JUMP JUMPDEST DUP1 PUSH1 0x0 JUMPDEST PUSH1 0xA DUP2 LT ISZERO PUSH2 0x26E7 JUMPI DUP2 MLOAD DUP5 MSTORE PUSH1 0x20 SWAP4 DUP5 ADD SWAP4 SWAP1 SWAP2 ADD SWAP1 PUSH1 0x1 ADD PUSH2 0x26C8 JUMP JUMPDEST POP POP POP POP JUMP JUMPDEST PUSH2 0x3E0 DUP2 ADD PUSH2 0x26FC DUP3 DUP8 PUSH2 0x26C4 JUMP JUMPDEST PUSH2 0x270A PUSH2 0x140 DUP4 ADD DUP7 PUSH2 0x26C4 JUMP JUMPDEST PUSH2 0x280 DUP3 ADD DUP5 PUSH1 0x0 JUMPDEST PUSH1 0xA DUP2 LT ISZERO PUSH2 0x273B JUMPI DUP2 MLOAD PUSH1 0x1 PUSH1 0x1 PUSH1 0xA0 SHL SUB AND DUP4 MSTORE PUSH1 0x20 SWAP3 DUP4 ADD SWAP3 SWAP1 SWAP2 ADD SWAP1 PUSH1 0x1 ADD PUSH2 0x2713 JUMP JUMPDEST POP POP POP DUP3 PUSH2 0x3C0 DUP4 ADD MSTORE SWAP6 SWAP5 POP POP POP POP POP JUMP JUMPDEST PUSH4 0x4E487B71 PUSH1 0xE0 SHL PUSH1 0x0 MSTORE PUSH1 0x32 PUSH1 0x4 MSTORE PUSH1 0x24 PUSH1 0x0 REVERT JUMPDEST PUSH4 0x4E487B71 PUSH1 0xE0 SHL PUSH1 0x0 MSTORE PUSH1 0x11 PUSH1 0x4 MSTORE PUSH1 0x24 PUSH1 0x0 REVERT JUMPDEST PUSH1 0x0 PUSH1 0x1 DUP3 ADD PUSH2 0x278C JUMPI PUSH2 0x278C PUSH2 0x2764 JUMP JUMPDEST POP PUSH1 0x1 ADD SWAP1 JUMP JUMPDEST DUP1 CALLDATALOAD PUSH1 0x1 PUSH1 0x1 PUSH1 0x40 SHL SUB DUP2 AND DUP2 EQ PUSH2 0x27AA JUMPI PUSH1 0x0 DUP1 REVERT JUMPDEST SWAP2 SWAP1 POP JUMP JUMPDEST PUSH1 0x0 DUP3 PUSH1 0x1F DUP4 ADD SLT PUSH2 0x27C0 JUMPI PUSH1 0x0 DUP1 REVERT JUMPDEST DUP2 CALLDATALOAD PUSH1 0x1 PUSH1 0x1 PUSH1 0x40 SHL SUB DUP2 GT ISZERO PUSH2 0x27D9 JUMPI PUSH2 0x27D9 PUSH2 0x2371 JUMP JUMPDEST PUSH2 0x27EC PUSH1 0x1F DUP3 ADD PUSH1 0x1F NOT AND PUSH1 0x20 ADD PUSH2 0x23D1 JUMP JUMPDEST DUP2 DUP2 MSTORE DUP5 PUSH1 0x20 DUP4 DUP7 ADD ADD GT ISZERO PUSH2 0x2801 JUMPI PUSH1 0x0 DUP1 REVERT JUMPDEST DUP2 PUSH1 0x20 DUP6 ADD PUSH1 0x20 DUP4 ADD CALLDATACOPY PUSH1 0x0 SWAP2 DUP2 ADD PUSH1 0x20 ADD SWAP2 SWAP1 SWAP2 MSTORE SWAP4 SWAP3 POP POP POP JUMP JUMPDEST PUSH1 0x0 DUP3 PUSH1 0x1F DUP4 ADD SLT PUSH2 0x282F JUMPI PUSH1 0x0 DUP1 REVERT JUMPDEST DUP2 CALLDATALOAD PUSH1 0x20 PUSH2 0x283F PUSH2 0x2474 DUP4 PUSH2 0x2401 JUMP JUMPDEST DUP3 DUP2 MSTORE PUSH1 0x6 SWAP3 SWAP1 SWAP3 SHL DUP5 ADD DUP2 ADD SWAP2 DUP2 DUP2 ADD SWAP1 DUP7 DUP5 GT ISZERO PUSH2 0x285E JUMPI PUSH1 0x0 DUP1 REVERT JUMPDEST DUP3 DUP7 ADD JUMPDEST DUP5 DUP2 LT ISZERO PUSH2 0x28A6 JUMPI PUSH1 0x40 DUP2 DUP10 SUB SLT ISZERO PUSH2 0x287B JUMPI PUSH1 0x0 DUP1 DUP2 REVERT JUMPDEST PUSH2 0x2883 PUSH2 0x2387 JUMP JUMPDEST DUP2 CALLDATALOAD PUSH2 0x288E DUP2 PUSH2 0x256A JUMP JUMPDEST DUP2 MSTORE DUP2 DUP6 ADD CALLDATALOAD DUP6 DUP3 ADD MSTORE DUP4 MSTORE SWAP2 DUP4 ADD SWAP2 PUSH1 0x40 ADD PUSH2 0x2862 JUMP JUMPDEST POP SWAP7 SWAP6 POP POP POP POP POP POP JUMP JUMPDEST PUSH1 0x0 PUSH1 0xA0 DUP3 CALLDATASIZE SUB SLT ISZERO PUSH2 0x28C3 JUMPI PUSH1 0x0 DUP1 REVERT JUMPDEST PUSH2 0x28CB PUSH2 0x23AF JUMP JUMPDEST DUP3 CALLDATALOAD DUP2 MSTORE PUSH2 0x28DB PUSH1 0x20 DUP5 ADD PUSH2 0x2793 JUMP JUMPDEST PUSH1 0x20 DUP3 ADD MSTORE PUSH1 0x40 DUP4 ADD CALLDATALOAD PUSH1 0x1 PUSH1 0x1 PUSH1 0x40 SHL SUB DUP1 DUP3 GT ISZERO PUSH2 0x28FA JUMPI PUSH1 0x0 DUP1 REVERT JUMPDEST PUSH2 0x2906 CALLDATASIZE DUP4 DUP8 ADD PUSH2 0x27AF JUMP JUMPDEST PUSH1 0x40 DUP5 ADD MSTORE PUSH1 0x60 DUP6 ADD CALLDATALOAD SWAP2 POP DUP1 DUP3 GT ISZERO PUSH2 0x291F JUMPI PUSH1 0x0 DUP1 REVERT JUMPDEST PUSH2 0x292B CALLDATASIZE DUP4 DUP8 ADD PUSH2 0x27AF JUMP JUMPDEST PUSH1 0x60 DUP5 ADD MSTORE PUSH1 0x80 DUP6 ADD CALLDATALOAD SWAP2 POP DUP1 DUP3 GT ISZERO PUSH2 0x2944 JUMPI PUSH1 0x0 DUP1 REVERT JUMPDEST POP PUSH2 0x2951 CALLDATASIZE DUP3 DUP7 ADD PUSH2 0x281E JUMP JUMPDEST PUSH1 0x80 DUP4 ADD MSTORE POP SWAP3 SWAP2 POP POP JUMP JUMPDEST PUSH1 0x0 PUSH1 0x20 DUP3 DUP5 SUB SLT ISZERO PUSH2 0x296F JUMPI PUSH1 0x0 DUP1 REVERT JUMPDEST POP MLOAD SWAP2 SWAP1 POP JUMP JUMPDEST PUSH1 0x0 PUSH1 0x20 DUP3 DUP5 SUB SLT ISZERO PUSH2 0x2988 JUMPI PUSH1 0x0 DUP1 REVERT JUMPDEST DUP2 MLOAD DUP1 ISZERO ISZERO DUP2 EQ PUSH2 0x2351 JUMPI PUSH1 0x0 DUP1 REVERT JUMPDEST PUSH4 0x4E487B71 PUSH1 0xE0 SHL PUSH1 0x0 MSTORE PUSH1 0x12 PUSH1 0x4 MSTORE PUSH1 0x24 PUSH1 0x0 REVERT JUMPDEST PUSH1 0x0 DUP3 PUSH2 0x29BD JUMPI PUSH2 0x29BD PUSH2 0x2998 JUMP JUMPDEST POP MOD SWAP1 JUMP JUMPDEST DUP1 DUP3 ADD DUP1 DUP3 GT ISZERO PUSH2 0x684 JUMPI PUSH2 0x684 PUSH2 0x2764 JUMP JUMPDEST DUP5 DUP2 MSTORE PUSH1 0xA0 PUSH1 0x20 DUP3 ADD MSTORE PUSH1 0x0 PUSH2 0x29EE PUSH1 0xA0 DUP4 ADD DUP7 PUSH2 0x24F3 JUMP JUMPDEST PUSH1 0x40 DUP4 ADD DUP6 SWAP1 MSTORE DUP4 MLOAD PUSH1 0x60 DUP5 ADD MSTORE PUSH1 0x20 DUP5 ADD MLOAD PUSH1 0x80 DUP5 ADD MSTORE SWAP1 POP PUSH2 0x21D8 JUMP JUMPDEST PUSH1 0x0 PUSH1 0x60 DUP3 DUP5 SUB SLT ISZERO PUSH2 0x2A1F JUMPI PUSH1 0x0 DUP1 REVERT JUMPDEST PUSH1 0x40 MLOAD PUSH1 0x60 DUP2 ADD DUP2 DUP2 LT PUSH1 0x1 PUSH1 0x1 PUSH1 0x40 SHL SUB DUP3 GT OR ISZERO PUSH2 0x2A41 JUMPI PUSH2 0x2A41 PUSH2 0x2371 JUMP JUMPDEST PUSH1 0x40 MSTORE DUP3 MLOAD PUSH2 0x2A4F DUP2 PUSH2 0x256A JUMP JUMPDEST DUP2 MSTORE PUSH1 0x20 DUP4 DUP2 ADD MLOAD SWAP1 DUP3 ADD MSTORE PUSH1 0x40 SWAP3 DUP4 ADD MLOAD SWAP3 DUP2 ADD SWAP3 SWAP1 SWAP3 MSTORE POP SWAP2 SWAP1 POP JUMP JUMPDEST PUSH1 0x0 PUSH1 0x20 DUP3 DUP5 SUB SLT ISZERO PUSH2 0x2A80 JUMPI PUSH1 0x0 DUP1 REVERT JUMPDEST DUP2 MLOAD PUSH2 0x2351 DUP2 PUSH2 0x256A JUMP JUMPDEST PUSH1 0x0 DUP2 MLOAD DUP1 DUP5 MSTORE PUSH1 0x0 JUMPDEST DUP2 DUP2 LT ISZERO PUSH2 0x2AB1 JUMPI PUSH1 0x20 DUP2 DUP6 ADD DUP2 ADD MLOAD DUP7 DUP4 ADD DUP3 ADD MSTORE ADD PUSH2 0x2A95 JUMP JUMPDEST POP PUSH1 0x0 PUSH1 0x20 DUP3 DUP7 ADD ADD MSTORE PUSH1 0x20 PUSH1 0x1F NOT PUSH1 0x1F DUP4 ADD AND DUP6 ADD ADD SWAP2 POP POP SWAP3 SWAP2 POP POP JUMP JUMPDEST PUSH1 0x0 PUSH4 0xFFFFFFFF DUP1 DUP8 AND DUP4 MSTORE PUSH2 0xFFFF DUP7 AND PUSH1 0x20 DUP5 ADD MSTORE DUP1 DUP6 AND PUSH1 0x40 DUP5 ADD MSTORE POP PUSH1 0x80 PUSH1 0x60 DUP4 ADD MSTORE PUSH2 0x2B04 PUSH1 0x80 DUP4 ADD DUP5 PUSH2 0x2A8B JUMP JUMPDEST SWAP7 SWAP6 POP POP POP POP POP POP JUMP JUMPDEST PUSH1 0x1 DUP1 PUSH1 0xA0 SHL SUB DUP5 AND DUP2 MSTORE DUP3 PUSH1 0x20 DUP3 ADD MSTORE PUSH1 0x60 PUSH1 0x40 DUP3 ADD MSTORE PUSH1 0x0 PUSH2 0x21D8 PUSH1 0x60 DUP4 ADD DUP5 PUSH2 0x2A8B JUMP JUMPDEST DUP2 DUP2 SUB DUP2 DUP2 GT ISZERO PUSH2 0x684 JUMPI PUSH2 0x684 PUSH2 0x2764 JUMP JUMPDEST PUSH1 0x0 DUP3 PUSH2 0x2B57 JUMPI PUSH2 0x2B57 PUSH2 0x2998 JUMP JUMPDEST POP DIV SWAP1 JUMP JUMPDEST PUSH1 0x0 DUP2 PUSH2 0x2B6B JUMPI PUSH2 0x2B6B PUSH2 0x2764 JUMP JUMPDEST POP PUSH1 0x0 NOT ADD SWAP1 JUMP JUMPDEST DUP2 MLOAD PUSH1 0x1 PUSH1 0x1 PUSH1 0xA0 SHL SUB AND DUP2 MSTORE PUSH1 0x20 DUP1 DUP4 ADD MLOAD SWAP1 DUP3 ADD MSTORE PUSH1 0x40 DUP1 DUP4 ADD MLOAD SWAP1 DUP3 ADD MSTORE PUSH1 0x60 DUP2 ADD PUSH2 0x684 JUMP JUMPDEST PUSH1 0x0 PUSH1 0x40 PUSH1 0x1 PUSH1 0x1 PUSH1 0x40 SHL SUB DUP6 AND DUP4 MSTORE PUSH1 0x20 DUP2 DUP2 DUP6 ADD MSTORE DUP5 MLOAD PUSH1 0xA0 DUP4 DUP7 ADD MSTORE PUSH2 0x2BC9 PUSH1 0xE0 DUP7 ADD DUP3 PUSH2 0x2A8B JUMP JUMPDEST SWAP1 POP DUP2 DUP7 ADD MLOAD PUSH1 0x3F NOT DUP1 DUP8 DUP5 SUB ADD PUSH1 0x60 DUP9 ADD MSTORE PUSH2 0x2BE6 DUP4 DUP4 PUSH2 0x2A8B JUMP JUMPDEST DUP9 DUP7 ADD MLOAD DUP9 DUP3 SUB DUP4 ADD PUSH1 0x80 DUP11 ADD MSTORE DUP1 MLOAD DUP1 DUP4 MSTORE SWAP1 DUP7 ADD SWAP5 POP PUSH1 0x0 SWAP4 POP SWAP1 DUP6 ADD SWAP1 JUMPDEST DUP1 DUP5 LT ISZERO PUSH2 0x2C39 JUMPI DUP5 MLOAD DUP1 MLOAD PUSH1 0x1 PUSH1 0x1 PUSH1 0xA0 SHL SUB AND DUP4 MSTORE DUP7 ADD MLOAD DUP7 DUP4 ADD MSTORE SWAP4 DUP6 ADD SWAP4 PUSH1 0x1 SWAP4 SWAP1 SWAP4 ADD SWAP3 SWAP1 DUP7 ADD SWAP1 PUSH2 0x2C07 JUMP JUMPDEST POP PUSH1 0x60 DUP10 ADD MLOAD PUSH1 0x1 PUSH1 0x1 PUSH1 0xA0 SHL SUB AND PUSH1 0xA0 DUP10 ADD MSTORE PUSH1 0x80 DUP10 ADD MLOAD DUP9 DUP3 SUB DUP4 ADD PUSH1 0xC0 DUP11 ADD MSTORE SWAP6 POP PUSH2 0x2C68 DUP2 DUP8 PUSH2 0x2A8B JUMP JUMPDEST SWAP11 SWAP10 POP POP POP POP POP POP POP POP POP POP JUMP JUMPDEST PUSH1 0x1 PUSH1 0x1 PUSH1 0xA0 SHL SUB DUP6 DUP2 AND DUP3 MSTORE PUSH1 0xC0 DUP3 ADD SWAP1 PUSH2 0x2CB2 PUSH1 0x20 DUP5 ADD DUP8 DUP1 MLOAD PUSH1 0x1 PUSH1 0x1 PUSH1 0xA0 SHL SUB AND DUP3 MSTORE PUSH1 0x20 DUP1 DUP3 ADD MLOAD SWAP1 DUP4 ADD MSTORE PUSH1 0x40 SWAP1 DUP2 ADD MLOAD SWAP2 ADD MSTORE JUMP JUMPDEST SWAP4 SWAP1 SWAP4 AND PUSH1 0x80 DUP3 ADD MSTORE PUSH1 0xA0 ADD MSTORE SWAP3 SWAP2 POP POP JUMP INVALID LOG2 PUSH5 0x6970667358 0x22 SLT KECCAK256 0x28 JUMP 0xB1 0x4D 0x5E EXP SWAP10 GASLIMIT CREATE 0xB5 RETURNDATASIZE SGT POP 0xDB 0xBB 0xC8 0x26 PUSH7 0x59B247FD367926 0x23 PUSH1 0xD1 ISZERO PREVRANDAO 0x2B MSIZE PUSH5 0x736F6C6343 STOP ADDMOD SGT STOP CALLER "
		},
		"gasEstimates": {
			"creation": {
				"codeDepositCost": "2303000",
				"executionCost": "infinite",
				"totalCost": "infinite"
			},
			"external": {
				"LotteryItemList(uint256)": "6843",
				"acceptOwnership()": "52433",
				"buyOrUpgradeSkin(uint256)": "infinite",
				"buyOrUpgradeWeapon(uint256)": "infinite",
				"ccipReceive((bytes32,uint64,bytes,bytes,(address,uint256)[]))": "infinite",
				"chainSelectors(uint256)": "4185",
				"currentChainSelectorIndex()": "2386",
				"currentMessageItem()": "6636",
				"getBalance()": "307",
				"getLinkToken()": "infinite",
				"getPlayerAllAssets()": "infinite",
				"getPlayerLastLotteryRequestStatus()": "infinite",
				"getTopListInfo()": "infinite",
				"i_vrfV2PlusWrapper()": "infinite",
				"initLotteryList()": "688054",
				"lastUpdateTime()": "2406",
				"linkTokens(uint256)": "2523",
				"lotteryRequestMap(uint256)": "11266",
				"owner()": "2398",
				"playerDiamondMap(address)": "2624",
				"playerGoldMap(address)": "2581",
				"playerLastlotteryRequestIdMap(address)": "2647",
				"playerSkinLevelMap(address,uint256)": "2694",
				"playerSkinMap(address,uint256)": "4849",
				"playerWeaponLevelMap(address,uint256)": "2673",
				"playerWeaponMap(address,uint256)": "4828",
				"rawFulfillRandomWords(uint256,uint256[])": "infinite",
				"receivers(uint256)": "2546",
				"requestLottery()": "infinite",
				"routers(uint256)": "2547",
				"submitData(uint256)": "infinite",
				"supportsInterface(bytes4)": "473",
				"topChainIndex(uint256)": "2462",
				"topGradeList(uint256)": "2463",
				"topPlayerList(uint256)": "2546",
				"transferOwnership(address)": "infinite",
				"updateReceivers(address[])": "infinite",
				"withdrawLink()": "infinite",
				"wrapperAddressList(uint256)": "2526"
			},
			"internal": {
				"_ccipReceive(struct Client.Any2EVMMessage memory)": "infinite",
				"_sendMessage(uint64,address,address,address,struct ZKGameClient.MessageItem memory)": "infinite",
				"fulfillRandomWords(uint256,uint256[] memory)": "infinite",
				"pushDataToTopList(struct ZKGameClient.MessageItem memory)": "infinite"
			}
		},
		"methodIdentifiers": {
			"LotteryItemList(uint256)": "380149ab",
			"acceptOwnership()": "79ba5097",
			"buyOrUpgradeSkin(uint256)": "fa3b11d2",
			"buyOrUpgradeWeapon(uint256)": "cc216aba",
			"ccipReceive((bytes32,uint64,bytes,bytes,(address,uint256)[]))": "85572ffb",
			"chainSelectors(uint256)": "2bf34fbd",
			"currentChainSelectorIndex()": "11b7aad5",
			"currentMessageItem()": "cdc7bc87",
			"getBalance()": "12065fe0",
			"getLinkToken()": "e76d5168",
			"getPlayerAllAssets()": "44b7e83c",
			"getPlayerLastLotteryRequestStatus()": "3236f6ae",
			"getTopListInfo()": "d0d5117e",
			"i_vrfV2PlusWrapper()": "9ed0868d",
			"initLotteryList()": "3db497de",
			"lastUpdateTime()": "c8f33c91",
			"linkTokens(uint256)": "ea029701",
			"lotteryRequestMap(uint256)": "67c58157",
			"owner()": "8da5cb5b",
			"playerDiamondMap(address)": "91f54351",
			"playerGoldMap(address)": "a029c405",
			"playerLastlotteryRequestIdMap(address)": "b3b2875e",
			"playerSkinLevelMap(address,uint256)": "f2683ecd",
			"playerSkinMap(address,uint256)": "d5540a27",
			"playerWeaponLevelMap(address,uint256)": "bac009d3",
			"playerWeaponMap(address,uint256)": "a55e1d45",
			"rawFulfillRandomWords(uint256,uint256[])": "1fe543e3",
			"receivers(uint256)": "bfd772fc",
			"requestLottery()": "92e0c91a",
			"routers(uint256)": "4e9c1118",
			"submitData(uint256)": "b0e23518",
			"supportsInterface(bytes4)": "01ffc9a7",
			"topChainIndex(uint256)": "e8af8c0d",
			"topGradeList(uint256)": "b76ee4a8",
			"topPlayerList(uint256)": "d252682d",
			"transferOwnership(address)": "f2fde38b",
			"updateReceivers(address[])": "49c9d17a",
			"withdrawLink()": "8dc654a2",
			"wrapperAddressList(uint256)": "10fa7879"
		}
	},
	"abi": [
		{
			"inputs": [
				{
					"internalType": "uint256",
					"name": "_currentChainSelectorIndex",
					"type": "uint256"
				}
			],
			"stateMutability": "nonpayable",
			"type": "constructor"
		},
		{
			"inputs": [
				{
					"internalType": "address",
					"name": "router",
					"type": "address"
				}
			],
			"name": "InvalidRouter",
			"type": "error"
		},
		{
			"inputs": [
				{
					"internalType": "uint256",
					"name": "currentBalance",
					"type": "uint256"
				},
				{
					"internalType": "uint256",
					"name": "calculatedFees",
					"type": "uint256"
				}
			],
			"name": "NotEnoughBalance",
			"type": "error"
		},
		{
			"inputs": [
				{
					"internalType": "address",
					"name": "have",
					"type": "address"
				},
				{
					"internalType": "address",
					"name": "want",
					"type": "address"
				}
			],
			"name": "OnlyVRFWrapperCanFulfill",
			"type": "error"
		},
		{
			"anonymous": false,
			"inputs": [
				{
					"indexed": true,
					"internalType": "bytes32",
					"name": "messageId",
					"type": "bytes32"
				},
				{
					"indexed": true,
					"internalType": "uint64",
					"name": "sourceChainSelector",
					"type": "uint64"
				},
				{
					"indexed": false,
					"internalType": "address",
					"name": "sender",
					"type": "address"
				},
				{
					"components": [
						{
							"internalType": "address",
							"name": "player",
							"type": "address"
						},
						{
							"internalType": "uint256",
							"name": "time",
							"type": "uint256"
						},
						{
							"internalType": "uint256",
							"name": "chainIndex",
							"type": "uint256"
						}
					],
					"indexed": false,
					"internalType": "struct ZKGameClient.MessageItem",
					"name": "messageItem",
					"type": "tuple"
				}
			],
			"name": "MessageReceived",
			"type": "event"
		},
		{
			"anonymous": false,
			"inputs": [
				{
					"indexed": true,
					"internalType": "bytes32",
					"name": "messageId",
					"type": "bytes32"
				},
				{
					"indexed": true,
					"internalType": "uint64",
					"name": "destinationChainSelector",
					"type": "uint64"
				},
				{
					"indexed": false,
					"internalType": "address",
					"name": "receiver",
					"type": "address"
				},
				{
					"components": [
						{
							"internalType": "address",
							"name": "player",
							"type": "address"
						},
						{
							"internalType": "uint256",
							"name": "time",
							"type": "uint256"
						},
						{
							"internalType": "uint256",
							"name": "chainIndex",
							"type": "uint256"
						}
					],
					"indexed": false,
					"internalType": "struct ZKGameClient.MessageItem",
					"name": "messageItem",
					"type": "tuple"
				},
				{
					"indexed": false,
					"internalType": "address",
					"name": "feeToken",
					"type": "address"
				},
				{
					"indexed": false,
					"internalType": "uint256",
					"name": "fees",
					"type": "uint256"
				}
			],
			"name": "MessageSent",
			"type": "event"
		},
		{
			"anonymous": false,
			"inputs": [
				{
					"indexed": true,
					"internalType": "address",
					"name": "from",
					"type": "address"
				},
				{
					"indexed": true,
					"internalType": "address",
					"name": "to",
					"type": "address"
				}
			],
			"name": "OwnershipTransferRequested",
			"type": "event"
		},
		{
			"anonymous": false,
			"inputs": [
				{
					"indexed": true,
					"internalType": "address",
					"name": "from",
					"type": "address"
				},
				{
					"indexed": true,
					"internalType": "address",
					"name": "to",
					"type": "address"
				}
			],
			"name": "OwnershipTransferred",
			"type": "event"
		},
		{
			"anonymous": false,
			"inputs": [
				{
					"indexed": false,
					"internalType": "uint256",
					"name": "requestId",
					"type": "uint256"
				},
				{
					"indexed": false,
					"internalType": "uint256[]",
					"name": "randomWords",
					"type": "uint256[]"
				},
				{
					"indexed": false,
					"internalType": "uint256",
					"name": "payment",
					"type": "uint256"
				},
				{
					"components": [
						{
							"internalType": "uint256",
							"name": "itemType",
							"type": "uint256"
						},
						{
							"internalType": "uint256",
							"name": "num",
							"type": "uint256"
						}
					],
					"indexed": false,
					"internalType": "struct ZKGameClient.LotteryItem",
					"name": "lotteryItem",
					"type": "tuple"
				}
			],
			"name": "RequestLotteryFulfilled",
			"type": "event"
		},
		{
			"anonymous": false,
			"inputs": [
				{
					"indexed": false,
					"internalType": "uint256",
					"name": "requestId",
					"type": "uint256"
				},
				{
					"indexed": false,
					"internalType": "uint32",
					"name": "numWords",
					"type": "uint32"
				}
			],
			"name": "RequestLotterySent",
			"type": "event"
		},
		{
			"inputs": [
				{
					"internalType": "uint256",
					"name": "",
					"type": "uint256"
				}
			],
			"name": "LotteryItemList",
			"outputs": [
				{
					"internalType": "uint256",
					"name": "itemType",
					"type": "uint256"
				},
				{
					"internalType": "uint256",
					"name": "num",
					"type": "uint256"
				}
			],
			"stateMutability": "view",
			"type": "function"
		},
		{
			"inputs": [],
			"name": "acceptOwnership",
			"outputs": [],
			"stateMutability": "nonpayable",
			"type": "function"
		},
		{
			"inputs": [
				{
					"internalType": "uint256",
					"name": "id",
					"type": "uint256"
				}
			],
			"name": "buyOrUpgradeSkin",
			"outputs": [],
			"stateMutability": "nonpayable",
			"type": "function"
		},
		{
			"inputs": [
				{
					"internalType": "uint256",
					"name": "id",
					"type": "uint256"
				}
			],
			"name": "buyOrUpgradeWeapon",
			"outputs": [],
			"stateMutability": "nonpayable",
			"type": "function"
		},
		{
			"inputs": [
				{
					"components": [
						{
							"internalType": "bytes32",
							"name": "messageId",
							"type": "bytes32"
						},
						{
							"internalType": "uint64",
							"name": "sourceChainSelector",
							"type": "uint64"
						},
						{
							"internalType": "bytes",
							"name": "sender",
							"type": "bytes"
						},
						{
							"internalType": "bytes",
							"name": "data",
							"type": "bytes"
						},
						{
							"components": [
								{
									"internalType": "address",
									"name": "token",
									"type": "address"
								},
								{
									"internalType": "uint256",
									"name": "amount",
									"type": "uint256"
								}
							],
							"internalType": "struct Client.EVMTokenAmount[]",
							"name": "destTokenAmounts",
							"type": "tuple[]"
						}
					],
					"internalType": "struct Client.Any2EVMMessage",
					"name": "message",
					"type": "tuple"
				}
			],
			"name": "ccipReceive",
			"outputs": [],
			"stateMutability": "nonpayable",
			"type": "function"
		},
		{
			"inputs": [
				{
					"internalType": "uint256",
					"name": "",
					"type": "uint256"
				}
			],
			"name": "chainSelectors",
			"outputs": [
				{
					"internalType": "uint64",
					"name": "",
					"type": "uint64"
				}
			],
			"stateMutability": "view",
			"type": "function"
		},
		{
			"inputs": [],
			"name": "currentChainSelectorIndex",
			"outputs": [
				{
					"internalType": "uint256",
					"name": "",
					"type": "uint256"
				}
			],
			"stateMutability": "view",
			"type": "function"
		},
		{
			"inputs": [],
			"name": "currentMessageItem",
			"outputs": [
				{
					"internalType": "address",
					"name": "player",
					"type": "address"
				},
				{
					"internalType": "uint256",
					"name": "time",
					"type": "uint256"
				},
				{
					"internalType": "uint256",
					"name": "chainIndex",
					"type": "uint256"
				}
			],
			"stateMutability": "view",
			"type": "function"
		},
		{
			"inputs": [],
			"name": "getBalance",
			"outputs": [
				{
					"internalType": "uint256",
					"name": "",
					"type": "uint256"
				}
			],
			"stateMutability": "view",
			"type": "function"
		},
		{
			"inputs": [],
			"name": "getLinkToken",
			"outputs": [
				{
					"internalType": "contract LinkTokenInterface",
					"name": "",
					"type": "address"
				}
			],
			"stateMutability": "view",
			"type": "function"
		},
		{
			"inputs": [],
			"name": "getPlayerAllAssets",
			"outputs": [
				{
					"internalType": "uint256",
					"name": "gold",
					"type": "uint256"
				},
				{
					"internalType": "uint256",
					"name": "diamond",
					"type": "uint256"
				},
				{
					"internalType": "uint256[]",
					"name": "weapon",
					"type": "uint256[]"
				},
				{
					"internalType": "uint256[]",
					"name": "skin",
					"type": "uint256[]"
				}
			],
			"stateMutability": "view",
			"type": "function"
		},
		{
			"inputs": [],
			"name": "getPlayerLastLotteryRequestStatus",
			"outputs": [
				{
					"internalType": "uint256",
					"name": "paid",
					"type": "uint256"
				},
				{
					"internalType": "bool",
					"name": "fulfilled",
					"type": "bool"
				},
				{
					"components": [
						{
							"internalType": "uint256",
							"name": "itemType",
							"type": "uint256"
						},
						{
							"internalType": "uint256",
							"name": "num",
							"type": "uint256"
						}
					],
					"internalType": "struct ZKGameClient.LotteryItem",
					"name": "lotteryItem",
					"type": "tuple"
				}
			],
			"stateMutability": "view",
			"type": "function"
		},
		{
			"inputs": [],
			"name": "getTopListInfo",
			"outputs": [
				{
					"internalType": "uint256[10]",
					"name": "",
					"type": "uint256[10]"
				},
				{
					"internalType": "uint256[10]",
					"name": "",
					"type": "uint256[10]"
				},
				{
					"internalType": "address[10]",
					"name": "",
					"type": "address[10]"
				},
				{
					"internalType": "uint256",
					"name": "",
					"type": "uint256"
				}
			],
			"stateMutability": "view",
			"type": "function"
		},
		{
			"inputs": [],
			"name": "i_vrfV2PlusWrapper",
			"outputs": [
				{
					"internalType": "contract IVRFV2PlusWrapper",
					"name": "",
					"type": "address"
				}
			],
			"stateMutability": "view",
			"type": "function"
		},
		{
			"inputs": [],
			"name": "initLotteryList",
			"outputs": [],
			"stateMutability": "nonpayable",
			"type": "function"
		},
		{
			"inputs": [],
			"name": "lastUpdateTime",
			"outputs": [
				{
					"internalType": "uint256",
					"name": "",
					"type": "uint256"
				}
			],
			"stateMutability": "view",
			"type": "function"
		},
		{
			"inputs": [
				{
					"internalType": "uint256",
					"name": "",
					"type": "uint256"
				}
			],
			"name": "linkTokens",
			"outputs": [
				{
					"internalType": "address",
					"name": "",
					"type": "address"
				}
			],
			"stateMutability": "view",
			"type": "function"
		},
		{
			"inputs": [
				{
					"internalType": "uint256",
					"name": "",
					"type": "uint256"
				}
			],
			"name": "lotteryRequestMap",
			"outputs": [
				{
					"internalType": "address",
					"name": "player",
					"type": "address"
				},
				{
					"internalType": "uint256",
					"name": "paid",
					"type": "uint256"
				},
				{
					"internalType": "bool",
					"name": "fulfilled",
					"type": "bool"
				},
				{
					"components": [
						{
							"internalType": "uint256",
							"name": "itemType",
							"type": "uint256"
						},
						{
							"internalType": "uint256",
							"name": "num",
							"type": "uint256"
						}
					],
					"internalType": "struct ZKGameClient.LotteryItem",
					"name": "lotteryItem",
					"type": "tuple"
				}
			],
			"stateMutability": "view",
			"type": "function"
		},
		{
			"inputs": [],
			"name": "owner",
			"outputs": [
				{
					"internalType": "address",
					"name": "",
					"type": "address"
				}
			],
			"stateMutability": "view",
			"type": "function"
		},
		{
			"inputs": [
				{
					"internalType": "address",
					"name": "",
					"type": "address"
				}
			],
			"name": "playerDiamondMap",
			"outputs": [
				{
					"internalType": "uint256",
					"name": "",
					"type": "uint256"
				}
			],
			"stateMutability": "view",
			"type": "function"
		},
		{
			"inputs": [
				{
					"internalType": "address",
					"name": "",
					"type": "address"
				}
			],
			"name": "playerGoldMap",
			"outputs": [
				{
					"internalType": "uint256",
					"name": "",
					"type": "uint256"
				}
			],
			"stateMutability": "view",
			"type": "function"
		},
		{
			"inputs": [
				{
					"internalType": "address",
					"name": "",
					"type": "address"
				}
			],
			"name": "playerLastlotteryRequestIdMap",
			"outputs": [
				{
					"internalType": "uint256",
					"name": "",
					"type": "uint256"
				}
			],
			"stateMutability": "view",
			"type": "function"
		},
		{
			"inputs": [
				{
					"internalType": "address",
					"name": "",
					"type": "address"
				},
				{
					"internalType": "uint256",
					"name": "",
					"type": "uint256"
				}
			],
			"name": "playerSkinLevelMap",
			"outputs": [
				{
					"internalType": "uint256",
					"name": "",
					"type": "uint256"
				}
			],
			"stateMutability": "view",
			"type": "function"
		},
		{
			"inputs": [
				{
					"internalType": "address",
					"name": "",
					"type": "address"
				},
				{
					"internalType": "uint256",
					"name": "",
					"type": "uint256"
				}
			],
			"name": "playerSkinMap",
			"outputs": [
				{
					"internalType": "uint256",
					"name": "",
					"type": "uint256"
				}
			],
			"stateMutability": "view",
			"type": "function"
		},
		{
			"inputs": [
				{
					"internalType": "address",
					"name": "",
					"type": "address"
				},
				{
					"internalType": "uint256",
					"name": "",
					"type": "uint256"
				}
			],
			"name": "playerWeaponLevelMap",
			"outputs": [
				{
					"internalType": "uint256",
					"name": "",
					"type": "uint256"
				}
			],
			"stateMutability": "view",
			"type": "function"
		},
		{
			"inputs": [
				{
					"internalType": "address",
					"name": "",
					"type": "address"
				},
				{
					"internalType": "uint256",
					"name": "",
					"type": "uint256"
				}
			],
			"name": "playerWeaponMap",
			"outputs": [
				{
					"internalType": "uint256",
					"name": "",
					"type": "uint256"
				}
			],
			"stateMutability": "view",
			"type": "function"
		},
		{
			"inputs": [
				{
					"internalType": "uint256",
					"name": "_requestId",
					"type": "uint256"
				},
				{
					"internalType": "uint256[]",
					"name": "_randomWords",
					"type": "uint256[]"
				}
			],
			"name": "rawFulfillRandomWords",
			"outputs": [],
			"stateMutability": "nonpayable",
			"type": "function"
		},
		{
			"inputs": [
				{
					"internalType": "uint256",
					"name": "",
					"type": "uint256"
				}
			],
			"name": "receivers",
			"outputs": [
				{
					"internalType": "address",
					"name": "",
					"type": "address"
				}
			],
			"stateMutability": "view",
			"type": "function"
		},
		{
			"inputs": [],
			"name": "requestLottery",
			"outputs": [
				{
					"internalType": "uint256",
					"name": "",
					"type": "uint256"
				}
			],
			"stateMutability": "nonpayable",
			"type": "function"
		},
		{
			"inputs": [
				{
					"internalType": "uint256",
					"name": "",
					"type": "uint256"
				}
			],
			"name": "routers",
			"outputs": [
				{
					"internalType": "address",
					"name": "",
					"type": "address"
				}
			],
			"stateMutability": "view",
			"type": "function"
		},
		{
			"inputs": [
				{
					"internalType": "uint256",
					"name": "time",
					"type": "uint256"
				}
			],
			"name": "submitData",
			"outputs": [],
			"stateMutability": "nonpayable",
			"type": "function"
		},
		{
			"inputs": [
				{
					"internalType": "bytes4",
					"name": "interfaceId",
					"type": "bytes4"
				}
			],
			"name": "supportsInterface",
			"outputs": [
				{
					"internalType": "bool",
					"name": "",
					"type": "bool"
				}
			],
			"stateMutability": "pure",
			"type": "function"
		},
		{
			"inputs": [
				{
					"internalType": "uint256",
					"name": "",
					"type": "uint256"
				}
			],
			"name": "topChainIndex",
			"outputs": [
				{
					"internalType": "uint256",
					"name": "",
					"type": "uint256"
				}
			],
			"stateMutability": "view",
			"type": "function"
		},
		{
			"inputs": [
				{
					"internalType": "uint256",
					"name": "",
					"type": "uint256"
				}
			],
			"name": "topGradeList",
			"outputs": [
				{
					"internalType": "uint256",
					"name": "",
					"type": "uint256"
				}
			],
			"stateMutability": "view",
			"type": "function"
		},
		{
			"inputs": [
				{
					"internalType": "uint256",
					"name": "",
					"type": "uint256"
				}
			],
			"name": "topPlayerList",
			"outputs": [
				{
					"internalType": "address",
					"name": "",
					"type": "address"
				}
			],
			"stateMutability": "view",
			"type": "function"
		},
		{
			"inputs": [
				{
					"internalType": "address",
					"name": "to",
					"type": "address"
				}
			],
			"name": "transferOwnership",
			"outputs": [],
			"stateMutability": "nonpayable",
			"type": "function"
		},
		{
			"inputs": [
				{
					"internalType": "address[]",
					"name": "receiverList",
					"type": "address[]"
				}
			],
			"name": "updateReceivers",
			"outputs": [],
			"stateMutability": "nonpayable",
			"type": "function"
		},
		{
			"inputs": [],
			"name": "withdrawLink",
			"outputs": [],
			"stateMutability": "nonpayable",
			"type": "function"
		},
		{
			"inputs": [
				{
					"internalType": "uint256",
					"name": "",
					"type": "uint256"
				}
			],
			"name": "wrapperAddressList",
			"outputs": [
				{
					"internalType": "address",
					"name": "",
					"type": "address"
				}
			],
			"stateMutability": "view",
			"type": "function"
		}
	]
}